{
	"data": {
		"bytecode": {
			"linkReferences": {},
			"object": "6080604052348015600e575f80fd5b50610c058061001c5f395ff3fe608060405234801561000f575f80fd5b5060043610610034575f3560e01c8063e93314ab14610038578063fa3cdcb514610056575b5f80fd5b610040610072565b60405161004d91906105f1565b60405180910390f35b610070600480360381019061006b9190610830565b61023a565b005b60605f805480602002602001604051908101604052809291908181526020015f905b82821015610231578382905f5260205f2090600302016040518060600160405290815f820180546100c4906108d3565b80601f01602080910402602001604051908101604052809291908181526020018280546100f0906108d3565b801561013b5780601f106101125761010080835404028352916020019161013b565b820191905f5260205f20905b81548152906001019060200180831161011e57829003601f168201915b505050505081526020016001820154815260200160028201805480602002602001604051908101604052809291908181526020015f905b8282101561021a578382905f5260205f2001805461018f906108d3565b80601f01602080910402602001604051908101604052809291908181526020018280546101bb906108d3565b80156102065780601f106101dd57610100808354040283529160200191610206565b820191905f5260205f20905b8154815290600101906020018083116101e957829003601f168201915b505050505081526020019060010190610172565b505050508152505081526020019060010190610094565b50505050905090565b5f604051806060016040528084815260200160015f8054905061025d9190610930565b815260200183815250908060018154018082558091505060019003905f5260205f2090600302015f909190919091505f820151815f01908161029f9190610b00565b506020820151816001015560408201518160020190805190602001906102c69291906102cd565b5050505050565b828054828255905f5260205f20908101928215610313579160200282015b828111156103125782518290816103029190610b00565b50916020019190600101906102eb565b5b5090506103209190610324565b5090565b5b80821115610343575f818161033a9190610347565b50600101610325565b5090565b508054610353906108d3565b5f825580601f106103645750610381565b601f0160209004905f5260205f20908101906103809190610384565b5b50565b5b8082111561039b575f815f905550600101610385565b5090565b5f81519050919050565b5f82825260208201905092915050565b5f819050602082019050919050565b5f81519050919050565b5f82825260208201905092915050565b8281835e5f83830152505050565b5f601f19601f8301169050919050565b5f61040a826103c8565b61041481856103d2565b93506104248185602086016103e2565b61042d816103f0565b840191505092915050565b5f819050919050565b61044a81610438565b82525050565b5f81519050919050565b5f82825260208201905092915050565b5f819050602082019050919050565b5f6104848383610400565b905092915050565b5f602082019050919050565b5f6104a282610450565b6104ac818561045a565b9350836020820285016104be8561046a565b805f5b858110156104f957848403895281516104da8582610479565b94506104e58361048c565b925060208a019950506001810190506104c1565b50829750879550505050505092915050565b5f606083015f8301518482035f8601526105258282610400565b915050602083015161053a6020860182610441565b50604083015184820360408601526105528282610498565b9150508091505092915050565b5f61056a838361050b565b905092915050565b5f602082019050919050565b5f6105888261039f565b61059281856103a9565b9350836020820285016105a4856103b9565b805f5b858110156105df57848403895281516105c0858261055f565b94506105cb83610572565b925060208a019950506001810190506105a7565b50829750879550505050505092915050565b5f6020820190508181035f830152610609818461057e565b905092915050565b5f604051905090565b5f80fd5b5f80fd5b5f80fd5b5f80fd5b7f4e487b71000000000000000000000000000000000000000000000000000000005f52604160045260245ffd5b610660826103f0565b810181811067ffffffffffffffff8211171561067f5761067e61062a565b5b80604052505050565b5f610691610611565b905061069d8282610657565b919050565b5f67ffffffffffffffff8211156106bc576106bb61062a565b5b6106c5826103f0565b9050602081019050919050565b828183375f83830152505050565b5f6106f26106ed846106a2565b610688565b90508281526020810184848401111561070e5761070d610626565b5b6107198482856106d2565b509392505050565b5f82601f83011261073557610734610622565b5b81356107458482602086016106e0565b91505092915050565b5f67ffffffffffffffff8211156107685761076761062a565b5b602082029050602081019050919050565b5f80fd5b5f61078f61078a8461074e565b610688565b905080838252602082019050602084028301858111156107b2576107b1610779565b5b835b818110156107f957803567ffffffffffffffff8111156107d7576107d6610622565b5b8086016107e48982610721565b855260208501945050506020810190506107b4565b5050509392505050565b5f82601f83011261081757610816610622565b5b813561082784826020860161077d565b91505092915050565b5f80604083850312156108465761084561061a565b5b5f83013567ffffffffffffffff8111156108635761086261061e565b5b61086f85828601610721565b925050602083013567ffffffffffffffff8111156108905761088f61061e565b5b61089c85828601610803565b9150509250929050565b7f4e487b71000000000000000000000000000000000000000000000000000000005f52602260045260245ffd5b5f60028204905060018216806108ea57607f821691505b6020821081036108fd576108fc6108a6565b5b50919050565b7f4e487b71000000000000000000000000000000000000000000000000000000005f52601160045260245ffd5b5f61093a82610438565b915061094583610438565b925082820190508082111561095d5761095c610903565b5b92915050565b5f819050815f5260205f209050919050565b5f6020601f8301049050919050565b5f82821b905092915050565b5f600883026109bf7fffffffffffffffffffffffffffffffffffffffffffffffffffffffffffffffff82610984565b6109c98683610984565b95508019841693508086168417925050509392505050565b5f819050919050565b5f610a046109ff6109fa84610438565b6109e1565b610438565b9050919050565b5f819050919050565b610a1d836109ea565b610a31610a2982610a0b565b848454610990565b825550505050565b5f90565b610a45610a39565b610a50818484610a14565b505050565b5b81811015610a7357610a685f82610a3d565b600181019050610a56565b5050565b601f821115610ab857610a8981610963565b610a9284610975565b81016020851015610aa1578190505b610ab5610aad85610975565b830182610a55565b50505b505050565b5f82821c905092915050565b5f610ad85f1984600802610abd565b1980831691505092915050565b5f610af08383610ac9565b9150826002028217905092915050565b610b09826103c8565b67ffffffffffffffff811115610b2257610b2161062a565b5b610b2c82546108d3565b610b37828285610a77565b5f60209050601f831160018114610b68575f8415610b56578287015190505b610b608582610ae5565b865550610bc7565b601f198416610b7686610963565b5f5b82811015610b9d57848901518255600182019150602085019450602081019050610b78565b86831015610bba5784890151610bb6601f891682610ac9565b8355505b6001600288020188555050505b50505050505056fea264697066735822122073a839149f858aec82776e635e2bad429cf896bd9d77c123d172d16a2a59a7a964736f6c634300081a0033",
			"opcodes": "PUSH1 0x80 PUSH1 0x40 MSTORE CALLVALUE DUP1 ISZERO PUSH1 0xE JUMPI PUSH0 DUP1 REVERT JUMPDEST POP PUSH2 0xC05 DUP1 PUSH2 0x1C PUSH0 CODECOPY PUSH0 RETURN INVALID PUSH1 0x80 PUSH1 0x40 MSTORE CALLVALUE DUP1 ISZERO PUSH2 0xF JUMPI PUSH0 DUP1 REVERT JUMPDEST POP PUSH1 0x4 CALLDATASIZE LT PUSH2 0x34 JUMPI PUSH0 CALLDATALOAD PUSH1 0xE0 SHR DUP1 PUSH4 0xE93314AB EQ PUSH2 0x38 JUMPI DUP1 PUSH4 0xFA3CDCB5 EQ PUSH2 0x56 JUMPI JUMPDEST PUSH0 DUP1 REVERT JUMPDEST PUSH2 0x40 PUSH2 0x72 JUMP JUMPDEST PUSH1 0x40 MLOAD PUSH2 0x4D SWAP2 SWAP1 PUSH2 0x5F1 JUMP JUMPDEST PUSH1 0x40 MLOAD DUP1 SWAP2 SUB SWAP1 RETURN JUMPDEST PUSH2 0x70 PUSH1 0x4 DUP1 CALLDATASIZE SUB DUP2 ADD SWAP1 PUSH2 0x6B SWAP2 SWAP1 PUSH2 0x830 JUMP JUMPDEST PUSH2 0x23A JUMP JUMPDEST STOP JUMPDEST PUSH1 0x60 PUSH0 DUP1 SLOAD DUP1 PUSH1 0x20 MUL PUSH1 0x20 ADD PUSH1 0x40 MLOAD SWAP1 DUP2 ADD PUSH1 0x40 MSTORE DUP1 SWAP3 SWAP2 SWAP1 DUP2 DUP2 MSTORE PUSH1 0x20 ADD PUSH0 SWAP1 JUMPDEST DUP3 DUP3 LT ISZERO PUSH2 0x231 JUMPI DUP4 DUP3 SWAP1 PUSH0 MSTORE PUSH1 0x20 PUSH0 KECCAK256 SWAP1 PUSH1 0x3 MUL ADD PUSH1 0x40 MLOAD DUP1 PUSH1 0x60 ADD PUSH1 0x40 MSTORE SWAP1 DUP2 PUSH0 DUP3 ADD DUP1 SLOAD PUSH2 0xC4 SWAP1 PUSH2 0x8D3 JUMP JUMPDEST DUP1 PUSH1 0x1F ADD PUSH1 0x20 DUP1 SWAP2 DIV MUL PUSH1 0x20 ADD PUSH1 0x40 MLOAD SWAP1 DUP2 ADD PUSH1 0x40 MSTORE DUP1 SWAP3 SWAP2 SWAP1 DUP2 DUP2 MSTORE PUSH1 0x20 ADD DUP3 DUP1 SLOAD PUSH2 0xF0 SWAP1 PUSH2 0x8D3 JUMP JUMPDEST DUP1 ISZERO PUSH2 0x13B JUMPI DUP1 PUSH1 0x1F LT PUSH2 0x112 JUMPI PUSH2 0x100 DUP1 DUP4 SLOAD DIV MUL DUP4 MSTORE SWAP2 PUSH1 0x20 ADD SWAP2 PUSH2 0x13B JUMP JUMPDEST DUP3 ADD SWAP2 SWAP1 PUSH0 MSTORE PUSH1 0x20 PUSH0 KECCAK256 SWAP1 JUMPDEST DUP2 SLOAD DUP2 MSTORE SWAP1 PUSH1 0x1 ADD SWAP1 PUSH1 0x20 ADD DUP1 DUP4 GT PUSH2 0x11E JUMPI DUP3 SWAP1 SUB PUSH1 0x1F AND DUP3 ADD SWAP2 JUMPDEST POP POP POP POP POP DUP2 MSTORE PUSH1 0x20 ADD PUSH1 0x1 DUP3 ADD SLOAD DUP2 MSTORE PUSH1 0x20 ADD PUSH1 0x2 DUP3 ADD DUP1 SLOAD DUP1 PUSH1 0x20 MUL PUSH1 0x20 ADD PUSH1 0x40 MLOAD SWAP1 DUP2 ADD PUSH1 0x40 MSTORE DUP1 SWAP3 SWAP2 SWAP1 DUP2 DUP2 MSTORE PUSH1 0x20 ADD PUSH0 SWAP1 JUMPDEST DUP3 DUP3 LT ISZERO PUSH2 0x21A JUMPI DUP4 DUP3 SWAP1 PUSH0 MSTORE PUSH1 0x20 PUSH0 KECCAK256 ADD DUP1 SLOAD PUSH2 0x18F SWAP1 PUSH2 0x8D3 JUMP JUMPDEST DUP1 PUSH1 0x1F ADD PUSH1 0x20 DUP1 SWAP2 DIV MUL PUSH1 0x20 ADD PUSH1 0x40 MLOAD SWAP1 DUP2 ADD PUSH1 0x40 MSTORE DUP1 SWAP3 SWAP2 SWAP1 DUP2 DUP2 MSTORE PUSH1 0x20 ADD DUP3 DUP1 SLOAD PUSH2 0x1BB SWAP1 PUSH2 0x8D3 JUMP JUMPDEST DUP1 ISZERO PUSH2 0x206 JUMPI DUP1 PUSH1 0x1F LT PUSH2 0x1DD JUMPI PUSH2 0x100 DUP1 DUP4 SLOAD DIV MUL DUP4 MSTORE SWAP2 PUSH1 0x20 ADD SWAP2 PUSH2 0x206 JUMP JUMPDEST DUP3 ADD SWAP2 SWAP1 PUSH0 MSTORE PUSH1 0x20 PUSH0 KECCAK256 SWAP1 JUMPDEST DUP2 SLOAD DUP2 MSTORE SWAP1 PUSH1 0x1 ADD SWAP1 PUSH1 0x20 ADD DUP1 DUP4 GT PUSH2 0x1E9 JUMPI DUP3 SWAP1 SUB PUSH1 0x1F AND DUP3 ADD SWAP2 JUMPDEST POP POP POP POP POP DUP2 MSTORE PUSH1 0x20 ADD SWAP1 PUSH1 0x1 ADD SWAP1 PUSH2 0x172 JUMP JUMPDEST POP POP POP POP DUP2 MSTORE POP POP DUP2 MSTORE PUSH1 0x20 ADD SWAP1 PUSH1 0x1 ADD SWAP1 PUSH2 0x94 JUMP JUMPDEST POP POP POP POP SWAP1 POP SWAP1 JUMP JUMPDEST PUSH0 PUSH1 0x40 MLOAD DUP1 PUSH1 0x60 ADD PUSH1 0x40 MSTORE DUP1 DUP5 DUP2 MSTORE PUSH1 0x20 ADD PUSH1 0x1 PUSH0 DUP1 SLOAD SWAP1 POP PUSH2 0x25D SWAP2 SWAP1 PUSH2 0x930 JUMP JUMPDEST DUP2 MSTORE PUSH1 0x20 ADD DUP4 DUP2 MSTORE POP SWAP1 DUP1 PUSH1 0x1 DUP2 SLOAD ADD DUP1 DUP3 SSTORE DUP1 SWAP2 POP POP PUSH1 0x1 SWAP1 SUB SWAP1 PUSH0 MSTORE PUSH1 0x20 PUSH0 KECCAK256 SWAP1 PUSH1 0x3 MUL ADD PUSH0 SWAP1 SWAP2 SWAP1 SWAP2 SWAP1 SWAP2 POP PUSH0 DUP3 ADD MLOAD DUP2 PUSH0 ADD SWAP1 DUP2 PUSH2 0x29F SWAP2 SWAP1 PUSH2 0xB00 JUMP JUMPDEST POP PUSH1 0x20 DUP3 ADD MLOAD DUP2 PUSH1 0x1 ADD SSTORE PUSH1 0x40 DUP3 ADD MLOAD DUP2 PUSH1 0x2 ADD SWAP1 DUP1 MLOAD SWAP1 PUSH1 0x20 ADD SWAP1 PUSH2 0x2C6 SWAP3 SWAP2 SWAP1 PUSH2 0x2CD JUMP JUMPDEST POP POP POP POP POP JUMP JUMPDEST DUP3 DUP1 SLOAD DUP3 DUP3 SSTORE SWAP1 PUSH0 MSTORE PUSH1 0x20 PUSH0 KECCAK256 SWAP1 DUP2 ADD SWAP3 DUP3 ISZERO PUSH2 0x313 JUMPI SWAP2 PUSH1 0x20 MUL DUP3 ADD JUMPDEST DUP3 DUP2 GT ISZERO PUSH2 0x312 JUMPI DUP3 MLOAD DUP3 SWAP1 DUP2 PUSH2 0x302 SWAP2 SWAP1 PUSH2 0xB00 JUMP JUMPDEST POP SWAP2 PUSH1 0x20 ADD SWAP2 SWAP1 PUSH1 0x1 ADD SWAP1 PUSH2 0x2EB JUMP JUMPDEST JUMPDEST POP SWAP1 POP PUSH2 0x320 SWAP2 SWAP1 PUSH2 0x324 JUMP JUMPDEST POP SWAP1 JUMP JUMPDEST JUMPDEST DUP1 DUP3 GT ISZERO PUSH2 0x343 JUMPI PUSH0 DUP2 DUP2 PUSH2 0x33A SWAP2 SWAP1 PUSH2 0x347 JUMP JUMPDEST POP PUSH1 0x1 ADD PUSH2 0x325 JUMP JUMPDEST POP SWAP1 JUMP JUMPDEST POP DUP1 SLOAD PUSH2 0x353 SWAP1 PUSH2 0x8D3 JUMP JUMPDEST PUSH0 DUP3 SSTORE DUP1 PUSH1 0x1F LT PUSH2 0x364 JUMPI POP PUSH2 0x381 JUMP JUMPDEST PUSH1 0x1F ADD PUSH1 0x20 SWAP1 DIV SWAP1 PUSH0 MSTORE PUSH1 0x20 PUSH0 KECCAK256 SWAP1 DUP2 ADD SWAP1 PUSH2 0x380 SWAP2 SWAP1 PUSH2 0x384 JUMP JUMPDEST JUMPDEST POP JUMP JUMPDEST JUMPDEST DUP1 DUP3 GT ISZERO PUSH2 0x39B JUMPI PUSH0 DUP2 PUSH0 SWAP1 SSTORE POP PUSH1 0x1 ADD PUSH2 0x385 JUMP JUMPDEST POP SWAP1 JUMP JUMPDEST PUSH0 DUP2 MLOAD SWAP1 POP SWAP2 SWAP1 POP JUMP JUMPDEST PUSH0 DUP3 DUP3 MSTORE PUSH1 0x20 DUP3 ADD SWAP1 POP SWAP3 SWAP2 POP POP JUMP JUMPDEST PUSH0 DUP2 SWAP1 POP PUSH1 0x20 DUP3 ADD SWAP1 POP SWAP2 SWAP1 POP JUMP JUMPDEST PUSH0 DUP2 MLOAD SWAP1 POP SWAP2 SWAP1 POP JUMP JUMPDEST PUSH0 DUP3 DUP3 MSTORE PUSH1 0x20 DUP3 ADD SWAP1 POP SWAP3 SWAP2 POP POP JUMP JUMPDEST DUP3 DUP2 DUP4 MCOPY PUSH0 DUP4 DUP4 ADD MSTORE POP POP POP JUMP JUMPDEST PUSH0 PUSH1 0x1F NOT PUSH1 0x1F DUP4 ADD AND SWAP1 POP SWAP2 SWAP1 POP JUMP JUMPDEST PUSH0 PUSH2 0x40A DUP3 PUSH2 0x3C8 JUMP JUMPDEST PUSH2 0x414 DUP2 DUP6 PUSH2 0x3D2 JUMP JUMPDEST SWAP4 POP PUSH2 0x424 DUP2 DUP6 PUSH1 0x20 DUP7 ADD PUSH2 0x3E2 JUMP JUMPDEST PUSH2 0x42D DUP2 PUSH2 0x3F0 JUMP JUMPDEST DUP5 ADD SWAP2 POP POP SWAP3 SWAP2 POP POP JUMP JUMPDEST PUSH0 DUP2 SWAP1 POP SWAP2 SWAP1 POP JUMP JUMPDEST PUSH2 0x44A DUP2 PUSH2 0x438 JUMP JUMPDEST DUP3 MSTORE POP POP JUMP JUMPDEST PUSH0 DUP2 MLOAD SWAP1 POP SWAP2 SWAP1 POP JUMP JUMPDEST PUSH0 DUP3 DUP3 MSTORE PUSH1 0x20 DUP3 ADD SWAP1 POP SWAP3 SWAP2 POP POP JUMP JUMPDEST PUSH0 DUP2 SWAP1 POP PUSH1 0x20 DUP3 ADD SWAP1 POP SWAP2 SWAP1 POP JUMP JUMPDEST PUSH0 PUSH2 0x484 DUP4 DUP4 PUSH2 0x400 JUMP JUMPDEST SWAP1 POP SWAP3 SWAP2 POP POP JUMP JUMPDEST PUSH0 PUSH1 0x20 DUP3 ADD SWAP1 POP SWAP2 SWAP1 POP JUMP JUMPDEST PUSH0 PUSH2 0x4A2 DUP3 PUSH2 0x450 JUMP JUMPDEST PUSH2 0x4AC DUP2 DUP6 PUSH2 0x45A JUMP JUMPDEST SWAP4 POP DUP4 PUSH1 0x20 DUP3 MUL DUP6 ADD PUSH2 0x4BE DUP6 PUSH2 0x46A JUMP JUMPDEST DUP1 PUSH0 JUMPDEST DUP6 DUP2 LT ISZERO PUSH2 0x4F9 JUMPI DUP5 DUP5 SUB DUP10 MSTORE DUP2 MLOAD PUSH2 0x4DA DUP6 DUP3 PUSH2 0x479 JUMP JUMPDEST SWAP5 POP PUSH2 0x4E5 DUP4 PUSH2 0x48C JUMP JUMPDEST SWAP3 POP PUSH1 0x20 DUP11 ADD SWAP10 POP POP PUSH1 0x1 DUP2 ADD SWAP1 POP PUSH2 0x4C1 JUMP JUMPDEST POP DUP3 SWAP8 POP DUP8 SWAP6 POP POP POP POP POP POP SWAP3 SWAP2 POP POP JUMP JUMPDEST PUSH0 PUSH1 0x60 DUP4 ADD PUSH0 DUP4 ADD MLOAD DUP5 DUP3 SUB PUSH0 DUP7 ADD MSTORE PUSH2 0x525 DUP3 DUP3 PUSH2 0x400 JUMP JUMPDEST SWAP2 POP POP PUSH1 0x20 DUP4 ADD MLOAD PUSH2 0x53A PUSH1 0x20 DUP7 ADD DUP3 PUSH2 0x441 JUMP JUMPDEST POP PUSH1 0x40 DUP4 ADD MLOAD DUP5 DUP3 SUB PUSH1 0x40 DUP7 ADD MSTORE PUSH2 0x552 DUP3 DUP3 PUSH2 0x498 JUMP JUMPDEST SWAP2 POP POP DUP1 SWAP2 POP POP SWAP3 SWAP2 POP POP JUMP JUMPDEST PUSH0 PUSH2 0x56A DUP4 DUP4 PUSH2 0x50B JUMP JUMPDEST SWAP1 POP SWAP3 SWAP2 POP POP JUMP JUMPDEST PUSH0 PUSH1 0x20 DUP3 ADD SWAP1 POP SWAP2 SWAP1 POP JUMP JUMPDEST PUSH0 PUSH2 0x588 DUP3 PUSH2 0x39F JUMP JUMPDEST PUSH2 0x592 DUP2 DUP6 PUSH2 0x3A9 JUMP JUMPDEST SWAP4 POP DUP4 PUSH1 0x20 DUP3 MUL DUP6 ADD PUSH2 0x5A4 DUP6 PUSH2 0x3B9 JUMP JUMPDEST DUP1 PUSH0 JUMPDEST DUP6 DUP2 LT ISZERO PUSH2 0x5DF JUMPI DUP5 DUP5 SUB DUP10 MSTORE DUP2 MLOAD PUSH2 0x5C0 DUP6 DUP3 PUSH2 0x55F JUMP JUMPDEST SWAP5 POP PUSH2 0x5CB DUP4 PUSH2 0x572 JUMP JUMPDEST SWAP3 POP PUSH1 0x20 DUP11 ADD SWAP10 POP POP PUSH1 0x1 DUP2 ADD SWAP1 POP PUSH2 0x5A7 JUMP JUMPDEST POP DUP3 SWAP8 POP DUP8 SWAP6 POP POP POP POP POP POP SWAP3 SWAP2 POP POP JUMP JUMPDEST PUSH0 PUSH1 0x20 DUP3 ADD SWAP1 POP DUP2 DUP2 SUB PUSH0 DUP4 ADD MSTORE PUSH2 0x609 DUP2 DUP5 PUSH2 0x57E JUMP JUMPDEST SWAP1 POP SWAP3 SWAP2 POP POP JUMP JUMPDEST PUSH0 PUSH1 0x40 MLOAD SWAP1 POP SWAP1 JUMP JUMPDEST PUSH0 DUP1 REVERT JUMPDEST PUSH0 DUP1 REVERT JUMPDEST PUSH0 DUP1 REVERT JUMPDEST PUSH0 DUP1 REVERT JUMPDEST PUSH32 0x4E487B7100000000000000000000000000000000000000000000000000000000 PUSH0 MSTORE PUSH1 0x41 PUSH1 0x4 MSTORE PUSH1 0x24 PUSH0 REVERT JUMPDEST PUSH2 0x660 DUP3 PUSH2 0x3F0 JUMP JUMPDEST DUP2 ADD DUP2 DUP2 LT PUSH8 0xFFFFFFFFFFFFFFFF DUP3 GT OR ISZERO PUSH2 0x67F JUMPI PUSH2 0x67E PUSH2 0x62A JUMP JUMPDEST JUMPDEST DUP1 PUSH1 0x40 MSTORE POP POP POP JUMP JUMPDEST PUSH0 PUSH2 0x691 PUSH2 0x611 JUMP JUMPDEST SWAP1 POP PUSH2 0x69D DUP3 DUP3 PUSH2 0x657 JUMP JUMPDEST SWAP2 SWAP1 POP JUMP JUMPDEST PUSH0 PUSH8 0xFFFFFFFFFFFFFFFF DUP3 GT ISZERO PUSH2 0x6BC JUMPI PUSH2 0x6BB PUSH2 0x62A JUMP JUMPDEST JUMPDEST PUSH2 0x6C5 DUP3 PUSH2 0x3F0 JUMP JUMPDEST SWAP1 POP PUSH1 0x20 DUP2 ADD SWAP1 POP SWAP2 SWAP1 POP JUMP JUMPDEST DUP3 DUP2 DUP4 CALLDATACOPY PUSH0 DUP4 DUP4 ADD MSTORE POP POP POP JUMP JUMPDEST PUSH0 PUSH2 0x6F2 PUSH2 0x6ED DUP5 PUSH2 0x6A2 JUMP JUMPDEST PUSH2 0x688 JUMP JUMPDEST SWAP1 POP DUP3 DUP2 MSTORE PUSH1 0x20 DUP2 ADD DUP5 DUP5 DUP5 ADD GT ISZERO PUSH2 0x70E JUMPI PUSH2 0x70D PUSH2 0x626 JUMP JUMPDEST JUMPDEST PUSH2 0x719 DUP5 DUP3 DUP6 PUSH2 0x6D2 JUMP JUMPDEST POP SWAP4 SWAP3 POP POP POP JUMP JUMPDEST PUSH0 DUP3 PUSH1 0x1F DUP4 ADD SLT PUSH2 0x735 JUMPI PUSH2 0x734 PUSH2 0x622 JUMP JUMPDEST JUMPDEST DUP2 CALLDATALOAD PUSH2 0x745 DUP5 DUP3 PUSH1 0x20 DUP7 ADD PUSH2 0x6E0 JUMP JUMPDEST SWAP2 POP POP SWAP3 SWAP2 POP POP JUMP JUMPDEST PUSH0 PUSH8 0xFFFFFFFFFFFFFFFF DUP3 GT ISZERO PUSH2 0x768 JUMPI PUSH2 0x767 PUSH2 0x62A JUMP JUMPDEST JUMPDEST PUSH1 0x20 DUP3 MUL SWAP1 POP PUSH1 0x20 DUP2 ADD SWAP1 POP SWAP2 SWAP1 POP JUMP JUMPDEST PUSH0 DUP1 REVERT JUMPDEST PUSH0 PUSH2 0x78F PUSH2 0x78A DUP5 PUSH2 0x74E JUMP JUMPDEST PUSH2 0x688 JUMP JUMPDEST SWAP1 POP DUP1 DUP4 DUP3 MSTORE PUSH1 0x20 DUP3 ADD SWAP1 POP PUSH1 0x20 DUP5 MUL DUP4 ADD DUP6 DUP2 GT ISZERO PUSH2 0x7B2 JUMPI PUSH2 0x7B1 PUSH2 0x779 JUMP JUMPDEST JUMPDEST DUP4 JUMPDEST DUP2 DUP2 LT ISZERO PUSH2 0x7F9 JUMPI DUP1 CALLDATALOAD PUSH8 0xFFFFFFFFFFFFFFFF DUP2 GT ISZERO PUSH2 0x7D7 JUMPI PUSH2 0x7D6 PUSH2 0x622 JUMP JUMPDEST JUMPDEST DUP1 DUP7 ADD PUSH2 0x7E4 DUP10 DUP3 PUSH2 0x721 JUMP JUMPDEST DUP6 MSTORE PUSH1 0x20 DUP6 ADD SWAP5 POP POP POP PUSH1 0x20 DUP2 ADD SWAP1 POP PUSH2 0x7B4 JUMP JUMPDEST POP POP POP SWAP4 SWAP3 POP POP POP JUMP JUMPDEST PUSH0 DUP3 PUSH1 0x1F DUP4 ADD SLT PUSH2 0x817 JUMPI PUSH2 0x816 PUSH2 0x622 JUMP JUMPDEST JUMPDEST DUP2 CALLDATALOAD PUSH2 0x827 DUP5 DUP3 PUSH1 0x20 DUP7 ADD PUSH2 0x77D JUMP JUMPDEST SWAP2 POP POP SWAP3 SWAP2 POP POP JUMP JUMPDEST PUSH0 DUP1 PUSH1 0x40 DUP4 DUP6 SUB SLT ISZERO PUSH2 0x846 JUMPI PUSH2 0x845 PUSH2 0x61A JUMP JUMPDEST JUMPDEST PUSH0 DUP4 ADD CALLDATALOAD PUSH8 0xFFFFFFFFFFFFFFFF DUP2 GT ISZERO PUSH2 0x863 JUMPI PUSH2 0x862 PUSH2 0x61E JUMP JUMPDEST JUMPDEST PUSH2 0x86F DUP6 DUP3 DUP7 ADD PUSH2 0x721 JUMP JUMPDEST SWAP3 POP POP PUSH1 0x20 DUP4 ADD CALLDATALOAD PUSH8 0xFFFFFFFFFFFFFFFF DUP2 GT ISZERO PUSH2 0x890 JUMPI PUSH2 0x88F PUSH2 0x61E JUMP JUMPDEST JUMPDEST PUSH2 0x89C DUP6 DUP3 DUP7 ADD PUSH2 0x803 JUMP JUMPDEST SWAP2 POP POP SWAP3 POP SWAP3 SWAP1 POP JUMP JUMPDEST PUSH32 0x4E487B7100000000000000000000000000000000000000000000000000000000 PUSH0 MSTORE PUSH1 0x22 PUSH1 0x4 MSTORE PUSH1 0x24 PUSH0 REVERT JUMPDEST PUSH0 PUSH1 0x2 DUP3 DIV SWAP1 POP PUSH1 0x1 DUP3 AND DUP1 PUSH2 0x8EA JUMPI PUSH1 0x7F DUP3 AND SWAP2 POP JUMPDEST PUSH1 0x20 DUP3 LT DUP2 SUB PUSH2 0x8FD JUMPI PUSH2 0x8FC PUSH2 0x8A6 JUMP JUMPDEST JUMPDEST POP SWAP2 SWAP1 POP JUMP JUMPDEST PUSH32 0x4E487B7100000000000000000000000000000000000000000000000000000000 PUSH0 MSTORE PUSH1 0x11 PUSH1 0x4 MSTORE PUSH1 0x24 PUSH0 REVERT JUMPDEST PUSH0 PUSH2 0x93A DUP3 PUSH2 0x438 JUMP JUMPDEST SWAP2 POP PUSH2 0x945 DUP4 PUSH2 0x438 JUMP JUMPDEST SWAP3 POP DUP3 DUP3 ADD SWAP1 POP DUP1 DUP3 GT ISZERO PUSH2 0x95D JUMPI PUSH2 0x95C PUSH2 0x903 JUMP JUMPDEST JUMPDEST SWAP3 SWAP2 POP POP JUMP JUMPDEST PUSH0 DUP2 SWAP1 POP DUP2 PUSH0 MSTORE PUSH1 0x20 PUSH0 KECCAK256 SWAP1 POP SWAP2 SWAP1 POP JUMP JUMPDEST PUSH0 PUSH1 0x20 PUSH1 0x1F DUP4 ADD DIV SWAP1 POP SWAP2 SWAP1 POP JUMP JUMPDEST PUSH0 DUP3 DUP3 SHL SWAP1 POP SWAP3 SWAP2 POP POP JUMP JUMPDEST PUSH0 PUSH1 0x8 DUP4 MUL PUSH2 0x9BF PUSH32 0xFFFFFFFFFFFFFFFFFFFFFFFFFFFFFFFFFFFFFFFFFFFFFFFFFFFFFFFFFFFFFFFF DUP3 PUSH2 0x984 JUMP JUMPDEST PUSH2 0x9C9 DUP7 DUP4 PUSH2 0x984 JUMP JUMPDEST SWAP6 POP DUP1 NOT DUP5 AND SWAP4 POP DUP1 DUP7 AND DUP5 OR SWAP3 POP POP POP SWAP4 SWAP3 POP POP POP JUMP JUMPDEST PUSH0 DUP2 SWAP1 POP SWAP2 SWAP1 POP JUMP JUMPDEST PUSH0 PUSH2 0xA04 PUSH2 0x9FF PUSH2 0x9FA DUP5 PUSH2 0x438 JUMP JUMPDEST PUSH2 0x9E1 JUMP JUMPDEST PUSH2 0x438 JUMP JUMPDEST SWAP1 POP SWAP2 SWAP1 POP JUMP JUMPDEST PUSH0 DUP2 SWAP1 POP SWAP2 SWAP1 POP JUMP JUMPDEST PUSH2 0xA1D DUP4 PUSH2 0x9EA JUMP JUMPDEST PUSH2 0xA31 PUSH2 0xA29 DUP3 PUSH2 0xA0B JUMP JUMPDEST DUP5 DUP5 SLOAD PUSH2 0x990 JUMP JUMPDEST DUP3 SSTORE POP POP POP POP JUMP JUMPDEST PUSH0 SWAP1 JUMP JUMPDEST PUSH2 0xA45 PUSH2 0xA39 JUMP JUMPDEST PUSH2 0xA50 DUP2 DUP5 DUP5 PUSH2 0xA14 JUMP JUMPDEST POP POP POP JUMP JUMPDEST JUMPDEST DUP2 DUP2 LT ISZERO PUSH2 0xA73 JUMPI PUSH2 0xA68 PUSH0 DUP3 PUSH2 0xA3D JUMP JUMPDEST PUSH1 0x1 DUP2 ADD SWAP1 POP PUSH2 0xA56 JUMP JUMPDEST POP POP JUMP JUMPDEST PUSH1 0x1F DUP3 GT ISZERO PUSH2 0xAB8 JUMPI PUSH2 0xA89 DUP2 PUSH2 0x963 JUMP JUMPDEST PUSH2 0xA92 DUP5 PUSH2 0x975 JUMP JUMPDEST DUP2 ADD PUSH1 0x20 DUP6 LT ISZERO PUSH2 0xAA1 JUMPI DUP2 SWAP1 POP JUMPDEST PUSH2 0xAB5 PUSH2 0xAAD DUP6 PUSH2 0x975 JUMP JUMPDEST DUP4 ADD DUP3 PUSH2 0xA55 JUMP JUMPDEST POP POP JUMPDEST POP POP POP JUMP JUMPDEST PUSH0 DUP3 DUP3 SHR SWAP1 POP SWAP3 SWAP2 POP POP JUMP JUMPDEST PUSH0 PUSH2 0xAD8 PUSH0 NOT DUP5 PUSH1 0x8 MUL PUSH2 0xABD JUMP JUMPDEST NOT DUP1 DUP4 AND SWAP2 POP POP SWAP3 SWAP2 POP POP JUMP JUMPDEST PUSH0 PUSH2 0xAF0 DUP4 DUP4 PUSH2 0xAC9 JUMP JUMPDEST SWAP2 POP DUP3 PUSH1 0x2 MUL DUP3 OR SWAP1 POP SWAP3 SWAP2 POP POP JUMP JUMPDEST PUSH2 0xB09 DUP3 PUSH2 0x3C8 JUMP JUMPDEST PUSH8 0xFFFFFFFFFFFFFFFF DUP2 GT ISZERO PUSH2 0xB22 JUMPI PUSH2 0xB21 PUSH2 0x62A JUMP JUMPDEST JUMPDEST PUSH2 0xB2C DUP3 SLOAD PUSH2 0x8D3 JUMP JUMPDEST PUSH2 0xB37 DUP3 DUP3 DUP6 PUSH2 0xA77 JUMP JUMPDEST PUSH0 PUSH1 0x20 SWAP1 POP PUSH1 0x1F DUP4 GT PUSH1 0x1 DUP2 EQ PUSH2 0xB68 JUMPI PUSH0 DUP5 ISZERO PUSH2 0xB56 JUMPI DUP3 DUP8 ADD MLOAD SWAP1 POP JUMPDEST PUSH2 0xB60 DUP6 DUP3 PUSH2 0xAE5 JUMP JUMPDEST DUP7 SSTORE POP PUSH2 0xBC7 JUMP JUMPDEST PUSH1 0x1F NOT DUP5 AND PUSH2 0xB76 DUP7 PUSH2 0x963 JUMP JUMPDEST PUSH0 JUMPDEST DUP3 DUP2 LT ISZERO PUSH2 0xB9D JUMPI DUP5 DUP10 ADD MLOAD DUP3 SSTORE PUSH1 0x1 DUP3 ADD SWAP2 POP PUSH1 0x20 DUP6 ADD SWAP5 POP PUSH1 0x20 DUP2 ADD SWAP1 POP PUSH2 0xB78 JUMP JUMPDEST DUP7 DUP4 LT ISZERO PUSH2 0xBBA JUMPI DUP5 DUP10 ADD MLOAD PUSH2 0xBB6 PUSH1 0x1F DUP10 AND DUP3 PUSH2 0xAC9 JUMP JUMPDEST DUP4 SSTORE POP JUMPDEST PUSH1 0x1 PUSH1 0x2 DUP9 MUL ADD DUP9 SSTORE POP POP POP JUMPDEST POP POP POP POP POP POP JUMP INVALID LOG2 PUSH5 0x6970667358 0x22 SLT KECCAK256 PUSH20 0xA839149F858AEC82776E635E2BAD429CF896BD9D PUSH24 0xC123D172D16A2A59A7A964736F6C634300081A0033000000 "
		},
		"gasEstimates": {
			"creation": {
				"codeDepositCost": "615400",
				"executionCost": "649",
				"totalCost": "616049"
			},
			"external": {
				"getS()": "infinite",
				"pushStudent(string,string[])": "infinite"
			}
		},
		"methodIdentifiers": {
			"getS()": "e93314ab",
			"pushStudent(string,string[])": "fa3cdcb5"
		}
	},
	"abi": [
		{
			"inputs": [],
			"name": "getS",
			"outputs": [
				{
					"components": [
						{
							"internalType": "string",
							"name": "name",
							"type": "string"
						},
						{
							"internalType": "uint256",
							"name": "number",
							"type": "uint256"
						},
						{
							"internalType": "string[]",
							"name": "class",
							"type": "string[]"
						}
					],
					"internalType": "struct Q14.student[]",
					"name": "",
					"type": "tuple[]"
				}
			],
			"stateMutability": "view",
			"type": "function"
		},
		{
			"inputs": [
				{
					"internalType": "string",
					"name": "_name",
					"type": "string"
				},
				{
					"internalType": "string[]",
					"name": "_class",
					"type": "string[]"
				}
			],
			"name": "pushStudent",
			"outputs": [],
			"stateMutability": "nonpayable",
			"type": "function"
		}
	]
}