{
	"data": {
		"bytecode": {
			"linkReferences": {},
			"object": "6080604052348015600e575f80fd5b5060aa80601a5f395ff3fe6080604052348015600e575f80fd5b50600436106026575f3560e01c8063ac3afa4314602a575b5f80fd5b60306032565b005b5f805f91505b808210156070575f82908060018154018082558091505060019003905f5260205f20015f909190919091505581806001019250506038565b505056fea2646970667358221220c4a8a496090eac1abe085c07a84fb3b0e775a0c535ddbe585d0e7bb1f24aa0e764736f6c634300081a0033",
			"opcodes": "PUSH1 0x80 PUSH1 0x40 MSTORE CALLVALUE DUP1 ISZERO PUSH1 0xE JUMPI PUSH0 DUP1 REVERT JUMPDEST POP PUSH1 0xAA DUP1 PUSH1 0x1A PUSH0 CODECOPY PUSH0 RETURN INVALID PUSH1 0x80 PUSH1 0x40 MSTORE CALLVALUE DUP1 ISZERO PUSH1 0xE JUMPI PUSH0 DUP1 REVERT JUMPDEST POP PUSH1 0x4 CALLDATASIZE LT PUSH1 0x26 JUMPI PUSH0 CALLDATALOAD PUSH1 0xE0 SHR DUP1 PUSH4 0xAC3AFA43 EQ PUSH1 0x2A JUMPI JUMPDEST PUSH0 DUP1 REVERT JUMPDEST PUSH1 0x30 PUSH1 0x32 JUMP JUMPDEST STOP JUMPDEST PUSH0 DUP1 PUSH0 SWAP2 POP JUMPDEST DUP1 DUP3 LT ISZERO PUSH1 0x70 JUMPI PUSH0 DUP3 SWAP1 DUP1 PUSH1 0x1 DUP2 SLOAD ADD DUP1 DUP3 SSTORE DUP1 SWAP2 POP POP PUSH1 0x1 SWAP1 SUB SWAP1 PUSH0 MSTORE PUSH1 0x20 PUSH0 KECCAK256 ADD PUSH0 SWAP1 SWAP2 SWAP1 SWAP2 SWAP1 SWAP2 POP SSTORE DUP2 DUP1 PUSH1 0x1 ADD SWAP3 POP POP PUSH1 0x38 JUMP JUMPDEST POP POP JUMP INVALID LOG2 PUSH5 0x6970667358 0x22 SLT KECCAK256 0xC4 0xA8 LOG4 SWAP7 MULMOD 0xE 0xAC BYTE 0xBE ADDMOD TLOAD SMOD 0xA8 0x4F 0xB3 0xB0 0xE7 PUSH22 0xA0C535DDBE585D0E7BB1F24AA0E764736F6C63430008 BYTE STOP CALLER "
		},
		"gasEstimates": {
			"creation": {
				"codeDepositCost": "34000",
				"executionCost": "85",
				"totalCost": "34085"
			},
			"external": {
				"setNum()": "164"
			}
		},
		"methodIdentifiers": {
			"setNum()": "ac3afa43"
		}
	},
	"abi": [
		{
			"inputs": [],
			"name": "setNum",
			"outputs": [],
			"stateMutability": "nonpayable",
			"type": "function"
		}
	]
}