{
	"data": {
		"bytecode": {
			"linkReferences": {},
			"object": "6080604052348015600e575f80fd5b506109fe8061001c5f395ff3fe608060405234801561000f575f80fd5b5060043610610034575f3560e01c8063518bddd914610038578063eac0990b14610068575b5f80fd5b610052600480360381019061004d91906103ce565b610084565b60405161005f919061052c565b60405180910390f35b610082600480360381019061007d9190610639565b6101b3565b005b61008c610246565b5f8260405161009b91906106e9565b90815260200160405180910390206040518060800160405290815f820180546100c39061072c565b80601f01602080910402602001604051908101604052809291908181526020018280546100ef9061072c565b801561013a5780601f106101115761010080835404028352916020019161013a565b820191905f5260205f20905b81548152906001019060200180831161011d57829003601f168201915b5050505050815260200160018201548152602001600282015f9054906101000a900473ffffffffffffffffffffffffffffffffffffffff1673ffffffffffffffffffffffffffffffffffffffff1673ffffffffffffffffffffffffffffffffffffffff1681526020016003820154815250509050919050565b805f836040516101c391906106e9565b90815260200160405180910390205f820151815f0190816101e491906108f9565b50602082015181600101556040820151816002015f6101000a81548173ffffffffffffffffffffffffffffffffffffffff021916908373ffffffffffffffffffffffffffffffffffffffff160217905550606082015181600301559050505050565b6040518060800160405280606081526020015f81526020015f73ffffffffffffffffffffffffffffffffffffffff1681526020015f81525090565b5f604051905090565b5f80fd5b5f80fd5b5f80fd5b5f80fd5b5f601f19601f8301169050919050565b7f4e487b71000000000000000000000000000000000000000000000000000000005f52604160045260245ffd5b6102e08261029a565b810181811067ffffffffffffffff821117156102ff576102fe6102aa565b5b80604052505050565b5f610311610281565b905061031d82826102d7565b919050565b5f67ffffffffffffffff82111561033c5761033b6102aa565b5b6103458261029a565b9050602081019050919050565b828183375f83830152505050565b5f61037261036d84610322565b610308565b90508281526020810184848401111561038e5761038d610296565b5b610399848285610352565b509392505050565b5f82601f8301126103b5576103b4610292565b5b81356103c5848260208601610360565b91505092915050565b5f602082840312156103e3576103e261028a565b5b5f82013567ffffffffffffffff811115610400576103ff61028e565b5b61040c848285016103a1565b91505092915050565b5f81519050919050565b5f82825260208201905092915050565b8281835e5f83830152505050565b5f61044782610415565b610451818561041f565b935061046181856020860161042f565b61046a8161029a565b840191505092915050565b5f819050919050565b61048781610475565b82525050565b5f73ffffffffffffffffffffffffffffffffffffffff82169050919050565b5f6104b68261048d565b9050919050565b6104c6816104ac565b82525050565b5f608083015f8301518482035f8601526104e6828261043d565b91505060208301516104fb602086018261047e565b50604083015161050e60408601826104bd565b506060830151610521606086018261047e565b508091505092915050565b5f6020820190508181035f83015261054481846104cc565b905092915050565b5f80fd5b5f80fd5b61055d81610475565b8114610567575f80fd5b50565b5f8135905061057881610554565b92915050565b610587816104ac565b8114610591575f80fd5b50565b5f813590506105a28161057e565b92915050565b5f608082840312156105bd576105bc61054c565b5b6105c76080610308565b90505f82013567ffffffffffffffff8111156105e6576105e5610550565b5b6105f2848285016103a1565b5f8301525060206106058482850161056a565b602083015250604061061984828501610594565b604083015250606061062d8482850161056a565b60608301525092915050565b5f806040838503121561064f5761064e61028a565b5b5f83013567ffffffffffffffff81111561066c5761066b61028e565b5b610678858286016103a1565b925050602083013567ffffffffffffffff8111156106995761069861028e565b5b6106a5858286016105a8565b9150509250929050565b5f81905092915050565b5f6106c382610415565b6106cd81856106af565b93506106dd81856020860161042f565b80840191505092915050565b5f6106f482846106b9565b915081905092915050565b7f4e487b71000000000000000000000000000000000000000000000000000000005f52602260045260245ffd5b5f600282049050600182168061074357607f821691505b602082108103610756576107556106ff565b5b50919050565b5f819050815f5260205f209050919050565b5f6020601f8301049050919050565b5f82821b905092915050565b5f600883026107b87fffffffffffffffffffffffffffffffffffffffffffffffffffffffffffffffff8261077d565b6107c2868361077d565b95508019841693508086168417925050509392505050565b5f819050919050565b5f6107fd6107f86107f384610475565b6107da565b610475565b9050919050565b5f819050919050565b610816836107e3565b61082a61082282610804565b848454610789565b825550505050565b5f90565b61083e610832565b61084981848461080d565b505050565b5b8181101561086c576108615f82610836565b60018101905061084f565b5050565b601f8211156108b1576108828161075c565b61088b8461076e565b8101602085101561089a578190505b6108ae6108a68561076e565b83018261084e565b50505b505050565b5f82821c905092915050565b5f6108d15f19846008026108b6565b1980831691505092915050565b5f6108e983836108c2565b9150826002028217905092915050565b61090282610415565b67ffffffffffffffff81111561091b5761091a6102aa565b5b610925825461072c565b610930828285610870565b5f60209050601f831160018114610961575f841561094f578287015190505b61095985826108de565b8655506109c0565b601f19841661096f8661075c565b5f5b8281101561099657848901518255600182019150602085019450602081019050610971565b868310156109b357848901516109af601f8916826108c2565b8355505b6001600288020188555050505b50505050505056fea2646970667358221220db9127c0a327bf338e3f5e40ecaf936ef50c27035ddc387834b9f9a290d38f6c64736f6c634300081a0033",
			"opcodes": "PUSH1 0x80 PUSH1 0x40 MSTORE CALLVALUE DUP1 ISZERO PUSH1 0xE JUMPI PUSH0 DUP1 REVERT JUMPDEST POP PUSH2 0x9FE DUP1 PUSH2 0x1C PUSH0 CODECOPY PUSH0 RETURN INVALID PUSH1 0x80 PUSH1 0x40 MSTORE CALLVALUE DUP1 ISZERO PUSH2 0xF JUMPI PUSH0 DUP1 REVERT JUMPDEST POP PUSH1 0x4 CALLDATASIZE LT PUSH2 0x34 JUMPI PUSH0 CALLDATALOAD PUSH1 0xE0 SHR DUP1 PUSH4 0x518BDDD9 EQ PUSH2 0x38 JUMPI DUP1 PUSH4 0xEAC0990B EQ PUSH2 0x68 JUMPI JUMPDEST PUSH0 DUP1 REVERT JUMPDEST PUSH2 0x52 PUSH1 0x4 DUP1 CALLDATASIZE SUB DUP2 ADD SWAP1 PUSH2 0x4D SWAP2 SWAP1 PUSH2 0x3CE JUMP JUMPDEST PUSH2 0x84 JUMP JUMPDEST PUSH1 0x40 MLOAD PUSH2 0x5F SWAP2 SWAP1 PUSH2 0x52C JUMP JUMPDEST PUSH1 0x40 MLOAD DUP1 SWAP2 SUB SWAP1 RETURN JUMPDEST PUSH2 0x82 PUSH1 0x4 DUP1 CALLDATASIZE SUB DUP2 ADD SWAP1 PUSH2 0x7D SWAP2 SWAP1 PUSH2 0x639 JUMP JUMPDEST PUSH2 0x1B3 JUMP JUMPDEST STOP JUMPDEST PUSH2 0x8C PUSH2 0x246 JUMP JUMPDEST PUSH0 DUP3 PUSH1 0x40 MLOAD PUSH2 0x9B SWAP2 SWAP1 PUSH2 0x6E9 JUMP JUMPDEST SWAP1 DUP2 MSTORE PUSH1 0x20 ADD PUSH1 0x40 MLOAD DUP1 SWAP2 SUB SWAP1 KECCAK256 PUSH1 0x40 MLOAD DUP1 PUSH1 0x80 ADD PUSH1 0x40 MSTORE SWAP1 DUP2 PUSH0 DUP3 ADD DUP1 SLOAD PUSH2 0xC3 SWAP1 PUSH2 0x72C JUMP JUMPDEST DUP1 PUSH1 0x1F ADD PUSH1 0x20 DUP1 SWAP2 DIV MUL PUSH1 0x20 ADD PUSH1 0x40 MLOAD SWAP1 DUP2 ADD PUSH1 0x40 MSTORE DUP1 SWAP3 SWAP2 SWAP1 DUP2 DUP2 MSTORE PUSH1 0x20 ADD DUP3 DUP1 SLOAD PUSH2 0xEF SWAP1 PUSH2 0x72C JUMP JUMPDEST DUP1 ISZERO PUSH2 0x13A JUMPI DUP1 PUSH1 0x1F LT PUSH2 0x111 JUMPI PUSH2 0x100 DUP1 DUP4 SLOAD DIV MUL DUP4 MSTORE SWAP2 PUSH1 0x20 ADD SWAP2 PUSH2 0x13A JUMP JUMPDEST DUP3 ADD SWAP2 SWAP1 PUSH0 MSTORE PUSH1 0x20 PUSH0 KECCAK256 SWAP1 JUMPDEST DUP2 SLOAD DUP2 MSTORE SWAP1 PUSH1 0x1 ADD SWAP1 PUSH1 0x20 ADD DUP1 DUP4 GT PUSH2 0x11D JUMPI DUP3 SWAP1 SUB PUSH1 0x1F AND DUP3 ADD SWAP2 JUMPDEST POP POP POP POP POP DUP2 MSTORE PUSH1 0x20 ADD PUSH1 0x1 DUP3 ADD SLOAD DUP2 MSTORE PUSH1 0x20 ADD PUSH1 0x2 DUP3 ADD PUSH0 SWAP1 SLOAD SWAP1 PUSH2 0x100 EXP SWAP1 DIV PUSH20 0xFFFFFFFFFFFFFFFFFFFFFFFFFFFFFFFFFFFFFFFF AND PUSH20 0xFFFFFFFFFFFFFFFFFFFFFFFFFFFFFFFFFFFFFFFF AND PUSH20 0xFFFFFFFFFFFFFFFFFFFFFFFFFFFFFFFFFFFFFFFF AND DUP2 MSTORE PUSH1 0x20 ADD PUSH1 0x3 DUP3 ADD SLOAD DUP2 MSTORE POP POP SWAP1 POP SWAP2 SWAP1 POP JUMP JUMPDEST DUP1 PUSH0 DUP4 PUSH1 0x40 MLOAD PUSH2 0x1C3 SWAP2 SWAP1 PUSH2 0x6E9 JUMP JUMPDEST SWAP1 DUP2 MSTORE PUSH1 0x20 ADD PUSH1 0x40 MLOAD DUP1 SWAP2 SUB SWAP1 KECCAK256 PUSH0 DUP3 ADD MLOAD DUP2 PUSH0 ADD SWAP1 DUP2 PUSH2 0x1E4 SWAP2 SWAP1 PUSH2 0x8F9 JUMP JUMPDEST POP PUSH1 0x20 DUP3 ADD MLOAD DUP2 PUSH1 0x1 ADD SSTORE PUSH1 0x40 DUP3 ADD MLOAD DUP2 PUSH1 0x2 ADD PUSH0 PUSH2 0x100 EXP DUP2 SLOAD DUP2 PUSH20 0xFFFFFFFFFFFFFFFFFFFFFFFFFFFFFFFFFFFFFFFF MUL NOT AND SWAP1 DUP4 PUSH20 0xFFFFFFFFFFFFFFFFFFFFFFFFFFFFFFFFFFFFFFFF AND MUL OR SWAP1 SSTORE POP PUSH1 0x60 DUP3 ADD MLOAD DUP2 PUSH1 0x3 ADD SSTORE SWAP1 POP POP POP POP JUMP JUMPDEST PUSH1 0x40 MLOAD DUP1 PUSH1 0x80 ADD PUSH1 0x40 MSTORE DUP1 PUSH1 0x60 DUP2 MSTORE PUSH1 0x20 ADD PUSH0 DUP2 MSTORE PUSH1 0x20 ADD PUSH0 PUSH20 0xFFFFFFFFFFFFFFFFFFFFFFFFFFFFFFFFFFFFFFFF AND DUP2 MSTORE PUSH1 0x20 ADD PUSH0 DUP2 MSTORE POP SWAP1 JUMP JUMPDEST PUSH0 PUSH1 0x40 MLOAD SWAP1 POP SWAP1 JUMP JUMPDEST PUSH0 DUP1 REVERT JUMPDEST PUSH0 DUP1 REVERT JUMPDEST PUSH0 DUP1 REVERT JUMPDEST PUSH0 DUP1 REVERT JUMPDEST PUSH0 PUSH1 0x1F NOT PUSH1 0x1F DUP4 ADD AND SWAP1 POP SWAP2 SWAP1 POP JUMP JUMPDEST PUSH32 0x4E487B7100000000000000000000000000000000000000000000000000000000 PUSH0 MSTORE PUSH1 0x41 PUSH1 0x4 MSTORE PUSH1 0x24 PUSH0 REVERT JUMPDEST PUSH2 0x2E0 DUP3 PUSH2 0x29A JUMP JUMPDEST DUP2 ADD DUP2 DUP2 LT PUSH8 0xFFFFFFFFFFFFFFFF DUP3 GT OR ISZERO PUSH2 0x2FF JUMPI PUSH2 0x2FE PUSH2 0x2AA JUMP JUMPDEST JUMPDEST DUP1 PUSH1 0x40 MSTORE POP POP POP JUMP JUMPDEST PUSH0 PUSH2 0x311 PUSH2 0x281 JUMP JUMPDEST SWAP1 POP PUSH2 0x31D DUP3 DUP3 PUSH2 0x2D7 JUMP JUMPDEST SWAP2 SWAP1 POP JUMP JUMPDEST PUSH0 PUSH8 0xFFFFFFFFFFFFFFFF DUP3 GT ISZERO PUSH2 0x33C JUMPI PUSH2 0x33B PUSH2 0x2AA JUMP JUMPDEST JUMPDEST PUSH2 0x345 DUP3 PUSH2 0x29A JUMP JUMPDEST SWAP1 POP PUSH1 0x20 DUP2 ADD SWAP1 POP SWAP2 SWAP1 POP JUMP JUMPDEST DUP3 DUP2 DUP4 CALLDATACOPY PUSH0 DUP4 DUP4 ADD MSTORE POP POP POP JUMP JUMPDEST PUSH0 PUSH2 0x372 PUSH2 0x36D DUP5 PUSH2 0x322 JUMP JUMPDEST PUSH2 0x308 JUMP JUMPDEST SWAP1 POP DUP3 DUP2 MSTORE PUSH1 0x20 DUP2 ADD DUP5 DUP5 DUP5 ADD GT ISZERO PUSH2 0x38E JUMPI PUSH2 0x38D PUSH2 0x296 JUMP JUMPDEST JUMPDEST PUSH2 0x399 DUP5 DUP3 DUP6 PUSH2 0x352 JUMP JUMPDEST POP SWAP4 SWAP3 POP POP POP JUMP JUMPDEST PUSH0 DUP3 PUSH1 0x1F DUP4 ADD SLT PUSH2 0x3B5 JUMPI PUSH2 0x3B4 PUSH2 0x292 JUMP JUMPDEST JUMPDEST DUP2 CALLDATALOAD PUSH2 0x3C5 DUP5 DUP3 PUSH1 0x20 DUP7 ADD PUSH2 0x360 JUMP JUMPDEST SWAP2 POP POP SWAP3 SWAP2 POP POP JUMP JUMPDEST PUSH0 PUSH1 0x20 DUP3 DUP5 SUB SLT ISZERO PUSH2 0x3E3 JUMPI PUSH2 0x3E2 PUSH2 0x28A JUMP JUMPDEST JUMPDEST PUSH0 DUP3 ADD CALLDATALOAD PUSH8 0xFFFFFFFFFFFFFFFF DUP2 GT ISZERO PUSH2 0x400 JUMPI PUSH2 0x3FF PUSH2 0x28E JUMP JUMPDEST JUMPDEST PUSH2 0x40C DUP5 DUP3 DUP6 ADD PUSH2 0x3A1 JUMP JUMPDEST SWAP2 POP POP SWAP3 SWAP2 POP POP JUMP JUMPDEST PUSH0 DUP2 MLOAD SWAP1 POP SWAP2 SWAP1 POP JUMP JUMPDEST PUSH0 DUP3 DUP3 MSTORE PUSH1 0x20 DUP3 ADD SWAP1 POP SWAP3 SWAP2 POP POP JUMP JUMPDEST DUP3 DUP2 DUP4 MCOPY PUSH0 DUP4 DUP4 ADD MSTORE POP POP POP JUMP JUMPDEST PUSH0 PUSH2 0x447 DUP3 PUSH2 0x415 JUMP JUMPDEST PUSH2 0x451 DUP2 DUP6 PUSH2 0x41F JUMP JUMPDEST SWAP4 POP PUSH2 0x461 DUP2 DUP6 PUSH1 0x20 DUP7 ADD PUSH2 0x42F JUMP JUMPDEST PUSH2 0x46A DUP2 PUSH2 0x29A JUMP JUMPDEST DUP5 ADD SWAP2 POP POP SWAP3 SWAP2 POP POP JUMP JUMPDEST PUSH0 DUP2 SWAP1 POP SWAP2 SWAP1 POP JUMP JUMPDEST PUSH2 0x487 DUP2 PUSH2 0x475 JUMP JUMPDEST DUP3 MSTORE POP POP JUMP JUMPDEST PUSH0 PUSH20 0xFFFFFFFFFFFFFFFFFFFFFFFFFFFFFFFFFFFFFFFF DUP3 AND SWAP1 POP SWAP2 SWAP1 POP JUMP JUMPDEST PUSH0 PUSH2 0x4B6 DUP3 PUSH2 0x48D JUMP JUMPDEST SWAP1 POP SWAP2 SWAP1 POP JUMP JUMPDEST PUSH2 0x4C6 DUP2 PUSH2 0x4AC JUMP JUMPDEST DUP3 MSTORE POP POP JUMP JUMPDEST PUSH0 PUSH1 0x80 DUP4 ADD PUSH0 DUP4 ADD MLOAD DUP5 DUP3 SUB PUSH0 DUP7 ADD MSTORE PUSH2 0x4E6 DUP3 DUP3 PUSH2 0x43D JUMP JUMPDEST SWAP2 POP POP PUSH1 0x20 DUP4 ADD MLOAD PUSH2 0x4FB PUSH1 0x20 DUP7 ADD DUP3 PUSH2 0x47E JUMP JUMPDEST POP PUSH1 0x40 DUP4 ADD MLOAD PUSH2 0x50E PUSH1 0x40 DUP7 ADD DUP3 PUSH2 0x4BD JUMP JUMPDEST POP PUSH1 0x60 DUP4 ADD MLOAD PUSH2 0x521 PUSH1 0x60 DUP7 ADD DUP3 PUSH2 0x47E JUMP JUMPDEST POP DUP1 SWAP2 POP POP SWAP3 SWAP2 POP POP JUMP JUMPDEST PUSH0 PUSH1 0x20 DUP3 ADD SWAP1 POP DUP2 DUP2 SUB PUSH0 DUP4 ADD MSTORE PUSH2 0x544 DUP2 DUP5 PUSH2 0x4CC JUMP JUMPDEST SWAP1 POP SWAP3 SWAP2 POP POP JUMP JUMPDEST PUSH0 DUP1 REVERT JUMPDEST PUSH0 DUP1 REVERT JUMPDEST PUSH2 0x55D DUP2 PUSH2 0x475 JUMP JUMPDEST DUP2 EQ PUSH2 0x567 JUMPI PUSH0 DUP1 REVERT JUMPDEST POP JUMP JUMPDEST PUSH0 DUP2 CALLDATALOAD SWAP1 POP PUSH2 0x578 DUP2 PUSH2 0x554 JUMP JUMPDEST SWAP3 SWAP2 POP POP JUMP JUMPDEST PUSH2 0x587 DUP2 PUSH2 0x4AC JUMP JUMPDEST DUP2 EQ PUSH2 0x591 JUMPI PUSH0 DUP1 REVERT JUMPDEST POP JUMP JUMPDEST PUSH0 DUP2 CALLDATALOAD SWAP1 POP PUSH2 0x5A2 DUP2 PUSH2 0x57E JUMP JUMPDEST SWAP3 SWAP2 POP POP JUMP JUMPDEST PUSH0 PUSH1 0x80 DUP3 DUP5 SUB SLT ISZERO PUSH2 0x5BD JUMPI PUSH2 0x5BC PUSH2 0x54C JUMP JUMPDEST JUMPDEST PUSH2 0x5C7 PUSH1 0x80 PUSH2 0x308 JUMP JUMPDEST SWAP1 POP PUSH0 DUP3 ADD CALLDATALOAD PUSH8 0xFFFFFFFFFFFFFFFF DUP2 GT ISZERO PUSH2 0x5E6 JUMPI PUSH2 0x5E5 PUSH2 0x550 JUMP JUMPDEST JUMPDEST PUSH2 0x5F2 DUP5 DUP3 DUP6 ADD PUSH2 0x3A1 JUMP JUMPDEST PUSH0 DUP4 ADD MSTORE POP PUSH1 0x20 PUSH2 0x605 DUP5 DUP3 DUP6 ADD PUSH2 0x56A JUMP JUMPDEST PUSH1 0x20 DUP4 ADD MSTORE POP PUSH1 0x40 PUSH2 0x619 DUP5 DUP3 DUP6 ADD PUSH2 0x594 JUMP JUMPDEST PUSH1 0x40 DUP4 ADD MSTORE POP PUSH1 0x60 PUSH2 0x62D DUP5 DUP3 DUP6 ADD PUSH2 0x56A JUMP JUMPDEST PUSH1 0x60 DUP4 ADD MSTORE POP SWAP3 SWAP2 POP POP JUMP JUMPDEST PUSH0 DUP1 PUSH1 0x40 DUP4 DUP6 SUB SLT ISZERO PUSH2 0x64F JUMPI PUSH2 0x64E PUSH2 0x28A JUMP JUMPDEST JUMPDEST PUSH0 DUP4 ADD CALLDATALOAD PUSH8 0xFFFFFFFFFFFFFFFF DUP2 GT ISZERO PUSH2 0x66C JUMPI PUSH2 0x66B PUSH2 0x28E JUMP JUMPDEST JUMPDEST PUSH2 0x678 DUP6 DUP3 DUP7 ADD PUSH2 0x3A1 JUMP JUMPDEST SWAP3 POP POP PUSH1 0x20 DUP4 ADD CALLDATALOAD PUSH8 0xFFFFFFFFFFFFFFFF DUP2 GT ISZERO PUSH2 0x699 JUMPI PUSH2 0x698 PUSH2 0x28E JUMP JUMPDEST JUMPDEST PUSH2 0x6A5 DUP6 DUP3 DUP7 ADD PUSH2 0x5A8 JUMP JUMPDEST SWAP2 POP POP SWAP3 POP SWAP3 SWAP1 POP JUMP JUMPDEST PUSH0 DUP2 SWAP1 POP SWAP3 SWAP2 POP POP JUMP JUMPDEST PUSH0 PUSH2 0x6C3 DUP3 PUSH2 0x415 JUMP JUMPDEST PUSH2 0x6CD DUP2 DUP6 PUSH2 0x6AF JUMP JUMPDEST SWAP4 POP PUSH2 0x6DD DUP2 DUP6 PUSH1 0x20 DUP7 ADD PUSH2 0x42F JUMP JUMPDEST DUP1 DUP5 ADD SWAP2 POP POP SWAP3 SWAP2 POP POP JUMP JUMPDEST PUSH0 PUSH2 0x6F4 DUP3 DUP5 PUSH2 0x6B9 JUMP JUMPDEST SWAP2 POP DUP2 SWAP1 POP SWAP3 SWAP2 POP POP JUMP JUMPDEST PUSH32 0x4E487B7100000000000000000000000000000000000000000000000000000000 PUSH0 MSTORE PUSH1 0x22 PUSH1 0x4 MSTORE PUSH1 0x24 PUSH0 REVERT JUMPDEST PUSH0 PUSH1 0x2 DUP3 DIV SWAP1 POP PUSH1 0x1 DUP3 AND DUP1 PUSH2 0x743 JUMPI PUSH1 0x7F DUP3 AND SWAP2 POP JUMPDEST PUSH1 0x20 DUP3 LT DUP2 SUB PUSH2 0x756 JUMPI PUSH2 0x755 PUSH2 0x6FF JUMP JUMPDEST JUMPDEST POP SWAP2 SWAP1 POP JUMP JUMPDEST PUSH0 DUP2 SWAP1 POP DUP2 PUSH0 MSTORE PUSH1 0x20 PUSH0 KECCAK256 SWAP1 POP SWAP2 SWAP1 POP JUMP JUMPDEST PUSH0 PUSH1 0x20 PUSH1 0x1F DUP4 ADD DIV SWAP1 POP SWAP2 SWAP1 POP JUMP JUMPDEST PUSH0 DUP3 DUP3 SHL SWAP1 POP SWAP3 SWAP2 POP POP JUMP JUMPDEST PUSH0 PUSH1 0x8 DUP4 MUL PUSH2 0x7B8 PUSH32 0xFFFFFFFFFFFFFFFFFFFFFFFFFFFFFFFFFFFFFFFFFFFFFFFFFFFFFFFFFFFFFFFF DUP3 PUSH2 0x77D JUMP JUMPDEST PUSH2 0x7C2 DUP7 DUP4 PUSH2 0x77D JUMP JUMPDEST SWAP6 POP DUP1 NOT DUP5 AND SWAP4 POP DUP1 DUP7 AND DUP5 OR SWAP3 POP POP POP SWAP4 SWAP3 POP POP POP JUMP JUMPDEST PUSH0 DUP2 SWAP1 POP SWAP2 SWAP1 POP JUMP JUMPDEST PUSH0 PUSH2 0x7FD PUSH2 0x7F8 PUSH2 0x7F3 DUP5 PUSH2 0x475 JUMP JUMPDEST PUSH2 0x7DA JUMP JUMPDEST PUSH2 0x475 JUMP JUMPDEST SWAP1 POP SWAP2 SWAP1 POP JUMP JUMPDEST PUSH0 DUP2 SWAP1 POP SWAP2 SWAP1 POP JUMP JUMPDEST PUSH2 0x816 DUP4 PUSH2 0x7E3 JUMP JUMPDEST PUSH2 0x82A PUSH2 0x822 DUP3 PUSH2 0x804 JUMP JUMPDEST DUP5 DUP5 SLOAD PUSH2 0x789 JUMP JUMPDEST DUP3 SSTORE POP POP POP POP JUMP JUMPDEST PUSH0 SWAP1 JUMP JUMPDEST PUSH2 0x83E PUSH2 0x832 JUMP JUMPDEST PUSH2 0x849 DUP2 DUP5 DUP5 PUSH2 0x80D JUMP JUMPDEST POP POP POP JUMP JUMPDEST JUMPDEST DUP2 DUP2 LT ISZERO PUSH2 0x86C JUMPI PUSH2 0x861 PUSH0 DUP3 PUSH2 0x836 JUMP JUMPDEST PUSH1 0x1 DUP2 ADD SWAP1 POP PUSH2 0x84F JUMP JUMPDEST POP POP JUMP JUMPDEST PUSH1 0x1F DUP3 GT ISZERO PUSH2 0x8B1 JUMPI PUSH2 0x882 DUP2 PUSH2 0x75C JUMP JUMPDEST PUSH2 0x88B DUP5 PUSH2 0x76E JUMP JUMPDEST DUP2 ADD PUSH1 0x20 DUP6 LT ISZERO PUSH2 0x89A JUMPI DUP2 SWAP1 POP JUMPDEST PUSH2 0x8AE PUSH2 0x8A6 DUP6 PUSH2 0x76E JUMP JUMPDEST DUP4 ADD DUP3 PUSH2 0x84E JUMP JUMPDEST POP POP JUMPDEST POP POP POP JUMP JUMPDEST PUSH0 DUP3 DUP3 SHR SWAP1 POP SWAP3 SWAP2 POP POP JUMP JUMPDEST PUSH0 PUSH2 0x8D1 PUSH0 NOT DUP5 PUSH1 0x8 MUL PUSH2 0x8B6 JUMP JUMPDEST NOT DUP1 DUP4 AND SWAP2 POP POP SWAP3 SWAP2 POP POP JUMP JUMPDEST PUSH0 PUSH2 0x8E9 DUP4 DUP4 PUSH2 0x8C2 JUMP JUMPDEST SWAP2 POP DUP3 PUSH1 0x2 MUL DUP3 OR SWAP1 POP SWAP3 SWAP2 POP POP JUMP JUMPDEST PUSH2 0x902 DUP3 PUSH2 0x415 JUMP JUMPDEST PUSH8 0xFFFFFFFFFFFFFFFF DUP2 GT ISZERO PUSH2 0x91B JUMPI PUSH2 0x91A PUSH2 0x2AA JUMP JUMPDEST JUMPDEST PUSH2 0x925 DUP3 SLOAD PUSH2 0x72C JUMP JUMPDEST PUSH2 0x930 DUP3 DUP3 DUP6 PUSH2 0x870 JUMP JUMPDEST PUSH0 PUSH1 0x20 SWAP1 POP PUSH1 0x1F DUP4 GT PUSH1 0x1 DUP2 EQ PUSH2 0x961 JUMPI PUSH0 DUP5 ISZERO PUSH2 0x94F JUMPI DUP3 DUP8 ADD MLOAD SWAP1 POP JUMPDEST PUSH2 0x959 DUP6 DUP3 PUSH2 0x8DE JUMP JUMPDEST DUP7 SSTORE POP PUSH2 0x9C0 JUMP JUMPDEST PUSH1 0x1F NOT DUP5 AND PUSH2 0x96F DUP7 PUSH2 0x75C JUMP JUMPDEST PUSH0 JUMPDEST DUP3 DUP2 LT ISZERO PUSH2 0x996 JUMPI DUP5 DUP10 ADD MLOAD DUP3 SSTORE PUSH1 0x1 DUP3 ADD SWAP2 POP PUSH1 0x20 DUP6 ADD SWAP5 POP PUSH1 0x20 DUP2 ADD SWAP1 POP PUSH2 0x971 JUMP JUMPDEST DUP7 DUP4 LT ISZERO PUSH2 0x9B3 JUMPI DUP5 DUP10 ADD MLOAD PUSH2 0x9AF PUSH1 0x1F DUP10 AND DUP3 PUSH2 0x8C2 JUMP JUMPDEST DUP4 SSTORE POP JUMPDEST PUSH1 0x1 PUSH1 0x2 DUP9 MUL ADD DUP9 SSTORE POP POP POP JUMPDEST POP POP POP POP POP POP JUMP INVALID LOG2 PUSH5 0x6970667358 0x22 SLT KECCAK256 0xDB SWAP2 0x27 0xC0 LOG3 0x27 0xBF CALLER DUP15 EXTCODEHASH MCOPY BLOCKHASH 0xEC 0xAF SWAP4 PUSH15 0xF50C27035DDC387834B9F9A290D38F PUSH13 0x64736F6C634300081A00330000 "
		},
		"gasEstimates": {
			"creation": {
				"codeDepositCost": "511600",
				"executionCost": "541",
				"totalCost": "512141"
			},
			"external": {
				"getCustomer(string)": "infinite",
				"setCustomer(string,(string,uint256,address,uint256))": "infinite"
			}
		},
		"methodIdentifiers": {
			"getCustomer(string)": "518bddd9",
			"setCustomer(string,(string,uint256,address,uint256))": "eac0990b"
		}
	},
	"abi": [
		{
			"inputs": [
				{
					"internalType": "string",
					"name": "_name",
					"type": "string"
				}
			],
			"name": "getCustomer",
			"outputs": [
				{
					"components": [
						{
							"internalType": "string",
							"name": "name",
							"type": "string"
						},
						{
							"internalType": "uint256",
							"name": "Num",
							"type": "uint256"
						},
						{
							"internalType": "address",
							"name": "addr",
							"type": "address"
						},
						{
							"internalType": "uint256",
							"name": "birth",
							"type": "uint256"
						}
					],
					"internalType": "struct Q33.customer",
					"name": "",
					"type": "tuple"
				}
			],
			"stateMutability": "view",
			"type": "function"
		},
		{
			"inputs": [
				{
					"internalType": "string",
					"name": "_name",
					"type": "string"
				},
				{
					"components": [
						{
							"internalType": "string",
							"name": "name",
							"type": "string"
						},
						{
							"internalType": "uint256",
							"name": "Num",
							"type": "uint256"
						},
						{
							"internalType": "address",
							"name": "addr",
							"type": "address"
						},
						{
							"internalType": "uint256",
							"name": "birth",
							"type": "uint256"
						}
					],
					"internalType": "struct Q33.customer",
					"name": "_customer",
					"type": "tuple"
				}
			],
			"name": "setCustomer",
			"outputs": [],
			"stateMutability": "nonpayable",
			"type": "function"
		}
	]
}