{
	"data": {
		"bytecode": {
			"linkReferences": {},
			"object": "60806040526040518060c00160405280600c60ff168152602001600560ff168152602001600760ff168152602001600460ff168152602001600160ff168152602001600a60ff168152505f90600660569291906066565b503480156061575f80fd5b5060ca565b828054828255905f5260205f2090810192821560a2579160200282015b8281111560a1578251829060ff169055916020019190600101906083565b5b50905060ad919060b1565b5090565b5b8082111560c6575f815f90555060010160b2565b5090565b6104a2806100d75f395ff3fe608060405234801561000f575f80fd5b506004361061003f575f3560e01c80632cc2d53a1461004357806367e0badb14610061578063bc07865f1461007f575b5f80fd5b61004b61009b565b6040516100589190610309565b60405180910390f35b6100696101ed565b6040516100769190610309565b60405180910390f35b61009960048036038101906100949190610357565b610221565b005b60605f808054806020026020016040519081016040528092919081815260200182805480156100e757602002820191905f5260205f20905b8154815260200190600101908083116100d3575b505050505090505f5b5f805490508110156101e5575f60018261010a91906103af565b90505b5f805490508110156101d75782818151811061012c5761012b6103e2565b5b6020026020010151838381518110610147576101466103e2565b5b602002602001015110156101ca57828181518110610168576101676103e2565b5b6020026020010151838381518110610183576101826103e2565b5b602002602001015184848151811061019e5761019d6103e2565b5b602002602001018584815181106101b8576101b76103e2565b5b60200260200101828152508281525050505b808060010191505061010d565b5080806001019150506100f0565b508091505090565b60605f60025f80549050610201919061043c565b036102145761020e61009b565b5061021e565b61021c61009b565b505b90565b5f81908060018154018082558091505060019003905f5260205f20015f909190919091505550565b5f81519050919050565b5f82825260208201905092915050565b5f819050602082019050919050565b5f819050919050565b61028481610272565b82525050565b5f610295838361027b565b60208301905092915050565b5f602082019050919050565b5f6102b782610249565b6102c18185610253565b93506102cc83610263565b805f5b838110156102fc5781516102e3888261028a565b97506102ee836102a1565b9250506001810190506102cf565b5085935050505092915050565b5f6020820190508181035f83015261032181846102ad565b905092915050565b5f80fd5b61033681610272565b8114610340575f80fd5b50565b5f813590506103518161032d565b92915050565b5f6020828403121561036c5761036b610329565b5b5f61037984828501610343565b91505092915050565b7f4e487b71000000000000000000000000000000000000000000000000000000005f52601160045260245ffd5b5f6103b982610272565b91506103c483610272565b92508282019050808211156103dc576103db610382565b5b92915050565b7f4e487b71000000000000000000000000000000000000000000000000000000005f52603260045260245ffd5b7f4e487b71000000000000000000000000000000000000000000000000000000005f52601260045260245ffd5b5f61044682610272565b915061045183610272565b9250826104615761046061040f565b5b82820690509291505056fea26469706673582212208e6101680dc2ce3d9c93db47bfab3a79daf16a38e3d4b9327e162700b5e35a5564736f6c634300081a0033",
			"opcodes": "PUSH1 0x80 PUSH1 0x40 MSTORE PUSH1 0x40 MLOAD DUP1 PUSH1 0xC0 ADD PUSH1 0x40 MSTORE DUP1 PUSH1 0xC PUSH1 0xFF AND DUP2 MSTORE PUSH1 0x20 ADD PUSH1 0x5 PUSH1 0xFF AND DUP2 MSTORE PUSH1 0x20 ADD PUSH1 0x7 PUSH1 0xFF AND DUP2 MSTORE PUSH1 0x20 ADD PUSH1 0x4 PUSH1 0xFF AND DUP2 MSTORE PUSH1 0x20 ADD PUSH1 0x1 PUSH1 0xFF AND DUP2 MSTORE PUSH1 0x20 ADD PUSH1 0xA PUSH1 0xFF AND DUP2 MSTORE POP PUSH0 SWAP1 PUSH1 0x6 PUSH1 0x56 SWAP3 SWAP2 SWAP1 PUSH1 0x66 JUMP JUMPDEST POP CALLVALUE DUP1 ISZERO PUSH1 0x61 JUMPI PUSH0 DUP1 REVERT JUMPDEST POP PUSH1 0xCA JUMP JUMPDEST DUP3 DUP1 SLOAD DUP3 DUP3 SSTORE SWAP1 PUSH0 MSTORE PUSH1 0x20 PUSH0 KECCAK256 SWAP1 DUP2 ADD SWAP3 DUP3 ISZERO PUSH1 0xA2 JUMPI SWAP2 PUSH1 0x20 MUL DUP3 ADD JUMPDEST DUP3 DUP2 GT ISZERO PUSH1 0xA1 JUMPI DUP3 MLOAD DUP3 SWAP1 PUSH1 0xFF AND SWAP1 SSTORE SWAP2 PUSH1 0x20 ADD SWAP2 SWAP1 PUSH1 0x1 ADD SWAP1 PUSH1 0x83 JUMP JUMPDEST JUMPDEST POP SWAP1 POP PUSH1 0xAD SWAP2 SWAP1 PUSH1 0xB1 JUMP JUMPDEST POP SWAP1 JUMP JUMPDEST JUMPDEST DUP1 DUP3 GT ISZERO PUSH1 0xC6 JUMPI PUSH0 DUP2 PUSH0 SWAP1 SSTORE POP PUSH1 0x1 ADD PUSH1 0xB2 JUMP JUMPDEST POP SWAP1 JUMP JUMPDEST PUSH2 0x4A2 DUP1 PUSH2 0xD7 PUSH0 CODECOPY PUSH0 RETURN INVALID PUSH1 0x80 PUSH1 0x40 MSTORE CALLVALUE DUP1 ISZERO PUSH2 0xF JUMPI PUSH0 DUP1 REVERT JUMPDEST POP PUSH1 0x4 CALLDATASIZE LT PUSH2 0x3F JUMPI PUSH0 CALLDATALOAD PUSH1 0xE0 SHR DUP1 PUSH4 0x2CC2D53A EQ PUSH2 0x43 JUMPI DUP1 PUSH4 0x67E0BADB EQ PUSH2 0x61 JUMPI DUP1 PUSH4 0xBC07865F EQ PUSH2 0x7F JUMPI JUMPDEST PUSH0 DUP1 REVERT JUMPDEST PUSH2 0x4B PUSH2 0x9B JUMP JUMPDEST PUSH1 0x40 MLOAD PUSH2 0x58 SWAP2 SWAP1 PUSH2 0x309 JUMP JUMPDEST PUSH1 0x40 MLOAD DUP1 SWAP2 SUB SWAP1 RETURN JUMPDEST PUSH2 0x69 PUSH2 0x1ED JUMP JUMPDEST PUSH1 0x40 MLOAD PUSH2 0x76 SWAP2 SWAP1 PUSH2 0x309 JUMP JUMPDEST PUSH1 0x40 MLOAD DUP1 SWAP2 SUB SWAP1 RETURN JUMPDEST PUSH2 0x99 PUSH1 0x4 DUP1 CALLDATASIZE SUB DUP2 ADD SWAP1 PUSH2 0x94 SWAP2 SWAP1 PUSH2 0x357 JUMP JUMPDEST PUSH2 0x221 JUMP JUMPDEST STOP JUMPDEST PUSH1 0x60 PUSH0 DUP1 DUP1 SLOAD DUP1 PUSH1 0x20 MUL PUSH1 0x20 ADD PUSH1 0x40 MLOAD SWAP1 DUP2 ADD PUSH1 0x40 MSTORE DUP1 SWAP3 SWAP2 SWAP1 DUP2 DUP2 MSTORE PUSH1 0x20 ADD DUP3 DUP1 SLOAD DUP1 ISZERO PUSH2 0xE7 JUMPI PUSH1 0x20 MUL DUP3 ADD SWAP2 SWAP1 PUSH0 MSTORE PUSH1 0x20 PUSH0 KECCAK256 SWAP1 JUMPDEST DUP2 SLOAD DUP2 MSTORE PUSH1 0x20 ADD SWAP1 PUSH1 0x1 ADD SWAP1 DUP1 DUP4 GT PUSH2 0xD3 JUMPI JUMPDEST POP POP POP POP POP SWAP1 POP PUSH0 JUMPDEST PUSH0 DUP1 SLOAD SWAP1 POP DUP2 LT ISZERO PUSH2 0x1E5 JUMPI PUSH0 PUSH1 0x1 DUP3 PUSH2 0x10A SWAP2 SWAP1 PUSH2 0x3AF JUMP JUMPDEST SWAP1 POP JUMPDEST PUSH0 DUP1 SLOAD SWAP1 POP DUP2 LT ISZERO PUSH2 0x1D7 JUMPI DUP3 DUP2 DUP2 MLOAD DUP2 LT PUSH2 0x12C JUMPI PUSH2 0x12B PUSH2 0x3E2 JUMP JUMPDEST JUMPDEST PUSH1 0x20 MUL PUSH1 0x20 ADD ADD MLOAD DUP4 DUP4 DUP2 MLOAD DUP2 LT PUSH2 0x147 JUMPI PUSH2 0x146 PUSH2 0x3E2 JUMP JUMPDEST JUMPDEST PUSH1 0x20 MUL PUSH1 0x20 ADD ADD MLOAD LT ISZERO PUSH2 0x1CA JUMPI DUP3 DUP2 DUP2 MLOAD DUP2 LT PUSH2 0x168 JUMPI PUSH2 0x167 PUSH2 0x3E2 JUMP JUMPDEST JUMPDEST PUSH1 0x20 MUL PUSH1 0x20 ADD ADD MLOAD DUP4 DUP4 DUP2 MLOAD DUP2 LT PUSH2 0x183 JUMPI PUSH2 0x182 PUSH2 0x3E2 JUMP JUMPDEST JUMPDEST PUSH1 0x20 MUL PUSH1 0x20 ADD ADD MLOAD DUP5 DUP5 DUP2 MLOAD DUP2 LT PUSH2 0x19E JUMPI PUSH2 0x19D PUSH2 0x3E2 JUMP JUMPDEST JUMPDEST PUSH1 0x20 MUL PUSH1 0x20 ADD ADD DUP6 DUP5 DUP2 MLOAD DUP2 LT PUSH2 0x1B8 JUMPI PUSH2 0x1B7 PUSH2 0x3E2 JUMP JUMPDEST JUMPDEST PUSH1 0x20 MUL PUSH1 0x20 ADD ADD DUP3 DUP2 MSTORE POP DUP3 DUP2 MSTORE POP POP POP JUMPDEST DUP1 DUP1 PUSH1 0x1 ADD SWAP2 POP POP PUSH2 0x10D JUMP JUMPDEST POP DUP1 DUP1 PUSH1 0x1 ADD SWAP2 POP POP PUSH2 0xF0 JUMP JUMPDEST POP DUP1 SWAP2 POP POP SWAP1 JUMP JUMPDEST PUSH1 0x60 PUSH0 PUSH1 0x2 PUSH0 DUP1 SLOAD SWAP1 POP PUSH2 0x201 SWAP2 SWAP1 PUSH2 0x43C JUMP JUMPDEST SUB PUSH2 0x214 JUMPI PUSH2 0x20E PUSH2 0x9B JUMP JUMPDEST POP PUSH2 0x21E JUMP JUMPDEST PUSH2 0x21C PUSH2 0x9B JUMP JUMPDEST POP JUMPDEST SWAP1 JUMP JUMPDEST PUSH0 DUP2 SWAP1 DUP1 PUSH1 0x1 DUP2 SLOAD ADD DUP1 DUP3 SSTORE DUP1 SWAP2 POP POP PUSH1 0x1 SWAP1 SUB SWAP1 PUSH0 MSTORE PUSH1 0x20 PUSH0 KECCAK256 ADD PUSH0 SWAP1 SWAP2 SWAP1 SWAP2 SWAP1 SWAP2 POP SSTORE POP JUMP JUMPDEST PUSH0 DUP2 MLOAD SWAP1 POP SWAP2 SWAP1 POP JUMP JUMPDEST PUSH0 DUP3 DUP3 MSTORE PUSH1 0x20 DUP3 ADD SWAP1 POP SWAP3 SWAP2 POP POP JUMP JUMPDEST PUSH0 DUP2 SWAP1 POP PUSH1 0x20 DUP3 ADD SWAP1 POP SWAP2 SWAP1 POP JUMP JUMPDEST PUSH0 DUP2 SWAP1 POP SWAP2 SWAP1 POP JUMP JUMPDEST PUSH2 0x284 DUP2 PUSH2 0x272 JUMP JUMPDEST DUP3 MSTORE POP POP JUMP JUMPDEST PUSH0 PUSH2 0x295 DUP4 DUP4 PUSH2 0x27B JUMP JUMPDEST PUSH1 0x20 DUP4 ADD SWAP1 POP SWAP3 SWAP2 POP POP JUMP JUMPDEST PUSH0 PUSH1 0x20 DUP3 ADD SWAP1 POP SWAP2 SWAP1 POP JUMP JUMPDEST PUSH0 PUSH2 0x2B7 DUP3 PUSH2 0x249 JUMP JUMPDEST PUSH2 0x2C1 DUP2 DUP6 PUSH2 0x253 JUMP JUMPDEST SWAP4 POP PUSH2 0x2CC DUP4 PUSH2 0x263 JUMP JUMPDEST DUP1 PUSH0 JUMPDEST DUP4 DUP2 LT ISZERO PUSH2 0x2FC JUMPI DUP2 MLOAD PUSH2 0x2E3 DUP9 DUP3 PUSH2 0x28A JUMP JUMPDEST SWAP8 POP PUSH2 0x2EE DUP4 PUSH2 0x2A1 JUMP JUMPDEST SWAP3 POP POP PUSH1 0x1 DUP2 ADD SWAP1 POP PUSH2 0x2CF JUMP JUMPDEST POP DUP6 SWAP4 POP POP POP POP SWAP3 SWAP2 POP POP JUMP JUMPDEST PUSH0 PUSH1 0x20 DUP3 ADD SWAP1 POP DUP2 DUP2 SUB PUSH0 DUP4 ADD MSTORE PUSH2 0x321 DUP2 DUP5 PUSH2 0x2AD JUMP JUMPDEST SWAP1 POP SWAP3 SWAP2 POP POP JUMP JUMPDEST PUSH0 DUP1 REVERT JUMPDEST PUSH2 0x336 DUP2 PUSH2 0x272 JUMP JUMPDEST DUP2 EQ PUSH2 0x340 JUMPI PUSH0 DUP1 REVERT JUMPDEST POP JUMP JUMPDEST PUSH0 DUP2 CALLDATALOAD SWAP1 POP PUSH2 0x351 DUP2 PUSH2 0x32D JUMP JUMPDEST SWAP3 SWAP2 POP POP JUMP JUMPDEST PUSH0 PUSH1 0x20 DUP3 DUP5 SUB SLT ISZERO PUSH2 0x36C JUMPI PUSH2 0x36B PUSH2 0x329 JUMP JUMPDEST JUMPDEST PUSH0 PUSH2 0x379 DUP5 DUP3 DUP6 ADD PUSH2 0x343 JUMP JUMPDEST SWAP2 POP POP SWAP3 SWAP2 POP POP JUMP JUMPDEST PUSH32 0x4E487B7100000000000000000000000000000000000000000000000000000000 PUSH0 MSTORE PUSH1 0x11 PUSH1 0x4 MSTORE PUSH1 0x24 PUSH0 REVERT JUMPDEST PUSH0 PUSH2 0x3B9 DUP3 PUSH2 0x272 JUMP JUMPDEST SWAP2 POP PUSH2 0x3C4 DUP4 PUSH2 0x272 JUMP JUMPDEST SWAP3 POP DUP3 DUP3 ADD SWAP1 POP DUP1 DUP3 GT ISZERO PUSH2 0x3DC JUMPI PUSH2 0x3DB PUSH2 0x382 JUMP JUMPDEST JUMPDEST SWAP3 SWAP2 POP POP JUMP JUMPDEST PUSH32 0x4E487B7100000000000000000000000000000000000000000000000000000000 PUSH0 MSTORE PUSH1 0x32 PUSH1 0x4 MSTORE PUSH1 0x24 PUSH0 REVERT JUMPDEST PUSH32 0x4E487B7100000000000000000000000000000000000000000000000000000000 PUSH0 MSTORE PUSH1 0x12 PUSH1 0x4 MSTORE PUSH1 0x24 PUSH0 REVERT JUMPDEST PUSH0 PUSH2 0x446 DUP3 PUSH2 0x272 JUMP JUMPDEST SWAP2 POP PUSH2 0x451 DUP4 PUSH2 0x272 JUMP JUMPDEST SWAP3 POP DUP3 PUSH2 0x461 JUMPI PUSH2 0x460 PUSH2 0x40F JUMP JUMPDEST JUMPDEST DUP3 DUP3 MOD SWAP1 POP SWAP3 SWAP2 POP POP JUMP INVALID LOG2 PUSH5 0x6970667358 0x22 SLT KECCAK256 DUP15 PUSH2 0x168 0xD 0xC2 0xCE RETURNDATASIZE SWAP13 SWAP4 0xDB SELFBALANCE 0xBF 0xAB GASPRICE PUSH26 0xDAF16A38E3D4B9327E162700B5E35A5564736F6C634300081A00 CALLER "
		},
		"gasEstimates": {
			"creation": {
				"codeDepositCost": "237200",
				"executionCost": "infinite",
				"totalCost": "infinite"
			},
			"external": {
				"decending()": "infinite",
				"getNum()": "infinite",
				"pushNum(uint256)": "46842"
			}
		},
		"methodIdentifiers": {
			"decending()": "2cc2d53a",
			"getNum()": "67e0badb",
			"pushNum(uint256)": "bc07865f"
		}
	},
	"abi": [
		{
			"inputs": [],
			"name": "decending",
			"outputs": [
				{
					"internalType": "uint256[]",
					"name": "",
					"type": "uint256[]"
				}
			],
			"stateMutability": "view",
			"type": "function"
		},
		{
			"inputs": [],
			"name": "getNum",
			"outputs": [
				{
					"internalType": "uint256[]",
					"name": "",
					"type": "uint256[]"
				}
			],
			"stateMutability": "view",
			"type": "function"
		},
		{
			"inputs": [
				{
					"internalType": "uint256",
					"name": "_a",
					"type": "uint256"
				}
			],
			"name": "pushNum",
			"outputs": [],
			"stateMutability": "nonpayable",
			"type": "function"
		}
	]
}