{
	"data": {
		"bytecode": {
			"linkReferences": {},
			"object": "6080604052348015600e575f80fd5b506108e48061001c5f395ff3fe608060405234801561000f575f80fd5b5060043610610034575f3560e01c80638995fb88146100385780639176b4a914610054575b5f80fd5b610052600480360381019061004d91906104b0565b610070565b005b61006e600480360381019061006991906104f7565b610149565b005b6005815f01515110156100b8576040517f08c379a00000000000000000000000000000000000000000000000000000000081526004016100af906105bd565b60405180910390fd5b5f81908060018154018082558091505060019003905f5260205f2090600302015f909190919091505f820151815f0190816100f391906107df565b50602082015181600101556040820151816002015f6101000a81548173ffffffffffffffffffffffffffffffffffffffff021916908373ffffffffffffffffffffffffffffffffffffffff160217905550505050565b60058351101561018e576040517f08c379a0000000000000000000000000000000000000000000000000000000008152600401610185906105bd565b60405180910390fd5b5f60405180606001604052808581526020018481526020018373ffffffffffffffffffffffffffffffffffffffff16815250908060018154018082558091505060019003905f5260205f2090600302015f909190919091505f820151815f0190816101f991906107df565b50602082015181600101556040820151816002015f6101000a81548173ffffffffffffffffffffffffffffffffffffffff021916908373ffffffffffffffffffffffffffffffffffffffff1602179055505050505050565b5f604051905090565b5f80fd5b5f80fd5b5f80fd5b5f601f19601f8301169050919050565b7f4e487b71000000000000000000000000000000000000000000000000000000005f52604160045260245ffd5b6102ac82610266565b810181811067ffffffffffffffff821117156102cb576102ca610276565b5b80604052505050565b5f6102dd610251565b90506102e982826102a3565b919050565b5f80fd5b5f80fd5b5f80fd5b5f67ffffffffffffffff82111561031457610313610276565b5b61031d82610266565b9050602081019050919050565b828183375f83830152505050565b5f61034a610345846102fa565b6102d4565b905082815260208101848484011115610366576103656102f6565b5b61037184828561032a565b509392505050565b5f82601f83011261038d5761038c6102f2565b5b813561039d848260208601610338565b91505092915050565b5f819050919050565b6103b8816103a6565b81146103c2575f80fd5b50565b5f813590506103d3816103af565b92915050565b5f73ffffffffffffffffffffffffffffffffffffffff82169050919050565b5f610402826103d9565b9050919050565b610412816103f8565b811461041c575f80fd5b50565b5f8135905061042d81610409565b92915050565b5f6060828403121561044857610447610262565b5b61045260606102d4565b90505f82013567ffffffffffffffff811115610471576104706102ee565b5b61047d84828501610379565b5f830152506020610490848285016103c5565b60208301525060406104a48482850161041f565b60408301525092915050565b5f602082840312156104c5576104c461025a565b5b5f82013567ffffffffffffffff8111156104e2576104e161025e565b5b6104ee84828501610433565b91505092915050565b5f805f6060848603121561050e5761050d61025a565b5b5f84013567ffffffffffffffff81111561052b5761052a61025e565b5b61053786828701610379565b9350506020610548868287016103c5565b92505060406105598682870161041f565b9150509250925092565b5f82825260208201905092915050565b7f6e6f7065000000000000000000000000000000000000000000000000000000005f82015250565b5f6105a7600483610563565b91506105b282610573565b602082019050919050565b5f6020820190508181035f8301526105d48161059b565b9050919050565b5f81519050919050565b7f4e487b71000000000000000000000000000000000000000000000000000000005f52602260045260245ffd5b5f600282049050600182168061062957607f821691505b60208210810361063c5761063b6105e5565b5b50919050565b5f819050815f5260205f209050919050565b5f6020601f8301049050919050565b5f82821b905092915050565b5f6008830261069e7fffffffffffffffffffffffffffffffffffffffffffffffffffffffffffffffff82610663565b6106a88683610663565b95508019841693508086168417925050509392505050565b5f819050919050565b5f6106e36106de6106d9846103a6565b6106c0565b6103a6565b9050919050565b5f819050919050565b6106fc836106c9565b610710610708826106ea565b84845461066f565b825550505050565b5f90565b610724610718565b61072f8184846106f3565b505050565b5b81811015610752576107475f8261071c565b600181019050610735565b5050565b601f8211156107975761076881610642565b61077184610654565b81016020851015610780578190505b61079461078c85610654565b830182610734565b50505b505050565b5f82821c905092915050565b5f6107b75f198460080261079c565b1980831691505092915050565b5f6107cf83836107a8565b9150826002028217905092915050565b6107e8826105db565b67ffffffffffffffff81111561080157610800610276565b5b61080b8254610612565b610816828285610756565b5f60209050601f831160018114610847575f8415610835578287015190505b61083f85826107c4565b8655506108a6565b601f19841661085586610642565b5f5b8281101561087c57848901518255600182019150602085019450602081019050610857565b868310156108995784890151610895601f8916826107a8565b8355505b6001600288020188555050505b50505050505056fea264697066735822122015430a3fcb756f8c9240c212120c1761ed8ddddc66b45a11288c0233f367ca2764736f6c634300081a0033",
			"opcodes": "PUSH1 0x80 PUSH1 0x40 MSTORE CALLVALUE DUP1 ISZERO PUSH1 0xE JUMPI PUSH0 DUP1 REVERT JUMPDEST POP PUSH2 0x8E4 DUP1 PUSH2 0x1C PUSH0 CODECOPY PUSH0 RETURN INVALID PUSH1 0x80 PUSH1 0x40 MSTORE CALLVALUE DUP1 ISZERO PUSH2 0xF JUMPI PUSH0 DUP1 REVERT JUMPDEST POP PUSH1 0x4 CALLDATASIZE LT PUSH2 0x34 JUMPI PUSH0 CALLDATALOAD PUSH1 0xE0 SHR DUP1 PUSH4 0x8995FB88 EQ PUSH2 0x38 JUMPI DUP1 PUSH4 0x9176B4A9 EQ PUSH2 0x54 JUMPI JUMPDEST PUSH0 DUP1 REVERT JUMPDEST PUSH2 0x52 PUSH1 0x4 DUP1 CALLDATASIZE SUB DUP2 ADD SWAP1 PUSH2 0x4D SWAP2 SWAP1 PUSH2 0x4B0 JUMP JUMPDEST PUSH2 0x70 JUMP JUMPDEST STOP JUMPDEST PUSH2 0x6E PUSH1 0x4 DUP1 CALLDATASIZE SUB DUP2 ADD SWAP1 PUSH2 0x69 SWAP2 SWAP1 PUSH2 0x4F7 JUMP JUMPDEST PUSH2 0x149 JUMP JUMPDEST STOP JUMPDEST PUSH1 0x5 DUP2 PUSH0 ADD MLOAD MLOAD LT ISZERO PUSH2 0xB8 JUMPI PUSH1 0x40 MLOAD PUSH32 0x8C379A000000000000000000000000000000000000000000000000000000000 DUP2 MSTORE PUSH1 0x4 ADD PUSH2 0xAF SWAP1 PUSH2 0x5BD JUMP JUMPDEST PUSH1 0x40 MLOAD DUP1 SWAP2 SUB SWAP1 REVERT JUMPDEST PUSH0 DUP2 SWAP1 DUP1 PUSH1 0x1 DUP2 SLOAD ADD DUP1 DUP3 SSTORE DUP1 SWAP2 POP POP PUSH1 0x1 SWAP1 SUB SWAP1 PUSH0 MSTORE PUSH1 0x20 PUSH0 KECCAK256 SWAP1 PUSH1 0x3 MUL ADD PUSH0 SWAP1 SWAP2 SWAP1 SWAP2 SWAP1 SWAP2 POP PUSH0 DUP3 ADD MLOAD DUP2 PUSH0 ADD SWAP1 DUP2 PUSH2 0xF3 SWAP2 SWAP1 PUSH2 0x7DF JUMP JUMPDEST POP PUSH1 0x20 DUP3 ADD MLOAD DUP2 PUSH1 0x1 ADD SSTORE PUSH1 0x40 DUP3 ADD MLOAD DUP2 PUSH1 0x2 ADD PUSH0 PUSH2 0x100 EXP DUP2 SLOAD DUP2 PUSH20 0xFFFFFFFFFFFFFFFFFFFFFFFFFFFFFFFFFFFFFFFF MUL NOT AND SWAP1 DUP4 PUSH20 0xFFFFFFFFFFFFFFFFFFFFFFFFFFFFFFFFFFFFFFFF AND MUL OR SWAP1 SSTORE POP POP POP POP JUMP JUMPDEST PUSH1 0x5 DUP4 MLOAD LT ISZERO PUSH2 0x18E JUMPI PUSH1 0x40 MLOAD PUSH32 0x8C379A000000000000000000000000000000000000000000000000000000000 DUP2 MSTORE PUSH1 0x4 ADD PUSH2 0x185 SWAP1 PUSH2 0x5BD JUMP JUMPDEST PUSH1 0x40 MLOAD DUP1 SWAP2 SUB SWAP1 REVERT JUMPDEST PUSH0 PUSH1 0x40 MLOAD DUP1 PUSH1 0x60 ADD PUSH1 0x40 MSTORE DUP1 DUP6 DUP2 MSTORE PUSH1 0x20 ADD DUP5 DUP2 MSTORE PUSH1 0x20 ADD DUP4 PUSH20 0xFFFFFFFFFFFFFFFFFFFFFFFFFFFFFFFFFFFFFFFF AND DUP2 MSTORE POP SWAP1 DUP1 PUSH1 0x1 DUP2 SLOAD ADD DUP1 DUP3 SSTORE DUP1 SWAP2 POP POP PUSH1 0x1 SWAP1 SUB SWAP1 PUSH0 MSTORE PUSH1 0x20 PUSH0 KECCAK256 SWAP1 PUSH1 0x3 MUL ADD PUSH0 SWAP1 SWAP2 SWAP1 SWAP2 SWAP1 SWAP2 POP PUSH0 DUP3 ADD MLOAD DUP2 PUSH0 ADD SWAP1 DUP2 PUSH2 0x1F9 SWAP2 SWAP1 PUSH2 0x7DF JUMP JUMPDEST POP PUSH1 0x20 DUP3 ADD MLOAD DUP2 PUSH1 0x1 ADD SSTORE PUSH1 0x40 DUP3 ADD MLOAD DUP2 PUSH1 0x2 ADD PUSH0 PUSH2 0x100 EXP DUP2 SLOAD DUP2 PUSH20 0xFFFFFFFFFFFFFFFFFFFFFFFFFFFFFFFFFFFFFFFF MUL NOT AND SWAP1 DUP4 PUSH20 0xFFFFFFFFFFFFFFFFFFFFFFFFFFFFFFFFFFFFFFFF AND MUL OR SWAP1 SSTORE POP POP POP POP POP POP JUMP JUMPDEST PUSH0 PUSH1 0x40 MLOAD SWAP1 POP SWAP1 JUMP JUMPDEST PUSH0 DUP1 REVERT JUMPDEST PUSH0 DUP1 REVERT JUMPDEST PUSH0 DUP1 REVERT JUMPDEST PUSH0 PUSH1 0x1F NOT PUSH1 0x1F DUP4 ADD AND SWAP1 POP SWAP2 SWAP1 POP JUMP JUMPDEST PUSH32 0x4E487B7100000000000000000000000000000000000000000000000000000000 PUSH0 MSTORE PUSH1 0x41 PUSH1 0x4 MSTORE PUSH1 0x24 PUSH0 REVERT JUMPDEST PUSH2 0x2AC DUP3 PUSH2 0x266 JUMP JUMPDEST DUP2 ADD DUP2 DUP2 LT PUSH8 0xFFFFFFFFFFFFFFFF DUP3 GT OR ISZERO PUSH2 0x2CB JUMPI PUSH2 0x2CA PUSH2 0x276 JUMP JUMPDEST JUMPDEST DUP1 PUSH1 0x40 MSTORE POP POP POP JUMP JUMPDEST PUSH0 PUSH2 0x2DD PUSH2 0x251 JUMP JUMPDEST SWAP1 POP PUSH2 0x2E9 DUP3 DUP3 PUSH2 0x2A3 JUMP JUMPDEST SWAP2 SWAP1 POP JUMP JUMPDEST PUSH0 DUP1 REVERT JUMPDEST PUSH0 DUP1 REVERT JUMPDEST PUSH0 DUP1 REVERT JUMPDEST PUSH0 PUSH8 0xFFFFFFFFFFFFFFFF DUP3 GT ISZERO PUSH2 0x314 JUMPI PUSH2 0x313 PUSH2 0x276 JUMP JUMPDEST JUMPDEST PUSH2 0x31D DUP3 PUSH2 0x266 JUMP JUMPDEST SWAP1 POP PUSH1 0x20 DUP2 ADD SWAP1 POP SWAP2 SWAP1 POP JUMP JUMPDEST DUP3 DUP2 DUP4 CALLDATACOPY PUSH0 DUP4 DUP4 ADD MSTORE POP POP POP JUMP JUMPDEST PUSH0 PUSH2 0x34A PUSH2 0x345 DUP5 PUSH2 0x2FA JUMP JUMPDEST PUSH2 0x2D4 JUMP JUMPDEST SWAP1 POP DUP3 DUP2 MSTORE PUSH1 0x20 DUP2 ADD DUP5 DUP5 DUP5 ADD GT ISZERO PUSH2 0x366 JUMPI PUSH2 0x365 PUSH2 0x2F6 JUMP JUMPDEST JUMPDEST PUSH2 0x371 DUP5 DUP3 DUP6 PUSH2 0x32A JUMP JUMPDEST POP SWAP4 SWAP3 POP POP POP JUMP JUMPDEST PUSH0 DUP3 PUSH1 0x1F DUP4 ADD SLT PUSH2 0x38D JUMPI PUSH2 0x38C PUSH2 0x2F2 JUMP JUMPDEST JUMPDEST DUP2 CALLDATALOAD PUSH2 0x39D DUP5 DUP3 PUSH1 0x20 DUP7 ADD PUSH2 0x338 JUMP JUMPDEST SWAP2 POP POP SWAP3 SWAP2 POP POP JUMP JUMPDEST PUSH0 DUP2 SWAP1 POP SWAP2 SWAP1 POP JUMP JUMPDEST PUSH2 0x3B8 DUP2 PUSH2 0x3A6 JUMP JUMPDEST DUP2 EQ PUSH2 0x3C2 JUMPI PUSH0 DUP1 REVERT JUMPDEST POP JUMP JUMPDEST PUSH0 DUP2 CALLDATALOAD SWAP1 POP PUSH2 0x3D3 DUP2 PUSH2 0x3AF JUMP JUMPDEST SWAP3 SWAP2 POP POP JUMP JUMPDEST PUSH0 PUSH20 0xFFFFFFFFFFFFFFFFFFFFFFFFFFFFFFFFFFFFFFFF DUP3 AND SWAP1 POP SWAP2 SWAP1 POP JUMP JUMPDEST PUSH0 PUSH2 0x402 DUP3 PUSH2 0x3D9 JUMP JUMPDEST SWAP1 POP SWAP2 SWAP1 POP JUMP JUMPDEST PUSH2 0x412 DUP2 PUSH2 0x3F8 JUMP JUMPDEST DUP2 EQ PUSH2 0x41C JUMPI PUSH0 DUP1 REVERT JUMPDEST POP JUMP JUMPDEST PUSH0 DUP2 CALLDATALOAD SWAP1 POP PUSH2 0x42D DUP2 PUSH2 0x409 JUMP JUMPDEST SWAP3 SWAP2 POP POP JUMP JUMPDEST PUSH0 PUSH1 0x60 DUP3 DUP5 SUB SLT ISZERO PUSH2 0x448 JUMPI PUSH2 0x447 PUSH2 0x262 JUMP JUMPDEST JUMPDEST PUSH2 0x452 PUSH1 0x60 PUSH2 0x2D4 JUMP JUMPDEST SWAP1 POP PUSH0 DUP3 ADD CALLDATALOAD PUSH8 0xFFFFFFFFFFFFFFFF DUP2 GT ISZERO PUSH2 0x471 JUMPI PUSH2 0x470 PUSH2 0x2EE JUMP JUMPDEST JUMPDEST PUSH2 0x47D DUP5 DUP3 DUP6 ADD PUSH2 0x379 JUMP JUMPDEST PUSH0 DUP4 ADD MSTORE POP PUSH1 0x20 PUSH2 0x490 DUP5 DUP3 DUP6 ADD PUSH2 0x3C5 JUMP JUMPDEST PUSH1 0x20 DUP4 ADD MSTORE POP PUSH1 0x40 PUSH2 0x4A4 DUP5 DUP3 DUP6 ADD PUSH2 0x41F JUMP JUMPDEST PUSH1 0x40 DUP4 ADD MSTORE POP SWAP3 SWAP2 POP POP JUMP JUMPDEST PUSH0 PUSH1 0x20 DUP3 DUP5 SUB SLT ISZERO PUSH2 0x4C5 JUMPI PUSH2 0x4C4 PUSH2 0x25A JUMP JUMPDEST JUMPDEST PUSH0 DUP3 ADD CALLDATALOAD PUSH8 0xFFFFFFFFFFFFFFFF DUP2 GT ISZERO PUSH2 0x4E2 JUMPI PUSH2 0x4E1 PUSH2 0x25E JUMP JUMPDEST JUMPDEST PUSH2 0x4EE DUP5 DUP3 DUP6 ADD PUSH2 0x433 JUMP JUMPDEST SWAP2 POP POP SWAP3 SWAP2 POP POP JUMP JUMPDEST PUSH0 DUP1 PUSH0 PUSH1 0x60 DUP5 DUP7 SUB SLT ISZERO PUSH2 0x50E JUMPI PUSH2 0x50D PUSH2 0x25A JUMP JUMPDEST JUMPDEST PUSH0 DUP5 ADD CALLDATALOAD PUSH8 0xFFFFFFFFFFFFFFFF DUP2 GT ISZERO PUSH2 0x52B JUMPI PUSH2 0x52A PUSH2 0x25E JUMP JUMPDEST JUMPDEST PUSH2 0x537 DUP7 DUP3 DUP8 ADD PUSH2 0x379 JUMP JUMPDEST SWAP4 POP POP PUSH1 0x20 PUSH2 0x548 DUP7 DUP3 DUP8 ADD PUSH2 0x3C5 JUMP JUMPDEST SWAP3 POP POP PUSH1 0x40 PUSH2 0x559 DUP7 DUP3 DUP8 ADD PUSH2 0x41F JUMP JUMPDEST SWAP2 POP POP SWAP3 POP SWAP3 POP SWAP3 JUMP JUMPDEST PUSH0 DUP3 DUP3 MSTORE PUSH1 0x20 DUP3 ADD SWAP1 POP SWAP3 SWAP2 POP POP JUMP JUMPDEST PUSH32 0x6E6F706500000000000000000000000000000000000000000000000000000000 PUSH0 DUP3 ADD MSTORE POP JUMP JUMPDEST PUSH0 PUSH2 0x5A7 PUSH1 0x4 DUP4 PUSH2 0x563 JUMP JUMPDEST SWAP2 POP PUSH2 0x5B2 DUP3 PUSH2 0x573 JUMP JUMPDEST PUSH1 0x20 DUP3 ADD SWAP1 POP SWAP2 SWAP1 POP JUMP JUMPDEST PUSH0 PUSH1 0x20 DUP3 ADD SWAP1 POP DUP2 DUP2 SUB PUSH0 DUP4 ADD MSTORE PUSH2 0x5D4 DUP2 PUSH2 0x59B JUMP JUMPDEST SWAP1 POP SWAP2 SWAP1 POP JUMP JUMPDEST PUSH0 DUP2 MLOAD SWAP1 POP SWAP2 SWAP1 POP JUMP JUMPDEST PUSH32 0x4E487B7100000000000000000000000000000000000000000000000000000000 PUSH0 MSTORE PUSH1 0x22 PUSH1 0x4 MSTORE PUSH1 0x24 PUSH0 REVERT JUMPDEST PUSH0 PUSH1 0x2 DUP3 DIV SWAP1 POP PUSH1 0x1 DUP3 AND DUP1 PUSH2 0x629 JUMPI PUSH1 0x7F DUP3 AND SWAP2 POP JUMPDEST PUSH1 0x20 DUP3 LT DUP2 SUB PUSH2 0x63C JUMPI PUSH2 0x63B PUSH2 0x5E5 JUMP JUMPDEST JUMPDEST POP SWAP2 SWAP1 POP JUMP JUMPDEST PUSH0 DUP2 SWAP1 POP DUP2 PUSH0 MSTORE PUSH1 0x20 PUSH0 KECCAK256 SWAP1 POP SWAP2 SWAP1 POP JUMP JUMPDEST PUSH0 PUSH1 0x20 PUSH1 0x1F DUP4 ADD DIV SWAP1 POP SWAP2 SWAP1 POP JUMP JUMPDEST PUSH0 DUP3 DUP3 SHL SWAP1 POP SWAP3 SWAP2 POP POP JUMP JUMPDEST PUSH0 PUSH1 0x8 DUP4 MUL PUSH2 0x69E PUSH32 0xFFFFFFFFFFFFFFFFFFFFFFFFFFFFFFFFFFFFFFFFFFFFFFFFFFFFFFFFFFFFFFFF DUP3 PUSH2 0x663 JUMP JUMPDEST PUSH2 0x6A8 DUP7 DUP4 PUSH2 0x663 JUMP JUMPDEST SWAP6 POP DUP1 NOT DUP5 AND SWAP4 POP DUP1 DUP7 AND DUP5 OR SWAP3 POP POP POP SWAP4 SWAP3 POP POP POP JUMP JUMPDEST PUSH0 DUP2 SWAP1 POP SWAP2 SWAP1 POP JUMP JUMPDEST PUSH0 PUSH2 0x6E3 PUSH2 0x6DE PUSH2 0x6D9 DUP5 PUSH2 0x3A6 JUMP JUMPDEST PUSH2 0x6C0 JUMP JUMPDEST PUSH2 0x3A6 JUMP JUMPDEST SWAP1 POP SWAP2 SWAP1 POP JUMP JUMPDEST PUSH0 DUP2 SWAP1 POP SWAP2 SWAP1 POP JUMP JUMPDEST PUSH2 0x6FC DUP4 PUSH2 0x6C9 JUMP JUMPDEST PUSH2 0x710 PUSH2 0x708 DUP3 PUSH2 0x6EA JUMP JUMPDEST DUP5 DUP5 SLOAD PUSH2 0x66F JUMP JUMPDEST DUP3 SSTORE POP POP POP POP JUMP JUMPDEST PUSH0 SWAP1 JUMP JUMPDEST PUSH2 0x724 PUSH2 0x718 JUMP JUMPDEST PUSH2 0x72F DUP2 DUP5 DUP5 PUSH2 0x6F3 JUMP JUMPDEST POP POP POP JUMP JUMPDEST JUMPDEST DUP2 DUP2 LT ISZERO PUSH2 0x752 JUMPI PUSH2 0x747 PUSH0 DUP3 PUSH2 0x71C JUMP JUMPDEST PUSH1 0x1 DUP2 ADD SWAP1 POP PUSH2 0x735 JUMP JUMPDEST POP POP JUMP JUMPDEST PUSH1 0x1F DUP3 GT ISZERO PUSH2 0x797 JUMPI PUSH2 0x768 DUP2 PUSH2 0x642 JUMP JUMPDEST PUSH2 0x771 DUP5 PUSH2 0x654 JUMP JUMPDEST DUP2 ADD PUSH1 0x20 DUP6 LT ISZERO PUSH2 0x780 JUMPI DUP2 SWAP1 POP JUMPDEST PUSH2 0x794 PUSH2 0x78C DUP6 PUSH2 0x654 JUMP JUMPDEST DUP4 ADD DUP3 PUSH2 0x734 JUMP JUMPDEST POP POP JUMPDEST POP POP POP JUMP JUMPDEST PUSH0 DUP3 DUP3 SHR SWAP1 POP SWAP3 SWAP2 POP POP JUMP JUMPDEST PUSH0 PUSH2 0x7B7 PUSH0 NOT DUP5 PUSH1 0x8 MUL PUSH2 0x79C JUMP JUMPDEST NOT DUP1 DUP4 AND SWAP2 POP POP SWAP3 SWAP2 POP POP JUMP JUMPDEST PUSH0 PUSH2 0x7CF DUP4 DUP4 PUSH2 0x7A8 JUMP JUMPDEST SWAP2 POP DUP3 PUSH1 0x2 MUL DUP3 OR SWAP1 POP SWAP3 SWAP2 POP POP JUMP JUMPDEST PUSH2 0x7E8 DUP3 PUSH2 0x5DB JUMP JUMPDEST PUSH8 0xFFFFFFFFFFFFFFFF DUP2 GT ISZERO PUSH2 0x801 JUMPI PUSH2 0x800 PUSH2 0x276 JUMP JUMPDEST JUMPDEST PUSH2 0x80B DUP3 SLOAD PUSH2 0x612 JUMP JUMPDEST PUSH2 0x816 DUP3 DUP3 DUP6 PUSH2 0x756 JUMP JUMPDEST PUSH0 PUSH1 0x20 SWAP1 POP PUSH1 0x1F DUP4 GT PUSH1 0x1 DUP2 EQ PUSH2 0x847 JUMPI PUSH0 DUP5 ISZERO PUSH2 0x835 JUMPI DUP3 DUP8 ADD MLOAD SWAP1 POP JUMPDEST PUSH2 0x83F DUP6 DUP3 PUSH2 0x7C4 JUMP JUMPDEST DUP7 SSTORE POP PUSH2 0x8A6 JUMP JUMPDEST PUSH1 0x1F NOT DUP5 AND PUSH2 0x855 DUP7 PUSH2 0x642 JUMP JUMPDEST PUSH0 JUMPDEST DUP3 DUP2 LT ISZERO PUSH2 0x87C JUMPI DUP5 DUP10 ADD MLOAD DUP3 SSTORE PUSH1 0x1 DUP3 ADD SWAP2 POP PUSH1 0x20 DUP6 ADD SWAP5 POP PUSH1 0x20 DUP2 ADD SWAP1 POP PUSH2 0x857 JUMP JUMPDEST DUP7 DUP4 LT ISZERO PUSH2 0x899 JUMPI DUP5 DUP10 ADD MLOAD PUSH2 0x895 PUSH1 0x1F DUP10 AND DUP3 PUSH2 0x7A8 JUMP JUMPDEST DUP4 SSTORE POP JUMPDEST PUSH1 0x1 PUSH1 0x2 DUP9 MUL ADD DUP9 SSTORE POP POP POP JUMPDEST POP POP POP POP POP POP JUMP INVALID LOG2 PUSH5 0x6970667358 0x22 SLT KECCAK256 ISZERO NUMBER EXP EXTCODEHASH 0xCB PUSH22 0x6F8C9240C212120C1761ED8DDDDC66B45A11288C0233 RETURN PUSH8 0xCA2764736F6C6343 STOP ADDMOD BYTE STOP CALLER "
		},
		"gasEstimates": {
			"creation": {
				"codeDepositCost": "455200",
				"executionCost": "491",
				"totalCost": "455691"
			},
			"external": {
				"pushCus((string,uint256,address))": "infinite",
				"pushCus2(string,uint256,address)": "infinite"
			}
		},
		"methodIdentifiers": {
			"pushCus((string,uint256,address))": "8995fb88",
			"pushCus2(string,uint256,address)": "9176b4a9"
		}
	},
	"abi": [
		{
			"inputs": [
				{
					"components": [
						{
							"internalType": "string",
							"name": "_name",
							"type": "string"
						},
						{
							"internalType": "uint256",
							"name": "_num",
							"type": "uint256"
						},
						{
							"internalType": "address",
							"name": "_addr",
							"type": "address"
						}
					],
					"internalType": "struct Q42.customer",
					"name": "_customer",
					"type": "tuple"
				}
			],
			"name": "pushCus",
			"outputs": [],
			"stateMutability": "nonpayable",
			"type": "function"
		},
		{
			"inputs": [
				{
					"internalType": "string",
					"name": "_name",
					"type": "string"
				},
				{
					"internalType": "uint256",
					"name": "_num",
					"type": "uint256"
				},
				{
					"internalType": "address",
					"name": "_addr",
					"type": "address"
				}
			],
			"name": "pushCus2",
			"outputs": [],
			"stateMutability": "nonpayable",
			"type": "function"
		}
	]
}