{
	"data": {
		"bytecode": {
			"linkReferences": {},
			"object": "6080604052348015600e575f80fd5b506104638061001c5f395ff3fe608060405234801561000f575f80fd5b5060043610610029575f3560e01c806378b0a8071461002d575b5f80fd5b61004760048036038101906100429190610119565b61005f565b60405161005693929190610166565b60405180910390f35b5f805f600a851080156100725750600a84105b6100b1576040517f08c379a00000000000000000000000000000000000000000000000000000000081526004016100a8906101f5565b60405180910390fd5b83856100bd9190610240565b84866100c99190610273565b85876100d591906103e3565b9250925092509250925092565b5f80fd5b5f819050919050565b6100f8816100e6565b8114610102575f80fd5b50565b5f81359050610113816100ef565b92915050565b5f806040838503121561012f5761012e6100e2565b5b5f61013c85828601610105565b925050602061014d85828601610105565b9150509250929050565b610160816100e6565b82525050565b5f6060820190506101795f830186610157565b6101866020830185610157565b6101936040830184610157565b949350505050565b5f82825260208201905092915050565b7f6c657373207468616e20313000000000000000000000000000000000000000005f82015250565b5f6101df600c8361019b565b91506101ea826101ab565b602082019050919050565b5f6020820190508181035f83015261020c816101d3565b9050919050565b7f4e487b71000000000000000000000000000000000000000000000000000000005f52601160045260245ffd5b5f61024a826100e6565b9150610255836100e6565b925082820190508082111561026d5761026c610213565b5b92915050565b5f61027d826100e6565b9150610288836100e6565b9250828202610296816100e6565b915082820484148315176102ad576102ac610213565b5b5092915050565b5f8160011c9050919050565b5f808291508390505b6001851115610309578086048111156102e5576102e4610213565b5b60018516156102f45780820291505b8081029050610302856102b4565b94506102c9565b94509492505050565b5f8261032157600190506103dc565b8161032e575f90506103dc565b8160018114610344576002811461034e5761037d565b60019150506103dc565b60ff8411156103605761035f610213565b5b8360020a91508482111561037757610376610213565b5b506103dc565b5060208310610133831016604e8410600b84101617156103b25782820a9050838111156103ad576103ac610213565b5b6103dc565b6103bf84848460016102c0565b925090508184048111156103d6576103d5610213565b5b81810290505b9392505050565b5f6103ed826100e6565b91506103f8836100e6565b92506104257fffffffffffffffffffffffffffffffffffffffffffffffffffffffffffffffff8484610312565b90509291505056fea2646970667358221220dba1858c21604ec32c04fda786a4013d66771ab5ddf8af93eb42b2a41a21b5da64736f6c634300081a0033",
			"opcodes": "PUSH1 0x80 PUSH1 0x40 MSTORE CALLVALUE DUP1 ISZERO PUSH1 0xE JUMPI PUSH0 DUP1 REVERT JUMPDEST POP PUSH2 0x463 DUP1 PUSH2 0x1C PUSH0 CODECOPY PUSH0 RETURN INVALID PUSH1 0x80 PUSH1 0x40 MSTORE CALLVALUE DUP1 ISZERO PUSH2 0xF JUMPI PUSH0 DUP1 REVERT JUMPDEST POP PUSH1 0x4 CALLDATASIZE LT PUSH2 0x29 JUMPI PUSH0 CALLDATALOAD PUSH1 0xE0 SHR DUP1 PUSH4 0x78B0A807 EQ PUSH2 0x2D JUMPI JUMPDEST PUSH0 DUP1 REVERT JUMPDEST PUSH2 0x47 PUSH1 0x4 DUP1 CALLDATASIZE SUB DUP2 ADD SWAP1 PUSH2 0x42 SWAP2 SWAP1 PUSH2 0x119 JUMP JUMPDEST PUSH2 0x5F JUMP JUMPDEST PUSH1 0x40 MLOAD PUSH2 0x56 SWAP4 SWAP3 SWAP2 SWAP1 PUSH2 0x166 JUMP JUMPDEST PUSH1 0x40 MLOAD DUP1 SWAP2 SUB SWAP1 RETURN JUMPDEST PUSH0 DUP1 PUSH0 PUSH1 0xA DUP6 LT DUP1 ISZERO PUSH2 0x72 JUMPI POP PUSH1 0xA DUP5 LT JUMPDEST PUSH2 0xB1 JUMPI PUSH1 0x40 MLOAD PUSH32 0x8C379A000000000000000000000000000000000000000000000000000000000 DUP2 MSTORE PUSH1 0x4 ADD PUSH2 0xA8 SWAP1 PUSH2 0x1F5 JUMP JUMPDEST PUSH1 0x40 MLOAD DUP1 SWAP2 SUB SWAP1 REVERT JUMPDEST DUP4 DUP6 PUSH2 0xBD SWAP2 SWAP1 PUSH2 0x240 JUMP JUMPDEST DUP5 DUP7 PUSH2 0xC9 SWAP2 SWAP1 PUSH2 0x273 JUMP JUMPDEST DUP6 DUP8 PUSH2 0xD5 SWAP2 SWAP1 PUSH2 0x3E3 JUMP JUMPDEST SWAP3 POP SWAP3 POP SWAP3 POP SWAP3 POP SWAP3 POP SWAP3 JUMP JUMPDEST PUSH0 DUP1 REVERT JUMPDEST PUSH0 DUP2 SWAP1 POP SWAP2 SWAP1 POP JUMP JUMPDEST PUSH2 0xF8 DUP2 PUSH2 0xE6 JUMP JUMPDEST DUP2 EQ PUSH2 0x102 JUMPI PUSH0 DUP1 REVERT JUMPDEST POP JUMP JUMPDEST PUSH0 DUP2 CALLDATALOAD SWAP1 POP PUSH2 0x113 DUP2 PUSH2 0xEF JUMP JUMPDEST SWAP3 SWAP2 POP POP JUMP JUMPDEST PUSH0 DUP1 PUSH1 0x40 DUP4 DUP6 SUB SLT ISZERO PUSH2 0x12F JUMPI PUSH2 0x12E PUSH2 0xE2 JUMP JUMPDEST JUMPDEST PUSH0 PUSH2 0x13C DUP6 DUP3 DUP7 ADD PUSH2 0x105 JUMP JUMPDEST SWAP3 POP POP PUSH1 0x20 PUSH2 0x14D DUP6 DUP3 DUP7 ADD PUSH2 0x105 JUMP JUMPDEST SWAP2 POP POP SWAP3 POP SWAP3 SWAP1 POP JUMP JUMPDEST PUSH2 0x160 DUP2 PUSH2 0xE6 JUMP JUMPDEST DUP3 MSTORE POP POP JUMP JUMPDEST PUSH0 PUSH1 0x60 DUP3 ADD SWAP1 POP PUSH2 0x179 PUSH0 DUP4 ADD DUP7 PUSH2 0x157 JUMP JUMPDEST PUSH2 0x186 PUSH1 0x20 DUP4 ADD DUP6 PUSH2 0x157 JUMP JUMPDEST PUSH2 0x193 PUSH1 0x40 DUP4 ADD DUP5 PUSH2 0x157 JUMP JUMPDEST SWAP5 SWAP4 POP POP POP POP JUMP JUMPDEST PUSH0 DUP3 DUP3 MSTORE PUSH1 0x20 DUP3 ADD SWAP1 POP SWAP3 SWAP2 POP POP JUMP JUMPDEST PUSH32 0x6C657373207468616E2031300000000000000000000000000000000000000000 PUSH0 DUP3 ADD MSTORE POP JUMP JUMPDEST PUSH0 PUSH2 0x1DF PUSH1 0xC DUP4 PUSH2 0x19B JUMP JUMPDEST SWAP2 POP PUSH2 0x1EA DUP3 PUSH2 0x1AB JUMP JUMPDEST PUSH1 0x20 DUP3 ADD SWAP1 POP SWAP2 SWAP1 POP JUMP JUMPDEST PUSH0 PUSH1 0x20 DUP3 ADD SWAP1 POP DUP2 DUP2 SUB PUSH0 DUP4 ADD MSTORE PUSH2 0x20C DUP2 PUSH2 0x1D3 JUMP JUMPDEST SWAP1 POP SWAP2 SWAP1 POP JUMP JUMPDEST PUSH32 0x4E487B7100000000000000000000000000000000000000000000000000000000 PUSH0 MSTORE PUSH1 0x11 PUSH1 0x4 MSTORE PUSH1 0x24 PUSH0 REVERT JUMPDEST PUSH0 PUSH2 0x24A DUP3 PUSH2 0xE6 JUMP JUMPDEST SWAP2 POP PUSH2 0x255 DUP4 PUSH2 0xE6 JUMP JUMPDEST SWAP3 POP DUP3 DUP3 ADD SWAP1 POP DUP1 DUP3 GT ISZERO PUSH2 0x26D JUMPI PUSH2 0x26C PUSH2 0x213 JUMP JUMPDEST JUMPDEST SWAP3 SWAP2 POP POP JUMP JUMPDEST PUSH0 PUSH2 0x27D DUP3 PUSH2 0xE6 JUMP JUMPDEST SWAP2 POP PUSH2 0x288 DUP4 PUSH2 0xE6 JUMP JUMPDEST SWAP3 POP DUP3 DUP3 MUL PUSH2 0x296 DUP2 PUSH2 0xE6 JUMP JUMPDEST SWAP2 POP DUP3 DUP3 DIV DUP5 EQ DUP4 ISZERO OR PUSH2 0x2AD JUMPI PUSH2 0x2AC PUSH2 0x213 JUMP JUMPDEST JUMPDEST POP SWAP3 SWAP2 POP POP JUMP JUMPDEST PUSH0 DUP2 PUSH1 0x1 SHR SWAP1 POP SWAP2 SWAP1 POP JUMP JUMPDEST PUSH0 DUP1 DUP3 SWAP2 POP DUP4 SWAP1 POP JUMPDEST PUSH1 0x1 DUP6 GT ISZERO PUSH2 0x309 JUMPI DUP1 DUP7 DIV DUP2 GT ISZERO PUSH2 0x2E5 JUMPI PUSH2 0x2E4 PUSH2 0x213 JUMP JUMPDEST JUMPDEST PUSH1 0x1 DUP6 AND ISZERO PUSH2 0x2F4 JUMPI DUP1 DUP3 MUL SWAP2 POP JUMPDEST DUP1 DUP2 MUL SWAP1 POP PUSH2 0x302 DUP6 PUSH2 0x2B4 JUMP JUMPDEST SWAP5 POP PUSH2 0x2C9 JUMP JUMPDEST SWAP5 POP SWAP5 SWAP3 POP POP POP JUMP JUMPDEST PUSH0 DUP3 PUSH2 0x321 JUMPI PUSH1 0x1 SWAP1 POP PUSH2 0x3DC JUMP JUMPDEST DUP2 PUSH2 0x32E JUMPI PUSH0 SWAP1 POP PUSH2 0x3DC JUMP JUMPDEST DUP2 PUSH1 0x1 DUP2 EQ PUSH2 0x344 JUMPI PUSH1 0x2 DUP2 EQ PUSH2 0x34E JUMPI PUSH2 0x37D JUMP JUMPDEST PUSH1 0x1 SWAP2 POP POP PUSH2 0x3DC JUMP JUMPDEST PUSH1 0xFF DUP5 GT ISZERO PUSH2 0x360 JUMPI PUSH2 0x35F PUSH2 0x213 JUMP JUMPDEST JUMPDEST DUP4 PUSH1 0x2 EXP SWAP2 POP DUP5 DUP3 GT ISZERO PUSH2 0x377 JUMPI PUSH2 0x376 PUSH2 0x213 JUMP JUMPDEST JUMPDEST POP PUSH2 0x3DC JUMP JUMPDEST POP PUSH1 0x20 DUP4 LT PUSH2 0x133 DUP4 LT AND PUSH1 0x4E DUP5 LT PUSH1 0xB DUP5 LT AND OR ISZERO PUSH2 0x3B2 JUMPI DUP3 DUP3 EXP SWAP1 POP DUP4 DUP2 GT ISZERO PUSH2 0x3AD JUMPI PUSH2 0x3AC PUSH2 0x213 JUMP JUMPDEST JUMPDEST PUSH2 0x3DC JUMP JUMPDEST PUSH2 0x3BF DUP5 DUP5 DUP5 PUSH1 0x1 PUSH2 0x2C0 JUMP JUMPDEST SWAP3 POP SWAP1 POP DUP2 DUP5 DIV DUP2 GT ISZERO PUSH2 0x3D6 JUMPI PUSH2 0x3D5 PUSH2 0x213 JUMP JUMPDEST JUMPDEST DUP2 DUP2 MUL SWAP1 POP JUMPDEST SWAP4 SWAP3 POP POP POP JUMP JUMPDEST PUSH0 PUSH2 0x3ED DUP3 PUSH2 0xE6 JUMP JUMPDEST SWAP2 POP PUSH2 0x3F8 DUP4 PUSH2 0xE6 JUMP JUMPDEST SWAP3 POP PUSH2 0x425 PUSH32 0xFFFFFFFFFFFFFFFFFFFFFFFFFFFFFFFFFFFFFFFFFFFFFFFFFFFFFFFFFFFFFFFF DUP5 DUP5 PUSH2 0x312 JUMP JUMPDEST SWAP1 POP SWAP3 SWAP2 POP POP JUMP INVALID LOG2 PUSH5 0x6970667358 0x22 SLT KECCAK256 0xDB LOG1 DUP6 DUP13 0x21 PUSH1 0x4E 0xC3 0x2C DIV REVERT 0xA7 DUP7 LOG4 ADD RETURNDATASIZE PUSH7 0x771AB5DDF8AF93 0xEB TIMESTAMP 0xB2 LOG4 BYTE 0x21 0xB5 0xDA PUSH5 0x736F6C6343 STOP ADDMOD BYTE STOP CALLER "
		},
		"gasEstimates": {
			"creation": {
				"codeDepositCost": "224600",
				"executionCost": "267",
				"totalCost": "224867"
			},
			"external": {
				"Add_Mul_Sq(uint256,uint256)": "infinite"
			}
		},
		"methodIdentifiers": {
			"Add_Mul_Sq(uint256,uint256)": "78b0a807"
		}
	},
	"abi": [
		{
			"inputs": [
				{
					"internalType": "uint256",
					"name": "a",
					"type": "uint256"
				},
				{
					"internalType": "uint256",
					"name": "b",
					"type": "uint256"
				}
			],
			"name": "Add_Mul_Sq",
			"outputs": [
				{
					"internalType": "uint256",
					"name": "",
					"type": "uint256"
				},
				{
					"internalType": "uint256",
					"name": "",
					"type": "uint256"
				},
				{
					"internalType": "uint256",
					"name": "",
					"type": "uint256"
				}
			],
			"stateMutability": "pure",
			"type": "function"
		}
	]
}