{
	"data": {
		"bytecode": {
			"linkReferences": {},
			"object": "6080604052348015600e575f80fd5b506102758061001c5f395ff3fe608060405234801561000f575f80fd5b5060043610610029575f3560e01c80639507d39a1461002d575b5f80fd5b6100476004803603810190610042919061010d565b61005e565b604051610055929190610147565b60405180910390f35b5f805f808490505b5f811461008f5781806100789061019b565b925050600a81610088919061020f565b9050610066565b5f8290505f92508591505b5f82146100c35782806100ac9061019b565b9350506005826100bc919061020f565b915061009a565b5f83905081819550955050505050915091565b5f80fd5b5f819050919050565b6100ec816100da565b81146100f6575f80fd5b50565b5f81359050610107816100e3565b92915050565b5f60208284031215610122576101216100d6565b5b5f61012f848285016100f9565b91505092915050565b610141816100da565b82525050565b5f60408201905061015a5f830185610138565b6101676020830184610138565b9392505050565b7f4e487b71000000000000000000000000000000000000000000000000000000005f52601160045260245ffd5b5f6101a5826100da565b91507fffffffffffffffffffffffffffffffffffffffffffffffffffffffffffffffff82036101d7576101d661016e565b5b600182019050919050565b7f4e487b71000000000000000000000000000000000000000000000000000000005f52601260045260245ffd5b5f610219826100da565b9150610224836100da565b925082610234576102336101e2565b5b82820490509291505056fea26469706673582212206da3cde489e638c11fc2c7d2af406e7fc472614f1ce5476c9f7a84c0803e7e9364736f6c634300081a0033",
			"opcodes": "PUSH1 0x80 PUSH1 0x40 MSTORE CALLVALUE DUP1 ISZERO PUSH1 0xE JUMPI PUSH0 DUP1 REVERT JUMPDEST POP PUSH2 0x275 DUP1 PUSH2 0x1C PUSH0 CODECOPY PUSH0 RETURN INVALID PUSH1 0x80 PUSH1 0x40 MSTORE CALLVALUE DUP1 ISZERO PUSH2 0xF JUMPI PUSH0 DUP1 REVERT JUMPDEST POP PUSH1 0x4 CALLDATASIZE LT PUSH2 0x29 JUMPI PUSH0 CALLDATALOAD PUSH1 0xE0 SHR DUP1 PUSH4 0x9507D39A EQ PUSH2 0x2D JUMPI JUMPDEST PUSH0 DUP1 REVERT JUMPDEST PUSH2 0x47 PUSH1 0x4 DUP1 CALLDATASIZE SUB DUP2 ADD SWAP1 PUSH2 0x42 SWAP2 SWAP1 PUSH2 0x10D JUMP JUMPDEST PUSH2 0x5E JUMP JUMPDEST PUSH1 0x40 MLOAD PUSH2 0x55 SWAP3 SWAP2 SWAP1 PUSH2 0x147 JUMP JUMPDEST PUSH1 0x40 MLOAD DUP1 SWAP2 SUB SWAP1 RETURN JUMPDEST PUSH0 DUP1 PUSH0 DUP1 DUP5 SWAP1 POP JUMPDEST PUSH0 DUP2 EQ PUSH2 0x8F JUMPI DUP2 DUP1 PUSH2 0x78 SWAP1 PUSH2 0x19B JUMP JUMPDEST SWAP3 POP POP PUSH1 0xA DUP2 PUSH2 0x88 SWAP2 SWAP1 PUSH2 0x20F JUMP JUMPDEST SWAP1 POP PUSH2 0x66 JUMP JUMPDEST PUSH0 DUP3 SWAP1 POP PUSH0 SWAP3 POP DUP6 SWAP2 POP JUMPDEST PUSH0 DUP3 EQ PUSH2 0xC3 JUMPI DUP3 DUP1 PUSH2 0xAC SWAP1 PUSH2 0x19B JUMP JUMPDEST SWAP4 POP POP PUSH1 0x5 DUP3 PUSH2 0xBC SWAP2 SWAP1 PUSH2 0x20F JUMP JUMPDEST SWAP2 POP PUSH2 0x9A JUMP JUMPDEST PUSH0 DUP4 SWAP1 POP DUP2 DUP2 SWAP6 POP SWAP6 POP POP POP POP POP SWAP2 POP SWAP2 JUMP JUMPDEST PUSH0 DUP1 REVERT JUMPDEST PUSH0 DUP2 SWAP1 POP SWAP2 SWAP1 POP JUMP JUMPDEST PUSH2 0xEC DUP2 PUSH2 0xDA JUMP JUMPDEST DUP2 EQ PUSH2 0xF6 JUMPI PUSH0 DUP1 REVERT JUMPDEST POP JUMP JUMPDEST PUSH0 DUP2 CALLDATALOAD SWAP1 POP PUSH2 0x107 DUP2 PUSH2 0xE3 JUMP JUMPDEST SWAP3 SWAP2 POP POP JUMP JUMPDEST PUSH0 PUSH1 0x20 DUP3 DUP5 SUB SLT ISZERO PUSH2 0x122 JUMPI PUSH2 0x121 PUSH2 0xD6 JUMP JUMPDEST JUMPDEST PUSH0 PUSH2 0x12F DUP5 DUP3 DUP6 ADD PUSH2 0xF9 JUMP JUMPDEST SWAP2 POP POP SWAP3 SWAP2 POP POP JUMP JUMPDEST PUSH2 0x141 DUP2 PUSH2 0xDA JUMP JUMPDEST DUP3 MSTORE POP POP JUMP JUMPDEST PUSH0 PUSH1 0x40 DUP3 ADD SWAP1 POP PUSH2 0x15A PUSH0 DUP4 ADD DUP6 PUSH2 0x138 JUMP JUMPDEST PUSH2 0x167 PUSH1 0x20 DUP4 ADD DUP5 PUSH2 0x138 JUMP JUMPDEST SWAP4 SWAP3 POP POP POP JUMP JUMPDEST PUSH32 0x4E487B7100000000000000000000000000000000000000000000000000000000 PUSH0 MSTORE PUSH1 0x11 PUSH1 0x4 MSTORE PUSH1 0x24 PUSH0 REVERT JUMPDEST PUSH0 PUSH2 0x1A5 DUP3 PUSH2 0xDA JUMP JUMPDEST SWAP2 POP PUSH32 0xFFFFFFFFFFFFFFFFFFFFFFFFFFFFFFFFFFFFFFFFFFFFFFFFFFFFFFFFFFFFFFFF DUP3 SUB PUSH2 0x1D7 JUMPI PUSH2 0x1D6 PUSH2 0x16E JUMP JUMPDEST JUMPDEST PUSH1 0x1 DUP3 ADD SWAP1 POP SWAP2 SWAP1 POP JUMP JUMPDEST PUSH32 0x4E487B7100000000000000000000000000000000000000000000000000000000 PUSH0 MSTORE PUSH1 0x12 PUSH1 0x4 MSTORE PUSH1 0x24 PUSH0 REVERT JUMPDEST PUSH0 PUSH2 0x219 DUP3 PUSH2 0xDA JUMP JUMPDEST SWAP2 POP PUSH2 0x224 DUP4 PUSH2 0xDA JUMP JUMPDEST SWAP3 POP DUP3 PUSH2 0x234 JUMPI PUSH2 0x233 PUSH2 0x1E2 JUMP JUMPDEST JUMPDEST DUP3 DUP3 DIV SWAP1 POP SWAP3 SWAP2 POP POP JUMP INVALID LOG2 PUSH5 0x6970667358 0x22 SLT KECCAK256 PUSH14 0xA3CDE489E638C11FC2C7D2AF406E PUSH32 0xC472614F1CE5476C9F7A84C0803E7E9364736F6C634300081A00330000000000 "
		},
		"gasEstimates": {
			"creation": {
				"codeDepositCost": "125800",
				"executionCost": "169",
				"totalCost": "125969"
			},
			"external": {
				"get(uint256)": "infinite"
			}
		},
		"methodIdentifiers": {
			"get(uint256)": "9507d39a"
		}
	},
	"abi": [
		{
			"inputs": [
				{
					"internalType": "uint256",
					"name": "a",
					"type": "uint256"
				}
			],
			"name": "get",
			"outputs": [
				{
					"internalType": "uint256",
					"name": "",
					"type": "uint256"
				},
				{
					"internalType": "uint256",
					"name": "",
					"type": "uint256"
				}
			],
			"stateMutability": "pure",
			"type": "function"
		}
	]
}