{
	"data": {
		"bytecode": {
			"linkReferences": {},
			"object": "6080604052348015600e575f80fd5b5061023a8061001c5f395ff3fe608060405234801561000f575f80fd5b5060043610610034575f3560e01c8063609e7a6f146100385780636aea026714610056575b5f80fd5b610040610060565b60405161004d9190610117565b60405180910390f35b61005e6100ba565b005b5f805f5b60015f80549050610075919061015d565b8110156100b2575f818154811061008f5761008e610190565b5b905f5260205f200154826100a3919061015d565b91508080600101915050610064565b819250505090565b5f5b600581116100fc575f81908060018154018082558091505060019003905f5260205f20015f909190919091505580806100f4906101bd565b9150506100bc565b50565b5f819050919050565b610111816100ff565b82525050565b5f60208201905061012a5f830184610108565b92915050565b7f4e487b71000000000000000000000000000000000000000000000000000000005f52601160045260245ffd5b5f610167826100ff565b9150610172836100ff565b925082820190508082111561018a57610189610130565b5b92915050565b7f4e487b71000000000000000000000000000000000000000000000000000000005f52603260045260245ffd5b5f6101c7826100ff565b91507fffffffffffffffffffffffffffffffffffffffffffffffffffffffffffffffff82036101f9576101f8610130565b5b60018201905091905056fea264697066735822122028cdf4128544f223897db31c05b27d0898d40d4bb477bb4e55e0cdb9be354fc064736f6c634300081a0033",
			"opcodes": "PUSH1 0x80 PUSH1 0x40 MSTORE CALLVALUE DUP1 ISZERO PUSH1 0xE JUMPI PUSH0 DUP1 REVERT JUMPDEST POP PUSH2 0x23A DUP1 PUSH2 0x1C PUSH0 CODECOPY PUSH0 RETURN INVALID PUSH1 0x80 PUSH1 0x40 MSTORE CALLVALUE DUP1 ISZERO PUSH2 0xF JUMPI PUSH0 DUP1 REVERT JUMPDEST POP PUSH1 0x4 CALLDATASIZE LT PUSH2 0x34 JUMPI PUSH0 CALLDATALOAD PUSH1 0xE0 SHR DUP1 PUSH4 0x609E7A6F EQ PUSH2 0x38 JUMPI DUP1 PUSH4 0x6AEA0267 EQ PUSH2 0x56 JUMPI JUMPDEST PUSH0 DUP1 REVERT JUMPDEST PUSH2 0x40 PUSH2 0x60 JUMP JUMPDEST PUSH1 0x40 MLOAD PUSH2 0x4D SWAP2 SWAP1 PUSH2 0x117 JUMP JUMPDEST PUSH1 0x40 MLOAD DUP1 SWAP2 SUB SWAP1 RETURN JUMPDEST PUSH2 0x5E PUSH2 0xBA JUMP JUMPDEST STOP JUMPDEST PUSH0 DUP1 PUSH0 JUMPDEST PUSH1 0x1 PUSH0 DUP1 SLOAD SWAP1 POP PUSH2 0x75 SWAP2 SWAP1 PUSH2 0x15D JUMP JUMPDEST DUP2 LT ISZERO PUSH2 0xB2 JUMPI PUSH0 DUP2 DUP2 SLOAD DUP2 LT PUSH2 0x8F JUMPI PUSH2 0x8E PUSH2 0x190 JUMP JUMPDEST JUMPDEST SWAP1 PUSH0 MSTORE PUSH1 0x20 PUSH0 KECCAK256 ADD SLOAD DUP3 PUSH2 0xA3 SWAP2 SWAP1 PUSH2 0x15D JUMP JUMPDEST SWAP2 POP DUP1 DUP1 PUSH1 0x1 ADD SWAP2 POP POP PUSH2 0x64 JUMP JUMPDEST DUP2 SWAP3 POP POP POP SWAP1 JUMP JUMPDEST PUSH0 JUMPDEST PUSH1 0x5 DUP2 GT PUSH2 0xFC JUMPI PUSH0 DUP2 SWAP1 DUP1 PUSH1 0x1 DUP2 SLOAD ADD DUP1 DUP3 SSTORE DUP1 SWAP2 POP POP PUSH1 0x1 SWAP1 SUB SWAP1 PUSH0 MSTORE PUSH1 0x20 PUSH0 KECCAK256 ADD PUSH0 SWAP1 SWAP2 SWAP1 SWAP2 SWAP1 SWAP2 POP SSTORE DUP1 DUP1 PUSH2 0xF4 SWAP1 PUSH2 0x1BD JUMP JUMPDEST SWAP2 POP POP PUSH2 0xBC JUMP JUMPDEST POP JUMP JUMPDEST PUSH0 DUP2 SWAP1 POP SWAP2 SWAP1 POP JUMP JUMPDEST PUSH2 0x111 DUP2 PUSH2 0xFF JUMP JUMPDEST DUP3 MSTORE POP POP JUMP JUMPDEST PUSH0 PUSH1 0x20 DUP3 ADD SWAP1 POP PUSH2 0x12A PUSH0 DUP4 ADD DUP5 PUSH2 0x108 JUMP JUMPDEST SWAP3 SWAP2 POP POP JUMP JUMPDEST PUSH32 0x4E487B7100000000000000000000000000000000000000000000000000000000 PUSH0 MSTORE PUSH1 0x11 PUSH1 0x4 MSTORE PUSH1 0x24 PUSH0 REVERT JUMPDEST PUSH0 PUSH2 0x167 DUP3 PUSH2 0xFF JUMP JUMPDEST SWAP2 POP PUSH2 0x172 DUP4 PUSH2 0xFF JUMP JUMPDEST SWAP3 POP DUP3 DUP3 ADD SWAP1 POP DUP1 DUP3 GT ISZERO PUSH2 0x18A JUMPI PUSH2 0x189 PUSH2 0x130 JUMP JUMPDEST JUMPDEST SWAP3 SWAP2 POP POP JUMP JUMPDEST PUSH32 0x4E487B7100000000000000000000000000000000000000000000000000000000 PUSH0 MSTORE PUSH1 0x32 PUSH1 0x4 MSTORE PUSH1 0x24 PUSH0 REVERT JUMPDEST PUSH0 PUSH2 0x1C7 DUP3 PUSH2 0xFF JUMP JUMPDEST SWAP2 POP PUSH32 0xFFFFFFFFFFFFFFFFFFFFFFFFFFFFFFFFFFFFFFFFFFFFFFFFFFFFFFFFFFFFFFFF DUP3 SUB PUSH2 0x1F9 JUMPI PUSH2 0x1F8 PUSH2 0x130 JUMP JUMPDEST JUMPDEST PUSH1 0x1 DUP3 ADD SWAP1 POP SWAP2 SWAP1 POP JUMP INVALID LOG2 PUSH5 0x6970667358 0x22 SLT KECCAK256 0x28 0xCD DELEGATECALL SLT DUP6 PREVRANDAO CALLCODE 0x23 DUP10 PUSH30 0xB31C05B27D0898D40D4BB477BB4E55E0CDB9BE354FC064736F6C63430008 BYTE STOP CALLER "
		},
		"gasEstimates": {
			"creation": {
				"codeDepositCost": "114000",
				"executionCost": "157",
				"totalCost": "114157"
			},
			"external": {
				"pushA()": "infinite",
				"sumA()": "infinite"
			}
		},
		"methodIdentifiers": {
			"pushA()": "6aea0267",
			"sumA()": "609e7a6f"
		}
	},
	"abi": [
		{
			"inputs": [],
			"name": "pushA",
			"outputs": [],
			"stateMutability": "nonpayable",
			"type": "function"
		},
		{
			"inputs": [],
			"name": "sumA",
			"outputs": [
				{
					"internalType": "uint256",
					"name": "",
					"type": "uint256"
				}
			],
			"stateMutability": "view",
			"type": "function"
		}
	]
}