{
	"Coding test/test9.sol": {
		"TEST9": {
			"abi": [
				{
					"inputs": [
						{
							"internalType": "string",
							"name": "_pw",
							"type": "string"
						}
					],
					"name": "setPW",
					"outputs": [
						{
							"internalType": "string[]",
							"name": "",
							"type": "string[]"
						}
					],
					"stateMutability": "pure",
					"type": "function"
				}
			],
			"devdoc": {
				"kind": "dev",
				"methods": {},
				"version": 1
			},
			"evm": {
				"assembly": "    /* \"Coding test/test9.sol\":76:1179  contract TEST9 {... */\n  mstore(0x40, 0x80)\n  callvalue\n  dup1\n  iszero\n  tag_1\n  jumpi\n  0x00\n  dup1\n  revert\ntag_1:\n  pop\n  dataSize(sub_0)\n  dup1\n  dataOffset(sub_0)\n  0x00\n  codecopy\n  0x00\n  return\nstop\n\nsub_0: assembly {\n        /* \"Coding test/test9.sol\":76:1179  contract TEST9 {... */\n      mstore(0x40, 0x80)\n      callvalue\n      dup1\n      iszero\n      tag_1\n      jumpi\n      0x00\n      dup1\n      revert\n    tag_1:\n      pop\n      jumpi(tag_2, lt(calldatasize, 0x04))\n      shr(0xe0, calldataload(0x00))\n      dup1\n      0xccd73016\n      eq\n      tag_3\n      jumpi\n    tag_2:\n      0x00\n      dup1\n      revert\n        /* \"Coding test/test9.sol\":513:1176  function setPW(string memory _pw) public  pure returns(string[] memory){... */\n    tag_3:\n      tag_4\n      0x04\n      dup1\n      calldatasize\n      sub\n      dup2\n      add\n      swap1\n      tag_5\n      swap2\n      swap1\n      tag_6\n      jump\t// in\n    tag_5:\n      tag_7\n      jump\t// in\n    tag_4:\n      mload(0x40)\n      tag_8\n      swap2\n      swap1\n      tag_9\n      jump\t// in\n    tag_8:\n      mload(0x40)\n      dup1\n      swap2\n      sub\n      swap1\n      return\n    tag_7:\n        /* \"Coding test/test9.sol\":568:583  string[] memory */\n      0x60\n        /* \"Coding test/test9.sol\":595:607  uint _length */\n      0x00\n        /* \"Coding test/test9.sol\":616:619  _pw */\n      dup3\n        /* \"Coding test/test9.sol\":610:627  bytes(_pw).length */\n      mload\n        /* \"Coding test/test9.sol\":595:627  uint _length = bytes(_pw).length */\n      swap1\n      pop\n        /* \"Coding test/test9.sol\":638:657  string[] memory _Pw */\n      0x00\n        /* \"Coding test/test9.sol\":673:680  _length */\n      dup2\n        /* \"Coding test/test9.sol\":660:681  new string[](_length) */\n      0xffffffffffffffff\n      dup2\n      gt\n      iszero\n      tag_11\n      jumpi\n      tag_12\n      tag_13\n      jump\t// in\n    tag_12:\n    tag_11:\n      mload(0x40)\n      swap1\n      dup1\n      dup3\n      mstore\n      dup1\n      0x20\n      mul\n      0x20\n      add\n      dup3\n      add\n      0x40\n      mstore\n      dup1\n      iszero\n      tag_14\n      jumpi\n      dup2\n      0x20\n      add\n    tag_15:\n      0x60\n      dup2\n      mstore\n      0x20\n      add\n      swap1\n      0x01\n      swap1\n      sub\n      swap1\n      dup2\n      tag_15\n      jumpi\n      swap1\n      pop\n    tag_14:\n      pop\n        /* \"Coding test/test9.sol\":638:681  string[] memory _Pw = new string[](_length) */\n      swap1\n      pop\n        /* \"Coding test/test9.sol\":694:712  bytes1[] memory _b */\n      0x00\n        /* \"Coding test/test9.sol\":728:735  _length */\n      dup3\n        /* \"Coding test/test9.sol\":715:736  new bytes1[](_length) */\n      0xffffffffffffffff\n      dup2\n      gt\n      iszero\n      tag_16\n      jumpi\n      tag_17\n      tag_13\n      jump\t// in\n    tag_17:\n    tag_16:\n      mload(0x40)\n      swap1\n      dup1\n      dup3\n      mstore\n      dup1\n      0x20\n      mul\n      0x20\n      add\n      dup3\n      add\n      0x40\n      mstore\n      dup1\n      iszero\n      tag_18\n      jumpi\n      dup2\n      0x20\n      add\n      0x20\n      dup3\n      mul\n      dup1\n      calldatasize\n      dup4\n      calldatacopy\n      dup1\n      dup3\n      add\n      swap2\n      pop\n      pop\n      swap1\n      pop\n    tag_18:\n      pop\n        /* \"Coding test/test9.sol\":694:736  bytes1[] memory _b = new bytes1[](_length) */\n      swap1\n      pop\n        /* \"Coding test/test9.sol\":753:759  uint i */\n      0x00\n        /* \"Coding test/test9.sol\":749:1148  for(uint i = 0; i < _length; i++) {... */\n    tag_19:\n        /* \"Coding test/test9.sol\":769:776  _length */\n      dup4\n        /* \"Coding test/test9.sol\":765:766  i */\n      dup2\n        /* \"Coding test/test9.sol\":765:776  i < _length */\n      lt\n        /* \"Coding test/test9.sol\":749:1148  for(uint i = 0; i < _length; i++) {... */\n      iszero\n      tag_20\n      jumpi\n        /* \"Coding test/test9.sol\":812:815  _pw */\n      dup6\n        /* \"Coding test/test9.sol\":817:818  i */\n      dup2\n        /* \"Coding test/test9.sol\":806:819  bytes(_pw)[i] */\n      dup2\n      mload\n      dup2\n      lt\n      tag_22\n      jumpi\n      tag_23\n      tag_24\n      jump\t// in\n    tag_23:\n    tag_22:\n      0x20\n      add\n      add\n      mload\n      0xf8\n      shr\n      0xf8\n      shl\n        /* \"Coding test/test9.sol\":798:800  _b */\n      dup3\n        /* \"Coding test/test9.sol\":801:802  i */\n      dup3\n        /* \"Coding test/test9.sol\":798:803  _b[i] */\n      dup2\n      mload\n      dup2\n      lt\n      tag_25\n      jumpi\n      tag_26\n      tag_24\n      jump\t// in\n    tag_26:\n    tag_25:\n      0x20\n      mul\n      0x20\n      add\n      add\n        /* \"Coding test/test9.sol\":798:819  _b[i] = bytes(_pw)[i] */\n      swap1\n      not(0xffffffffffffffffffffffffffffffffffffffffffffffffffffffffffffff)\n      and\n      swap1\n      dup2\n      not(0xffffffffffffffffffffffffffffffffffffffffffffffffffffffffffffff)\n      and\n      dup2\n      mstore\n      pop\n      pop\n        /* \"Coding test/test9.sol\":850:861  bytes1(\"A\") */\n      0x4100000000000000000000000000000000000000000000000000000000000000\n        /* \"Coding test/test9.sol\":841:861  _b[i] >= bytes1(\"A\") */\n      not(0xffffffffffffffffffffffffffffffffffffffffffffffffffffffffffffff)\n      and\n        /* \"Coding test/test9.sol\":841:843  _b */\n      dup3\n        /* \"Coding test/test9.sol\":844:845  i */\n      dup3\n        /* \"Coding test/test9.sol\":841:846  _b[i] */\n      dup2\n      mload\n      dup2\n      lt\n      tag_27\n      jumpi\n      tag_28\n      tag_24\n      jump\t// in\n    tag_28:\n    tag_27:\n      0x20\n      mul\n      0x20\n      add\n      add\n      mload\n        /* \"Coding test/test9.sol\":841:861  _b[i] >= bytes1(\"A\") */\n      not(0xffffffffffffffffffffffffffffffffffffffffffffffffffffffffffffff)\n      and\n      lt\n      iszero\n        /* \"Coding test/test9.sol\":841:885  _b[i] >= bytes1(\"A\") || _b[i] <= bytes1(\"Z\") */\n      dup1\n      tag_29\n      jumpi\n      pop\n        /* \"Coding test/test9.sol\":874:885  bytes1(\"Z\") */\n      0x5a00000000000000000000000000000000000000000000000000000000000000\n        /* \"Coding test/test9.sol\":865:885  _b[i] <= bytes1(\"Z\") */\n      not(0xffffffffffffffffffffffffffffffffffffffffffffffffffffffffffffff)\n      and\n        /* \"Coding test/test9.sol\":865:867  _b */\n      dup3\n        /* \"Coding test/test9.sol\":868:869  i */\n      dup3\n        /* \"Coding test/test9.sol\":865:870  _b[i] */\n      dup2\n      mload\n      dup2\n      lt\n      tag_30\n      jumpi\n      tag_31\n      tag_24\n      jump\t// in\n    tag_31:\n    tag_30:\n      0x20\n      mul\n      0x20\n      add\n      add\n      mload\n        /* \"Coding test/test9.sol\":865:885  _b[i] <= bytes1(\"Z\") */\n      not(0xffffffffffffffffffffffffffffffffffffffffffffffffffffffffffffff)\n      and\n      gt\n      iszero\n        /* \"Coding test/test9.sol\":841:885  _b[i] >= bytes1(\"A\") || _b[i] <= bytes1(\"Z\") */\n    tag_29:\n        /* \"Coding test/test9.sol\":833:910  require(_b[i] >= bytes1(\"A\") || _b[i] <= bytes1(\"Z\"), \"Need Capital letters\") */\n      tag_32\n      jumpi\n      mload(0x40)\n      0x08c379a000000000000000000000000000000000000000000000000000000000\n      dup2\n      mstore\n      0x04\n      add\n      tag_33\n      swap1\n      tag_34\n      jump\t// in\n    tag_33:\n      mload(0x40)\n      dup1\n      swap2\n      sub\n      swap1\n      revert\n    tag_32:\n        /* \"Coding test/test9.sol\":941:952  bytes1(\"a\") */\n      0x6100000000000000000000000000000000000000000000000000000000000000\n        /* \"Coding test/test9.sol\":932:952  _b[i] >= bytes1(\"a\") */\n      not(0xffffffffffffffffffffffffffffffffffffffffffffffffffffffffffffff)\n      and\n        /* \"Coding test/test9.sol\":932:934  _b */\n      dup3\n        /* \"Coding test/test9.sol\":935:936  i */\n      dup3\n        /* \"Coding test/test9.sol\":932:937  _b[i] */\n      dup2\n      mload\n      dup2\n      lt\n      tag_35\n      jumpi\n      tag_36\n      tag_24\n      jump\t// in\n    tag_36:\n    tag_35:\n      0x20\n      mul\n      0x20\n      add\n      add\n      mload\n        /* \"Coding test/test9.sol\":932:952  _b[i] >= bytes1(\"a\") */\n      not(0xffffffffffffffffffffffffffffffffffffffffffffffffffffffffffffff)\n      and\n      lt\n      iszero\n        /* \"Coding test/test9.sol\":932:976  _b[i] >= bytes1(\"a\") || _b[i] <= bytes1(\"z\") */\n      dup1\n      tag_37\n      jumpi\n      pop\n        /* \"Coding test/test9.sol\":965:976  bytes1(\"z\") */\n      0x7a00000000000000000000000000000000000000000000000000000000000000\n        /* \"Coding test/test9.sol\":956:976  _b[i] <= bytes1(\"z\") */\n      not(0xffffffffffffffffffffffffffffffffffffffffffffffffffffffffffffff)\n      and\n        /* \"Coding test/test9.sol\":956:958  _b */\n      dup3\n        /* \"Coding test/test9.sol\":959:960  i */\n      dup3\n        /* \"Coding test/test9.sol\":956:961  _b[i] */\n      dup2\n      mload\n      dup2\n      lt\n      tag_38\n      jumpi\n      tag_39\n      tag_24\n      jump\t// in\n    tag_39:\n    tag_38:\n      0x20\n      mul\n      0x20\n      add\n      add\n      mload\n        /* \"Coding test/test9.sol\":956:976  _b[i] <= bytes1(\"z\") */\n      not(0xffffffffffffffffffffffffffffffffffffffffffffffffffffffffffffff)\n      and\n      gt\n      iszero\n        /* \"Coding test/test9.sol\":932:976  _b[i] >= bytes1(\"a\") || _b[i] <= bytes1(\"z\") */\n    tag_37:\n        /* \"Coding test/test9.sol\":924:999  require(_b[i] >= bytes1(\"a\") || _b[i] <= bytes1(\"z\"), \"Need Small letters\") */\n      tag_40\n      jumpi\n      mload(0x40)\n      0x08c379a000000000000000000000000000000000000000000000000000000000\n      dup2\n      mstore\n      0x04\n      add\n      tag_41\n      swap1\n      tag_42\n      jump\t// in\n    tag_41:\n      mload(0x40)\n      dup1\n      swap2\n      sub\n      swap1\n      revert\n    tag_40:\n        /* \"Coding test/test9.sol\":1030:1041  bytes1(\"0\") */\n      0x3000000000000000000000000000000000000000000000000000000000000000\n        /* \"Coding test/test9.sol\":1021:1041  _b[i] >= bytes1(\"0\") */\n      not(0xffffffffffffffffffffffffffffffffffffffffffffffffffffffffffffff)\n      and\n        /* \"Coding test/test9.sol\":1021:1023  _b */\n      dup3\n        /* \"Coding test/test9.sol\":1024:1025  i */\n      dup3\n        /* \"Coding test/test9.sol\":1021:1026  _b[i] */\n      dup2\n      mload\n      dup2\n      lt\n      tag_43\n      jumpi\n      tag_44\n      tag_24\n      jump\t// in\n    tag_44:\n    tag_43:\n      0x20\n      mul\n      0x20\n      add\n      add\n      mload\n        /* \"Coding test/test9.sol\":1021:1041  _b[i] >= bytes1(\"0\") */\n      not(0xffffffffffffffffffffffffffffffffffffffffffffffffffffffffffffff)\n      and\n      lt\n      iszero\n        /* \"Coding test/test9.sol\":1021:1065  _b[i] >= bytes1(\"0\") || _b[i] <= bytes1(\"9\") */\n      dup1\n      tag_45\n      jumpi\n      pop\n        /* \"Coding test/test9.sol\":1054:1065  bytes1(\"9\") */\n      0x3900000000000000000000000000000000000000000000000000000000000000\n        /* \"Coding test/test9.sol\":1045:1065  _b[i] <= bytes1(\"9\") */\n      not(0xffffffffffffffffffffffffffffffffffffffffffffffffffffffffffffff)\n      and\n        /* \"Coding test/test9.sol\":1045:1047  _b */\n      dup3\n        /* \"Coding test/test9.sol\":1048:1049  i */\n      dup3\n        /* \"Coding test/test9.sol\":1045:1050  _b[i] */\n      dup2\n      mload\n      dup2\n      lt\n      tag_46\n      jumpi\n      tag_47\n      tag_24\n      jump\t// in\n    tag_47:\n    tag_46:\n      0x20\n      mul\n      0x20\n      add\n      add\n      mload\n        /* \"Coding test/test9.sol\":1045:1065  _b[i] <= bytes1(\"9\") */\n      not(0xffffffffffffffffffffffffffffffffffffffffffffffffffffffffffffff)\n      and\n      gt\n      iszero\n        /* \"Coding test/test9.sol\":1021:1065  _b[i] >= bytes1(\"0\") || _b[i] <= bytes1(\"9\") */\n    tag_45:\n        /* \"Coding test/test9.sol\":1013:1081  require(_b[i] >= bytes1(\"0\") || _b[i] <= bytes1(\"9\"), \"Need Number\") */\n      tag_48\n      jumpi\n      mload(0x40)\n      0x08c379a000000000000000000000000000000000000000000000000000000000\n      dup2\n      mstore\n      0x04\n      add\n      tag_49\n      swap1\n      tag_50\n      jump\t// in\n    tag_49:\n      mload(0x40)\n      dup1\n      swap2\n      sub\n      swap1\n      revert\n    tag_48:\n        /* \"Coding test/test9.sol\":1129:1131  _b */\n      dup2\n        /* \"Coding test/test9.sol\":1132:1133  i */\n      dup2\n        /* \"Coding test/test9.sol\":1129:1134  _b[i] */\n      dup2\n      mload\n      dup2\n      lt\n      tag_51\n      jumpi\n      tag_52\n      tag_24\n      jump\t// in\n    tag_52:\n    tag_51:\n      0x20\n      mul\n      0x20\n      add\n      add\n      mload\n        /* \"Coding test/test9.sol\":1112:1135  abi.encodePacked(_b[i]) */\n      add(0x20, mload(0x40))\n      tag_53\n      swap2\n      swap1\n      tag_54\n      jump\t// in\n    tag_53:\n      mload(0x40)\n      0x20\n      dup2\n      dup4\n      sub\n      sub\n      dup2\n      mstore\n      swap1\n      0x40\n      mstore\n        /* \"Coding test/test9.sol\":1096:1099  _Pw */\n      dup4\n        /* \"Coding test/test9.sol\":1100:1101  i */\n      dup3\n        /* \"Coding test/test9.sol\":1096:1102  _Pw[i] */\n      dup2\n      mload\n      dup2\n      lt\n      tag_55\n      jumpi\n      tag_56\n      tag_24\n      jump\t// in\n    tag_56:\n    tag_55:\n      0x20\n      mul\n      0x20\n      add\n      add\n        /* \"Coding test/test9.sol\":1096:1136  _Pw[i] = string(abi.encodePacked(_b[i])) */\n      dup2\n      swap1\n      mstore\n      pop\n        /* \"Coding test/test9.sol\":778:781  i++ */\n      dup1\n      dup1\n      0x01\n      add\n      swap2\n      pop\n      pop\n        /* \"Coding test/test9.sol\":749:1148  for(uint i = 0; i < _length; i++) {... */\n      jump(tag_19)\n    tag_20:\n      pop\n        /* \"Coding test/test9.sol\":1165:1168  _Pw */\n      dup2\n        /* \"Coding test/test9.sol\":1158:1168  return _Pw */\n      swap4\n      pop\n      pop\n      pop\n      pop\n        /* \"Coding test/test9.sol\":513:1176  function setPW(string memory _pw) public  pure returns(string[] memory){... */\n      swap2\n      swap1\n      pop\n      jump\t// out\n        /* \"#utility.yul\":7:82   */\n    tag_57:\n        /* \"#utility.yul\":40:46   */\n      0x00\n        /* \"#utility.yul\":73:75   */\n      0x40\n        /* \"#utility.yul\":67:76   */\n      mload\n        /* \"#utility.yul\":57:76   */\n      swap1\n      pop\n        /* \"#utility.yul\":7:82   */\n      swap1\n      jump\t// out\n        /* \"#utility.yul\":88:205   */\n    tag_58:\n        /* \"#utility.yul\":197:198   */\n      0x00\n        /* \"#utility.yul\":194:195   */\n      dup1\n        /* \"#utility.yul\":187:199   */\n      revert\n        /* \"#utility.yul\":211:328   */\n    tag_59:\n        /* \"#utility.yul\":320:321   */\n      0x00\n        /* \"#utility.yul\":317:318   */\n      dup1\n        /* \"#utility.yul\":310:322   */\n      revert\n        /* \"#utility.yul\":334:451   */\n    tag_60:\n        /* \"#utility.yul\":443:444   */\n      0x00\n        /* \"#utility.yul\":440:441   */\n      dup1\n        /* \"#utility.yul\":433:445   */\n      revert\n        /* \"#utility.yul\":457:574   */\n    tag_61:\n        /* \"#utility.yul\":566:567   */\n      0x00\n        /* \"#utility.yul\":563:564   */\n      dup1\n        /* \"#utility.yul\":556:568   */\n      revert\n        /* \"#utility.yul\":580:682   */\n    tag_62:\n        /* \"#utility.yul\":621:627   */\n      0x00\n        /* \"#utility.yul\":672:674   */\n      0x1f\n        /* \"#utility.yul\":668:675   */\n      not\n        /* \"#utility.yul\":663:665   */\n      0x1f\n        /* \"#utility.yul\":656:661   */\n      dup4\n        /* \"#utility.yul\":652:666   */\n      add\n        /* \"#utility.yul\":648:676   */\n      and\n        /* \"#utility.yul\":638:676   */\n      swap1\n      pop\n        /* \"#utility.yul\":580:682   */\n      swap2\n      swap1\n      pop\n      jump\t// out\n        /* \"#utility.yul\":688:868   */\n    tag_13:\n        /* \"#utility.yul\":736:813   */\n      0x4e487b7100000000000000000000000000000000000000000000000000000000\n        /* \"#utility.yul\":733:734   */\n      0x00\n        /* \"#utility.yul\":726:814   */\n      mstore\n        /* \"#utility.yul\":833:837   */\n      0x41\n        /* \"#utility.yul\":830:831   */\n      0x04\n        /* \"#utility.yul\":823:838   */\n      mstore\n        /* \"#utility.yul\":857:861   */\n      0x24\n        /* \"#utility.yul\":854:855   */\n      0x00\n        /* \"#utility.yul\":847:862   */\n      revert\n        /* \"#utility.yul\":874:1155   */\n    tag_63:\n        /* \"#utility.yul\":957:984   */\n      tag_98\n        /* \"#utility.yul\":979:983   */\n      dup3\n        /* \"#utility.yul\":957:984   */\n      tag_62\n      jump\t// in\n    tag_98:\n        /* \"#utility.yul\":949:955   */\n      dup2\n        /* \"#utility.yul\":945:985   */\n      add\n        /* \"#utility.yul\":1087:1093   */\n      dup2\n        /* \"#utility.yul\":1075:1085   */\n      dup2\n        /* \"#utility.yul\":1072:1094   */\n      lt\n        /* \"#utility.yul\":1051:1069   */\n      0xffffffffffffffff\n        /* \"#utility.yul\":1039:1049   */\n      dup3\n        /* \"#utility.yul\":1036:1070   */\n      gt\n        /* \"#utility.yul\":1033:1095   */\n      or\n        /* \"#utility.yul\":1030:1118   */\n      iszero\n      tag_99\n      jumpi\n        /* \"#utility.yul\":1098:1116   */\n      tag_100\n      tag_13\n      jump\t// in\n    tag_100:\n        /* \"#utility.yul\":1030:1118   */\n    tag_99:\n        /* \"#utility.yul\":1138:1148   */\n      dup1\n        /* \"#utility.yul\":1134:1136   */\n      0x40\n        /* \"#utility.yul\":1127:1149   */\n      mstore\n        /* \"#utility.yul\":917:1155   */\n      pop\n        /* \"#utility.yul\":874:1155   */\n      pop\n      pop\n      jump\t// out\n        /* \"#utility.yul\":1161:1290   */\n    tag_64:\n        /* \"#utility.yul\":1195:1201   */\n      0x00\n        /* \"#utility.yul\":1222:1242   */\n      tag_102\n      tag_57\n      jump\t// in\n    tag_102:\n        /* \"#utility.yul\":1212:1242   */\n      swap1\n      pop\n        /* \"#utility.yul\":1251:1284   */\n      tag_103\n        /* \"#utility.yul\":1279:1283   */\n      dup3\n        /* \"#utility.yul\":1271:1277   */\n      dup3\n        /* \"#utility.yul\":1251:1284   */\n      tag_63\n      jump\t// in\n    tag_103:\n        /* \"#utility.yul\":1161:1290   */\n      swap2\n      swap1\n      pop\n      jump\t// out\n        /* \"#utility.yul\":1296:1604   */\n    tag_65:\n        /* \"#utility.yul\":1358:1362   */\n      0x00\n        /* \"#utility.yul\":1448:1466   */\n      0xffffffffffffffff\n        /* \"#utility.yul\":1440:1446   */\n      dup3\n        /* \"#utility.yul\":1437:1467   */\n      gt\n        /* \"#utility.yul\":1434:1490   */\n      iszero\n      tag_105\n      jumpi\n        /* \"#utility.yul\":1470:1488   */\n      tag_106\n      tag_13\n      jump\t// in\n    tag_106:\n        /* \"#utility.yul\":1434:1490   */\n    tag_105:\n        /* \"#utility.yul\":1508:1537   */\n      tag_107\n        /* \"#utility.yul\":1530:1536   */\n      dup3\n        /* \"#utility.yul\":1508:1537   */\n      tag_62\n      jump\t// in\n    tag_107:\n        /* \"#utility.yul\":1500:1537   */\n      swap1\n      pop\n        /* \"#utility.yul\":1592:1596   */\n      0x20\n        /* \"#utility.yul\":1586:1590   */\n      dup2\n        /* \"#utility.yul\":1582:1597   */\n      add\n        /* \"#utility.yul\":1574:1597   */\n      swap1\n      pop\n        /* \"#utility.yul\":1296:1604   */\n      swap2\n      swap1\n      pop\n      jump\t// out\n        /* \"#utility.yul\":1610:1758   */\n    tag_66:\n        /* \"#utility.yul\":1708:1714   */\n      dup3\n        /* \"#utility.yul\":1703:1706   */\n      dup2\n        /* \"#utility.yul\":1698:1701   */\n      dup4\n        /* \"#utility.yul\":1685:1715   */\n      calldatacopy\n        /* \"#utility.yul\":1749:1750   */\n      0x00\n        /* \"#utility.yul\":1740:1746   */\n      dup4\n        /* \"#utility.yul\":1735:1738   */\n      dup4\n        /* \"#utility.yul\":1731:1747   */\n      add\n        /* \"#utility.yul\":1724:1751   */\n      mstore\n        /* \"#utility.yul\":1610:1758   */\n      pop\n      pop\n      pop\n      jump\t// out\n        /* \"#utility.yul\":1764:2189   */\n    tag_67:\n        /* \"#utility.yul\":1842:1847   */\n      0x00\n        /* \"#utility.yul\":1867:1933   */\n      tag_110\n        /* \"#utility.yul\":1883:1932   */\n      tag_111\n        /* \"#utility.yul\":1925:1931   */\n      dup5\n        /* \"#utility.yul\":1883:1932   */\n      tag_65\n      jump\t// in\n    tag_111:\n        /* \"#utility.yul\":1867:1933   */\n      tag_64\n      jump\t// in\n    tag_110:\n        /* \"#utility.yul\":1858:1933   */\n      swap1\n      pop\n        /* \"#utility.yul\":1956:1962   */\n      dup3\n        /* \"#utility.yul\":1949:1954   */\n      dup2\n        /* \"#utility.yul\":1942:1963   */\n      mstore\n        /* \"#utility.yul\":1994:1998   */\n      0x20\n        /* \"#utility.yul\":1987:1992   */\n      dup2\n        /* \"#utility.yul\":1983:1999   */\n      add\n        /* \"#utility.yul\":2032:2035   */\n      dup5\n        /* \"#utility.yul\":2023:2029   */\n      dup5\n        /* \"#utility.yul\":2018:2021   */\n      dup5\n        /* \"#utility.yul\":2014:2030   */\n      add\n        /* \"#utility.yul\":2011:2036   */\n      gt\n        /* \"#utility.yul\":2008:2120   */\n      iszero\n      tag_112\n      jumpi\n        /* \"#utility.yul\":2039:2118   */\n      tag_113\n      tag_61\n      jump\t// in\n    tag_113:\n        /* \"#utility.yul\":2008:2120   */\n    tag_112:\n        /* \"#utility.yul\":2129:2183   */\n      tag_114\n        /* \"#utility.yul\":2176:2182   */\n      dup5\n        /* \"#utility.yul\":2171:2174   */\n      dup3\n        /* \"#utility.yul\":2166:2169   */\n      dup6\n        /* \"#utility.yul\":2129:2183   */\n      tag_66\n      jump\t// in\n    tag_114:\n        /* \"#utility.yul\":1848:2189   */\n      pop\n        /* \"#utility.yul\":1764:2189   */\n      swap4\n      swap3\n      pop\n      pop\n      pop\n      jump\t// out\n        /* \"#utility.yul\":2209:2549   */\n    tag_68:\n        /* \"#utility.yul\":2265:2270   */\n      0x00\n        /* \"#utility.yul\":2314:2317   */\n      dup3\n        /* \"#utility.yul\":2307:2311   */\n      0x1f\n        /* \"#utility.yul\":2299:2305   */\n      dup4\n        /* \"#utility.yul\":2295:2312   */\n      add\n        /* \"#utility.yul\":2291:2318   */\n      slt\n        /* \"#utility.yul\":2281:2403   */\n      tag_116\n      jumpi\n        /* \"#utility.yul\":2322:2401   */\n      tag_117\n      tag_60\n      jump\t// in\n    tag_117:\n        /* \"#utility.yul\":2281:2403   */\n    tag_116:\n        /* \"#utility.yul\":2439:2445   */\n      dup2\n        /* \"#utility.yul\":2426:2446   */\n      calldataload\n        /* \"#utility.yul\":2464:2543   */\n      tag_118\n        /* \"#utility.yul\":2539:2542   */\n      dup5\n        /* \"#utility.yul\":2531:2537   */\n      dup3\n        /* \"#utility.yul\":2524:2528   */\n      0x20\n        /* \"#utility.yul\":2516:2522   */\n      dup7\n        /* \"#utility.yul\":2512:2529   */\n      add\n        /* \"#utility.yul\":2464:2543   */\n      tag_67\n      jump\t// in\n    tag_118:\n        /* \"#utility.yul\":2455:2543   */\n      swap2\n      pop\n        /* \"#utility.yul\":2271:2549   */\n      pop\n        /* \"#utility.yul\":2209:2549   */\n      swap3\n      swap2\n      pop\n      pop\n      jump\t// out\n        /* \"#utility.yul\":2555:3064   */\n    tag_6:\n        /* \"#utility.yul\":2624:2630   */\n      0x00\n        /* \"#utility.yul\":2673:2675   */\n      0x20\n        /* \"#utility.yul\":2661:2670   */\n      dup3\n        /* \"#utility.yul\":2652:2659   */\n      dup5\n        /* \"#utility.yul\":2648:2671   */\n      sub\n        /* \"#utility.yul\":2644:2676   */\n      slt\n        /* \"#utility.yul\":2641:2760   */\n      iszero\n      tag_120\n      jumpi\n        /* \"#utility.yul\":2679:2758   */\n      tag_121\n      tag_58\n      jump\t// in\n    tag_121:\n        /* \"#utility.yul\":2641:2760   */\n    tag_120:\n        /* \"#utility.yul\":2827:2828   */\n      0x00\n        /* \"#utility.yul\":2816:2825   */\n      dup3\n        /* \"#utility.yul\":2812:2829   */\n      add\n        /* \"#utility.yul\":2799:2830   */\n      calldataload\n        /* \"#utility.yul\":2857:2875   */\n      0xffffffffffffffff\n        /* \"#utility.yul\":2849:2855   */\n      dup2\n        /* \"#utility.yul\":2846:2876   */\n      gt\n        /* \"#utility.yul\":2843:2960   */\n      iszero\n      tag_122\n      jumpi\n        /* \"#utility.yul\":2879:2958   */\n      tag_123\n      tag_59\n      jump\t// in\n    tag_123:\n        /* \"#utility.yul\":2843:2960   */\n    tag_122:\n        /* \"#utility.yul\":2984:3047   */\n      tag_124\n        /* \"#utility.yul\":3039:3046   */\n      dup5\n        /* \"#utility.yul\":3030:3036   */\n      dup3\n        /* \"#utility.yul\":3019:3028   */\n      dup6\n        /* \"#utility.yul\":3015:3037   */\n      add\n        /* \"#utility.yul\":2984:3047   */\n      tag_68\n      jump\t// in\n    tag_124:\n        /* \"#utility.yul\":2974:3047   */\n      swap2\n      pop\n        /* \"#utility.yul\":2770:3057   */\n      pop\n        /* \"#utility.yul\":2555:3064   */\n      swap3\n      swap2\n      pop\n      pop\n      jump\t// out\n        /* \"#utility.yul\":3070:3194   */\n    tag_69:\n        /* \"#utility.yul\":3147:3153   */\n      0x00\n        /* \"#utility.yul\":3181:3186   */\n      dup2\n        /* \"#utility.yul\":3175:3187   */\n      mload\n        /* \"#utility.yul\":3165:3187   */\n      swap1\n      pop\n        /* \"#utility.yul\":3070:3194   */\n      swap2\n      swap1\n      pop\n      jump\t// out\n        /* \"#utility.yul\":3200:3394   */\n    tag_70:\n        /* \"#utility.yul\":3309:3320   */\n      0x00\n        /* \"#utility.yul\":3343:3349   */\n      dup3\n        /* \"#utility.yul\":3338:3341   */\n      dup3\n        /* \"#utility.yul\":3331:3350   */\n      mstore\n        /* \"#utility.yul\":3383:3387   */\n      0x20\n        /* \"#utility.yul\":3378:3381   */\n      dup3\n        /* \"#utility.yul\":3374:3388   */\n      add\n        /* \"#utility.yul\":3359:3388   */\n      swap1\n      pop\n        /* \"#utility.yul\":3200:3394   */\n      swap3\n      swap2\n      pop\n      pop\n      jump\t// out\n        /* \"#utility.yul\":3400:3542   */\n    tag_71:\n        /* \"#utility.yul\":3477:3481   */\n      0x00\n        /* \"#utility.yul\":3500:3503   */\n      dup2\n        /* \"#utility.yul\":3492:3503   */\n      swap1\n      pop\n        /* \"#utility.yul\":3530:3534   */\n      0x20\n        /* \"#utility.yul\":3525:3528   */\n      dup3\n        /* \"#utility.yul\":3521:3535   */\n      add\n        /* \"#utility.yul\":3513:3535   */\n      swap1\n      pop\n        /* \"#utility.yul\":3400:3542   */\n      swap2\n      swap1\n      pop\n      jump\t// out\n        /* \"#utility.yul\":3548:3647   */\n    tag_72:\n        /* \"#utility.yul\":3600:3606   */\n      0x00\n        /* \"#utility.yul\":3634:3639   */\n      dup2\n        /* \"#utility.yul\":3628:3640   */\n      mload\n        /* \"#utility.yul\":3618:3640   */\n      swap1\n      pop\n        /* \"#utility.yul\":3548:3647   */\n      swap2\n      swap1\n      pop\n      jump\t// out\n        /* \"#utility.yul\":3653:3812   */\n    tag_73:\n        /* \"#utility.yul\":3727:3738   */\n      0x00\n        /* \"#utility.yul\":3761:3767   */\n      dup3\n        /* \"#utility.yul\":3756:3759   */\n      dup3\n        /* \"#utility.yul\":3749:3768   */\n      mstore\n        /* \"#utility.yul\":3801:3805   */\n      0x20\n        /* \"#utility.yul\":3796:3799   */\n      dup3\n        /* \"#utility.yul\":3792:3806   */\n      add\n        /* \"#utility.yul\":3777:3806   */\n      swap1\n      pop\n        /* \"#utility.yul\":3653:3812   */\n      swap3\n      swap2\n      pop\n      pop\n      jump\t// out\n        /* \"#utility.yul\":3818:3957   */\n    tag_74:\n        /* \"#utility.yul\":3907:3913   */\n      dup3\n        /* \"#utility.yul\":3902:3905   */\n      dup2\n        /* \"#utility.yul\":3897:3900   */\n      dup4\n        /* \"#utility.yul\":3891:3914   */\n      mcopy\n        /* \"#utility.yul\":3948:3949   */\n      0x00\n        /* \"#utility.yul\":3939:3945   */\n      dup4\n        /* \"#utility.yul\":3934:3937   */\n      dup4\n        /* \"#utility.yul\":3930:3946   */\n      add\n        /* \"#utility.yul\":3923:3950   */\n      mstore\n        /* \"#utility.yul\":3818:3957   */\n      pop\n      pop\n      pop\n      jump\t// out\n        /* \"#utility.yul\":3963:4320   */\n    tag_75:\n        /* \"#utility.yul\":4041:4044   */\n      0x00\n        /* \"#utility.yul\":4069:4108   */\n      tag_132\n        /* \"#utility.yul\":4102:4107   */\n      dup3\n        /* \"#utility.yul\":4069:4108   */\n      tag_72\n      jump\t// in\n    tag_132:\n        /* \"#utility.yul\":4124:4185   */\n      tag_133\n        /* \"#utility.yul\":4178:4184   */\n      dup2\n        /* \"#utility.yul\":4173:4176   */\n      dup6\n        /* \"#utility.yul\":4124:4185   */\n      tag_73\n      jump\t// in\n    tag_133:\n        /* \"#utility.yul\":4117:4185   */\n      swap4\n      pop\n        /* \"#utility.yul\":4194:4259   */\n      tag_134\n        /* \"#utility.yul\":4252:4258   */\n      dup2\n        /* \"#utility.yul\":4247:4250   */\n      dup6\n        /* \"#utility.yul\":4240:4244   */\n      0x20\n        /* \"#utility.yul\":4233:4238   */\n      dup7\n        /* \"#utility.yul\":4229:4245   */\n      add\n        /* \"#utility.yul\":4194:4259   */\n      tag_74\n      jump\t// in\n    tag_134:\n        /* \"#utility.yul\":4284:4313   */\n      tag_135\n        /* \"#utility.yul\":4306:4312   */\n      dup2\n        /* \"#utility.yul\":4284:4313   */\n      tag_62\n      jump\t// in\n    tag_135:\n        /* \"#utility.yul\":4279:4282   */\n      dup5\n        /* \"#utility.yul\":4275:4314   */\n      add\n        /* \"#utility.yul\":4268:4314   */\n      swap2\n      pop\n        /* \"#utility.yul\":4045:4320   */\n      pop\n        /* \"#utility.yul\":3963:4320   */\n      swap3\n      swap2\n      pop\n      pop\n      jump\t// out\n        /* \"#utility.yul\":4326:4522   */\n    tag_76:\n        /* \"#utility.yul\":4415:4425   */\n      0x00\n        /* \"#utility.yul\":4450:4516   */\n      tag_137\n        /* \"#utility.yul\":4512:4515   */\n      dup4\n        /* \"#utility.yul\":4504:4510   */\n      dup4\n        /* \"#utility.yul\":4450:4516   */\n      tag_75\n      jump\t// in\n    tag_137:\n        /* \"#utility.yul\":4436:4516   */\n      swap1\n      pop\n        /* \"#utility.yul\":4326:4522   */\n      swap3\n      swap2\n      pop\n      pop\n      jump\t// out\n        /* \"#utility.yul\":4528:4651   */\n    tag_77:\n        /* \"#utility.yul\":4608:4612   */\n      0x00\n        /* \"#utility.yul\":4640:4644   */\n      0x20\n        /* \"#utility.yul\":4635:4638   */\n      dup3\n        /* \"#utility.yul\":4631:4645   */\n      add\n        /* \"#utility.yul\":4623:4645   */\n      swap1\n      pop\n        /* \"#utility.yul\":4528:4651   */\n      swap2\n      swap1\n      pop\n      jump\t// out\n        /* \"#utility.yul\":4685:5676   */\n    tag_78:\n        /* \"#utility.yul\":4824:4827   */\n      0x00\n        /* \"#utility.yul\":4853:4917   */\n      tag_140\n        /* \"#utility.yul\":4911:4916   */\n      dup3\n        /* \"#utility.yul\":4853:4917   */\n      tag_69\n      jump\t// in\n    tag_140:\n        /* \"#utility.yul\":4933:5029   */\n      tag_141\n        /* \"#utility.yul\":5022:5028   */\n      dup2\n        /* \"#utility.yul\":5017:5020   */\n      dup6\n        /* \"#utility.yul\":4933:5029   */\n      tag_70\n      jump\t// in\n    tag_141:\n        /* \"#utility.yul\":4926:5029   */\n      swap4\n      pop\n        /* \"#utility.yul\":5055:5058   */\n      dup4\n        /* \"#utility.yul\":5100:5104   */\n      0x20\n        /* \"#utility.yul\":5092:5098   */\n      dup3\n        /* \"#utility.yul\":5088:5105   */\n      mul\n        /* \"#utility.yul\":5083:5086   */\n      dup6\n        /* \"#utility.yul\":5079:5106   */\n      add\n        /* \"#utility.yul\":5130:5196   */\n      tag_142\n        /* \"#utility.yul\":5190:5195   */\n      dup6\n        /* \"#utility.yul\":5130:5196   */\n      tag_71\n      jump\t// in\n    tag_142:\n        /* \"#utility.yul\":5219:5226   */\n      dup1\n        /* \"#utility.yul\":5250:5251   */\n      0x00\n        /* \"#utility.yul\":5235:5631   */\n    tag_143:\n        /* \"#utility.yul\":5260:5266   */\n      dup6\n        /* \"#utility.yul\":5257:5258   */\n      dup2\n        /* \"#utility.yul\":5254:5267   */\n      lt\n        /* \"#utility.yul\":5235:5631   */\n      iszero\n      tag_145\n      jumpi\n        /* \"#utility.yul\":5331:5340   */\n      dup5\n        /* \"#utility.yul\":5325:5329   */\n      dup5\n        /* \"#utility.yul\":5321:5341   */\n      sub\n        /* \"#utility.yul\":5316:5319   */\n      dup10\n        /* \"#utility.yul\":5309:5342   */\n      mstore\n        /* \"#utility.yul\":5382:5388   */\n      dup2\n        /* \"#utility.yul\":5376:5389   */\n      mload\n        /* \"#utility.yul\":5410:5494   */\n      tag_146\n        /* \"#utility.yul\":5489:5493   */\n      dup6\n        /* \"#utility.yul\":5474:5487   */\n      dup3\n        /* \"#utility.yul\":5410:5494   */\n      tag_76\n      jump\t// in\n    tag_146:\n        /* \"#utility.yul\":5402:5494   */\n      swap5\n      pop\n        /* \"#utility.yul\":5517:5587   */\n      tag_147\n        /* \"#utility.yul\":5580:5586   */\n      dup4\n        /* \"#utility.yul\":5517:5587   */\n      tag_77\n      jump\t// in\n    tag_147:\n        /* \"#utility.yul\":5507:5587   */\n      swap3\n      pop\n        /* \"#utility.yul\":5616:5620   */\n      0x20\n        /* \"#utility.yul\":5611:5614   */\n      dup11\n        /* \"#utility.yul\":5607:5621   */\n      add\n        /* \"#utility.yul\":5600:5621   */\n      swap10\n      pop\n        /* \"#utility.yul\":5295:5631   */\n      pop\n        /* \"#utility.yul\":5282:5283   */\n      0x01\n        /* \"#utility.yul\":5279:5280   */\n      dup2\n        /* \"#utility.yul\":5275:5284   */\n      add\n        /* \"#utility.yul\":5270:5284   */\n      swap1\n      pop\n        /* \"#utility.yul\":5235:5631   */\n      jump(tag_143)\n    tag_145:\n        /* \"#utility.yul\":5239:5253   */\n      pop\n        /* \"#utility.yul\":5647:5651   */\n      dup3\n        /* \"#utility.yul\":5640:5651   */\n      swap8\n      pop\n        /* \"#utility.yul\":5667:5670   */\n      dup8\n        /* \"#utility.yul\":5660:5670   */\n      swap6\n      pop\n        /* \"#utility.yul\":4829:5676   */\n      pop\n      pop\n      pop\n      pop\n      pop\n        /* \"#utility.yul\":4685:5676   */\n      swap3\n      swap2\n      pop\n      pop\n      jump\t// out\n        /* \"#utility.yul\":5682:6095   */\n    tag_9:\n        /* \"#utility.yul\":5845:5849   */\n      0x00\n        /* \"#utility.yul\":5883:5885   */\n      0x20\n        /* \"#utility.yul\":5872:5881   */\n      dup3\n        /* \"#utility.yul\":5868:5886   */\n      add\n        /* \"#utility.yul\":5860:5886   */\n      swap1\n      pop\n        /* \"#utility.yul\":5932:5941   */\n      dup2\n        /* \"#utility.yul\":5926:5930   */\n      dup2\n        /* \"#utility.yul\":5922:5942   */\n      sub\n        /* \"#utility.yul\":5918:5919   */\n      0x00\n        /* \"#utility.yul\":5907:5916   */\n      dup4\n        /* \"#utility.yul\":5903:5920   */\n      add\n        /* \"#utility.yul\":5896:5943   */\n      mstore\n        /* \"#utility.yul\":5960:6088   */\n      tag_149\n        /* \"#utility.yul\":6083:6087   */\n      dup2\n        /* \"#utility.yul\":6074:6080   */\n      dup5\n        /* \"#utility.yul\":5960:6088   */\n      tag_78\n      jump\t// in\n    tag_149:\n        /* \"#utility.yul\":5952:6088   */\n      swap1\n      pop\n        /* \"#utility.yul\":5682:6095   */\n      swap3\n      swap2\n      pop\n      pop\n      jump\t// out\n        /* \"#utility.yul\":6101:6281   */\n    tag_24:\n        /* \"#utility.yul\":6149:6226   */\n      0x4e487b7100000000000000000000000000000000000000000000000000000000\n        /* \"#utility.yul\":6146:6147   */\n      0x00\n        /* \"#utility.yul\":6139:6227   */\n      mstore\n        /* \"#utility.yul\":6246:6250   */\n      0x32\n        /* \"#utility.yul\":6243:6244   */\n      0x04\n        /* \"#utility.yul\":6236:6251   */\n      mstore\n        /* \"#utility.yul\":6270:6274   */\n      0x24\n        /* \"#utility.yul\":6267:6268   */\n      0x00\n        /* \"#utility.yul\":6260:6275   */\n      revert\n        /* \"#utility.yul\":6287:6456   */\n    tag_79:\n        /* \"#utility.yul\":6371:6382   */\n      0x00\n        /* \"#utility.yul\":6405:6411   */\n      dup3\n        /* \"#utility.yul\":6400:6403   */\n      dup3\n        /* \"#utility.yul\":6393:6412   */\n      mstore\n        /* \"#utility.yul\":6445:6449   */\n      0x20\n        /* \"#utility.yul\":6440:6443   */\n      dup3\n        /* \"#utility.yul\":6436:6450   */\n      add\n        /* \"#utility.yul\":6421:6450   */\n      swap1\n      pop\n        /* \"#utility.yul\":6287:6456   */\n      swap3\n      swap2\n      pop\n      pop\n      jump\t// out\n        /* \"#utility.yul\":6462:6632   */\n    tag_80:\n        /* \"#utility.yul\":6602:6624   */\n      0x4e656564204361706974616c206c657474657273000000000000000000000000\n        /* \"#utility.yul\":6598:6599   */\n      0x00\n        /* \"#utility.yul\":6590:6596   */\n      dup3\n        /* \"#utility.yul\":6586:6600   */\n      add\n        /* \"#utility.yul\":6579:6625   */\n      mstore\n        /* \"#utility.yul\":6462:6632   */\n      pop\n      jump\t// out\n        /* \"#utility.yul\":6638:7004   */\n    tag_81:\n        /* \"#utility.yul\":6780:6783   */\n      0x00\n        /* \"#utility.yul\":6801:6868   */\n      tag_154\n        /* \"#utility.yul\":6865:6867   */\n      0x14\n        /* \"#utility.yul\":6860:6863   */\n      dup4\n        /* \"#utility.yul\":6801:6868   */\n      tag_79\n      jump\t// in\n    tag_154:\n        /* \"#utility.yul\":6794:6868   */\n      swap2\n      pop\n        /* \"#utility.yul\":6877:6970   */\n      tag_155\n        /* \"#utility.yul\":6966:6969   */\n      dup3\n        /* \"#utility.yul\":6877:6970   */\n      tag_80\n      jump\t// in\n    tag_155:\n        /* \"#utility.yul\":6995:6997   */\n      0x20\n        /* \"#utility.yul\":6990:6993   */\n      dup3\n        /* \"#utility.yul\":6986:6998   */\n      add\n        /* \"#utility.yul\":6979:6998   */\n      swap1\n      pop\n        /* \"#utility.yul\":6638:7004   */\n      swap2\n      swap1\n      pop\n      jump\t// out\n        /* \"#utility.yul\":7010:7429   */\n    tag_34:\n        /* \"#utility.yul\":7176:7180   */\n      0x00\n        /* \"#utility.yul\":7214:7216   */\n      0x20\n        /* \"#utility.yul\":7203:7212   */\n      dup3\n        /* \"#utility.yul\":7199:7217   */\n      add\n        /* \"#utility.yul\":7191:7217   */\n      swap1\n      pop\n        /* \"#utility.yul\":7263:7272   */\n      dup2\n        /* \"#utility.yul\":7257:7261   */\n      dup2\n        /* \"#utility.yul\":7253:7273   */\n      sub\n        /* \"#utility.yul\":7249:7250   */\n      0x00\n        /* \"#utility.yul\":7238:7247   */\n      dup4\n        /* \"#utility.yul\":7234:7251   */\n      add\n        /* \"#utility.yul\":7227:7274   */\n      mstore\n        /* \"#utility.yul\":7291:7422   */\n      tag_157\n        /* \"#utility.yul\":7417:7421   */\n      dup2\n        /* \"#utility.yul\":7291:7422   */\n      tag_81\n      jump\t// in\n    tag_157:\n        /* \"#utility.yul\":7283:7422   */\n      swap1\n      pop\n        /* \"#utility.yul\":7010:7429   */\n      swap2\n      swap1\n      pop\n      jump\t// out\n        /* \"#utility.yul\":7435:7603   */\n    tag_82:\n        /* \"#utility.yul\":7575:7595   */\n      0x4e65656420536d616c6c206c6574746572730000000000000000000000000000\n        /* \"#utility.yul\":7571:7572   */\n      0x00\n        /* \"#utility.yul\":7563:7569   */\n      dup3\n        /* \"#utility.yul\":7559:7573   */\n      add\n        /* \"#utility.yul\":7552:7596   */\n      mstore\n        /* \"#utility.yul\":7435:7603   */\n      pop\n      jump\t// out\n        /* \"#utility.yul\":7609:7975   */\n    tag_83:\n        /* \"#utility.yul\":7751:7754   */\n      0x00\n        /* \"#utility.yul\":7772:7839   */\n      tag_160\n        /* \"#utility.yul\":7836:7838   */\n      0x12\n        /* \"#utility.yul\":7831:7834   */\n      dup4\n        /* \"#utility.yul\":7772:7839   */\n      tag_79\n      jump\t// in\n    tag_160:\n        /* \"#utility.yul\":7765:7839   */\n      swap2\n      pop\n        /* \"#utility.yul\":7848:7941   */\n      tag_161\n        /* \"#utility.yul\":7937:7940   */\n      dup3\n        /* \"#utility.yul\":7848:7941   */\n      tag_82\n      jump\t// in\n    tag_161:\n        /* \"#utility.yul\":7966:7968   */\n      0x20\n        /* \"#utility.yul\":7961:7964   */\n      dup3\n        /* \"#utility.yul\":7957:7969   */\n      add\n        /* \"#utility.yul\":7950:7969   */\n      swap1\n      pop\n        /* \"#utility.yul\":7609:7975   */\n      swap2\n      swap1\n      pop\n      jump\t// out\n        /* \"#utility.yul\":7981:8400   */\n    tag_42:\n        /* \"#utility.yul\":8147:8151   */\n      0x00\n        /* \"#utility.yul\":8185:8187   */\n      0x20\n        /* \"#utility.yul\":8174:8183   */\n      dup3\n        /* \"#utility.yul\":8170:8188   */\n      add\n        /* \"#utility.yul\":8162:8188   */\n      swap1\n      pop\n        /* \"#utility.yul\":8234:8243   */\n      dup2\n        /* \"#utility.yul\":8228:8232   */\n      dup2\n        /* \"#utility.yul\":8224:8244   */\n      sub\n        /* \"#utility.yul\":8220:8221   */\n      0x00\n        /* \"#utility.yul\":8209:8218   */\n      dup4\n        /* \"#utility.yul\":8205:8222   */\n      add\n        /* \"#utility.yul\":8198:8245   */\n      mstore\n        /* \"#utility.yul\":8262:8393   */\n      tag_163\n        /* \"#utility.yul\":8388:8392   */\n      dup2\n        /* \"#utility.yul\":8262:8393   */\n      tag_83\n      jump\t// in\n    tag_163:\n        /* \"#utility.yul\":8254:8393   */\n      swap1\n      pop\n        /* \"#utility.yul\":7981:8400   */\n      swap2\n      swap1\n      pop\n      jump\t// out\n        /* \"#utility.yul\":8406:8567   */\n    tag_84:\n        /* \"#utility.yul\":8546:8559   */\n      0x4e656564204e756d626572000000000000000000000000000000000000000000\n        /* \"#utility.yul\":8542:8543   */\n      0x00\n        /* \"#utility.yul\":8534:8540   */\n      dup3\n        /* \"#utility.yul\":8530:8544   */\n      add\n        /* \"#utility.yul\":8523:8560   */\n      mstore\n        /* \"#utility.yul\":8406:8567   */\n      pop\n      jump\t// out\n        /* \"#utility.yul\":8573:8939   */\n    tag_85:\n        /* \"#utility.yul\":8715:8718   */\n      0x00\n        /* \"#utility.yul\":8736:8803   */\n      tag_166\n        /* \"#utility.yul\":8800:8802   */\n      0x0b\n        /* \"#utility.yul\":8795:8798   */\n      dup4\n        /* \"#utility.yul\":8736:8803   */\n      tag_79\n      jump\t// in\n    tag_166:\n        /* \"#utility.yul\":8729:8803   */\n      swap2\n      pop\n        /* \"#utility.yul\":8812:8905   */\n      tag_167\n        /* \"#utility.yul\":8901:8904   */\n      dup3\n        /* \"#utility.yul\":8812:8905   */\n      tag_84\n      jump\t// in\n    tag_167:\n        /* \"#utility.yul\":8930:8932   */\n      0x20\n        /* \"#utility.yul\":8925:8928   */\n      dup3\n        /* \"#utility.yul\":8921:8933   */\n      add\n        /* \"#utility.yul\":8914:8933   */\n      swap1\n      pop\n        /* \"#utility.yul\":8573:8939   */\n      swap2\n      swap1\n      pop\n      jump\t// out\n        /* \"#utility.yul\":8945:9364   */\n    tag_50:\n        /* \"#utility.yul\":9111:9115   */\n      0x00\n        /* \"#utility.yul\":9149:9151   */\n      0x20\n        /* \"#utility.yul\":9138:9147   */\n      dup3\n        /* \"#utility.yul\":9134:9152   */\n      add\n        /* \"#utility.yul\":9126:9152   */\n      swap1\n      pop\n        /* \"#utility.yul\":9198:9207   */\n      dup2\n        /* \"#utility.yul\":9192:9196   */\n      dup2\n        /* \"#utility.yul\":9188:9208   */\n      sub\n        /* \"#utility.yul\":9184:9185   */\n      0x00\n        /* \"#utility.yul\":9173:9182   */\n      dup4\n        /* \"#utility.yul\":9169:9186   */\n      add\n        /* \"#utility.yul\":9162:9209   */\n      mstore\n        /* \"#utility.yul\":9226:9357   */\n      tag_169\n        /* \"#utility.yul\":9352:9356   */\n      dup2\n        /* \"#utility.yul\":9226:9357   */\n      tag_85\n      jump\t// in\n    tag_169:\n        /* \"#utility.yul\":9218:9357   */\n      swap1\n      pop\n        /* \"#utility.yul\":8945:9364   */\n      swap2\n      swap1\n      pop\n      jump\t// out\n        /* \"#utility.yul\":9370:9519   */\n    tag_86:\n        /* \"#utility.yul\":9406:9413   */\n      0x00\n        /* \"#utility.yul\":9446:9512   */\n      0xff00000000000000000000000000000000000000000000000000000000000000\n        /* \"#utility.yul\":9439:9444   */\n      dup3\n        /* \"#utility.yul\":9435:9513   */\n      and\n        /* \"#utility.yul\":9424:9513   */\n      swap1\n      pop\n        /* \"#utility.yul\":9370:9519   */\n      swap2\n      swap1\n      pop\n      jump\t// out\n        /* \"#utility.yul\":9525:9603   */\n    tag_87:\n        /* \"#utility.yul\":9563:9570   */\n      0x00\n        /* \"#utility.yul\":9592:9597   */\n      dup2\n        /* \"#utility.yul\":9581:9597   */\n      swap1\n      pop\n        /* \"#utility.yul\":9525:9603   */\n      swap2\n      swap1\n      pop\n      jump\t// out\n        /* \"#utility.yul\":9609:9762   */\n    tag_88:\n        /* \"#utility.yul\":9712:9755   */\n      tag_173\n        /* \"#utility.yul\":9731:9754   */\n      tag_174\n        /* \"#utility.yul\":9748:9753   */\n      dup3\n        /* \"#utility.yul\":9731:9754   */\n      tag_86\n      jump\t// in\n    tag_174:\n        /* \"#utility.yul\":9712:9755   */\n      tag_87\n      jump\t// in\n    tag_173:\n        /* \"#utility.yul\":9707:9710   */\n      dup3\n        /* \"#utility.yul\":9700:9756   */\n      mstore\n        /* \"#utility.yul\":9609:9762   */\n      pop\n      pop\n      jump\t// out\n        /* \"#utility.yul\":9768:10019   */\n    tag_54:\n        /* \"#utility.yul\":9878:9881   */\n      0x00\n        /* \"#utility.yul\":9893:9966   */\n      tag_176\n        /* \"#utility.yul\":9962:9965   */\n      dup3\n        /* \"#utility.yul\":9953:9959   */\n      dup5\n        /* \"#utility.yul\":9893:9966   */\n      tag_88\n      jump\t// in\n    tag_176:\n        /* \"#utility.yul\":9991:9992   */\n      0x01\n        /* \"#utility.yul\":9986:9989   */\n      dup3\n        /* \"#utility.yul\":9982:9993   */\n      add\n        /* \"#utility.yul\":9975:9993   */\n      swap2\n      pop\n        /* \"#utility.yul\":10010:10013   */\n      dup2\n        /* \"#utility.yul\":10003:10013   */\n      swap1\n      pop\n        /* \"#utility.yul\":9768:10019   */\n      swap3\n      swap2\n      pop\n      pop\n      jump\t// out\n\n    auxdata: 0xa2646970667358221220b3b69a0db81f3e2093f4679db3e2b942f3004aee2b49a6a8757f09d39391bc9964736f6c634300081a0033\n}\n",
				"bytecode": {
					"linkReferences": {},
					"object": "6080604052348015600e575f80fd5b50610abc8061001c5f395ff3fe608060405234801561000f575f80fd5b5060043610610029575f3560e01c8063ccd730161461002d575b5f80fd5b6100476004803603810190610042919061072a565b61005d565b604051610054919061088c565b60405180910390f35b60605f825190505f8167ffffffffffffffff81111561007f5761007e610606565b5b6040519080825280602002602001820160405280156100b257816020015b606081526020019060019003908161009d5790505b5090505f8267ffffffffffffffff8111156100d0576100cf610606565b5b6040519080825280602002602001820160405280156100fe5781602001602082028036833780820191505090505b5090505f5b838110156105d15785818151811061011e5761011d6108ac565b5b602001015160f81c60f81b82828151811061013c5761013b6108ac565b5b60200260200101907effffffffffffffffffffffffffffffffffffffffffffffffffffffffffffff191690817effffffffffffffffffffffffffffffffffffffffffffffffffffffffffffff1916815250507f41000000000000000000000000000000000000000000000000000000000000007effffffffffffffffffffffffffffffffffffffffffffffffffffffffffffff19168282815181106101e4576101e36108ac565b5b60200260200101517effffffffffffffffffffffffffffffffffffffffffffffffffffffffffffff191610158061029957507f5a000000000000000000000000000000000000000000000000000000000000007effffffffffffffffffffffffffffffffffffffffffffffffffffffffffffff191682828151811061026c5761026b6108ac565b5b60200260200101517effffffffffffffffffffffffffffffffffffffffffffffffffffffffffffff191611155b6102d8576040517f08c379a00000000000000000000000000000000000000000000000000000000081526004016102cf90610933565b60405180910390fd5b7f61000000000000000000000000000000000000000000000000000000000000007effffffffffffffffffffffffffffffffffffffffffffffffffffffffffffff191682828151811061032e5761032d6108ac565b5b60200260200101517effffffffffffffffffffffffffffffffffffffffffffffffffffffffffffff19161015806103e357507f7a000000000000000000000000000000000000000000000000000000000000007effffffffffffffffffffffffffffffffffffffffffffffffffffffffffffff19168282815181106103b6576103b56108ac565b5b60200260200101517effffffffffffffffffffffffffffffffffffffffffffffffffffffffffffff191611155b610422576040517f08c379a00000000000000000000000000000000000000000000000000000000081526004016104199061099b565b60405180910390fd5b7f30000000000000000000000000000000000000000000000000000000000000007effffffffffffffffffffffffffffffffffffffffffffffffffffffffffffff1916828281518110610478576104776108ac565b5b60200260200101517effffffffffffffffffffffffffffffffffffffffffffffffffffffffffffff191610158061052d57507f39000000000000000000000000000000000000000000000000000000000000007effffffffffffffffffffffffffffffffffffffffffffffffffffffffffffff1916828281518110610500576104ff6108ac565b5b60200260200101517effffffffffffffffffffffffffffffffffffffffffffffffffffffffffffff191611155b61056c576040517f08c379a000000000000000000000000000000000000000000000000000000000815260040161056390610a03565b60405180910390fd5b81818151811061057f5761057e6108ac565b5b60200260200101516040516020016105979190610a6c565b6040516020818303038152906040528382815181106105b9576105b86108ac565b5b60200260200101819052508080600101915050610103565b50819350505050919050565b5f604051905090565b5f80fd5b5f80fd5b5f80fd5b5f80fd5b5f601f19601f8301169050919050565b7f4e487b71000000000000000000000000000000000000000000000000000000005f52604160045260245ffd5b61063c826105f6565b810181811067ffffffffffffffff8211171561065b5761065a610606565b5b80604052505050565b5f61066d6105dd565b90506106798282610633565b919050565b5f67ffffffffffffffff82111561069857610697610606565b5b6106a1826105f6565b9050602081019050919050565b828183375f83830152505050565b5f6106ce6106c98461067e565b610664565b9050828152602081018484840111156106ea576106e96105f2565b5b6106f58482856106ae565b509392505050565b5f82601f830112610711576107106105ee565b5b81356107218482602086016106bc565b91505092915050565b5f6020828403121561073f5761073e6105e6565b5b5f82013567ffffffffffffffff81111561075c5761075b6105ea565b5b610768848285016106fd565b91505092915050565b5f81519050919050565b5f82825260208201905092915050565b5f819050602082019050919050565b5f81519050919050565b5f82825260208201905092915050565b8281835e5f83830152505050565b5f6107cc8261079a565b6107d681856107a4565b93506107e68185602086016107b4565b6107ef816105f6565b840191505092915050565b5f61080583836107c2565b905092915050565b5f602082019050919050565b5f61082382610771565b61082d818561077b565b93508360208202850161083f8561078b565b805f5b8581101561087a578484038952815161085b85826107fa565b94506108668361080d565b925060208a01995050600181019050610842565b50829750879550505050505092915050565b5f6020820190508181035f8301526108a48184610819565b905092915050565b7f4e487b71000000000000000000000000000000000000000000000000000000005f52603260045260245ffd5b5f82825260208201905092915050565b7f4e656564204361706974616c206c6574746572730000000000000000000000005f82015250565b5f61091d6014836108d9565b9150610928826108e9565b602082019050919050565b5f6020820190508181035f83015261094a81610911565b9050919050565b7f4e65656420536d616c6c206c65747465727300000000000000000000000000005f82015250565b5f6109856012836108d9565b915061099082610951565b602082019050919050565b5f6020820190508181035f8301526109b281610979565b9050919050565b7f4e656564204e756d6265720000000000000000000000000000000000000000005f82015250565b5f6109ed600b836108d9565b91506109f8826109b9565b602082019050919050565b5f6020820190508181035f830152610a1a816109e1565b9050919050565b5f7fff0000000000000000000000000000000000000000000000000000000000000082169050919050565b5f819050919050565b610a66610a6182610a21565b610a4c565b82525050565b5f610a778284610a55565b6001820191508190509291505056fea2646970667358221220b3b69a0db81f3e2093f4679db3e2b942f3004aee2b49a6a8757f09d39391bc9964736f6c634300081a0033",
					"opcodes": "PUSH1 0x80 PUSH1 0x40 MSTORE CALLVALUE DUP1 ISZERO PUSH1 0xE JUMPI PUSH0 DUP1 REVERT JUMPDEST POP PUSH2 0xABC DUP1 PUSH2 0x1C PUSH0 CODECOPY PUSH0 RETURN INVALID PUSH1 0x80 PUSH1 0x40 MSTORE CALLVALUE DUP1 ISZERO PUSH2 0xF JUMPI PUSH0 DUP1 REVERT JUMPDEST POP PUSH1 0x4 CALLDATASIZE LT PUSH2 0x29 JUMPI PUSH0 CALLDATALOAD PUSH1 0xE0 SHR DUP1 PUSH4 0xCCD73016 EQ PUSH2 0x2D JUMPI JUMPDEST PUSH0 DUP1 REVERT JUMPDEST PUSH2 0x47 PUSH1 0x4 DUP1 CALLDATASIZE SUB DUP2 ADD SWAP1 PUSH2 0x42 SWAP2 SWAP1 PUSH2 0x72A JUMP JUMPDEST PUSH2 0x5D JUMP JUMPDEST PUSH1 0x40 MLOAD PUSH2 0x54 SWAP2 SWAP1 PUSH2 0x88C JUMP JUMPDEST PUSH1 0x40 MLOAD DUP1 SWAP2 SUB SWAP1 RETURN JUMPDEST PUSH1 0x60 PUSH0 DUP3 MLOAD SWAP1 POP PUSH0 DUP2 PUSH8 0xFFFFFFFFFFFFFFFF DUP2 GT ISZERO PUSH2 0x7F JUMPI PUSH2 0x7E PUSH2 0x606 JUMP JUMPDEST JUMPDEST PUSH1 0x40 MLOAD SWAP1 DUP1 DUP3 MSTORE DUP1 PUSH1 0x20 MUL PUSH1 0x20 ADD DUP3 ADD PUSH1 0x40 MSTORE DUP1 ISZERO PUSH2 0xB2 JUMPI DUP2 PUSH1 0x20 ADD JUMPDEST PUSH1 0x60 DUP2 MSTORE PUSH1 0x20 ADD SWAP1 PUSH1 0x1 SWAP1 SUB SWAP1 DUP2 PUSH2 0x9D JUMPI SWAP1 POP JUMPDEST POP SWAP1 POP PUSH0 DUP3 PUSH8 0xFFFFFFFFFFFFFFFF DUP2 GT ISZERO PUSH2 0xD0 JUMPI PUSH2 0xCF PUSH2 0x606 JUMP JUMPDEST JUMPDEST PUSH1 0x40 MLOAD SWAP1 DUP1 DUP3 MSTORE DUP1 PUSH1 0x20 MUL PUSH1 0x20 ADD DUP3 ADD PUSH1 0x40 MSTORE DUP1 ISZERO PUSH2 0xFE JUMPI DUP2 PUSH1 0x20 ADD PUSH1 0x20 DUP3 MUL DUP1 CALLDATASIZE DUP4 CALLDATACOPY DUP1 DUP3 ADD SWAP2 POP POP SWAP1 POP JUMPDEST POP SWAP1 POP PUSH0 JUMPDEST DUP4 DUP2 LT ISZERO PUSH2 0x5D1 JUMPI DUP6 DUP2 DUP2 MLOAD DUP2 LT PUSH2 0x11E JUMPI PUSH2 0x11D PUSH2 0x8AC JUMP JUMPDEST JUMPDEST PUSH1 0x20 ADD ADD MLOAD PUSH1 0xF8 SHR PUSH1 0xF8 SHL DUP3 DUP3 DUP2 MLOAD DUP2 LT PUSH2 0x13C JUMPI PUSH2 0x13B PUSH2 0x8AC JUMP JUMPDEST JUMPDEST PUSH1 0x20 MUL PUSH1 0x20 ADD ADD SWAP1 PUSH31 0xFFFFFFFFFFFFFFFFFFFFFFFFFFFFFFFFFFFFFFFFFFFFFFFFFFFFFFFFFFFFFF NOT AND SWAP1 DUP2 PUSH31 0xFFFFFFFFFFFFFFFFFFFFFFFFFFFFFFFFFFFFFFFFFFFFFFFFFFFFFFFFFFFFFF NOT AND DUP2 MSTORE POP POP PUSH32 0x4100000000000000000000000000000000000000000000000000000000000000 PUSH31 0xFFFFFFFFFFFFFFFFFFFFFFFFFFFFFFFFFFFFFFFFFFFFFFFFFFFFFFFFFFFFFF NOT AND DUP3 DUP3 DUP2 MLOAD DUP2 LT PUSH2 0x1E4 JUMPI PUSH2 0x1E3 PUSH2 0x8AC JUMP JUMPDEST JUMPDEST PUSH1 0x20 MUL PUSH1 0x20 ADD ADD MLOAD PUSH31 0xFFFFFFFFFFFFFFFFFFFFFFFFFFFFFFFFFFFFFFFFFFFFFFFFFFFFFFFFFFFFFF NOT AND LT ISZERO DUP1 PUSH2 0x299 JUMPI POP PUSH32 0x5A00000000000000000000000000000000000000000000000000000000000000 PUSH31 0xFFFFFFFFFFFFFFFFFFFFFFFFFFFFFFFFFFFFFFFFFFFFFFFFFFFFFFFFFFFFFF NOT AND DUP3 DUP3 DUP2 MLOAD DUP2 LT PUSH2 0x26C JUMPI PUSH2 0x26B PUSH2 0x8AC JUMP JUMPDEST JUMPDEST PUSH1 0x20 MUL PUSH1 0x20 ADD ADD MLOAD PUSH31 0xFFFFFFFFFFFFFFFFFFFFFFFFFFFFFFFFFFFFFFFFFFFFFFFFFFFFFFFFFFFFFF NOT AND GT ISZERO JUMPDEST PUSH2 0x2D8 JUMPI PUSH1 0x40 MLOAD PUSH32 0x8C379A000000000000000000000000000000000000000000000000000000000 DUP2 MSTORE PUSH1 0x4 ADD PUSH2 0x2CF SWAP1 PUSH2 0x933 JUMP JUMPDEST PUSH1 0x40 MLOAD DUP1 SWAP2 SUB SWAP1 REVERT JUMPDEST PUSH32 0x6100000000000000000000000000000000000000000000000000000000000000 PUSH31 0xFFFFFFFFFFFFFFFFFFFFFFFFFFFFFFFFFFFFFFFFFFFFFFFFFFFFFFFFFFFFFF NOT AND DUP3 DUP3 DUP2 MLOAD DUP2 LT PUSH2 0x32E JUMPI PUSH2 0x32D PUSH2 0x8AC JUMP JUMPDEST JUMPDEST PUSH1 0x20 MUL PUSH1 0x20 ADD ADD MLOAD PUSH31 0xFFFFFFFFFFFFFFFFFFFFFFFFFFFFFFFFFFFFFFFFFFFFFFFFFFFFFFFFFFFFFF NOT AND LT ISZERO DUP1 PUSH2 0x3E3 JUMPI POP PUSH32 0x7A00000000000000000000000000000000000000000000000000000000000000 PUSH31 0xFFFFFFFFFFFFFFFFFFFFFFFFFFFFFFFFFFFFFFFFFFFFFFFFFFFFFFFFFFFFFF NOT AND DUP3 DUP3 DUP2 MLOAD DUP2 LT PUSH2 0x3B6 JUMPI PUSH2 0x3B5 PUSH2 0x8AC JUMP JUMPDEST JUMPDEST PUSH1 0x20 MUL PUSH1 0x20 ADD ADD MLOAD PUSH31 0xFFFFFFFFFFFFFFFFFFFFFFFFFFFFFFFFFFFFFFFFFFFFFFFFFFFFFFFFFFFFFF NOT AND GT ISZERO JUMPDEST PUSH2 0x422 JUMPI PUSH1 0x40 MLOAD PUSH32 0x8C379A000000000000000000000000000000000000000000000000000000000 DUP2 MSTORE PUSH1 0x4 ADD PUSH2 0x419 SWAP1 PUSH2 0x99B JUMP JUMPDEST PUSH1 0x40 MLOAD DUP1 SWAP2 SUB SWAP1 REVERT JUMPDEST PUSH32 0x3000000000000000000000000000000000000000000000000000000000000000 PUSH31 0xFFFFFFFFFFFFFFFFFFFFFFFFFFFFFFFFFFFFFFFFFFFFFFFFFFFFFFFFFFFFFF NOT AND DUP3 DUP3 DUP2 MLOAD DUP2 LT PUSH2 0x478 JUMPI PUSH2 0x477 PUSH2 0x8AC JUMP JUMPDEST JUMPDEST PUSH1 0x20 MUL PUSH1 0x20 ADD ADD MLOAD PUSH31 0xFFFFFFFFFFFFFFFFFFFFFFFFFFFFFFFFFFFFFFFFFFFFFFFFFFFFFFFFFFFFFF NOT AND LT ISZERO DUP1 PUSH2 0x52D JUMPI POP PUSH32 0x3900000000000000000000000000000000000000000000000000000000000000 PUSH31 0xFFFFFFFFFFFFFFFFFFFFFFFFFFFFFFFFFFFFFFFFFFFFFFFFFFFFFFFFFFFFFF NOT AND DUP3 DUP3 DUP2 MLOAD DUP2 LT PUSH2 0x500 JUMPI PUSH2 0x4FF PUSH2 0x8AC JUMP JUMPDEST JUMPDEST PUSH1 0x20 MUL PUSH1 0x20 ADD ADD MLOAD PUSH31 0xFFFFFFFFFFFFFFFFFFFFFFFFFFFFFFFFFFFFFFFFFFFFFFFFFFFFFFFFFFFFFF NOT AND GT ISZERO JUMPDEST PUSH2 0x56C JUMPI PUSH1 0x40 MLOAD PUSH32 0x8C379A000000000000000000000000000000000000000000000000000000000 DUP2 MSTORE PUSH1 0x4 ADD PUSH2 0x563 SWAP1 PUSH2 0xA03 JUMP JUMPDEST PUSH1 0x40 MLOAD DUP1 SWAP2 SUB SWAP1 REVERT JUMPDEST DUP2 DUP2 DUP2 MLOAD DUP2 LT PUSH2 0x57F JUMPI PUSH2 0x57E PUSH2 0x8AC JUMP JUMPDEST JUMPDEST PUSH1 0x20 MUL PUSH1 0x20 ADD ADD MLOAD PUSH1 0x40 MLOAD PUSH1 0x20 ADD PUSH2 0x597 SWAP2 SWAP1 PUSH2 0xA6C JUMP JUMPDEST PUSH1 0x40 MLOAD PUSH1 0x20 DUP2 DUP4 SUB SUB DUP2 MSTORE SWAP1 PUSH1 0x40 MSTORE DUP4 DUP3 DUP2 MLOAD DUP2 LT PUSH2 0x5B9 JUMPI PUSH2 0x5B8 PUSH2 0x8AC JUMP JUMPDEST JUMPDEST PUSH1 0x20 MUL PUSH1 0x20 ADD ADD DUP2 SWAP1 MSTORE POP DUP1 DUP1 PUSH1 0x1 ADD SWAP2 POP POP PUSH2 0x103 JUMP JUMPDEST POP DUP2 SWAP4 POP POP POP POP SWAP2 SWAP1 POP JUMP JUMPDEST PUSH0 PUSH1 0x40 MLOAD SWAP1 POP SWAP1 JUMP JUMPDEST PUSH0 DUP1 REVERT JUMPDEST PUSH0 DUP1 REVERT JUMPDEST PUSH0 DUP1 REVERT JUMPDEST PUSH0 DUP1 REVERT JUMPDEST PUSH0 PUSH1 0x1F NOT PUSH1 0x1F DUP4 ADD AND SWAP1 POP SWAP2 SWAP1 POP JUMP JUMPDEST PUSH32 0x4E487B7100000000000000000000000000000000000000000000000000000000 PUSH0 MSTORE PUSH1 0x41 PUSH1 0x4 MSTORE PUSH1 0x24 PUSH0 REVERT JUMPDEST PUSH2 0x63C DUP3 PUSH2 0x5F6 JUMP JUMPDEST DUP2 ADD DUP2 DUP2 LT PUSH8 0xFFFFFFFFFFFFFFFF DUP3 GT OR ISZERO PUSH2 0x65B JUMPI PUSH2 0x65A PUSH2 0x606 JUMP JUMPDEST JUMPDEST DUP1 PUSH1 0x40 MSTORE POP POP POP JUMP JUMPDEST PUSH0 PUSH2 0x66D PUSH2 0x5DD JUMP JUMPDEST SWAP1 POP PUSH2 0x679 DUP3 DUP3 PUSH2 0x633 JUMP JUMPDEST SWAP2 SWAP1 POP JUMP JUMPDEST PUSH0 PUSH8 0xFFFFFFFFFFFFFFFF DUP3 GT ISZERO PUSH2 0x698 JUMPI PUSH2 0x697 PUSH2 0x606 JUMP JUMPDEST JUMPDEST PUSH2 0x6A1 DUP3 PUSH2 0x5F6 JUMP JUMPDEST SWAP1 POP PUSH1 0x20 DUP2 ADD SWAP1 POP SWAP2 SWAP1 POP JUMP JUMPDEST DUP3 DUP2 DUP4 CALLDATACOPY PUSH0 DUP4 DUP4 ADD MSTORE POP POP POP JUMP JUMPDEST PUSH0 PUSH2 0x6CE PUSH2 0x6C9 DUP5 PUSH2 0x67E JUMP JUMPDEST PUSH2 0x664 JUMP JUMPDEST SWAP1 POP DUP3 DUP2 MSTORE PUSH1 0x20 DUP2 ADD DUP5 DUP5 DUP5 ADD GT ISZERO PUSH2 0x6EA JUMPI PUSH2 0x6E9 PUSH2 0x5F2 JUMP JUMPDEST JUMPDEST PUSH2 0x6F5 DUP5 DUP3 DUP6 PUSH2 0x6AE JUMP JUMPDEST POP SWAP4 SWAP3 POP POP POP JUMP JUMPDEST PUSH0 DUP3 PUSH1 0x1F DUP4 ADD SLT PUSH2 0x711 JUMPI PUSH2 0x710 PUSH2 0x5EE JUMP JUMPDEST JUMPDEST DUP2 CALLDATALOAD PUSH2 0x721 DUP5 DUP3 PUSH1 0x20 DUP7 ADD PUSH2 0x6BC JUMP JUMPDEST SWAP2 POP POP SWAP3 SWAP2 POP POP JUMP JUMPDEST PUSH0 PUSH1 0x20 DUP3 DUP5 SUB SLT ISZERO PUSH2 0x73F JUMPI PUSH2 0x73E PUSH2 0x5E6 JUMP JUMPDEST JUMPDEST PUSH0 DUP3 ADD CALLDATALOAD PUSH8 0xFFFFFFFFFFFFFFFF DUP2 GT ISZERO PUSH2 0x75C JUMPI PUSH2 0x75B PUSH2 0x5EA JUMP JUMPDEST JUMPDEST PUSH2 0x768 DUP5 DUP3 DUP6 ADD PUSH2 0x6FD JUMP JUMPDEST SWAP2 POP POP SWAP3 SWAP2 POP POP JUMP JUMPDEST PUSH0 DUP2 MLOAD SWAP1 POP SWAP2 SWAP1 POP JUMP JUMPDEST PUSH0 DUP3 DUP3 MSTORE PUSH1 0x20 DUP3 ADD SWAP1 POP SWAP3 SWAP2 POP POP JUMP JUMPDEST PUSH0 DUP2 SWAP1 POP PUSH1 0x20 DUP3 ADD SWAP1 POP SWAP2 SWAP1 POP JUMP JUMPDEST PUSH0 DUP2 MLOAD SWAP1 POP SWAP2 SWAP1 POP JUMP JUMPDEST PUSH0 DUP3 DUP3 MSTORE PUSH1 0x20 DUP3 ADD SWAP1 POP SWAP3 SWAP2 POP POP JUMP JUMPDEST DUP3 DUP2 DUP4 MCOPY PUSH0 DUP4 DUP4 ADD MSTORE POP POP POP JUMP JUMPDEST PUSH0 PUSH2 0x7CC DUP3 PUSH2 0x79A JUMP JUMPDEST PUSH2 0x7D6 DUP2 DUP6 PUSH2 0x7A4 JUMP JUMPDEST SWAP4 POP PUSH2 0x7E6 DUP2 DUP6 PUSH1 0x20 DUP7 ADD PUSH2 0x7B4 JUMP JUMPDEST PUSH2 0x7EF DUP2 PUSH2 0x5F6 JUMP JUMPDEST DUP5 ADD SWAP2 POP POP SWAP3 SWAP2 POP POP JUMP JUMPDEST PUSH0 PUSH2 0x805 DUP4 DUP4 PUSH2 0x7C2 JUMP JUMPDEST SWAP1 POP SWAP3 SWAP2 POP POP JUMP JUMPDEST PUSH0 PUSH1 0x20 DUP3 ADD SWAP1 POP SWAP2 SWAP1 POP JUMP JUMPDEST PUSH0 PUSH2 0x823 DUP3 PUSH2 0x771 JUMP JUMPDEST PUSH2 0x82D DUP2 DUP6 PUSH2 0x77B JUMP JUMPDEST SWAP4 POP DUP4 PUSH1 0x20 DUP3 MUL DUP6 ADD PUSH2 0x83F DUP6 PUSH2 0x78B JUMP JUMPDEST DUP1 PUSH0 JUMPDEST DUP6 DUP2 LT ISZERO PUSH2 0x87A JUMPI DUP5 DUP5 SUB DUP10 MSTORE DUP2 MLOAD PUSH2 0x85B DUP6 DUP3 PUSH2 0x7FA JUMP JUMPDEST SWAP5 POP PUSH2 0x866 DUP4 PUSH2 0x80D JUMP JUMPDEST SWAP3 POP PUSH1 0x20 DUP11 ADD SWAP10 POP POP PUSH1 0x1 DUP2 ADD SWAP1 POP PUSH2 0x842 JUMP JUMPDEST POP DUP3 SWAP8 POP DUP8 SWAP6 POP POP POP POP POP POP SWAP3 SWAP2 POP POP JUMP JUMPDEST PUSH0 PUSH1 0x20 DUP3 ADD SWAP1 POP DUP2 DUP2 SUB PUSH0 DUP4 ADD MSTORE PUSH2 0x8A4 DUP2 DUP5 PUSH2 0x819 JUMP JUMPDEST SWAP1 POP SWAP3 SWAP2 POP POP JUMP JUMPDEST PUSH32 0x4E487B7100000000000000000000000000000000000000000000000000000000 PUSH0 MSTORE PUSH1 0x32 PUSH1 0x4 MSTORE PUSH1 0x24 PUSH0 REVERT JUMPDEST PUSH0 DUP3 DUP3 MSTORE PUSH1 0x20 DUP3 ADD SWAP1 POP SWAP3 SWAP2 POP POP JUMP JUMPDEST PUSH32 0x4E656564204361706974616C206C657474657273000000000000000000000000 PUSH0 DUP3 ADD MSTORE POP JUMP JUMPDEST PUSH0 PUSH2 0x91D PUSH1 0x14 DUP4 PUSH2 0x8D9 JUMP JUMPDEST SWAP2 POP PUSH2 0x928 DUP3 PUSH2 0x8E9 JUMP JUMPDEST PUSH1 0x20 DUP3 ADD SWAP1 POP SWAP2 SWAP1 POP JUMP JUMPDEST PUSH0 PUSH1 0x20 DUP3 ADD SWAP1 POP DUP2 DUP2 SUB PUSH0 DUP4 ADD MSTORE PUSH2 0x94A DUP2 PUSH2 0x911 JUMP JUMPDEST SWAP1 POP SWAP2 SWAP1 POP JUMP JUMPDEST PUSH32 0x4E65656420536D616C6C206C6574746572730000000000000000000000000000 PUSH0 DUP3 ADD MSTORE POP JUMP JUMPDEST PUSH0 PUSH2 0x985 PUSH1 0x12 DUP4 PUSH2 0x8D9 JUMP JUMPDEST SWAP2 POP PUSH2 0x990 DUP3 PUSH2 0x951 JUMP JUMPDEST PUSH1 0x20 DUP3 ADD SWAP1 POP SWAP2 SWAP1 POP JUMP JUMPDEST PUSH0 PUSH1 0x20 DUP3 ADD SWAP1 POP DUP2 DUP2 SUB PUSH0 DUP4 ADD MSTORE PUSH2 0x9B2 DUP2 PUSH2 0x979 JUMP JUMPDEST SWAP1 POP SWAP2 SWAP1 POP JUMP JUMPDEST PUSH32 0x4E656564204E756D626572000000000000000000000000000000000000000000 PUSH0 DUP3 ADD MSTORE POP JUMP JUMPDEST PUSH0 PUSH2 0x9ED PUSH1 0xB DUP4 PUSH2 0x8D9 JUMP JUMPDEST SWAP2 POP PUSH2 0x9F8 DUP3 PUSH2 0x9B9 JUMP JUMPDEST PUSH1 0x20 DUP3 ADD SWAP1 POP SWAP2 SWAP1 POP JUMP JUMPDEST PUSH0 PUSH1 0x20 DUP3 ADD SWAP1 POP DUP2 DUP2 SUB PUSH0 DUP4 ADD MSTORE PUSH2 0xA1A DUP2 PUSH2 0x9E1 JUMP JUMPDEST SWAP1 POP SWAP2 SWAP1 POP JUMP JUMPDEST PUSH0 PUSH32 0xFF00000000000000000000000000000000000000000000000000000000000000 DUP3 AND SWAP1 POP SWAP2 SWAP1 POP JUMP JUMPDEST PUSH0 DUP2 SWAP1 POP SWAP2 SWAP1 POP JUMP JUMPDEST PUSH2 0xA66 PUSH2 0xA61 DUP3 PUSH2 0xA21 JUMP JUMPDEST PUSH2 0xA4C JUMP JUMPDEST DUP3 MSTORE POP POP JUMP JUMPDEST PUSH0 PUSH2 0xA77 DUP3 DUP5 PUSH2 0xA55 JUMP JUMPDEST PUSH1 0x1 DUP3 ADD SWAP2 POP DUP2 SWAP1 POP SWAP3 SWAP2 POP POP JUMP INVALID LOG2 PUSH5 0x6970667358 0x22 SLT KECCAK256 0xB3 0xB6 SWAP11 0xD 0xB8 0x1F RETURNDATACOPY KECCAK256 SWAP4 DELEGATECALL PUSH8 0x9DB3E2B942F3004A 0xEE 0x2B BLOBHASH 0xA6 0xA8 PUSH22 0x7F09D39391BC9964736F6C634300081A003300000000 "
				},
				"gasEstimates": {
					"creation": {
						"codeDepositCost": "549600",
						"executionCost": "579",
						"totalCost": "550179"
					},
					"external": {
						"setPW(string)": "infinite"
					}
				},
				"methodIdentifiers": {
					"setPW(string)": "ccd73016"
				}
			},
			"storageLayout": {
				"storage": [],
				"types": null
			},
			"userdoc": {
				"kind": "user",
				"methods": {},
				"version": 1
			}
		}
	}
}