{
	"Coding test/test8.sol": {
		"TEST8": {
			"abi": [
				{
					"inputs": [
						{
							"internalType": "string",
							"name": "_isAgree",
							"type": "string"
						}
					],
					"name": "IsAgree",
					"outputs": [],
					"stateMutability": "nonpayable",
					"type": "function"
				},
				{
					"inputs": [
						{
							"components": [
								{
									"internalType": "string",
									"name": "name",
									"type": "string"
								},
								{
									"internalType": "address",
									"name": "addr",
									"type": "address"
								},
								{
									"internalType": "string",
									"name": "title",
									"type": "string"
								},
								{
									"internalType": "string",
									"name": "vote",
									"type": "string"
								},
								{
									"internalType": "bool",
									"name": "isAgree",
									"type": "bool"
								}
							],
							"internalType": "struct TEST8.user",
							"name": "_user",
							"type": "tuple"
						}
					],
					"name": "setUser",
					"outputs": [],
					"stateMutability": "nonpayable",
					"type": "function"
				}
			],
			"devdoc": {
				"kind": "dev",
				"methods": {},
				"version": 1
			},
			"evm": {
				"assembly": "    /* \"Coding test/test8.sol\":78:2338  contract TEST8 {... */\n  mstore(0x40, 0x80)\n  callvalue\n  dup1\n  iszero\n  tag_1\n  jumpi\n  0x00\n  dup1\n  revert\ntag_1:\n  pop\n  dataSize(sub_0)\n  dup1\n  dataOffset(sub_0)\n  0x00\n  codecopy\n  0x00\n  return\nstop\n\nsub_0: assembly {\n        /* \"Coding test/test8.sol\":78:2338  contract TEST8 {... */\n      mstore(0x40, 0x80)\n      callvalue\n      dup1\n      iszero\n      tag_1\n      jumpi\n      0x00\n      dup1\n      revert\n    tag_1:\n      pop\n      jumpi(tag_2, lt(calldatasize, 0x04))\n      shr(0xe0, calldataload(0x00))\n      dup1\n      0x0a9851c4\n      eq\n      tag_3\n      jumpi\n      dup1\n      0xc358e2a6\n      eq\n      tag_4\n      jumpi\n    tag_2:\n      0x00\n      dup1\n      revert\n        /* \"Coding test/test8.sol\":2112:2319  function IsAgree(string memory _isAgree) public {... */\n    tag_3:\n      tag_5\n      0x04\n      dup1\n      calldatasize\n      sub\n      dup2\n      add\n      swap1\n      tag_6\n      swap2\n      swap1\n      tag_7\n      jump\t// in\n    tag_6:\n      tag_8\n      jump\t// in\n    tag_5:\n      stop\n        /* \"Coding test/test8.sol\":2025:2104  function setUser(user memory _user) public {... */\n    tag_4:\n      tag_9\n      0x04\n      dup1\n      calldatasize\n      sub\n      dup2\n      add\n      swap1\n      tag_10\n      swap2\n      swap1\n      tag_11\n      jump\t// in\n    tag_10:\n      tag_12\n      jump\t// in\n    tag_9:\n      stop\n        /* \"Coding test/test8.sol\":2112:2319  function IsAgree(string memory _isAgree) public {... */\n    tag_8:\n        /* \"Coding test/test8.sol\":2235:2260  abi.encodePacked(\"agree\") */\n      add(0x20, mload(0x40))\n      tag_14\n      swap1\n      tag_15\n      jump\t// in\n    tag_14:\n      mload(0x40)\n      0x20\n      dup2\n      dup4\n      sub\n      sub\n      dup2\n      mstore\n      swap1\n      0x40\n      mstore\n        /* \"Coding test/test8.sol\":2225:2261  keccak256(abi.encodePacked(\"agree\")) */\n      dup1\n      mload\n      swap1\n      0x20\n      add\n      keccak256\n        /* \"Coding test/test8.sol\":2211:2219  _isAgree */\n      dup2\n        /* \"Coding test/test8.sol\":2194:2220  abi.encodePacked(_isAgree) */\n      add(0x20, mload(0x40))\n      tag_16\n      swap2\n      swap1\n      tag_17\n      jump\t// in\n    tag_16:\n      mload(0x40)\n      0x20\n      dup2\n      dup4\n      sub\n      sub\n      dup2\n      mstore\n      swap1\n      0x40\n      mstore\n        /* \"Coding test/test8.sol\":2184:2221  keccak256(abi.encodePacked(_isAgree)) */\n      dup1\n      mload\n      swap1\n      0x20\n      add\n      keccak256\n        /* \"Coding test/test8.sol\":2184:2261  keccak256(abi.encodePacked(_isAgree)) == keccak256(abi.encodePacked(\"agree\")) */\n      sub\n        /* \"Coding test/test8.sol\":2180:2312  if (keccak256(abi.encodePacked(_isAgree)) == keccak256(abi.encodePacked(\"agree\"))) {... */\n      tag_18\n      jumpi\n        /* \"Coding test/test8.sol\":2278:2283  agree */\n      0x00\n        /* \"Coding test/test8.sol\":2289:2299  msg.sender */\n      caller\n        /* \"Coding test/test8.sol\":2278:2300  agree.push(msg.sender) */\n      swap1\n      dup1\n      0x01\n      dup2\n      sload\n      add\n      dup1\n      dup3\n      sstore\n      dup1\n      swap2\n      pop\n      pop\n      0x01\n      swap1\n      sub\n      swap1\n      0x00\n      mstore\n      keccak256(0x00, 0x20)\n      add\n      0x00\n      swap1\n      swap2\n      swap1\n      swap2\n      swap1\n      swap2\n      0x0100\n      exp\n      dup2\n      sload\n      dup2\n      0xffffffffffffffffffffffffffffffffffffffff\n      mul\n      not\n      and\n      swap1\n      dup4\n      0xffffffffffffffffffffffffffffffffffffffff\n      and\n      mul\n      or\n      swap1\n      sstore\n      pop\n        /* \"Coding test/test8.sol\":2180:2312  if (keccak256(abi.encodePacked(_isAgree)) == keccak256(abi.encodePacked(\"agree\"))) {... */\n    tag_18:\n        /* \"Coding test/test8.sol\":2112:2319  function IsAgree(string memory _isAgree) public {... */\n      pop\n      jump\t// out\n        /* \"Coding test/test8.sol\":2025:2104  function setUser(user memory _user) public {... */\n    tag_12:\n        /* \"Coding test/test8.sol\":2079:2084  users */\n      0x03\n        /* \"Coding test/test8.sol\":2090:2095  _user */\n      dup2\n        /* \"Coding test/test8.sol\":2079:2096  users.push(_user) */\n      swap1\n      dup1\n      0x01\n      dup2\n      sload\n      add\n      dup1\n      dup3\n      sstore\n      dup1\n      swap2\n      pop\n      pop\n      0x01\n      swap1\n      sub\n      swap1\n      0x00\n      mstore\n      keccak256(0x00, 0x20)\n      swap1\n      0x05\n      mul\n      add\n      0x00\n      swap1\n      swap2\n      swap1\n      swap2\n      swap1\n      swap2\n      pop\n      0x00\n      dup3\n      add\n      mload\n      dup2\n      0x00\n      add\n      swap1\n      dup2\n      tag_22\n      swap2\n      swap1\n      tag_23\n      jump\t// in\n    tag_22:\n      pop\n      0x20\n      dup3\n      add\n      mload\n      dup2\n      0x01\n      add\n      exp(0x0100, 0x00)\n      dup2\n      sload\n      dup2\n      0xffffffffffffffffffffffffffffffffffffffff\n      mul\n      not\n      and\n      swap1\n      dup4\n      0xffffffffffffffffffffffffffffffffffffffff\n      and\n      mul\n      or\n      swap1\n      sstore\n      pop\n      0x40\n      dup3\n      add\n      mload\n      dup2\n      0x02\n      add\n      swap1\n      dup2\n      tag_24\n      swap2\n      swap1\n      tag_23\n      jump\t// in\n    tag_24:\n      pop\n      0x60\n      dup3\n      add\n      mload\n      dup2\n      0x03\n      add\n      swap1\n      dup2\n      tag_25\n      swap2\n      swap1\n      tag_23\n      jump\t// in\n    tag_25:\n      pop\n      0x80\n      dup3\n      add\n      mload\n      dup2\n      0x04\n      add\n      exp(0x0100, 0x00)\n      dup2\n      sload\n      dup2\n      0xff\n      mul\n      not\n      and\n      swap1\n      dup4\n      iszero\n      iszero\n      mul\n      or\n      swap1\n      sstore\n      pop\n      pop\n      pop\n        /* \"Coding test/test8.sol\":2025:2104  function setUser(user memory _user) public {... */\n      pop\n      jump\t// out\n        /* \"#utility.yul\":7:82   */\n    tag_26:\n        /* \"#utility.yul\":40:46   */\n      0x00\n        /* \"#utility.yul\":73:75   */\n      0x40\n        /* \"#utility.yul\":67:76   */\n      mload\n        /* \"#utility.yul\":57:76   */\n      swap1\n      pop\n        /* \"#utility.yul\":7:82   */\n      swap1\n      jump\t// out\n        /* \"#utility.yul\":88:205   */\n    tag_27:\n        /* \"#utility.yul\":197:198   */\n      0x00\n        /* \"#utility.yul\":194:195   */\n      dup1\n        /* \"#utility.yul\":187:199   */\n      revert\n        /* \"#utility.yul\":211:328   */\n    tag_28:\n        /* \"#utility.yul\":320:321   */\n      0x00\n        /* \"#utility.yul\":317:318   */\n      dup1\n        /* \"#utility.yul\":310:322   */\n      revert\n        /* \"#utility.yul\":334:451   */\n    tag_29:\n        /* \"#utility.yul\":443:444   */\n      0x00\n        /* \"#utility.yul\":440:441   */\n      dup1\n        /* \"#utility.yul\":433:445   */\n      revert\n        /* \"#utility.yul\":457:574   */\n    tag_30:\n        /* \"#utility.yul\":566:567   */\n      0x00\n        /* \"#utility.yul\":563:564   */\n      dup1\n        /* \"#utility.yul\":556:568   */\n      revert\n        /* \"#utility.yul\":580:682   */\n    tag_31:\n        /* \"#utility.yul\":621:627   */\n      0x00\n        /* \"#utility.yul\":672:674   */\n      0x1f\n        /* \"#utility.yul\":668:675   */\n      not\n        /* \"#utility.yul\":663:665   */\n      0x1f\n        /* \"#utility.yul\":656:661   */\n      dup4\n        /* \"#utility.yul\":652:666   */\n      add\n        /* \"#utility.yul\":648:676   */\n      and\n        /* \"#utility.yul\":638:676   */\n      swap1\n      pop\n        /* \"#utility.yul\":580:682   */\n      swap2\n      swap1\n      pop\n      jump\t// out\n        /* \"#utility.yul\":688:868   */\n    tag_32:\n        /* \"#utility.yul\":736:813   */\n      0x4e487b7100000000000000000000000000000000000000000000000000000000\n        /* \"#utility.yul\":733:734   */\n      0x00\n        /* \"#utility.yul\":726:814   */\n      mstore\n        /* \"#utility.yul\":833:837   */\n      0x41\n        /* \"#utility.yul\":830:831   */\n      0x04\n        /* \"#utility.yul\":823:838   */\n      mstore\n        /* \"#utility.yul\":857:861   */\n      0x24\n        /* \"#utility.yul\":854:855   */\n      0x00\n        /* \"#utility.yul\":847:862   */\n      revert\n        /* \"#utility.yul\":874:1155   */\n    tag_33:\n        /* \"#utility.yul\":957:984   */\n      tag_82\n        /* \"#utility.yul\":979:983   */\n      dup3\n        /* \"#utility.yul\":957:984   */\n      tag_31\n      jump\t// in\n    tag_82:\n        /* \"#utility.yul\":949:955   */\n      dup2\n        /* \"#utility.yul\":945:985   */\n      add\n        /* \"#utility.yul\":1087:1093   */\n      dup2\n        /* \"#utility.yul\":1075:1085   */\n      dup2\n        /* \"#utility.yul\":1072:1094   */\n      lt\n        /* \"#utility.yul\":1051:1069   */\n      0xffffffffffffffff\n        /* \"#utility.yul\":1039:1049   */\n      dup3\n        /* \"#utility.yul\":1036:1070   */\n      gt\n        /* \"#utility.yul\":1033:1095   */\n      or\n        /* \"#utility.yul\":1030:1118   */\n      iszero\n      tag_83\n      jumpi\n        /* \"#utility.yul\":1098:1116   */\n      tag_84\n      tag_32\n      jump\t// in\n    tag_84:\n        /* \"#utility.yul\":1030:1118   */\n    tag_83:\n        /* \"#utility.yul\":1138:1148   */\n      dup1\n        /* \"#utility.yul\":1134:1136   */\n      0x40\n        /* \"#utility.yul\":1127:1149   */\n      mstore\n        /* \"#utility.yul\":917:1155   */\n      pop\n        /* \"#utility.yul\":874:1155   */\n      pop\n      pop\n      jump\t// out\n        /* \"#utility.yul\":1161:1290   */\n    tag_34:\n        /* \"#utility.yul\":1195:1201   */\n      0x00\n        /* \"#utility.yul\":1222:1242   */\n      tag_86\n      tag_26\n      jump\t// in\n    tag_86:\n        /* \"#utility.yul\":1212:1242   */\n      swap1\n      pop\n        /* \"#utility.yul\":1251:1284   */\n      tag_87\n        /* \"#utility.yul\":1279:1283   */\n      dup3\n        /* \"#utility.yul\":1271:1277   */\n      dup3\n        /* \"#utility.yul\":1251:1284   */\n      tag_33\n      jump\t// in\n    tag_87:\n        /* \"#utility.yul\":1161:1290   */\n      swap2\n      swap1\n      pop\n      jump\t// out\n        /* \"#utility.yul\":1296:1604   */\n    tag_35:\n        /* \"#utility.yul\":1358:1362   */\n      0x00\n        /* \"#utility.yul\":1448:1466   */\n      0xffffffffffffffff\n        /* \"#utility.yul\":1440:1446   */\n      dup3\n        /* \"#utility.yul\":1437:1467   */\n      gt\n        /* \"#utility.yul\":1434:1490   */\n      iszero\n      tag_89\n      jumpi\n        /* \"#utility.yul\":1470:1488   */\n      tag_90\n      tag_32\n      jump\t// in\n    tag_90:\n        /* \"#utility.yul\":1434:1490   */\n    tag_89:\n        /* \"#utility.yul\":1508:1537   */\n      tag_91\n        /* \"#utility.yul\":1530:1536   */\n      dup3\n        /* \"#utility.yul\":1508:1537   */\n      tag_31\n      jump\t// in\n    tag_91:\n        /* \"#utility.yul\":1500:1537   */\n      swap1\n      pop\n        /* \"#utility.yul\":1592:1596   */\n      0x20\n        /* \"#utility.yul\":1586:1590   */\n      dup2\n        /* \"#utility.yul\":1582:1597   */\n      add\n        /* \"#utility.yul\":1574:1597   */\n      swap1\n      pop\n        /* \"#utility.yul\":1296:1604   */\n      swap2\n      swap1\n      pop\n      jump\t// out\n        /* \"#utility.yul\":1610:1758   */\n    tag_36:\n        /* \"#utility.yul\":1708:1714   */\n      dup3\n        /* \"#utility.yul\":1703:1706   */\n      dup2\n        /* \"#utility.yul\":1698:1701   */\n      dup4\n        /* \"#utility.yul\":1685:1715   */\n      calldatacopy\n        /* \"#utility.yul\":1749:1750   */\n      0x00\n        /* \"#utility.yul\":1740:1746   */\n      dup4\n        /* \"#utility.yul\":1735:1738   */\n      dup4\n        /* \"#utility.yul\":1731:1747   */\n      add\n        /* \"#utility.yul\":1724:1751   */\n      mstore\n        /* \"#utility.yul\":1610:1758   */\n      pop\n      pop\n      pop\n      jump\t// out\n        /* \"#utility.yul\":1764:2189   */\n    tag_37:\n        /* \"#utility.yul\":1842:1847   */\n      0x00\n        /* \"#utility.yul\":1867:1933   */\n      tag_94\n        /* \"#utility.yul\":1883:1932   */\n      tag_95\n        /* \"#utility.yul\":1925:1931   */\n      dup5\n        /* \"#utility.yul\":1883:1932   */\n      tag_35\n      jump\t// in\n    tag_95:\n        /* \"#utility.yul\":1867:1933   */\n      tag_34\n      jump\t// in\n    tag_94:\n        /* \"#utility.yul\":1858:1933   */\n      swap1\n      pop\n        /* \"#utility.yul\":1956:1962   */\n      dup3\n        /* \"#utility.yul\":1949:1954   */\n      dup2\n        /* \"#utility.yul\":1942:1963   */\n      mstore\n        /* \"#utility.yul\":1994:1998   */\n      0x20\n        /* \"#utility.yul\":1987:1992   */\n      dup2\n        /* \"#utility.yul\":1983:1999   */\n      add\n        /* \"#utility.yul\":2032:2035   */\n      dup5\n        /* \"#utility.yul\":2023:2029   */\n      dup5\n        /* \"#utility.yul\":2018:2021   */\n      dup5\n        /* \"#utility.yul\":2014:2030   */\n      add\n        /* \"#utility.yul\":2011:2036   */\n      gt\n        /* \"#utility.yul\":2008:2120   */\n      iszero\n      tag_96\n      jumpi\n        /* \"#utility.yul\":2039:2118   */\n      tag_97\n      tag_30\n      jump\t// in\n    tag_97:\n        /* \"#utility.yul\":2008:2120   */\n    tag_96:\n        /* \"#utility.yul\":2129:2183   */\n      tag_98\n        /* \"#utility.yul\":2176:2182   */\n      dup5\n        /* \"#utility.yul\":2171:2174   */\n      dup3\n        /* \"#utility.yul\":2166:2169   */\n      dup6\n        /* \"#utility.yul\":2129:2183   */\n      tag_36\n      jump\t// in\n    tag_98:\n        /* \"#utility.yul\":1848:2189   */\n      pop\n        /* \"#utility.yul\":1764:2189   */\n      swap4\n      swap3\n      pop\n      pop\n      pop\n      jump\t// out\n        /* \"#utility.yul\":2209:2549   */\n    tag_38:\n        /* \"#utility.yul\":2265:2270   */\n      0x00\n        /* \"#utility.yul\":2314:2317   */\n      dup3\n        /* \"#utility.yul\":2307:2311   */\n      0x1f\n        /* \"#utility.yul\":2299:2305   */\n      dup4\n        /* \"#utility.yul\":2295:2312   */\n      add\n        /* \"#utility.yul\":2291:2318   */\n      slt\n        /* \"#utility.yul\":2281:2403   */\n      tag_100\n      jumpi\n        /* \"#utility.yul\":2322:2401   */\n      tag_101\n      tag_29\n      jump\t// in\n    tag_101:\n        /* \"#utility.yul\":2281:2403   */\n    tag_100:\n        /* \"#utility.yul\":2439:2445   */\n      dup2\n        /* \"#utility.yul\":2426:2446   */\n      calldataload\n        /* \"#utility.yul\":2464:2543   */\n      tag_102\n        /* \"#utility.yul\":2539:2542   */\n      dup5\n        /* \"#utility.yul\":2531:2537   */\n      dup3\n        /* \"#utility.yul\":2524:2528   */\n      0x20\n        /* \"#utility.yul\":2516:2522   */\n      dup7\n        /* \"#utility.yul\":2512:2529   */\n      add\n        /* \"#utility.yul\":2464:2543   */\n      tag_37\n      jump\t// in\n    tag_102:\n        /* \"#utility.yul\":2455:2543   */\n      swap2\n      pop\n        /* \"#utility.yul\":2271:2549   */\n      pop\n        /* \"#utility.yul\":2209:2549   */\n      swap3\n      swap2\n      pop\n      pop\n      jump\t// out\n        /* \"#utility.yul\":2555:3064   */\n    tag_7:\n        /* \"#utility.yul\":2624:2630   */\n      0x00\n        /* \"#utility.yul\":2673:2675   */\n      0x20\n        /* \"#utility.yul\":2661:2670   */\n      dup3\n        /* \"#utility.yul\":2652:2659   */\n      dup5\n        /* \"#utility.yul\":2648:2671   */\n      sub\n        /* \"#utility.yul\":2644:2676   */\n      slt\n        /* \"#utility.yul\":2641:2760   */\n      iszero\n      tag_104\n      jumpi\n        /* \"#utility.yul\":2679:2758   */\n      tag_105\n      tag_27\n      jump\t// in\n    tag_105:\n        /* \"#utility.yul\":2641:2760   */\n    tag_104:\n        /* \"#utility.yul\":2827:2828   */\n      0x00\n        /* \"#utility.yul\":2816:2825   */\n      dup3\n        /* \"#utility.yul\":2812:2829   */\n      add\n        /* \"#utility.yul\":2799:2830   */\n      calldataload\n        /* \"#utility.yul\":2857:2875   */\n      0xffffffffffffffff\n        /* \"#utility.yul\":2849:2855   */\n      dup2\n        /* \"#utility.yul\":2846:2876   */\n      gt\n        /* \"#utility.yul\":2843:2960   */\n      iszero\n      tag_106\n      jumpi\n        /* \"#utility.yul\":2879:2958   */\n      tag_107\n      tag_28\n      jump\t// in\n    tag_107:\n        /* \"#utility.yul\":2843:2960   */\n    tag_106:\n        /* \"#utility.yul\":2984:3047   */\n      tag_108\n        /* \"#utility.yul\":3039:3046   */\n      dup5\n        /* \"#utility.yul\":3030:3036   */\n      dup3\n        /* \"#utility.yul\":3019:3028   */\n      dup6\n        /* \"#utility.yul\":3015:3037   */\n      add\n        /* \"#utility.yul\":2984:3047   */\n      tag_38\n      jump\t// in\n    tag_108:\n        /* \"#utility.yul\":2974:3047   */\n      swap2\n      pop\n        /* \"#utility.yul\":2770:3057   */\n      pop\n        /* \"#utility.yul\":2555:3064   */\n      swap3\n      swap2\n      pop\n      pop\n      jump\t// out\n        /* \"#utility.yul\":3070:3187   */\n    tag_39:\n        /* \"#utility.yul\":3179:3180   */\n      0x00\n        /* \"#utility.yul\":3176:3177   */\n      dup1\n        /* \"#utility.yul\":3169:3181   */\n      revert\n        /* \"#utility.yul\":3193:3310   */\n    tag_40:\n        /* \"#utility.yul\":3302:3303   */\n      0x00\n        /* \"#utility.yul\":3299:3300   */\n      dup1\n        /* \"#utility.yul\":3292:3304   */\n      revert\n        /* \"#utility.yul\":3316:3442   */\n    tag_41:\n        /* \"#utility.yul\":3353:3360   */\n      0x00\n        /* \"#utility.yul\":3393:3435   */\n      0xffffffffffffffffffffffffffffffffffffffff\n        /* \"#utility.yul\":3386:3391   */\n      dup3\n        /* \"#utility.yul\":3382:3436   */\n      and\n        /* \"#utility.yul\":3371:3436   */\n      swap1\n      pop\n        /* \"#utility.yul\":3316:3442   */\n      swap2\n      swap1\n      pop\n      jump\t// out\n        /* \"#utility.yul\":3448:3544   */\n    tag_42:\n        /* \"#utility.yul\":3485:3492   */\n      0x00\n        /* \"#utility.yul\":3514:3538   */\n      tag_113\n        /* \"#utility.yul\":3532:3537   */\n      dup3\n        /* \"#utility.yul\":3514:3538   */\n      tag_41\n      jump\t// in\n    tag_113:\n        /* \"#utility.yul\":3503:3538   */\n      swap1\n      pop\n        /* \"#utility.yul\":3448:3544   */\n      swap2\n      swap1\n      pop\n      jump\t// out\n        /* \"#utility.yul\":3550:3672   */\n    tag_43:\n        /* \"#utility.yul\":3623:3647   */\n      tag_115\n        /* \"#utility.yul\":3641:3646   */\n      dup2\n        /* \"#utility.yul\":3623:3647   */\n      tag_42\n      jump\t// in\n    tag_115:\n        /* \"#utility.yul\":3616:3621   */\n      dup2\n        /* \"#utility.yul\":3613:3648   */\n      eq\n        /* \"#utility.yul\":3603:3666   */\n      tag_116\n      jumpi\n        /* \"#utility.yul\":3662:3663   */\n      0x00\n        /* \"#utility.yul\":3659:3660   */\n      dup1\n        /* \"#utility.yul\":3652:3664   */\n      revert\n        /* \"#utility.yul\":3603:3666   */\n    tag_116:\n        /* \"#utility.yul\":3550:3672   */\n      pop\n      jump\t// out\n        /* \"#utility.yul\":3678:3817   */\n    tag_44:\n        /* \"#utility.yul\":3724:3729   */\n      0x00\n        /* \"#utility.yul\":3762:3768   */\n      dup2\n        /* \"#utility.yul\":3749:3769   */\n      calldataload\n        /* \"#utility.yul\":3740:3769   */\n      swap1\n      pop\n        /* \"#utility.yul\":3778:3811   */\n      tag_118\n        /* \"#utility.yul\":3805:3810   */\n      dup2\n        /* \"#utility.yul\":3778:3811   */\n      tag_43\n      jump\t// in\n    tag_118:\n        /* \"#utility.yul\":3678:3817   */\n      swap3\n      swap2\n      pop\n      pop\n      jump\t// out\n        /* \"#utility.yul\":3823:3913   */\n    tag_45:\n        /* \"#utility.yul\":3857:3864   */\n      0x00\n        /* \"#utility.yul\":3900:3905   */\n      dup2\n        /* \"#utility.yul\":3893:3906   */\n      iszero\n        /* \"#utility.yul\":3886:3907   */\n      iszero\n        /* \"#utility.yul\":3875:3907   */\n      swap1\n      pop\n        /* \"#utility.yul\":3823:3913   */\n      swap2\n      swap1\n      pop\n      jump\t// out\n        /* \"#utility.yul\":3919:4035   */\n    tag_46:\n        /* \"#utility.yul\":3989:4010   */\n      tag_121\n        /* \"#utility.yul\":4004:4009   */\n      dup2\n        /* \"#utility.yul\":3989:4010   */\n      tag_45\n      jump\t// in\n    tag_121:\n        /* \"#utility.yul\":3982:3987   */\n      dup2\n        /* \"#utility.yul\":3979:4011   */\n      eq\n        /* \"#utility.yul\":3969:4029   */\n      tag_122\n      jumpi\n        /* \"#utility.yul\":4025:4026   */\n      0x00\n        /* \"#utility.yul\":4022:4023   */\n      dup1\n        /* \"#utility.yul\":4015:4027   */\n      revert\n        /* \"#utility.yul\":3969:4029   */\n    tag_122:\n        /* \"#utility.yul\":3919:4035   */\n      pop\n      jump\t// out\n        /* \"#utility.yul\":4041:4174   */\n    tag_47:\n        /* \"#utility.yul\":4084:4089   */\n      0x00\n        /* \"#utility.yul\":4122:4128   */\n      dup2\n        /* \"#utility.yul\":4109:4129   */\n      calldataload\n        /* \"#utility.yul\":4100:4129   */\n      swap1\n      pop\n        /* \"#utility.yul\":4138:4168   */\n      tag_124\n        /* \"#utility.yul\":4162:4167   */\n      dup2\n        /* \"#utility.yul\":4138:4168   */\n      tag_46\n      jump\t// in\n    tag_124:\n        /* \"#utility.yul\":4041:4174   */\n      swap3\n      swap2\n      pop\n      pop\n      jump\t// out\n        /* \"#utility.yul\":4205:5769   */\n    tag_48:\n        /* \"#utility.yul\":4274:4279   */\n      0x00\n        /* \"#utility.yul\":4318:4322   */\n      0xa0\n        /* \"#utility.yul\":4306:4315   */\n      dup3\n        /* \"#utility.yul\":4301:4304   */\n      dup5\n        /* \"#utility.yul\":4297:4316   */\n      sub\n        /* \"#utility.yul\":4293:4323   */\n      slt\n        /* \"#utility.yul\":4290:4407   */\n      iszero\n      tag_126\n      jumpi\n        /* \"#utility.yul\":4326:4405   */\n      tag_127\n      tag_39\n      jump\t// in\n    tag_127:\n        /* \"#utility.yul\":4290:4407   */\n    tag_126:\n        /* \"#utility.yul\":4425:4446   */\n      tag_128\n        /* \"#utility.yul\":4441:4445   */\n      0xa0\n        /* \"#utility.yul\":4425:4446   */\n      tag_34\n      jump\t// in\n    tag_128:\n        /* \"#utility.yul\":4416:4446   */\n      swap1\n      pop\n        /* \"#utility.yul\":4533:4534   */\n      0x00\n        /* \"#utility.yul\":4522:4531   */\n      dup3\n        /* \"#utility.yul\":4518:4535   */\n      add\n        /* \"#utility.yul\":4505:4536   */\n      calldataload\n        /* \"#utility.yul\":4563:4581   */\n      0xffffffffffffffff\n        /* \"#utility.yul\":4555:4561   */\n      dup2\n        /* \"#utility.yul\":4552:4582   */\n      gt\n        /* \"#utility.yul\":4549:4666   */\n      iszero\n      tag_129\n      jumpi\n        /* \"#utility.yul\":4585:4664   */\n      tag_130\n      tag_40\n      jump\t// in\n    tag_130:\n        /* \"#utility.yul\":4549:4666   */\n    tag_129:\n        /* \"#utility.yul\":4705:4764   */\n      tag_131\n        /* \"#utility.yul\":4760:4763   */\n      dup5\n        /* \"#utility.yul\":4751:4757   */\n      dup3\n        /* \"#utility.yul\":4740:4749   */\n      dup6\n        /* \"#utility.yul\":4736:4758   */\n      add\n        /* \"#utility.yul\":4705:4764   */\n      tag_38\n      jump\t// in\n    tag_131:\n        /* \"#utility.yul\":4698:4702   */\n      0x00\n        /* \"#utility.yul\":4691:4696   */\n      dup4\n        /* \"#utility.yul\":4687:4703   */\n      add\n        /* \"#utility.yul\":4680:4765   */\n      mstore\n        /* \"#utility.yul\":4456:4776   */\n      pop\n        /* \"#utility.yul\":4835:4837   */\n      0x20\n        /* \"#utility.yul\":4876:4925   */\n      tag_132\n        /* \"#utility.yul\":4921:4924   */\n      dup5\n        /* \"#utility.yul\":4912:4918   */\n      dup3\n        /* \"#utility.yul\":4901:4910   */\n      dup6\n        /* \"#utility.yul\":4897:4919   */\n      add\n        /* \"#utility.yul\":4876:4925   */\n      tag_44\n      jump\t// in\n    tag_132:\n        /* \"#utility.yul\":4869:4873   */\n      0x20\n        /* \"#utility.yul\":4862:4867   */\n      dup4\n        /* \"#utility.yul\":4858:4874   */\n      add\n        /* \"#utility.yul\":4851:4926   */\n      mstore\n        /* \"#utility.yul\":4786:4937   */\n      pop\n        /* \"#utility.yul\":5025:5027   */\n      0x40\n        /* \"#utility.yul\":5014:5023   */\n      dup3\n        /* \"#utility.yul\":5010:5028   */\n      add\n        /* \"#utility.yul\":4997:5029   */\n      calldataload\n        /* \"#utility.yul\":5056:5074   */\n      0xffffffffffffffff\n        /* \"#utility.yul\":5048:5054   */\n      dup2\n        /* \"#utility.yul\":5045:5075   */\n      gt\n        /* \"#utility.yul\":5042:5159   */\n      iszero\n      tag_133\n      jumpi\n        /* \"#utility.yul\":5078:5157   */\n      tag_134\n      tag_40\n      jump\t// in\n    tag_134:\n        /* \"#utility.yul\":5042:5159   */\n    tag_133:\n        /* \"#utility.yul\":5198:5257   */\n      tag_135\n        /* \"#utility.yul\":5253:5256   */\n      dup5\n        /* \"#utility.yul\":5244:5250   */\n      dup3\n        /* \"#utility.yul\":5233:5242   */\n      dup6\n        /* \"#utility.yul\":5229:5251   */\n      add\n        /* \"#utility.yul\":5198:5257   */\n      tag_38\n      jump\t// in\n    tag_135:\n        /* \"#utility.yul\":5191:5195   */\n      0x40\n        /* \"#utility.yul\":5184:5189   */\n      dup4\n        /* \"#utility.yul\":5180:5196   */\n      add\n        /* \"#utility.yul\":5173:5258   */\n      mstore\n        /* \"#utility.yul\":4947:5269   */\n      pop\n        /* \"#utility.yul\":5356:5358   */\n      0x60\n        /* \"#utility.yul\":5345:5354   */\n      dup3\n        /* \"#utility.yul\":5341:5359   */\n      add\n        /* \"#utility.yul\":5328:5360   */\n      calldataload\n        /* \"#utility.yul\":5387:5405   */\n      0xffffffffffffffff\n        /* \"#utility.yul\":5379:5385   */\n      dup2\n        /* \"#utility.yul\":5376:5406   */\n      gt\n        /* \"#utility.yul\":5373:5490   */\n      iszero\n      tag_136\n      jumpi\n        /* \"#utility.yul\":5409:5488   */\n      tag_137\n      tag_40\n      jump\t// in\n    tag_137:\n        /* \"#utility.yul\":5373:5490   */\n    tag_136:\n        /* \"#utility.yul\":5529:5588   */\n      tag_138\n        /* \"#utility.yul\":5584:5587   */\n      dup5\n        /* \"#utility.yul\":5575:5581   */\n      dup3\n        /* \"#utility.yul\":5564:5573   */\n      dup6\n        /* \"#utility.yul\":5560:5582   */\n      add\n        /* \"#utility.yul\":5529:5588   */\n      tag_38\n      jump\t// in\n    tag_138:\n        /* \"#utility.yul\":5522:5526   */\n      0x60\n        /* \"#utility.yul\":5515:5520   */\n      dup4\n        /* \"#utility.yul\":5511:5527   */\n      add\n        /* \"#utility.yul\":5504:5589   */\n      mstore\n        /* \"#utility.yul\":5279:5600   */\n      pop\n        /* \"#utility.yul\":5662:5665   */\n      0x80\n        /* \"#utility.yul\":5704:5750   */\n      tag_139\n        /* \"#utility.yul\":5746:5749   */\n      dup5\n        /* \"#utility.yul\":5737:5743   */\n      dup3\n        /* \"#utility.yul\":5726:5735   */\n      dup6\n        /* \"#utility.yul\":5722:5744   */\n      add\n        /* \"#utility.yul\":5704:5750   */\n      tag_47\n      jump\t// in\n    tag_139:\n        /* \"#utility.yul\":5697:5701   */\n      0x80\n        /* \"#utility.yul\":5690:5695   */\n      dup4\n        /* \"#utility.yul\":5686:5702   */\n      add\n        /* \"#utility.yul\":5679:5751   */\n      mstore\n        /* \"#utility.yul\":5610:5762   */\n      pop\n        /* \"#utility.yul\":4205:5769   */\n      swap3\n      swap2\n      pop\n      pop\n      jump\t// out\n        /* \"#utility.yul\":5775:6304   */\n    tag_11:\n        /* \"#utility.yul\":5854:5860   */\n      0x00\n        /* \"#utility.yul\":5903:5905   */\n      0x20\n        /* \"#utility.yul\":5891:5900   */\n      dup3\n        /* \"#utility.yul\":5882:5889   */\n      dup5\n        /* \"#utility.yul\":5878:5901   */\n      sub\n        /* \"#utility.yul\":5874:5906   */\n      slt\n        /* \"#utility.yul\":5871:5990   */\n      iszero\n      tag_141\n      jumpi\n        /* \"#utility.yul\":5909:5988   */\n      tag_142\n      tag_27\n      jump\t// in\n    tag_142:\n        /* \"#utility.yul\":5871:5990   */\n    tag_141:\n        /* \"#utility.yul\":6057:6058   */\n      0x00\n        /* \"#utility.yul\":6046:6055   */\n      dup3\n        /* \"#utility.yul\":6042:6059   */\n      add\n        /* \"#utility.yul\":6029:6060   */\n      calldataload\n        /* \"#utility.yul\":6087:6105   */\n      0xffffffffffffffff\n        /* \"#utility.yul\":6079:6085   */\n      dup2\n        /* \"#utility.yul\":6076:6106   */\n      gt\n        /* \"#utility.yul\":6073:6190   */\n      iszero\n      tag_143\n      jumpi\n        /* \"#utility.yul\":6109:6188   */\n      tag_144\n      tag_28\n      jump\t// in\n    tag_144:\n        /* \"#utility.yul\":6073:6190   */\n    tag_143:\n        /* \"#utility.yul\":6214:6287   */\n      tag_145\n        /* \"#utility.yul\":6279:6286   */\n      dup5\n        /* \"#utility.yul\":6270:6276   */\n      dup3\n        /* \"#utility.yul\":6259:6268   */\n      dup6\n        /* \"#utility.yul\":6255:6277   */\n      add\n        /* \"#utility.yul\":6214:6287   */\n      tag_48\n      jump\t// in\n    tag_145:\n        /* \"#utility.yul\":6204:6287   */\n      swap2\n      pop\n        /* \"#utility.yul\":6000:6297   */\n      pop\n        /* \"#utility.yul\":5775:6304   */\n      swap3\n      swap2\n      pop\n      pop\n      jump\t// out\n        /* \"#utility.yul\":6310:6458   */\n    tag_49:\n        /* \"#utility.yul\":6412:6423   */\n      0x00\n        /* \"#utility.yul\":6449:6452   */\n      dup2\n        /* \"#utility.yul\":6434:6452   */\n      swap1\n      pop\n        /* \"#utility.yul\":6310:6458   */\n      swap3\n      swap2\n      pop\n      pop\n      jump\t// out\n        /* \"#utility.yul\":6464:6619   */\n    tag_50:\n        /* \"#utility.yul\":6604:6611   */\n      0x6167726565000000000000000000000000000000000000000000000000000000\n        /* \"#utility.yul\":6600:6601   */\n      0x00\n        /* \"#utility.yul\":6592:6598   */\n      dup3\n        /* \"#utility.yul\":6588:6602   */\n      add\n        /* \"#utility.yul\":6581:6612   */\n      mstore\n        /* \"#utility.yul\":6464:6619   */\n      pop\n      jump\t// out\n        /* \"#utility.yul\":6625:7025   */\n    tag_51:\n        /* \"#utility.yul\":6785:6788   */\n      0x00\n        /* \"#utility.yul\":6806:6890   */\n      tag_149\n        /* \"#utility.yul\":6888:6889   */\n      0x05\n        /* \"#utility.yul\":6883:6886   */\n      dup4\n        /* \"#utility.yul\":6806:6890   */\n      tag_49\n      jump\t// in\n    tag_149:\n        /* \"#utility.yul\":6799:6890   */\n      swap2\n      pop\n        /* \"#utility.yul\":6899:6992   */\n      tag_150\n        /* \"#utility.yul\":6988:6991   */\n      dup3\n        /* \"#utility.yul\":6899:6992   */\n      tag_50\n      jump\t// in\n    tag_150:\n        /* \"#utility.yul\":7017:7018   */\n      0x05\n        /* \"#utility.yul\":7012:7015   */\n      dup3\n        /* \"#utility.yul\":7008:7019   */\n      add\n        /* \"#utility.yul\":7001:7019   */\n      swap1\n      pop\n        /* \"#utility.yul\":6625:7025   */\n      swap2\n      swap1\n      pop\n      jump\t// out\n        /* \"#utility.yul\":7031:7412   */\n    tag_15:\n        /* \"#utility.yul\":7216:7219   */\n      0x00\n        /* \"#utility.yul\":7238:7386   */\n      tag_152\n        /* \"#utility.yul\":7382:7385   */\n      dup3\n        /* \"#utility.yul\":7238:7386   */\n      tag_51\n      jump\t// in\n    tag_152:\n        /* \"#utility.yul\":7231:7386   */\n      swap2\n      pop\n        /* \"#utility.yul\":7403:7406   */\n      dup2\n        /* \"#utility.yul\":7396:7406   */\n      swap1\n      pop\n        /* \"#utility.yul\":7031:7412   */\n      swap2\n      swap1\n      pop\n      jump\t// out\n        /* \"#utility.yul\":7418:7517   */\n    tag_52:\n        /* \"#utility.yul\":7470:7476   */\n      0x00\n        /* \"#utility.yul\":7504:7509   */\n      dup2\n        /* \"#utility.yul\":7498:7510   */\n      mload\n        /* \"#utility.yul\":7488:7510   */\n      swap1\n      pop\n        /* \"#utility.yul\":7418:7517   */\n      swap2\n      swap1\n      pop\n      jump\t// out\n        /* \"#utility.yul\":7523:7662   */\n    tag_53:\n        /* \"#utility.yul\":7612:7618   */\n      dup3\n        /* \"#utility.yul\":7607:7610   */\n      dup2\n        /* \"#utility.yul\":7602:7605   */\n      dup4\n        /* \"#utility.yul\":7596:7619   */\n      mcopy\n        /* \"#utility.yul\":7653:7654   */\n      0x00\n        /* \"#utility.yul\":7644:7650   */\n      dup4\n        /* \"#utility.yul\":7639:7642   */\n      dup4\n        /* \"#utility.yul\":7635:7651   */\n      add\n        /* \"#utility.yul\":7628:7655   */\n      mstore\n        /* \"#utility.yul\":7523:7662   */\n      pop\n      pop\n      pop\n      jump\t// out\n        /* \"#utility.yul\":7668:8058   */\n    tag_54:\n        /* \"#utility.yul\":7774:7777   */\n      0x00\n        /* \"#utility.yul\":7802:7841   */\n      tag_156\n        /* \"#utility.yul\":7835:7840   */\n      dup3\n        /* \"#utility.yul\":7802:7841   */\n      tag_52\n      jump\t// in\n    tag_156:\n        /* \"#utility.yul\":7857:7946   */\n      tag_157\n        /* \"#utility.yul\":7939:7945   */\n      dup2\n        /* \"#utility.yul\":7934:7937   */\n      dup6\n        /* \"#utility.yul\":7857:7946   */\n      tag_49\n      jump\t// in\n    tag_157:\n        /* \"#utility.yul\":7850:7946   */\n      swap4\n      pop\n        /* \"#utility.yul\":7955:8020   */\n      tag_158\n        /* \"#utility.yul\":8013:8019   */\n      dup2\n        /* \"#utility.yul\":8008:8011   */\n      dup6\n        /* \"#utility.yul\":8001:8005   */\n      0x20\n        /* \"#utility.yul\":7994:7999   */\n      dup7\n        /* \"#utility.yul\":7990:8006   */\n      add\n        /* \"#utility.yul\":7955:8020   */\n      tag_53\n      jump\t// in\n    tag_158:\n        /* \"#utility.yul\":8045:8051   */\n      dup1\n        /* \"#utility.yul\":8040:8043   */\n      dup5\n        /* \"#utility.yul\":8036:8052   */\n      add\n        /* \"#utility.yul\":8029:8052   */\n      swap2\n      pop\n        /* \"#utility.yul\":7778:8058   */\n      pop\n        /* \"#utility.yul\":7668:8058   */\n      swap3\n      swap2\n      pop\n      pop\n      jump\t// out\n        /* \"#utility.yul\":8064:8339   */\n    tag_17:\n        /* \"#utility.yul\":8196:8199   */\n      0x00\n        /* \"#utility.yul\":8218:8313   */\n      tag_160\n        /* \"#utility.yul\":8309:8312   */\n      dup3\n        /* \"#utility.yul\":8300:8306   */\n      dup5\n        /* \"#utility.yul\":8218:8313   */\n      tag_54\n      jump\t// in\n    tag_160:\n        /* \"#utility.yul\":8211:8313   */\n      swap2\n      pop\n        /* \"#utility.yul\":8330:8333   */\n      dup2\n        /* \"#utility.yul\":8323:8333   */\n      swap1\n      pop\n        /* \"#utility.yul\":8064:8339   */\n      swap3\n      swap2\n      pop\n      pop\n      jump\t// out\n        /* \"#utility.yul\":8345:8525   */\n    tag_55:\n        /* \"#utility.yul\":8393:8470   */\n      0x4e487b7100000000000000000000000000000000000000000000000000000000\n        /* \"#utility.yul\":8390:8391   */\n      0x00\n        /* \"#utility.yul\":8383:8471   */\n      mstore\n        /* \"#utility.yul\":8490:8494   */\n      0x22\n        /* \"#utility.yul\":8487:8488   */\n      0x04\n        /* \"#utility.yul\":8480:8495   */\n      mstore\n        /* \"#utility.yul\":8514:8518   */\n      0x24\n        /* \"#utility.yul\":8511:8512   */\n      0x00\n        /* \"#utility.yul\":8504:8519   */\n      revert\n        /* \"#utility.yul\":8531:8851   */\n    tag_56:\n        /* \"#utility.yul\":8575:8581   */\n      0x00\n        /* \"#utility.yul\":8612:8613   */\n      0x02\n        /* \"#utility.yul\":8606:8610   */\n      dup3\n        /* \"#utility.yul\":8602:8614   */\n      div\n        /* \"#utility.yul\":8592:8614   */\n      swap1\n      pop\n        /* \"#utility.yul\":8659:8660   */\n      0x01\n        /* \"#utility.yul\":8653:8657   */\n      dup3\n        /* \"#utility.yul\":8649:8661   */\n      and\n        /* \"#utility.yul\":8680:8698   */\n      dup1\n        /* \"#utility.yul\":8670:8751   */\n      tag_163\n      jumpi\n        /* \"#utility.yul\":8736:8740   */\n      0x7f\n        /* \"#utility.yul\":8728:8734   */\n      dup3\n        /* \"#utility.yul\":8724:8741   */\n      and\n        /* \"#utility.yul\":8714:8741   */\n      swap2\n      pop\n        /* \"#utility.yul\":8670:8751   */\n    tag_163:\n        /* \"#utility.yul\":8798:8800   */\n      0x20\n        /* \"#utility.yul\":8790:8796   */\n      dup3\n        /* \"#utility.yul\":8787:8801   */\n      lt\n        /* \"#utility.yul\":8767:8785   */\n      dup2\n        /* \"#utility.yul\":8764:8802   */\n      sub\n        /* \"#utility.yul\":8761:8845   */\n      tag_164\n      jumpi\n        /* \"#utility.yul\":8817:8835   */\n      tag_165\n      tag_55\n      jump\t// in\n    tag_165:\n        /* \"#utility.yul\":8761:8845   */\n    tag_164:\n        /* \"#utility.yul\":8582:8851   */\n      pop\n        /* \"#utility.yul\":8531:8851   */\n      swap2\n      swap1\n      pop\n      jump\t// out\n        /* \"#utility.yul\":8857:8998   */\n    tag_57:\n        /* \"#utility.yul\":8906:8910   */\n      0x00\n        /* \"#utility.yul\":8929:8932   */\n      dup2\n        /* \"#utility.yul\":8921:8932   */\n      swap1\n      pop\n        /* \"#utility.yul\":8952:8955   */\n      dup2\n        /* \"#utility.yul\":8949:8950   */\n      0x00\n        /* \"#utility.yul\":8942:8956   */\n      mstore\n        /* \"#utility.yul\":8986:8990   */\n      0x20\n        /* \"#utility.yul\":8983:8984   */\n      0x00\n        /* \"#utility.yul\":8973:8991   */\n      keccak256\n        /* \"#utility.yul\":8965:8991   */\n      swap1\n      pop\n        /* \"#utility.yul\":8857:8998   */\n      swap2\n      swap1\n      pop\n      jump\t// out\n        /* \"#utility.yul\":9004:9097   */\n    tag_58:\n        /* \"#utility.yul\":9041:9047   */\n      0x00\n        /* \"#utility.yul\":9088:9090   */\n      0x20\n        /* \"#utility.yul\":9083:9085   */\n      0x1f\n        /* \"#utility.yul\":9076:9081   */\n      dup4\n        /* \"#utility.yul\":9072:9086   */\n      add\n        /* \"#utility.yul\":9068:9091   */\n      div\n        /* \"#utility.yul\":9058:9091   */\n      swap1\n      pop\n        /* \"#utility.yul\":9004:9097   */\n      swap2\n      swap1\n      pop\n      jump\t// out\n        /* \"#utility.yul\":9103:9210   */\n    tag_59:\n        /* \"#utility.yul\":9147:9155   */\n      0x00\n        /* \"#utility.yul\":9197:9202   */\n      dup3\n        /* \"#utility.yul\":9191:9195   */\n      dup3\n        /* \"#utility.yul\":9187:9203   */\n      shl\n        /* \"#utility.yul\":9166:9203   */\n      swap1\n      pop\n        /* \"#utility.yul\":9103:9210   */\n      swap3\n      swap2\n      pop\n      pop\n      jump\t// out\n        /* \"#utility.yul\":9216:9609   */\n    tag_60:\n        /* \"#utility.yul\":9285:9291   */\n      0x00\n        /* \"#utility.yul\":9335:9336   */\n      0x08\n        /* \"#utility.yul\":9323:9333   */\n      dup4\n        /* \"#utility.yul\":9319:9337   */\n      mul\n        /* \"#utility.yul\":9358:9455   */\n      tag_170\n        /* \"#utility.yul\":9388:9454   */\n      0xffffffffffffffffffffffffffffffffffffffffffffffffffffffffffffffff\n        /* \"#utility.yul\":9377:9386   */\n      dup3\n        /* \"#utility.yul\":9358:9455   */\n      tag_59\n      jump\t// in\n    tag_170:\n        /* \"#utility.yul\":9476:9515   */\n      tag_171\n        /* \"#utility.yul\":9506:9514   */\n      dup7\n        /* \"#utility.yul\":9495:9504   */\n      dup4\n        /* \"#utility.yul\":9476:9515   */\n      tag_59\n      jump\t// in\n    tag_171:\n        /* \"#utility.yul\":9464:9515   */\n      swap6\n      pop\n        /* \"#utility.yul\":9548:9552   */\n      dup1\n        /* \"#utility.yul\":9544:9553   */\n      not\n        /* \"#utility.yul\":9537:9542   */\n      dup5\n        /* \"#utility.yul\":9533:9554   */\n      and\n        /* \"#utility.yul\":9524:9554   */\n      swap4\n      pop\n        /* \"#utility.yul\":9597:9601   */\n      dup1\n        /* \"#utility.yul\":9587:9595   */\n      dup7\n        /* \"#utility.yul\":9583:9602   */\n      and\n        /* \"#utility.yul\":9576:9581   */\n      dup5\n        /* \"#utility.yul\":9573:9603   */\n      or\n        /* \"#utility.yul\":9563:9603   */\n      swap3\n      pop\n        /* \"#utility.yul\":9292:9609   */\n      pop\n      pop\n        /* \"#utility.yul\":9216:9609   */\n      swap4\n      swap3\n      pop\n      pop\n      pop\n      jump\t// out\n        /* \"#utility.yul\":9615:9692   */\n    tag_61:\n        /* \"#utility.yul\":9652:9659   */\n      0x00\n        /* \"#utility.yul\":9681:9686   */\n      dup2\n        /* \"#utility.yul\":9670:9686   */\n      swap1\n      pop\n        /* \"#utility.yul\":9615:9692   */\n      swap2\n      swap1\n      pop\n      jump\t// out\n        /* \"#utility.yul\":9698:9758   */\n    tag_62:\n        /* \"#utility.yul\":9726:9729   */\n      0x00\n        /* \"#utility.yul\":9747:9752   */\n      dup2\n        /* \"#utility.yul\":9740:9752   */\n      swap1\n      pop\n        /* \"#utility.yul\":9698:9758   */\n      swap2\n      swap1\n      pop\n      jump\t// out\n        /* \"#utility.yul\":9764:9906   */\n    tag_63:\n        /* \"#utility.yul\":9814:9823   */\n      0x00\n        /* \"#utility.yul\":9847:9900   */\n      tag_175\n        /* \"#utility.yul\":9865:9899   */\n      tag_176\n        /* \"#utility.yul\":9874:9898   */\n      tag_177\n        /* \"#utility.yul\":9892:9897   */\n      dup5\n        /* \"#utility.yul\":9874:9898   */\n      tag_61\n      jump\t// in\n    tag_177:\n        /* \"#utility.yul\":9865:9899   */\n      tag_62\n      jump\t// in\n    tag_176:\n        /* \"#utility.yul\":9847:9900   */\n      tag_61\n      jump\t// in\n    tag_175:\n        /* \"#utility.yul\":9834:9900   */\n      swap1\n      pop\n        /* \"#utility.yul\":9764:9906   */\n      swap2\n      swap1\n      pop\n      jump\t// out\n        /* \"#utility.yul\":9912:9987   */\n    tag_64:\n        /* \"#utility.yul\":9955:9958   */\n      0x00\n        /* \"#utility.yul\":9976:9981   */\n      dup2\n        /* \"#utility.yul\":9969:9981   */\n      swap1\n      pop\n        /* \"#utility.yul\":9912:9987   */\n      swap2\n      swap1\n      pop\n      jump\t// out\n        /* \"#utility.yul\":9993:10262   */\n    tag_65:\n        /* \"#utility.yul\":10103:10142   */\n      tag_180\n        /* \"#utility.yul\":10134:10141   */\n      dup4\n        /* \"#utility.yul\":10103:10142   */\n      tag_63\n      jump\t// in\n    tag_180:\n        /* \"#utility.yul\":10164:10255   */\n      tag_181\n        /* \"#utility.yul\":10213:10254   */\n      tag_182\n        /* \"#utility.yul\":10237:10253   */\n      dup3\n        /* \"#utility.yul\":10213:10254   */\n      tag_64\n      jump\t// in\n    tag_182:\n        /* \"#utility.yul\":10205:10211   */\n      dup5\n        /* \"#utility.yul\":10198:10202   */\n      dup5\n        /* \"#utility.yul\":10192:10203   */\n      sload\n        /* \"#utility.yul\":10164:10255   */\n      tag_60\n      jump\t// in\n    tag_181:\n        /* \"#utility.yul\":10158:10162   */\n      dup3\n        /* \"#utility.yul\":10151:10256   */\n      sstore\n        /* \"#utility.yul\":10069:10262   */\n      pop\n        /* \"#utility.yul\":9993:10262   */\n      pop\n      pop\n      pop\n      jump\t// out\n        /* \"#utility.yul\":10268:10341   */\n    tag_66:\n        /* \"#utility.yul\":10313:10316   */\n      0x00\n        /* \"#utility.yul\":10268:10341   */\n      swap1\n      jump\t// out\n        /* \"#utility.yul\":10347:10536   */\n    tag_67:\n        /* \"#utility.yul\":10424:10456   */\n      tag_185\n      tag_66\n      jump\t// in\n    tag_185:\n        /* \"#utility.yul\":10465:10530   */\n      tag_186\n        /* \"#utility.yul\":10523:10529   */\n      dup2\n        /* \"#utility.yul\":10515:10521   */\n      dup5\n        /* \"#utility.yul\":10509:10513   */\n      dup5\n        /* \"#utility.yul\":10465:10530   */\n      tag_65\n      jump\t// in\n    tag_186:\n        /* \"#utility.yul\":10400:10536   */\n      pop\n        /* \"#utility.yul\":10347:10536   */\n      pop\n      pop\n      jump\t// out\n        /* \"#utility.yul\":10542:10728   */\n    tag_68:\n        /* \"#utility.yul\":10602:10722   */\n    tag_188:\n        /* \"#utility.yul\":10619:10622   */\n      dup2\n        /* \"#utility.yul\":10612:10617   */\n      dup2\n        /* \"#utility.yul\":10609:10623   */\n      lt\n        /* \"#utility.yul\":10602:10722   */\n      iszero\n      tag_190\n      jumpi\n        /* \"#utility.yul\":10673:10712   */\n      tag_191\n        /* \"#utility.yul\":10710:10711   */\n      0x00\n        /* \"#utility.yul\":10703:10708   */\n      dup3\n        /* \"#utility.yul\":10673:10712   */\n      tag_67\n      jump\t// in\n    tag_191:\n        /* \"#utility.yul\":10646:10647   */\n      0x01\n        /* \"#utility.yul\":10639:10644   */\n      dup2\n        /* \"#utility.yul\":10635:10648   */\n      add\n        /* \"#utility.yul\":10626:10648   */\n      swap1\n      pop\n        /* \"#utility.yul\":10602:10722   */\n      jump(tag_188)\n    tag_190:\n        /* \"#utility.yul\":10542:10728   */\n      pop\n      pop\n      jump\t// out\n        /* \"#utility.yul\":10734:11277   */\n    tag_69:\n        /* \"#utility.yul\":10835:10837   */\n      0x1f\n        /* \"#utility.yul\":10830:10833   */\n      dup3\n        /* \"#utility.yul\":10827:10838   */\n      gt\n        /* \"#utility.yul\":10824:11270   */\n      iszero\n      tag_193\n      jumpi\n        /* \"#utility.yul\":10869:10907   */\n      tag_194\n        /* \"#utility.yul\":10901:10906   */\n      dup2\n        /* \"#utility.yul\":10869:10907   */\n      tag_57\n      jump\t// in\n    tag_194:\n        /* \"#utility.yul\":10953:10982   */\n      tag_195\n        /* \"#utility.yul\":10971:10981   */\n      dup5\n        /* \"#utility.yul\":10953:10982   */\n      tag_58\n      jump\t// in\n    tag_195:\n        /* \"#utility.yul\":10943:10951   */\n      dup2\n        /* \"#utility.yul\":10939:10983   */\n      add\n        /* \"#utility.yul\":11136:11138   */\n      0x20\n        /* \"#utility.yul\":11124:11134   */\n      dup6\n        /* \"#utility.yul\":11121:11139   */\n      lt\n        /* \"#utility.yul\":11118:11167   */\n      iszero\n      tag_196\n      jumpi\n        /* \"#utility.yul\":11157:11165   */\n      dup2\n        /* \"#utility.yul\":11142:11165   */\n      swap1\n      pop\n        /* \"#utility.yul\":11118:11167   */\n    tag_196:\n        /* \"#utility.yul\":11180:11260   */\n      tag_197\n        /* \"#utility.yul\":11236:11258   */\n      tag_198\n        /* \"#utility.yul\":11254:11257   */\n      dup6\n        /* \"#utility.yul\":11236:11258   */\n      tag_58\n      jump\t// in\n    tag_198:\n        /* \"#utility.yul\":11226:11234   */\n      dup4\n        /* \"#utility.yul\":11222:11259   */\n      add\n        /* \"#utility.yul\":11209:11220   */\n      dup3\n        /* \"#utility.yul\":11180:11260   */\n      tag_68\n      jump\t// in\n    tag_197:\n        /* \"#utility.yul\":10839:11270   */\n      pop\n      pop\n        /* \"#utility.yul\":10824:11270   */\n    tag_193:\n        /* \"#utility.yul\":10734:11277   */\n      pop\n      pop\n      pop\n      jump\t// out\n        /* \"#utility.yul\":11283:11400   */\n    tag_70:\n        /* \"#utility.yul\":11337:11345   */\n      0x00\n        /* \"#utility.yul\":11387:11392   */\n      dup3\n        /* \"#utility.yul\":11381:11385   */\n      dup3\n        /* \"#utility.yul\":11377:11393   */\n      shr\n        /* \"#utility.yul\":11356:11393   */\n      swap1\n      pop\n        /* \"#utility.yul\":11283:11400   */\n      swap3\n      swap2\n      pop\n      pop\n      jump\t// out\n        /* \"#utility.yul\":11406:11575   */\n    tag_71:\n        /* \"#utility.yul\":11450:11456   */\n      0x00\n        /* \"#utility.yul\":11483:11534   */\n      tag_201\n        /* \"#utility.yul\":11531:11532   */\n      0x00\n        /* \"#utility.yul\":11527:11533   */\n      not\n        /* \"#utility.yul\":11519:11524   */\n      dup5\n        /* \"#utility.yul\":11516:11517   */\n      0x08\n        /* \"#utility.yul\":11512:11525   */\n      mul\n        /* \"#utility.yul\":11483:11534   */\n      tag_70\n      jump\t// in\n    tag_201:\n        /* \"#utility.yul\":11479:11535   */\n      not\n        /* \"#utility.yul\":11564:11568   */\n      dup1\n        /* \"#utility.yul\":11558:11562   */\n      dup4\n        /* \"#utility.yul\":11554:11569   */\n      and\n        /* \"#utility.yul\":11544:11569   */\n      swap2\n      pop\n        /* \"#utility.yul\":11457:11575   */\n      pop\n        /* \"#utility.yul\":11406:11575   */\n      swap3\n      swap2\n      pop\n      pop\n      jump\t// out\n        /* \"#utility.yul\":11580:11875   */\n    tag_72:\n        /* \"#utility.yul\":11656:11660   */\n      0x00\n        /* \"#utility.yul\":11802:11831   */\n      tag_203\n        /* \"#utility.yul\":11827:11830   */\n      dup4\n        /* \"#utility.yul\":11821:11825   */\n      dup4\n        /* \"#utility.yul\":11802:11831   */\n      tag_71\n      jump\t// in\n    tag_203:\n        /* \"#utility.yul\":11794:11831   */\n      swap2\n      pop\n        /* \"#utility.yul\":11864:11867   */\n      dup3\n        /* \"#utility.yul\":11861:11862   */\n      0x02\n        /* \"#utility.yul\":11857:11868   */\n      mul\n        /* \"#utility.yul\":11851:11855   */\n      dup3\n        /* \"#utility.yul\":11848:11869   */\n      or\n        /* \"#utility.yul\":11840:11869   */\n      swap1\n      pop\n        /* \"#utility.yul\":11580:11875   */\n      swap3\n      swap2\n      pop\n      pop\n      jump\t// out\n        /* \"#utility.yul\":11880:13275   */\n    tag_23:\n        /* \"#utility.yul\":11997:12034   */\n      tag_205\n        /* \"#utility.yul\":12030:12033   */\n      dup3\n        /* \"#utility.yul\":11997:12034   */\n      tag_52\n      jump\t// in\n    tag_205:\n        /* \"#utility.yul\":12099:12117   */\n      0xffffffffffffffff\n        /* \"#utility.yul\":12091:12097   */\n      dup2\n        /* \"#utility.yul\":12088:12118   */\n      gt\n        /* \"#utility.yul\":12085:12141   */\n      iszero\n      tag_206\n      jumpi\n        /* \"#utility.yul\":12121:12139   */\n      tag_207\n      tag_32\n      jump\t// in\n    tag_207:\n        /* \"#utility.yul\":12085:12141   */\n    tag_206:\n        /* \"#utility.yul\":12165:12203   */\n      tag_208\n        /* \"#utility.yul\":12197:12201   */\n      dup3\n        /* \"#utility.yul\":12191:12202   */\n      sload\n        /* \"#utility.yul\":12165:12203   */\n      tag_56\n      jump\t// in\n    tag_208:\n        /* \"#utility.yul\":12250:12317   */\n      tag_209\n        /* \"#utility.yul\":12310:12316   */\n      dup3\n        /* \"#utility.yul\":12302:12308   */\n      dup3\n        /* \"#utility.yul\":12296:12300   */\n      dup6\n        /* \"#utility.yul\":12250:12317   */\n      tag_69\n      jump\t// in\n    tag_209:\n        /* \"#utility.yul\":12344:12345   */\n      0x00\n        /* \"#utility.yul\":12368:12372   */\n      0x20\n        /* \"#utility.yul\":12355:12372   */\n      swap1\n      pop\n        /* \"#utility.yul\":12400:12402   */\n      0x1f\n        /* \"#utility.yul\":12392:12398   */\n      dup4\n        /* \"#utility.yul\":12389:12403   */\n      gt\n        /* \"#utility.yul\":12417:12418   */\n      0x01\n        /* \"#utility.yul\":12412:13030   */\n      dup2\n      eq\n      tag_211\n      jumpi\n        /* \"#utility.yul\":13074:13075   */\n      0x00\n        /* \"#utility.yul\":13091:13097   */\n      dup5\n        /* \"#utility.yul\":13088:13165   */\n      iszero\n      tag_212\n      jumpi\n        /* \"#utility.yul\":13140:13149   */\n      dup3\n        /* \"#utility.yul\":13135:13138   */\n      dup8\n        /* \"#utility.yul\":13131:13150   */\n      add\n        /* \"#utility.yul\":13125:13151   */\n      mload\n        /* \"#utility.yul\":13116:13151   */\n      swap1\n      pop\n        /* \"#utility.yul\":13088:13165   */\n    tag_212:\n        /* \"#utility.yul\":13191:13258   */\n      tag_213\n        /* \"#utility.yul\":13251:13257   */\n      dup6\n        /* \"#utility.yul\":13244:13249   */\n      dup3\n        /* \"#utility.yul\":13191:13258   */\n      tag_72\n      jump\t// in\n    tag_213:\n        /* \"#utility.yul\":13185:13189   */\n      dup7\n        /* \"#utility.yul\":13178:13259   */\n      sstore\n        /* \"#utility.yul\":13047:13269   */\n      pop\n        /* \"#utility.yul\":12382:13269   */\n      jump(tag_210)\n        /* \"#utility.yul\":12412:13030   */\n    tag_211:\n        /* \"#utility.yul\":12464:12468   */\n      0x1f\n        /* \"#utility.yul\":12460:12469   */\n      not\n        /* \"#utility.yul\":12452:12458   */\n      dup5\n        /* \"#utility.yul\":12448:12470   */\n      and\n        /* \"#utility.yul\":12498:12535   */\n      tag_214\n        /* \"#utility.yul\":12530:12534   */\n      dup7\n        /* \"#utility.yul\":12498:12535   */\n      tag_57\n      jump\t// in\n    tag_214:\n        /* \"#utility.yul\":12557:12558   */\n      0x00\n        /* \"#utility.yul\":12571:12779   */\n    tag_215:\n        /* \"#utility.yul\":12585:12592   */\n      dup3\n        /* \"#utility.yul\":12582:12583   */\n      dup2\n        /* \"#utility.yul\":12579:12593   */\n      lt\n        /* \"#utility.yul\":12571:12779   */\n      iszero\n      tag_217\n      jumpi\n        /* \"#utility.yul\":12664:12673   */\n      dup5\n        /* \"#utility.yul\":12659:12662   */\n      dup10\n        /* \"#utility.yul\":12655:12674   */\n      add\n        /* \"#utility.yul\":12649:12675   */\n      mload\n        /* \"#utility.yul\":12641:12647   */\n      dup3\n        /* \"#utility.yul\":12634:12676   */\n      sstore\n        /* \"#utility.yul\":12715:12716   */\n      0x01\n        /* \"#utility.yul\":12707:12713   */\n      dup3\n        /* \"#utility.yul\":12703:12717   */\n      add\n        /* \"#utility.yul\":12693:12717   */\n      swap2\n      pop\n        /* \"#utility.yul\":12762:12764   */\n      0x20\n        /* \"#utility.yul\":12751:12760   */\n      dup6\n        /* \"#utility.yul\":12747:12765   */\n      add\n        /* \"#utility.yul\":12734:12765   */\n      swap5\n      pop\n        /* \"#utility.yul\":12608:12612   */\n      0x20\n        /* \"#utility.yul\":12605:12606   */\n      dup2\n        /* \"#utility.yul\":12601:12613   */\n      add\n        /* \"#utility.yul\":12596:12613   */\n      swap1\n      pop\n        /* \"#utility.yul\":12571:12779   */\n      jump(tag_215)\n    tag_217:\n        /* \"#utility.yul\":12807:12813   */\n      dup7\n        /* \"#utility.yul\":12798:12805   */\n      dup4\n        /* \"#utility.yul\":12795:12814   */\n      lt\n        /* \"#utility.yul\":12792:12971   */\n      iszero\n      tag_218\n      jumpi\n        /* \"#utility.yul\":12865:12874   */\n      dup5\n        /* \"#utility.yul\":12860:12863   */\n      dup10\n        /* \"#utility.yul\":12856:12875   */\n      add\n        /* \"#utility.yul\":12850:12876   */\n      mload\n        /* \"#utility.yul\":12908:12956   */\n      tag_219\n        /* \"#utility.yul\":12950:12954   */\n      0x1f\n        /* \"#utility.yul\":12942:12948   */\n      dup10\n        /* \"#utility.yul\":12938:12955   */\n      and\n        /* \"#utility.yul\":12927:12936   */\n      dup3\n        /* \"#utility.yul\":12908:12956   */\n      tag_71\n      jump\t// in\n    tag_219:\n        /* \"#utility.yul\":12900:12906   */\n      dup4\n        /* \"#utility.yul\":12893:12957   */\n      sstore\n        /* \"#utility.yul\":12815:12971   */\n      pop\n        /* \"#utility.yul\":12792:12971   */\n    tag_218:\n        /* \"#utility.yul\":13017:13018   */\n      0x01\n        /* \"#utility.yul\":13013:13014   */\n      0x02\n        /* \"#utility.yul\":13005:13011   */\n      dup9\n        /* \"#utility.yul\":13001:13015   */\n      mul\n        /* \"#utility.yul\":12997:13019   */\n      add\n        /* \"#utility.yul\":12991:12995   */\n      dup9\n        /* \"#utility.yul\":12984:13020   */\n      sstore\n        /* \"#utility.yul\":12419:13030   */\n      pop\n      pop\n      pop\n        /* \"#utility.yul\":12382:13269   */\n    tag_210:\n      pop\n        /* \"#utility.yul\":11972:13275   */\n      pop\n      pop\n      pop\n        /* \"#utility.yul\":11880:13275   */\n      pop\n      pop\n      jump\t// out\n\n    auxdata: 0xa264697066735822122034d00e1cdcd88dbe8730c4c9cce27f2e8db958c8eefc4b33a7278f3ee431609564736f6c634300081a0033\n}\n",
				"bytecode": {
					"linkReferences": {},
					"object": "6080604052348015600e575f80fd5b506109148061001c5f395ff3fe608060405234801561000f575f80fd5b5060043610610034575f3560e01c80630a9851c414610038578063c358e2a614610054575b5f80fd5b610052600480360381019061004d9190610344565b610070565b005b61006e600480360381019061006991906104ff565b610124565b005b60405160200161007f9061059a565b60405160208183030381529060405280519060200120816040516020016100a691906105f6565b6040516020818303038152906040528051906020012003610121575f33908060018154018082558091505060019003905f5260205f20015f9091909190916101000a81548173ffffffffffffffffffffffffffffffffffffffff021916908373ffffffffffffffffffffffffffffffffffffffff1602179055505b50565b600381908060018154018082558091505060019003905f5260205f2090600502015f909190919091505f820151815f019081610160919061080f565b506020820151816001015f6101000a81548173ffffffffffffffffffffffffffffffffffffffff021916908373ffffffffffffffffffffffffffffffffffffffff16021790555060408201518160020190816101bc919061080f565b5060608201518160030190816101d2919061080f565b506080820151816004015f6101000a81548160ff021916908315150217905550505050565b5f604051905090565b5f80fd5b5f80fd5b5f80fd5b5f80fd5b5f601f19601f8301169050919050565b7f4e487b71000000000000000000000000000000000000000000000000000000005f52604160045260245ffd5b61025682610210565b810181811067ffffffffffffffff8211171561027557610274610220565b5b80604052505050565b5f6102876101f7565b9050610293828261024d565b919050565b5f67ffffffffffffffff8211156102b2576102b1610220565b5b6102bb82610210565b9050602081019050919050565b828183375f83830152505050565b5f6102e86102e384610298565b61027e565b9050828152602081018484840111156103045761030361020c565b5b61030f8482856102c8565b509392505050565b5f82601f83011261032b5761032a610208565b5b813561033b8482602086016102d6565b91505092915050565b5f6020828403121561035957610358610200565b5b5f82013567ffffffffffffffff81111561037657610375610204565b5b61038284828501610317565b91505092915050565b5f80fd5b5f80fd5b5f73ffffffffffffffffffffffffffffffffffffffff82169050919050565b5f6103bc82610393565b9050919050565b6103cc816103b2565b81146103d6575f80fd5b50565b5f813590506103e7816103c3565b92915050565b5f8115159050919050565b610401816103ed565b811461040b575f80fd5b50565b5f8135905061041c816103f8565b92915050565b5f60a082840312156104375761043661038b565b5b61044160a061027e565b90505f82013567ffffffffffffffff8111156104605761045f61038f565b5b61046c84828501610317565b5f83015250602061047f848285016103d9565b602083015250604082013567ffffffffffffffff8111156104a3576104a261038f565b5b6104af84828501610317565b604083015250606082013567ffffffffffffffff8111156104d3576104d261038f565b5b6104df84828501610317565b60608301525060806104f38482850161040e565b60808301525092915050565b5f6020828403121561051457610513610200565b5b5f82013567ffffffffffffffff81111561053157610530610204565b5b61053d84828501610422565b91505092915050565b5f81905092915050565b7f61677265650000000000000000000000000000000000000000000000000000005f82015250565b5f610584600583610546565b915061058f82610550565b600582019050919050565b5f6105a482610578565b9150819050919050565b5f81519050919050565b8281835e5f83830152505050565b5f6105d0826105ae565b6105da8185610546565b93506105ea8185602086016105b8565b80840191505092915050565b5f61060182846105c6565b915081905092915050565b7f4e487b71000000000000000000000000000000000000000000000000000000005f52602260045260245ffd5b5f600282049050600182168061065057607f821691505b6020821081036106635761066261060c565b5b50919050565b5f819050815f5260205f209050919050565b5f6020601f8301049050919050565b5f82821b905092915050565b5f600883026106c57fffffffffffffffffffffffffffffffffffffffffffffffffffffffffffffffff8261068a565b6106cf868361068a565b95508019841693508086168417925050509392505050565b5f819050919050565b5f819050919050565b5f61071361070e610709846106e7565b6106f0565b6106e7565b9050919050565b5f819050919050565b61072c836106f9565b6107406107388261071a565b848454610696565b825550505050565b5f90565b610754610748565b61075f818484610723565b505050565b5b81811015610782576107775f8261074c565b600181019050610765565b5050565b601f8211156107c75761079881610669565b6107a18461067b565b810160208510156107b0578190505b6107c46107bc8561067b565b830182610764565b50505b505050565b5f82821c905092915050565b5f6107e75f19846008026107cc565b1980831691505092915050565b5f6107ff83836107d8565b9150826002028217905092915050565b610818826105ae565b67ffffffffffffffff81111561083157610830610220565b5b61083b8254610639565b610846828285610786565b5f60209050601f831160018114610877575f8415610865578287015190505b61086f85826107f4565b8655506108d6565b601f19841661088586610669565b5f5b828110156108ac57848901518255600182019150602085019450602081019050610887565b868310156108c957848901516108c5601f8916826107d8565b8355505b6001600288020188555050505b50505050505056fea264697066735822122034d00e1cdcd88dbe8730c4c9cce27f2e8db958c8eefc4b33a7278f3ee431609564736f6c634300081a0033",
					"opcodes": "PUSH1 0x80 PUSH1 0x40 MSTORE CALLVALUE DUP1 ISZERO PUSH1 0xE JUMPI PUSH0 DUP1 REVERT JUMPDEST POP PUSH2 0x914 DUP1 PUSH2 0x1C PUSH0 CODECOPY PUSH0 RETURN INVALID PUSH1 0x80 PUSH1 0x40 MSTORE CALLVALUE DUP1 ISZERO PUSH2 0xF JUMPI PUSH0 DUP1 REVERT JUMPDEST POP PUSH1 0x4 CALLDATASIZE LT PUSH2 0x34 JUMPI PUSH0 CALLDATALOAD PUSH1 0xE0 SHR DUP1 PUSH4 0xA9851C4 EQ PUSH2 0x38 JUMPI DUP1 PUSH4 0xC358E2A6 EQ PUSH2 0x54 JUMPI JUMPDEST PUSH0 DUP1 REVERT JUMPDEST PUSH2 0x52 PUSH1 0x4 DUP1 CALLDATASIZE SUB DUP2 ADD SWAP1 PUSH2 0x4D SWAP2 SWAP1 PUSH2 0x344 JUMP JUMPDEST PUSH2 0x70 JUMP JUMPDEST STOP JUMPDEST PUSH2 0x6E PUSH1 0x4 DUP1 CALLDATASIZE SUB DUP2 ADD SWAP1 PUSH2 0x69 SWAP2 SWAP1 PUSH2 0x4FF JUMP JUMPDEST PUSH2 0x124 JUMP JUMPDEST STOP JUMPDEST PUSH1 0x40 MLOAD PUSH1 0x20 ADD PUSH2 0x7F SWAP1 PUSH2 0x59A JUMP JUMPDEST PUSH1 0x40 MLOAD PUSH1 0x20 DUP2 DUP4 SUB SUB DUP2 MSTORE SWAP1 PUSH1 0x40 MSTORE DUP1 MLOAD SWAP1 PUSH1 0x20 ADD KECCAK256 DUP2 PUSH1 0x40 MLOAD PUSH1 0x20 ADD PUSH2 0xA6 SWAP2 SWAP1 PUSH2 0x5F6 JUMP JUMPDEST PUSH1 0x40 MLOAD PUSH1 0x20 DUP2 DUP4 SUB SUB DUP2 MSTORE SWAP1 PUSH1 0x40 MSTORE DUP1 MLOAD SWAP1 PUSH1 0x20 ADD KECCAK256 SUB PUSH2 0x121 JUMPI PUSH0 CALLER SWAP1 DUP1 PUSH1 0x1 DUP2 SLOAD ADD DUP1 DUP3 SSTORE DUP1 SWAP2 POP POP PUSH1 0x1 SWAP1 SUB SWAP1 PUSH0 MSTORE PUSH1 0x20 PUSH0 KECCAK256 ADD PUSH0 SWAP1 SWAP2 SWAP1 SWAP2 SWAP1 SWAP2 PUSH2 0x100 EXP DUP2 SLOAD DUP2 PUSH20 0xFFFFFFFFFFFFFFFFFFFFFFFFFFFFFFFFFFFFFFFF MUL NOT AND SWAP1 DUP4 PUSH20 0xFFFFFFFFFFFFFFFFFFFFFFFFFFFFFFFFFFFFFFFF AND MUL OR SWAP1 SSTORE POP JUMPDEST POP JUMP JUMPDEST PUSH1 0x3 DUP2 SWAP1 DUP1 PUSH1 0x1 DUP2 SLOAD ADD DUP1 DUP3 SSTORE DUP1 SWAP2 POP POP PUSH1 0x1 SWAP1 SUB SWAP1 PUSH0 MSTORE PUSH1 0x20 PUSH0 KECCAK256 SWAP1 PUSH1 0x5 MUL ADD PUSH0 SWAP1 SWAP2 SWAP1 SWAP2 SWAP1 SWAP2 POP PUSH0 DUP3 ADD MLOAD DUP2 PUSH0 ADD SWAP1 DUP2 PUSH2 0x160 SWAP2 SWAP1 PUSH2 0x80F JUMP JUMPDEST POP PUSH1 0x20 DUP3 ADD MLOAD DUP2 PUSH1 0x1 ADD PUSH0 PUSH2 0x100 EXP DUP2 SLOAD DUP2 PUSH20 0xFFFFFFFFFFFFFFFFFFFFFFFFFFFFFFFFFFFFFFFF MUL NOT AND SWAP1 DUP4 PUSH20 0xFFFFFFFFFFFFFFFFFFFFFFFFFFFFFFFFFFFFFFFF AND MUL OR SWAP1 SSTORE POP PUSH1 0x40 DUP3 ADD MLOAD DUP2 PUSH1 0x2 ADD SWAP1 DUP2 PUSH2 0x1BC SWAP2 SWAP1 PUSH2 0x80F JUMP JUMPDEST POP PUSH1 0x60 DUP3 ADD MLOAD DUP2 PUSH1 0x3 ADD SWAP1 DUP2 PUSH2 0x1D2 SWAP2 SWAP1 PUSH2 0x80F JUMP JUMPDEST POP PUSH1 0x80 DUP3 ADD MLOAD DUP2 PUSH1 0x4 ADD PUSH0 PUSH2 0x100 EXP DUP2 SLOAD DUP2 PUSH1 0xFF MUL NOT AND SWAP1 DUP4 ISZERO ISZERO MUL OR SWAP1 SSTORE POP POP POP POP JUMP JUMPDEST PUSH0 PUSH1 0x40 MLOAD SWAP1 POP SWAP1 JUMP JUMPDEST PUSH0 DUP1 REVERT JUMPDEST PUSH0 DUP1 REVERT JUMPDEST PUSH0 DUP1 REVERT JUMPDEST PUSH0 DUP1 REVERT JUMPDEST PUSH0 PUSH1 0x1F NOT PUSH1 0x1F DUP4 ADD AND SWAP1 POP SWAP2 SWAP1 POP JUMP JUMPDEST PUSH32 0x4E487B7100000000000000000000000000000000000000000000000000000000 PUSH0 MSTORE PUSH1 0x41 PUSH1 0x4 MSTORE PUSH1 0x24 PUSH0 REVERT JUMPDEST PUSH2 0x256 DUP3 PUSH2 0x210 JUMP JUMPDEST DUP2 ADD DUP2 DUP2 LT PUSH8 0xFFFFFFFFFFFFFFFF DUP3 GT OR ISZERO PUSH2 0x275 JUMPI PUSH2 0x274 PUSH2 0x220 JUMP JUMPDEST JUMPDEST DUP1 PUSH1 0x40 MSTORE POP POP POP JUMP JUMPDEST PUSH0 PUSH2 0x287 PUSH2 0x1F7 JUMP JUMPDEST SWAP1 POP PUSH2 0x293 DUP3 DUP3 PUSH2 0x24D JUMP JUMPDEST SWAP2 SWAP1 POP JUMP JUMPDEST PUSH0 PUSH8 0xFFFFFFFFFFFFFFFF DUP3 GT ISZERO PUSH2 0x2B2 JUMPI PUSH2 0x2B1 PUSH2 0x220 JUMP JUMPDEST JUMPDEST PUSH2 0x2BB DUP3 PUSH2 0x210 JUMP JUMPDEST SWAP1 POP PUSH1 0x20 DUP2 ADD SWAP1 POP SWAP2 SWAP1 POP JUMP JUMPDEST DUP3 DUP2 DUP4 CALLDATACOPY PUSH0 DUP4 DUP4 ADD MSTORE POP POP POP JUMP JUMPDEST PUSH0 PUSH2 0x2E8 PUSH2 0x2E3 DUP5 PUSH2 0x298 JUMP JUMPDEST PUSH2 0x27E JUMP JUMPDEST SWAP1 POP DUP3 DUP2 MSTORE PUSH1 0x20 DUP2 ADD DUP5 DUP5 DUP5 ADD GT ISZERO PUSH2 0x304 JUMPI PUSH2 0x303 PUSH2 0x20C JUMP JUMPDEST JUMPDEST PUSH2 0x30F DUP5 DUP3 DUP6 PUSH2 0x2C8 JUMP JUMPDEST POP SWAP4 SWAP3 POP POP POP JUMP JUMPDEST PUSH0 DUP3 PUSH1 0x1F DUP4 ADD SLT PUSH2 0x32B JUMPI PUSH2 0x32A PUSH2 0x208 JUMP JUMPDEST JUMPDEST DUP2 CALLDATALOAD PUSH2 0x33B DUP5 DUP3 PUSH1 0x20 DUP7 ADD PUSH2 0x2D6 JUMP JUMPDEST SWAP2 POP POP SWAP3 SWAP2 POP POP JUMP JUMPDEST PUSH0 PUSH1 0x20 DUP3 DUP5 SUB SLT ISZERO PUSH2 0x359 JUMPI PUSH2 0x358 PUSH2 0x200 JUMP JUMPDEST JUMPDEST PUSH0 DUP3 ADD CALLDATALOAD PUSH8 0xFFFFFFFFFFFFFFFF DUP2 GT ISZERO PUSH2 0x376 JUMPI PUSH2 0x375 PUSH2 0x204 JUMP JUMPDEST JUMPDEST PUSH2 0x382 DUP5 DUP3 DUP6 ADD PUSH2 0x317 JUMP JUMPDEST SWAP2 POP POP SWAP3 SWAP2 POP POP JUMP JUMPDEST PUSH0 DUP1 REVERT JUMPDEST PUSH0 DUP1 REVERT JUMPDEST PUSH0 PUSH20 0xFFFFFFFFFFFFFFFFFFFFFFFFFFFFFFFFFFFFFFFF DUP3 AND SWAP1 POP SWAP2 SWAP1 POP JUMP JUMPDEST PUSH0 PUSH2 0x3BC DUP3 PUSH2 0x393 JUMP JUMPDEST SWAP1 POP SWAP2 SWAP1 POP JUMP JUMPDEST PUSH2 0x3CC DUP2 PUSH2 0x3B2 JUMP JUMPDEST DUP2 EQ PUSH2 0x3D6 JUMPI PUSH0 DUP1 REVERT JUMPDEST POP JUMP JUMPDEST PUSH0 DUP2 CALLDATALOAD SWAP1 POP PUSH2 0x3E7 DUP2 PUSH2 0x3C3 JUMP JUMPDEST SWAP3 SWAP2 POP POP JUMP JUMPDEST PUSH0 DUP2 ISZERO ISZERO SWAP1 POP SWAP2 SWAP1 POP JUMP JUMPDEST PUSH2 0x401 DUP2 PUSH2 0x3ED JUMP JUMPDEST DUP2 EQ PUSH2 0x40B JUMPI PUSH0 DUP1 REVERT JUMPDEST POP JUMP JUMPDEST PUSH0 DUP2 CALLDATALOAD SWAP1 POP PUSH2 0x41C DUP2 PUSH2 0x3F8 JUMP JUMPDEST SWAP3 SWAP2 POP POP JUMP JUMPDEST PUSH0 PUSH1 0xA0 DUP3 DUP5 SUB SLT ISZERO PUSH2 0x437 JUMPI PUSH2 0x436 PUSH2 0x38B JUMP JUMPDEST JUMPDEST PUSH2 0x441 PUSH1 0xA0 PUSH2 0x27E JUMP JUMPDEST SWAP1 POP PUSH0 DUP3 ADD CALLDATALOAD PUSH8 0xFFFFFFFFFFFFFFFF DUP2 GT ISZERO PUSH2 0x460 JUMPI PUSH2 0x45F PUSH2 0x38F JUMP JUMPDEST JUMPDEST PUSH2 0x46C DUP5 DUP3 DUP6 ADD PUSH2 0x317 JUMP JUMPDEST PUSH0 DUP4 ADD MSTORE POP PUSH1 0x20 PUSH2 0x47F DUP5 DUP3 DUP6 ADD PUSH2 0x3D9 JUMP JUMPDEST PUSH1 0x20 DUP4 ADD MSTORE POP PUSH1 0x40 DUP3 ADD CALLDATALOAD PUSH8 0xFFFFFFFFFFFFFFFF DUP2 GT ISZERO PUSH2 0x4A3 JUMPI PUSH2 0x4A2 PUSH2 0x38F JUMP JUMPDEST JUMPDEST PUSH2 0x4AF DUP5 DUP3 DUP6 ADD PUSH2 0x317 JUMP JUMPDEST PUSH1 0x40 DUP4 ADD MSTORE POP PUSH1 0x60 DUP3 ADD CALLDATALOAD PUSH8 0xFFFFFFFFFFFFFFFF DUP2 GT ISZERO PUSH2 0x4D3 JUMPI PUSH2 0x4D2 PUSH2 0x38F JUMP JUMPDEST JUMPDEST PUSH2 0x4DF DUP5 DUP3 DUP6 ADD PUSH2 0x317 JUMP JUMPDEST PUSH1 0x60 DUP4 ADD MSTORE POP PUSH1 0x80 PUSH2 0x4F3 DUP5 DUP3 DUP6 ADD PUSH2 0x40E JUMP JUMPDEST PUSH1 0x80 DUP4 ADD MSTORE POP SWAP3 SWAP2 POP POP JUMP JUMPDEST PUSH0 PUSH1 0x20 DUP3 DUP5 SUB SLT ISZERO PUSH2 0x514 JUMPI PUSH2 0x513 PUSH2 0x200 JUMP JUMPDEST JUMPDEST PUSH0 DUP3 ADD CALLDATALOAD PUSH8 0xFFFFFFFFFFFFFFFF DUP2 GT ISZERO PUSH2 0x531 JUMPI PUSH2 0x530 PUSH2 0x204 JUMP JUMPDEST JUMPDEST PUSH2 0x53D DUP5 DUP3 DUP6 ADD PUSH2 0x422 JUMP JUMPDEST SWAP2 POP POP SWAP3 SWAP2 POP POP JUMP JUMPDEST PUSH0 DUP2 SWAP1 POP SWAP3 SWAP2 POP POP JUMP JUMPDEST PUSH32 0x6167726565000000000000000000000000000000000000000000000000000000 PUSH0 DUP3 ADD MSTORE POP JUMP JUMPDEST PUSH0 PUSH2 0x584 PUSH1 0x5 DUP4 PUSH2 0x546 JUMP JUMPDEST SWAP2 POP PUSH2 0x58F DUP3 PUSH2 0x550 JUMP JUMPDEST PUSH1 0x5 DUP3 ADD SWAP1 POP SWAP2 SWAP1 POP JUMP JUMPDEST PUSH0 PUSH2 0x5A4 DUP3 PUSH2 0x578 JUMP JUMPDEST SWAP2 POP DUP2 SWAP1 POP SWAP2 SWAP1 POP JUMP JUMPDEST PUSH0 DUP2 MLOAD SWAP1 POP SWAP2 SWAP1 POP JUMP JUMPDEST DUP3 DUP2 DUP4 MCOPY PUSH0 DUP4 DUP4 ADD MSTORE POP POP POP JUMP JUMPDEST PUSH0 PUSH2 0x5D0 DUP3 PUSH2 0x5AE JUMP JUMPDEST PUSH2 0x5DA DUP2 DUP6 PUSH2 0x546 JUMP JUMPDEST SWAP4 POP PUSH2 0x5EA DUP2 DUP6 PUSH1 0x20 DUP7 ADD PUSH2 0x5B8 JUMP JUMPDEST DUP1 DUP5 ADD SWAP2 POP POP SWAP3 SWAP2 POP POP JUMP JUMPDEST PUSH0 PUSH2 0x601 DUP3 DUP5 PUSH2 0x5C6 JUMP JUMPDEST SWAP2 POP DUP2 SWAP1 POP SWAP3 SWAP2 POP POP JUMP JUMPDEST PUSH32 0x4E487B7100000000000000000000000000000000000000000000000000000000 PUSH0 MSTORE PUSH1 0x22 PUSH1 0x4 MSTORE PUSH1 0x24 PUSH0 REVERT JUMPDEST PUSH0 PUSH1 0x2 DUP3 DIV SWAP1 POP PUSH1 0x1 DUP3 AND DUP1 PUSH2 0x650 JUMPI PUSH1 0x7F DUP3 AND SWAP2 POP JUMPDEST PUSH1 0x20 DUP3 LT DUP2 SUB PUSH2 0x663 JUMPI PUSH2 0x662 PUSH2 0x60C JUMP JUMPDEST JUMPDEST POP SWAP2 SWAP1 POP JUMP JUMPDEST PUSH0 DUP2 SWAP1 POP DUP2 PUSH0 MSTORE PUSH1 0x20 PUSH0 KECCAK256 SWAP1 POP SWAP2 SWAP1 POP JUMP JUMPDEST PUSH0 PUSH1 0x20 PUSH1 0x1F DUP4 ADD DIV SWAP1 POP SWAP2 SWAP1 POP JUMP JUMPDEST PUSH0 DUP3 DUP3 SHL SWAP1 POP SWAP3 SWAP2 POP POP JUMP JUMPDEST PUSH0 PUSH1 0x8 DUP4 MUL PUSH2 0x6C5 PUSH32 0xFFFFFFFFFFFFFFFFFFFFFFFFFFFFFFFFFFFFFFFFFFFFFFFFFFFFFFFFFFFFFFFF DUP3 PUSH2 0x68A JUMP JUMPDEST PUSH2 0x6CF DUP7 DUP4 PUSH2 0x68A JUMP JUMPDEST SWAP6 POP DUP1 NOT DUP5 AND SWAP4 POP DUP1 DUP7 AND DUP5 OR SWAP3 POP POP POP SWAP4 SWAP3 POP POP POP JUMP JUMPDEST PUSH0 DUP2 SWAP1 POP SWAP2 SWAP1 POP JUMP JUMPDEST PUSH0 DUP2 SWAP1 POP SWAP2 SWAP1 POP JUMP JUMPDEST PUSH0 PUSH2 0x713 PUSH2 0x70E PUSH2 0x709 DUP5 PUSH2 0x6E7 JUMP JUMPDEST PUSH2 0x6F0 JUMP JUMPDEST PUSH2 0x6E7 JUMP JUMPDEST SWAP1 POP SWAP2 SWAP1 POP JUMP JUMPDEST PUSH0 DUP2 SWAP1 POP SWAP2 SWAP1 POP JUMP JUMPDEST PUSH2 0x72C DUP4 PUSH2 0x6F9 JUMP JUMPDEST PUSH2 0x740 PUSH2 0x738 DUP3 PUSH2 0x71A JUMP JUMPDEST DUP5 DUP5 SLOAD PUSH2 0x696 JUMP JUMPDEST DUP3 SSTORE POP POP POP POP JUMP JUMPDEST PUSH0 SWAP1 JUMP JUMPDEST PUSH2 0x754 PUSH2 0x748 JUMP JUMPDEST PUSH2 0x75F DUP2 DUP5 DUP5 PUSH2 0x723 JUMP JUMPDEST POP POP POP JUMP JUMPDEST JUMPDEST DUP2 DUP2 LT ISZERO PUSH2 0x782 JUMPI PUSH2 0x777 PUSH0 DUP3 PUSH2 0x74C JUMP JUMPDEST PUSH1 0x1 DUP2 ADD SWAP1 POP PUSH2 0x765 JUMP JUMPDEST POP POP JUMP JUMPDEST PUSH1 0x1F DUP3 GT ISZERO PUSH2 0x7C7 JUMPI PUSH2 0x798 DUP2 PUSH2 0x669 JUMP JUMPDEST PUSH2 0x7A1 DUP5 PUSH2 0x67B JUMP JUMPDEST DUP2 ADD PUSH1 0x20 DUP6 LT ISZERO PUSH2 0x7B0 JUMPI DUP2 SWAP1 POP JUMPDEST PUSH2 0x7C4 PUSH2 0x7BC DUP6 PUSH2 0x67B JUMP JUMPDEST DUP4 ADD DUP3 PUSH2 0x764 JUMP JUMPDEST POP POP JUMPDEST POP POP POP JUMP JUMPDEST PUSH0 DUP3 DUP3 SHR SWAP1 POP SWAP3 SWAP2 POP POP JUMP JUMPDEST PUSH0 PUSH2 0x7E7 PUSH0 NOT DUP5 PUSH1 0x8 MUL PUSH2 0x7CC JUMP JUMPDEST NOT DUP1 DUP4 AND SWAP2 POP POP SWAP3 SWAP2 POP POP JUMP JUMPDEST PUSH0 PUSH2 0x7FF DUP4 DUP4 PUSH2 0x7D8 JUMP JUMPDEST SWAP2 POP DUP3 PUSH1 0x2 MUL DUP3 OR SWAP1 POP SWAP3 SWAP2 POP POP JUMP JUMPDEST PUSH2 0x818 DUP3 PUSH2 0x5AE JUMP JUMPDEST PUSH8 0xFFFFFFFFFFFFFFFF DUP2 GT ISZERO PUSH2 0x831 JUMPI PUSH2 0x830 PUSH2 0x220 JUMP JUMPDEST JUMPDEST PUSH2 0x83B DUP3 SLOAD PUSH2 0x639 JUMP JUMPDEST PUSH2 0x846 DUP3 DUP3 DUP6 PUSH2 0x786 JUMP JUMPDEST PUSH0 PUSH1 0x20 SWAP1 POP PUSH1 0x1F DUP4 GT PUSH1 0x1 DUP2 EQ PUSH2 0x877 JUMPI PUSH0 DUP5 ISZERO PUSH2 0x865 JUMPI DUP3 DUP8 ADD MLOAD SWAP1 POP JUMPDEST PUSH2 0x86F DUP6 DUP3 PUSH2 0x7F4 JUMP JUMPDEST DUP7 SSTORE POP PUSH2 0x8D6 JUMP JUMPDEST PUSH1 0x1F NOT DUP5 AND PUSH2 0x885 DUP7 PUSH2 0x669 JUMP JUMPDEST PUSH0 JUMPDEST DUP3 DUP2 LT ISZERO PUSH2 0x8AC JUMPI DUP5 DUP10 ADD MLOAD DUP3 SSTORE PUSH1 0x1 DUP3 ADD SWAP2 POP PUSH1 0x20 DUP6 ADD SWAP5 POP PUSH1 0x20 DUP2 ADD SWAP1 POP PUSH2 0x887 JUMP JUMPDEST DUP7 DUP4 LT ISZERO PUSH2 0x8C9 JUMPI DUP5 DUP10 ADD MLOAD PUSH2 0x8C5 PUSH1 0x1F DUP10 AND DUP3 PUSH2 0x7D8 JUMP JUMPDEST DUP4 SSTORE POP JUMPDEST PUSH1 0x1 PUSH1 0x2 DUP9 MUL ADD DUP9 SSTORE POP POP POP JUMPDEST POP POP POP POP POP POP JUMP INVALID LOG2 PUSH5 0x6970667358 0x22 SLT KECCAK256 CALLVALUE 0xD0 0xE SHR 0xDC 0xD8 DUP14 0xBE DUP8 ADDRESS 0xC4 0xC9 0xCC 0xE2 PUSH32 0x2E8DB958C8EEFC4B33A7278F3EE431609564736F6C634300081A003300000000 "
				},
				"gasEstimates": {
					"creation": {
						"codeDepositCost": "464800",
						"executionCost": "497",
						"totalCost": "465297"
					},
					"external": {
						"IsAgree(string)": "infinite",
						"setUser((string,address,string,string,bool))": "infinite"
					}
				},
				"methodIdentifiers": {
					"IsAgree(string)": "0a9851c4",
					"setUser((string,address,string,string,bool))": "c358e2a6"
				}
			},
			"storageLayout": {
				"storage": [
					{
						"astId": 15,
						"contract": "Coding test/test8.sol:TEST8",
						"label": "agree",
						"offset": 0,
						"slot": "0",
						"type": "t_array(t_address)dyn_storage"
					},
					{
						"astId": 18,
						"contract": "Coding test/test8.sol:TEST8",
						"label": "disagree",
						"offset": 0,
						"slot": "1",
						"type": "t_array(t_address)dyn_storage"
					},
					{
						"astId": 22,
						"contract": "Coding test/test8.sol:TEST8",
						"label": "matters",
						"offset": 0,
						"slot": "2",
						"type": "t_array(t_struct(matter)12_storage)dyn_storage"
					},
					{
						"astId": 37,
						"contract": "Coding test/test8.sol:TEST8",
						"label": "users",
						"offset": 0,
						"slot": "3",
						"type": "t_array(t_struct(user)33_storage)dyn_storage"
					},
					{
						"astId": 41,
						"contract": "Coding test/test8.sol:TEST8",
						"label": "isAgree",
						"offset": 0,
						"slot": "4",
						"type": "t_mapping(t_string_memory_ptr,t_bool)"
					}
				],
				"types": {
					"t_address": {
						"encoding": "inplace",
						"label": "address",
						"numberOfBytes": "20"
					},
					"t_array(t_address)dyn_storage": {
						"base": "t_address",
						"encoding": "dynamic_array",
						"label": "address[]",
						"numberOfBytes": "32"
					},
					"t_array(t_struct(matter)12_storage)dyn_storage": {
						"base": "t_struct(matter)12_storage",
						"encoding": "dynamic_array",
						"label": "struct TEST8.matter[]",
						"numberOfBytes": "32"
					},
					"t_array(t_struct(user)33_storage)dyn_storage": {
						"base": "t_struct(user)33_storage",
						"encoding": "dynamic_array",
						"label": "struct TEST8.user[]",
						"numberOfBytes": "32"
					},
					"t_bool": {
						"encoding": "inplace",
						"label": "bool",
						"numberOfBytes": "1"
					},
					"t_mapping(t_string_memory_ptr,t_bool)": {
						"encoding": "mapping",
						"key": "t_string_memory_ptr",
						"label": "mapping(string => bool)",
						"numberOfBytes": "32",
						"value": "t_bool"
					},
					"t_string_memory_ptr": {
						"encoding": "bytes",
						"label": "string",
						"numberOfBytes": "32"
					},
					"t_string_storage": {
						"encoding": "bytes",
						"label": "string",
						"numberOfBytes": "32"
					},
					"t_struct(matter)12_storage": {
						"encoding": "inplace",
						"label": "struct TEST8.matter",
						"members": [
							{
								"astId": 3,
								"contract": "Coding test/test8.sol:TEST8",
								"label": "num",
								"offset": 0,
								"slot": "0",
								"type": "t_uint256"
							},
							{
								"astId": 5,
								"contract": "Coding test/test8.sol:TEST8",
								"label": "title",
								"offset": 0,
								"slot": "1",
								"type": "t_string_storage"
							},
							{
								"astId": 7,
								"contract": "Coding test/test8.sol:TEST8",
								"label": "addr",
								"offset": 0,
								"slot": "2",
								"type": "t_address"
							},
							{
								"astId": 9,
								"contract": "Coding test/test8.sol:TEST8",
								"label": "agree",
								"offset": 0,
								"slot": "3",
								"type": "t_uint256"
							},
							{
								"astId": 11,
								"contract": "Coding test/test8.sol:TEST8",
								"label": "disagree",
								"offset": 0,
								"slot": "4",
								"type": "t_uint256"
							}
						],
						"numberOfBytes": "160"
					},
					"t_struct(user)33_storage": {
						"encoding": "inplace",
						"label": "struct TEST8.user",
						"members": [
							{
								"astId": 24,
								"contract": "Coding test/test8.sol:TEST8",
								"label": "name",
								"offset": 0,
								"slot": "0",
								"type": "t_string_storage"
							},
							{
								"astId": 26,
								"contract": "Coding test/test8.sol:TEST8",
								"label": "addr",
								"offset": 0,
								"slot": "1",
								"type": "t_address"
							},
							{
								"astId": 28,
								"contract": "Coding test/test8.sol:TEST8",
								"label": "title",
								"offset": 0,
								"slot": "2",
								"type": "t_string_storage"
							},
							{
								"astId": 30,
								"contract": "Coding test/test8.sol:TEST8",
								"label": "vote",
								"offset": 0,
								"slot": "3",
								"type": "t_string_storage"
							},
							{
								"astId": 32,
								"contract": "Coding test/test8.sol:TEST8",
								"label": "isAgree",
								"offset": 0,
								"slot": "4",
								"type": "t_bool"
							}
						],
						"numberOfBytes": "160"
					},
					"t_uint256": {
						"encoding": "inplace",
						"label": "uint256",
						"numberOfBytes": "32"
					}
				}
			},
			"userdoc": {
				"kind": "user",
				"methods": {},
				"version": 1
			}
		}
	}
}