{
	"Coding test/test8.sol": {
		"TEST8": {
			"abi": [
				{
					"inputs": [
						{
							"internalType": "string",
							"name": "_isAgree",
							"type": "string"
						}
					],
					"name": "IsAgree",
					"outputs": [],
					"stateMutability": "nonpayable",
					"type": "function"
				},
				{
					"inputs": [
						{
							"components": [
								{
									"internalType": "string",
									"name": "name",
									"type": "string"
								},
								{
									"internalType": "address",
									"name": "addr",
									"type": "address"
								},
								{
									"internalType": "string",
									"name": "title",
									"type": "string"
								},
								{
									"internalType": "string",
									"name": "vote",
									"type": "string"
								},
								{
									"internalType": "bool",
									"name": "isAgree",
									"type": "bool"
								}
							],
							"internalType": "struct TEST8.user",
							"name": "_user",
							"type": "tuple"
						}
					],
					"name": "setUser",
					"outputs": [],
					"stateMutability": "nonpayable",
					"type": "function"
				}
			],
			"devdoc": {
				"kind": "dev",
				"methods": {},
				"version": 1
			},
			"evm": {
				"assembly": "    /* \"Coding test/test8.sol\":78:2482  contract TEST8 {... */\n  mstore(0x40, 0x80)\n  callvalue\n  dup1\n  iszero\n  tag_1\n  jumpi\n  0x00\n  dup1\n  revert\ntag_1:\n  pop\n  dataSize(sub_0)\n  dup1\n  dataOffset(sub_0)\n  0x00\n  codecopy\n  0x00\n  return\nstop\n\nsub_0: assembly {\n        /* \"Coding test/test8.sol\":78:2482  contract TEST8 {... */\n      mstore(0x40, 0x80)\n      callvalue\n      dup1\n      iszero\n      tag_1\n      jumpi\n      0x00\n      dup1\n      revert\n    tag_1:\n      pop\n      jumpi(tag_2, lt(calldatasize, 0x04))\n      shr(0xe0, calldataload(0x00))\n      dup1\n      0x0a9851c4\n      eq\n      tag_3\n      jumpi\n      dup1\n      0xc358e2a6\n      eq\n      tag_4\n      jumpi\n    tag_2:\n      0x00\n      dup1\n      revert\n        /* \"Coding test/test8.sol\":2112:2463  function IsAgree(string memory _isAgree) public {... */\n    tag_3:\n      tag_5\n      0x04\n      dup1\n      calldatasize\n      sub\n      dup2\n      add\n      swap1\n      tag_6\n      swap2\n      swap1\n      tag_7\n      jump\t// in\n    tag_6:\n      tag_8\n      jump\t// in\n    tag_5:\n      stop\n        /* \"Coding test/test8.sol\":2025:2104  function setUser(user memory _user) public {... */\n    tag_4:\n      tag_9\n      0x04\n      dup1\n      calldatasize\n      sub\n      dup2\n      add\n      swap1\n      tag_10\n      swap2\n      swap1\n      tag_11\n      jump\t// in\n    tag_10:\n      tag_12\n      jump\t// in\n    tag_9:\n      stop\n        /* \"Coding test/test8.sol\":2112:2463  function IsAgree(string memory _isAgree) public {... */\n    tag_8:\n        /* \"Coding test/test8.sol\":2235:2260  abi.encodePacked(\"agree\") */\n      add(0x20, mload(0x40))\n      tag_14\n      swap1\n      tag_15\n      jump\t// in\n    tag_14:\n      mload(0x40)\n      0x20\n      dup2\n      dup4\n      sub\n      sub\n      dup2\n      mstore\n      swap1\n      0x40\n      mstore\n        /* \"Coding test/test8.sol\":2225:2261  keccak256(abi.encodePacked(\"agree\")) */\n      dup1\n      mload\n      swap1\n      0x20\n      add\n      keccak256\n        /* \"Coding test/test8.sol\":2211:2219  _isAgree */\n      dup2\n        /* \"Coding test/test8.sol\":2194:2220  abi.encodePacked(_isAgree) */\n      add(0x20, mload(0x40))\n      tag_16\n      swap2\n      swap1\n      tag_17\n      jump\t// in\n    tag_16:\n      mload(0x40)\n      0x20\n      dup2\n      dup4\n      sub\n      sub\n      dup2\n      mstore\n      swap1\n      0x40\n      mstore\n        /* \"Coding test/test8.sol\":2184:2221  keccak256(abi.encodePacked(_isAgree)) */\n      dup1\n      mload\n      swap1\n      0x20\n      add\n      keccak256\n        /* \"Coding test/test8.sol\":2184:2261  keccak256(abi.encodePacked(_isAgree)) == keccak256(abi.encodePacked(\"agree\")) */\n      sub\n        /* \"Coding test/test8.sol\":2180:2456  if (keccak256(abi.encodePacked(_isAgree)) == keccak256(abi.encodePacked(\"agree\"))) {... */\n      tag_18\n      jumpi\n        /* \"Coding test/test8.sol\":2278:2283  agree */\n      0x00\n        /* \"Coding test/test8.sol\":2289:2299  msg.sender */\n      caller\n        /* \"Coding test/test8.sol\":2278:2300  agree.push(msg.sender) */\n      swap1\n      dup1\n      0x01\n      dup2\n      sload\n      add\n      dup1\n      dup3\n      sstore\n      dup1\n      swap2\n      pop\n      pop\n      0x01\n      swap1\n      sub\n      swap1\n      0x00\n      mstore\n      keccak256(0x00, 0x20)\n      add\n      0x00\n      swap1\n      swap2\n      swap1\n      swap2\n      swap1\n      swap2\n      0x0100\n      exp\n      dup2\n      sload\n      dup2\n      0xffffffffffffffffffffffffffffffffffffffff\n      mul\n      not\n      and\n      swap1\n      dup4\n      0xffffffffffffffffffffffffffffffffffffffff\n      and\n      mul\n      or\n      swap1\n      sstore\n      pop\n        /* \"Coding test/test8.sol\":2180:2456  if (keccak256(abi.encodePacked(_isAgree)) == keccak256(abi.encodePacked(\"agree\"))) {... */\n      jump(tag_20)\n    tag_18:\n        /* \"Coding test/test8.sol\":2373:2401  abi.encodePacked(\"disagree\") */\n      add(0x20, mload(0x40))\n      tag_21\n      swap1\n      tag_22\n      jump\t// in\n    tag_21:\n      mload(0x40)\n      0x20\n      dup2\n      dup4\n      sub\n      sub\n      dup2\n      mstore\n      swap1\n      0x40\n      mstore\n        /* \"Coding test/test8.sol\":2363:2402  keccak256(abi.encodePacked(\"disagree\")) */\n      dup1\n      mload\n      swap1\n      0x20\n      add\n      keccak256\n        /* \"Coding test/test8.sol\":2349:2357  _isAgree */\n      dup2\n        /* \"Coding test/test8.sol\":2332:2358  abi.encodePacked(_isAgree) */\n      add(0x20, mload(0x40))\n      tag_23\n      swap2\n      swap1\n      tag_17\n      jump\t// in\n    tag_23:\n      mload(0x40)\n      0x20\n      dup2\n      dup4\n      sub\n      sub\n      dup2\n      mstore\n      swap1\n      0x40\n      mstore\n        /* \"Coding test/test8.sol\":2322:2359  keccak256(abi.encodePacked(_isAgree)) */\n      dup1\n      mload\n      swap1\n      0x20\n      add\n      keccak256\n        /* \"Coding test/test8.sol\":2322:2402  keccak256(abi.encodePacked(_isAgree)) == keccak256(abi.encodePacked(\"disagree\")) */\n      sub\n        /* \"Coding test/test8.sol\":2318:2456  if (keccak256(abi.encodePacked(_isAgree)) == keccak256(abi.encodePacked(\"disagree\"))) {... */\n      tag_24\n      jumpi\n        /* \"Coding test/test8.sol\":2419:2427  disagree */\n      0x01\n        /* \"Coding test/test8.sol\":2433:2443  msg.sender */\n      caller\n        /* \"Coding test/test8.sol\":2419:2444  disagree.push(msg.sender) */\n      swap1\n      dup1\n      0x01\n      dup2\n      sload\n      add\n      dup1\n      dup3\n      sstore\n      dup1\n      swap2\n      pop\n      pop\n      0x01\n      swap1\n      sub\n      swap1\n      0x00\n      mstore\n      keccak256(0x00, 0x20)\n      add\n      0x00\n      swap1\n      swap2\n      swap1\n      swap2\n      swap1\n      swap2\n      0x0100\n      exp\n      dup2\n      sload\n      dup2\n      0xffffffffffffffffffffffffffffffffffffffff\n      mul\n      not\n      and\n      swap1\n      dup4\n      0xffffffffffffffffffffffffffffffffffffffff\n      and\n      mul\n      or\n      swap1\n      sstore\n      pop\n        /* \"Coding test/test8.sol\":2318:2456  if (keccak256(abi.encodePacked(_isAgree)) == keccak256(abi.encodePacked(\"disagree\"))) {... */\n    tag_24:\n        /* \"Coding test/test8.sol\":2180:2456  if (keccak256(abi.encodePacked(_isAgree)) == keccak256(abi.encodePacked(\"agree\"))) {... */\n    tag_20:\n        /* \"Coding test/test8.sol\":2112:2463  function IsAgree(string memory _isAgree) public {... */\n      pop\n      jump\t// out\n        /* \"Coding test/test8.sol\":2025:2104  function setUser(user memory _user) public {... */\n    tag_12:\n        /* \"Coding test/test8.sol\":2079:2084  users */\n      0x03\n        /* \"Coding test/test8.sol\":2090:2095  _user */\n      dup2\n        /* \"Coding test/test8.sol\":2079:2096  users.push(_user) */\n      swap1\n      dup1\n      0x01\n      dup2\n      sload\n      add\n      dup1\n      dup3\n      sstore\n      dup1\n      swap2\n      pop\n      pop\n      0x01\n      swap1\n      sub\n      swap1\n      0x00\n      mstore\n      keccak256(0x00, 0x20)\n      swap1\n      0x05\n      mul\n      add\n      0x00\n      swap1\n      swap2\n      swap1\n      swap2\n      swap1\n      swap2\n      pop\n      0x00\n      dup3\n      add\n      mload\n      dup2\n      0x00\n      add\n      swap1\n      dup2\n      tag_28\n      swap2\n      swap1\n      tag_29\n      jump\t// in\n    tag_28:\n      pop\n      0x20\n      dup3\n      add\n      mload\n      dup2\n      0x01\n      add\n      exp(0x0100, 0x00)\n      dup2\n      sload\n      dup2\n      0xffffffffffffffffffffffffffffffffffffffff\n      mul\n      not\n      and\n      swap1\n      dup4\n      0xffffffffffffffffffffffffffffffffffffffff\n      and\n      mul\n      or\n      swap1\n      sstore\n      pop\n      0x40\n      dup3\n      add\n      mload\n      dup2\n      0x02\n      add\n      swap1\n      dup2\n      tag_30\n      swap2\n      swap1\n      tag_29\n      jump\t// in\n    tag_30:\n      pop\n      0x60\n      dup3\n      add\n      mload\n      dup2\n      0x03\n      add\n      swap1\n      dup2\n      tag_31\n      swap2\n      swap1\n      tag_29\n      jump\t// in\n    tag_31:\n      pop\n      0x80\n      dup3\n      add\n      mload\n      dup2\n      0x04\n      add\n      exp(0x0100, 0x00)\n      dup2\n      sload\n      dup2\n      0xff\n      mul\n      not\n      and\n      swap1\n      dup4\n      iszero\n      iszero\n      mul\n      or\n      swap1\n      sstore\n      pop\n      pop\n      pop\n        /* \"Coding test/test8.sol\":2025:2104  function setUser(user memory _user) public {... */\n      pop\n      jump\t// out\n        /* \"#utility.yul\":7:82   */\n    tag_32:\n        /* \"#utility.yul\":40:46   */\n      0x00\n        /* \"#utility.yul\":73:75   */\n      0x40\n        /* \"#utility.yul\":67:76   */\n      mload\n        /* \"#utility.yul\":57:76   */\n      swap1\n      pop\n        /* \"#utility.yul\":7:82   */\n      swap1\n      jump\t// out\n        /* \"#utility.yul\":88:205   */\n    tag_33:\n        /* \"#utility.yul\":197:198   */\n      0x00\n        /* \"#utility.yul\":194:195   */\n      dup1\n        /* \"#utility.yul\":187:199   */\n      revert\n        /* \"#utility.yul\":211:328   */\n    tag_34:\n        /* \"#utility.yul\":320:321   */\n      0x00\n        /* \"#utility.yul\":317:318   */\n      dup1\n        /* \"#utility.yul\":310:322   */\n      revert\n        /* \"#utility.yul\":334:451   */\n    tag_35:\n        /* \"#utility.yul\":443:444   */\n      0x00\n        /* \"#utility.yul\":440:441   */\n      dup1\n        /* \"#utility.yul\":433:445   */\n      revert\n        /* \"#utility.yul\":457:574   */\n    tag_36:\n        /* \"#utility.yul\":566:567   */\n      0x00\n        /* \"#utility.yul\":563:564   */\n      dup1\n        /* \"#utility.yul\":556:568   */\n      revert\n        /* \"#utility.yul\":580:682   */\n    tag_37:\n        /* \"#utility.yul\":621:627   */\n      0x00\n        /* \"#utility.yul\":672:674   */\n      0x1f\n        /* \"#utility.yul\":668:675   */\n      not\n        /* \"#utility.yul\":663:665   */\n      0x1f\n        /* \"#utility.yul\":656:661   */\n      dup4\n        /* \"#utility.yul\":652:666   */\n      add\n        /* \"#utility.yul\":648:676   */\n      and\n        /* \"#utility.yul\":638:676   */\n      swap1\n      pop\n        /* \"#utility.yul\":580:682   */\n      swap2\n      swap1\n      pop\n      jump\t// out\n        /* \"#utility.yul\":688:868   */\n    tag_38:\n        /* \"#utility.yul\":736:813   */\n      0x4e487b7100000000000000000000000000000000000000000000000000000000\n        /* \"#utility.yul\":733:734   */\n      0x00\n        /* \"#utility.yul\":726:814   */\n      mstore\n        /* \"#utility.yul\":833:837   */\n      0x41\n        /* \"#utility.yul\":830:831   */\n      0x04\n        /* \"#utility.yul\":823:838   */\n      mstore\n        /* \"#utility.yul\":857:861   */\n      0x24\n        /* \"#utility.yul\":854:855   */\n      0x00\n        /* \"#utility.yul\":847:862   */\n      revert\n        /* \"#utility.yul\":874:1155   */\n    tag_39:\n        /* \"#utility.yul\":957:984   */\n      tag_90\n        /* \"#utility.yul\":979:983   */\n      dup3\n        /* \"#utility.yul\":957:984   */\n      tag_37\n      jump\t// in\n    tag_90:\n        /* \"#utility.yul\":949:955   */\n      dup2\n        /* \"#utility.yul\":945:985   */\n      add\n        /* \"#utility.yul\":1087:1093   */\n      dup2\n        /* \"#utility.yul\":1075:1085   */\n      dup2\n        /* \"#utility.yul\":1072:1094   */\n      lt\n        /* \"#utility.yul\":1051:1069   */\n      0xffffffffffffffff\n        /* \"#utility.yul\":1039:1049   */\n      dup3\n        /* \"#utility.yul\":1036:1070   */\n      gt\n        /* \"#utility.yul\":1033:1095   */\n      or\n        /* \"#utility.yul\":1030:1118   */\n      iszero\n      tag_91\n      jumpi\n        /* \"#utility.yul\":1098:1116   */\n      tag_92\n      tag_38\n      jump\t// in\n    tag_92:\n        /* \"#utility.yul\":1030:1118   */\n    tag_91:\n        /* \"#utility.yul\":1138:1148   */\n      dup1\n        /* \"#utility.yul\":1134:1136   */\n      0x40\n        /* \"#utility.yul\":1127:1149   */\n      mstore\n        /* \"#utility.yul\":917:1155   */\n      pop\n        /* \"#utility.yul\":874:1155   */\n      pop\n      pop\n      jump\t// out\n        /* \"#utility.yul\":1161:1290   */\n    tag_40:\n        /* \"#utility.yul\":1195:1201   */\n      0x00\n        /* \"#utility.yul\":1222:1242   */\n      tag_94\n      tag_32\n      jump\t// in\n    tag_94:\n        /* \"#utility.yul\":1212:1242   */\n      swap1\n      pop\n        /* \"#utility.yul\":1251:1284   */\n      tag_95\n        /* \"#utility.yul\":1279:1283   */\n      dup3\n        /* \"#utility.yul\":1271:1277   */\n      dup3\n        /* \"#utility.yul\":1251:1284   */\n      tag_39\n      jump\t// in\n    tag_95:\n        /* \"#utility.yul\":1161:1290   */\n      swap2\n      swap1\n      pop\n      jump\t// out\n        /* \"#utility.yul\":1296:1604   */\n    tag_41:\n        /* \"#utility.yul\":1358:1362   */\n      0x00\n        /* \"#utility.yul\":1448:1466   */\n      0xffffffffffffffff\n        /* \"#utility.yul\":1440:1446   */\n      dup3\n        /* \"#utility.yul\":1437:1467   */\n      gt\n        /* \"#utility.yul\":1434:1490   */\n      iszero\n      tag_97\n      jumpi\n        /* \"#utility.yul\":1470:1488   */\n      tag_98\n      tag_38\n      jump\t// in\n    tag_98:\n        /* \"#utility.yul\":1434:1490   */\n    tag_97:\n        /* \"#utility.yul\":1508:1537   */\n      tag_99\n        /* \"#utility.yul\":1530:1536   */\n      dup3\n        /* \"#utility.yul\":1508:1537   */\n      tag_37\n      jump\t// in\n    tag_99:\n        /* \"#utility.yul\":1500:1537   */\n      swap1\n      pop\n        /* \"#utility.yul\":1592:1596   */\n      0x20\n        /* \"#utility.yul\":1586:1590   */\n      dup2\n        /* \"#utility.yul\":1582:1597   */\n      add\n        /* \"#utility.yul\":1574:1597   */\n      swap1\n      pop\n        /* \"#utility.yul\":1296:1604   */\n      swap2\n      swap1\n      pop\n      jump\t// out\n        /* \"#utility.yul\":1610:1758   */\n    tag_42:\n        /* \"#utility.yul\":1708:1714   */\n      dup3\n        /* \"#utility.yul\":1703:1706   */\n      dup2\n        /* \"#utility.yul\":1698:1701   */\n      dup4\n        /* \"#utility.yul\":1685:1715   */\n      calldatacopy\n        /* \"#utility.yul\":1749:1750   */\n      0x00\n        /* \"#utility.yul\":1740:1746   */\n      dup4\n        /* \"#utility.yul\":1735:1738   */\n      dup4\n        /* \"#utility.yul\":1731:1747   */\n      add\n        /* \"#utility.yul\":1724:1751   */\n      mstore\n        /* \"#utility.yul\":1610:1758   */\n      pop\n      pop\n      pop\n      jump\t// out\n        /* \"#utility.yul\":1764:2189   */\n    tag_43:\n        /* \"#utility.yul\":1842:1847   */\n      0x00\n        /* \"#utility.yul\":1867:1933   */\n      tag_102\n        /* \"#utility.yul\":1883:1932   */\n      tag_103\n        /* \"#utility.yul\":1925:1931   */\n      dup5\n        /* \"#utility.yul\":1883:1932   */\n      tag_41\n      jump\t// in\n    tag_103:\n        /* \"#utility.yul\":1867:1933   */\n      tag_40\n      jump\t// in\n    tag_102:\n        /* \"#utility.yul\":1858:1933   */\n      swap1\n      pop\n        /* \"#utility.yul\":1956:1962   */\n      dup3\n        /* \"#utility.yul\":1949:1954   */\n      dup2\n        /* \"#utility.yul\":1942:1963   */\n      mstore\n        /* \"#utility.yul\":1994:1998   */\n      0x20\n        /* \"#utility.yul\":1987:1992   */\n      dup2\n        /* \"#utility.yul\":1983:1999   */\n      add\n        /* \"#utility.yul\":2032:2035   */\n      dup5\n        /* \"#utility.yul\":2023:2029   */\n      dup5\n        /* \"#utility.yul\":2018:2021   */\n      dup5\n        /* \"#utility.yul\":2014:2030   */\n      add\n        /* \"#utility.yul\":2011:2036   */\n      gt\n        /* \"#utility.yul\":2008:2120   */\n      iszero\n      tag_104\n      jumpi\n        /* \"#utility.yul\":2039:2118   */\n      tag_105\n      tag_36\n      jump\t// in\n    tag_105:\n        /* \"#utility.yul\":2008:2120   */\n    tag_104:\n        /* \"#utility.yul\":2129:2183   */\n      tag_106\n        /* \"#utility.yul\":2176:2182   */\n      dup5\n        /* \"#utility.yul\":2171:2174   */\n      dup3\n        /* \"#utility.yul\":2166:2169   */\n      dup6\n        /* \"#utility.yul\":2129:2183   */\n      tag_42\n      jump\t// in\n    tag_106:\n        /* \"#utility.yul\":1848:2189   */\n      pop\n        /* \"#utility.yul\":1764:2189   */\n      swap4\n      swap3\n      pop\n      pop\n      pop\n      jump\t// out\n        /* \"#utility.yul\":2209:2549   */\n    tag_44:\n        /* \"#utility.yul\":2265:2270   */\n      0x00\n        /* \"#utility.yul\":2314:2317   */\n      dup3\n        /* \"#utility.yul\":2307:2311   */\n      0x1f\n        /* \"#utility.yul\":2299:2305   */\n      dup4\n        /* \"#utility.yul\":2295:2312   */\n      add\n        /* \"#utility.yul\":2291:2318   */\n      slt\n        /* \"#utility.yul\":2281:2403   */\n      tag_108\n      jumpi\n        /* \"#utility.yul\":2322:2401   */\n      tag_109\n      tag_35\n      jump\t// in\n    tag_109:\n        /* \"#utility.yul\":2281:2403   */\n    tag_108:\n        /* \"#utility.yul\":2439:2445   */\n      dup2\n        /* \"#utility.yul\":2426:2446   */\n      calldataload\n        /* \"#utility.yul\":2464:2543   */\n      tag_110\n        /* \"#utility.yul\":2539:2542   */\n      dup5\n        /* \"#utility.yul\":2531:2537   */\n      dup3\n        /* \"#utility.yul\":2524:2528   */\n      0x20\n        /* \"#utility.yul\":2516:2522   */\n      dup7\n        /* \"#utility.yul\":2512:2529   */\n      add\n        /* \"#utility.yul\":2464:2543   */\n      tag_43\n      jump\t// in\n    tag_110:\n        /* \"#utility.yul\":2455:2543   */\n      swap2\n      pop\n        /* \"#utility.yul\":2271:2549   */\n      pop\n        /* \"#utility.yul\":2209:2549   */\n      swap3\n      swap2\n      pop\n      pop\n      jump\t// out\n        /* \"#utility.yul\":2555:3064   */\n    tag_7:\n        /* \"#utility.yul\":2624:2630   */\n      0x00\n        /* \"#utility.yul\":2673:2675   */\n      0x20\n        /* \"#utility.yul\":2661:2670   */\n      dup3\n        /* \"#utility.yul\":2652:2659   */\n      dup5\n        /* \"#utility.yul\":2648:2671   */\n      sub\n        /* \"#utility.yul\":2644:2676   */\n      slt\n        /* \"#utility.yul\":2641:2760   */\n      iszero\n      tag_112\n      jumpi\n        /* \"#utility.yul\":2679:2758   */\n      tag_113\n      tag_33\n      jump\t// in\n    tag_113:\n        /* \"#utility.yul\":2641:2760   */\n    tag_112:\n        /* \"#utility.yul\":2827:2828   */\n      0x00\n        /* \"#utility.yul\":2816:2825   */\n      dup3\n        /* \"#utility.yul\":2812:2829   */\n      add\n        /* \"#utility.yul\":2799:2830   */\n      calldataload\n        /* \"#utility.yul\":2857:2875   */\n      0xffffffffffffffff\n        /* \"#utility.yul\":2849:2855   */\n      dup2\n        /* \"#utility.yul\":2846:2876   */\n      gt\n        /* \"#utility.yul\":2843:2960   */\n      iszero\n      tag_114\n      jumpi\n        /* \"#utility.yul\":2879:2958   */\n      tag_115\n      tag_34\n      jump\t// in\n    tag_115:\n        /* \"#utility.yul\":2843:2960   */\n    tag_114:\n        /* \"#utility.yul\":2984:3047   */\n      tag_116\n        /* \"#utility.yul\":3039:3046   */\n      dup5\n        /* \"#utility.yul\":3030:3036   */\n      dup3\n        /* \"#utility.yul\":3019:3028   */\n      dup6\n        /* \"#utility.yul\":3015:3037   */\n      add\n        /* \"#utility.yul\":2984:3047   */\n      tag_44\n      jump\t// in\n    tag_116:\n        /* \"#utility.yul\":2974:3047   */\n      swap2\n      pop\n        /* \"#utility.yul\":2770:3057   */\n      pop\n        /* \"#utility.yul\":2555:3064   */\n      swap3\n      swap2\n      pop\n      pop\n      jump\t// out\n        /* \"#utility.yul\":3070:3187   */\n    tag_45:\n        /* \"#utility.yul\":3179:3180   */\n      0x00\n        /* \"#utility.yul\":3176:3177   */\n      dup1\n        /* \"#utility.yul\":3169:3181   */\n      revert\n        /* \"#utility.yul\":3193:3310   */\n    tag_46:\n        /* \"#utility.yul\":3302:3303   */\n      0x00\n        /* \"#utility.yul\":3299:3300   */\n      dup1\n        /* \"#utility.yul\":3292:3304   */\n      revert\n        /* \"#utility.yul\":3316:3442   */\n    tag_47:\n        /* \"#utility.yul\":3353:3360   */\n      0x00\n        /* \"#utility.yul\":3393:3435   */\n      0xffffffffffffffffffffffffffffffffffffffff\n        /* \"#utility.yul\":3386:3391   */\n      dup3\n        /* \"#utility.yul\":3382:3436   */\n      and\n        /* \"#utility.yul\":3371:3436   */\n      swap1\n      pop\n        /* \"#utility.yul\":3316:3442   */\n      swap2\n      swap1\n      pop\n      jump\t// out\n        /* \"#utility.yul\":3448:3544   */\n    tag_48:\n        /* \"#utility.yul\":3485:3492   */\n      0x00\n        /* \"#utility.yul\":3514:3538   */\n      tag_121\n        /* \"#utility.yul\":3532:3537   */\n      dup3\n        /* \"#utility.yul\":3514:3538   */\n      tag_47\n      jump\t// in\n    tag_121:\n        /* \"#utility.yul\":3503:3538   */\n      swap1\n      pop\n        /* \"#utility.yul\":3448:3544   */\n      swap2\n      swap1\n      pop\n      jump\t// out\n        /* \"#utility.yul\":3550:3672   */\n    tag_49:\n        /* \"#utility.yul\":3623:3647   */\n      tag_123\n        /* \"#utility.yul\":3641:3646   */\n      dup2\n        /* \"#utility.yul\":3623:3647   */\n      tag_48\n      jump\t// in\n    tag_123:\n        /* \"#utility.yul\":3616:3621   */\n      dup2\n        /* \"#utility.yul\":3613:3648   */\n      eq\n        /* \"#utility.yul\":3603:3666   */\n      tag_124\n      jumpi\n        /* \"#utility.yul\":3662:3663   */\n      0x00\n        /* \"#utility.yul\":3659:3660   */\n      dup1\n        /* \"#utility.yul\":3652:3664   */\n      revert\n        /* \"#utility.yul\":3603:3666   */\n    tag_124:\n        /* \"#utility.yul\":3550:3672   */\n      pop\n      jump\t// out\n        /* \"#utility.yul\":3678:3817   */\n    tag_50:\n        /* \"#utility.yul\":3724:3729   */\n      0x00\n        /* \"#utility.yul\":3762:3768   */\n      dup2\n        /* \"#utility.yul\":3749:3769   */\n      calldataload\n        /* \"#utility.yul\":3740:3769   */\n      swap1\n      pop\n        /* \"#utility.yul\":3778:3811   */\n      tag_126\n        /* \"#utility.yul\":3805:3810   */\n      dup2\n        /* \"#utility.yul\":3778:3811   */\n      tag_49\n      jump\t// in\n    tag_126:\n        /* \"#utility.yul\":3678:3817   */\n      swap3\n      swap2\n      pop\n      pop\n      jump\t// out\n        /* \"#utility.yul\":3823:3913   */\n    tag_51:\n        /* \"#utility.yul\":3857:3864   */\n      0x00\n        /* \"#utility.yul\":3900:3905   */\n      dup2\n        /* \"#utility.yul\":3893:3906   */\n      iszero\n        /* \"#utility.yul\":3886:3907   */\n      iszero\n        /* \"#utility.yul\":3875:3907   */\n      swap1\n      pop\n        /* \"#utility.yul\":3823:3913   */\n      swap2\n      swap1\n      pop\n      jump\t// out\n        /* \"#utility.yul\":3919:4035   */\n    tag_52:\n        /* \"#utility.yul\":3989:4010   */\n      tag_129\n        /* \"#utility.yul\":4004:4009   */\n      dup2\n        /* \"#utility.yul\":3989:4010   */\n      tag_51\n      jump\t// in\n    tag_129:\n        /* \"#utility.yul\":3982:3987   */\n      dup2\n        /* \"#utility.yul\":3979:4011   */\n      eq\n        /* \"#utility.yul\":3969:4029   */\n      tag_130\n      jumpi\n        /* \"#utility.yul\":4025:4026   */\n      0x00\n        /* \"#utility.yul\":4022:4023   */\n      dup1\n        /* \"#utility.yul\":4015:4027   */\n      revert\n        /* \"#utility.yul\":3969:4029   */\n    tag_130:\n        /* \"#utility.yul\":3919:4035   */\n      pop\n      jump\t// out\n        /* \"#utility.yul\":4041:4174   */\n    tag_53:\n        /* \"#utility.yul\":4084:4089   */\n      0x00\n        /* \"#utility.yul\":4122:4128   */\n      dup2\n        /* \"#utility.yul\":4109:4129   */\n      calldataload\n        /* \"#utility.yul\":4100:4129   */\n      swap1\n      pop\n        /* \"#utility.yul\":4138:4168   */\n      tag_132\n        /* \"#utility.yul\":4162:4167   */\n      dup2\n        /* \"#utility.yul\":4138:4168   */\n      tag_52\n      jump\t// in\n    tag_132:\n        /* \"#utility.yul\":4041:4174   */\n      swap3\n      swap2\n      pop\n      pop\n      jump\t// out\n        /* \"#utility.yul\":4205:5769   */\n    tag_54:\n        /* \"#utility.yul\":4274:4279   */\n      0x00\n        /* \"#utility.yul\":4318:4322   */\n      0xa0\n        /* \"#utility.yul\":4306:4315   */\n      dup3\n        /* \"#utility.yul\":4301:4304   */\n      dup5\n        /* \"#utility.yul\":4297:4316   */\n      sub\n        /* \"#utility.yul\":4293:4323   */\n      slt\n        /* \"#utility.yul\":4290:4407   */\n      iszero\n      tag_134\n      jumpi\n        /* \"#utility.yul\":4326:4405   */\n      tag_135\n      tag_45\n      jump\t// in\n    tag_135:\n        /* \"#utility.yul\":4290:4407   */\n    tag_134:\n        /* \"#utility.yul\":4425:4446   */\n      tag_136\n        /* \"#utility.yul\":4441:4445   */\n      0xa0\n        /* \"#utility.yul\":4425:4446   */\n      tag_40\n      jump\t// in\n    tag_136:\n        /* \"#utility.yul\":4416:4446   */\n      swap1\n      pop\n        /* \"#utility.yul\":4533:4534   */\n      0x00\n        /* \"#utility.yul\":4522:4531   */\n      dup3\n        /* \"#utility.yul\":4518:4535   */\n      add\n        /* \"#utility.yul\":4505:4536   */\n      calldataload\n        /* \"#utility.yul\":4563:4581   */\n      0xffffffffffffffff\n        /* \"#utility.yul\":4555:4561   */\n      dup2\n        /* \"#utility.yul\":4552:4582   */\n      gt\n        /* \"#utility.yul\":4549:4666   */\n      iszero\n      tag_137\n      jumpi\n        /* \"#utility.yul\":4585:4664   */\n      tag_138\n      tag_46\n      jump\t// in\n    tag_138:\n        /* \"#utility.yul\":4549:4666   */\n    tag_137:\n        /* \"#utility.yul\":4705:4764   */\n      tag_139\n        /* \"#utility.yul\":4760:4763   */\n      dup5\n        /* \"#utility.yul\":4751:4757   */\n      dup3\n        /* \"#utility.yul\":4740:4749   */\n      dup6\n        /* \"#utility.yul\":4736:4758   */\n      add\n        /* \"#utility.yul\":4705:4764   */\n      tag_44\n      jump\t// in\n    tag_139:\n        /* \"#utility.yul\":4698:4702   */\n      0x00\n        /* \"#utility.yul\":4691:4696   */\n      dup4\n        /* \"#utility.yul\":4687:4703   */\n      add\n        /* \"#utility.yul\":4680:4765   */\n      mstore\n        /* \"#utility.yul\":4456:4776   */\n      pop\n        /* \"#utility.yul\":4835:4837   */\n      0x20\n        /* \"#utility.yul\":4876:4925   */\n      tag_140\n        /* \"#utility.yul\":4921:4924   */\n      dup5\n        /* \"#utility.yul\":4912:4918   */\n      dup3\n        /* \"#utility.yul\":4901:4910   */\n      dup6\n        /* \"#utility.yul\":4897:4919   */\n      add\n        /* \"#utility.yul\":4876:4925   */\n      tag_50\n      jump\t// in\n    tag_140:\n        /* \"#utility.yul\":4869:4873   */\n      0x20\n        /* \"#utility.yul\":4862:4867   */\n      dup4\n        /* \"#utility.yul\":4858:4874   */\n      add\n        /* \"#utility.yul\":4851:4926   */\n      mstore\n        /* \"#utility.yul\":4786:4937   */\n      pop\n        /* \"#utility.yul\":5025:5027   */\n      0x40\n        /* \"#utility.yul\":5014:5023   */\n      dup3\n        /* \"#utility.yul\":5010:5028   */\n      add\n        /* \"#utility.yul\":4997:5029   */\n      calldataload\n        /* \"#utility.yul\":5056:5074   */\n      0xffffffffffffffff\n        /* \"#utility.yul\":5048:5054   */\n      dup2\n        /* \"#utility.yul\":5045:5075   */\n      gt\n        /* \"#utility.yul\":5042:5159   */\n      iszero\n      tag_141\n      jumpi\n        /* \"#utility.yul\":5078:5157   */\n      tag_142\n      tag_46\n      jump\t// in\n    tag_142:\n        /* \"#utility.yul\":5042:5159   */\n    tag_141:\n        /* \"#utility.yul\":5198:5257   */\n      tag_143\n        /* \"#utility.yul\":5253:5256   */\n      dup5\n        /* \"#utility.yul\":5244:5250   */\n      dup3\n        /* \"#utility.yul\":5233:5242   */\n      dup6\n        /* \"#utility.yul\":5229:5251   */\n      add\n        /* \"#utility.yul\":5198:5257   */\n      tag_44\n      jump\t// in\n    tag_143:\n        /* \"#utility.yul\":5191:5195   */\n      0x40\n        /* \"#utility.yul\":5184:5189   */\n      dup4\n        /* \"#utility.yul\":5180:5196   */\n      add\n        /* \"#utility.yul\":5173:5258   */\n      mstore\n        /* \"#utility.yul\":4947:5269   */\n      pop\n        /* \"#utility.yul\":5356:5358   */\n      0x60\n        /* \"#utility.yul\":5345:5354   */\n      dup3\n        /* \"#utility.yul\":5341:5359   */\n      add\n        /* \"#utility.yul\":5328:5360   */\n      calldataload\n        /* \"#utility.yul\":5387:5405   */\n      0xffffffffffffffff\n        /* \"#utility.yul\":5379:5385   */\n      dup2\n        /* \"#utility.yul\":5376:5406   */\n      gt\n        /* \"#utility.yul\":5373:5490   */\n      iszero\n      tag_144\n      jumpi\n        /* \"#utility.yul\":5409:5488   */\n      tag_145\n      tag_46\n      jump\t// in\n    tag_145:\n        /* \"#utility.yul\":5373:5490   */\n    tag_144:\n        /* \"#utility.yul\":5529:5588   */\n      tag_146\n        /* \"#utility.yul\":5584:5587   */\n      dup5\n        /* \"#utility.yul\":5575:5581   */\n      dup3\n        /* \"#utility.yul\":5564:5573   */\n      dup6\n        /* \"#utility.yul\":5560:5582   */\n      add\n        /* \"#utility.yul\":5529:5588   */\n      tag_44\n      jump\t// in\n    tag_146:\n        /* \"#utility.yul\":5522:5526   */\n      0x60\n        /* \"#utility.yul\":5515:5520   */\n      dup4\n        /* \"#utility.yul\":5511:5527   */\n      add\n        /* \"#utility.yul\":5504:5589   */\n      mstore\n        /* \"#utility.yul\":5279:5600   */\n      pop\n        /* \"#utility.yul\":5662:5665   */\n      0x80\n        /* \"#utility.yul\":5704:5750   */\n      tag_147\n        /* \"#utility.yul\":5746:5749   */\n      dup5\n        /* \"#utility.yul\":5737:5743   */\n      dup3\n        /* \"#utility.yul\":5726:5735   */\n      dup6\n        /* \"#utility.yul\":5722:5744   */\n      add\n        /* \"#utility.yul\":5704:5750   */\n      tag_53\n      jump\t// in\n    tag_147:\n        /* \"#utility.yul\":5697:5701   */\n      0x80\n        /* \"#utility.yul\":5690:5695   */\n      dup4\n        /* \"#utility.yul\":5686:5702   */\n      add\n        /* \"#utility.yul\":5679:5751   */\n      mstore\n        /* \"#utility.yul\":5610:5762   */\n      pop\n        /* \"#utility.yul\":4205:5769   */\n      swap3\n      swap2\n      pop\n      pop\n      jump\t// out\n        /* \"#utility.yul\":5775:6304   */\n    tag_11:\n        /* \"#utility.yul\":5854:5860   */\n      0x00\n        /* \"#utility.yul\":5903:5905   */\n      0x20\n        /* \"#utility.yul\":5891:5900   */\n      dup3\n        /* \"#utility.yul\":5882:5889   */\n      dup5\n        /* \"#utility.yul\":5878:5901   */\n      sub\n        /* \"#utility.yul\":5874:5906   */\n      slt\n        /* \"#utility.yul\":5871:5990   */\n      iszero\n      tag_149\n      jumpi\n        /* \"#utility.yul\":5909:5988   */\n      tag_150\n      tag_33\n      jump\t// in\n    tag_150:\n        /* \"#utility.yul\":5871:5990   */\n    tag_149:\n        /* \"#utility.yul\":6057:6058   */\n      0x00\n        /* \"#utility.yul\":6046:6055   */\n      dup3\n        /* \"#utility.yul\":6042:6059   */\n      add\n        /* \"#utility.yul\":6029:6060   */\n      calldataload\n        /* \"#utility.yul\":6087:6105   */\n      0xffffffffffffffff\n        /* \"#utility.yul\":6079:6085   */\n      dup2\n        /* \"#utility.yul\":6076:6106   */\n      gt\n        /* \"#utility.yul\":6073:6190   */\n      iszero\n      tag_151\n      jumpi\n        /* \"#utility.yul\":6109:6188   */\n      tag_152\n      tag_34\n      jump\t// in\n    tag_152:\n        /* \"#utility.yul\":6073:6190   */\n    tag_151:\n        /* \"#utility.yul\":6214:6287   */\n      tag_153\n        /* \"#utility.yul\":6279:6286   */\n      dup5\n        /* \"#utility.yul\":6270:6276   */\n      dup3\n        /* \"#utility.yul\":6259:6268   */\n      dup6\n        /* \"#utility.yul\":6255:6277   */\n      add\n        /* \"#utility.yul\":6214:6287   */\n      tag_54\n      jump\t// in\n    tag_153:\n        /* \"#utility.yul\":6204:6287   */\n      swap2\n      pop\n        /* \"#utility.yul\":6000:6297   */\n      pop\n        /* \"#utility.yul\":5775:6304   */\n      swap3\n      swap2\n      pop\n      pop\n      jump\t// out\n        /* \"#utility.yul\":6310:6458   */\n    tag_55:\n        /* \"#utility.yul\":6412:6423   */\n      0x00\n        /* \"#utility.yul\":6449:6452   */\n      dup2\n        /* \"#utility.yul\":6434:6452   */\n      swap1\n      pop\n        /* \"#utility.yul\":6310:6458   */\n      swap3\n      swap2\n      pop\n      pop\n      jump\t// out\n        /* \"#utility.yul\":6464:6619   */\n    tag_56:\n        /* \"#utility.yul\":6604:6611   */\n      0x6167726565000000000000000000000000000000000000000000000000000000\n        /* \"#utility.yul\":6600:6601   */\n      0x00\n        /* \"#utility.yul\":6592:6598   */\n      dup3\n        /* \"#utility.yul\":6588:6602   */\n      add\n        /* \"#utility.yul\":6581:6612   */\n      mstore\n        /* \"#utility.yul\":6464:6619   */\n      pop\n      jump\t// out\n        /* \"#utility.yul\":6625:7025   */\n    tag_57:\n        /* \"#utility.yul\":6785:6788   */\n      0x00\n        /* \"#utility.yul\":6806:6890   */\n      tag_157\n        /* \"#utility.yul\":6888:6889   */\n      0x05\n        /* \"#utility.yul\":6883:6886   */\n      dup4\n        /* \"#utility.yul\":6806:6890   */\n      tag_55\n      jump\t// in\n    tag_157:\n        /* \"#utility.yul\":6799:6890   */\n      swap2\n      pop\n        /* \"#utility.yul\":6899:6992   */\n      tag_158\n        /* \"#utility.yul\":6988:6991   */\n      dup3\n        /* \"#utility.yul\":6899:6992   */\n      tag_56\n      jump\t// in\n    tag_158:\n        /* \"#utility.yul\":7017:7018   */\n      0x05\n        /* \"#utility.yul\":7012:7015   */\n      dup3\n        /* \"#utility.yul\":7008:7019   */\n      add\n        /* \"#utility.yul\":7001:7019   */\n      swap1\n      pop\n        /* \"#utility.yul\":6625:7025   */\n      swap2\n      swap1\n      pop\n      jump\t// out\n        /* \"#utility.yul\":7031:7412   */\n    tag_15:\n        /* \"#utility.yul\":7216:7219   */\n      0x00\n        /* \"#utility.yul\":7238:7386   */\n      tag_160\n        /* \"#utility.yul\":7382:7385   */\n      dup3\n        /* \"#utility.yul\":7238:7386   */\n      tag_57\n      jump\t// in\n    tag_160:\n        /* \"#utility.yul\":7231:7386   */\n      swap2\n      pop\n        /* \"#utility.yul\":7403:7406   */\n      dup2\n        /* \"#utility.yul\":7396:7406   */\n      swap1\n      pop\n        /* \"#utility.yul\":7031:7412   */\n      swap2\n      swap1\n      pop\n      jump\t// out\n        /* \"#utility.yul\":7418:7517   */\n    tag_58:\n        /* \"#utility.yul\":7470:7476   */\n      0x00\n        /* \"#utility.yul\":7504:7509   */\n      dup2\n        /* \"#utility.yul\":7498:7510   */\n      mload\n        /* \"#utility.yul\":7488:7510   */\n      swap1\n      pop\n        /* \"#utility.yul\":7418:7517   */\n      swap2\n      swap1\n      pop\n      jump\t// out\n        /* \"#utility.yul\":7523:7662   */\n    tag_59:\n        /* \"#utility.yul\":7612:7618   */\n      dup3\n        /* \"#utility.yul\":7607:7610   */\n      dup2\n        /* \"#utility.yul\":7602:7605   */\n      dup4\n        /* \"#utility.yul\":7596:7619   */\n      mcopy\n        /* \"#utility.yul\":7653:7654   */\n      0x00\n        /* \"#utility.yul\":7644:7650   */\n      dup4\n        /* \"#utility.yul\":7639:7642   */\n      dup4\n        /* \"#utility.yul\":7635:7651   */\n      add\n        /* \"#utility.yul\":7628:7655   */\n      mstore\n        /* \"#utility.yul\":7523:7662   */\n      pop\n      pop\n      pop\n      jump\t// out\n        /* \"#utility.yul\":7668:8058   */\n    tag_60:\n        /* \"#utility.yul\":7774:7777   */\n      0x00\n        /* \"#utility.yul\":7802:7841   */\n      tag_164\n        /* \"#utility.yul\":7835:7840   */\n      dup3\n        /* \"#utility.yul\":7802:7841   */\n      tag_58\n      jump\t// in\n    tag_164:\n        /* \"#utility.yul\":7857:7946   */\n      tag_165\n        /* \"#utility.yul\":7939:7945   */\n      dup2\n        /* \"#utility.yul\":7934:7937   */\n      dup6\n        /* \"#utility.yul\":7857:7946   */\n      tag_55\n      jump\t// in\n    tag_165:\n        /* \"#utility.yul\":7850:7946   */\n      swap4\n      pop\n        /* \"#utility.yul\":7955:8020   */\n      tag_166\n        /* \"#utility.yul\":8013:8019   */\n      dup2\n        /* \"#utility.yul\":8008:8011   */\n      dup6\n        /* \"#utility.yul\":8001:8005   */\n      0x20\n        /* \"#utility.yul\":7994:7999   */\n      dup7\n        /* \"#utility.yul\":7990:8006   */\n      add\n        /* \"#utility.yul\":7955:8020   */\n      tag_59\n      jump\t// in\n    tag_166:\n        /* \"#utility.yul\":8045:8051   */\n      dup1\n        /* \"#utility.yul\":8040:8043   */\n      dup5\n        /* \"#utility.yul\":8036:8052   */\n      add\n        /* \"#utility.yul\":8029:8052   */\n      swap2\n      pop\n        /* \"#utility.yul\":7778:8058   */\n      pop\n        /* \"#utility.yul\":7668:8058   */\n      swap3\n      swap2\n      pop\n      pop\n      jump\t// out\n        /* \"#utility.yul\":8064:8339   */\n    tag_17:\n        /* \"#utility.yul\":8196:8199   */\n      0x00\n        /* \"#utility.yul\":8218:8313   */\n      tag_168\n        /* \"#utility.yul\":8309:8312   */\n      dup3\n        /* \"#utility.yul\":8300:8306   */\n      dup5\n        /* \"#utility.yul\":8218:8313   */\n      tag_60\n      jump\t// in\n    tag_168:\n        /* \"#utility.yul\":8211:8313   */\n      swap2\n      pop\n        /* \"#utility.yul\":8330:8333   */\n      dup2\n        /* \"#utility.yul\":8323:8333   */\n      swap1\n      pop\n        /* \"#utility.yul\":8064:8339   */\n      swap3\n      swap2\n      pop\n      pop\n      jump\t// out\n        /* \"#utility.yul\":8345:8503   */\n    tag_61:\n        /* \"#utility.yul\":8485:8495   */\n      0x6469736167726565000000000000000000000000000000000000000000000000\n        /* \"#utility.yul\":8481:8482   */\n      0x00\n        /* \"#utility.yul\":8473:8479   */\n      dup3\n        /* \"#utility.yul\":8469:8483   */\n      add\n        /* \"#utility.yul\":8462:8496   */\n      mstore\n        /* \"#utility.yul\":8345:8503   */\n      pop\n      jump\t// out\n        /* \"#utility.yul\":8509:8909   */\n    tag_62:\n        /* \"#utility.yul\":8669:8672   */\n      0x00\n        /* \"#utility.yul\":8690:8774   */\n      tag_171\n        /* \"#utility.yul\":8772:8773   */\n      0x08\n        /* \"#utility.yul\":8767:8770   */\n      dup4\n        /* \"#utility.yul\":8690:8774   */\n      tag_55\n      jump\t// in\n    tag_171:\n        /* \"#utility.yul\":8683:8774   */\n      swap2\n      pop\n        /* \"#utility.yul\":8783:8876   */\n      tag_172\n        /* \"#utility.yul\":8872:8875   */\n      dup3\n        /* \"#utility.yul\":8783:8876   */\n      tag_61\n      jump\t// in\n    tag_172:\n        /* \"#utility.yul\":8901:8902   */\n      0x08\n        /* \"#utility.yul\":8896:8899   */\n      dup3\n        /* \"#utility.yul\":8892:8903   */\n      add\n        /* \"#utility.yul\":8885:8903   */\n      swap1\n      pop\n        /* \"#utility.yul\":8509:8909   */\n      swap2\n      swap1\n      pop\n      jump\t// out\n        /* \"#utility.yul\":8915:9296   */\n    tag_22:\n        /* \"#utility.yul\":9100:9103   */\n      0x00\n        /* \"#utility.yul\":9122:9270   */\n      tag_174\n        /* \"#utility.yul\":9266:9269   */\n      dup3\n        /* \"#utility.yul\":9122:9270   */\n      tag_62\n      jump\t// in\n    tag_174:\n        /* \"#utility.yul\":9115:9270   */\n      swap2\n      pop\n        /* \"#utility.yul\":9287:9290   */\n      dup2\n        /* \"#utility.yul\":9280:9290   */\n      swap1\n      pop\n        /* \"#utility.yul\":8915:9296   */\n      swap2\n      swap1\n      pop\n      jump\t// out\n        /* \"#utility.yul\":9302:9482   */\n    tag_63:\n        /* \"#utility.yul\":9350:9427   */\n      0x4e487b7100000000000000000000000000000000000000000000000000000000\n        /* \"#utility.yul\":9347:9348   */\n      0x00\n        /* \"#utility.yul\":9340:9428   */\n      mstore\n        /* \"#utility.yul\":9447:9451   */\n      0x22\n        /* \"#utility.yul\":9444:9445   */\n      0x04\n        /* \"#utility.yul\":9437:9452   */\n      mstore\n        /* \"#utility.yul\":9471:9475   */\n      0x24\n        /* \"#utility.yul\":9468:9469   */\n      0x00\n        /* \"#utility.yul\":9461:9476   */\n      revert\n        /* \"#utility.yul\":9488:9808   */\n    tag_64:\n        /* \"#utility.yul\":9532:9538   */\n      0x00\n        /* \"#utility.yul\":9569:9570   */\n      0x02\n        /* \"#utility.yul\":9563:9567   */\n      dup3\n        /* \"#utility.yul\":9559:9571   */\n      div\n        /* \"#utility.yul\":9549:9571   */\n      swap1\n      pop\n        /* \"#utility.yul\":9616:9617   */\n      0x01\n        /* \"#utility.yul\":9610:9614   */\n      dup3\n        /* \"#utility.yul\":9606:9618   */\n      and\n        /* \"#utility.yul\":9637:9655   */\n      dup1\n        /* \"#utility.yul\":9627:9708   */\n      tag_177\n      jumpi\n        /* \"#utility.yul\":9693:9697   */\n      0x7f\n        /* \"#utility.yul\":9685:9691   */\n      dup3\n        /* \"#utility.yul\":9681:9698   */\n      and\n        /* \"#utility.yul\":9671:9698   */\n      swap2\n      pop\n        /* \"#utility.yul\":9627:9708   */\n    tag_177:\n        /* \"#utility.yul\":9755:9757   */\n      0x20\n        /* \"#utility.yul\":9747:9753   */\n      dup3\n        /* \"#utility.yul\":9744:9758   */\n      lt\n        /* \"#utility.yul\":9724:9742   */\n      dup2\n        /* \"#utility.yul\":9721:9759   */\n      sub\n        /* \"#utility.yul\":9718:9802   */\n      tag_178\n      jumpi\n        /* \"#utility.yul\":9774:9792   */\n      tag_179\n      tag_63\n      jump\t// in\n    tag_179:\n        /* \"#utility.yul\":9718:9802   */\n    tag_178:\n        /* \"#utility.yul\":9539:9808   */\n      pop\n        /* \"#utility.yul\":9488:9808   */\n      swap2\n      swap1\n      pop\n      jump\t// out\n        /* \"#utility.yul\":9814:9955   */\n    tag_65:\n        /* \"#utility.yul\":9863:9867   */\n      0x00\n        /* \"#utility.yul\":9886:9889   */\n      dup2\n        /* \"#utility.yul\":9878:9889   */\n      swap1\n      pop\n        /* \"#utility.yul\":9909:9912   */\n      dup2\n        /* \"#utility.yul\":9906:9907   */\n      0x00\n        /* \"#utility.yul\":9899:9913   */\n      mstore\n        /* \"#utility.yul\":9943:9947   */\n      0x20\n        /* \"#utility.yul\":9940:9941   */\n      0x00\n        /* \"#utility.yul\":9930:9948   */\n      keccak256\n        /* \"#utility.yul\":9922:9948   */\n      swap1\n      pop\n        /* \"#utility.yul\":9814:9955   */\n      swap2\n      swap1\n      pop\n      jump\t// out\n        /* \"#utility.yul\":9961:10054   */\n    tag_66:\n        /* \"#utility.yul\":9998:10004   */\n      0x00\n        /* \"#utility.yul\":10045:10047   */\n      0x20\n        /* \"#utility.yul\":10040:10042   */\n      0x1f\n        /* \"#utility.yul\":10033:10038   */\n      dup4\n        /* \"#utility.yul\":10029:10043   */\n      add\n        /* \"#utility.yul\":10025:10048   */\n      div\n        /* \"#utility.yul\":10015:10048   */\n      swap1\n      pop\n        /* \"#utility.yul\":9961:10054   */\n      swap2\n      swap1\n      pop\n      jump\t// out\n        /* \"#utility.yul\":10060:10167   */\n    tag_67:\n        /* \"#utility.yul\":10104:10112   */\n      0x00\n        /* \"#utility.yul\":10154:10159   */\n      dup3\n        /* \"#utility.yul\":10148:10152   */\n      dup3\n        /* \"#utility.yul\":10144:10160   */\n      shl\n        /* \"#utility.yul\":10123:10160   */\n      swap1\n      pop\n        /* \"#utility.yul\":10060:10167   */\n      swap3\n      swap2\n      pop\n      pop\n      jump\t// out\n        /* \"#utility.yul\":10173:10566   */\n    tag_68:\n        /* \"#utility.yul\":10242:10248   */\n      0x00\n        /* \"#utility.yul\":10292:10293   */\n      0x08\n        /* \"#utility.yul\":10280:10290   */\n      dup4\n        /* \"#utility.yul\":10276:10294   */\n      mul\n        /* \"#utility.yul\":10315:10412   */\n      tag_184\n        /* \"#utility.yul\":10345:10411   */\n      0xffffffffffffffffffffffffffffffffffffffffffffffffffffffffffffffff\n        /* \"#utility.yul\":10334:10343   */\n      dup3\n        /* \"#utility.yul\":10315:10412   */\n      tag_67\n      jump\t// in\n    tag_184:\n        /* \"#utility.yul\":10433:10472   */\n      tag_185\n        /* \"#utility.yul\":10463:10471   */\n      dup7\n        /* \"#utility.yul\":10452:10461   */\n      dup4\n        /* \"#utility.yul\":10433:10472   */\n      tag_67\n      jump\t// in\n    tag_185:\n        /* \"#utility.yul\":10421:10472   */\n      swap6\n      pop\n        /* \"#utility.yul\":10505:10509   */\n      dup1\n        /* \"#utility.yul\":10501:10510   */\n      not\n        /* \"#utility.yul\":10494:10499   */\n      dup5\n        /* \"#utility.yul\":10490:10511   */\n      and\n        /* \"#utility.yul\":10481:10511   */\n      swap4\n      pop\n        /* \"#utility.yul\":10554:10558   */\n      dup1\n        /* \"#utility.yul\":10544:10552   */\n      dup7\n        /* \"#utility.yul\":10540:10559   */\n      and\n        /* \"#utility.yul\":10533:10538   */\n      dup5\n        /* \"#utility.yul\":10530:10560   */\n      or\n        /* \"#utility.yul\":10520:10560   */\n      swap3\n      pop\n        /* \"#utility.yul\":10249:10566   */\n      pop\n      pop\n        /* \"#utility.yul\":10173:10566   */\n      swap4\n      swap3\n      pop\n      pop\n      pop\n      jump\t// out\n        /* \"#utility.yul\":10572:10649   */\n    tag_69:\n        /* \"#utility.yul\":10609:10616   */\n      0x00\n        /* \"#utility.yul\":10638:10643   */\n      dup2\n        /* \"#utility.yul\":10627:10643   */\n      swap1\n      pop\n        /* \"#utility.yul\":10572:10649   */\n      swap2\n      swap1\n      pop\n      jump\t// out\n        /* \"#utility.yul\":10655:10715   */\n    tag_70:\n        /* \"#utility.yul\":10683:10686   */\n      0x00\n        /* \"#utility.yul\":10704:10709   */\n      dup2\n        /* \"#utility.yul\":10697:10709   */\n      swap1\n      pop\n        /* \"#utility.yul\":10655:10715   */\n      swap2\n      swap1\n      pop\n      jump\t// out\n        /* \"#utility.yul\":10721:10863   */\n    tag_71:\n        /* \"#utility.yul\":10771:10780   */\n      0x00\n        /* \"#utility.yul\":10804:10857   */\n      tag_189\n        /* \"#utility.yul\":10822:10856   */\n      tag_190\n        /* \"#utility.yul\":10831:10855   */\n      tag_191\n        /* \"#utility.yul\":10849:10854   */\n      dup5\n        /* \"#utility.yul\":10831:10855   */\n      tag_69\n      jump\t// in\n    tag_191:\n        /* \"#utility.yul\":10822:10856   */\n      tag_70\n      jump\t// in\n    tag_190:\n        /* \"#utility.yul\":10804:10857   */\n      tag_69\n      jump\t// in\n    tag_189:\n        /* \"#utility.yul\":10791:10857   */\n      swap1\n      pop\n        /* \"#utility.yul\":10721:10863   */\n      swap2\n      swap1\n      pop\n      jump\t// out\n        /* \"#utility.yul\":10869:10944   */\n    tag_72:\n        /* \"#utility.yul\":10912:10915   */\n      0x00\n        /* \"#utility.yul\":10933:10938   */\n      dup2\n        /* \"#utility.yul\":10926:10938   */\n      swap1\n      pop\n        /* \"#utility.yul\":10869:10944   */\n      swap2\n      swap1\n      pop\n      jump\t// out\n        /* \"#utility.yul\":10950:11219   */\n    tag_73:\n        /* \"#utility.yul\":11060:11099   */\n      tag_194\n        /* \"#utility.yul\":11091:11098   */\n      dup4\n        /* \"#utility.yul\":11060:11099   */\n      tag_71\n      jump\t// in\n    tag_194:\n        /* \"#utility.yul\":11121:11212   */\n      tag_195\n        /* \"#utility.yul\":11170:11211   */\n      tag_196\n        /* \"#utility.yul\":11194:11210   */\n      dup3\n        /* \"#utility.yul\":11170:11211   */\n      tag_72\n      jump\t// in\n    tag_196:\n        /* \"#utility.yul\":11162:11168   */\n      dup5\n        /* \"#utility.yul\":11155:11159   */\n      dup5\n        /* \"#utility.yul\":11149:11160   */\n      sload\n        /* \"#utility.yul\":11121:11212   */\n      tag_68\n      jump\t// in\n    tag_195:\n        /* \"#utility.yul\":11115:11119   */\n      dup3\n        /* \"#utility.yul\":11108:11213   */\n      sstore\n        /* \"#utility.yul\":11026:11219   */\n      pop\n        /* \"#utility.yul\":10950:11219   */\n      pop\n      pop\n      pop\n      jump\t// out\n        /* \"#utility.yul\":11225:11298   */\n    tag_74:\n        /* \"#utility.yul\":11270:11273   */\n      0x00\n        /* \"#utility.yul\":11225:11298   */\n      swap1\n      jump\t// out\n        /* \"#utility.yul\":11304:11493   */\n    tag_75:\n        /* \"#utility.yul\":11381:11413   */\n      tag_199\n      tag_74\n      jump\t// in\n    tag_199:\n        /* \"#utility.yul\":11422:11487   */\n      tag_200\n        /* \"#utility.yul\":11480:11486   */\n      dup2\n        /* \"#utility.yul\":11472:11478   */\n      dup5\n        /* \"#utility.yul\":11466:11470   */\n      dup5\n        /* \"#utility.yul\":11422:11487   */\n      tag_73\n      jump\t// in\n    tag_200:\n        /* \"#utility.yul\":11357:11493   */\n      pop\n        /* \"#utility.yul\":11304:11493   */\n      pop\n      pop\n      jump\t// out\n        /* \"#utility.yul\":11499:11685   */\n    tag_76:\n        /* \"#utility.yul\":11559:11679   */\n    tag_202:\n        /* \"#utility.yul\":11576:11579   */\n      dup2\n        /* \"#utility.yul\":11569:11574   */\n      dup2\n        /* \"#utility.yul\":11566:11580   */\n      lt\n        /* \"#utility.yul\":11559:11679   */\n      iszero\n      tag_204\n      jumpi\n        /* \"#utility.yul\":11630:11669   */\n      tag_205\n        /* \"#utility.yul\":11667:11668   */\n      0x00\n        /* \"#utility.yul\":11660:11665   */\n      dup3\n        /* \"#utility.yul\":11630:11669   */\n      tag_75\n      jump\t// in\n    tag_205:\n        /* \"#utility.yul\":11603:11604   */\n      0x01\n        /* \"#utility.yul\":11596:11601   */\n      dup2\n        /* \"#utility.yul\":11592:11605   */\n      add\n        /* \"#utility.yul\":11583:11605   */\n      swap1\n      pop\n        /* \"#utility.yul\":11559:11679   */\n      jump(tag_202)\n    tag_204:\n        /* \"#utility.yul\":11499:11685   */\n      pop\n      pop\n      jump\t// out\n        /* \"#utility.yul\":11691:12234   */\n    tag_77:\n        /* \"#utility.yul\":11792:11794   */\n      0x1f\n        /* \"#utility.yul\":11787:11790   */\n      dup3\n        /* \"#utility.yul\":11784:11795   */\n      gt\n        /* \"#utility.yul\":11781:12227   */\n      iszero\n      tag_207\n      jumpi\n        /* \"#utility.yul\":11826:11864   */\n      tag_208\n        /* \"#utility.yul\":11858:11863   */\n      dup2\n        /* \"#utility.yul\":11826:11864   */\n      tag_65\n      jump\t// in\n    tag_208:\n        /* \"#utility.yul\":11910:11939   */\n      tag_209\n        /* \"#utility.yul\":11928:11938   */\n      dup5\n        /* \"#utility.yul\":11910:11939   */\n      tag_66\n      jump\t// in\n    tag_209:\n        /* \"#utility.yul\":11900:11908   */\n      dup2\n        /* \"#utility.yul\":11896:11940   */\n      add\n        /* \"#utility.yul\":12093:12095   */\n      0x20\n        /* \"#utility.yul\":12081:12091   */\n      dup6\n        /* \"#utility.yul\":12078:12096   */\n      lt\n        /* \"#utility.yul\":12075:12124   */\n      iszero\n      tag_210\n      jumpi\n        /* \"#utility.yul\":12114:12122   */\n      dup2\n        /* \"#utility.yul\":12099:12122   */\n      swap1\n      pop\n        /* \"#utility.yul\":12075:12124   */\n    tag_210:\n        /* \"#utility.yul\":12137:12217   */\n      tag_211\n        /* \"#utility.yul\":12193:12215   */\n      tag_212\n        /* \"#utility.yul\":12211:12214   */\n      dup6\n        /* \"#utility.yul\":12193:12215   */\n      tag_66\n      jump\t// in\n    tag_212:\n        /* \"#utility.yul\":12183:12191   */\n      dup4\n        /* \"#utility.yul\":12179:12216   */\n      add\n        /* \"#utility.yul\":12166:12177   */\n      dup3\n        /* \"#utility.yul\":12137:12217   */\n      tag_76\n      jump\t// in\n    tag_211:\n        /* \"#utility.yul\":11796:12227   */\n      pop\n      pop\n        /* \"#utility.yul\":11781:12227   */\n    tag_207:\n        /* \"#utility.yul\":11691:12234   */\n      pop\n      pop\n      pop\n      jump\t// out\n        /* \"#utility.yul\":12240:12357   */\n    tag_78:\n        /* \"#utility.yul\":12294:12302   */\n      0x00\n        /* \"#utility.yul\":12344:12349   */\n      dup3\n        /* \"#utility.yul\":12338:12342   */\n      dup3\n        /* \"#utility.yul\":12334:12350   */\n      shr\n        /* \"#utility.yul\":12313:12350   */\n      swap1\n      pop\n        /* \"#utility.yul\":12240:12357   */\n      swap3\n      swap2\n      pop\n      pop\n      jump\t// out\n        /* \"#utility.yul\":12363:12532   */\n    tag_79:\n        /* \"#utility.yul\":12407:12413   */\n      0x00\n        /* \"#utility.yul\":12440:12491   */\n      tag_215\n        /* \"#utility.yul\":12488:12489   */\n      0x00\n        /* \"#utility.yul\":12484:12490   */\n      not\n        /* \"#utility.yul\":12476:12481   */\n      dup5\n        /* \"#utility.yul\":12473:12474   */\n      0x08\n        /* \"#utility.yul\":12469:12482   */\n      mul\n        /* \"#utility.yul\":12440:12491   */\n      tag_78\n      jump\t// in\n    tag_215:\n        /* \"#utility.yul\":12436:12492   */\n      not\n        /* \"#utility.yul\":12521:12525   */\n      dup1\n        /* \"#utility.yul\":12515:12519   */\n      dup4\n        /* \"#utility.yul\":12511:12526   */\n      and\n        /* \"#utility.yul\":12501:12526   */\n      swap2\n      pop\n        /* \"#utility.yul\":12414:12532   */\n      pop\n        /* \"#utility.yul\":12363:12532   */\n      swap3\n      swap2\n      pop\n      pop\n      jump\t// out\n        /* \"#utility.yul\":12537:12832   */\n    tag_80:\n        /* \"#utility.yul\":12613:12617   */\n      0x00\n        /* \"#utility.yul\":12759:12788   */\n      tag_217\n        /* \"#utility.yul\":12784:12787   */\n      dup4\n        /* \"#utility.yul\":12778:12782   */\n      dup4\n        /* \"#utility.yul\":12759:12788   */\n      tag_79\n      jump\t// in\n    tag_217:\n        /* \"#utility.yul\":12751:12788   */\n      swap2\n      pop\n        /* \"#utility.yul\":12821:12824   */\n      dup3\n        /* \"#utility.yul\":12818:12819   */\n      0x02\n        /* \"#utility.yul\":12814:12825   */\n      mul\n        /* \"#utility.yul\":12808:12812   */\n      dup3\n        /* \"#utility.yul\":12805:12826   */\n      or\n        /* \"#utility.yul\":12797:12826   */\n      swap1\n      pop\n        /* \"#utility.yul\":12537:12832   */\n      swap3\n      swap2\n      pop\n      pop\n      jump\t// out\n        /* \"#utility.yul\":12837:14232   */\n    tag_29:\n        /* \"#utility.yul\":12954:12991   */\n      tag_219\n        /* \"#utility.yul\":12987:12990   */\n      dup3\n        /* \"#utility.yul\":12954:12991   */\n      tag_58\n      jump\t// in\n    tag_219:\n        /* \"#utility.yul\":13056:13074   */\n      0xffffffffffffffff\n        /* \"#utility.yul\":13048:13054   */\n      dup2\n        /* \"#utility.yul\":13045:13075   */\n      gt\n        /* \"#utility.yul\":13042:13098   */\n      iszero\n      tag_220\n      jumpi\n        /* \"#utility.yul\":13078:13096   */\n      tag_221\n      tag_38\n      jump\t// in\n    tag_221:\n        /* \"#utility.yul\":13042:13098   */\n    tag_220:\n        /* \"#utility.yul\":13122:13160   */\n      tag_222\n        /* \"#utility.yul\":13154:13158   */\n      dup3\n        /* \"#utility.yul\":13148:13159   */\n      sload\n        /* \"#utility.yul\":13122:13160   */\n      tag_64\n      jump\t// in\n    tag_222:\n        /* \"#utility.yul\":13207:13274   */\n      tag_223\n        /* \"#utility.yul\":13267:13273   */\n      dup3\n        /* \"#utility.yul\":13259:13265   */\n      dup3\n        /* \"#utility.yul\":13253:13257   */\n      dup6\n        /* \"#utility.yul\":13207:13274   */\n      tag_77\n      jump\t// in\n    tag_223:\n        /* \"#utility.yul\":13301:13302   */\n      0x00\n        /* \"#utility.yul\":13325:13329   */\n      0x20\n        /* \"#utility.yul\":13312:13329   */\n      swap1\n      pop\n        /* \"#utility.yul\":13357:13359   */\n      0x1f\n        /* \"#utility.yul\":13349:13355   */\n      dup4\n        /* \"#utility.yul\":13346:13360   */\n      gt\n        /* \"#utility.yul\":13374:13375   */\n      0x01\n        /* \"#utility.yul\":13369:13987   */\n      dup2\n      eq\n      tag_225\n      jumpi\n        /* \"#utility.yul\":14031:14032   */\n      0x00\n        /* \"#utility.yul\":14048:14054   */\n      dup5\n        /* \"#utility.yul\":14045:14122   */\n      iszero\n      tag_226\n      jumpi\n        /* \"#utility.yul\":14097:14106   */\n      dup3\n        /* \"#utility.yul\":14092:14095   */\n      dup8\n        /* \"#utility.yul\":14088:14107   */\n      add\n        /* \"#utility.yul\":14082:14108   */\n      mload\n        /* \"#utility.yul\":14073:14108   */\n      swap1\n      pop\n        /* \"#utility.yul\":14045:14122   */\n    tag_226:\n        /* \"#utility.yul\":14148:14215   */\n      tag_227\n        /* \"#utility.yul\":14208:14214   */\n      dup6\n        /* \"#utility.yul\":14201:14206   */\n      dup3\n        /* \"#utility.yul\":14148:14215   */\n      tag_80\n      jump\t// in\n    tag_227:\n        /* \"#utility.yul\":14142:14146   */\n      dup7\n        /* \"#utility.yul\":14135:14216   */\n      sstore\n        /* \"#utility.yul\":14004:14226   */\n      pop\n        /* \"#utility.yul\":13339:14226   */\n      jump(tag_224)\n        /* \"#utility.yul\":13369:13987   */\n    tag_225:\n        /* \"#utility.yul\":13421:13425   */\n      0x1f\n        /* \"#utility.yul\":13417:13426   */\n      not\n        /* \"#utility.yul\":13409:13415   */\n      dup5\n        /* \"#utility.yul\":13405:13427   */\n      and\n        /* \"#utility.yul\":13455:13492   */\n      tag_228\n        /* \"#utility.yul\":13487:13491   */\n      dup7\n        /* \"#utility.yul\":13455:13492   */\n      tag_65\n      jump\t// in\n    tag_228:\n        /* \"#utility.yul\":13514:13515   */\n      0x00\n        /* \"#utility.yul\":13528:13736   */\n    tag_229:\n        /* \"#utility.yul\":13542:13549   */\n      dup3\n        /* \"#utility.yul\":13539:13540   */\n      dup2\n        /* \"#utility.yul\":13536:13550   */\n      lt\n        /* \"#utility.yul\":13528:13736   */\n      iszero\n      tag_231\n      jumpi\n        /* \"#utility.yul\":13621:13630   */\n      dup5\n        /* \"#utility.yul\":13616:13619   */\n      dup10\n        /* \"#utility.yul\":13612:13631   */\n      add\n        /* \"#utility.yul\":13606:13632   */\n      mload\n        /* \"#utility.yul\":13598:13604   */\n      dup3\n        /* \"#utility.yul\":13591:13633   */\n      sstore\n        /* \"#utility.yul\":13672:13673   */\n      0x01\n        /* \"#utility.yul\":13664:13670   */\n      dup3\n        /* \"#utility.yul\":13660:13674   */\n      add\n        /* \"#utility.yul\":13650:13674   */\n      swap2\n      pop\n        /* \"#utility.yul\":13719:13721   */\n      0x20\n        /* \"#utility.yul\":13708:13717   */\n      dup6\n        /* \"#utility.yul\":13704:13722   */\n      add\n        /* \"#utility.yul\":13691:13722   */\n      swap5\n      pop\n        /* \"#utility.yul\":13565:13569   */\n      0x20\n        /* \"#utility.yul\":13562:13563   */\n      dup2\n        /* \"#utility.yul\":13558:13570   */\n      add\n        /* \"#utility.yul\":13553:13570   */\n      swap1\n      pop\n        /* \"#utility.yul\":13528:13736   */\n      jump(tag_229)\n    tag_231:\n        /* \"#utility.yul\":13764:13770   */\n      dup7\n        /* \"#utility.yul\":13755:13762   */\n      dup4\n        /* \"#utility.yul\":13752:13771   */\n      lt\n        /* \"#utility.yul\":13749:13928   */\n      iszero\n      tag_232\n      jumpi\n        /* \"#utility.yul\":13822:13831   */\n      dup5\n        /* \"#utility.yul\":13817:13820   */\n      dup10\n        /* \"#utility.yul\":13813:13832   */\n      add\n        /* \"#utility.yul\":13807:13833   */\n      mload\n        /* \"#utility.yul\":13865:13913   */\n      tag_233\n        /* \"#utility.yul\":13907:13911   */\n      0x1f\n        /* \"#utility.yul\":13899:13905   */\n      dup10\n        /* \"#utility.yul\":13895:13912   */\n      and\n        /* \"#utility.yul\":13884:13893   */\n      dup3\n        /* \"#utility.yul\":13865:13913   */\n      tag_79\n      jump\t// in\n    tag_233:\n        /* \"#utility.yul\":13857:13863   */\n      dup4\n        /* \"#utility.yul\":13850:13914   */\n      sstore\n        /* \"#utility.yul\":13772:13928   */\n      pop\n        /* \"#utility.yul\":13749:13928   */\n    tag_232:\n        /* \"#utility.yul\":13974:13975   */\n      0x01\n        /* \"#utility.yul\":13970:13971   */\n      0x02\n        /* \"#utility.yul\":13962:13968   */\n      dup9\n        /* \"#utility.yul\":13958:13972   */\n      mul\n        /* \"#utility.yul\":13954:13976   */\n      add\n        /* \"#utility.yul\":13948:13952   */\n      dup9\n        /* \"#utility.yul\":13941:13977   */\n      sstore\n        /* \"#utility.yul\":13376:13987   */\n      pop\n      pop\n      pop\n        /* \"#utility.yul\":13339:14226   */\n    tag_224:\n      pop\n        /* \"#utility.yul\":12929:14232   */\n      pop\n      pop\n      pop\n        /* \"#utility.yul\":12837:14232   */\n      pop\n      pop\n      jump\t// out\n\n    auxdata: 0xa2646970667358221220a3efbbacf684ec632997dd4b1f8a345499a56c5d16ebee62e2e4e02e6728760a64736f6c634300081a0033\n}\n",
				"bytecode": {
					"linkReferences": {},
					"object": "6080604052348015600e575f80fd5b50610a298061001c5f395ff3fe608060405234801561000f575f80fd5b5060043610610034575f3560e01c80630a9851c414610038578063c358e2a614610054575b5f80fd5b610052600480360381019061004d91906103fb565b610070565b005b61006e600480360381019061006991906105b6565b6101db565b005b60405160200161007f90610651565b60405160208183030381529060405280519060200120816040516020016100a691906106ad565b6040516020818303038152906040528051906020012003610125575f33908060018154018082558091505060019003905f5260205f20015f9091909190916101000a81548173ffffffffffffffffffffffffffffffffffffffff021916908373ffffffffffffffffffffffffffffffffffffffff1602179055506101d8565b6040516020016101349061070d565b604051602081830303815290604052805190602001208160405160200161015b91906106ad565b60405160208183030381529060405280519060200120036101d757600133908060018154018082558091505060019003905f5260205f20015f9091909190916101000a81548173ffffffffffffffffffffffffffffffffffffffff021916908373ffffffffffffffffffffffffffffffffffffffff1602179055505b5b50565b600381908060018154018082558091505060019003905f5260205f2090600502015f909190919091505f820151815f0190816102179190610924565b506020820151816001015f6101000a81548173ffffffffffffffffffffffffffffffffffffffff021916908373ffffffffffffffffffffffffffffffffffffffff16021790555060408201518160020190816102739190610924565b5060608201518160030190816102899190610924565b506080820151816004015f6101000a81548160ff021916908315150217905550505050565b5f604051905090565b5f80fd5b5f80fd5b5f80fd5b5f80fd5b5f601f19601f8301169050919050565b7f4e487b71000000000000000000000000000000000000000000000000000000005f52604160045260245ffd5b61030d826102c7565b810181811067ffffffffffffffff8211171561032c5761032b6102d7565b5b80604052505050565b5f61033e6102ae565b905061034a8282610304565b919050565b5f67ffffffffffffffff821115610369576103686102d7565b5b610372826102c7565b9050602081019050919050565b828183375f83830152505050565b5f61039f61039a8461034f565b610335565b9050828152602081018484840111156103bb576103ba6102c3565b5b6103c684828561037f565b509392505050565b5f82601f8301126103e2576103e16102bf565b5b81356103f284826020860161038d565b91505092915050565b5f602082840312156104105761040f6102b7565b5b5f82013567ffffffffffffffff81111561042d5761042c6102bb565b5b610439848285016103ce565b91505092915050565b5f80fd5b5f80fd5b5f73ffffffffffffffffffffffffffffffffffffffff82169050919050565b5f6104738261044a565b9050919050565b61048381610469565b811461048d575f80fd5b50565b5f8135905061049e8161047a565b92915050565b5f8115159050919050565b6104b8816104a4565b81146104c2575f80fd5b50565b5f813590506104d3816104af565b92915050565b5f60a082840312156104ee576104ed610442565b5b6104f860a0610335565b90505f82013567ffffffffffffffff81111561051757610516610446565b5b610523848285016103ce565b5f83015250602061053684828501610490565b602083015250604082013567ffffffffffffffff81111561055a57610559610446565b5b610566848285016103ce565b604083015250606082013567ffffffffffffffff81111561058a57610589610446565b5b610596848285016103ce565b60608301525060806105aa848285016104c5565b60808301525092915050565b5f602082840312156105cb576105ca6102b7565b5b5f82013567ffffffffffffffff8111156105e8576105e76102bb565b5b6105f4848285016104d9565b91505092915050565b5f81905092915050565b7f61677265650000000000000000000000000000000000000000000000000000005f82015250565b5f61063b6005836105fd565b915061064682610607565b600582019050919050565b5f61065b8261062f565b9150819050919050565b5f81519050919050565b8281835e5f83830152505050565b5f61068782610665565b61069181856105fd565b93506106a181856020860161066f565b80840191505092915050565b5f6106b8828461067d565b915081905092915050565b7f64697361677265650000000000000000000000000000000000000000000000005f82015250565b5f6106f76008836105fd565b9150610702826106c3565b600882019050919050565b5f610717826106eb565b9150819050919050565b7f4e487b71000000000000000000000000000000000000000000000000000000005f52602260045260245ffd5b5f600282049050600182168061076557607f821691505b60208210810361077857610777610721565b5b50919050565b5f819050815f5260205f209050919050565b5f6020601f8301049050919050565b5f82821b905092915050565b5f600883026107da7fffffffffffffffffffffffffffffffffffffffffffffffffffffffffffffffff8261079f565b6107e4868361079f565b95508019841693508086168417925050509392505050565b5f819050919050565b5f819050919050565b5f61082861082361081e846107fc565b610805565b6107fc565b9050919050565b5f819050919050565b6108418361080e565b61085561084d8261082f565b8484546107ab565b825550505050565b5f90565b61086961085d565b610874818484610838565b505050565b5b818110156108975761088c5f82610861565b60018101905061087a565b5050565b601f8211156108dc576108ad8161077e565b6108b684610790565b810160208510156108c5578190505b6108d96108d185610790565b830182610879565b50505b505050565b5f82821c905092915050565b5f6108fc5f19846008026108e1565b1980831691505092915050565b5f61091483836108ed565b9150826002028217905092915050565b61092d82610665565b67ffffffffffffffff811115610946576109456102d7565b5b610950825461074e565b61095b82828561089b565b5f60209050601f83116001811461098c575f841561097a578287015190505b6109848582610909565b8655506109eb565b601f19841661099a8661077e565b5f5b828110156109c15784890151825560018201915060208501945060208101905061099c565b868310156109de57848901516109da601f8916826108ed565b8355505b6001600288020188555050505b50505050505056fea2646970667358221220a3efbbacf684ec632997dd4b1f8a345499a56c5d16ebee62e2e4e02e6728760a64736f6c634300081a0033",
					"opcodes": "PUSH1 0x80 PUSH1 0x40 MSTORE CALLVALUE DUP1 ISZERO PUSH1 0xE JUMPI PUSH0 DUP1 REVERT JUMPDEST POP PUSH2 0xA29 DUP1 PUSH2 0x1C PUSH0 CODECOPY PUSH0 RETURN INVALID PUSH1 0x80 PUSH1 0x40 MSTORE CALLVALUE DUP1 ISZERO PUSH2 0xF JUMPI PUSH0 DUP1 REVERT JUMPDEST POP PUSH1 0x4 CALLDATASIZE LT PUSH2 0x34 JUMPI PUSH0 CALLDATALOAD PUSH1 0xE0 SHR DUP1 PUSH4 0xA9851C4 EQ PUSH2 0x38 JUMPI DUP1 PUSH4 0xC358E2A6 EQ PUSH2 0x54 JUMPI JUMPDEST PUSH0 DUP1 REVERT JUMPDEST PUSH2 0x52 PUSH1 0x4 DUP1 CALLDATASIZE SUB DUP2 ADD SWAP1 PUSH2 0x4D SWAP2 SWAP1 PUSH2 0x3FB JUMP JUMPDEST PUSH2 0x70 JUMP JUMPDEST STOP JUMPDEST PUSH2 0x6E PUSH1 0x4 DUP1 CALLDATASIZE SUB DUP2 ADD SWAP1 PUSH2 0x69 SWAP2 SWAP1 PUSH2 0x5B6 JUMP JUMPDEST PUSH2 0x1DB JUMP JUMPDEST STOP JUMPDEST PUSH1 0x40 MLOAD PUSH1 0x20 ADD PUSH2 0x7F SWAP1 PUSH2 0x651 JUMP JUMPDEST PUSH1 0x40 MLOAD PUSH1 0x20 DUP2 DUP4 SUB SUB DUP2 MSTORE SWAP1 PUSH1 0x40 MSTORE DUP1 MLOAD SWAP1 PUSH1 0x20 ADD KECCAK256 DUP2 PUSH1 0x40 MLOAD PUSH1 0x20 ADD PUSH2 0xA6 SWAP2 SWAP1 PUSH2 0x6AD JUMP JUMPDEST PUSH1 0x40 MLOAD PUSH1 0x20 DUP2 DUP4 SUB SUB DUP2 MSTORE SWAP1 PUSH1 0x40 MSTORE DUP1 MLOAD SWAP1 PUSH1 0x20 ADD KECCAK256 SUB PUSH2 0x125 JUMPI PUSH0 CALLER SWAP1 DUP1 PUSH1 0x1 DUP2 SLOAD ADD DUP1 DUP3 SSTORE DUP1 SWAP2 POP POP PUSH1 0x1 SWAP1 SUB SWAP1 PUSH0 MSTORE PUSH1 0x20 PUSH0 KECCAK256 ADD PUSH0 SWAP1 SWAP2 SWAP1 SWAP2 SWAP1 SWAP2 PUSH2 0x100 EXP DUP2 SLOAD DUP2 PUSH20 0xFFFFFFFFFFFFFFFFFFFFFFFFFFFFFFFFFFFFFFFF MUL NOT AND SWAP1 DUP4 PUSH20 0xFFFFFFFFFFFFFFFFFFFFFFFFFFFFFFFFFFFFFFFF AND MUL OR SWAP1 SSTORE POP PUSH2 0x1D8 JUMP JUMPDEST PUSH1 0x40 MLOAD PUSH1 0x20 ADD PUSH2 0x134 SWAP1 PUSH2 0x70D JUMP JUMPDEST PUSH1 0x40 MLOAD PUSH1 0x20 DUP2 DUP4 SUB SUB DUP2 MSTORE SWAP1 PUSH1 0x40 MSTORE DUP1 MLOAD SWAP1 PUSH1 0x20 ADD KECCAK256 DUP2 PUSH1 0x40 MLOAD PUSH1 0x20 ADD PUSH2 0x15B SWAP2 SWAP1 PUSH2 0x6AD JUMP JUMPDEST PUSH1 0x40 MLOAD PUSH1 0x20 DUP2 DUP4 SUB SUB DUP2 MSTORE SWAP1 PUSH1 0x40 MSTORE DUP1 MLOAD SWAP1 PUSH1 0x20 ADD KECCAK256 SUB PUSH2 0x1D7 JUMPI PUSH1 0x1 CALLER SWAP1 DUP1 PUSH1 0x1 DUP2 SLOAD ADD DUP1 DUP3 SSTORE DUP1 SWAP2 POP POP PUSH1 0x1 SWAP1 SUB SWAP1 PUSH0 MSTORE PUSH1 0x20 PUSH0 KECCAK256 ADD PUSH0 SWAP1 SWAP2 SWAP1 SWAP2 SWAP1 SWAP2 PUSH2 0x100 EXP DUP2 SLOAD DUP2 PUSH20 0xFFFFFFFFFFFFFFFFFFFFFFFFFFFFFFFFFFFFFFFF MUL NOT AND SWAP1 DUP4 PUSH20 0xFFFFFFFFFFFFFFFFFFFFFFFFFFFFFFFFFFFFFFFF AND MUL OR SWAP1 SSTORE POP JUMPDEST JUMPDEST POP JUMP JUMPDEST PUSH1 0x3 DUP2 SWAP1 DUP1 PUSH1 0x1 DUP2 SLOAD ADD DUP1 DUP3 SSTORE DUP1 SWAP2 POP POP PUSH1 0x1 SWAP1 SUB SWAP1 PUSH0 MSTORE PUSH1 0x20 PUSH0 KECCAK256 SWAP1 PUSH1 0x5 MUL ADD PUSH0 SWAP1 SWAP2 SWAP1 SWAP2 SWAP1 SWAP2 POP PUSH0 DUP3 ADD MLOAD DUP2 PUSH0 ADD SWAP1 DUP2 PUSH2 0x217 SWAP2 SWAP1 PUSH2 0x924 JUMP JUMPDEST POP PUSH1 0x20 DUP3 ADD MLOAD DUP2 PUSH1 0x1 ADD PUSH0 PUSH2 0x100 EXP DUP2 SLOAD DUP2 PUSH20 0xFFFFFFFFFFFFFFFFFFFFFFFFFFFFFFFFFFFFFFFF MUL NOT AND SWAP1 DUP4 PUSH20 0xFFFFFFFFFFFFFFFFFFFFFFFFFFFFFFFFFFFFFFFF AND MUL OR SWAP1 SSTORE POP PUSH1 0x40 DUP3 ADD MLOAD DUP2 PUSH1 0x2 ADD SWAP1 DUP2 PUSH2 0x273 SWAP2 SWAP1 PUSH2 0x924 JUMP JUMPDEST POP PUSH1 0x60 DUP3 ADD MLOAD DUP2 PUSH1 0x3 ADD SWAP1 DUP2 PUSH2 0x289 SWAP2 SWAP1 PUSH2 0x924 JUMP JUMPDEST POP PUSH1 0x80 DUP3 ADD MLOAD DUP2 PUSH1 0x4 ADD PUSH0 PUSH2 0x100 EXP DUP2 SLOAD DUP2 PUSH1 0xFF MUL NOT AND SWAP1 DUP4 ISZERO ISZERO MUL OR SWAP1 SSTORE POP POP POP POP JUMP JUMPDEST PUSH0 PUSH1 0x40 MLOAD SWAP1 POP SWAP1 JUMP JUMPDEST PUSH0 DUP1 REVERT JUMPDEST PUSH0 DUP1 REVERT JUMPDEST PUSH0 DUP1 REVERT JUMPDEST PUSH0 DUP1 REVERT JUMPDEST PUSH0 PUSH1 0x1F NOT PUSH1 0x1F DUP4 ADD AND SWAP1 POP SWAP2 SWAP1 POP JUMP JUMPDEST PUSH32 0x4E487B7100000000000000000000000000000000000000000000000000000000 PUSH0 MSTORE PUSH1 0x41 PUSH1 0x4 MSTORE PUSH1 0x24 PUSH0 REVERT JUMPDEST PUSH2 0x30D DUP3 PUSH2 0x2C7 JUMP JUMPDEST DUP2 ADD DUP2 DUP2 LT PUSH8 0xFFFFFFFFFFFFFFFF DUP3 GT OR ISZERO PUSH2 0x32C JUMPI PUSH2 0x32B PUSH2 0x2D7 JUMP JUMPDEST JUMPDEST DUP1 PUSH1 0x40 MSTORE POP POP POP JUMP JUMPDEST PUSH0 PUSH2 0x33E PUSH2 0x2AE JUMP JUMPDEST SWAP1 POP PUSH2 0x34A DUP3 DUP3 PUSH2 0x304 JUMP JUMPDEST SWAP2 SWAP1 POP JUMP JUMPDEST PUSH0 PUSH8 0xFFFFFFFFFFFFFFFF DUP3 GT ISZERO PUSH2 0x369 JUMPI PUSH2 0x368 PUSH2 0x2D7 JUMP JUMPDEST JUMPDEST PUSH2 0x372 DUP3 PUSH2 0x2C7 JUMP JUMPDEST SWAP1 POP PUSH1 0x20 DUP2 ADD SWAP1 POP SWAP2 SWAP1 POP JUMP JUMPDEST DUP3 DUP2 DUP4 CALLDATACOPY PUSH0 DUP4 DUP4 ADD MSTORE POP POP POP JUMP JUMPDEST PUSH0 PUSH2 0x39F PUSH2 0x39A DUP5 PUSH2 0x34F JUMP JUMPDEST PUSH2 0x335 JUMP JUMPDEST SWAP1 POP DUP3 DUP2 MSTORE PUSH1 0x20 DUP2 ADD DUP5 DUP5 DUP5 ADD GT ISZERO PUSH2 0x3BB JUMPI PUSH2 0x3BA PUSH2 0x2C3 JUMP JUMPDEST JUMPDEST PUSH2 0x3C6 DUP5 DUP3 DUP6 PUSH2 0x37F JUMP JUMPDEST POP SWAP4 SWAP3 POP POP POP JUMP JUMPDEST PUSH0 DUP3 PUSH1 0x1F DUP4 ADD SLT PUSH2 0x3E2 JUMPI PUSH2 0x3E1 PUSH2 0x2BF JUMP JUMPDEST JUMPDEST DUP2 CALLDATALOAD PUSH2 0x3F2 DUP5 DUP3 PUSH1 0x20 DUP7 ADD PUSH2 0x38D JUMP JUMPDEST SWAP2 POP POP SWAP3 SWAP2 POP POP JUMP JUMPDEST PUSH0 PUSH1 0x20 DUP3 DUP5 SUB SLT ISZERO PUSH2 0x410 JUMPI PUSH2 0x40F PUSH2 0x2B7 JUMP JUMPDEST JUMPDEST PUSH0 DUP3 ADD CALLDATALOAD PUSH8 0xFFFFFFFFFFFFFFFF DUP2 GT ISZERO PUSH2 0x42D JUMPI PUSH2 0x42C PUSH2 0x2BB JUMP JUMPDEST JUMPDEST PUSH2 0x439 DUP5 DUP3 DUP6 ADD PUSH2 0x3CE JUMP JUMPDEST SWAP2 POP POP SWAP3 SWAP2 POP POP JUMP JUMPDEST PUSH0 DUP1 REVERT JUMPDEST PUSH0 DUP1 REVERT JUMPDEST PUSH0 PUSH20 0xFFFFFFFFFFFFFFFFFFFFFFFFFFFFFFFFFFFFFFFF DUP3 AND SWAP1 POP SWAP2 SWAP1 POP JUMP JUMPDEST PUSH0 PUSH2 0x473 DUP3 PUSH2 0x44A JUMP JUMPDEST SWAP1 POP SWAP2 SWAP1 POP JUMP JUMPDEST PUSH2 0x483 DUP2 PUSH2 0x469 JUMP JUMPDEST DUP2 EQ PUSH2 0x48D JUMPI PUSH0 DUP1 REVERT JUMPDEST POP JUMP JUMPDEST PUSH0 DUP2 CALLDATALOAD SWAP1 POP PUSH2 0x49E DUP2 PUSH2 0x47A JUMP JUMPDEST SWAP3 SWAP2 POP POP JUMP JUMPDEST PUSH0 DUP2 ISZERO ISZERO SWAP1 POP SWAP2 SWAP1 POP JUMP JUMPDEST PUSH2 0x4B8 DUP2 PUSH2 0x4A4 JUMP JUMPDEST DUP2 EQ PUSH2 0x4C2 JUMPI PUSH0 DUP1 REVERT JUMPDEST POP JUMP JUMPDEST PUSH0 DUP2 CALLDATALOAD SWAP1 POP PUSH2 0x4D3 DUP2 PUSH2 0x4AF JUMP JUMPDEST SWAP3 SWAP2 POP POP JUMP JUMPDEST PUSH0 PUSH1 0xA0 DUP3 DUP5 SUB SLT ISZERO PUSH2 0x4EE JUMPI PUSH2 0x4ED PUSH2 0x442 JUMP JUMPDEST JUMPDEST PUSH2 0x4F8 PUSH1 0xA0 PUSH2 0x335 JUMP JUMPDEST SWAP1 POP PUSH0 DUP3 ADD CALLDATALOAD PUSH8 0xFFFFFFFFFFFFFFFF DUP2 GT ISZERO PUSH2 0x517 JUMPI PUSH2 0x516 PUSH2 0x446 JUMP JUMPDEST JUMPDEST PUSH2 0x523 DUP5 DUP3 DUP6 ADD PUSH2 0x3CE JUMP JUMPDEST PUSH0 DUP4 ADD MSTORE POP PUSH1 0x20 PUSH2 0x536 DUP5 DUP3 DUP6 ADD PUSH2 0x490 JUMP JUMPDEST PUSH1 0x20 DUP4 ADD MSTORE POP PUSH1 0x40 DUP3 ADD CALLDATALOAD PUSH8 0xFFFFFFFFFFFFFFFF DUP2 GT ISZERO PUSH2 0x55A JUMPI PUSH2 0x559 PUSH2 0x446 JUMP JUMPDEST JUMPDEST PUSH2 0x566 DUP5 DUP3 DUP6 ADD PUSH2 0x3CE JUMP JUMPDEST PUSH1 0x40 DUP4 ADD MSTORE POP PUSH1 0x60 DUP3 ADD CALLDATALOAD PUSH8 0xFFFFFFFFFFFFFFFF DUP2 GT ISZERO PUSH2 0x58A JUMPI PUSH2 0x589 PUSH2 0x446 JUMP JUMPDEST JUMPDEST PUSH2 0x596 DUP5 DUP3 DUP6 ADD PUSH2 0x3CE JUMP JUMPDEST PUSH1 0x60 DUP4 ADD MSTORE POP PUSH1 0x80 PUSH2 0x5AA DUP5 DUP3 DUP6 ADD PUSH2 0x4C5 JUMP JUMPDEST PUSH1 0x80 DUP4 ADD MSTORE POP SWAP3 SWAP2 POP POP JUMP JUMPDEST PUSH0 PUSH1 0x20 DUP3 DUP5 SUB SLT ISZERO PUSH2 0x5CB JUMPI PUSH2 0x5CA PUSH2 0x2B7 JUMP JUMPDEST JUMPDEST PUSH0 DUP3 ADD CALLDATALOAD PUSH8 0xFFFFFFFFFFFFFFFF DUP2 GT ISZERO PUSH2 0x5E8 JUMPI PUSH2 0x5E7 PUSH2 0x2BB JUMP JUMPDEST JUMPDEST PUSH2 0x5F4 DUP5 DUP3 DUP6 ADD PUSH2 0x4D9 JUMP JUMPDEST SWAP2 POP POP SWAP3 SWAP2 POP POP JUMP JUMPDEST PUSH0 DUP2 SWAP1 POP SWAP3 SWAP2 POP POP JUMP JUMPDEST PUSH32 0x6167726565000000000000000000000000000000000000000000000000000000 PUSH0 DUP3 ADD MSTORE POP JUMP JUMPDEST PUSH0 PUSH2 0x63B PUSH1 0x5 DUP4 PUSH2 0x5FD JUMP JUMPDEST SWAP2 POP PUSH2 0x646 DUP3 PUSH2 0x607 JUMP JUMPDEST PUSH1 0x5 DUP3 ADD SWAP1 POP SWAP2 SWAP1 POP JUMP JUMPDEST PUSH0 PUSH2 0x65B DUP3 PUSH2 0x62F JUMP JUMPDEST SWAP2 POP DUP2 SWAP1 POP SWAP2 SWAP1 POP JUMP JUMPDEST PUSH0 DUP2 MLOAD SWAP1 POP SWAP2 SWAP1 POP JUMP JUMPDEST DUP3 DUP2 DUP4 MCOPY PUSH0 DUP4 DUP4 ADD MSTORE POP POP POP JUMP JUMPDEST PUSH0 PUSH2 0x687 DUP3 PUSH2 0x665 JUMP JUMPDEST PUSH2 0x691 DUP2 DUP6 PUSH2 0x5FD JUMP JUMPDEST SWAP4 POP PUSH2 0x6A1 DUP2 DUP6 PUSH1 0x20 DUP7 ADD PUSH2 0x66F JUMP JUMPDEST DUP1 DUP5 ADD SWAP2 POP POP SWAP3 SWAP2 POP POP JUMP JUMPDEST PUSH0 PUSH2 0x6B8 DUP3 DUP5 PUSH2 0x67D JUMP JUMPDEST SWAP2 POP DUP2 SWAP1 POP SWAP3 SWAP2 POP POP JUMP JUMPDEST PUSH32 0x6469736167726565000000000000000000000000000000000000000000000000 PUSH0 DUP3 ADD MSTORE POP JUMP JUMPDEST PUSH0 PUSH2 0x6F7 PUSH1 0x8 DUP4 PUSH2 0x5FD JUMP JUMPDEST SWAP2 POP PUSH2 0x702 DUP3 PUSH2 0x6C3 JUMP JUMPDEST PUSH1 0x8 DUP3 ADD SWAP1 POP SWAP2 SWAP1 POP JUMP JUMPDEST PUSH0 PUSH2 0x717 DUP3 PUSH2 0x6EB JUMP JUMPDEST SWAP2 POP DUP2 SWAP1 POP SWAP2 SWAP1 POP JUMP JUMPDEST PUSH32 0x4E487B7100000000000000000000000000000000000000000000000000000000 PUSH0 MSTORE PUSH1 0x22 PUSH1 0x4 MSTORE PUSH1 0x24 PUSH0 REVERT JUMPDEST PUSH0 PUSH1 0x2 DUP3 DIV SWAP1 POP PUSH1 0x1 DUP3 AND DUP1 PUSH2 0x765 JUMPI PUSH1 0x7F DUP3 AND SWAP2 POP JUMPDEST PUSH1 0x20 DUP3 LT DUP2 SUB PUSH2 0x778 JUMPI PUSH2 0x777 PUSH2 0x721 JUMP JUMPDEST JUMPDEST POP SWAP2 SWAP1 POP JUMP JUMPDEST PUSH0 DUP2 SWAP1 POP DUP2 PUSH0 MSTORE PUSH1 0x20 PUSH0 KECCAK256 SWAP1 POP SWAP2 SWAP1 POP JUMP JUMPDEST PUSH0 PUSH1 0x20 PUSH1 0x1F DUP4 ADD DIV SWAP1 POP SWAP2 SWAP1 POP JUMP JUMPDEST PUSH0 DUP3 DUP3 SHL SWAP1 POP SWAP3 SWAP2 POP POP JUMP JUMPDEST PUSH0 PUSH1 0x8 DUP4 MUL PUSH2 0x7DA PUSH32 0xFFFFFFFFFFFFFFFFFFFFFFFFFFFFFFFFFFFFFFFFFFFFFFFFFFFFFFFFFFFFFFFF DUP3 PUSH2 0x79F JUMP JUMPDEST PUSH2 0x7E4 DUP7 DUP4 PUSH2 0x79F JUMP JUMPDEST SWAP6 POP DUP1 NOT DUP5 AND SWAP4 POP DUP1 DUP7 AND DUP5 OR SWAP3 POP POP POP SWAP4 SWAP3 POP POP POP JUMP JUMPDEST PUSH0 DUP2 SWAP1 POP SWAP2 SWAP1 POP JUMP JUMPDEST PUSH0 DUP2 SWAP1 POP SWAP2 SWAP1 POP JUMP JUMPDEST PUSH0 PUSH2 0x828 PUSH2 0x823 PUSH2 0x81E DUP5 PUSH2 0x7FC JUMP JUMPDEST PUSH2 0x805 JUMP JUMPDEST PUSH2 0x7FC JUMP JUMPDEST SWAP1 POP SWAP2 SWAP1 POP JUMP JUMPDEST PUSH0 DUP2 SWAP1 POP SWAP2 SWAP1 POP JUMP JUMPDEST PUSH2 0x841 DUP4 PUSH2 0x80E JUMP JUMPDEST PUSH2 0x855 PUSH2 0x84D DUP3 PUSH2 0x82F JUMP JUMPDEST DUP5 DUP5 SLOAD PUSH2 0x7AB JUMP JUMPDEST DUP3 SSTORE POP POP POP POP JUMP JUMPDEST PUSH0 SWAP1 JUMP JUMPDEST PUSH2 0x869 PUSH2 0x85D JUMP JUMPDEST PUSH2 0x874 DUP2 DUP5 DUP5 PUSH2 0x838 JUMP JUMPDEST POP POP POP JUMP JUMPDEST JUMPDEST DUP2 DUP2 LT ISZERO PUSH2 0x897 JUMPI PUSH2 0x88C PUSH0 DUP3 PUSH2 0x861 JUMP JUMPDEST PUSH1 0x1 DUP2 ADD SWAP1 POP PUSH2 0x87A JUMP JUMPDEST POP POP JUMP JUMPDEST PUSH1 0x1F DUP3 GT ISZERO PUSH2 0x8DC JUMPI PUSH2 0x8AD DUP2 PUSH2 0x77E JUMP JUMPDEST PUSH2 0x8B6 DUP5 PUSH2 0x790 JUMP JUMPDEST DUP2 ADD PUSH1 0x20 DUP6 LT ISZERO PUSH2 0x8C5 JUMPI DUP2 SWAP1 POP JUMPDEST PUSH2 0x8D9 PUSH2 0x8D1 DUP6 PUSH2 0x790 JUMP JUMPDEST DUP4 ADD DUP3 PUSH2 0x879 JUMP JUMPDEST POP POP JUMPDEST POP POP POP JUMP JUMPDEST PUSH0 DUP3 DUP3 SHR SWAP1 POP SWAP3 SWAP2 POP POP JUMP JUMPDEST PUSH0 PUSH2 0x8FC PUSH0 NOT DUP5 PUSH1 0x8 MUL PUSH2 0x8E1 JUMP JUMPDEST NOT DUP1 DUP4 AND SWAP2 POP POP SWAP3 SWAP2 POP POP JUMP JUMPDEST PUSH0 PUSH2 0x914 DUP4 DUP4 PUSH2 0x8ED JUMP JUMPDEST SWAP2 POP DUP3 PUSH1 0x2 MUL DUP3 OR SWAP1 POP SWAP3 SWAP2 POP POP JUMP JUMPDEST PUSH2 0x92D DUP3 PUSH2 0x665 JUMP JUMPDEST PUSH8 0xFFFFFFFFFFFFFFFF DUP2 GT ISZERO PUSH2 0x946 JUMPI PUSH2 0x945 PUSH2 0x2D7 JUMP JUMPDEST JUMPDEST PUSH2 0x950 DUP3 SLOAD PUSH2 0x74E JUMP JUMPDEST PUSH2 0x95B DUP3 DUP3 DUP6 PUSH2 0x89B JUMP JUMPDEST PUSH0 PUSH1 0x20 SWAP1 POP PUSH1 0x1F DUP4 GT PUSH1 0x1 DUP2 EQ PUSH2 0x98C JUMPI PUSH0 DUP5 ISZERO PUSH2 0x97A JUMPI DUP3 DUP8 ADD MLOAD SWAP1 POP JUMPDEST PUSH2 0x984 DUP6 DUP3 PUSH2 0x909 JUMP JUMPDEST DUP7 SSTORE POP PUSH2 0x9EB JUMP JUMPDEST PUSH1 0x1F NOT DUP5 AND PUSH2 0x99A DUP7 PUSH2 0x77E JUMP JUMPDEST PUSH0 JUMPDEST DUP3 DUP2 LT ISZERO PUSH2 0x9C1 JUMPI DUP5 DUP10 ADD MLOAD DUP3 SSTORE PUSH1 0x1 DUP3 ADD SWAP2 POP PUSH1 0x20 DUP6 ADD SWAP5 POP PUSH1 0x20 DUP2 ADD SWAP1 POP PUSH2 0x99C JUMP JUMPDEST DUP7 DUP4 LT ISZERO PUSH2 0x9DE JUMPI DUP5 DUP10 ADD MLOAD PUSH2 0x9DA PUSH1 0x1F DUP10 AND DUP3 PUSH2 0x8ED JUMP JUMPDEST DUP4 SSTORE POP JUMPDEST PUSH1 0x1 PUSH1 0x2 DUP9 MUL ADD DUP9 SSTORE POP POP POP JUMPDEST POP POP POP POP POP POP JUMP INVALID LOG2 PUSH5 0x6970667358 0x22 SLT KECCAK256 LOG3 0xEF 0xBB 0xAC 0xF6 DUP5 0xEC PUSH4 0x2997DD4B 0x1F DUP11 CALLVALUE SLOAD SWAP10 0xA5 PUSH13 0x5D16EBEE62E2E4E02E6728760A PUSH5 0x736F6C6343 STOP ADDMOD BYTE STOP CALLER "
				},
				"gasEstimates": {
					"creation": {
						"codeDepositCost": "520200",
						"executionCost": "554",
						"totalCost": "520754"
					},
					"external": {
						"IsAgree(string)": "infinite",
						"setUser((string,address,string,string,bool))": "infinite"
					}
				},
				"methodIdentifiers": {
					"IsAgree(string)": "0a9851c4",
					"setUser((string,address,string,string,bool))": "c358e2a6"
				}
			},
			"storageLayout": {
				"storage": [
					{
						"astId": 15,
						"contract": "Coding test/test8.sol:TEST8",
						"label": "agree",
						"offset": 0,
						"slot": "0",
						"type": "t_array(t_address)dyn_storage"
					},
					{
						"astId": 18,
						"contract": "Coding test/test8.sol:TEST8",
						"label": "disagree",
						"offset": 0,
						"slot": "1",
						"type": "t_array(t_address)dyn_storage"
					},
					{
						"astId": 22,
						"contract": "Coding test/test8.sol:TEST8",
						"label": "matters",
						"offset": 0,
						"slot": "2",
						"type": "t_array(t_struct(matter)12_storage)dyn_storage"
					},
					{
						"astId": 37,
						"contract": "Coding test/test8.sol:TEST8",
						"label": "users",
						"offset": 0,
						"slot": "3",
						"type": "t_array(t_struct(user)33_storage)dyn_storage"
					},
					{
						"astId": 41,
						"contract": "Coding test/test8.sol:TEST8",
						"label": "isAgree",
						"offset": 0,
						"slot": "4",
						"type": "t_mapping(t_string_memory_ptr,t_bool)"
					}
				],
				"types": {
					"t_address": {
						"encoding": "inplace",
						"label": "address",
						"numberOfBytes": "20"
					},
					"t_array(t_address)dyn_storage": {
						"base": "t_address",
						"encoding": "dynamic_array",
						"label": "address[]",
						"numberOfBytes": "32"
					},
					"t_array(t_struct(matter)12_storage)dyn_storage": {
						"base": "t_struct(matter)12_storage",
						"encoding": "dynamic_array",
						"label": "struct TEST8.matter[]",
						"numberOfBytes": "32"
					},
					"t_array(t_struct(user)33_storage)dyn_storage": {
						"base": "t_struct(user)33_storage",
						"encoding": "dynamic_array",
						"label": "struct TEST8.user[]",
						"numberOfBytes": "32"
					},
					"t_bool": {
						"encoding": "inplace",
						"label": "bool",
						"numberOfBytes": "1"
					},
					"t_mapping(t_string_memory_ptr,t_bool)": {
						"encoding": "mapping",
						"key": "t_string_memory_ptr",
						"label": "mapping(string => bool)",
						"numberOfBytes": "32",
						"value": "t_bool"
					},
					"t_string_memory_ptr": {
						"encoding": "bytes",
						"label": "string",
						"numberOfBytes": "32"
					},
					"t_string_storage": {
						"encoding": "bytes",
						"label": "string",
						"numberOfBytes": "32"
					},
					"t_struct(matter)12_storage": {
						"encoding": "inplace",
						"label": "struct TEST8.matter",
						"members": [
							{
								"astId": 3,
								"contract": "Coding test/test8.sol:TEST8",
								"label": "num",
								"offset": 0,
								"slot": "0",
								"type": "t_uint256"
							},
							{
								"astId": 5,
								"contract": "Coding test/test8.sol:TEST8",
								"label": "title",
								"offset": 0,
								"slot": "1",
								"type": "t_string_storage"
							},
							{
								"astId": 7,
								"contract": "Coding test/test8.sol:TEST8",
								"label": "addr",
								"offset": 0,
								"slot": "2",
								"type": "t_address"
							},
							{
								"astId": 9,
								"contract": "Coding test/test8.sol:TEST8",
								"label": "agree",
								"offset": 0,
								"slot": "3",
								"type": "t_uint256"
							},
							{
								"astId": 11,
								"contract": "Coding test/test8.sol:TEST8",
								"label": "disagree",
								"offset": 0,
								"slot": "4",
								"type": "t_uint256"
							}
						],
						"numberOfBytes": "160"
					},
					"t_struct(user)33_storage": {
						"encoding": "inplace",
						"label": "struct TEST8.user",
						"members": [
							{
								"astId": 24,
								"contract": "Coding test/test8.sol:TEST8",
								"label": "name",
								"offset": 0,
								"slot": "0",
								"type": "t_string_storage"
							},
							{
								"astId": 26,
								"contract": "Coding test/test8.sol:TEST8",
								"label": "addr",
								"offset": 0,
								"slot": "1",
								"type": "t_address"
							},
							{
								"astId": 28,
								"contract": "Coding test/test8.sol:TEST8",
								"label": "title",
								"offset": 0,
								"slot": "2",
								"type": "t_string_storage"
							},
							{
								"astId": 30,
								"contract": "Coding test/test8.sol:TEST8",
								"label": "vote",
								"offset": 0,
								"slot": "3",
								"type": "t_string_storage"
							},
							{
								"astId": 32,
								"contract": "Coding test/test8.sol:TEST8",
								"label": "isAgree",
								"offset": 0,
								"slot": "4",
								"type": "t_bool"
							}
						],
						"numberOfBytes": "160"
					},
					"t_uint256": {
						"encoding": "inplace",
						"label": "uint256",
						"numberOfBytes": "32"
					}
				}
			},
			"userdoc": {
				"kind": "user",
				"methods": {},
				"version": 1
			}
		}
	}
}