{
	"Coding test/test2.sol": {
		"TEST2": {
			"abi": [
				{
					"inputs": [],
					"name": "getLength",
					"outputs": [
						{
							"internalType": "uint256",
							"name": "",
							"type": "uint256"
						}
					],
					"stateMutability": "view",
					"type": "function"
				},
				{
					"inputs": [
						{
							"internalType": "uint256",
							"name": "_num",
							"type": "uint256"
						}
					],
					"name": "getstudent",
					"outputs": [
						{
							"components": [
								{
									"internalType": "string",
									"name": "name",
									"type": "string"
								},
								{
									"internalType": "uint256",
									"name": "num",
									"type": "uint256"
								},
								{
									"internalType": "uint256",
									"name": "score",
									"type": "uint256"
								},
								{
									"internalType": "string",
									"name": "grade",
									"type": "string"
								},
								{
									"internalType": "string[]",
									"name": "class",
									"type": "string[]"
								}
							],
							"internalType": "struct TEST2.student[]",
							"name": "",
							"type": "tuple[]"
						}
					],
					"stateMutability": "view",
					"type": "function"
				},
				{
					"inputs": [
						{
							"internalType": "string",
							"name": "_name",
							"type": "string"
						}
					],
					"name": "getstudent",
					"outputs": [
						{
							"components": [
								{
									"internalType": "string",
									"name": "name",
									"type": "string"
								},
								{
									"internalType": "uint256",
									"name": "num",
									"type": "uint256"
								},
								{
									"internalType": "uint256",
									"name": "score",
									"type": "uint256"
								},
								{
									"internalType": "string",
									"name": "grade",
									"type": "string"
								},
								{
									"internalType": "string[]",
									"name": "class",
									"type": "string[]"
								}
							],
							"internalType": "struct TEST2.student[]",
							"name": "",
							"type": "tuple[]"
						}
					],
					"stateMutability": "view",
					"type": "function"
				},
				{
					"inputs": [
						{
							"internalType": "string",
							"name": "_name",
							"type": "string"
						},
						{
							"internalType": "uint256",
							"name": "_num",
							"type": "uint256"
						},
						{
							"internalType": "uint256",
							"name": "_score",
							"type": "uint256"
						},
						{
							"internalType": "string[]",
							"name": "_class",
							"type": "string[]"
						}
					],
					"name": "pushStudent",
					"outputs": [],
					"stateMutability": "nonpayable",
					"type": "function"
				},
				{
					"inputs": [
						{
							"internalType": "uint256",
							"name": "_score",
							"type": "uint256"
						}
					],
					"name": "setGrade",
					"outputs": [
						{
							"internalType": "string",
							"name": "",
							"type": "string"
						}
					],
					"stateMutability": "pure",
					"type": "function"
				}
			],
			"devdoc": {
				"kind": "dev",
				"methods": {},
				"version": 1
			},
			"evm": {
				"assembly": "    /* \"Coding test/test2.sol\":76:3257  contract TEST2 {... */\n  mstore(0x40, 0x80)\n  callvalue\n  dup1\n  iszero\n  tag_1\n  jumpi\n  0x00\n  dup1\n  revert\ntag_1:\n  pop\n  dataSize(sub_0)\n  dup1\n  dataOffset(sub_0)\n  0x00\n  codecopy\n  0x00\n  return\nstop\n\nsub_0: assembly {\n        /* \"Coding test/test2.sol\":76:3257  contract TEST2 {... */\n      mstore(0x40, 0x80)\n      callvalue\n      dup1\n      iszero\n      tag_1\n      jumpi\n      0x00\n      dup1\n      revert\n    tag_1:\n      pop\n      jumpi(tag_2, lt(calldatasize, 0x04))\n      shr(0xe0, calldataload(0x00))\n      dup1\n      0x674271cd\n      eq\n      tag_3\n      jumpi\n      dup1\n      0x84a1288d\n      eq\n      tag_4\n      jumpi\n      dup1\n      0xb0f3bdc2\n      eq\n      tag_5\n      jumpi\n      dup1\n      0xbe1c766b\n      eq\n      tag_6\n      jumpi\n      dup1\n      0xcd5b84eb\n      eq\n      tag_7\n      jumpi\n    tag_2:\n      0x00\n      dup1\n      revert\n        /* \"Coding test/test2.sol\":2290:2728  function setGrade(uint _score) public pure returns(string memory){... */\n    tag_3:\n      tag_8\n      0x04\n      dup1\n      calldatasize\n      sub\n      dup2\n      add\n      swap1\n      tag_9\n      swap2\n      swap1\n      tag_10\n      jump\t// in\n    tag_9:\n      tag_11\n      jump\t// in\n    tag_8:\n      mload(0x40)\n      tag_12\n      swap2\n      swap1\n      tag_13\n      jump\t// in\n    tag_12:\n      mload(0x40)\n      dup1\n      swap2\n      sub\n      swap1\n      return\n        /* \"Coding test/test2.sol\":2097:2282  function pushStudent(string memory _name, uint _num, uint _score, string[] memory _class) public {... */\n    tag_4:\n      tag_14\n      0x04\n      dup1\n      calldatasize\n      sub\n      dup2\n      add\n      swap1\n      tag_15\n      swap2\n      swap1\n      tag_16\n      jump\t// in\n    tag_15:\n      tag_17\n      jump\t// in\n    tag_14:\n      stop\n        /* \"Coding test/test2.sol\":2826:2936  function getstudent(uint _num) public view returns(student[] memory) {... */\n    tag_5:\n      tag_18\n      0x04\n      dup1\n      calldatasize\n      sub\n      dup2\n      add\n      swap1\n      tag_19\n      swap2\n      swap1\n      tag_10\n      jump\t// in\n    tag_19:\n      tag_20\n      jump\t// in\n    tag_18:\n      mload(0x40)\n      tag_21\n      swap2\n      swap1\n      tag_22\n      jump\t// in\n    tag_21:\n      mload(0x40)\n      dup1\n      swap2\n      sub\n      swap1\n      return\n        /* \"Coding test/test2.sol\":3158:3246  function getLength() public view returns(uint) {... */\n    tag_6:\n      tag_23\n      tag_24\n      jump\t// in\n    tag_23:\n      mload(0x40)\n      tag_25\n      swap2\n      swap1\n      tag_26\n      jump\t// in\n    tag_25:\n      mload(0x40)\n      dup1\n      swap2\n      sub\n      swap1\n      return\n        /* \"Coding test/test2.sol\":2944:3065  function getstudent(string memory _name) public view returns(student[] memory) {... */\n    tag_7:\n      tag_27\n      0x04\n      dup1\n      calldatasize\n      sub\n      dup2\n      add\n      swap1\n      tag_28\n      swap2\n      swap1\n      tag_29\n      jump\t// in\n    tag_28:\n      tag_30\n      jump\t// in\n    tag_27:\n      mload(0x40)\n      tag_31\n      swap2\n      swap1\n      tag_22\n      jump\t// in\n    tag_31:\n      mload(0x40)\n      dup1\n      swap2\n      sub\n      swap1\n      return\n        /* \"Coding test/test2.sol\":2290:2728  function setGrade(uint _score) public pure returns(string memory){... */\n    tag_11:\n        /* \"Coding test/test2.sol\":2341:2354  string memory */\n      0x60\n        /* \"Coding test/test2.sol\":2381:2384  100 */\n      0x64\n        /* \"Coding test/test2.sol\":2371:2377  _score */\n      dup3\n        /* \"Coding test/test2.sol\":2371:2384  _score <= 100 */\n      gt\n      iszero\n        /* \"Coding test/test2.sol\":2371:2400  _score <= 100 && _score >= 90 */\n      dup1\n      iszero\n      tag_33\n      jumpi\n      pop\n        /* \"Coding test/test2.sol\":2398:2400  90 */\n      0x5a\n        /* \"Coding test/test2.sol\":2388:2394  _score */\n      dup3\n        /* \"Coding test/test2.sol\":2388:2400  _score >= 90 */\n      lt\n      iszero\n        /* \"Coding test/test2.sol\":2371:2400  _score <= 100 && _score >= 90 */\n    tag_33:\n        /* \"Coding test/test2.sol\":2366:2721  if ( _score <= 100 && _score >= 90 ) {... */\n      iszero\n      tag_34\n      jumpi\n        /* \"Coding test/test2.sol\":2418:2428  return \"A\" */\n      mload(0x40)\n      dup1\n      0x40\n      add\n      0x40\n      mstore\n      dup1\n      0x01\n      dup2\n      mstore\n      0x20\n      add\n      0x4100000000000000000000000000000000000000000000000000000000000000\n      dup2\n      mstore\n      pop\n      swap1\n      pop\n      jump(tag_32)\n        /* \"Coding test/test2.sol\":2366:2721  if ( _score <= 100 && _score >= 90 ) {... */\n    tag_34:\n        /* \"Coding test/test2.sol\":2460:2462  90 */\n      0x5a\n        /* \"Coding test/test2.sol\":2451:2457  _score */\n      dup3\n        /* \"Coding test/test2.sol\":2451:2462  _score < 90 */\n      lt\n        /* \"Coding test/test2.sol\":2451:2479  _score < 90  && _score >= 80 */\n      dup1\n      iszero\n      tag_36\n      jumpi\n      pop\n        /* \"Coding test/test2.sol\":2477:2479  80 */\n      0x50\n        /* \"Coding test/test2.sol\":2467:2473  _score */\n      dup3\n        /* \"Coding test/test2.sol\":2467:2479  _score >= 80 */\n      lt\n      iszero\n        /* \"Coding test/test2.sol\":2451:2479  _score < 90  && _score >= 80 */\n    tag_36:\n        /* \"Coding test/test2.sol\":2446:2721  if ( _score < 90  && _score >= 80 ) {... */\n      iszero\n      tag_37\n      jumpi\n        /* \"Coding test/test2.sol\":2497:2507  return \"B\" */\n      mload(0x40)\n      dup1\n      0x40\n      add\n      0x40\n      mstore\n      dup1\n      0x01\n      dup2\n      mstore\n      0x20\n      add\n      0x4200000000000000000000000000000000000000000000000000000000000000\n      dup2\n      mstore\n      pop\n      swap1\n      pop\n      jump(tag_32)\n        /* \"Coding test/test2.sol\":2446:2721  if ( _score < 90  && _score >= 80 ) {... */\n    tag_37:\n        /* \"Coding test/test2.sol\":2539:2541  80 */\n      0x50\n        /* \"Coding test/test2.sol\":2530:2536  _score */\n      dup3\n        /* \"Coding test/test2.sol\":2530:2541  _score < 80 */\n      lt\n        /* \"Coding test/test2.sol\":2530:2558  _score < 80  && _score >= 70 */\n      dup1\n      iszero\n      tag_39\n      jumpi\n      pop\n        /* \"Coding test/test2.sol\":2556:2558  70 */\n      0x46\n        /* \"Coding test/test2.sol\":2546:2552  _score */\n      dup3\n        /* \"Coding test/test2.sol\":2546:2558  _score >= 70 */\n      lt\n      iszero\n        /* \"Coding test/test2.sol\":2530:2558  _score < 80  && _score >= 70 */\n    tag_39:\n        /* \"Coding test/test2.sol\":2525:2721  if ( _score < 80  && _score >= 70 ) {... */\n      iszero\n      tag_40\n      jumpi\n        /* \"Coding test/test2.sol\":2576:2586  return \"C\" */\n      mload(0x40)\n      dup1\n      0x40\n      add\n      0x40\n      mstore\n      dup1\n      0x01\n      dup2\n      mstore\n      0x20\n      add\n      0x4300000000000000000000000000000000000000000000000000000000000000\n      dup2\n      mstore\n      pop\n      swap1\n      pop\n      jump(tag_32)\n        /* \"Coding test/test2.sol\":2525:2721  if ( _score < 80  && _score >= 70 ) {... */\n    tag_40:\n        /* \"Coding test/test2.sol\":2619:2621  70 */\n      0x46\n        /* \"Coding test/test2.sol\":2610:2616  _score */\n      dup3\n        /* \"Coding test/test2.sol\":2610:2621  _score < 70 */\n      lt\n        /* \"Coding test/test2.sol\":2610:2638  _score < 70  && _score >= 60 */\n      dup1\n      iszero\n      tag_42\n      jumpi\n      pop\n        /* \"Coding test/test2.sol\":2636:2638  60 */\n      0x3c\n        /* \"Coding test/test2.sol\":2626:2632  _score */\n      dup3\n        /* \"Coding test/test2.sol\":2626:2638  _score >= 60 */\n      lt\n      iszero\n        /* \"Coding test/test2.sol\":2610:2638  _score < 70  && _score >= 60 */\n    tag_42:\n        /* \"Coding test/test2.sol\":2604:2721  if  ( _score < 70  && _score >= 60 ) {... */\n      iszero\n      tag_43\n      jumpi\n        /* \"Coding test/test2.sol\":2656:2666  return \"D\" */\n      mload(0x40)\n      dup1\n      0x40\n      add\n      0x40\n      mstore\n      dup1\n      0x01\n      dup2\n      mstore\n      0x20\n      add\n      0x4400000000000000000000000000000000000000000000000000000000000000\n      dup2\n      mstore\n      pop\n      swap1\n      pop\n      jump(tag_32)\n        /* \"Coding test/test2.sol\":2604:2721  if  ( _score < 70  && _score >= 60 ) {... */\n    tag_43:\n        /* \"Coding test/test2.sol\":2699:2709  return \"F\" */\n      mload(0x40)\n      dup1\n      0x40\n      add\n      0x40\n      mstore\n      dup1\n      0x01\n      dup2\n      mstore\n      0x20\n      add\n      0x4600000000000000000000000000000000000000000000000000000000000000\n      dup2\n      mstore\n      pop\n      swap1\n      pop\n        /* \"Coding test/test2.sol\":2290:2728  function setGrade(uint _score) public pure returns(string memory){... */\n    tag_32:\n      swap2\n      swap1\n      pop\n      jump\t// out\n        /* \"Coding test/test2.sol\":2097:2282  function pushStudent(string memory _name, uint _num, uint _score, string[] memory _class) public {... */\n    tag_17:\n        /* \"Coding test/test2.sol\":2205:2213  Students */\n      0x05\n        /* \"Coding test/test2.sol\":2219:2273  student(_name, _num, _score, setGrade(_score), _class) */\n      mload(0x40)\n      dup1\n      0xa0\n      add\n      0x40\n      mstore\n      dup1\n        /* \"Coding test/test2.sol\":2227:2232  _name */\n      dup7\n        /* \"Coding test/test2.sol\":2219:2273  student(_name, _num, _score, setGrade(_score), _class) */\n      dup2\n      mstore\n      0x20\n      add\n        /* \"Coding test/test2.sol\":2234:2238  _num */\n      dup6\n        /* \"Coding test/test2.sol\":2219:2273  student(_name, _num, _score, setGrade(_score), _class) */\n      dup2\n      mstore\n      0x20\n      add\n        /* \"Coding test/test2.sol\":2240:2246  _score */\n      dup5\n        /* \"Coding test/test2.sol\":2219:2273  student(_name, _num, _score, setGrade(_score), _class) */\n      dup2\n      mstore\n      0x20\n      add\n        /* \"Coding test/test2.sol\":2248:2264  setGrade(_score) */\n      tag_46\n        /* \"Coding test/test2.sol\":2257:2263  _score */\n      dup6\n        /* \"Coding test/test2.sol\":2248:2256  setGrade */\n      tag_11\n        /* \"Coding test/test2.sol\":2248:2264  setGrade(_score) */\n      jump\t// in\n    tag_46:\n        /* \"Coding test/test2.sol\":2219:2273  student(_name, _num, _score, setGrade(_score), _class) */\n      dup2\n      mstore\n      0x20\n      add\n        /* \"Coding test/test2.sol\":2266:2272  _class */\n      dup4\n        /* \"Coding test/test2.sol\":2219:2273  student(_name, _num, _score, setGrade(_score), _class) */\n      dup2\n      mstore\n      pop\n        /* \"Coding test/test2.sol\":2205:2274  Students.push(student(_name, _num, _score, setGrade(_score), _class)) */\n      swap1\n      dup1\n      0x01\n      dup2\n      sload\n      add\n      dup1\n      dup3\n      sstore\n      dup1\n      swap2\n      pop\n      pop\n      0x01\n      swap1\n      sub\n      swap1\n      0x00\n      mstore\n      keccak256(0x00, 0x20)\n      swap1\n      0x05\n      mul\n      add\n      0x00\n      swap1\n      swap2\n      swap1\n      swap2\n      swap1\n      swap2\n      pop\n      0x00\n      dup3\n      add\n      mload\n      dup2\n      0x00\n      add\n      swap1\n      dup2\n      tag_48\n      swap2\n      swap1\n      tag_49\n      jump\t// in\n    tag_48:\n      pop\n      0x20\n      dup3\n      add\n      mload\n      dup2\n      0x01\n      add\n      sstore\n      0x40\n      dup3\n      add\n      mload\n      dup2\n      0x02\n      add\n      sstore\n      0x60\n      dup3\n      add\n      mload\n      dup2\n      0x03\n      add\n      swap1\n      dup2\n      tag_50\n      swap2\n      swap1\n      tag_49\n      jump\t// in\n    tag_50:\n      pop\n      0x80\n      dup3\n      add\n      mload\n      dup2\n      0x04\n      add\n      swap1\n      dup1\n      mload\n      swap1\n      0x20\n      add\n      swap1\n      tag_51\n      swap3\n      swap2\n      swap1\n      tag_52\n      jump\t// in\n    tag_51:\n      pop\n      pop\n      pop\n        /* \"Coding test/test2.sol\":2097:2282  function pushStudent(string memory _name, uint _num, uint _score, string[] memory _class) public {... */\n      pop\n      pop\n      pop\n      pop\n      jump\t// out\n        /* \"Coding test/test2.sol\":2826:2936  function getstudent(uint _num) public view returns(student[] memory) {... */\n    tag_20:\n        /* \"Coding test/test2.sol\":2877:2893  student[] memory */\n      0x60\n        /* \"Coding test/test2.sol\":2913:2922  students2 */\n      0x07\n        /* \"Coding test/test2.sol\":2913:2928  students2[_num] */\n      0x00\n        /* \"Coding test/test2.sol\":2923:2927  _num */\n      dup4\n        /* \"Coding test/test2.sol\":2913:2928  students2[_num] */\n      dup2\n      mstore\n      0x20\n      add\n      swap1\n      dup2\n      mstore\n      0x20\n      add\n      0x00\n      keccak256\n        /* \"Coding test/test2.sol\":2906:2928  return students2[_num] */\n      dup1\n      sload\n      dup1\n      0x20\n      mul\n      0x20\n      add\n      mload(0x40)\n      swap1\n      dup2\n      add\n      0x40\n      mstore\n      dup1\n      swap3\n      swap2\n      swap1\n      dup2\n      dup2\n      mstore\n      0x20\n      add\n      0x00\n      swap1\n    tag_54:\n      dup3\n      dup3\n      lt\n      iszero\n      tag_55\n      jumpi\n      dup4\n      dup3\n      swap1\n      0x00\n      mstore\n      keccak256(0x00, 0x20)\n      swap1\n      0x05\n      mul\n      add\n      mload(0x40)\n      dup1\n      0xa0\n      add\n      0x40\n      mstore\n      swap1\n      dup2\n      0x00\n      dup3\n      add\n      dup1\n      sload\n      tag_57\n      swap1\n      tag_58\n      jump\t// in\n    tag_57:\n      dup1\n      0x1f\n      add\n      0x20\n      dup1\n      swap2\n      div\n      mul\n      0x20\n      add\n      mload(0x40)\n      swap1\n      dup2\n      add\n      0x40\n      mstore\n      dup1\n      swap3\n      swap2\n      swap1\n      dup2\n      dup2\n      mstore\n      0x20\n      add\n      dup3\n      dup1\n      sload\n      tag_59\n      swap1\n      tag_58\n      jump\t// in\n    tag_59:\n      dup1\n      iszero\n      tag_60\n      jumpi\n      dup1\n      0x1f\n      lt\n      tag_61\n      jumpi\n      0x0100\n      dup1\n      dup4\n      sload\n      div\n      mul\n      dup4\n      mstore\n      swap2\n      0x20\n      add\n      swap2\n      jump(tag_60)\n    tag_61:\n      dup3\n      add\n      swap2\n      swap1\n      0x00\n      mstore\n      keccak256(0x00, 0x20)\n      swap1\n    tag_62:\n      dup2\n      sload\n      dup2\n      mstore\n      swap1\n      0x01\n      add\n      swap1\n      0x20\n      add\n      dup1\n      dup4\n      gt\n      tag_62\n      jumpi\n      dup3\n      swap1\n      sub\n      0x1f\n      and\n      dup3\n      add\n      swap2\n    tag_60:\n      pop\n      pop\n      pop\n      pop\n      pop\n      dup2\n      mstore\n      0x20\n      add\n      0x01\n      dup3\n      add\n      sload\n      dup2\n      mstore\n      0x20\n      add\n      0x02\n      dup3\n      add\n      sload\n      dup2\n      mstore\n      0x20\n      add\n      0x03\n      dup3\n      add\n      dup1\n      sload\n      tag_63\n      swap1\n      tag_58\n      jump\t// in\n    tag_63:\n      dup1\n      0x1f\n      add\n      0x20\n      dup1\n      swap2\n      div\n      mul\n      0x20\n      add\n      mload(0x40)\n      swap1\n      dup2\n      add\n      0x40\n      mstore\n      dup1\n      swap3\n      swap2\n      swap1\n      dup2\n      dup2\n      mstore\n      0x20\n      add\n      dup3\n      dup1\n      sload\n      tag_64\n      swap1\n      tag_58\n      jump\t// in\n    tag_64:\n      dup1\n      iszero\n      tag_65\n      jumpi\n      dup1\n      0x1f\n      lt\n      tag_66\n      jumpi\n      0x0100\n      dup1\n      dup4\n      sload\n      div\n      mul\n      dup4\n      mstore\n      swap2\n      0x20\n      add\n      swap2\n      jump(tag_65)\n    tag_66:\n      dup3\n      add\n      swap2\n      swap1\n      0x00\n      mstore\n      keccak256(0x00, 0x20)\n      swap1\n    tag_67:\n      dup2\n      sload\n      dup2\n      mstore\n      swap1\n      0x01\n      add\n      swap1\n      0x20\n      add\n      dup1\n      dup4\n      gt\n      tag_67\n      jumpi\n      dup3\n      swap1\n      sub\n      0x1f\n      and\n      dup3\n      add\n      swap2\n    tag_65:\n      pop\n      pop\n      pop\n      pop\n      pop\n      dup2\n      mstore\n      0x20\n      add\n      0x04\n      dup3\n      add\n      dup1\n      sload\n      dup1\n      0x20\n      mul\n      0x20\n      add\n      mload(0x40)\n      swap1\n      dup2\n      add\n      0x40\n      mstore\n      dup1\n      swap3\n      swap2\n      swap1\n      dup2\n      dup2\n      mstore\n      0x20\n      add\n      0x00\n      swap1\n    tag_68:\n      dup3\n      dup3\n      lt\n      iszero\n      tag_69\n      jumpi\n      dup4\n      dup3\n      swap1\n      0x00\n      mstore\n      keccak256(0x00, 0x20)\n      add\n      dup1\n      sload\n      tag_71\n      swap1\n      tag_58\n      jump\t// in\n    tag_71:\n      dup1\n      0x1f\n      add\n      0x20\n      dup1\n      swap2\n      div\n      mul\n      0x20\n      add\n      mload(0x40)\n      swap1\n      dup2\n      add\n      0x40\n      mstore\n      dup1\n      swap3\n      swap2\n      swap1\n      dup2\n      dup2\n      mstore\n      0x20\n      add\n      dup3\n      dup1\n      sload\n      tag_72\n      swap1\n      tag_58\n      jump\t// in\n    tag_72:\n      dup1\n      iszero\n      tag_73\n      jumpi\n      dup1\n      0x1f\n      lt\n      tag_74\n      jumpi\n      0x0100\n      dup1\n      dup4\n      sload\n      div\n      mul\n      dup4\n      mstore\n      swap2\n      0x20\n      add\n      swap2\n      jump(tag_73)\n    tag_74:\n      dup3\n      add\n      swap2\n      swap1\n      0x00\n      mstore\n      keccak256(0x00, 0x20)\n      swap1\n    tag_75:\n      dup2\n      sload\n      dup2\n      mstore\n      swap1\n      0x01\n      add\n      swap1\n      0x20\n      add\n      dup1\n      dup4\n      gt\n      tag_75\n      jumpi\n      dup3\n      swap1\n      sub\n      0x1f\n      and\n      dup3\n      add\n      swap2\n    tag_73:\n      pop\n      pop\n      pop\n      pop\n      pop\n      dup2\n      mstore\n      0x20\n      add\n      swap1\n      0x01\n      add\n      swap1\n      jump(tag_68)\n    tag_69:\n      pop\n      pop\n      pop\n      pop\n      dup2\n      mstore\n      pop\n      pop\n      dup2\n      mstore\n      0x20\n      add\n      swap1\n      0x01\n      add\n      swap1\n      jump(tag_54)\n    tag_55:\n      pop\n      pop\n      pop\n      pop\n      swap1\n      pop\n        /* \"Coding test/test2.sol\":2826:2936  function getstudent(uint _num) public view returns(student[] memory) {... */\n      swap2\n      swap1\n      pop\n      jump\t// out\n        /* \"Coding test/test2.sol\":3158:3246  function getLength() public view returns(uint) {... */\n    tag_24:\n        /* \"Coding test/test2.sol\":3199:3203  uint */\n      0x00\n        /* \"Coding test/test2.sol\":3223:3231  Students */\n      0x05\n        /* \"Coding test/test2.sol\":3223:3238  Students.length */\n      dup1\n      sload\n      swap1\n      pop\n        /* \"Coding test/test2.sol\":3216:3238  return Students.length */\n      swap1\n      pop\n        /* \"Coding test/test2.sol\":3158:3246  function getLength() public view returns(uint) {... */\n      swap1\n      jump\t// out\n        /* \"Coding test/test2.sol\":2944:3065  function getstudent(string memory _name) public view returns(student[] memory) {... */\n    tag_30:\n        /* \"Coding test/test2.sol\":3005:3021  student[] memory */\n      0x60\n        /* \"Coding test/test2.sol\":3041:3050  students1 */\n      0x06\n        /* \"Coding test/test2.sol\":3051:3056  _name */\n      dup3\n        /* \"Coding test/test2.sol\":3041:3057  students1[_name] */\n      mload(0x40)\n      tag_78\n      swap2\n      swap1\n      tag_79\n      jump\t// in\n    tag_78:\n      swap1\n      dup2\n      mstore\n      0x20\n      add\n      mload(0x40)\n      dup1\n      swap2\n      sub\n      swap1\n      keccak256\n        /* \"Coding test/test2.sol\":3034:3057  return students1[_name] */\n      dup1\n      sload\n      dup1\n      0x20\n      mul\n      0x20\n      add\n      mload(0x40)\n      swap1\n      dup2\n      add\n      0x40\n      mstore\n      dup1\n      swap3\n      swap2\n      swap1\n      dup2\n      dup2\n      mstore\n      0x20\n      add\n      0x00\n      swap1\n    tag_80:\n      dup3\n      dup3\n      lt\n      iszero\n      tag_81\n      jumpi\n      dup4\n      dup3\n      swap1\n      0x00\n      mstore\n      keccak256(0x00, 0x20)\n      swap1\n      0x05\n      mul\n      add\n      mload(0x40)\n      dup1\n      0xa0\n      add\n      0x40\n      mstore\n      swap1\n      dup2\n      0x00\n      dup3\n      add\n      dup1\n      sload\n      tag_83\n      swap1\n      tag_58\n      jump\t// in\n    tag_83:\n      dup1\n      0x1f\n      add\n      0x20\n      dup1\n      swap2\n      div\n      mul\n      0x20\n      add\n      mload(0x40)\n      swap1\n      dup2\n      add\n      0x40\n      mstore\n      dup1\n      swap3\n      swap2\n      swap1\n      dup2\n      dup2\n      mstore\n      0x20\n      add\n      dup3\n      dup1\n      sload\n      tag_84\n      swap1\n      tag_58\n      jump\t// in\n    tag_84:\n      dup1\n      iszero\n      tag_85\n      jumpi\n      dup1\n      0x1f\n      lt\n      tag_86\n      jumpi\n      0x0100\n      dup1\n      dup4\n      sload\n      div\n      mul\n      dup4\n      mstore\n      swap2\n      0x20\n      add\n      swap2\n      jump(tag_85)\n    tag_86:\n      dup3\n      add\n      swap2\n      swap1\n      0x00\n      mstore\n      keccak256(0x00, 0x20)\n      swap1\n    tag_87:\n      dup2\n      sload\n      dup2\n      mstore\n      swap1\n      0x01\n      add\n      swap1\n      0x20\n      add\n      dup1\n      dup4\n      gt\n      tag_87\n      jumpi\n      dup3\n      swap1\n      sub\n      0x1f\n      and\n      dup3\n      add\n      swap2\n    tag_85:\n      pop\n      pop\n      pop\n      pop\n      pop\n      dup2\n      mstore\n      0x20\n      add\n      0x01\n      dup3\n      add\n      sload\n      dup2\n      mstore\n      0x20\n      add\n      0x02\n      dup3\n      add\n      sload\n      dup2\n      mstore\n      0x20\n      add\n      0x03\n      dup3\n      add\n      dup1\n      sload\n      tag_88\n      swap1\n      tag_58\n      jump\t// in\n    tag_88:\n      dup1\n      0x1f\n      add\n      0x20\n      dup1\n      swap2\n      div\n      mul\n      0x20\n      add\n      mload(0x40)\n      swap1\n      dup2\n      add\n      0x40\n      mstore\n      dup1\n      swap3\n      swap2\n      swap1\n      dup2\n      dup2\n      mstore\n      0x20\n      add\n      dup3\n      dup1\n      sload\n      tag_89\n      swap1\n      tag_58\n      jump\t// in\n    tag_89:\n      dup1\n      iszero\n      tag_90\n      jumpi\n      dup1\n      0x1f\n      lt\n      tag_91\n      jumpi\n      0x0100\n      dup1\n      dup4\n      sload\n      div\n      mul\n      dup4\n      mstore\n      swap2\n      0x20\n      add\n      swap2\n      jump(tag_90)\n    tag_91:\n      dup3\n      add\n      swap2\n      swap1\n      0x00\n      mstore\n      keccak256(0x00, 0x20)\n      swap1\n    tag_92:\n      dup2\n      sload\n      dup2\n      mstore\n      swap1\n      0x01\n      add\n      swap1\n      0x20\n      add\n      dup1\n      dup4\n      gt\n      tag_92\n      jumpi\n      dup3\n      swap1\n      sub\n      0x1f\n      and\n      dup3\n      add\n      swap2\n    tag_90:\n      pop\n      pop\n      pop\n      pop\n      pop\n      dup2\n      mstore\n      0x20\n      add\n      0x04\n      dup3\n      add\n      dup1\n      sload\n      dup1\n      0x20\n      mul\n      0x20\n      add\n      mload(0x40)\n      swap1\n      dup2\n      add\n      0x40\n      mstore\n      dup1\n      swap3\n      swap2\n      swap1\n      dup2\n      dup2\n      mstore\n      0x20\n      add\n      0x00\n      swap1\n    tag_93:\n      dup3\n      dup3\n      lt\n      iszero\n      tag_94\n      jumpi\n      dup4\n      dup3\n      swap1\n      0x00\n      mstore\n      keccak256(0x00, 0x20)\n      add\n      dup1\n      sload\n      tag_96\n      swap1\n      tag_58\n      jump\t// in\n    tag_96:\n      dup1\n      0x1f\n      add\n      0x20\n      dup1\n      swap2\n      div\n      mul\n      0x20\n      add\n      mload(0x40)\n      swap1\n      dup2\n      add\n      0x40\n      mstore\n      dup1\n      swap3\n      swap2\n      swap1\n      dup2\n      dup2\n      mstore\n      0x20\n      add\n      dup3\n      dup1\n      sload\n      tag_97\n      swap1\n      tag_58\n      jump\t// in\n    tag_97:\n      dup1\n      iszero\n      tag_98\n      jumpi\n      dup1\n      0x1f\n      lt\n      tag_99\n      jumpi\n      0x0100\n      dup1\n      dup4\n      sload\n      div\n      mul\n      dup4\n      mstore\n      swap2\n      0x20\n      add\n      swap2\n      jump(tag_98)\n    tag_99:\n      dup3\n      add\n      swap2\n      swap1\n      0x00\n      mstore\n      keccak256(0x00, 0x20)\n      swap1\n    tag_100:\n      dup2\n      sload\n      dup2\n      mstore\n      swap1\n      0x01\n      add\n      swap1\n      0x20\n      add\n      dup1\n      dup4\n      gt\n      tag_100\n      jumpi\n      dup3\n      swap1\n      sub\n      0x1f\n      and\n      dup3\n      add\n      swap2\n    tag_98:\n      pop\n      pop\n      pop\n      pop\n      pop\n      dup2\n      mstore\n      0x20\n      add\n      swap1\n      0x01\n      add\n      swap1\n      jump(tag_93)\n    tag_94:\n      pop\n      pop\n      pop\n      pop\n      dup2\n      mstore\n      pop\n      pop\n      dup2\n      mstore\n      0x20\n      add\n      swap1\n      0x01\n      add\n      swap1\n      jump(tag_80)\n    tag_81:\n      pop\n      pop\n      pop\n      pop\n      swap1\n      pop\n        /* \"Coding test/test2.sol\":2944:3065  function getstudent(string memory _name) public view returns(student[] memory) {... */\n      swap2\n      swap1\n      pop\n      jump\t// out\n    tag_52:\n      dup3\n      dup1\n      sload\n      dup3\n      dup3\n      sstore\n      swap1\n      0x00\n      mstore\n      keccak256(0x00, 0x20)\n      swap1\n      dup2\n      add\n      swap3\n      dup3\n      iszero\n      tag_101\n      jumpi\n      swap2\n      0x20\n      mul\n      dup3\n      add\n    tag_102:\n      dup3\n      dup2\n      gt\n      iszero\n      tag_103\n      jumpi\n      dup3\n      mload\n      dup3\n      swap1\n      dup2\n      tag_104\n      swap2\n      swap1\n      tag_49\n      jump\t// in\n    tag_104:\n      pop\n      swap2\n      0x20\n      add\n      swap2\n      swap1\n      0x01\n      add\n      swap1\n      jump(tag_102)\n    tag_103:\n    tag_101:\n      pop\n      swap1\n      pop\n      tag_105\n      swap2\n      swap1\n      tag_106\n      jump\t// in\n    tag_105:\n      pop\n      swap1\n      jump\t// out\n    tag_106:\n    tag_107:\n      dup1\n      dup3\n      gt\n      iszero\n      tag_108\n      jumpi\n      0x00\n      dup2\n      dup2\n      tag_109\n      swap2\n      swap1\n      tag_110\n      jump\t// in\n    tag_109:\n      pop\n      0x01\n      add\n      jump(tag_107)\n    tag_108:\n      pop\n      swap1\n      jump\t// out\n    tag_110:\n      pop\n      dup1\n      sload\n      tag_111\n      swap1\n      tag_58\n      jump\t// in\n    tag_111:\n      0x00\n      dup3\n      sstore\n      dup1\n      0x1f\n      lt\n      tag_113\n      jumpi\n      pop\n      jump(tag_112)\n    tag_113:\n      0x1f\n      add\n      0x20\n      swap1\n      div\n      swap1\n      0x00\n      mstore\n      keccak256(0x00, 0x20)\n      swap1\n      dup2\n      add\n      swap1\n      tag_114\n      swap2\n      swap1\n      tag_115\n      jump\t// in\n    tag_114:\n    tag_112:\n      pop\n      jump\t// out\n    tag_115:\n    tag_116:\n      dup1\n      dup3\n      gt\n      iszero\n      tag_117\n      jumpi\n      0x00\n      dup2\n      0x00\n      swap1\n      sstore\n      pop\n      0x01\n      add\n      jump(tag_116)\n    tag_117:\n      pop\n      swap1\n      jump\t// out\n        /* \"#utility.yul\":7:82   */\n    tag_118:\n        /* \"#utility.yul\":40:46   */\n      0x00\n        /* \"#utility.yul\":73:75   */\n      0x40\n        /* \"#utility.yul\":67:76   */\n      mload\n        /* \"#utility.yul\":57:76   */\n      swap1\n      pop\n        /* \"#utility.yul\":7:82   */\n      swap1\n      jump\t// out\n        /* \"#utility.yul\":88:205   */\n    tag_119:\n        /* \"#utility.yul\":197:198   */\n      0x00\n        /* \"#utility.yul\":194:195   */\n      dup1\n        /* \"#utility.yul\":187:199   */\n      revert\n        /* \"#utility.yul\":211:328   */\n    tag_120:\n        /* \"#utility.yul\":320:321   */\n      0x00\n        /* \"#utility.yul\":317:318   */\n      dup1\n        /* \"#utility.yul\":310:322   */\n      revert\n        /* \"#utility.yul\":334:411   */\n    tag_121:\n        /* \"#utility.yul\":371:378   */\n      0x00\n        /* \"#utility.yul\":400:405   */\n      dup2\n        /* \"#utility.yul\":389:405   */\n      swap1\n      pop\n        /* \"#utility.yul\":334:411   */\n      swap2\n      swap1\n      pop\n      jump\t// out\n        /* \"#utility.yul\":417:539   */\n    tag_122:\n        /* \"#utility.yul\":490:514   */\n      tag_183\n        /* \"#utility.yul\":508:513   */\n      dup2\n        /* \"#utility.yul\":490:514   */\n      tag_121\n      jump\t// in\n    tag_183:\n        /* \"#utility.yul\":483:488   */\n      dup2\n        /* \"#utility.yul\":480:515   */\n      eq\n        /* \"#utility.yul\":470:533   */\n      tag_184\n      jumpi\n        /* \"#utility.yul\":529:530   */\n      0x00\n        /* \"#utility.yul\":526:527   */\n      dup1\n        /* \"#utility.yul\":519:531   */\n      revert\n        /* \"#utility.yul\":470:533   */\n    tag_184:\n        /* \"#utility.yul\":417:539   */\n      pop\n      jump\t// out\n        /* \"#utility.yul\":545:684   */\n    tag_123:\n        /* \"#utility.yul\":591:596   */\n      0x00\n        /* \"#utility.yul\":629:635   */\n      dup2\n        /* \"#utility.yul\":616:636   */\n      calldataload\n        /* \"#utility.yul\":607:636   */\n      swap1\n      pop\n        /* \"#utility.yul\":645:678   */\n      tag_186\n        /* \"#utility.yul\":672:677   */\n      dup2\n        /* \"#utility.yul\":645:678   */\n      tag_122\n      jump\t// in\n    tag_186:\n        /* \"#utility.yul\":545:684   */\n      swap3\n      swap2\n      pop\n      pop\n      jump\t// out\n        /* \"#utility.yul\":690:1019   */\n    tag_10:\n        /* \"#utility.yul\":749:755   */\n      0x00\n        /* \"#utility.yul\":798:800   */\n      0x20\n        /* \"#utility.yul\":786:795   */\n      dup3\n        /* \"#utility.yul\":777:784   */\n      dup5\n        /* \"#utility.yul\":773:796   */\n      sub\n        /* \"#utility.yul\":769:801   */\n      slt\n        /* \"#utility.yul\":766:885   */\n      iszero\n      tag_188\n      jumpi\n        /* \"#utility.yul\":804:883   */\n      tag_189\n      tag_119\n      jump\t// in\n    tag_189:\n        /* \"#utility.yul\":766:885   */\n    tag_188:\n        /* \"#utility.yul\":924:925   */\n      0x00\n        /* \"#utility.yul\":949:1002   */\n      tag_190\n        /* \"#utility.yul\":994:1001   */\n      dup5\n        /* \"#utility.yul\":985:991   */\n      dup3\n        /* \"#utility.yul\":974:983   */\n      dup6\n        /* \"#utility.yul\":970:992   */\n      add\n        /* \"#utility.yul\":949:1002   */\n      tag_123\n      jump\t// in\n    tag_190:\n        /* \"#utility.yul\":939:1002   */\n      swap2\n      pop\n        /* \"#utility.yul\":895:1012   */\n      pop\n        /* \"#utility.yul\":690:1019   */\n      swap3\n      swap2\n      pop\n      pop\n      jump\t// out\n        /* \"#utility.yul\":1025:1124   */\n    tag_124:\n        /* \"#utility.yul\":1077:1083   */\n      0x00\n        /* \"#utility.yul\":1111:1116   */\n      dup2\n        /* \"#utility.yul\":1105:1117   */\n      mload\n        /* \"#utility.yul\":1095:1117   */\n      swap1\n      pop\n        /* \"#utility.yul\":1025:1124   */\n      swap2\n      swap1\n      pop\n      jump\t// out\n        /* \"#utility.yul\":1130:1299   */\n    tag_125:\n        /* \"#utility.yul\":1214:1225   */\n      0x00\n        /* \"#utility.yul\":1248:1254   */\n      dup3\n        /* \"#utility.yul\":1243:1246   */\n      dup3\n        /* \"#utility.yul\":1236:1255   */\n      mstore\n        /* \"#utility.yul\":1288:1292   */\n      0x20\n        /* \"#utility.yul\":1283:1286   */\n      dup3\n        /* \"#utility.yul\":1279:1293   */\n      add\n        /* \"#utility.yul\":1264:1293   */\n      swap1\n      pop\n        /* \"#utility.yul\":1130:1299   */\n      swap3\n      swap2\n      pop\n      pop\n      jump\t// out\n        /* \"#utility.yul\":1305:1444   */\n    tag_126:\n        /* \"#utility.yul\":1394:1400   */\n      dup3\n        /* \"#utility.yul\":1389:1392   */\n      dup2\n        /* \"#utility.yul\":1384:1387   */\n      dup4\n        /* \"#utility.yul\":1378:1401   */\n      mcopy\n        /* \"#utility.yul\":1435:1436   */\n      0x00\n        /* \"#utility.yul\":1426:1432   */\n      dup4\n        /* \"#utility.yul\":1421:1424   */\n      dup4\n        /* \"#utility.yul\":1417:1433   */\n      add\n        /* \"#utility.yul\":1410:1437   */\n      mstore\n        /* \"#utility.yul\":1305:1444   */\n      pop\n      pop\n      pop\n      jump\t// out\n        /* \"#utility.yul\":1450:1552   */\n    tag_127:\n        /* \"#utility.yul\":1491:1497   */\n      0x00\n        /* \"#utility.yul\":1542:1544   */\n      0x1f\n        /* \"#utility.yul\":1538:1545   */\n      not\n        /* \"#utility.yul\":1533:1535   */\n      0x1f\n        /* \"#utility.yul\":1526:1531   */\n      dup4\n        /* \"#utility.yul\":1522:1536   */\n      add\n        /* \"#utility.yul\":1518:1546   */\n      and\n        /* \"#utility.yul\":1508:1546   */\n      swap1\n      pop\n        /* \"#utility.yul\":1450:1552   */\n      swap2\n      swap1\n      pop\n      jump\t// out\n        /* \"#utility.yul\":1558:1935   */\n    tag_128:\n        /* \"#utility.yul\":1646:1649   */\n      0x00\n        /* \"#utility.yul\":1674:1713   */\n      tag_196\n        /* \"#utility.yul\":1707:1712   */\n      dup3\n        /* \"#utility.yul\":1674:1713   */\n      tag_124\n      jump\t// in\n    tag_196:\n        /* \"#utility.yul\":1729:1800   */\n      tag_197\n        /* \"#utility.yul\":1793:1799   */\n      dup2\n        /* \"#utility.yul\":1788:1791   */\n      dup6\n        /* \"#utility.yul\":1729:1800   */\n      tag_125\n      jump\t// in\n    tag_197:\n        /* \"#utility.yul\":1722:1800   */\n      swap4\n      pop\n        /* \"#utility.yul\":1809:1874   */\n      tag_198\n        /* \"#utility.yul\":1867:1873   */\n      dup2\n        /* \"#utility.yul\":1862:1865   */\n      dup6\n        /* \"#utility.yul\":1855:1859   */\n      0x20\n        /* \"#utility.yul\":1848:1853   */\n      dup7\n        /* \"#utility.yul\":1844:1860   */\n      add\n        /* \"#utility.yul\":1809:1874   */\n      tag_126\n      jump\t// in\n    tag_198:\n        /* \"#utility.yul\":1899:1928   */\n      tag_199\n        /* \"#utility.yul\":1921:1927   */\n      dup2\n        /* \"#utility.yul\":1899:1928   */\n      tag_127\n      jump\t// in\n    tag_199:\n        /* \"#utility.yul\":1894:1897   */\n      dup5\n        /* \"#utility.yul\":1890:1929   */\n      add\n        /* \"#utility.yul\":1883:1929   */\n      swap2\n      pop\n        /* \"#utility.yul\":1650:1935   */\n      pop\n        /* \"#utility.yul\":1558:1935   */\n      swap3\n      swap2\n      pop\n      pop\n      jump\t// out\n        /* \"#utility.yul\":1941:2254   */\n    tag_13:\n        /* \"#utility.yul\":2054:2058   */\n      0x00\n        /* \"#utility.yul\":2092:2094   */\n      0x20\n        /* \"#utility.yul\":2081:2090   */\n      dup3\n        /* \"#utility.yul\":2077:2095   */\n      add\n        /* \"#utility.yul\":2069:2095   */\n      swap1\n      pop\n        /* \"#utility.yul\":2141:2150   */\n      dup2\n        /* \"#utility.yul\":2135:2139   */\n      dup2\n        /* \"#utility.yul\":2131:2151   */\n      sub\n        /* \"#utility.yul\":2127:2128   */\n      0x00\n        /* \"#utility.yul\":2116:2125   */\n      dup4\n        /* \"#utility.yul\":2112:2129   */\n      add\n        /* \"#utility.yul\":2105:2152   */\n      mstore\n        /* \"#utility.yul\":2169:2247   */\n      tag_201\n        /* \"#utility.yul\":2242:2246   */\n      dup2\n        /* \"#utility.yul\":2233:2239   */\n      dup5\n        /* \"#utility.yul\":2169:2247   */\n      tag_128\n      jump\t// in\n    tag_201:\n        /* \"#utility.yul\":2161:2247   */\n      swap1\n      pop\n        /* \"#utility.yul\":1941:2254   */\n      swap3\n      swap2\n      pop\n      pop\n      jump\t// out\n        /* \"#utility.yul\":2260:2377   */\n    tag_129:\n        /* \"#utility.yul\":2369:2370   */\n      0x00\n        /* \"#utility.yul\":2366:2367   */\n      dup1\n        /* \"#utility.yul\":2359:2371   */\n      revert\n        /* \"#utility.yul\":2383:2500   */\n    tag_130:\n        /* \"#utility.yul\":2492:2493   */\n      0x00\n        /* \"#utility.yul\":2489:2490   */\n      dup1\n        /* \"#utility.yul\":2482:2494   */\n      revert\n        /* \"#utility.yul\":2506:2686   */\n    tag_131:\n        /* \"#utility.yul\":2554:2631   */\n      0x4e487b7100000000000000000000000000000000000000000000000000000000\n        /* \"#utility.yul\":2551:2552   */\n      0x00\n        /* \"#utility.yul\":2544:2632   */\n      mstore\n        /* \"#utility.yul\":2651:2655   */\n      0x41\n        /* \"#utility.yul\":2648:2649   */\n      0x04\n        /* \"#utility.yul\":2641:2656   */\n      mstore\n        /* \"#utility.yul\":2675:2679   */\n      0x24\n        /* \"#utility.yul\":2672:2673   */\n      0x00\n        /* \"#utility.yul\":2665:2680   */\n      revert\n        /* \"#utility.yul\":2692:2973   */\n    tag_132:\n        /* \"#utility.yul\":2775:2802   */\n      tag_206\n        /* \"#utility.yul\":2797:2801   */\n      dup3\n        /* \"#utility.yul\":2775:2802   */\n      tag_127\n      jump\t// in\n    tag_206:\n        /* \"#utility.yul\":2767:2773   */\n      dup2\n        /* \"#utility.yul\":2763:2803   */\n      add\n        /* \"#utility.yul\":2905:2911   */\n      dup2\n        /* \"#utility.yul\":2893:2903   */\n      dup2\n        /* \"#utility.yul\":2890:2912   */\n      lt\n        /* \"#utility.yul\":2869:2887   */\n      0xffffffffffffffff\n        /* \"#utility.yul\":2857:2867   */\n      dup3\n        /* \"#utility.yul\":2854:2888   */\n      gt\n        /* \"#utility.yul\":2851:2913   */\n      or\n        /* \"#utility.yul\":2848:2936   */\n      iszero\n      tag_207\n      jumpi\n        /* \"#utility.yul\":2916:2934   */\n      tag_208\n      tag_131\n      jump\t// in\n    tag_208:\n        /* \"#utility.yul\":2848:2936   */\n    tag_207:\n        /* \"#utility.yul\":2956:2966   */\n      dup1\n        /* \"#utility.yul\":2952:2954   */\n      0x40\n        /* \"#utility.yul\":2945:2967   */\n      mstore\n        /* \"#utility.yul\":2735:2973   */\n      pop\n        /* \"#utility.yul\":2692:2973   */\n      pop\n      pop\n      jump\t// out\n        /* \"#utility.yul\":2979:3108   */\n    tag_133:\n        /* \"#utility.yul\":3013:3019   */\n      0x00\n        /* \"#utility.yul\":3040:3060   */\n      tag_210\n      tag_118\n      jump\t// in\n    tag_210:\n        /* \"#utility.yul\":3030:3060   */\n      swap1\n      pop\n        /* \"#utility.yul\":3069:3102   */\n      tag_211\n        /* \"#utility.yul\":3097:3101   */\n      dup3\n        /* \"#utility.yul\":3089:3095   */\n      dup3\n        /* \"#utility.yul\":3069:3102   */\n      tag_132\n      jump\t// in\n    tag_211:\n        /* \"#utility.yul\":2979:3108   */\n      swap2\n      swap1\n      pop\n      jump\t// out\n        /* \"#utility.yul\":3114:3422   */\n    tag_134:\n        /* \"#utility.yul\":3176:3180   */\n      0x00\n        /* \"#utility.yul\":3266:3284   */\n      0xffffffffffffffff\n        /* \"#utility.yul\":3258:3264   */\n      dup3\n        /* \"#utility.yul\":3255:3285   */\n      gt\n        /* \"#utility.yul\":3252:3308   */\n      iszero\n      tag_213\n      jumpi\n        /* \"#utility.yul\":3288:3306   */\n      tag_214\n      tag_131\n      jump\t// in\n    tag_214:\n        /* \"#utility.yul\":3252:3308   */\n    tag_213:\n        /* \"#utility.yul\":3326:3355   */\n      tag_215\n        /* \"#utility.yul\":3348:3354   */\n      dup3\n        /* \"#utility.yul\":3326:3355   */\n      tag_127\n      jump\t// in\n    tag_215:\n        /* \"#utility.yul\":3318:3355   */\n      swap1\n      pop\n        /* \"#utility.yul\":3410:3414   */\n      0x20\n        /* \"#utility.yul\":3404:3408   */\n      dup2\n        /* \"#utility.yul\":3400:3415   */\n      add\n        /* \"#utility.yul\":3392:3415   */\n      swap1\n      pop\n        /* \"#utility.yul\":3114:3422   */\n      swap2\n      swap1\n      pop\n      jump\t// out\n        /* \"#utility.yul\":3428:3576   */\n    tag_135:\n        /* \"#utility.yul\":3526:3532   */\n      dup3\n        /* \"#utility.yul\":3521:3524   */\n      dup2\n        /* \"#utility.yul\":3516:3519   */\n      dup4\n        /* \"#utility.yul\":3503:3533   */\n      calldatacopy\n        /* \"#utility.yul\":3567:3568   */\n      0x00\n        /* \"#utility.yul\":3558:3564   */\n      dup4\n        /* \"#utility.yul\":3553:3556   */\n      dup4\n        /* \"#utility.yul\":3549:3565   */\n      add\n        /* \"#utility.yul\":3542:3569   */\n      mstore\n        /* \"#utility.yul\":3428:3576   */\n      pop\n      pop\n      pop\n      jump\t// out\n        /* \"#utility.yul\":3582:4007   */\n    tag_136:\n        /* \"#utility.yul\":3660:3665   */\n      0x00\n        /* \"#utility.yul\":3685:3751   */\n      tag_218\n        /* \"#utility.yul\":3701:3750   */\n      tag_219\n        /* \"#utility.yul\":3743:3749   */\n      dup5\n        /* \"#utility.yul\":3701:3750   */\n      tag_134\n      jump\t// in\n    tag_219:\n        /* \"#utility.yul\":3685:3751   */\n      tag_133\n      jump\t// in\n    tag_218:\n        /* \"#utility.yul\":3676:3751   */\n      swap1\n      pop\n        /* \"#utility.yul\":3774:3780   */\n      dup3\n        /* \"#utility.yul\":3767:3772   */\n      dup2\n        /* \"#utility.yul\":3760:3781   */\n      mstore\n        /* \"#utility.yul\":3812:3816   */\n      0x20\n        /* \"#utility.yul\":3805:3810   */\n      dup2\n        /* \"#utility.yul\":3801:3817   */\n      add\n        /* \"#utility.yul\":3850:3853   */\n      dup5\n        /* \"#utility.yul\":3841:3847   */\n      dup5\n        /* \"#utility.yul\":3836:3839   */\n      dup5\n        /* \"#utility.yul\":3832:3848   */\n      add\n        /* \"#utility.yul\":3829:3854   */\n      gt\n        /* \"#utility.yul\":3826:3938   */\n      iszero\n      tag_220\n      jumpi\n        /* \"#utility.yul\":3857:3936   */\n      tag_221\n      tag_130\n      jump\t// in\n    tag_221:\n        /* \"#utility.yul\":3826:3938   */\n    tag_220:\n        /* \"#utility.yul\":3947:4001   */\n      tag_222\n        /* \"#utility.yul\":3994:4000   */\n      dup5\n        /* \"#utility.yul\":3989:3992   */\n      dup3\n        /* \"#utility.yul\":3984:3987   */\n      dup6\n        /* \"#utility.yul\":3947:4001   */\n      tag_135\n      jump\t// in\n    tag_222:\n        /* \"#utility.yul\":3666:4007   */\n      pop\n        /* \"#utility.yul\":3582:4007   */\n      swap4\n      swap3\n      pop\n      pop\n      pop\n      jump\t// out\n        /* \"#utility.yul\":4027:4367   */\n    tag_137:\n        /* \"#utility.yul\":4083:4088   */\n      0x00\n        /* \"#utility.yul\":4132:4135   */\n      dup3\n        /* \"#utility.yul\":4125:4129   */\n      0x1f\n        /* \"#utility.yul\":4117:4123   */\n      dup4\n        /* \"#utility.yul\":4113:4130   */\n      add\n        /* \"#utility.yul\":4109:4136   */\n      slt\n        /* \"#utility.yul\":4099:4221   */\n      tag_224\n      jumpi\n        /* \"#utility.yul\":4140:4219   */\n      tag_225\n      tag_129\n      jump\t// in\n    tag_225:\n        /* \"#utility.yul\":4099:4221   */\n    tag_224:\n        /* \"#utility.yul\":4257:4263   */\n      dup2\n        /* \"#utility.yul\":4244:4264   */\n      calldataload\n        /* \"#utility.yul\":4282:4361   */\n      tag_226\n        /* \"#utility.yul\":4357:4360   */\n      dup5\n        /* \"#utility.yul\":4349:4355   */\n      dup3\n        /* \"#utility.yul\":4342:4346   */\n      0x20\n        /* \"#utility.yul\":4334:4340   */\n      dup7\n        /* \"#utility.yul\":4330:4347   */\n      add\n        /* \"#utility.yul\":4282:4361   */\n      tag_136\n      jump\t// in\n    tag_226:\n        /* \"#utility.yul\":4273:4361   */\n      swap2\n      pop\n        /* \"#utility.yul\":4089:4367   */\n      pop\n        /* \"#utility.yul\":4027:4367   */\n      swap3\n      swap2\n      pop\n      pop\n      jump\t// out\n        /* \"#utility.yul\":4373:4694   */\n    tag_138:\n        /* \"#utility.yul\":4460:4464   */\n      0x00\n        /* \"#utility.yul\":4550:4568   */\n      0xffffffffffffffff\n        /* \"#utility.yul\":4542:4548   */\n      dup3\n        /* \"#utility.yul\":4539:4569   */\n      gt\n        /* \"#utility.yul\":4536:4592   */\n      iszero\n      tag_228\n      jumpi\n        /* \"#utility.yul\":4572:4590   */\n      tag_229\n      tag_131\n      jump\t// in\n    tag_229:\n        /* \"#utility.yul\":4536:4592   */\n    tag_228:\n        /* \"#utility.yul\":4622:4626   */\n      0x20\n        /* \"#utility.yul\":4614:4620   */\n      dup3\n        /* \"#utility.yul\":4610:4627   */\n      mul\n        /* \"#utility.yul\":4602:4627   */\n      swap1\n      pop\n        /* \"#utility.yul\":4682:4686   */\n      0x20\n        /* \"#utility.yul\":4676:4680   */\n      dup2\n        /* \"#utility.yul\":4672:4687   */\n      add\n        /* \"#utility.yul\":4664:4687   */\n      swap1\n      pop\n        /* \"#utility.yul\":4373:4694   */\n      swap2\n      swap1\n      pop\n      jump\t// out\n        /* \"#utility.yul\":4700:4817   */\n    tag_139:\n        /* \"#utility.yul\":4809:4810   */\n      0x00\n        /* \"#utility.yul\":4806:4807   */\n      dup1\n        /* \"#utility.yul\":4799:4811   */\n      revert\n        /* \"#utility.yul\":4839:5784   */\n    tag_140:\n        /* \"#utility.yul\":4945:4950   */\n      0x00\n        /* \"#utility.yul\":4970:5061   */\n      tag_232\n        /* \"#utility.yul\":4986:5060   */\n      tag_233\n        /* \"#utility.yul\":5053:5059   */\n      dup5\n        /* \"#utility.yul\":4986:5060   */\n      tag_138\n      jump\t// in\n    tag_233:\n        /* \"#utility.yul\":4970:5061   */\n      tag_133\n      jump\t// in\n    tag_232:\n        /* \"#utility.yul\":4961:5061   */\n      swap1\n      pop\n        /* \"#utility.yul\":5081:5086   */\n      dup1\n        /* \"#utility.yul\":5110:5116   */\n      dup4\n        /* \"#utility.yul\":5103:5108   */\n      dup3\n        /* \"#utility.yul\":5096:5117   */\n      mstore\n        /* \"#utility.yul\":5144:5148   */\n      0x20\n        /* \"#utility.yul\":5137:5142   */\n      dup3\n        /* \"#utility.yul\":5133:5149   */\n      add\n        /* \"#utility.yul\":5126:5149   */\n      swap1\n      pop\n        /* \"#utility.yul\":5197:5201   */\n      0x20\n        /* \"#utility.yul\":5189:5195   */\n      dup5\n        /* \"#utility.yul\":5185:5202   */\n      mul\n        /* \"#utility.yul\":5177:5183   */\n      dup4\n        /* \"#utility.yul\":5173:5203   */\n      add\n        /* \"#utility.yul\":5226:5229   */\n      dup6\n        /* \"#utility.yul\":5218:5224   */\n      dup2\n        /* \"#utility.yul\":5215:5230   */\n      gt\n        /* \"#utility.yul\":5212:5334   */\n      iszero\n      tag_234\n      jumpi\n        /* \"#utility.yul\":5245:5324   */\n      tag_235\n      tag_139\n      jump\t// in\n    tag_235:\n        /* \"#utility.yul\":5212:5334   */\n    tag_234:\n        /* \"#utility.yul\":5360:5366   */\n      dup4\n        /* \"#utility.yul\":5343:5778   */\n    tag_236:\n        /* \"#utility.yul\":5377:5383   */\n      dup2\n        /* \"#utility.yul\":5372:5375   */\n      dup2\n        /* \"#utility.yul\":5369:5384   */\n      lt\n        /* \"#utility.yul\":5343:5778   */\n      iszero\n      tag_238\n      jumpi\n        /* \"#utility.yul\":5466:5469   */\n      dup1\n        /* \"#utility.yul\":5453:5470   */\n      calldataload\n        /* \"#utility.yul\":5502:5520   */\n      0xffffffffffffffff\n        /* \"#utility.yul\":5489:5500   */\n      dup2\n        /* \"#utility.yul\":5486:5521   */\n      gt\n        /* \"#utility.yul\":5483:5605   */\n      iszero\n      tag_239\n      jumpi\n        /* \"#utility.yul\":5524:5603   */\n      tag_240\n      tag_129\n      jump\t// in\n    tag_240:\n        /* \"#utility.yul\":5483:5605   */\n    tag_239:\n        /* \"#utility.yul\":5648:5659   */\n      dup1\n        /* \"#utility.yul\":5640:5646   */\n      dup7\n        /* \"#utility.yul\":5636:5660   */\n      add\n        /* \"#utility.yul\":5686:5733   */\n      tag_241\n        /* \"#utility.yul\":5729:5732   */\n      dup10\n        /* \"#utility.yul\":5717:5727   */\n      dup3\n        /* \"#utility.yul\":5686:5733   */\n      tag_137\n      jump\t// in\n    tag_241:\n        /* \"#utility.yul\":5681:5684   */\n      dup6\n        /* \"#utility.yul\":5674:5734   */\n      mstore\n        /* \"#utility.yul\":5763:5767   */\n      0x20\n        /* \"#utility.yul\":5758:5761   */\n      dup6\n        /* \"#utility.yul\":5754:5768   */\n      add\n        /* \"#utility.yul\":5747:5768   */\n      swap5\n      pop\n        /* \"#utility.yul\":5419:5778   */\n      pop\n      pop\n        /* \"#utility.yul\":5403:5407   */\n      0x20\n        /* \"#utility.yul\":5398:5401   */\n      dup2\n        /* \"#utility.yul\":5394:5408   */\n      add\n        /* \"#utility.yul\":5387:5408   */\n      swap1\n      pop\n        /* \"#utility.yul\":5343:5778   */\n      jump(tag_236)\n    tag_238:\n        /* \"#utility.yul\":5347:5368   */\n      pop\n        /* \"#utility.yul\":4951:5784   */\n      pop\n      pop\n        /* \"#utility.yul\":4839:5784   */\n      swap4\n      swap3\n      pop\n      pop\n      pop\n      jump\t// out\n        /* \"#utility.yul\":5806:6196   */\n    tag_141:\n        /* \"#utility.yul\":5887:5892   */\n      0x00\n        /* \"#utility.yul\":5936:5939   */\n      dup3\n        /* \"#utility.yul\":5929:5933   */\n      0x1f\n        /* \"#utility.yul\":5921:5927   */\n      dup4\n        /* \"#utility.yul\":5917:5934   */\n      add\n        /* \"#utility.yul\":5913:5940   */\n      slt\n        /* \"#utility.yul\":5903:6025   */\n      tag_243\n      jumpi\n        /* \"#utility.yul\":5944:6023   */\n      tag_244\n      tag_129\n      jump\t// in\n    tag_244:\n        /* \"#utility.yul\":5903:6025   */\n    tag_243:\n        /* \"#utility.yul\":6061:6067   */\n      dup2\n        /* \"#utility.yul\":6048:6068   */\n      calldataload\n        /* \"#utility.yul\":6086:6190   */\n      tag_245\n        /* \"#utility.yul\":6186:6189   */\n      dup5\n        /* \"#utility.yul\":6178:6184   */\n      dup3\n        /* \"#utility.yul\":6171:6175   */\n      0x20\n        /* \"#utility.yul\":6163:6169   */\n      dup7\n        /* \"#utility.yul\":6159:6176   */\n      add\n        /* \"#utility.yul\":6086:6190   */\n      tag_140\n      jump\t// in\n    tag_245:\n        /* \"#utility.yul\":6077:6190   */\n      swap2\n      pop\n        /* \"#utility.yul\":5893:6196   */\n      pop\n        /* \"#utility.yul\":5806:6196   */\n      swap3\n      swap2\n      pop\n      pop\n      jump\t// out\n        /* \"#utility.yul\":6202:7377   */\n    tag_16:\n        /* \"#utility.yul\":6333:6339   */\n      0x00\n        /* \"#utility.yul\":6341:6347   */\n      dup1\n        /* \"#utility.yul\":6349:6355   */\n      0x00\n        /* \"#utility.yul\":6357:6363   */\n      dup1\n        /* \"#utility.yul\":6406:6409   */\n      0x80\n        /* \"#utility.yul\":6394:6403   */\n      dup6\n        /* \"#utility.yul\":6385:6392   */\n      dup8\n        /* \"#utility.yul\":6381:6404   */\n      sub\n        /* \"#utility.yul\":6377:6410   */\n      slt\n        /* \"#utility.yul\":6374:6494   */\n      iszero\n      tag_247\n      jumpi\n        /* \"#utility.yul\":6413:6492   */\n      tag_248\n      tag_119\n      jump\t// in\n    tag_248:\n        /* \"#utility.yul\":6374:6494   */\n    tag_247:\n        /* \"#utility.yul\":6561:6562   */\n      0x00\n        /* \"#utility.yul\":6550:6559   */\n      dup6\n        /* \"#utility.yul\":6546:6563   */\n      add\n        /* \"#utility.yul\":6533:6564   */\n      calldataload\n        /* \"#utility.yul\":6591:6609   */\n      0xffffffffffffffff\n        /* \"#utility.yul\":6583:6589   */\n      dup2\n        /* \"#utility.yul\":6580:6610   */\n      gt\n        /* \"#utility.yul\":6577:6694   */\n      iszero\n      tag_249\n      jumpi\n        /* \"#utility.yul\":6613:6692   */\n      tag_250\n      tag_120\n      jump\t// in\n    tag_250:\n        /* \"#utility.yul\":6577:6694   */\n    tag_249:\n        /* \"#utility.yul\":6718:6781   */\n      tag_251\n        /* \"#utility.yul\":6773:6780   */\n      dup8\n        /* \"#utility.yul\":6764:6770   */\n      dup3\n        /* \"#utility.yul\":6753:6762   */\n      dup9\n        /* \"#utility.yul\":6749:6771   */\n      add\n        /* \"#utility.yul\":6718:6781   */\n      tag_137\n      jump\t// in\n    tag_251:\n        /* \"#utility.yul\":6708:6781   */\n      swap5\n      pop\n        /* \"#utility.yul\":6504:6791   */\n      pop\n        /* \"#utility.yul\":6830:6832   */\n      0x20\n        /* \"#utility.yul\":6856:6909   */\n      tag_252\n        /* \"#utility.yul\":6901:6908   */\n      dup8\n        /* \"#utility.yul\":6892:6898   */\n      dup3\n        /* \"#utility.yul\":6881:6890   */\n      dup9\n        /* \"#utility.yul\":6877:6899   */\n      add\n        /* \"#utility.yul\":6856:6909   */\n      tag_123\n      jump\t// in\n    tag_252:\n        /* \"#utility.yul\":6846:6909   */\n      swap4\n      pop\n        /* \"#utility.yul\":6801:6919   */\n      pop\n        /* \"#utility.yul\":6958:6960   */\n      0x40\n        /* \"#utility.yul\":6984:7037   */\n      tag_253\n        /* \"#utility.yul\":7029:7036   */\n      dup8\n        /* \"#utility.yul\":7020:7026   */\n      dup3\n        /* \"#utility.yul\":7009:7018   */\n      dup9\n        /* \"#utility.yul\":7005:7027   */\n      add\n        /* \"#utility.yul\":6984:7037   */\n      tag_123\n      jump\t// in\n    tag_253:\n        /* \"#utility.yul\":6974:7037   */\n      swap3\n      pop\n        /* \"#utility.yul\":6929:7047   */\n      pop\n        /* \"#utility.yul\":7114:7116   */\n      0x60\n        /* \"#utility.yul\":7103:7112   */\n      dup6\n        /* \"#utility.yul\":7099:7117   */\n      add\n        /* \"#utility.yul\":7086:7118   */\n      calldataload\n        /* \"#utility.yul\":7145:7163   */\n      0xffffffffffffffff\n        /* \"#utility.yul\":7137:7143   */\n      dup2\n        /* \"#utility.yul\":7134:7164   */\n      gt\n        /* \"#utility.yul\":7131:7248   */\n      iszero\n      tag_254\n      jumpi\n        /* \"#utility.yul\":7167:7246   */\n      tag_255\n      tag_120\n      jump\t// in\n    tag_255:\n        /* \"#utility.yul\":7131:7248   */\n    tag_254:\n        /* \"#utility.yul\":7272:7360   */\n      tag_256\n        /* \"#utility.yul\":7352:7359   */\n      dup8\n        /* \"#utility.yul\":7343:7349   */\n      dup3\n        /* \"#utility.yul\":7332:7341   */\n      dup9\n        /* \"#utility.yul\":7328:7350   */\n      add\n        /* \"#utility.yul\":7272:7360   */\n      tag_141\n      jump\t// in\n    tag_256:\n        /* \"#utility.yul\":7262:7360   */\n      swap2\n      pop\n        /* \"#utility.yul\":7057:7370   */\n      pop\n        /* \"#utility.yul\":6202:7377   */\n      swap3\n      swap6\n      swap2\n      swap5\n      pop\n      swap3\n      pop\n      jump\t// out\n        /* \"#utility.yul\":7383:7520   */\n    tag_142:\n        /* \"#utility.yul\":7473:7479   */\n      0x00\n        /* \"#utility.yul\":7507:7512   */\n      dup2\n        /* \"#utility.yul\":7501:7513   */\n      mload\n        /* \"#utility.yul\":7491:7513   */\n      swap1\n      pop\n        /* \"#utility.yul\":7383:7520   */\n      swap2\n      swap1\n      pop\n      jump\t// out\n        /* \"#utility.yul\":7526:7733   */\n    tag_143:\n        /* \"#utility.yul\":7648:7659   */\n      0x00\n        /* \"#utility.yul\":7682:7688   */\n      dup3\n        /* \"#utility.yul\":7677:7680   */\n      dup3\n        /* \"#utility.yul\":7670:7689   */\n      mstore\n        /* \"#utility.yul\":7722:7726   */\n      0x20\n        /* \"#utility.yul\":7717:7720   */\n      dup3\n        /* \"#utility.yul\":7713:7727   */\n      add\n        /* \"#utility.yul\":7698:7727   */\n      swap1\n      pop\n        /* \"#utility.yul\":7526:7733   */\n      swap3\n      swap2\n      pop\n      pop\n      jump\t// out\n        /* \"#utility.yul\":7739:7894   */\n    tag_144:\n        /* \"#utility.yul\":7829:7833   */\n      0x00\n        /* \"#utility.yul\":7852:7855   */\n      dup2\n        /* \"#utility.yul\":7844:7855   */\n      swap1\n      pop\n        /* \"#utility.yul\":7882:7886   */\n      0x20\n        /* \"#utility.yul\":7877:7880   */\n      dup3\n        /* \"#utility.yul\":7873:7887   */\n      add\n        /* \"#utility.yul\":7865:7887   */\n      swap1\n      pop\n        /* \"#utility.yul\":7739:7894   */\n      swap2\n      swap1\n      pop\n      jump\t// out\n        /* \"#utility.yul\":7900:8059   */\n    tag_145:\n        /* \"#utility.yul\":7974:7985   */\n      0x00\n        /* \"#utility.yul\":8008:8014   */\n      dup3\n        /* \"#utility.yul\":8003:8006   */\n      dup3\n        /* \"#utility.yul\":7996:8015   */\n      mstore\n        /* \"#utility.yul\":8048:8052   */\n      0x20\n        /* \"#utility.yul\":8043:8046   */\n      dup3\n        /* \"#utility.yul\":8039:8053   */\n      add\n        /* \"#utility.yul\":8024:8053   */\n      swap1\n      pop\n        /* \"#utility.yul\":7900:8059   */\n      swap3\n      swap2\n      pop\n      pop\n      jump\t// out\n        /* \"#utility.yul\":8065:8422   */\n    tag_146:\n        /* \"#utility.yul\":8143:8146   */\n      0x00\n        /* \"#utility.yul\":8171:8210   */\n      tag_262\n        /* \"#utility.yul\":8204:8209   */\n      dup3\n        /* \"#utility.yul\":8171:8210   */\n      tag_124\n      jump\t// in\n    tag_262:\n        /* \"#utility.yul\":8226:8287   */\n      tag_263\n        /* \"#utility.yul\":8280:8286   */\n      dup2\n        /* \"#utility.yul\":8275:8278   */\n      dup6\n        /* \"#utility.yul\":8226:8287   */\n      tag_145\n      jump\t// in\n    tag_263:\n        /* \"#utility.yul\":8219:8287   */\n      swap4\n      pop\n        /* \"#utility.yul\":8296:8361   */\n      tag_264\n        /* \"#utility.yul\":8354:8360   */\n      dup2\n        /* \"#utility.yul\":8349:8352   */\n      dup6\n        /* \"#utility.yul\":8342:8346   */\n      0x20\n        /* \"#utility.yul\":8335:8340   */\n      dup7\n        /* \"#utility.yul\":8331:8347   */\n      add\n        /* \"#utility.yul\":8296:8361   */\n      tag_126\n      jump\t// in\n    tag_264:\n        /* \"#utility.yul\":8386:8415   */\n      tag_265\n        /* \"#utility.yul\":8408:8414   */\n      dup2\n        /* \"#utility.yul\":8386:8415   */\n      tag_127\n      jump\t// in\n    tag_265:\n        /* \"#utility.yul\":8381:8384   */\n      dup5\n        /* \"#utility.yul\":8377:8416   */\n      add\n        /* \"#utility.yul\":8370:8416   */\n      swap2\n      pop\n        /* \"#utility.yul\":8147:8422   */\n      pop\n        /* \"#utility.yul\":8065:8422   */\n      swap3\n      swap2\n      pop\n      pop\n      jump\t// out\n        /* \"#utility.yul\":8428:8536   */\n    tag_147:\n        /* \"#utility.yul\":8505:8529   */\n      tag_267\n        /* \"#utility.yul\":8523:8528   */\n      dup2\n        /* \"#utility.yul\":8505:8529   */\n      tag_121\n      jump\t// in\n    tag_267:\n        /* \"#utility.yul\":8500:8503   */\n      dup3\n        /* \"#utility.yul\":8493:8530   */\n      mstore\n        /* \"#utility.yul\":8428:8536   */\n      pop\n      pop\n      jump\t// out\n        /* \"#utility.yul\":8542:8666   */\n    tag_148:\n        /* \"#utility.yul\":8619:8625   */\n      0x00\n        /* \"#utility.yul\":8653:8658   */\n      dup2\n        /* \"#utility.yul\":8647:8659   */\n      mload\n        /* \"#utility.yul\":8637:8659   */\n      swap1\n      pop\n        /* \"#utility.yul\":8542:8666   */\n      swap2\n      swap1\n      pop\n      jump\t// out\n        /* \"#utility.yul\":8672:8856   */\n    tag_149:\n        /* \"#utility.yul\":8771:8782   */\n      0x00\n        /* \"#utility.yul\":8805:8811   */\n      dup3\n        /* \"#utility.yul\":8800:8803   */\n      dup3\n        /* \"#utility.yul\":8793:8812   */\n      mstore\n        /* \"#utility.yul\":8845:8849   */\n      0x20\n        /* \"#utility.yul\":8840:8843   */\n      dup3\n        /* \"#utility.yul\":8836:8850   */\n      add\n        /* \"#utility.yul\":8821:8850   */\n      swap1\n      pop\n        /* \"#utility.yul\":8672:8856   */\n      swap3\n      swap2\n      pop\n      pop\n      jump\t// out\n        /* \"#utility.yul\":8862:9004   */\n    tag_150:\n        /* \"#utility.yul\":8939:8943   */\n      0x00\n        /* \"#utility.yul\":8962:8965   */\n      dup2\n        /* \"#utility.yul\":8954:8965   */\n      swap1\n      pop\n        /* \"#utility.yul\":8992:8996   */\n      0x20\n        /* \"#utility.yul\":8987:8990   */\n      dup3\n        /* \"#utility.yul\":8983:8997   */\n      add\n        /* \"#utility.yul\":8975:8997   */\n      swap1\n      pop\n        /* \"#utility.yul\":8862:9004   */\n      swap2\n      swap1\n      pop\n      jump\t// out\n        /* \"#utility.yul\":9010:9206   */\n    tag_151:\n        /* \"#utility.yul\":9099:9109   */\n      0x00\n        /* \"#utility.yul\":9134:9200   */\n      tag_272\n        /* \"#utility.yul\":9196:9199   */\n      dup4\n        /* \"#utility.yul\":9188:9194   */\n      dup4\n        /* \"#utility.yul\":9134:9200   */\n      tag_146\n      jump\t// in\n    tag_272:\n        /* \"#utility.yul\":9120:9200   */\n      swap1\n      pop\n        /* \"#utility.yul\":9010:9206   */\n      swap3\n      swap2\n      pop\n      pop\n      jump\t// out\n        /* \"#utility.yul\":9212:9335   */\n    tag_152:\n        /* \"#utility.yul\":9292:9296   */\n      0x00\n        /* \"#utility.yul\":9324:9328   */\n      0x20\n        /* \"#utility.yul\":9319:9322   */\n      dup3\n        /* \"#utility.yul\":9315:9329   */\n      add\n        /* \"#utility.yul\":9307:9329   */\n      swap1\n      pop\n        /* \"#utility.yul\":9212:9335   */\n      swap2\n      swap1\n      pop\n      jump\t// out\n        /* \"#utility.yul\":9369:10340   */\n    tag_153:\n        /* \"#utility.yul\":9498:9501   */\n      0x00\n        /* \"#utility.yul\":9527:9591   */\n      tag_275\n        /* \"#utility.yul\":9585:9590   */\n      dup3\n        /* \"#utility.yul\":9527:9591   */\n      tag_148\n      jump\t// in\n    tag_275:\n        /* \"#utility.yul\":9607:9693   */\n      tag_276\n        /* \"#utility.yul\":9686:9692   */\n      dup2\n        /* \"#utility.yul\":9681:9684   */\n      dup6\n        /* \"#utility.yul\":9607:9693   */\n      tag_149\n      jump\t// in\n    tag_276:\n        /* \"#utility.yul\":9600:9693   */\n      swap4\n      pop\n        /* \"#utility.yul\":9719:9722   */\n      dup4\n        /* \"#utility.yul\":9764:9768   */\n      0x20\n        /* \"#utility.yul\":9756:9762   */\n      dup3\n        /* \"#utility.yul\":9752:9769   */\n      mul\n        /* \"#utility.yul\":9747:9750   */\n      dup6\n        /* \"#utility.yul\":9743:9770   */\n      add\n        /* \"#utility.yul\":9794:9860   */\n      tag_277\n        /* \"#utility.yul\":9854:9859   */\n      dup6\n        /* \"#utility.yul\":9794:9860   */\n      tag_150\n      jump\t// in\n    tag_277:\n        /* \"#utility.yul\":9883:9890   */\n      dup1\n        /* \"#utility.yul\":9914:9915   */\n      0x00\n        /* \"#utility.yul\":9899:10295   */\n    tag_278:\n        /* \"#utility.yul\":9924:9930   */\n      dup6\n        /* \"#utility.yul\":9921:9922   */\n      dup2\n        /* \"#utility.yul\":9918:9931   */\n      lt\n        /* \"#utility.yul\":9899:10295   */\n      iszero\n      tag_280\n      jumpi\n        /* \"#utility.yul\":9995:10004   */\n      dup5\n        /* \"#utility.yul\":9989:9993   */\n      dup5\n        /* \"#utility.yul\":9985:10005   */\n      sub\n        /* \"#utility.yul\":9980:9983   */\n      dup10\n        /* \"#utility.yul\":9973:10006   */\n      mstore\n        /* \"#utility.yul\":10046:10052   */\n      dup2\n        /* \"#utility.yul\":10040:10053   */\n      mload\n        /* \"#utility.yul\":10074:10158   */\n      tag_281\n        /* \"#utility.yul\":10153:10157   */\n      dup6\n        /* \"#utility.yul\":10138:10151   */\n      dup3\n        /* \"#utility.yul\":10074:10158   */\n      tag_151\n      jump\t// in\n    tag_281:\n        /* \"#utility.yul\":10066:10158   */\n      swap5\n      pop\n        /* \"#utility.yul\":10181:10251   */\n      tag_282\n        /* \"#utility.yul\":10244:10250   */\n      dup4\n        /* \"#utility.yul\":10181:10251   */\n      tag_152\n      jump\t// in\n    tag_282:\n        /* \"#utility.yul\":10171:10251   */\n      swap3\n      pop\n        /* \"#utility.yul\":10280:10284   */\n      0x20\n        /* \"#utility.yul\":10275:10278   */\n      dup11\n        /* \"#utility.yul\":10271:10285   */\n      add\n        /* \"#utility.yul\":10264:10285   */\n      swap10\n      pop\n        /* \"#utility.yul\":9959:10295   */\n      pop\n        /* \"#utility.yul\":9946:9947   */\n      0x01\n        /* \"#utility.yul\":9943:9944   */\n      dup2\n        /* \"#utility.yul\":9939:9948   */\n      add\n        /* \"#utility.yul\":9934:9948   */\n      swap1\n      pop\n        /* \"#utility.yul\":9899:10295   */\n      jump(tag_278)\n    tag_280:\n        /* \"#utility.yul\":9903:9917   */\n      pop\n        /* \"#utility.yul\":10311:10315   */\n      dup3\n        /* \"#utility.yul\":10304:10315   */\n      swap8\n      pop\n        /* \"#utility.yul\":10331:10334   */\n      dup8\n        /* \"#utility.yul\":10324:10334   */\n      swap6\n      pop\n        /* \"#utility.yul\":9503:10340   */\n      pop\n      pop\n      pop\n      pop\n      pop\n        /* \"#utility.yul\":9369:10340   */\n      swap3\n      swap2\n      pop\n      pop\n      jump\t// out\n        /* \"#utility.yul\":10398:11706   */\n    tag_154:\n        /* \"#utility.yul\":10503:10506   */\n      0x00\n        /* \"#utility.yul\":10539:10543   */\n      0xa0\n        /* \"#utility.yul\":10534:10537   */\n      dup4\n        /* \"#utility.yul\":10530:10544   */\n      add\n        /* \"#utility.yul\":10626:10630   */\n      0x00\n        /* \"#utility.yul\":10619:10624   */\n      dup4\n        /* \"#utility.yul\":10615:10631   */\n      add\n        /* \"#utility.yul\":10609:10632   */\n      mload\n        /* \"#utility.yul\":10679:10682   */\n      dup5\n        /* \"#utility.yul\":10673:10677   */\n      dup3\n        /* \"#utility.yul\":10669:10683   */\n      sub\n        /* \"#utility.yul\":10662:10666   */\n      0x00\n        /* \"#utility.yul\":10657:10660   */\n      dup7\n        /* \"#utility.yul\":10653:10667   */\n      add\n        /* \"#utility.yul\":10646:10684   */\n      mstore\n        /* \"#utility.yul\":10705:10778   */\n      tag_284\n        /* \"#utility.yul\":10773:10777   */\n      dup3\n        /* \"#utility.yul\":10759:10771   */\n      dup3\n        /* \"#utility.yul\":10705:10778   */\n      tag_146\n      jump\t// in\n    tag_284:\n        /* \"#utility.yul\":10697:10778   */\n      swap2\n      pop\n        /* \"#utility.yul\":10554:10789   */\n      pop\n        /* \"#utility.yul\":10870:10874   */\n      0x20\n        /* \"#utility.yul\":10863:10868   */\n      dup4\n        /* \"#utility.yul\":10859:10875   */\n      add\n        /* \"#utility.yul\":10853:10876   */\n      mload\n        /* \"#utility.yul\":10889:10952   */\n      tag_285\n        /* \"#utility.yul\":10946:10950   */\n      0x20\n        /* \"#utility.yul\":10941:10944   */\n      dup7\n        /* \"#utility.yul\":10937:10951   */\n      add\n        /* \"#utility.yul\":10923:10935   */\n      dup3\n        /* \"#utility.yul\":10889:10952   */\n      tag_147\n      jump\t// in\n    tag_285:\n        /* \"#utility.yul\":10799:10962   */\n      pop\n        /* \"#utility.yul\":11045:11049   */\n      0x40\n        /* \"#utility.yul\":11038:11043   */\n      dup4\n        /* \"#utility.yul\":11034:11050   */\n      add\n        /* \"#utility.yul\":11028:11051   */\n      mload\n        /* \"#utility.yul\":11064:11127   */\n      tag_286\n        /* \"#utility.yul\":11121:11125   */\n      0x40\n        /* \"#utility.yul\":11116:11119   */\n      dup7\n        /* \"#utility.yul\":11112:11126   */\n      add\n        /* \"#utility.yul\":11098:11110   */\n      dup3\n        /* \"#utility.yul\":11064:11127   */\n      tag_147\n      jump\t// in\n    tag_286:\n        /* \"#utility.yul\":10972:11137   */\n      pop\n        /* \"#utility.yul\":11220:11224   */\n      0x60\n        /* \"#utility.yul\":11213:11218   */\n      dup4\n        /* \"#utility.yul\":11209:11225   */\n      add\n        /* \"#utility.yul\":11203:11226   */\n      mload\n        /* \"#utility.yul\":11273:11276   */\n      dup5\n        /* \"#utility.yul\":11267:11271   */\n      dup3\n        /* \"#utility.yul\":11263:11277   */\n      sub\n        /* \"#utility.yul\":11256:11260   */\n      0x60\n        /* \"#utility.yul\":11251:11254   */\n      dup7\n        /* \"#utility.yul\":11247:11261   */\n      add\n        /* \"#utility.yul\":11240:11278   */\n      mstore\n        /* \"#utility.yul\":11299:11372   */\n      tag_287\n        /* \"#utility.yul\":11367:11371   */\n      dup3\n        /* \"#utility.yul\":11353:11365   */\n      dup3\n        /* \"#utility.yul\":11299:11372   */\n      tag_146\n      jump\t// in\n    tag_287:\n        /* \"#utility.yul\":11291:11372   */\n      swap2\n      pop\n        /* \"#utility.yul\":11147:11383   */\n      pop\n        /* \"#utility.yul\":11466:11470   */\n      0x80\n        /* \"#utility.yul\":11459:11464   */\n      dup4\n        /* \"#utility.yul\":11455:11471   */\n      add\n        /* \"#utility.yul\":11449:11472   */\n      mload\n        /* \"#utility.yul\":11519:11522   */\n      dup5\n        /* \"#utility.yul\":11513:11517   */\n      dup3\n        /* \"#utility.yul\":11509:11523   */\n      sub\n        /* \"#utility.yul\":11502:11506   */\n      0x80\n        /* \"#utility.yul\":11497:11500   */\n      dup7\n        /* \"#utility.yul\":11493:11507   */\n      add\n        /* \"#utility.yul\":11486:11524   */\n      mstore\n        /* \"#utility.yul\":11545:11668   */\n      tag_288\n        /* \"#utility.yul\":11663:11667   */\n      dup3\n        /* \"#utility.yul\":11649:11661   */\n      dup3\n        /* \"#utility.yul\":11545:11668   */\n      tag_153\n      jump\t// in\n    tag_288:\n        /* \"#utility.yul\":11537:11668   */\n      swap2\n      pop\n        /* \"#utility.yul\":11393:11679   */\n      pop\n        /* \"#utility.yul\":11696:11700   */\n      dup1\n        /* \"#utility.yul\":11689:11700   */\n      swap2\n      pop\n        /* \"#utility.yul\":10508:11706   */\n      pop\n        /* \"#utility.yul\":10398:11706   */\n      swap3\n      swap2\n      pop\n      pop\n      jump\t// out\n        /* \"#utility.yul\":11712:11960   */\n    tag_155:\n        /* \"#utility.yul\":11827:11837   */\n      0x00\n        /* \"#utility.yul\":11862:11954   */\n      tag_290\n        /* \"#utility.yul\":11950:11953   */\n      dup4\n        /* \"#utility.yul\":11942:11948   */\n      dup4\n        /* \"#utility.yul\":11862:11954   */\n      tag_154\n      jump\t// in\n    tag_290:\n        /* \"#utility.yul\":11848:11954   */\n      swap1\n      pop\n        /* \"#utility.yul\":11712:11960   */\n      swap3\n      swap2\n      pop\n      pop\n      jump\t// out\n        /* \"#utility.yul\":11966:12102   */\n    tag_156:\n        /* \"#utility.yul\":12059:12063   */\n      0x00\n        /* \"#utility.yul\":12091:12095   */\n      0x20\n        /* \"#utility.yul\":12086:12089   */\n      dup3\n        /* \"#utility.yul\":12082:12096   */\n      add\n        /* \"#utility.yul\":12074:12096   */\n      swap1\n      pop\n        /* \"#utility.yul\":11966:12102   */\n      swap2\n      swap1\n      pop\n      jump\t// out\n        /* \"#utility.yul\":12164:13259   */\n    tag_157:\n        /* \"#utility.yul\":12329:12332   */\n      0x00\n        /* \"#utility.yul\":12358:12435   */\n      tag_293\n        /* \"#utility.yul\":12429:12434   */\n      dup3\n        /* \"#utility.yul\":12358:12435   */\n      tag_142\n      jump\t// in\n    tag_293:\n        /* \"#utility.yul\":12451:12560   */\n      tag_294\n        /* \"#utility.yul\":12553:12559   */\n      dup2\n        /* \"#utility.yul\":12548:12551   */\n      dup6\n        /* \"#utility.yul\":12451:12560   */\n      tag_143\n      jump\t// in\n    tag_294:\n        /* \"#utility.yul\":12444:12560   */\n      swap4\n      pop\n        /* \"#utility.yul\":12586:12589   */\n      dup4\n        /* \"#utility.yul\":12631:12635   */\n      0x20\n        /* \"#utility.yul\":12623:12629   */\n      dup3\n        /* \"#utility.yul\":12619:12636   */\n      mul\n        /* \"#utility.yul\":12614:12617   */\n      dup6\n        /* \"#utility.yul\":12610:12637   */\n      add\n        /* \"#utility.yul\":12661:12740   */\n      tag_295\n        /* \"#utility.yul\":12734:12739   */\n      dup6\n        /* \"#utility.yul\":12661:12740   */\n      tag_144\n      jump\t// in\n    tag_295:\n        /* \"#utility.yul\":12763:12770   */\n      dup1\n        /* \"#utility.yul\":12794:12795   */\n      0x00\n        /* \"#utility.yul\":12779:13214   */\n    tag_296:\n        /* \"#utility.yul\":12804:12810   */\n      dup6\n        /* \"#utility.yul\":12801:12802   */\n      dup2\n        /* \"#utility.yul\":12798:12811   */\n      lt\n        /* \"#utility.yul\":12779:13214   */\n      iszero\n      tag_298\n      jumpi\n        /* \"#utility.yul\":12875:12884   */\n      dup5\n        /* \"#utility.yul\":12869:12873   */\n      dup5\n        /* \"#utility.yul\":12865:12885   */\n      sub\n        /* \"#utility.yul\":12860:12863   */\n      dup10\n        /* \"#utility.yul\":12853:12886   */\n      mstore\n        /* \"#utility.yul\":12926:12932   */\n      dup2\n        /* \"#utility.yul\":12920:12933   */\n      mload\n        /* \"#utility.yul\":12954:13064   */\n      tag_299\n        /* \"#utility.yul\":13059:13063   */\n      dup6\n        /* \"#utility.yul\":13044:13057   */\n      dup3\n        /* \"#utility.yul\":12954:13064   */\n      tag_155\n      jump\t// in\n    tag_299:\n        /* \"#utility.yul\":12946:13064   */\n      swap5\n      pop\n        /* \"#utility.yul\":13087:13170   */\n      tag_300\n        /* \"#utility.yul\":13163:13169   */\n      dup4\n        /* \"#utility.yul\":13087:13170   */\n      tag_156\n      jump\t// in\n    tag_300:\n        /* \"#utility.yul\":13077:13170   */\n      swap3\n      pop\n        /* \"#utility.yul\":13199:13203   */\n      0x20\n        /* \"#utility.yul\":13194:13197   */\n      dup11\n        /* \"#utility.yul\":13190:13204   */\n      add\n        /* \"#utility.yul\":13183:13204   */\n      swap10\n      pop\n        /* \"#utility.yul\":12839:13214   */\n      pop\n        /* \"#utility.yul\":12826:12827   */\n      0x01\n        /* \"#utility.yul\":12823:12824   */\n      dup2\n        /* \"#utility.yul\":12819:12828   */\n      add\n        /* \"#utility.yul\":12814:12828   */\n      swap1\n      pop\n        /* \"#utility.yul\":12779:13214   */\n      jump(tag_296)\n    tag_298:\n        /* \"#utility.yul\":12783:12797   */\n      pop\n        /* \"#utility.yul\":13230:13234   */\n      dup3\n        /* \"#utility.yul\":13223:13234   */\n      swap8\n      pop\n        /* \"#utility.yul\":13250:13253   */\n      dup8\n        /* \"#utility.yul\":13243:13253   */\n      swap6\n      pop\n        /* \"#utility.yul\":12334:13259   */\n      pop\n      pop\n      pop\n      pop\n      pop\n        /* \"#utility.yul\":12164:13259   */\n      swap3\n      swap2\n      pop\n      pop\n      jump\t// out\n        /* \"#utility.yul\":13265:13730   */\n    tag_22:\n        /* \"#utility.yul\":13454:13458   */\n      0x00\n        /* \"#utility.yul\":13492:13494   */\n      0x20\n        /* \"#utility.yul\":13481:13490   */\n      dup3\n        /* \"#utility.yul\":13477:13495   */\n      add\n        /* \"#utility.yul\":13469:13495   */\n      swap1\n      pop\n        /* \"#utility.yul\":13541:13550   */\n      dup2\n        /* \"#utility.yul\":13535:13539   */\n      dup2\n        /* \"#utility.yul\":13531:13551   */\n      sub\n        /* \"#utility.yul\":13527:13528   */\n      0x00\n        /* \"#utility.yul\":13516:13525   */\n      dup4\n        /* \"#utility.yul\":13512:13529   */\n      add\n        /* \"#utility.yul\":13505:13552   */\n      mstore\n        /* \"#utility.yul\":13569:13723   */\n      tag_302\n        /* \"#utility.yul\":13718:13722   */\n      dup2\n        /* \"#utility.yul\":13709:13715   */\n      dup5\n        /* \"#utility.yul\":13569:13723   */\n      tag_157\n      jump\t// in\n    tag_302:\n        /* \"#utility.yul\":13561:13723   */\n      swap1\n      pop\n        /* \"#utility.yul\":13265:13730   */\n      swap3\n      swap2\n      pop\n      pop\n      jump\t// out\n        /* \"#utility.yul\":13736:13854   */\n    tag_158:\n        /* \"#utility.yul\":13823:13847   */\n      tag_304\n        /* \"#utility.yul\":13841:13846   */\n      dup2\n        /* \"#utility.yul\":13823:13847   */\n      tag_121\n      jump\t// in\n    tag_304:\n        /* \"#utility.yul\":13818:13821   */\n      dup3\n        /* \"#utility.yul\":13811:13848   */\n      mstore\n        /* \"#utility.yul\":13736:13854   */\n      pop\n      pop\n      jump\t// out\n        /* \"#utility.yul\":13860:14082   */\n    tag_26:\n        /* \"#utility.yul\":13953:13957   */\n      0x00\n        /* \"#utility.yul\":13991:13993   */\n      0x20\n        /* \"#utility.yul\":13980:13989   */\n      dup3\n        /* \"#utility.yul\":13976:13994   */\n      add\n        /* \"#utility.yul\":13968:13994   */\n      swap1\n      pop\n        /* \"#utility.yul\":14004:14075   */\n      tag_306\n        /* \"#utility.yul\":14072:14073   */\n      0x00\n        /* \"#utility.yul\":14061:14070   */\n      dup4\n        /* \"#utility.yul\":14057:14074   */\n      add\n        /* \"#utility.yul\":14048:14054   */\n      dup5\n        /* \"#utility.yul\":14004:14075   */\n      tag_158\n      jump\t// in\n    tag_306:\n        /* \"#utility.yul\":13860:14082   */\n      swap3\n      swap2\n      pop\n      pop\n      jump\t// out\n        /* \"#utility.yul\":14088:14597   */\n    tag_29:\n        /* \"#utility.yul\":14157:14163   */\n      0x00\n        /* \"#utility.yul\":14206:14208   */\n      0x20\n        /* \"#utility.yul\":14194:14203   */\n      dup3\n        /* \"#utility.yul\":14185:14192   */\n      dup5\n        /* \"#utility.yul\":14181:14204   */\n      sub\n        /* \"#utility.yul\":14177:14209   */\n      slt\n        /* \"#utility.yul\":14174:14293   */\n      iszero\n      tag_308\n      jumpi\n        /* \"#utility.yul\":14212:14291   */\n      tag_309\n      tag_119\n      jump\t// in\n    tag_309:\n        /* \"#utility.yul\":14174:14293   */\n    tag_308:\n        /* \"#utility.yul\":14360:14361   */\n      0x00\n        /* \"#utility.yul\":14349:14358   */\n      dup3\n        /* \"#utility.yul\":14345:14362   */\n      add\n        /* \"#utility.yul\":14332:14363   */\n      calldataload\n        /* \"#utility.yul\":14390:14408   */\n      0xffffffffffffffff\n        /* \"#utility.yul\":14382:14388   */\n      dup2\n        /* \"#utility.yul\":14379:14409   */\n      gt\n        /* \"#utility.yul\":14376:14493   */\n      iszero\n      tag_310\n      jumpi\n        /* \"#utility.yul\":14412:14491   */\n      tag_311\n      tag_120\n      jump\t// in\n    tag_311:\n        /* \"#utility.yul\":14376:14493   */\n    tag_310:\n        /* \"#utility.yul\":14517:14580   */\n      tag_312\n        /* \"#utility.yul\":14572:14579   */\n      dup5\n        /* \"#utility.yul\":14563:14569   */\n      dup3\n        /* \"#utility.yul\":14552:14561   */\n      dup6\n        /* \"#utility.yul\":14548:14570   */\n      add\n        /* \"#utility.yul\":14517:14580   */\n      tag_137\n      jump\t// in\n    tag_312:\n        /* \"#utility.yul\":14507:14580   */\n      swap2\n      pop\n        /* \"#utility.yul\":14303:14590   */\n      pop\n        /* \"#utility.yul\":14088:14597   */\n      swap3\n      swap2\n      pop\n      pop\n      jump\t// out\n        /* \"#utility.yul\":14603:14783   */\n    tag_159:\n        /* \"#utility.yul\":14651:14728   */\n      0x4e487b7100000000000000000000000000000000000000000000000000000000\n        /* \"#utility.yul\":14648:14649   */\n      0x00\n        /* \"#utility.yul\":14641:14729   */\n      mstore\n        /* \"#utility.yul\":14748:14752   */\n      0x22\n        /* \"#utility.yul\":14745:14746   */\n      0x04\n        /* \"#utility.yul\":14738:14753   */\n      mstore\n        /* \"#utility.yul\":14772:14776   */\n      0x24\n        /* \"#utility.yul\":14769:14770   */\n      0x00\n        /* \"#utility.yul\":14762:14777   */\n      revert\n        /* \"#utility.yul\":14789:15109   */\n    tag_58:\n        /* \"#utility.yul\":14833:14839   */\n      0x00\n        /* \"#utility.yul\":14870:14871   */\n      0x02\n        /* \"#utility.yul\":14864:14868   */\n      dup3\n        /* \"#utility.yul\":14860:14872   */\n      div\n        /* \"#utility.yul\":14850:14872   */\n      swap1\n      pop\n        /* \"#utility.yul\":14917:14918   */\n      0x01\n        /* \"#utility.yul\":14911:14915   */\n      dup3\n        /* \"#utility.yul\":14907:14919   */\n      and\n        /* \"#utility.yul\":14938:14956   */\n      dup1\n        /* \"#utility.yul\":14928:15009   */\n      tag_315\n      jumpi\n        /* \"#utility.yul\":14994:14998   */\n      0x7f\n        /* \"#utility.yul\":14986:14992   */\n      dup3\n        /* \"#utility.yul\":14982:14999   */\n      and\n        /* \"#utility.yul\":14972:14999   */\n      swap2\n      pop\n        /* \"#utility.yul\":14928:15009   */\n    tag_315:\n        /* \"#utility.yul\":15056:15058   */\n      0x20\n        /* \"#utility.yul\":15048:15054   */\n      dup3\n        /* \"#utility.yul\":15045:15059   */\n      lt\n        /* \"#utility.yul\":15025:15043   */\n      dup2\n        /* \"#utility.yul\":15022:15060   */\n      sub\n        /* \"#utility.yul\":15019:15103   */\n      tag_316\n      jumpi\n        /* \"#utility.yul\":15075:15093   */\n      tag_317\n      tag_159\n      jump\t// in\n    tag_317:\n        /* \"#utility.yul\":15019:15103   */\n    tag_316:\n        /* \"#utility.yul\":14840:15109   */\n      pop\n        /* \"#utility.yul\":14789:15109   */\n      swap2\n      swap1\n      pop\n      jump\t// out\n        /* \"#utility.yul\":15115:15256   */\n    tag_160:\n        /* \"#utility.yul\":15164:15168   */\n      0x00\n        /* \"#utility.yul\":15187:15190   */\n      dup2\n        /* \"#utility.yul\":15179:15190   */\n      swap1\n      pop\n        /* \"#utility.yul\":15210:15213   */\n      dup2\n        /* \"#utility.yul\":15207:15208   */\n      0x00\n        /* \"#utility.yul\":15200:15214   */\n      mstore\n        /* \"#utility.yul\":15244:15248   */\n      0x20\n        /* \"#utility.yul\":15241:15242   */\n      0x00\n        /* \"#utility.yul\":15231:15249   */\n      keccak256\n        /* \"#utility.yul\":15223:15249   */\n      swap1\n      pop\n        /* \"#utility.yul\":15115:15256   */\n      swap2\n      swap1\n      pop\n      jump\t// out\n        /* \"#utility.yul\":15262:15355   */\n    tag_161:\n        /* \"#utility.yul\":15299:15305   */\n      0x00\n        /* \"#utility.yul\":15346:15348   */\n      0x20\n        /* \"#utility.yul\":15341:15343   */\n      0x1f\n        /* \"#utility.yul\":15334:15339   */\n      dup4\n        /* \"#utility.yul\":15330:15344   */\n      add\n        /* \"#utility.yul\":15326:15349   */\n      div\n        /* \"#utility.yul\":15316:15349   */\n      swap1\n      pop\n        /* \"#utility.yul\":15262:15355   */\n      swap2\n      swap1\n      pop\n      jump\t// out\n        /* \"#utility.yul\":15361:15468   */\n    tag_162:\n        /* \"#utility.yul\":15405:15413   */\n      0x00\n        /* \"#utility.yul\":15455:15460   */\n      dup3\n        /* \"#utility.yul\":15449:15453   */\n      dup3\n        /* \"#utility.yul\":15445:15461   */\n      shl\n        /* \"#utility.yul\":15424:15461   */\n      swap1\n      pop\n        /* \"#utility.yul\":15361:15468   */\n      swap3\n      swap2\n      pop\n      pop\n      jump\t// out\n        /* \"#utility.yul\":15474:15867   */\n    tag_163:\n        /* \"#utility.yul\":15543:15549   */\n      0x00\n        /* \"#utility.yul\":15593:15594   */\n      0x08\n        /* \"#utility.yul\":15581:15591   */\n      dup4\n        /* \"#utility.yul\":15577:15595   */\n      mul\n        /* \"#utility.yul\":15616:15713   */\n      tag_322\n        /* \"#utility.yul\":15646:15712   */\n      0xffffffffffffffffffffffffffffffffffffffffffffffffffffffffffffffff\n        /* \"#utility.yul\":15635:15644   */\n      dup3\n        /* \"#utility.yul\":15616:15713   */\n      tag_162\n      jump\t// in\n    tag_322:\n        /* \"#utility.yul\":15734:15773   */\n      tag_323\n        /* \"#utility.yul\":15764:15772   */\n      dup7\n        /* \"#utility.yul\":15753:15762   */\n      dup4\n        /* \"#utility.yul\":15734:15773   */\n      tag_162\n      jump\t// in\n    tag_323:\n        /* \"#utility.yul\":15722:15773   */\n      swap6\n      pop\n        /* \"#utility.yul\":15806:15810   */\n      dup1\n        /* \"#utility.yul\":15802:15811   */\n      not\n        /* \"#utility.yul\":15795:15800   */\n      dup5\n        /* \"#utility.yul\":15791:15812   */\n      and\n        /* \"#utility.yul\":15782:15812   */\n      swap4\n      pop\n        /* \"#utility.yul\":15855:15859   */\n      dup1\n        /* \"#utility.yul\":15845:15853   */\n      dup7\n        /* \"#utility.yul\":15841:15860   */\n      and\n        /* \"#utility.yul\":15834:15839   */\n      dup5\n        /* \"#utility.yul\":15831:15861   */\n      or\n        /* \"#utility.yul\":15821:15861   */\n      swap3\n      pop\n        /* \"#utility.yul\":15550:15867   */\n      pop\n      pop\n        /* \"#utility.yul\":15474:15867   */\n      swap4\n      swap3\n      pop\n      pop\n      pop\n      jump\t// out\n        /* \"#utility.yul\":15873:15933   */\n    tag_164:\n        /* \"#utility.yul\":15901:15904   */\n      0x00\n        /* \"#utility.yul\":15922:15927   */\n      dup2\n        /* \"#utility.yul\":15915:15927   */\n      swap1\n      pop\n        /* \"#utility.yul\":15873:15933   */\n      swap2\n      swap1\n      pop\n      jump\t// out\n        /* \"#utility.yul\":15939:16081   */\n    tag_165:\n        /* \"#utility.yul\":15989:15998   */\n      0x00\n        /* \"#utility.yul\":16022:16075   */\n      tag_326\n        /* \"#utility.yul\":16040:16074   */\n      tag_327\n        /* \"#utility.yul\":16049:16073   */\n      tag_328\n        /* \"#utility.yul\":16067:16072   */\n      dup5\n        /* \"#utility.yul\":16049:16073   */\n      tag_121\n      jump\t// in\n    tag_328:\n        /* \"#utility.yul\":16040:16074   */\n      tag_164\n      jump\t// in\n    tag_327:\n        /* \"#utility.yul\":16022:16075   */\n      tag_121\n      jump\t// in\n    tag_326:\n        /* \"#utility.yul\":16009:16075   */\n      swap1\n      pop\n        /* \"#utility.yul\":15939:16081   */\n      swap2\n      swap1\n      pop\n      jump\t// out\n        /* \"#utility.yul\":16087:16162   */\n    tag_166:\n        /* \"#utility.yul\":16130:16133   */\n      0x00\n        /* \"#utility.yul\":16151:16156   */\n      dup2\n        /* \"#utility.yul\":16144:16156   */\n      swap1\n      pop\n        /* \"#utility.yul\":16087:16162   */\n      swap2\n      swap1\n      pop\n      jump\t// out\n        /* \"#utility.yul\":16168:16437   */\n    tag_167:\n        /* \"#utility.yul\":16278:16317   */\n      tag_331\n        /* \"#utility.yul\":16309:16316   */\n      dup4\n        /* \"#utility.yul\":16278:16317   */\n      tag_165\n      jump\t// in\n    tag_331:\n        /* \"#utility.yul\":16339:16430   */\n      tag_332\n        /* \"#utility.yul\":16388:16429   */\n      tag_333\n        /* \"#utility.yul\":16412:16428   */\n      dup3\n        /* \"#utility.yul\":16388:16429   */\n      tag_166\n      jump\t// in\n    tag_333:\n        /* \"#utility.yul\":16380:16386   */\n      dup5\n        /* \"#utility.yul\":16373:16377   */\n      dup5\n        /* \"#utility.yul\":16367:16378   */\n      sload\n        /* \"#utility.yul\":16339:16430   */\n      tag_163\n      jump\t// in\n    tag_332:\n        /* \"#utility.yul\":16333:16337   */\n      dup3\n        /* \"#utility.yul\":16326:16431   */\n      sstore\n        /* \"#utility.yul\":16244:16437   */\n      pop\n        /* \"#utility.yul\":16168:16437   */\n      pop\n      pop\n      pop\n      jump\t// out\n        /* \"#utility.yul\":16443:16516   */\n    tag_168:\n        /* \"#utility.yul\":16488:16491   */\n      0x00\n        /* \"#utility.yul\":16443:16516   */\n      swap1\n      jump\t// out\n        /* \"#utility.yul\":16522:16711   */\n    tag_169:\n        /* \"#utility.yul\":16599:16631   */\n      tag_336\n      tag_168\n      jump\t// in\n    tag_336:\n        /* \"#utility.yul\":16640:16705   */\n      tag_337\n        /* \"#utility.yul\":16698:16704   */\n      dup2\n        /* \"#utility.yul\":16690:16696   */\n      dup5\n        /* \"#utility.yul\":16684:16688   */\n      dup5\n        /* \"#utility.yul\":16640:16705   */\n      tag_167\n      jump\t// in\n    tag_337:\n        /* \"#utility.yul\":16575:16711   */\n      pop\n        /* \"#utility.yul\":16522:16711   */\n      pop\n      pop\n      jump\t// out\n        /* \"#utility.yul\":16717:16903   */\n    tag_170:\n        /* \"#utility.yul\":16777:16897   */\n    tag_339:\n        /* \"#utility.yul\":16794:16797   */\n      dup2\n        /* \"#utility.yul\":16787:16792   */\n      dup2\n        /* \"#utility.yul\":16784:16798   */\n      lt\n        /* \"#utility.yul\":16777:16897   */\n      iszero\n      tag_341\n      jumpi\n        /* \"#utility.yul\":16848:16887   */\n      tag_342\n        /* \"#utility.yul\":16885:16886   */\n      0x00\n        /* \"#utility.yul\":16878:16883   */\n      dup3\n        /* \"#utility.yul\":16848:16887   */\n      tag_169\n      jump\t// in\n    tag_342:\n        /* \"#utility.yul\":16821:16822   */\n      0x01\n        /* \"#utility.yul\":16814:16819   */\n      dup2\n        /* \"#utility.yul\":16810:16823   */\n      add\n        /* \"#utility.yul\":16801:16823   */\n      swap1\n      pop\n        /* \"#utility.yul\":16777:16897   */\n      jump(tag_339)\n    tag_341:\n        /* \"#utility.yul\":16717:16903   */\n      pop\n      pop\n      jump\t// out\n        /* \"#utility.yul\":16909:17452   */\n    tag_171:\n        /* \"#utility.yul\":17010:17012   */\n      0x1f\n        /* \"#utility.yul\":17005:17008   */\n      dup3\n        /* \"#utility.yul\":17002:17013   */\n      gt\n        /* \"#utility.yul\":16999:17445   */\n      iszero\n      tag_344\n      jumpi\n        /* \"#utility.yul\":17044:17082   */\n      tag_345\n        /* \"#utility.yul\":17076:17081   */\n      dup2\n        /* \"#utility.yul\":17044:17082   */\n      tag_160\n      jump\t// in\n    tag_345:\n        /* \"#utility.yul\":17128:17157   */\n      tag_346\n        /* \"#utility.yul\":17146:17156   */\n      dup5\n        /* \"#utility.yul\":17128:17157   */\n      tag_161\n      jump\t// in\n    tag_346:\n        /* \"#utility.yul\":17118:17126   */\n      dup2\n        /* \"#utility.yul\":17114:17158   */\n      add\n        /* \"#utility.yul\":17311:17313   */\n      0x20\n        /* \"#utility.yul\":17299:17309   */\n      dup6\n        /* \"#utility.yul\":17296:17314   */\n      lt\n        /* \"#utility.yul\":17293:17342   */\n      iszero\n      tag_347\n      jumpi\n        /* \"#utility.yul\":17332:17340   */\n      dup2\n        /* \"#utility.yul\":17317:17340   */\n      swap1\n      pop\n        /* \"#utility.yul\":17293:17342   */\n    tag_347:\n        /* \"#utility.yul\":17355:17435   */\n      tag_348\n        /* \"#utility.yul\":17411:17433   */\n      tag_349\n        /* \"#utility.yul\":17429:17432   */\n      dup6\n        /* \"#utility.yul\":17411:17433   */\n      tag_161\n      jump\t// in\n    tag_349:\n        /* \"#utility.yul\":17401:17409   */\n      dup4\n        /* \"#utility.yul\":17397:17434   */\n      add\n        /* \"#utility.yul\":17384:17395   */\n      dup3\n        /* \"#utility.yul\":17355:17435   */\n      tag_170\n      jump\t// in\n    tag_348:\n        /* \"#utility.yul\":17014:17445   */\n      pop\n      pop\n        /* \"#utility.yul\":16999:17445   */\n    tag_344:\n        /* \"#utility.yul\":16909:17452   */\n      pop\n      pop\n      pop\n      jump\t// out\n        /* \"#utility.yul\":17458:17575   */\n    tag_172:\n        /* \"#utility.yul\":17512:17520   */\n      0x00\n        /* \"#utility.yul\":17562:17567   */\n      dup3\n        /* \"#utility.yul\":17556:17560   */\n      dup3\n        /* \"#utility.yul\":17552:17568   */\n      shr\n        /* \"#utility.yul\":17531:17568   */\n      swap1\n      pop\n        /* \"#utility.yul\":17458:17575   */\n      swap3\n      swap2\n      pop\n      pop\n      jump\t// out\n        /* \"#utility.yul\":17581:17750   */\n    tag_173:\n        /* \"#utility.yul\":17625:17631   */\n      0x00\n        /* \"#utility.yul\":17658:17709   */\n      tag_352\n        /* \"#utility.yul\":17706:17707   */\n      0x00\n        /* \"#utility.yul\":17702:17708   */\n      not\n        /* \"#utility.yul\":17694:17699   */\n      dup5\n        /* \"#utility.yul\":17691:17692   */\n      0x08\n        /* \"#utility.yul\":17687:17700   */\n      mul\n        /* \"#utility.yul\":17658:17709   */\n      tag_172\n      jump\t// in\n    tag_352:\n        /* \"#utility.yul\":17654:17710   */\n      not\n        /* \"#utility.yul\":17739:17743   */\n      dup1\n        /* \"#utility.yul\":17733:17737   */\n      dup4\n        /* \"#utility.yul\":17729:17744   */\n      and\n        /* \"#utility.yul\":17719:17744   */\n      swap2\n      pop\n        /* \"#utility.yul\":17632:17750   */\n      pop\n        /* \"#utility.yul\":17581:17750   */\n      swap3\n      swap2\n      pop\n      pop\n      jump\t// out\n        /* \"#utility.yul\":17755:18050   */\n    tag_174:\n        /* \"#utility.yul\":17831:17835   */\n      0x00\n        /* \"#utility.yul\":17977:18006   */\n      tag_354\n        /* \"#utility.yul\":18002:18005   */\n      dup4\n        /* \"#utility.yul\":17996:18000   */\n      dup4\n        /* \"#utility.yul\":17977:18006   */\n      tag_173\n      jump\t// in\n    tag_354:\n        /* \"#utility.yul\":17969:18006   */\n      swap2\n      pop\n        /* \"#utility.yul\":18039:18042   */\n      dup3\n        /* \"#utility.yul\":18036:18037   */\n      0x02\n        /* \"#utility.yul\":18032:18043   */\n      mul\n        /* \"#utility.yul\":18026:18030   */\n      dup3\n        /* \"#utility.yul\":18023:18044   */\n      or\n        /* \"#utility.yul\":18015:18044   */\n      swap1\n      pop\n        /* \"#utility.yul\":17755:18050   */\n      swap3\n      swap2\n      pop\n      pop\n      jump\t// out\n        /* \"#utility.yul\":18055:19450   */\n    tag_49:\n        /* \"#utility.yul\":18172:18209   */\n      tag_356\n        /* \"#utility.yul\":18205:18208   */\n      dup3\n        /* \"#utility.yul\":18172:18209   */\n      tag_124\n      jump\t// in\n    tag_356:\n        /* \"#utility.yul\":18274:18292   */\n      0xffffffffffffffff\n        /* \"#utility.yul\":18266:18272   */\n      dup2\n        /* \"#utility.yul\":18263:18293   */\n      gt\n        /* \"#utility.yul\":18260:18316   */\n      iszero\n      tag_357\n      jumpi\n        /* \"#utility.yul\":18296:18314   */\n      tag_358\n      tag_131\n      jump\t// in\n    tag_358:\n        /* \"#utility.yul\":18260:18316   */\n    tag_357:\n        /* \"#utility.yul\":18340:18378   */\n      tag_359\n        /* \"#utility.yul\":18372:18376   */\n      dup3\n        /* \"#utility.yul\":18366:18377   */\n      sload\n        /* \"#utility.yul\":18340:18378   */\n      tag_58\n      jump\t// in\n    tag_359:\n        /* \"#utility.yul\":18425:18492   */\n      tag_360\n        /* \"#utility.yul\":18485:18491   */\n      dup3\n        /* \"#utility.yul\":18477:18483   */\n      dup3\n        /* \"#utility.yul\":18471:18475   */\n      dup6\n        /* \"#utility.yul\":18425:18492   */\n      tag_171\n      jump\t// in\n    tag_360:\n        /* \"#utility.yul\":18519:18520   */\n      0x00\n        /* \"#utility.yul\":18543:18547   */\n      0x20\n        /* \"#utility.yul\":18530:18547   */\n      swap1\n      pop\n        /* \"#utility.yul\":18575:18577   */\n      0x1f\n        /* \"#utility.yul\":18567:18573   */\n      dup4\n        /* \"#utility.yul\":18564:18578   */\n      gt\n        /* \"#utility.yul\":18592:18593   */\n      0x01\n        /* \"#utility.yul\":18587:19205   */\n      dup2\n      eq\n      tag_362\n      jumpi\n        /* \"#utility.yul\":19249:19250   */\n      0x00\n        /* \"#utility.yul\":19266:19272   */\n      dup5\n        /* \"#utility.yul\":19263:19340   */\n      iszero\n      tag_363\n      jumpi\n        /* \"#utility.yul\":19315:19324   */\n      dup3\n        /* \"#utility.yul\":19310:19313   */\n      dup8\n        /* \"#utility.yul\":19306:19325   */\n      add\n        /* \"#utility.yul\":19300:19326   */\n      mload\n        /* \"#utility.yul\":19291:19326   */\n      swap1\n      pop\n        /* \"#utility.yul\":19263:19340   */\n    tag_363:\n        /* \"#utility.yul\":19366:19433   */\n      tag_364\n        /* \"#utility.yul\":19426:19432   */\n      dup6\n        /* \"#utility.yul\":19419:19424   */\n      dup3\n        /* \"#utility.yul\":19366:19433   */\n      tag_174\n      jump\t// in\n    tag_364:\n        /* \"#utility.yul\":19360:19364   */\n      dup7\n        /* \"#utility.yul\":19353:19434   */\n      sstore\n        /* \"#utility.yul\":19222:19444   */\n      pop\n        /* \"#utility.yul\":18557:19444   */\n      jump(tag_361)\n        /* \"#utility.yul\":18587:19205   */\n    tag_362:\n        /* \"#utility.yul\":18639:18643   */\n      0x1f\n        /* \"#utility.yul\":18635:18644   */\n      not\n        /* \"#utility.yul\":18627:18633   */\n      dup5\n        /* \"#utility.yul\":18623:18645   */\n      and\n        /* \"#utility.yul\":18673:18710   */\n      tag_365\n        /* \"#utility.yul\":18705:18709   */\n      dup7\n        /* \"#utility.yul\":18673:18710   */\n      tag_160\n      jump\t// in\n    tag_365:\n        /* \"#utility.yul\":18732:18733   */\n      0x00\n        /* \"#utility.yul\":18746:18954   */\n    tag_366:\n        /* \"#utility.yul\":18760:18767   */\n      dup3\n        /* \"#utility.yul\":18757:18758   */\n      dup2\n        /* \"#utility.yul\":18754:18768   */\n      lt\n        /* \"#utility.yul\":18746:18954   */\n      iszero\n      tag_368\n      jumpi\n        /* \"#utility.yul\":18839:18848   */\n      dup5\n        /* \"#utility.yul\":18834:18837   */\n      dup10\n        /* \"#utility.yul\":18830:18849   */\n      add\n        /* \"#utility.yul\":18824:18850   */\n      mload\n        /* \"#utility.yul\":18816:18822   */\n      dup3\n        /* \"#utility.yul\":18809:18851   */\n      sstore\n        /* \"#utility.yul\":18890:18891   */\n      0x01\n        /* \"#utility.yul\":18882:18888   */\n      dup3\n        /* \"#utility.yul\":18878:18892   */\n      add\n        /* \"#utility.yul\":18868:18892   */\n      swap2\n      pop\n        /* \"#utility.yul\":18937:18939   */\n      0x20\n        /* \"#utility.yul\":18926:18935   */\n      dup6\n        /* \"#utility.yul\":18922:18940   */\n      add\n        /* \"#utility.yul\":18909:18940   */\n      swap5\n      pop\n        /* \"#utility.yul\":18783:18787   */\n      0x20\n        /* \"#utility.yul\":18780:18781   */\n      dup2\n        /* \"#utility.yul\":18776:18788   */\n      add\n        /* \"#utility.yul\":18771:18788   */\n      swap1\n      pop\n        /* \"#utility.yul\":18746:18954   */\n      jump(tag_366)\n    tag_368:\n        /* \"#utility.yul\":18982:18988   */\n      dup7\n        /* \"#utility.yul\":18973:18980   */\n      dup4\n        /* \"#utility.yul\":18970:18989   */\n      lt\n        /* \"#utility.yul\":18967:19146   */\n      iszero\n      tag_369\n      jumpi\n        /* \"#utility.yul\":19040:19049   */\n      dup5\n        /* \"#utility.yul\":19035:19038   */\n      dup10\n        /* \"#utility.yul\":19031:19050   */\n      add\n        /* \"#utility.yul\":19025:19051   */\n      mload\n        /* \"#utility.yul\":19083:19131   */\n      tag_370\n        /* \"#utility.yul\":19125:19129   */\n      0x1f\n        /* \"#utility.yul\":19117:19123   */\n      dup10\n        /* \"#utility.yul\":19113:19130   */\n      and\n        /* \"#utility.yul\":19102:19111   */\n      dup3\n        /* \"#utility.yul\":19083:19131   */\n      tag_173\n      jump\t// in\n    tag_370:\n        /* \"#utility.yul\":19075:19081   */\n      dup4\n        /* \"#utility.yul\":19068:19132   */\n      sstore\n        /* \"#utility.yul\":18990:19146   */\n      pop\n        /* \"#utility.yul\":18967:19146   */\n    tag_369:\n        /* \"#utility.yul\":19192:19193   */\n      0x01\n        /* \"#utility.yul\":19188:19189   */\n      0x02\n        /* \"#utility.yul\":19180:19186   */\n      dup9\n        /* \"#utility.yul\":19176:19190   */\n      mul\n        /* \"#utility.yul\":19172:19194   */\n      add\n        /* \"#utility.yul\":19166:19170   */\n      dup9\n        /* \"#utility.yul\":19159:19195   */\n      sstore\n        /* \"#utility.yul\":18594:19205   */\n      pop\n      pop\n      pop\n        /* \"#utility.yul\":18557:19444   */\n    tag_361:\n      pop\n        /* \"#utility.yul\":18147:19450   */\n      pop\n      pop\n      pop\n        /* \"#utility.yul\":18055:19450   */\n      pop\n      pop\n      jump\t// out\n        /* \"#utility.yul\":19456:19604   */\n    tag_175:\n        /* \"#utility.yul\":19558:19569   */\n      0x00\n        /* \"#utility.yul\":19595:19598   */\n      dup2\n        /* \"#utility.yul\":19580:19598   */\n      swap1\n      pop\n        /* \"#utility.yul\":19456:19604   */\n      swap3\n      swap2\n      pop\n      pop\n      jump\t// out\n        /* \"#utility.yul\":19610:20000   */\n    tag_176:\n        /* \"#utility.yul\":19716:19719   */\n      0x00\n        /* \"#utility.yul\":19744:19783   */\n      tag_373\n        /* \"#utility.yul\":19777:19782   */\n      dup3\n        /* \"#utility.yul\":19744:19783   */\n      tag_124\n      jump\t// in\n    tag_373:\n        /* \"#utility.yul\":19799:19888   */\n      tag_374\n        /* \"#utility.yul\":19881:19887   */\n      dup2\n        /* \"#utility.yul\":19876:19879   */\n      dup6\n        /* \"#utility.yul\":19799:19888   */\n      tag_175\n      jump\t// in\n    tag_374:\n        /* \"#utility.yul\":19792:19888   */\n      swap4\n      pop\n        /* \"#utility.yul\":19897:19962   */\n      tag_375\n        /* \"#utility.yul\":19955:19961   */\n      dup2\n        /* \"#utility.yul\":19950:19953   */\n      dup6\n        /* \"#utility.yul\":19943:19947   */\n      0x20\n        /* \"#utility.yul\":19936:19941   */\n      dup7\n        /* \"#utility.yul\":19932:19948   */\n      add\n        /* \"#utility.yul\":19897:19962   */\n      tag_126\n      jump\t// in\n    tag_375:\n        /* \"#utility.yul\":19987:19993   */\n      dup1\n        /* \"#utility.yul\":19982:19985   */\n      dup5\n        /* \"#utility.yul\":19978:19994   */\n      add\n        /* \"#utility.yul\":19971:19994   */\n      swap2\n      pop\n        /* \"#utility.yul\":19720:20000   */\n      pop\n        /* \"#utility.yul\":19610:20000   */\n      swap3\n      swap2\n      pop\n      pop\n      jump\t// out\n        /* \"#utility.yul\":20006:20281   */\n    tag_79:\n        /* \"#utility.yul\":20138:20141   */\n      0x00\n        /* \"#utility.yul\":20160:20255   */\n      tag_377\n        /* \"#utility.yul\":20251:20254   */\n      dup3\n        /* \"#utility.yul\":20242:20248   */\n      dup5\n        /* \"#utility.yul\":20160:20255   */\n      tag_176\n      jump\t// in\n    tag_377:\n        /* \"#utility.yul\":20153:20255   */\n      swap2\n      pop\n        /* \"#utility.yul\":20272:20275   */\n      dup2\n        /* \"#utility.yul\":20265:20275   */\n      swap1\n      pop\n        /* \"#utility.yul\":20006:20281   */\n      swap3\n      swap2\n      pop\n      pop\n      jump\t// out\n\n    auxdata: 0xa26469706673582212207e7f4aad317521316046877881baac9406c1c9e1cb42731c4d0d84f64749f50264736f6c634300081a0033\n}\n",
				"bytecode": {
					"linkReferences": {},
					"object": "6080604052348015600e575f80fd5b506113128061001c5f395ff3fe608060405234801561000f575f80fd5b5060043610610055575f3560e01c8063674271cd1461005957806384a1288d14610089578063b0f3bdc2146100a5578063be1c766b146100d5578063cd5b84eb146100f3575b5f80fd5b610073600480360381019061006e9190610981565b610123565b6040516100809190610a1c565b60405180910390f35b6100a3600480360381019061009e9190610c4a565b6102b0565b005b6100bf60048036038101906100ba9190610981565b61036a565b6040516100cc9190610f34565b60405180910390f35b6100dd6105de565b6040516100ea9190610f63565b60405180910390f35b61010d60048036038101906101089190610f7c565b6105ea565b60405161011a9190610f34565b60405180910390f35b6060606482111580156101375750605a8210155b15610179576040518060400160405280600181526020017f410000000000000000000000000000000000000000000000000000000000000081525090506102ab565b605a8210801561018a575060508210155b156101cc576040518060400160405280600181526020017f420000000000000000000000000000000000000000000000000000000000000081525090506102ab565b6050821080156101dd575060468210155b1561021f576040518060400160405280600181526020017f430000000000000000000000000000000000000000000000000000000000000081525090506102ab565b6046821080156102305750603c8210155b15610272576040518060400160405280600181526020017f440000000000000000000000000000000000000000000000000000000000000081525090506102ab565b6040518060400160405280600181526020017f460000000000000000000000000000000000000000000000000000000000000081525090505b919050565b60056040518060a001604052808681526020018581526020018481526020016102d885610123565b815260200183815250908060018154018082558091505060019003905f5260205f2090600502015f909190919091505f820151815f01908161031a91906111bd565b506020820151816001015560408201518160020155606082015181600301908161034491906111bd565b50608082015181600401908051906020019061036192919061086b565b50505050505050565b606060075f8381526020019081526020015f20805480602002602001604051908101604052809291908181526020015f905b828210156105d3578382905f5260205f2090600502016040518060a00160405290815f820180546103cc90610ff0565b80601f01602080910402602001604051908101604052809291908181526020018280546103f890610ff0565b80156104435780601f1061041a57610100808354040283529160200191610443565b820191905f5260205f20905b81548152906001019060200180831161042657829003601f168201915b50505050508152602001600182015481526020016002820154815260200160038201805461047090610ff0565b80601f016020809104026020016040519081016040528092919081815260200182805461049c90610ff0565b80156104e75780601f106104be576101008083540402835291602001916104e7565b820191905f5260205f20905b8154815290600101906020018083116104ca57829003601f168201915b5050505050815260200160048201805480602002602001604051908101604052809291908181526020015f905b828210156105bc578382905f5260205f2001805461053190610ff0565b80601f016020809104026020016040519081016040528092919081815260200182805461055d90610ff0565b80156105a85780601f1061057f576101008083540402835291602001916105a8565b820191905f5260205f20905b81548152906001019060200180831161058b57829003601f168201915b505050505081526020019060010190610514565b50505050815250508152602001906001019061039c565b505050509050919050565b5f600580549050905090565b60606006826040516105fc91906112c6565b9081526020016040518091039020805480602002602001604051908101604052809291908181526020015f905b82821015610860578382905f5260205f2090600502016040518060a00160405290815f8201805461065990610ff0565b80601f016020809104026020016040519081016040528092919081815260200182805461068590610ff0565b80156106d05780601f106106a7576101008083540402835291602001916106d0565b820191905f5260205f20905b8154815290600101906020018083116106b357829003601f168201915b5050505050815260200160018201548152602001600282015481526020016003820180546106fd90610ff0565b80601f016020809104026020016040519081016040528092919081815260200182805461072990610ff0565b80156107745780601f1061074b57610100808354040283529160200191610774565b820191905f5260205f20905b81548152906001019060200180831161075757829003601f168201915b5050505050815260200160048201805480602002602001604051908101604052809291908181526020015f905b82821015610849578382905f5260205f200180546107be90610ff0565b80601f01602080910402602001604051908101604052809291908181526020018280546107ea90610ff0565b80156108355780601f1061080c57610100808354040283529160200191610835565b820191905f5260205f20905b81548152906001019060200180831161081857829003601f168201915b5050505050815260200190600101906107a1565b505050508152505081526020019060010190610629565b505050509050919050565b828054828255905f5260205f209081019282156108b1579160200282015b828111156108b05782518290816108a091906111bd565b5091602001919060010190610889565b5b5090506108be91906108c2565b5090565b5b808211156108e1575f81816108d891906108e5565b506001016108c3565b5090565b5080546108f190610ff0565b5f825580601f10610902575061091f565b601f0160209004905f5260205f209081019061091e9190610922565b5b50565b5b80821115610939575f815f905550600101610923565b5090565b5f604051905090565b5f80fd5b5f80fd5b5f819050919050565b6109608161094e565b811461096a575f80fd5b50565b5f8135905061097b81610957565b92915050565b5f6020828403121561099657610995610946565b5b5f6109a38482850161096d565b91505092915050565b5f81519050919050565b5f82825260208201905092915050565b8281835e5f83830152505050565b5f601f19601f8301169050919050565b5f6109ee826109ac565b6109f881856109b6565b9350610a088185602086016109c6565b610a11816109d4565b840191505092915050565b5f6020820190508181035f830152610a3481846109e4565b905092915050565b5f80fd5b5f80fd5b7f4e487b71000000000000000000000000000000000000000000000000000000005f52604160045260245ffd5b610a7a826109d4565b810181811067ffffffffffffffff82111715610a9957610a98610a44565b5b80604052505050565b5f610aab61093d565b9050610ab78282610a71565b919050565b5f67ffffffffffffffff821115610ad657610ad5610a44565b5b610adf826109d4565b9050602081019050919050565b828183375f83830152505050565b5f610b0c610b0784610abc565b610aa2565b905082815260208101848484011115610b2857610b27610a40565b5b610b33848285610aec565b509392505050565b5f82601f830112610b4f57610b4e610a3c565b5b8135610b5f848260208601610afa565b91505092915050565b5f67ffffffffffffffff821115610b8257610b81610a44565b5b602082029050602081019050919050565b5f80fd5b5f610ba9610ba484610b68565b610aa2565b90508083825260208201905060208402830185811115610bcc57610bcb610b93565b5b835b81811015610c1357803567ffffffffffffffff811115610bf157610bf0610a3c565b5b808601610bfe8982610b3b565b85526020850194505050602081019050610bce565b5050509392505050565b5f82601f830112610c3157610c30610a3c565b5b8135610c41848260208601610b97565b91505092915050565b5f805f8060808587031215610c6257610c61610946565b5b5f85013567ffffffffffffffff811115610c7f57610c7e61094a565b5b610c8b87828801610b3b565b9450506020610c9c8782880161096d565b9350506040610cad8782880161096d565b925050606085013567ffffffffffffffff811115610cce57610ccd61094a565b5b610cda87828801610c1d565b91505092959194509250565b5f81519050919050565b5f82825260208201905092915050565b5f819050602082019050919050565b5f82825260208201905092915050565b5f610d29826109ac565b610d338185610d0f565b9350610d438185602086016109c6565b610d4c816109d4565b840191505092915050565b610d608161094e565b82525050565b5f81519050919050565b5f82825260208201905092915050565b5f819050602082019050919050565b5f610d9a8383610d1f565b905092915050565b5f602082019050919050565b5f610db882610d66565b610dc28185610d70565b935083602082028501610dd485610d80565b805f5b85811015610e0f5784840389528151610df08582610d8f565b9450610dfb83610da2565b925060208a01995050600181019050610dd7565b50829750879550505050505092915050565b5f60a083015f8301518482035f860152610e3b8282610d1f565b9150506020830151610e506020860182610d57565b506040830151610e636040860182610d57565b5060608301518482036060860152610e7b8282610d1f565b91505060808301518482036080860152610e958282610dae565b9150508091505092915050565b5f610ead8383610e21565b905092915050565b5f602082019050919050565b5f610ecb82610ce6565b610ed58185610cf0565b935083602082028501610ee785610d00565b805f5b85811015610f225784840389528151610f038582610ea2565b9450610f0e83610eb5565b925060208a01995050600181019050610eea565b50829750879550505050505092915050565b5f6020820190508181035f830152610f4c8184610ec1565b905092915050565b610f5d8161094e565b82525050565b5f602082019050610f765f830184610f54565b92915050565b5f60208284031215610f9157610f90610946565b5b5f82013567ffffffffffffffff811115610fae57610fad61094a565b5b610fba84828501610b3b565b91505092915050565b7f4e487b71000000000000000000000000000000000000000000000000000000005f52602260045260245ffd5b5f600282049050600182168061100757607f821691505b60208210810361101a57611019610fc3565b5b50919050565b5f819050815f5260205f209050919050565b5f6020601f8301049050919050565b5f82821b905092915050565b5f6008830261107c7fffffffffffffffffffffffffffffffffffffffffffffffffffffffffffffffff82611041565b6110868683611041565b95508019841693508086168417925050509392505050565b5f819050919050565b5f6110c16110bc6110b78461094e565b61109e565b61094e565b9050919050565b5f819050919050565b6110da836110a7565b6110ee6110e6826110c8565b84845461104d565b825550505050565b5f90565b6111026110f6565b61110d8184846110d1565b505050565b5b81811015611130576111255f826110fa565b600181019050611113565b5050565b601f8211156111755761114681611020565b61114f84611032565b8101602085101561115e578190505b61117261116a85611032565b830182611112565b50505b505050565b5f82821c905092915050565b5f6111955f198460080261117a565b1980831691505092915050565b5f6111ad8383611186565b9150826002028217905092915050565b6111c6826109ac565b67ffffffffffffffff8111156111df576111de610a44565b5b6111e98254610ff0565b6111f4828285611134565b5f60209050601f831160018114611225575f8415611213578287015190505b61121d85826111a2565b865550611284565b601f19841661123386611020565b5f5b8281101561125a57848901518255600182019150602085019450602081019050611235565b868310156112775784890151611273601f891682611186565b8355505b6001600288020188555050505b505050505050565b5f81905092915050565b5f6112a0826109ac565b6112aa818561128c565b93506112ba8185602086016109c6565b80840191505092915050565b5f6112d18284611296565b91508190509291505056fea26469706673582212207e7f4aad317521316046877881baac9406c1c9e1cb42731c4d0d84f64749f50264736f6c634300081a0033",
					"opcodes": "PUSH1 0x80 PUSH1 0x40 MSTORE CALLVALUE DUP1 ISZERO PUSH1 0xE JUMPI PUSH0 DUP1 REVERT JUMPDEST POP PUSH2 0x1312 DUP1 PUSH2 0x1C PUSH0 CODECOPY PUSH0 RETURN INVALID PUSH1 0x80 PUSH1 0x40 MSTORE CALLVALUE DUP1 ISZERO PUSH2 0xF JUMPI PUSH0 DUP1 REVERT JUMPDEST POP PUSH1 0x4 CALLDATASIZE LT PUSH2 0x55 JUMPI PUSH0 CALLDATALOAD PUSH1 0xE0 SHR DUP1 PUSH4 0x674271CD EQ PUSH2 0x59 JUMPI DUP1 PUSH4 0x84A1288D EQ PUSH2 0x89 JUMPI DUP1 PUSH4 0xB0F3BDC2 EQ PUSH2 0xA5 JUMPI DUP1 PUSH4 0xBE1C766B EQ PUSH2 0xD5 JUMPI DUP1 PUSH4 0xCD5B84EB EQ PUSH2 0xF3 JUMPI JUMPDEST PUSH0 DUP1 REVERT JUMPDEST PUSH2 0x73 PUSH1 0x4 DUP1 CALLDATASIZE SUB DUP2 ADD SWAP1 PUSH2 0x6E SWAP2 SWAP1 PUSH2 0x981 JUMP JUMPDEST PUSH2 0x123 JUMP JUMPDEST PUSH1 0x40 MLOAD PUSH2 0x80 SWAP2 SWAP1 PUSH2 0xA1C JUMP JUMPDEST PUSH1 0x40 MLOAD DUP1 SWAP2 SUB SWAP1 RETURN JUMPDEST PUSH2 0xA3 PUSH1 0x4 DUP1 CALLDATASIZE SUB DUP2 ADD SWAP1 PUSH2 0x9E SWAP2 SWAP1 PUSH2 0xC4A JUMP JUMPDEST PUSH2 0x2B0 JUMP JUMPDEST STOP JUMPDEST PUSH2 0xBF PUSH1 0x4 DUP1 CALLDATASIZE SUB DUP2 ADD SWAP1 PUSH2 0xBA SWAP2 SWAP1 PUSH2 0x981 JUMP JUMPDEST PUSH2 0x36A JUMP JUMPDEST PUSH1 0x40 MLOAD PUSH2 0xCC SWAP2 SWAP1 PUSH2 0xF34 JUMP JUMPDEST PUSH1 0x40 MLOAD DUP1 SWAP2 SUB SWAP1 RETURN JUMPDEST PUSH2 0xDD PUSH2 0x5DE JUMP JUMPDEST PUSH1 0x40 MLOAD PUSH2 0xEA SWAP2 SWAP1 PUSH2 0xF63 JUMP JUMPDEST PUSH1 0x40 MLOAD DUP1 SWAP2 SUB SWAP1 RETURN JUMPDEST PUSH2 0x10D PUSH1 0x4 DUP1 CALLDATASIZE SUB DUP2 ADD SWAP1 PUSH2 0x108 SWAP2 SWAP1 PUSH2 0xF7C JUMP JUMPDEST PUSH2 0x5EA JUMP JUMPDEST PUSH1 0x40 MLOAD PUSH2 0x11A SWAP2 SWAP1 PUSH2 0xF34 JUMP JUMPDEST PUSH1 0x40 MLOAD DUP1 SWAP2 SUB SWAP1 RETURN JUMPDEST PUSH1 0x60 PUSH1 0x64 DUP3 GT ISZERO DUP1 ISZERO PUSH2 0x137 JUMPI POP PUSH1 0x5A DUP3 LT ISZERO JUMPDEST ISZERO PUSH2 0x179 JUMPI PUSH1 0x40 MLOAD DUP1 PUSH1 0x40 ADD PUSH1 0x40 MSTORE DUP1 PUSH1 0x1 DUP2 MSTORE PUSH1 0x20 ADD PUSH32 0x4100000000000000000000000000000000000000000000000000000000000000 DUP2 MSTORE POP SWAP1 POP PUSH2 0x2AB JUMP JUMPDEST PUSH1 0x5A DUP3 LT DUP1 ISZERO PUSH2 0x18A JUMPI POP PUSH1 0x50 DUP3 LT ISZERO JUMPDEST ISZERO PUSH2 0x1CC JUMPI PUSH1 0x40 MLOAD DUP1 PUSH1 0x40 ADD PUSH1 0x40 MSTORE DUP1 PUSH1 0x1 DUP2 MSTORE PUSH1 0x20 ADD PUSH32 0x4200000000000000000000000000000000000000000000000000000000000000 DUP2 MSTORE POP SWAP1 POP PUSH2 0x2AB JUMP JUMPDEST PUSH1 0x50 DUP3 LT DUP1 ISZERO PUSH2 0x1DD JUMPI POP PUSH1 0x46 DUP3 LT ISZERO JUMPDEST ISZERO PUSH2 0x21F JUMPI PUSH1 0x40 MLOAD DUP1 PUSH1 0x40 ADD PUSH1 0x40 MSTORE DUP1 PUSH1 0x1 DUP2 MSTORE PUSH1 0x20 ADD PUSH32 0x4300000000000000000000000000000000000000000000000000000000000000 DUP2 MSTORE POP SWAP1 POP PUSH2 0x2AB JUMP JUMPDEST PUSH1 0x46 DUP3 LT DUP1 ISZERO PUSH2 0x230 JUMPI POP PUSH1 0x3C DUP3 LT ISZERO JUMPDEST ISZERO PUSH2 0x272 JUMPI PUSH1 0x40 MLOAD DUP1 PUSH1 0x40 ADD PUSH1 0x40 MSTORE DUP1 PUSH1 0x1 DUP2 MSTORE PUSH1 0x20 ADD PUSH32 0x4400000000000000000000000000000000000000000000000000000000000000 DUP2 MSTORE POP SWAP1 POP PUSH2 0x2AB JUMP JUMPDEST PUSH1 0x40 MLOAD DUP1 PUSH1 0x40 ADD PUSH1 0x40 MSTORE DUP1 PUSH1 0x1 DUP2 MSTORE PUSH1 0x20 ADD PUSH32 0x4600000000000000000000000000000000000000000000000000000000000000 DUP2 MSTORE POP SWAP1 POP JUMPDEST SWAP2 SWAP1 POP JUMP JUMPDEST PUSH1 0x5 PUSH1 0x40 MLOAD DUP1 PUSH1 0xA0 ADD PUSH1 0x40 MSTORE DUP1 DUP7 DUP2 MSTORE PUSH1 0x20 ADD DUP6 DUP2 MSTORE PUSH1 0x20 ADD DUP5 DUP2 MSTORE PUSH1 0x20 ADD PUSH2 0x2D8 DUP6 PUSH2 0x123 JUMP JUMPDEST DUP2 MSTORE PUSH1 0x20 ADD DUP4 DUP2 MSTORE POP SWAP1 DUP1 PUSH1 0x1 DUP2 SLOAD ADD DUP1 DUP3 SSTORE DUP1 SWAP2 POP POP PUSH1 0x1 SWAP1 SUB SWAP1 PUSH0 MSTORE PUSH1 0x20 PUSH0 KECCAK256 SWAP1 PUSH1 0x5 MUL ADD PUSH0 SWAP1 SWAP2 SWAP1 SWAP2 SWAP1 SWAP2 POP PUSH0 DUP3 ADD MLOAD DUP2 PUSH0 ADD SWAP1 DUP2 PUSH2 0x31A SWAP2 SWAP1 PUSH2 0x11BD JUMP JUMPDEST POP PUSH1 0x20 DUP3 ADD MLOAD DUP2 PUSH1 0x1 ADD SSTORE PUSH1 0x40 DUP3 ADD MLOAD DUP2 PUSH1 0x2 ADD SSTORE PUSH1 0x60 DUP3 ADD MLOAD DUP2 PUSH1 0x3 ADD SWAP1 DUP2 PUSH2 0x344 SWAP2 SWAP1 PUSH2 0x11BD JUMP JUMPDEST POP PUSH1 0x80 DUP3 ADD MLOAD DUP2 PUSH1 0x4 ADD SWAP1 DUP1 MLOAD SWAP1 PUSH1 0x20 ADD SWAP1 PUSH2 0x361 SWAP3 SWAP2 SWAP1 PUSH2 0x86B JUMP JUMPDEST POP POP POP POP POP POP POP JUMP JUMPDEST PUSH1 0x60 PUSH1 0x7 PUSH0 DUP4 DUP2 MSTORE PUSH1 0x20 ADD SWAP1 DUP2 MSTORE PUSH1 0x20 ADD PUSH0 KECCAK256 DUP1 SLOAD DUP1 PUSH1 0x20 MUL PUSH1 0x20 ADD PUSH1 0x40 MLOAD SWAP1 DUP2 ADD PUSH1 0x40 MSTORE DUP1 SWAP3 SWAP2 SWAP1 DUP2 DUP2 MSTORE PUSH1 0x20 ADD PUSH0 SWAP1 JUMPDEST DUP3 DUP3 LT ISZERO PUSH2 0x5D3 JUMPI DUP4 DUP3 SWAP1 PUSH0 MSTORE PUSH1 0x20 PUSH0 KECCAK256 SWAP1 PUSH1 0x5 MUL ADD PUSH1 0x40 MLOAD DUP1 PUSH1 0xA0 ADD PUSH1 0x40 MSTORE SWAP1 DUP2 PUSH0 DUP3 ADD DUP1 SLOAD PUSH2 0x3CC SWAP1 PUSH2 0xFF0 JUMP JUMPDEST DUP1 PUSH1 0x1F ADD PUSH1 0x20 DUP1 SWAP2 DIV MUL PUSH1 0x20 ADD PUSH1 0x40 MLOAD SWAP1 DUP2 ADD PUSH1 0x40 MSTORE DUP1 SWAP3 SWAP2 SWAP1 DUP2 DUP2 MSTORE PUSH1 0x20 ADD DUP3 DUP1 SLOAD PUSH2 0x3F8 SWAP1 PUSH2 0xFF0 JUMP JUMPDEST DUP1 ISZERO PUSH2 0x443 JUMPI DUP1 PUSH1 0x1F LT PUSH2 0x41A JUMPI PUSH2 0x100 DUP1 DUP4 SLOAD DIV MUL DUP4 MSTORE SWAP2 PUSH1 0x20 ADD SWAP2 PUSH2 0x443 JUMP JUMPDEST DUP3 ADD SWAP2 SWAP1 PUSH0 MSTORE PUSH1 0x20 PUSH0 KECCAK256 SWAP1 JUMPDEST DUP2 SLOAD DUP2 MSTORE SWAP1 PUSH1 0x1 ADD SWAP1 PUSH1 0x20 ADD DUP1 DUP4 GT PUSH2 0x426 JUMPI DUP3 SWAP1 SUB PUSH1 0x1F AND DUP3 ADD SWAP2 JUMPDEST POP POP POP POP POP DUP2 MSTORE PUSH1 0x20 ADD PUSH1 0x1 DUP3 ADD SLOAD DUP2 MSTORE PUSH1 0x20 ADD PUSH1 0x2 DUP3 ADD SLOAD DUP2 MSTORE PUSH1 0x20 ADD PUSH1 0x3 DUP3 ADD DUP1 SLOAD PUSH2 0x470 SWAP1 PUSH2 0xFF0 JUMP JUMPDEST DUP1 PUSH1 0x1F ADD PUSH1 0x20 DUP1 SWAP2 DIV MUL PUSH1 0x20 ADD PUSH1 0x40 MLOAD SWAP1 DUP2 ADD PUSH1 0x40 MSTORE DUP1 SWAP3 SWAP2 SWAP1 DUP2 DUP2 MSTORE PUSH1 0x20 ADD DUP3 DUP1 SLOAD PUSH2 0x49C SWAP1 PUSH2 0xFF0 JUMP JUMPDEST DUP1 ISZERO PUSH2 0x4E7 JUMPI DUP1 PUSH1 0x1F LT PUSH2 0x4BE JUMPI PUSH2 0x100 DUP1 DUP4 SLOAD DIV MUL DUP4 MSTORE SWAP2 PUSH1 0x20 ADD SWAP2 PUSH2 0x4E7 JUMP JUMPDEST DUP3 ADD SWAP2 SWAP1 PUSH0 MSTORE PUSH1 0x20 PUSH0 KECCAK256 SWAP1 JUMPDEST DUP2 SLOAD DUP2 MSTORE SWAP1 PUSH1 0x1 ADD SWAP1 PUSH1 0x20 ADD DUP1 DUP4 GT PUSH2 0x4CA JUMPI DUP3 SWAP1 SUB PUSH1 0x1F AND DUP3 ADD SWAP2 JUMPDEST POP POP POP POP POP DUP2 MSTORE PUSH1 0x20 ADD PUSH1 0x4 DUP3 ADD DUP1 SLOAD DUP1 PUSH1 0x20 MUL PUSH1 0x20 ADD PUSH1 0x40 MLOAD SWAP1 DUP2 ADD PUSH1 0x40 MSTORE DUP1 SWAP3 SWAP2 SWAP1 DUP2 DUP2 MSTORE PUSH1 0x20 ADD PUSH0 SWAP1 JUMPDEST DUP3 DUP3 LT ISZERO PUSH2 0x5BC JUMPI DUP4 DUP3 SWAP1 PUSH0 MSTORE PUSH1 0x20 PUSH0 KECCAK256 ADD DUP1 SLOAD PUSH2 0x531 SWAP1 PUSH2 0xFF0 JUMP JUMPDEST DUP1 PUSH1 0x1F ADD PUSH1 0x20 DUP1 SWAP2 DIV MUL PUSH1 0x20 ADD PUSH1 0x40 MLOAD SWAP1 DUP2 ADD PUSH1 0x40 MSTORE DUP1 SWAP3 SWAP2 SWAP1 DUP2 DUP2 MSTORE PUSH1 0x20 ADD DUP3 DUP1 SLOAD PUSH2 0x55D SWAP1 PUSH2 0xFF0 JUMP JUMPDEST DUP1 ISZERO PUSH2 0x5A8 JUMPI DUP1 PUSH1 0x1F LT PUSH2 0x57F JUMPI PUSH2 0x100 DUP1 DUP4 SLOAD DIV MUL DUP4 MSTORE SWAP2 PUSH1 0x20 ADD SWAP2 PUSH2 0x5A8 JUMP JUMPDEST DUP3 ADD SWAP2 SWAP1 PUSH0 MSTORE PUSH1 0x20 PUSH0 KECCAK256 SWAP1 JUMPDEST DUP2 SLOAD DUP2 MSTORE SWAP1 PUSH1 0x1 ADD SWAP1 PUSH1 0x20 ADD DUP1 DUP4 GT PUSH2 0x58B JUMPI DUP3 SWAP1 SUB PUSH1 0x1F AND DUP3 ADD SWAP2 JUMPDEST POP POP POP POP POP DUP2 MSTORE PUSH1 0x20 ADD SWAP1 PUSH1 0x1 ADD SWAP1 PUSH2 0x514 JUMP JUMPDEST POP POP POP POP DUP2 MSTORE POP POP DUP2 MSTORE PUSH1 0x20 ADD SWAP1 PUSH1 0x1 ADD SWAP1 PUSH2 0x39C JUMP JUMPDEST POP POP POP POP SWAP1 POP SWAP2 SWAP1 POP JUMP JUMPDEST PUSH0 PUSH1 0x5 DUP1 SLOAD SWAP1 POP SWAP1 POP SWAP1 JUMP JUMPDEST PUSH1 0x60 PUSH1 0x6 DUP3 PUSH1 0x40 MLOAD PUSH2 0x5FC SWAP2 SWAP1 PUSH2 0x12C6 JUMP JUMPDEST SWAP1 DUP2 MSTORE PUSH1 0x20 ADD PUSH1 0x40 MLOAD DUP1 SWAP2 SUB SWAP1 KECCAK256 DUP1 SLOAD DUP1 PUSH1 0x20 MUL PUSH1 0x20 ADD PUSH1 0x40 MLOAD SWAP1 DUP2 ADD PUSH1 0x40 MSTORE DUP1 SWAP3 SWAP2 SWAP1 DUP2 DUP2 MSTORE PUSH1 0x20 ADD PUSH0 SWAP1 JUMPDEST DUP3 DUP3 LT ISZERO PUSH2 0x860 JUMPI DUP4 DUP3 SWAP1 PUSH0 MSTORE PUSH1 0x20 PUSH0 KECCAK256 SWAP1 PUSH1 0x5 MUL ADD PUSH1 0x40 MLOAD DUP1 PUSH1 0xA0 ADD PUSH1 0x40 MSTORE SWAP1 DUP2 PUSH0 DUP3 ADD DUP1 SLOAD PUSH2 0x659 SWAP1 PUSH2 0xFF0 JUMP JUMPDEST DUP1 PUSH1 0x1F ADD PUSH1 0x20 DUP1 SWAP2 DIV MUL PUSH1 0x20 ADD PUSH1 0x40 MLOAD SWAP1 DUP2 ADD PUSH1 0x40 MSTORE DUP1 SWAP3 SWAP2 SWAP1 DUP2 DUP2 MSTORE PUSH1 0x20 ADD DUP3 DUP1 SLOAD PUSH2 0x685 SWAP1 PUSH2 0xFF0 JUMP JUMPDEST DUP1 ISZERO PUSH2 0x6D0 JUMPI DUP1 PUSH1 0x1F LT PUSH2 0x6A7 JUMPI PUSH2 0x100 DUP1 DUP4 SLOAD DIV MUL DUP4 MSTORE SWAP2 PUSH1 0x20 ADD SWAP2 PUSH2 0x6D0 JUMP JUMPDEST DUP3 ADD SWAP2 SWAP1 PUSH0 MSTORE PUSH1 0x20 PUSH0 KECCAK256 SWAP1 JUMPDEST DUP2 SLOAD DUP2 MSTORE SWAP1 PUSH1 0x1 ADD SWAP1 PUSH1 0x20 ADD DUP1 DUP4 GT PUSH2 0x6B3 JUMPI DUP3 SWAP1 SUB PUSH1 0x1F AND DUP3 ADD SWAP2 JUMPDEST POP POP POP POP POP DUP2 MSTORE PUSH1 0x20 ADD PUSH1 0x1 DUP3 ADD SLOAD DUP2 MSTORE PUSH1 0x20 ADD PUSH1 0x2 DUP3 ADD SLOAD DUP2 MSTORE PUSH1 0x20 ADD PUSH1 0x3 DUP3 ADD DUP1 SLOAD PUSH2 0x6FD SWAP1 PUSH2 0xFF0 JUMP JUMPDEST DUP1 PUSH1 0x1F ADD PUSH1 0x20 DUP1 SWAP2 DIV MUL PUSH1 0x20 ADD PUSH1 0x40 MLOAD SWAP1 DUP2 ADD PUSH1 0x40 MSTORE DUP1 SWAP3 SWAP2 SWAP1 DUP2 DUP2 MSTORE PUSH1 0x20 ADD DUP3 DUP1 SLOAD PUSH2 0x729 SWAP1 PUSH2 0xFF0 JUMP JUMPDEST DUP1 ISZERO PUSH2 0x774 JUMPI DUP1 PUSH1 0x1F LT PUSH2 0x74B JUMPI PUSH2 0x100 DUP1 DUP4 SLOAD DIV MUL DUP4 MSTORE SWAP2 PUSH1 0x20 ADD SWAP2 PUSH2 0x774 JUMP JUMPDEST DUP3 ADD SWAP2 SWAP1 PUSH0 MSTORE PUSH1 0x20 PUSH0 KECCAK256 SWAP1 JUMPDEST DUP2 SLOAD DUP2 MSTORE SWAP1 PUSH1 0x1 ADD SWAP1 PUSH1 0x20 ADD DUP1 DUP4 GT PUSH2 0x757 JUMPI DUP3 SWAP1 SUB PUSH1 0x1F AND DUP3 ADD SWAP2 JUMPDEST POP POP POP POP POP DUP2 MSTORE PUSH1 0x20 ADD PUSH1 0x4 DUP3 ADD DUP1 SLOAD DUP1 PUSH1 0x20 MUL PUSH1 0x20 ADD PUSH1 0x40 MLOAD SWAP1 DUP2 ADD PUSH1 0x40 MSTORE DUP1 SWAP3 SWAP2 SWAP1 DUP2 DUP2 MSTORE PUSH1 0x20 ADD PUSH0 SWAP1 JUMPDEST DUP3 DUP3 LT ISZERO PUSH2 0x849 JUMPI DUP4 DUP3 SWAP1 PUSH0 MSTORE PUSH1 0x20 PUSH0 KECCAK256 ADD DUP1 SLOAD PUSH2 0x7BE SWAP1 PUSH2 0xFF0 JUMP JUMPDEST DUP1 PUSH1 0x1F ADD PUSH1 0x20 DUP1 SWAP2 DIV MUL PUSH1 0x20 ADD PUSH1 0x40 MLOAD SWAP1 DUP2 ADD PUSH1 0x40 MSTORE DUP1 SWAP3 SWAP2 SWAP1 DUP2 DUP2 MSTORE PUSH1 0x20 ADD DUP3 DUP1 SLOAD PUSH2 0x7EA SWAP1 PUSH2 0xFF0 JUMP JUMPDEST DUP1 ISZERO PUSH2 0x835 JUMPI DUP1 PUSH1 0x1F LT PUSH2 0x80C JUMPI PUSH2 0x100 DUP1 DUP4 SLOAD DIV MUL DUP4 MSTORE SWAP2 PUSH1 0x20 ADD SWAP2 PUSH2 0x835 JUMP JUMPDEST DUP3 ADD SWAP2 SWAP1 PUSH0 MSTORE PUSH1 0x20 PUSH0 KECCAK256 SWAP1 JUMPDEST DUP2 SLOAD DUP2 MSTORE SWAP1 PUSH1 0x1 ADD SWAP1 PUSH1 0x20 ADD DUP1 DUP4 GT PUSH2 0x818 JUMPI DUP3 SWAP1 SUB PUSH1 0x1F AND DUP3 ADD SWAP2 JUMPDEST POP POP POP POP POP DUP2 MSTORE PUSH1 0x20 ADD SWAP1 PUSH1 0x1 ADD SWAP1 PUSH2 0x7A1 JUMP JUMPDEST POP POP POP POP DUP2 MSTORE POP POP DUP2 MSTORE PUSH1 0x20 ADD SWAP1 PUSH1 0x1 ADD SWAP1 PUSH2 0x629 JUMP JUMPDEST POP POP POP POP SWAP1 POP SWAP2 SWAP1 POP JUMP JUMPDEST DUP3 DUP1 SLOAD DUP3 DUP3 SSTORE SWAP1 PUSH0 MSTORE PUSH1 0x20 PUSH0 KECCAK256 SWAP1 DUP2 ADD SWAP3 DUP3 ISZERO PUSH2 0x8B1 JUMPI SWAP2 PUSH1 0x20 MUL DUP3 ADD JUMPDEST DUP3 DUP2 GT ISZERO PUSH2 0x8B0 JUMPI DUP3 MLOAD DUP3 SWAP1 DUP2 PUSH2 0x8A0 SWAP2 SWAP1 PUSH2 0x11BD JUMP JUMPDEST POP SWAP2 PUSH1 0x20 ADD SWAP2 SWAP1 PUSH1 0x1 ADD SWAP1 PUSH2 0x889 JUMP JUMPDEST JUMPDEST POP SWAP1 POP PUSH2 0x8BE SWAP2 SWAP1 PUSH2 0x8C2 JUMP JUMPDEST POP SWAP1 JUMP JUMPDEST JUMPDEST DUP1 DUP3 GT ISZERO PUSH2 0x8E1 JUMPI PUSH0 DUP2 DUP2 PUSH2 0x8D8 SWAP2 SWAP1 PUSH2 0x8E5 JUMP JUMPDEST POP PUSH1 0x1 ADD PUSH2 0x8C3 JUMP JUMPDEST POP SWAP1 JUMP JUMPDEST POP DUP1 SLOAD PUSH2 0x8F1 SWAP1 PUSH2 0xFF0 JUMP JUMPDEST PUSH0 DUP3 SSTORE DUP1 PUSH1 0x1F LT PUSH2 0x902 JUMPI POP PUSH2 0x91F JUMP JUMPDEST PUSH1 0x1F ADD PUSH1 0x20 SWAP1 DIV SWAP1 PUSH0 MSTORE PUSH1 0x20 PUSH0 KECCAK256 SWAP1 DUP2 ADD SWAP1 PUSH2 0x91E SWAP2 SWAP1 PUSH2 0x922 JUMP JUMPDEST JUMPDEST POP JUMP JUMPDEST JUMPDEST DUP1 DUP3 GT ISZERO PUSH2 0x939 JUMPI PUSH0 DUP2 PUSH0 SWAP1 SSTORE POP PUSH1 0x1 ADD PUSH2 0x923 JUMP JUMPDEST POP SWAP1 JUMP JUMPDEST PUSH0 PUSH1 0x40 MLOAD SWAP1 POP SWAP1 JUMP JUMPDEST PUSH0 DUP1 REVERT JUMPDEST PUSH0 DUP1 REVERT JUMPDEST PUSH0 DUP2 SWAP1 POP SWAP2 SWAP1 POP JUMP JUMPDEST PUSH2 0x960 DUP2 PUSH2 0x94E JUMP JUMPDEST DUP2 EQ PUSH2 0x96A JUMPI PUSH0 DUP1 REVERT JUMPDEST POP JUMP JUMPDEST PUSH0 DUP2 CALLDATALOAD SWAP1 POP PUSH2 0x97B DUP2 PUSH2 0x957 JUMP JUMPDEST SWAP3 SWAP2 POP POP JUMP JUMPDEST PUSH0 PUSH1 0x20 DUP3 DUP5 SUB SLT ISZERO PUSH2 0x996 JUMPI PUSH2 0x995 PUSH2 0x946 JUMP JUMPDEST JUMPDEST PUSH0 PUSH2 0x9A3 DUP5 DUP3 DUP6 ADD PUSH2 0x96D JUMP JUMPDEST SWAP2 POP POP SWAP3 SWAP2 POP POP JUMP JUMPDEST PUSH0 DUP2 MLOAD SWAP1 POP SWAP2 SWAP1 POP JUMP JUMPDEST PUSH0 DUP3 DUP3 MSTORE PUSH1 0x20 DUP3 ADD SWAP1 POP SWAP3 SWAP2 POP POP JUMP JUMPDEST DUP3 DUP2 DUP4 MCOPY PUSH0 DUP4 DUP4 ADD MSTORE POP POP POP JUMP JUMPDEST PUSH0 PUSH1 0x1F NOT PUSH1 0x1F DUP4 ADD AND SWAP1 POP SWAP2 SWAP1 POP JUMP JUMPDEST PUSH0 PUSH2 0x9EE DUP3 PUSH2 0x9AC JUMP JUMPDEST PUSH2 0x9F8 DUP2 DUP6 PUSH2 0x9B6 JUMP JUMPDEST SWAP4 POP PUSH2 0xA08 DUP2 DUP6 PUSH1 0x20 DUP7 ADD PUSH2 0x9C6 JUMP JUMPDEST PUSH2 0xA11 DUP2 PUSH2 0x9D4 JUMP JUMPDEST DUP5 ADD SWAP2 POP POP SWAP3 SWAP2 POP POP JUMP JUMPDEST PUSH0 PUSH1 0x20 DUP3 ADD SWAP1 POP DUP2 DUP2 SUB PUSH0 DUP4 ADD MSTORE PUSH2 0xA34 DUP2 DUP5 PUSH2 0x9E4 JUMP JUMPDEST SWAP1 POP SWAP3 SWAP2 POP POP JUMP JUMPDEST PUSH0 DUP1 REVERT JUMPDEST PUSH0 DUP1 REVERT JUMPDEST PUSH32 0x4E487B7100000000000000000000000000000000000000000000000000000000 PUSH0 MSTORE PUSH1 0x41 PUSH1 0x4 MSTORE PUSH1 0x24 PUSH0 REVERT JUMPDEST PUSH2 0xA7A DUP3 PUSH2 0x9D4 JUMP JUMPDEST DUP2 ADD DUP2 DUP2 LT PUSH8 0xFFFFFFFFFFFFFFFF DUP3 GT OR ISZERO PUSH2 0xA99 JUMPI PUSH2 0xA98 PUSH2 0xA44 JUMP JUMPDEST JUMPDEST DUP1 PUSH1 0x40 MSTORE POP POP POP JUMP JUMPDEST PUSH0 PUSH2 0xAAB PUSH2 0x93D JUMP JUMPDEST SWAP1 POP PUSH2 0xAB7 DUP3 DUP3 PUSH2 0xA71 JUMP JUMPDEST SWAP2 SWAP1 POP JUMP JUMPDEST PUSH0 PUSH8 0xFFFFFFFFFFFFFFFF DUP3 GT ISZERO PUSH2 0xAD6 JUMPI PUSH2 0xAD5 PUSH2 0xA44 JUMP JUMPDEST JUMPDEST PUSH2 0xADF DUP3 PUSH2 0x9D4 JUMP JUMPDEST SWAP1 POP PUSH1 0x20 DUP2 ADD SWAP1 POP SWAP2 SWAP1 POP JUMP JUMPDEST DUP3 DUP2 DUP4 CALLDATACOPY PUSH0 DUP4 DUP4 ADD MSTORE POP POP POP JUMP JUMPDEST PUSH0 PUSH2 0xB0C PUSH2 0xB07 DUP5 PUSH2 0xABC JUMP JUMPDEST PUSH2 0xAA2 JUMP JUMPDEST SWAP1 POP DUP3 DUP2 MSTORE PUSH1 0x20 DUP2 ADD DUP5 DUP5 DUP5 ADD GT ISZERO PUSH2 0xB28 JUMPI PUSH2 0xB27 PUSH2 0xA40 JUMP JUMPDEST JUMPDEST PUSH2 0xB33 DUP5 DUP3 DUP6 PUSH2 0xAEC JUMP JUMPDEST POP SWAP4 SWAP3 POP POP POP JUMP JUMPDEST PUSH0 DUP3 PUSH1 0x1F DUP4 ADD SLT PUSH2 0xB4F JUMPI PUSH2 0xB4E PUSH2 0xA3C JUMP JUMPDEST JUMPDEST DUP2 CALLDATALOAD PUSH2 0xB5F DUP5 DUP3 PUSH1 0x20 DUP7 ADD PUSH2 0xAFA JUMP JUMPDEST SWAP2 POP POP SWAP3 SWAP2 POP POP JUMP JUMPDEST PUSH0 PUSH8 0xFFFFFFFFFFFFFFFF DUP3 GT ISZERO PUSH2 0xB82 JUMPI PUSH2 0xB81 PUSH2 0xA44 JUMP JUMPDEST JUMPDEST PUSH1 0x20 DUP3 MUL SWAP1 POP PUSH1 0x20 DUP2 ADD SWAP1 POP SWAP2 SWAP1 POP JUMP JUMPDEST PUSH0 DUP1 REVERT JUMPDEST PUSH0 PUSH2 0xBA9 PUSH2 0xBA4 DUP5 PUSH2 0xB68 JUMP JUMPDEST PUSH2 0xAA2 JUMP JUMPDEST SWAP1 POP DUP1 DUP4 DUP3 MSTORE PUSH1 0x20 DUP3 ADD SWAP1 POP PUSH1 0x20 DUP5 MUL DUP4 ADD DUP6 DUP2 GT ISZERO PUSH2 0xBCC JUMPI PUSH2 0xBCB PUSH2 0xB93 JUMP JUMPDEST JUMPDEST DUP4 JUMPDEST DUP2 DUP2 LT ISZERO PUSH2 0xC13 JUMPI DUP1 CALLDATALOAD PUSH8 0xFFFFFFFFFFFFFFFF DUP2 GT ISZERO PUSH2 0xBF1 JUMPI PUSH2 0xBF0 PUSH2 0xA3C JUMP JUMPDEST JUMPDEST DUP1 DUP7 ADD PUSH2 0xBFE DUP10 DUP3 PUSH2 0xB3B JUMP JUMPDEST DUP6 MSTORE PUSH1 0x20 DUP6 ADD SWAP5 POP POP POP PUSH1 0x20 DUP2 ADD SWAP1 POP PUSH2 0xBCE JUMP JUMPDEST POP POP POP SWAP4 SWAP3 POP POP POP JUMP JUMPDEST PUSH0 DUP3 PUSH1 0x1F DUP4 ADD SLT PUSH2 0xC31 JUMPI PUSH2 0xC30 PUSH2 0xA3C JUMP JUMPDEST JUMPDEST DUP2 CALLDATALOAD PUSH2 0xC41 DUP5 DUP3 PUSH1 0x20 DUP7 ADD PUSH2 0xB97 JUMP JUMPDEST SWAP2 POP POP SWAP3 SWAP2 POP POP JUMP JUMPDEST PUSH0 DUP1 PUSH0 DUP1 PUSH1 0x80 DUP6 DUP8 SUB SLT ISZERO PUSH2 0xC62 JUMPI PUSH2 0xC61 PUSH2 0x946 JUMP JUMPDEST JUMPDEST PUSH0 DUP6 ADD CALLDATALOAD PUSH8 0xFFFFFFFFFFFFFFFF DUP2 GT ISZERO PUSH2 0xC7F JUMPI PUSH2 0xC7E PUSH2 0x94A JUMP JUMPDEST JUMPDEST PUSH2 0xC8B DUP8 DUP3 DUP9 ADD PUSH2 0xB3B JUMP JUMPDEST SWAP5 POP POP PUSH1 0x20 PUSH2 0xC9C DUP8 DUP3 DUP9 ADD PUSH2 0x96D JUMP JUMPDEST SWAP4 POP POP PUSH1 0x40 PUSH2 0xCAD DUP8 DUP3 DUP9 ADD PUSH2 0x96D JUMP JUMPDEST SWAP3 POP POP PUSH1 0x60 DUP6 ADD CALLDATALOAD PUSH8 0xFFFFFFFFFFFFFFFF DUP2 GT ISZERO PUSH2 0xCCE JUMPI PUSH2 0xCCD PUSH2 0x94A JUMP JUMPDEST JUMPDEST PUSH2 0xCDA DUP8 DUP3 DUP9 ADD PUSH2 0xC1D JUMP JUMPDEST SWAP2 POP POP SWAP3 SWAP6 SWAP2 SWAP5 POP SWAP3 POP JUMP JUMPDEST PUSH0 DUP2 MLOAD SWAP1 POP SWAP2 SWAP1 POP JUMP JUMPDEST PUSH0 DUP3 DUP3 MSTORE PUSH1 0x20 DUP3 ADD SWAP1 POP SWAP3 SWAP2 POP POP JUMP JUMPDEST PUSH0 DUP2 SWAP1 POP PUSH1 0x20 DUP3 ADD SWAP1 POP SWAP2 SWAP1 POP JUMP JUMPDEST PUSH0 DUP3 DUP3 MSTORE PUSH1 0x20 DUP3 ADD SWAP1 POP SWAP3 SWAP2 POP POP JUMP JUMPDEST PUSH0 PUSH2 0xD29 DUP3 PUSH2 0x9AC JUMP JUMPDEST PUSH2 0xD33 DUP2 DUP6 PUSH2 0xD0F JUMP JUMPDEST SWAP4 POP PUSH2 0xD43 DUP2 DUP6 PUSH1 0x20 DUP7 ADD PUSH2 0x9C6 JUMP JUMPDEST PUSH2 0xD4C DUP2 PUSH2 0x9D4 JUMP JUMPDEST DUP5 ADD SWAP2 POP POP SWAP3 SWAP2 POP POP JUMP JUMPDEST PUSH2 0xD60 DUP2 PUSH2 0x94E JUMP JUMPDEST DUP3 MSTORE POP POP JUMP JUMPDEST PUSH0 DUP2 MLOAD SWAP1 POP SWAP2 SWAP1 POP JUMP JUMPDEST PUSH0 DUP3 DUP3 MSTORE PUSH1 0x20 DUP3 ADD SWAP1 POP SWAP3 SWAP2 POP POP JUMP JUMPDEST PUSH0 DUP2 SWAP1 POP PUSH1 0x20 DUP3 ADD SWAP1 POP SWAP2 SWAP1 POP JUMP JUMPDEST PUSH0 PUSH2 0xD9A DUP4 DUP4 PUSH2 0xD1F JUMP JUMPDEST SWAP1 POP SWAP3 SWAP2 POP POP JUMP JUMPDEST PUSH0 PUSH1 0x20 DUP3 ADD SWAP1 POP SWAP2 SWAP1 POP JUMP JUMPDEST PUSH0 PUSH2 0xDB8 DUP3 PUSH2 0xD66 JUMP JUMPDEST PUSH2 0xDC2 DUP2 DUP6 PUSH2 0xD70 JUMP JUMPDEST SWAP4 POP DUP4 PUSH1 0x20 DUP3 MUL DUP6 ADD PUSH2 0xDD4 DUP6 PUSH2 0xD80 JUMP JUMPDEST DUP1 PUSH0 JUMPDEST DUP6 DUP2 LT ISZERO PUSH2 0xE0F JUMPI DUP5 DUP5 SUB DUP10 MSTORE DUP2 MLOAD PUSH2 0xDF0 DUP6 DUP3 PUSH2 0xD8F JUMP JUMPDEST SWAP5 POP PUSH2 0xDFB DUP4 PUSH2 0xDA2 JUMP JUMPDEST SWAP3 POP PUSH1 0x20 DUP11 ADD SWAP10 POP POP PUSH1 0x1 DUP2 ADD SWAP1 POP PUSH2 0xDD7 JUMP JUMPDEST POP DUP3 SWAP8 POP DUP8 SWAP6 POP POP POP POP POP POP SWAP3 SWAP2 POP POP JUMP JUMPDEST PUSH0 PUSH1 0xA0 DUP4 ADD PUSH0 DUP4 ADD MLOAD DUP5 DUP3 SUB PUSH0 DUP7 ADD MSTORE PUSH2 0xE3B DUP3 DUP3 PUSH2 0xD1F JUMP JUMPDEST SWAP2 POP POP PUSH1 0x20 DUP4 ADD MLOAD PUSH2 0xE50 PUSH1 0x20 DUP7 ADD DUP3 PUSH2 0xD57 JUMP JUMPDEST POP PUSH1 0x40 DUP4 ADD MLOAD PUSH2 0xE63 PUSH1 0x40 DUP7 ADD DUP3 PUSH2 0xD57 JUMP JUMPDEST POP PUSH1 0x60 DUP4 ADD MLOAD DUP5 DUP3 SUB PUSH1 0x60 DUP7 ADD MSTORE PUSH2 0xE7B DUP3 DUP3 PUSH2 0xD1F JUMP JUMPDEST SWAP2 POP POP PUSH1 0x80 DUP4 ADD MLOAD DUP5 DUP3 SUB PUSH1 0x80 DUP7 ADD MSTORE PUSH2 0xE95 DUP3 DUP3 PUSH2 0xDAE JUMP JUMPDEST SWAP2 POP POP DUP1 SWAP2 POP POP SWAP3 SWAP2 POP POP JUMP JUMPDEST PUSH0 PUSH2 0xEAD DUP4 DUP4 PUSH2 0xE21 JUMP JUMPDEST SWAP1 POP SWAP3 SWAP2 POP POP JUMP JUMPDEST PUSH0 PUSH1 0x20 DUP3 ADD SWAP1 POP SWAP2 SWAP1 POP JUMP JUMPDEST PUSH0 PUSH2 0xECB DUP3 PUSH2 0xCE6 JUMP JUMPDEST PUSH2 0xED5 DUP2 DUP6 PUSH2 0xCF0 JUMP JUMPDEST SWAP4 POP DUP4 PUSH1 0x20 DUP3 MUL DUP6 ADD PUSH2 0xEE7 DUP6 PUSH2 0xD00 JUMP JUMPDEST DUP1 PUSH0 JUMPDEST DUP6 DUP2 LT ISZERO PUSH2 0xF22 JUMPI DUP5 DUP5 SUB DUP10 MSTORE DUP2 MLOAD PUSH2 0xF03 DUP6 DUP3 PUSH2 0xEA2 JUMP JUMPDEST SWAP5 POP PUSH2 0xF0E DUP4 PUSH2 0xEB5 JUMP JUMPDEST SWAP3 POP PUSH1 0x20 DUP11 ADD SWAP10 POP POP PUSH1 0x1 DUP2 ADD SWAP1 POP PUSH2 0xEEA JUMP JUMPDEST POP DUP3 SWAP8 POP DUP8 SWAP6 POP POP POP POP POP POP SWAP3 SWAP2 POP POP JUMP JUMPDEST PUSH0 PUSH1 0x20 DUP3 ADD SWAP1 POP DUP2 DUP2 SUB PUSH0 DUP4 ADD MSTORE PUSH2 0xF4C DUP2 DUP5 PUSH2 0xEC1 JUMP JUMPDEST SWAP1 POP SWAP3 SWAP2 POP POP JUMP JUMPDEST PUSH2 0xF5D DUP2 PUSH2 0x94E JUMP JUMPDEST DUP3 MSTORE POP POP JUMP JUMPDEST PUSH0 PUSH1 0x20 DUP3 ADD SWAP1 POP PUSH2 0xF76 PUSH0 DUP4 ADD DUP5 PUSH2 0xF54 JUMP JUMPDEST SWAP3 SWAP2 POP POP JUMP JUMPDEST PUSH0 PUSH1 0x20 DUP3 DUP5 SUB SLT ISZERO PUSH2 0xF91 JUMPI PUSH2 0xF90 PUSH2 0x946 JUMP JUMPDEST JUMPDEST PUSH0 DUP3 ADD CALLDATALOAD PUSH8 0xFFFFFFFFFFFFFFFF DUP2 GT ISZERO PUSH2 0xFAE JUMPI PUSH2 0xFAD PUSH2 0x94A JUMP JUMPDEST JUMPDEST PUSH2 0xFBA DUP5 DUP3 DUP6 ADD PUSH2 0xB3B JUMP JUMPDEST SWAP2 POP POP SWAP3 SWAP2 POP POP JUMP JUMPDEST PUSH32 0x4E487B7100000000000000000000000000000000000000000000000000000000 PUSH0 MSTORE PUSH1 0x22 PUSH1 0x4 MSTORE PUSH1 0x24 PUSH0 REVERT JUMPDEST PUSH0 PUSH1 0x2 DUP3 DIV SWAP1 POP PUSH1 0x1 DUP3 AND DUP1 PUSH2 0x1007 JUMPI PUSH1 0x7F DUP3 AND SWAP2 POP JUMPDEST PUSH1 0x20 DUP3 LT DUP2 SUB PUSH2 0x101A JUMPI PUSH2 0x1019 PUSH2 0xFC3 JUMP JUMPDEST JUMPDEST POP SWAP2 SWAP1 POP JUMP JUMPDEST PUSH0 DUP2 SWAP1 POP DUP2 PUSH0 MSTORE PUSH1 0x20 PUSH0 KECCAK256 SWAP1 POP SWAP2 SWAP1 POP JUMP JUMPDEST PUSH0 PUSH1 0x20 PUSH1 0x1F DUP4 ADD DIV SWAP1 POP SWAP2 SWAP1 POP JUMP JUMPDEST PUSH0 DUP3 DUP3 SHL SWAP1 POP SWAP3 SWAP2 POP POP JUMP JUMPDEST PUSH0 PUSH1 0x8 DUP4 MUL PUSH2 0x107C PUSH32 0xFFFFFFFFFFFFFFFFFFFFFFFFFFFFFFFFFFFFFFFFFFFFFFFFFFFFFFFFFFFFFFFF DUP3 PUSH2 0x1041 JUMP JUMPDEST PUSH2 0x1086 DUP7 DUP4 PUSH2 0x1041 JUMP JUMPDEST SWAP6 POP DUP1 NOT DUP5 AND SWAP4 POP DUP1 DUP7 AND DUP5 OR SWAP3 POP POP POP SWAP4 SWAP3 POP POP POP JUMP JUMPDEST PUSH0 DUP2 SWAP1 POP SWAP2 SWAP1 POP JUMP JUMPDEST PUSH0 PUSH2 0x10C1 PUSH2 0x10BC PUSH2 0x10B7 DUP5 PUSH2 0x94E JUMP JUMPDEST PUSH2 0x109E JUMP JUMPDEST PUSH2 0x94E JUMP JUMPDEST SWAP1 POP SWAP2 SWAP1 POP JUMP JUMPDEST PUSH0 DUP2 SWAP1 POP SWAP2 SWAP1 POP JUMP JUMPDEST PUSH2 0x10DA DUP4 PUSH2 0x10A7 JUMP JUMPDEST PUSH2 0x10EE PUSH2 0x10E6 DUP3 PUSH2 0x10C8 JUMP JUMPDEST DUP5 DUP5 SLOAD PUSH2 0x104D JUMP JUMPDEST DUP3 SSTORE POP POP POP POP JUMP JUMPDEST PUSH0 SWAP1 JUMP JUMPDEST PUSH2 0x1102 PUSH2 0x10F6 JUMP JUMPDEST PUSH2 0x110D DUP2 DUP5 DUP5 PUSH2 0x10D1 JUMP JUMPDEST POP POP POP JUMP JUMPDEST JUMPDEST DUP2 DUP2 LT ISZERO PUSH2 0x1130 JUMPI PUSH2 0x1125 PUSH0 DUP3 PUSH2 0x10FA JUMP JUMPDEST PUSH1 0x1 DUP2 ADD SWAP1 POP PUSH2 0x1113 JUMP JUMPDEST POP POP JUMP JUMPDEST PUSH1 0x1F DUP3 GT ISZERO PUSH2 0x1175 JUMPI PUSH2 0x1146 DUP2 PUSH2 0x1020 JUMP JUMPDEST PUSH2 0x114F DUP5 PUSH2 0x1032 JUMP JUMPDEST DUP2 ADD PUSH1 0x20 DUP6 LT ISZERO PUSH2 0x115E JUMPI DUP2 SWAP1 POP JUMPDEST PUSH2 0x1172 PUSH2 0x116A DUP6 PUSH2 0x1032 JUMP JUMPDEST DUP4 ADD DUP3 PUSH2 0x1112 JUMP JUMPDEST POP POP JUMPDEST POP POP POP JUMP JUMPDEST PUSH0 DUP3 DUP3 SHR SWAP1 POP SWAP3 SWAP2 POP POP JUMP JUMPDEST PUSH0 PUSH2 0x1195 PUSH0 NOT DUP5 PUSH1 0x8 MUL PUSH2 0x117A JUMP JUMPDEST NOT DUP1 DUP4 AND SWAP2 POP POP SWAP3 SWAP2 POP POP JUMP JUMPDEST PUSH0 PUSH2 0x11AD DUP4 DUP4 PUSH2 0x1186 JUMP JUMPDEST SWAP2 POP DUP3 PUSH1 0x2 MUL DUP3 OR SWAP1 POP SWAP3 SWAP2 POP POP JUMP JUMPDEST PUSH2 0x11C6 DUP3 PUSH2 0x9AC JUMP JUMPDEST PUSH8 0xFFFFFFFFFFFFFFFF DUP2 GT ISZERO PUSH2 0x11DF JUMPI PUSH2 0x11DE PUSH2 0xA44 JUMP JUMPDEST JUMPDEST PUSH2 0x11E9 DUP3 SLOAD PUSH2 0xFF0 JUMP JUMPDEST PUSH2 0x11F4 DUP3 DUP3 DUP6 PUSH2 0x1134 JUMP JUMPDEST PUSH0 PUSH1 0x20 SWAP1 POP PUSH1 0x1F DUP4 GT PUSH1 0x1 DUP2 EQ PUSH2 0x1225 JUMPI PUSH0 DUP5 ISZERO PUSH2 0x1213 JUMPI DUP3 DUP8 ADD MLOAD SWAP1 POP JUMPDEST PUSH2 0x121D DUP6 DUP3 PUSH2 0x11A2 JUMP JUMPDEST DUP7 SSTORE POP PUSH2 0x1284 JUMP JUMPDEST PUSH1 0x1F NOT DUP5 AND PUSH2 0x1233 DUP7 PUSH2 0x1020 JUMP JUMPDEST PUSH0 JUMPDEST DUP3 DUP2 LT ISZERO PUSH2 0x125A JUMPI DUP5 DUP10 ADD MLOAD DUP3 SSTORE PUSH1 0x1 DUP3 ADD SWAP2 POP PUSH1 0x20 DUP6 ADD SWAP5 POP PUSH1 0x20 DUP2 ADD SWAP1 POP PUSH2 0x1235 JUMP JUMPDEST DUP7 DUP4 LT ISZERO PUSH2 0x1277 JUMPI DUP5 DUP10 ADD MLOAD PUSH2 0x1273 PUSH1 0x1F DUP10 AND DUP3 PUSH2 0x1186 JUMP JUMPDEST DUP4 SSTORE POP JUMPDEST PUSH1 0x1 PUSH1 0x2 DUP9 MUL ADD DUP9 SSTORE POP POP POP JUMPDEST POP POP POP POP POP POP JUMP JUMPDEST PUSH0 DUP2 SWAP1 POP SWAP3 SWAP2 POP POP JUMP JUMPDEST PUSH0 PUSH2 0x12A0 DUP3 PUSH2 0x9AC JUMP JUMPDEST PUSH2 0x12AA DUP2 DUP6 PUSH2 0x128C JUMP JUMPDEST SWAP4 POP PUSH2 0x12BA DUP2 DUP6 PUSH1 0x20 DUP7 ADD PUSH2 0x9C6 JUMP JUMPDEST DUP1 DUP5 ADD SWAP2 POP POP SWAP3 SWAP2 POP POP JUMP JUMPDEST PUSH0 PUSH2 0x12D1 DUP3 DUP5 PUSH2 0x1296 JUMP JUMPDEST SWAP2 POP DUP2 SWAP1 POP SWAP3 SWAP2 POP POP JUMP INVALID LOG2 PUSH5 0x6970667358 0x22 SLT KECCAK256 PUSH31 0x7F4AAD317521316046877881BAAC9406C1C9E1CB42731C4D0D84F64749F502 PUSH5 0x736F6C6343 STOP ADDMOD BYTE STOP CALLER "
				},
				"gasEstimates": {
					"creation": {
						"codeDepositCost": "976400",
						"executionCost": "1012",
						"totalCost": "977412"
					},
					"external": {
						"getLength()": "2484",
						"getstudent(string)": "infinite",
						"getstudent(uint256)": "infinite",
						"pushStudent(string,uint256,uint256,string[])": "infinite",
						"setGrade(uint256)": "infinite"
					}
				},
				"methodIdentifiers": {
					"getLength()": "be1c766b",
					"getstudent(string)": "cd5b84eb",
					"getstudent(uint256)": "b0f3bdc2",
					"pushStudent(string,uint256,uint256,string[])": "84a1288d",
					"setGrade(uint256)": "674271cd"
				}
			},
			"storageLayout": {
				"storage": [
					{
						"astId": 16,
						"contract": "Coding test/test2.sol:TEST2",
						"label": "s1",
						"offset": 0,
						"slot": "0",
						"type": "t_struct(student)13_storage"
					},
					{
						"astId": 20,
						"contract": "Coding test/test2.sol:TEST2",
						"label": "Students",
						"offset": 0,
						"slot": "5",
						"type": "t_array(t_struct(student)13_storage)dyn_storage"
					},
					{
						"astId": 108,
						"contract": "Coding test/test2.sol:TEST2",
						"label": "students1",
						"offset": 0,
						"slot": "6",
						"type": "t_mapping(t_string_memory_ptr,t_array(t_struct(student)13_storage)dyn_storage)"
					},
					{
						"astId": 114,
						"contract": "Coding test/test2.sol:TEST2",
						"label": "students2",
						"offset": 0,
						"slot": "7",
						"type": "t_mapping(t_uint256,t_array(t_struct(student)13_storage)dyn_storage)"
					}
				],
				"types": {
					"t_array(t_string_storage)dyn_storage": {
						"base": "t_string_storage",
						"encoding": "dynamic_array",
						"label": "string[]",
						"numberOfBytes": "32"
					},
					"t_array(t_struct(student)13_storage)dyn_storage": {
						"base": "t_struct(student)13_storage",
						"encoding": "dynamic_array",
						"label": "struct TEST2.student[]",
						"numberOfBytes": "32"
					},
					"t_mapping(t_string_memory_ptr,t_array(t_struct(student)13_storage)dyn_storage)": {
						"encoding": "mapping",
						"key": "t_string_memory_ptr",
						"label": "mapping(string => struct TEST2.student[])",
						"numberOfBytes": "32",
						"value": "t_array(t_struct(student)13_storage)dyn_storage"
					},
					"t_mapping(t_uint256,t_array(t_struct(student)13_storage)dyn_storage)": {
						"encoding": "mapping",
						"key": "t_uint256",
						"label": "mapping(uint256 => struct TEST2.student[])",
						"numberOfBytes": "32",
						"value": "t_array(t_struct(student)13_storage)dyn_storage"
					},
					"t_string_memory_ptr": {
						"encoding": "bytes",
						"label": "string",
						"numberOfBytes": "32"
					},
					"t_string_storage": {
						"encoding": "bytes",
						"label": "string",
						"numberOfBytes": "32"
					},
					"t_struct(student)13_storage": {
						"encoding": "inplace",
						"label": "struct TEST2.student",
						"members": [
							{
								"astId": 3,
								"contract": "Coding test/test2.sol:TEST2",
								"label": "name",
								"offset": 0,
								"slot": "0",
								"type": "t_string_storage"
							},
							{
								"astId": 5,
								"contract": "Coding test/test2.sol:TEST2",
								"label": "num",
								"offset": 0,
								"slot": "1",
								"type": "t_uint256"
							},
							{
								"astId": 7,
								"contract": "Coding test/test2.sol:TEST2",
								"label": "score",
								"offset": 0,
								"slot": "2",
								"type": "t_uint256"
							},
							{
								"astId": 9,
								"contract": "Coding test/test2.sol:TEST2",
								"label": "grade",
								"offset": 0,
								"slot": "3",
								"type": "t_string_storage"
							},
							{
								"astId": 12,
								"contract": "Coding test/test2.sol:TEST2",
								"label": "class",
								"offset": 0,
								"slot": "4",
								"type": "t_array(t_string_storage)dyn_storage"
							}
						],
						"numberOfBytes": "160"
					},
					"t_uint256": {
						"encoding": "inplace",
						"label": "uint256",
						"numberOfBytes": "32"
					}
				}
			},
			"userdoc": {
				"kind": "user",
				"methods": {},
				"version": 1
			}
		}
	}
}