{
	"Coding test/test13.sol": {
		"Test13": {
			"abi": [
				{
					"inputs": [
						{
							"internalType": "uint256",
							"name": "",
							"type": "uint256"
						}
					],
					"name": "_num",
					"outputs": [
						{
							"internalType": "uint256",
							"name": "",
							"type": "uint256"
						}
					],
					"stateMutability": "view",
					"type": "function"
				},
				{
					"inputs": [
						{
							"internalType": "uint256",
							"name": "",
							"type": "uint256"
						}
					],
					"name": "_num2",
					"outputs": [
						{
							"internalType": "uint256",
							"name": "",
							"type": "uint256"
						}
					],
					"stateMutability": "view",
					"type": "function"
				},
				{
					"inputs": [
						{
							"internalType": "uint256",
							"name": "_n",
							"type": "uint256"
						}
					],
					"name": "pushNum",
					"outputs": [],
					"stateMutability": "pure",
					"type": "function"
				},
				{
					"inputs": [
						{
							"internalType": "uint256",
							"name": "_n",
							"type": "uint256"
						}
					],
					"name": "pushNum2",
					"outputs": [],
					"stateMutability": "pure",
					"type": "function"
				}
			],
			"devdoc": {
				"kind": "dev",
				"methods": {},
				"version": 1
			},
			"evm": {
				"assembly": "    /* \"Coding test/test13.sol\":76:1179  contract Test13 {... */\n  mstore(0x40, 0x80)\n  callvalue\n  dup1\n  iszero\n  tag_1\n  jumpi\n  0x00\n  dup1\n  revert\ntag_1:\n  pop\n  dataSize(sub_0)\n  dup1\n  dataOffset(sub_0)\n  0x00\n  codecopy\n  0x00\n  return\nstop\n\nsub_0: assembly {\n        /* \"Coding test/test13.sol\":76:1179  contract Test13 {... */\n      mstore(0x40, 0x80)\n      callvalue\n      dup1\n      iszero\n      tag_1\n      jumpi\n      0x00\n      dup1\n      revert\n    tag_1:\n      pop\n      jumpi(tag_2, lt(calldatasize, 0x04))\n      shr(0xe0, calldataload(0x00))\n      dup1\n      0x92bf65c0\n      eq\n      tag_3\n      jumpi\n      dup1\n      0xa8b053fb\n      eq\n      tag_4\n      jumpi\n      dup1\n      0xbc07865f\n      eq\n      tag_5\n      jumpi\n      dup1\n      0xf7a04c87\n      eq\n      tag_6\n      jumpi\n    tag_2:\n      0x00\n      dup1\n      revert\n        /* \"Coding test/test13.sol\":732:750  uint[] public _num */\n    tag_3:\n      tag_7\n      0x04\n      dup1\n      calldatasize\n      sub\n      dup2\n      add\n      swap1\n      tag_8\n      swap2\n      swap1\n      tag_9\n      jump\t// in\n    tag_8:\n      tag_10\n      jump\t// in\n    tag_7:\n      mload(0x40)\n      tag_11\n      swap2\n      swap1\n      tag_12\n      jump\t// in\n    tag_11:\n      mload(0x40)\n      dup1\n      swap2\n      sub\n      swap1\n      return\n        /* \"Coding test/test13.sol\":1055:1174  function pushNum2(uint _n) public pure {... */\n    tag_4:\n      tag_13\n      0x04\n      dup1\n      calldatasize\n      sub\n      dup2\n      add\n      swap1\n      tag_14\n      swap2\n      swap1\n      tag_9\n      jump\t// in\n    tag_14:\n      tag_15\n      jump\t// in\n    tag_13:\n      stop\n        /* \"Coding test/test13.sol\":786:1047  function pushNum(uint _n) public pure{... */\n    tag_5:\n      tag_16\n      0x04\n      dup1\n      calldatasize\n      sub\n      dup2\n      add\n      swap1\n      tag_17\n      swap2\n      swap1\n      tag_9\n      jump\t// in\n    tag_17:\n      tag_18\n      jump\t// in\n    tag_16:\n      stop\n        /* \"Coding test/test13.sol\":757:777  uint[4] public _num2 */\n    tag_6:\n      tag_19\n      0x04\n      dup1\n      calldatasize\n      sub\n      dup2\n      add\n      swap1\n      tag_20\n      swap2\n      swap1\n      tag_9\n      jump\t// in\n    tag_20:\n      tag_21\n      jump\t// in\n    tag_19:\n      mload(0x40)\n      tag_22\n      swap2\n      swap1\n      tag_12\n      jump\t// in\n    tag_22:\n      mload(0x40)\n      dup1\n      swap2\n      sub\n      swap1\n      return\n        /* \"Coding test/test13.sol\":732:750  uint[] public _num */\n    tag_10:\n      0x00\n      dup2\n      dup2\n      sload\n      dup2\n      lt\n      tag_23\n      jumpi\n      0x00\n      dup1\n      revert\n    tag_23:\n      swap1\n      0x00\n      mstore\n      keccak256(0x00, 0x20)\n      add\n      0x00\n      swap2\n      pop\n      swap1\n      pop\n      sload\n      dup2\n      jump\t// out\n        /* \"Coding test/test13.sol\":1055:1174  function pushNum2(uint _n) public pure {... */\n    tag_15:\n      pop\n      jump\t// out\n        /* \"Coding test/test13.sol\":786:1047  function pushNum(uint _n) public pure{... */\n    tag_18:\n        /* \"Coding test/test13.sol\":897:901  0x20 */\n      0x20\n        /* \"Coding test/test13.sol\":886:895  _num.slot */\n      0x00\n        /* \"Coding test/test13.sol\":882:902  add(_num.slot, 0x20) */\n      add\n        /* \"Coding test/test13.sol\":928:929  0 */\n      0x00\n        /* \"Coding test/test13.sol\":916:1029  for {let i:=0} lt(i,_n) {i:=add(i,1)} {... */\n    tag_27:\n        /* \"Coding test/test13.sol\":936:938  _n */\n      dup3\n        /* \"Coding test/test13.sol\":934:935  i */\n      dup2\n        /* \"Coding test/test13.sol\":931:939  lt(i,_n) */\n      lt\n        /* \"Coding test/test13.sol\":916:1029  for {let i:=0} lt(i,_n) {i:=add(i,1)} {... */\n      iszero\n      tag_29\n      jumpi\n        /* \"Coding test/test13.sol\":1011:1012  1 */\n      0x01\n        /* \"Coding test/test13.sol\":1009:1010  i */\n      dup2\n        /* \"Coding test/test13.sol\":1005:1013  add(i,1) */\n      add\n        /* \"Coding test/test13.sol\":997:1001  0x20 */\n      0x20\n        /* \"Coding test/test13.sol\":995:996  i */\n      dup3\n        /* \"Coding test/test13.sol\":991:1002  mul(i,0x20) */\n      mul\n        /* \"Coding test/test13.sol\":984:989  start */\n      dup4\n        /* \"Coding test/test13.sol\":980:1003  add(start, mul(i,0x20)) */\n      add\n        /* \"Coding test/test13.sol\":973:1014  mstore(add(start, mul(i,0x20)), add(i,1)) */\n      mstore\n        /* \"Coding test/test13.sol\":950:951  1 */\n      0x01\n        /* \"Coding test/test13.sol\":948:949  i */\n      dup2\n        /* \"Coding test/test13.sol\":944:952  add(i,1) */\n      add\n        /* \"Coding test/test13.sol\":941:952  i:=add(i,1) */\n      swap1\n      pop\n        /* \"Coding test/test13.sol\":916:1029  for {let i:=0} lt(i,_n) {i:=add(i,1)} {... */\n      jump(tag_27)\n    tag_29:\n        /* \"Coding test/test13.sol\":920:930  {let i:=0} */\n      pop\n        /* \"Coding test/test13.sol\":854:1040  {... */\n      pop\n        /* \"Coding test/test13.sol\":786:1047  function pushNum(uint _n) public pure{... */\n      pop\n      jump\t// out\n        /* \"Coding test/test13.sol\":757:777  uint[4] public _num2 */\n    tag_21:\n      0x01\n      dup2\n      0x04\n      dup2\n      lt\n      tag_30\n      jumpi\n      0x00\n      dup1\n      revert\n    tag_30:\n      add\n      0x00\n      swap2\n      pop\n      swap1\n      pop\n      sload\n      dup2\n      jump\t// out\n        /* \"#utility.yul\":88:205   */\n    tag_33:\n        /* \"#utility.yul\":197:198   */\n      0x00\n        /* \"#utility.yul\":194:195   */\n      dup1\n        /* \"#utility.yul\":187:199   */\n      revert\n        /* \"#utility.yul\":334:411   */\n    tag_35:\n        /* \"#utility.yul\":371:378   */\n      0x00\n        /* \"#utility.yul\":400:405   */\n      dup2\n        /* \"#utility.yul\":389:405   */\n      swap1\n      pop\n        /* \"#utility.yul\":334:411   */\n      swap2\n      swap1\n      pop\n      jump\t// out\n        /* \"#utility.yul\":417:539   */\n    tag_36:\n        /* \"#utility.yul\":490:514   */\n      tag_45\n        /* \"#utility.yul\":508:513   */\n      dup2\n        /* \"#utility.yul\":490:514   */\n      tag_35\n      jump\t// in\n    tag_45:\n        /* \"#utility.yul\":483:488   */\n      dup2\n        /* \"#utility.yul\":480:515   */\n      eq\n        /* \"#utility.yul\":470:533   */\n      tag_46\n      jumpi\n        /* \"#utility.yul\":529:530   */\n      0x00\n        /* \"#utility.yul\":526:527   */\n      dup1\n        /* \"#utility.yul\":519:531   */\n      revert\n        /* \"#utility.yul\":470:533   */\n    tag_46:\n        /* \"#utility.yul\":417:539   */\n      pop\n      jump\t// out\n        /* \"#utility.yul\":545:684   */\n    tag_37:\n        /* \"#utility.yul\":591:596   */\n      0x00\n        /* \"#utility.yul\":629:635   */\n      dup2\n        /* \"#utility.yul\":616:636   */\n      calldataload\n        /* \"#utility.yul\":607:636   */\n      swap1\n      pop\n        /* \"#utility.yul\":645:678   */\n      tag_48\n        /* \"#utility.yul\":672:677   */\n      dup2\n        /* \"#utility.yul\":645:678   */\n      tag_36\n      jump\t// in\n    tag_48:\n        /* \"#utility.yul\":545:684   */\n      swap3\n      swap2\n      pop\n      pop\n      jump\t// out\n        /* \"#utility.yul\":690:1019   */\n    tag_9:\n        /* \"#utility.yul\":749:755   */\n      0x00\n        /* \"#utility.yul\":798:800   */\n      0x20\n        /* \"#utility.yul\":786:795   */\n      dup3\n        /* \"#utility.yul\":777:784   */\n      dup5\n        /* \"#utility.yul\":773:796   */\n      sub\n        /* \"#utility.yul\":769:801   */\n      slt\n        /* \"#utility.yul\":766:885   */\n      iszero\n      tag_50\n      jumpi\n        /* \"#utility.yul\":804:883   */\n      tag_51\n      tag_33\n      jump\t// in\n    tag_51:\n        /* \"#utility.yul\":766:885   */\n    tag_50:\n        /* \"#utility.yul\":924:925   */\n      0x00\n        /* \"#utility.yul\":949:1002   */\n      tag_52\n        /* \"#utility.yul\":994:1001   */\n      dup5\n        /* \"#utility.yul\":985:991   */\n      dup3\n        /* \"#utility.yul\":974:983   */\n      dup6\n        /* \"#utility.yul\":970:992   */\n      add\n        /* \"#utility.yul\":949:1002   */\n      tag_37\n      jump\t// in\n    tag_52:\n        /* \"#utility.yul\":939:1002   */\n      swap2\n      pop\n        /* \"#utility.yul\":895:1012   */\n      pop\n        /* \"#utility.yul\":690:1019   */\n      swap3\n      swap2\n      pop\n      pop\n      jump\t// out\n        /* \"#utility.yul\":1025:1143   */\n    tag_38:\n        /* \"#utility.yul\":1112:1136   */\n      tag_54\n        /* \"#utility.yul\":1130:1135   */\n      dup2\n        /* \"#utility.yul\":1112:1136   */\n      tag_35\n      jump\t// in\n    tag_54:\n        /* \"#utility.yul\":1107:1110   */\n      dup3\n        /* \"#utility.yul\":1100:1137   */\n      mstore\n        /* \"#utility.yul\":1025:1143   */\n      pop\n      pop\n      jump\t// out\n        /* \"#utility.yul\":1149:1371   */\n    tag_12:\n        /* \"#utility.yul\":1242:1246   */\n      0x00\n        /* \"#utility.yul\":1280:1282   */\n      0x20\n        /* \"#utility.yul\":1269:1278   */\n      dup3\n        /* \"#utility.yul\":1265:1283   */\n      add\n        /* \"#utility.yul\":1257:1283   */\n      swap1\n      pop\n        /* \"#utility.yul\":1293:1364   */\n      tag_56\n        /* \"#utility.yul\":1361:1362   */\n      0x00\n        /* \"#utility.yul\":1350:1359   */\n      dup4\n        /* \"#utility.yul\":1346:1363   */\n      add\n        /* \"#utility.yul\":1337:1343   */\n      dup5\n        /* \"#utility.yul\":1293:1364   */\n      tag_38\n      jump\t// in\n    tag_56:\n        /* \"#utility.yul\":1149:1371   */\n      swap3\n      swap2\n      pop\n      pop\n      jump\t// out\n\n    auxdata: 0xa26469706673582212200430885f96957a4cdc6eb587d7b6bc8defa25eeb648534cf8327f2f75e1e390464736f6c634300081a0033\n}\n",
				"bytecode": {
					"linkReferences": {},
					"object": "6080604052348015600e575f80fd5b5061020a8061001c5f395ff3fe608060405234801561000f575f80fd5b506004361061004a575f3560e01c806392bf65c01461004e578063a8b053fb1461007e578063bc07865f1461009a578063f7a04c87146100b6575b5f80fd5b61006860048036038101906100639190610181565b6100e6565b60405161007591906101bb565b60405180910390f35b61009860048036038101906100939190610181565b610105565b005b6100b460048036038101906100af9190610181565b610108565b005b6100d060048036038101906100cb9190610181565b610131565b6040516100dd91906101bb565b60405180910390f35b5f81815481106100f4575f80fd5b905f5260205f20015f915090505481565b50565b60205f015f5b8281101561012c57600181016020820283015260018101905061010e565b505050565b60018160048110610140575f80fd5b015f915090505481565b5f80fd5b5f819050919050565b6101608161014e565b811461016a575f80fd5b50565b5f8135905061017b81610157565b92915050565b5f602082840312156101965761019561014a565b5b5f6101a38482850161016d565b91505092915050565b6101b58161014e565b82525050565b5f6020820190506101ce5f8301846101ac565b9291505056fea26469706673582212200430885f96957a4cdc6eb587d7b6bc8defa25eeb648534cf8327f2f75e1e390464736f6c634300081a0033",
					"opcodes": "PUSH1 0x80 PUSH1 0x40 MSTORE CALLVALUE DUP1 ISZERO PUSH1 0xE JUMPI PUSH0 DUP1 REVERT JUMPDEST POP PUSH2 0x20A DUP1 PUSH2 0x1C PUSH0 CODECOPY PUSH0 RETURN INVALID PUSH1 0x80 PUSH1 0x40 MSTORE CALLVALUE DUP1 ISZERO PUSH2 0xF JUMPI PUSH0 DUP1 REVERT JUMPDEST POP PUSH1 0x4 CALLDATASIZE LT PUSH2 0x4A JUMPI PUSH0 CALLDATALOAD PUSH1 0xE0 SHR DUP1 PUSH4 0x92BF65C0 EQ PUSH2 0x4E JUMPI DUP1 PUSH4 0xA8B053FB EQ PUSH2 0x7E JUMPI DUP1 PUSH4 0xBC07865F EQ PUSH2 0x9A JUMPI DUP1 PUSH4 0xF7A04C87 EQ PUSH2 0xB6 JUMPI JUMPDEST PUSH0 DUP1 REVERT JUMPDEST PUSH2 0x68 PUSH1 0x4 DUP1 CALLDATASIZE SUB DUP2 ADD SWAP1 PUSH2 0x63 SWAP2 SWAP1 PUSH2 0x181 JUMP JUMPDEST PUSH2 0xE6 JUMP JUMPDEST PUSH1 0x40 MLOAD PUSH2 0x75 SWAP2 SWAP1 PUSH2 0x1BB JUMP JUMPDEST PUSH1 0x40 MLOAD DUP1 SWAP2 SUB SWAP1 RETURN JUMPDEST PUSH2 0x98 PUSH1 0x4 DUP1 CALLDATASIZE SUB DUP2 ADD SWAP1 PUSH2 0x93 SWAP2 SWAP1 PUSH2 0x181 JUMP JUMPDEST PUSH2 0x105 JUMP JUMPDEST STOP JUMPDEST PUSH2 0xB4 PUSH1 0x4 DUP1 CALLDATASIZE SUB DUP2 ADD SWAP1 PUSH2 0xAF SWAP2 SWAP1 PUSH2 0x181 JUMP JUMPDEST PUSH2 0x108 JUMP JUMPDEST STOP JUMPDEST PUSH2 0xD0 PUSH1 0x4 DUP1 CALLDATASIZE SUB DUP2 ADD SWAP1 PUSH2 0xCB SWAP2 SWAP1 PUSH2 0x181 JUMP JUMPDEST PUSH2 0x131 JUMP JUMPDEST PUSH1 0x40 MLOAD PUSH2 0xDD SWAP2 SWAP1 PUSH2 0x1BB JUMP JUMPDEST PUSH1 0x40 MLOAD DUP1 SWAP2 SUB SWAP1 RETURN JUMPDEST PUSH0 DUP2 DUP2 SLOAD DUP2 LT PUSH2 0xF4 JUMPI PUSH0 DUP1 REVERT JUMPDEST SWAP1 PUSH0 MSTORE PUSH1 0x20 PUSH0 KECCAK256 ADD PUSH0 SWAP2 POP SWAP1 POP SLOAD DUP2 JUMP JUMPDEST POP JUMP JUMPDEST PUSH1 0x20 PUSH0 ADD PUSH0 JUMPDEST DUP3 DUP2 LT ISZERO PUSH2 0x12C JUMPI PUSH1 0x1 DUP2 ADD PUSH1 0x20 DUP3 MUL DUP4 ADD MSTORE PUSH1 0x1 DUP2 ADD SWAP1 POP PUSH2 0x10E JUMP JUMPDEST POP POP POP JUMP JUMPDEST PUSH1 0x1 DUP2 PUSH1 0x4 DUP2 LT PUSH2 0x140 JUMPI PUSH0 DUP1 REVERT JUMPDEST ADD PUSH0 SWAP2 POP SWAP1 POP SLOAD DUP2 JUMP JUMPDEST PUSH0 DUP1 REVERT JUMPDEST PUSH0 DUP2 SWAP1 POP SWAP2 SWAP1 POP JUMP JUMPDEST PUSH2 0x160 DUP2 PUSH2 0x14E JUMP JUMPDEST DUP2 EQ PUSH2 0x16A JUMPI PUSH0 DUP1 REVERT JUMPDEST POP JUMP JUMPDEST PUSH0 DUP2 CALLDATALOAD SWAP1 POP PUSH2 0x17B DUP2 PUSH2 0x157 JUMP JUMPDEST SWAP3 SWAP2 POP POP JUMP JUMPDEST PUSH0 PUSH1 0x20 DUP3 DUP5 SUB SLT ISZERO PUSH2 0x196 JUMPI PUSH2 0x195 PUSH2 0x14A JUMP JUMPDEST JUMPDEST PUSH0 PUSH2 0x1A3 DUP5 DUP3 DUP6 ADD PUSH2 0x16D JUMP JUMPDEST SWAP2 POP POP SWAP3 SWAP2 POP POP JUMP JUMPDEST PUSH2 0x1B5 DUP2 PUSH2 0x14E JUMP JUMPDEST DUP3 MSTORE POP POP JUMP JUMPDEST PUSH0 PUSH1 0x20 DUP3 ADD SWAP1 POP PUSH2 0x1CE PUSH0 DUP4 ADD DUP5 PUSH2 0x1AC JUMP JUMPDEST SWAP3 SWAP2 POP POP JUMP INVALID LOG2 PUSH5 0x6970667358 0x22 SLT KECCAK256 DIV ADDRESS DUP9 PUSH0 SWAP7 SWAP6 PUSH27 0x4CDC6EB587D7B6BC8DEFA25EEB648534CF8327F2F75E1E39046473 PUSH16 0x6C634300081A00330000000000000000 "
				},
				"gasEstimates": {
					"creation": {
						"codeDepositCost": "104400",
						"executionCost": "151",
						"totalCost": "104551"
					},
					"external": {
						"_num(uint256)": "infinite",
						"_num2(uint256)": "infinite",
						"pushNum(uint256)": "infinite",
						"pushNum2(uint256)": "401"
					}
				},
				"methodIdentifiers": {
					"_num(uint256)": "92bf65c0",
					"_num2(uint256)": "f7a04c87",
					"pushNum(uint256)": "bc07865f",
					"pushNum2(uint256)": "a8b053fb"
				}
			},
			"storageLayout": {
				"storage": [
					{
						"astId": 4,
						"contract": "Coding test/test13.sol:Test13",
						"label": "_num",
						"offset": 0,
						"slot": "0",
						"type": "t_array(t_uint256)dyn_storage"
					},
					{
						"astId": 8,
						"contract": "Coding test/test13.sol:Test13",
						"label": "_num2",
						"offset": 0,
						"slot": "1",
						"type": "t_array(t_uint256)4_storage"
					}
				],
				"types": {
					"t_array(t_uint256)4_storage": {
						"base": "t_uint256",
						"encoding": "inplace",
						"label": "uint256[4]",
						"numberOfBytes": "128"
					},
					"t_array(t_uint256)dyn_storage": {
						"base": "t_uint256",
						"encoding": "dynamic_array",
						"label": "uint256[]",
						"numberOfBytes": "32"
					},
					"t_uint256": {
						"encoding": "inplace",
						"label": "uint256",
						"numberOfBytes": "32"
					}
				}
			},
			"userdoc": {
				"kind": "user",
				"methods": {},
				"version": 1
			}
		}
	}
}