{
	"Coding test/test7.sol": {
		"TEST7": {
			"abi": [
				{
					"inputs": [],
					"name": "Accel",
					"outputs": [],
					"stateMutability": "nonpayable",
					"type": "function"
				},
				{
					"inputs": [],
					"name": "Brake",
					"outputs": [],
					"stateMutability": "nonpayable",
					"type": "function"
				},
				{
					"inputs": [],
					"name": "Refill",
					"outputs": [],
					"stateMutability": "payable",
					"type": "function"
				},
				{
					"inputs": [],
					"name": "TurnOff",
					"outputs": [],
					"stateMutability": "nonpayable",
					"type": "function"
				},
				{
					"inputs": [],
					"name": "TurnOn",
					"outputs": [],
					"stateMutability": "nonpayable",
					"type": "function"
				}
			],
			"devdoc": {
				"kind": "dev",
				"methods": {},
				"version": 1
			},
			"evm": {
				"assembly": "    /* \"Coding test/test7.sol\":76:1771  contract TEST7 {... */\n  mstore(0x40, 0x80)\n    /* \"Coding test/test7.sol\":1116:1119  150 */\n  0x96\n    /* \"Coding test/test7.sol\":1104:1119  uint fuel = 150 */\n  0x01\n  sstore\n    /* \"Coding test/test7.sol\":1139:1140  0 */\n  0x00\n    /* \"Coding test/test7.sol\":1126:1140  uint speed = 0 */\n  0x02\n  sstore\n    /* \"Coding test/test7.sol\":76:1771  contract TEST7 {... */\n  callvalue\n  dup1\n  iszero\n  tag_1\n  jumpi\n  0x00\n  dup1\n  revert\ntag_1:\n  pop\n  dataSize(sub_0)\n  dup1\n  dataOffset(sub_0)\n  0x00\n  codecopy\n  0x00\n  return\nstop\n\nsub_0: assembly {\n        /* \"Coding test/test7.sol\":76:1771  contract TEST7 {... */\n      mstore(0x40, 0x80)\n      jumpi(tag_1, lt(calldatasize, 0x04))\n      shr(0xe0, calldataload(0x00))\n      dup1\n      0x34435025\n      eq\n      tag_2\n      jumpi\n      dup1\n      0x34d65946\n      eq\n      tag_3\n      jumpi\n      dup1\n      0x92005603\n      eq\n      tag_4\n      jumpi\n      dup1\n      0xc37402d2\n      eq\n      tag_5\n      jumpi\n      dup1\n      0xf3ac073a\n      eq\n      tag_6\n      jumpi\n    tag_1:\n      0x00\n      dup1\n      revert\n        /* \"Coding test/test7.sol\":1151:1212  function TurnOn() public {... */\n    tag_2:\n      callvalue\n      dup1\n      iszero\n      tag_7\n      jumpi\n      0x00\n      dup1\n      revert\n    tag_7:\n      pop\n      tag_8\n      tag_9\n      jump\t// in\n    tag_8:\n      stop\n        /* \"Coding test/test7.sol\":1329:1516  function Accel() public {... */\n    tag_3:\n      callvalue\n      dup1\n      iszero\n      tag_10\n      jumpi\n      0x00\n      dup1\n      revert\n    tag_10:\n      pop\n      tag_11\n      tag_12\n      jump\t// in\n    tag_11:\n      stop\n        /* \"Coding test/test7.sol\":1220:1321  function TurnOff() public {... */\n    tag_4:\n      callvalue\n      dup1\n      iszero\n      tag_13\n      jumpi\n      0x00\n      dup1\n      revert\n    tag_13:\n      pop\n      tag_14\n      tag_15\n      jump\t// in\n    tag_14:\n      stop\n        /* \"Coding test/test7.sol\":1673:1766  function Refill() public payable {... */\n    tag_5:\n      tag_16\n      tag_17\n      jump\t// in\n    tag_16:\n      stop\n        /* \"Coding test/test7.sol\":1525:1665  function Brake() public {... */\n    tag_6:\n      callvalue\n      dup1\n      iszero\n      tag_18\n      jumpi\n      0x00\n      dup1\n      revert\n    tag_18:\n      pop\n      tag_19\n      tag_20\n      jump\t// in\n    tag_19:\n      stop\n        /* \"Coding test/test7.sol\":1151:1212  function TurnOn() public {... */\n    tag_9:\n        /* \"Coding test/test7.sol\":1191:1204  Status.TurnOn */\n      0x03\n        /* \"Coding test/test7.sol\":1187:1188  s */\n      0x00\n      dup1\n        /* \"Coding test/test7.sol\":1187:1204  s = Status.TurnOn */\n      0x0100\n      exp\n      dup2\n      sload\n      dup2\n      0xff\n      mul\n      not\n      and\n      swap1\n      dup4\n      0x04\n      dup2\n      gt\n      iszero\n      tag_22\n      jumpi\n      tag_23\n      tag_24\n      jump\t// in\n    tag_23:\n    tag_22:\n      mul\n      or\n      swap1\n      sstore\n      pop\n        /* \"Coding test/test7.sol\":1151:1212  function TurnOn() public {... */\n      jump\t// out\n        /* \"Coding test/test7.sol\":1329:1516  function Accel() public {... */\n    tag_12:\n        /* \"Coding test/test7.sol\":1379:1381  30 */\n      0x1e\n        /* \"Coding test/test7.sol\":1372:1376  fuel */\n      sload(0x01)\n        /* \"Coding test/test7.sol\":1372:1381  fuel > 30 */\n      gt\n        /* \"Coding test/test7.sol\":1364:1390  require(fuel > 30, \"Nope\") */\n      tag_26\n      jumpi\n      mload(0x40)\n      0x08c379a000000000000000000000000000000000000000000000000000000000\n      dup2\n      mstore\n      0x04\n      add\n      tag_27\n      swap1\n      tag_28\n      jump\t// in\n    tag_27:\n      mload(0x40)\n      dup1\n      swap2\n      sub\n      swap1\n      revert\n    tag_26:\n        /* \"Coding test/test7.sol\":1417:1419  70 */\n      0x46\n        /* \"Coding test/test7.sol\":1409:1414  speed */\n      sload(0x02)\n        /* \"Coding test/test7.sol\":1409:1419  speed < 70 */\n      lt\n        /* \"Coding test/test7.sol\":1401:1428  require(speed < 70, \"Nope\") */\n      tag_29\n      jumpi\n      mload(0x40)\n      0x08c379a000000000000000000000000000000000000000000000000000000000\n      dup2\n      mstore\n      0x04\n      add\n      tag_30\n      swap1\n      tag_28\n      jump\t// in\n    tag_30:\n      mload(0x40)\n      dup1\n      swap2\n      sub\n      swap1\n      revert\n    tag_29:\n        /* \"Coding test/test7.sol\":1443:1455  Status.Accel */\n      0x00\n        /* \"Coding test/test7.sol\":1439:1440  s */\n      dup1\n      0x00\n        /* \"Coding test/test7.sol\":1439:1455  s = Status.Accel */\n      0x0100\n      exp\n      dup2\n      sload\n      dup2\n      0xff\n      mul\n      not\n      and\n      swap1\n      dup4\n      0x04\n      dup2\n      gt\n      iszero\n      tag_31\n      jumpi\n      tag_32\n      tag_24\n      jump\t// in\n    tag_32:\n    tag_31:\n      mul\n      or\n      swap1\n      sstore\n      pop\n        /* \"Coding test/test7.sol\":1474:1476  20 */\n      0x14\n        /* \"Coding test/test7.sol\":1466:1470  fuel */\n      0x01\n      0x00\n        /* \"Coding test/test7.sol\":1466:1476  fuel -= 20 */\n      dup3\n      dup3\n      sload\n      tag_33\n      swap2\n      swap1\n      tag_34\n      jump\t// in\n    tag_33:\n      swap3\n      pop\n      pop\n      dup2\n      swap1\n      sstore\n      pop\n        /* \"Coding test/test7.sol\":1496:1498  10 */\n      0x0a\n        /* \"Coding test/test7.sol\":1487:1492  speed */\n      0x02\n      0x00\n        /* \"Coding test/test7.sol\":1487:1498  speed += 10 */\n      dup3\n      dup3\n      sload\n      tag_35\n      swap2\n      swap1\n      tag_36\n      jump\t// in\n    tag_35:\n      swap3\n      pop\n      pop\n      dup2\n      swap1\n      sstore\n      pop\n        /* \"Coding test/test7.sol\":1329:1516  function Accel() public {... */\n      jump\t// out\n        /* \"Coding test/test7.sol\":1220:1321  function TurnOff() public {... */\n    tag_15:\n        /* \"Coding test/test7.sol\":1274:1275  0 */\n      0x00\n        /* \"Coding test/test7.sol\":1265:1270  speed */\n      sload(0x02)\n        /* \"Coding test/test7.sol\":1265:1275  speed == 0 */\n      eq\n        /* \"Coding test/test7.sol\":1257:1284  require(speed == 0, \"Nope\") */\n      tag_38\n      jumpi\n      mload(0x40)\n      0x08c379a000000000000000000000000000000000000000000000000000000000\n      dup2\n      mstore\n      0x04\n      add\n      tag_39\n      swap1\n      tag_28\n      jump\t// in\n    tag_39:\n      mload(0x40)\n      dup1\n      swap2\n      sub\n      swap1\n      revert\n    tag_38:\n        /* \"Coding test/test7.sol\":1299:1313  Status.TurnOff */\n      0x04\n        /* \"Coding test/test7.sol\":1295:1296  s */\n      0x00\n      dup1\n        /* \"Coding test/test7.sol\":1295:1313  s = Status.TurnOff */\n      0x0100\n      exp\n      dup2\n      sload\n      dup2\n      0xff\n      mul\n      not\n      and\n      swap1\n      dup4\n      0x04\n      dup2\n      gt\n      iszero\n      tag_40\n      jumpi\n      tag_41\n      tag_24\n      jump\t// in\n    tag_41:\n    tag_40:\n      mul\n      or\n      swap1\n      sstore\n      pop\n        /* \"Coding test/test7.sol\":1220:1321  function TurnOff() public {... */\n      jump\t// out\n        /* \"Coding test/test7.sol\":1673:1766  function Refill() public payable {... */\n    tag_17:\n        /* \"Coding test/test7.sol\":1722:1735  Status.Refill */\n      0x01\n        /* \"Coding test/test7.sol\":1718:1719  s */\n      0x00\n      dup1\n        /* \"Coding test/test7.sol\":1718:1735  s = Status.Refill */\n      0x0100\n      exp\n      dup2\n      sload\n      dup2\n      0xff\n      mul\n      not\n      and\n      swap1\n      dup4\n      0x04\n      dup2\n      gt\n      iszero\n      tag_43\n      jumpi\n      tag_44\n      tag_24\n      jump\t// in\n    tag_44:\n    tag_43:\n      mul\n      or\n      swap1\n      sstore\n      pop\n        /* \"Coding test/test7.sol\":1753:1756  100 */\n      0x64\n        /* \"Coding test/test7.sol\":1745:1749  fuel */\n      0x01\n      0x00\n        /* \"Coding test/test7.sol\":1745:1756  fuel += 100 */\n      dup3\n      dup3\n      sload\n      tag_45\n      swap2\n      swap1\n      tag_36\n      jump\t// in\n    tag_45:\n      swap3\n      pop\n      pop\n      dup2\n      swap1\n      sstore\n      pop\n        /* \"Coding test/test7.sol\":1673:1766  function Refill() public payable {... */\n      jump\t// out\n        /* \"Coding test/test7.sol\":1525:1665  function Brake() public {... */\n    tag_20:\n        /* \"Coding test/test7.sol\":1577:1578  0 */\n      0x00\n        /* \"Coding test/test7.sol\":1568:1573  speed */\n      sload(0x02)\n        /* \"Coding test/test7.sol\":1568:1578  speed != 0 */\n      sub\n        /* \"Coding test/test7.sol\":1560:1587  require(speed != 0, \"Nope\") */\n      tag_47\n      jumpi\n      mload(0x40)\n      0x08c379a000000000000000000000000000000000000000000000000000000000\n      dup2\n      mstore\n      0x04\n      add\n      tag_48\n      swap1\n      tag_28\n      jump\t// in\n    tag_48:\n      mload(0x40)\n      dup1\n      swap2\n      sub\n      swap1\n      revert\n    tag_47:\n        /* \"Coding test/test7.sol\":1602:1614  Status.Brake */\n      0x02\n        /* \"Coding test/test7.sol\":1598:1599  s */\n      0x00\n      dup1\n        /* \"Coding test/test7.sol\":1598:1614  s = Status.Brake */\n      0x0100\n      exp\n      dup2\n      sload\n      dup2\n      0xff\n      mul\n      not\n      and\n      swap1\n      dup4\n      0x04\n      dup2\n      gt\n      iszero\n      tag_49\n      jumpi\n      tag_50\n      tag_24\n      jump\t// in\n    tag_50:\n    tag_49:\n      mul\n      or\n      swap1\n      sstore\n      pop\n        /* \"Coding test/test7.sol\":1633:1635  10 */\n      0x0a\n        /* \"Coding test/test7.sol\":1625:1629  fuel */\n      0x01\n      0x00\n        /* \"Coding test/test7.sol\":1625:1635  fuel -= 10 */\n      dup3\n      dup3\n      sload\n      tag_51\n      swap2\n      swap1\n      tag_34\n      jump\t// in\n    tag_51:\n      swap3\n      pop\n      pop\n      dup2\n      swap1\n      sstore\n      pop\n        /* \"Coding test/test7.sol\":1655:1657  10 */\n      0x0a\n        /* \"Coding test/test7.sol\":1646:1651  speed */\n      0x02\n      0x00\n        /* \"Coding test/test7.sol\":1646:1657  speed -= 10 */\n      dup3\n      dup3\n      sload\n      tag_52\n      swap2\n      swap1\n      tag_34\n      jump\t// in\n    tag_52:\n      swap3\n      pop\n      pop\n      dup2\n      swap1\n      sstore\n      pop\n        /* \"Coding test/test7.sol\":1525:1665  function Brake() public {... */\n      jump\t// out\n        /* \"#utility.yul\":7:187   */\n    tag_24:\n        /* \"#utility.yul\":55:132   */\n      0x4e487b7100000000000000000000000000000000000000000000000000000000\n        /* \"#utility.yul\":52:53   */\n      0x00\n        /* \"#utility.yul\":45:133   */\n      mstore\n        /* \"#utility.yul\":152:156   */\n      0x21\n        /* \"#utility.yul\":149:150   */\n      0x04\n        /* \"#utility.yul\":142:157   */\n      mstore\n        /* \"#utility.yul\":176:180   */\n      0x24\n        /* \"#utility.yul\":173:174   */\n      0x00\n        /* \"#utility.yul\":166:181   */\n      revert\n        /* \"#utility.yul\":193:362   */\n    tag_53:\n        /* \"#utility.yul\":277:288   */\n      0x00\n        /* \"#utility.yul\":311:317   */\n      dup3\n        /* \"#utility.yul\":306:309   */\n      dup3\n        /* \"#utility.yul\":299:318   */\n      mstore\n        /* \"#utility.yul\":351:355   */\n      0x20\n        /* \"#utility.yul\":346:349   */\n      dup3\n        /* \"#utility.yul\":342:356   */\n      add\n        /* \"#utility.yul\":327:356   */\n      swap1\n      pop\n        /* \"#utility.yul\":193:362   */\n      swap3\n      swap2\n      pop\n      pop\n      jump\t// out\n        /* \"#utility.yul\":368:522   */\n    tag_54:\n        /* \"#utility.yul\":508:514   */\n      0x4e6f706500000000000000000000000000000000000000000000000000000000\n        /* \"#utility.yul\":504:505   */\n      0x00\n        /* \"#utility.yul\":496:502   */\n      dup3\n        /* \"#utility.yul\":492:506   */\n      add\n        /* \"#utility.yul\":485:515   */\n      mstore\n        /* \"#utility.yul\":368:522   */\n      pop\n      jump\t// out\n        /* \"#utility.yul\":528:893   */\n    tag_55:\n        /* \"#utility.yul\":670:673   */\n      0x00\n        /* \"#utility.yul\":691:757   */\n      tag_63\n        /* \"#utility.yul\":755:756   */\n      0x04\n        /* \"#utility.yul\":750:753   */\n      dup4\n        /* \"#utility.yul\":691:757   */\n      tag_53\n      jump\t// in\n    tag_63:\n        /* \"#utility.yul\":684:757   */\n      swap2\n      pop\n        /* \"#utility.yul\":766:859   */\n      tag_64\n        /* \"#utility.yul\":855:858   */\n      dup3\n        /* \"#utility.yul\":766:859   */\n      tag_54\n      jump\t// in\n    tag_64:\n        /* \"#utility.yul\":884:886   */\n      0x20\n        /* \"#utility.yul\":879:882   */\n      dup3\n        /* \"#utility.yul\":875:887   */\n      add\n        /* \"#utility.yul\":868:887   */\n      swap1\n      pop\n        /* \"#utility.yul\":528:893   */\n      swap2\n      swap1\n      pop\n      jump\t// out\n        /* \"#utility.yul\":899:1318   */\n    tag_28:\n        /* \"#utility.yul\":1065:1069   */\n      0x00\n        /* \"#utility.yul\":1103:1105   */\n      0x20\n        /* \"#utility.yul\":1092:1101   */\n      dup3\n        /* \"#utility.yul\":1088:1106   */\n      add\n        /* \"#utility.yul\":1080:1106   */\n      swap1\n      pop\n        /* \"#utility.yul\":1152:1161   */\n      dup2\n        /* \"#utility.yul\":1146:1150   */\n      dup2\n        /* \"#utility.yul\":1142:1162   */\n      sub\n        /* \"#utility.yul\":1138:1139   */\n      0x00\n        /* \"#utility.yul\":1127:1136   */\n      dup4\n        /* \"#utility.yul\":1123:1140   */\n      add\n        /* \"#utility.yul\":1116:1163   */\n      mstore\n        /* \"#utility.yul\":1180:1311   */\n      tag_66\n        /* \"#utility.yul\":1306:1310   */\n      dup2\n        /* \"#utility.yul\":1180:1311   */\n      tag_55\n      jump\t// in\n    tag_66:\n        /* \"#utility.yul\":1172:1311   */\n      swap1\n      pop\n        /* \"#utility.yul\":899:1318   */\n      swap2\n      swap1\n      pop\n      jump\t// out\n        /* \"#utility.yul\":1324:1401   */\n    tag_56:\n        /* \"#utility.yul\":1361:1368   */\n      0x00\n        /* \"#utility.yul\":1390:1395   */\n      dup2\n        /* \"#utility.yul\":1379:1395   */\n      swap1\n      pop\n        /* \"#utility.yul\":1324:1401   */\n      swap2\n      swap1\n      pop\n      jump\t// out\n        /* \"#utility.yul\":1407:1587   */\n    tag_57:\n        /* \"#utility.yul\":1455:1532   */\n      0x4e487b7100000000000000000000000000000000000000000000000000000000\n        /* \"#utility.yul\":1452:1453   */\n      0x00\n        /* \"#utility.yul\":1445:1533   */\n      mstore\n        /* \"#utility.yul\":1552:1556   */\n      0x11\n        /* \"#utility.yul\":1549:1550   */\n      0x04\n        /* \"#utility.yul\":1542:1557   */\n      mstore\n        /* \"#utility.yul\":1576:1580   */\n      0x24\n        /* \"#utility.yul\":1573:1574   */\n      0x00\n        /* \"#utility.yul\":1566:1581   */\n      revert\n        /* \"#utility.yul\":1593:1787   */\n    tag_34:\n        /* \"#utility.yul\":1633:1637   */\n      0x00\n        /* \"#utility.yul\":1653:1673   */\n      tag_70\n        /* \"#utility.yul\":1671:1672   */\n      dup3\n        /* \"#utility.yul\":1653:1673   */\n      tag_56\n      jump\t// in\n    tag_70:\n        /* \"#utility.yul\":1648:1673   */\n      swap2\n      pop\n        /* \"#utility.yul\":1687:1707   */\n      tag_71\n        /* \"#utility.yul\":1705:1706   */\n      dup4\n        /* \"#utility.yul\":1687:1707   */\n      tag_56\n      jump\t// in\n    tag_71:\n        /* \"#utility.yul\":1682:1707   */\n      swap3\n      pop\n        /* \"#utility.yul\":1731:1732   */\n      dup3\n        /* \"#utility.yul\":1728:1729   */\n      dup3\n        /* \"#utility.yul\":1724:1733   */\n      sub\n        /* \"#utility.yul\":1716:1733   */\n      swap1\n      pop\n        /* \"#utility.yul\":1755:1756   */\n      dup2\n        /* \"#utility.yul\":1749:1753   */\n      dup2\n        /* \"#utility.yul\":1746:1757   */\n      gt\n        /* \"#utility.yul\":1743:1780   */\n      iszero\n      tag_72\n      jumpi\n        /* \"#utility.yul\":1760:1778   */\n      tag_73\n      tag_57\n      jump\t// in\n    tag_73:\n        /* \"#utility.yul\":1743:1780   */\n    tag_72:\n        /* \"#utility.yul\":1593:1787   */\n      swap3\n      swap2\n      pop\n      pop\n      jump\t// out\n        /* \"#utility.yul\":1793:1984   */\n    tag_36:\n        /* \"#utility.yul\":1833:1836   */\n      0x00\n        /* \"#utility.yul\":1852:1872   */\n      tag_75\n        /* \"#utility.yul\":1870:1871   */\n      dup3\n        /* \"#utility.yul\":1852:1872   */\n      tag_56\n      jump\t// in\n    tag_75:\n        /* \"#utility.yul\":1847:1872   */\n      swap2\n      pop\n        /* \"#utility.yul\":1886:1906   */\n      tag_76\n        /* \"#utility.yul\":1904:1905   */\n      dup4\n        /* \"#utility.yul\":1886:1906   */\n      tag_56\n      jump\t// in\n    tag_76:\n        /* \"#utility.yul\":1881:1906   */\n      swap3\n      pop\n        /* \"#utility.yul\":1929:1930   */\n      dup3\n        /* \"#utility.yul\":1926:1927   */\n      dup3\n        /* \"#utility.yul\":1922:1931   */\n      add\n        /* \"#utility.yul\":1915:1931   */\n      swap1\n      pop\n        /* \"#utility.yul\":1950:1953   */\n      dup1\n        /* \"#utility.yul\":1947:1948   */\n      dup3\n        /* \"#utility.yul\":1944:1954   */\n      gt\n        /* \"#utility.yul\":1941:1977   */\n      iszero\n      tag_77\n      jumpi\n        /* \"#utility.yul\":1957:1975   */\n      tag_78\n      tag_57\n      jump\t// in\n    tag_78:\n        /* \"#utility.yul\":1941:1977   */\n    tag_77:\n        /* \"#utility.yul\":1793:1984   */\n      swap3\n      swap2\n      pop\n      pop\n      jump\t// out\n\n    auxdata: 0xa2646970667358221220d3039296dbc2819d17c134bde5c1aff18b94d9a833ae6ea5b4db11f22f9d745f64736f6c634300081a0033\n}\n",
				"bytecode": {
					"linkReferences": {},
					"object": "608060405260966001555f6002553480156017575f80fd5b5061048b806100255f395ff3fe608060405260043610610049575f3560e01c8063344350251461004d57806334d65946146100635780639200560314610079578063c37402d21461008f578063f3ac073a14610099575b5f80fd5b348015610058575f80fd5b506100616100af565b005b34801561006e575f80fd5b506100776100da565b005b348015610084575f80fd5b5061008d6101c0565b005b61009761022f565b005b3480156100a4575f80fd5b506100ad610273565b005b60035f806101000a81548160ff021916908360048111156100d3576100d2610314565b5b0217905550565b601e6001541161011f576040517f08c379a00000000000000000000000000000000000000000000000000000000081526004016101169061039b565b60405180910390fd5b604660025410610164576040517f08c379a000000000000000000000000000000000000000000000000000000000815260040161015b9061039b565b60405180910390fd5b5f805f6101000a81548160ff0219169083600481111561018757610186610314565b5b0217905550601460015f82825461019e91906103ef565b92505081905550600a60025f8282546101b79190610422565b92505081905550565b5f60025414610204576040517f08c379a00000000000000000000000000000000000000000000000000000000081526004016101fb9061039b565b60405180910390fd5b60045f806101000a81548160ff0219169083600481111561022857610227610314565b5b0217905550565b60015f806101000a81548160ff0219169083600481111561025357610252610314565b5b0217905550606460015f82825461026a9190610422565b92505081905550565b5f600254036102b7576040517f08c379a00000000000000000000000000000000000000000000000000000000081526004016102ae9061039b565b60405180910390fd5b60025f806101000a81548160ff021916908360048111156102db576102da610314565b5b0217905550600a60015f8282546102f291906103ef565b92505081905550600a60025f82825461030b91906103ef565b92505081905550565b7f4e487b71000000000000000000000000000000000000000000000000000000005f52602160045260245ffd5b5f82825260208201905092915050565b7f4e6f7065000000000000000000000000000000000000000000000000000000005f82015250565b5f610385600483610341565b915061039082610351565b602082019050919050565b5f6020820190508181035f8301526103b281610379565b9050919050565b5f819050919050565b7f4e487b71000000000000000000000000000000000000000000000000000000005f52601160045260245ffd5b5f6103f9826103b9565b9150610404836103b9565b925082820390508181111561041c5761041b6103c2565b5b92915050565b5f61042c826103b9565b9150610437836103b9565b925082820190508082111561044f5761044e6103c2565b5b9291505056fea2646970667358221220d3039296dbc2819d17c134bde5c1aff18b94d9a833ae6ea5b4db11f22f9d745f64736f6c634300081a0033",
					"opcodes": "PUSH1 0x80 PUSH1 0x40 MSTORE PUSH1 0x96 PUSH1 0x1 SSTORE PUSH0 PUSH1 0x2 SSTORE CALLVALUE DUP1 ISZERO PUSH1 0x17 JUMPI PUSH0 DUP1 REVERT JUMPDEST POP PUSH2 0x48B DUP1 PUSH2 0x25 PUSH0 CODECOPY PUSH0 RETURN INVALID PUSH1 0x80 PUSH1 0x40 MSTORE PUSH1 0x4 CALLDATASIZE LT PUSH2 0x49 JUMPI PUSH0 CALLDATALOAD PUSH1 0xE0 SHR DUP1 PUSH4 0x34435025 EQ PUSH2 0x4D JUMPI DUP1 PUSH4 0x34D65946 EQ PUSH2 0x63 JUMPI DUP1 PUSH4 0x92005603 EQ PUSH2 0x79 JUMPI DUP1 PUSH4 0xC37402D2 EQ PUSH2 0x8F JUMPI DUP1 PUSH4 0xF3AC073A EQ PUSH2 0x99 JUMPI JUMPDEST PUSH0 DUP1 REVERT JUMPDEST CALLVALUE DUP1 ISZERO PUSH2 0x58 JUMPI PUSH0 DUP1 REVERT JUMPDEST POP PUSH2 0x61 PUSH2 0xAF JUMP JUMPDEST STOP JUMPDEST CALLVALUE DUP1 ISZERO PUSH2 0x6E JUMPI PUSH0 DUP1 REVERT JUMPDEST POP PUSH2 0x77 PUSH2 0xDA JUMP JUMPDEST STOP JUMPDEST CALLVALUE DUP1 ISZERO PUSH2 0x84 JUMPI PUSH0 DUP1 REVERT JUMPDEST POP PUSH2 0x8D PUSH2 0x1C0 JUMP JUMPDEST STOP JUMPDEST PUSH2 0x97 PUSH2 0x22F JUMP JUMPDEST STOP JUMPDEST CALLVALUE DUP1 ISZERO PUSH2 0xA4 JUMPI PUSH0 DUP1 REVERT JUMPDEST POP PUSH2 0xAD PUSH2 0x273 JUMP JUMPDEST STOP JUMPDEST PUSH1 0x3 PUSH0 DUP1 PUSH2 0x100 EXP DUP2 SLOAD DUP2 PUSH1 0xFF MUL NOT AND SWAP1 DUP4 PUSH1 0x4 DUP2 GT ISZERO PUSH2 0xD3 JUMPI PUSH2 0xD2 PUSH2 0x314 JUMP JUMPDEST JUMPDEST MUL OR SWAP1 SSTORE POP JUMP JUMPDEST PUSH1 0x1E PUSH1 0x1 SLOAD GT PUSH2 0x11F JUMPI PUSH1 0x40 MLOAD PUSH32 0x8C379A000000000000000000000000000000000000000000000000000000000 DUP2 MSTORE PUSH1 0x4 ADD PUSH2 0x116 SWAP1 PUSH2 0x39B JUMP JUMPDEST PUSH1 0x40 MLOAD DUP1 SWAP2 SUB SWAP1 REVERT JUMPDEST PUSH1 0x46 PUSH1 0x2 SLOAD LT PUSH2 0x164 JUMPI PUSH1 0x40 MLOAD PUSH32 0x8C379A000000000000000000000000000000000000000000000000000000000 DUP2 MSTORE PUSH1 0x4 ADD PUSH2 0x15B SWAP1 PUSH2 0x39B JUMP JUMPDEST PUSH1 0x40 MLOAD DUP1 SWAP2 SUB SWAP1 REVERT JUMPDEST PUSH0 DUP1 PUSH0 PUSH2 0x100 EXP DUP2 SLOAD DUP2 PUSH1 0xFF MUL NOT AND SWAP1 DUP4 PUSH1 0x4 DUP2 GT ISZERO PUSH2 0x187 JUMPI PUSH2 0x186 PUSH2 0x314 JUMP JUMPDEST JUMPDEST MUL OR SWAP1 SSTORE POP PUSH1 0x14 PUSH1 0x1 PUSH0 DUP3 DUP3 SLOAD PUSH2 0x19E SWAP2 SWAP1 PUSH2 0x3EF JUMP JUMPDEST SWAP3 POP POP DUP2 SWAP1 SSTORE POP PUSH1 0xA PUSH1 0x2 PUSH0 DUP3 DUP3 SLOAD PUSH2 0x1B7 SWAP2 SWAP1 PUSH2 0x422 JUMP JUMPDEST SWAP3 POP POP DUP2 SWAP1 SSTORE POP JUMP JUMPDEST PUSH0 PUSH1 0x2 SLOAD EQ PUSH2 0x204 JUMPI PUSH1 0x40 MLOAD PUSH32 0x8C379A000000000000000000000000000000000000000000000000000000000 DUP2 MSTORE PUSH1 0x4 ADD PUSH2 0x1FB SWAP1 PUSH2 0x39B JUMP JUMPDEST PUSH1 0x40 MLOAD DUP1 SWAP2 SUB SWAP1 REVERT JUMPDEST PUSH1 0x4 PUSH0 DUP1 PUSH2 0x100 EXP DUP2 SLOAD DUP2 PUSH1 0xFF MUL NOT AND SWAP1 DUP4 PUSH1 0x4 DUP2 GT ISZERO PUSH2 0x228 JUMPI PUSH2 0x227 PUSH2 0x314 JUMP JUMPDEST JUMPDEST MUL OR SWAP1 SSTORE POP JUMP JUMPDEST PUSH1 0x1 PUSH0 DUP1 PUSH2 0x100 EXP DUP2 SLOAD DUP2 PUSH1 0xFF MUL NOT AND SWAP1 DUP4 PUSH1 0x4 DUP2 GT ISZERO PUSH2 0x253 JUMPI PUSH2 0x252 PUSH2 0x314 JUMP JUMPDEST JUMPDEST MUL OR SWAP1 SSTORE POP PUSH1 0x64 PUSH1 0x1 PUSH0 DUP3 DUP3 SLOAD PUSH2 0x26A SWAP2 SWAP1 PUSH2 0x422 JUMP JUMPDEST SWAP3 POP POP DUP2 SWAP1 SSTORE POP JUMP JUMPDEST PUSH0 PUSH1 0x2 SLOAD SUB PUSH2 0x2B7 JUMPI PUSH1 0x40 MLOAD PUSH32 0x8C379A000000000000000000000000000000000000000000000000000000000 DUP2 MSTORE PUSH1 0x4 ADD PUSH2 0x2AE SWAP1 PUSH2 0x39B JUMP JUMPDEST PUSH1 0x40 MLOAD DUP1 SWAP2 SUB SWAP1 REVERT JUMPDEST PUSH1 0x2 PUSH0 DUP1 PUSH2 0x100 EXP DUP2 SLOAD DUP2 PUSH1 0xFF MUL NOT AND SWAP1 DUP4 PUSH1 0x4 DUP2 GT ISZERO PUSH2 0x2DB JUMPI PUSH2 0x2DA PUSH2 0x314 JUMP JUMPDEST JUMPDEST MUL OR SWAP1 SSTORE POP PUSH1 0xA PUSH1 0x1 PUSH0 DUP3 DUP3 SLOAD PUSH2 0x2F2 SWAP2 SWAP1 PUSH2 0x3EF JUMP JUMPDEST SWAP3 POP POP DUP2 SWAP1 SSTORE POP PUSH1 0xA PUSH1 0x2 PUSH0 DUP3 DUP3 SLOAD PUSH2 0x30B SWAP2 SWAP1 PUSH2 0x3EF JUMP JUMPDEST SWAP3 POP POP DUP2 SWAP1 SSTORE POP JUMP JUMPDEST PUSH32 0x4E487B7100000000000000000000000000000000000000000000000000000000 PUSH0 MSTORE PUSH1 0x21 PUSH1 0x4 MSTORE PUSH1 0x24 PUSH0 REVERT JUMPDEST PUSH0 DUP3 DUP3 MSTORE PUSH1 0x20 DUP3 ADD SWAP1 POP SWAP3 SWAP2 POP POP JUMP JUMPDEST PUSH32 0x4E6F706500000000000000000000000000000000000000000000000000000000 PUSH0 DUP3 ADD MSTORE POP JUMP JUMPDEST PUSH0 PUSH2 0x385 PUSH1 0x4 DUP4 PUSH2 0x341 JUMP JUMPDEST SWAP2 POP PUSH2 0x390 DUP3 PUSH2 0x351 JUMP JUMPDEST PUSH1 0x20 DUP3 ADD SWAP1 POP SWAP2 SWAP1 POP JUMP JUMPDEST PUSH0 PUSH1 0x20 DUP3 ADD SWAP1 POP DUP2 DUP2 SUB PUSH0 DUP4 ADD MSTORE PUSH2 0x3B2 DUP2 PUSH2 0x379 JUMP JUMPDEST SWAP1 POP SWAP2 SWAP1 POP JUMP JUMPDEST PUSH0 DUP2 SWAP1 POP SWAP2 SWAP1 POP JUMP JUMPDEST PUSH32 0x4E487B7100000000000000000000000000000000000000000000000000000000 PUSH0 MSTORE PUSH1 0x11 PUSH1 0x4 MSTORE PUSH1 0x24 PUSH0 REVERT JUMPDEST PUSH0 PUSH2 0x3F9 DUP3 PUSH2 0x3B9 JUMP JUMPDEST SWAP2 POP PUSH2 0x404 DUP4 PUSH2 0x3B9 JUMP JUMPDEST SWAP3 POP DUP3 DUP3 SUB SWAP1 POP DUP2 DUP2 GT ISZERO PUSH2 0x41C JUMPI PUSH2 0x41B PUSH2 0x3C2 JUMP JUMPDEST JUMPDEST SWAP3 SWAP2 POP POP JUMP JUMPDEST PUSH0 PUSH2 0x42C DUP3 PUSH2 0x3B9 JUMP JUMPDEST SWAP2 POP PUSH2 0x437 DUP4 PUSH2 0x3B9 JUMP JUMPDEST SWAP3 POP DUP3 DUP3 ADD SWAP1 POP DUP1 DUP3 GT ISZERO PUSH2 0x44F JUMPI PUSH2 0x44E PUSH2 0x3C2 JUMP JUMPDEST JUMPDEST SWAP3 SWAP2 POP POP JUMP INVALID LOG2 PUSH5 0x6970667358 0x22 SLT KECCAK256 0xD3 SUB SWAP3 SWAP7 0xDB 0xC2 DUP2 SWAP14 OR 0xC1 CALLVALUE 0xBD 0xE5 0xC1 0xAF CALL DUP12 SWAP5 0xD9 0xA8 CALLER 0xAE PUSH15 0xA5B4DB11F22F9D745F64736F6C6343 STOP ADDMOD BYTE STOP CALLER "
				},
				"gasEstimates": {
					"creation": {
						"codeDepositCost": "232600",
						"executionCost": "27384",
						"totalCost": "259984"
					},
					"external": {
						"Accel()": "infinite",
						"Brake()": "infinite",
						"Refill()": "infinite",
						"TurnOff()": "26573",
						"TurnOn()": "24407"
					}
				},
				"methodIdentifiers": {
					"Accel()": "34d65946",
					"Brake()": "f3ac073a",
					"Refill()": "c37402d2",
					"TurnOff()": "92005603",
					"TurnOn()": "34435025"
				}
			},
			"storageLayout": {
				"storage": [
					{
						"astId": 10,
						"contract": "Coding test/test7.sol:TEST7",
						"label": "s",
						"offset": 0,
						"slot": "0",
						"type": "t_enum(Status)7"
					},
					{
						"astId": 13,
						"contract": "Coding test/test7.sol:TEST7",
						"label": "fuel",
						"offset": 0,
						"slot": "1",
						"type": "t_uint256"
					},
					{
						"astId": 16,
						"contract": "Coding test/test7.sol:TEST7",
						"label": "speed",
						"offset": 0,
						"slot": "2",
						"type": "t_uint256"
					}
				],
				"types": {
					"t_enum(Status)7": {
						"encoding": "inplace",
						"label": "enum TEST7.Status",
						"numberOfBytes": "1"
					},
					"t_uint256": {
						"encoding": "inplace",
						"label": "uint256",
						"numberOfBytes": "32"
					}
				}
			},
			"userdoc": {
				"kind": "user",
				"methods": {},
				"version": 1
			}
		}
	}
}