{
	"Coding test/test1.sol": {
		"TEST2": {
			"abi": [
				{
					"inputs": [],
					"name": "Average",
					"outputs": [
						{
							"internalType": "uint256",
							"name": "",
							"type": "uint256"
						}
					],
					"stateMutability": "view",
					"type": "function"
				},
				{
					"inputs": [],
					"name": "GradeF",
					"outputs": [
						{
							"internalType": "uint256",
							"name": "",
							"type": "uint256"
						},
						{
							"components": [
								{
									"internalType": "string",
									"name": "name",
									"type": "string"
								},
								{
									"internalType": "uint256",
									"name": "num",
									"type": "uint256"
								},
								{
									"internalType": "uint256",
									"name": "score",
									"type": "uint256"
								},
								{
									"internalType": "string",
									"name": "grade",
									"type": "string"
								},
								{
									"internalType": "string[]",
									"name": "class",
									"type": "string[]"
								}
							],
							"internalType": "struct TEST2.student[]",
							"name": "",
							"type": "tuple[]"
						}
					],
					"stateMutability": "view",
					"type": "function"
				},
				{
					"inputs": [],
					"name": "getAllStudent",
					"outputs": [
						{
							"components": [
								{
									"internalType": "string",
									"name": "name",
									"type": "string"
								},
								{
									"internalType": "uint256",
									"name": "num",
									"type": "uint256"
								},
								{
									"internalType": "uint256",
									"name": "score",
									"type": "uint256"
								},
								{
									"internalType": "string",
									"name": "grade",
									"type": "string"
								},
								{
									"internalType": "string[]",
									"name": "class",
									"type": "string[]"
								}
							],
							"internalType": "struct TEST2.student[]",
							"name": "",
							"type": "tuple[]"
						}
					],
					"stateMutability": "view",
					"type": "function"
				},
				{
					"inputs": [],
					"name": "getLength",
					"outputs": [
						{
							"internalType": "uint256",
							"name": "",
							"type": "uint256"
						}
					],
					"stateMutability": "view",
					"type": "function"
				},
				{
					"inputs": [
						{
							"internalType": "string",
							"name": "_name",
							"type": "string"
						}
					],
					"name": "getScore",
					"outputs": [
						{
							"internalType": "uint256",
							"name": "",
							"type": "uint256"
						}
					],
					"stateMutability": "view",
					"type": "function"
				},
				{
					"inputs": [
						{
							"internalType": "uint256",
							"name": "i",
							"type": "uint256"
						}
					],
					"name": "getScores",
					"outputs": [
						{
							"internalType": "uint256",
							"name": "",
							"type": "uint256"
						}
					],
					"stateMutability": "view",
					"type": "function"
				},
				{
					"inputs": [
						{
							"internalType": "string",
							"name": "_name",
							"type": "string"
						}
					],
					"name": "getstudentName",
					"outputs": [
						{
							"components": [
								{
									"internalType": "string",
									"name": "name",
									"type": "string"
								},
								{
									"internalType": "uint256",
									"name": "num",
									"type": "uint256"
								},
								{
									"internalType": "uint256",
									"name": "score",
									"type": "uint256"
								},
								{
									"internalType": "string",
									"name": "grade",
									"type": "string"
								},
								{
									"internalType": "string[]",
									"name": "class",
									"type": "string[]"
								}
							],
							"internalType": "struct TEST2.student[]",
							"name": "",
							"type": "tuple[]"
						}
					],
					"stateMutability": "view",
					"type": "function"
				},
				{
					"inputs": [
						{
							"internalType": "uint256",
							"name": "_num",
							"type": "uint256"
						}
					],
					"name": "getstudentNum",
					"outputs": [
						{
							"components": [
								{
									"internalType": "string",
									"name": "name",
									"type": "string"
								},
								{
									"internalType": "uint256",
									"name": "num",
									"type": "uint256"
								},
								{
									"internalType": "uint256",
									"name": "score",
									"type": "uint256"
								},
								{
									"internalType": "string",
									"name": "grade",
									"type": "string"
								},
								{
									"internalType": "string[]",
									"name": "class",
									"type": "string[]"
								}
							],
							"internalType": "struct TEST2.student[]",
							"name": "",
							"type": "tuple[]"
						}
					],
					"stateMutability": "view",
					"type": "function"
				},
				{
					"inputs": [
						{
							"internalType": "string",
							"name": "_name",
							"type": "string"
						},
						{
							"internalType": "uint256",
							"name": "_score",
							"type": "uint256"
						},
						{
							"internalType": "string[]",
							"name": "_class",
							"type": "string[]"
						}
					],
					"name": "pushStudent",
					"outputs": [],
					"stateMutability": "nonpayable",
					"type": "function"
				},
				{
					"inputs": [
						{
							"internalType": "uint256",
							"name": "_score",
							"type": "uint256"
						}
					],
					"name": "setGrade",
					"outputs": [
						{
							"internalType": "string",
							"name": "",
							"type": "string"
						}
					],
					"stateMutability": "pure",
					"type": "function"
				},
				{
					"inputs": [],
					"name": "teach",
					"outputs": [
						{
							"internalType": "bool",
							"name": "",
							"type": "bool"
						}
					],
					"stateMutability": "view",
					"type": "function"
				}
			],
			"devdoc": {
				"kind": "dev",
				"methods": {},
				"version": 1
			},
			"evm": {
				"assembly": "    /* \"Coding test/test1.sol\":76:5019  contract TEST2 {... */\n  mstore(0x40, 0x80)\n  callvalue\n  dup1\n  iszero\n  tag_1\n  jumpi\n  0x00\n  dup1\n  revert\ntag_1:\n  pop\n  dataSize(sub_0)\n  dup1\n  dataOffset(sub_0)\n  0x00\n  codecopy\n  0x00\n  return\nstop\n\nsub_0: assembly {\n        /* \"Coding test/test1.sol\":76:5019  contract TEST2 {... */\n      mstore(0x40, 0x80)\n      callvalue\n      dup1\n      iszero\n      tag_1\n      jumpi\n      0x00\n      dup1\n      revert\n    tag_1:\n      pop\n      jumpi(tag_2, lt(calldatasize, 0x04))\n      shr(0xe0, calldataload(0x00))\n      dup1\n      0x674271cd\n      gt\n      tag_14\n      jumpi\n      dup1\n      0x674271cd\n      eq\n      tag_8\n      jumpi\n      dup1\n      0x74aa6858\n      eq\n      tag_9\n      jumpi\n      dup1\n      0xa24746d8\n      eq\n      tag_10\n      jumpi\n      dup1\n      0xb30039fc\n      eq\n      tag_11\n      jumpi\n      dup1\n      0xb36a31c6\n      eq\n      tag_12\n      jumpi\n      dup1\n      0xbe1c766b\n      eq\n      tag_13\n      jumpi\n      jump(tag_2)\n    tag_14:\n      dup1\n      0x04527d90\n      eq\n      tag_3\n      jumpi\n      dup1\n      0x133d0460\n      eq\n      tag_4\n      jumpi\n      dup1\n      0x16020273\n      eq\n      tag_5\n      jumpi\n      dup1\n      0x1acb1542\n      eq\n      tag_6\n      jumpi\n      dup1\n      0x2eb6045e\n      eq\n      tag_7\n      jumpi\n    tag_2:\n      0x00\n      dup1\n      revert\n        /* \"Coding test/test1.sol\":4164:4261  function getScores(uint i) public view returns(uint) {... */\n    tag_3:\n      tag_15\n      0x04\n      dup1\n      calldatasize\n      sub\n      dup2\n      add\n      swap1\n      tag_16\n      swap2\n      swap1\n      tag_17\n      jump\t// in\n    tag_16:\n      tag_18\n      jump\t// in\n    tag_15:\n      mload(0x40)\n      tag_19\n      swap2\n      swap1\n      tag_20\n      jump\t// in\n    tag_19:\n      mload(0x40)\n      dup1\n      swap2\n      sub\n      swap1\n      return\n        /* \"Coding test/test1.sol\":3957:4054  function getAllStudent() public view returns(student[] memory) {... */\n    tag_4:\n      tag_21\n      tag_22\n      jump\t// in\n    tag_21:\n      mload(0x40)\n      tag_23\n      swap2\n      swap1\n      tag_24\n      jump\t// in\n    tag_23:\n      mload(0x40)\n      dup1\n      swap2\n      sub\n      swap1\n      return\n        /* \"Coding test/test1.sol\":3533:3646  function getScore(string memory _name) public view returns(uint) {... */\n    tag_5:\n      tag_25\n      0x04\n      dup1\n      calldatasize\n      sub\n      dup2\n      add\n      swap1\n      tag_26\n      swap2\n      swap1\n      tag_27\n      jump\t// in\n    tag_26:\n      tag_28\n      jump\t// in\n    tag_25:\n      mload(0x40)\n      tag_29\n      swap2\n      swap1\n      tag_20\n      jump\t// in\n    tag_29:\n      mload(0x40)\n      dup1\n      swap2\n      sub\n      swap1\n      return\n        /* \"Coding test/test1.sol\":3067:3180  function getstudentNum(uint _num) public view returns(student[] memory) {... */\n    tag_6:\n      tag_30\n      0x04\n      dup1\n      calldatasize\n      sub\n      dup2\n      add\n      swap1\n      tag_31\n      swap2\n      swap1\n      tag_17\n      jump\t// in\n    tag_31:\n      tag_32\n      jump\t// in\n    tag_30:\n      mload(0x40)\n      tag_33\n      swap2\n      swap1\n      tag_24\n      jump\t// in\n    tag_33:\n      mload(0x40)\n      dup1\n      swap2\n      sub\n      swap1\n      return\n        /* \"Coding test/test1.sol\":4937:5016  function GradeF() public view returns(uint, student[] memory){... */\n    tag_7:\n      tag_34\n      tag_35\n      jump\t// in\n    tag_34:\n      mload(0x40)\n      tag_36\n      swap3\n      swap2\n      swap1\n      tag_37\n      jump\t// in\n    tag_36:\n      mload(0x40)\n      dup1\n      swap2\n      sub\n      swap1\n      return\n        /* \"Coding test/test1.sol\":2341:2779  function setGrade(uint _score) public pure returns(string memory){... */\n    tag_8:\n      tag_38\n      0x04\n      dup1\n      calldatasize\n      sub\n      dup2\n      add\n      swap1\n      tag_39\n      swap2\n      swap1\n      tag_17\n      jump\t// in\n    tag_39:\n      tag_40\n      jump\t// in\n    tag_38:\n      mload(0x40)\n      tag_41\n      swap2\n      swap1\n      tag_42\n      jump\t// in\n    tag_41:\n      mload(0x40)\n      dup1\n      swap2\n      sub\n      swap1\n      return\n        /* \"Coding test/test1.sol\":2146:2331  function pushStudent(string memory _name, uint _score, string[] memory _class) public {... */\n    tag_9:\n      tag_43\n      0x04\n      dup1\n      calldatasize\n      sub\n      dup2\n      add\n      swap1\n      tag_44\n      swap2\n      swap1\n      tag_45\n      jump\t// in\n    tag_44:\n      tag_46\n      jump\t// in\n    tag_43:\n      stop\n        /* \"Coding test/test1.sol\":3294:3419  function getstudentName(string memory _name) public view returns(student[] memory) {... */\n    tag_10:\n      tag_47\n      0x04\n      dup1\n      calldatasize\n      sub\n      dup2\n      add\n      swap1\n      tag_48\n      swap2\n      swap1\n      tag_27\n      jump\t// in\n    tag_48:\n      tag_49\n      jump\t// in\n    tag_47:\n      mload(0x40)\n      tag_50\n      swap2\n      swap1\n      tag_24\n      jump\t// in\n    tag_50:\n      mload(0x40)\n      dup1\n      swap2\n      sub\n      swap1\n      return\n        /* \"Coding test/test1.sol\":4661:4825  function teach() public view returns(bool){... */\n    tag_11:\n      tag_51\n      tag_52\n      jump\t// in\n    tag_51:\n      mload(0x40)\n      tag_53\n      swap2\n      swap1\n      tag_54\n      jump\t// in\n    tag_53:\n      mload(0x40)\n      dup1\n      swap2\n      sub\n      swap1\n      return\n        /* \"Coding test/test1.sol\":4269:4495  function Average() public view returns(uint) {... */\n    tag_12:\n      tag_55\n      tag_56\n      jump\t// in\n    tag_55:\n      mload(0x40)\n      tag_57\n      swap2\n      swap1\n      tag_20\n      jump\t// in\n    tag_57:\n      mload(0x40)\n      dup1\n      swap2\n      sub\n      swap1\n      return\n        /* \"Coding test/test1.sol\":3765:3853  function getLength() public view returns(uint) {... */\n    tag_13:\n      tag_58\n      tag_59\n      jump\t// in\n    tag_58:\n      mload(0x40)\n      tag_60\n      swap2\n      swap1\n      tag_20\n      jump\t// in\n    tag_60:\n      mload(0x40)\n      dup1\n      swap2\n      sub\n      swap1\n      return\n        /* \"Coding test/test1.sol\":4164:4261  function getScores(uint i) public view returns(uint) {... */\n    tag_18:\n        /* \"Coding test/test1.sol\":4211:4215  uint */\n      0x00\n        /* \"Coding test/test1.sol\":4235:4244  students4 */\n      0x04\n        /* \"Coding test/test1.sol\":4235:4247  students4[i] */\n      0x00\n        /* \"Coding test/test1.sol\":4245:4246  i */\n      dup4\n        /* \"Coding test/test1.sol\":4235:4247  students4[i] */\n      dup2\n      mstore\n      0x20\n      add\n      swap1\n      dup2\n      mstore\n      0x20\n      add\n      0x00\n      keccak256\n        /* \"Coding test/test1.sol\":4235:4253  students4[i].score */\n      0x02\n      add\n      sload\n        /* \"Coding test/test1.sol\":4228:4253  return students4[i].score */\n      swap1\n      pop\n        /* \"Coding test/test1.sol\":4164:4261  function getScores(uint i) public view returns(uint) {... */\n      swap2\n      swap1\n      pop\n      jump\t// out\n        /* \"Coding test/test1.sol\":3957:4054  function getAllStudent() public view returns(student[] memory) {... */\n    tag_22:\n        /* \"Coding test/test1.sol\":4002:4018  student[] memory */\n      0x60\n        /* \"Coding test/test1.sol\":4038:4046  Students */\n      0x00\n        /* \"Coding test/test1.sol\":4031:4046  return Students */\n      dup1\n      sload\n      dup1\n      0x20\n      mul\n      0x20\n      add\n      mload(0x40)\n      swap1\n      dup2\n      add\n      0x40\n      mstore\n      dup1\n      swap3\n      swap2\n      swap1\n      dup2\n      dup2\n      mstore\n      0x20\n      add\n      0x00\n      swap1\n    tag_63:\n      dup3\n      dup3\n      lt\n      iszero\n      tag_64\n      jumpi\n      dup4\n      dup3\n      swap1\n      0x00\n      mstore\n      keccak256(0x00, 0x20)\n      swap1\n      0x05\n      mul\n      add\n      mload(0x40)\n      dup1\n      0xa0\n      add\n      0x40\n      mstore\n      swap1\n      dup2\n      0x00\n      dup3\n      add\n      dup1\n      sload\n      tag_66\n      swap1\n      tag_67\n      jump\t// in\n    tag_66:\n      dup1\n      0x1f\n      add\n      0x20\n      dup1\n      swap2\n      div\n      mul\n      0x20\n      add\n      mload(0x40)\n      swap1\n      dup2\n      add\n      0x40\n      mstore\n      dup1\n      swap3\n      swap2\n      swap1\n      dup2\n      dup2\n      mstore\n      0x20\n      add\n      dup3\n      dup1\n      sload\n      tag_68\n      swap1\n      tag_67\n      jump\t// in\n    tag_68:\n      dup1\n      iszero\n      tag_69\n      jumpi\n      dup1\n      0x1f\n      lt\n      tag_70\n      jumpi\n      0x0100\n      dup1\n      dup4\n      sload\n      div\n      mul\n      dup4\n      mstore\n      swap2\n      0x20\n      add\n      swap2\n      jump(tag_69)\n    tag_70:\n      dup3\n      add\n      swap2\n      swap1\n      0x00\n      mstore\n      keccak256(0x00, 0x20)\n      swap1\n    tag_71:\n      dup2\n      sload\n      dup2\n      mstore\n      swap1\n      0x01\n      add\n      swap1\n      0x20\n      add\n      dup1\n      dup4\n      gt\n      tag_71\n      jumpi\n      dup3\n      swap1\n      sub\n      0x1f\n      and\n      dup3\n      add\n      swap2\n    tag_69:\n      pop\n      pop\n      pop\n      pop\n      pop\n      dup2\n      mstore\n      0x20\n      add\n      0x01\n      dup3\n      add\n      sload\n      dup2\n      mstore\n      0x20\n      add\n      0x02\n      dup3\n      add\n      sload\n      dup2\n      mstore\n      0x20\n      add\n      0x03\n      dup3\n      add\n      dup1\n      sload\n      tag_72\n      swap1\n      tag_67\n      jump\t// in\n    tag_72:\n      dup1\n      0x1f\n      add\n      0x20\n      dup1\n      swap2\n      div\n      mul\n      0x20\n      add\n      mload(0x40)\n      swap1\n      dup2\n      add\n      0x40\n      mstore\n      dup1\n      swap3\n      swap2\n      swap1\n      dup2\n      dup2\n      mstore\n      0x20\n      add\n      dup3\n      dup1\n      sload\n      tag_73\n      swap1\n      tag_67\n      jump\t// in\n    tag_73:\n      dup1\n      iszero\n      tag_74\n      jumpi\n      dup1\n      0x1f\n      lt\n      tag_75\n      jumpi\n      0x0100\n      dup1\n      dup4\n      sload\n      div\n      mul\n      dup4\n      mstore\n      swap2\n      0x20\n      add\n      swap2\n      jump(tag_74)\n    tag_75:\n      dup3\n      add\n      swap2\n      swap1\n      0x00\n      mstore\n      keccak256(0x00, 0x20)\n      swap1\n    tag_76:\n      dup2\n      sload\n      dup2\n      mstore\n      swap1\n      0x01\n      add\n      swap1\n      0x20\n      add\n      dup1\n      dup4\n      gt\n      tag_76\n      jumpi\n      dup3\n      swap1\n      sub\n      0x1f\n      and\n      dup3\n      add\n      swap2\n    tag_74:\n      pop\n      pop\n      pop\n      pop\n      pop\n      dup2\n      mstore\n      0x20\n      add\n      0x04\n      dup3\n      add\n      dup1\n      sload\n      dup1\n      0x20\n      mul\n      0x20\n      add\n      mload(0x40)\n      swap1\n      dup2\n      add\n      0x40\n      mstore\n      dup1\n      swap3\n      swap2\n      swap1\n      dup2\n      dup2\n      mstore\n      0x20\n      add\n      0x00\n      swap1\n    tag_77:\n      dup3\n      dup3\n      lt\n      iszero\n      tag_78\n      jumpi\n      dup4\n      dup3\n      swap1\n      0x00\n      mstore\n      keccak256(0x00, 0x20)\n      add\n      dup1\n      sload\n      tag_80\n      swap1\n      tag_67\n      jump\t// in\n    tag_80:\n      dup1\n      0x1f\n      add\n      0x20\n      dup1\n      swap2\n      div\n      mul\n      0x20\n      add\n      mload(0x40)\n      swap1\n      dup2\n      add\n      0x40\n      mstore\n      dup1\n      swap3\n      swap2\n      swap1\n      dup2\n      dup2\n      mstore\n      0x20\n      add\n      dup3\n      dup1\n      sload\n      tag_81\n      swap1\n      tag_67\n      jump\t// in\n    tag_81:\n      dup1\n      iszero\n      tag_82\n      jumpi\n      dup1\n      0x1f\n      lt\n      tag_83\n      jumpi\n      0x0100\n      dup1\n      dup4\n      sload\n      div\n      mul\n      dup4\n      mstore\n      swap2\n      0x20\n      add\n      swap2\n      jump(tag_82)\n    tag_83:\n      dup3\n      add\n      swap2\n      swap1\n      0x00\n      mstore\n      keccak256(0x00, 0x20)\n      swap1\n    tag_84:\n      dup2\n      sload\n      dup2\n      mstore\n      swap1\n      0x01\n      add\n      swap1\n      0x20\n      add\n      dup1\n      dup4\n      gt\n      tag_84\n      jumpi\n      dup3\n      swap1\n      sub\n      0x1f\n      and\n      dup3\n      add\n      swap2\n    tag_82:\n      pop\n      pop\n      pop\n      pop\n      pop\n      dup2\n      mstore\n      0x20\n      add\n      swap1\n      0x01\n      add\n      swap1\n      jump(tag_77)\n    tag_78:\n      pop\n      pop\n      pop\n      pop\n      dup2\n      mstore\n      pop\n      pop\n      dup2\n      mstore\n      0x20\n      add\n      swap1\n      0x01\n      add\n      swap1\n      jump(tag_63)\n    tag_64:\n      pop\n      pop\n      pop\n      pop\n      swap1\n      pop\n        /* \"Coding test/test1.sol\":3957:4054  function getAllStudent() public view returns(student[] memory) {... */\n      swap1\n      jump\t// out\n        /* \"Coding test/test1.sol\":3533:3646  function getScore(string memory _name) public view returns(uint) {... */\n    tag_28:\n        /* \"Coding test/test1.sol\":3592:3596  uint */\n      0x00\n        /* \"Coding test/test1.sol\":3616:3625  students3 */\n      0x03\n        /* \"Coding test/test1.sol\":3626:3631  _name */\n      dup3\n        /* \"Coding test/test1.sol\":3616:3632  students3[_name] */\n      mload(0x40)\n      tag_86\n      swap2\n      swap1\n      tag_87\n      jump\t// in\n    tag_86:\n      swap1\n      dup2\n      mstore\n      0x20\n      add\n      mload(0x40)\n      dup1\n      swap2\n      sub\n      swap1\n      keccak256\n        /* \"Coding test/test1.sol\":3616:3638  students3[_name].score */\n      0x02\n      add\n      sload\n        /* \"Coding test/test1.sol\":3609:3638  return students3[_name].score */\n      swap1\n      pop\n        /* \"Coding test/test1.sol\":3533:3646  function getScore(string memory _name) public view returns(uint) {... */\n      swap2\n      swap1\n      pop\n      jump\t// out\n        /* \"Coding test/test1.sol\":3067:3180  function getstudentNum(uint _num) public view returns(student[] memory) {... */\n    tag_32:\n        /* \"Coding test/test1.sol\":3121:3137  student[] memory */\n      0x60\n        /* \"Coding test/test1.sol\":3157:3166  students2 */\n      0x02\n        /* \"Coding test/test1.sol\":3157:3172  students2[_num] */\n      0x00\n        /* \"Coding test/test1.sol\":3167:3171  _num */\n      dup4\n        /* \"Coding test/test1.sol\":3157:3172  students2[_num] */\n      dup2\n      mstore\n      0x20\n      add\n      swap1\n      dup2\n      mstore\n      0x20\n      add\n      0x00\n      keccak256\n        /* \"Coding test/test1.sol\":3150:3172  return students2[_num] */\n      dup1\n      sload\n      dup1\n      0x20\n      mul\n      0x20\n      add\n      mload(0x40)\n      swap1\n      dup2\n      add\n      0x40\n      mstore\n      dup1\n      swap3\n      swap2\n      swap1\n      dup2\n      dup2\n      mstore\n      0x20\n      add\n      0x00\n      swap1\n    tag_89:\n      dup3\n      dup3\n      lt\n      iszero\n      tag_90\n      jumpi\n      dup4\n      dup3\n      swap1\n      0x00\n      mstore\n      keccak256(0x00, 0x20)\n      swap1\n      0x05\n      mul\n      add\n      mload(0x40)\n      dup1\n      0xa0\n      add\n      0x40\n      mstore\n      swap1\n      dup2\n      0x00\n      dup3\n      add\n      dup1\n      sload\n      tag_92\n      swap1\n      tag_67\n      jump\t// in\n    tag_92:\n      dup1\n      0x1f\n      add\n      0x20\n      dup1\n      swap2\n      div\n      mul\n      0x20\n      add\n      mload(0x40)\n      swap1\n      dup2\n      add\n      0x40\n      mstore\n      dup1\n      swap3\n      swap2\n      swap1\n      dup2\n      dup2\n      mstore\n      0x20\n      add\n      dup3\n      dup1\n      sload\n      tag_93\n      swap1\n      tag_67\n      jump\t// in\n    tag_93:\n      dup1\n      iszero\n      tag_94\n      jumpi\n      dup1\n      0x1f\n      lt\n      tag_95\n      jumpi\n      0x0100\n      dup1\n      dup4\n      sload\n      div\n      mul\n      dup4\n      mstore\n      swap2\n      0x20\n      add\n      swap2\n      jump(tag_94)\n    tag_95:\n      dup3\n      add\n      swap2\n      swap1\n      0x00\n      mstore\n      keccak256(0x00, 0x20)\n      swap1\n    tag_96:\n      dup2\n      sload\n      dup2\n      mstore\n      swap1\n      0x01\n      add\n      swap1\n      0x20\n      add\n      dup1\n      dup4\n      gt\n      tag_96\n      jumpi\n      dup3\n      swap1\n      sub\n      0x1f\n      and\n      dup3\n      add\n      swap2\n    tag_94:\n      pop\n      pop\n      pop\n      pop\n      pop\n      dup2\n      mstore\n      0x20\n      add\n      0x01\n      dup3\n      add\n      sload\n      dup2\n      mstore\n      0x20\n      add\n      0x02\n      dup3\n      add\n      sload\n      dup2\n      mstore\n      0x20\n      add\n      0x03\n      dup3\n      add\n      dup1\n      sload\n      tag_97\n      swap1\n      tag_67\n      jump\t// in\n    tag_97:\n      dup1\n      0x1f\n      add\n      0x20\n      dup1\n      swap2\n      div\n      mul\n      0x20\n      add\n      mload(0x40)\n      swap1\n      dup2\n      add\n      0x40\n      mstore\n      dup1\n      swap3\n      swap2\n      swap1\n      dup2\n      dup2\n      mstore\n      0x20\n      add\n      dup3\n      dup1\n      sload\n      tag_98\n      swap1\n      tag_67\n      jump\t// in\n    tag_98:\n      dup1\n      iszero\n      tag_99\n      jumpi\n      dup1\n      0x1f\n      lt\n      tag_100\n      jumpi\n      0x0100\n      dup1\n      dup4\n      sload\n      div\n      mul\n      dup4\n      mstore\n      swap2\n      0x20\n      add\n      swap2\n      jump(tag_99)\n    tag_100:\n      dup3\n      add\n      swap2\n      swap1\n      0x00\n      mstore\n      keccak256(0x00, 0x20)\n      swap1\n    tag_101:\n      dup2\n      sload\n      dup2\n      mstore\n      swap1\n      0x01\n      add\n      swap1\n      0x20\n      add\n      dup1\n      dup4\n      gt\n      tag_101\n      jumpi\n      dup3\n      swap1\n      sub\n      0x1f\n      and\n      dup3\n      add\n      swap2\n    tag_99:\n      pop\n      pop\n      pop\n      pop\n      pop\n      dup2\n      mstore\n      0x20\n      add\n      0x04\n      dup3\n      add\n      dup1\n      sload\n      dup1\n      0x20\n      mul\n      0x20\n      add\n      mload(0x40)\n      swap1\n      dup2\n      add\n      0x40\n      mstore\n      dup1\n      swap3\n      swap2\n      swap1\n      dup2\n      dup2\n      mstore\n      0x20\n      add\n      0x00\n      swap1\n    tag_102:\n      dup3\n      dup3\n      lt\n      iszero\n      tag_103\n      jumpi\n      dup4\n      dup3\n      swap1\n      0x00\n      mstore\n      keccak256(0x00, 0x20)\n      add\n      dup1\n      sload\n      tag_105\n      swap1\n      tag_67\n      jump\t// in\n    tag_105:\n      dup1\n      0x1f\n      add\n      0x20\n      dup1\n      swap2\n      div\n      mul\n      0x20\n      add\n      mload(0x40)\n      swap1\n      dup2\n      add\n      0x40\n      mstore\n      dup1\n      swap3\n      swap2\n      swap1\n      dup2\n      dup2\n      mstore\n      0x20\n      add\n      dup3\n      dup1\n      sload\n      tag_106\n      swap1\n      tag_67\n      jump\t// in\n    tag_106:\n      dup1\n      iszero\n      tag_107\n      jumpi\n      dup1\n      0x1f\n      lt\n      tag_108\n      jumpi\n      0x0100\n      dup1\n      dup4\n      sload\n      div\n      mul\n      dup4\n      mstore\n      swap2\n      0x20\n      add\n      swap2\n      jump(tag_107)\n    tag_108:\n      dup3\n      add\n      swap2\n      swap1\n      0x00\n      mstore\n      keccak256(0x00, 0x20)\n      swap1\n    tag_109:\n      dup2\n      sload\n      dup2\n      mstore\n      swap1\n      0x01\n      add\n      swap1\n      0x20\n      add\n      dup1\n      dup4\n      gt\n      tag_109\n      jumpi\n      dup3\n      swap1\n      sub\n      0x1f\n      and\n      dup3\n      add\n      swap2\n    tag_107:\n      pop\n      pop\n      pop\n      pop\n      pop\n      dup2\n      mstore\n      0x20\n      add\n      swap1\n      0x01\n      add\n      swap1\n      jump(tag_102)\n    tag_103:\n      pop\n      pop\n      pop\n      pop\n      dup2\n      mstore\n      pop\n      pop\n      dup2\n      mstore\n      0x20\n      add\n      swap1\n      0x01\n      add\n      swap1\n      jump(tag_89)\n    tag_90:\n      pop\n      pop\n      pop\n      pop\n      swap1\n      pop\n        /* \"Coding test/test1.sol\":3067:3180  function getstudentNum(uint _num) public view returns(student[] memory) {... */\n      swap2\n      swap1\n      pop\n      jump\t// out\n        /* \"Coding test/test1.sol\":4937:5016  function GradeF() public view returns(uint, student[] memory){... */\n    tag_35:\n        /* \"Coding test/test1.sol\":4975:4979  uint */\n      0x00\n        /* \"Coding test/test1.sol\":4981:4997  student[] memory */\n      0x60\n        /* \"Coding test/test1.sol\":4937:5016  function GradeF() public view returns(uint, student[] memory){... */\n      swap1\n      swap2\n      jump\t// out\n        /* \"Coding test/test1.sol\":2341:2779  function setGrade(uint _score) public pure returns(string memory){... */\n    tag_40:\n        /* \"Coding test/test1.sol\":2392:2405  string memory */\n      0x60\n        /* \"Coding test/test1.sol\":2432:2435  100 */\n      0x64\n        /* \"Coding test/test1.sol\":2422:2428  _score */\n      dup3\n        /* \"Coding test/test1.sol\":2422:2435  _score <= 100 */\n      gt\n      iszero\n        /* \"Coding test/test1.sol\":2422:2451  _score <= 100 && _score >= 90 */\n      dup1\n      iszero\n      tag_112\n      jumpi\n      pop\n        /* \"Coding test/test1.sol\":2449:2451  90 */\n      0x5a\n        /* \"Coding test/test1.sol\":2439:2445  _score */\n      dup3\n        /* \"Coding test/test1.sol\":2439:2451  _score >= 90 */\n      lt\n      iszero\n        /* \"Coding test/test1.sol\":2422:2451  _score <= 100 && _score >= 90 */\n    tag_112:\n        /* \"Coding test/test1.sol\":2417:2772  if ( _score <= 100 && _score >= 90 ) {... */\n      iszero\n      tag_113\n      jumpi\n        /* \"Coding test/test1.sol\":2469:2479  return \"A\" */\n      mload(0x40)\n      dup1\n      0x40\n      add\n      0x40\n      mstore\n      dup1\n      0x01\n      dup2\n      mstore\n      0x20\n      add\n      0x4100000000000000000000000000000000000000000000000000000000000000\n      dup2\n      mstore\n      pop\n      swap1\n      pop\n      jump(tag_111)\n        /* \"Coding test/test1.sol\":2417:2772  if ( _score <= 100 && _score >= 90 ) {... */\n    tag_113:\n        /* \"Coding test/test1.sol\":2511:2513  90 */\n      0x5a\n        /* \"Coding test/test1.sol\":2502:2508  _score */\n      dup3\n        /* \"Coding test/test1.sol\":2502:2513  _score < 90 */\n      lt\n        /* \"Coding test/test1.sol\":2502:2530  _score < 90  && _score >= 80 */\n      dup1\n      iszero\n      tag_115\n      jumpi\n      pop\n        /* \"Coding test/test1.sol\":2528:2530  80 */\n      0x50\n        /* \"Coding test/test1.sol\":2518:2524  _score */\n      dup3\n        /* \"Coding test/test1.sol\":2518:2530  _score >= 80 */\n      lt\n      iszero\n        /* \"Coding test/test1.sol\":2502:2530  _score < 90  && _score >= 80 */\n    tag_115:\n        /* \"Coding test/test1.sol\":2497:2772  if ( _score < 90  && _score >= 80 ) {... */\n      iszero\n      tag_116\n      jumpi\n        /* \"Coding test/test1.sol\":2548:2558  return \"B\" */\n      mload(0x40)\n      dup1\n      0x40\n      add\n      0x40\n      mstore\n      dup1\n      0x01\n      dup2\n      mstore\n      0x20\n      add\n      0x4200000000000000000000000000000000000000000000000000000000000000\n      dup2\n      mstore\n      pop\n      swap1\n      pop\n      jump(tag_111)\n        /* \"Coding test/test1.sol\":2497:2772  if ( _score < 90  && _score >= 80 ) {... */\n    tag_116:\n        /* \"Coding test/test1.sol\":2590:2592  80 */\n      0x50\n        /* \"Coding test/test1.sol\":2581:2587  _score */\n      dup3\n        /* \"Coding test/test1.sol\":2581:2592  _score < 80 */\n      lt\n        /* \"Coding test/test1.sol\":2581:2609  _score < 80  && _score >= 70 */\n      dup1\n      iszero\n      tag_118\n      jumpi\n      pop\n        /* \"Coding test/test1.sol\":2607:2609  70 */\n      0x46\n        /* \"Coding test/test1.sol\":2597:2603  _score */\n      dup3\n        /* \"Coding test/test1.sol\":2597:2609  _score >= 70 */\n      lt\n      iszero\n        /* \"Coding test/test1.sol\":2581:2609  _score < 80  && _score >= 70 */\n    tag_118:\n        /* \"Coding test/test1.sol\":2576:2772  if ( _score < 80  && _score >= 70 ) {... */\n      iszero\n      tag_119\n      jumpi\n        /* \"Coding test/test1.sol\":2627:2637  return \"C\" */\n      mload(0x40)\n      dup1\n      0x40\n      add\n      0x40\n      mstore\n      dup1\n      0x01\n      dup2\n      mstore\n      0x20\n      add\n      0x4300000000000000000000000000000000000000000000000000000000000000\n      dup2\n      mstore\n      pop\n      swap1\n      pop\n      jump(tag_111)\n        /* \"Coding test/test1.sol\":2576:2772  if ( _score < 80  && _score >= 70 ) {... */\n    tag_119:\n        /* \"Coding test/test1.sol\":2670:2672  70 */\n      0x46\n        /* \"Coding test/test1.sol\":2661:2667  _score */\n      dup3\n        /* \"Coding test/test1.sol\":2661:2672  _score < 70 */\n      lt\n        /* \"Coding test/test1.sol\":2661:2689  _score < 70  && _score >= 60 */\n      dup1\n      iszero\n      tag_121\n      jumpi\n      pop\n        /* \"Coding test/test1.sol\":2687:2689  60 */\n      0x3c\n        /* \"Coding test/test1.sol\":2677:2683  _score */\n      dup3\n        /* \"Coding test/test1.sol\":2677:2689  _score >= 60 */\n      lt\n      iszero\n        /* \"Coding test/test1.sol\":2661:2689  _score < 70  && _score >= 60 */\n    tag_121:\n        /* \"Coding test/test1.sol\":2655:2772  if  ( _score < 70  && _score >= 60 ) {... */\n      iszero\n      tag_122\n      jumpi\n        /* \"Coding test/test1.sol\":2707:2717  return \"D\" */\n      mload(0x40)\n      dup1\n      0x40\n      add\n      0x40\n      mstore\n      dup1\n      0x01\n      dup2\n      mstore\n      0x20\n      add\n      0x4400000000000000000000000000000000000000000000000000000000000000\n      dup2\n      mstore\n      pop\n      swap1\n      pop\n      jump(tag_111)\n        /* \"Coding test/test1.sol\":2655:2772  if  ( _score < 70  && _score >= 60 ) {... */\n    tag_122:\n        /* \"Coding test/test1.sol\":2750:2760  return \"F\" */\n      mload(0x40)\n      dup1\n      0x40\n      add\n      0x40\n      mstore\n      dup1\n      0x01\n      dup2\n      mstore\n      0x20\n      add\n      0x4600000000000000000000000000000000000000000000000000000000000000\n      dup2\n      mstore\n      pop\n      swap1\n      pop\n        /* \"Coding test/test1.sol\":2341:2779  function setGrade(uint _score) public pure returns(string memory){... */\n    tag_111:\n      swap2\n      swap1\n      pop\n      jump\t// out\n        /* \"Coding test/test1.sol\":2146:2331  function pushStudent(string memory _name, uint _score, string[] memory _class) public {... */\n    tag_46:\n        /* \"Coding test/test1.sol\":2243:2251  Students */\n      0x00\n        /* \"Coding test/test1.sol\":2257:2322  student(_name, Students.length, _score, setGrade(_score), _class) */\n      mload(0x40)\n      dup1\n      0xa0\n      add\n      0x40\n      mstore\n      dup1\n        /* \"Coding test/test1.sol\":2265:2270  _name */\n      dup6\n        /* \"Coding test/test1.sol\":2257:2322  student(_name, Students.length, _score, setGrade(_score), _class) */\n      dup2\n      mstore\n      0x20\n      add\n        /* \"Coding test/test1.sol\":2272:2280  Students */\n      0x00\n        /* \"Coding test/test1.sol\":2272:2287  Students.length */\n      dup1\n      sload\n      swap1\n      pop\n        /* \"Coding test/test1.sol\":2257:2322  student(_name, Students.length, _score, setGrade(_score), _class) */\n      dup2\n      mstore\n      0x20\n      add\n        /* \"Coding test/test1.sol\":2289:2295  _score */\n      dup5\n        /* \"Coding test/test1.sol\":2257:2322  student(_name, Students.length, _score, setGrade(_score), _class) */\n      dup2\n      mstore\n      0x20\n      add\n        /* \"Coding test/test1.sol\":2297:2313  setGrade(_score) */\n      tag_125\n        /* \"Coding test/test1.sol\":2306:2312  _score */\n      dup6\n        /* \"Coding test/test1.sol\":2297:2305  setGrade */\n      tag_40\n        /* \"Coding test/test1.sol\":2297:2313  setGrade(_score) */\n      jump\t// in\n    tag_125:\n        /* \"Coding test/test1.sol\":2257:2322  student(_name, Students.length, _score, setGrade(_score), _class) */\n      dup2\n      mstore\n      0x20\n      add\n        /* \"Coding test/test1.sol\":2315:2321  _class */\n      dup4\n        /* \"Coding test/test1.sol\":2257:2322  student(_name, Students.length, _score, setGrade(_score), _class) */\n      dup2\n      mstore\n      pop\n        /* \"Coding test/test1.sol\":2243:2323  Students.push(student(_name, Students.length, _score, setGrade(_score), _class)) */\n      swap1\n      dup1\n      0x01\n      dup2\n      sload\n      add\n      dup1\n      dup3\n      sstore\n      dup1\n      swap2\n      pop\n      pop\n      0x01\n      swap1\n      sub\n      swap1\n      0x00\n      mstore\n      keccak256(0x00, 0x20)\n      swap1\n      0x05\n      mul\n      add\n      0x00\n      swap1\n      swap2\n      swap1\n      swap2\n      swap1\n      swap2\n      pop\n      0x00\n      dup3\n      add\n      mload\n      dup2\n      0x00\n      add\n      swap1\n      dup2\n      tag_127\n      swap2\n      swap1\n      tag_128\n      jump\t// in\n    tag_127:\n      pop\n      0x20\n      dup3\n      add\n      mload\n      dup2\n      0x01\n      add\n      sstore\n      0x40\n      dup3\n      add\n      mload\n      dup2\n      0x02\n      add\n      sstore\n      0x60\n      dup3\n      add\n      mload\n      dup2\n      0x03\n      add\n      swap1\n      dup2\n      tag_129\n      swap2\n      swap1\n      tag_128\n      jump\t// in\n    tag_129:\n      pop\n      0x80\n      dup3\n      add\n      mload\n      dup2\n      0x04\n      add\n      swap1\n      dup1\n      mload\n      swap1\n      0x20\n      add\n      swap1\n      tag_130\n      swap3\n      swap2\n      swap1\n      tag_131\n      jump\t// in\n    tag_130:\n      pop\n      pop\n      pop\n        /* \"Coding test/test1.sol\":2146:2331  function pushStudent(string memory _name, uint _score, string[] memory _class) public {... */\n      pop\n      pop\n      pop\n      jump\t// out\n        /* \"Coding test/test1.sol\":3294:3419  function getstudentName(string memory _name) public view returns(student[] memory) {... */\n    tag_49:\n        /* \"Coding test/test1.sol\":3359:3375  student[] memory */\n      0x60\n        /* \"Coding test/test1.sol\":3395:3404  students1 */\n      0x01\n        /* \"Coding test/test1.sol\":3405:3410  _name */\n      dup3\n        /* \"Coding test/test1.sol\":3395:3411  students1[_name] */\n      mload(0x40)\n      tag_133\n      swap2\n      swap1\n      tag_87\n      jump\t// in\n    tag_133:\n      swap1\n      dup2\n      mstore\n      0x20\n      add\n      mload(0x40)\n      dup1\n      swap2\n      sub\n      swap1\n      keccak256\n        /* \"Coding test/test1.sol\":3388:3411  return students1[_name] */\n      dup1\n      sload\n      dup1\n      0x20\n      mul\n      0x20\n      add\n      mload(0x40)\n      swap1\n      dup2\n      add\n      0x40\n      mstore\n      dup1\n      swap3\n      swap2\n      swap1\n      dup2\n      dup2\n      mstore\n      0x20\n      add\n      0x00\n      swap1\n    tag_134:\n      dup3\n      dup3\n      lt\n      iszero\n      tag_135\n      jumpi\n      dup4\n      dup3\n      swap1\n      0x00\n      mstore\n      keccak256(0x00, 0x20)\n      swap1\n      0x05\n      mul\n      add\n      mload(0x40)\n      dup1\n      0xa0\n      add\n      0x40\n      mstore\n      swap1\n      dup2\n      0x00\n      dup3\n      add\n      dup1\n      sload\n      tag_137\n      swap1\n      tag_67\n      jump\t// in\n    tag_137:\n      dup1\n      0x1f\n      add\n      0x20\n      dup1\n      swap2\n      div\n      mul\n      0x20\n      add\n      mload(0x40)\n      swap1\n      dup2\n      add\n      0x40\n      mstore\n      dup1\n      swap3\n      swap2\n      swap1\n      dup2\n      dup2\n      mstore\n      0x20\n      add\n      dup3\n      dup1\n      sload\n      tag_138\n      swap1\n      tag_67\n      jump\t// in\n    tag_138:\n      dup1\n      iszero\n      tag_139\n      jumpi\n      dup1\n      0x1f\n      lt\n      tag_140\n      jumpi\n      0x0100\n      dup1\n      dup4\n      sload\n      div\n      mul\n      dup4\n      mstore\n      swap2\n      0x20\n      add\n      swap2\n      jump(tag_139)\n    tag_140:\n      dup3\n      add\n      swap2\n      swap1\n      0x00\n      mstore\n      keccak256(0x00, 0x20)\n      swap1\n    tag_141:\n      dup2\n      sload\n      dup2\n      mstore\n      swap1\n      0x01\n      add\n      swap1\n      0x20\n      add\n      dup1\n      dup4\n      gt\n      tag_141\n      jumpi\n      dup3\n      swap1\n      sub\n      0x1f\n      and\n      dup3\n      add\n      swap2\n    tag_139:\n      pop\n      pop\n      pop\n      pop\n      pop\n      dup2\n      mstore\n      0x20\n      add\n      0x01\n      dup3\n      add\n      sload\n      dup2\n      mstore\n      0x20\n      add\n      0x02\n      dup3\n      add\n      sload\n      dup2\n      mstore\n      0x20\n      add\n      0x03\n      dup3\n      add\n      dup1\n      sload\n      tag_142\n      swap1\n      tag_67\n      jump\t// in\n    tag_142:\n      dup1\n      0x1f\n      add\n      0x20\n      dup1\n      swap2\n      div\n      mul\n      0x20\n      add\n      mload(0x40)\n      swap1\n      dup2\n      add\n      0x40\n      mstore\n      dup1\n      swap3\n      swap2\n      swap1\n      dup2\n      dup2\n      mstore\n      0x20\n      add\n      dup3\n      dup1\n      sload\n      tag_143\n      swap1\n      tag_67\n      jump\t// in\n    tag_143:\n      dup1\n      iszero\n      tag_144\n      jumpi\n      dup1\n      0x1f\n      lt\n      tag_145\n      jumpi\n      0x0100\n      dup1\n      dup4\n      sload\n      div\n      mul\n      dup4\n      mstore\n      swap2\n      0x20\n      add\n      swap2\n      jump(tag_144)\n    tag_145:\n      dup3\n      add\n      swap2\n      swap1\n      0x00\n      mstore\n      keccak256(0x00, 0x20)\n      swap1\n    tag_146:\n      dup2\n      sload\n      dup2\n      mstore\n      swap1\n      0x01\n      add\n      swap1\n      0x20\n      add\n      dup1\n      dup4\n      gt\n      tag_146\n      jumpi\n      dup3\n      swap1\n      sub\n      0x1f\n      and\n      dup3\n      add\n      swap2\n    tag_144:\n      pop\n      pop\n      pop\n      pop\n      pop\n      dup2\n      mstore\n      0x20\n      add\n      0x04\n      dup3\n      add\n      dup1\n      sload\n      dup1\n      0x20\n      mul\n      0x20\n      add\n      mload(0x40)\n      swap1\n      dup2\n      add\n      0x40\n      mstore\n      dup1\n      swap3\n      swap2\n      swap1\n      dup2\n      dup2\n      mstore\n      0x20\n      add\n      0x00\n      swap1\n    tag_147:\n      dup3\n      dup3\n      lt\n      iszero\n      tag_148\n      jumpi\n      dup4\n      dup3\n      swap1\n      0x00\n      mstore\n      keccak256(0x00, 0x20)\n      add\n      dup1\n      sload\n      tag_150\n      swap1\n      tag_67\n      jump\t// in\n    tag_150:\n      dup1\n      0x1f\n      add\n      0x20\n      dup1\n      swap2\n      div\n      mul\n      0x20\n      add\n      mload(0x40)\n      swap1\n      dup2\n      add\n      0x40\n      mstore\n      dup1\n      swap3\n      swap2\n      swap1\n      dup2\n      dup2\n      mstore\n      0x20\n      add\n      dup3\n      dup1\n      sload\n      tag_151\n      swap1\n      tag_67\n      jump\t// in\n    tag_151:\n      dup1\n      iszero\n      tag_152\n      jumpi\n      dup1\n      0x1f\n      lt\n      tag_153\n      jumpi\n      0x0100\n      dup1\n      dup4\n      sload\n      div\n      mul\n      dup4\n      mstore\n      swap2\n      0x20\n      add\n      swap2\n      jump(tag_152)\n    tag_153:\n      dup3\n      add\n      swap2\n      swap1\n      0x00\n      mstore\n      keccak256(0x00, 0x20)\n      swap1\n    tag_154:\n      dup2\n      sload\n      dup2\n      mstore\n      swap1\n      0x01\n      add\n      swap1\n      0x20\n      add\n      dup1\n      dup4\n      gt\n      tag_154\n      jumpi\n      dup3\n      swap1\n      sub\n      0x1f\n      and\n      dup3\n      add\n      swap2\n    tag_152:\n      pop\n      pop\n      pop\n      pop\n      pop\n      dup2\n      mstore\n      0x20\n      add\n      swap1\n      0x01\n      add\n      swap1\n      jump(tag_147)\n    tag_148:\n      pop\n      pop\n      pop\n      pop\n      dup2\n      mstore\n      pop\n      pop\n      dup2\n      mstore\n      0x20\n      add\n      swap1\n      0x01\n      add\n      swap1\n      jump(tag_134)\n    tag_135:\n      pop\n      pop\n      pop\n      pop\n      swap1\n      pop\n        /* \"Coding test/test1.sol\":3294:3419  function getstudentName(string memory _name) public view returns(student[] memory) {... */\n      swap2\n      swap1\n      pop\n      jump\t// out\n        /* \"Coding test/test1.sol\":4661:4825  function teach() public view returns(bool){... */\n    tag_52:\n        /* \"Coding test/test1.sol\":4698:4702  bool */\n      0x00\n        /* \"Coding test/test1.sol\":4731:4733  70 */\n      0x46\n        /* \"Coding test/test1.sol\":4718:4727  Average() */\n      tag_156\n        /* \"Coding test/test1.sol\":4718:4725  Average */\n      tag_56\n        /* \"Coding test/test1.sol\":4718:4727  Average() */\n      jump\t// in\n    tag_156:\n        /* \"Coding test/test1.sol\":4718:4733  Average() >= 70 */\n      lt\n        /* \"Coding test/test1.sol\":4714:4818  if (Average() >= 70) {... */\n      tag_157\n      jumpi\n        /* \"Coding test/test1.sol\":4757:4761  true */\n      0x01\n        /* \"Coding test/test1.sol\":4750:4761  return true */\n      swap1\n      pop\n      jump(tag_155)\n        /* \"Coding test/test1.sol\":4714:4818  if (Average() >= 70) {... */\n    tag_157:\n        /* \"Coding test/test1.sol\":4801:4806  false */\n      0x00\n        /* \"Coding test/test1.sol\":4794:4806  return false */\n      swap1\n      pop\n        /* \"Coding test/test1.sol\":4661:4825  function teach() public view returns(bool){... */\n    tag_155:\n      swap1\n      jump\t// out\n        /* \"Coding test/test1.sol\":4269:4495  function Average() public view returns(uint) {... */\n    tag_56:\n        /* \"Coding test/test1.sol\":4308:4312  uint */\n      0x00\n        /* \"Coding test/test1.sol\":4325:4333  uint sum */\n      dup1\n        /* \"Coding test/test1.sol\":4344:4350  uint i */\n      0x00\n        /* \"Coding test/test1.sol\":4363:4449  for (i=0; i<Students.length + 1; i++) {... */\n    tag_160:\n        /* \"Coding test/test1.sol\":4393:4394  1 */\n      0x01\n        /* \"Coding test/test1.sol\":4375:4383  Students */\n      0x00\n        /* \"Coding test/test1.sol\":4375:4390  Students.length */\n      dup1\n      sload\n      swap1\n      pop\n        /* \"Coding test/test1.sol\":4375:4394  Students.length + 1 */\n      tag_163\n      swap2\n      swap1\n      tag_164\n      jump\t// in\n    tag_163:\n        /* \"Coding test/test1.sol\":4373:4374  i */\n      dup2\n        /* \"Coding test/test1.sol\":4373:4394  i<Students.length + 1 */\n      lt\n        /* \"Coding test/test1.sol\":4363:4449  for (i=0; i<Students.length + 1; i++) {... */\n      iszero\n      tag_161\n      jumpi\n        /* \"Coding test/test1.sol\":4425:4437  getScores(i) */\n      tag_165\n        /* \"Coding test/test1.sol\":4435:4436  i */\n      dup2\n        /* \"Coding test/test1.sol\":4425:4434  getScores */\n      tag_18\n        /* \"Coding test/test1.sol\":4425:4437  getScores(i) */\n      jump\t// in\n    tag_165:\n        /* \"Coding test/test1.sol\":4419:4422  sum */\n      dup3\n        /* \"Coding test/test1.sol\":4419:4437  sum + getScores(i) */\n      tag_166\n      swap2\n      swap1\n      tag_164\n      jump\t// in\n    tag_166:\n        /* \"Coding test/test1.sol\":4413:4437  sum = sum + getScores(i) */\n      swap2\n      pop\n        /* \"Coding test/test1.sol\":4396:4399  i++ */\n      dup1\n      dup1\n      0x01\n      add\n      swap2\n      pop\n      pop\n        /* \"Coding test/test1.sol\":4363:4449  for (i=0; i<Students.length + 1; i++) {... */\n      jump(tag_160)\n    tag_161:\n        /* \"Coding test/test1.sol\":4472:4480  Students */\n      0x00\n        /* \"Coding test/test1.sol\":4472:4487  Students.length */\n      dup1\n      sload\n      swap1\n      pop\n        /* \"Coding test/test1.sol\":4466:4469  sum */\n      dup3\n        /* \"Coding test/test1.sol\":4466:4487  sum / Students.length */\n      tag_167\n      swap2\n      swap1\n      tag_168\n      jump\t// in\n    tag_167:\n        /* \"Coding test/test1.sol\":4459:4487  return sum / Students.length */\n      swap3\n      pop\n      pop\n      pop\n        /* \"Coding test/test1.sol\":4269:4495  function Average() public view returns(uint) {... */\n      swap1\n      jump\t// out\n        /* \"Coding test/test1.sol\":3765:3853  function getLength() public view returns(uint) {... */\n    tag_59:\n        /* \"Coding test/test1.sol\":3806:3810  uint */\n      0x00\n        /* \"Coding test/test1.sol\":3830:3838  Students */\n      dup1\n        /* \"Coding test/test1.sol\":3830:3845  Students.length */\n      dup1\n      sload\n      swap1\n      pop\n        /* \"Coding test/test1.sol\":3823:3845  return Students.length */\n      swap1\n      pop\n        /* \"Coding test/test1.sol\":3765:3853  function getLength() public view returns(uint) {... */\n      swap1\n      jump\t// out\n    tag_131:\n      dup3\n      dup1\n      sload\n      dup3\n      dup3\n      sstore\n      swap1\n      0x00\n      mstore\n      keccak256(0x00, 0x20)\n      swap1\n      dup2\n      add\n      swap3\n      dup3\n      iszero\n      tag_170\n      jumpi\n      swap2\n      0x20\n      mul\n      dup3\n      add\n    tag_171:\n      dup3\n      dup2\n      gt\n      iszero\n      tag_172\n      jumpi\n      dup3\n      mload\n      dup3\n      swap1\n      dup2\n      tag_173\n      swap2\n      swap1\n      tag_128\n      jump\t// in\n    tag_173:\n      pop\n      swap2\n      0x20\n      add\n      swap2\n      swap1\n      0x01\n      add\n      swap1\n      jump(tag_171)\n    tag_172:\n    tag_170:\n      pop\n      swap1\n      pop\n      tag_174\n      swap2\n      swap1\n      tag_175\n      jump\t// in\n    tag_174:\n      pop\n      swap1\n      jump\t// out\n    tag_175:\n    tag_176:\n      dup1\n      dup3\n      gt\n      iszero\n      tag_177\n      jumpi\n      0x00\n      dup2\n      dup2\n      tag_178\n      swap2\n      swap1\n      tag_179\n      jump\t// in\n    tag_178:\n      pop\n      0x01\n      add\n      jump(tag_176)\n    tag_177:\n      pop\n      swap1\n      jump\t// out\n    tag_179:\n      pop\n      dup1\n      sload\n      tag_180\n      swap1\n      tag_67\n      jump\t// in\n    tag_180:\n      0x00\n      dup3\n      sstore\n      dup1\n      0x1f\n      lt\n      tag_182\n      jumpi\n      pop\n      jump(tag_181)\n    tag_182:\n      0x1f\n      add\n      0x20\n      swap1\n      div\n      swap1\n      0x00\n      mstore\n      keccak256(0x00, 0x20)\n      swap1\n      dup2\n      add\n      swap1\n      tag_183\n      swap2\n      swap1\n      tag_184\n      jump\t// in\n    tag_183:\n    tag_181:\n      pop\n      jump\t// out\n    tag_184:\n    tag_185:\n      dup1\n      dup3\n      gt\n      iszero\n      tag_186\n      jumpi\n      0x00\n      dup2\n      0x00\n      swap1\n      sstore\n      pop\n      0x01\n      add\n      jump(tag_185)\n    tag_186:\n      pop\n      swap1\n      jump\t// out\n        /* \"#utility.yul\":7:82   */\n    tag_187:\n        /* \"#utility.yul\":40:46   */\n      0x00\n        /* \"#utility.yul\":73:75   */\n      0x40\n        /* \"#utility.yul\":67:76   */\n      mload\n        /* \"#utility.yul\":57:76   */\n      swap1\n      pop\n        /* \"#utility.yul\":7:82   */\n      swap1\n      jump\t// out\n        /* \"#utility.yul\":88:205   */\n    tag_188:\n        /* \"#utility.yul\":197:198   */\n      0x00\n        /* \"#utility.yul\":194:195   */\n      dup1\n        /* \"#utility.yul\":187:199   */\n      revert\n        /* \"#utility.yul\":211:328   */\n    tag_189:\n        /* \"#utility.yul\":320:321   */\n      0x00\n        /* \"#utility.yul\":317:318   */\n      dup1\n        /* \"#utility.yul\":310:322   */\n      revert\n        /* \"#utility.yul\":334:411   */\n    tag_190:\n        /* \"#utility.yul\":371:378   */\n      0x00\n        /* \"#utility.yul\":400:405   */\n      dup2\n        /* \"#utility.yul\":389:405   */\n      swap1\n      pop\n        /* \"#utility.yul\":334:411   */\n      swap2\n      swap1\n      pop\n      jump\t// out\n        /* \"#utility.yul\":417:539   */\n    tag_191:\n        /* \"#utility.yul\":490:514   */\n      tag_256\n        /* \"#utility.yul\":508:513   */\n      dup2\n        /* \"#utility.yul\":490:514   */\n      tag_190\n      jump\t// in\n    tag_256:\n        /* \"#utility.yul\":483:488   */\n      dup2\n        /* \"#utility.yul\":480:515   */\n      eq\n        /* \"#utility.yul\":470:533   */\n      tag_257\n      jumpi\n        /* \"#utility.yul\":529:530   */\n      0x00\n        /* \"#utility.yul\":526:527   */\n      dup1\n        /* \"#utility.yul\":519:531   */\n      revert\n        /* \"#utility.yul\":470:533   */\n    tag_257:\n        /* \"#utility.yul\":417:539   */\n      pop\n      jump\t// out\n        /* \"#utility.yul\":545:684   */\n    tag_192:\n        /* \"#utility.yul\":591:596   */\n      0x00\n        /* \"#utility.yul\":629:635   */\n      dup2\n        /* \"#utility.yul\":616:636   */\n      calldataload\n        /* \"#utility.yul\":607:636   */\n      swap1\n      pop\n        /* \"#utility.yul\":645:678   */\n      tag_259\n        /* \"#utility.yul\":672:677   */\n      dup2\n        /* \"#utility.yul\":645:678   */\n      tag_191\n      jump\t// in\n    tag_259:\n        /* \"#utility.yul\":545:684   */\n      swap3\n      swap2\n      pop\n      pop\n      jump\t// out\n        /* \"#utility.yul\":690:1019   */\n    tag_17:\n        /* \"#utility.yul\":749:755   */\n      0x00\n        /* \"#utility.yul\":798:800   */\n      0x20\n        /* \"#utility.yul\":786:795   */\n      dup3\n        /* \"#utility.yul\":777:784   */\n      dup5\n        /* \"#utility.yul\":773:796   */\n      sub\n        /* \"#utility.yul\":769:801   */\n      slt\n        /* \"#utility.yul\":766:885   */\n      iszero\n      tag_261\n      jumpi\n        /* \"#utility.yul\":804:883   */\n      tag_262\n      tag_188\n      jump\t// in\n    tag_262:\n        /* \"#utility.yul\":766:885   */\n    tag_261:\n        /* \"#utility.yul\":924:925   */\n      0x00\n        /* \"#utility.yul\":949:1002   */\n      tag_263\n        /* \"#utility.yul\":994:1001   */\n      dup5\n        /* \"#utility.yul\":985:991   */\n      dup3\n        /* \"#utility.yul\":974:983   */\n      dup6\n        /* \"#utility.yul\":970:992   */\n      add\n        /* \"#utility.yul\":949:1002   */\n      tag_192\n      jump\t// in\n    tag_263:\n        /* \"#utility.yul\":939:1002   */\n      swap2\n      pop\n        /* \"#utility.yul\":895:1012   */\n      pop\n        /* \"#utility.yul\":690:1019   */\n      swap3\n      swap2\n      pop\n      pop\n      jump\t// out\n        /* \"#utility.yul\":1025:1143   */\n    tag_193:\n        /* \"#utility.yul\":1112:1136   */\n      tag_265\n        /* \"#utility.yul\":1130:1135   */\n      dup2\n        /* \"#utility.yul\":1112:1136   */\n      tag_190\n      jump\t// in\n    tag_265:\n        /* \"#utility.yul\":1107:1110   */\n      dup3\n        /* \"#utility.yul\":1100:1137   */\n      mstore\n        /* \"#utility.yul\":1025:1143   */\n      pop\n      pop\n      jump\t// out\n        /* \"#utility.yul\":1149:1371   */\n    tag_20:\n        /* \"#utility.yul\":1242:1246   */\n      0x00\n        /* \"#utility.yul\":1280:1282   */\n      0x20\n        /* \"#utility.yul\":1269:1278   */\n      dup3\n        /* \"#utility.yul\":1265:1283   */\n      add\n        /* \"#utility.yul\":1257:1283   */\n      swap1\n      pop\n        /* \"#utility.yul\":1293:1364   */\n      tag_267\n        /* \"#utility.yul\":1361:1362   */\n      0x00\n        /* \"#utility.yul\":1350:1359   */\n      dup4\n        /* \"#utility.yul\":1346:1363   */\n      add\n        /* \"#utility.yul\":1337:1343   */\n      dup5\n        /* \"#utility.yul\":1293:1364   */\n      tag_193\n      jump\t// in\n    tag_267:\n        /* \"#utility.yul\":1149:1371   */\n      swap3\n      swap2\n      pop\n      pop\n      jump\t// out\n        /* \"#utility.yul\":1377:1514   */\n    tag_194:\n        /* \"#utility.yul\":1467:1473   */\n      0x00\n        /* \"#utility.yul\":1501:1506   */\n      dup2\n        /* \"#utility.yul\":1495:1507   */\n      mload\n        /* \"#utility.yul\":1485:1507   */\n      swap1\n      pop\n        /* \"#utility.yul\":1377:1514   */\n      swap2\n      swap1\n      pop\n      jump\t// out\n        /* \"#utility.yul\":1520:1727   */\n    tag_195:\n        /* \"#utility.yul\":1642:1653   */\n      0x00\n        /* \"#utility.yul\":1676:1682   */\n      dup3\n        /* \"#utility.yul\":1671:1674   */\n      dup3\n        /* \"#utility.yul\":1664:1683   */\n      mstore\n        /* \"#utility.yul\":1716:1720   */\n      0x20\n        /* \"#utility.yul\":1711:1714   */\n      dup3\n        /* \"#utility.yul\":1707:1721   */\n      add\n        /* \"#utility.yul\":1692:1721   */\n      swap1\n      pop\n        /* \"#utility.yul\":1520:1727   */\n      swap3\n      swap2\n      pop\n      pop\n      jump\t// out\n        /* \"#utility.yul\":1733:1888   */\n    tag_196:\n        /* \"#utility.yul\":1823:1827   */\n      0x00\n        /* \"#utility.yul\":1846:1849   */\n      dup2\n        /* \"#utility.yul\":1838:1849   */\n      swap1\n      pop\n        /* \"#utility.yul\":1876:1880   */\n      0x20\n        /* \"#utility.yul\":1871:1874   */\n      dup3\n        /* \"#utility.yul\":1867:1881   */\n      add\n        /* \"#utility.yul\":1859:1881   */\n      swap1\n      pop\n        /* \"#utility.yul\":1733:1888   */\n      swap2\n      swap1\n      pop\n      jump\t// out\n        /* \"#utility.yul\":1894:1993   */\n    tag_197:\n        /* \"#utility.yul\":1946:1952   */\n      0x00\n        /* \"#utility.yul\":1980:1985   */\n      dup2\n        /* \"#utility.yul\":1974:1986   */\n      mload\n        /* \"#utility.yul\":1964:1986   */\n      swap1\n      pop\n        /* \"#utility.yul\":1894:1993   */\n      swap2\n      swap1\n      pop\n      jump\t// out\n        /* \"#utility.yul\":1999:2158   */\n    tag_198:\n        /* \"#utility.yul\":2073:2084   */\n      0x00\n        /* \"#utility.yul\":2107:2113   */\n      dup3\n        /* \"#utility.yul\":2102:2105   */\n      dup3\n        /* \"#utility.yul\":2095:2114   */\n      mstore\n        /* \"#utility.yul\":2147:2151   */\n      0x20\n        /* \"#utility.yul\":2142:2145   */\n      dup3\n        /* \"#utility.yul\":2138:2152   */\n      add\n        /* \"#utility.yul\":2123:2152   */\n      swap1\n      pop\n        /* \"#utility.yul\":1999:2158   */\n      swap3\n      swap2\n      pop\n      pop\n      jump\t// out\n        /* \"#utility.yul\":2164:2303   */\n    tag_199:\n        /* \"#utility.yul\":2253:2259   */\n      dup3\n        /* \"#utility.yul\":2248:2251   */\n      dup2\n        /* \"#utility.yul\":2243:2246   */\n      dup4\n        /* \"#utility.yul\":2237:2260   */\n      mcopy\n        /* \"#utility.yul\":2294:2295   */\n      0x00\n        /* \"#utility.yul\":2285:2291   */\n      dup4\n        /* \"#utility.yul\":2280:2283   */\n      dup4\n        /* \"#utility.yul\":2276:2292   */\n      add\n        /* \"#utility.yul\":2269:2296   */\n      mstore\n        /* \"#utility.yul\":2164:2303   */\n      pop\n      pop\n      pop\n      jump\t// out\n        /* \"#utility.yul\":2309:2411   */\n    tag_200:\n        /* \"#utility.yul\":2350:2356   */\n      0x00\n        /* \"#utility.yul\":2401:2403   */\n      0x1f\n        /* \"#utility.yul\":2397:2404   */\n      not\n        /* \"#utility.yul\":2392:2394   */\n      0x1f\n        /* \"#utility.yul\":2385:2390   */\n      dup4\n        /* \"#utility.yul\":2381:2395   */\n      add\n        /* \"#utility.yul\":2377:2405   */\n      and\n        /* \"#utility.yul\":2367:2405   */\n      swap1\n      pop\n        /* \"#utility.yul\":2309:2411   */\n      swap2\n      swap1\n      pop\n      jump\t// out\n        /* \"#utility.yul\":2417:2774   */\n    tag_201:\n        /* \"#utility.yul\":2495:2498   */\n      0x00\n        /* \"#utility.yul\":2523:2562   */\n      tag_276\n        /* \"#utility.yul\":2556:2561   */\n      dup3\n        /* \"#utility.yul\":2523:2562   */\n      tag_197\n      jump\t// in\n    tag_276:\n        /* \"#utility.yul\":2578:2639   */\n      tag_277\n        /* \"#utility.yul\":2632:2638   */\n      dup2\n        /* \"#utility.yul\":2627:2630   */\n      dup6\n        /* \"#utility.yul\":2578:2639   */\n      tag_198\n      jump\t// in\n    tag_277:\n        /* \"#utility.yul\":2571:2639   */\n      swap4\n      pop\n        /* \"#utility.yul\":2648:2713   */\n      tag_278\n        /* \"#utility.yul\":2706:2712   */\n      dup2\n        /* \"#utility.yul\":2701:2704   */\n      dup6\n        /* \"#utility.yul\":2694:2698   */\n      0x20\n        /* \"#utility.yul\":2687:2692   */\n      dup7\n        /* \"#utility.yul\":2683:2699   */\n      add\n        /* \"#utility.yul\":2648:2713   */\n      tag_199\n      jump\t// in\n    tag_278:\n        /* \"#utility.yul\":2738:2767   */\n      tag_279\n        /* \"#utility.yul\":2760:2766   */\n      dup2\n        /* \"#utility.yul\":2738:2767   */\n      tag_200\n      jump\t// in\n    tag_279:\n        /* \"#utility.yul\":2733:2736   */\n      dup5\n        /* \"#utility.yul\":2729:2768   */\n      add\n        /* \"#utility.yul\":2722:2768   */\n      swap2\n      pop\n        /* \"#utility.yul\":2499:2774   */\n      pop\n        /* \"#utility.yul\":2417:2774   */\n      swap3\n      swap2\n      pop\n      pop\n      jump\t// out\n        /* \"#utility.yul\":2780:2888   */\n    tag_202:\n        /* \"#utility.yul\":2857:2881   */\n      tag_281\n        /* \"#utility.yul\":2875:2880   */\n      dup2\n        /* \"#utility.yul\":2857:2881   */\n      tag_190\n      jump\t// in\n    tag_281:\n        /* \"#utility.yul\":2852:2855   */\n      dup3\n        /* \"#utility.yul\":2845:2882   */\n      mstore\n        /* \"#utility.yul\":2780:2888   */\n      pop\n      pop\n      jump\t// out\n        /* \"#utility.yul\":2894:3018   */\n    tag_203:\n        /* \"#utility.yul\":2971:2977   */\n      0x00\n        /* \"#utility.yul\":3005:3010   */\n      dup2\n        /* \"#utility.yul\":2999:3011   */\n      mload\n        /* \"#utility.yul\":2989:3011   */\n      swap1\n      pop\n        /* \"#utility.yul\":2894:3018   */\n      swap2\n      swap1\n      pop\n      jump\t// out\n        /* \"#utility.yul\":3024:3208   */\n    tag_204:\n        /* \"#utility.yul\":3123:3134   */\n      0x00\n        /* \"#utility.yul\":3157:3163   */\n      dup3\n        /* \"#utility.yul\":3152:3155   */\n      dup3\n        /* \"#utility.yul\":3145:3164   */\n      mstore\n        /* \"#utility.yul\":3197:3201   */\n      0x20\n        /* \"#utility.yul\":3192:3195   */\n      dup3\n        /* \"#utility.yul\":3188:3202   */\n      add\n        /* \"#utility.yul\":3173:3202   */\n      swap1\n      pop\n        /* \"#utility.yul\":3024:3208   */\n      swap3\n      swap2\n      pop\n      pop\n      jump\t// out\n        /* \"#utility.yul\":3214:3356   */\n    tag_205:\n        /* \"#utility.yul\":3291:3295   */\n      0x00\n        /* \"#utility.yul\":3314:3317   */\n      dup2\n        /* \"#utility.yul\":3306:3317   */\n      swap1\n      pop\n        /* \"#utility.yul\":3344:3348   */\n      0x20\n        /* \"#utility.yul\":3339:3342   */\n      dup3\n        /* \"#utility.yul\":3335:3349   */\n      add\n        /* \"#utility.yul\":3327:3349   */\n      swap1\n      pop\n        /* \"#utility.yul\":3214:3356   */\n      swap2\n      swap1\n      pop\n      jump\t// out\n        /* \"#utility.yul\":3362:3558   */\n    tag_206:\n        /* \"#utility.yul\":3451:3461   */\n      0x00\n        /* \"#utility.yul\":3486:3552   */\n      tag_286\n        /* \"#utility.yul\":3548:3551   */\n      dup4\n        /* \"#utility.yul\":3540:3546   */\n      dup4\n        /* \"#utility.yul\":3486:3552   */\n      tag_201\n      jump\t// in\n    tag_286:\n        /* \"#utility.yul\":3472:3552   */\n      swap1\n      pop\n        /* \"#utility.yul\":3362:3558   */\n      swap3\n      swap2\n      pop\n      pop\n      jump\t// out\n        /* \"#utility.yul\":3564:3687   */\n    tag_207:\n        /* \"#utility.yul\":3644:3648   */\n      0x00\n        /* \"#utility.yul\":3676:3680   */\n      0x20\n        /* \"#utility.yul\":3671:3674   */\n      dup3\n        /* \"#utility.yul\":3667:3681   */\n      add\n        /* \"#utility.yul\":3659:3681   */\n      swap1\n      pop\n        /* \"#utility.yul\":3564:3687   */\n      swap2\n      swap1\n      pop\n      jump\t// out\n        /* \"#utility.yul\":3721:4692   */\n    tag_208:\n        /* \"#utility.yul\":3850:3853   */\n      0x00\n        /* \"#utility.yul\":3879:3943   */\n      tag_289\n        /* \"#utility.yul\":3937:3942   */\n      dup3\n        /* \"#utility.yul\":3879:3943   */\n      tag_203\n      jump\t// in\n    tag_289:\n        /* \"#utility.yul\":3959:4045   */\n      tag_290\n        /* \"#utility.yul\":4038:4044   */\n      dup2\n        /* \"#utility.yul\":4033:4036   */\n      dup6\n        /* \"#utility.yul\":3959:4045   */\n      tag_204\n      jump\t// in\n    tag_290:\n        /* \"#utility.yul\":3952:4045   */\n      swap4\n      pop\n        /* \"#utility.yul\":4071:4074   */\n      dup4\n        /* \"#utility.yul\":4116:4120   */\n      0x20\n        /* \"#utility.yul\":4108:4114   */\n      dup3\n        /* \"#utility.yul\":4104:4121   */\n      mul\n        /* \"#utility.yul\":4099:4102   */\n      dup6\n        /* \"#utility.yul\":4095:4122   */\n      add\n        /* \"#utility.yul\":4146:4212   */\n      tag_291\n        /* \"#utility.yul\":4206:4211   */\n      dup6\n        /* \"#utility.yul\":4146:4212   */\n      tag_205\n      jump\t// in\n    tag_291:\n        /* \"#utility.yul\":4235:4242   */\n      dup1\n        /* \"#utility.yul\":4266:4267   */\n      0x00\n        /* \"#utility.yul\":4251:4647   */\n    tag_292:\n        /* \"#utility.yul\":4276:4282   */\n      dup6\n        /* \"#utility.yul\":4273:4274   */\n      dup2\n        /* \"#utility.yul\":4270:4283   */\n      lt\n        /* \"#utility.yul\":4251:4647   */\n      iszero\n      tag_294\n      jumpi\n        /* \"#utility.yul\":4347:4356   */\n      dup5\n        /* \"#utility.yul\":4341:4345   */\n      dup5\n        /* \"#utility.yul\":4337:4357   */\n      sub\n        /* \"#utility.yul\":4332:4335   */\n      dup10\n        /* \"#utility.yul\":4325:4358   */\n      mstore\n        /* \"#utility.yul\":4398:4404   */\n      dup2\n        /* \"#utility.yul\":4392:4405   */\n      mload\n        /* \"#utility.yul\":4426:4510   */\n      tag_295\n        /* \"#utility.yul\":4505:4509   */\n      dup6\n        /* \"#utility.yul\":4490:4503   */\n      dup3\n        /* \"#utility.yul\":4426:4510   */\n      tag_206\n      jump\t// in\n    tag_295:\n        /* \"#utility.yul\":4418:4510   */\n      swap5\n      pop\n        /* \"#utility.yul\":4533:4603   */\n      tag_296\n        /* \"#utility.yul\":4596:4602   */\n      dup4\n        /* \"#utility.yul\":4533:4603   */\n      tag_207\n      jump\t// in\n    tag_296:\n        /* \"#utility.yul\":4523:4603   */\n      swap3\n      pop\n        /* \"#utility.yul\":4632:4636   */\n      0x20\n        /* \"#utility.yul\":4627:4630   */\n      dup11\n        /* \"#utility.yul\":4623:4637   */\n      add\n        /* \"#utility.yul\":4616:4637   */\n      swap10\n      pop\n        /* \"#utility.yul\":4311:4647   */\n      pop\n        /* \"#utility.yul\":4298:4299   */\n      0x01\n        /* \"#utility.yul\":4295:4296   */\n      dup2\n        /* \"#utility.yul\":4291:4300   */\n      add\n        /* \"#utility.yul\":4286:4300   */\n      swap1\n      pop\n        /* \"#utility.yul\":4251:4647   */\n      jump(tag_292)\n    tag_294:\n        /* \"#utility.yul\":4255:4269   */\n      pop\n        /* \"#utility.yul\":4663:4667   */\n      dup3\n        /* \"#utility.yul\":4656:4667   */\n      swap8\n      pop\n        /* \"#utility.yul\":4683:4686   */\n      dup8\n        /* \"#utility.yul\":4676:4686   */\n      swap6\n      pop\n        /* \"#utility.yul\":3855:4692   */\n      pop\n      pop\n      pop\n      pop\n      pop\n        /* \"#utility.yul\":3721:4692   */\n      swap3\n      swap2\n      pop\n      pop\n      jump\t// out\n        /* \"#utility.yul\":4750:6058   */\n    tag_209:\n        /* \"#utility.yul\":4855:4858   */\n      0x00\n        /* \"#utility.yul\":4891:4895   */\n      0xa0\n        /* \"#utility.yul\":4886:4889   */\n      dup4\n        /* \"#utility.yul\":4882:4896   */\n      add\n        /* \"#utility.yul\":4978:4982   */\n      0x00\n        /* \"#utility.yul\":4971:4976   */\n      dup4\n        /* \"#utility.yul\":4967:4983   */\n      add\n        /* \"#utility.yul\":4961:4984   */\n      mload\n        /* \"#utility.yul\":5031:5034   */\n      dup5\n        /* \"#utility.yul\":5025:5029   */\n      dup3\n        /* \"#utility.yul\":5021:5035   */\n      sub\n        /* \"#utility.yul\":5014:5018   */\n      0x00\n        /* \"#utility.yul\":5009:5012   */\n      dup7\n        /* \"#utility.yul\":5005:5019   */\n      add\n        /* \"#utility.yul\":4998:5036   */\n      mstore\n        /* \"#utility.yul\":5057:5130   */\n      tag_298\n        /* \"#utility.yul\":5125:5129   */\n      dup3\n        /* \"#utility.yul\":5111:5123   */\n      dup3\n        /* \"#utility.yul\":5057:5130   */\n      tag_201\n      jump\t// in\n    tag_298:\n        /* \"#utility.yul\":5049:5130   */\n      swap2\n      pop\n        /* \"#utility.yul\":4906:5141   */\n      pop\n        /* \"#utility.yul\":5222:5226   */\n      0x20\n        /* \"#utility.yul\":5215:5220   */\n      dup4\n        /* \"#utility.yul\":5211:5227   */\n      add\n        /* \"#utility.yul\":5205:5228   */\n      mload\n        /* \"#utility.yul\":5241:5304   */\n      tag_299\n        /* \"#utility.yul\":5298:5302   */\n      0x20\n        /* \"#utility.yul\":5293:5296   */\n      dup7\n        /* \"#utility.yul\":5289:5303   */\n      add\n        /* \"#utility.yul\":5275:5287   */\n      dup3\n        /* \"#utility.yul\":5241:5304   */\n      tag_202\n      jump\t// in\n    tag_299:\n        /* \"#utility.yul\":5151:5314   */\n      pop\n        /* \"#utility.yul\":5397:5401   */\n      0x40\n        /* \"#utility.yul\":5390:5395   */\n      dup4\n        /* \"#utility.yul\":5386:5402   */\n      add\n        /* \"#utility.yul\":5380:5403   */\n      mload\n        /* \"#utility.yul\":5416:5479   */\n      tag_300\n        /* \"#utility.yul\":5473:5477   */\n      0x40\n        /* \"#utility.yul\":5468:5471   */\n      dup7\n        /* \"#utility.yul\":5464:5478   */\n      add\n        /* \"#utility.yul\":5450:5462   */\n      dup3\n        /* \"#utility.yul\":5416:5479   */\n      tag_202\n      jump\t// in\n    tag_300:\n        /* \"#utility.yul\":5324:5489   */\n      pop\n        /* \"#utility.yul\":5572:5576   */\n      0x60\n        /* \"#utility.yul\":5565:5570   */\n      dup4\n        /* \"#utility.yul\":5561:5577   */\n      add\n        /* \"#utility.yul\":5555:5578   */\n      mload\n        /* \"#utility.yul\":5625:5628   */\n      dup5\n        /* \"#utility.yul\":5619:5623   */\n      dup3\n        /* \"#utility.yul\":5615:5629   */\n      sub\n        /* \"#utility.yul\":5608:5612   */\n      0x60\n        /* \"#utility.yul\":5603:5606   */\n      dup7\n        /* \"#utility.yul\":5599:5613   */\n      add\n        /* \"#utility.yul\":5592:5630   */\n      mstore\n        /* \"#utility.yul\":5651:5724   */\n      tag_301\n        /* \"#utility.yul\":5719:5723   */\n      dup3\n        /* \"#utility.yul\":5705:5717   */\n      dup3\n        /* \"#utility.yul\":5651:5724   */\n      tag_201\n      jump\t// in\n    tag_301:\n        /* \"#utility.yul\":5643:5724   */\n      swap2\n      pop\n        /* \"#utility.yul\":5499:5735   */\n      pop\n        /* \"#utility.yul\":5818:5822   */\n      0x80\n        /* \"#utility.yul\":5811:5816   */\n      dup4\n        /* \"#utility.yul\":5807:5823   */\n      add\n        /* \"#utility.yul\":5801:5824   */\n      mload\n        /* \"#utility.yul\":5871:5874   */\n      dup5\n        /* \"#utility.yul\":5865:5869   */\n      dup3\n        /* \"#utility.yul\":5861:5875   */\n      sub\n        /* \"#utility.yul\":5854:5858   */\n      0x80\n        /* \"#utility.yul\":5849:5852   */\n      dup7\n        /* \"#utility.yul\":5845:5859   */\n      add\n        /* \"#utility.yul\":5838:5876   */\n      mstore\n        /* \"#utility.yul\":5897:6020   */\n      tag_302\n        /* \"#utility.yul\":6015:6019   */\n      dup3\n        /* \"#utility.yul\":6001:6013   */\n      dup3\n        /* \"#utility.yul\":5897:6020   */\n      tag_208\n      jump\t// in\n    tag_302:\n        /* \"#utility.yul\":5889:6020   */\n      swap2\n      pop\n        /* \"#utility.yul\":5745:6031   */\n      pop\n        /* \"#utility.yul\":6048:6052   */\n      dup1\n        /* \"#utility.yul\":6041:6052   */\n      swap2\n      pop\n        /* \"#utility.yul\":4860:6058   */\n      pop\n        /* \"#utility.yul\":4750:6058   */\n      swap3\n      swap2\n      pop\n      pop\n      jump\t// out\n        /* \"#utility.yul\":6064:6312   */\n    tag_210:\n        /* \"#utility.yul\":6179:6189   */\n      0x00\n        /* \"#utility.yul\":6214:6306   */\n      tag_304\n        /* \"#utility.yul\":6302:6305   */\n      dup4\n        /* \"#utility.yul\":6294:6300   */\n      dup4\n        /* \"#utility.yul\":6214:6306   */\n      tag_209\n      jump\t// in\n    tag_304:\n        /* \"#utility.yul\":6200:6306   */\n      swap1\n      pop\n        /* \"#utility.yul\":6064:6312   */\n      swap3\n      swap2\n      pop\n      pop\n      jump\t// out\n        /* \"#utility.yul\":6318:6454   */\n    tag_211:\n        /* \"#utility.yul\":6411:6415   */\n      0x00\n        /* \"#utility.yul\":6443:6447   */\n      0x20\n        /* \"#utility.yul\":6438:6441   */\n      dup3\n        /* \"#utility.yul\":6434:6448   */\n      add\n        /* \"#utility.yul\":6426:6448   */\n      swap1\n      pop\n        /* \"#utility.yul\":6318:6454   */\n      swap2\n      swap1\n      pop\n      jump\t// out\n        /* \"#utility.yul\":6516:7611   */\n    tag_212:\n        /* \"#utility.yul\":6681:6684   */\n      0x00\n        /* \"#utility.yul\":6710:6787   */\n      tag_307\n        /* \"#utility.yul\":6781:6786   */\n      dup3\n        /* \"#utility.yul\":6710:6787   */\n      tag_194\n      jump\t// in\n    tag_307:\n        /* \"#utility.yul\":6803:6912   */\n      tag_308\n        /* \"#utility.yul\":6905:6911   */\n      dup2\n        /* \"#utility.yul\":6900:6903   */\n      dup6\n        /* \"#utility.yul\":6803:6912   */\n      tag_195\n      jump\t// in\n    tag_308:\n        /* \"#utility.yul\":6796:6912   */\n      swap4\n      pop\n        /* \"#utility.yul\":6938:6941   */\n      dup4\n        /* \"#utility.yul\":6983:6987   */\n      0x20\n        /* \"#utility.yul\":6975:6981   */\n      dup3\n        /* \"#utility.yul\":6971:6988   */\n      mul\n        /* \"#utility.yul\":6966:6969   */\n      dup6\n        /* \"#utility.yul\":6962:6989   */\n      add\n        /* \"#utility.yul\":7013:7092   */\n      tag_309\n        /* \"#utility.yul\":7086:7091   */\n      dup6\n        /* \"#utility.yul\":7013:7092   */\n      tag_196\n      jump\t// in\n    tag_309:\n        /* \"#utility.yul\":7115:7122   */\n      dup1\n        /* \"#utility.yul\":7146:7147   */\n      0x00\n        /* \"#utility.yul\":7131:7566   */\n    tag_310:\n        /* \"#utility.yul\":7156:7162   */\n      dup6\n        /* \"#utility.yul\":7153:7154   */\n      dup2\n        /* \"#utility.yul\":7150:7163   */\n      lt\n        /* \"#utility.yul\":7131:7566   */\n      iszero\n      tag_312\n      jumpi\n        /* \"#utility.yul\":7227:7236   */\n      dup5\n        /* \"#utility.yul\":7221:7225   */\n      dup5\n        /* \"#utility.yul\":7217:7237   */\n      sub\n        /* \"#utility.yul\":7212:7215   */\n      dup10\n        /* \"#utility.yul\":7205:7238   */\n      mstore\n        /* \"#utility.yul\":7278:7284   */\n      dup2\n        /* \"#utility.yul\":7272:7285   */\n      mload\n        /* \"#utility.yul\":7306:7416   */\n      tag_313\n        /* \"#utility.yul\":7411:7415   */\n      dup6\n        /* \"#utility.yul\":7396:7409   */\n      dup3\n        /* \"#utility.yul\":7306:7416   */\n      tag_210\n      jump\t// in\n    tag_313:\n        /* \"#utility.yul\":7298:7416   */\n      swap5\n      pop\n        /* \"#utility.yul\":7439:7522   */\n      tag_314\n        /* \"#utility.yul\":7515:7521   */\n      dup4\n        /* \"#utility.yul\":7439:7522   */\n      tag_211\n      jump\t// in\n    tag_314:\n        /* \"#utility.yul\":7429:7522   */\n      swap3\n      pop\n        /* \"#utility.yul\":7551:7555   */\n      0x20\n        /* \"#utility.yul\":7546:7549   */\n      dup11\n        /* \"#utility.yul\":7542:7556   */\n      add\n        /* \"#utility.yul\":7535:7556   */\n      swap10\n      pop\n        /* \"#utility.yul\":7191:7566   */\n      pop\n        /* \"#utility.yul\":7178:7179   */\n      0x01\n        /* \"#utility.yul\":7175:7176   */\n      dup2\n        /* \"#utility.yul\":7171:7180   */\n      add\n        /* \"#utility.yul\":7166:7180   */\n      swap1\n      pop\n        /* \"#utility.yul\":7131:7566   */\n      jump(tag_310)\n    tag_312:\n        /* \"#utility.yul\":7135:7149   */\n      pop\n        /* \"#utility.yul\":7582:7586   */\n      dup3\n        /* \"#utility.yul\":7575:7586   */\n      swap8\n      pop\n        /* \"#utility.yul\":7602:7605   */\n      dup8\n        /* \"#utility.yul\":7595:7605   */\n      swap6\n      pop\n        /* \"#utility.yul\":6686:7611   */\n      pop\n      pop\n      pop\n      pop\n      pop\n        /* \"#utility.yul\":6516:7611   */\n      swap3\n      swap2\n      pop\n      pop\n      jump\t// out\n        /* \"#utility.yul\":7617:8082   */\n    tag_24:\n        /* \"#utility.yul\":7806:7810   */\n      0x00\n        /* \"#utility.yul\":7844:7846   */\n      0x20\n        /* \"#utility.yul\":7833:7842   */\n      dup3\n        /* \"#utility.yul\":7829:7847   */\n      add\n        /* \"#utility.yul\":7821:7847   */\n      swap1\n      pop\n        /* \"#utility.yul\":7893:7902   */\n      dup2\n        /* \"#utility.yul\":7887:7891   */\n      dup2\n        /* \"#utility.yul\":7883:7903   */\n      sub\n        /* \"#utility.yul\":7879:7880   */\n      0x00\n        /* \"#utility.yul\":7868:7877   */\n      dup4\n        /* \"#utility.yul\":7864:7881   */\n      add\n        /* \"#utility.yul\":7857:7904   */\n      mstore\n        /* \"#utility.yul\":7921:8075   */\n      tag_316\n        /* \"#utility.yul\":8070:8074   */\n      dup2\n        /* \"#utility.yul\":8061:8067   */\n      dup5\n        /* \"#utility.yul\":7921:8075   */\n      tag_212\n      jump\t// in\n    tag_316:\n        /* \"#utility.yul\":7913:8075   */\n      swap1\n      pop\n        /* \"#utility.yul\":7617:8082   */\n      swap3\n      swap2\n      pop\n      pop\n      jump\t// out\n        /* \"#utility.yul\":8088:8205   */\n    tag_213:\n        /* \"#utility.yul\":8197:8198   */\n      0x00\n        /* \"#utility.yul\":8194:8195   */\n      dup1\n        /* \"#utility.yul\":8187:8199   */\n      revert\n        /* \"#utility.yul\":8211:8328   */\n    tag_214:\n        /* \"#utility.yul\":8320:8321   */\n      0x00\n        /* \"#utility.yul\":8317:8318   */\n      dup1\n        /* \"#utility.yul\":8310:8322   */\n      revert\n        /* \"#utility.yul\":8334:8514   */\n    tag_215:\n        /* \"#utility.yul\":8382:8459   */\n      0x4e487b7100000000000000000000000000000000000000000000000000000000\n        /* \"#utility.yul\":8379:8380   */\n      0x00\n        /* \"#utility.yul\":8372:8460   */\n      mstore\n        /* \"#utility.yul\":8479:8483   */\n      0x41\n        /* \"#utility.yul\":8476:8477   */\n      0x04\n        /* \"#utility.yul\":8469:8484   */\n      mstore\n        /* \"#utility.yul\":8503:8507   */\n      0x24\n        /* \"#utility.yul\":8500:8501   */\n      0x00\n        /* \"#utility.yul\":8493:8508   */\n      revert\n        /* \"#utility.yul\":8520:8801   */\n    tag_216:\n        /* \"#utility.yul\":8603:8630   */\n      tag_321\n        /* \"#utility.yul\":8625:8629   */\n      dup3\n        /* \"#utility.yul\":8603:8630   */\n      tag_200\n      jump\t// in\n    tag_321:\n        /* \"#utility.yul\":8595:8601   */\n      dup2\n        /* \"#utility.yul\":8591:8631   */\n      add\n        /* \"#utility.yul\":8733:8739   */\n      dup2\n        /* \"#utility.yul\":8721:8731   */\n      dup2\n        /* \"#utility.yul\":8718:8740   */\n      lt\n        /* \"#utility.yul\":8697:8715   */\n      0xffffffffffffffff\n        /* \"#utility.yul\":8685:8695   */\n      dup3\n        /* \"#utility.yul\":8682:8716   */\n      gt\n        /* \"#utility.yul\":8679:8741   */\n      or\n        /* \"#utility.yul\":8676:8764   */\n      iszero\n      tag_322\n      jumpi\n        /* \"#utility.yul\":8744:8762   */\n      tag_323\n      tag_215\n      jump\t// in\n    tag_323:\n        /* \"#utility.yul\":8676:8764   */\n    tag_322:\n        /* \"#utility.yul\":8784:8794   */\n      dup1\n        /* \"#utility.yul\":8780:8782   */\n      0x40\n        /* \"#utility.yul\":8773:8795   */\n      mstore\n        /* \"#utility.yul\":8563:8801   */\n      pop\n        /* \"#utility.yul\":8520:8801   */\n      pop\n      pop\n      jump\t// out\n        /* \"#utility.yul\":8807:8936   */\n    tag_217:\n        /* \"#utility.yul\":8841:8847   */\n      0x00\n        /* \"#utility.yul\":8868:8888   */\n      tag_325\n      tag_187\n      jump\t// in\n    tag_325:\n        /* \"#utility.yul\":8858:8888   */\n      swap1\n      pop\n        /* \"#utility.yul\":8897:8930   */\n      tag_326\n        /* \"#utility.yul\":8925:8929   */\n      dup3\n        /* \"#utility.yul\":8917:8923   */\n      dup3\n        /* \"#utility.yul\":8897:8930   */\n      tag_216\n      jump\t// in\n    tag_326:\n        /* \"#utility.yul\":8807:8936   */\n      swap2\n      swap1\n      pop\n      jump\t// out\n        /* \"#utility.yul\":8942:9250   */\n    tag_218:\n        /* \"#utility.yul\":9004:9008   */\n      0x00\n        /* \"#utility.yul\":9094:9112   */\n      0xffffffffffffffff\n        /* \"#utility.yul\":9086:9092   */\n      dup3\n        /* \"#utility.yul\":9083:9113   */\n      gt\n        /* \"#utility.yul\":9080:9136   */\n      iszero\n      tag_328\n      jumpi\n        /* \"#utility.yul\":9116:9134   */\n      tag_329\n      tag_215\n      jump\t// in\n    tag_329:\n        /* \"#utility.yul\":9080:9136   */\n    tag_328:\n        /* \"#utility.yul\":9154:9183   */\n      tag_330\n        /* \"#utility.yul\":9176:9182   */\n      dup3\n        /* \"#utility.yul\":9154:9183   */\n      tag_200\n      jump\t// in\n    tag_330:\n        /* \"#utility.yul\":9146:9183   */\n      swap1\n      pop\n        /* \"#utility.yul\":9238:9242   */\n      0x20\n        /* \"#utility.yul\":9232:9236   */\n      dup2\n        /* \"#utility.yul\":9228:9243   */\n      add\n        /* \"#utility.yul\":9220:9243   */\n      swap1\n      pop\n        /* \"#utility.yul\":8942:9250   */\n      swap2\n      swap1\n      pop\n      jump\t// out\n        /* \"#utility.yul\":9256:9404   */\n    tag_219:\n        /* \"#utility.yul\":9354:9360   */\n      dup3\n        /* \"#utility.yul\":9349:9352   */\n      dup2\n        /* \"#utility.yul\":9344:9347   */\n      dup4\n        /* \"#utility.yul\":9331:9361   */\n      calldatacopy\n        /* \"#utility.yul\":9395:9396   */\n      0x00\n        /* \"#utility.yul\":9386:9392   */\n      dup4\n        /* \"#utility.yul\":9381:9384   */\n      dup4\n        /* \"#utility.yul\":9377:9393   */\n      add\n        /* \"#utility.yul\":9370:9397   */\n      mstore\n        /* \"#utility.yul\":9256:9404   */\n      pop\n      pop\n      pop\n      jump\t// out\n        /* \"#utility.yul\":9410:9835   */\n    tag_220:\n        /* \"#utility.yul\":9488:9493   */\n      0x00\n        /* \"#utility.yul\":9513:9579   */\n      tag_333\n        /* \"#utility.yul\":9529:9578   */\n      tag_334\n        /* \"#utility.yul\":9571:9577   */\n      dup5\n        /* \"#utility.yul\":9529:9578   */\n      tag_218\n      jump\t// in\n    tag_334:\n        /* \"#utility.yul\":9513:9579   */\n      tag_217\n      jump\t// in\n    tag_333:\n        /* \"#utility.yul\":9504:9579   */\n      swap1\n      pop\n        /* \"#utility.yul\":9602:9608   */\n      dup3\n        /* \"#utility.yul\":9595:9600   */\n      dup2\n        /* \"#utility.yul\":9588:9609   */\n      mstore\n        /* \"#utility.yul\":9640:9644   */\n      0x20\n        /* \"#utility.yul\":9633:9638   */\n      dup2\n        /* \"#utility.yul\":9629:9645   */\n      add\n        /* \"#utility.yul\":9678:9681   */\n      dup5\n        /* \"#utility.yul\":9669:9675   */\n      dup5\n        /* \"#utility.yul\":9664:9667   */\n      dup5\n        /* \"#utility.yul\":9660:9676   */\n      add\n        /* \"#utility.yul\":9657:9682   */\n      gt\n        /* \"#utility.yul\":9654:9766   */\n      iszero\n      tag_335\n      jumpi\n        /* \"#utility.yul\":9685:9764   */\n      tag_336\n      tag_214\n      jump\t// in\n    tag_336:\n        /* \"#utility.yul\":9654:9766   */\n    tag_335:\n        /* \"#utility.yul\":9775:9829   */\n      tag_337\n        /* \"#utility.yul\":9822:9828   */\n      dup5\n        /* \"#utility.yul\":9817:9820   */\n      dup3\n        /* \"#utility.yul\":9812:9815   */\n      dup6\n        /* \"#utility.yul\":9775:9829   */\n      tag_219\n      jump\t// in\n    tag_337:\n        /* \"#utility.yul\":9494:9835   */\n      pop\n        /* \"#utility.yul\":9410:9835   */\n      swap4\n      swap3\n      pop\n      pop\n      pop\n      jump\t// out\n        /* \"#utility.yul\":9855:10195   */\n    tag_221:\n        /* \"#utility.yul\":9911:9916   */\n      0x00\n        /* \"#utility.yul\":9960:9963   */\n      dup3\n        /* \"#utility.yul\":9953:9957   */\n      0x1f\n        /* \"#utility.yul\":9945:9951   */\n      dup4\n        /* \"#utility.yul\":9941:9958   */\n      add\n        /* \"#utility.yul\":9937:9964   */\n      slt\n        /* \"#utility.yul\":9927:10049   */\n      tag_339\n      jumpi\n        /* \"#utility.yul\":9968:10047   */\n      tag_340\n      tag_213\n      jump\t// in\n    tag_340:\n        /* \"#utility.yul\":9927:10049   */\n    tag_339:\n        /* \"#utility.yul\":10085:10091   */\n      dup2\n        /* \"#utility.yul\":10072:10092   */\n      calldataload\n        /* \"#utility.yul\":10110:10189   */\n      tag_341\n        /* \"#utility.yul\":10185:10188   */\n      dup5\n        /* \"#utility.yul\":10177:10183   */\n      dup3\n        /* \"#utility.yul\":10170:10174   */\n      0x20\n        /* \"#utility.yul\":10162:10168   */\n      dup7\n        /* \"#utility.yul\":10158:10175   */\n      add\n        /* \"#utility.yul\":10110:10189   */\n      tag_220\n      jump\t// in\n    tag_341:\n        /* \"#utility.yul\":10101:10189   */\n      swap2\n      pop\n        /* \"#utility.yul\":9917:10195   */\n      pop\n        /* \"#utility.yul\":9855:10195   */\n      swap3\n      swap2\n      pop\n      pop\n      jump\t// out\n        /* \"#utility.yul\":10201:10710   */\n    tag_27:\n        /* \"#utility.yul\":10270:10276   */\n      0x00\n        /* \"#utility.yul\":10319:10321   */\n      0x20\n        /* \"#utility.yul\":10307:10316   */\n      dup3\n        /* \"#utility.yul\":10298:10305   */\n      dup5\n        /* \"#utility.yul\":10294:10317   */\n      sub\n        /* \"#utility.yul\":10290:10322   */\n      slt\n        /* \"#utility.yul\":10287:10406   */\n      iszero\n      tag_343\n      jumpi\n        /* \"#utility.yul\":10325:10404   */\n      tag_344\n      tag_188\n      jump\t// in\n    tag_344:\n        /* \"#utility.yul\":10287:10406   */\n    tag_343:\n        /* \"#utility.yul\":10473:10474   */\n      0x00\n        /* \"#utility.yul\":10462:10471   */\n      dup3\n        /* \"#utility.yul\":10458:10475   */\n      add\n        /* \"#utility.yul\":10445:10476   */\n      calldataload\n        /* \"#utility.yul\":10503:10521   */\n      0xffffffffffffffff\n        /* \"#utility.yul\":10495:10501   */\n      dup2\n        /* \"#utility.yul\":10492:10522   */\n      gt\n        /* \"#utility.yul\":10489:10606   */\n      iszero\n      tag_345\n      jumpi\n        /* \"#utility.yul\":10525:10604   */\n      tag_346\n      tag_189\n      jump\t// in\n    tag_346:\n        /* \"#utility.yul\":10489:10606   */\n    tag_345:\n        /* \"#utility.yul\":10630:10693   */\n      tag_347\n        /* \"#utility.yul\":10685:10692   */\n      dup5\n        /* \"#utility.yul\":10676:10682   */\n      dup3\n        /* \"#utility.yul\":10665:10674   */\n      dup6\n        /* \"#utility.yul\":10661:10683   */\n      add\n        /* \"#utility.yul\":10630:10693   */\n      tag_221\n      jump\t// in\n    tag_347:\n        /* \"#utility.yul\":10620:10693   */\n      swap2\n      pop\n        /* \"#utility.yul\":10416:10703   */\n      pop\n        /* \"#utility.yul\":10201:10710   */\n      swap3\n      swap2\n      pop\n      pop\n      jump\t// out\n        /* \"#utility.yul\":10716:11291   */\n    tag_37:\n        /* \"#utility.yul\":10933:10937   */\n      0x00\n        /* \"#utility.yul\":10971:10973   */\n      0x40\n        /* \"#utility.yul\":10960:10969   */\n      dup3\n        /* \"#utility.yul\":10956:10974   */\n      add\n        /* \"#utility.yul\":10948:10974   */\n      swap1\n      pop\n        /* \"#utility.yul\":10984:11055   */\n      tag_349\n        /* \"#utility.yul\":11052:11053   */\n      0x00\n        /* \"#utility.yul\":11041:11050   */\n      dup4\n        /* \"#utility.yul\":11037:11054   */\n      add\n        /* \"#utility.yul\":11028:11034   */\n      dup6\n        /* \"#utility.yul\":10984:11055   */\n      tag_193\n      jump\t// in\n    tag_349:\n        /* \"#utility.yul\":11102:11111   */\n      dup2\n        /* \"#utility.yul\":11096:11100   */\n      dup2\n        /* \"#utility.yul\":11092:11112   */\n      sub\n        /* \"#utility.yul\":11087:11089   */\n      0x20\n        /* \"#utility.yul\":11076:11085   */\n      dup4\n        /* \"#utility.yul\":11072:11090   */\n      add\n        /* \"#utility.yul\":11065:11113   */\n      mstore\n        /* \"#utility.yul\":11130:11284   */\n      tag_350\n        /* \"#utility.yul\":11279:11283   */\n      dup2\n        /* \"#utility.yul\":11270:11276   */\n      dup5\n        /* \"#utility.yul\":11130:11284   */\n      tag_212\n      jump\t// in\n    tag_350:\n        /* \"#utility.yul\":11122:11284   */\n      swap1\n      pop\n        /* \"#utility.yul\":10716:11291   */\n      swap4\n      swap3\n      pop\n      pop\n      pop\n      jump\t// out\n        /* \"#utility.yul\":11297:11466   */\n    tag_222:\n        /* \"#utility.yul\":11381:11392   */\n      0x00\n        /* \"#utility.yul\":11415:11421   */\n      dup3\n        /* \"#utility.yul\":11410:11413   */\n      dup3\n        /* \"#utility.yul\":11403:11422   */\n      mstore\n        /* \"#utility.yul\":11455:11459   */\n      0x20\n        /* \"#utility.yul\":11450:11453   */\n      dup3\n        /* \"#utility.yul\":11446:11460   */\n      add\n        /* \"#utility.yul\":11431:11460   */\n      swap1\n      pop\n        /* \"#utility.yul\":11297:11466   */\n      swap3\n      swap2\n      pop\n      pop\n      jump\t// out\n        /* \"#utility.yul\":11472:11849   */\n    tag_223:\n        /* \"#utility.yul\":11560:11563   */\n      0x00\n        /* \"#utility.yul\":11588:11627   */\n      tag_353\n        /* \"#utility.yul\":11621:11626   */\n      dup3\n        /* \"#utility.yul\":11588:11627   */\n      tag_197\n      jump\t// in\n    tag_353:\n        /* \"#utility.yul\":11643:11714   */\n      tag_354\n        /* \"#utility.yul\":11707:11713   */\n      dup2\n        /* \"#utility.yul\":11702:11705   */\n      dup6\n        /* \"#utility.yul\":11643:11714   */\n      tag_222\n      jump\t// in\n    tag_354:\n        /* \"#utility.yul\":11636:11714   */\n      swap4\n      pop\n        /* \"#utility.yul\":11723:11788   */\n      tag_355\n        /* \"#utility.yul\":11781:11787   */\n      dup2\n        /* \"#utility.yul\":11776:11779   */\n      dup6\n        /* \"#utility.yul\":11769:11773   */\n      0x20\n        /* \"#utility.yul\":11762:11767   */\n      dup7\n        /* \"#utility.yul\":11758:11774   */\n      add\n        /* \"#utility.yul\":11723:11788   */\n      tag_199\n      jump\t// in\n    tag_355:\n        /* \"#utility.yul\":11813:11842   */\n      tag_356\n        /* \"#utility.yul\":11835:11841   */\n      dup2\n        /* \"#utility.yul\":11813:11842   */\n      tag_200\n      jump\t// in\n    tag_356:\n        /* \"#utility.yul\":11808:11811   */\n      dup5\n        /* \"#utility.yul\":11804:11843   */\n      add\n        /* \"#utility.yul\":11797:11843   */\n      swap2\n      pop\n        /* \"#utility.yul\":11564:11849   */\n      pop\n        /* \"#utility.yul\":11472:11849   */\n      swap3\n      swap2\n      pop\n      pop\n      jump\t// out\n        /* \"#utility.yul\":11855:12168   */\n    tag_42:\n        /* \"#utility.yul\":11968:11972   */\n      0x00\n        /* \"#utility.yul\":12006:12008   */\n      0x20\n        /* \"#utility.yul\":11995:12004   */\n      dup3\n        /* \"#utility.yul\":11991:12009   */\n      add\n        /* \"#utility.yul\":11983:12009   */\n      swap1\n      pop\n        /* \"#utility.yul\":12055:12064   */\n      dup2\n        /* \"#utility.yul\":12049:12053   */\n      dup2\n        /* \"#utility.yul\":12045:12065   */\n      sub\n        /* \"#utility.yul\":12041:12042   */\n      0x00\n        /* \"#utility.yul\":12030:12039   */\n      dup4\n        /* \"#utility.yul\":12026:12043   */\n      add\n        /* \"#utility.yul\":12019:12066   */\n      mstore\n        /* \"#utility.yul\":12083:12161   */\n      tag_358\n        /* \"#utility.yul\":12156:12160   */\n      dup2\n        /* \"#utility.yul\":12147:12153   */\n      dup5\n        /* \"#utility.yul\":12083:12161   */\n      tag_223\n      jump\t// in\n    tag_358:\n        /* \"#utility.yul\":12075:12161   */\n      swap1\n      pop\n        /* \"#utility.yul\":11855:12168   */\n      swap3\n      swap2\n      pop\n      pop\n      jump\t// out\n        /* \"#utility.yul\":12174:12495   */\n    tag_224:\n        /* \"#utility.yul\":12261:12265   */\n      0x00\n        /* \"#utility.yul\":12351:12369   */\n      0xffffffffffffffff\n        /* \"#utility.yul\":12343:12349   */\n      dup3\n        /* \"#utility.yul\":12340:12370   */\n      gt\n        /* \"#utility.yul\":12337:12393   */\n      iszero\n      tag_360\n      jumpi\n        /* \"#utility.yul\":12373:12391   */\n      tag_361\n      tag_215\n      jump\t// in\n    tag_361:\n        /* \"#utility.yul\":12337:12393   */\n    tag_360:\n        /* \"#utility.yul\":12423:12427   */\n      0x20\n        /* \"#utility.yul\":12415:12421   */\n      dup3\n        /* \"#utility.yul\":12411:12428   */\n      mul\n        /* \"#utility.yul\":12403:12428   */\n      swap1\n      pop\n        /* \"#utility.yul\":12483:12487   */\n      0x20\n        /* \"#utility.yul\":12477:12481   */\n      dup2\n        /* \"#utility.yul\":12473:12488   */\n      add\n        /* \"#utility.yul\":12465:12488   */\n      swap1\n      pop\n        /* \"#utility.yul\":12174:12495   */\n      swap2\n      swap1\n      pop\n      jump\t// out\n        /* \"#utility.yul\":12501:12618   */\n    tag_225:\n        /* \"#utility.yul\":12610:12611   */\n      0x00\n        /* \"#utility.yul\":12607:12608   */\n      dup1\n        /* \"#utility.yul\":12600:12612   */\n      revert\n        /* \"#utility.yul\":12640:13585   */\n    tag_226:\n        /* \"#utility.yul\":12746:12751   */\n      0x00\n        /* \"#utility.yul\":12771:12862   */\n      tag_364\n        /* \"#utility.yul\":12787:12861   */\n      tag_365\n        /* \"#utility.yul\":12854:12860   */\n      dup5\n        /* \"#utility.yul\":12787:12861   */\n      tag_224\n      jump\t// in\n    tag_365:\n        /* \"#utility.yul\":12771:12862   */\n      tag_217\n      jump\t// in\n    tag_364:\n        /* \"#utility.yul\":12762:12862   */\n      swap1\n      pop\n        /* \"#utility.yul\":12882:12887   */\n      dup1\n        /* \"#utility.yul\":12911:12917   */\n      dup4\n        /* \"#utility.yul\":12904:12909   */\n      dup3\n        /* \"#utility.yul\":12897:12918   */\n      mstore\n        /* \"#utility.yul\":12945:12949   */\n      0x20\n        /* \"#utility.yul\":12938:12943   */\n      dup3\n        /* \"#utility.yul\":12934:12950   */\n      add\n        /* \"#utility.yul\":12927:12950   */\n      swap1\n      pop\n        /* \"#utility.yul\":12998:13002   */\n      0x20\n        /* \"#utility.yul\":12990:12996   */\n      dup5\n        /* \"#utility.yul\":12986:13003   */\n      mul\n        /* \"#utility.yul\":12978:12984   */\n      dup4\n        /* \"#utility.yul\":12974:13004   */\n      add\n        /* \"#utility.yul\":13027:13030   */\n      dup6\n        /* \"#utility.yul\":13019:13025   */\n      dup2\n        /* \"#utility.yul\":13016:13031   */\n      gt\n        /* \"#utility.yul\":13013:13135   */\n      iszero\n      tag_366\n      jumpi\n        /* \"#utility.yul\":13046:13125   */\n      tag_367\n      tag_225\n      jump\t// in\n    tag_367:\n        /* \"#utility.yul\":13013:13135   */\n    tag_366:\n        /* \"#utility.yul\":13161:13167   */\n      dup4\n        /* \"#utility.yul\":13144:13579   */\n    tag_368:\n        /* \"#utility.yul\":13178:13184   */\n      dup2\n        /* \"#utility.yul\":13173:13176   */\n      dup2\n        /* \"#utility.yul\":13170:13185   */\n      lt\n        /* \"#utility.yul\":13144:13579   */\n      iszero\n      tag_370\n      jumpi\n        /* \"#utility.yul\":13267:13270   */\n      dup1\n        /* \"#utility.yul\":13254:13271   */\n      calldataload\n        /* \"#utility.yul\":13303:13321   */\n      0xffffffffffffffff\n        /* \"#utility.yul\":13290:13301   */\n      dup2\n        /* \"#utility.yul\":13287:13322   */\n      gt\n        /* \"#utility.yul\":13284:13406   */\n      iszero\n      tag_371\n      jumpi\n        /* \"#utility.yul\":13325:13404   */\n      tag_372\n      tag_213\n      jump\t// in\n    tag_372:\n        /* \"#utility.yul\":13284:13406   */\n    tag_371:\n        /* \"#utility.yul\":13449:13460   */\n      dup1\n        /* \"#utility.yul\":13441:13447   */\n      dup7\n        /* \"#utility.yul\":13437:13461   */\n      add\n        /* \"#utility.yul\":13487:13534   */\n      tag_373\n        /* \"#utility.yul\":13530:13533   */\n      dup10\n        /* \"#utility.yul\":13518:13528   */\n      dup3\n        /* \"#utility.yul\":13487:13534   */\n      tag_221\n      jump\t// in\n    tag_373:\n        /* \"#utility.yul\":13482:13485   */\n      dup6\n        /* \"#utility.yul\":13475:13535   */\n      mstore\n        /* \"#utility.yul\":13564:13568   */\n      0x20\n        /* \"#utility.yul\":13559:13562   */\n      dup6\n        /* \"#utility.yul\":13555:13569   */\n      add\n        /* \"#utility.yul\":13548:13569   */\n      swap5\n      pop\n        /* \"#utility.yul\":13220:13579   */\n      pop\n      pop\n        /* \"#utility.yul\":13204:13208   */\n      0x20\n        /* \"#utility.yul\":13199:13202   */\n      dup2\n        /* \"#utility.yul\":13195:13209   */\n      add\n        /* \"#utility.yul\":13188:13209   */\n      swap1\n      pop\n        /* \"#utility.yul\":13144:13579   */\n      jump(tag_368)\n    tag_370:\n        /* \"#utility.yul\":13148:13169   */\n      pop\n        /* \"#utility.yul\":12752:13585   */\n      pop\n      pop\n        /* \"#utility.yul\":12640:13585   */\n      swap4\n      swap3\n      pop\n      pop\n      pop\n      jump\t// out\n        /* \"#utility.yul\":13607:13997   */\n    tag_227:\n        /* \"#utility.yul\":13688:13693   */\n      0x00\n        /* \"#utility.yul\":13737:13740   */\n      dup3\n        /* \"#utility.yul\":13730:13734   */\n      0x1f\n        /* \"#utility.yul\":13722:13728   */\n      dup4\n        /* \"#utility.yul\":13718:13735   */\n      add\n        /* \"#utility.yul\":13714:13741   */\n      slt\n        /* \"#utility.yul\":13704:13826   */\n      tag_375\n      jumpi\n        /* \"#utility.yul\":13745:13824   */\n      tag_376\n      tag_213\n      jump\t// in\n    tag_376:\n        /* \"#utility.yul\":13704:13826   */\n    tag_375:\n        /* \"#utility.yul\":13862:13868   */\n      dup2\n        /* \"#utility.yul\":13849:13869   */\n      calldataload\n        /* \"#utility.yul\":13887:13991   */\n      tag_377\n        /* \"#utility.yul\":13987:13990   */\n      dup5\n        /* \"#utility.yul\":13979:13985   */\n      dup3\n        /* \"#utility.yul\":13972:13976   */\n      0x20\n        /* \"#utility.yul\":13964:13970   */\n      dup7\n        /* \"#utility.yul\":13960:13977   */\n      add\n        /* \"#utility.yul\":13887:13991   */\n      tag_226\n      jump\t// in\n    tag_377:\n        /* \"#utility.yul\":13878:13991   */\n      swap2\n      pop\n        /* \"#utility.yul\":13694:13997   */\n      pop\n        /* \"#utility.yul\":13607:13997   */\n      swap3\n      swap2\n      pop\n      pop\n      jump\t// out\n        /* \"#utility.yul\":14003:15032   */\n    tag_45:\n        /* \"#utility.yul\":14125:14131   */\n      0x00\n        /* \"#utility.yul\":14133:14139   */\n      dup1\n        /* \"#utility.yul\":14141:14147   */\n      0x00\n        /* \"#utility.yul\":14190:14192   */\n      0x60\n        /* \"#utility.yul\":14178:14187   */\n      dup5\n        /* \"#utility.yul\":14169:14176   */\n      dup7\n        /* \"#utility.yul\":14165:14188   */\n      sub\n        /* \"#utility.yul\":14161:14193   */\n      slt\n        /* \"#utility.yul\":14158:14277   */\n      iszero\n      tag_379\n      jumpi\n        /* \"#utility.yul\":14196:14275   */\n      tag_380\n      tag_188\n      jump\t// in\n    tag_380:\n        /* \"#utility.yul\":14158:14277   */\n    tag_379:\n        /* \"#utility.yul\":14344:14345   */\n      0x00\n        /* \"#utility.yul\":14333:14342   */\n      dup5\n        /* \"#utility.yul\":14329:14346   */\n      add\n        /* \"#utility.yul\":14316:14347   */\n      calldataload\n        /* \"#utility.yul\":14374:14392   */\n      0xffffffffffffffff\n        /* \"#utility.yul\":14366:14372   */\n      dup2\n        /* \"#utility.yul\":14363:14393   */\n      gt\n        /* \"#utility.yul\":14360:14477   */\n      iszero\n      tag_381\n      jumpi\n        /* \"#utility.yul\":14396:14475   */\n      tag_382\n      tag_189\n      jump\t// in\n    tag_382:\n        /* \"#utility.yul\":14360:14477   */\n    tag_381:\n        /* \"#utility.yul\":14501:14564   */\n      tag_383\n        /* \"#utility.yul\":14556:14563   */\n      dup7\n        /* \"#utility.yul\":14547:14553   */\n      dup3\n        /* \"#utility.yul\":14536:14545   */\n      dup8\n        /* \"#utility.yul\":14532:14554   */\n      add\n        /* \"#utility.yul\":14501:14564   */\n      tag_221\n      jump\t// in\n    tag_383:\n        /* \"#utility.yul\":14491:14564   */\n      swap4\n      pop\n        /* \"#utility.yul\":14287:14574   */\n      pop\n        /* \"#utility.yul\":14613:14615   */\n      0x20\n        /* \"#utility.yul\":14639:14692   */\n      tag_384\n        /* \"#utility.yul\":14684:14691   */\n      dup7\n        /* \"#utility.yul\":14675:14681   */\n      dup3\n        /* \"#utility.yul\":14664:14673   */\n      dup8\n        /* \"#utility.yul\":14660:14682   */\n      add\n        /* \"#utility.yul\":14639:14692   */\n      tag_192\n      jump\t// in\n    tag_384:\n        /* \"#utility.yul\":14629:14692   */\n      swap3\n      pop\n        /* \"#utility.yul\":14584:14702   */\n      pop\n        /* \"#utility.yul\":14769:14771   */\n      0x40\n        /* \"#utility.yul\":14758:14767   */\n      dup5\n        /* \"#utility.yul\":14754:14772   */\n      add\n        /* \"#utility.yul\":14741:14773   */\n      calldataload\n        /* \"#utility.yul\":14800:14818   */\n      0xffffffffffffffff\n        /* \"#utility.yul\":14792:14798   */\n      dup2\n        /* \"#utility.yul\":14789:14819   */\n      gt\n        /* \"#utility.yul\":14786:14903   */\n      iszero\n      tag_385\n      jumpi\n        /* \"#utility.yul\":14822:14901   */\n      tag_386\n      tag_189\n      jump\t// in\n    tag_386:\n        /* \"#utility.yul\":14786:14903   */\n    tag_385:\n        /* \"#utility.yul\":14927:15015   */\n      tag_387\n        /* \"#utility.yul\":15007:15014   */\n      dup7\n        /* \"#utility.yul\":14998:15004   */\n      dup3\n        /* \"#utility.yul\":14987:14996   */\n      dup8\n        /* \"#utility.yul\":14983:15005   */\n      add\n        /* \"#utility.yul\":14927:15015   */\n      tag_227\n      jump\t// in\n    tag_387:\n        /* \"#utility.yul\":14917:15015   */\n      swap2\n      pop\n        /* \"#utility.yul\":14712:15025   */\n      pop\n        /* \"#utility.yul\":14003:15032   */\n      swap3\n      pop\n      swap3\n      pop\n      swap3\n      jump\t// out\n        /* \"#utility.yul\":15038:15128   */\n    tag_228:\n        /* \"#utility.yul\":15072:15079   */\n      0x00\n        /* \"#utility.yul\":15115:15120   */\n      dup2\n        /* \"#utility.yul\":15108:15121   */\n      iszero\n        /* \"#utility.yul\":15101:15122   */\n      iszero\n        /* \"#utility.yul\":15090:15122   */\n      swap1\n      pop\n        /* \"#utility.yul\":15038:15128   */\n      swap2\n      swap1\n      pop\n      jump\t// out\n        /* \"#utility.yul\":15134:15243   */\n    tag_229:\n        /* \"#utility.yul\":15215:15236   */\n      tag_390\n        /* \"#utility.yul\":15230:15235   */\n      dup2\n        /* \"#utility.yul\":15215:15236   */\n      tag_228\n      jump\t// in\n    tag_390:\n        /* \"#utility.yul\":15210:15213   */\n      dup3\n        /* \"#utility.yul\":15203:15237   */\n      mstore\n        /* \"#utility.yul\":15134:15243   */\n      pop\n      pop\n      jump\t// out\n        /* \"#utility.yul\":15249:15459   */\n    tag_54:\n        /* \"#utility.yul\":15336:15340   */\n      0x00\n        /* \"#utility.yul\":15374:15376   */\n      0x20\n        /* \"#utility.yul\":15363:15372   */\n      dup3\n        /* \"#utility.yul\":15359:15377   */\n      add\n        /* \"#utility.yul\":15351:15377   */\n      swap1\n      pop\n        /* \"#utility.yul\":15387:15452   */\n      tag_392\n        /* \"#utility.yul\":15449:15450   */\n      0x00\n        /* \"#utility.yul\":15438:15447   */\n      dup4\n        /* \"#utility.yul\":15434:15451   */\n      add\n        /* \"#utility.yul\":15425:15431   */\n      dup5\n        /* \"#utility.yul\":15387:15452   */\n      tag_229\n      jump\t// in\n    tag_392:\n        /* \"#utility.yul\":15249:15459   */\n      swap3\n      swap2\n      pop\n      pop\n      jump\t// out\n        /* \"#utility.yul\":15465:15645   */\n    tag_230:\n        /* \"#utility.yul\":15513:15590   */\n      0x4e487b7100000000000000000000000000000000000000000000000000000000\n        /* \"#utility.yul\":15510:15511   */\n      0x00\n        /* \"#utility.yul\":15503:15591   */\n      mstore\n        /* \"#utility.yul\":15610:15614   */\n      0x22\n        /* \"#utility.yul\":15607:15608   */\n      0x04\n        /* \"#utility.yul\":15600:15615   */\n      mstore\n        /* \"#utility.yul\":15634:15638   */\n      0x24\n        /* \"#utility.yul\":15631:15632   */\n      0x00\n        /* \"#utility.yul\":15624:15639   */\n      revert\n        /* \"#utility.yul\":15651:15971   */\n    tag_67:\n        /* \"#utility.yul\":15695:15701   */\n      0x00\n        /* \"#utility.yul\":15732:15733   */\n      0x02\n        /* \"#utility.yul\":15726:15730   */\n      dup3\n        /* \"#utility.yul\":15722:15734   */\n      div\n        /* \"#utility.yul\":15712:15734   */\n      swap1\n      pop\n        /* \"#utility.yul\":15779:15780   */\n      0x01\n        /* \"#utility.yul\":15773:15777   */\n      dup3\n        /* \"#utility.yul\":15769:15781   */\n      and\n        /* \"#utility.yul\":15800:15818   */\n      dup1\n        /* \"#utility.yul\":15790:15871   */\n      tag_395\n      jumpi\n        /* \"#utility.yul\":15856:15860   */\n      0x7f\n        /* \"#utility.yul\":15848:15854   */\n      dup3\n        /* \"#utility.yul\":15844:15861   */\n      and\n        /* \"#utility.yul\":15834:15861   */\n      swap2\n      pop\n        /* \"#utility.yul\":15790:15871   */\n    tag_395:\n        /* \"#utility.yul\":15918:15920   */\n      0x20\n        /* \"#utility.yul\":15910:15916   */\n      dup3\n        /* \"#utility.yul\":15907:15921   */\n      lt\n        /* \"#utility.yul\":15887:15905   */\n      dup2\n        /* \"#utility.yul\":15884:15922   */\n      sub\n        /* \"#utility.yul\":15881:15965   */\n      tag_396\n      jumpi\n        /* \"#utility.yul\":15937:15955   */\n      tag_397\n      tag_230\n      jump\t// in\n    tag_397:\n        /* \"#utility.yul\":15881:15965   */\n    tag_396:\n        /* \"#utility.yul\":15702:15971   */\n      pop\n        /* \"#utility.yul\":15651:15971   */\n      swap2\n      swap1\n      pop\n      jump\t// out\n        /* \"#utility.yul\":15977:16125   */\n    tag_231:\n        /* \"#utility.yul\":16079:16090   */\n      0x00\n        /* \"#utility.yul\":16116:16119   */\n      dup2\n        /* \"#utility.yul\":16101:16119   */\n      swap1\n      pop\n        /* \"#utility.yul\":15977:16125   */\n      swap3\n      swap2\n      pop\n      pop\n      jump\t// out\n        /* \"#utility.yul\":16131:16521   */\n    tag_232:\n        /* \"#utility.yul\":16237:16240   */\n      0x00\n        /* \"#utility.yul\":16265:16304   */\n      tag_400\n        /* \"#utility.yul\":16298:16303   */\n      dup3\n        /* \"#utility.yul\":16265:16304   */\n      tag_197\n      jump\t// in\n    tag_400:\n        /* \"#utility.yul\":16320:16409   */\n      tag_401\n        /* \"#utility.yul\":16402:16408   */\n      dup2\n        /* \"#utility.yul\":16397:16400   */\n      dup6\n        /* \"#utility.yul\":16320:16409   */\n      tag_231\n      jump\t// in\n    tag_401:\n        /* \"#utility.yul\":16313:16409   */\n      swap4\n      pop\n        /* \"#utility.yul\":16418:16483   */\n      tag_402\n        /* \"#utility.yul\":16476:16482   */\n      dup2\n        /* \"#utility.yul\":16471:16474   */\n      dup6\n        /* \"#utility.yul\":16464:16468   */\n      0x20\n        /* \"#utility.yul\":16457:16462   */\n      dup7\n        /* \"#utility.yul\":16453:16469   */\n      add\n        /* \"#utility.yul\":16418:16483   */\n      tag_199\n      jump\t// in\n    tag_402:\n        /* \"#utility.yul\":16508:16514   */\n      dup1\n        /* \"#utility.yul\":16503:16506   */\n      dup5\n        /* \"#utility.yul\":16499:16515   */\n      add\n        /* \"#utility.yul\":16492:16515   */\n      swap2\n      pop\n        /* \"#utility.yul\":16241:16521   */\n      pop\n        /* \"#utility.yul\":16131:16521   */\n      swap3\n      swap2\n      pop\n      pop\n      jump\t// out\n        /* \"#utility.yul\":16527:16802   */\n    tag_87:\n        /* \"#utility.yul\":16659:16662   */\n      0x00\n        /* \"#utility.yul\":16681:16776   */\n      tag_404\n        /* \"#utility.yul\":16772:16775   */\n      dup3\n        /* \"#utility.yul\":16763:16769   */\n      dup5\n        /* \"#utility.yul\":16681:16776   */\n      tag_232\n      jump\t// in\n    tag_404:\n        /* \"#utility.yul\":16674:16776   */\n      swap2\n      pop\n        /* \"#utility.yul\":16793:16796   */\n      dup2\n        /* \"#utility.yul\":16786:16796   */\n      swap1\n      pop\n        /* \"#utility.yul\":16527:16802   */\n      swap3\n      swap2\n      pop\n      pop\n      jump\t// out\n        /* \"#utility.yul\":16808:16949   */\n    tag_233:\n        /* \"#utility.yul\":16857:16861   */\n      0x00\n        /* \"#utility.yul\":16880:16883   */\n      dup2\n        /* \"#utility.yul\":16872:16883   */\n      swap1\n      pop\n        /* \"#utility.yul\":16903:16906   */\n      dup2\n        /* \"#utility.yul\":16900:16901   */\n      0x00\n        /* \"#utility.yul\":16893:16907   */\n      mstore\n        /* \"#utility.yul\":16937:16941   */\n      0x20\n        /* \"#utility.yul\":16934:16935   */\n      0x00\n        /* \"#utility.yul\":16924:16942   */\n      keccak256\n        /* \"#utility.yul\":16916:16942   */\n      swap1\n      pop\n        /* \"#utility.yul\":16808:16949   */\n      swap2\n      swap1\n      pop\n      jump\t// out\n        /* \"#utility.yul\":16955:17048   */\n    tag_234:\n        /* \"#utility.yul\":16992:16998   */\n      0x00\n        /* \"#utility.yul\":17039:17041   */\n      0x20\n        /* \"#utility.yul\":17034:17036   */\n      0x1f\n        /* \"#utility.yul\":17027:17032   */\n      dup4\n        /* \"#utility.yul\":17023:17037   */\n      add\n        /* \"#utility.yul\":17019:17042   */\n      div\n        /* \"#utility.yul\":17009:17042   */\n      swap1\n      pop\n        /* \"#utility.yul\":16955:17048   */\n      swap2\n      swap1\n      pop\n      jump\t// out\n        /* \"#utility.yul\":17054:17161   */\n    tag_235:\n        /* \"#utility.yul\":17098:17106   */\n      0x00\n        /* \"#utility.yul\":17148:17153   */\n      dup3\n        /* \"#utility.yul\":17142:17146   */\n      dup3\n        /* \"#utility.yul\":17138:17154   */\n      shl\n        /* \"#utility.yul\":17117:17154   */\n      swap1\n      pop\n        /* \"#utility.yul\":17054:17161   */\n      swap3\n      swap2\n      pop\n      pop\n      jump\t// out\n        /* \"#utility.yul\":17167:17560   */\n    tag_236:\n        /* \"#utility.yul\":17236:17242   */\n      0x00\n        /* \"#utility.yul\":17286:17287   */\n      0x08\n        /* \"#utility.yul\":17274:17284   */\n      dup4\n        /* \"#utility.yul\":17270:17288   */\n      mul\n        /* \"#utility.yul\":17309:17406   */\n      tag_409\n        /* \"#utility.yul\":17339:17405   */\n      0xffffffffffffffffffffffffffffffffffffffffffffffffffffffffffffffff\n        /* \"#utility.yul\":17328:17337   */\n      dup3\n        /* \"#utility.yul\":17309:17406   */\n      tag_235\n      jump\t// in\n    tag_409:\n        /* \"#utility.yul\":17427:17466   */\n      tag_410\n        /* \"#utility.yul\":17457:17465   */\n      dup7\n        /* \"#utility.yul\":17446:17455   */\n      dup4\n        /* \"#utility.yul\":17427:17466   */\n      tag_235\n      jump\t// in\n    tag_410:\n        /* \"#utility.yul\":17415:17466   */\n      swap6\n      pop\n        /* \"#utility.yul\":17499:17503   */\n      dup1\n        /* \"#utility.yul\":17495:17504   */\n      not\n        /* \"#utility.yul\":17488:17493   */\n      dup5\n        /* \"#utility.yul\":17484:17505   */\n      and\n        /* \"#utility.yul\":17475:17505   */\n      swap4\n      pop\n        /* \"#utility.yul\":17548:17552   */\n      dup1\n        /* \"#utility.yul\":17538:17546   */\n      dup7\n        /* \"#utility.yul\":17534:17553   */\n      and\n        /* \"#utility.yul\":17527:17532   */\n      dup5\n        /* \"#utility.yul\":17524:17554   */\n      or\n        /* \"#utility.yul\":17514:17554   */\n      swap3\n      pop\n        /* \"#utility.yul\":17243:17560   */\n      pop\n      pop\n        /* \"#utility.yul\":17167:17560   */\n      swap4\n      swap3\n      pop\n      pop\n      pop\n      jump\t// out\n        /* \"#utility.yul\":17566:17626   */\n    tag_237:\n        /* \"#utility.yul\":17594:17597   */\n      0x00\n        /* \"#utility.yul\":17615:17620   */\n      dup2\n        /* \"#utility.yul\":17608:17620   */\n      swap1\n      pop\n        /* \"#utility.yul\":17566:17626   */\n      swap2\n      swap1\n      pop\n      jump\t// out\n        /* \"#utility.yul\":17632:17774   */\n    tag_238:\n        /* \"#utility.yul\":17682:17691   */\n      0x00\n        /* \"#utility.yul\":17715:17768   */\n      tag_413\n        /* \"#utility.yul\":17733:17767   */\n      tag_414\n        /* \"#utility.yul\":17742:17766   */\n      tag_415\n        /* \"#utility.yul\":17760:17765   */\n      dup5\n        /* \"#utility.yul\":17742:17766   */\n      tag_190\n      jump\t// in\n    tag_415:\n        /* \"#utility.yul\":17733:17767   */\n      tag_237\n      jump\t// in\n    tag_414:\n        /* \"#utility.yul\":17715:17768   */\n      tag_190\n      jump\t// in\n    tag_413:\n        /* \"#utility.yul\":17702:17768   */\n      swap1\n      pop\n        /* \"#utility.yul\":17632:17774   */\n      swap2\n      swap1\n      pop\n      jump\t// out\n        /* \"#utility.yul\":17780:17855   */\n    tag_239:\n        /* \"#utility.yul\":17823:17826   */\n      0x00\n        /* \"#utility.yul\":17844:17849   */\n      dup2\n        /* \"#utility.yul\":17837:17849   */\n      swap1\n      pop\n        /* \"#utility.yul\":17780:17855   */\n      swap2\n      swap1\n      pop\n      jump\t// out\n        /* \"#utility.yul\":17861:18130   */\n    tag_240:\n        /* \"#utility.yul\":17971:18010   */\n      tag_418\n        /* \"#utility.yul\":18002:18009   */\n      dup4\n        /* \"#utility.yul\":17971:18010   */\n      tag_238\n      jump\t// in\n    tag_418:\n        /* \"#utility.yul\":18032:18123   */\n      tag_419\n        /* \"#utility.yul\":18081:18122   */\n      tag_420\n        /* \"#utility.yul\":18105:18121   */\n      dup3\n        /* \"#utility.yul\":18081:18122   */\n      tag_239\n      jump\t// in\n    tag_420:\n        /* \"#utility.yul\":18073:18079   */\n      dup5\n        /* \"#utility.yul\":18066:18070   */\n      dup5\n        /* \"#utility.yul\":18060:18071   */\n      sload\n        /* \"#utility.yul\":18032:18123   */\n      tag_236\n      jump\t// in\n    tag_419:\n        /* \"#utility.yul\":18026:18030   */\n      dup3\n        /* \"#utility.yul\":18019:18124   */\n      sstore\n        /* \"#utility.yul\":17937:18130   */\n      pop\n        /* \"#utility.yul\":17861:18130   */\n      pop\n      pop\n      pop\n      jump\t// out\n        /* \"#utility.yul\":18136:18209   */\n    tag_241:\n        /* \"#utility.yul\":18181:18184   */\n      0x00\n        /* \"#utility.yul\":18136:18209   */\n      swap1\n      jump\t// out\n        /* \"#utility.yul\":18215:18404   */\n    tag_242:\n        /* \"#utility.yul\":18292:18324   */\n      tag_423\n      tag_241\n      jump\t// in\n    tag_423:\n        /* \"#utility.yul\":18333:18398   */\n      tag_424\n        /* \"#utility.yul\":18391:18397   */\n      dup2\n        /* \"#utility.yul\":18383:18389   */\n      dup5\n        /* \"#utility.yul\":18377:18381   */\n      dup5\n        /* \"#utility.yul\":18333:18398   */\n      tag_240\n      jump\t// in\n    tag_424:\n        /* \"#utility.yul\":18268:18404   */\n      pop\n        /* \"#utility.yul\":18215:18404   */\n      pop\n      pop\n      jump\t// out\n        /* \"#utility.yul\":18410:18596   */\n    tag_243:\n        /* \"#utility.yul\":18470:18590   */\n    tag_426:\n        /* \"#utility.yul\":18487:18490   */\n      dup2\n        /* \"#utility.yul\":18480:18485   */\n      dup2\n        /* \"#utility.yul\":18477:18491   */\n      lt\n        /* \"#utility.yul\":18470:18590   */\n      iszero\n      tag_428\n      jumpi\n        /* \"#utility.yul\":18541:18580   */\n      tag_429\n        /* \"#utility.yul\":18578:18579   */\n      0x00\n        /* \"#utility.yul\":18571:18576   */\n      dup3\n        /* \"#utility.yul\":18541:18580   */\n      tag_242\n      jump\t// in\n    tag_429:\n        /* \"#utility.yul\":18514:18515   */\n      0x01\n        /* \"#utility.yul\":18507:18512   */\n      dup2\n        /* \"#utility.yul\":18503:18516   */\n      add\n        /* \"#utility.yul\":18494:18516   */\n      swap1\n      pop\n        /* \"#utility.yul\":18470:18590   */\n      jump(tag_426)\n    tag_428:\n        /* \"#utility.yul\":18410:18596   */\n      pop\n      pop\n      jump\t// out\n        /* \"#utility.yul\":18602:19145   */\n    tag_244:\n        /* \"#utility.yul\":18703:18705   */\n      0x1f\n        /* \"#utility.yul\":18698:18701   */\n      dup3\n        /* \"#utility.yul\":18695:18706   */\n      gt\n        /* \"#utility.yul\":18692:19138   */\n      iszero\n      tag_431\n      jumpi\n        /* \"#utility.yul\":18737:18775   */\n      tag_432\n        /* \"#utility.yul\":18769:18774   */\n      dup2\n        /* \"#utility.yul\":18737:18775   */\n      tag_233\n      jump\t// in\n    tag_432:\n        /* \"#utility.yul\":18821:18850   */\n      tag_433\n        /* \"#utility.yul\":18839:18849   */\n      dup5\n        /* \"#utility.yul\":18821:18850   */\n      tag_234\n      jump\t// in\n    tag_433:\n        /* \"#utility.yul\":18811:18819   */\n      dup2\n        /* \"#utility.yul\":18807:18851   */\n      add\n        /* \"#utility.yul\":19004:19006   */\n      0x20\n        /* \"#utility.yul\":18992:19002   */\n      dup6\n        /* \"#utility.yul\":18989:19007   */\n      lt\n        /* \"#utility.yul\":18986:19035   */\n      iszero\n      tag_434\n      jumpi\n        /* \"#utility.yul\":19025:19033   */\n      dup2\n        /* \"#utility.yul\":19010:19033   */\n      swap1\n      pop\n        /* \"#utility.yul\":18986:19035   */\n    tag_434:\n        /* \"#utility.yul\":19048:19128   */\n      tag_435\n        /* \"#utility.yul\":19104:19126   */\n      tag_436\n        /* \"#utility.yul\":19122:19125   */\n      dup6\n        /* \"#utility.yul\":19104:19126   */\n      tag_234\n      jump\t// in\n    tag_436:\n        /* \"#utility.yul\":19094:19102   */\n      dup4\n        /* \"#utility.yul\":19090:19127   */\n      add\n        /* \"#utility.yul\":19077:19088   */\n      dup3\n        /* \"#utility.yul\":19048:19128   */\n      tag_243\n      jump\t// in\n    tag_435:\n        /* \"#utility.yul\":18707:19138   */\n      pop\n      pop\n        /* \"#utility.yul\":18692:19138   */\n    tag_431:\n        /* \"#utility.yul\":18602:19145   */\n      pop\n      pop\n      pop\n      jump\t// out\n        /* \"#utility.yul\":19151:19268   */\n    tag_245:\n        /* \"#utility.yul\":19205:19213   */\n      0x00\n        /* \"#utility.yul\":19255:19260   */\n      dup3\n        /* \"#utility.yul\":19249:19253   */\n      dup3\n        /* \"#utility.yul\":19245:19261   */\n      shr\n        /* \"#utility.yul\":19224:19261   */\n      swap1\n      pop\n        /* \"#utility.yul\":19151:19268   */\n      swap3\n      swap2\n      pop\n      pop\n      jump\t// out\n        /* \"#utility.yul\":19274:19443   */\n    tag_246:\n        /* \"#utility.yul\":19318:19324   */\n      0x00\n        /* \"#utility.yul\":19351:19402   */\n      tag_439\n        /* \"#utility.yul\":19399:19400   */\n      0x00\n        /* \"#utility.yul\":19395:19401   */\n      not\n        /* \"#utility.yul\":19387:19392   */\n      dup5\n        /* \"#utility.yul\":19384:19385   */\n      0x08\n        /* \"#utility.yul\":19380:19393   */\n      mul\n        /* \"#utility.yul\":19351:19402   */\n      tag_245\n      jump\t// in\n    tag_439:\n        /* \"#utility.yul\":19347:19403   */\n      not\n        /* \"#utility.yul\":19432:19436   */\n      dup1\n        /* \"#utility.yul\":19426:19430   */\n      dup4\n        /* \"#utility.yul\":19422:19437   */\n      and\n        /* \"#utility.yul\":19412:19437   */\n      swap2\n      pop\n        /* \"#utility.yul\":19325:19443   */\n      pop\n        /* \"#utility.yul\":19274:19443   */\n      swap3\n      swap2\n      pop\n      pop\n      jump\t// out\n        /* \"#utility.yul\":19448:19743   */\n    tag_247:\n        /* \"#utility.yul\":19524:19528   */\n      0x00\n        /* \"#utility.yul\":19670:19699   */\n      tag_441\n        /* \"#utility.yul\":19695:19698   */\n      dup4\n        /* \"#utility.yul\":19689:19693   */\n      dup4\n        /* \"#utility.yul\":19670:19699   */\n      tag_246\n      jump\t// in\n    tag_441:\n        /* \"#utility.yul\":19662:19699   */\n      swap2\n      pop\n        /* \"#utility.yul\":19732:19735   */\n      dup3\n        /* \"#utility.yul\":19729:19730   */\n      0x02\n        /* \"#utility.yul\":19725:19736   */\n      mul\n        /* \"#utility.yul\":19719:19723   */\n      dup3\n        /* \"#utility.yul\":19716:19737   */\n      or\n        /* \"#utility.yul\":19708:19737   */\n      swap1\n      pop\n        /* \"#utility.yul\":19448:19743   */\n      swap3\n      swap2\n      pop\n      pop\n      jump\t// out\n        /* \"#utility.yul\":19748:21143   */\n    tag_128:\n        /* \"#utility.yul\":19865:19902   */\n      tag_443\n        /* \"#utility.yul\":19898:19901   */\n      dup3\n        /* \"#utility.yul\":19865:19902   */\n      tag_197\n      jump\t// in\n    tag_443:\n        /* \"#utility.yul\":19967:19985   */\n      0xffffffffffffffff\n        /* \"#utility.yul\":19959:19965   */\n      dup2\n        /* \"#utility.yul\":19956:19986   */\n      gt\n        /* \"#utility.yul\":19953:20009   */\n      iszero\n      tag_444\n      jumpi\n        /* \"#utility.yul\":19989:20007   */\n      tag_445\n      tag_215\n      jump\t// in\n    tag_445:\n        /* \"#utility.yul\":19953:20009   */\n    tag_444:\n        /* \"#utility.yul\":20033:20071   */\n      tag_446\n        /* \"#utility.yul\":20065:20069   */\n      dup3\n        /* \"#utility.yul\":20059:20070   */\n      sload\n        /* \"#utility.yul\":20033:20071   */\n      tag_67\n      jump\t// in\n    tag_446:\n        /* \"#utility.yul\":20118:20185   */\n      tag_447\n        /* \"#utility.yul\":20178:20184   */\n      dup3\n        /* \"#utility.yul\":20170:20176   */\n      dup3\n        /* \"#utility.yul\":20164:20168   */\n      dup6\n        /* \"#utility.yul\":20118:20185   */\n      tag_244\n      jump\t// in\n    tag_447:\n        /* \"#utility.yul\":20212:20213   */\n      0x00\n        /* \"#utility.yul\":20236:20240   */\n      0x20\n        /* \"#utility.yul\":20223:20240   */\n      swap1\n      pop\n        /* \"#utility.yul\":20268:20270   */\n      0x1f\n        /* \"#utility.yul\":20260:20266   */\n      dup4\n        /* \"#utility.yul\":20257:20271   */\n      gt\n        /* \"#utility.yul\":20285:20286   */\n      0x01\n        /* \"#utility.yul\":20280:20898   */\n      dup2\n      eq\n      tag_449\n      jumpi\n        /* \"#utility.yul\":20942:20943   */\n      0x00\n        /* \"#utility.yul\":20959:20965   */\n      dup5\n        /* \"#utility.yul\":20956:21033   */\n      iszero\n      tag_450\n      jumpi\n        /* \"#utility.yul\":21008:21017   */\n      dup3\n        /* \"#utility.yul\":21003:21006   */\n      dup8\n        /* \"#utility.yul\":20999:21018   */\n      add\n        /* \"#utility.yul\":20993:21019   */\n      mload\n        /* \"#utility.yul\":20984:21019   */\n      swap1\n      pop\n        /* \"#utility.yul\":20956:21033   */\n    tag_450:\n        /* \"#utility.yul\":21059:21126   */\n      tag_451\n        /* \"#utility.yul\":21119:21125   */\n      dup6\n        /* \"#utility.yul\":21112:21117   */\n      dup3\n        /* \"#utility.yul\":21059:21126   */\n      tag_247\n      jump\t// in\n    tag_451:\n        /* \"#utility.yul\":21053:21057   */\n      dup7\n        /* \"#utility.yul\":21046:21127   */\n      sstore\n        /* \"#utility.yul\":20915:21137   */\n      pop\n        /* \"#utility.yul\":20250:21137   */\n      jump(tag_448)\n        /* \"#utility.yul\":20280:20898   */\n    tag_449:\n        /* \"#utility.yul\":20332:20336   */\n      0x1f\n        /* \"#utility.yul\":20328:20337   */\n      not\n        /* \"#utility.yul\":20320:20326   */\n      dup5\n        /* \"#utility.yul\":20316:20338   */\n      and\n        /* \"#utility.yul\":20366:20403   */\n      tag_452\n        /* \"#utility.yul\":20398:20402   */\n      dup7\n        /* \"#utility.yul\":20366:20403   */\n      tag_233\n      jump\t// in\n    tag_452:\n        /* \"#utility.yul\":20425:20426   */\n      0x00\n        /* \"#utility.yul\":20439:20647   */\n    tag_453:\n        /* \"#utility.yul\":20453:20460   */\n      dup3\n        /* \"#utility.yul\":20450:20451   */\n      dup2\n        /* \"#utility.yul\":20447:20461   */\n      lt\n        /* \"#utility.yul\":20439:20647   */\n      iszero\n      tag_455\n      jumpi\n        /* \"#utility.yul\":20532:20541   */\n      dup5\n        /* \"#utility.yul\":20527:20530   */\n      dup10\n        /* \"#utility.yul\":20523:20542   */\n      add\n        /* \"#utility.yul\":20517:20543   */\n      mload\n        /* \"#utility.yul\":20509:20515   */\n      dup3\n        /* \"#utility.yul\":20502:20544   */\n      sstore\n        /* \"#utility.yul\":20583:20584   */\n      0x01\n        /* \"#utility.yul\":20575:20581   */\n      dup3\n        /* \"#utility.yul\":20571:20585   */\n      add\n        /* \"#utility.yul\":20561:20585   */\n      swap2\n      pop\n        /* \"#utility.yul\":20630:20632   */\n      0x20\n        /* \"#utility.yul\":20619:20628   */\n      dup6\n        /* \"#utility.yul\":20615:20633   */\n      add\n        /* \"#utility.yul\":20602:20633   */\n      swap5\n      pop\n        /* \"#utility.yul\":20476:20480   */\n      0x20\n        /* \"#utility.yul\":20473:20474   */\n      dup2\n        /* \"#utility.yul\":20469:20481   */\n      add\n        /* \"#utility.yul\":20464:20481   */\n      swap1\n      pop\n        /* \"#utility.yul\":20439:20647   */\n      jump(tag_453)\n    tag_455:\n        /* \"#utility.yul\":20675:20681   */\n      dup7\n        /* \"#utility.yul\":20666:20673   */\n      dup4\n        /* \"#utility.yul\":20663:20682   */\n      lt\n        /* \"#utility.yul\":20660:20839   */\n      iszero\n      tag_456\n      jumpi\n        /* \"#utility.yul\":20733:20742   */\n      dup5\n        /* \"#utility.yul\":20728:20731   */\n      dup10\n        /* \"#utility.yul\":20724:20743   */\n      add\n        /* \"#utility.yul\":20718:20744   */\n      mload\n        /* \"#utility.yul\":20776:20824   */\n      tag_457\n        /* \"#utility.yul\":20818:20822   */\n      0x1f\n        /* \"#utility.yul\":20810:20816   */\n      dup10\n        /* \"#utility.yul\":20806:20823   */\n      and\n        /* \"#utility.yul\":20795:20804   */\n      dup3\n        /* \"#utility.yul\":20776:20824   */\n      tag_246\n      jump\t// in\n    tag_457:\n        /* \"#utility.yul\":20768:20774   */\n      dup4\n        /* \"#utility.yul\":20761:20825   */\n      sstore\n        /* \"#utility.yul\":20683:20839   */\n      pop\n        /* \"#utility.yul\":20660:20839   */\n    tag_456:\n        /* \"#utility.yul\":20885:20886   */\n      0x01\n        /* \"#utility.yul\":20881:20882   */\n      0x02\n        /* \"#utility.yul\":20873:20879   */\n      dup9\n        /* \"#utility.yul\":20869:20883   */\n      mul\n        /* \"#utility.yul\":20865:20887   */\n      add\n        /* \"#utility.yul\":20859:20863   */\n      dup9\n        /* \"#utility.yul\":20852:20888   */\n      sstore\n        /* \"#utility.yul\":20287:20898   */\n      pop\n      pop\n      pop\n        /* \"#utility.yul\":20250:21137   */\n    tag_448:\n      pop\n        /* \"#utility.yul\":19840:21143   */\n      pop\n      pop\n      pop\n        /* \"#utility.yul\":19748:21143   */\n      pop\n      pop\n      jump\t// out\n        /* \"#utility.yul\":21149:21329   */\n    tag_248:\n        /* \"#utility.yul\":21197:21274   */\n      0x4e487b7100000000000000000000000000000000000000000000000000000000\n        /* \"#utility.yul\":21194:21195   */\n      0x00\n        /* \"#utility.yul\":21187:21275   */\n      mstore\n        /* \"#utility.yul\":21294:21298   */\n      0x11\n        /* \"#utility.yul\":21291:21292   */\n      0x04\n        /* \"#utility.yul\":21284:21299   */\n      mstore\n        /* \"#utility.yul\":21318:21322   */\n      0x24\n        /* \"#utility.yul\":21315:21316   */\n      0x00\n        /* \"#utility.yul\":21308:21323   */\n      revert\n        /* \"#utility.yul\":21335:21526   */\n    tag_164:\n        /* \"#utility.yul\":21375:21378   */\n      0x00\n        /* \"#utility.yul\":21394:21414   */\n      tag_460\n        /* \"#utility.yul\":21412:21413   */\n      dup3\n        /* \"#utility.yul\":21394:21414   */\n      tag_190\n      jump\t// in\n    tag_460:\n        /* \"#utility.yul\":21389:21414   */\n      swap2\n      pop\n        /* \"#utility.yul\":21428:21448   */\n      tag_461\n        /* \"#utility.yul\":21446:21447   */\n      dup4\n        /* \"#utility.yul\":21428:21448   */\n      tag_190\n      jump\t// in\n    tag_461:\n        /* \"#utility.yul\":21423:21448   */\n      swap3\n      pop\n        /* \"#utility.yul\":21471:21472   */\n      dup3\n        /* \"#utility.yul\":21468:21469   */\n      dup3\n        /* \"#utility.yul\":21464:21473   */\n      add\n        /* \"#utility.yul\":21457:21473   */\n      swap1\n      pop\n        /* \"#utility.yul\":21492:21495   */\n      dup1\n        /* \"#utility.yul\":21489:21490   */\n      dup3\n        /* \"#utility.yul\":21486:21496   */\n      gt\n        /* \"#utility.yul\":21483:21519   */\n      iszero\n      tag_462\n      jumpi\n        /* \"#utility.yul\":21499:21517   */\n      tag_463\n      tag_248\n      jump\t// in\n    tag_463:\n        /* \"#utility.yul\":21483:21519   */\n    tag_462:\n        /* \"#utility.yul\":21335:21526   */\n      swap3\n      swap2\n      pop\n      pop\n      jump\t// out\n        /* \"#utility.yul\":21532:21712   */\n    tag_249:\n        /* \"#utility.yul\":21580:21657   */\n      0x4e487b7100000000000000000000000000000000000000000000000000000000\n        /* \"#utility.yul\":21577:21578   */\n      0x00\n        /* \"#utility.yul\":21570:21658   */\n      mstore\n        /* \"#utility.yul\":21677:21681   */\n      0x12\n        /* \"#utility.yul\":21674:21675   */\n      0x04\n        /* \"#utility.yul\":21667:21682   */\n      mstore\n        /* \"#utility.yul\":21701:21705   */\n      0x24\n        /* \"#utility.yul\":21698:21699   */\n      0x00\n        /* \"#utility.yul\":21691:21706   */\n      revert\n        /* \"#utility.yul\":21718:21903   */\n    tag_168:\n        /* \"#utility.yul\":21758:21759   */\n      0x00\n        /* \"#utility.yul\":21775:21795   */\n      tag_466\n        /* \"#utility.yul\":21793:21794   */\n      dup3\n        /* \"#utility.yul\":21775:21795   */\n      tag_190\n      jump\t// in\n    tag_466:\n        /* \"#utility.yul\":21770:21795   */\n      swap2\n      pop\n        /* \"#utility.yul\":21809:21829   */\n      tag_467\n        /* \"#utility.yul\":21827:21828   */\n      dup4\n        /* \"#utility.yul\":21809:21829   */\n      tag_190\n      jump\t// in\n    tag_467:\n        /* \"#utility.yul\":21804:21829   */\n      swap3\n      pop\n        /* \"#utility.yul\":21848:21849   */\n      dup3\n        /* \"#utility.yul\":21838:21873   */\n      tag_468\n      jumpi\n        /* \"#utility.yul\":21853:21871   */\n      tag_469\n      tag_249\n      jump\t// in\n    tag_469:\n        /* \"#utility.yul\":21838:21873   */\n    tag_468:\n        /* \"#utility.yul\":21895:21896   */\n      dup3\n        /* \"#utility.yul\":21892:21893   */\n      dup3\n        /* \"#utility.yul\":21888:21897   */\n      div\n        /* \"#utility.yul\":21883:21897   */\n      swap1\n      pop\n        /* \"#utility.yul\":21718:21903   */\n      swap3\n      swap2\n      pop\n      pop\n      jump\t// out\n\n    auxdata: 0xa264697066735822122034e5d4966222c28ec8c8b73021b78a43ce822b263c4a77ea89c52121d2914dee64736f6c634300081a0033\n}\n",
				"bytecode": {
					"linkReferences": {},
					"object": "6080604052348015600e575f80fd5b5061186e8061001c5f395ff3fe608060405234801561000f575f80fd5b50600436106100a7575f3560e01c8063674271cd1161006f578063674271cd1461017857806374aa6858146101a8578063a24746d8146101c4578063b30039fc146101f4578063b36a31c614610212578063be1c766b14610230576100a7565b806304527d90146100ab578063133d0460146100db57806316020273146100f95780631acb1542146101295780632eb6045e14610159575b5f80fd5b6100c560048036038101906100c09190610dd3565b61024e565b6040516100d29190610e0d565b60405180910390f35b6100e361026b565b6040516100f0919061109c565b60405180910390f35b610113600480360381019061010e91906111e8565b6104cd565b6040516101209190610e0d565b60405180910390f35b610143600480360381019061013e9190610dd3565b6104f7565b604051610150919061109c565b60405180910390f35b61016161076b565b60405161016f92919061122f565b60405180910390f35b610192600480360381019061018d9190610dd3565b610772565b60405161019f91906112a5565b60405180910390f35b6101c260048036038101906101bd91906113a7565b6108ff565b005b6101de60048036038101906101d991906111e8565b6109bb565b6040516101eb919061109c565b60405180910390f35b6101fc610c3c565b6040516102099190611449565b60405180910390f35b61021a610c5c565b6040516102279190610e0d565b60405180910390f35b610238610cb2565b6040516102459190610e0d565b60405180910390f35b5f60045f8381526020019081526020015f20600201549050919050565b60605f805480602002602001604051908101604052809291908181526020015f905b828210156104c4578382905f5260205f2090600502016040518060a00160405290815f820180546102bd9061148f565b80601f01602080910402602001604051908101604052809291908181526020018280546102e99061148f565b80156103345780601f1061030b57610100808354040283529160200191610334565b820191905f5260205f20905b81548152906001019060200180831161031757829003601f168201915b5050505050815260200160018201548152602001600282015481526020016003820180546103619061148f565b80601f016020809104026020016040519081016040528092919081815260200182805461038d9061148f565b80156103d85780601f106103af576101008083540402835291602001916103d8565b820191905f5260205f20905b8154815290600101906020018083116103bb57829003601f168201915b5050505050815260200160048201805480602002602001604051908101604052809291908181526020015f905b828210156104ad578382905f5260205f200180546104229061148f565b80601f016020809104026020016040519081016040528092919081815260200182805461044e9061148f565b80156104995780601f1061047057610100808354040283529160200191610499565b820191905f5260205f20905b81548152906001019060200180831161047c57829003601f168201915b505050505081526020019060010190610405565b50505050815250508152602001906001019061028d565b50505050905090565b5f6003826040516104de91906114f9565b9081526020016040518091039020600201549050919050565b606060025f8381526020019081526020015f20805480602002602001604051908101604052809291908181526020015f905b82821015610760578382905f5260205f2090600502016040518060a00160405290815f820180546105599061148f565b80601f01602080910402602001604051908101604052809291908181526020018280546105859061148f565b80156105d05780601f106105a7576101008083540402835291602001916105d0565b820191905f5260205f20905b8154815290600101906020018083116105b357829003601f168201915b5050505050815260200160018201548152602001600282015481526020016003820180546105fd9061148f565b80601f01602080910402602001604051908101604052809291908181526020018280546106299061148f565b80156106745780601f1061064b57610100808354040283529160200191610674565b820191905f5260205f20905b81548152906001019060200180831161065757829003601f168201915b5050505050815260200160048201805480602002602001604051908101604052809291908181526020015f905b82821015610749578382905f5260205f200180546106be9061148f565b80601f01602080910402602001604051908101604052809291908181526020018280546106ea9061148f565b80156107355780601f1061070c57610100808354040283529160200191610735565b820191905f5260205f20905b81548152906001019060200180831161071857829003601f168201915b5050505050815260200190600101906106a1565b505050508152505081526020019060010190610529565b505050509050919050565b5f60609091565b6060606482111580156107865750605a8210155b156107c8576040518060400160405280600181526020017f410000000000000000000000000000000000000000000000000000000000000081525090506108fa565b605a821080156107d9575060508210155b1561081b576040518060400160405280600181526020017f420000000000000000000000000000000000000000000000000000000000000081525090506108fa565b60508210801561082c575060468210155b1561086e576040518060400160405280600181526020017f430000000000000000000000000000000000000000000000000000000000000081525090506108fa565b60468210801561087f5750603c8210155b156108c1576040518060400160405280600181526020017f440000000000000000000000000000000000000000000000000000000000000081525090506108fa565b6040518060400160405280600181526020017f460000000000000000000000000000000000000000000000000000000000000081525090505b919050565b5f6040518060a001604052808581526020015f80549050815260200184815260200161092a85610772565b815260200183815250908060018154018082558091505060019003905f5260205f2090600502015f909190919091505f820151815f01908161096c91906116ac565b506020820151816001015560408201518160020155606082015181600301908161099691906116ac565b5060808201518160040190805190602001906109b3929190610cbd565b505050505050565b60606001826040516109cd91906114f9565b9081526020016040518091039020805480602002602001604051908101604052809291908181526020015f905b82821015610c31578382905f5260205f2090600502016040518060a00160405290815f82018054610a2a9061148f565b80601f0160208091040260200160405190810160405280929190818152602001828054610a569061148f565b8015610aa15780601f10610a7857610100808354040283529160200191610aa1565b820191905f5260205f20905b815481529060010190602001808311610a8457829003601f168201915b505050505081526020016001820154815260200160028201548152602001600382018054610ace9061148f565b80601f0160208091040260200160405190810160405280929190818152602001828054610afa9061148f565b8015610b455780601f10610b1c57610100808354040283529160200191610b45565b820191905f5260205f20905b815481529060010190602001808311610b2857829003601f168201915b5050505050815260200160048201805480602002602001604051908101604052809291908181526020015f905b82821015610c1a578382905f5260205f20018054610b8f9061148f565b80601f0160208091040260200160405190810160405280929190818152602001828054610bbb9061148f565b8015610c065780601f10610bdd57610100808354040283529160200191610c06565b820191905f5260205f20905b815481529060010190602001808311610be957829003601f168201915b505050505081526020019060010190610b72565b5050505081525050815260200190600101906109fa565b505050509050919050565b5f6046610c47610c5c565b10610c555760019050610c59565b5f90505b90565b5f805f5b60015f80549050610c7191906117a8565b811015610c9b57610c818161024e565b82610c8c91906117a8565b91508080600101915050610c60565b5f8054905082610cab9190611808565b9250505090565b5f8080549050905090565b828054828255905f5260205f20908101928215610d03579160200282015b82811115610d02578251829081610cf291906116ac565b5091602001919060010190610cdb565b5b509050610d109190610d14565b5090565b5b80821115610d33575f8181610d2a9190610d37565b50600101610d15565b5090565b508054610d439061148f565b5f825580601f10610d545750610d71565b601f0160209004905f5260205f2090810190610d709190610d74565b5b50565b5b80821115610d8b575f815f905550600101610d75565b5090565b5f604051905090565b5f80fd5b5f80fd5b5f819050919050565b610db281610da0565b8114610dbc575f80fd5b50565b5f81359050610dcd81610da9565b92915050565b5f60208284031215610de857610de7610d98565b5b5f610df584828501610dbf565b91505092915050565b610e0781610da0565b82525050565b5f602082019050610e205f830184610dfe565b92915050565b5f81519050919050565b5f82825260208201905092915050565b5f819050602082019050919050565b5f81519050919050565b5f82825260208201905092915050565b8281835e5f83830152505050565b5f601f19601f8301169050919050565b5f610e9182610e4f565b610e9b8185610e59565b9350610eab818560208601610e69565b610eb481610e77565b840191505092915050565b610ec881610da0565b82525050565b5f81519050919050565b5f82825260208201905092915050565b5f819050602082019050919050565b5f610f028383610e87565b905092915050565b5f602082019050919050565b5f610f2082610ece565b610f2a8185610ed8565b935083602082028501610f3c85610ee8565b805f5b85811015610f775784840389528151610f588582610ef7565b9450610f6383610f0a565b925060208a01995050600181019050610f3f565b50829750879550505050505092915050565b5f60a083015f8301518482035f860152610fa38282610e87565b9150506020830151610fb86020860182610ebf565b506040830151610fcb6040860182610ebf565b5060608301518482036060860152610fe38282610e87565b91505060808301518482036080860152610ffd8282610f16565b9150508091505092915050565b5f6110158383610f89565b905092915050565b5f602082019050919050565b5f61103382610e26565b61103d8185610e30565b93508360208202850161104f85610e40565b805f5b8581101561108a578484038952815161106b858261100a565b94506110768361101d565b925060208a01995050600181019050611052565b50829750879550505050505092915050565b5f6020820190508181035f8301526110b48184611029565b905092915050565b5f80fd5b5f80fd5b7f4e487b71000000000000000000000000000000000000000000000000000000005f52604160045260245ffd5b6110fa82610e77565b810181811067ffffffffffffffff82111715611119576111186110c4565b5b80604052505050565b5f61112b610d8f565b905061113782826110f1565b919050565b5f67ffffffffffffffff821115611156576111556110c4565b5b61115f82610e77565b9050602081019050919050565b828183375f83830152505050565b5f61118c6111878461113c565b611122565b9050828152602081018484840111156111a8576111a76110c0565b5b6111b384828561116c565b509392505050565b5f82601f8301126111cf576111ce6110bc565b5b81356111df84826020860161117a565b91505092915050565b5f602082840312156111fd576111fc610d98565b5b5f82013567ffffffffffffffff81111561121a57611219610d9c565b5b611226848285016111bb565b91505092915050565b5f6040820190506112425f830185610dfe565b81810360208301526112548184611029565b90509392505050565b5f82825260208201905092915050565b5f61127782610e4f565b611281818561125d565b9350611291818560208601610e69565b61129a81610e77565b840191505092915050565b5f6020820190508181035f8301526112bd818461126d565b905092915050565b5f67ffffffffffffffff8211156112df576112de6110c4565b5b602082029050602081019050919050565b5f80fd5b5f611306611301846112c5565b611122565b90508083825260208201905060208402830185811115611329576113286112f0565b5b835b8181101561137057803567ffffffffffffffff81111561134e5761134d6110bc565b5b80860161135b89826111bb565b8552602085019450505060208101905061132b565b5050509392505050565b5f82601f83011261138e5761138d6110bc565b5b813561139e8482602086016112f4565b91505092915050565b5f805f606084860312156113be576113bd610d98565b5b5f84013567ffffffffffffffff8111156113db576113da610d9c565b5b6113e7868287016111bb565b93505060206113f886828701610dbf565b925050604084013567ffffffffffffffff81111561141957611418610d9c565b5b6114258682870161137a565b9150509250925092565b5f8115159050919050565b6114438161142f565b82525050565b5f60208201905061145c5f83018461143a565b92915050565b7f4e487b71000000000000000000000000000000000000000000000000000000005f52602260045260245ffd5b5f60028204905060018216806114a657607f821691505b6020821081036114b9576114b8611462565b5b50919050565b5f81905092915050565b5f6114d382610e4f565b6114dd81856114bf565b93506114ed818560208601610e69565b80840191505092915050565b5f61150482846114c9565b915081905092915050565b5f819050815f5260205f209050919050565b5f6020601f8301049050919050565b5f82821b905092915050565b5f6008830261156b7fffffffffffffffffffffffffffffffffffffffffffffffffffffffffffffffff82611530565b6115758683611530565b95508019841693508086168417925050509392505050565b5f819050919050565b5f6115b06115ab6115a684610da0565b61158d565b610da0565b9050919050565b5f819050919050565b6115c983611596565b6115dd6115d5826115b7565b84845461153c565b825550505050565b5f90565b6115f16115e5565b6115fc8184846115c0565b505050565b5b8181101561161f576116145f826115e9565b600181019050611602565b5050565b601f821115611664576116358161150f565b61163e84611521565b8101602085101561164d578190505b61166161165985611521565b830182611601565b50505b505050565b5f82821c905092915050565b5f6116845f1984600802611669565b1980831691505092915050565b5f61169c8383611675565b9150826002028217905092915050565b6116b582610e4f565b67ffffffffffffffff8111156116ce576116cd6110c4565b5b6116d8825461148f565b6116e3828285611623565b5f60209050601f831160018114611714575f8415611702578287015190505b61170c8582611691565b865550611773565b601f1984166117228661150f565b5f5b8281101561174957848901518255600182019150602085019450602081019050611724565b868310156117665784890151611762601f891682611675565b8355505b6001600288020188555050505b505050505050565b7f4e487b71000000000000000000000000000000000000000000000000000000005f52601160045260245ffd5b5f6117b282610da0565b91506117bd83610da0565b92508282019050808211156117d5576117d461177b565b5b92915050565b7f4e487b71000000000000000000000000000000000000000000000000000000005f52601260045260245ffd5b5f61181282610da0565b915061181d83610da0565b92508261182d5761182c6117db565b5b82820490509291505056fea264697066735822122034e5d4966222c28ec8c8b73021b78a43ce822b263c4a77ea89c52121d2914dee64736f6c634300081a0033",
					"opcodes": "PUSH1 0x80 PUSH1 0x40 MSTORE CALLVALUE DUP1 ISZERO PUSH1 0xE JUMPI PUSH0 DUP1 REVERT JUMPDEST POP PUSH2 0x186E DUP1 PUSH2 0x1C PUSH0 CODECOPY PUSH0 RETURN INVALID PUSH1 0x80 PUSH1 0x40 MSTORE CALLVALUE DUP1 ISZERO PUSH2 0xF JUMPI PUSH0 DUP1 REVERT JUMPDEST POP PUSH1 0x4 CALLDATASIZE LT PUSH2 0xA7 JUMPI PUSH0 CALLDATALOAD PUSH1 0xE0 SHR DUP1 PUSH4 0x674271CD GT PUSH2 0x6F JUMPI DUP1 PUSH4 0x674271CD EQ PUSH2 0x178 JUMPI DUP1 PUSH4 0x74AA6858 EQ PUSH2 0x1A8 JUMPI DUP1 PUSH4 0xA24746D8 EQ PUSH2 0x1C4 JUMPI DUP1 PUSH4 0xB30039FC EQ PUSH2 0x1F4 JUMPI DUP1 PUSH4 0xB36A31C6 EQ PUSH2 0x212 JUMPI DUP1 PUSH4 0xBE1C766B EQ PUSH2 0x230 JUMPI PUSH2 0xA7 JUMP JUMPDEST DUP1 PUSH4 0x4527D90 EQ PUSH2 0xAB JUMPI DUP1 PUSH4 0x133D0460 EQ PUSH2 0xDB JUMPI DUP1 PUSH4 0x16020273 EQ PUSH2 0xF9 JUMPI DUP1 PUSH4 0x1ACB1542 EQ PUSH2 0x129 JUMPI DUP1 PUSH4 0x2EB6045E EQ PUSH2 0x159 JUMPI JUMPDEST PUSH0 DUP1 REVERT JUMPDEST PUSH2 0xC5 PUSH1 0x4 DUP1 CALLDATASIZE SUB DUP2 ADD SWAP1 PUSH2 0xC0 SWAP2 SWAP1 PUSH2 0xDD3 JUMP JUMPDEST PUSH2 0x24E JUMP JUMPDEST PUSH1 0x40 MLOAD PUSH2 0xD2 SWAP2 SWAP1 PUSH2 0xE0D JUMP JUMPDEST PUSH1 0x40 MLOAD DUP1 SWAP2 SUB SWAP1 RETURN JUMPDEST PUSH2 0xE3 PUSH2 0x26B JUMP JUMPDEST PUSH1 0x40 MLOAD PUSH2 0xF0 SWAP2 SWAP1 PUSH2 0x109C JUMP JUMPDEST PUSH1 0x40 MLOAD DUP1 SWAP2 SUB SWAP1 RETURN JUMPDEST PUSH2 0x113 PUSH1 0x4 DUP1 CALLDATASIZE SUB DUP2 ADD SWAP1 PUSH2 0x10E SWAP2 SWAP1 PUSH2 0x11E8 JUMP JUMPDEST PUSH2 0x4CD JUMP JUMPDEST PUSH1 0x40 MLOAD PUSH2 0x120 SWAP2 SWAP1 PUSH2 0xE0D JUMP JUMPDEST PUSH1 0x40 MLOAD DUP1 SWAP2 SUB SWAP1 RETURN JUMPDEST PUSH2 0x143 PUSH1 0x4 DUP1 CALLDATASIZE SUB DUP2 ADD SWAP1 PUSH2 0x13E SWAP2 SWAP1 PUSH2 0xDD3 JUMP JUMPDEST PUSH2 0x4F7 JUMP JUMPDEST PUSH1 0x40 MLOAD PUSH2 0x150 SWAP2 SWAP1 PUSH2 0x109C JUMP JUMPDEST PUSH1 0x40 MLOAD DUP1 SWAP2 SUB SWAP1 RETURN JUMPDEST PUSH2 0x161 PUSH2 0x76B JUMP JUMPDEST PUSH1 0x40 MLOAD PUSH2 0x16F SWAP3 SWAP2 SWAP1 PUSH2 0x122F JUMP JUMPDEST PUSH1 0x40 MLOAD DUP1 SWAP2 SUB SWAP1 RETURN JUMPDEST PUSH2 0x192 PUSH1 0x4 DUP1 CALLDATASIZE SUB DUP2 ADD SWAP1 PUSH2 0x18D SWAP2 SWAP1 PUSH2 0xDD3 JUMP JUMPDEST PUSH2 0x772 JUMP JUMPDEST PUSH1 0x40 MLOAD PUSH2 0x19F SWAP2 SWAP1 PUSH2 0x12A5 JUMP JUMPDEST PUSH1 0x40 MLOAD DUP1 SWAP2 SUB SWAP1 RETURN JUMPDEST PUSH2 0x1C2 PUSH1 0x4 DUP1 CALLDATASIZE SUB DUP2 ADD SWAP1 PUSH2 0x1BD SWAP2 SWAP1 PUSH2 0x13A7 JUMP JUMPDEST PUSH2 0x8FF JUMP JUMPDEST STOP JUMPDEST PUSH2 0x1DE PUSH1 0x4 DUP1 CALLDATASIZE SUB DUP2 ADD SWAP1 PUSH2 0x1D9 SWAP2 SWAP1 PUSH2 0x11E8 JUMP JUMPDEST PUSH2 0x9BB JUMP JUMPDEST PUSH1 0x40 MLOAD PUSH2 0x1EB SWAP2 SWAP1 PUSH2 0x109C JUMP JUMPDEST PUSH1 0x40 MLOAD DUP1 SWAP2 SUB SWAP1 RETURN JUMPDEST PUSH2 0x1FC PUSH2 0xC3C JUMP JUMPDEST PUSH1 0x40 MLOAD PUSH2 0x209 SWAP2 SWAP1 PUSH2 0x1449 JUMP JUMPDEST PUSH1 0x40 MLOAD DUP1 SWAP2 SUB SWAP1 RETURN JUMPDEST PUSH2 0x21A PUSH2 0xC5C JUMP JUMPDEST PUSH1 0x40 MLOAD PUSH2 0x227 SWAP2 SWAP1 PUSH2 0xE0D JUMP JUMPDEST PUSH1 0x40 MLOAD DUP1 SWAP2 SUB SWAP1 RETURN JUMPDEST PUSH2 0x238 PUSH2 0xCB2 JUMP JUMPDEST PUSH1 0x40 MLOAD PUSH2 0x245 SWAP2 SWAP1 PUSH2 0xE0D JUMP JUMPDEST PUSH1 0x40 MLOAD DUP1 SWAP2 SUB SWAP1 RETURN JUMPDEST PUSH0 PUSH1 0x4 PUSH0 DUP4 DUP2 MSTORE PUSH1 0x20 ADD SWAP1 DUP2 MSTORE PUSH1 0x20 ADD PUSH0 KECCAK256 PUSH1 0x2 ADD SLOAD SWAP1 POP SWAP2 SWAP1 POP JUMP JUMPDEST PUSH1 0x60 PUSH0 DUP1 SLOAD DUP1 PUSH1 0x20 MUL PUSH1 0x20 ADD PUSH1 0x40 MLOAD SWAP1 DUP2 ADD PUSH1 0x40 MSTORE DUP1 SWAP3 SWAP2 SWAP1 DUP2 DUP2 MSTORE PUSH1 0x20 ADD PUSH0 SWAP1 JUMPDEST DUP3 DUP3 LT ISZERO PUSH2 0x4C4 JUMPI DUP4 DUP3 SWAP1 PUSH0 MSTORE PUSH1 0x20 PUSH0 KECCAK256 SWAP1 PUSH1 0x5 MUL ADD PUSH1 0x40 MLOAD DUP1 PUSH1 0xA0 ADD PUSH1 0x40 MSTORE SWAP1 DUP2 PUSH0 DUP3 ADD DUP1 SLOAD PUSH2 0x2BD SWAP1 PUSH2 0x148F JUMP JUMPDEST DUP1 PUSH1 0x1F ADD PUSH1 0x20 DUP1 SWAP2 DIV MUL PUSH1 0x20 ADD PUSH1 0x40 MLOAD SWAP1 DUP2 ADD PUSH1 0x40 MSTORE DUP1 SWAP3 SWAP2 SWAP1 DUP2 DUP2 MSTORE PUSH1 0x20 ADD DUP3 DUP1 SLOAD PUSH2 0x2E9 SWAP1 PUSH2 0x148F JUMP JUMPDEST DUP1 ISZERO PUSH2 0x334 JUMPI DUP1 PUSH1 0x1F LT PUSH2 0x30B JUMPI PUSH2 0x100 DUP1 DUP4 SLOAD DIV MUL DUP4 MSTORE SWAP2 PUSH1 0x20 ADD SWAP2 PUSH2 0x334 JUMP JUMPDEST DUP3 ADD SWAP2 SWAP1 PUSH0 MSTORE PUSH1 0x20 PUSH0 KECCAK256 SWAP1 JUMPDEST DUP2 SLOAD DUP2 MSTORE SWAP1 PUSH1 0x1 ADD SWAP1 PUSH1 0x20 ADD DUP1 DUP4 GT PUSH2 0x317 JUMPI DUP3 SWAP1 SUB PUSH1 0x1F AND DUP3 ADD SWAP2 JUMPDEST POP POP POP POP POP DUP2 MSTORE PUSH1 0x20 ADD PUSH1 0x1 DUP3 ADD SLOAD DUP2 MSTORE PUSH1 0x20 ADD PUSH1 0x2 DUP3 ADD SLOAD DUP2 MSTORE PUSH1 0x20 ADD PUSH1 0x3 DUP3 ADD DUP1 SLOAD PUSH2 0x361 SWAP1 PUSH2 0x148F JUMP JUMPDEST DUP1 PUSH1 0x1F ADD PUSH1 0x20 DUP1 SWAP2 DIV MUL PUSH1 0x20 ADD PUSH1 0x40 MLOAD SWAP1 DUP2 ADD PUSH1 0x40 MSTORE DUP1 SWAP3 SWAP2 SWAP1 DUP2 DUP2 MSTORE PUSH1 0x20 ADD DUP3 DUP1 SLOAD PUSH2 0x38D SWAP1 PUSH2 0x148F JUMP JUMPDEST DUP1 ISZERO PUSH2 0x3D8 JUMPI DUP1 PUSH1 0x1F LT PUSH2 0x3AF JUMPI PUSH2 0x100 DUP1 DUP4 SLOAD DIV MUL DUP4 MSTORE SWAP2 PUSH1 0x20 ADD SWAP2 PUSH2 0x3D8 JUMP JUMPDEST DUP3 ADD SWAP2 SWAP1 PUSH0 MSTORE PUSH1 0x20 PUSH0 KECCAK256 SWAP1 JUMPDEST DUP2 SLOAD DUP2 MSTORE SWAP1 PUSH1 0x1 ADD SWAP1 PUSH1 0x20 ADD DUP1 DUP4 GT PUSH2 0x3BB JUMPI DUP3 SWAP1 SUB PUSH1 0x1F AND DUP3 ADD SWAP2 JUMPDEST POP POP POP POP POP DUP2 MSTORE PUSH1 0x20 ADD PUSH1 0x4 DUP3 ADD DUP1 SLOAD DUP1 PUSH1 0x20 MUL PUSH1 0x20 ADD PUSH1 0x40 MLOAD SWAP1 DUP2 ADD PUSH1 0x40 MSTORE DUP1 SWAP3 SWAP2 SWAP1 DUP2 DUP2 MSTORE PUSH1 0x20 ADD PUSH0 SWAP1 JUMPDEST DUP3 DUP3 LT ISZERO PUSH2 0x4AD JUMPI DUP4 DUP3 SWAP1 PUSH0 MSTORE PUSH1 0x20 PUSH0 KECCAK256 ADD DUP1 SLOAD PUSH2 0x422 SWAP1 PUSH2 0x148F JUMP JUMPDEST DUP1 PUSH1 0x1F ADD PUSH1 0x20 DUP1 SWAP2 DIV MUL PUSH1 0x20 ADD PUSH1 0x40 MLOAD SWAP1 DUP2 ADD PUSH1 0x40 MSTORE DUP1 SWAP3 SWAP2 SWAP1 DUP2 DUP2 MSTORE PUSH1 0x20 ADD DUP3 DUP1 SLOAD PUSH2 0x44E SWAP1 PUSH2 0x148F JUMP JUMPDEST DUP1 ISZERO PUSH2 0x499 JUMPI DUP1 PUSH1 0x1F LT PUSH2 0x470 JUMPI PUSH2 0x100 DUP1 DUP4 SLOAD DIV MUL DUP4 MSTORE SWAP2 PUSH1 0x20 ADD SWAP2 PUSH2 0x499 JUMP JUMPDEST DUP3 ADD SWAP2 SWAP1 PUSH0 MSTORE PUSH1 0x20 PUSH0 KECCAK256 SWAP1 JUMPDEST DUP2 SLOAD DUP2 MSTORE SWAP1 PUSH1 0x1 ADD SWAP1 PUSH1 0x20 ADD DUP1 DUP4 GT PUSH2 0x47C JUMPI DUP3 SWAP1 SUB PUSH1 0x1F AND DUP3 ADD SWAP2 JUMPDEST POP POP POP POP POP DUP2 MSTORE PUSH1 0x20 ADD SWAP1 PUSH1 0x1 ADD SWAP1 PUSH2 0x405 JUMP JUMPDEST POP POP POP POP DUP2 MSTORE POP POP DUP2 MSTORE PUSH1 0x20 ADD SWAP1 PUSH1 0x1 ADD SWAP1 PUSH2 0x28D JUMP JUMPDEST POP POP POP POP SWAP1 POP SWAP1 JUMP JUMPDEST PUSH0 PUSH1 0x3 DUP3 PUSH1 0x40 MLOAD PUSH2 0x4DE SWAP2 SWAP1 PUSH2 0x14F9 JUMP JUMPDEST SWAP1 DUP2 MSTORE PUSH1 0x20 ADD PUSH1 0x40 MLOAD DUP1 SWAP2 SUB SWAP1 KECCAK256 PUSH1 0x2 ADD SLOAD SWAP1 POP SWAP2 SWAP1 POP JUMP JUMPDEST PUSH1 0x60 PUSH1 0x2 PUSH0 DUP4 DUP2 MSTORE PUSH1 0x20 ADD SWAP1 DUP2 MSTORE PUSH1 0x20 ADD PUSH0 KECCAK256 DUP1 SLOAD DUP1 PUSH1 0x20 MUL PUSH1 0x20 ADD PUSH1 0x40 MLOAD SWAP1 DUP2 ADD PUSH1 0x40 MSTORE DUP1 SWAP3 SWAP2 SWAP1 DUP2 DUP2 MSTORE PUSH1 0x20 ADD PUSH0 SWAP1 JUMPDEST DUP3 DUP3 LT ISZERO PUSH2 0x760 JUMPI DUP4 DUP3 SWAP1 PUSH0 MSTORE PUSH1 0x20 PUSH0 KECCAK256 SWAP1 PUSH1 0x5 MUL ADD PUSH1 0x40 MLOAD DUP1 PUSH1 0xA0 ADD PUSH1 0x40 MSTORE SWAP1 DUP2 PUSH0 DUP3 ADD DUP1 SLOAD PUSH2 0x559 SWAP1 PUSH2 0x148F JUMP JUMPDEST DUP1 PUSH1 0x1F ADD PUSH1 0x20 DUP1 SWAP2 DIV MUL PUSH1 0x20 ADD PUSH1 0x40 MLOAD SWAP1 DUP2 ADD PUSH1 0x40 MSTORE DUP1 SWAP3 SWAP2 SWAP1 DUP2 DUP2 MSTORE PUSH1 0x20 ADD DUP3 DUP1 SLOAD PUSH2 0x585 SWAP1 PUSH2 0x148F JUMP JUMPDEST DUP1 ISZERO PUSH2 0x5D0 JUMPI DUP1 PUSH1 0x1F LT PUSH2 0x5A7 JUMPI PUSH2 0x100 DUP1 DUP4 SLOAD DIV MUL DUP4 MSTORE SWAP2 PUSH1 0x20 ADD SWAP2 PUSH2 0x5D0 JUMP JUMPDEST DUP3 ADD SWAP2 SWAP1 PUSH0 MSTORE PUSH1 0x20 PUSH0 KECCAK256 SWAP1 JUMPDEST DUP2 SLOAD DUP2 MSTORE SWAP1 PUSH1 0x1 ADD SWAP1 PUSH1 0x20 ADD DUP1 DUP4 GT PUSH2 0x5B3 JUMPI DUP3 SWAP1 SUB PUSH1 0x1F AND DUP3 ADD SWAP2 JUMPDEST POP POP POP POP POP DUP2 MSTORE PUSH1 0x20 ADD PUSH1 0x1 DUP3 ADD SLOAD DUP2 MSTORE PUSH1 0x20 ADD PUSH1 0x2 DUP3 ADD SLOAD DUP2 MSTORE PUSH1 0x20 ADD PUSH1 0x3 DUP3 ADD DUP1 SLOAD PUSH2 0x5FD SWAP1 PUSH2 0x148F JUMP JUMPDEST DUP1 PUSH1 0x1F ADD PUSH1 0x20 DUP1 SWAP2 DIV MUL PUSH1 0x20 ADD PUSH1 0x40 MLOAD SWAP1 DUP2 ADD PUSH1 0x40 MSTORE DUP1 SWAP3 SWAP2 SWAP1 DUP2 DUP2 MSTORE PUSH1 0x20 ADD DUP3 DUP1 SLOAD PUSH2 0x629 SWAP1 PUSH2 0x148F JUMP JUMPDEST DUP1 ISZERO PUSH2 0x674 JUMPI DUP1 PUSH1 0x1F LT PUSH2 0x64B JUMPI PUSH2 0x100 DUP1 DUP4 SLOAD DIV MUL DUP4 MSTORE SWAP2 PUSH1 0x20 ADD SWAP2 PUSH2 0x674 JUMP JUMPDEST DUP3 ADD SWAP2 SWAP1 PUSH0 MSTORE PUSH1 0x20 PUSH0 KECCAK256 SWAP1 JUMPDEST DUP2 SLOAD DUP2 MSTORE SWAP1 PUSH1 0x1 ADD SWAP1 PUSH1 0x20 ADD DUP1 DUP4 GT PUSH2 0x657 JUMPI DUP3 SWAP1 SUB PUSH1 0x1F AND DUP3 ADD SWAP2 JUMPDEST POP POP POP POP POP DUP2 MSTORE PUSH1 0x20 ADD PUSH1 0x4 DUP3 ADD DUP1 SLOAD DUP1 PUSH1 0x20 MUL PUSH1 0x20 ADD PUSH1 0x40 MLOAD SWAP1 DUP2 ADD PUSH1 0x40 MSTORE DUP1 SWAP3 SWAP2 SWAP1 DUP2 DUP2 MSTORE PUSH1 0x20 ADD PUSH0 SWAP1 JUMPDEST DUP3 DUP3 LT ISZERO PUSH2 0x749 JUMPI DUP4 DUP3 SWAP1 PUSH0 MSTORE PUSH1 0x20 PUSH0 KECCAK256 ADD DUP1 SLOAD PUSH2 0x6BE SWAP1 PUSH2 0x148F JUMP JUMPDEST DUP1 PUSH1 0x1F ADD PUSH1 0x20 DUP1 SWAP2 DIV MUL PUSH1 0x20 ADD PUSH1 0x40 MLOAD SWAP1 DUP2 ADD PUSH1 0x40 MSTORE DUP1 SWAP3 SWAP2 SWAP1 DUP2 DUP2 MSTORE PUSH1 0x20 ADD DUP3 DUP1 SLOAD PUSH2 0x6EA SWAP1 PUSH2 0x148F JUMP JUMPDEST DUP1 ISZERO PUSH2 0x735 JUMPI DUP1 PUSH1 0x1F LT PUSH2 0x70C JUMPI PUSH2 0x100 DUP1 DUP4 SLOAD DIV MUL DUP4 MSTORE SWAP2 PUSH1 0x20 ADD SWAP2 PUSH2 0x735 JUMP JUMPDEST DUP3 ADD SWAP2 SWAP1 PUSH0 MSTORE PUSH1 0x20 PUSH0 KECCAK256 SWAP1 JUMPDEST DUP2 SLOAD DUP2 MSTORE SWAP1 PUSH1 0x1 ADD SWAP1 PUSH1 0x20 ADD DUP1 DUP4 GT PUSH2 0x718 JUMPI DUP3 SWAP1 SUB PUSH1 0x1F AND DUP3 ADD SWAP2 JUMPDEST POP POP POP POP POP DUP2 MSTORE PUSH1 0x20 ADD SWAP1 PUSH1 0x1 ADD SWAP1 PUSH2 0x6A1 JUMP JUMPDEST POP POP POP POP DUP2 MSTORE POP POP DUP2 MSTORE PUSH1 0x20 ADD SWAP1 PUSH1 0x1 ADD SWAP1 PUSH2 0x529 JUMP JUMPDEST POP POP POP POP SWAP1 POP SWAP2 SWAP1 POP JUMP JUMPDEST PUSH0 PUSH1 0x60 SWAP1 SWAP2 JUMP JUMPDEST PUSH1 0x60 PUSH1 0x64 DUP3 GT ISZERO DUP1 ISZERO PUSH2 0x786 JUMPI POP PUSH1 0x5A DUP3 LT ISZERO JUMPDEST ISZERO PUSH2 0x7C8 JUMPI PUSH1 0x40 MLOAD DUP1 PUSH1 0x40 ADD PUSH1 0x40 MSTORE DUP1 PUSH1 0x1 DUP2 MSTORE PUSH1 0x20 ADD PUSH32 0x4100000000000000000000000000000000000000000000000000000000000000 DUP2 MSTORE POP SWAP1 POP PUSH2 0x8FA JUMP JUMPDEST PUSH1 0x5A DUP3 LT DUP1 ISZERO PUSH2 0x7D9 JUMPI POP PUSH1 0x50 DUP3 LT ISZERO JUMPDEST ISZERO PUSH2 0x81B JUMPI PUSH1 0x40 MLOAD DUP1 PUSH1 0x40 ADD PUSH1 0x40 MSTORE DUP1 PUSH1 0x1 DUP2 MSTORE PUSH1 0x20 ADD PUSH32 0x4200000000000000000000000000000000000000000000000000000000000000 DUP2 MSTORE POP SWAP1 POP PUSH2 0x8FA JUMP JUMPDEST PUSH1 0x50 DUP3 LT DUP1 ISZERO PUSH2 0x82C JUMPI POP PUSH1 0x46 DUP3 LT ISZERO JUMPDEST ISZERO PUSH2 0x86E JUMPI PUSH1 0x40 MLOAD DUP1 PUSH1 0x40 ADD PUSH1 0x40 MSTORE DUP1 PUSH1 0x1 DUP2 MSTORE PUSH1 0x20 ADD PUSH32 0x4300000000000000000000000000000000000000000000000000000000000000 DUP2 MSTORE POP SWAP1 POP PUSH2 0x8FA JUMP JUMPDEST PUSH1 0x46 DUP3 LT DUP1 ISZERO PUSH2 0x87F JUMPI POP PUSH1 0x3C DUP3 LT ISZERO JUMPDEST ISZERO PUSH2 0x8C1 JUMPI PUSH1 0x40 MLOAD DUP1 PUSH1 0x40 ADD PUSH1 0x40 MSTORE DUP1 PUSH1 0x1 DUP2 MSTORE PUSH1 0x20 ADD PUSH32 0x4400000000000000000000000000000000000000000000000000000000000000 DUP2 MSTORE POP SWAP1 POP PUSH2 0x8FA JUMP JUMPDEST PUSH1 0x40 MLOAD DUP1 PUSH1 0x40 ADD PUSH1 0x40 MSTORE DUP1 PUSH1 0x1 DUP2 MSTORE PUSH1 0x20 ADD PUSH32 0x4600000000000000000000000000000000000000000000000000000000000000 DUP2 MSTORE POP SWAP1 POP JUMPDEST SWAP2 SWAP1 POP JUMP JUMPDEST PUSH0 PUSH1 0x40 MLOAD DUP1 PUSH1 0xA0 ADD PUSH1 0x40 MSTORE DUP1 DUP6 DUP2 MSTORE PUSH1 0x20 ADD PUSH0 DUP1 SLOAD SWAP1 POP DUP2 MSTORE PUSH1 0x20 ADD DUP5 DUP2 MSTORE PUSH1 0x20 ADD PUSH2 0x92A DUP6 PUSH2 0x772 JUMP JUMPDEST DUP2 MSTORE PUSH1 0x20 ADD DUP4 DUP2 MSTORE POP SWAP1 DUP1 PUSH1 0x1 DUP2 SLOAD ADD DUP1 DUP3 SSTORE DUP1 SWAP2 POP POP PUSH1 0x1 SWAP1 SUB SWAP1 PUSH0 MSTORE PUSH1 0x20 PUSH0 KECCAK256 SWAP1 PUSH1 0x5 MUL ADD PUSH0 SWAP1 SWAP2 SWAP1 SWAP2 SWAP1 SWAP2 POP PUSH0 DUP3 ADD MLOAD DUP2 PUSH0 ADD SWAP1 DUP2 PUSH2 0x96C SWAP2 SWAP1 PUSH2 0x16AC JUMP JUMPDEST POP PUSH1 0x20 DUP3 ADD MLOAD DUP2 PUSH1 0x1 ADD SSTORE PUSH1 0x40 DUP3 ADD MLOAD DUP2 PUSH1 0x2 ADD SSTORE PUSH1 0x60 DUP3 ADD MLOAD DUP2 PUSH1 0x3 ADD SWAP1 DUP2 PUSH2 0x996 SWAP2 SWAP1 PUSH2 0x16AC JUMP JUMPDEST POP PUSH1 0x80 DUP3 ADD MLOAD DUP2 PUSH1 0x4 ADD SWAP1 DUP1 MLOAD SWAP1 PUSH1 0x20 ADD SWAP1 PUSH2 0x9B3 SWAP3 SWAP2 SWAP1 PUSH2 0xCBD JUMP JUMPDEST POP POP POP POP POP POP JUMP JUMPDEST PUSH1 0x60 PUSH1 0x1 DUP3 PUSH1 0x40 MLOAD PUSH2 0x9CD SWAP2 SWAP1 PUSH2 0x14F9 JUMP JUMPDEST SWAP1 DUP2 MSTORE PUSH1 0x20 ADD PUSH1 0x40 MLOAD DUP1 SWAP2 SUB SWAP1 KECCAK256 DUP1 SLOAD DUP1 PUSH1 0x20 MUL PUSH1 0x20 ADD PUSH1 0x40 MLOAD SWAP1 DUP2 ADD PUSH1 0x40 MSTORE DUP1 SWAP3 SWAP2 SWAP1 DUP2 DUP2 MSTORE PUSH1 0x20 ADD PUSH0 SWAP1 JUMPDEST DUP3 DUP3 LT ISZERO PUSH2 0xC31 JUMPI DUP4 DUP3 SWAP1 PUSH0 MSTORE PUSH1 0x20 PUSH0 KECCAK256 SWAP1 PUSH1 0x5 MUL ADD PUSH1 0x40 MLOAD DUP1 PUSH1 0xA0 ADD PUSH1 0x40 MSTORE SWAP1 DUP2 PUSH0 DUP3 ADD DUP1 SLOAD PUSH2 0xA2A SWAP1 PUSH2 0x148F JUMP JUMPDEST DUP1 PUSH1 0x1F ADD PUSH1 0x20 DUP1 SWAP2 DIV MUL PUSH1 0x20 ADD PUSH1 0x40 MLOAD SWAP1 DUP2 ADD PUSH1 0x40 MSTORE DUP1 SWAP3 SWAP2 SWAP1 DUP2 DUP2 MSTORE PUSH1 0x20 ADD DUP3 DUP1 SLOAD PUSH2 0xA56 SWAP1 PUSH2 0x148F JUMP JUMPDEST DUP1 ISZERO PUSH2 0xAA1 JUMPI DUP1 PUSH1 0x1F LT PUSH2 0xA78 JUMPI PUSH2 0x100 DUP1 DUP4 SLOAD DIV MUL DUP4 MSTORE SWAP2 PUSH1 0x20 ADD SWAP2 PUSH2 0xAA1 JUMP JUMPDEST DUP3 ADD SWAP2 SWAP1 PUSH0 MSTORE PUSH1 0x20 PUSH0 KECCAK256 SWAP1 JUMPDEST DUP2 SLOAD DUP2 MSTORE SWAP1 PUSH1 0x1 ADD SWAP1 PUSH1 0x20 ADD DUP1 DUP4 GT PUSH2 0xA84 JUMPI DUP3 SWAP1 SUB PUSH1 0x1F AND DUP3 ADD SWAP2 JUMPDEST POP POP POP POP POP DUP2 MSTORE PUSH1 0x20 ADD PUSH1 0x1 DUP3 ADD SLOAD DUP2 MSTORE PUSH1 0x20 ADD PUSH1 0x2 DUP3 ADD SLOAD DUP2 MSTORE PUSH1 0x20 ADD PUSH1 0x3 DUP3 ADD DUP1 SLOAD PUSH2 0xACE SWAP1 PUSH2 0x148F JUMP JUMPDEST DUP1 PUSH1 0x1F ADD PUSH1 0x20 DUP1 SWAP2 DIV MUL PUSH1 0x20 ADD PUSH1 0x40 MLOAD SWAP1 DUP2 ADD PUSH1 0x40 MSTORE DUP1 SWAP3 SWAP2 SWAP1 DUP2 DUP2 MSTORE PUSH1 0x20 ADD DUP3 DUP1 SLOAD PUSH2 0xAFA SWAP1 PUSH2 0x148F JUMP JUMPDEST DUP1 ISZERO PUSH2 0xB45 JUMPI DUP1 PUSH1 0x1F LT PUSH2 0xB1C JUMPI PUSH2 0x100 DUP1 DUP4 SLOAD DIV MUL DUP4 MSTORE SWAP2 PUSH1 0x20 ADD SWAP2 PUSH2 0xB45 JUMP JUMPDEST DUP3 ADD SWAP2 SWAP1 PUSH0 MSTORE PUSH1 0x20 PUSH0 KECCAK256 SWAP1 JUMPDEST DUP2 SLOAD DUP2 MSTORE SWAP1 PUSH1 0x1 ADD SWAP1 PUSH1 0x20 ADD DUP1 DUP4 GT PUSH2 0xB28 JUMPI DUP3 SWAP1 SUB PUSH1 0x1F AND DUP3 ADD SWAP2 JUMPDEST POP POP POP POP POP DUP2 MSTORE PUSH1 0x20 ADD PUSH1 0x4 DUP3 ADD DUP1 SLOAD DUP1 PUSH1 0x20 MUL PUSH1 0x20 ADD PUSH1 0x40 MLOAD SWAP1 DUP2 ADD PUSH1 0x40 MSTORE DUP1 SWAP3 SWAP2 SWAP1 DUP2 DUP2 MSTORE PUSH1 0x20 ADD PUSH0 SWAP1 JUMPDEST DUP3 DUP3 LT ISZERO PUSH2 0xC1A JUMPI DUP4 DUP3 SWAP1 PUSH0 MSTORE PUSH1 0x20 PUSH0 KECCAK256 ADD DUP1 SLOAD PUSH2 0xB8F SWAP1 PUSH2 0x148F JUMP JUMPDEST DUP1 PUSH1 0x1F ADD PUSH1 0x20 DUP1 SWAP2 DIV MUL PUSH1 0x20 ADD PUSH1 0x40 MLOAD SWAP1 DUP2 ADD PUSH1 0x40 MSTORE DUP1 SWAP3 SWAP2 SWAP1 DUP2 DUP2 MSTORE PUSH1 0x20 ADD DUP3 DUP1 SLOAD PUSH2 0xBBB SWAP1 PUSH2 0x148F JUMP JUMPDEST DUP1 ISZERO PUSH2 0xC06 JUMPI DUP1 PUSH1 0x1F LT PUSH2 0xBDD JUMPI PUSH2 0x100 DUP1 DUP4 SLOAD DIV MUL DUP4 MSTORE SWAP2 PUSH1 0x20 ADD SWAP2 PUSH2 0xC06 JUMP JUMPDEST DUP3 ADD SWAP2 SWAP1 PUSH0 MSTORE PUSH1 0x20 PUSH0 KECCAK256 SWAP1 JUMPDEST DUP2 SLOAD DUP2 MSTORE SWAP1 PUSH1 0x1 ADD SWAP1 PUSH1 0x20 ADD DUP1 DUP4 GT PUSH2 0xBE9 JUMPI DUP3 SWAP1 SUB PUSH1 0x1F AND DUP3 ADD SWAP2 JUMPDEST POP POP POP POP POP DUP2 MSTORE PUSH1 0x20 ADD SWAP1 PUSH1 0x1 ADD SWAP1 PUSH2 0xB72 JUMP JUMPDEST POP POP POP POP DUP2 MSTORE POP POP DUP2 MSTORE PUSH1 0x20 ADD SWAP1 PUSH1 0x1 ADD SWAP1 PUSH2 0x9FA JUMP JUMPDEST POP POP POP POP SWAP1 POP SWAP2 SWAP1 POP JUMP JUMPDEST PUSH0 PUSH1 0x46 PUSH2 0xC47 PUSH2 0xC5C JUMP JUMPDEST LT PUSH2 0xC55 JUMPI PUSH1 0x1 SWAP1 POP PUSH2 0xC59 JUMP JUMPDEST PUSH0 SWAP1 POP JUMPDEST SWAP1 JUMP JUMPDEST PUSH0 DUP1 PUSH0 JUMPDEST PUSH1 0x1 PUSH0 DUP1 SLOAD SWAP1 POP PUSH2 0xC71 SWAP2 SWAP1 PUSH2 0x17A8 JUMP JUMPDEST DUP2 LT ISZERO PUSH2 0xC9B JUMPI PUSH2 0xC81 DUP2 PUSH2 0x24E JUMP JUMPDEST DUP3 PUSH2 0xC8C SWAP2 SWAP1 PUSH2 0x17A8 JUMP JUMPDEST SWAP2 POP DUP1 DUP1 PUSH1 0x1 ADD SWAP2 POP POP PUSH2 0xC60 JUMP JUMPDEST PUSH0 DUP1 SLOAD SWAP1 POP DUP3 PUSH2 0xCAB SWAP2 SWAP1 PUSH2 0x1808 JUMP JUMPDEST SWAP3 POP POP POP SWAP1 JUMP JUMPDEST PUSH0 DUP1 DUP1 SLOAD SWAP1 POP SWAP1 POP SWAP1 JUMP JUMPDEST DUP3 DUP1 SLOAD DUP3 DUP3 SSTORE SWAP1 PUSH0 MSTORE PUSH1 0x20 PUSH0 KECCAK256 SWAP1 DUP2 ADD SWAP3 DUP3 ISZERO PUSH2 0xD03 JUMPI SWAP2 PUSH1 0x20 MUL DUP3 ADD JUMPDEST DUP3 DUP2 GT ISZERO PUSH2 0xD02 JUMPI DUP3 MLOAD DUP3 SWAP1 DUP2 PUSH2 0xCF2 SWAP2 SWAP1 PUSH2 0x16AC JUMP JUMPDEST POP SWAP2 PUSH1 0x20 ADD SWAP2 SWAP1 PUSH1 0x1 ADD SWAP1 PUSH2 0xCDB JUMP JUMPDEST JUMPDEST POP SWAP1 POP PUSH2 0xD10 SWAP2 SWAP1 PUSH2 0xD14 JUMP JUMPDEST POP SWAP1 JUMP JUMPDEST JUMPDEST DUP1 DUP3 GT ISZERO PUSH2 0xD33 JUMPI PUSH0 DUP2 DUP2 PUSH2 0xD2A SWAP2 SWAP1 PUSH2 0xD37 JUMP JUMPDEST POP PUSH1 0x1 ADD PUSH2 0xD15 JUMP JUMPDEST POP SWAP1 JUMP JUMPDEST POP DUP1 SLOAD PUSH2 0xD43 SWAP1 PUSH2 0x148F JUMP JUMPDEST PUSH0 DUP3 SSTORE DUP1 PUSH1 0x1F LT PUSH2 0xD54 JUMPI POP PUSH2 0xD71 JUMP JUMPDEST PUSH1 0x1F ADD PUSH1 0x20 SWAP1 DIV SWAP1 PUSH0 MSTORE PUSH1 0x20 PUSH0 KECCAK256 SWAP1 DUP2 ADD SWAP1 PUSH2 0xD70 SWAP2 SWAP1 PUSH2 0xD74 JUMP JUMPDEST JUMPDEST POP JUMP JUMPDEST JUMPDEST DUP1 DUP3 GT ISZERO PUSH2 0xD8B JUMPI PUSH0 DUP2 PUSH0 SWAP1 SSTORE POP PUSH1 0x1 ADD PUSH2 0xD75 JUMP JUMPDEST POP SWAP1 JUMP JUMPDEST PUSH0 PUSH1 0x40 MLOAD SWAP1 POP SWAP1 JUMP JUMPDEST PUSH0 DUP1 REVERT JUMPDEST PUSH0 DUP1 REVERT JUMPDEST PUSH0 DUP2 SWAP1 POP SWAP2 SWAP1 POP JUMP JUMPDEST PUSH2 0xDB2 DUP2 PUSH2 0xDA0 JUMP JUMPDEST DUP2 EQ PUSH2 0xDBC JUMPI PUSH0 DUP1 REVERT JUMPDEST POP JUMP JUMPDEST PUSH0 DUP2 CALLDATALOAD SWAP1 POP PUSH2 0xDCD DUP2 PUSH2 0xDA9 JUMP JUMPDEST SWAP3 SWAP2 POP POP JUMP JUMPDEST PUSH0 PUSH1 0x20 DUP3 DUP5 SUB SLT ISZERO PUSH2 0xDE8 JUMPI PUSH2 0xDE7 PUSH2 0xD98 JUMP JUMPDEST JUMPDEST PUSH0 PUSH2 0xDF5 DUP5 DUP3 DUP6 ADD PUSH2 0xDBF JUMP JUMPDEST SWAP2 POP POP SWAP3 SWAP2 POP POP JUMP JUMPDEST PUSH2 0xE07 DUP2 PUSH2 0xDA0 JUMP JUMPDEST DUP3 MSTORE POP POP JUMP JUMPDEST PUSH0 PUSH1 0x20 DUP3 ADD SWAP1 POP PUSH2 0xE20 PUSH0 DUP4 ADD DUP5 PUSH2 0xDFE JUMP JUMPDEST SWAP3 SWAP2 POP POP JUMP JUMPDEST PUSH0 DUP2 MLOAD SWAP1 POP SWAP2 SWAP1 POP JUMP JUMPDEST PUSH0 DUP3 DUP3 MSTORE PUSH1 0x20 DUP3 ADD SWAP1 POP SWAP3 SWAP2 POP POP JUMP JUMPDEST PUSH0 DUP2 SWAP1 POP PUSH1 0x20 DUP3 ADD SWAP1 POP SWAP2 SWAP1 POP JUMP JUMPDEST PUSH0 DUP2 MLOAD SWAP1 POP SWAP2 SWAP1 POP JUMP JUMPDEST PUSH0 DUP3 DUP3 MSTORE PUSH1 0x20 DUP3 ADD SWAP1 POP SWAP3 SWAP2 POP POP JUMP JUMPDEST DUP3 DUP2 DUP4 MCOPY PUSH0 DUP4 DUP4 ADD MSTORE POP POP POP JUMP JUMPDEST PUSH0 PUSH1 0x1F NOT PUSH1 0x1F DUP4 ADD AND SWAP1 POP SWAP2 SWAP1 POP JUMP JUMPDEST PUSH0 PUSH2 0xE91 DUP3 PUSH2 0xE4F JUMP JUMPDEST PUSH2 0xE9B DUP2 DUP6 PUSH2 0xE59 JUMP JUMPDEST SWAP4 POP PUSH2 0xEAB DUP2 DUP6 PUSH1 0x20 DUP7 ADD PUSH2 0xE69 JUMP JUMPDEST PUSH2 0xEB4 DUP2 PUSH2 0xE77 JUMP JUMPDEST DUP5 ADD SWAP2 POP POP SWAP3 SWAP2 POP POP JUMP JUMPDEST PUSH2 0xEC8 DUP2 PUSH2 0xDA0 JUMP JUMPDEST DUP3 MSTORE POP POP JUMP JUMPDEST PUSH0 DUP2 MLOAD SWAP1 POP SWAP2 SWAP1 POP JUMP JUMPDEST PUSH0 DUP3 DUP3 MSTORE PUSH1 0x20 DUP3 ADD SWAP1 POP SWAP3 SWAP2 POP POP JUMP JUMPDEST PUSH0 DUP2 SWAP1 POP PUSH1 0x20 DUP3 ADD SWAP1 POP SWAP2 SWAP1 POP JUMP JUMPDEST PUSH0 PUSH2 0xF02 DUP4 DUP4 PUSH2 0xE87 JUMP JUMPDEST SWAP1 POP SWAP3 SWAP2 POP POP JUMP JUMPDEST PUSH0 PUSH1 0x20 DUP3 ADD SWAP1 POP SWAP2 SWAP1 POP JUMP JUMPDEST PUSH0 PUSH2 0xF20 DUP3 PUSH2 0xECE JUMP JUMPDEST PUSH2 0xF2A DUP2 DUP6 PUSH2 0xED8 JUMP JUMPDEST SWAP4 POP DUP4 PUSH1 0x20 DUP3 MUL DUP6 ADD PUSH2 0xF3C DUP6 PUSH2 0xEE8 JUMP JUMPDEST DUP1 PUSH0 JUMPDEST DUP6 DUP2 LT ISZERO PUSH2 0xF77 JUMPI DUP5 DUP5 SUB DUP10 MSTORE DUP2 MLOAD PUSH2 0xF58 DUP6 DUP3 PUSH2 0xEF7 JUMP JUMPDEST SWAP5 POP PUSH2 0xF63 DUP4 PUSH2 0xF0A JUMP JUMPDEST SWAP3 POP PUSH1 0x20 DUP11 ADD SWAP10 POP POP PUSH1 0x1 DUP2 ADD SWAP1 POP PUSH2 0xF3F JUMP JUMPDEST POP DUP3 SWAP8 POP DUP8 SWAP6 POP POP POP POP POP POP SWAP3 SWAP2 POP POP JUMP JUMPDEST PUSH0 PUSH1 0xA0 DUP4 ADD PUSH0 DUP4 ADD MLOAD DUP5 DUP3 SUB PUSH0 DUP7 ADD MSTORE PUSH2 0xFA3 DUP3 DUP3 PUSH2 0xE87 JUMP JUMPDEST SWAP2 POP POP PUSH1 0x20 DUP4 ADD MLOAD PUSH2 0xFB8 PUSH1 0x20 DUP7 ADD DUP3 PUSH2 0xEBF JUMP JUMPDEST POP PUSH1 0x40 DUP4 ADD MLOAD PUSH2 0xFCB PUSH1 0x40 DUP7 ADD DUP3 PUSH2 0xEBF JUMP JUMPDEST POP PUSH1 0x60 DUP4 ADD MLOAD DUP5 DUP3 SUB PUSH1 0x60 DUP7 ADD MSTORE PUSH2 0xFE3 DUP3 DUP3 PUSH2 0xE87 JUMP JUMPDEST SWAP2 POP POP PUSH1 0x80 DUP4 ADD MLOAD DUP5 DUP3 SUB PUSH1 0x80 DUP7 ADD MSTORE PUSH2 0xFFD DUP3 DUP3 PUSH2 0xF16 JUMP JUMPDEST SWAP2 POP POP DUP1 SWAP2 POP POP SWAP3 SWAP2 POP POP JUMP JUMPDEST PUSH0 PUSH2 0x1015 DUP4 DUP4 PUSH2 0xF89 JUMP JUMPDEST SWAP1 POP SWAP3 SWAP2 POP POP JUMP JUMPDEST PUSH0 PUSH1 0x20 DUP3 ADD SWAP1 POP SWAP2 SWAP1 POP JUMP JUMPDEST PUSH0 PUSH2 0x1033 DUP3 PUSH2 0xE26 JUMP JUMPDEST PUSH2 0x103D DUP2 DUP6 PUSH2 0xE30 JUMP JUMPDEST SWAP4 POP DUP4 PUSH1 0x20 DUP3 MUL DUP6 ADD PUSH2 0x104F DUP6 PUSH2 0xE40 JUMP JUMPDEST DUP1 PUSH0 JUMPDEST DUP6 DUP2 LT ISZERO PUSH2 0x108A JUMPI DUP5 DUP5 SUB DUP10 MSTORE DUP2 MLOAD PUSH2 0x106B DUP6 DUP3 PUSH2 0x100A JUMP JUMPDEST SWAP5 POP PUSH2 0x1076 DUP4 PUSH2 0x101D JUMP JUMPDEST SWAP3 POP PUSH1 0x20 DUP11 ADD SWAP10 POP POP PUSH1 0x1 DUP2 ADD SWAP1 POP PUSH2 0x1052 JUMP JUMPDEST POP DUP3 SWAP8 POP DUP8 SWAP6 POP POP POP POP POP POP SWAP3 SWAP2 POP POP JUMP JUMPDEST PUSH0 PUSH1 0x20 DUP3 ADD SWAP1 POP DUP2 DUP2 SUB PUSH0 DUP4 ADD MSTORE PUSH2 0x10B4 DUP2 DUP5 PUSH2 0x1029 JUMP JUMPDEST SWAP1 POP SWAP3 SWAP2 POP POP JUMP JUMPDEST PUSH0 DUP1 REVERT JUMPDEST PUSH0 DUP1 REVERT JUMPDEST PUSH32 0x4E487B7100000000000000000000000000000000000000000000000000000000 PUSH0 MSTORE PUSH1 0x41 PUSH1 0x4 MSTORE PUSH1 0x24 PUSH0 REVERT JUMPDEST PUSH2 0x10FA DUP3 PUSH2 0xE77 JUMP JUMPDEST DUP2 ADD DUP2 DUP2 LT PUSH8 0xFFFFFFFFFFFFFFFF DUP3 GT OR ISZERO PUSH2 0x1119 JUMPI PUSH2 0x1118 PUSH2 0x10C4 JUMP JUMPDEST JUMPDEST DUP1 PUSH1 0x40 MSTORE POP POP POP JUMP JUMPDEST PUSH0 PUSH2 0x112B PUSH2 0xD8F JUMP JUMPDEST SWAP1 POP PUSH2 0x1137 DUP3 DUP3 PUSH2 0x10F1 JUMP JUMPDEST SWAP2 SWAP1 POP JUMP JUMPDEST PUSH0 PUSH8 0xFFFFFFFFFFFFFFFF DUP3 GT ISZERO PUSH2 0x1156 JUMPI PUSH2 0x1155 PUSH2 0x10C4 JUMP JUMPDEST JUMPDEST PUSH2 0x115F DUP3 PUSH2 0xE77 JUMP JUMPDEST SWAP1 POP PUSH1 0x20 DUP2 ADD SWAP1 POP SWAP2 SWAP1 POP JUMP JUMPDEST DUP3 DUP2 DUP4 CALLDATACOPY PUSH0 DUP4 DUP4 ADD MSTORE POP POP POP JUMP JUMPDEST PUSH0 PUSH2 0x118C PUSH2 0x1187 DUP5 PUSH2 0x113C JUMP JUMPDEST PUSH2 0x1122 JUMP JUMPDEST SWAP1 POP DUP3 DUP2 MSTORE PUSH1 0x20 DUP2 ADD DUP5 DUP5 DUP5 ADD GT ISZERO PUSH2 0x11A8 JUMPI PUSH2 0x11A7 PUSH2 0x10C0 JUMP JUMPDEST JUMPDEST PUSH2 0x11B3 DUP5 DUP3 DUP6 PUSH2 0x116C JUMP JUMPDEST POP SWAP4 SWAP3 POP POP POP JUMP JUMPDEST PUSH0 DUP3 PUSH1 0x1F DUP4 ADD SLT PUSH2 0x11CF JUMPI PUSH2 0x11CE PUSH2 0x10BC JUMP JUMPDEST JUMPDEST DUP2 CALLDATALOAD PUSH2 0x11DF DUP5 DUP3 PUSH1 0x20 DUP7 ADD PUSH2 0x117A JUMP JUMPDEST SWAP2 POP POP SWAP3 SWAP2 POP POP JUMP JUMPDEST PUSH0 PUSH1 0x20 DUP3 DUP5 SUB SLT ISZERO PUSH2 0x11FD JUMPI PUSH2 0x11FC PUSH2 0xD98 JUMP JUMPDEST JUMPDEST PUSH0 DUP3 ADD CALLDATALOAD PUSH8 0xFFFFFFFFFFFFFFFF DUP2 GT ISZERO PUSH2 0x121A JUMPI PUSH2 0x1219 PUSH2 0xD9C JUMP JUMPDEST JUMPDEST PUSH2 0x1226 DUP5 DUP3 DUP6 ADD PUSH2 0x11BB JUMP JUMPDEST SWAP2 POP POP SWAP3 SWAP2 POP POP JUMP JUMPDEST PUSH0 PUSH1 0x40 DUP3 ADD SWAP1 POP PUSH2 0x1242 PUSH0 DUP4 ADD DUP6 PUSH2 0xDFE JUMP JUMPDEST DUP2 DUP2 SUB PUSH1 0x20 DUP4 ADD MSTORE PUSH2 0x1254 DUP2 DUP5 PUSH2 0x1029 JUMP JUMPDEST SWAP1 POP SWAP4 SWAP3 POP POP POP JUMP JUMPDEST PUSH0 DUP3 DUP3 MSTORE PUSH1 0x20 DUP3 ADD SWAP1 POP SWAP3 SWAP2 POP POP JUMP JUMPDEST PUSH0 PUSH2 0x1277 DUP3 PUSH2 0xE4F JUMP JUMPDEST PUSH2 0x1281 DUP2 DUP6 PUSH2 0x125D JUMP JUMPDEST SWAP4 POP PUSH2 0x1291 DUP2 DUP6 PUSH1 0x20 DUP7 ADD PUSH2 0xE69 JUMP JUMPDEST PUSH2 0x129A DUP2 PUSH2 0xE77 JUMP JUMPDEST DUP5 ADD SWAP2 POP POP SWAP3 SWAP2 POP POP JUMP JUMPDEST PUSH0 PUSH1 0x20 DUP3 ADD SWAP1 POP DUP2 DUP2 SUB PUSH0 DUP4 ADD MSTORE PUSH2 0x12BD DUP2 DUP5 PUSH2 0x126D JUMP JUMPDEST SWAP1 POP SWAP3 SWAP2 POP POP JUMP JUMPDEST PUSH0 PUSH8 0xFFFFFFFFFFFFFFFF DUP3 GT ISZERO PUSH2 0x12DF JUMPI PUSH2 0x12DE PUSH2 0x10C4 JUMP JUMPDEST JUMPDEST PUSH1 0x20 DUP3 MUL SWAP1 POP PUSH1 0x20 DUP2 ADD SWAP1 POP SWAP2 SWAP1 POP JUMP JUMPDEST PUSH0 DUP1 REVERT JUMPDEST PUSH0 PUSH2 0x1306 PUSH2 0x1301 DUP5 PUSH2 0x12C5 JUMP JUMPDEST PUSH2 0x1122 JUMP JUMPDEST SWAP1 POP DUP1 DUP4 DUP3 MSTORE PUSH1 0x20 DUP3 ADD SWAP1 POP PUSH1 0x20 DUP5 MUL DUP4 ADD DUP6 DUP2 GT ISZERO PUSH2 0x1329 JUMPI PUSH2 0x1328 PUSH2 0x12F0 JUMP JUMPDEST JUMPDEST DUP4 JUMPDEST DUP2 DUP2 LT ISZERO PUSH2 0x1370 JUMPI DUP1 CALLDATALOAD PUSH8 0xFFFFFFFFFFFFFFFF DUP2 GT ISZERO PUSH2 0x134E JUMPI PUSH2 0x134D PUSH2 0x10BC JUMP JUMPDEST JUMPDEST DUP1 DUP7 ADD PUSH2 0x135B DUP10 DUP3 PUSH2 0x11BB JUMP JUMPDEST DUP6 MSTORE PUSH1 0x20 DUP6 ADD SWAP5 POP POP POP PUSH1 0x20 DUP2 ADD SWAP1 POP PUSH2 0x132B JUMP JUMPDEST POP POP POP SWAP4 SWAP3 POP POP POP JUMP JUMPDEST PUSH0 DUP3 PUSH1 0x1F DUP4 ADD SLT PUSH2 0x138E JUMPI PUSH2 0x138D PUSH2 0x10BC JUMP JUMPDEST JUMPDEST DUP2 CALLDATALOAD PUSH2 0x139E DUP5 DUP3 PUSH1 0x20 DUP7 ADD PUSH2 0x12F4 JUMP JUMPDEST SWAP2 POP POP SWAP3 SWAP2 POP POP JUMP JUMPDEST PUSH0 DUP1 PUSH0 PUSH1 0x60 DUP5 DUP7 SUB SLT ISZERO PUSH2 0x13BE JUMPI PUSH2 0x13BD PUSH2 0xD98 JUMP JUMPDEST JUMPDEST PUSH0 DUP5 ADD CALLDATALOAD PUSH8 0xFFFFFFFFFFFFFFFF DUP2 GT ISZERO PUSH2 0x13DB JUMPI PUSH2 0x13DA PUSH2 0xD9C JUMP JUMPDEST JUMPDEST PUSH2 0x13E7 DUP7 DUP3 DUP8 ADD PUSH2 0x11BB JUMP JUMPDEST SWAP4 POP POP PUSH1 0x20 PUSH2 0x13F8 DUP7 DUP3 DUP8 ADD PUSH2 0xDBF JUMP JUMPDEST SWAP3 POP POP PUSH1 0x40 DUP5 ADD CALLDATALOAD PUSH8 0xFFFFFFFFFFFFFFFF DUP2 GT ISZERO PUSH2 0x1419 JUMPI PUSH2 0x1418 PUSH2 0xD9C JUMP JUMPDEST JUMPDEST PUSH2 0x1425 DUP7 DUP3 DUP8 ADD PUSH2 0x137A JUMP JUMPDEST SWAP2 POP POP SWAP3 POP SWAP3 POP SWAP3 JUMP JUMPDEST PUSH0 DUP2 ISZERO ISZERO SWAP1 POP SWAP2 SWAP1 POP JUMP JUMPDEST PUSH2 0x1443 DUP2 PUSH2 0x142F JUMP JUMPDEST DUP3 MSTORE POP POP JUMP JUMPDEST PUSH0 PUSH1 0x20 DUP3 ADD SWAP1 POP PUSH2 0x145C PUSH0 DUP4 ADD DUP5 PUSH2 0x143A JUMP JUMPDEST SWAP3 SWAP2 POP POP JUMP JUMPDEST PUSH32 0x4E487B7100000000000000000000000000000000000000000000000000000000 PUSH0 MSTORE PUSH1 0x22 PUSH1 0x4 MSTORE PUSH1 0x24 PUSH0 REVERT JUMPDEST PUSH0 PUSH1 0x2 DUP3 DIV SWAP1 POP PUSH1 0x1 DUP3 AND DUP1 PUSH2 0x14A6 JUMPI PUSH1 0x7F DUP3 AND SWAP2 POP JUMPDEST PUSH1 0x20 DUP3 LT DUP2 SUB PUSH2 0x14B9 JUMPI PUSH2 0x14B8 PUSH2 0x1462 JUMP JUMPDEST JUMPDEST POP SWAP2 SWAP1 POP JUMP JUMPDEST PUSH0 DUP2 SWAP1 POP SWAP3 SWAP2 POP POP JUMP JUMPDEST PUSH0 PUSH2 0x14D3 DUP3 PUSH2 0xE4F JUMP JUMPDEST PUSH2 0x14DD DUP2 DUP6 PUSH2 0x14BF JUMP JUMPDEST SWAP4 POP PUSH2 0x14ED DUP2 DUP6 PUSH1 0x20 DUP7 ADD PUSH2 0xE69 JUMP JUMPDEST DUP1 DUP5 ADD SWAP2 POP POP SWAP3 SWAP2 POP POP JUMP JUMPDEST PUSH0 PUSH2 0x1504 DUP3 DUP5 PUSH2 0x14C9 JUMP JUMPDEST SWAP2 POP DUP2 SWAP1 POP SWAP3 SWAP2 POP POP JUMP JUMPDEST PUSH0 DUP2 SWAP1 POP DUP2 PUSH0 MSTORE PUSH1 0x20 PUSH0 KECCAK256 SWAP1 POP SWAP2 SWAP1 POP JUMP JUMPDEST PUSH0 PUSH1 0x20 PUSH1 0x1F DUP4 ADD DIV SWAP1 POP SWAP2 SWAP1 POP JUMP JUMPDEST PUSH0 DUP3 DUP3 SHL SWAP1 POP SWAP3 SWAP2 POP POP JUMP JUMPDEST PUSH0 PUSH1 0x8 DUP4 MUL PUSH2 0x156B PUSH32 0xFFFFFFFFFFFFFFFFFFFFFFFFFFFFFFFFFFFFFFFFFFFFFFFFFFFFFFFFFFFFFFFF DUP3 PUSH2 0x1530 JUMP JUMPDEST PUSH2 0x1575 DUP7 DUP4 PUSH2 0x1530 JUMP JUMPDEST SWAP6 POP DUP1 NOT DUP5 AND SWAP4 POP DUP1 DUP7 AND DUP5 OR SWAP3 POP POP POP SWAP4 SWAP3 POP POP POP JUMP JUMPDEST PUSH0 DUP2 SWAP1 POP SWAP2 SWAP1 POP JUMP JUMPDEST PUSH0 PUSH2 0x15B0 PUSH2 0x15AB PUSH2 0x15A6 DUP5 PUSH2 0xDA0 JUMP JUMPDEST PUSH2 0x158D JUMP JUMPDEST PUSH2 0xDA0 JUMP JUMPDEST SWAP1 POP SWAP2 SWAP1 POP JUMP JUMPDEST PUSH0 DUP2 SWAP1 POP SWAP2 SWAP1 POP JUMP JUMPDEST PUSH2 0x15C9 DUP4 PUSH2 0x1596 JUMP JUMPDEST PUSH2 0x15DD PUSH2 0x15D5 DUP3 PUSH2 0x15B7 JUMP JUMPDEST DUP5 DUP5 SLOAD PUSH2 0x153C JUMP JUMPDEST DUP3 SSTORE POP POP POP POP JUMP JUMPDEST PUSH0 SWAP1 JUMP JUMPDEST PUSH2 0x15F1 PUSH2 0x15E5 JUMP JUMPDEST PUSH2 0x15FC DUP2 DUP5 DUP5 PUSH2 0x15C0 JUMP JUMPDEST POP POP POP JUMP JUMPDEST JUMPDEST DUP2 DUP2 LT ISZERO PUSH2 0x161F JUMPI PUSH2 0x1614 PUSH0 DUP3 PUSH2 0x15E9 JUMP JUMPDEST PUSH1 0x1 DUP2 ADD SWAP1 POP PUSH2 0x1602 JUMP JUMPDEST POP POP JUMP JUMPDEST PUSH1 0x1F DUP3 GT ISZERO PUSH2 0x1664 JUMPI PUSH2 0x1635 DUP2 PUSH2 0x150F JUMP JUMPDEST PUSH2 0x163E DUP5 PUSH2 0x1521 JUMP JUMPDEST DUP2 ADD PUSH1 0x20 DUP6 LT ISZERO PUSH2 0x164D JUMPI DUP2 SWAP1 POP JUMPDEST PUSH2 0x1661 PUSH2 0x1659 DUP6 PUSH2 0x1521 JUMP JUMPDEST DUP4 ADD DUP3 PUSH2 0x1601 JUMP JUMPDEST POP POP JUMPDEST POP POP POP JUMP JUMPDEST PUSH0 DUP3 DUP3 SHR SWAP1 POP SWAP3 SWAP2 POP POP JUMP JUMPDEST PUSH0 PUSH2 0x1684 PUSH0 NOT DUP5 PUSH1 0x8 MUL PUSH2 0x1669 JUMP JUMPDEST NOT DUP1 DUP4 AND SWAP2 POP POP SWAP3 SWAP2 POP POP JUMP JUMPDEST PUSH0 PUSH2 0x169C DUP4 DUP4 PUSH2 0x1675 JUMP JUMPDEST SWAP2 POP DUP3 PUSH1 0x2 MUL DUP3 OR SWAP1 POP SWAP3 SWAP2 POP POP JUMP JUMPDEST PUSH2 0x16B5 DUP3 PUSH2 0xE4F JUMP JUMPDEST PUSH8 0xFFFFFFFFFFFFFFFF DUP2 GT ISZERO PUSH2 0x16CE JUMPI PUSH2 0x16CD PUSH2 0x10C4 JUMP JUMPDEST JUMPDEST PUSH2 0x16D8 DUP3 SLOAD PUSH2 0x148F JUMP JUMPDEST PUSH2 0x16E3 DUP3 DUP3 DUP6 PUSH2 0x1623 JUMP JUMPDEST PUSH0 PUSH1 0x20 SWAP1 POP PUSH1 0x1F DUP4 GT PUSH1 0x1 DUP2 EQ PUSH2 0x1714 JUMPI PUSH0 DUP5 ISZERO PUSH2 0x1702 JUMPI DUP3 DUP8 ADD MLOAD SWAP1 POP JUMPDEST PUSH2 0x170C DUP6 DUP3 PUSH2 0x1691 JUMP JUMPDEST DUP7 SSTORE POP PUSH2 0x1773 JUMP JUMPDEST PUSH1 0x1F NOT DUP5 AND PUSH2 0x1722 DUP7 PUSH2 0x150F JUMP JUMPDEST PUSH0 JUMPDEST DUP3 DUP2 LT ISZERO PUSH2 0x1749 JUMPI DUP5 DUP10 ADD MLOAD DUP3 SSTORE PUSH1 0x1 DUP3 ADD SWAP2 POP PUSH1 0x20 DUP6 ADD SWAP5 POP PUSH1 0x20 DUP2 ADD SWAP1 POP PUSH2 0x1724 JUMP JUMPDEST DUP7 DUP4 LT ISZERO PUSH2 0x1766 JUMPI DUP5 DUP10 ADD MLOAD PUSH2 0x1762 PUSH1 0x1F DUP10 AND DUP3 PUSH2 0x1675 JUMP JUMPDEST DUP4 SSTORE POP JUMPDEST PUSH1 0x1 PUSH1 0x2 DUP9 MUL ADD DUP9 SSTORE POP POP POP JUMPDEST POP POP POP POP POP POP JUMP JUMPDEST PUSH32 0x4E487B7100000000000000000000000000000000000000000000000000000000 PUSH0 MSTORE PUSH1 0x11 PUSH1 0x4 MSTORE PUSH1 0x24 PUSH0 REVERT JUMPDEST PUSH0 PUSH2 0x17B2 DUP3 PUSH2 0xDA0 JUMP JUMPDEST SWAP2 POP PUSH2 0x17BD DUP4 PUSH2 0xDA0 JUMP JUMPDEST SWAP3 POP DUP3 DUP3 ADD SWAP1 POP DUP1 DUP3 GT ISZERO PUSH2 0x17D5 JUMPI PUSH2 0x17D4 PUSH2 0x177B JUMP JUMPDEST JUMPDEST SWAP3 SWAP2 POP POP JUMP JUMPDEST PUSH32 0x4E487B7100000000000000000000000000000000000000000000000000000000 PUSH0 MSTORE PUSH1 0x12 PUSH1 0x4 MSTORE PUSH1 0x24 PUSH0 REVERT JUMPDEST PUSH0 PUSH2 0x1812 DUP3 PUSH2 0xDA0 JUMP JUMPDEST SWAP2 POP PUSH2 0x181D DUP4 PUSH2 0xDA0 JUMP JUMPDEST SWAP3 POP DUP3 PUSH2 0x182D JUMPI PUSH2 0x182C PUSH2 0x17DB JUMP JUMPDEST JUMPDEST DUP3 DUP3 DIV SWAP1 POP SWAP3 SWAP2 POP POP JUMP INVALID LOG2 PUSH5 0x6970667358 0x22 SLT KECCAK256 CALLVALUE 0xE5 0xD4 SWAP7 PUSH3 0x22C28E 0xC8 0xC8 0xB7 ADDRESS 0x21 0xB7 DUP11 NUMBER 0xCE DUP3 0x2B 0x26 EXTCODECOPY BLOBBASEFEE PUSH24 0xEA89C52121D2914DEE64736F6C634300081A003300000000 "
				},
				"gasEstimates": {
					"creation": {
						"codeDepositCost": "1250800",
						"executionCost": "1300",
						"totalCost": "1252100"
					},
					"external": {
						"Average()": "infinite",
						"GradeF()": "infinite",
						"getAllStudent()": "infinite",
						"getLength()": "2550",
						"getScore(string)": "infinite",
						"getScores(uint256)": "infinite",
						"getstudentName(string)": "infinite",
						"getstudentNum(uint256)": "infinite",
						"pushStudent(string,uint256,string[])": "infinite",
						"setGrade(uint256)": "infinite",
						"teach()": "infinite"
					}
				},
				"methodIdentifiers": {
					"Average()": "b36a31c6",
					"GradeF()": "2eb6045e",
					"getAllStudent()": "133d0460",
					"getLength()": "be1c766b",
					"getScore(string)": "16020273",
					"getScores(uint256)": "04527d90",
					"getstudentName(string)": "a24746d8",
					"getstudentNum(uint256)": "1acb1542",
					"pushStudent(string,uint256,string[])": "74aa6858",
					"setGrade(uint256)": "674271cd",
					"teach()": "b30039fc"
				}
			},
			"storageLayout": {
				"storage": [
					{
						"astId": 17,
						"contract": "Coding test/test1.sol:TEST2",
						"label": "Students",
						"offset": 0,
						"slot": "0",
						"type": "t_array(t_struct(student)13_storage)dyn_storage"
					},
					{
						"astId": 104,
						"contract": "Coding test/test1.sol:TEST2",
						"label": "students1",
						"offset": 0,
						"slot": "1",
						"type": "t_mapping(t_string_memory_ptr,t_array(t_struct(student)13_storage)dyn_storage)"
					},
					{
						"astId": 110,
						"contract": "Coding test/test1.sol:TEST2",
						"label": "students2",
						"offset": 0,
						"slot": "2",
						"type": "t_mapping(t_uint256,t_array(t_struct(student)13_storage)dyn_storage)"
					},
					{
						"astId": 115,
						"contract": "Coding test/test1.sol:TEST2",
						"label": "students3",
						"offset": 0,
						"slot": "3",
						"type": "t_mapping(t_string_memory_ptr,t_struct(student)13_storage)"
					},
					{
						"astId": 120,
						"contract": "Coding test/test1.sol:TEST2",
						"label": "students4",
						"offset": 0,
						"slot": "4",
						"type": "t_mapping(t_uint256,t_struct(student)13_storage)"
					}
				],
				"types": {
					"t_array(t_string_storage)dyn_storage": {
						"base": "t_string_storage",
						"encoding": "dynamic_array",
						"label": "string[]",
						"numberOfBytes": "32"
					},
					"t_array(t_struct(student)13_storage)dyn_storage": {
						"base": "t_struct(student)13_storage",
						"encoding": "dynamic_array",
						"label": "struct TEST2.student[]",
						"numberOfBytes": "32"
					},
					"t_mapping(t_string_memory_ptr,t_array(t_struct(student)13_storage)dyn_storage)": {
						"encoding": "mapping",
						"key": "t_string_memory_ptr",
						"label": "mapping(string => struct TEST2.student[])",
						"numberOfBytes": "32",
						"value": "t_array(t_struct(student)13_storage)dyn_storage"
					},
					"t_mapping(t_string_memory_ptr,t_struct(student)13_storage)": {
						"encoding": "mapping",
						"key": "t_string_memory_ptr",
						"label": "mapping(string => struct TEST2.student)",
						"numberOfBytes": "32",
						"value": "t_struct(student)13_storage"
					},
					"t_mapping(t_uint256,t_array(t_struct(student)13_storage)dyn_storage)": {
						"encoding": "mapping",
						"key": "t_uint256",
						"label": "mapping(uint256 => struct TEST2.student[])",
						"numberOfBytes": "32",
						"value": "t_array(t_struct(student)13_storage)dyn_storage"
					},
					"t_mapping(t_uint256,t_struct(student)13_storage)": {
						"encoding": "mapping",
						"key": "t_uint256",
						"label": "mapping(uint256 => struct TEST2.student)",
						"numberOfBytes": "32",
						"value": "t_struct(student)13_storage"
					},
					"t_string_memory_ptr": {
						"encoding": "bytes",
						"label": "string",
						"numberOfBytes": "32"
					},
					"t_string_storage": {
						"encoding": "bytes",
						"label": "string",
						"numberOfBytes": "32"
					},
					"t_struct(student)13_storage": {
						"encoding": "inplace",
						"label": "struct TEST2.student",
						"members": [
							{
								"astId": 3,
								"contract": "Coding test/test1.sol:TEST2",
								"label": "name",
								"offset": 0,
								"slot": "0",
								"type": "t_string_storage"
							},
							{
								"astId": 5,
								"contract": "Coding test/test1.sol:TEST2",
								"label": "num",
								"offset": 0,
								"slot": "1",
								"type": "t_uint256"
							},
							{
								"astId": 7,
								"contract": "Coding test/test1.sol:TEST2",
								"label": "score",
								"offset": 0,
								"slot": "2",
								"type": "t_uint256"
							},
							{
								"astId": 9,
								"contract": "Coding test/test1.sol:TEST2",
								"label": "grade",
								"offset": 0,
								"slot": "3",
								"type": "t_string_storage"
							},
							{
								"astId": 12,
								"contract": "Coding test/test1.sol:TEST2",
								"label": "class",
								"offset": 0,
								"slot": "4",
								"type": "t_array(t_string_storage)dyn_storage"
							}
						],
						"numberOfBytes": "160"
					},
					"t_uint256": {
						"encoding": "inplace",
						"label": "uint256",
						"numberOfBytes": "32"
					}
				}
			},
			"userdoc": {
				"kind": "user",
				"methods": {},
				"version": 1
			}
		}
	}
}