{
	"Coding test/test1.sol": {
		"TEST1": {
			"abi": [
				{
					"inputs": [],
					"name": "Average",
					"outputs": [
						{
							"internalType": "uint256",
							"name": "",
							"type": "uint256"
						}
					],
					"stateMutability": "view",
					"type": "function"
				},
				{
					"inputs": [],
					"name": "getAllStudent",
					"outputs": [
						{
							"components": [
								{
									"internalType": "string",
									"name": "name",
									"type": "string"
								},
								{
									"internalType": "uint256",
									"name": "num",
									"type": "uint256"
								},
								{
									"internalType": "uint256",
									"name": "score",
									"type": "uint256"
								},
								{
									"internalType": "string",
									"name": "grade",
									"type": "string"
								},
								{
									"internalType": "string[]",
									"name": "class",
									"type": "string[]"
								}
							],
							"internalType": "struct TEST1.student[]",
							"name": "",
							"type": "tuple[]"
						}
					],
					"stateMutability": "view",
					"type": "function"
				},
				{
					"inputs": [],
					"name": "getLength",
					"outputs": [
						{
							"internalType": "uint256",
							"name": "",
							"type": "uint256"
						}
					],
					"stateMutability": "view",
					"type": "function"
				},
				{
					"inputs": [
						{
							"internalType": "string",
							"name": "_name",
							"type": "string"
						}
					],
					"name": "getScore",
					"outputs": [
						{
							"internalType": "uint256",
							"name": "",
							"type": "uint256"
						}
					],
					"stateMutability": "view",
					"type": "function"
				},
				{
					"inputs": [
						{
							"internalType": "uint256",
							"name": "i",
							"type": "uint256"
						}
					],
					"name": "getScores",
					"outputs": [
						{
							"internalType": "uint256",
							"name": "",
							"type": "uint256"
						}
					],
					"stateMutability": "view",
					"type": "function"
				},
				{
					"inputs": [
						{
							"internalType": "string",
							"name": "_name",
							"type": "string"
						}
					],
					"name": "getstudentName",
					"outputs": [
						{
							"components": [
								{
									"internalType": "string",
									"name": "name",
									"type": "string"
								},
								{
									"internalType": "uint256",
									"name": "num",
									"type": "uint256"
								},
								{
									"internalType": "uint256",
									"name": "score",
									"type": "uint256"
								},
								{
									"internalType": "string",
									"name": "grade",
									"type": "string"
								},
								{
									"internalType": "string[]",
									"name": "class",
									"type": "string[]"
								}
							],
							"internalType": "struct TEST1.student[]",
							"name": "",
							"type": "tuple[]"
						}
					],
					"stateMutability": "view",
					"type": "function"
				},
				{
					"inputs": [
						{
							"internalType": "uint256",
							"name": "_num",
							"type": "uint256"
						}
					],
					"name": "getstudentNum",
					"outputs": [
						{
							"components": [
								{
									"internalType": "string",
									"name": "name",
									"type": "string"
								},
								{
									"internalType": "uint256",
									"name": "num",
									"type": "uint256"
								},
								{
									"internalType": "uint256",
									"name": "score",
									"type": "uint256"
								},
								{
									"internalType": "string",
									"name": "grade",
									"type": "string"
								},
								{
									"internalType": "string[]",
									"name": "class",
									"type": "string[]"
								}
							],
							"internalType": "struct TEST1.student[]",
							"name": "",
							"type": "tuple[]"
						}
					],
					"stateMutability": "view",
					"type": "function"
				},
				{
					"inputs": [
						{
							"internalType": "string",
							"name": "_name",
							"type": "string"
						},
						{
							"internalType": "uint256",
							"name": "_score",
							"type": "uint256"
						},
						{
							"internalType": "string[]",
							"name": "_class",
							"type": "string[]"
						}
					],
					"name": "pushStudent",
					"outputs": [],
					"stateMutability": "nonpayable",
					"type": "function"
				},
				{
					"inputs": [
						{
							"internalType": "uint256",
							"name": "_score",
							"type": "uint256"
						}
					],
					"name": "setGrade",
					"outputs": [
						{
							"internalType": "string",
							"name": "",
							"type": "string"
						}
					],
					"stateMutability": "pure",
					"type": "function"
				},
				{
					"inputs": [],
					"name": "teach",
					"outputs": [
						{
							"internalType": "bool",
							"name": "",
							"type": "bool"
						}
					],
					"stateMutability": "view",
					"type": "function"
				}
			],
			"devdoc": {
				"kind": "dev",
				"methods": {},
				"version": 1
			},
			"evm": {
				"assembly": "    /* \"Coding test/test1.sol\":76:5307  contract TEST1 {... */\n  mstore(0x40, 0x80)\n  callvalue\n  dup1\n  iszero\n  tag_1\n  jumpi\n  0x00\n  dup1\n  revert\ntag_1:\n  pop\n  dataSize(sub_0)\n  dup1\n  dataOffset(sub_0)\n  0x00\n  codecopy\n  0x00\n  return\nstop\n\nsub_0: assembly {\n        /* \"Coding test/test1.sol\":76:5307  contract TEST1 {... */\n      mstore(0x40, 0x80)\n      callvalue\n      dup1\n      iszero\n      tag_1\n      jumpi\n      0x00\n      dup1\n      revert\n    tag_1:\n      pop\n      jumpi(tag_2, lt(calldatasize, 0x04))\n      shr(0xe0, calldataload(0x00))\n      dup1\n      0x74aa6858\n      gt\n      tag_13\n      jumpi\n      dup1\n      0x74aa6858\n      eq\n      tag_8\n      jumpi\n      dup1\n      0xa24746d8\n      eq\n      tag_9\n      jumpi\n      dup1\n      0xb30039fc\n      eq\n      tag_10\n      jumpi\n      dup1\n      0xb36a31c6\n      eq\n      tag_11\n      jumpi\n      dup1\n      0xbe1c766b\n      eq\n      tag_12\n      jumpi\n      jump(tag_2)\n    tag_13:\n      dup1\n      0x04527d90\n      eq\n      tag_3\n      jumpi\n      dup1\n      0x133d0460\n      eq\n      tag_4\n      jumpi\n      dup1\n      0x16020273\n      eq\n      tag_5\n      jumpi\n      dup1\n      0x1acb1542\n      eq\n      tag_6\n      jumpi\n      dup1\n      0x674271cd\n      eq\n      tag_7\n      jumpi\n    tag_2:\n      0x00\n      dup1\n      revert\n        /* \"Coding test/test1.sol\":4166:4263  function getScores(uint i) public view returns(uint) {... */\n    tag_3:\n      tag_14\n      0x04\n      dup1\n      calldatasize\n      sub\n      dup2\n      add\n      swap1\n      tag_15\n      swap2\n      swap1\n      tag_16\n      jump\t// in\n    tag_15:\n      tag_17\n      jump\t// in\n    tag_14:\n      mload(0x40)\n      tag_18\n      swap2\n      swap1\n      tag_19\n      jump\t// in\n    tag_18:\n      mload(0x40)\n      dup1\n      swap2\n      sub\n      swap1\n      return\n        /* \"Coding test/test1.sol\":3959:4056  function getAllStudent() public view returns(student[] memory) {... */\n    tag_4:\n      tag_20\n      tag_21\n      jump\t// in\n    tag_20:\n      mload(0x40)\n      tag_22\n      swap2\n      swap1\n      tag_23\n      jump\t// in\n    tag_22:\n      mload(0x40)\n      dup1\n      swap2\n      sub\n      swap1\n      return\n        /* \"Coding test/test1.sol\":3535:3648  function getScore(string memory _name) public view returns(uint) {... */\n    tag_5:\n      tag_24\n      0x04\n      dup1\n      calldatasize\n      sub\n      dup2\n      add\n      swap1\n      tag_25\n      swap2\n      swap1\n      tag_26\n      jump\t// in\n    tag_25:\n      tag_27\n      jump\t// in\n    tag_24:\n      mload(0x40)\n      tag_28\n      swap2\n      swap1\n      tag_19\n      jump\t// in\n    tag_28:\n      mload(0x40)\n      dup1\n      swap2\n      sub\n      swap1\n      return\n        /* \"Coding test/test1.sol\":3069:3182  function getstudentNum(uint _num) public view returns(student[] memory) {... */\n    tag_6:\n      tag_29\n      0x04\n      dup1\n      calldatasize\n      sub\n      dup2\n      add\n      swap1\n      tag_30\n      swap2\n      swap1\n      tag_16\n      jump\t// in\n    tag_30:\n      tag_31\n      jump\t// in\n    tag_29:\n      mload(0x40)\n      tag_32\n      swap2\n      swap1\n      tag_23\n      jump\t// in\n    tag_32:\n      mload(0x40)\n      dup1\n      swap2\n      sub\n      swap1\n      return\n        /* \"Coding test/test1.sol\":2343:2781  function setGrade(uint _score) public pure returns(string memory){... */\n    tag_7:\n      tag_33\n      0x04\n      dup1\n      calldatasize\n      sub\n      dup2\n      add\n      swap1\n      tag_34\n      swap2\n      swap1\n      tag_16\n      jump\t// in\n    tag_34:\n      tag_35\n      jump\t// in\n    tag_33:\n      mload(0x40)\n      tag_36\n      swap2\n      swap1\n      tag_37\n      jump\t// in\n    tag_36:\n      mload(0x40)\n      dup1\n      swap2\n      sub\n      swap1\n      return\n        /* \"Coding test/test1.sol\":2146:2333  function pushStudent(string memory _name, uint _score, string[] memory _class) public {... */\n    tag_8:\n      tag_38\n      0x04\n      dup1\n      calldatasize\n      sub\n      dup2\n      add\n      swap1\n      tag_39\n      swap2\n      swap1\n      tag_40\n      jump\t// in\n    tag_39:\n      tag_41\n      jump\t// in\n    tag_38:\n      stop\n        /* \"Coding test/test1.sol\":3296:3421  function getstudentName(string memory _name) public view returns(student[] memory) {... */\n    tag_9:\n      tag_42\n      0x04\n      dup1\n      calldatasize\n      sub\n      dup2\n      add\n      swap1\n      tag_43\n      swap2\n      swap1\n      tag_26\n      jump\t// in\n    tag_43:\n      tag_44\n      jump\t// in\n    tag_42:\n      mload(0x40)\n      tag_45\n      swap2\n      swap1\n      tag_23\n      jump\t// in\n    tag_45:\n      mload(0x40)\n      dup1\n      swap2\n      sub\n      swap1\n      return\n        /* \"Coding test/test1.sol\":4663:4827  function teach() public view returns(bool){... */\n    tag_10:\n      tag_46\n      tag_47\n      jump\t// in\n    tag_46:\n      mload(0x40)\n      tag_48\n      swap2\n      swap1\n      tag_49\n      jump\t// in\n    tag_48:\n      mload(0x40)\n      dup1\n      swap2\n      sub\n      swap1\n      return\n        /* \"Coding test/test1.sol\":4271:4497  function Average() public view returns(uint) {... */\n    tag_11:\n      tag_50\n      tag_51\n      jump\t// in\n    tag_50:\n      mload(0x40)\n      tag_52\n      swap2\n      swap1\n      tag_19\n      jump\t// in\n    tag_52:\n      mload(0x40)\n      dup1\n      swap2\n      sub\n      swap1\n      return\n        /* \"Coding test/test1.sol\":3767:3855  function getLength() public view returns(uint) {... */\n    tag_12:\n      tag_53\n      tag_54\n      jump\t// in\n    tag_53:\n      mload(0x40)\n      tag_55\n      swap2\n      swap1\n      tag_19\n      jump\t// in\n    tag_55:\n      mload(0x40)\n      dup1\n      swap2\n      sub\n      swap1\n      return\n        /* \"Coding test/test1.sol\":4166:4263  function getScores(uint i) public view returns(uint) {... */\n    tag_17:\n        /* \"Coding test/test1.sol\":4213:4217  uint */\n      0x00\n        /* \"Coding test/test1.sol\":4237:4246  students4 */\n      0x04\n        /* \"Coding test/test1.sol\":4237:4249  students4[i] */\n      0x00\n        /* \"Coding test/test1.sol\":4247:4248  i */\n      dup4\n        /* \"Coding test/test1.sol\":4237:4249  students4[i] */\n      dup2\n      mstore\n      0x20\n      add\n      swap1\n      dup2\n      mstore\n      0x20\n      add\n      0x00\n      keccak256\n        /* \"Coding test/test1.sol\":4237:4255  students4[i].score */\n      0x02\n      add\n      sload\n        /* \"Coding test/test1.sol\":4230:4255  return students4[i].score */\n      swap1\n      pop\n        /* \"Coding test/test1.sol\":4166:4263  function getScores(uint i) public view returns(uint) {... */\n      swap2\n      swap1\n      pop\n      jump\t// out\n        /* \"Coding test/test1.sol\":3959:4056  function getAllStudent() public view returns(student[] memory) {... */\n    tag_21:\n        /* \"Coding test/test1.sol\":4004:4020  student[] memory */\n      0x60\n        /* \"Coding test/test1.sol\":4040:4048  Students */\n      0x00\n        /* \"Coding test/test1.sol\":4033:4048  return Students */\n      dup1\n      sload\n      dup1\n      0x20\n      mul\n      0x20\n      add\n      mload(0x40)\n      swap1\n      dup2\n      add\n      0x40\n      mstore\n      dup1\n      swap3\n      swap2\n      swap1\n      dup2\n      dup2\n      mstore\n      0x20\n      add\n      0x00\n      swap1\n    tag_58:\n      dup3\n      dup3\n      lt\n      iszero\n      tag_59\n      jumpi\n      dup4\n      dup3\n      swap1\n      0x00\n      mstore\n      keccak256(0x00, 0x20)\n      swap1\n      0x05\n      mul\n      add\n      mload(0x40)\n      dup1\n      0xa0\n      add\n      0x40\n      mstore\n      swap1\n      dup2\n      0x00\n      dup3\n      add\n      dup1\n      sload\n      tag_61\n      swap1\n      tag_62\n      jump\t// in\n    tag_61:\n      dup1\n      0x1f\n      add\n      0x20\n      dup1\n      swap2\n      div\n      mul\n      0x20\n      add\n      mload(0x40)\n      swap1\n      dup2\n      add\n      0x40\n      mstore\n      dup1\n      swap3\n      swap2\n      swap1\n      dup2\n      dup2\n      mstore\n      0x20\n      add\n      dup3\n      dup1\n      sload\n      tag_63\n      swap1\n      tag_62\n      jump\t// in\n    tag_63:\n      dup1\n      iszero\n      tag_64\n      jumpi\n      dup1\n      0x1f\n      lt\n      tag_65\n      jumpi\n      0x0100\n      dup1\n      dup4\n      sload\n      div\n      mul\n      dup4\n      mstore\n      swap2\n      0x20\n      add\n      swap2\n      jump(tag_64)\n    tag_65:\n      dup3\n      add\n      swap2\n      swap1\n      0x00\n      mstore\n      keccak256(0x00, 0x20)\n      swap1\n    tag_66:\n      dup2\n      sload\n      dup2\n      mstore\n      swap1\n      0x01\n      add\n      swap1\n      0x20\n      add\n      dup1\n      dup4\n      gt\n      tag_66\n      jumpi\n      dup3\n      swap1\n      sub\n      0x1f\n      and\n      dup3\n      add\n      swap2\n    tag_64:\n      pop\n      pop\n      pop\n      pop\n      pop\n      dup2\n      mstore\n      0x20\n      add\n      0x01\n      dup3\n      add\n      sload\n      dup2\n      mstore\n      0x20\n      add\n      0x02\n      dup3\n      add\n      sload\n      dup2\n      mstore\n      0x20\n      add\n      0x03\n      dup3\n      add\n      dup1\n      sload\n      tag_67\n      swap1\n      tag_62\n      jump\t// in\n    tag_67:\n      dup1\n      0x1f\n      add\n      0x20\n      dup1\n      swap2\n      div\n      mul\n      0x20\n      add\n      mload(0x40)\n      swap1\n      dup2\n      add\n      0x40\n      mstore\n      dup1\n      swap3\n      swap2\n      swap1\n      dup2\n      dup2\n      mstore\n      0x20\n      add\n      dup3\n      dup1\n      sload\n      tag_68\n      swap1\n      tag_62\n      jump\t// in\n    tag_68:\n      dup1\n      iszero\n      tag_69\n      jumpi\n      dup1\n      0x1f\n      lt\n      tag_70\n      jumpi\n      0x0100\n      dup1\n      dup4\n      sload\n      div\n      mul\n      dup4\n      mstore\n      swap2\n      0x20\n      add\n      swap2\n      jump(tag_69)\n    tag_70:\n      dup3\n      add\n      swap2\n      swap1\n      0x00\n      mstore\n      keccak256(0x00, 0x20)\n      swap1\n    tag_71:\n      dup2\n      sload\n      dup2\n      mstore\n      swap1\n      0x01\n      add\n      swap1\n      0x20\n      add\n      dup1\n      dup4\n      gt\n      tag_71\n      jumpi\n      dup3\n      swap1\n      sub\n      0x1f\n      and\n      dup3\n      add\n      swap2\n    tag_69:\n      pop\n      pop\n      pop\n      pop\n      pop\n      dup2\n      mstore\n      0x20\n      add\n      0x04\n      dup3\n      add\n      dup1\n      sload\n      dup1\n      0x20\n      mul\n      0x20\n      add\n      mload(0x40)\n      swap1\n      dup2\n      add\n      0x40\n      mstore\n      dup1\n      swap3\n      swap2\n      swap1\n      dup2\n      dup2\n      mstore\n      0x20\n      add\n      0x00\n      swap1\n    tag_72:\n      dup3\n      dup3\n      lt\n      iszero\n      tag_73\n      jumpi\n      dup4\n      dup3\n      swap1\n      0x00\n      mstore\n      keccak256(0x00, 0x20)\n      add\n      dup1\n      sload\n      tag_75\n      swap1\n      tag_62\n      jump\t// in\n    tag_75:\n      dup1\n      0x1f\n      add\n      0x20\n      dup1\n      swap2\n      div\n      mul\n      0x20\n      add\n      mload(0x40)\n      swap1\n      dup2\n      add\n      0x40\n      mstore\n      dup1\n      swap3\n      swap2\n      swap1\n      dup2\n      dup2\n      mstore\n      0x20\n      add\n      dup3\n      dup1\n      sload\n      tag_76\n      swap1\n      tag_62\n      jump\t// in\n    tag_76:\n      dup1\n      iszero\n      tag_77\n      jumpi\n      dup1\n      0x1f\n      lt\n      tag_78\n      jumpi\n      0x0100\n      dup1\n      dup4\n      sload\n      div\n      mul\n      dup4\n      mstore\n      swap2\n      0x20\n      add\n      swap2\n      jump(tag_77)\n    tag_78:\n      dup3\n      add\n      swap2\n      swap1\n      0x00\n      mstore\n      keccak256(0x00, 0x20)\n      swap1\n    tag_79:\n      dup2\n      sload\n      dup2\n      mstore\n      swap1\n      0x01\n      add\n      swap1\n      0x20\n      add\n      dup1\n      dup4\n      gt\n      tag_79\n      jumpi\n      dup3\n      swap1\n      sub\n      0x1f\n      and\n      dup3\n      add\n      swap2\n    tag_77:\n      pop\n      pop\n      pop\n      pop\n      pop\n      dup2\n      mstore\n      0x20\n      add\n      swap1\n      0x01\n      add\n      swap1\n      jump(tag_72)\n    tag_73:\n      pop\n      pop\n      pop\n      pop\n      dup2\n      mstore\n      pop\n      pop\n      dup2\n      mstore\n      0x20\n      add\n      swap1\n      0x01\n      add\n      swap1\n      jump(tag_58)\n    tag_59:\n      pop\n      pop\n      pop\n      pop\n      swap1\n      pop\n        /* \"Coding test/test1.sol\":3959:4056  function getAllStudent() public view returns(student[] memory) {... */\n      swap1\n      jump\t// out\n        /* \"Coding test/test1.sol\":3535:3648  function getScore(string memory _name) public view returns(uint) {... */\n    tag_27:\n        /* \"Coding test/test1.sol\":3594:3598  uint */\n      0x00\n        /* \"Coding test/test1.sol\":3618:3627  students3 */\n      0x03\n        /* \"Coding test/test1.sol\":3628:3633  _name */\n      dup3\n        /* \"Coding test/test1.sol\":3618:3634  students3[_name] */\n      mload(0x40)\n      tag_81\n      swap2\n      swap1\n      tag_82\n      jump\t// in\n    tag_81:\n      swap1\n      dup2\n      mstore\n      0x20\n      add\n      mload(0x40)\n      dup1\n      swap2\n      sub\n      swap1\n      keccak256\n        /* \"Coding test/test1.sol\":3618:3640  students3[_name].score */\n      0x02\n      add\n      sload\n        /* \"Coding test/test1.sol\":3611:3640  return students3[_name].score */\n      swap1\n      pop\n        /* \"Coding test/test1.sol\":3535:3648  function getScore(string memory _name) public view returns(uint) {... */\n      swap2\n      swap1\n      pop\n      jump\t// out\n        /* \"Coding test/test1.sol\":3069:3182  function getstudentNum(uint _num) public view returns(student[] memory) {... */\n    tag_31:\n        /* \"Coding test/test1.sol\":3123:3139  student[] memory */\n      0x60\n        /* \"Coding test/test1.sol\":3159:3168  students2 */\n      0x02\n        /* \"Coding test/test1.sol\":3159:3174  students2[_num] */\n      0x00\n        /* \"Coding test/test1.sol\":3169:3173  _num */\n      dup4\n        /* \"Coding test/test1.sol\":3159:3174  students2[_num] */\n      dup2\n      mstore\n      0x20\n      add\n      swap1\n      dup2\n      mstore\n      0x20\n      add\n      0x00\n      keccak256\n        /* \"Coding test/test1.sol\":3152:3174  return students2[_num] */\n      dup1\n      sload\n      dup1\n      0x20\n      mul\n      0x20\n      add\n      mload(0x40)\n      swap1\n      dup2\n      add\n      0x40\n      mstore\n      dup1\n      swap3\n      swap2\n      swap1\n      dup2\n      dup2\n      mstore\n      0x20\n      add\n      0x00\n      swap1\n    tag_84:\n      dup3\n      dup3\n      lt\n      iszero\n      tag_85\n      jumpi\n      dup4\n      dup3\n      swap1\n      0x00\n      mstore\n      keccak256(0x00, 0x20)\n      swap1\n      0x05\n      mul\n      add\n      mload(0x40)\n      dup1\n      0xa0\n      add\n      0x40\n      mstore\n      swap1\n      dup2\n      0x00\n      dup3\n      add\n      dup1\n      sload\n      tag_87\n      swap1\n      tag_62\n      jump\t// in\n    tag_87:\n      dup1\n      0x1f\n      add\n      0x20\n      dup1\n      swap2\n      div\n      mul\n      0x20\n      add\n      mload(0x40)\n      swap1\n      dup2\n      add\n      0x40\n      mstore\n      dup1\n      swap3\n      swap2\n      swap1\n      dup2\n      dup2\n      mstore\n      0x20\n      add\n      dup3\n      dup1\n      sload\n      tag_88\n      swap1\n      tag_62\n      jump\t// in\n    tag_88:\n      dup1\n      iszero\n      tag_89\n      jumpi\n      dup1\n      0x1f\n      lt\n      tag_90\n      jumpi\n      0x0100\n      dup1\n      dup4\n      sload\n      div\n      mul\n      dup4\n      mstore\n      swap2\n      0x20\n      add\n      swap2\n      jump(tag_89)\n    tag_90:\n      dup3\n      add\n      swap2\n      swap1\n      0x00\n      mstore\n      keccak256(0x00, 0x20)\n      swap1\n    tag_91:\n      dup2\n      sload\n      dup2\n      mstore\n      swap1\n      0x01\n      add\n      swap1\n      0x20\n      add\n      dup1\n      dup4\n      gt\n      tag_91\n      jumpi\n      dup3\n      swap1\n      sub\n      0x1f\n      and\n      dup3\n      add\n      swap2\n    tag_89:\n      pop\n      pop\n      pop\n      pop\n      pop\n      dup2\n      mstore\n      0x20\n      add\n      0x01\n      dup3\n      add\n      sload\n      dup2\n      mstore\n      0x20\n      add\n      0x02\n      dup3\n      add\n      sload\n      dup2\n      mstore\n      0x20\n      add\n      0x03\n      dup3\n      add\n      dup1\n      sload\n      tag_92\n      swap1\n      tag_62\n      jump\t// in\n    tag_92:\n      dup1\n      0x1f\n      add\n      0x20\n      dup1\n      swap2\n      div\n      mul\n      0x20\n      add\n      mload(0x40)\n      swap1\n      dup2\n      add\n      0x40\n      mstore\n      dup1\n      swap3\n      swap2\n      swap1\n      dup2\n      dup2\n      mstore\n      0x20\n      add\n      dup3\n      dup1\n      sload\n      tag_93\n      swap1\n      tag_62\n      jump\t// in\n    tag_93:\n      dup1\n      iszero\n      tag_94\n      jumpi\n      dup1\n      0x1f\n      lt\n      tag_95\n      jumpi\n      0x0100\n      dup1\n      dup4\n      sload\n      div\n      mul\n      dup4\n      mstore\n      swap2\n      0x20\n      add\n      swap2\n      jump(tag_94)\n    tag_95:\n      dup3\n      add\n      swap2\n      swap1\n      0x00\n      mstore\n      keccak256(0x00, 0x20)\n      swap1\n    tag_96:\n      dup2\n      sload\n      dup2\n      mstore\n      swap1\n      0x01\n      add\n      swap1\n      0x20\n      add\n      dup1\n      dup4\n      gt\n      tag_96\n      jumpi\n      dup3\n      swap1\n      sub\n      0x1f\n      and\n      dup3\n      add\n      swap2\n    tag_94:\n      pop\n      pop\n      pop\n      pop\n      pop\n      dup2\n      mstore\n      0x20\n      add\n      0x04\n      dup3\n      add\n      dup1\n      sload\n      dup1\n      0x20\n      mul\n      0x20\n      add\n      mload(0x40)\n      swap1\n      dup2\n      add\n      0x40\n      mstore\n      dup1\n      swap3\n      swap2\n      swap1\n      dup2\n      dup2\n      mstore\n      0x20\n      add\n      0x00\n      swap1\n    tag_97:\n      dup3\n      dup3\n      lt\n      iszero\n      tag_98\n      jumpi\n      dup4\n      dup3\n      swap1\n      0x00\n      mstore\n      keccak256(0x00, 0x20)\n      add\n      dup1\n      sload\n      tag_100\n      swap1\n      tag_62\n      jump\t// in\n    tag_100:\n      dup1\n      0x1f\n      add\n      0x20\n      dup1\n      swap2\n      div\n      mul\n      0x20\n      add\n      mload(0x40)\n      swap1\n      dup2\n      add\n      0x40\n      mstore\n      dup1\n      swap3\n      swap2\n      swap1\n      dup2\n      dup2\n      mstore\n      0x20\n      add\n      dup3\n      dup1\n      sload\n      tag_101\n      swap1\n      tag_62\n      jump\t// in\n    tag_101:\n      dup1\n      iszero\n      tag_102\n      jumpi\n      dup1\n      0x1f\n      lt\n      tag_103\n      jumpi\n      0x0100\n      dup1\n      dup4\n      sload\n      div\n      mul\n      dup4\n      mstore\n      swap2\n      0x20\n      add\n      swap2\n      jump(tag_102)\n    tag_103:\n      dup3\n      add\n      swap2\n      swap1\n      0x00\n      mstore\n      keccak256(0x00, 0x20)\n      swap1\n    tag_104:\n      dup2\n      sload\n      dup2\n      mstore\n      swap1\n      0x01\n      add\n      swap1\n      0x20\n      add\n      dup1\n      dup4\n      gt\n      tag_104\n      jumpi\n      dup3\n      swap1\n      sub\n      0x1f\n      and\n      dup3\n      add\n      swap2\n    tag_102:\n      pop\n      pop\n      pop\n      pop\n      pop\n      dup2\n      mstore\n      0x20\n      add\n      swap1\n      0x01\n      add\n      swap1\n      jump(tag_97)\n    tag_98:\n      pop\n      pop\n      pop\n      pop\n      dup2\n      mstore\n      pop\n      pop\n      dup2\n      mstore\n      0x20\n      add\n      swap1\n      0x01\n      add\n      swap1\n      jump(tag_84)\n    tag_85:\n      pop\n      pop\n      pop\n      pop\n      swap1\n      pop\n        /* \"Coding test/test1.sol\":3069:3182  function getstudentNum(uint _num) public view returns(student[] memory) {... */\n      swap2\n      swap1\n      pop\n      jump\t// out\n        /* \"Coding test/test1.sol\":2343:2781  function setGrade(uint _score) public pure returns(string memory){... */\n    tag_35:\n        /* \"Coding test/test1.sol\":2394:2407  string memory */\n      0x60\n        /* \"Coding test/test1.sol\":2434:2437  100 */\n      0x64\n        /* \"Coding test/test1.sol\":2424:2430  _score */\n      dup3\n        /* \"Coding test/test1.sol\":2424:2437  _score <= 100 */\n      gt\n      iszero\n        /* \"Coding test/test1.sol\":2424:2453  _score <= 100 && _score >= 90 */\n      dup1\n      iszero\n      tag_106\n      jumpi\n      pop\n        /* \"Coding test/test1.sol\":2451:2453  90 */\n      0x5a\n        /* \"Coding test/test1.sol\":2441:2447  _score */\n      dup3\n        /* \"Coding test/test1.sol\":2441:2453  _score >= 90 */\n      lt\n      iszero\n        /* \"Coding test/test1.sol\":2424:2453  _score <= 100 && _score >= 90 */\n    tag_106:\n        /* \"Coding test/test1.sol\":2419:2774  if ( _score <= 100 && _score >= 90 ) {... */\n      iszero\n      tag_107\n      jumpi\n        /* \"Coding test/test1.sol\":2471:2481  return \"A\" */\n      mload(0x40)\n      dup1\n      0x40\n      add\n      0x40\n      mstore\n      dup1\n      0x01\n      dup2\n      mstore\n      0x20\n      add\n      0x4100000000000000000000000000000000000000000000000000000000000000\n      dup2\n      mstore\n      pop\n      swap1\n      pop\n      jump(tag_105)\n        /* \"Coding test/test1.sol\":2419:2774  if ( _score <= 100 && _score >= 90 ) {... */\n    tag_107:\n        /* \"Coding test/test1.sol\":2513:2515  90 */\n      0x5a\n        /* \"Coding test/test1.sol\":2504:2510  _score */\n      dup3\n        /* \"Coding test/test1.sol\":2504:2515  _score < 90 */\n      lt\n        /* \"Coding test/test1.sol\":2504:2532  _score < 90  && _score >= 80 */\n      dup1\n      iszero\n      tag_109\n      jumpi\n      pop\n        /* \"Coding test/test1.sol\":2530:2532  80 */\n      0x50\n        /* \"Coding test/test1.sol\":2520:2526  _score */\n      dup3\n        /* \"Coding test/test1.sol\":2520:2532  _score >= 80 */\n      lt\n      iszero\n        /* \"Coding test/test1.sol\":2504:2532  _score < 90  && _score >= 80 */\n    tag_109:\n        /* \"Coding test/test1.sol\":2499:2774  if ( _score < 90  && _score >= 80 ) {... */\n      iszero\n      tag_110\n      jumpi\n        /* \"Coding test/test1.sol\":2550:2560  return \"B\" */\n      mload(0x40)\n      dup1\n      0x40\n      add\n      0x40\n      mstore\n      dup1\n      0x01\n      dup2\n      mstore\n      0x20\n      add\n      0x4200000000000000000000000000000000000000000000000000000000000000\n      dup2\n      mstore\n      pop\n      swap1\n      pop\n      jump(tag_105)\n        /* \"Coding test/test1.sol\":2499:2774  if ( _score < 90  && _score >= 80 ) {... */\n    tag_110:\n        /* \"Coding test/test1.sol\":2592:2594  80 */\n      0x50\n        /* \"Coding test/test1.sol\":2583:2589  _score */\n      dup3\n        /* \"Coding test/test1.sol\":2583:2594  _score < 80 */\n      lt\n        /* \"Coding test/test1.sol\":2583:2611  _score < 80  && _score >= 70 */\n      dup1\n      iszero\n      tag_112\n      jumpi\n      pop\n        /* \"Coding test/test1.sol\":2609:2611  70 */\n      0x46\n        /* \"Coding test/test1.sol\":2599:2605  _score */\n      dup3\n        /* \"Coding test/test1.sol\":2599:2611  _score >= 70 */\n      lt\n      iszero\n        /* \"Coding test/test1.sol\":2583:2611  _score < 80  && _score >= 70 */\n    tag_112:\n        /* \"Coding test/test1.sol\":2578:2774  if ( _score < 80  && _score >= 70 ) {... */\n      iszero\n      tag_113\n      jumpi\n        /* \"Coding test/test1.sol\":2629:2639  return \"C\" */\n      mload(0x40)\n      dup1\n      0x40\n      add\n      0x40\n      mstore\n      dup1\n      0x01\n      dup2\n      mstore\n      0x20\n      add\n      0x4300000000000000000000000000000000000000000000000000000000000000\n      dup2\n      mstore\n      pop\n      swap1\n      pop\n      jump(tag_105)\n        /* \"Coding test/test1.sol\":2578:2774  if ( _score < 80  && _score >= 70 ) {... */\n    tag_113:\n        /* \"Coding test/test1.sol\":2672:2674  70 */\n      0x46\n        /* \"Coding test/test1.sol\":2663:2669  _score */\n      dup3\n        /* \"Coding test/test1.sol\":2663:2674  _score < 70 */\n      lt\n        /* \"Coding test/test1.sol\":2663:2691  _score < 70  && _score >= 60 */\n      dup1\n      iszero\n      tag_115\n      jumpi\n      pop\n        /* \"Coding test/test1.sol\":2689:2691  60 */\n      0x3c\n        /* \"Coding test/test1.sol\":2679:2685  _score */\n      dup3\n        /* \"Coding test/test1.sol\":2679:2691  _score >= 60 */\n      lt\n      iszero\n        /* \"Coding test/test1.sol\":2663:2691  _score < 70  && _score >= 60 */\n    tag_115:\n        /* \"Coding test/test1.sol\":2657:2774  if  ( _score < 70  && _score >= 60 ) {... */\n      iszero\n      tag_116\n      jumpi\n        /* \"Coding test/test1.sol\":2709:2719  return \"D\" */\n      mload(0x40)\n      dup1\n      0x40\n      add\n      0x40\n      mstore\n      dup1\n      0x01\n      dup2\n      mstore\n      0x20\n      add\n      0x4400000000000000000000000000000000000000000000000000000000000000\n      dup2\n      mstore\n      pop\n      swap1\n      pop\n      jump(tag_105)\n        /* \"Coding test/test1.sol\":2657:2774  if  ( _score < 70  && _score >= 60 ) {... */\n    tag_116:\n        /* \"Coding test/test1.sol\":2752:2762  return \"F\" */\n      mload(0x40)\n      dup1\n      0x40\n      add\n      0x40\n      mstore\n      dup1\n      0x01\n      dup2\n      mstore\n      0x20\n      add\n      0x4600000000000000000000000000000000000000000000000000000000000000\n      dup2\n      mstore\n      pop\n      swap1\n      pop\n        /* \"Coding test/test1.sol\":2343:2781  function setGrade(uint _score) public pure returns(string memory){... */\n    tag_105:\n      swap2\n      swap1\n      pop\n      jump\t// out\n        /* \"Coding test/test1.sol\":2146:2333  function pushStudent(string memory _name, uint _score, string[] memory _class) public {... */\n    tag_41:\n        /* \"Coding test/test1.sol\":2243:2251  Students */\n      0x00\n        /* \"Coding test/test1.sol\":2257:2324  student(_name, Students.length+1, _score, setGrade(_score), _class) */\n      mload(0x40)\n      dup1\n      0xa0\n      add\n      0x40\n      mstore\n      dup1\n        /* \"Coding test/test1.sol\":2265:2270  _name */\n      dup6\n        /* \"Coding test/test1.sol\":2257:2324  student(_name, Students.length+1, _score, setGrade(_score), _class) */\n      dup2\n      mstore\n      0x20\n      add\n        /* \"Coding test/test1.sol\":2288:2289  1 */\n      0x01\n        /* \"Coding test/test1.sol\":2272:2280  Students */\n      0x00\n        /* \"Coding test/test1.sol\":2272:2287  Students.length */\n      dup1\n      sload\n      swap1\n      pop\n        /* \"Coding test/test1.sol\":2272:2289  Students.length+1 */\n      tag_119\n      swap2\n      swap1\n      tag_120\n      jump\t// in\n    tag_119:\n        /* \"Coding test/test1.sol\":2257:2324  student(_name, Students.length+1, _score, setGrade(_score), _class) */\n      dup2\n      mstore\n      0x20\n      add\n        /* \"Coding test/test1.sol\":2291:2297  _score */\n      dup5\n        /* \"Coding test/test1.sol\":2257:2324  student(_name, Students.length+1, _score, setGrade(_score), _class) */\n      dup2\n      mstore\n      0x20\n      add\n        /* \"Coding test/test1.sol\":2299:2315  setGrade(_score) */\n      tag_121\n        /* \"Coding test/test1.sol\":2308:2314  _score */\n      dup6\n        /* \"Coding test/test1.sol\":2299:2307  setGrade */\n      tag_35\n        /* \"Coding test/test1.sol\":2299:2315  setGrade(_score) */\n      jump\t// in\n    tag_121:\n        /* \"Coding test/test1.sol\":2257:2324  student(_name, Students.length+1, _score, setGrade(_score), _class) */\n      dup2\n      mstore\n      0x20\n      add\n        /* \"Coding test/test1.sol\":2317:2323  _class */\n      dup4\n        /* \"Coding test/test1.sol\":2257:2324  student(_name, Students.length+1, _score, setGrade(_score), _class) */\n      dup2\n      mstore\n      pop\n        /* \"Coding test/test1.sol\":2243:2325  Students.push(student(_name, Students.length+1, _score, setGrade(_score), _class)) */\n      swap1\n      dup1\n      0x01\n      dup2\n      sload\n      add\n      dup1\n      dup3\n      sstore\n      dup1\n      swap2\n      pop\n      pop\n      0x01\n      swap1\n      sub\n      swap1\n      0x00\n      mstore\n      keccak256(0x00, 0x20)\n      swap1\n      0x05\n      mul\n      add\n      0x00\n      swap1\n      swap2\n      swap1\n      swap2\n      swap1\n      swap2\n      pop\n      0x00\n      dup3\n      add\n      mload\n      dup2\n      0x00\n      add\n      swap1\n      dup2\n      tag_123\n      swap2\n      swap1\n      tag_124\n      jump\t// in\n    tag_123:\n      pop\n      0x20\n      dup3\n      add\n      mload\n      dup2\n      0x01\n      add\n      sstore\n      0x40\n      dup3\n      add\n      mload\n      dup2\n      0x02\n      add\n      sstore\n      0x60\n      dup3\n      add\n      mload\n      dup2\n      0x03\n      add\n      swap1\n      dup2\n      tag_125\n      swap2\n      swap1\n      tag_124\n      jump\t// in\n    tag_125:\n      pop\n      0x80\n      dup3\n      add\n      mload\n      dup2\n      0x04\n      add\n      swap1\n      dup1\n      mload\n      swap1\n      0x20\n      add\n      swap1\n      tag_126\n      swap3\n      swap2\n      swap1\n      tag_127\n      jump\t// in\n    tag_126:\n      pop\n      pop\n      pop\n        /* \"Coding test/test1.sol\":2146:2333  function pushStudent(string memory _name, uint _score, string[] memory _class) public {... */\n      pop\n      pop\n      pop\n      jump\t// out\n        /* \"Coding test/test1.sol\":3296:3421  function getstudentName(string memory _name) public view returns(student[] memory) {... */\n    tag_44:\n        /* \"Coding test/test1.sol\":3361:3377  student[] memory */\n      0x60\n        /* \"Coding test/test1.sol\":3397:3406  students1 */\n      0x01\n        /* \"Coding test/test1.sol\":3407:3412  _name */\n      dup3\n        /* \"Coding test/test1.sol\":3397:3413  students1[_name] */\n      mload(0x40)\n      tag_129\n      swap2\n      swap1\n      tag_82\n      jump\t// in\n    tag_129:\n      swap1\n      dup2\n      mstore\n      0x20\n      add\n      mload(0x40)\n      dup1\n      swap2\n      sub\n      swap1\n      keccak256\n        /* \"Coding test/test1.sol\":3390:3413  return students1[_name] */\n      dup1\n      sload\n      dup1\n      0x20\n      mul\n      0x20\n      add\n      mload(0x40)\n      swap1\n      dup2\n      add\n      0x40\n      mstore\n      dup1\n      swap3\n      swap2\n      swap1\n      dup2\n      dup2\n      mstore\n      0x20\n      add\n      0x00\n      swap1\n    tag_130:\n      dup3\n      dup3\n      lt\n      iszero\n      tag_131\n      jumpi\n      dup4\n      dup3\n      swap1\n      0x00\n      mstore\n      keccak256(0x00, 0x20)\n      swap1\n      0x05\n      mul\n      add\n      mload(0x40)\n      dup1\n      0xa0\n      add\n      0x40\n      mstore\n      swap1\n      dup2\n      0x00\n      dup3\n      add\n      dup1\n      sload\n      tag_133\n      swap1\n      tag_62\n      jump\t// in\n    tag_133:\n      dup1\n      0x1f\n      add\n      0x20\n      dup1\n      swap2\n      div\n      mul\n      0x20\n      add\n      mload(0x40)\n      swap1\n      dup2\n      add\n      0x40\n      mstore\n      dup1\n      swap3\n      swap2\n      swap1\n      dup2\n      dup2\n      mstore\n      0x20\n      add\n      dup3\n      dup1\n      sload\n      tag_134\n      swap1\n      tag_62\n      jump\t// in\n    tag_134:\n      dup1\n      iszero\n      tag_135\n      jumpi\n      dup1\n      0x1f\n      lt\n      tag_136\n      jumpi\n      0x0100\n      dup1\n      dup4\n      sload\n      div\n      mul\n      dup4\n      mstore\n      swap2\n      0x20\n      add\n      swap2\n      jump(tag_135)\n    tag_136:\n      dup3\n      add\n      swap2\n      swap1\n      0x00\n      mstore\n      keccak256(0x00, 0x20)\n      swap1\n    tag_137:\n      dup2\n      sload\n      dup2\n      mstore\n      swap1\n      0x01\n      add\n      swap1\n      0x20\n      add\n      dup1\n      dup4\n      gt\n      tag_137\n      jumpi\n      dup3\n      swap1\n      sub\n      0x1f\n      and\n      dup3\n      add\n      swap2\n    tag_135:\n      pop\n      pop\n      pop\n      pop\n      pop\n      dup2\n      mstore\n      0x20\n      add\n      0x01\n      dup3\n      add\n      sload\n      dup2\n      mstore\n      0x20\n      add\n      0x02\n      dup3\n      add\n      sload\n      dup2\n      mstore\n      0x20\n      add\n      0x03\n      dup3\n      add\n      dup1\n      sload\n      tag_138\n      swap1\n      tag_62\n      jump\t// in\n    tag_138:\n      dup1\n      0x1f\n      add\n      0x20\n      dup1\n      swap2\n      div\n      mul\n      0x20\n      add\n      mload(0x40)\n      swap1\n      dup2\n      add\n      0x40\n      mstore\n      dup1\n      swap3\n      swap2\n      swap1\n      dup2\n      dup2\n      mstore\n      0x20\n      add\n      dup3\n      dup1\n      sload\n      tag_139\n      swap1\n      tag_62\n      jump\t// in\n    tag_139:\n      dup1\n      iszero\n      tag_140\n      jumpi\n      dup1\n      0x1f\n      lt\n      tag_141\n      jumpi\n      0x0100\n      dup1\n      dup4\n      sload\n      div\n      mul\n      dup4\n      mstore\n      swap2\n      0x20\n      add\n      swap2\n      jump(tag_140)\n    tag_141:\n      dup3\n      add\n      swap2\n      swap1\n      0x00\n      mstore\n      keccak256(0x00, 0x20)\n      swap1\n    tag_142:\n      dup2\n      sload\n      dup2\n      mstore\n      swap1\n      0x01\n      add\n      swap1\n      0x20\n      add\n      dup1\n      dup4\n      gt\n      tag_142\n      jumpi\n      dup3\n      swap1\n      sub\n      0x1f\n      and\n      dup3\n      add\n      swap2\n    tag_140:\n      pop\n      pop\n      pop\n      pop\n      pop\n      dup2\n      mstore\n      0x20\n      add\n      0x04\n      dup3\n      add\n      dup1\n      sload\n      dup1\n      0x20\n      mul\n      0x20\n      add\n      mload(0x40)\n      swap1\n      dup2\n      add\n      0x40\n      mstore\n      dup1\n      swap3\n      swap2\n      swap1\n      dup2\n      dup2\n      mstore\n      0x20\n      add\n      0x00\n      swap1\n    tag_143:\n      dup3\n      dup3\n      lt\n      iszero\n      tag_144\n      jumpi\n      dup4\n      dup3\n      swap1\n      0x00\n      mstore\n      keccak256(0x00, 0x20)\n      add\n      dup1\n      sload\n      tag_146\n      swap1\n      tag_62\n      jump\t// in\n    tag_146:\n      dup1\n      0x1f\n      add\n      0x20\n      dup1\n      swap2\n      div\n      mul\n      0x20\n      add\n      mload(0x40)\n      swap1\n      dup2\n      add\n      0x40\n      mstore\n      dup1\n      swap3\n      swap2\n      swap1\n      dup2\n      dup2\n      mstore\n      0x20\n      add\n      dup3\n      dup1\n      sload\n      tag_147\n      swap1\n      tag_62\n      jump\t// in\n    tag_147:\n      dup1\n      iszero\n      tag_148\n      jumpi\n      dup1\n      0x1f\n      lt\n      tag_149\n      jumpi\n      0x0100\n      dup1\n      dup4\n      sload\n      div\n      mul\n      dup4\n      mstore\n      swap2\n      0x20\n      add\n      swap2\n      jump(tag_148)\n    tag_149:\n      dup3\n      add\n      swap2\n      swap1\n      0x00\n      mstore\n      keccak256(0x00, 0x20)\n      swap1\n    tag_150:\n      dup2\n      sload\n      dup2\n      mstore\n      swap1\n      0x01\n      add\n      swap1\n      0x20\n      add\n      dup1\n      dup4\n      gt\n      tag_150\n      jumpi\n      dup3\n      swap1\n      sub\n      0x1f\n      and\n      dup3\n      add\n      swap2\n    tag_148:\n      pop\n      pop\n      pop\n      pop\n      pop\n      dup2\n      mstore\n      0x20\n      add\n      swap1\n      0x01\n      add\n      swap1\n      jump(tag_143)\n    tag_144:\n      pop\n      pop\n      pop\n      pop\n      dup2\n      mstore\n      pop\n      pop\n      dup2\n      mstore\n      0x20\n      add\n      swap1\n      0x01\n      add\n      swap1\n      jump(tag_130)\n    tag_131:\n      pop\n      pop\n      pop\n      pop\n      swap1\n      pop\n        /* \"Coding test/test1.sol\":3296:3421  function getstudentName(string memory _name) public view returns(student[] memory) {... */\n      swap2\n      swap1\n      pop\n      jump\t// out\n        /* \"Coding test/test1.sol\":4663:4827  function teach() public view returns(bool){... */\n    tag_47:\n        /* \"Coding test/test1.sol\":4700:4704  bool */\n      0x00\n        /* \"Coding test/test1.sol\":4733:4735  70 */\n      0x46\n        /* \"Coding test/test1.sol\":4720:4729  Average() */\n      tag_152\n        /* \"Coding test/test1.sol\":4720:4727  Average */\n      tag_51\n        /* \"Coding test/test1.sol\":4720:4729  Average() */\n      jump\t// in\n    tag_152:\n        /* \"Coding test/test1.sol\":4720:4735  Average() >= 70 */\n      lt\n        /* \"Coding test/test1.sol\":4716:4820  if (Average() >= 70) {... */\n      tag_153\n      jumpi\n        /* \"Coding test/test1.sol\":4759:4763  true */\n      0x01\n        /* \"Coding test/test1.sol\":4752:4763  return true */\n      swap1\n      pop\n      jump(tag_151)\n        /* \"Coding test/test1.sol\":4716:4820  if (Average() >= 70) {... */\n    tag_153:\n        /* \"Coding test/test1.sol\":4803:4808  false */\n      0x00\n        /* \"Coding test/test1.sol\":4796:4808  return false */\n      swap1\n      pop\n        /* \"Coding test/test1.sol\":4663:4827  function teach() public view returns(bool){... */\n    tag_151:\n      swap1\n      jump\t// out\n        /* \"Coding test/test1.sol\":4271:4497  function Average() public view returns(uint) {... */\n    tag_51:\n        /* \"Coding test/test1.sol\":4310:4314  uint */\n      0x00\n        /* \"Coding test/test1.sol\":4327:4335  uint sum */\n      dup1\n        /* \"Coding test/test1.sol\":4346:4352  uint i */\n      0x00\n        /* \"Coding test/test1.sol\":4365:4451  for (i=0; i<Students.length + 1; i++) {... */\n    tag_156:\n        /* \"Coding test/test1.sol\":4395:4396  1 */\n      0x01\n        /* \"Coding test/test1.sol\":4377:4385  Students */\n      0x00\n        /* \"Coding test/test1.sol\":4377:4392  Students.length */\n      dup1\n      sload\n      swap1\n      pop\n        /* \"Coding test/test1.sol\":4377:4396  Students.length + 1 */\n      tag_159\n      swap2\n      swap1\n      tag_120\n      jump\t// in\n    tag_159:\n        /* \"Coding test/test1.sol\":4375:4376  i */\n      dup2\n        /* \"Coding test/test1.sol\":4375:4396  i<Students.length + 1 */\n      lt\n        /* \"Coding test/test1.sol\":4365:4451  for (i=0; i<Students.length + 1; i++) {... */\n      iszero\n      tag_157\n      jumpi\n        /* \"Coding test/test1.sol\":4427:4439  getScores(i) */\n      tag_160\n        /* \"Coding test/test1.sol\":4437:4438  i */\n      dup2\n        /* \"Coding test/test1.sol\":4427:4436  getScores */\n      tag_17\n        /* \"Coding test/test1.sol\":4427:4439  getScores(i) */\n      jump\t// in\n    tag_160:\n        /* \"Coding test/test1.sol\":4421:4424  sum */\n      dup3\n        /* \"Coding test/test1.sol\":4421:4439  sum + getScores(i) */\n      tag_161\n      swap2\n      swap1\n      tag_120\n      jump\t// in\n    tag_161:\n        /* \"Coding test/test1.sol\":4415:4439  sum = sum + getScores(i) */\n      swap2\n      pop\n        /* \"Coding test/test1.sol\":4398:4401  i++ */\n      dup1\n      dup1\n      0x01\n      add\n      swap2\n      pop\n      pop\n        /* \"Coding test/test1.sol\":4365:4451  for (i=0; i<Students.length + 1; i++) {... */\n      jump(tag_156)\n    tag_157:\n        /* \"Coding test/test1.sol\":4474:4482  Students */\n      0x00\n        /* \"Coding test/test1.sol\":4474:4489  Students.length */\n      dup1\n      sload\n      swap1\n      pop\n        /* \"Coding test/test1.sol\":4468:4471  sum */\n      dup3\n        /* \"Coding test/test1.sol\":4468:4489  sum / Students.length */\n      tag_162\n      swap2\n      swap1\n      tag_163\n      jump\t// in\n    tag_162:\n        /* \"Coding test/test1.sol\":4461:4489  return sum / Students.length */\n      swap3\n      pop\n      pop\n      pop\n        /* \"Coding test/test1.sol\":4271:4497  function Average() public view returns(uint) {... */\n      swap1\n      jump\t// out\n        /* \"Coding test/test1.sol\":3767:3855  function getLength() public view returns(uint) {... */\n    tag_54:\n        /* \"Coding test/test1.sol\":3808:3812  uint */\n      0x00\n        /* \"Coding test/test1.sol\":3832:3840  Students */\n      dup1\n        /* \"Coding test/test1.sol\":3832:3847  Students.length */\n      dup1\n      sload\n      swap1\n      pop\n        /* \"Coding test/test1.sol\":3825:3847  return Students.length */\n      swap1\n      pop\n        /* \"Coding test/test1.sol\":3767:3855  function getLength() public view returns(uint) {... */\n      swap1\n      jump\t// out\n    tag_127:\n      dup3\n      dup1\n      sload\n      dup3\n      dup3\n      sstore\n      swap1\n      0x00\n      mstore\n      keccak256(0x00, 0x20)\n      swap1\n      dup2\n      add\n      swap3\n      dup3\n      iszero\n      tag_165\n      jumpi\n      swap2\n      0x20\n      mul\n      dup3\n      add\n    tag_166:\n      dup3\n      dup2\n      gt\n      iszero\n      tag_167\n      jumpi\n      dup3\n      mload\n      dup3\n      swap1\n      dup2\n      tag_168\n      swap2\n      swap1\n      tag_124\n      jump\t// in\n    tag_168:\n      pop\n      swap2\n      0x20\n      add\n      swap2\n      swap1\n      0x01\n      add\n      swap1\n      jump(tag_166)\n    tag_167:\n    tag_165:\n      pop\n      swap1\n      pop\n      tag_169\n      swap2\n      swap1\n      tag_170\n      jump\t// in\n    tag_169:\n      pop\n      swap1\n      jump\t// out\n    tag_170:\n    tag_171:\n      dup1\n      dup3\n      gt\n      iszero\n      tag_172\n      jumpi\n      0x00\n      dup2\n      dup2\n      tag_173\n      swap2\n      swap1\n      tag_174\n      jump\t// in\n    tag_173:\n      pop\n      0x01\n      add\n      jump(tag_171)\n    tag_172:\n      pop\n      swap1\n      jump\t// out\n    tag_174:\n      pop\n      dup1\n      sload\n      tag_175\n      swap1\n      tag_62\n      jump\t// in\n    tag_175:\n      0x00\n      dup3\n      sstore\n      dup1\n      0x1f\n      lt\n      tag_177\n      jumpi\n      pop\n      jump(tag_176)\n    tag_177:\n      0x1f\n      add\n      0x20\n      swap1\n      div\n      swap1\n      0x00\n      mstore\n      keccak256(0x00, 0x20)\n      swap1\n      dup2\n      add\n      swap1\n      tag_178\n      swap2\n      swap1\n      tag_179\n      jump\t// in\n    tag_178:\n    tag_176:\n      pop\n      jump\t// out\n    tag_179:\n    tag_180:\n      dup1\n      dup3\n      gt\n      iszero\n      tag_181\n      jumpi\n      0x00\n      dup2\n      0x00\n      swap1\n      sstore\n      pop\n      0x01\n      add\n      jump(tag_180)\n    tag_181:\n      pop\n      swap1\n      jump\t// out\n        /* \"#utility.yul\":7:82   */\n    tag_182:\n        /* \"#utility.yul\":40:46   */\n      0x00\n        /* \"#utility.yul\":73:75   */\n      0x40\n        /* \"#utility.yul\":67:76   */\n      mload\n        /* \"#utility.yul\":57:76   */\n      swap1\n      pop\n        /* \"#utility.yul\":7:82   */\n      swap1\n      jump\t// out\n        /* \"#utility.yul\":88:205   */\n    tag_183:\n        /* \"#utility.yul\":197:198   */\n      0x00\n        /* \"#utility.yul\":194:195   */\n      dup1\n        /* \"#utility.yul\":187:199   */\n      revert\n        /* \"#utility.yul\":211:328   */\n    tag_184:\n        /* \"#utility.yul\":320:321   */\n      0x00\n        /* \"#utility.yul\":317:318   */\n      dup1\n        /* \"#utility.yul\":310:322   */\n      revert\n        /* \"#utility.yul\":334:411   */\n    tag_185:\n        /* \"#utility.yul\":371:378   */\n      0x00\n        /* \"#utility.yul\":400:405   */\n      dup2\n        /* \"#utility.yul\":389:405   */\n      swap1\n      pop\n        /* \"#utility.yul\":334:411   */\n      swap2\n      swap1\n      pop\n      jump\t// out\n        /* \"#utility.yul\":417:539   */\n    tag_186:\n        /* \"#utility.yul\":490:514   */\n      tag_251\n        /* \"#utility.yul\":508:513   */\n      dup2\n        /* \"#utility.yul\":490:514   */\n      tag_185\n      jump\t// in\n    tag_251:\n        /* \"#utility.yul\":483:488   */\n      dup2\n        /* \"#utility.yul\":480:515   */\n      eq\n        /* \"#utility.yul\":470:533   */\n      tag_252\n      jumpi\n        /* \"#utility.yul\":529:530   */\n      0x00\n        /* \"#utility.yul\":526:527   */\n      dup1\n        /* \"#utility.yul\":519:531   */\n      revert\n        /* \"#utility.yul\":470:533   */\n    tag_252:\n        /* \"#utility.yul\":417:539   */\n      pop\n      jump\t// out\n        /* \"#utility.yul\":545:684   */\n    tag_187:\n        /* \"#utility.yul\":591:596   */\n      0x00\n        /* \"#utility.yul\":629:635   */\n      dup2\n        /* \"#utility.yul\":616:636   */\n      calldataload\n        /* \"#utility.yul\":607:636   */\n      swap1\n      pop\n        /* \"#utility.yul\":645:678   */\n      tag_254\n        /* \"#utility.yul\":672:677   */\n      dup2\n        /* \"#utility.yul\":645:678   */\n      tag_186\n      jump\t// in\n    tag_254:\n        /* \"#utility.yul\":545:684   */\n      swap3\n      swap2\n      pop\n      pop\n      jump\t// out\n        /* \"#utility.yul\":690:1019   */\n    tag_16:\n        /* \"#utility.yul\":749:755   */\n      0x00\n        /* \"#utility.yul\":798:800   */\n      0x20\n        /* \"#utility.yul\":786:795   */\n      dup3\n        /* \"#utility.yul\":777:784   */\n      dup5\n        /* \"#utility.yul\":773:796   */\n      sub\n        /* \"#utility.yul\":769:801   */\n      slt\n        /* \"#utility.yul\":766:885   */\n      iszero\n      tag_256\n      jumpi\n        /* \"#utility.yul\":804:883   */\n      tag_257\n      tag_183\n      jump\t// in\n    tag_257:\n        /* \"#utility.yul\":766:885   */\n    tag_256:\n        /* \"#utility.yul\":924:925   */\n      0x00\n        /* \"#utility.yul\":949:1002   */\n      tag_258\n        /* \"#utility.yul\":994:1001   */\n      dup5\n        /* \"#utility.yul\":985:991   */\n      dup3\n        /* \"#utility.yul\":974:983   */\n      dup6\n        /* \"#utility.yul\":970:992   */\n      add\n        /* \"#utility.yul\":949:1002   */\n      tag_187\n      jump\t// in\n    tag_258:\n        /* \"#utility.yul\":939:1002   */\n      swap2\n      pop\n        /* \"#utility.yul\":895:1012   */\n      pop\n        /* \"#utility.yul\":690:1019   */\n      swap3\n      swap2\n      pop\n      pop\n      jump\t// out\n        /* \"#utility.yul\":1025:1143   */\n    tag_188:\n        /* \"#utility.yul\":1112:1136   */\n      tag_260\n        /* \"#utility.yul\":1130:1135   */\n      dup2\n        /* \"#utility.yul\":1112:1136   */\n      tag_185\n      jump\t// in\n    tag_260:\n        /* \"#utility.yul\":1107:1110   */\n      dup3\n        /* \"#utility.yul\":1100:1137   */\n      mstore\n        /* \"#utility.yul\":1025:1143   */\n      pop\n      pop\n      jump\t// out\n        /* \"#utility.yul\":1149:1371   */\n    tag_19:\n        /* \"#utility.yul\":1242:1246   */\n      0x00\n        /* \"#utility.yul\":1280:1282   */\n      0x20\n        /* \"#utility.yul\":1269:1278   */\n      dup3\n        /* \"#utility.yul\":1265:1283   */\n      add\n        /* \"#utility.yul\":1257:1283   */\n      swap1\n      pop\n        /* \"#utility.yul\":1293:1364   */\n      tag_262\n        /* \"#utility.yul\":1361:1362   */\n      0x00\n        /* \"#utility.yul\":1350:1359   */\n      dup4\n        /* \"#utility.yul\":1346:1363   */\n      add\n        /* \"#utility.yul\":1337:1343   */\n      dup5\n        /* \"#utility.yul\":1293:1364   */\n      tag_188\n      jump\t// in\n    tag_262:\n        /* \"#utility.yul\":1149:1371   */\n      swap3\n      swap2\n      pop\n      pop\n      jump\t// out\n        /* \"#utility.yul\":1377:1514   */\n    tag_189:\n        /* \"#utility.yul\":1467:1473   */\n      0x00\n        /* \"#utility.yul\":1501:1506   */\n      dup2\n        /* \"#utility.yul\":1495:1507   */\n      mload\n        /* \"#utility.yul\":1485:1507   */\n      swap1\n      pop\n        /* \"#utility.yul\":1377:1514   */\n      swap2\n      swap1\n      pop\n      jump\t// out\n        /* \"#utility.yul\":1520:1727   */\n    tag_190:\n        /* \"#utility.yul\":1642:1653   */\n      0x00\n        /* \"#utility.yul\":1676:1682   */\n      dup3\n        /* \"#utility.yul\":1671:1674   */\n      dup3\n        /* \"#utility.yul\":1664:1683   */\n      mstore\n        /* \"#utility.yul\":1716:1720   */\n      0x20\n        /* \"#utility.yul\":1711:1714   */\n      dup3\n        /* \"#utility.yul\":1707:1721   */\n      add\n        /* \"#utility.yul\":1692:1721   */\n      swap1\n      pop\n        /* \"#utility.yul\":1520:1727   */\n      swap3\n      swap2\n      pop\n      pop\n      jump\t// out\n        /* \"#utility.yul\":1733:1888   */\n    tag_191:\n        /* \"#utility.yul\":1823:1827   */\n      0x00\n        /* \"#utility.yul\":1846:1849   */\n      dup2\n        /* \"#utility.yul\":1838:1849   */\n      swap1\n      pop\n        /* \"#utility.yul\":1876:1880   */\n      0x20\n        /* \"#utility.yul\":1871:1874   */\n      dup3\n        /* \"#utility.yul\":1867:1881   */\n      add\n        /* \"#utility.yul\":1859:1881   */\n      swap1\n      pop\n        /* \"#utility.yul\":1733:1888   */\n      swap2\n      swap1\n      pop\n      jump\t// out\n        /* \"#utility.yul\":1894:1993   */\n    tag_192:\n        /* \"#utility.yul\":1946:1952   */\n      0x00\n        /* \"#utility.yul\":1980:1985   */\n      dup2\n        /* \"#utility.yul\":1974:1986   */\n      mload\n        /* \"#utility.yul\":1964:1986   */\n      swap1\n      pop\n        /* \"#utility.yul\":1894:1993   */\n      swap2\n      swap1\n      pop\n      jump\t// out\n        /* \"#utility.yul\":1999:2158   */\n    tag_193:\n        /* \"#utility.yul\":2073:2084   */\n      0x00\n        /* \"#utility.yul\":2107:2113   */\n      dup3\n        /* \"#utility.yul\":2102:2105   */\n      dup3\n        /* \"#utility.yul\":2095:2114   */\n      mstore\n        /* \"#utility.yul\":2147:2151   */\n      0x20\n        /* \"#utility.yul\":2142:2145   */\n      dup3\n        /* \"#utility.yul\":2138:2152   */\n      add\n        /* \"#utility.yul\":2123:2152   */\n      swap1\n      pop\n        /* \"#utility.yul\":1999:2158   */\n      swap3\n      swap2\n      pop\n      pop\n      jump\t// out\n        /* \"#utility.yul\":2164:2303   */\n    tag_194:\n        /* \"#utility.yul\":2253:2259   */\n      dup3\n        /* \"#utility.yul\":2248:2251   */\n      dup2\n        /* \"#utility.yul\":2243:2246   */\n      dup4\n        /* \"#utility.yul\":2237:2260   */\n      mcopy\n        /* \"#utility.yul\":2294:2295   */\n      0x00\n        /* \"#utility.yul\":2285:2291   */\n      dup4\n        /* \"#utility.yul\":2280:2283   */\n      dup4\n        /* \"#utility.yul\":2276:2292   */\n      add\n        /* \"#utility.yul\":2269:2296   */\n      mstore\n        /* \"#utility.yul\":2164:2303   */\n      pop\n      pop\n      pop\n      jump\t// out\n        /* \"#utility.yul\":2309:2411   */\n    tag_195:\n        /* \"#utility.yul\":2350:2356   */\n      0x00\n        /* \"#utility.yul\":2401:2403   */\n      0x1f\n        /* \"#utility.yul\":2397:2404   */\n      not\n        /* \"#utility.yul\":2392:2394   */\n      0x1f\n        /* \"#utility.yul\":2385:2390   */\n      dup4\n        /* \"#utility.yul\":2381:2395   */\n      add\n        /* \"#utility.yul\":2377:2405   */\n      and\n        /* \"#utility.yul\":2367:2405   */\n      swap1\n      pop\n        /* \"#utility.yul\":2309:2411   */\n      swap2\n      swap1\n      pop\n      jump\t// out\n        /* \"#utility.yul\":2417:2774   */\n    tag_196:\n        /* \"#utility.yul\":2495:2498   */\n      0x00\n        /* \"#utility.yul\":2523:2562   */\n      tag_271\n        /* \"#utility.yul\":2556:2561   */\n      dup3\n        /* \"#utility.yul\":2523:2562   */\n      tag_192\n      jump\t// in\n    tag_271:\n        /* \"#utility.yul\":2578:2639   */\n      tag_272\n        /* \"#utility.yul\":2632:2638   */\n      dup2\n        /* \"#utility.yul\":2627:2630   */\n      dup6\n        /* \"#utility.yul\":2578:2639   */\n      tag_193\n      jump\t// in\n    tag_272:\n        /* \"#utility.yul\":2571:2639   */\n      swap4\n      pop\n        /* \"#utility.yul\":2648:2713   */\n      tag_273\n        /* \"#utility.yul\":2706:2712   */\n      dup2\n        /* \"#utility.yul\":2701:2704   */\n      dup6\n        /* \"#utility.yul\":2694:2698   */\n      0x20\n        /* \"#utility.yul\":2687:2692   */\n      dup7\n        /* \"#utility.yul\":2683:2699   */\n      add\n        /* \"#utility.yul\":2648:2713   */\n      tag_194\n      jump\t// in\n    tag_273:\n        /* \"#utility.yul\":2738:2767   */\n      tag_274\n        /* \"#utility.yul\":2760:2766   */\n      dup2\n        /* \"#utility.yul\":2738:2767   */\n      tag_195\n      jump\t// in\n    tag_274:\n        /* \"#utility.yul\":2733:2736   */\n      dup5\n        /* \"#utility.yul\":2729:2768   */\n      add\n        /* \"#utility.yul\":2722:2768   */\n      swap2\n      pop\n        /* \"#utility.yul\":2499:2774   */\n      pop\n        /* \"#utility.yul\":2417:2774   */\n      swap3\n      swap2\n      pop\n      pop\n      jump\t// out\n        /* \"#utility.yul\":2780:2888   */\n    tag_197:\n        /* \"#utility.yul\":2857:2881   */\n      tag_276\n        /* \"#utility.yul\":2875:2880   */\n      dup2\n        /* \"#utility.yul\":2857:2881   */\n      tag_185\n      jump\t// in\n    tag_276:\n        /* \"#utility.yul\":2852:2855   */\n      dup3\n        /* \"#utility.yul\":2845:2882   */\n      mstore\n        /* \"#utility.yul\":2780:2888   */\n      pop\n      pop\n      jump\t// out\n        /* \"#utility.yul\":2894:3018   */\n    tag_198:\n        /* \"#utility.yul\":2971:2977   */\n      0x00\n        /* \"#utility.yul\":3005:3010   */\n      dup2\n        /* \"#utility.yul\":2999:3011   */\n      mload\n        /* \"#utility.yul\":2989:3011   */\n      swap1\n      pop\n        /* \"#utility.yul\":2894:3018   */\n      swap2\n      swap1\n      pop\n      jump\t// out\n        /* \"#utility.yul\":3024:3208   */\n    tag_199:\n        /* \"#utility.yul\":3123:3134   */\n      0x00\n        /* \"#utility.yul\":3157:3163   */\n      dup3\n        /* \"#utility.yul\":3152:3155   */\n      dup3\n        /* \"#utility.yul\":3145:3164   */\n      mstore\n        /* \"#utility.yul\":3197:3201   */\n      0x20\n        /* \"#utility.yul\":3192:3195   */\n      dup3\n        /* \"#utility.yul\":3188:3202   */\n      add\n        /* \"#utility.yul\":3173:3202   */\n      swap1\n      pop\n        /* \"#utility.yul\":3024:3208   */\n      swap3\n      swap2\n      pop\n      pop\n      jump\t// out\n        /* \"#utility.yul\":3214:3356   */\n    tag_200:\n        /* \"#utility.yul\":3291:3295   */\n      0x00\n        /* \"#utility.yul\":3314:3317   */\n      dup2\n        /* \"#utility.yul\":3306:3317   */\n      swap1\n      pop\n        /* \"#utility.yul\":3344:3348   */\n      0x20\n        /* \"#utility.yul\":3339:3342   */\n      dup3\n        /* \"#utility.yul\":3335:3349   */\n      add\n        /* \"#utility.yul\":3327:3349   */\n      swap1\n      pop\n        /* \"#utility.yul\":3214:3356   */\n      swap2\n      swap1\n      pop\n      jump\t// out\n        /* \"#utility.yul\":3362:3558   */\n    tag_201:\n        /* \"#utility.yul\":3451:3461   */\n      0x00\n        /* \"#utility.yul\":3486:3552   */\n      tag_281\n        /* \"#utility.yul\":3548:3551   */\n      dup4\n        /* \"#utility.yul\":3540:3546   */\n      dup4\n        /* \"#utility.yul\":3486:3552   */\n      tag_196\n      jump\t// in\n    tag_281:\n        /* \"#utility.yul\":3472:3552   */\n      swap1\n      pop\n        /* \"#utility.yul\":3362:3558   */\n      swap3\n      swap2\n      pop\n      pop\n      jump\t// out\n        /* \"#utility.yul\":3564:3687   */\n    tag_202:\n        /* \"#utility.yul\":3644:3648   */\n      0x00\n        /* \"#utility.yul\":3676:3680   */\n      0x20\n        /* \"#utility.yul\":3671:3674   */\n      dup3\n        /* \"#utility.yul\":3667:3681   */\n      add\n        /* \"#utility.yul\":3659:3681   */\n      swap1\n      pop\n        /* \"#utility.yul\":3564:3687   */\n      swap2\n      swap1\n      pop\n      jump\t// out\n        /* \"#utility.yul\":3721:4692   */\n    tag_203:\n        /* \"#utility.yul\":3850:3853   */\n      0x00\n        /* \"#utility.yul\":3879:3943   */\n      tag_284\n        /* \"#utility.yul\":3937:3942   */\n      dup3\n        /* \"#utility.yul\":3879:3943   */\n      tag_198\n      jump\t// in\n    tag_284:\n        /* \"#utility.yul\":3959:4045   */\n      tag_285\n        /* \"#utility.yul\":4038:4044   */\n      dup2\n        /* \"#utility.yul\":4033:4036   */\n      dup6\n        /* \"#utility.yul\":3959:4045   */\n      tag_199\n      jump\t// in\n    tag_285:\n        /* \"#utility.yul\":3952:4045   */\n      swap4\n      pop\n        /* \"#utility.yul\":4071:4074   */\n      dup4\n        /* \"#utility.yul\":4116:4120   */\n      0x20\n        /* \"#utility.yul\":4108:4114   */\n      dup3\n        /* \"#utility.yul\":4104:4121   */\n      mul\n        /* \"#utility.yul\":4099:4102   */\n      dup6\n        /* \"#utility.yul\":4095:4122   */\n      add\n        /* \"#utility.yul\":4146:4212   */\n      tag_286\n        /* \"#utility.yul\":4206:4211   */\n      dup6\n        /* \"#utility.yul\":4146:4212   */\n      tag_200\n      jump\t// in\n    tag_286:\n        /* \"#utility.yul\":4235:4242   */\n      dup1\n        /* \"#utility.yul\":4266:4267   */\n      0x00\n        /* \"#utility.yul\":4251:4647   */\n    tag_287:\n        /* \"#utility.yul\":4276:4282   */\n      dup6\n        /* \"#utility.yul\":4273:4274   */\n      dup2\n        /* \"#utility.yul\":4270:4283   */\n      lt\n        /* \"#utility.yul\":4251:4647   */\n      iszero\n      tag_289\n      jumpi\n        /* \"#utility.yul\":4347:4356   */\n      dup5\n        /* \"#utility.yul\":4341:4345   */\n      dup5\n        /* \"#utility.yul\":4337:4357   */\n      sub\n        /* \"#utility.yul\":4332:4335   */\n      dup10\n        /* \"#utility.yul\":4325:4358   */\n      mstore\n        /* \"#utility.yul\":4398:4404   */\n      dup2\n        /* \"#utility.yul\":4392:4405   */\n      mload\n        /* \"#utility.yul\":4426:4510   */\n      tag_290\n        /* \"#utility.yul\":4505:4509   */\n      dup6\n        /* \"#utility.yul\":4490:4503   */\n      dup3\n        /* \"#utility.yul\":4426:4510   */\n      tag_201\n      jump\t// in\n    tag_290:\n        /* \"#utility.yul\":4418:4510   */\n      swap5\n      pop\n        /* \"#utility.yul\":4533:4603   */\n      tag_291\n        /* \"#utility.yul\":4596:4602   */\n      dup4\n        /* \"#utility.yul\":4533:4603   */\n      tag_202\n      jump\t// in\n    tag_291:\n        /* \"#utility.yul\":4523:4603   */\n      swap3\n      pop\n        /* \"#utility.yul\":4632:4636   */\n      0x20\n        /* \"#utility.yul\":4627:4630   */\n      dup11\n        /* \"#utility.yul\":4623:4637   */\n      add\n        /* \"#utility.yul\":4616:4637   */\n      swap10\n      pop\n        /* \"#utility.yul\":4311:4647   */\n      pop\n        /* \"#utility.yul\":4298:4299   */\n      0x01\n        /* \"#utility.yul\":4295:4296   */\n      dup2\n        /* \"#utility.yul\":4291:4300   */\n      add\n        /* \"#utility.yul\":4286:4300   */\n      swap1\n      pop\n        /* \"#utility.yul\":4251:4647   */\n      jump(tag_287)\n    tag_289:\n        /* \"#utility.yul\":4255:4269   */\n      pop\n        /* \"#utility.yul\":4663:4667   */\n      dup3\n        /* \"#utility.yul\":4656:4667   */\n      swap8\n      pop\n        /* \"#utility.yul\":4683:4686   */\n      dup8\n        /* \"#utility.yul\":4676:4686   */\n      swap6\n      pop\n        /* \"#utility.yul\":3855:4692   */\n      pop\n      pop\n      pop\n      pop\n      pop\n        /* \"#utility.yul\":3721:4692   */\n      swap3\n      swap2\n      pop\n      pop\n      jump\t// out\n        /* \"#utility.yul\":4750:6058   */\n    tag_204:\n        /* \"#utility.yul\":4855:4858   */\n      0x00\n        /* \"#utility.yul\":4891:4895   */\n      0xa0\n        /* \"#utility.yul\":4886:4889   */\n      dup4\n        /* \"#utility.yul\":4882:4896   */\n      add\n        /* \"#utility.yul\":4978:4982   */\n      0x00\n        /* \"#utility.yul\":4971:4976   */\n      dup4\n        /* \"#utility.yul\":4967:4983   */\n      add\n        /* \"#utility.yul\":4961:4984   */\n      mload\n        /* \"#utility.yul\":5031:5034   */\n      dup5\n        /* \"#utility.yul\":5025:5029   */\n      dup3\n        /* \"#utility.yul\":5021:5035   */\n      sub\n        /* \"#utility.yul\":5014:5018   */\n      0x00\n        /* \"#utility.yul\":5009:5012   */\n      dup7\n        /* \"#utility.yul\":5005:5019   */\n      add\n        /* \"#utility.yul\":4998:5036   */\n      mstore\n        /* \"#utility.yul\":5057:5130   */\n      tag_293\n        /* \"#utility.yul\":5125:5129   */\n      dup3\n        /* \"#utility.yul\":5111:5123   */\n      dup3\n        /* \"#utility.yul\":5057:5130   */\n      tag_196\n      jump\t// in\n    tag_293:\n        /* \"#utility.yul\":5049:5130   */\n      swap2\n      pop\n        /* \"#utility.yul\":4906:5141   */\n      pop\n        /* \"#utility.yul\":5222:5226   */\n      0x20\n        /* \"#utility.yul\":5215:5220   */\n      dup4\n        /* \"#utility.yul\":5211:5227   */\n      add\n        /* \"#utility.yul\":5205:5228   */\n      mload\n        /* \"#utility.yul\":5241:5304   */\n      tag_294\n        /* \"#utility.yul\":5298:5302   */\n      0x20\n        /* \"#utility.yul\":5293:5296   */\n      dup7\n        /* \"#utility.yul\":5289:5303   */\n      add\n        /* \"#utility.yul\":5275:5287   */\n      dup3\n        /* \"#utility.yul\":5241:5304   */\n      tag_197\n      jump\t// in\n    tag_294:\n        /* \"#utility.yul\":5151:5314   */\n      pop\n        /* \"#utility.yul\":5397:5401   */\n      0x40\n        /* \"#utility.yul\":5390:5395   */\n      dup4\n        /* \"#utility.yul\":5386:5402   */\n      add\n        /* \"#utility.yul\":5380:5403   */\n      mload\n        /* \"#utility.yul\":5416:5479   */\n      tag_295\n        /* \"#utility.yul\":5473:5477   */\n      0x40\n        /* \"#utility.yul\":5468:5471   */\n      dup7\n        /* \"#utility.yul\":5464:5478   */\n      add\n        /* \"#utility.yul\":5450:5462   */\n      dup3\n        /* \"#utility.yul\":5416:5479   */\n      tag_197\n      jump\t// in\n    tag_295:\n        /* \"#utility.yul\":5324:5489   */\n      pop\n        /* \"#utility.yul\":5572:5576   */\n      0x60\n        /* \"#utility.yul\":5565:5570   */\n      dup4\n        /* \"#utility.yul\":5561:5577   */\n      add\n        /* \"#utility.yul\":5555:5578   */\n      mload\n        /* \"#utility.yul\":5625:5628   */\n      dup5\n        /* \"#utility.yul\":5619:5623   */\n      dup3\n        /* \"#utility.yul\":5615:5629   */\n      sub\n        /* \"#utility.yul\":5608:5612   */\n      0x60\n        /* \"#utility.yul\":5603:5606   */\n      dup7\n        /* \"#utility.yul\":5599:5613   */\n      add\n        /* \"#utility.yul\":5592:5630   */\n      mstore\n        /* \"#utility.yul\":5651:5724   */\n      tag_296\n        /* \"#utility.yul\":5719:5723   */\n      dup3\n        /* \"#utility.yul\":5705:5717   */\n      dup3\n        /* \"#utility.yul\":5651:5724   */\n      tag_196\n      jump\t// in\n    tag_296:\n        /* \"#utility.yul\":5643:5724   */\n      swap2\n      pop\n        /* \"#utility.yul\":5499:5735   */\n      pop\n        /* \"#utility.yul\":5818:5822   */\n      0x80\n        /* \"#utility.yul\":5811:5816   */\n      dup4\n        /* \"#utility.yul\":5807:5823   */\n      add\n        /* \"#utility.yul\":5801:5824   */\n      mload\n        /* \"#utility.yul\":5871:5874   */\n      dup5\n        /* \"#utility.yul\":5865:5869   */\n      dup3\n        /* \"#utility.yul\":5861:5875   */\n      sub\n        /* \"#utility.yul\":5854:5858   */\n      0x80\n        /* \"#utility.yul\":5849:5852   */\n      dup7\n        /* \"#utility.yul\":5845:5859   */\n      add\n        /* \"#utility.yul\":5838:5876   */\n      mstore\n        /* \"#utility.yul\":5897:6020   */\n      tag_297\n        /* \"#utility.yul\":6015:6019   */\n      dup3\n        /* \"#utility.yul\":6001:6013   */\n      dup3\n        /* \"#utility.yul\":5897:6020   */\n      tag_203\n      jump\t// in\n    tag_297:\n        /* \"#utility.yul\":5889:6020   */\n      swap2\n      pop\n        /* \"#utility.yul\":5745:6031   */\n      pop\n        /* \"#utility.yul\":6048:6052   */\n      dup1\n        /* \"#utility.yul\":6041:6052   */\n      swap2\n      pop\n        /* \"#utility.yul\":4860:6058   */\n      pop\n        /* \"#utility.yul\":4750:6058   */\n      swap3\n      swap2\n      pop\n      pop\n      jump\t// out\n        /* \"#utility.yul\":6064:6312   */\n    tag_205:\n        /* \"#utility.yul\":6179:6189   */\n      0x00\n        /* \"#utility.yul\":6214:6306   */\n      tag_299\n        /* \"#utility.yul\":6302:6305   */\n      dup4\n        /* \"#utility.yul\":6294:6300   */\n      dup4\n        /* \"#utility.yul\":6214:6306   */\n      tag_204\n      jump\t// in\n    tag_299:\n        /* \"#utility.yul\":6200:6306   */\n      swap1\n      pop\n        /* \"#utility.yul\":6064:6312   */\n      swap3\n      swap2\n      pop\n      pop\n      jump\t// out\n        /* \"#utility.yul\":6318:6454   */\n    tag_206:\n        /* \"#utility.yul\":6411:6415   */\n      0x00\n        /* \"#utility.yul\":6443:6447   */\n      0x20\n        /* \"#utility.yul\":6438:6441   */\n      dup3\n        /* \"#utility.yul\":6434:6448   */\n      add\n        /* \"#utility.yul\":6426:6448   */\n      swap1\n      pop\n        /* \"#utility.yul\":6318:6454   */\n      swap2\n      swap1\n      pop\n      jump\t// out\n        /* \"#utility.yul\":6516:7611   */\n    tag_207:\n        /* \"#utility.yul\":6681:6684   */\n      0x00\n        /* \"#utility.yul\":6710:6787   */\n      tag_302\n        /* \"#utility.yul\":6781:6786   */\n      dup3\n        /* \"#utility.yul\":6710:6787   */\n      tag_189\n      jump\t// in\n    tag_302:\n        /* \"#utility.yul\":6803:6912   */\n      tag_303\n        /* \"#utility.yul\":6905:6911   */\n      dup2\n        /* \"#utility.yul\":6900:6903   */\n      dup6\n        /* \"#utility.yul\":6803:6912   */\n      tag_190\n      jump\t// in\n    tag_303:\n        /* \"#utility.yul\":6796:6912   */\n      swap4\n      pop\n        /* \"#utility.yul\":6938:6941   */\n      dup4\n        /* \"#utility.yul\":6983:6987   */\n      0x20\n        /* \"#utility.yul\":6975:6981   */\n      dup3\n        /* \"#utility.yul\":6971:6988   */\n      mul\n        /* \"#utility.yul\":6966:6969   */\n      dup6\n        /* \"#utility.yul\":6962:6989   */\n      add\n        /* \"#utility.yul\":7013:7092   */\n      tag_304\n        /* \"#utility.yul\":7086:7091   */\n      dup6\n        /* \"#utility.yul\":7013:7092   */\n      tag_191\n      jump\t// in\n    tag_304:\n        /* \"#utility.yul\":7115:7122   */\n      dup1\n        /* \"#utility.yul\":7146:7147   */\n      0x00\n        /* \"#utility.yul\":7131:7566   */\n    tag_305:\n        /* \"#utility.yul\":7156:7162   */\n      dup6\n        /* \"#utility.yul\":7153:7154   */\n      dup2\n        /* \"#utility.yul\":7150:7163   */\n      lt\n        /* \"#utility.yul\":7131:7566   */\n      iszero\n      tag_307\n      jumpi\n        /* \"#utility.yul\":7227:7236   */\n      dup5\n        /* \"#utility.yul\":7221:7225   */\n      dup5\n        /* \"#utility.yul\":7217:7237   */\n      sub\n        /* \"#utility.yul\":7212:7215   */\n      dup10\n        /* \"#utility.yul\":7205:7238   */\n      mstore\n        /* \"#utility.yul\":7278:7284   */\n      dup2\n        /* \"#utility.yul\":7272:7285   */\n      mload\n        /* \"#utility.yul\":7306:7416   */\n      tag_308\n        /* \"#utility.yul\":7411:7415   */\n      dup6\n        /* \"#utility.yul\":7396:7409   */\n      dup3\n        /* \"#utility.yul\":7306:7416   */\n      tag_205\n      jump\t// in\n    tag_308:\n        /* \"#utility.yul\":7298:7416   */\n      swap5\n      pop\n        /* \"#utility.yul\":7439:7522   */\n      tag_309\n        /* \"#utility.yul\":7515:7521   */\n      dup4\n        /* \"#utility.yul\":7439:7522   */\n      tag_206\n      jump\t// in\n    tag_309:\n        /* \"#utility.yul\":7429:7522   */\n      swap3\n      pop\n        /* \"#utility.yul\":7551:7555   */\n      0x20\n        /* \"#utility.yul\":7546:7549   */\n      dup11\n        /* \"#utility.yul\":7542:7556   */\n      add\n        /* \"#utility.yul\":7535:7556   */\n      swap10\n      pop\n        /* \"#utility.yul\":7191:7566   */\n      pop\n        /* \"#utility.yul\":7178:7179   */\n      0x01\n        /* \"#utility.yul\":7175:7176   */\n      dup2\n        /* \"#utility.yul\":7171:7180   */\n      add\n        /* \"#utility.yul\":7166:7180   */\n      swap1\n      pop\n        /* \"#utility.yul\":7131:7566   */\n      jump(tag_305)\n    tag_307:\n        /* \"#utility.yul\":7135:7149   */\n      pop\n        /* \"#utility.yul\":7582:7586   */\n      dup3\n        /* \"#utility.yul\":7575:7586   */\n      swap8\n      pop\n        /* \"#utility.yul\":7602:7605   */\n      dup8\n        /* \"#utility.yul\":7595:7605   */\n      swap6\n      pop\n        /* \"#utility.yul\":6686:7611   */\n      pop\n      pop\n      pop\n      pop\n      pop\n        /* \"#utility.yul\":6516:7611   */\n      swap3\n      swap2\n      pop\n      pop\n      jump\t// out\n        /* \"#utility.yul\":7617:8082   */\n    tag_23:\n        /* \"#utility.yul\":7806:7810   */\n      0x00\n        /* \"#utility.yul\":7844:7846   */\n      0x20\n        /* \"#utility.yul\":7833:7842   */\n      dup3\n        /* \"#utility.yul\":7829:7847   */\n      add\n        /* \"#utility.yul\":7821:7847   */\n      swap1\n      pop\n        /* \"#utility.yul\":7893:7902   */\n      dup2\n        /* \"#utility.yul\":7887:7891   */\n      dup2\n        /* \"#utility.yul\":7883:7903   */\n      sub\n        /* \"#utility.yul\":7879:7880   */\n      0x00\n        /* \"#utility.yul\":7868:7877   */\n      dup4\n        /* \"#utility.yul\":7864:7881   */\n      add\n        /* \"#utility.yul\":7857:7904   */\n      mstore\n        /* \"#utility.yul\":7921:8075   */\n      tag_311\n        /* \"#utility.yul\":8070:8074   */\n      dup2\n        /* \"#utility.yul\":8061:8067   */\n      dup5\n        /* \"#utility.yul\":7921:8075   */\n      tag_207\n      jump\t// in\n    tag_311:\n        /* \"#utility.yul\":7913:8075   */\n      swap1\n      pop\n        /* \"#utility.yul\":7617:8082   */\n      swap3\n      swap2\n      pop\n      pop\n      jump\t// out\n        /* \"#utility.yul\":8088:8205   */\n    tag_208:\n        /* \"#utility.yul\":8197:8198   */\n      0x00\n        /* \"#utility.yul\":8194:8195   */\n      dup1\n        /* \"#utility.yul\":8187:8199   */\n      revert\n        /* \"#utility.yul\":8211:8328   */\n    tag_209:\n        /* \"#utility.yul\":8320:8321   */\n      0x00\n        /* \"#utility.yul\":8317:8318   */\n      dup1\n        /* \"#utility.yul\":8310:8322   */\n      revert\n        /* \"#utility.yul\":8334:8514   */\n    tag_210:\n        /* \"#utility.yul\":8382:8459   */\n      0x4e487b7100000000000000000000000000000000000000000000000000000000\n        /* \"#utility.yul\":8379:8380   */\n      0x00\n        /* \"#utility.yul\":8372:8460   */\n      mstore\n        /* \"#utility.yul\":8479:8483   */\n      0x41\n        /* \"#utility.yul\":8476:8477   */\n      0x04\n        /* \"#utility.yul\":8469:8484   */\n      mstore\n        /* \"#utility.yul\":8503:8507   */\n      0x24\n        /* \"#utility.yul\":8500:8501   */\n      0x00\n        /* \"#utility.yul\":8493:8508   */\n      revert\n        /* \"#utility.yul\":8520:8801   */\n    tag_211:\n        /* \"#utility.yul\":8603:8630   */\n      tag_316\n        /* \"#utility.yul\":8625:8629   */\n      dup3\n        /* \"#utility.yul\":8603:8630   */\n      tag_195\n      jump\t// in\n    tag_316:\n        /* \"#utility.yul\":8595:8601   */\n      dup2\n        /* \"#utility.yul\":8591:8631   */\n      add\n        /* \"#utility.yul\":8733:8739   */\n      dup2\n        /* \"#utility.yul\":8721:8731   */\n      dup2\n        /* \"#utility.yul\":8718:8740   */\n      lt\n        /* \"#utility.yul\":8697:8715   */\n      0xffffffffffffffff\n        /* \"#utility.yul\":8685:8695   */\n      dup3\n        /* \"#utility.yul\":8682:8716   */\n      gt\n        /* \"#utility.yul\":8679:8741   */\n      or\n        /* \"#utility.yul\":8676:8764   */\n      iszero\n      tag_317\n      jumpi\n        /* \"#utility.yul\":8744:8762   */\n      tag_318\n      tag_210\n      jump\t// in\n    tag_318:\n        /* \"#utility.yul\":8676:8764   */\n    tag_317:\n        /* \"#utility.yul\":8784:8794   */\n      dup1\n        /* \"#utility.yul\":8780:8782   */\n      0x40\n        /* \"#utility.yul\":8773:8795   */\n      mstore\n        /* \"#utility.yul\":8563:8801   */\n      pop\n        /* \"#utility.yul\":8520:8801   */\n      pop\n      pop\n      jump\t// out\n        /* \"#utility.yul\":8807:8936   */\n    tag_212:\n        /* \"#utility.yul\":8841:8847   */\n      0x00\n        /* \"#utility.yul\":8868:8888   */\n      tag_320\n      tag_182\n      jump\t// in\n    tag_320:\n        /* \"#utility.yul\":8858:8888   */\n      swap1\n      pop\n        /* \"#utility.yul\":8897:8930   */\n      tag_321\n        /* \"#utility.yul\":8925:8929   */\n      dup3\n        /* \"#utility.yul\":8917:8923   */\n      dup3\n        /* \"#utility.yul\":8897:8930   */\n      tag_211\n      jump\t// in\n    tag_321:\n        /* \"#utility.yul\":8807:8936   */\n      swap2\n      swap1\n      pop\n      jump\t// out\n        /* \"#utility.yul\":8942:9250   */\n    tag_213:\n        /* \"#utility.yul\":9004:9008   */\n      0x00\n        /* \"#utility.yul\":9094:9112   */\n      0xffffffffffffffff\n        /* \"#utility.yul\":9086:9092   */\n      dup3\n        /* \"#utility.yul\":9083:9113   */\n      gt\n        /* \"#utility.yul\":9080:9136   */\n      iszero\n      tag_323\n      jumpi\n        /* \"#utility.yul\":9116:9134   */\n      tag_324\n      tag_210\n      jump\t// in\n    tag_324:\n        /* \"#utility.yul\":9080:9136   */\n    tag_323:\n        /* \"#utility.yul\":9154:9183   */\n      tag_325\n        /* \"#utility.yul\":9176:9182   */\n      dup3\n        /* \"#utility.yul\":9154:9183   */\n      tag_195\n      jump\t// in\n    tag_325:\n        /* \"#utility.yul\":9146:9183   */\n      swap1\n      pop\n        /* \"#utility.yul\":9238:9242   */\n      0x20\n        /* \"#utility.yul\":9232:9236   */\n      dup2\n        /* \"#utility.yul\":9228:9243   */\n      add\n        /* \"#utility.yul\":9220:9243   */\n      swap1\n      pop\n        /* \"#utility.yul\":8942:9250   */\n      swap2\n      swap1\n      pop\n      jump\t// out\n        /* \"#utility.yul\":9256:9404   */\n    tag_214:\n        /* \"#utility.yul\":9354:9360   */\n      dup3\n        /* \"#utility.yul\":9349:9352   */\n      dup2\n        /* \"#utility.yul\":9344:9347   */\n      dup4\n        /* \"#utility.yul\":9331:9361   */\n      calldatacopy\n        /* \"#utility.yul\":9395:9396   */\n      0x00\n        /* \"#utility.yul\":9386:9392   */\n      dup4\n        /* \"#utility.yul\":9381:9384   */\n      dup4\n        /* \"#utility.yul\":9377:9393   */\n      add\n        /* \"#utility.yul\":9370:9397   */\n      mstore\n        /* \"#utility.yul\":9256:9404   */\n      pop\n      pop\n      pop\n      jump\t// out\n        /* \"#utility.yul\":9410:9835   */\n    tag_215:\n        /* \"#utility.yul\":9488:9493   */\n      0x00\n        /* \"#utility.yul\":9513:9579   */\n      tag_328\n        /* \"#utility.yul\":9529:9578   */\n      tag_329\n        /* \"#utility.yul\":9571:9577   */\n      dup5\n        /* \"#utility.yul\":9529:9578   */\n      tag_213\n      jump\t// in\n    tag_329:\n        /* \"#utility.yul\":9513:9579   */\n      tag_212\n      jump\t// in\n    tag_328:\n        /* \"#utility.yul\":9504:9579   */\n      swap1\n      pop\n        /* \"#utility.yul\":9602:9608   */\n      dup3\n        /* \"#utility.yul\":9595:9600   */\n      dup2\n        /* \"#utility.yul\":9588:9609   */\n      mstore\n        /* \"#utility.yul\":9640:9644   */\n      0x20\n        /* \"#utility.yul\":9633:9638   */\n      dup2\n        /* \"#utility.yul\":9629:9645   */\n      add\n        /* \"#utility.yul\":9678:9681   */\n      dup5\n        /* \"#utility.yul\":9669:9675   */\n      dup5\n        /* \"#utility.yul\":9664:9667   */\n      dup5\n        /* \"#utility.yul\":9660:9676   */\n      add\n        /* \"#utility.yul\":9657:9682   */\n      gt\n        /* \"#utility.yul\":9654:9766   */\n      iszero\n      tag_330\n      jumpi\n        /* \"#utility.yul\":9685:9764   */\n      tag_331\n      tag_209\n      jump\t// in\n    tag_331:\n        /* \"#utility.yul\":9654:9766   */\n    tag_330:\n        /* \"#utility.yul\":9775:9829   */\n      tag_332\n        /* \"#utility.yul\":9822:9828   */\n      dup5\n        /* \"#utility.yul\":9817:9820   */\n      dup3\n        /* \"#utility.yul\":9812:9815   */\n      dup6\n        /* \"#utility.yul\":9775:9829   */\n      tag_214\n      jump\t// in\n    tag_332:\n        /* \"#utility.yul\":9494:9835   */\n      pop\n        /* \"#utility.yul\":9410:9835   */\n      swap4\n      swap3\n      pop\n      pop\n      pop\n      jump\t// out\n        /* \"#utility.yul\":9855:10195   */\n    tag_216:\n        /* \"#utility.yul\":9911:9916   */\n      0x00\n        /* \"#utility.yul\":9960:9963   */\n      dup3\n        /* \"#utility.yul\":9953:9957   */\n      0x1f\n        /* \"#utility.yul\":9945:9951   */\n      dup4\n        /* \"#utility.yul\":9941:9958   */\n      add\n        /* \"#utility.yul\":9937:9964   */\n      slt\n        /* \"#utility.yul\":9927:10049   */\n      tag_334\n      jumpi\n        /* \"#utility.yul\":9968:10047   */\n      tag_335\n      tag_208\n      jump\t// in\n    tag_335:\n        /* \"#utility.yul\":9927:10049   */\n    tag_334:\n        /* \"#utility.yul\":10085:10091   */\n      dup2\n        /* \"#utility.yul\":10072:10092   */\n      calldataload\n        /* \"#utility.yul\":10110:10189   */\n      tag_336\n        /* \"#utility.yul\":10185:10188   */\n      dup5\n        /* \"#utility.yul\":10177:10183   */\n      dup3\n        /* \"#utility.yul\":10170:10174   */\n      0x20\n        /* \"#utility.yul\":10162:10168   */\n      dup7\n        /* \"#utility.yul\":10158:10175   */\n      add\n        /* \"#utility.yul\":10110:10189   */\n      tag_215\n      jump\t// in\n    tag_336:\n        /* \"#utility.yul\":10101:10189   */\n      swap2\n      pop\n        /* \"#utility.yul\":9917:10195   */\n      pop\n        /* \"#utility.yul\":9855:10195   */\n      swap3\n      swap2\n      pop\n      pop\n      jump\t// out\n        /* \"#utility.yul\":10201:10710   */\n    tag_26:\n        /* \"#utility.yul\":10270:10276   */\n      0x00\n        /* \"#utility.yul\":10319:10321   */\n      0x20\n        /* \"#utility.yul\":10307:10316   */\n      dup3\n        /* \"#utility.yul\":10298:10305   */\n      dup5\n        /* \"#utility.yul\":10294:10317   */\n      sub\n        /* \"#utility.yul\":10290:10322   */\n      slt\n        /* \"#utility.yul\":10287:10406   */\n      iszero\n      tag_338\n      jumpi\n        /* \"#utility.yul\":10325:10404   */\n      tag_339\n      tag_183\n      jump\t// in\n    tag_339:\n        /* \"#utility.yul\":10287:10406   */\n    tag_338:\n        /* \"#utility.yul\":10473:10474   */\n      0x00\n        /* \"#utility.yul\":10462:10471   */\n      dup3\n        /* \"#utility.yul\":10458:10475   */\n      add\n        /* \"#utility.yul\":10445:10476   */\n      calldataload\n        /* \"#utility.yul\":10503:10521   */\n      0xffffffffffffffff\n        /* \"#utility.yul\":10495:10501   */\n      dup2\n        /* \"#utility.yul\":10492:10522   */\n      gt\n        /* \"#utility.yul\":10489:10606   */\n      iszero\n      tag_340\n      jumpi\n        /* \"#utility.yul\":10525:10604   */\n      tag_341\n      tag_184\n      jump\t// in\n    tag_341:\n        /* \"#utility.yul\":10489:10606   */\n    tag_340:\n        /* \"#utility.yul\":10630:10693   */\n      tag_342\n        /* \"#utility.yul\":10685:10692   */\n      dup5\n        /* \"#utility.yul\":10676:10682   */\n      dup3\n        /* \"#utility.yul\":10665:10674   */\n      dup6\n        /* \"#utility.yul\":10661:10683   */\n      add\n        /* \"#utility.yul\":10630:10693   */\n      tag_216\n      jump\t// in\n    tag_342:\n        /* \"#utility.yul\":10620:10693   */\n      swap2\n      pop\n        /* \"#utility.yul\":10416:10703   */\n      pop\n        /* \"#utility.yul\":10201:10710   */\n      swap3\n      swap2\n      pop\n      pop\n      jump\t// out\n        /* \"#utility.yul\":10716:10885   */\n    tag_217:\n        /* \"#utility.yul\":10800:10811   */\n      0x00\n        /* \"#utility.yul\":10834:10840   */\n      dup3\n        /* \"#utility.yul\":10829:10832   */\n      dup3\n        /* \"#utility.yul\":10822:10841   */\n      mstore\n        /* \"#utility.yul\":10874:10878   */\n      0x20\n        /* \"#utility.yul\":10869:10872   */\n      dup3\n        /* \"#utility.yul\":10865:10879   */\n      add\n        /* \"#utility.yul\":10850:10879   */\n      swap1\n      pop\n        /* \"#utility.yul\":10716:10885   */\n      swap3\n      swap2\n      pop\n      pop\n      jump\t// out\n        /* \"#utility.yul\":10891:11268   */\n    tag_218:\n        /* \"#utility.yul\":10979:10982   */\n      0x00\n        /* \"#utility.yul\":11007:11046   */\n      tag_345\n        /* \"#utility.yul\":11040:11045   */\n      dup3\n        /* \"#utility.yul\":11007:11046   */\n      tag_192\n      jump\t// in\n    tag_345:\n        /* \"#utility.yul\":11062:11133   */\n      tag_346\n        /* \"#utility.yul\":11126:11132   */\n      dup2\n        /* \"#utility.yul\":11121:11124   */\n      dup6\n        /* \"#utility.yul\":11062:11133   */\n      tag_217\n      jump\t// in\n    tag_346:\n        /* \"#utility.yul\":11055:11133   */\n      swap4\n      pop\n        /* \"#utility.yul\":11142:11207   */\n      tag_347\n        /* \"#utility.yul\":11200:11206   */\n      dup2\n        /* \"#utility.yul\":11195:11198   */\n      dup6\n        /* \"#utility.yul\":11188:11192   */\n      0x20\n        /* \"#utility.yul\":11181:11186   */\n      dup7\n        /* \"#utility.yul\":11177:11193   */\n      add\n        /* \"#utility.yul\":11142:11207   */\n      tag_194\n      jump\t// in\n    tag_347:\n        /* \"#utility.yul\":11232:11261   */\n      tag_348\n        /* \"#utility.yul\":11254:11260   */\n      dup2\n        /* \"#utility.yul\":11232:11261   */\n      tag_195\n      jump\t// in\n    tag_348:\n        /* \"#utility.yul\":11227:11230   */\n      dup5\n        /* \"#utility.yul\":11223:11262   */\n      add\n        /* \"#utility.yul\":11216:11262   */\n      swap2\n      pop\n        /* \"#utility.yul\":10983:11268   */\n      pop\n        /* \"#utility.yul\":10891:11268   */\n      swap3\n      swap2\n      pop\n      pop\n      jump\t// out\n        /* \"#utility.yul\":11274:11587   */\n    tag_37:\n        /* \"#utility.yul\":11387:11391   */\n      0x00\n        /* \"#utility.yul\":11425:11427   */\n      0x20\n        /* \"#utility.yul\":11414:11423   */\n      dup3\n        /* \"#utility.yul\":11410:11428   */\n      add\n        /* \"#utility.yul\":11402:11428   */\n      swap1\n      pop\n        /* \"#utility.yul\":11474:11483   */\n      dup2\n        /* \"#utility.yul\":11468:11472   */\n      dup2\n        /* \"#utility.yul\":11464:11484   */\n      sub\n        /* \"#utility.yul\":11460:11461   */\n      0x00\n        /* \"#utility.yul\":11449:11458   */\n      dup4\n        /* \"#utility.yul\":11445:11462   */\n      add\n        /* \"#utility.yul\":11438:11485   */\n      mstore\n        /* \"#utility.yul\":11502:11580   */\n      tag_350\n        /* \"#utility.yul\":11575:11579   */\n      dup2\n        /* \"#utility.yul\":11566:11572   */\n      dup5\n        /* \"#utility.yul\":11502:11580   */\n      tag_218\n      jump\t// in\n    tag_350:\n        /* \"#utility.yul\":11494:11580   */\n      swap1\n      pop\n        /* \"#utility.yul\":11274:11587   */\n      swap3\n      swap2\n      pop\n      pop\n      jump\t// out\n        /* \"#utility.yul\":11593:11914   */\n    tag_219:\n        /* \"#utility.yul\":11680:11684   */\n      0x00\n        /* \"#utility.yul\":11770:11788   */\n      0xffffffffffffffff\n        /* \"#utility.yul\":11762:11768   */\n      dup3\n        /* \"#utility.yul\":11759:11789   */\n      gt\n        /* \"#utility.yul\":11756:11812   */\n      iszero\n      tag_352\n      jumpi\n        /* \"#utility.yul\":11792:11810   */\n      tag_353\n      tag_210\n      jump\t// in\n    tag_353:\n        /* \"#utility.yul\":11756:11812   */\n    tag_352:\n        /* \"#utility.yul\":11842:11846   */\n      0x20\n        /* \"#utility.yul\":11834:11840   */\n      dup3\n        /* \"#utility.yul\":11830:11847   */\n      mul\n        /* \"#utility.yul\":11822:11847   */\n      swap1\n      pop\n        /* \"#utility.yul\":11902:11906   */\n      0x20\n        /* \"#utility.yul\":11896:11900   */\n      dup2\n        /* \"#utility.yul\":11892:11907   */\n      add\n        /* \"#utility.yul\":11884:11907   */\n      swap1\n      pop\n        /* \"#utility.yul\":11593:11914   */\n      swap2\n      swap1\n      pop\n      jump\t// out\n        /* \"#utility.yul\":11920:12037   */\n    tag_220:\n        /* \"#utility.yul\":12029:12030   */\n      0x00\n        /* \"#utility.yul\":12026:12027   */\n      dup1\n        /* \"#utility.yul\":12019:12031   */\n      revert\n        /* \"#utility.yul\":12059:13004   */\n    tag_221:\n        /* \"#utility.yul\":12165:12170   */\n      0x00\n        /* \"#utility.yul\":12190:12281   */\n      tag_356\n        /* \"#utility.yul\":12206:12280   */\n      tag_357\n        /* \"#utility.yul\":12273:12279   */\n      dup5\n        /* \"#utility.yul\":12206:12280   */\n      tag_219\n      jump\t// in\n    tag_357:\n        /* \"#utility.yul\":12190:12281   */\n      tag_212\n      jump\t// in\n    tag_356:\n        /* \"#utility.yul\":12181:12281   */\n      swap1\n      pop\n        /* \"#utility.yul\":12301:12306   */\n      dup1\n        /* \"#utility.yul\":12330:12336   */\n      dup4\n        /* \"#utility.yul\":12323:12328   */\n      dup3\n        /* \"#utility.yul\":12316:12337   */\n      mstore\n        /* \"#utility.yul\":12364:12368   */\n      0x20\n        /* \"#utility.yul\":12357:12362   */\n      dup3\n        /* \"#utility.yul\":12353:12369   */\n      add\n        /* \"#utility.yul\":12346:12369   */\n      swap1\n      pop\n        /* \"#utility.yul\":12417:12421   */\n      0x20\n        /* \"#utility.yul\":12409:12415   */\n      dup5\n        /* \"#utility.yul\":12405:12422   */\n      mul\n        /* \"#utility.yul\":12397:12403   */\n      dup4\n        /* \"#utility.yul\":12393:12423   */\n      add\n        /* \"#utility.yul\":12446:12449   */\n      dup6\n        /* \"#utility.yul\":12438:12444   */\n      dup2\n        /* \"#utility.yul\":12435:12450   */\n      gt\n        /* \"#utility.yul\":12432:12554   */\n      iszero\n      tag_358\n      jumpi\n        /* \"#utility.yul\":12465:12544   */\n      tag_359\n      tag_220\n      jump\t// in\n    tag_359:\n        /* \"#utility.yul\":12432:12554   */\n    tag_358:\n        /* \"#utility.yul\":12580:12586   */\n      dup4\n        /* \"#utility.yul\":12563:12998   */\n    tag_360:\n        /* \"#utility.yul\":12597:12603   */\n      dup2\n        /* \"#utility.yul\":12592:12595   */\n      dup2\n        /* \"#utility.yul\":12589:12604   */\n      lt\n        /* \"#utility.yul\":12563:12998   */\n      iszero\n      tag_362\n      jumpi\n        /* \"#utility.yul\":12686:12689   */\n      dup1\n        /* \"#utility.yul\":12673:12690   */\n      calldataload\n        /* \"#utility.yul\":12722:12740   */\n      0xffffffffffffffff\n        /* \"#utility.yul\":12709:12720   */\n      dup2\n        /* \"#utility.yul\":12706:12741   */\n      gt\n        /* \"#utility.yul\":12703:12825   */\n      iszero\n      tag_363\n      jumpi\n        /* \"#utility.yul\":12744:12823   */\n      tag_364\n      tag_208\n      jump\t// in\n    tag_364:\n        /* \"#utility.yul\":12703:12825   */\n    tag_363:\n        /* \"#utility.yul\":12868:12879   */\n      dup1\n        /* \"#utility.yul\":12860:12866   */\n      dup7\n        /* \"#utility.yul\":12856:12880   */\n      add\n        /* \"#utility.yul\":12906:12953   */\n      tag_365\n        /* \"#utility.yul\":12949:12952   */\n      dup10\n        /* \"#utility.yul\":12937:12947   */\n      dup3\n        /* \"#utility.yul\":12906:12953   */\n      tag_216\n      jump\t// in\n    tag_365:\n        /* \"#utility.yul\":12901:12904   */\n      dup6\n        /* \"#utility.yul\":12894:12954   */\n      mstore\n        /* \"#utility.yul\":12983:12987   */\n      0x20\n        /* \"#utility.yul\":12978:12981   */\n      dup6\n        /* \"#utility.yul\":12974:12988   */\n      add\n        /* \"#utility.yul\":12967:12988   */\n      swap5\n      pop\n        /* \"#utility.yul\":12639:12998   */\n      pop\n      pop\n        /* \"#utility.yul\":12623:12627   */\n      0x20\n        /* \"#utility.yul\":12618:12621   */\n      dup2\n        /* \"#utility.yul\":12614:12628   */\n      add\n        /* \"#utility.yul\":12607:12628   */\n      swap1\n      pop\n        /* \"#utility.yul\":12563:12998   */\n      jump(tag_360)\n    tag_362:\n        /* \"#utility.yul\":12567:12588   */\n      pop\n        /* \"#utility.yul\":12171:13004   */\n      pop\n      pop\n        /* \"#utility.yul\":12059:13004   */\n      swap4\n      swap3\n      pop\n      pop\n      pop\n      jump\t// out\n        /* \"#utility.yul\":13026:13416   */\n    tag_222:\n        /* \"#utility.yul\":13107:13112   */\n      0x00\n        /* \"#utility.yul\":13156:13159   */\n      dup3\n        /* \"#utility.yul\":13149:13153   */\n      0x1f\n        /* \"#utility.yul\":13141:13147   */\n      dup4\n        /* \"#utility.yul\":13137:13154   */\n      add\n        /* \"#utility.yul\":13133:13160   */\n      slt\n        /* \"#utility.yul\":13123:13245   */\n      tag_367\n      jumpi\n        /* \"#utility.yul\":13164:13243   */\n      tag_368\n      tag_208\n      jump\t// in\n    tag_368:\n        /* \"#utility.yul\":13123:13245   */\n    tag_367:\n        /* \"#utility.yul\":13281:13287   */\n      dup2\n        /* \"#utility.yul\":13268:13288   */\n      calldataload\n        /* \"#utility.yul\":13306:13410   */\n      tag_369\n        /* \"#utility.yul\":13406:13409   */\n      dup5\n        /* \"#utility.yul\":13398:13404   */\n      dup3\n        /* \"#utility.yul\":13391:13395   */\n      0x20\n        /* \"#utility.yul\":13383:13389   */\n      dup7\n        /* \"#utility.yul\":13379:13396   */\n      add\n        /* \"#utility.yul\":13306:13410   */\n      tag_221\n      jump\t// in\n    tag_369:\n        /* \"#utility.yul\":13297:13410   */\n      swap2\n      pop\n        /* \"#utility.yul\":13113:13416   */\n      pop\n        /* \"#utility.yul\":13026:13416   */\n      swap3\n      swap2\n      pop\n      pop\n      jump\t// out\n        /* \"#utility.yul\":13422:14451   */\n    tag_40:\n        /* \"#utility.yul\":13544:13550   */\n      0x00\n        /* \"#utility.yul\":13552:13558   */\n      dup1\n        /* \"#utility.yul\":13560:13566   */\n      0x00\n        /* \"#utility.yul\":13609:13611   */\n      0x60\n        /* \"#utility.yul\":13597:13606   */\n      dup5\n        /* \"#utility.yul\":13588:13595   */\n      dup7\n        /* \"#utility.yul\":13584:13607   */\n      sub\n        /* \"#utility.yul\":13580:13612   */\n      slt\n        /* \"#utility.yul\":13577:13696   */\n      iszero\n      tag_371\n      jumpi\n        /* \"#utility.yul\":13615:13694   */\n      tag_372\n      tag_183\n      jump\t// in\n    tag_372:\n        /* \"#utility.yul\":13577:13696   */\n    tag_371:\n        /* \"#utility.yul\":13763:13764   */\n      0x00\n        /* \"#utility.yul\":13752:13761   */\n      dup5\n        /* \"#utility.yul\":13748:13765   */\n      add\n        /* \"#utility.yul\":13735:13766   */\n      calldataload\n        /* \"#utility.yul\":13793:13811   */\n      0xffffffffffffffff\n        /* \"#utility.yul\":13785:13791   */\n      dup2\n        /* \"#utility.yul\":13782:13812   */\n      gt\n        /* \"#utility.yul\":13779:13896   */\n      iszero\n      tag_373\n      jumpi\n        /* \"#utility.yul\":13815:13894   */\n      tag_374\n      tag_184\n      jump\t// in\n    tag_374:\n        /* \"#utility.yul\":13779:13896   */\n    tag_373:\n        /* \"#utility.yul\":13920:13983   */\n      tag_375\n        /* \"#utility.yul\":13975:13982   */\n      dup7\n        /* \"#utility.yul\":13966:13972   */\n      dup3\n        /* \"#utility.yul\":13955:13964   */\n      dup8\n        /* \"#utility.yul\":13951:13973   */\n      add\n        /* \"#utility.yul\":13920:13983   */\n      tag_216\n      jump\t// in\n    tag_375:\n        /* \"#utility.yul\":13910:13983   */\n      swap4\n      pop\n        /* \"#utility.yul\":13706:13993   */\n      pop\n        /* \"#utility.yul\":14032:14034   */\n      0x20\n        /* \"#utility.yul\":14058:14111   */\n      tag_376\n        /* \"#utility.yul\":14103:14110   */\n      dup7\n        /* \"#utility.yul\":14094:14100   */\n      dup3\n        /* \"#utility.yul\":14083:14092   */\n      dup8\n        /* \"#utility.yul\":14079:14101   */\n      add\n        /* \"#utility.yul\":14058:14111   */\n      tag_187\n      jump\t// in\n    tag_376:\n        /* \"#utility.yul\":14048:14111   */\n      swap3\n      pop\n        /* \"#utility.yul\":14003:14121   */\n      pop\n        /* \"#utility.yul\":14188:14190   */\n      0x40\n        /* \"#utility.yul\":14177:14186   */\n      dup5\n        /* \"#utility.yul\":14173:14191   */\n      add\n        /* \"#utility.yul\":14160:14192   */\n      calldataload\n        /* \"#utility.yul\":14219:14237   */\n      0xffffffffffffffff\n        /* \"#utility.yul\":14211:14217   */\n      dup2\n        /* \"#utility.yul\":14208:14238   */\n      gt\n        /* \"#utility.yul\":14205:14322   */\n      iszero\n      tag_377\n      jumpi\n        /* \"#utility.yul\":14241:14320   */\n      tag_378\n      tag_184\n      jump\t// in\n    tag_378:\n        /* \"#utility.yul\":14205:14322   */\n    tag_377:\n        /* \"#utility.yul\":14346:14434   */\n      tag_379\n        /* \"#utility.yul\":14426:14433   */\n      dup7\n        /* \"#utility.yul\":14417:14423   */\n      dup3\n        /* \"#utility.yul\":14406:14415   */\n      dup8\n        /* \"#utility.yul\":14402:14424   */\n      add\n        /* \"#utility.yul\":14346:14434   */\n      tag_222\n      jump\t// in\n    tag_379:\n        /* \"#utility.yul\":14336:14434   */\n      swap2\n      pop\n        /* \"#utility.yul\":14131:14444   */\n      pop\n        /* \"#utility.yul\":13422:14451   */\n      swap3\n      pop\n      swap3\n      pop\n      swap3\n      jump\t// out\n        /* \"#utility.yul\":14457:14547   */\n    tag_223:\n        /* \"#utility.yul\":14491:14498   */\n      0x00\n        /* \"#utility.yul\":14534:14539   */\n      dup2\n        /* \"#utility.yul\":14527:14540   */\n      iszero\n        /* \"#utility.yul\":14520:14541   */\n      iszero\n        /* \"#utility.yul\":14509:14541   */\n      swap1\n      pop\n        /* \"#utility.yul\":14457:14547   */\n      swap2\n      swap1\n      pop\n      jump\t// out\n        /* \"#utility.yul\":14553:14662   */\n    tag_224:\n        /* \"#utility.yul\":14634:14655   */\n      tag_382\n        /* \"#utility.yul\":14649:14654   */\n      dup2\n        /* \"#utility.yul\":14634:14655   */\n      tag_223\n      jump\t// in\n    tag_382:\n        /* \"#utility.yul\":14629:14632   */\n      dup3\n        /* \"#utility.yul\":14622:14656   */\n      mstore\n        /* \"#utility.yul\":14553:14662   */\n      pop\n      pop\n      jump\t// out\n        /* \"#utility.yul\":14668:14878   */\n    tag_49:\n        /* \"#utility.yul\":14755:14759   */\n      0x00\n        /* \"#utility.yul\":14793:14795   */\n      0x20\n        /* \"#utility.yul\":14782:14791   */\n      dup3\n        /* \"#utility.yul\":14778:14796   */\n      add\n        /* \"#utility.yul\":14770:14796   */\n      swap1\n      pop\n        /* \"#utility.yul\":14806:14871   */\n      tag_384\n        /* \"#utility.yul\":14868:14869   */\n      0x00\n        /* \"#utility.yul\":14857:14866   */\n      dup4\n        /* \"#utility.yul\":14853:14870   */\n      add\n        /* \"#utility.yul\":14844:14850   */\n      dup5\n        /* \"#utility.yul\":14806:14871   */\n      tag_224\n      jump\t// in\n    tag_384:\n        /* \"#utility.yul\":14668:14878   */\n      swap3\n      swap2\n      pop\n      pop\n      jump\t// out\n        /* \"#utility.yul\":14884:15064   */\n    tag_225:\n        /* \"#utility.yul\":14932:15009   */\n      0x4e487b7100000000000000000000000000000000000000000000000000000000\n        /* \"#utility.yul\":14929:14930   */\n      0x00\n        /* \"#utility.yul\":14922:15010   */\n      mstore\n        /* \"#utility.yul\":15029:15033   */\n      0x22\n        /* \"#utility.yul\":15026:15027   */\n      0x04\n        /* \"#utility.yul\":15019:15034   */\n      mstore\n        /* \"#utility.yul\":15053:15057   */\n      0x24\n        /* \"#utility.yul\":15050:15051   */\n      0x00\n        /* \"#utility.yul\":15043:15058   */\n      revert\n        /* \"#utility.yul\":15070:15390   */\n    tag_62:\n        /* \"#utility.yul\":15114:15120   */\n      0x00\n        /* \"#utility.yul\":15151:15152   */\n      0x02\n        /* \"#utility.yul\":15145:15149   */\n      dup3\n        /* \"#utility.yul\":15141:15153   */\n      div\n        /* \"#utility.yul\":15131:15153   */\n      swap1\n      pop\n        /* \"#utility.yul\":15198:15199   */\n      0x01\n        /* \"#utility.yul\":15192:15196   */\n      dup3\n        /* \"#utility.yul\":15188:15200   */\n      and\n        /* \"#utility.yul\":15219:15237   */\n      dup1\n        /* \"#utility.yul\":15209:15290   */\n      tag_387\n      jumpi\n        /* \"#utility.yul\":15275:15279   */\n      0x7f\n        /* \"#utility.yul\":15267:15273   */\n      dup3\n        /* \"#utility.yul\":15263:15280   */\n      and\n        /* \"#utility.yul\":15253:15280   */\n      swap2\n      pop\n        /* \"#utility.yul\":15209:15290   */\n    tag_387:\n        /* \"#utility.yul\":15337:15339   */\n      0x20\n        /* \"#utility.yul\":15329:15335   */\n      dup3\n        /* \"#utility.yul\":15326:15340   */\n      lt\n        /* \"#utility.yul\":15306:15324   */\n      dup2\n        /* \"#utility.yul\":15303:15341   */\n      sub\n        /* \"#utility.yul\":15300:15384   */\n      tag_388\n      jumpi\n        /* \"#utility.yul\":15356:15374   */\n      tag_389\n      tag_225\n      jump\t// in\n    tag_389:\n        /* \"#utility.yul\":15300:15384   */\n    tag_388:\n        /* \"#utility.yul\":15121:15390   */\n      pop\n        /* \"#utility.yul\":15070:15390   */\n      swap2\n      swap1\n      pop\n      jump\t// out\n        /* \"#utility.yul\":15396:15544   */\n    tag_226:\n        /* \"#utility.yul\":15498:15509   */\n      0x00\n        /* \"#utility.yul\":15535:15538   */\n      dup2\n        /* \"#utility.yul\":15520:15538   */\n      swap1\n      pop\n        /* \"#utility.yul\":15396:15544   */\n      swap3\n      swap2\n      pop\n      pop\n      jump\t// out\n        /* \"#utility.yul\":15550:15940   */\n    tag_227:\n        /* \"#utility.yul\":15656:15659   */\n      0x00\n        /* \"#utility.yul\":15684:15723   */\n      tag_392\n        /* \"#utility.yul\":15717:15722   */\n      dup3\n        /* \"#utility.yul\":15684:15723   */\n      tag_192\n      jump\t// in\n    tag_392:\n        /* \"#utility.yul\":15739:15828   */\n      tag_393\n        /* \"#utility.yul\":15821:15827   */\n      dup2\n        /* \"#utility.yul\":15816:15819   */\n      dup6\n        /* \"#utility.yul\":15739:15828   */\n      tag_226\n      jump\t// in\n    tag_393:\n        /* \"#utility.yul\":15732:15828   */\n      swap4\n      pop\n        /* \"#utility.yul\":15837:15902   */\n      tag_394\n        /* \"#utility.yul\":15895:15901   */\n      dup2\n        /* \"#utility.yul\":15890:15893   */\n      dup6\n        /* \"#utility.yul\":15883:15887   */\n      0x20\n        /* \"#utility.yul\":15876:15881   */\n      dup7\n        /* \"#utility.yul\":15872:15888   */\n      add\n        /* \"#utility.yul\":15837:15902   */\n      tag_194\n      jump\t// in\n    tag_394:\n        /* \"#utility.yul\":15927:15933   */\n      dup1\n        /* \"#utility.yul\":15922:15925   */\n      dup5\n        /* \"#utility.yul\":15918:15934   */\n      add\n        /* \"#utility.yul\":15911:15934   */\n      swap2\n      pop\n        /* \"#utility.yul\":15660:15940   */\n      pop\n        /* \"#utility.yul\":15550:15940   */\n      swap3\n      swap2\n      pop\n      pop\n      jump\t// out\n        /* \"#utility.yul\":15946:16221   */\n    tag_82:\n        /* \"#utility.yul\":16078:16081   */\n      0x00\n        /* \"#utility.yul\":16100:16195   */\n      tag_396\n        /* \"#utility.yul\":16191:16194   */\n      dup3\n        /* \"#utility.yul\":16182:16188   */\n      dup5\n        /* \"#utility.yul\":16100:16195   */\n      tag_227\n      jump\t// in\n    tag_396:\n        /* \"#utility.yul\":16093:16195   */\n      swap2\n      pop\n        /* \"#utility.yul\":16212:16215   */\n      dup2\n        /* \"#utility.yul\":16205:16215   */\n      swap1\n      pop\n        /* \"#utility.yul\":15946:16221   */\n      swap3\n      swap2\n      pop\n      pop\n      jump\t// out\n        /* \"#utility.yul\":16227:16407   */\n    tag_228:\n        /* \"#utility.yul\":16275:16352   */\n      0x4e487b7100000000000000000000000000000000000000000000000000000000\n        /* \"#utility.yul\":16272:16273   */\n      0x00\n        /* \"#utility.yul\":16265:16353   */\n      mstore\n        /* \"#utility.yul\":16372:16376   */\n      0x11\n        /* \"#utility.yul\":16369:16370   */\n      0x04\n        /* \"#utility.yul\":16362:16377   */\n      mstore\n        /* \"#utility.yul\":16396:16400   */\n      0x24\n        /* \"#utility.yul\":16393:16394   */\n      0x00\n        /* \"#utility.yul\":16386:16401   */\n      revert\n        /* \"#utility.yul\":16413:16604   */\n    tag_120:\n        /* \"#utility.yul\":16453:16456   */\n      0x00\n        /* \"#utility.yul\":16472:16492   */\n      tag_399\n        /* \"#utility.yul\":16490:16491   */\n      dup3\n        /* \"#utility.yul\":16472:16492   */\n      tag_185\n      jump\t// in\n    tag_399:\n        /* \"#utility.yul\":16467:16492   */\n      swap2\n      pop\n        /* \"#utility.yul\":16506:16526   */\n      tag_400\n        /* \"#utility.yul\":16524:16525   */\n      dup4\n        /* \"#utility.yul\":16506:16526   */\n      tag_185\n      jump\t// in\n    tag_400:\n        /* \"#utility.yul\":16501:16526   */\n      swap3\n      pop\n        /* \"#utility.yul\":16549:16550   */\n      dup3\n        /* \"#utility.yul\":16546:16547   */\n      dup3\n        /* \"#utility.yul\":16542:16551   */\n      add\n        /* \"#utility.yul\":16535:16551   */\n      swap1\n      pop\n        /* \"#utility.yul\":16570:16573   */\n      dup1\n        /* \"#utility.yul\":16567:16568   */\n      dup3\n        /* \"#utility.yul\":16564:16574   */\n      gt\n        /* \"#utility.yul\":16561:16597   */\n      iszero\n      tag_401\n      jumpi\n        /* \"#utility.yul\":16577:16595   */\n      tag_402\n      tag_228\n      jump\t// in\n    tag_402:\n        /* \"#utility.yul\":16561:16597   */\n    tag_401:\n        /* \"#utility.yul\":16413:16604   */\n      swap3\n      swap2\n      pop\n      pop\n      jump\t// out\n        /* \"#utility.yul\":16610:16751   */\n    tag_229:\n        /* \"#utility.yul\":16659:16663   */\n      0x00\n        /* \"#utility.yul\":16682:16685   */\n      dup2\n        /* \"#utility.yul\":16674:16685   */\n      swap1\n      pop\n        /* \"#utility.yul\":16705:16708   */\n      dup2\n        /* \"#utility.yul\":16702:16703   */\n      0x00\n        /* \"#utility.yul\":16695:16709   */\n      mstore\n        /* \"#utility.yul\":16739:16743   */\n      0x20\n        /* \"#utility.yul\":16736:16737   */\n      0x00\n        /* \"#utility.yul\":16726:16744   */\n      keccak256\n        /* \"#utility.yul\":16718:16744   */\n      swap1\n      pop\n        /* \"#utility.yul\":16610:16751   */\n      swap2\n      swap1\n      pop\n      jump\t// out\n        /* \"#utility.yul\":16757:16850   */\n    tag_230:\n        /* \"#utility.yul\":16794:16800   */\n      0x00\n        /* \"#utility.yul\":16841:16843   */\n      0x20\n        /* \"#utility.yul\":16836:16838   */\n      0x1f\n        /* \"#utility.yul\":16829:16834   */\n      dup4\n        /* \"#utility.yul\":16825:16839   */\n      add\n        /* \"#utility.yul\":16821:16844   */\n      div\n        /* \"#utility.yul\":16811:16844   */\n      swap1\n      pop\n        /* \"#utility.yul\":16757:16850   */\n      swap2\n      swap1\n      pop\n      jump\t// out\n        /* \"#utility.yul\":16856:16963   */\n    tag_231:\n        /* \"#utility.yul\":16900:16908   */\n      0x00\n        /* \"#utility.yul\":16950:16955   */\n      dup3\n        /* \"#utility.yul\":16944:16948   */\n      dup3\n        /* \"#utility.yul\":16940:16956   */\n      shl\n        /* \"#utility.yul\":16919:16956   */\n      swap1\n      pop\n        /* \"#utility.yul\":16856:16963   */\n      swap3\n      swap2\n      pop\n      pop\n      jump\t// out\n        /* \"#utility.yul\":16969:17362   */\n    tag_232:\n        /* \"#utility.yul\":17038:17044   */\n      0x00\n        /* \"#utility.yul\":17088:17089   */\n      0x08\n        /* \"#utility.yul\":17076:17086   */\n      dup4\n        /* \"#utility.yul\":17072:17090   */\n      mul\n        /* \"#utility.yul\":17111:17208   */\n      tag_407\n        /* \"#utility.yul\":17141:17207   */\n      0xffffffffffffffffffffffffffffffffffffffffffffffffffffffffffffffff\n        /* \"#utility.yul\":17130:17139   */\n      dup3\n        /* \"#utility.yul\":17111:17208   */\n      tag_231\n      jump\t// in\n    tag_407:\n        /* \"#utility.yul\":17229:17268   */\n      tag_408\n        /* \"#utility.yul\":17259:17267   */\n      dup7\n        /* \"#utility.yul\":17248:17257   */\n      dup4\n        /* \"#utility.yul\":17229:17268   */\n      tag_231\n      jump\t// in\n    tag_408:\n        /* \"#utility.yul\":17217:17268   */\n      swap6\n      pop\n        /* \"#utility.yul\":17301:17305   */\n      dup1\n        /* \"#utility.yul\":17297:17306   */\n      not\n        /* \"#utility.yul\":17290:17295   */\n      dup5\n        /* \"#utility.yul\":17286:17307   */\n      and\n        /* \"#utility.yul\":17277:17307   */\n      swap4\n      pop\n        /* \"#utility.yul\":17350:17354   */\n      dup1\n        /* \"#utility.yul\":17340:17348   */\n      dup7\n        /* \"#utility.yul\":17336:17355   */\n      and\n        /* \"#utility.yul\":17329:17334   */\n      dup5\n        /* \"#utility.yul\":17326:17356   */\n      or\n        /* \"#utility.yul\":17316:17356   */\n      swap3\n      pop\n        /* \"#utility.yul\":17045:17362   */\n      pop\n      pop\n        /* \"#utility.yul\":16969:17362   */\n      swap4\n      swap3\n      pop\n      pop\n      pop\n      jump\t// out\n        /* \"#utility.yul\":17368:17428   */\n    tag_233:\n        /* \"#utility.yul\":17396:17399   */\n      0x00\n        /* \"#utility.yul\":17417:17422   */\n      dup2\n        /* \"#utility.yul\":17410:17422   */\n      swap1\n      pop\n        /* \"#utility.yul\":17368:17428   */\n      swap2\n      swap1\n      pop\n      jump\t// out\n        /* \"#utility.yul\":17434:17576   */\n    tag_234:\n        /* \"#utility.yul\":17484:17493   */\n      0x00\n        /* \"#utility.yul\":17517:17570   */\n      tag_411\n        /* \"#utility.yul\":17535:17569   */\n      tag_412\n        /* \"#utility.yul\":17544:17568   */\n      tag_413\n        /* \"#utility.yul\":17562:17567   */\n      dup5\n        /* \"#utility.yul\":17544:17568   */\n      tag_185\n      jump\t// in\n    tag_413:\n        /* \"#utility.yul\":17535:17569   */\n      tag_233\n      jump\t// in\n    tag_412:\n        /* \"#utility.yul\":17517:17570   */\n      tag_185\n      jump\t// in\n    tag_411:\n        /* \"#utility.yul\":17504:17570   */\n      swap1\n      pop\n        /* \"#utility.yul\":17434:17576   */\n      swap2\n      swap1\n      pop\n      jump\t// out\n        /* \"#utility.yul\":17582:17657   */\n    tag_235:\n        /* \"#utility.yul\":17625:17628   */\n      0x00\n        /* \"#utility.yul\":17646:17651   */\n      dup2\n        /* \"#utility.yul\":17639:17651   */\n      swap1\n      pop\n        /* \"#utility.yul\":17582:17657   */\n      swap2\n      swap1\n      pop\n      jump\t// out\n        /* \"#utility.yul\":17663:17932   */\n    tag_236:\n        /* \"#utility.yul\":17773:17812   */\n      tag_416\n        /* \"#utility.yul\":17804:17811   */\n      dup4\n        /* \"#utility.yul\":17773:17812   */\n      tag_234\n      jump\t// in\n    tag_416:\n        /* \"#utility.yul\":17834:17925   */\n      tag_417\n        /* \"#utility.yul\":17883:17924   */\n      tag_418\n        /* \"#utility.yul\":17907:17923   */\n      dup3\n        /* \"#utility.yul\":17883:17924   */\n      tag_235\n      jump\t// in\n    tag_418:\n        /* \"#utility.yul\":17875:17881   */\n      dup5\n        /* \"#utility.yul\":17868:17872   */\n      dup5\n        /* \"#utility.yul\":17862:17873   */\n      sload\n        /* \"#utility.yul\":17834:17925   */\n      tag_232\n      jump\t// in\n    tag_417:\n        /* \"#utility.yul\":17828:17832   */\n      dup3\n        /* \"#utility.yul\":17821:17926   */\n      sstore\n        /* \"#utility.yul\":17739:17932   */\n      pop\n        /* \"#utility.yul\":17663:17932   */\n      pop\n      pop\n      pop\n      jump\t// out\n        /* \"#utility.yul\":17938:18011   */\n    tag_237:\n        /* \"#utility.yul\":17983:17986   */\n      0x00\n        /* \"#utility.yul\":17938:18011   */\n      swap1\n      jump\t// out\n        /* \"#utility.yul\":18017:18206   */\n    tag_238:\n        /* \"#utility.yul\":18094:18126   */\n      tag_421\n      tag_237\n      jump\t// in\n    tag_421:\n        /* \"#utility.yul\":18135:18200   */\n      tag_422\n        /* \"#utility.yul\":18193:18199   */\n      dup2\n        /* \"#utility.yul\":18185:18191   */\n      dup5\n        /* \"#utility.yul\":18179:18183   */\n      dup5\n        /* \"#utility.yul\":18135:18200   */\n      tag_236\n      jump\t// in\n    tag_422:\n        /* \"#utility.yul\":18070:18206   */\n      pop\n        /* \"#utility.yul\":18017:18206   */\n      pop\n      pop\n      jump\t// out\n        /* \"#utility.yul\":18212:18398   */\n    tag_239:\n        /* \"#utility.yul\":18272:18392   */\n    tag_424:\n        /* \"#utility.yul\":18289:18292   */\n      dup2\n        /* \"#utility.yul\":18282:18287   */\n      dup2\n        /* \"#utility.yul\":18279:18293   */\n      lt\n        /* \"#utility.yul\":18272:18392   */\n      iszero\n      tag_426\n      jumpi\n        /* \"#utility.yul\":18343:18382   */\n      tag_427\n        /* \"#utility.yul\":18380:18381   */\n      0x00\n        /* \"#utility.yul\":18373:18378   */\n      dup3\n        /* \"#utility.yul\":18343:18382   */\n      tag_238\n      jump\t// in\n    tag_427:\n        /* \"#utility.yul\":18316:18317   */\n      0x01\n        /* \"#utility.yul\":18309:18314   */\n      dup2\n        /* \"#utility.yul\":18305:18318   */\n      add\n        /* \"#utility.yul\":18296:18318   */\n      swap1\n      pop\n        /* \"#utility.yul\":18272:18392   */\n      jump(tag_424)\n    tag_426:\n        /* \"#utility.yul\":18212:18398   */\n      pop\n      pop\n      jump\t// out\n        /* \"#utility.yul\":18404:18947   */\n    tag_240:\n        /* \"#utility.yul\":18505:18507   */\n      0x1f\n        /* \"#utility.yul\":18500:18503   */\n      dup3\n        /* \"#utility.yul\":18497:18508   */\n      gt\n        /* \"#utility.yul\":18494:18940   */\n      iszero\n      tag_429\n      jumpi\n        /* \"#utility.yul\":18539:18577   */\n      tag_430\n        /* \"#utility.yul\":18571:18576   */\n      dup2\n        /* \"#utility.yul\":18539:18577   */\n      tag_229\n      jump\t// in\n    tag_430:\n        /* \"#utility.yul\":18623:18652   */\n      tag_431\n        /* \"#utility.yul\":18641:18651   */\n      dup5\n        /* \"#utility.yul\":18623:18652   */\n      tag_230\n      jump\t// in\n    tag_431:\n        /* \"#utility.yul\":18613:18621   */\n      dup2\n        /* \"#utility.yul\":18609:18653   */\n      add\n        /* \"#utility.yul\":18806:18808   */\n      0x20\n        /* \"#utility.yul\":18794:18804   */\n      dup6\n        /* \"#utility.yul\":18791:18809   */\n      lt\n        /* \"#utility.yul\":18788:18837   */\n      iszero\n      tag_432\n      jumpi\n        /* \"#utility.yul\":18827:18835   */\n      dup2\n        /* \"#utility.yul\":18812:18835   */\n      swap1\n      pop\n        /* \"#utility.yul\":18788:18837   */\n    tag_432:\n        /* \"#utility.yul\":18850:18930   */\n      tag_433\n        /* \"#utility.yul\":18906:18928   */\n      tag_434\n        /* \"#utility.yul\":18924:18927   */\n      dup6\n        /* \"#utility.yul\":18906:18928   */\n      tag_230\n      jump\t// in\n    tag_434:\n        /* \"#utility.yul\":18896:18904   */\n      dup4\n        /* \"#utility.yul\":18892:18929   */\n      add\n        /* \"#utility.yul\":18879:18890   */\n      dup3\n        /* \"#utility.yul\":18850:18930   */\n      tag_239\n      jump\t// in\n    tag_433:\n        /* \"#utility.yul\":18509:18940   */\n      pop\n      pop\n        /* \"#utility.yul\":18494:18940   */\n    tag_429:\n        /* \"#utility.yul\":18404:18947   */\n      pop\n      pop\n      pop\n      jump\t// out\n        /* \"#utility.yul\":18953:19070   */\n    tag_241:\n        /* \"#utility.yul\":19007:19015   */\n      0x00\n        /* \"#utility.yul\":19057:19062   */\n      dup3\n        /* \"#utility.yul\":19051:19055   */\n      dup3\n        /* \"#utility.yul\":19047:19063   */\n      shr\n        /* \"#utility.yul\":19026:19063   */\n      swap1\n      pop\n        /* \"#utility.yul\":18953:19070   */\n      swap3\n      swap2\n      pop\n      pop\n      jump\t// out\n        /* \"#utility.yul\":19076:19245   */\n    tag_242:\n        /* \"#utility.yul\":19120:19126   */\n      0x00\n        /* \"#utility.yul\":19153:19204   */\n      tag_437\n        /* \"#utility.yul\":19201:19202   */\n      0x00\n        /* \"#utility.yul\":19197:19203   */\n      not\n        /* \"#utility.yul\":19189:19194   */\n      dup5\n        /* \"#utility.yul\":19186:19187   */\n      0x08\n        /* \"#utility.yul\":19182:19195   */\n      mul\n        /* \"#utility.yul\":19153:19204   */\n      tag_241\n      jump\t// in\n    tag_437:\n        /* \"#utility.yul\":19149:19205   */\n      not\n        /* \"#utility.yul\":19234:19238   */\n      dup1\n        /* \"#utility.yul\":19228:19232   */\n      dup4\n        /* \"#utility.yul\":19224:19239   */\n      and\n        /* \"#utility.yul\":19214:19239   */\n      swap2\n      pop\n        /* \"#utility.yul\":19127:19245   */\n      pop\n        /* \"#utility.yul\":19076:19245   */\n      swap3\n      swap2\n      pop\n      pop\n      jump\t// out\n        /* \"#utility.yul\":19250:19545   */\n    tag_243:\n        /* \"#utility.yul\":19326:19330   */\n      0x00\n        /* \"#utility.yul\":19472:19501   */\n      tag_439\n        /* \"#utility.yul\":19497:19500   */\n      dup4\n        /* \"#utility.yul\":19491:19495   */\n      dup4\n        /* \"#utility.yul\":19472:19501   */\n      tag_242\n      jump\t// in\n    tag_439:\n        /* \"#utility.yul\":19464:19501   */\n      swap2\n      pop\n        /* \"#utility.yul\":19534:19537   */\n      dup3\n        /* \"#utility.yul\":19531:19532   */\n      0x02\n        /* \"#utility.yul\":19527:19538   */\n      mul\n        /* \"#utility.yul\":19521:19525   */\n      dup3\n        /* \"#utility.yul\":19518:19539   */\n      or\n        /* \"#utility.yul\":19510:19539   */\n      swap1\n      pop\n        /* \"#utility.yul\":19250:19545   */\n      swap3\n      swap2\n      pop\n      pop\n      jump\t// out\n        /* \"#utility.yul\":19550:20945   */\n    tag_124:\n        /* \"#utility.yul\":19667:19704   */\n      tag_441\n        /* \"#utility.yul\":19700:19703   */\n      dup3\n        /* \"#utility.yul\":19667:19704   */\n      tag_192\n      jump\t// in\n    tag_441:\n        /* \"#utility.yul\":19769:19787   */\n      0xffffffffffffffff\n        /* \"#utility.yul\":19761:19767   */\n      dup2\n        /* \"#utility.yul\":19758:19788   */\n      gt\n        /* \"#utility.yul\":19755:19811   */\n      iszero\n      tag_442\n      jumpi\n        /* \"#utility.yul\":19791:19809   */\n      tag_443\n      tag_210\n      jump\t// in\n    tag_443:\n        /* \"#utility.yul\":19755:19811   */\n    tag_442:\n        /* \"#utility.yul\":19835:19873   */\n      tag_444\n        /* \"#utility.yul\":19867:19871   */\n      dup3\n        /* \"#utility.yul\":19861:19872   */\n      sload\n        /* \"#utility.yul\":19835:19873   */\n      tag_62\n      jump\t// in\n    tag_444:\n        /* \"#utility.yul\":19920:19987   */\n      tag_445\n        /* \"#utility.yul\":19980:19986   */\n      dup3\n        /* \"#utility.yul\":19972:19978   */\n      dup3\n        /* \"#utility.yul\":19966:19970   */\n      dup6\n        /* \"#utility.yul\":19920:19987   */\n      tag_240\n      jump\t// in\n    tag_445:\n        /* \"#utility.yul\":20014:20015   */\n      0x00\n        /* \"#utility.yul\":20038:20042   */\n      0x20\n        /* \"#utility.yul\":20025:20042   */\n      swap1\n      pop\n        /* \"#utility.yul\":20070:20072   */\n      0x1f\n        /* \"#utility.yul\":20062:20068   */\n      dup4\n        /* \"#utility.yul\":20059:20073   */\n      gt\n        /* \"#utility.yul\":20087:20088   */\n      0x01\n        /* \"#utility.yul\":20082:20700   */\n      dup2\n      eq\n      tag_447\n      jumpi\n        /* \"#utility.yul\":20744:20745   */\n      0x00\n        /* \"#utility.yul\":20761:20767   */\n      dup5\n        /* \"#utility.yul\":20758:20835   */\n      iszero\n      tag_448\n      jumpi\n        /* \"#utility.yul\":20810:20819   */\n      dup3\n        /* \"#utility.yul\":20805:20808   */\n      dup8\n        /* \"#utility.yul\":20801:20820   */\n      add\n        /* \"#utility.yul\":20795:20821   */\n      mload\n        /* \"#utility.yul\":20786:20821   */\n      swap1\n      pop\n        /* \"#utility.yul\":20758:20835   */\n    tag_448:\n        /* \"#utility.yul\":20861:20928   */\n      tag_449\n        /* \"#utility.yul\":20921:20927   */\n      dup6\n        /* \"#utility.yul\":20914:20919   */\n      dup3\n        /* \"#utility.yul\":20861:20928   */\n      tag_243\n      jump\t// in\n    tag_449:\n        /* \"#utility.yul\":20855:20859   */\n      dup7\n        /* \"#utility.yul\":20848:20929   */\n      sstore\n        /* \"#utility.yul\":20717:20939   */\n      pop\n        /* \"#utility.yul\":20052:20939   */\n      jump(tag_446)\n        /* \"#utility.yul\":20082:20700   */\n    tag_447:\n        /* \"#utility.yul\":20134:20138   */\n      0x1f\n        /* \"#utility.yul\":20130:20139   */\n      not\n        /* \"#utility.yul\":20122:20128   */\n      dup5\n        /* \"#utility.yul\":20118:20140   */\n      and\n        /* \"#utility.yul\":20168:20205   */\n      tag_450\n        /* \"#utility.yul\":20200:20204   */\n      dup7\n        /* \"#utility.yul\":20168:20205   */\n      tag_229\n      jump\t// in\n    tag_450:\n        /* \"#utility.yul\":20227:20228   */\n      0x00\n        /* \"#utility.yul\":20241:20449   */\n    tag_451:\n        /* \"#utility.yul\":20255:20262   */\n      dup3\n        /* \"#utility.yul\":20252:20253   */\n      dup2\n        /* \"#utility.yul\":20249:20263   */\n      lt\n        /* \"#utility.yul\":20241:20449   */\n      iszero\n      tag_453\n      jumpi\n        /* \"#utility.yul\":20334:20343   */\n      dup5\n        /* \"#utility.yul\":20329:20332   */\n      dup10\n        /* \"#utility.yul\":20325:20344   */\n      add\n        /* \"#utility.yul\":20319:20345   */\n      mload\n        /* \"#utility.yul\":20311:20317   */\n      dup3\n        /* \"#utility.yul\":20304:20346   */\n      sstore\n        /* \"#utility.yul\":20385:20386   */\n      0x01\n        /* \"#utility.yul\":20377:20383   */\n      dup3\n        /* \"#utility.yul\":20373:20387   */\n      add\n        /* \"#utility.yul\":20363:20387   */\n      swap2\n      pop\n        /* \"#utility.yul\":20432:20434   */\n      0x20\n        /* \"#utility.yul\":20421:20430   */\n      dup6\n        /* \"#utility.yul\":20417:20435   */\n      add\n        /* \"#utility.yul\":20404:20435   */\n      swap5\n      pop\n        /* \"#utility.yul\":20278:20282   */\n      0x20\n        /* \"#utility.yul\":20275:20276   */\n      dup2\n        /* \"#utility.yul\":20271:20283   */\n      add\n        /* \"#utility.yul\":20266:20283   */\n      swap1\n      pop\n        /* \"#utility.yul\":20241:20449   */\n      jump(tag_451)\n    tag_453:\n        /* \"#utility.yul\":20477:20483   */\n      dup7\n        /* \"#utility.yul\":20468:20475   */\n      dup4\n        /* \"#utility.yul\":20465:20484   */\n      lt\n        /* \"#utility.yul\":20462:20641   */\n      iszero\n      tag_454\n      jumpi\n        /* \"#utility.yul\":20535:20544   */\n      dup5\n        /* \"#utility.yul\":20530:20533   */\n      dup10\n        /* \"#utility.yul\":20526:20545   */\n      add\n        /* \"#utility.yul\":20520:20546   */\n      mload\n        /* \"#utility.yul\":20578:20626   */\n      tag_455\n        /* \"#utility.yul\":20620:20624   */\n      0x1f\n        /* \"#utility.yul\":20612:20618   */\n      dup10\n        /* \"#utility.yul\":20608:20625   */\n      and\n        /* \"#utility.yul\":20597:20606   */\n      dup3\n        /* \"#utility.yul\":20578:20626   */\n      tag_242\n      jump\t// in\n    tag_455:\n        /* \"#utility.yul\":20570:20576   */\n      dup4\n        /* \"#utility.yul\":20563:20627   */\n      sstore\n        /* \"#utility.yul\":20485:20641   */\n      pop\n        /* \"#utility.yul\":20462:20641   */\n    tag_454:\n        /* \"#utility.yul\":20687:20688   */\n      0x01\n        /* \"#utility.yul\":20683:20684   */\n      0x02\n        /* \"#utility.yul\":20675:20681   */\n      dup9\n        /* \"#utility.yul\":20671:20685   */\n      mul\n        /* \"#utility.yul\":20667:20689   */\n      add\n        /* \"#utility.yul\":20661:20665   */\n      dup9\n        /* \"#utility.yul\":20654:20690   */\n      sstore\n        /* \"#utility.yul\":20089:20700   */\n      pop\n      pop\n      pop\n        /* \"#utility.yul\":20052:20939   */\n    tag_446:\n      pop\n        /* \"#utility.yul\":19642:20945   */\n      pop\n      pop\n      pop\n        /* \"#utility.yul\":19550:20945   */\n      pop\n      pop\n      jump\t// out\n        /* \"#utility.yul\":20951:21131   */\n    tag_244:\n        /* \"#utility.yul\":20999:21076   */\n      0x4e487b7100000000000000000000000000000000000000000000000000000000\n        /* \"#utility.yul\":20996:20997   */\n      0x00\n        /* \"#utility.yul\":20989:21077   */\n      mstore\n        /* \"#utility.yul\":21096:21100   */\n      0x12\n        /* \"#utility.yul\":21093:21094   */\n      0x04\n        /* \"#utility.yul\":21086:21101   */\n      mstore\n        /* \"#utility.yul\":21120:21124   */\n      0x24\n        /* \"#utility.yul\":21117:21118   */\n      0x00\n        /* \"#utility.yul\":21110:21125   */\n      revert\n        /* \"#utility.yul\":21137:21322   */\n    tag_163:\n        /* \"#utility.yul\":21177:21178   */\n      0x00\n        /* \"#utility.yul\":21194:21214   */\n      tag_458\n        /* \"#utility.yul\":21212:21213   */\n      dup3\n        /* \"#utility.yul\":21194:21214   */\n      tag_185\n      jump\t// in\n    tag_458:\n        /* \"#utility.yul\":21189:21214   */\n      swap2\n      pop\n        /* \"#utility.yul\":21228:21248   */\n      tag_459\n        /* \"#utility.yul\":21246:21247   */\n      dup4\n        /* \"#utility.yul\":21228:21248   */\n      tag_185\n      jump\t// in\n    tag_459:\n        /* \"#utility.yul\":21223:21248   */\n      swap3\n      pop\n        /* \"#utility.yul\":21267:21268   */\n      dup3\n        /* \"#utility.yul\":21257:21292   */\n      tag_460\n      jumpi\n        /* \"#utility.yul\":21272:21290   */\n      tag_461\n      tag_244\n      jump\t// in\n    tag_461:\n        /* \"#utility.yul\":21257:21292   */\n    tag_460:\n        /* \"#utility.yul\":21314:21315   */\n      dup3\n        /* \"#utility.yul\":21311:21312   */\n      dup3\n        /* \"#utility.yul\":21307:21316   */\n      div\n        /* \"#utility.yul\":21302:21316   */\n      swap1\n      pop\n        /* \"#utility.yul\":21137:21322   */\n      swap3\n      swap2\n      pop\n      pop\n      jump\t// out\n\n    auxdata: 0xa2646970667358221220de450306026fee3dbab6cf1c6fd693053b213a76c7da13cd975f5eabd6381ce864736f6c634300081a0033\n}\n",
				"bytecode": {
					"linkReferences": {},
					"object": "6080604052348015600e575f80fd5b5061181b8061001c5f395ff3fe608060405234801561000f575f80fd5b506004361061009c575f3560e01c806374aa68581161006457806374aa68581461017e578063a24746d81461019a578063b30039fc146101ca578063b36a31c6146101e8578063be1c766b146102065761009c565b806304527d90146100a0578063133d0460146100d057806316020273146100ee5780631acb15421461011e578063674271cd1461014e575b5f80fd5b6100ba60048036038101906100b59190610dae565b610224565b6040516100c79190610de8565b60405180910390f35b6100d8610241565b6040516100e59190611077565b60405180910390f35b610108600480360381019061010391906111c3565b6104a3565b6040516101159190610de8565b60405180910390f35b61013860048036038101906101339190610dae565b6104cd565b6040516101459190611077565b60405180910390f35b61016860048036038101906101639190610dae565b610741565b6040516101759190611252565b60405180910390f35b61019860048036038101906101939190611354565b6108ce565b005b6101b460048036038101906101af91906111c3565b610996565b6040516101c19190611077565b60405180910390f35b6101d2610c17565b6040516101df91906113f6565b60405180910390f35b6101f0610c37565b6040516101fd9190610de8565b60405180910390f35b61020e610c8d565b60405161021b9190610de8565b60405180910390f35b5f60045f8381526020019081526020015f20600201549050919050565b60605f805480602002602001604051908101604052809291908181526020015f905b8282101561049a578382905f5260205f2090600502016040518060a00160405290815f820180546102939061143c565b80601f01602080910402602001604051908101604052809291908181526020018280546102bf9061143c565b801561030a5780601f106102e15761010080835404028352916020019161030a565b820191905f5260205f20905b8154815290600101906020018083116102ed57829003601f168201915b5050505050815260200160018201548152602001600282015481526020016003820180546103379061143c565b80601f01602080910402602001604051908101604052809291908181526020018280546103639061143c565b80156103ae5780601f10610385576101008083540402835291602001916103ae565b820191905f5260205f20905b81548152906001019060200180831161039157829003601f168201915b5050505050815260200160048201805480602002602001604051908101604052809291908181526020015f905b82821015610483578382905f5260205f200180546103f89061143c565b80601f01602080910402602001604051908101604052809291908181526020018280546104249061143c565b801561046f5780601f106104465761010080835404028352916020019161046f565b820191905f5260205f20905b81548152906001019060200180831161045257829003601f168201915b5050505050815260200190600101906103db565b505050508152505081526020019060010190610263565b50505050905090565b5f6003826040516104b491906114a6565b9081526020016040518091039020600201549050919050565b606060025f8381526020019081526020015f20805480602002602001604051908101604052809291908181526020015f905b82821015610736578382905f5260205f2090600502016040518060a00160405290815f8201805461052f9061143c565b80601f016020809104026020016040519081016040528092919081815260200182805461055b9061143c565b80156105a65780601f1061057d576101008083540402835291602001916105a6565b820191905f5260205f20905b81548152906001019060200180831161058957829003601f168201915b5050505050815260200160018201548152602001600282015481526020016003820180546105d39061143c565b80601f01602080910402602001604051908101604052809291908181526020018280546105ff9061143c565b801561064a5780601f106106215761010080835404028352916020019161064a565b820191905f5260205f20905b81548152906001019060200180831161062d57829003601f168201915b5050505050815260200160048201805480602002602001604051908101604052809291908181526020015f905b8282101561071f578382905f5260205f200180546106949061143c565b80601f01602080910402602001604051908101604052809291908181526020018280546106c09061143c565b801561070b5780601f106106e25761010080835404028352916020019161070b565b820191905f5260205f20905b8154815290600101906020018083116106ee57829003601f168201915b505050505081526020019060010190610677565b5050505081525050815260200190600101906104ff565b505050509050919050565b6060606482111580156107555750605a8210155b15610797576040518060400160405280600181526020017f410000000000000000000000000000000000000000000000000000000000000081525090506108c9565b605a821080156107a8575060508210155b156107ea576040518060400160405280600181526020017f420000000000000000000000000000000000000000000000000000000000000081525090506108c9565b6050821080156107fb575060468210155b1561083d576040518060400160405280600181526020017f430000000000000000000000000000000000000000000000000000000000000081525090506108c9565b60468210801561084e5750603c8210155b15610890576040518060400160405280600181526020017f440000000000000000000000000000000000000000000000000000000000000081525090506108c9565b6040518060400160405280600181526020017f460000000000000000000000000000000000000000000000000000000000000081525090505b919050565b5f6040518060a0016040528085815260200160015f805490506108f191906114e9565b815260200184815260200161090585610741565b815260200183815250908060018154018082558091505060019003905f5260205f2090600502015f909190919091505f820151815f01908161094791906116b9565b506020820151816001015560408201518160020155606082015181600301908161097191906116b9565b50608082015181600401908051906020019061098e929190610c98565b505050505050565b60606001826040516109a891906114a6565b9081526020016040518091039020805480602002602001604051908101604052809291908181526020015f905b82821015610c0c578382905f5260205f2090600502016040518060a00160405290815f82018054610a059061143c565b80601f0160208091040260200160405190810160405280929190818152602001828054610a319061143c565b8015610a7c5780601f10610a5357610100808354040283529160200191610a7c565b820191905f5260205f20905b815481529060010190602001808311610a5f57829003601f168201915b505050505081526020016001820154815260200160028201548152602001600382018054610aa99061143c565b80601f0160208091040260200160405190810160405280929190818152602001828054610ad59061143c565b8015610b205780601f10610af757610100808354040283529160200191610b20565b820191905f5260205f20905b815481529060010190602001808311610b0357829003601f168201915b5050505050815260200160048201805480602002602001604051908101604052809291908181526020015f905b82821015610bf5578382905f5260205f20018054610b6a9061143c565b80601f0160208091040260200160405190810160405280929190818152602001828054610b969061143c565b8015610be15780601f10610bb857610100808354040283529160200191610be1565b820191905f5260205f20905b815481529060010190602001808311610bc457829003601f168201915b505050505081526020019060010190610b4d565b5050505081525050815260200190600101906109d5565b505050509050919050565b5f6046610c22610c37565b10610c305760019050610c34565b5f90505b90565b5f805f5b60015f80549050610c4c91906114e9565b811015610c7657610c5c81610224565b82610c6791906114e9565b91508080600101915050610c3b565b5f8054905082610c8691906117b5565b9250505090565b5f8080549050905090565b828054828255905f5260205f20908101928215610cde579160200282015b82811115610cdd578251829081610ccd91906116b9565b5091602001919060010190610cb6565b5b509050610ceb9190610cef565b5090565b5b80821115610d0e575f8181610d059190610d12565b50600101610cf0565b5090565b508054610d1e9061143c565b5f825580601f10610d2f5750610d4c565b601f0160209004905f5260205f2090810190610d4b9190610d4f565b5b50565b5b80821115610d66575f815f905550600101610d50565b5090565b5f604051905090565b5f80fd5b5f80fd5b5f819050919050565b610d8d81610d7b565b8114610d97575f80fd5b50565b5f81359050610da881610d84565b92915050565b5f60208284031215610dc357610dc2610d73565b5b5f610dd084828501610d9a565b91505092915050565b610de281610d7b565b82525050565b5f602082019050610dfb5f830184610dd9565b92915050565b5f81519050919050565b5f82825260208201905092915050565b5f819050602082019050919050565b5f81519050919050565b5f82825260208201905092915050565b8281835e5f83830152505050565b5f601f19601f8301169050919050565b5f610e6c82610e2a565b610e768185610e34565b9350610e86818560208601610e44565b610e8f81610e52565b840191505092915050565b610ea381610d7b565b82525050565b5f81519050919050565b5f82825260208201905092915050565b5f819050602082019050919050565b5f610edd8383610e62565b905092915050565b5f602082019050919050565b5f610efb82610ea9565b610f058185610eb3565b935083602082028501610f1785610ec3565b805f5b85811015610f525784840389528151610f338582610ed2565b9450610f3e83610ee5565b925060208a01995050600181019050610f1a565b50829750879550505050505092915050565b5f60a083015f8301518482035f860152610f7e8282610e62565b9150506020830151610f936020860182610e9a565b506040830151610fa66040860182610e9a565b5060608301518482036060860152610fbe8282610e62565b91505060808301518482036080860152610fd88282610ef1565b9150508091505092915050565b5f610ff08383610f64565b905092915050565b5f602082019050919050565b5f61100e82610e01565b6110188185610e0b565b93508360208202850161102a85610e1b565b805f5b8581101561106557848403895281516110468582610fe5565b945061105183610ff8565b925060208a0199505060018101905061102d565b50829750879550505050505092915050565b5f6020820190508181035f83015261108f8184611004565b905092915050565b5f80fd5b5f80fd5b7f4e487b71000000000000000000000000000000000000000000000000000000005f52604160045260245ffd5b6110d582610e52565b810181811067ffffffffffffffff821117156110f4576110f361109f565b5b80604052505050565b5f611106610d6a565b905061111282826110cc565b919050565b5f67ffffffffffffffff8211156111315761113061109f565b5b61113a82610e52565b9050602081019050919050565b828183375f83830152505050565b5f61116761116284611117565b6110fd565b9050828152602081018484840111156111835761118261109b565b5b61118e848285611147565b509392505050565b5f82601f8301126111aa576111a9611097565b5b81356111ba848260208601611155565b91505092915050565b5f602082840312156111d8576111d7610d73565b5b5f82013567ffffffffffffffff8111156111f5576111f4610d77565b5b61120184828501611196565b91505092915050565b5f82825260208201905092915050565b5f61122482610e2a565b61122e818561120a565b935061123e818560208601610e44565b61124781610e52565b840191505092915050565b5f6020820190508181035f83015261126a818461121a565b905092915050565b5f67ffffffffffffffff82111561128c5761128b61109f565b5b602082029050602081019050919050565b5f80fd5b5f6112b36112ae84611272565b6110fd565b905080838252602082019050602084028301858111156112d6576112d561129d565b5b835b8181101561131d57803567ffffffffffffffff8111156112fb576112fa611097565b5b8086016113088982611196565b855260208501945050506020810190506112d8565b5050509392505050565b5f82601f83011261133b5761133a611097565b5b813561134b8482602086016112a1565b91505092915050565b5f805f6060848603121561136b5761136a610d73565b5b5f84013567ffffffffffffffff81111561138857611387610d77565b5b61139486828701611196565b93505060206113a586828701610d9a565b925050604084013567ffffffffffffffff8111156113c6576113c5610d77565b5b6113d286828701611327565b9150509250925092565b5f8115159050919050565b6113f0816113dc565b82525050565b5f6020820190506114095f8301846113e7565b92915050565b7f4e487b71000000000000000000000000000000000000000000000000000000005f52602260045260245ffd5b5f600282049050600182168061145357607f821691505b6020821081036114665761146561140f565b5b50919050565b5f81905092915050565b5f61148082610e2a565b61148a818561146c565b935061149a818560208601610e44565b80840191505092915050565b5f6114b18284611476565b915081905092915050565b7f4e487b71000000000000000000000000000000000000000000000000000000005f52601160045260245ffd5b5f6114f382610d7b565b91506114fe83610d7b565b9250828201905080821115611516576115156114bc565b5b92915050565b5f819050815f5260205f209050919050565b5f6020601f8301049050919050565b5f82821b905092915050565b5f600883026115787fffffffffffffffffffffffffffffffffffffffffffffffffffffffffffffffff8261153d565b611582868361153d565b95508019841693508086168417925050509392505050565b5f819050919050565b5f6115bd6115b86115b384610d7b565b61159a565b610d7b565b9050919050565b5f819050919050565b6115d6836115a3565b6115ea6115e2826115c4565b848454611549565b825550505050565b5f90565b6115fe6115f2565b6116098184846115cd565b505050565b5b8181101561162c576116215f826115f6565b60018101905061160f565b5050565b601f821115611671576116428161151c565b61164b8461152e565b8101602085101561165a578190505b61166e6116668561152e565b83018261160e565b50505b505050565b5f82821c905092915050565b5f6116915f1984600802611676565b1980831691505092915050565b5f6116a98383611682565b9150826002028217905092915050565b6116c282610e2a565b67ffffffffffffffff8111156116db576116da61109f565b5b6116e5825461143c565b6116f0828285611630565b5f60209050601f831160018114611721575f841561170f578287015190505b611719858261169e565b865550611780565b601f19841661172f8661151c565b5f5b8281101561175657848901518255600182019150602085019450602081019050611731565b86831015611773578489015161176f601f891682611682565b8355505b6001600288020188555050505b505050505050565b7f4e487b71000000000000000000000000000000000000000000000000000000005f52601260045260245ffd5b5f6117bf82610d7b565b91506117ca83610d7b565b9250826117da576117d9611788565b5b82820490509291505056fea2646970667358221220de450306026fee3dbab6cf1c6fd693053b213a76c7da13cd975f5eabd6381ce864736f6c634300081a0033",
					"opcodes": "PUSH1 0x80 PUSH1 0x40 MSTORE CALLVALUE DUP1 ISZERO PUSH1 0xE JUMPI PUSH0 DUP1 REVERT JUMPDEST POP PUSH2 0x181B DUP1 PUSH2 0x1C PUSH0 CODECOPY PUSH0 RETURN INVALID PUSH1 0x80 PUSH1 0x40 MSTORE CALLVALUE DUP1 ISZERO PUSH2 0xF JUMPI PUSH0 DUP1 REVERT JUMPDEST POP PUSH1 0x4 CALLDATASIZE LT PUSH2 0x9C JUMPI PUSH0 CALLDATALOAD PUSH1 0xE0 SHR DUP1 PUSH4 0x74AA6858 GT PUSH2 0x64 JUMPI DUP1 PUSH4 0x74AA6858 EQ PUSH2 0x17E JUMPI DUP1 PUSH4 0xA24746D8 EQ PUSH2 0x19A JUMPI DUP1 PUSH4 0xB30039FC EQ PUSH2 0x1CA JUMPI DUP1 PUSH4 0xB36A31C6 EQ PUSH2 0x1E8 JUMPI DUP1 PUSH4 0xBE1C766B EQ PUSH2 0x206 JUMPI PUSH2 0x9C JUMP JUMPDEST DUP1 PUSH4 0x4527D90 EQ PUSH2 0xA0 JUMPI DUP1 PUSH4 0x133D0460 EQ PUSH2 0xD0 JUMPI DUP1 PUSH4 0x16020273 EQ PUSH2 0xEE JUMPI DUP1 PUSH4 0x1ACB1542 EQ PUSH2 0x11E JUMPI DUP1 PUSH4 0x674271CD EQ PUSH2 0x14E JUMPI JUMPDEST PUSH0 DUP1 REVERT JUMPDEST PUSH2 0xBA PUSH1 0x4 DUP1 CALLDATASIZE SUB DUP2 ADD SWAP1 PUSH2 0xB5 SWAP2 SWAP1 PUSH2 0xDAE JUMP JUMPDEST PUSH2 0x224 JUMP JUMPDEST PUSH1 0x40 MLOAD PUSH2 0xC7 SWAP2 SWAP1 PUSH2 0xDE8 JUMP JUMPDEST PUSH1 0x40 MLOAD DUP1 SWAP2 SUB SWAP1 RETURN JUMPDEST PUSH2 0xD8 PUSH2 0x241 JUMP JUMPDEST PUSH1 0x40 MLOAD PUSH2 0xE5 SWAP2 SWAP1 PUSH2 0x1077 JUMP JUMPDEST PUSH1 0x40 MLOAD DUP1 SWAP2 SUB SWAP1 RETURN JUMPDEST PUSH2 0x108 PUSH1 0x4 DUP1 CALLDATASIZE SUB DUP2 ADD SWAP1 PUSH2 0x103 SWAP2 SWAP1 PUSH2 0x11C3 JUMP JUMPDEST PUSH2 0x4A3 JUMP JUMPDEST PUSH1 0x40 MLOAD PUSH2 0x115 SWAP2 SWAP1 PUSH2 0xDE8 JUMP JUMPDEST PUSH1 0x40 MLOAD DUP1 SWAP2 SUB SWAP1 RETURN JUMPDEST PUSH2 0x138 PUSH1 0x4 DUP1 CALLDATASIZE SUB DUP2 ADD SWAP1 PUSH2 0x133 SWAP2 SWAP1 PUSH2 0xDAE JUMP JUMPDEST PUSH2 0x4CD JUMP JUMPDEST PUSH1 0x40 MLOAD PUSH2 0x145 SWAP2 SWAP1 PUSH2 0x1077 JUMP JUMPDEST PUSH1 0x40 MLOAD DUP1 SWAP2 SUB SWAP1 RETURN JUMPDEST PUSH2 0x168 PUSH1 0x4 DUP1 CALLDATASIZE SUB DUP2 ADD SWAP1 PUSH2 0x163 SWAP2 SWAP1 PUSH2 0xDAE JUMP JUMPDEST PUSH2 0x741 JUMP JUMPDEST PUSH1 0x40 MLOAD PUSH2 0x175 SWAP2 SWAP1 PUSH2 0x1252 JUMP JUMPDEST PUSH1 0x40 MLOAD DUP1 SWAP2 SUB SWAP1 RETURN JUMPDEST PUSH2 0x198 PUSH1 0x4 DUP1 CALLDATASIZE SUB DUP2 ADD SWAP1 PUSH2 0x193 SWAP2 SWAP1 PUSH2 0x1354 JUMP JUMPDEST PUSH2 0x8CE JUMP JUMPDEST STOP JUMPDEST PUSH2 0x1B4 PUSH1 0x4 DUP1 CALLDATASIZE SUB DUP2 ADD SWAP1 PUSH2 0x1AF SWAP2 SWAP1 PUSH2 0x11C3 JUMP JUMPDEST PUSH2 0x996 JUMP JUMPDEST PUSH1 0x40 MLOAD PUSH2 0x1C1 SWAP2 SWAP1 PUSH2 0x1077 JUMP JUMPDEST PUSH1 0x40 MLOAD DUP1 SWAP2 SUB SWAP1 RETURN JUMPDEST PUSH2 0x1D2 PUSH2 0xC17 JUMP JUMPDEST PUSH1 0x40 MLOAD PUSH2 0x1DF SWAP2 SWAP1 PUSH2 0x13F6 JUMP JUMPDEST PUSH1 0x40 MLOAD DUP1 SWAP2 SUB SWAP1 RETURN JUMPDEST PUSH2 0x1F0 PUSH2 0xC37 JUMP JUMPDEST PUSH1 0x40 MLOAD PUSH2 0x1FD SWAP2 SWAP1 PUSH2 0xDE8 JUMP JUMPDEST PUSH1 0x40 MLOAD DUP1 SWAP2 SUB SWAP1 RETURN JUMPDEST PUSH2 0x20E PUSH2 0xC8D JUMP JUMPDEST PUSH1 0x40 MLOAD PUSH2 0x21B SWAP2 SWAP1 PUSH2 0xDE8 JUMP JUMPDEST PUSH1 0x40 MLOAD DUP1 SWAP2 SUB SWAP1 RETURN JUMPDEST PUSH0 PUSH1 0x4 PUSH0 DUP4 DUP2 MSTORE PUSH1 0x20 ADD SWAP1 DUP2 MSTORE PUSH1 0x20 ADD PUSH0 KECCAK256 PUSH1 0x2 ADD SLOAD SWAP1 POP SWAP2 SWAP1 POP JUMP JUMPDEST PUSH1 0x60 PUSH0 DUP1 SLOAD DUP1 PUSH1 0x20 MUL PUSH1 0x20 ADD PUSH1 0x40 MLOAD SWAP1 DUP2 ADD PUSH1 0x40 MSTORE DUP1 SWAP3 SWAP2 SWAP1 DUP2 DUP2 MSTORE PUSH1 0x20 ADD PUSH0 SWAP1 JUMPDEST DUP3 DUP3 LT ISZERO PUSH2 0x49A JUMPI DUP4 DUP3 SWAP1 PUSH0 MSTORE PUSH1 0x20 PUSH0 KECCAK256 SWAP1 PUSH1 0x5 MUL ADD PUSH1 0x40 MLOAD DUP1 PUSH1 0xA0 ADD PUSH1 0x40 MSTORE SWAP1 DUP2 PUSH0 DUP3 ADD DUP1 SLOAD PUSH2 0x293 SWAP1 PUSH2 0x143C JUMP JUMPDEST DUP1 PUSH1 0x1F ADD PUSH1 0x20 DUP1 SWAP2 DIV MUL PUSH1 0x20 ADD PUSH1 0x40 MLOAD SWAP1 DUP2 ADD PUSH1 0x40 MSTORE DUP1 SWAP3 SWAP2 SWAP1 DUP2 DUP2 MSTORE PUSH1 0x20 ADD DUP3 DUP1 SLOAD PUSH2 0x2BF SWAP1 PUSH2 0x143C JUMP JUMPDEST DUP1 ISZERO PUSH2 0x30A JUMPI DUP1 PUSH1 0x1F LT PUSH2 0x2E1 JUMPI PUSH2 0x100 DUP1 DUP4 SLOAD DIV MUL DUP4 MSTORE SWAP2 PUSH1 0x20 ADD SWAP2 PUSH2 0x30A JUMP JUMPDEST DUP3 ADD SWAP2 SWAP1 PUSH0 MSTORE PUSH1 0x20 PUSH0 KECCAK256 SWAP1 JUMPDEST DUP2 SLOAD DUP2 MSTORE SWAP1 PUSH1 0x1 ADD SWAP1 PUSH1 0x20 ADD DUP1 DUP4 GT PUSH2 0x2ED JUMPI DUP3 SWAP1 SUB PUSH1 0x1F AND DUP3 ADD SWAP2 JUMPDEST POP POP POP POP POP DUP2 MSTORE PUSH1 0x20 ADD PUSH1 0x1 DUP3 ADD SLOAD DUP2 MSTORE PUSH1 0x20 ADD PUSH1 0x2 DUP3 ADD SLOAD DUP2 MSTORE PUSH1 0x20 ADD PUSH1 0x3 DUP3 ADD DUP1 SLOAD PUSH2 0x337 SWAP1 PUSH2 0x143C JUMP JUMPDEST DUP1 PUSH1 0x1F ADD PUSH1 0x20 DUP1 SWAP2 DIV MUL PUSH1 0x20 ADD PUSH1 0x40 MLOAD SWAP1 DUP2 ADD PUSH1 0x40 MSTORE DUP1 SWAP3 SWAP2 SWAP1 DUP2 DUP2 MSTORE PUSH1 0x20 ADD DUP3 DUP1 SLOAD PUSH2 0x363 SWAP1 PUSH2 0x143C JUMP JUMPDEST DUP1 ISZERO PUSH2 0x3AE JUMPI DUP1 PUSH1 0x1F LT PUSH2 0x385 JUMPI PUSH2 0x100 DUP1 DUP4 SLOAD DIV MUL DUP4 MSTORE SWAP2 PUSH1 0x20 ADD SWAP2 PUSH2 0x3AE JUMP JUMPDEST DUP3 ADD SWAP2 SWAP1 PUSH0 MSTORE PUSH1 0x20 PUSH0 KECCAK256 SWAP1 JUMPDEST DUP2 SLOAD DUP2 MSTORE SWAP1 PUSH1 0x1 ADD SWAP1 PUSH1 0x20 ADD DUP1 DUP4 GT PUSH2 0x391 JUMPI DUP3 SWAP1 SUB PUSH1 0x1F AND DUP3 ADD SWAP2 JUMPDEST POP POP POP POP POP DUP2 MSTORE PUSH1 0x20 ADD PUSH1 0x4 DUP3 ADD DUP1 SLOAD DUP1 PUSH1 0x20 MUL PUSH1 0x20 ADD PUSH1 0x40 MLOAD SWAP1 DUP2 ADD PUSH1 0x40 MSTORE DUP1 SWAP3 SWAP2 SWAP1 DUP2 DUP2 MSTORE PUSH1 0x20 ADD PUSH0 SWAP1 JUMPDEST DUP3 DUP3 LT ISZERO PUSH2 0x483 JUMPI DUP4 DUP3 SWAP1 PUSH0 MSTORE PUSH1 0x20 PUSH0 KECCAK256 ADD DUP1 SLOAD PUSH2 0x3F8 SWAP1 PUSH2 0x143C JUMP JUMPDEST DUP1 PUSH1 0x1F ADD PUSH1 0x20 DUP1 SWAP2 DIV MUL PUSH1 0x20 ADD PUSH1 0x40 MLOAD SWAP1 DUP2 ADD PUSH1 0x40 MSTORE DUP1 SWAP3 SWAP2 SWAP1 DUP2 DUP2 MSTORE PUSH1 0x20 ADD DUP3 DUP1 SLOAD PUSH2 0x424 SWAP1 PUSH2 0x143C JUMP JUMPDEST DUP1 ISZERO PUSH2 0x46F JUMPI DUP1 PUSH1 0x1F LT PUSH2 0x446 JUMPI PUSH2 0x100 DUP1 DUP4 SLOAD DIV MUL DUP4 MSTORE SWAP2 PUSH1 0x20 ADD SWAP2 PUSH2 0x46F JUMP JUMPDEST DUP3 ADD SWAP2 SWAP1 PUSH0 MSTORE PUSH1 0x20 PUSH0 KECCAK256 SWAP1 JUMPDEST DUP2 SLOAD DUP2 MSTORE SWAP1 PUSH1 0x1 ADD SWAP1 PUSH1 0x20 ADD DUP1 DUP4 GT PUSH2 0x452 JUMPI DUP3 SWAP1 SUB PUSH1 0x1F AND DUP3 ADD SWAP2 JUMPDEST POP POP POP POP POP DUP2 MSTORE PUSH1 0x20 ADD SWAP1 PUSH1 0x1 ADD SWAP1 PUSH2 0x3DB JUMP JUMPDEST POP POP POP POP DUP2 MSTORE POP POP DUP2 MSTORE PUSH1 0x20 ADD SWAP1 PUSH1 0x1 ADD SWAP1 PUSH2 0x263 JUMP JUMPDEST POP POP POP POP SWAP1 POP SWAP1 JUMP JUMPDEST PUSH0 PUSH1 0x3 DUP3 PUSH1 0x40 MLOAD PUSH2 0x4B4 SWAP2 SWAP1 PUSH2 0x14A6 JUMP JUMPDEST SWAP1 DUP2 MSTORE PUSH1 0x20 ADD PUSH1 0x40 MLOAD DUP1 SWAP2 SUB SWAP1 KECCAK256 PUSH1 0x2 ADD SLOAD SWAP1 POP SWAP2 SWAP1 POP JUMP JUMPDEST PUSH1 0x60 PUSH1 0x2 PUSH0 DUP4 DUP2 MSTORE PUSH1 0x20 ADD SWAP1 DUP2 MSTORE PUSH1 0x20 ADD PUSH0 KECCAK256 DUP1 SLOAD DUP1 PUSH1 0x20 MUL PUSH1 0x20 ADD PUSH1 0x40 MLOAD SWAP1 DUP2 ADD PUSH1 0x40 MSTORE DUP1 SWAP3 SWAP2 SWAP1 DUP2 DUP2 MSTORE PUSH1 0x20 ADD PUSH0 SWAP1 JUMPDEST DUP3 DUP3 LT ISZERO PUSH2 0x736 JUMPI DUP4 DUP3 SWAP1 PUSH0 MSTORE PUSH1 0x20 PUSH0 KECCAK256 SWAP1 PUSH1 0x5 MUL ADD PUSH1 0x40 MLOAD DUP1 PUSH1 0xA0 ADD PUSH1 0x40 MSTORE SWAP1 DUP2 PUSH0 DUP3 ADD DUP1 SLOAD PUSH2 0x52F SWAP1 PUSH2 0x143C JUMP JUMPDEST DUP1 PUSH1 0x1F ADD PUSH1 0x20 DUP1 SWAP2 DIV MUL PUSH1 0x20 ADD PUSH1 0x40 MLOAD SWAP1 DUP2 ADD PUSH1 0x40 MSTORE DUP1 SWAP3 SWAP2 SWAP1 DUP2 DUP2 MSTORE PUSH1 0x20 ADD DUP3 DUP1 SLOAD PUSH2 0x55B SWAP1 PUSH2 0x143C JUMP JUMPDEST DUP1 ISZERO PUSH2 0x5A6 JUMPI DUP1 PUSH1 0x1F LT PUSH2 0x57D JUMPI PUSH2 0x100 DUP1 DUP4 SLOAD DIV MUL DUP4 MSTORE SWAP2 PUSH1 0x20 ADD SWAP2 PUSH2 0x5A6 JUMP JUMPDEST DUP3 ADD SWAP2 SWAP1 PUSH0 MSTORE PUSH1 0x20 PUSH0 KECCAK256 SWAP1 JUMPDEST DUP2 SLOAD DUP2 MSTORE SWAP1 PUSH1 0x1 ADD SWAP1 PUSH1 0x20 ADD DUP1 DUP4 GT PUSH2 0x589 JUMPI DUP3 SWAP1 SUB PUSH1 0x1F AND DUP3 ADD SWAP2 JUMPDEST POP POP POP POP POP DUP2 MSTORE PUSH1 0x20 ADD PUSH1 0x1 DUP3 ADD SLOAD DUP2 MSTORE PUSH1 0x20 ADD PUSH1 0x2 DUP3 ADD SLOAD DUP2 MSTORE PUSH1 0x20 ADD PUSH1 0x3 DUP3 ADD DUP1 SLOAD PUSH2 0x5D3 SWAP1 PUSH2 0x143C JUMP JUMPDEST DUP1 PUSH1 0x1F ADD PUSH1 0x20 DUP1 SWAP2 DIV MUL PUSH1 0x20 ADD PUSH1 0x40 MLOAD SWAP1 DUP2 ADD PUSH1 0x40 MSTORE DUP1 SWAP3 SWAP2 SWAP1 DUP2 DUP2 MSTORE PUSH1 0x20 ADD DUP3 DUP1 SLOAD PUSH2 0x5FF SWAP1 PUSH2 0x143C JUMP JUMPDEST DUP1 ISZERO PUSH2 0x64A JUMPI DUP1 PUSH1 0x1F LT PUSH2 0x621 JUMPI PUSH2 0x100 DUP1 DUP4 SLOAD DIV MUL DUP4 MSTORE SWAP2 PUSH1 0x20 ADD SWAP2 PUSH2 0x64A JUMP JUMPDEST DUP3 ADD SWAP2 SWAP1 PUSH0 MSTORE PUSH1 0x20 PUSH0 KECCAK256 SWAP1 JUMPDEST DUP2 SLOAD DUP2 MSTORE SWAP1 PUSH1 0x1 ADD SWAP1 PUSH1 0x20 ADD DUP1 DUP4 GT PUSH2 0x62D JUMPI DUP3 SWAP1 SUB PUSH1 0x1F AND DUP3 ADD SWAP2 JUMPDEST POP POP POP POP POP DUP2 MSTORE PUSH1 0x20 ADD PUSH1 0x4 DUP3 ADD DUP1 SLOAD DUP1 PUSH1 0x20 MUL PUSH1 0x20 ADD PUSH1 0x40 MLOAD SWAP1 DUP2 ADD PUSH1 0x40 MSTORE DUP1 SWAP3 SWAP2 SWAP1 DUP2 DUP2 MSTORE PUSH1 0x20 ADD PUSH0 SWAP1 JUMPDEST DUP3 DUP3 LT ISZERO PUSH2 0x71F JUMPI DUP4 DUP3 SWAP1 PUSH0 MSTORE PUSH1 0x20 PUSH0 KECCAK256 ADD DUP1 SLOAD PUSH2 0x694 SWAP1 PUSH2 0x143C JUMP JUMPDEST DUP1 PUSH1 0x1F ADD PUSH1 0x20 DUP1 SWAP2 DIV MUL PUSH1 0x20 ADD PUSH1 0x40 MLOAD SWAP1 DUP2 ADD PUSH1 0x40 MSTORE DUP1 SWAP3 SWAP2 SWAP1 DUP2 DUP2 MSTORE PUSH1 0x20 ADD DUP3 DUP1 SLOAD PUSH2 0x6C0 SWAP1 PUSH2 0x143C JUMP JUMPDEST DUP1 ISZERO PUSH2 0x70B JUMPI DUP1 PUSH1 0x1F LT PUSH2 0x6E2 JUMPI PUSH2 0x100 DUP1 DUP4 SLOAD DIV MUL DUP4 MSTORE SWAP2 PUSH1 0x20 ADD SWAP2 PUSH2 0x70B JUMP JUMPDEST DUP3 ADD SWAP2 SWAP1 PUSH0 MSTORE PUSH1 0x20 PUSH0 KECCAK256 SWAP1 JUMPDEST DUP2 SLOAD DUP2 MSTORE SWAP1 PUSH1 0x1 ADD SWAP1 PUSH1 0x20 ADD DUP1 DUP4 GT PUSH2 0x6EE JUMPI DUP3 SWAP1 SUB PUSH1 0x1F AND DUP3 ADD SWAP2 JUMPDEST POP POP POP POP POP DUP2 MSTORE PUSH1 0x20 ADD SWAP1 PUSH1 0x1 ADD SWAP1 PUSH2 0x677 JUMP JUMPDEST POP POP POP POP DUP2 MSTORE POP POP DUP2 MSTORE PUSH1 0x20 ADD SWAP1 PUSH1 0x1 ADD SWAP1 PUSH2 0x4FF JUMP JUMPDEST POP POP POP POP SWAP1 POP SWAP2 SWAP1 POP JUMP JUMPDEST PUSH1 0x60 PUSH1 0x64 DUP3 GT ISZERO DUP1 ISZERO PUSH2 0x755 JUMPI POP PUSH1 0x5A DUP3 LT ISZERO JUMPDEST ISZERO PUSH2 0x797 JUMPI PUSH1 0x40 MLOAD DUP1 PUSH1 0x40 ADD PUSH1 0x40 MSTORE DUP1 PUSH1 0x1 DUP2 MSTORE PUSH1 0x20 ADD PUSH32 0x4100000000000000000000000000000000000000000000000000000000000000 DUP2 MSTORE POP SWAP1 POP PUSH2 0x8C9 JUMP JUMPDEST PUSH1 0x5A DUP3 LT DUP1 ISZERO PUSH2 0x7A8 JUMPI POP PUSH1 0x50 DUP3 LT ISZERO JUMPDEST ISZERO PUSH2 0x7EA JUMPI PUSH1 0x40 MLOAD DUP1 PUSH1 0x40 ADD PUSH1 0x40 MSTORE DUP1 PUSH1 0x1 DUP2 MSTORE PUSH1 0x20 ADD PUSH32 0x4200000000000000000000000000000000000000000000000000000000000000 DUP2 MSTORE POP SWAP1 POP PUSH2 0x8C9 JUMP JUMPDEST PUSH1 0x50 DUP3 LT DUP1 ISZERO PUSH2 0x7FB JUMPI POP PUSH1 0x46 DUP3 LT ISZERO JUMPDEST ISZERO PUSH2 0x83D JUMPI PUSH1 0x40 MLOAD DUP1 PUSH1 0x40 ADD PUSH1 0x40 MSTORE DUP1 PUSH1 0x1 DUP2 MSTORE PUSH1 0x20 ADD PUSH32 0x4300000000000000000000000000000000000000000000000000000000000000 DUP2 MSTORE POP SWAP1 POP PUSH2 0x8C9 JUMP JUMPDEST PUSH1 0x46 DUP3 LT DUP1 ISZERO PUSH2 0x84E JUMPI POP PUSH1 0x3C DUP3 LT ISZERO JUMPDEST ISZERO PUSH2 0x890 JUMPI PUSH1 0x40 MLOAD DUP1 PUSH1 0x40 ADD PUSH1 0x40 MSTORE DUP1 PUSH1 0x1 DUP2 MSTORE PUSH1 0x20 ADD PUSH32 0x4400000000000000000000000000000000000000000000000000000000000000 DUP2 MSTORE POP SWAP1 POP PUSH2 0x8C9 JUMP JUMPDEST PUSH1 0x40 MLOAD DUP1 PUSH1 0x40 ADD PUSH1 0x40 MSTORE DUP1 PUSH1 0x1 DUP2 MSTORE PUSH1 0x20 ADD PUSH32 0x4600000000000000000000000000000000000000000000000000000000000000 DUP2 MSTORE POP SWAP1 POP JUMPDEST SWAP2 SWAP1 POP JUMP JUMPDEST PUSH0 PUSH1 0x40 MLOAD DUP1 PUSH1 0xA0 ADD PUSH1 0x40 MSTORE DUP1 DUP6 DUP2 MSTORE PUSH1 0x20 ADD PUSH1 0x1 PUSH0 DUP1 SLOAD SWAP1 POP PUSH2 0x8F1 SWAP2 SWAP1 PUSH2 0x14E9 JUMP JUMPDEST DUP2 MSTORE PUSH1 0x20 ADD DUP5 DUP2 MSTORE PUSH1 0x20 ADD PUSH2 0x905 DUP6 PUSH2 0x741 JUMP JUMPDEST DUP2 MSTORE PUSH1 0x20 ADD DUP4 DUP2 MSTORE POP SWAP1 DUP1 PUSH1 0x1 DUP2 SLOAD ADD DUP1 DUP3 SSTORE DUP1 SWAP2 POP POP PUSH1 0x1 SWAP1 SUB SWAP1 PUSH0 MSTORE PUSH1 0x20 PUSH0 KECCAK256 SWAP1 PUSH1 0x5 MUL ADD PUSH0 SWAP1 SWAP2 SWAP1 SWAP2 SWAP1 SWAP2 POP PUSH0 DUP3 ADD MLOAD DUP2 PUSH0 ADD SWAP1 DUP2 PUSH2 0x947 SWAP2 SWAP1 PUSH2 0x16B9 JUMP JUMPDEST POP PUSH1 0x20 DUP3 ADD MLOAD DUP2 PUSH1 0x1 ADD SSTORE PUSH1 0x40 DUP3 ADD MLOAD DUP2 PUSH1 0x2 ADD SSTORE PUSH1 0x60 DUP3 ADD MLOAD DUP2 PUSH1 0x3 ADD SWAP1 DUP2 PUSH2 0x971 SWAP2 SWAP1 PUSH2 0x16B9 JUMP JUMPDEST POP PUSH1 0x80 DUP3 ADD MLOAD DUP2 PUSH1 0x4 ADD SWAP1 DUP1 MLOAD SWAP1 PUSH1 0x20 ADD SWAP1 PUSH2 0x98E SWAP3 SWAP2 SWAP1 PUSH2 0xC98 JUMP JUMPDEST POP POP POP POP POP POP JUMP JUMPDEST PUSH1 0x60 PUSH1 0x1 DUP3 PUSH1 0x40 MLOAD PUSH2 0x9A8 SWAP2 SWAP1 PUSH2 0x14A6 JUMP JUMPDEST SWAP1 DUP2 MSTORE PUSH1 0x20 ADD PUSH1 0x40 MLOAD DUP1 SWAP2 SUB SWAP1 KECCAK256 DUP1 SLOAD DUP1 PUSH1 0x20 MUL PUSH1 0x20 ADD PUSH1 0x40 MLOAD SWAP1 DUP2 ADD PUSH1 0x40 MSTORE DUP1 SWAP3 SWAP2 SWAP1 DUP2 DUP2 MSTORE PUSH1 0x20 ADD PUSH0 SWAP1 JUMPDEST DUP3 DUP3 LT ISZERO PUSH2 0xC0C JUMPI DUP4 DUP3 SWAP1 PUSH0 MSTORE PUSH1 0x20 PUSH0 KECCAK256 SWAP1 PUSH1 0x5 MUL ADD PUSH1 0x40 MLOAD DUP1 PUSH1 0xA0 ADD PUSH1 0x40 MSTORE SWAP1 DUP2 PUSH0 DUP3 ADD DUP1 SLOAD PUSH2 0xA05 SWAP1 PUSH2 0x143C JUMP JUMPDEST DUP1 PUSH1 0x1F ADD PUSH1 0x20 DUP1 SWAP2 DIV MUL PUSH1 0x20 ADD PUSH1 0x40 MLOAD SWAP1 DUP2 ADD PUSH1 0x40 MSTORE DUP1 SWAP3 SWAP2 SWAP1 DUP2 DUP2 MSTORE PUSH1 0x20 ADD DUP3 DUP1 SLOAD PUSH2 0xA31 SWAP1 PUSH2 0x143C JUMP JUMPDEST DUP1 ISZERO PUSH2 0xA7C JUMPI DUP1 PUSH1 0x1F LT PUSH2 0xA53 JUMPI PUSH2 0x100 DUP1 DUP4 SLOAD DIV MUL DUP4 MSTORE SWAP2 PUSH1 0x20 ADD SWAP2 PUSH2 0xA7C JUMP JUMPDEST DUP3 ADD SWAP2 SWAP1 PUSH0 MSTORE PUSH1 0x20 PUSH0 KECCAK256 SWAP1 JUMPDEST DUP2 SLOAD DUP2 MSTORE SWAP1 PUSH1 0x1 ADD SWAP1 PUSH1 0x20 ADD DUP1 DUP4 GT PUSH2 0xA5F JUMPI DUP3 SWAP1 SUB PUSH1 0x1F AND DUP3 ADD SWAP2 JUMPDEST POP POP POP POP POP DUP2 MSTORE PUSH1 0x20 ADD PUSH1 0x1 DUP3 ADD SLOAD DUP2 MSTORE PUSH1 0x20 ADD PUSH1 0x2 DUP3 ADD SLOAD DUP2 MSTORE PUSH1 0x20 ADD PUSH1 0x3 DUP3 ADD DUP1 SLOAD PUSH2 0xAA9 SWAP1 PUSH2 0x143C JUMP JUMPDEST DUP1 PUSH1 0x1F ADD PUSH1 0x20 DUP1 SWAP2 DIV MUL PUSH1 0x20 ADD PUSH1 0x40 MLOAD SWAP1 DUP2 ADD PUSH1 0x40 MSTORE DUP1 SWAP3 SWAP2 SWAP1 DUP2 DUP2 MSTORE PUSH1 0x20 ADD DUP3 DUP1 SLOAD PUSH2 0xAD5 SWAP1 PUSH2 0x143C JUMP JUMPDEST DUP1 ISZERO PUSH2 0xB20 JUMPI DUP1 PUSH1 0x1F LT PUSH2 0xAF7 JUMPI PUSH2 0x100 DUP1 DUP4 SLOAD DIV MUL DUP4 MSTORE SWAP2 PUSH1 0x20 ADD SWAP2 PUSH2 0xB20 JUMP JUMPDEST DUP3 ADD SWAP2 SWAP1 PUSH0 MSTORE PUSH1 0x20 PUSH0 KECCAK256 SWAP1 JUMPDEST DUP2 SLOAD DUP2 MSTORE SWAP1 PUSH1 0x1 ADD SWAP1 PUSH1 0x20 ADD DUP1 DUP4 GT PUSH2 0xB03 JUMPI DUP3 SWAP1 SUB PUSH1 0x1F AND DUP3 ADD SWAP2 JUMPDEST POP POP POP POP POP DUP2 MSTORE PUSH1 0x20 ADD PUSH1 0x4 DUP3 ADD DUP1 SLOAD DUP1 PUSH1 0x20 MUL PUSH1 0x20 ADD PUSH1 0x40 MLOAD SWAP1 DUP2 ADD PUSH1 0x40 MSTORE DUP1 SWAP3 SWAP2 SWAP1 DUP2 DUP2 MSTORE PUSH1 0x20 ADD PUSH0 SWAP1 JUMPDEST DUP3 DUP3 LT ISZERO PUSH2 0xBF5 JUMPI DUP4 DUP3 SWAP1 PUSH0 MSTORE PUSH1 0x20 PUSH0 KECCAK256 ADD DUP1 SLOAD PUSH2 0xB6A SWAP1 PUSH2 0x143C JUMP JUMPDEST DUP1 PUSH1 0x1F ADD PUSH1 0x20 DUP1 SWAP2 DIV MUL PUSH1 0x20 ADD PUSH1 0x40 MLOAD SWAP1 DUP2 ADD PUSH1 0x40 MSTORE DUP1 SWAP3 SWAP2 SWAP1 DUP2 DUP2 MSTORE PUSH1 0x20 ADD DUP3 DUP1 SLOAD PUSH2 0xB96 SWAP1 PUSH2 0x143C JUMP JUMPDEST DUP1 ISZERO PUSH2 0xBE1 JUMPI DUP1 PUSH1 0x1F LT PUSH2 0xBB8 JUMPI PUSH2 0x100 DUP1 DUP4 SLOAD DIV MUL DUP4 MSTORE SWAP2 PUSH1 0x20 ADD SWAP2 PUSH2 0xBE1 JUMP JUMPDEST DUP3 ADD SWAP2 SWAP1 PUSH0 MSTORE PUSH1 0x20 PUSH0 KECCAK256 SWAP1 JUMPDEST DUP2 SLOAD DUP2 MSTORE SWAP1 PUSH1 0x1 ADD SWAP1 PUSH1 0x20 ADD DUP1 DUP4 GT PUSH2 0xBC4 JUMPI DUP3 SWAP1 SUB PUSH1 0x1F AND DUP3 ADD SWAP2 JUMPDEST POP POP POP POP POP DUP2 MSTORE PUSH1 0x20 ADD SWAP1 PUSH1 0x1 ADD SWAP1 PUSH2 0xB4D JUMP JUMPDEST POP POP POP POP DUP2 MSTORE POP POP DUP2 MSTORE PUSH1 0x20 ADD SWAP1 PUSH1 0x1 ADD SWAP1 PUSH2 0x9D5 JUMP JUMPDEST POP POP POP POP SWAP1 POP SWAP2 SWAP1 POP JUMP JUMPDEST PUSH0 PUSH1 0x46 PUSH2 0xC22 PUSH2 0xC37 JUMP JUMPDEST LT PUSH2 0xC30 JUMPI PUSH1 0x1 SWAP1 POP PUSH2 0xC34 JUMP JUMPDEST PUSH0 SWAP1 POP JUMPDEST SWAP1 JUMP JUMPDEST PUSH0 DUP1 PUSH0 JUMPDEST PUSH1 0x1 PUSH0 DUP1 SLOAD SWAP1 POP PUSH2 0xC4C SWAP2 SWAP1 PUSH2 0x14E9 JUMP JUMPDEST DUP2 LT ISZERO PUSH2 0xC76 JUMPI PUSH2 0xC5C DUP2 PUSH2 0x224 JUMP JUMPDEST DUP3 PUSH2 0xC67 SWAP2 SWAP1 PUSH2 0x14E9 JUMP JUMPDEST SWAP2 POP DUP1 DUP1 PUSH1 0x1 ADD SWAP2 POP POP PUSH2 0xC3B JUMP JUMPDEST PUSH0 DUP1 SLOAD SWAP1 POP DUP3 PUSH2 0xC86 SWAP2 SWAP1 PUSH2 0x17B5 JUMP JUMPDEST SWAP3 POP POP POP SWAP1 JUMP JUMPDEST PUSH0 DUP1 DUP1 SLOAD SWAP1 POP SWAP1 POP SWAP1 JUMP JUMPDEST DUP3 DUP1 SLOAD DUP3 DUP3 SSTORE SWAP1 PUSH0 MSTORE PUSH1 0x20 PUSH0 KECCAK256 SWAP1 DUP2 ADD SWAP3 DUP3 ISZERO PUSH2 0xCDE JUMPI SWAP2 PUSH1 0x20 MUL DUP3 ADD JUMPDEST DUP3 DUP2 GT ISZERO PUSH2 0xCDD JUMPI DUP3 MLOAD DUP3 SWAP1 DUP2 PUSH2 0xCCD SWAP2 SWAP1 PUSH2 0x16B9 JUMP JUMPDEST POP SWAP2 PUSH1 0x20 ADD SWAP2 SWAP1 PUSH1 0x1 ADD SWAP1 PUSH2 0xCB6 JUMP JUMPDEST JUMPDEST POP SWAP1 POP PUSH2 0xCEB SWAP2 SWAP1 PUSH2 0xCEF JUMP JUMPDEST POP SWAP1 JUMP JUMPDEST JUMPDEST DUP1 DUP3 GT ISZERO PUSH2 0xD0E JUMPI PUSH0 DUP2 DUP2 PUSH2 0xD05 SWAP2 SWAP1 PUSH2 0xD12 JUMP JUMPDEST POP PUSH1 0x1 ADD PUSH2 0xCF0 JUMP JUMPDEST POP SWAP1 JUMP JUMPDEST POP DUP1 SLOAD PUSH2 0xD1E SWAP1 PUSH2 0x143C JUMP JUMPDEST PUSH0 DUP3 SSTORE DUP1 PUSH1 0x1F LT PUSH2 0xD2F JUMPI POP PUSH2 0xD4C JUMP JUMPDEST PUSH1 0x1F ADD PUSH1 0x20 SWAP1 DIV SWAP1 PUSH0 MSTORE PUSH1 0x20 PUSH0 KECCAK256 SWAP1 DUP2 ADD SWAP1 PUSH2 0xD4B SWAP2 SWAP1 PUSH2 0xD4F JUMP JUMPDEST JUMPDEST POP JUMP JUMPDEST JUMPDEST DUP1 DUP3 GT ISZERO PUSH2 0xD66 JUMPI PUSH0 DUP2 PUSH0 SWAP1 SSTORE POP PUSH1 0x1 ADD PUSH2 0xD50 JUMP JUMPDEST POP SWAP1 JUMP JUMPDEST PUSH0 PUSH1 0x40 MLOAD SWAP1 POP SWAP1 JUMP JUMPDEST PUSH0 DUP1 REVERT JUMPDEST PUSH0 DUP1 REVERT JUMPDEST PUSH0 DUP2 SWAP1 POP SWAP2 SWAP1 POP JUMP JUMPDEST PUSH2 0xD8D DUP2 PUSH2 0xD7B JUMP JUMPDEST DUP2 EQ PUSH2 0xD97 JUMPI PUSH0 DUP1 REVERT JUMPDEST POP JUMP JUMPDEST PUSH0 DUP2 CALLDATALOAD SWAP1 POP PUSH2 0xDA8 DUP2 PUSH2 0xD84 JUMP JUMPDEST SWAP3 SWAP2 POP POP JUMP JUMPDEST PUSH0 PUSH1 0x20 DUP3 DUP5 SUB SLT ISZERO PUSH2 0xDC3 JUMPI PUSH2 0xDC2 PUSH2 0xD73 JUMP JUMPDEST JUMPDEST PUSH0 PUSH2 0xDD0 DUP5 DUP3 DUP6 ADD PUSH2 0xD9A JUMP JUMPDEST SWAP2 POP POP SWAP3 SWAP2 POP POP JUMP JUMPDEST PUSH2 0xDE2 DUP2 PUSH2 0xD7B JUMP JUMPDEST DUP3 MSTORE POP POP JUMP JUMPDEST PUSH0 PUSH1 0x20 DUP3 ADD SWAP1 POP PUSH2 0xDFB PUSH0 DUP4 ADD DUP5 PUSH2 0xDD9 JUMP JUMPDEST SWAP3 SWAP2 POP POP JUMP JUMPDEST PUSH0 DUP2 MLOAD SWAP1 POP SWAP2 SWAP1 POP JUMP JUMPDEST PUSH0 DUP3 DUP3 MSTORE PUSH1 0x20 DUP3 ADD SWAP1 POP SWAP3 SWAP2 POP POP JUMP JUMPDEST PUSH0 DUP2 SWAP1 POP PUSH1 0x20 DUP3 ADD SWAP1 POP SWAP2 SWAP1 POP JUMP JUMPDEST PUSH0 DUP2 MLOAD SWAP1 POP SWAP2 SWAP1 POP JUMP JUMPDEST PUSH0 DUP3 DUP3 MSTORE PUSH1 0x20 DUP3 ADD SWAP1 POP SWAP3 SWAP2 POP POP JUMP JUMPDEST DUP3 DUP2 DUP4 MCOPY PUSH0 DUP4 DUP4 ADD MSTORE POP POP POP JUMP JUMPDEST PUSH0 PUSH1 0x1F NOT PUSH1 0x1F DUP4 ADD AND SWAP1 POP SWAP2 SWAP1 POP JUMP JUMPDEST PUSH0 PUSH2 0xE6C DUP3 PUSH2 0xE2A JUMP JUMPDEST PUSH2 0xE76 DUP2 DUP6 PUSH2 0xE34 JUMP JUMPDEST SWAP4 POP PUSH2 0xE86 DUP2 DUP6 PUSH1 0x20 DUP7 ADD PUSH2 0xE44 JUMP JUMPDEST PUSH2 0xE8F DUP2 PUSH2 0xE52 JUMP JUMPDEST DUP5 ADD SWAP2 POP POP SWAP3 SWAP2 POP POP JUMP JUMPDEST PUSH2 0xEA3 DUP2 PUSH2 0xD7B JUMP JUMPDEST DUP3 MSTORE POP POP JUMP JUMPDEST PUSH0 DUP2 MLOAD SWAP1 POP SWAP2 SWAP1 POP JUMP JUMPDEST PUSH0 DUP3 DUP3 MSTORE PUSH1 0x20 DUP3 ADD SWAP1 POP SWAP3 SWAP2 POP POP JUMP JUMPDEST PUSH0 DUP2 SWAP1 POP PUSH1 0x20 DUP3 ADD SWAP1 POP SWAP2 SWAP1 POP JUMP JUMPDEST PUSH0 PUSH2 0xEDD DUP4 DUP4 PUSH2 0xE62 JUMP JUMPDEST SWAP1 POP SWAP3 SWAP2 POP POP JUMP JUMPDEST PUSH0 PUSH1 0x20 DUP3 ADD SWAP1 POP SWAP2 SWAP1 POP JUMP JUMPDEST PUSH0 PUSH2 0xEFB DUP3 PUSH2 0xEA9 JUMP JUMPDEST PUSH2 0xF05 DUP2 DUP6 PUSH2 0xEB3 JUMP JUMPDEST SWAP4 POP DUP4 PUSH1 0x20 DUP3 MUL DUP6 ADD PUSH2 0xF17 DUP6 PUSH2 0xEC3 JUMP JUMPDEST DUP1 PUSH0 JUMPDEST DUP6 DUP2 LT ISZERO PUSH2 0xF52 JUMPI DUP5 DUP5 SUB DUP10 MSTORE DUP2 MLOAD PUSH2 0xF33 DUP6 DUP3 PUSH2 0xED2 JUMP JUMPDEST SWAP5 POP PUSH2 0xF3E DUP4 PUSH2 0xEE5 JUMP JUMPDEST SWAP3 POP PUSH1 0x20 DUP11 ADD SWAP10 POP POP PUSH1 0x1 DUP2 ADD SWAP1 POP PUSH2 0xF1A JUMP JUMPDEST POP DUP3 SWAP8 POP DUP8 SWAP6 POP POP POP POP POP POP SWAP3 SWAP2 POP POP JUMP JUMPDEST PUSH0 PUSH1 0xA0 DUP4 ADD PUSH0 DUP4 ADD MLOAD DUP5 DUP3 SUB PUSH0 DUP7 ADD MSTORE PUSH2 0xF7E DUP3 DUP3 PUSH2 0xE62 JUMP JUMPDEST SWAP2 POP POP PUSH1 0x20 DUP4 ADD MLOAD PUSH2 0xF93 PUSH1 0x20 DUP7 ADD DUP3 PUSH2 0xE9A JUMP JUMPDEST POP PUSH1 0x40 DUP4 ADD MLOAD PUSH2 0xFA6 PUSH1 0x40 DUP7 ADD DUP3 PUSH2 0xE9A JUMP JUMPDEST POP PUSH1 0x60 DUP4 ADD MLOAD DUP5 DUP3 SUB PUSH1 0x60 DUP7 ADD MSTORE PUSH2 0xFBE DUP3 DUP3 PUSH2 0xE62 JUMP JUMPDEST SWAP2 POP POP PUSH1 0x80 DUP4 ADD MLOAD DUP5 DUP3 SUB PUSH1 0x80 DUP7 ADD MSTORE PUSH2 0xFD8 DUP3 DUP3 PUSH2 0xEF1 JUMP JUMPDEST SWAP2 POP POP DUP1 SWAP2 POP POP SWAP3 SWAP2 POP POP JUMP JUMPDEST PUSH0 PUSH2 0xFF0 DUP4 DUP4 PUSH2 0xF64 JUMP JUMPDEST SWAP1 POP SWAP3 SWAP2 POP POP JUMP JUMPDEST PUSH0 PUSH1 0x20 DUP3 ADD SWAP1 POP SWAP2 SWAP1 POP JUMP JUMPDEST PUSH0 PUSH2 0x100E DUP3 PUSH2 0xE01 JUMP JUMPDEST PUSH2 0x1018 DUP2 DUP6 PUSH2 0xE0B JUMP JUMPDEST SWAP4 POP DUP4 PUSH1 0x20 DUP3 MUL DUP6 ADD PUSH2 0x102A DUP6 PUSH2 0xE1B JUMP JUMPDEST DUP1 PUSH0 JUMPDEST DUP6 DUP2 LT ISZERO PUSH2 0x1065 JUMPI DUP5 DUP5 SUB DUP10 MSTORE DUP2 MLOAD PUSH2 0x1046 DUP6 DUP3 PUSH2 0xFE5 JUMP JUMPDEST SWAP5 POP PUSH2 0x1051 DUP4 PUSH2 0xFF8 JUMP JUMPDEST SWAP3 POP PUSH1 0x20 DUP11 ADD SWAP10 POP POP PUSH1 0x1 DUP2 ADD SWAP1 POP PUSH2 0x102D JUMP JUMPDEST POP DUP3 SWAP8 POP DUP8 SWAP6 POP POP POP POP POP POP SWAP3 SWAP2 POP POP JUMP JUMPDEST PUSH0 PUSH1 0x20 DUP3 ADD SWAP1 POP DUP2 DUP2 SUB PUSH0 DUP4 ADD MSTORE PUSH2 0x108F DUP2 DUP5 PUSH2 0x1004 JUMP JUMPDEST SWAP1 POP SWAP3 SWAP2 POP POP JUMP JUMPDEST PUSH0 DUP1 REVERT JUMPDEST PUSH0 DUP1 REVERT JUMPDEST PUSH32 0x4E487B7100000000000000000000000000000000000000000000000000000000 PUSH0 MSTORE PUSH1 0x41 PUSH1 0x4 MSTORE PUSH1 0x24 PUSH0 REVERT JUMPDEST PUSH2 0x10D5 DUP3 PUSH2 0xE52 JUMP JUMPDEST DUP2 ADD DUP2 DUP2 LT PUSH8 0xFFFFFFFFFFFFFFFF DUP3 GT OR ISZERO PUSH2 0x10F4 JUMPI PUSH2 0x10F3 PUSH2 0x109F JUMP JUMPDEST JUMPDEST DUP1 PUSH1 0x40 MSTORE POP POP POP JUMP JUMPDEST PUSH0 PUSH2 0x1106 PUSH2 0xD6A JUMP JUMPDEST SWAP1 POP PUSH2 0x1112 DUP3 DUP3 PUSH2 0x10CC JUMP JUMPDEST SWAP2 SWAP1 POP JUMP JUMPDEST PUSH0 PUSH8 0xFFFFFFFFFFFFFFFF DUP3 GT ISZERO PUSH2 0x1131 JUMPI PUSH2 0x1130 PUSH2 0x109F JUMP JUMPDEST JUMPDEST PUSH2 0x113A DUP3 PUSH2 0xE52 JUMP JUMPDEST SWAP1 POP PUSH1 0x20 DUP2 ADD SWAP1 POP SWAP2 SWAP1 POP JUMP JUMPDEST DUP3 DUP2 DUP4 CALLDATACOPY PUSH0 DUP4 DUP4 ADD MSTORE POP POP POP JUMP JUMPDEST PUSH0 PUSH2 0x1167 PUSH2 0x1162 DUP5 PUSH2 0x1117 JUMP JUMPDEST PUSH2 0x10FD JUMP JUMPDEST SWAP1 POP DUP3 DUP2 MSTORE PUSH1 0x20 DUP2 ADD DUP5 DUP5 DUP5 ADD GT ISZERO PUSH2 0x1183 JUMPI PUSH2 0x1182 PUSH2 0x109B JUMP JUMPDEST JUMPDEST PUSH2 0x118E DUP5 DUP3 DUP6 PUSH2 0x1147 JUMP JUMPDEST POP SWAP4 SWAP3 POP POP POP JUMP JUMPDEST PUSH0 DUP3 PUSH1 0x1F DUP4 ADD SLT PUSH2 0x11AA JUMPI PUSH2 0x11A9 PUSH2 0x1097 JUMP JUMPDEST JUMPDEST DUP2 CALLDATALOAD PUSH2 0x11BA DUP5 DUP3 PUSH1 0x20 DUP7 ADD PUSH2 0x1155 JUMP JUMPDEST SWAP2 POP POP SWAP3 SWAP2 POP POP JUMP JUMPDEST PUSH0 PUSH1 0x20 DUP3 DUP5 SUB SLT ISZERO PUSH2 0x11D8 JUMPI PUSH2 0x11D7 PUSH2 0xD73 JUMP JUMPDEST JUMPDEST PUSH0 DUP3 ADD CALLDATALOAD PUSH8 0xFFFFFFFFFFFFFFFF DUP2 GT ISZERO PUSH2 0x11F5 JUMPI PUSH2 0x11F4 PUSH2 0xD77 JUMP JUMPDEST JUMPDEST PUSH2 0x1201 DUP5 DUP3 DUP6 ADD PUSH2 0x1196 JUMP JUMPDEST SWAP2 POP POP SWAP3 SWAP2 POP POP JUMP JUMPDEST PUSH0 DUP3 DUP3 MSTORE PUSH1 0x20 DUP3 ADD SWAP1 POP SWAP3 SWAP2 POP POP JUMP JUMPDEST PUSH0 PUSH2 0x1224 DUP3 PUSH2 0xE2A JUMP JUMPDEST PUSH2 0x122E DUP2 DUP6 PUSH2 0x120A JUMP JUMPDEST SWAP4 POP PUSH2 0x123E DUP2 DUP6 PUSH1 0x20 DUP7 ADD PUSH2 0xE44 JUMP JUMPDEST PUSH2 0x1247 DUP2 PUSH2 0xE52 JUMP JUMPDEST DUP5 ADD SWAP2 POP POP SWAP3 SWAP2 POP POP JUMP JUMPDEST PUSH0 PUSH1 0x20 DUP3 ADD SWAP1 POP DUP2 DUP2 SUB PUSH0 DUP4 ADD MSTORE PUSH2 0x126A DUP2 DUP5 PUSH2 0x121A JUMP JUMPDEST SWAP1 POP SWAP3 SWAP2 POP POP JUMP JUMPDEST PUSH0 PUSH8 0xFFFFFFFFFFFFFFFF DUP3 GT ISZERO PUSH2 0x128C JUMPI PUSH2 0x128B PUSH2 0x109F JUMP JUMPDEST JUMPDEST PUSH1 0x20 DUP3 MUL SWAP1 POP PUSH1 0x20 DUP2 ADD SWAP1 POP SWAP2 SWAP1 POP JUMP JUMPDEST PUSH0 DUP1 REVERT JUMPDEST PUSH0 PUSH2 0x12B3 PUSH2 0x12AE DUP5 PUSH2 0x1272 JUMP JUMPDEST PUSH2 0x10FD JUMP JUMPDEST SWAP1 POP DUP1 DUP4 DUP3 MSTORE PUSH1 0x20 DUP3 ADD SWAP1 POP PUSH1 0x20 DUP5 MUL DUP4 ADD DUP6 DUP2 GT ISZERO PUSH2 0x12D6 JUMPI PUSH2 0x12D5 PUSH2 0x129D JUMP JUMPDEST JUMPDEST DUP4 JUMPDEST DUP2 DUP2 LT ISZERO PUSH2 0x131D JUMPI DUP1 CALLDATALOAD PUSH8 0xFFFFFFFFFFFFFFFF DUP2 GT ISZERO PUSH2 0x12FB JUMPI PUSH2 0x12FA PUSH2 0x1097 JUMP JUMPDEST JUMPDEST DUP1 DUP7 ADD PUSH2 0x1308 DUP10 DUP3 PUSH2 0x1196 JUMP JUMPDEST DUP6 MSTORE PUSH1 0x20 DUP6 ADD SWAP5 POP POP POP PUSH1 0x20 DUP2 ADD SWAP1 POP PUSH2 0x12D8 JUMP JUMPDEST POP POP POP SWAP4 SWAP3 POP POP POP JUMP JUMPDEST PUSH0 DUP3 PUSH1 0x1F DUP4 ADD SLT PUSH2 0x133B JUMPI PUSH2 0x133A PUSH2 0x1097 JUMP JUMPDEST JUMPDEST DUP2 CALLDATALOAD PUSH2 0x134B DUP5 DUP3 PUSH1 0x20 DUP7 ADD PUSH2 0x12A1 JUMP JUMPDEST SWAP2 POP POP SWAP3 SWAP2 POP POP JUMP JUMPDEST PUSH0 DUP1 PUSH0 PUSH1 0x60 DUP5 DUP7 SUB SLT ISZERO PUSH2 0x136B JUMPI PUSH2 0x136A PUSH2 0xD73 JUMP JUMPDEST JUMPDEST PUSH0 DUP5 ADD CALLDATALOAD PUSH8 0xFFFFFFFFFFFFFFFF DUP2 GT ISZERO PUSH2 0x1388 JUMPI PUSH2 0x1387 PUSH2 0xD77 JUMP JUMPDEST JUMPDEST PUSH2 0x1394 DUP7 DUP3 DUP8 ADD PUSH2 0x1196 JUMP JUMPDEST SWAP4 POP POP PUSH1 0x20 PUSH2 0x13A5 DUP7 DUP3 DUP8 ADD PUSH2 0xD9A JUMP JUMPDEST SWAP3 POP POP PUSH1 0x40 DUP5 ADD CALLDATALOAD PUSH8 0xFFFFFFFFFFFFFFFF DUP2 GT ISZERO PUSH2 0x13C6 JUMPI PUSH2 0x13C5 PUSH2 0xD77 JUMP JUMPDEST JUMPDEST PUSH2 0x13D2 DUP7 DUP3 DUP8 ADD PUSH2 0x1327 JUMP JUMPDEST SWAP2 POP POP SWAP3 POP SWAP3 POP SWAP3 JUMP JUMPDEST PUSH0 DUP2 ISZERO ISZERO SWAP1 POP SWAP2 SWAP1 POP JUMP JUMPDEST PUSH2 0x13F0 DUP2 PUSH2 0x13DC JUMP JUMPDEST DUP3 MSTORE POP POP JUMP JUMPDEST PUSH0 PUSH1 0x20 DUP3 ADD SWAP1 POP PUSH2 0x1409 PUSH0 DUP4 ADD DUP5 PUSH2 0x13E7 JUMP JUMPDEST SWAP3 SWAP2 POP POP JUMP JUMPDEST PUSH32 0x4E487B7100000000000000000000000000000000000000000000000000000000 PUSH0 MSTORE PUSH1 0x22 PUSH1 0x4 MSTORE PUSH1 0x24 PUSH0 REVERT JUMPDEST PUSH0 PUSH1 0x2 DUP3 DIV SWAP1 POP PUSH1 0x1 DUP3 AND DUP1 PUSH2 0x1453 JUMPI PUSH1 0x7F DUP3 AND SWAP2 POP JUMPDEST PUSH1 0x20 DUP3 LT DUP2 SUB PUSH2 0x1466 JUMPI PUSH2 0x1465 PUSH2 0x140F JUMP JUMPDEST JUMPDEST POP SWAP2 SWAP1 POP JUMP JUMPDEST PUSH0 DUP2 SWAP1 POP SWAP3 SWAP2 POP POP JUMP JUMPDEST PUSH0 PUSH2 0x1480 DUP3 PUSH2 0xE2A JUMP JUMPDEST PUSH2 0x148A DUP2 DUP6 PUSH2 0x146C JUMP JUMPDEST SWAP4 POP PUSH2 0x149A DUP2 DUP6 PUSH1 0x20 DUP7 ADD PUSH2 0xE44 JUMP JUMPDEST DUP1 DUP5 ADD SWAP2 POP POP SWAP3 SWAP2 POP POP JUMP JUMPDEST PUSH0 PUSH2 0x14B1 DUP3 DUP5 PUSH2 0x1476 JUMP JUMPDEST SWAP2 POP DUP2 SWAP1 POP SWAP3 SWAP2 POP POP JUMP JUMPDEST PUSH32 0x4E487B7100000000000000000000000000000000000000000000000000000000 PUSH0 MSTORE PUSH1 0x11 PUSH1 0x4 MSTORE PUSH1 0x24 PUSH0 REVERT JUMPDEST PUSH0 PUSH2 0x14F3 DUP3 PUSH2 0xD7B JUMP JUMPDEST SWAP2 POP PUSH2 0x14FE DUP4 PUSH2 0xD7B JUMP JUMPDEST SWAP3 POP DUP3 DUP3 ADD SWAP1 POP DUP1 DUP3 GT ISZERO PUSH2 0x1516 JUMPI PUSH2 0x1515 PUSH2 0x14BC JUMP JUMPDEST JUMPDEST SWAP3 SWAP2 POP POP JUMP JUMPDEST PUSH0 DUP2 SWAP1 POP DUP2 PUSH0 MSTORE PUSH1 0x20 PUSH0 KECCAK256 SWAP1 POP SWAP2 SWAP1 POP JUMP JUMPDEST PUSH0 PUSH1 0x20 PUSH1 0x1F DUP4 ADD DIV SWAP1 POP SWAP2 SWAP1 POP JUMP JUMPDEST PUSH0 DUP3 DUP3 SHL SWAP1 POP SWAP3 SWAP2 POP POP JUMP JUMPDEST PUSH0 PUSH1 0x8 DUP4 MUL PUSH2 0x1578 PUSH32 0xFFFFFFFFFFFFFFFFFFFFFFFFFFFFFFFFFFFFFFFFFFFFFFFFFFFFFFFFFFFFFFFF DUP3 PUSH2 0x153D JUMP JUMPDEST PUSH2 0x1582 DUP7 DUP4 PUSH2 0x153D JUMP JUMPDEST SWAP6 POP DUP1 NOT DUP5 AND SWAP4 POP DUP1 DUP7 AND DUP5 OR SWAP3 POP POP POP SWAP4 SWAP3 POP POP POP JUMP JUMPDEST PUSH0 DUP2 SWAP1 POP SWAP2 SWAP1 POP JUMP JUMPDEST PUSH0 PUSH2 0x15BD PUSH2 0x15B8 PUSH2 0x15B3 DUP5 PUSH2 0xD7B JUMP JUMPDEST PUSH2 0x159A JUMP JUMPDEST PUSH2 0xD7B JUMP JUMPDEST SWAP1 POP SWAP2 SWAP1 POP JUMP JUMPDEST PUSH0 DUP2 SWAP1 POP SWAP2 SWAP1 POP JUMP JUMPDEST PUSH2 0x15D6 DUP4 PUSH2 0x15A3 JUMP JUMPDEST PUSH2 0x15EA PUSH2 0x15E2 DUP3 PUSH2 0x15C4 JUMP JUMPDEST DUP5 DUP5 SLOAD PUSH2 0x1549 JUMP JUMPDEST DUP3 SSTORE POP POP POP POP JUMP JUMPDEST PUSH0 SWAP1 JUMP JUMPDEST PUSH2 0x15FE PUSH2 0x15F2 JUMP JUMPDEST PUSH2 0x1609 DUP2 DUP5 DUP5 PUSH2 0x15CD JUMP JUMPDEST POP POP POP JUMP JUMPDEST JUMPDEST DUP2 DUP2 LT ISZERO PUSH2 0x162C JUMPI PUSH2 0x1621 PUSH0 DUP3 PUSH2 0x15F6 JUMP JUMPDEST PUSH1 0x1 DUP2 ADD SWAP1 POP PUSH2 0x160F JUMP JUMPDEST POP POP JUMP JUMPDEST PUSH1 0x1F DUP3 GT ISZERO PUSH2 0x1671 JUMPI PUSH2 0x1642 DUP2 PUSH2 0x151C JUMP JUMPDEST PUSH2 0x164B DUP5 PUSH2 0x152E JUMP JUMPDEST DUP2 ADD PUSH1 0x20 DUP6 LT ISZERO PUSH2 0x165A JUMPI DUP2 SWAP1 POP JUMPDEST PUSH2 0x166E PUSH2 0x1666 DUP6 PUSH2 0x152E JUMP JUMPDEST DUP4 ADD DUP3 PUSH2 0x160E JUMP JUMPDEST POP POP JUMPDEST POP POP POP JUMP JUMPDEST PUSH0 DUP3 DUP3 SHR SWAP1 POP SWAP3 SWAP2 POP POP JUMP JUMPDEST PUSH0 PUSH2 0x1691 PUSH0 NOT DUP5 PUSH1 0x8 MUL PUSH2 0x1676 JUMP JUMPDEST NOT DUP1 DUP4 AND SWAP2 POP POP SWAP3 SWAP2 POP POP JUMP JUMPDEST PUSH0 PUSH2 0x16A9 DUP4 DUP4 PUSH2 0x1682 JUMP JUMPDEST SWAP2 POP DUP3 PUSH1 0x2 MUL DUP3 OR SWAP1 POP SWAP3 SWAP2 POP POP JUMP JUMPDEST PUSH2 0x16C2 DUP3 PUSH2 0xE2A JUMP JUMPDEST PUSH8 0xFFFFFFFFFFFFFFFF DUP2 GT ISZERO PUSH2 0x16DB JUMPI PUSH2 0x16DA PUSH2 0x109F JUMP JUMPDEST JUMPDEST PUSH2 0x16E5 DUP3 SLOAD PUSH2 0x143C JUMP JUMPDEST PUSH2 0x16F0 DUP3 DUP3 DUP6 PUSH2 0x1630 JUMP JUMPDEST PUSH0 PUSH1 0x20 SWAP1 POP PUSH1 0x1F DUP4 GT PUSH1 0x1 DUP2 EQ PUSH2 0x1721 JUMPI PUSH0 DUP5 ISZERO PUSH2 0x170F JUMPI DUP3 DUP8 ADD MLOAD SWAP1 POP JUMPDEST PUSH2 0x1719 DUP6 DUP3 PUSH2 0x169E JUMP JUMPDEST DUP7 SSTORE POP PUSH2 0x1780 JUMP JUMPDEST PUSH1 0x1F NOT DUP5 AND PUSH2 0x172F DUP7 PUSH2 0x151C JUMP JUMPDEST PUSH0 JUMPDEST DUP3 DUP2 LT ISZERO PUSH2 0x1756 JUMPI DUP5 DUP10 ADD MLOAD DUP3 SSTORE PUSH1 0x1 DUP3 ADD SWAP2 POP PUSH1 0x20 DUP6 ADD SWAP5 POP PUSH1 0x20 DUP2 ADD SWAP1 POP PUSH2 0x1731 JUMP JUMPDEST DUP7 DUP4 LT ISZERO PUSH2 0x1773 JUMPI DUP5 DUP10 ADD MLOAD PUSH2 0x176F PUSH1 0x1F DUP10 AND DUP3 PUSH2 0x1682 JUMP JUMPDEST DUP4 SSTORE POP JUMPDEST PUSH1 0x1 PUSH1 0x2 DUP9 MUL ADD DUP9 SSTORE POP POP POP JUMPDEST POP POP POP POP POP POP JUMP JUMPDEST PUSH32 0x4E487B7100000000000000000000000000000000000000000000000000000000 PUSH0 MSTORE PUSH1 0x12 PUSH1 0x4 MSTORE PUSH1 0x24 PUSH0 REVERT JUMPDEST PUSH0 PUSH2 0x17BF DUP3 PUSH2 0xD7B JUMP JUMPDEST SWAP2 POP PUSH2 0x17CA DUP4 PUSH2 0xD7B JUMP JUMPDEST SWAP3 POP DUP3 PUSH2 0x17DA JUMPI PUSH2 0x17D9 PUSH2 0x1788 JUMP JUMPDEST JUMPDEST DUP3 DUP3 DIV SWAP1 POP SWAP3 SWAP2 POP POP JUMP INVALID LOG2 PUSH5 0x6970667358 0x22 SLT KECCAK256 0xDE GASLIMIT SUB MOD MUL PUSH16 0xEE3DBAB6CF1C6FD693053B213A76C7DA SGT 0xCD SWAP8 PUSH0 MCOPY 0xAB 0xD6 CODESIZE SHR 0xE8 PUSH5 0x736F6C6343 STOP ADDMOD BYTE STOP CALLER "
				},
				"gasEstimates": {
					"creation": {
						"codeDepositCost": "1234200",
						"executionCost": "1279",
						"totalCost": "1235479"
					},
					"external": {
						"Average()": "infinite",
						"getAllStudent()": "infinite",
						"getLength()": "2528",
						"getScore(string)": "infinite",
						"getScores(uint256)": "infinite",
						"getstudentName(string)": "infinite",
						"getstudentNum(uint256)": "infinite",
						"pushStudent(string,uint256,string[])": "infinite",
						"setGrade(uint256)": "infinite",
						"teach()": "infinite"
					}
				},
				"methodIdentifiers": {
					"Average()": "b36a31c6",
					"getAllStudent()": "133d0460",
					"getLength()": "be1c766b",
					"getScore(string)": "16020273",
					"getScores(uint256)": "04527d90",
					"getstudentName(string)": "a24746d8",
					"getstudentNum(uint256)": "1acb1542",
					"pushStudent(string,uint256,string[])": "74aa6858",
					"setGrade(uint256)": "674271cd",
					"teach()": "b30039fc"
				}
			},
			"storageLayout": {
				"storage": [
					{
						"astId": 17,
						"contract": "Coding test/test1.sol:TEST1",
						"label": "Students",
						"offset": 0,
						"slot": "0",
						"type": "t_array(t_struct(student)13_storage)dyn_storage"
					},
					{
						"astId": 106,
						"contract": "Coding test/test1.sol:TEST1",
						"label": "students1",
						"offset": 0,
						"slot": "1",
						"type": "t_mapping(t_string_memory_ptr,t_array(t_struct(student)13_storage)dyn_storage)"
					},
					{
						"astId": 112,
						"contract": "Coding test/test1.sol:TEST1",
						"label": "students2",
						"offset": 0,
						"slot": "2",
						"type": "t_mapping(t_uint256,t_array(t_struct(student)13_storage)dyn_storage)"
					},
					{
						"astId": 117,
						"contract": "Coding test/test1.sol:TEST1",
						"label": "students3",
						"offset": 0,
						"slot": "3",
						"type": "t_mapping(t_string_memory_ptr,t_struct(student)13_storage)"
					},
					{
						"astId": 122,
						"contract": "Coding test/test1.sol:TEST1",
						"label": "students4",
						"offset": 0,
						"slot": "4",
						"type": "t_mapping(t_uint256,t_struct(student)13_storage)"
					}
				],
				"types": {
					"t_array(t_string_storage)dyn_storage": {
						"base": "t_string_storage",
						"encoding": "dynamic_array",
						"label": "string[]",
						"numberOfBytes": "32"
					},
					"t_array(t_struct(student)13_storage)dyn_storage": {
						"base": "t_struct(student)13_storage",
						"encoding": "dynamic_array",
						"label": "struct TEST1.student[]",
						"numberOfBytes": "32"
					},
					"t_mapping(t_string_memory_ptr,t_array(t_struct(student)13_storage)dyn_storage)": {
						"encoding": "mapping",
						"key": "t_string_memory_ptr",
						"label": "mapping(string => struct TEST1.student[])",
						"numberOfBytes": "32",
						"value": "t_array(t_struct(student)13_storage)dyn_storage"
					},
					"t_mapping(t_string_memory_ptr,t_struct(student)13_storage)": {
						"encoding": "mapping",
						"key": "t_string_memory_ptr",
						"label": "mapping(string => struct TEST1.student)",
						"numberOfBytes": "32",
						"value": "t_struct(student)13_storage"
					},
					"t_mapping(t_uint256,t_array(t_struct(student)13_storage)dyn_storage)": {
						"encoding": "mapping",
						"key": "t_uint256",
						"label": "mapping(uint256 => struct TEST1.student[])",
						"numberOfBytes": "32",
						"value": "t_array(t_struct(student)13_storage)dyn_storage"
					},
					"t_mapping(t_uint256,t_struct(student)13_storage)": {
						"encoding": "mapping",
						"key": "t_uint256",
						"label": "mapping(uint256 => struct TEST1.student)",
						"numberOfBytes": "32",
						"value": "t_struct(student)13_storage"
					},
					"t_string_memory_ptr": {
						"encoding": "bytes",
						"label": "string",
						"numberOfBytes": "32"
					},
					"t_string_storage": {
						"encoding": "bytes",
						"label": "string",
						"numberOfBytes": "32"
					},
					"t_struct(student)13_storage": {
						"encoding": "inplace",
						"label": "struct TEST1.student",
						"members": [
							{
								"astId": 3,
								"contract": "Coding test/test1.sol:TEST1",
								"label": "name",
								"offset": 0,
								"slot": "0",
								"type": "t_string_storage"
							},
							{
								"astId": 5,
								"contract": "Coding test/test1.sol:TEST1",
								"label": "num",
								"offset": 0,
								"slot": "1",
								"type": "t_uint256"
							},
							{
								"astId": 7,
								"contract": "Coding test/test1.sol:TEST1",
								"label": "score",
								"offset": 0,
								"slot": "2",
								"type": "t_uint256"
							},
							{
								"astId": 9,
								"contract": "Coding test/test1.sol:TEST1",
								"label": "grade",
								"offset": 0,
								"slot": "3",
								"type": "t_string_storage"
							},
							{
								"astId": 12,
								"contract": "Coding test/test1.sol:TEST1",
								"label": "class",
								"offset": 0,
								"slot": "4",
								"type": "t_array(t_string_storage)dyn_storage"
							}
						],
						"numberOfBytes": "160"
					},
					"t_uint256": {
						"encoding": "inplace",
						"label": "uint256",
						"numberOfBytes": "32"
					}
				}
			},
			"userdoc": {
				"kind": "user",
				"methods": {},
				"version": 1
			}
		}
	}
}