{
	"Coding test/test1.sol": {
		"TEST2": {
			"abi": [
				{
					"inputs": [],
					"name": "getAllStudent",
					"outputs": [
						{
							"components": [
								{
									"internalType": "string",
									"name": "name",
									"type": "string"
								},
								{
									"internalType": "uint256",
									"name": "num",
									"type": "uint256"
								},
								{
									"internalType": "uint256",
									"name": "score",
									"type": "uint256"
								},
								{
									"internalType": "string",
									"name": "grade",
									"type": "string"
								},
								{
									"internalType": "string[]",
									"name": "class",
									"type": "string[]"
								}
							],
							"internalType": "struct TEST2.student[]",
							"name": "",
							"type": "tuple[]"
						}
					],
					"stateMutability": "view",
					"type": "function"
				},
				{
					"inputs": [],
					"name": "getLength",
					"outputs": [
						{
							"internalType": "uint256",
							"name": "",
							"type": "uint256"
						}
					],
					"stateMutability": "view",
					"type": "function"
				},
				{
					"inputs": [
						{
							"internalType": "uint256",
							"name": "_num",
							"type": "uint256"
						}
					],
					"name": "getstudent",
					"outputs": [
						{
							"components": [
								{
									"internalType": "string",
									"name": "name",
									"type": "string"
								},
								{
									"internalType": "uint256",
									"name": "num",
									"type": "uint256"
								},
								{
									"internalType": "uint256",
									"name": "score",
									"type": "uint256"
								},
								{
									"internalType": "string",
									"name": "grade",
									"type": "string"
								},
								{
									"internalType": "string[]",
									"name": "class",
									"type": "string[]"
								}
							],
							"internalType": "struct TEST2.student[]",
							"name": "",
							"type": "tuple[]"
						}
					],
					"stateMutability": "view",
					"type": "function"
				},
				{
					"inputs": [
						{
							"internalType": "string",
							"name": "_name",
							"type": "string"
						}
					],
					"name": "getstudent",
					"outputs": [
						{
							"components": [
								{
									"internalType": "string",
									"name": "name",
									"type": "string"
								},
								{
									"internalType": "uint256",
									"name": "num",
									"type": "uint256"
								},
								{
									"internalType": "uint256",
									"name": "score",
									"type": "uint256"
								},
								{
									"internalType": "string",
									"name": "grade",
									"type": "string"
								},
								{
									"internalType": "string[]",
									"name": "class",
									"type": "string[]"
								}
							],
							"internalType": "struct TEST2.student[]",
							"name": "",
							"type": "tuple[]"
						}
					],
					"stateMutability": "view",
					"type": "function"
				},
				{
					"inputs": [
						{
							"internalType": "string",
							"name": "_name",
							"type": "string"
						},
						{
							"internalType": "uint256",
							"name": "_num",
							"type": "uint256"
						},
						{
							"internalType": "uint256",
							"name": "_score",
							"type": "uint256"
						},
						{
							"internalType": "string[]",
							"name": "_class",
							"type": "string[]"
						}
					],
					"name": "pushStudent",
					"outputs": [],
					"stateMutability": "nonpayable",
					"type": "function"
				},
				{
					"inputs": [
						{
							"internalType": "uint256",
							"name": "_score",
							"type": "uint256"
						}
					],
					"name": "setGrade",
					"outputs": [
						{
							"internalType": "string",
							"name": "",
							"type": "string"
						}
					],
					"stateMutability": "pure",
					"type": "function"
				}
			],
			"devdoc": {
				"kind": "dev",
				"methods": {},
				"version": 1
			},
			"evm": {
				"assembly": "    /* \"Coding test/test1.sol\":76:3360  contract TEST2 {... */\n  mstore(0x40, 0x80)\n  callvalue\n  dup1\n  iszero\n  tag_1\n  jumpi\n  0x00\n  dup1\n  revert\ntag_1:\n  pop\n  dataSize(sub_0)\n  dup1\n  dataOffset(sub_0)\n  0x00\n  codecopy\n  0x00\n  return\nstop\n\nsub_0: assembly {\n        /* \"Coding test/test1.sol\":76:3360  contract TEST2 {... */\n      mstore(0x40, 0x80)\n      callvalue\n      dup1\n      iszero\n      tag_1\n      jumpi\n      0x00\n      dup1\n      revert\n    tag_1:\n      pop\n      jumpi(tag_2, lt(calldatasize, 0x04))\n      shr(0xe0, calldataload(0x00))\n      dup1\n      0x133d0460\n      eq\n      tag_3\n      jumpi\n      dup1\n      0x674271cd\n      eq\n      tag_4\n      jumpi\n      dup1\n      0x84a1288d\n      eq\n      tag_5\n      jumpi\n      dup1\n      0xb0f3bdc2\n      eq\n      tag_6\n      jumpi\n      dup1\n      0xbe1c766b\n      eq\n      tag_7\n      jumpi\n      dup1\n      0xcd5b84eb\n      eq\n      tag_8\n      jumpi\n    tag_2:\n      0x00\n      dup1\n      revert\n        /* \"Coding test/test1.sol\":3254:3351  function getAllStudent() public view returns(student[] memory) {... */\n    tag_3:\n      tag_9\n      tag_10\n      jump\t// in\n    tag_9:\n      mload(0x40)\n      tag_11\n      swap2\n      swap1\n      tag_12\n      jump\t// in\n    tag_11:\n      mload(0x40)\n      dup1\n      swap2\n      sub\n      swap1\n      return\n        /* \"Coding test/test1.sol\":2290:2728  function setGrade(uint _score) public pure returns(string memory){... */\n    tag_4:\n      tag_13\n      0x04\n      dup1\n      calldatasize\n      sub\n      dup2\n      add\n      swap1\n      tag_14\n      swap2\n      swap1\n      tag_15\n      jump\t// in\n    tag_14:\n      tag_16\n      jump\t// in\n    tag_13:\n      mload(0x40)\n      tag_17\n      swap2\n      swap1\n      tag_18\n      jump\t// in\n    tag_17:\n      mload(0x40)\n      dup1\n      swap2\n      sub\n      swap1\n      return\n        /* \"Coding test/test1.sol\":2097:2282  function pushStudent(string memory _name, uint _num, uint _score, string[] memory _class) public {... */\n    tag_5:\n      tag_19\n      0x04\n      dup1\n      calldatasize\n      sub\n      dup2\n      add\n      swap1\n      tag_20\n      swap2\n      swap1\n      tag_21\n      jump\t// in\n    tag_20:\n      tag_22\n      jump\t// in\n    tag_19:\n      stop\n        /* \"Coding test/test1.sol\":2826:2936  function getstudent(uint _num) public view returns(student[] memory) {... */\n    tag_6:\n      tag_23\n      0x04\n      dup1\n      calldatasize\n      sub\n      dup2\n      add\n      swap1\n      tag_24\n      swap2\n      swap1\n      tag_15\n      jump\t// in\n    tag_24:\n      tag_25\n      jump\t// in\n    tag_23:\n      mload(0x40)\n      tag_26\n      swap2\n      swap1\n      tag_12\n      jump\t// in\n    tag_26:\n      mload(0x40)\n      dup1\n      swap2\n      sub\n      swap1\n      return\n        /* \"Coding test/test1.sol\":3158:3246  function getLength() public view returns(uint) {... */\n    tag_7:\n      tag_27\n      tag_28\n      jump\t// in\n    tag_27:\n      mload(0x40)\n      tag_29\n      swap2\n      swap1\n      tag_30\n      jump\t// in\n    tag_29:\n      mload(0x40)\n      dup1\n      swap2\n      sub\n      swap1\n      return\n        /* \"Coding test/test1.sol\":2944:3065  function getstudent(string memory _name) public view returns(student[] memory) {... */\n    tag_8:\n      tag_31\n      0x04\n      dup1\n      calldatasize\n      sub\n      dup2\n      add\n      swap1\n      tag_32\n      swap2\n      swap1\n      tag_33\n      jump\t// in\n    tag_32:\n      tag_34\n      jump\t// in\n    tag_31:\n      mload(0x40)\n      tag_35\n      swap2\n      swap1\n      tag_12\n      jump\t// in\n    tag_35:\n      mload(0x40)\n      dup1\n      swap2\n      sub\n      swap1\n      return\n        /* \"Coding test/test1.sol\":3254:3351  function getAllStudent() public view returns(student[] memory) {... */\n    tag_10:\n        /* \"Coding test/test1.sol\":3299:3315  student[] memory */\n      0x60\n        /* \"Coding test/test1.sol\":3335:3343  Students */\n      0x05\n        /* \"Coding test/test1.sol\":3328:3343  return Students */\n      dup1\n      sload\n      dup1\n      0x20\n      mul\n      0x20\n      add\n      mload(0x40)\n      swap1\n      dup2\n      add\n      0x40\n      mstore\n      dup1\n      swap3\n      swap2\n      swap1\n      dup2\n      dup2\n      mstore\n      0x20\n      add\n      0x00\n      swap1\n    tag_37:\n      dup3\n      dup3\n      lt\n      iszero\n      tag_38\n      jumpi\n      dup4\n      dup3\n      swap1\n      0x00\n      mstore\n      keccak256(0x00, 0x20)\n      swap1\n      0x05\n      mul\n      add\n      mload(0x40)\n      dup1\n      0xa0\n      add\n      0x40\n      mstore\n      swap1\n      dup2\n      0x00\n      dup3\n      add\n      dup1\n      sload\n      tag_40\n      swap1\n      tag_41\n      jump\t// in\n    tag_40:\n      dup1\n      0x1f\n      add\n      0x20\n      dup1\n      swap2\n      div\n      mul\n      0x20\n      add\n      mload(0x40)\n      swap1\n      dup2\n      add\n      0x40\n      mstore\n      dup1\n      swap3\n      swap2\n      swap1\n      dup2\n      dup2\n      mstore\n      0x20\n      add\n      dup3\n      dup1\n      sload\n      tag_42\n      swap1\n      tag_41\n      jump\t// in\n    tag_42:\n      dup1\n      iszero\n      tag_43\n      jumpi\n      dup1\n      0x1f\n      lt\n      tag_44\n      jumpi\n      0x0100\n      dup1\n      dup4\n      sload\n      div\n      mul\n      dup4\n      mstore\n      swap2\n      0x20\n      add\n      swap2\n      jump(tag_43)\n    tag_44:\n      dup3\n      add\n      swap2\n      swap1\n      0x00\n      mstore\n      keccak256(0x00, 0x20)\n      swap1\n    tag_45:\n      dup2\n      sload\n      dup2\n      mstore\n      swap1\n      0x01\n      add\n      swap1\n      0x20\n      add\n      dup1\n      dup4\n      gt\n      tag_45\n      jumpi\n      dup3\n      swap1\n      sub\n      0x1f\n      and\n      dup3\n      add\n      swap2\n    tag_43:\n      pop\n      pop\n      pop\n      pop\n      pop\n      dup2\n      mstore\n      0x20\n      add\n      0x01\n      dup3\n      add\n      sload\n      dup2\n      mstore\n      0x20\n      add\n      0x02\n      dup3\n      add\n      sload\n      dup2\n      mstore\n      0x20\n      add\n      0x03\n      dup3\n      add\n      dup1\n      sload\n      tag_46\n      swap1\n      tag_41\n      jump\t// in\n    tag_46:\n      dup1\n      0x1f\n      add\n      0x20\n      dup1\n      swap2\n      div\n      mul\n      0x20\n      add\n      mload(0x40)\n      swap1\n      dup2\n      add\n      0x40\n      mstore\n      dup1\n      swap3\n      swap2\n      swap1\n      dup2\n      dup2\n      mstore\n      0x20\n      add\n      dup3\n      dup1\n      sload\n      tag_47\n      swap1\n      tag_41\n      jump\t// in\n    tag_47:\n      dup1\n      iszero\n      tag_48\n      jumpi\n      dup1\n      0x1f\n      lt\n      tag_49\n      jumpi\n      0x0100\n      dup1\n      dup4\n      sload\n      div\n      mul\n      dup4\n      mstore\n      swap2\n      0x20\n      add\n      swap2\n      jump(tag_48)\n    tag_49:\n      dup3\n      add\n      swap2\n      swap1\n      0x00\n      mstore\n      keccak256(0x00, 0x20)\n      swap1\n    tag_50:\n      dup2\n      sload\n      dup2\n      mstore\n      swap1\n      0x01\n      add\n      swap1\n      0x20\n      add\n      dup1\n      dup4\n      gt\n      tag_50\n      jumpi\n      dup3\n      swap1\n      sub\n      0x1f\n      and\n      dup3\n      add\n      swap2\n    tag_48:\n      pop\n      pop\n      pop\n      pop\n      pop\n      dup2\n      mstore\n      0x20\n      add\n      0x04\n      dup3\n      add\n      dup1\n      sload\n      dup1\n      0x20\n      mul\n      0x20\n      add\n      mload(0x40)\n      swap1\n      dup2\n      add\n      0x40\n      mstore\n      dup1\n      swap3\n      swap2\n      swap1\n      dup2\n      dup2\n      mstore\n      0x20\n      add\n      0x00\n      swap1\n    tag_51:\n      dup3\n      dup3\n      lt\n      iszero\n      tag_52\n      jumpi\n      dup4\n      dup3\n      swap1\n      0x00\n      mstore\n      keccak256(0x00, 0x20)\n      add\n      dup1\n      sload\n      tag_54\n      swap1\n      tag_41\n      jump\t// in\n    tag_54:\n      dup1\n      0x1f\n      add\n      0x20\n      dup1\n      swap2\n      div\n      mul\n      0x20\n      add\n      mload(0x40)\n      swap1\n      dup2\n      add\n      0x40\n      mstore\n      dup1\n      swap3\n      swap2\n      swap1\n      dup2\n      dup2\n      mstore\n      0x20\n      add\n      dup3\n      dup1\n      sload\n      tag_55\n      swap1\n      tag_41\n      jump\t// in\n    tag_55:\n      dup1\n      iszero\n      tag_56\n      jumpi\n      dup1\n      0x1f\n      lt\n      tag_57\n      jumpi\n      0x0100\n      dup1\n      dup4\n      sload\n      div\n      mul\n      dup4\n      mstore\n      swap2\n      0x20\n      add\n      swap2\n      jump(tag_56)\n    tag_57:\n      dup3\n      add\n      swap2\n      swap1\n      0x00\n      mstore\n      keccak256(0x00, 0x20)\n      swap1\n    tag_58:\n      dup2\n      sload\n      dup2\n      mstore\n      swap1\n      0x01\n      add\n      swap1\n      0x20\n      add\n      dup1\n      dup4\n      gt\n      tag_58\n      jumpi\n      dup3\n      swap1\n      sub\n      0x1f\n      and\n      dup3\n      add\n      swap2\n    tag_56:\n      pop\n      pop\n      pop\n      pop\n      pop\n      dup2\n      mstore\n      0x20\n      add\n      swap1\n      0x01\n      add\n      swap1\n      jump(tag_51)\n    tag_52:\n      pop\n      pop\n      pop\n      pop\n      dup2\n      mstore\n      pop\n      pop\n      dup2\n      mstore\n      0x20\n      add\n      swap1\n      0x01\n      add\n      swap1\n      jump(tag_37)\n    tag_38:\n      pop\n      pop\n      pop\n      pop\n      swap1\n      pop\n        /* \"Coding test/test1.sol\":3254:3351  function getAllStudent() public view returns(student[] memory) {... */\n      swap1\n      jump\t// out\n        /* \"Coding test/test1.sol\":2290:2728  function setGrade(uint _score) public pure returns(string memory){... */\n    tag_16:\n        /* \"Coding test/test1.sol\":2341:2354  string memory */\n      0x60\n        /* \"Coding test/test1.sol\":2381:2384  100 */\n      0x64\n        /* \"Coding test/test1.sol\":2371:2377  _score */\n      dup3\n        /* \"Coding test/test1.sol\":2371:2384  _score <= 100 */\n      gt\n      iszero\n        /* \"Coding test/test1.sol\":2371:2400  _score <= 100 && _score >= 90 */\n      dup1\n      iszero\n      tag_60\n      jumpi\n      pop\n        /* \"Coding test/test1.sol\":2398:2400  90 */\n      0x5a\n        /* \"Coding test/test1.sol\":2388:2394  _score */\n      dup3\n        /* \"Coding test/test1.sol\":2388:2400  _score >= 90 */\n      lt\n      iszero\n        /* \"Coding test/test1.sol\":2371:2400  _score <= 100 && _score >= 90 */\n    tag_60:\n        /* \"Coding test/test1.sol\":2366:2721  if ( _score <= 100 && _score >= 90 ) {... */\n      iszero\n      tag_61\n      jumpi\n        /* \"Coding test/test1.sol\":2418:2428  return \"A\" */\n      mload(0x40)\n      dup1\n      0x40\n      add\n      0x40\n      mstore\n      dup1\n      0x01\n      dup2\n      mstore\n      0x20\n      add\n      0x4100000000000000000000000000000000000000000000000000000000000000\n      dup2\n      mstore\n      pop\n      swap1\n      pop\n      jump(tag_59)\n        /* \"Coding test/test1.sol\":2366:2721  if ( _score <= 100 && _score >= 90 ) {... */\n    tag_61:\n        /* \"Coding test/test1.sol\":2460:2462  90 */\n      0x5a\n        /* \"Coding test/test1.sol\":2451:2457  _score */\n      dup3\n        /* \"Coding test/test1.sol\":2451:2462  _score < 90 */\n      lt\n        /* \"Coding test/test1.sol\":2451:2479  _score < 90  && _score >= 80 */\n      dup1\n      iszero\n      tag_63\n      jumpi\n      pop\n        /* \"Coding test/test1.sol\":2477:2479  80 */\n      0x50\n        /* \"Coding test/test1.sol\":2467:2473  _score */\n      dup3\n        /* \"Coding test/test1.sol\":2467:2479  _score >= 80 */\n      lt\n      iszero\n        /* \"Coding test/test1.sol\":2451:2479  _score < 90  && _score >= 80 */\n    tag_63:\n        /* \"Coding test/test1.sol\":2446:2721  if ( _score < 90  && _score >= 80 ) {... */\n      iszero\n      tag_64\n      jumpi\n        /* \"Coding test/test1.sol\":2497:2507  return \"B\" */\n      mload(0x40)\n      dup1\n      0x40\n      add\n      0x40\n      mstore\n      dup1\n      0x01\n      dup2\n      mstore\n      0x20\n      add\n      0x4200000000000000000000000000000000000000000000000000000000000000\n      dup2\n      mstore\n      pop\n      swap1\n      pop\n      jump(tag_59)\n        /* \"Coding test/test1.sol\":2446:2721  if ( _score < 90  && _score >= 80 ) {... */\n    tag_64:\n        /* \"Coding test/test1.sol\":2539:2541  80 */\n      0x50\n        /* \"Coding test/test1.sol\":2530:2536  _score */\n      dup3\n        /* \"Coding test/test1.sol\":2530:2541  _score < 80 */\n      lt\n        /* \"Coding test/test1.sol\":2530:2558  _score < 80  && _score >= 70 */\n      dup1\n      iszero\n      tag_66\n      jumpi\n      pop\n        /* \"Coding test/test1.sol\":2556:2558  70 */\n      0x46\n        /* \"Coding test/test1.sol\":2546:2552  _score */\n      dup3\n        /* \"Coding test/test1.sol\":2546:2558  _score >= 70 */\n      lt\n      iszero\n        /* \"Coding test/test1.sol\":2530:2558  _score < 80  && _score >= 70 */\n    tag_66:\n        /* \"Coding test/test1.sol\":2525:2721  if ( _score < 80  && _score >= 70 ) {... */\n      iszero\n      tag_67\n      jumpi\n        /* \"Coding test/test1.sol\":2576:2586  return \"C\" */\n      mload(0x40)\n      dup1\n      0x40\n      add\n      0x40\n      mstore\n      dup1\n      0x01\n      dup2\n      mstore\n      0x20\n      add\n      0x4300000000000000000000000000000000000000000000000000000000000000\n      dup2\n      mstore\n      pop\n      swap1\n      pop\n      jump(tag_59)\n        /* \"Coding test/test1.sol\":2525:2721  if ( _score < 80  && _score >= 70 ) {... */\n    tag_67:\n        /* \"Coding test/test1.sol\":2619:2621  70 */\n      0x46\n        /* \"Coding test/test1.sol\":2610:2616  _score */\n      dup3\n        /* \"Coding test/test1.sol\":2610:2621  _score < 70 */\n      lt\n        /* \"Coding test/test1.sol\":2610:2638  _score < 70  && _score >= 60 */\n      dup1\n      iszero\n      tag_69\n      jumpi\n      pop\n        /* \"Coding test/test1.sol\":2636:2638  60 */\n      0x3c\n        /* \"Coding test/test1.sol\":2626:2632  _score */\n      dup3\n        /* \"Coding test/test1.sol\":2626:2638  _score >= 60 */\n      lt\n      iszero\n        /* \"Coding test/test1.sol\":2610:2638  _score < 70  && _score >= 60 */\n    tag_69:\n        /* \"Coding test/test1.sol\":2604:2721  if  ( _score < 70  && _score >= 60 ) {... */\n      iszero\n      tag_70\n      jumpi\n        /* \"Coding test/test1.sol\":2656:2666  return \"D\" */\n      mload(0x40)\n      dup1\n      0x40\n      add\n      0x40\n      mstore\n      dup1\n      0x01\n      dup2\n      mstore\n      0x20\n      add\n      0x4400000000000000000000000000000000000000000000000000000000000000\n      dup2\n      mstore\n      pop\n      swap1\n      pop\n      jump(tag_59)\n        /* \"Coding test/test1.sol\":2604:2721  if  ( _score < 70  && _score >= 60 ) {... */\n    tag_70:\n        /* \"Coding test/test1.sol\":2699:2709  return \"F\" */\n      mload(0x40)\n      dup1\n      0x40\n      add\n      0x40\n      mstore\n      dup1\n      0x01\n      dup2\n      mstore\n      0x20\n      add\n      0x4600000000000000000000000000000000000000000000000000000000000000\n      dup2\n      mstore\n      pop\n      swap1\n      pop\n        /* \"Coding test/test1.sol\":2290:2728  function setGrade(uint _score) public pure returns(string memory){... */\n    tag_59:\n      swap2\n      swap1\n      pop\n      jump\t// out\n        /* \"Coding test/test1.sol\":2097:2282  function pushStudent(string memory _name, uint _num, uint _score, string[] memory _class) public {... */\n    tag_22:\n        /* \"Coding test/test1.sol\":2205:2213  Students */\n      0x05\n        /* \"Coding test/test1.sol\":2219:2273  student(_name, _num, _score, setGrade(_score), _class) */\n      mload(0x40)\n      dup1\n      0xa0\n      add\n      0x40\n      mstore\n      dup1\n        /* \"Coding test/test1.sol\":2227:2232  _name */\n      dup7\n        /* \"Coding test/test1.sol\":2219:2273  student(_name, _num, _score, setGrade(_score), _class) */\n      dup2\n      mstore\n      0x20\n      add\n        /* \"Coding test/test1.sol\":2234:2238  _num */\n      dup6\n        /* \"Coding test/test1.sol\":2219:2273  student(_name, _num, _score, setGrade(_score), _class) */\n      dup2\n      mstore\n      0x20\n      add\n        /* \"Coding test/test1.sol\":2240:2246  _score */\n      dup5\n        /* \"Coding test/test1.sol\":2219:2273  student(_name, _num, _score, setGrade(_score), _class) */\n      dup2\n      mstore\n      0x20\n      add\n        /* \"Coding test/test1.sol\":2248:2264  setGrade(_score) */\n      tag_73\n        /* \"Coding test/test1.sol\":2257:2263  _score */\n      dup6\n        /* \"Coding test/test1.sol\":2248:2256  setGrade */\n      tag_16\n        /* \"Coding test/test1.sol\":2248:2264  setGrade(_score) */\n      jump\t// in\n    tag_73:\n        /* \"Coding test/test1.sol\":2219:2273  student(_name, _num, _score, setGrade(_score), _class) */\n      dup2\n      mstore\n      0x20\n      add\n        /* \"Coding test/test1.sol\":2266:2272  _class */\n      dup4\n        /* \"Coding test/test1.sol\":2219:2273  student(_name, _num, _score, setGrade(_score), _class) */\n      dup2\n      mstore\n      pop\n        /* \"Coding test/test1.sol\":2205:2274  Students.push(student(_name, _num, _score, setGrade(_score), _class)) */\n      swap1\n      dup1\n      0x01\n      dup2\n      sload\n      add\n      dup1\n      dup3\n      sstore\n      dup1\n      swap2\n      pop\n      pop\n      0x01\n      swap1\n      sub\n      swap1\n      0x00\n      mstore\n      keccak256(0x00, 0x20)\n      swap1\n      0x05\n      mul\n      add\n      0x00\n      swap1\n      swap2\n      swap1\n      swap2\n      swap1\n      swap2\n      pop\n      0x00\n      dup3\n      add\n      mload\n      dup2\n      0x00\n      add\n      swap1\n      dup2\n      tag_75\n      swap2\n      swap1\n      tag_76\n      jump\t// in\n    tag_75:\n      pop\n      0x20\n      dup3\n      add\n      mload\n      dup2\n      0x01\n      add\n      sstore\n      0x40\n      dup3\n      add\n      mload\n      dup2\n      0x02\n      add\n      sstore\n      0x60\n      dup3\n      add\n      mload\n      dup2\n      0x03\n      add\n      swap1\n      dup2\n      tag_77\n      swap2\n      swap1\n      tag_76\n      jump\t// in\n    tag_77:\n      pop\n      0x80\n      dup3\n      add\n      mload\n      dup2\n      0x04\n      add\n      swap1\n      dup1\n      mload\n      swap1\n      0x20\n      add\n      swap1\n      tag_78\n      swap3\n      swap2\n      swap1\n      tag_79\n      jump\t// in\n    tag_78:\n      pop\n      pop\n      pop\n        /* \"Coding test/test1.sol\":2097:2282  function pushStudent(string memory _name, uint _num, uint _score, string[] memory _class) public {... */\n      pop\n      pop\n      pop\n      pop\n      jump\t// out\n        /* \"Coding test/test1.sol\":2826:2936  function getstudent(uint _num) public view returns(student[] memory) {... */\n    tag_25:\n        /* \"Coding test/test1.sol\":2877:2893  student[] memory */\n      0x60\n        /* \"Coding test/test1.sol\":2913:2922  students2 */\n      0x07\n        /* \"Coding test/test1.sol\":2913:2928  students2[_num] */\n      0x00\n        /* \"Coding test/test1.sol\":2923:2927  _num */\n      dup4\n        /* \"Coding test/test1.sol\":2913:2928  students2[_num] */\n      dup2\n      mstore\n      0x20\n      add\n      swap1\n      dup2\n      mstore\n      0x20\n      add\n      0x00\n      keccak256\n        /* \"Coding test/test1.sol\":2906:2928  return students2[_num] */\n      dup1\n      sload\n      dup1\n      0x20\n      mul\n      0x20\n      add\n      mload(0x40)\n      swap1\n      dup2\n      add\n      0x40\n      mstore\n      dup1\n      swap3\n      swap2\n      swap1\n      dup2\n      dup2\n      mstore\n      0x20\n      add\n      0x00\n      swap1\n    tag_81:\n      dup3\n      dup3\n      lt\n      iszero\n      tag_82\n      jumpi\n      dup4\n      dup3\n      swap1\n      0x00\n      mstore\n      keccak256(0x00, 0x20)\n      swap1\n      0x05\n      mul\n      add\n      mload(0x40)\n      dup1\n      0xa0\n      add\n      0x40\n      mstore\n      swap1\n      dup2\n      0x00\n      dup3\n      add\n      dup1\n      sload\n      tag_84\n      swap1\n      tag_41\n      jump\t// in\n    tag_84:\n      dup1\n      0x1f\n      add\n      0x20\n      dup1\n      swap2\n      div\n      mul\n      0x20\n      add\n      mload(0x40)\n      swap1\n      dup2\n      add\n      0x40\n      mstore\n      dup1\n      swap3\n      swap2\n      swap1\n      dup2\n      dup2\n      mstore\n      0x20\n      add\n      dup3\n      dup1\n      sload\n      tag_85\n      swap1\n      tag_41\n      jump\t// in\n    tag_85:\n      dup1\n      iszero\n      tag_86\n      jumpi\n      dup1\n      0x1f\n      lt\n      tag_87\n      jumpi\n      0x0100\n      dup1\n      dup4\n      sload\n      div\n      mul\n      dup4\n      mstore\n      swap2\n      0x20\n      add\n      swap2\n      jump(tag_86)\n    tag_87:\n      dup3\n      add\n      swap2\n      swap1\n      0x00\n      mstore\n      keccak256(0x00, 0x20)\n      swap1\n    tag_88:\n      dup2\n      sload\n      dup2\n      mstore\n      swap1\n      0x01\n      add\n      swap1\n      0x20\n      add\n      dup1\n      dup4\n      gt\n      tag_88\n      jumpi\n      dup3\n      swap1\n      sub\n      0x1f\n      and\n      dup3\n      add\n      swap2\n    tag_86:\n      pop\n      pop\n      pop\n      pop\n      pop\n      dup2\n      mstore\n      0x20\n      add\n      0x01\n      dup3\n      add\n      sload\n      dup2\n      mstore\n      0x20\n      add\n      0x02\n      dup3\n      add\n      sload\n      dup2\n      mstore\n      0x20\n      add\n      0x03\n      dup3\n      add\n      dup1\n      sload\n      tag_89\n      swap1\n      tag_41\n      jump\t// in\n    tag_89:\n      dup1\n      0x1f\n      add\n      0x20\n      dup1\n      swap2\n      div\n      mul\n      0x20\n      add\n      mload(0x40)\n      swap1\n      dup2\n      add\n      0x40\n      mstore\n      dup1\n      swap3\n      swap2\n      swap1\n      dup2\n      dup2\n      mstore\n      0x20\n      add\n      dup3\n      dup1\n      sload\n      tag_90\n      swap1\n      tag_41\n      jump\t// in\n    tag_90:\n      dup1\n      iszero\n      tag_91\n      jumpi\n      dup1\n      0x1f\n      lt\n      tag_92\n      jumpi\n      0x0100\n      dup1\n      dup4\n      sload\n      div\n      mul\n      dup4\n      mstore\n      swap2\n      0x20\n      add\n      swap2\n      jump(tag_91)\n    tag_92:\n      dup3\n      add\n      swap2\n      swap1\n      0x00\n      mstore\n      keccak256(0x00, 0x20)\n      swap1\n    tag_93:\n      dup2\n      sload\n      dup2\n      mstore\n      swap1\n      0x01\n      add\n      swap1\n      0x20\n      add\n      dup1\n      dup4\n      gt\n      tag_93\n      jumpi\n      dup3\n      swap1\n      sub\n      0x1f\n      and\n      dup3\n      add\n      swap2\n    tag_91:\n      pop\n      pop\n      pop\n      pop\n      pop\n      dup2\n      mstore\n      0x20\n      add\n      0x04\n      dup3\n      add\n      dup1\n      sload\n      dup1\n      0x20\n      mul\n      0x20\n      add\n      mload(0x40)\n      swap1\n      dup2\n      add\n      0x40\n      mstore\n      dup1\n      swap3\n      swap2\n      swap1\n      dup2\n      dup2\n      mstore\n      0x20\n      add\n      0x00\n      swap1\n    tag_94:\n      dup3\n      dup3\n      lt\n      iszero\n      tag_95\n      jumpi\n      dup4\n      dup3\n      swap1\n      0x00\n      mstore\n      keccak256(0x00, 0x20)\n      add\n      dup1\n      sload\n      tag_97\n      swap1\n      tag_41\n      jump\t// in\n    tag_97:\n      dup1\n      0x1f\n      add\n      0x20\n      dup1\n      swap2\n      div\n      mul\n      0x20\n      add\n      mload(0x40)\n      swap1\n      dup2\n      add\n      0x40\n      mstore\n      dup1\n      swap3\n      swap2\n      swap1\n      dup2\n      dup2\n      mstore\n      0x20\n      add\n      dup3\n      dup1\n      sload\n      tag_98\n      swap1\n      tag_41\n      jump\t// in\n    tag_98:\n      dup1\n      iszero\n      tag_99\n      jumpi\n      dup1\n      0x1f\n      lt\n      tag_100\n      jumpi\n      0x0100\n      dup1\n      dup4\n      sload\n      div\n      mul\n      dup4\n      mstore\n      swap2\n      0x20\n      add\n      swap2\n      jump(tag_99)\n    tag_100:\n      dup3\n      add\n      swap2\n      swap1\n      0x00\n      mstore\n      keccak256(0x00, 0x20)\n      swap1\n    tag_101:\n      dup2\n      sload\n      dup2\n      mstore\n      swap1\n      0x01\n      add\n      swap1\n      0x20\n      add\n      dup1\n      dup4\n      gt\n      tag_101\n      jumpi\n      dup3\n      swap1\n      sub\n      0x1f\n      and\n      dup3\n      add\n      swap2\n    tag_99:\n      pop\n      pop\n      pop\n      pop\n      pop\n      dup2\n      mstore\n      0x20\n      add\n      swap1\n      0x01\n      add\n      swap1\n      jump(tag_94)\n    tag_95:\n      pop\n      pop\n      pop\n      pop\n      dup2\n      mstore\n      pop\n      pop\n      dup2\n      mstore\n      0x20\n      add\n      swap1\n      0x01\n      add\n      swap1\n      jump(tag_81)\n    tag_82:\n      pop\n      pop\n      pop\n      pop\n      swap1\n      pop\n        /* \"Coding test/test1.sol\":2826:2936  function getstudent(uint _num) public view returns(student[] memory) {... */\n      swap2\n      swap1\n      pop\n      jump\t// out\n        /* \"Coding test/test1.sol\":3158:3246  function getLength() public view returns(uint) {... */\n    tag_28:\n        /* \"Coding test/test1.sol\":3199:3203  uint */\n      0x00\n        /* \"Coding test/test1.sol\":3223:3231  Students */\n      0x05\n        /* \"Coding test/test1.sol\":3223:3238  Students.length */\n      dup1\n      sload\n      swap1\n      pop\n        /* \"Coding test/test1.sol\":3216:3238  return Students.length */\n      swap1\n      pop\n        /* \"Coding test/test1.sol\":3158:3246  function getLength() public view returns(uint) {... */\n      swap1\n      jump\t// out\n        /* \"Coding test/test1.sol\":2944:3065  function getstudent(string memory _name) public view returns(student[] memory) {... */\n    tag_34:\n        /* \"Coding test/test1.sol\":3005:3021  student[] memory */\n      0x60\n        /* \"Coding test/test1.sol\":3041:3050  students1 */\n      0x06\n        /* \"Coding test/test1.sol\":3051:3056  _name */\n      dup3\n        /* \"Coding test/test1.sol\":3041:3057  students1[_name] */\n      mload(0x40)\n      tag_104\n      swap2\n      swap1\n      tag_105\n      jump\t// in\n    tag_104:\n      swap1\n      dup2\n      mstore\n      0x20\n      add\n      mload(0x40)\n      dup1\n      swap2\n      sub\n      swap1\n      keccak256\n        /* \"Coding test/test1.sol\":3034:3057  return students1[_name] */\n      dup1\n      sload\n      dup1\n      0x20\n      mul\n      0x20\n      add\n      mload(0x40)\n      swap1\n      dup2\n      add\n      0x40\n      mstore\n      dup1\n      swap3\n      swap2\n      swap1\n      dup2\n      dup2\n      mstore\n      0x20\n      add\n      0x00\n      swap1\n    tag_106:\n      dup3\n      dup3\n      lt\n      iszero\n      tag_107\n      jumpi\n      dup4\n      dup3\n      swap1\n      0x00\n      mstore\n      keccak256(0x00, 0x20)\n      swap1\n      0x05\n      mul\n      add\n      mload(0x40)\n      dup1\n      0xa0\n      add\n      0x40\n      mstore\n      swap1\n      dup2\n      0x00\n      dup3\n      add\n      dup1\n      sload\n      tag_109\n      swap1\n      tag_41\n      jump\t// in\n    tag_109:\n      dup1\n      0x1f\n      add\n      0x20\n      dup1\n      swap2\n      div\n      mul\n      0x20\n      add\n      mload(0x40)\n      swap1\n      dup2\n      add\n      0x40\n      mstore\n      dup1\n      swap3\n      swap2\n      swap1\n      dup2\n      dup2\n      mstore\n      0x20\n      add\n      dup3\n      dup1\n      sload\n      tag_110\n      swap1\n      tag_41\n      jump\t// in\n    tag_110:\n      dup1\n      iszero\n      tag_111\n      jumpi\n      dup1\n      0x1f\n      lt\n      tag_112\n      jumpi\n      0x0100\n      dup1\n      dup4\n      sload\n      div\n      mul\n      dup4\n      mstore\n      swap2\n      0x20\n      add\n      swap2\n      jump(tag_111)\n    tag_112:\n      dup3\n      add\n      swap2\n      swap1\n      0x00\n      mstore\n      keccak256(0x00, 0x20)\n      swap1\n    tag_113:\n      dup2\n      sload\n      dup2\n      mstore\n      swap1\n      0x01\n      add\n      swap1\n      0x20\n      add\n      dup1\n      dup4\n      gt\n      tag_113\n      jumpi\n      dup3\n      swap1\n      sub\n      0x1f\n      and\n      dup3\n      add\n      swap2\n    tag_111:\n      pop\n      pop\n      pop\n      pop\n      pop\n      dup2\n      mstore\n      0x20\n      add\n      0x01\n      dup3\n      add\n      sload\n      dup2\n      mstore\n      0x20\n      add\n      0x02\n      dup3\n      add\n      sload\n      dup2\n      mstore\n      0x20\n      add\n      0x03\n      dup3\n      add\n      dup1\n      sload\n      tag_114\n      swap1\n      tag_41\n      jump\t// in\n    tag_114:\n      dup1\n      0x1f\n      add\n      0x20\n      dup1\n      swap2\n      div\n      mul\n      0x20\n      add\n      mload(0x40)\n      swap1\n      dup2\n      add\n      0x40\n      mstore\n      dup1\n      swap3\n      swap2\n      swap1\n      dup2\n      dup2\n      mstore\n      0x20\n      add\n      dup3\n      dup1\n      sload\n      tag_115\n      swap1\n      tag_41\n      jump\t// in\n    tag_115:\n      dup1\n      iszero\n      tag_116\n      jumpi\n      dup1\n      0x1f\n      lt\n      tag_117\n      jumpi\n      0x0100\n      dup1\n      dup4\n      sload\n      div\n      mul\n      dup4\n      mstore\n      swap2\n      0x20\n      add\n      swap2\n      jump(tag_116)\n    tag_117:\n      dup3\n      add\n      swap2\n      swap1\n      0x00\n      mstore\n      keccak256(0x00, 0x20)\n      swap1\n    tag_118:\n      dup2\n      sload\n      dup2\n      mstore\n      swap1\n      0x01\n      add\n      swap1\n      0x20\n      add\n      dup1\n      dup4\n      gt\n      tag_118\n      jumpi\n      dup3\n      swap1\n      sub\n      0x1f\n      and\n      dup3\n      add\n      swap2\n    tag_116:\n      pop\n      pop\n      pop\n      pop\n      pop\n      dup2\n      mstore\n      0x20\n      add\n      0x04\n      dup3\n      add\n      dup1\n      sload\n      dup1\n      0x20\n      mul\n      0x20\n      add\n      mload(0x40)\n      swap1\n      dup2\n      add\n      0x40\n      mstore\n      dup1\n      swap3\n      swap2\n      swap1\n      dup2\n      dup2\n      mstore\n      0x20\n      add\n      0x00\n      swap1\n    tag_119:\n      dup3\n      dup3\n      lt\n      iszero\n      tag_120\n      jumpi\n      dup4\n      dup3\n      swap1\n      0x00\n      mstore\n      keccak256(0x00, 0x20)\n      add\n      dup1\n      sload\n      tag_122\n      swap1\n      tag_41\n      jump\t// in\n    tag_122:\n      dup1\n      0x1f\n      add\n      0x20\n      dup1\n      swap2\n      div\n      mul\n      0x20\n      add\n      mload(0x40)\n      swap1\n      dup2\n      add\n      0x40\n      mstore\n      dup1\n      swap3\n      swap2\n      swap1\n      dup2\n      dup2\n      mstore\n      0x20\n      add\n      dup3\n      dup1\n      sload\n      tag_123\n      swap1\n      tag_41\n      jump\t// in\n    tag_123:\n      dup1\n      iszero\n      tag_124\n      jumpi\n      dup1\n      0x1f\n      lt\n      tag_125\n      jumpi\n      0x0100\n      dup1\n      dup4\n      sload\n      div\n      mul\n      dup4\n      mstore\n      swap2\n      0x20\n      add\n      swap2\n      jump(tag_124)\n    tag_125:\n      dup3\n      add\n      swap2\n      swap1\n      0x00\n      mstore\n      keccak256(0x00, 0x20)\n      swap1\n    tag_126:\n      dup2\n      sload\n      dup2\n      mstore\n      swap1\n      0x01\n      add\n      swap1\n      0x20\n      add\n      dup1\n      dup4\n      gt\n      tag_126\n      jumpi\n      dup3\n      swap1\n      sub\n      0x1f\n      and\n      dup3\n      add\n      swap2\n    tag_124:\n      pop\n      pop\n      pop\n      pop\n      pop\n      dup2\n      mstore\n      0x20\n      add\n      swap1\n      0x01\n      add\n      swap1\n      jump(tag_119)\n    tag_120:\n      pop\n      pop\n      pop\n      pop\n      dup2\n      mstore\n      pop\n      pop\n      dup2\n      mstore\n      0x20\n      add\n      swap1\n      0x01\n      add\n      swap1\n      jump(tag_106)\n    tag_107:\n      pop\n      pop\n      pop\n      pop\n      swap1\n      pop\n        /* \"Coding test/test1.sol\":2944:3065  function getstudent(string memory _name) public view returns(student[] memory) {... */\n      swap2\n      swap1\n      pop\n      jump\t// out\n    tag_79:\n      dup3\n      dup1\n      sload\n      dup3\n      dup3\n      sstore\n      swap1\n      0x00\n      mstore\n      keccak256(0x00, 0x20)\n      swap1\n      dup2\n      add\n      swap3\n      dup3\n      iszero\n      tag_127\n      jumpi\n      swap2\n      0x20\n      mul\n      dup3\n      add\n    tag_128:\n      dup3\n      dup2\n      gt\n      iszero\n      tag_129\n      jumpi\n      dup3\n      mload\n      dup3\n      swap1\n      dup2\n      tag_130\n      swap2\n      swap1\n      tag_76\n      jump\t// in\n    tag_130:\n      pop\n      swap2\n      0x20\n      add\n      swap2\n      swap1\n      0x01\n      add\n      swap1\n      jump(tag_128)\n    tag_129:\n    tag_127:\n      pop\n      swap1\n      pop\n      tag_131\n      swap2\n      swap1\n      tag_132\n      jump\t// in\n    tag_131:\n      pop\n      swap1\n      jump\t// out\n    tag_132:\n    tag_133:\n      dup1\n      dup3\n      gt\n      iszero\n      tag_134\n      jumpi\n      0x00\n      dup2\n      dup2\n      tag_135\n      swap2\n      swap1\n      tag_136\n      jump\t// in\n    tag_135:\n      pop\n      0x01\n      add\n      jump(tag_133)\n    tag_134:\n      pop\n      swap1\n      jump\t// out\n    tag_136:\n      pop\n      dup1\n      sload\n      tag_137\n      swap1\n      tag_41\n      jump\t// in\n    tag_137:\n      0x00\n      dup3\n      sstore\n      dup1\n      0x1f\n      lt\n      tag_139\n      jumpi\n      pop\n      jump(tag_138)\n    tag_139:\n      0x1f\n      add\n      0x20\n      swap1\n      div\n      swap1\n      0x00\n      mstore\n      keccak256(0x00, 0x20)\n      swap1\n      dup2\n      add\n      swap1\n      tag_140\n      swap2\n      swap1\n      tag_141\n      jump\t// in\n    tag_140:\n    tag_138:\n      pop\n      jump\t// out\n    tag_141:\n    tag_142:\n      dup1\n      dup3\n      gt\n      iszero\n      tag_143\n      jumpi\n      0x00\n      dup2\n      0x00\n      swap1\n      sstore\n      pop\n      0x01\n      add\n      jump(tag_142)\n    tag_143:\n      pop\n      swap1\n      jump\t// out\n        /* \"#utility.yul\":7:144   */\n    tag_144:\n        /* \"#utility.yul\":97:103   */\n      0x00\n        /* \"#utility.yul\":131:136   */\n      dup2\n        /* \"#utility.yul\":125:137   */\n      mload\n        /* \"#utility.yul\":115:137   */\n      swap1\n      pop\n        /* \"#utility.yul\":7:144   */\n      swap2\n      swap1\n      pop\n      jump\t// out\n        /* \"#utility.yul\":150:357   */\n    tag_145:\n        /* \"#utility.yul\":272:283   */\n      0x00\n        /* \"#utility.yul\":306:312   */\n      dup3\n        /* \"#utility.yul\":301:304   */\n      dup3\n        /* \"#utility.yul\":294:313   */\n      mstore\n        /* \"#utility.yul\":346:350   */\n      0x20\n        /* \"#utility.yul\":341:344   */\n      dup3\n        /* \"#utility.yul\":337:351   */\n      add\n        /* \"#utility.yul\":322:351   */\n      swap1\n      pop\n        /* \"#utility.yul\":150:357   */\n      swap3\n      swap2\n      pop\n      pop\n      jump\t// out\n        /* \"#utility.yul\":363:518   */\n    tag_146:\n        /* \"#utility.yul\":453:457   */\n      0x00\n        /* \"#utility.yul\":476:479   */\n      dup2\n        /* \"#utility.yul\":468:479   */\n      swap1\n      pop\n        /* \"#utility.yul\":506:510   */\n      0x20\n        /* \"#utility.yul\":501:504   */\n      dup3\n        /* \"#utility.yul\":497:511   */\n      add\n        /* \"#utility.yul\":489:511   */\n      swap1\n      pop\n        /* \"#utility.yul\":363:518   */\n      swap2\n      swap1\n      pop\n      jump\t// out\n        /* \"#utility.yul\":524:623   */\n    tag_147:\n        /* \"#utility.yul\":576:582   */\n      0x00\n        /* \"#utility.yul\":610:615   */\n      dup2\n        /* \"#utility.yul\":604:616   */\n      mload\n        /* \"#utility.yul\":594:616   */\n      swap1\n      pop\n        /* \"#utility.yul\":524:623   */\n      swap2\n      swap1\n      pop\n      jump\t// out\n        /* \"#utility.yul\":629:788   */\n    tag_148:\n        /* \"#utility.yul\":703:714   */\n      0x00\n        /* \"#utility.yul\":737:743   */\n      dup3\n        /* \"#utility.yul\":732:735   */\n      dup3\n        /* \"#utility.yul\":725:744   */\n      mstore\n        /* \"#utility.yul\":777:781   */\n      0x20\n        /* \"#utility.yul\":772:775   */\n      dup3\n        /* \"#utility.yul\":768:782   */\n      add\n        /* \"#utility.yul\":753:782   */\n      swap1\n      pop\n        /* \"#utility.yul\":629:788   */\n      swap3\n      swap2\n      pop\n      pop\n      jump\t// out\n        /* \"#utility.yul\":794:933   */\n    tag_149:\n        /* \"#utility.yul\":883:889   */\n      dup3\n        /* \"#utility.yul\":878:881   */\n      dup2\n        /* \"#utility.yul\":873:876   */\n      dup4\n        /* \"#utility.yul\":867:890   */\n      mcopy\n        /* \"#utility.yul\":924:925   */\n      0x00\n        /* \"#utility.yul\":915:921   */\n      dup4\n        /* \"#utility.yul\":910:913   */\n      dup4\n        /* \"#utility.yul\":906:922   */\n      add\n        /* \"#utility.yul\":899:926   */\n      mstore\n        /* \"#utility.yul\":794:933   */\n      pop\n      pop\n      pop\n      jump\t// out\n        /* \"#utility.yul\":939:1041   */\n    tag_150:\n        /* \"#utility.yul\":980:986   */\n      0x00\n        /* \"#utility.yul\":1031:1033   */\n      0x1f\n        /* \"#utility.yul\":1027:1034   */\n      not\n        /* \"#utility.yul\":1022:1024   */\n      0x1f\n        /* \"#utility.yul\":1015:1020   */\n      dup4\n        /* \"#utility.yul\":1011:1025   */\n      add\n        /* \"#utility.yul\":1007:1035   */\n      and\n        /* \"#utility.yul\":997:1035   */\n      swap1\n      pop\n        /* \"#utility.yul\":939:1041   */\n      swap2\n      swap1\n      pop\n      jump\t// out\n        /* \"#utility.yul\":1047:1404   */\n    tag_151:\n        /* \"#utility.yul\":1125:1128   */\n      0x00\n        /* \"#utility.yul\":1153:1192   */\n      tag_212\n        /* \"#utility.yul\":1186:1191   */\n      dup3\n        /* \"#utility.yul\":1153:1192   */\n      tag_147\n      jump\t// in\n    tag_212:\n        /* \"#utility.yul\":1208:1269   */\n      tag_213\n        /* \"#utility.yul\":1262:1268   */\n      dup2\n        /* \"#utility.yul\":1257:1260   */\n      dup6\n        /* \"#utility.yul\":1208:1269   */\n      tag_148\n      jump\t// in\n    tag_213:\n        /* \"#utility.yul\":1201:1269   */\n      swap4\n      pop\n        /* \"#utility.yul\":1278:1343   */\n      tag_214\n        /* \"#utility.yul\":1336:1342   */\n      dup2\n        /* \"#utility.yul\":1331:1334   */\n      dup6\n        /* \"#utility.yul\":1324:1328   */\n      0x20\n        /* \"#utility.yul\":1317:1322   */\n      dup7\n        /* \"#utility.yul\":1313:1329   */\n      add\n        /* \"#utility.yul\":1278:1343   */\n      tag_149\n      jump\t// in\n    tag_214:\n        /* \"#utility.yul\":1368:1397   */\n      tag_215\n        /* \"#utility.yul\":1390:1396   */\n      dup2\n        /* \"#utility.yul\":1368:1397   */\n      tag_150\n      jump\t// in\n    tag_215:\n        /* \"#utility.yul\":1363:1366   */\n      dup5\n        /* \"#utility.yul\":1359:1398   */\n      add\n        /* \"#utility.yul\":1352:1398   */\n      swap2\n      pop\n        /* \"#utility.yul\":1129:1404   */\n      pop\n        /* \"#utility.yul\":1047:1404   */\n      swap3\n      swap2\n      pop\n      pop\n      jump\t// out\n        /* \"#utility.yul\":1410:1487   */\n    tag_152:\n        /* \"#utility.yul\":1447:1454   */\n      0x00\n        /* \"#utility.yul\":1476:1481   */\n      dup2\n        /* \"#utility.yul\":1465:1481   */\n      swap1\n      pop\n        /* \"#utility.yul\":1410:1487   */\n      swap2\n      swap1\n      pop\n      jump\t// out\n        /* \"#utility.yul\":1493:1601   */\n    tag_153:\n        /* \"#utility.yul\":1570:1594   */\n      tag_218\n        /* \"#utility.yul\":1588:1593   */\n      dup2\n        /* \"#utility.yul\":1570:1594   */\n      tag_152\n      jump\t// in\n    tag_218:\n        /* \"#utility.yul\":1565:1568   */\n      dup3\n        /* \"#utility.yul\":1558:1595   */\n      mstore\n        /* \"#utility.yul\":1493:1601   */\n      pop\n      pop\n      jump\t// out\n        /* \"#utility.yul\":1607:1731   */\n    tag_154:\n        /* \"#utility.yul\":1684:1690   */\n      0x00\n        /* \"#utility.yul\":1718:1723   */\n      dup2\n        /* \"#utility.yul\":1712:1724   */\n      mload\n        /* \"#utility.yul\":1702:1724   */\n      swap1\n      pop\n        /* \"#utility.yul\":1607:1731   */\n      swap2\n      swap1\n      pop\n      jump\t// out\n        /* \"#utility.yul\":1737:1921   */\n    tag_155:\n        /* \"#utility.yul\":1836:1847   */\n      0x00\n        /* \"#utility.yul\":1870:1876   */\n      dup3\n        /* \"#utility.yul\":1865:1868   */\n      dup3\n        /* \"#utility.yul\":1858:1877   */\n      mstore\n        /* \"#utility.yul\":1910:1914   */\n      0x20\n        /* \"#utility.yul\":1905:1908   */\n      dup3\n        /* \"#utility.yul\":1901:1915   */\n      add\n        /* \"#utility.yul\":1886:1915   */\n      swap1\n      pop\n        /* \"#utility.yul\":1737:1921   */\n      swap3\n      swap2\n      pop\n      pop\n      jump\t// out\n        /* \"#utility.yul\":1927:2069   */\n    tag_156:\n        /* \"#utility.yul\":2004:2008   */\n      0x00\n        /* \"#utility.yul\":2027:2030   */\n      dup2\n        /* \"#utility.yul\":2019:2030   */\n      swap1\n      pop\n        /* \"#utility.yul\":2057:2061   */\n      0x20\n        /* \"#utility.yul\":2052:2055   */\n      dup3\n        /* \"#utility.yul\":2048:2062   */\n      add\n        /* \"#utility.yul\":2040:2062   */\n      swap1\n      pop\n        /* \"#utility.yul\":1927:2069   */\n      swap2\n      swap1\n      pop\n      jump\t// out\n        /* \"#utility.yul\":2075:2271   */\n    tag_157:\n        /* \"#utility.yul\":2164:2174   */\n      0x00\n        /* \"#utility.yul\":2199:2265   */\n      tag_223\n        /* \"#utility.yul\":2261:2264   */\n      dup4\n        /* \"#utility.yul\":2253:2259   */\n      dup4\n        /* \"#utility.yul\":2199:2265   */\n      tag_151\n      jump\t// in\n    tag_223:\n        /* \"#utility.yul\":2185:2265   */\n      swap1\n      pop\n        /* \"#utility.yul\":2075:2271   */\n      swap3\n      swap2\n      pop\n      pop\n      jump\t// out\n        /* \"#utility.yul\":2277:2400   */\n    tag_158:\n        /* \"#utility.yul\":2357:2361   */\n      0x00\n        /* \"#utility.yul\":2389:2393   */\n      0x20\n        /* \"#utility.yul\":2384:2387   */\n      dup3\n        /* \"#utility.yul\":2380:2394   */\n      add\n        /* \"#utility.yul\":2372:2394   */\n      swap1\n      pop\n        /* \"#utility.yul\":2277:2400   */\n      swap2\n      swap1\n      pop\n      jump\t// out\n        /* \"#utility.yul\":2434:3405   */\n    tag_159:\n        /* \"#utility.yul\":2563:2566   */\n      0x00\n        /* \"#utility.yul\":2592:2656   */\n      tag_226\n        /* \"#utility.yul\":2650:2655   */\n      dup3\n        /* \"#utility.yul\":2592:2656   */\n      tag_154\n      jump\t// in\n    tag_226:\n        /* \"#utility.yul\":2672:2758   */\n      tag_227\n        /* \"#utility.yul\":2751:2757   */\n      dup2\n        /* \"#utility.yul\":2746:2749   */\n      dup6\n        /* \"#utility.yul\":2672:2758   */\n      tag_155\n      jump\t// in\n    tag_227:\n        /* \"#utility.yul\":2665:2758   */\n      swap4\n      pop\n        /* \"#utility.yul\":2784:2787   */\n      dup4\n        /* \"#utility.yul\":2829:2833   */\n      0x20\n        /* \"#utility.yul\":2821:2827   */\n      dup3\n        /* \"#utility.yul\":2817:2834   */\n      mul\n        /* \"#utility.yul\":2812:2815   */\n      dup6\n        /* \"#utility.yul\":2808:2835   */\n      add\n        /* \"#utility.yul\":2859:2925   */\n      tag_228\n        /* \"#utility.yul\":2919:2924   */\n      dup6\n        /* \"#utility.yul\":2859:2925   */\n      tag_156\n      jump\t// in\n    tag_228:\n        /* \"#utility.yul\":2948:2955   */\n      dup1\n        /* \"#utility.yul\":2979:2980   */\n      0x00\n        /* \"#utility.yul\":2964:3360   */\n    tag_229:\n        /* \"#utility.yul\":2989:2995   */\n      dup6\n        /* \"#utility.yul\":2986:2987   */\n      dup2\n        /* \"#utility.yul\":2983:2996   */\n      lt\n        /* \"#utility.yul\":2964:3360   */\n      iszero\n      tag_231\n      jumpi\n        /* \"#utility.yul\":3060:3069   */\n      dup5\n        /* \"#utility.yul\":3054:3058   */\n      dup5\n        /* \"#utility.yul\":3050:3070   */\n      sub\n        /* \"#utility.yul\":3045:3048   */\n      dup10\n        /* \"#utility.yul\":3038:3071   */\n      mstore\n        /* \"#utility.yul\":3111:3117   */\n      dup2\n        /* \"#utility.yul\":3105:3118   */\n      mload\n        /* \"#utility.yul\":3139:3223   */\n      tag_232\n        /* \"#utility.yul\":3218:3222   */\n      dup6\n        /* \"#utility.yul\":3203:3216   */\n      dup3\n        /* \"#utility.yul\":3139:3223   */\n      tag_157\n      jump\t// in\n    tag_232:\n        /* \"#utility.yul\":3131:3223   */\n      swap5\n      pop\n        /* \"#utility.yul\":3246:3316   */\n      tag_233\n        /* \"#utility.yul\":3309:3315   */\n      dup4\n        /* \"#utility.yul\":3246:3316   */\n      tag_158\n      jump\t// in\n    tag_233:\n        /* \"#utility.yul\":3236:3316   */\n      swap3\n      pop\n        /* \"#utility.yul\":3345:3349   */\n      0x20\n        /* \"#utility.yul\":3340:3343   */\n      dup11\n        /* \"#utility.yul\":3336:3350   */\n      add\n        /* \"#utility.yul\":3329:3350   */\n      swap10\n      pop\n        /* \"#utility.yul\":3024:3360   */\n      pop\n        /* \"#utility.yul\":3011:3012   */\n      0x01\n        /* \"#utility.yul\":3008:3009   */\n      dup2\n        /* \"#utility.yul\":3004:3013   */\n      add\n        /* \"#utility.yul\":2999:3013   */\n      swap1\n      pop\n        /* \"#utility.yul\":2964:3360   */\n      jump(tag_229)\n    tag_231:\n        /* \"#utility.yul\":2968:2982   */\n      pop\n        /* \"#utility.yul\":3376:3380   */\n      dup3\n        /* \"#utility.yul\":3369:3380   */\n      swap8\n      pop\n        /* \"#utility.yul\":3396:3399   */\n      dup8\n        /* \"#utility.yul\":3389:3399   */\n      swap6\n      pop\n        /* \"#utility.yul\":2568:3405   */\n      pop\n      pop\n      pop\n      pop\n      pop\n        /* \"#utility.yul\":2434:3405   */\n      swap3\n      swap2\n      pop\n      pop\n      jump\t// out\n        /* \"#utility.yul\":3463:4771   */\n    tag_160:\n        /* \"#utility.yul\":3568:3571   */\n      0x00\n        /* \"#utility.yul\":3604:3608   */\n      0xa0\n        /* \"#utility.yul\":3599:3602   */\n      dup4\n        /* \"#utility.yul\":3595:3609   */\n      add\n        /* \"#utility.yul\":3691:3695   */\n      0x00\n        /* \"#utility.yul\":3684:3689   */\n      dup4\n        /* \"#utility.yul\":3680:3696   */\n      add\n        /* \"#utility.yul\":3674:3697   */\n      mload\n        /* \"#utility.yul\":3744:3747   */\n      dup5\n        /* \"#utility.yul\":3738:3742   */\n      dup3\n        /* \"#utility.yul\":3734:3748   */\n      sub\n        /* \"#utility.yul\":3727:3731   */\n      0x00\n        /* \"#utility.yul\":3722:3725   */\n      dup7\n        /* \"#utility.yul\":3718:3732   */\n      add\n        /* \"#utility.yul\":3711:3749   */\n      mstore\n        /* \"#utility.yul\":3770:3843   */\n      tag_235\n        /* \"#utility.yul\":3838:3842   */\n      dup3\n        /* \"#utility.yul\":3824:3836   */\n      dup3\n        /* \"#utility.yul\":3770:3843   */\n      tag_151\n      jump\t// in\n    tag_235:\n        /* \"#utility.yul\":3762:3843   */\n      swap2\n      pop\n        /* \"#utility.yul\":3619:3854   */\n      pop\n        /* \"#utility.yul\":3935:3939   */\n      0x20\n        /* \"#utility.yul\":3928:3933   */\n      dup4\n        /* \"#utility.yul\":3924:3940   */\n      add\n        /* \"#utility.yul\":3918:3941   */\n      mload\n        /* \"#utility.yul\":3954:4017   */\n      tag_236\n        /* \"#utility.yul\":4011:4015   */\n      0x20\n        /* \"#utility.yul\":4006:4009   */\n      dup7\n        /* \"#utility.yul\":4002:4016   */\n      add\n        /* \"#utility.yul\":3988:4000   */\n      dup3\n        /* \"#utility.yul\":3954:4017   */\n      tag_153\n      jump\t// in\n    tag_236:\n        /* \"#utility.yul\":3864:4027   */\n      pop\n        /* \"#utility.yul\":4110:4114   */\n      0x40\n        /* \"#utility.yul\":4103:4108   */\n      dup4\n        /* \"#utility.yul\":4099:4115   */\n      add\n        /* \"#utility.yul\":4093:4116   */\n      mload\n        /* \"#utility.yul\":4129:4192   */\n      tag_237\n        /* \"#utility.yul\":4186:4190   */\n      0x40\n        /* \"#utility.yul\":4181:4184   */\n      dup7\n        /* \"#utility.yul\":4177:4191   */\n      add\n        /* \"#utility.yul\":4163:4175   */\n      dup3\n        /* \"#utility.yul\":4129:4192   */\n      tag_153\n      jump\t// in\n    tag_237:\n        /* \"#utility.yul\":4037:4202   */\n      pop\n        /* \"#utility.yul\":4285:4289   */\n      0x60\n        /* \"#utility.yul\":4278:4283   */\n      dup4\n        /* \"#utility.yul\":4274:4290   */\n      add\n        /* \"#utility.yul\":4268:4291   */\n      mload\n        /* \"#utility.yul\":4338:4341   */\n      dup5\n        /* \"#utility.yul\":4332:4336   */\n      dup3\n        /* \"#utility.yul\":4328:4342   */\n      sub\n        /* \"#utility.yul\":4321:4325   */\n      0x60\n        /* \"#utility.yul\":4316:4319   */\n      dup7\n        /* \"#utility.yul\":4312:4326   */\n      add\n        /* \"#utility.yul\":4305:4343   */\n      mstore\n        /* \"#utility.yul\":4364:4437   */\n      tag_238\n        /* \"#utility.yul\":4432:4436   */\n      dup3\n        /* \"#utility.yul\":4418:4430   */\n      dup3\n        /* \"#utility.yul\":4364:4437   */\n      tag_151\n      jump\t// in\n    tag_238:\n        /* \"#utility.yul\":4356:4437   */\n      swap2\n      pop\n        /* \"#utility.yul\":4212:4448   */\n      pop\n        /* \"#utility.yul\":4531:4535   */\n      0x80\n        /* \"#utility.yul\":4524:4529   */\n      dup4\n        /* \"#utility.yul\":4520:4536   */\n      add\n        /* \"#utility.yul\":4514:4537   */\n      mload\n        /* \"#utility.yul\":4584:4587   */\n      dup5\n        /* \"#utility.yul\":4578:4582   */\n      dup3\n        /* \"#utility.yul\":4574:4588   */\n      sub\n        /* \"#utility.yul\":4567:4571   */\n      0x80\n        /* \"#utility.yul\":4562:4565   */\n      dup7\n        /* \"#utility.yul\":4558:4572   */\n      add\n        /* \"#utility.yul\":4551:4589   */\n      mstore\n        /* \"#utility.yul\":4610:4733   */\n      tag_239\n        /* \"#utility.yul\":4728:4732   */\n      dup3\n        /* \"#utility.yul\":4714:4726   */\n      dup3\n        /* \"#utility.yul\":4610:4733   */\n      tag_159\n      jump\t// in\n    tag_239:\n        /* \"#utility.yul\":4602:4733   */\n      swap2\n      pop\n        /* \"#utility.yul\":4458:4744   */\n      pop\n        /* \"#utility.yul\":4761:4765   */\n      dup1\n        /* \"#utility.yul\":4754:4765   */\n      swap2\n      pop\n        /* \"#utility.yul\":3573:4771   */\n      pop\n        /* \"#utility.yul\":3463:4771   */\n      swap3\n      swap2\n      pop\n      pop\n      jump\t// out\n        /* \"#utility.yul\":4777:5025   */\n    tag_161:\n        /* \"#utility.yul\":4892:4902   */\n      0x00\n        /* \"#utility.yul\":4927:5019   */\n      tag_241\n        /* \"#utility.yul\":5015:5018   */\n      dup4\n        /* \"#utility.yul\":5007:5013   */\n      dup4\n        /* \"#utility.yul\":4927:5019   */\n      tag_160\n      jump\t// in\n    tag_241:\n        /* \"#utility.yul\":4913:5019   */\n      swap1\n      pop\n        /* \"#utility.yul\":4777:5025   */\n      swap3\n      swap2\n      pop\n      pop\n      jump\t// out\n        /* \"#utility.yul\":5031:5167   */\n    tag_162:\n        /* \"#utility.yul\":5124:5128   */\n      0x00\n        /* \"#utility.yul\":5156:5160   */\n      0x20\n        /* \"#utility.yul\":5151:5154   */\n      dup3\n        /* \"#utility.yul\":5147:5161   */\n      add\n        /* \"#utility.yul\":5139:5161   */\n      swap1\n      pop\n        /* \"#utility.yul\":5031:5167   */\n      swap2\n      swap1\n      pop\n      jump\t// out\n        /* \"#utility.yul\":5229:6324   */\n    tag_163:\n        /* \"#utility.yul\":5394:5397   */\n      0x00\n        /* \"#utility.yul\":5423:5500   */\n      tag_244\n        /* \"#utility.yul\":5494:5499   */\n      dup3\n        /* \"#utility.yul\":5423:5500   */\n      tag_144\n      jump\t// in\n    tag_244:\n        /* \"#utility.yul\":5516:5625   */\n      tag_245\n        /* \"#utility.yul\":5618:5624   */\n      dup2\n        /* \"#utility.yul\":5613:5616   */\n      dup6\n        /* \"#utility.yul\":5516:5625   */\n      tag_145\n      jump\t// in\n    tag_245:\n        /* \"#utility.yul\":5509:5625   */\n      swap4\n      pop\n        /* \"#utility.yul\":5651:5654   */\n      dup4\n        /* \"#utility.yul\":5696:5700   */\n      0x20\n        /* \"#utility.yul\":5688:5694   */\n      dup3\n        /* \"#utility.yul\":5684:5701   */\n      mul\n        /* \"#utility.yul\":5679:5682   */\n      dup6\n        /* \"#utility.yul\":5675:5702   */\n      add\n        /* \"#utility.yul\":5726:5805   */\n      tag_246\n        /* \"#utility.yul\":5799:5804   */\n      dup6\n        /* \"#utility.yul\":5726:5805   */\n      tag_146\n      jump\t// in\n    tag_246:\n        /* \"#utility.yul\":5828:5835   */\n      dup1\n        /* \"#utility.yul\":5859:5860   */\n      0x00\n        /* \"#utility.yul\":5844:6279   */\n    tag_247:\n        /* \"#utility.yul\":5869:5875   */\n      dup6\n        /* \"#utility.yul\":5866:5867   */\n      dup2\n        /* \"#utility.yul\":5863:5876   */\n      lt\n        /* \"#utility.yul\":5844:6279   */\n      iszero\n      tag_249\n      jumpi\n        /* \"#utility.yul\":5940:5949   */\n      dup5\n        /* \"#utility.yul\":5934:5938   */\n      dup5\n        /* \"#utility.yul\":5930:5950   */\n      sub\n        /* \"#utility.yul\":5925:5928   */\n      dup10\n        /* \"#utility.yul\":5918:5951   */\n      mstore\n        /* \"#utility.yul\":5991:5997   */\n      dup2\n        /* \"#utility.yul\":5985:5998   */\n      mload\n        /* \"#utility.yul\":6019:6129   */\n      tag_250\n        /* \"#utility.yul\":6124:6128   */\n      dup6\n        /* \"#utility.yul\":6109:6122   */\n      dup3\n        /* \"#utility.yul\":6019:6129   */\n      tag_161\n      jump\t// in\n    tag_250:\n        /* \"#utility.yul\":6011:6129   */\n      swap5\n      pop\n        /* \"#utility.yul\":6152:6235   */\n      tag_251\n        /* \"#utility.yul\":6228:6234   */\n      dup4\n        /* \"#utility.yul\":6152:6235   */\n      tag_162\n      jump\t// in\n    tag_251:\n        /* \"#utility.yul\":6142:6235   */\n      swap3\n      pop\n        /* \"#utility.yul\":6264:6268   */\n      0x20\n        /* \"#utility.yul\":6259:6262   */\n      dup11\n        /* \"#utility.yul\":6255:6269   */\n      add\n        /* \"#utility.yul\":6248:6269   */\n      swap10\n      pop\n        /* \"#utility.yul\":5904:6279   */\n      pop\n        /* \"#utility.yul\":5891:5892   */\n      0x01\n        /* \"#utility.yul\":5888:5889   */\n      dup2\n        /* \"#utility.yul\":5884:5893   */\n      add\n        /* \"#utility.yul\":5879:5893   */\n      swap1\n      pop\n        /* \"#utility.yul\":5844:6279   */\n      jump(tag_247)\n    tag_249:\n        /* \"#utility.yul\":5848:5862   */\n      pop\n        /* \"#utility.yul\":6295:6299   */\n      dup3\n        /* \"#utility.yul\":6288:6299   */\n      swap8\n      pop\n        /* \"#utility.yul\":6315:6318   */\n      dup8\n        /* \"#utility.yul\":6308:6318   */\n      swap6\n      pop\n        /* \"#utility.yul\":5399:6324   */\n      pop\n      pop\n      pop\n      pop\n      pop\n        /* \"#utility.yul\":5229:6324   */\n      swap3\n      swap2\n      pop\n      pop\n      jump\t// out\n        /* \"#utility.yul\":6330:6795   */\n    tag_12:\n        /* \"#utility.yul\":6519:6523   */\n      0x00\n        /* \"#utility.yul\":6557:6559   */\n      0x20\n        /* \"#utility.yul\":6546:6555   */\n      dup3\n        /* \"#utility.yul\":6542:6560   */\n      add\n        /* \"#utility.yul\":6534:6560   */\n      swap1\n      pop\n        /* \"#utility.yul\":6606:6615   */\n      dup2\n        /* \"#utility.yul\":6600:6604   */\n      dup2\n        /* \"#utility.yul\":6596:6616   */\n      sub\n        /* \"#utility.yul\":6592:6593   */\n      0x00\n        /* \"#utility.yul\":6581:6590   */\n      dup4\n        /* \"#utility.yul\":6577:6594   */\n      add\n        /* \"#utility.yul\":6570:6617   */\n      mstore\n        /* \"#utility.yul\":6634:6788   */\n      tag_253\n        /* \"#utility.yul\":6783:6787   */\n      dup2\n        /* \"#utility.yul\":6774:6780   */\n      dup5\n        /* \"#utility.yul\":6634:6788   */\n      tag_163\n      jump\t// in\n    tag_253:\n        /* \"#utility.yul\":6626:6788   */\n      swap1\n      pop\n        /* \"#utility.yul\":6330:6795   */\n      swap3\n      swap2\n      pop\n      pop\n      jump\t// out\n        /* \"#utility.yul\":6801:6876   */\n    tag_164:\n        /* \"#utility.yul\":6834:6840   */\n      0x00\n        /* \"#utility.yul\":6867:6869   */\n      0x40\n        /* \"#utility.yul\":6861:6870   */\n      mload\n        /* \"#utility.yul\":6851:6870   */\n      swap1\n      pop\n        /* \"#utility.yul\":6801:6876   */\n      swap1\n      jump\t// out\n        /* \"#utility.yul\":6882:6999   */\n    tag_165:\n        /* \"#utility.yul\":6991:6992   */\n      0x00\n        /* \"#utility.yul\":6988:6989   */\n      dup1\n        /* \"#utility.yul\":6981:6993   */\n      revert\n        /* \"#utility.yul\":7005:7122   */\n    tag_166:\n        /* \"#utility.yul\":7114:7115   */\n      0x00\n        /* \"#utility.yul\":7111:7112   */\n      dup1\n        /* \"#utility.yul\":7104:7116   */\n      revert\n        /* \"#utility.yul\":7128:7250   */\n    tag_167:\n        /* \"#utility.yul\":7201:7225   */\n      tag_258\n        /* \"#utility.yul\":7219:7224   */\n      dup2\n        /* \"#utility.yul\":7201:7225   */\n      tag_152\n      jump\t// in\n    tag_258:\n        /* \"#utility.yul\":7194:7199   */\n      dup2\n        /* \"#utility.yul\":7191:7226   */\n      eq\n        /* \"#utility.yul\":7181:7244   */\n      tag_259\n      jumpi\n        /* \"#utility.yul\":7240:7241   */\n      0x00\n        /* \"#utility.yul\":7237:7238   */\n      dup1\n        /* \"#utility.yul\":7230:7242   */\n      revert\n        /* \"#utility.yul\":7181:7244   */\n    tag_259:\n        /* \"#utility.yul\":7128:7250   */\n      pop\n      jump\t// out\n        /* \"#utility.yul\":7256:7395   */\n    tag_168:\n        /* \"#utility.yul\":7302:7307   */\n      0x00\n        /* \"#utility.yul\":7340:7346   */\n      dup2\n        /* \"#utility.yul\":7327:7347   */\n      calldataload\n        /* \"#utility.yul\":7318:7347   */\n      swap1\n      pop\n        /* \"#utility.yul\":7356:7389   */\n      tag_261\n        /* \"#utility.yul\":7383:7388   */\n      dup2\n        /* \"#utility.yul\":7356:7389   */\n      tag_167\n      jump\t// in\n    tag_261:\n        /* \"#utility.yul\":7256:7395   */\n      swap3\n      swap2\n      pop\n      pop\n      jump\t// out\n        /* \"#utility.yul\":7401:7730   */\n    tag_15:\n        /* \"#utility.yul\":7460:7466   */\n      0x00\n        /* \"#utility.yul\":7509:7511   */\n      0x20\n        /* \"#utility.yul\":7497:7506   */\n      dup3\n        /* \"#utility.yul\":7488:7495   */\n      dup5\n        /* \"#utility.yul\":7484:7507   */\n      sub\n        /* \"#utility.yul\":7480:7512   */\n      slt\n        /* \"#utility.yul\":7477:7596   */\n      iszero\n      tag_263\n      jumpi\n        /* \"#utility.yul\":7515:7594   */\n      tag_264\n      tag_165\n      jump\t// in\n    tag_264:\n        /* \"#utility.yul\":7477:7596   */\n    tag_263:\n        /* \"#utility.yul\":7635:7636   */\n      0x00\n        /* \"#utility.yul\":7660:7713   */\n      tag_265\n        /* \"#utility.yul\":7705:7712   */\n      dup5\n        /* \"#utility.yul\":7696:7702   */\n      dup3\n        /* \"#utility.yul\":7685:7694   */\n      dup6\n        /* \"#utility.yul\":7681:7703   */\n      add\n        /* \"#utility.yul\":7660:7713   */\n      tag_168\n      jump\t// in\n    tag_265:\n        /* \"#utility.yul\":7650:7713   */\n      swap2\n      pop\n        /* \"#utility.yul\":7606:7723   */\n      pop\n        /* \"#utility.yul\":7401:7730   */\n      swap3\n      swap2\n      pop\n      pop\n      jump\t// out\n        /* \"#utility.yul\":7736:7905   */\n    tag_169:\n        /* \"#utility.yul\":7820:7831   */\n      0x00\n        /* \"#utility.yul\":7854:7860   */\n      dup3\n        /* \"#utility.yul\":7849:7852   */\n      dup3\n        /* \"#utility.yul\":7842:7861   */\n      mstore\n        /* \"#utility.yul\":7894:7898   */\n      0x20\n        /* \"#utility.yul\":7889:7892   */\n      dup3\n        /* \"#utility.yul\":7885:7899   */\n      add\n        /* \"#utility.yul\":7870:7899   */\n      swap1\n      pop\n        /* \"#utility.yul\":7736:7905   */\n      swap3\n      swap2\n      pop\n      pop\n      jump\t// out\n        /* \"#utility.yul\":7911:8288   */\n    tag_170:\n        /* \"#utility.yul\":7999:8002   */\n      0x00\n        /* \"#utility.yul\":8027:8066   */\n      tag_268\n        /* \"#utility.yul\":8060:8065   */\n      dup3\n        /* \"#utility.yul\":8027:8066   */\n      tag_147\n      jump\t// in\n    tag_268:\n        /* \"#utility.yul\":8082:8153   */\n      tag_269\n        /* \"#utility.yul\":8146:8152   */\n      dup2\n        /* \"#utility.yul\":8141:8144   */\n      dup6\n        /* \"#utility.yul\":8082:8153   */\n      tag_169\n      jump\t// in\n    tag_269:\n        /* \"#utility.yul\":8075:8153   */\n      swap4\n      pop\n        /* \"#utility.yul\":8162:8227   */\n      tag_270\n        /* \"#utility.yul\":8220:8226   */\n      dup2\n        /* \"#utility.yul\":8215:8218   */\n      dup6\n        /* \"#utility.yul\":8208:8212   */\n      0x20\n        /* \"#utility.yul\":8201:8206   */\n      dup7\n        /* \"#utility.yul\":8197:8213   */\n      add\n        /* \"#utility.yul\":8162:8227   */\n      tag_149\n      jump\t// in\n    tag_270:\n        /* \"#utility.yul\":8252:8281   */\n      tag_271\n        /* \"#utility.yul\":8274:8280   */\n      dup2\n        /* \"#utility.yul\":8252:8281   */\n      tag_150\n      jump\t// in\n    tag_271:\n        /* \"#utility.yul\":8247:8250   */\n      dup5\n        /* \"#utility.yul\":8243:8282   */\n      add\n        /* \"#utility.yul\":8236:8282   */\n      swap2\n      pop\n        /* \"#utility.yul\":8003:8288   */\n      pop\n        /* \"#utility.yul\":7911:8288   */\n      swap3\n      swap2\n      pop\n      pop\n      jump\t// out\n        /* \"#utility.yul\":8294:8607   */\n    tag_18:\n        /* \"#utility.yul\":8407:8411   */\n      0x00\n        /* \"#utility.yul\":8445:8447   */\n      0x20\n        /* \"#utility.yul\":8434:8443   */\n      dup3\n        /* \"#utility.yul\":8430:8448   */\n      add\n        /* \"#utility.yul\":8422:8448   */\n      swap1\n      pop\n        /* \"#utility.yul\":8494:8503   */\n      dup2\n        /* \"#utility.yul\":8488:8492   */\n      dup2\n        /* \"#utility.yul\":8484:8504   */\n      sub\n        /* \"#utility.yul\":8480:8481   */\n      0x00\n        /* \"#utility.yul\":8469:8478   */\n      dup4\n        /* \"#utility.yul\":8465:8482   */\n      add\n        /* \"#utility.yul\":8458:8505   */\n      mstore\n        /* \"#utility.yul\":8522:8600   */\n      tag_273\n        /* \"#utility.yul\":8595:8599   */\n      dup2\n        /* \"#utility.yul\":8586:8592   */\n      dup5\n        /* \"#utility.yul\":8522:8600   */\n      tag_170\n      jump\t// in\n    tag_273:\n        /* \"#utility.yul\":8514:8600   */\n      swap1\n      pop\n        /* \"#utility.yul\":8294:8607   */\n      swap3\n      swap2\n      pop\n      pop\n      jump\t// out\n        /* \"#utility.yul\":8613:8730   */\n    tag_171:\n        /* \"#utility.yul\":8722:8723   */\n      0x00\n        /* \"#utility.yul\":8719:8720   */\n      dup1\n        /* \"#utility.yul\":8712:8724   */\n      revert\n        /* \"#utility.yul\":8736:8853   */\n    tag_172:\n        /* \"#utility.yul\":8845:8846   */\n      0x00\n        /* \"#utility.yul\":8842:8843   */\n      dup1\n        /* \"#utility.yul\":8835:8847   */\n      revert\n        /* \"#utility.yul\":8859:9039   */\n    tag_173:\n        /* \"#utility.yul\":8907:8984   */\n      0x4e487b7100000000000000000000000000000000000000000000000000000000\n        /* \"#utility.yul\":8904:8905   */\n      0x00\n        /* \"#utility.yul\":8897:8985   */\n      mstore\n        /* \"#utility.yul\":9004:9008   */\n      0x41\n        /* \"#utility.yul\":9001:9002   */\n      0x04\n        /* \"#utility.yul\":8994:9009   */\n      mstore\n        /* \"#utility.yul\":9028:9032   */\n      0x24\n        /* \"#utility.yul\":9025:9026   */\n      0x00\n        /* \"#utility.yul\":9018:9033   */\n      revert\n        /* \"#utility.yul\":9045:9326   */\n    tag_174:\n        /* \"#utility.yul\":9128:9155   */\n      tag_278\n        /* \"#utility.yul\":9150:9154   */\n      dup3\n        /* \"#utility.yul\":9128:9155   */\n      tag_150\n      jump\t// in\n    tag_278:\n        /* \"#utility.yul\":9120:9126   */\n      dup2\n        /* \"#utility.yul\":9116:9156   */\n      add\n        /* \"#utility.yul\":9258:9264   */\n      dup2\n        /* \"#utility.yul\":9246:9256   */\n      dup2\n        /* \"#utility.yul\":9243:9265   */\n      lt\n        /* \"#utility.yul\":9222:9240   */\n      0xffffffffffffffff\n        /* \"#utility.yul\":9210:9220   */\n      dup3\n        /* \"#utility.yul\":9207:9241   */\n      gt\n        /* \"#utility.yul\":9204:9266   */\n      or\n        /* \"#utility.yul\":9201:9289   */\n      iszero\n      tag_279\n      jumpi\n        /* \"#utility.yul\":9269:9287   */\n      tag_280\n      tag_173\n      jump\t// in\n    tag_280:\n        /* \"#utility.yul\":9201:9289   */\n    tag_279:\n        /* \"#utility.yul\":9309:9319   */\n      dup1\n        /* \"#utility.yul\":9305:9307   */\n      0x40\n        /* \"#utility.yul\":9298:9320   */\n      mstore\n        /* \"#utility.yul\":9088:9326   */\n      pop\n        /* \"#utility.yul\":9045:9326   */\n      pop\n      pop\n      jump\t// out\n        /* \"#utility.yul\":9332:9461   */\n    tag_175:\n        /* \"#utility.yul\":9366:9372   */\n      0x00\n        /* \"#utility.yul\":9393:9413   */\n      tag_282\n      tag_164\n      jump\t// in\n    tag_282:\n        /* \"#utility.yul\":9383:9413   */\n      swap1\n      pop\n        /* \"#utility.yul\":9422:9455   */\n      tag_283\n        /* \"#utility.yul\":9450:9454   */\n      dup3\n        /* \"#utility.yul\":9442:9448   */\n      dup3\n        /* \"#utility.yul\":9422:9455   */\n      tag_174\n      jump\t// in\n    tag_283:\n        /* \"#utility.yul\":9332:9461   */\n      swap2\n      swap1\n      pop\n      jump\t// out\n        /* \"#utility.yul\":9467:9775   */\n    tag_176:\n        /* \"#utility.yul\":9529:9533   */\n      0x00\n        /* \"#utility.yul\":9619:9637   */\n      0xffffffffffffffff\n        /* \"#utility.yul\":9611:9617   */\n      dup3\n        /* \"#utility.yul\":9608:9638   */\n      gt\n        /* \"#utility.yul\":9605:9661   */\n      iszero\n      tag_285\n      jumpi\n        /* \"#utility.yul\":9641:9659   */\n      tag_286\n      tag_173\n      jump\t// in\n    tag_286:\n        /* \"#utility.yul\":9605:9661   */\n    tag_285:\n        /* \"#utility.yul\":9679:9708   */\n      tag_287\n        /* \"#utility.yul\":9701:9707   */\n      dup3\n        /* \"#utility.yul\":9679:9708   */\n      tag_150\n      jump\t// in\n    tag_287:\n        /* \"#utility.yul\":9671:9708   */\n      swap1\n      pop\n        /* \"#utility.yul\":9763:9767   */\n      0x20\n        /* \"#utility.yul\":9757:9761   */\n      dup2\n        /* \"#utility.yul\":9753:9768   */\n      add\n        /* \"#utility.yul\":9745:9768   */\n      swap1\n      pop\n        /* \"#utility.yul\":9467:9775   */\n      swap2\n      swap1\n      pop\n      jump\t// out\n        /* \"#utility.yul\":9781:9929   */\n    tag_177:\n        /* \"#utility.yul\":9879:9885   */\n      dup3\n        /* \"#utility.yul\":9874:9877   */\n      dup2\n        /* \"#utility.yul\":9869:9872   */\n      dup4\n        /* \"#utility.yul\":9856:9886   */\n      calldatacopy\n        /* \"#utility.yul\":9920:9921   */\n      0x00\n        /* \"#utility.yul\":9911:9917   */\n      dup4\n        /* \"#utility.yul\":9906:9909   */\n      dup4\n        /* \"#utility.yul\":9902:9918   */\n      add\n        /* \"#utility.yul\":9895:9922   */\n      mstore\n        /* \"#utility.yul\":9781:9929   */\n      pop\n      pop\n      pop\n      jump\t// out\n        /* \"#utility.yul\":9935:10360   */\n    tag_178:\n        /* \"#utility.yul\":10013:10018   */\n      0x00\n        /* \"#utility.yul\":10038:10104   */\n      tag_290\n        /* \"#utility.yul\":10054:10103   */\n      tag_291\n        /* \"#utility.yul\":10096:10102   */\n      dup5\n        /* \"#utility.yul\":10054:10103   */\n      tag_176\n      jump\t// in\n    tag_291:\n        /* \"#utility.yul\":10038:10104   */\n      tag_175\n      jump\t// in\n    tag_290:\n        /* \"#utility.yul\":10029:10104   */\n      swap1\n      pop\n        /* \"#utility.yul\":10127:10133   */\n      dup3\n        /* \"#utility.yul\":10120:10125   */\n      dup2\n        /* \"#utility.yul\":10113:10134   */\n      mstore\n        /* \"#utility.yul\":10165:10169   */\n      0x20\n        /* \"#utility.yul\":10158:10163   */\n      dup2\n        /* \"#utility.yul\":10154:10170   */\n      add\n        /* \"#utility.yul\":10203:10206   */\n      dup5\n        /* \"#utility.yul\":10194:10200   */\n      dup5\n        /* \"#utility.yul\":10189:10192   */\n      dup5\n        /* \"#utility.yul\":10185:10201   */\n      add\n        /* \"#utility.yul\":10182:10207   */\n      gt\n        /* \"#utility.yul\":10179:10291   */\n      iszero\n      tag_292\n      jumpi\n        /* \"#utility.yul\":10210:10289   */\n      tag_293\n      tag_172\n      jump\t// in\n    tag_293:\n        /* \"#utility.yul\":10179:10291   */\n    tag_292:\n        /* \"#utility.yul\":10300:10354   */\n      tag_294\n        /* \"#utility.yul\":10347:10353   */\n      dup5\n        /* \"#utility.yul\":10342:10345   */\n      dup3\n        /* \"#utility.yul\":10337:10340   */\n      dup6\n        /* \"#utility.yul\":10300:10354   */\n      tag_177\n      jump\t// in\n    tag_294:\n        /* \"#utility.yul\":10019:10360   */\n      pop\n        /* \"#utility.yul\":9935:10360   */\n      swap4\n      swap3\n      pop\n      pop\n      pop\n      jump\t// out\n        /* \"#utility.yul\":10380:10720   */\n    tag_179:\n        /* \"#utility.yul\":10436:10441   */\n      0x00\n        /* \"#utility.yul\":10485:10488   */\n      dup3\n        /* \"#utility.yul\":10478:10482   */\n      0x1f\n        /* \"#utility.yul\":10470:10476   */\n      dup4\n        /* \"#utility.yul\":10466:10483   */\n      add\n        /* \"#utility.yul\":10462:10489   */\n      slt\n        /* \"#utility.yul\":10452:10574   */\n      tag_296\n      jumpi\n        /* \"#utility.yul\":10493:10572   */\n      tag_297\n      tag_171\n      jump\t// in\n    tag_297:\n        /* \"#utility.yul\":10452:10574   */\n    tag_296:\n        /* \"#utility.yul\":10610:10616   */\n      dup2\n        /* \"#utility.yul\":10597:10617   */\n      calldataload\n        /* \"#utility.yul\":10635:10714   */\n      tag_298\n        /* \"#utility.yul\":10710:10713   */\n      dup5\n        /* \"#utility.yul\":10702:10708   */\n      dup3\n        /* \"#utility.yul\":10695:10699   */\n      0x20\n        /* \"#utility.yul\":10687:10693   */\n      dup7\n        /* \"#utility.yul\":10683:10700   */\n      add\n        /* \"#utility.yul\":10635:10714   */\n      tag_178\n      jump\t// in\n    tag_298:\n        /* \"#utility.yul\":10626:10714   */\n      swap2\n      pop\n        /* \"#utility.yul\":10442:10720   */\n      pop\n        /* \"#utility.yul\":10380:10720   */\n      swap3\n      swap2\n      pop\n      pop\n      jump\t// out\n        /* \"#utility.yul\":10726:11047   */\n    tag_180:\n        /* \"#utility.yul\":10813:10817   */\n      0x00\n        /* \"#utility.yul\":10903:10921   */\n      0xffffffffffffffff\n        /* \"#utility.yul\":10895:10901   */\n      dup3\n        /* \"#utility.yul\":10892:10922   */\n      gt\n        /* \"#utility.yul\":10889:10945   */\n      iszero\n      tag_300\n      jumpi\n        /* \"#utility.yul\":10925:10943   */\n      tag_301\n      tag_173\n      jump\t// in\n    tag_301:\n        /* \"#utility.yul\":10889:10945   */\n    tag_300:\n        /* \"#utility.yul\":10975:10979   */\n      0x20\n        /* \"#utility.yul\":10967:10973   */\n      dup3\n        /* \"#utility.yul\":10963:10980   */\n      mul\n        /* \"#utility.yul\":10955:10980   */\n      swap1\n      pop\n        /* \"#utility.yul\":11035:11039   */\n      0x20\n        /* \"#utility.yul\":11029:11033   */\n      dup2\n        /* \"#utility.yul\":11025:11040   */\n      add\n        /* \"#utility.yul\":11017:11040   */\n      swap1\n      pop\n        /* \"#utility.yul\":10726:11047   */\n      swap2\n      swap1\n      pop\n      jump\t// out\n        /* \"#utility.yul\":11053:11170   */\n    tag_181:\n        /* \"#utility.yul\":11162:11163   */\n      0x00\n        /* \"#utility.yul\":11159:11160   */\n      dup1\n        /* \"#utility.yul\":11152:11164   */\n      revert\n        /* \"#utility.yul\":11192:12137   */\n    tag_182:\n        /* \"#utility.yul\":11298:11303   */\n      0x00\n        /* \"#utility.yul\":11323:11414   */\n      tag_304\n        /* \"#utility.yul\":11339:11413   */\n      tag_305\n        /* \"#utility.yul\":11406:11412   */\n      dup5\n        /* \"#utility.yul\":11339:11413   */\n      tag_180\n      jump\t// in\n    tag_305:\n        /* \"#utility.yul\":11323:11414   */\n      tag_175\n      jump\t// in\n    tag_304:\n        /* \"#utility.yul\":11314:11414   */\n      swap1\n      pop\n        /* \"#utility.yul\":11434:11439   */\n      dup1\n        /* \"#utility.yul\":11463:11469   */\n      dup4\n        /* \"#utility.yul\":11456:11461   */\n      dup3\n        /* \"#utility.yul\":11449:11470   */\n      mstore\n        /* \"#utility.yul\":11497:11501   */\n      0x20\n        /* \"#utility.yul\":11490:11495   */\n      dup3\n        /* \"#utility.yul\":11486:11502   */\n      add\n        /* \"#utility.yul\":11479:11502   */\n      swap1\n      pop\n        /* \"#utility.yul\":11550:11554   */\n      0x20\n        /* \"#utility.yul\":11542:11548   */\n      dup5\n        /* \"#utility.yul\":11538:11555   */\n      mul\n        /* \"#utility.yul\":11530:11536   */\n      dup4\n        /* \"#utility.yul\":11526:11556   */\n      add\n        /* \"#utility.yul\":11579:11582   */\n      dup6\n        /* \"#utility.yul\":11571:11577   */\n      dup2\n        /* \"#utility.yul\":11568:11583   */\n      gt\n        /* \"#utility.yul\":11565:11687   */\n      iszero\n      tag_306\n      jumpi\n        /* \"#utility.yul\":11598:11677   */\n      tag_307\n      tag_181\n      jump\t// in\n    tag_307:\n        /* \"#utility.yul\":11565:11687   */\n    tag_306:\n        /* \"#utility.yul\":11713:11719   */\n      dup4\n        /* \"#utility.yul\":11696:12131   */\n    tag_308:\n        /* \"#utility.yul\":11730:11736   */\n      dup2\n        /* \"#utility.yul\":11725:11728   */\n      dup2\n        /* \"#utility.yul\":11722:11737   */\n      lt\n        /* \"#utility.yul\":11696:12131   */\n      iszero\n      tag_310\n      jumpi\n        /* \"#utility.yul\":11819:11822   */\n      dup1\n        /* \"#utility.yul\":11806:11823   */\n      calldataload\n        /* \"#utility.yul\":11855:11873   */\n      0xffffffffffffffff\n        /* \"#utility.yul\":11842:11853   */\n      dup2\n        /* \"#utility.yul\":11839:11874   */\n      gt\n        /* \"#utility.yul\":11836:11958   */\n      iszero\n      tag_311\n      jumpi\n        /* \"#utility.yul\":11877:11956   */\n      tag_312\n      tag_171\n      jump\t// in\n    tag_312:\n        /* \"#utility.yul\":11836:11958   */\n    tag_311:\n        /* \"#utility.yul\":12001:12012   */\n      dup1\n        /* \"#utility.yul\":11993:11999   */\n      dup7\n        /* \"#utility.yul\":11989:12013   */\n      add\n        /* \"#utility.yul\":12039:12086   */\n      tag_313\n        /* \"#utility.yul\":12082:12085   */\n      dup10\n        /* \"#utility.yul\":12070:12080   */\n      dup3\n        /* \"#utility.yul\":12039:12086   */\n      tag_179\n      jump\t// in\n    tag_313:\n        /* \"#utility.yul\":12034:12037   */\n      dup6\n        /* \"#utility.yul\":12027:12087   */\n      mstore\n        /* \"#utility.yul\":12116:12120   */\n      0x20\n        /* \"#utility.yul\":12111:12114   */\n      dup6\n        /* \"#utility.yul\":12107:12121   */\n      add\n        /* \"#utility.yul\":12100:12121   */\n      swap5\n      pop\n        /* \"#utility.yul\":11772:12131   */\n      pop\n      pop\n        /* \"#utility.yul\":11756:11760   */\n      0x20\n        /* \"#utility.yul\":11751:11754   */\n      dup2\n        /* \"#utility.yul\":11747:11761   */\n      add\n        /* \"#utility.yul\":11740:11761   */\n      swap1\n      pop\n        /* \"#utility.yul\":11696:12131   */\n      jump(tag_308)\n    tag_310:\n        /* \"#utility.yul\":11700:11721   */\n      pop\n        /* \"#utility.yul\":11304:12137   */\n      pop\n      pop\n        /* \"#utility.yul\":11192:12137   */\n      swap4\n      swap3\n      pop\n      pop\n      pop\n      jump\t// out\n        /* \"#utility.yul\":12159:12549   */\n    tag_183:\n        /* \"#utility.yul\":12240:12245   */\n      0x00\n        /* \"#utility.yul\":12289:12292   */\n      dup3\n        /* \"#utility.yul\":12282:12286   */\n      0x1f\n        /* \"#utility.yul\":12274:12280   */\n      dup4\n        /* \"#utility.yul\":12270:12287   */\n      add\n        /* \"#utility.yul\":12266:12293   */\n      slt\n        /* \"#utility.yul\":12256:12378   */\n      tag_315\n      jumpi\n        /* \"#utility.yul\":12297:12376   */\n      tag_316\n      tag_171\n      jump\t// in\n    tag_316:\n        /* \"#utility.yul\":12256:12378   */\n    tag_315:\n        /* \"#utility.yul\":12414:12420   */\n      dup2\n        /* \"#utility.yul\":12401:12421   */\n      calldataload\n        /* \"#utility.yul\":12439:12543   */\n      tag_317\n        /* \"#utility.yul\":12539:12542   */\n      dup5\n        /* \"#utility.yul\":12531:12537   */\n      dup3\n        /* \"#utility.yul\":12524:12528   */\n      0x20\n        /* \"#utility.yul\":12516:12522   */\n      dup7\n        /* \"#utility.yul\":12512:12529   */\n      add\n        /* \"#utility.yul\":12439:12543   */\n      tag_182\n      jump\t// in\n    tag_317:\n        /* \"#utility.yul\":12430:12543   */\n      swap2\n      pop\n        /* \"#utility.yul\":12246:12549   */\n      pop\n        /* \"#utility.yul\":12159:12549   */\n      swap3\n      swap2\n      pop\n      pop\n      jump\t// out\n        /* \"#utility.yul\":12555:13730   */\n    tag_21:\n        /* \"#utility.yul\":12686:12692   */\n      0x00\n        /* \"#utility.yul\":12694:12700   */\n      dup1\n        /* \"#utility.yul\":12702:12708   */\n      0x00\n        /* \"#utility.yul\":12710:12716   */\n      dup1\n        /* \"#utility.yul\":12759:12762   */\n      0x80\n        /* \"#utility.yul\":12747:12756   */\n      dup6\n        /* \"#utility.yul\":12738:12745   */\n      dup8\n        /* \"#utility.yul\":12734:12757   */\n      sub\n        /* \"#utility.yul\":12730:12763   */\n      slt\n        /* \"#utility.yul\":12727:12847   */\n      iszero\n      tag_319\n      jumpi\n        /* \"#utility.yul\":12766:12845   */\n      tag_320\n      tag_165\n      jump\t// in\n    tag_320:\n        /* \"#utility.yul\":12727:12847   */\n    tag_319:\n        /* \"#utility.yul\":12914:12915   */\n      0x00\n        /* \"#utility.yul\":12903:12912   */\n      dup6\n        /* \"#utility.yul\":12899:12916   */\n      add\n        /* \"#utility.yul\":12886:12917   */\n      calldataload\n        /* \"#utility.yul\":12944:12962   */\n      0xffffffffffffffff\n        /* \"#utility.yul\":12936:12942   */\n      dup2\n        /* \"#utility.yul\":12933:12963   */\n      gt\n        /* \"#utility.yul\":12930:13047   */\n      iszero\n      tag_321\n      jumpi\n        /* \"#utility.yul\":12966:13045   */\n      tag_322\n      tag_166\n      jump\t// in\n    tag_322:\n        /* \"#utility.yul\":12930:13047   */\n    tag_321:\n        /* \"#utility.yul\":13071:13134   */\n      tag_323\n        /* \"#utility.yul\":13126:13133   */\n      dup8\n        /* \"#utility.yul\":13117:13123   */\n      dup3\n        /* \"#utility.yul\":13106:13115   */\n      dup9\n        /* \"#utility.yul\":13102:13124   */\n      add\n        /* \"#utility.yul\":13071:13134   */\n      tag_179\n      jump\t// in\n    tag_323:\n        /* \"#utility.yul\":13061:13134   */\n      swap5\n      pop\n        /* \"#utility.yul\":12857:13144   */\n      pop\n        /* \"#utility.yul\":13183:13185   */\n      0x20\n        /* \"#utility.yul\":13209:13262   */\n      tag_324\n        /* \"#utility.yul\":13254:13261   */\n      dup8\n        /* \"#utility.yul\":13245:13251   */\n      dup3\n        /* \"#utility.yul\":13234:13243   */\n      dup9\n        /* \"#utility.yul\":13230:13252   */\n      add\n        /* \"#utility.yul\":13209:13262   */\n      tag_168\n      jump\t// in\n    tag_324:\n        /* \"#utility.yul\":13199:13262   */\n      swap4\n      pop\n        /* \"#utility.yul\":13154:13272   */\n      pop\n        /* \"#utility.yul\":13311:13313   */\n      0x40\n        /* \"#utility.yul\":13337:13390   */\n      tag_325\n        /* \"#utility.yul\":13382:13389   */\n      dup8\n        /* \"#utility.yul\":13373:13379   */\n      dup3\n        /* \"#utility.yul\":13362:13371   */\n      dup9\n        /* \"#utility.yul\":13358:13380   */\n      add\n        /* \"#utility.yul\":13337:13390   */\n      tag_168\n      jump\t// in\n    tag_325:\n        /* \"#utility.yul\":13327:13390   */\n      swap3\n      pop\n        /* \"#utility.yul\":13282:13400   */\n      pop\n        /* \"#utility.yul\":13467:13469   */\n      0x60\n        /* \"#utility.yul\":13456:13465   */\n      dup6\n        /* \"#utility.yul\":13452:13470   */\n      add\n        /* \"#utility.yul\":13439:13471   */\n      calldataload\n        /* \"#utility.yul\":13498:13516   */\n      0xffffffffffffffff\n        /* \"#utility.yul\":13490:13496   */\n      dup2\n        /* \"#utility.yul\":13487:13517   */\n      gt\n        /* \"#utility.yul\":13484:13601   */\n      iszero\n      tag_326\n      jumpi\n        /* \"#utility.yul\":13520:13599   */\n      tag_327\n      tag_166\n      jump\t// in\n    tag_327:\n        /* \"#utility.yul\":13484:13601   */\n    tag_326:\n        /* \"#utility.yul\":13625:13713   */\n      tag_328\n        /* \"#utility.yul\":13705:13712   */\n      dup8\n        /* \"#utility.yul\":13696:13702   */\n      dup3\n        /* \"#utility.yul\":13685:13694   */\n      dup9\n        /* \"#utility.yul\":13681:13703   */\n      add\n        /* \"#utility.yul\":13625:13713   */\n      tag_183\n      jump\t// in\n    tag_328:\n        /* \"#utility.yul\":13615:13713   */\n      swap2\n      pop\n        /* \"#utility.yul\":13410:13723   */\n      pop\n        /* \"#utility.yul\":12555:13730   */\n      swap3\n      swap6\n      swap2\n      swap5\n      pop\n      swap3\n      pop\n      jump\t// out\n        /* \"#utility.yul\":13736:13854   */\n    tag_184:\n        /* \"#utility.yul\":13823:13847   */\n      tag_330\n        /* \"#utility.yul\":13841:13846   */\n      dup2\n        /* \"#utility.yul\":13823:13847   */\n      tag_152\n      jump\t// in\n    tag_330:\n        /* \"#utility.yul\":13818:13821   */\n      dup3\n        /* \"#utility.yul\":13811:13848   */\n      mstore\n        /* \"#utility.yul\":13736:13854   */\n      pop\n      pop\n      jump\t// out\n        /* \"#utility.yul\":13860:14082   */\n    tag_30:\n        /* \"#utility.yul\":13953:13957   */\n      0x00\n        /* \"#utility.yul\":13991:13993   */\n      0x20\n        /* \"#utility.yul\":13980:13989   */\n      dup3\n        /* \"#utility.yul\":13976:13994   */\n      add\n        /* \"#utility.yul\":13968:13994   */\n      swap1\n      pop\n        /* \"#utility.yul\":14004:14075   */\n      tag_332\n        /* \"#utility.yul\":14072:14073   */\n      0x00\n        /* \"#utility.yul\":14061:14070   */\n      dup4\n        /* \"#utility.yul\":14057:14074   */\n      add\n        /* \"#utility.yul\":14048:14054   */\n      dup5\n        /* \"#utility.yul\":14004:14075   */\n      tag_184\n      jump\t// in\n    tag_332:\n        /* \"#utility.yul\":13860:14082   */\n      swap3\n      swap2\n      pop\n      pop\n      jump\t// out\n        /* \"#utility.yul\":14088:14597   */\n    tag_33:\n        /* \"#utility.yul\":14157:14163   */\n      0x00\n        /* \"#utility.yul\":14206:14208   */\n      0x20\n        /* \"#utility.yul\":14194:14203   */\n      dup3\n        /* \"#utility.yul\":14185:14192   */\n      dup5\n        /* \"#utility.yul\":14181:14204   */\n      sub\n        /* \"#utility.yul\":14177:14209   */\n      slt\n        /* \"#utility.yul\":14174:14293   */\n      iszero\n      tag_334\n      jumpi\n        /* \"#utility.yul\":14212:14291   */\n      tag_335\n      tag_165\n      jump\t// in\n    tag_335:\n        /* \"#utility.yul\":14174:14293   */\n    tag_334:\n        /* \"#utility.yul\":14360:14361   */\n      0x00\n        /* \"#utility.yul\":14349:14358   */\n      dup3\n        /* \"#utility.yul\":14345:14362   */\n      add\n        /* \"#utility.yul\":14332:14363   */\n      calldataload\n        /* \"#utility.yul\":14390:14408   */\n      0xffffffffffffffff\n        /* \"#utility.yul\":14382:14388   */\n      dup2\n        /* \"#utility.yul\":14379:14409   */\n      gt\n        /* \"#utility.yul\":14376:14493   */\n      iszero\n      tag_336\n      jumpi\n        /* \"#utility.yul\":14412:14491   */\n      tag_337\n      tag_166\n      jump\t// in\n    tag_337:\n        /* \"#utility.yul\":14376:14493   */\n    tag_336:\n        /* \"#utility.yul\":14517:14580   */\n      tag_338\n        /* \"#utility.yul\":14572:14579   */\n      dup5\n        /* \"#utility.yul\":14563:14569   */\n      dup3\n        /* \"#utility.yul\":14552:14561   */\n      dup6\n        /* \"#utility.yul\":14548:14570   */\n      add\n        /* \"#utility.yul\":14517:14580   */\n      tag_179\n      jump\t// in\n    tag_338:\n        /* \"#utility.yul\":14507:14580   */\n      swap2\n      pop\n        /* \"#utility.yul\":14303:14590   */\n      pop\n        /* \"#utility.yul\":14088:14597   */\n      swap3\n      swap2\n      pop\n      pop\n      jump\t// out\n        /* \"#utility.yul\":14603:14783   */\n    tag_185:\n        /* \"#utility.yul\":14651:14728   */\n      0x4e487b7100000000000000000000000000000000000000000000000000000000\n        /* \"#utility.yul\":14648:14649   */\n      0x00\n        /* \"#utility.yul\":14641:14729   */\n      mstore\n        /* \"#utility.yul\":14748:14752   */\n      0x22\n        /* \"#utility.yul\":14745:14746   */\n      0x04\n        /* \"#utility.yul\":14738:14753   */\n      mstore\n        /* \"#utility.yul\":14772:14776   */\n      0x24\n        /* \"#utility.yul\":14769:14770   */\n      0x00\n        /* \"#utility.yul\":14762:14777   */\n      revert\n        /* \"#utility.yul\":14789:15109   */\n    tag_41:\n        /* \"#utility.yul\":14833:14839   */\n      0x00\n        /* \"#utility.yul\":14870:14871   */\n      0x02\n        /* \"#utility.yul\":14864:14868   */\n      dup3\n        /* \"#utility.yul\":14860:14872   */\n      div\n        /* \"#utility.yul\":14850:14872   */\n      swap1\n      pop\n        /* \"#utility.yul\":14917:14918   */\n      0x01\n        /* \"#utility.yul\":14911:14915   */\n      dup3\n        /* \"#utility.yul\":14907:14919   */\n      and\n        /* \"#utility.yul\":14938:14956   */\n      dup1\n        /* \"#utility.yul\":14928:15009   */\n      tag_341\n      jumpi\n        /* \"#utility.yul\":14994:14998   */\n      0x7f\n        /* \"#utility.yul\":14986:14992   */\n      dup3\n        /* \"#utility.yul\":14982:14999   */\n      and\n        /* \"#utility.yul\":14972:14999   */\n      swap2\n      pop\n        /* \"#utility.yul\":14928:15009   */\n    tag_341:\n        /* \"#utility.yul\":15056:15058   */\n      0x20\n        /* \"#utility.yul\":15048:15054   */\n      dup3\n        /* \"#utility.yul\":15045:15059   */\n      lt\n        /* \"#utility.yul\":15025:15043   */\n      dup2\n        /* \"#utility.yul\":15022:15060   */\n      sub\n        /* \"#utility.yul\":15019:15103   */\n      tag_342\n      jumpi\n        /* \"#utility.yul\":15075:15093   */\n      tag_343\n      tag_185\n      jump\t// in\n    tag_343:\n        /* \"#utility.yul\":15019:15103   */\n    tag_342:\n        /* \"#utility.yul\":14840:15109   */\n      pop\n        /* \"#utility.yul\":14789:15109   */\n      swap2\n      swap1\n      pop\n      jump\t// out\n        /* \"#utility.yul\":15115:15256   */\n    tag_186:\n        /* \"#utility.yul\":15164:15168   */\n      0x00\n        /* \"#utility.yul\":15187:15190   */\n      dup2\n        /* \"#utility.yul\":15179:15190   */\n      swap1\n      pop\n        /* \"#utility.yul\":15210:15213   */\n      dup2\n        /* \"#utility.yul\":15207:15208   */\n      0x00\n        /* \"#utility.yul\":15200:15214   */\n      mstore\n        /* \"#utility.yul\":15244:15248   */\n      0x20\n        /* \"#utility.yul\":15241:15242   */\n      0x00\n        /* \"#utility.yul\":15231:15249   */\n      keccak256\n        /* \"#utility.yul\":15223:15249   */\n      swap1\n      pop\n        /* \"#utility.yul\":15115:15256   */\n      swap2\n      swap1\n      pop\n      jump\t// out\n        /* \"#utility.yul\":15262:15355   */\n    tag_187:\n        /* \"#utility.yul\":15299:15305   */\n      0x00\n        /* \"#utility.yul\":15346:15348   */\n      0x20\n        /* \"#utility.yul\":15341:15343   */\n      0x1f\n        /* \"#utility.yul\":15334:15339   */\n      dup4\n        /* \"#utility.yul\":15330:15344   */\n      add\n        /* \"#utility.yul\":15326:15349   */\n      div\n        /* \"#utility.yul\":15316:15349   */\n      swap1\n      pop\n        /* \"#utility.yul\":15262:15355   */\n      swap2\n      swap1\n      pop\n      jump\t// out\n        /* \"#utility.yul\":15361:15468   */\n    tag_188:\n        /* \"#utility.yul\":15405:15413   */\n      0x00\n        /* \"#utility.yul\":15455:15460   */\n      dup3\n        /* \"#utility.yul\":15449:15453   */\n      dup3\n        /* \"#utility.yul\":15445:15461   */\n      shl\n        /* \"#utility.yul\":15424:15461   */\n      swap1\n      pop\n        /* \"#utility.yul\":15361:15468   */\n      swap3\n      swap2\n      pop\n      pop\n      jump\t// out\n        /* \"#utility.yul\":15474:15867   */\n    tag_189:\n        /* \"#utility.yul\":15543:15549   */\n      0x00\n        /* \"#utility.yul\":15593:15594   */\n      0x08\n        /* \"#utility.yul\":15581:15591   */\n      dup4\n        /* \"#utility.yul\":15577:15595   */\n      mul\n        /* \"#utility.yul\":15616:15713   */\n      tag_348\n        /* \"#utility.yul\":15646:15712   */\n      0xffffffffffffffffffffffffffffffffffffffffffffffffffffffffffffffff\n        /* \"#utility.yul\":15635:15644   */\n      dup3\n        /* \"#utility.yul\":15616:15713   */\n      tag_188\n      jump\t// in\n    tag_348:\n        /* \"#utility.yul\":15734:15773   */\n      tag_349\n        /* \"#utility.yul\":15764:15772   */\n      dup7\n        /* \"#utility.yul\":15753:15762   */\n      dup4\n        /* \"#utility.yul\":15734:15773   */\n      tag_188\n      jump\t// in\n    tag_349:\n        /* \"#utility.yul\":15722:15773   */\n      swap6\n      pop\n        /* \"#utility.yul\":15806:15810   */\n      dup1\n        /* \"#utility.yul\":15802:15811   */\n      not\n        /* \"#utility.yul\":15795:15800   */\n      dup5\n        /* \"#utility.yul\":15791:15812   */\n      and\n        /* \"#utility.yul\":15782:15812   */\n      swap4\n      pop\n        /* \"#utility.yul\":15855:15859   */\n      dup1\n        /* \"#utility.yul\":15845:15853   */\n      dup7\n        /* \"#utility.yul\":15841:15860   */\n      and\n        /* \"#utility.yul\":15834:15839   */\n      dup5\n        /* \"#utility.yul\":15831:15861   */\n      or\n        /* \"#utility.yul\":15821:15861   */\n      swap3\n      pop\n        /* \"#utility.yul\":15550:15867   */\n      pop\n      pop\n        /* \"#utility.yul\":15474:15867   */\n      swap4\n      swap3\n      pop\n      pop\n      pop\n      jump\t// out\n        /* \"#utility.yul\":15873:15933   */\n    tag_190:\n        /* \"#utility.yul\":15901:15904   */\n      0x00\n        /* \"#utility.yul\":15922:15927   */\n      dup2\n        /* \"#utility.yul\":15915:15927   */\n      swap1\n      pop\n        /* \"#utility.yul\":15873:15933   */\n      swap2\n      swap1\n      pop\n      jump\t// out\n        /* \"#utility.yul\":15939:16081   */\n    tag_191:\n        /* \"#utility.yul\":15989:15998   */\n      0x00\n        /* \"#utility.yul\":16022:16075   */\n      tag_352\n        /* \"#utility.yul\":16040:16074   */\n      tag_353\n        /* \"#utility.yul\":16049:16073   */\n      tag_354\n        /* \"#utility.yul\":16067:16072   */\n      dup5\n        /* \"#utility.yul\":16049:16073   */\n      tag_152\n      jump\t// in\n    tag_354:\n        /* \"#utility.yul\":16040:16074   */\n      tag_190\n      jump\t// in\n    tag_353:\n        /* \"#utility.yul\":16022:16075   */\n      tag_152\n      jump\t// in\n    tag_352:\n        /* \"#utility.yul\":16009:16075   */\n      swap1\n      pop\n        /* \"#utility.yul\":15939:16081   */\n      swap2\n      swap1\n      pop\n      jump\t// out\n        /* \"#utility.yul\":16087:16162   */\n    tag_192:\n        /* \"#utility.yul\":16130:16133   */\n      0x00\n        /* \"#utility.yul\":16151:16156   */\n      dup2\n        /* \"#utility.yul\":16144:16156   */\n      swap1\n      pop\n        /* \"#utility.yul\":16087:16162   */\n      swap2\n      swap1\n      pop\n      jump\t// out\n        /* \"#utility.yul\":16168:16437   */\n    tag_193:\n        /* \"#utility.yul\":16278:16317   */\n      tag_357\n        /* \"#utility.yul\":16309:16316   */\n      dup4\n        /* \"#utility.yul\":16278:16317   */\n      tag_191\n      jump\t// in\n    tag_357:\n        /* \"#utility.yul\":16339:16430   */\n      tag_358\n        /* \"#utility.yul\":16388:16429   */\n      tag_359\n        /* \"#utility.yul\":16412:16428   */\n      dup3\n        /* \"#utility.yul\":16388:16429   */\n      tag_192\n      jump\t// in\n    tag_359:\n        /* \"#utility.yul\":16380:16386   */\n      dup5\n        /* \"#utility.yul\":16373:16377   */\n      dup5\n        /* \"#utility.yul\":16367:16378   */\n      sload\n        /* \"#utility.yul\":16339:16430   */\n      tag_189\n      jump\t// in\n    tag_358:\n        /* \"#utility.yul\":16333:16337   */\n      dup3\n        /* \"#utility.yul\":16326:16431   */\n      sstore\n        /* \"#utility.yul\":16244:16437   */\n      pop\n        /* \"#utility.yul\":16168:16437   */\n      pop\n      pop\n      pop\n      jump\t// out\n        /* \"#utility.yul\":16443:16516   */\n    tag_194:\n        /* \"#utility.yul\":16488:16491   */\n      0x00\n        /* \"#utility.yul\":16443:16516   */\n      swap1\n      jump\t// out\n        /* \"#utility.yul\":16522:16711   */\n    tag_195:\n        /* \"#utility.yul\":16599:16631   */\n      tag_362\n      tag_194\n      jump\t// in\n    tag_362:\n        /* \"#utility.yul\":16640:16705   */\n      tag_363\n        /* \"#utility.yul\":16698:16704   */\n      dup2\n        /* \"#utility.yul\":16690:16696   */\n      dup5\n        /* \"#utility.yul\":16684:16688   */\n      dup5\n        /* \"#utility.yul\":16640:16705   */\n      tag_193\n      jump\t// in\n    tag_363:\n        /* \"#utility.yul\":16575:16711   */\n      pop\n        /* \"#utility.yul\":16522:16711   */\n      pop\n      pop\n      jump\t// out\n        /* \"#utility.yul\":16717:16903   */\n    tag_196:\n        /* \"#utility.yul\":16777:16897   */\n    tag_365:\n        /* \"#utility.yul\":16794:16797   */\n      dup2\n        /* \"#utility.yul\":16787:16792   */\n      dup2\n        /* \"#utility.yul\":16784:16798   */\n      lt\n        /* \"#utility.yul\":16777:16897   */\n      iszero\n      tag_367\n      jumpi\n        /* \"#utility.yul\":16848:16887   */\n      tag_368\n        /* \"#utility.yul\":16885:16886   */\n      0x00\n        /* \"#utility.yul\":16878:16883   */\n      dup3\n        /* \"#utility.yul\":16848:16887   */\n      tag_195\n      jump\t// in\n    tag_368:\n        /* \"#utility.yul\":16821:16822   */\n      0x01\n        /* \"#utility.yul\":16814:16819   */\n      dup2\n        /* \"#utility.yul\":16810:16823   */\n      add\n        /* \"#utility.yul\":16801:16823   */\n      swap1\n      pop\n        /* \"#utility.yul\":16777:16897   */\n      jump(tag_365)\n    tag_367:\n        /* \"#utility.yul\":16717:16903   */\n      pop\n      pop\n      jump\t// out\n        /* \"#utility.yul\":16909:17452   */\n    tag_197:\n        /* \"#utility.yul\":17010:17012   */\n      0x1f\n        /* \"#utility.yul\":17005:17008   */\n      dup3\n        /* \"#utility.yul\":17002:17013   */\n      gt\n        /* \"#utility.yul\":16999:17445   */\n      iszero\n      tag_370\n      jumpi\n        /* \"#utility.yul\":17044:17082   */\n      tag_371\n        /* \"#utility.yul\":17076:17081   */\n      dup2\n        /* \"#utility.yul\":17044:17082   */\n      tag_186\n      jump\t// in\n    tag_371:\n        /* \"#utility.yul\":17128:17157   */\n      tag_372\n        /* \"#utility.yul\":17146:17156   */\n      dup5\n        /* \"#utility.yul\":17128:17157   */\n      tag_187\n      jump\t// in\n    tag_372:\n        /* \"#utility.yul\":17118:17126   */\n      dup2\n        /* \"#utility.yul\":17114:17158   */\n      add\n        /* \"#utility.yul\":17311:17313   */\n      0x20\n        /* \"#utility.yul\":17299:17309   */\n      dup6\n        /* \"#utility.yul\":17296:17314   */\n      lt\n        /* \"#utility.yul\":17293:17342   */\n      iszero\n      tag_373\n      jumpi\n        /* \"#utility.yul\":17332:17340   */\n      dup2\n        /* \"#utility.yul\":17317:17340   */\n      swap1\n      pop\n        /* \"#utility.yul\":17293:17342   */\n    tag_373:\n        /* \"#utility.yul\":17355:17435   */\n      tag_374\n        /* \"#utility.yul\":17411:17433   */\n      tag_375\n        /* \"#utility.yul\":17429:17432   */\n      dup6\n        /* \"#utility.yul\":17411:17433   */\n      tag_187\n      jump\t// in\n    tag_375:\n        /* \"#utility.yul\":17401:17409   */\n      dup4\n        /* \"#utility.yul\":17397:17434   */\n      add\n        /* \"#utility.yul\":17384:17395   */\n      dup3\n        /* \"#utility.yul\":17355:17435   */\n      tag_196\n      jump\t// in\n    tag_374:\n        /* \"#utility.yul\":17014:17445   */\n      pop\n      pop\n        /* \"#utility.yul\":16999:17445   */\n    tag_370:\n        /* \"#utility.yul\":16909:17452   */\n      pop\n      pop\n      pop\n      jump\t// out\n        /* \"#utility.yul\":17458:17575   */\n    tag_198:\n        /* \"#utility.yul\":17512:17520   */\n      0x00\n        /* \"#utility.yul\":17562:17567   */\n      dup3\n        /* \"#utility.yul\":17556:17560   */\n      dup3\n        /* \"#utility.yul\":17552:17568   */\n      shr\n        /* \"#utility.yul\":17531:17568   */\n      swap1\n      pop\n        /* \"#utility.yul\":17458:17575   */\n      swap3\n      swap2\n      pop\n      pop\n      jump\t// out\n        /* \"#utility.yul\":17581:17750   */\n    tag_199:\n        /* \"#utility.yul\":17625:17631   */\n      0x00\n        /* \"#utility.yul\":17658:17709   */\n      tag_378\n        /* \"#utility.yul\":17706:17707   */\n      0x00\n        /* \"#utility.yul\":17702:17708   */\n      not\n        /* \"#utility.yul\":17694:17699   */\n      dup5\n        /* \"#utility.yul\":17691:17692   */\n      0x08\n        /* \"#utility.yul\":17687:17700   */\n      mul\n        /* \"#utility.yul\":17658:17709   */\n      tag_198\n      jump\t// in\n    tag_378:\n        /* \"#utility.yul\":17654:17710   */\n      not\n        /* \"#utility.yul\":17739:17743   */\n      dup1\n        /* \"#utility.yul\":17733:17737   */\n      dup4\n        /* \"#utility.yul\":17729:17744   */\n      and\n        /* \"#utility.yul\":17719:17744   */\n      swap2\n      pop\n        /* \"#utility.yul\":17632:17750   */\n      pop\n        /* \"#utility.yul\":17581:17750   */\n      swap3\n      swap2\n      pop\n      pop\n      jump\t// out\n        /* \"#utility.yul\":17755:18050   */\n    tag_200:\n        /* \"#utility.yul\":17831:17835   */\n      0x00\n        /* \"#utility.yul\":17977:18006   */\n      tag_380\n        /* \"#utility.yul\":18002:18005   */\n      dup4\n        /* \"#utility.yul\":17996:18000   */\n      dup4\n        /* \"#utility.yul\":17977:18006   */\n      tag_199\n      jump\t// in\n    tag_380:\n        /* \"#utility.yul\":17969:18006   */\n      swap2\n      pop\n        /* \"#utility.yul\":18039:18042   */\n      dup3\n        /* \"#utility.yul\":18036:18037   */\n      0x02\n        /* \"#utility.yul\":18032:18043   */\n      mul\n        /* \"#utility.yul\":18026:18030   */\n      dup3\n        /* \"#utility.yul\":18023:18044   */\n      or\n        /* \"#utility.yul\":18015:18044   */\n      swap1\n      pop\n        /* \"#utility.yul\":17755:18050   */\n      swap3\n      swap2\n      pop\n      pop\n      jump\t// out\n        /* \"#utility.yul\":18055:19450   */\n    tag_76:\n        /* \"#utility.yul\":18172:18209   */\n      tag_382\n        /* \"#utility.yul\":18205:18208   */\n      dup3\n        /* \"#utility.yul\":18172:18209   */\n      tag_147\n      jump\t// in\n    tag_382:\n        /* \"#utility.yul\":18274:18292   */\n      0xffffffffffffffff\n        /* \"#utility.yul\":18266:18272   */\n      dup2\n        /* \"#utility.yul\":18263:18293   */\n      gt\n        /* \"#utility.yul\":18260:18316   */\n      iszero\n      tag_383\n      jumpi\n        /* \"#utility.yul\":18296:18314   */\n      tag_384\n      tag_173\n      jump\t// in\n    tag_384:\n        /* \"#utility.yul\":18260:18316   */\n    tag_383:\n        /* \"#utility.yul\":18340:18378   */\n      tag_385\n        /* \"#utility.yul\":18372:18376   */\n      dup3\n        /* \"#utility.yul\":18366:18377   */\n      sload\n        /* \"#utility.yul\":18340:18378   */\n      tag_41\n      jump\t// in\n    tag_385:\n        /* \"#utility.yul\":18425:18492   */\n      tag_386\n        /* \"#utility.yul\":18485:18491   */\n      dup3\n        /* \"#utility.yul\":18477:18483   */\n      dup3\n        /* \"#utility.yul\":18471:18475   */\n      dup6\n        /* \"#utility.yul\":18425:18492   */\n      tag_197\n      jump\t// in\n    tag_386:\n        /* \"#utility.yul\":18519:18520   */\n      0x00\n        /* \"#utility.yul\":18543:18547   */\n      0x20\n        /* \"#utility.yul\":18530:18547   */\n      swap1\n      pop\n        /* \"#utility.yul\":18575:18577   */\n      0x1f\n        /* \"#utility.yul\":18567:18573   */\n      dup4\n        /* \"#utility.yul\":18564:18578   */\n      gt\n        /* \"#utility.yul\":18592:18593   */\n      0x01\n        /* \"#utility.yul\":18587:19205   */\n      dup2\n      eq\n      tag_388\n      jumpi\n        /* \"#utility.yul\":19249:19250   */\n      0x00\n        /* \"#utility.yul\":19266:19272   */\n      dup5\n        /* \"#utility.yul\":19263:19340   */\n      iszero\n      tag_389\n      jumpi\n        /* \"#utility.yul\":19315:19324   */\n      dup3\n        /* \"#utility.yul\":19310:19313   */\n      dup8\n        /* \"#utility.yul\":19306:19325   */\n      add\n        /* \"#utility.yul\":19300:19326   */\n      mload\n        /* \"#utility.yul\":19291:19326   */\n      swap1\n      pop\n        /* \"#utility.yul\":19263:19340   */\n    tag_389:\n        /* \"#utility.yul\":19366:19433   */\n      tag_390\n        /* \"#utility.yul\":19426:19432   */\n      dup6\n        /* \"#utility.yul\":19419:19424   */\n      dup3\n        /* \"#utility.yul\":19366:19433   */\n      tag_200\n      jump\t// in\n    tag_390:\n        /* \"#utility.yul\":19360:19364   */\n      dup7\n        /* \"#utility.yul\":19353:19434   */\n      sstore\n        /* \"#utility.yul\":19222:19444   */\n      pop\n        /* \"#utility.yul\":18557:19444   */\n      jump(tag_387)\n        /* \"#utility.yul\":18587:19205   */\n    tag_388:\n        /* \"#utility.yul\":18639:18643   */\n      0x1f\n        /* \"#utility.yul\":18635:18644   */\n      not\n        /* \"#utility.yul\":18627:18633   */\n      dup5\n        /* \"#utility.yul\":18623:18645   */\n      and\n        /* \"#utility.yul\":18673:18710   */\n      tag_391\n        /* \"#utility.yul\":18705:18709   */\n      dup7\n        /* \"#utility.yul\":18673:18710   */\n      tag_186\n      jump\t// in\n    tag_391:\n        /* \"#utility.yul\":18732:18733   */\n      0x00\n        /* \"#utility.yul\":18746:18954   */\n    tag_392:\n        /* \"#utility.yul\":18760:18767   */\n      dup3\n        /* \"#utility.yul\":18757:18758   */\n      dup2\n        /* \"#utility.yul\":18754:18768   */\n      lt\n        /* \"#utility.yul\":18746:18954   */\n      iszero\n      tag_394\n      jumpi\n        /* \"#utility.yul\":18839:18848   */\n      dup5\n        /* \"#utility.yul\":18834:18837   */\n      dup10\n        /* \"#utility.yul\":18830:18849   */\n      add\n        /* \"#utility.yul\":18824:18850   */\n      mload\n        /* \"#utility.yul\":18816:18822   */\n      dup3\n        /* \"#utility.yul\":18809:18851   */\n      sstore\n        /* \"#utility.yul\":18890:18891   */\n      0x01\n        /* \"#utility.yul\":18882:18888   */\n      dup3\n        /* \"#utility.yul\":18878:18892   */\n      add\n        /* \"#utility.yul\":18868:18892   */\n      swap2\n      pop\n        /* \"#utility.yul\":18937:18939   */\n      0x20\n        /* \"#utility.yul\":18926:18935   */\n      dup6\n        /* \"#utility.yul\":18922:18940   */\n      add\n        /* \"#utility.yul\":18909:18940   */\n      swap5\n      pop\n        /* \"#utility.yul\":18783:18787   */\n      0x20\n        /* \"#utility.yul\":18780:18781   */\n      dup2\n        /* \"#utility.yul\":18776:18788   */\n      add\n        /* \"#utility.yul\":18771:18788   */\n      swap1\n      pop\n        /* \"#utility.yul\":18746:18954   */\n      jump(tag_392)\n    tag_394:\n        /* \"#utility.yul\":18982:18988   */\n      dup7\n        /* \"#utility.yul\":18973:18980   */\n      dup4\n        /* \"#utility.yul\":18970:18989   */\n      lt\n        /* \"#utility.yul\":18967:19146   */\n      iszero\n      tag_395\n      jumpi\n        /* \"#utility.yul\":19040:19049   */\n      dup5\n        /* \"#utility.yul\":19035:19038   */\n      dup10\n        /* \"#utility.yul\":19031:19050   */\n      add\n        /* \"#utility.yul\":19025:19051   */\n      mload\n        /* \"#utility.yul\":19083:19131   */\n      tag_396\n        /* \"#utility.yul\":19125:19129   */\n      0x1f\n        /* \"#utility.yul\":19117:19123   */\n      dup10\n        /* \"#utility.yul\":19113:19130   */\n      and\n        /* \"#utility.yul\":19102:19111   */\n      dup3\n        /* \"#utility.yul\":19083:19131   */\n      tag_199\n      jump\t// in\n    tag_396:\n        /* \"#utility.yul\":19075:19081   */\n      dup4\n        /* \"#utility.yul\":19068:19132   */\n      sstore\n        /* \"#utility.yul\":18990:19146   */\n      pop\n        /* \"#utility.yul\":18967:19146   */\n    tag_395:\n        /* \"#utility.yul\":19192:19193   */\n      0x01\n        /* \"#utility.yul\":19188:19189   */\n      0x02\n        /* \"#utility.yul\":19180:19186   */\n      dup9\n        /* \"#utility.yul\":19176:19190   */\n      mul\n        /* \"#utility.yul\":19172:19194   */\n      add\n        /* \"#utility.yul\":19166:19170   */\n      dup9\n        /* \"#utility.yul\":19159:19195   */\n      sstore\n        /* \"#utility.yul\":18594:19205   */\n      pop\n      pop\n      pop\n        /* \"#utility.yul\":18557:19444   */\n    tag_387:\n      pop\n        /* \"#utility.yul\":18147:19450   */\n      pop\n      pop\n      pop\n        /* \"#utility.yul\":18055:19450   */\n      pop\n      pop\n      jump\t// out\n        /* \"#utility.yul\":19456:19604   */\n    tag_201:\n        /* \"#utility.yul\":19558:19569   */\n      0x00\n        /* \"#utility.yul\":19595:19598   */\n      dup2\n        /* \"#utility.yul\":19580:19598   */\n      swap1\n      pop\n        /* \"#utility.yul\":19456:19604   */\n      swap3\n      swap2\n      pop\n      pop\n      jump\t// out\n        /* \"#utility.yul\":19610:20000   */\n    tag_202:\n        /* \"#utility.yul\":19716:19719   */\n      0x00\n        /* \"#utility.yul\":19744:19783   */\n      tag_399\n        /* \"#utility.yul\":19777:19782   */\n      dup3\n        /* \"#utility.yul\":19744:19783   */\n      tag_147\n      jump\t// in\n    tag_399:\n        /* \"#utility.yul\":19799:19888   */\n      tag_400\n        /* \"#utility.yul\":19881:19887   */\n      dup2\n        /* \"#utility.yul\":19876:19879   */\n      dup6\n        /* \"#utility.yul\":19799:19888   */\n      tag_201\n      jump\t// in\n    tag_400:\n        /* \"#utility.yul\":19792:19888   */\n      swap4\n      pop\n        /* \"#utility.yul\":19897:19962   */\n      tag_401\n        /* \"#utility.yul\":19955:19961   */\n      dup2\n        /* \"#utility.yul\":19950:19953   */\n      dup6\n        /* \"#utility.yul\":19943:19947   */\n      0x20\n        /* \"#utility.yul\":19936:19941   */\n      dup7\n        /* \"#utility.yul\":19932:19948   */\n      add\n        /* \"#utility.yul\":19897:19962   */\n      tag_149\n      jump\t// in\n    tag_401:\n        /* \"#utility.yul\":19987:19993   */\n      dup1\n        /* \"#utility.yul\":19982:19985   */\n      dup5\n        /* \"#utility.yul\":19978:19994   */\n      add\n        /* \"#utility.yul\":19971:19994   */\n      swap2\n      pop\n        /* \"#utility.yul\":19720:20000   */\n      pop\n        /* \"#utility.yul\":19610:20000   */\n      swap3\n      swap2\n      pop\n      pop\n      jump\t// out\n        /* \"#utility.yul\":20006:20281   */\n    tag_105:\n        /* \"#utility.yul\":20138:20141   */\n      0x00\n        /* \"#utility.yul\":20160:20255   */\n      tag_403\n        /* \"#utility.yul\":20251:20254   */\n      dup3\n        /* \"#utility.yul\":20242:20248   */\n      dup5\n        /* \"#utility.yul\":20160:20255   */\n      tag_202\n      jump\t// in\n    tag_403:\n        /* \"#utility.yul\":20153:20255   */\n      swap2\n      pop\n        /* \"#utility.yul\":20272:20275   */\n      dup2\n        /* \"#utility.yul\":20265:20275   */\n      swap1\n      pop\n        /* \"#utility.yul\":20006:20281   */\n      swap3\n      swap2\n      pop\n      pop\n      jump\t// out\n\n    auxdata: 0xa2646970667358221220d833338c3efcf6ffdd0089964ee442fd9e943b556329dc296dcc34509efa590b64736f6c634300081a0033\n}\n",
				"bytecode": {
					"linkReferences": {},
					"object": "6080604052348015600e575f80fd5b5061159e8061001c5f395ff3fe608060405234801561000f575f80fd5b5060043610610060575f3560e01c8063133d046014610064578063674271cd1461008257806384a1288d146100b2578063b0f3bdc2146100ce578063be1c766b146100fe578063cd5b84eb1461011c575b5f80fd5b61006c61014c565b6040516100799190610e48565b60405180910390f35b61009c60048036038101906100979190610ea3565b6103af565b6040516100a99190610f16565b60405180910390f35b6100cc60048036038101906100c79190611144565b61053c565b005b6100e860048036038101906100e39190610ea3565b6105f6565b6040516100f59190610e48565b60405180910390f35b61010661086a565b60405161011391906111ef565b60405180910390f35b61013660048036038101906101319190611208565b610876565b6040516101439190610e48565b60405180910390f35b60606005805480602002602001604051908101604052809291908181526020015f905b828210156103a6578382905f5260205f2090600502016040518060a00160405290815f8201805461019f9061127c565b80601f01602080910402602001604051908101604052809291908181526020018280546101cb9061127c565b80156102165780601f106101ed57610100808354040283529160200191610216565b820191905f5260205f20905b8154815290600101906020018083116101f957829003601f168201915b5050505050815260200160018201548152602001600282015481526020016003820180546102439061127c565b80601f016020809104026020016040519081016040528092919081815260200182805461026f9061127c565b80156102ba5780601f10610291576101008083540402835291602001916102ba565b820191905f5260205f20905b81548152906001019060200180831161029d57829003601f168201915b5050505050815260200160048201805480602002602001604051908101604052809291908181526020015f905b8282101561038f578382905f5260205f200180546103049061127c565b80601f01602080910402602001604051908101604052809291908181526020018280546103309061127c565b801561037b5780601f106103525761010080835404028352916020019161037b565b820191905f5260205f20905b81548152906001019060200180831161035e57829003601f168201915b5050505050815260200190600101906102e7565b50505050815250508152602001906001019061016f565b50505050905090565b6060606482111580156103c35750605a8210155b15610405576040518060400160405280600181526020017f41000000000000000000000000000000000000000000000000000000000000008152509050610537565b605a82108015610416575060508210155b15610458576040518060400160405280600181526020017f42000000000000000000000000000000000000000000000000000000000000008152509050610537565b605082108015610469575060468210155b156104ab576040518060400160405280600181526020017f43000000000000000000000000000000000000000000000000000000000000008152509050610537565b6046821080156104bc5750603c8210155b156104fe576040518060400160405280600181526020017f44000000000000000000000000000000000000000000000000000000000000008152509050610537565b6040518060400160405280600181526020017f460000000000000000000000000000000000000000000000000000000000000081525090505b919050565b60056040518060a00160405280868152602001858152602001848152602001610564856103af565b815260200183815250908060018154018082558091505060019003905f5260205f2090600502015f909190919091505f820151815f0190816105a69190611449565b50602082015181600101556040820151816002015560608201518160030190816105d09190611449565b5060808201518160040190805190602001906105ed929190610af7565b50505050505050565b606060075f8381526020019081526020015f20805480602002602001604051908101604052809291908181526020015f905b8282101561085f578382905f5260205f2090600502016040518060a00160405290815f820180546106589061127c565b80601f01602080910402602001604051908101604052809291908181526020018280546106849061127c565b80156106cf5780601f106106a6576101008083540402835291602001916106cf565b820191905f5260205f20905b8154815290600101906020018083116106b257829003601f168201915b5050505050815260200160018201548152602001600282015481526020016003820180546106fc9061127c565b80601f01602080910402602001604051908101604052809291908181526020018280546107289061127c565b80156107735780601f1061074a57610100808354040283529160200191610773565b820191905f5260205f20905b81548152906001019060200180831161075657829003601f168201915b5050505050815260200160048201805480602002602001604051908101604052809291908181526020015f905b82821015610848578382905f5260205f200180546107bd9061127c565b80601f01602080910402602001604051908101604052809291908181526020018280546107e99061127c565b80156108345780601f1061080b57610100808354040283529160200191610834565b820191905f5260205f20905b81548152906001019060200180831161081757829003601f168201915b5050505050815260200190600101906107a0565b505050508152505081526020019060010190610628565b505050509050919050565b5f600580549050905090565b60606006826040516108889190611552565b9081526020016040518091039020805480602002602001604051908101604052809291908181526020015f905b82821015610aec578382905f5260205f2090600502016040518060a00160405290815f820180546108e59061127c565b80601f01602080910402602001604051908101604052809291908181526020018280546109119061127c565b801561095c5780601f106109335761010080835404028352916020019161095c565b820191905f5260205f20905b81548152906001019060200180831161093f57829003601f168201915b5050505050815260200160018201548152602001600282015481526020016003820180546109899061127c565b80601f01602080910402602001604051908101604052809291908181526020018280546109b59061127c565b8015610a005780601f106109d757610100808354040283529160200191610a00565b820191905f5260205f20905b8154815290600101906020018083116109e357829003601f168201915b5050505050815260200160048201805480602002602001604051908101604052809291908181526020015f905b82821015610ad5578382905f5260205f20018054610a4a9061127c565b80601f0160208091040260200160405190810160405280929190818152602001828054610a769061127c565b8015610ac15780601f10610a9857610100808354040283529160200191610ac1565b820191905f5260205f20905b815481529060010190602001808311610aa457829003601f168201915b505050505081526020019060010190610a2d565b5050505081525050815260200190600101906108b5565b505050509050919050565b828054828255905f5260205f20908101928215610b3d579160200282015b82811115610b3c578251829081610b2c9190611449565b5091602001919060010190610b15565b5b509050610b4a9190610b4e565b5090565b5b80821115610b6d575f8181610b649190610b71565b50600101610b4f565b5090565b508054610b7d9061127c565b5f825580601f10610b8e5750610bab565b601f0160209004905f5260205f2090810190610baa9190610bae565b5b50565b5b80821115610bc5575f815f905550600101610baf565b5090565b5f81519050919050565b5f82825260208201905092915050565b5f819050602082019050919050565b5f81519050919050565b5f82825260208201905092915050565b8281835e5f83830152505050565b5f601f19601f8301169050919050565b5f610c3482610bf2565b610c3e8185610bfc565b9350610c4e818560208601610c0c565b610c5781610c1a565b840191505092915050565b5f819050919050565b610c7481610c62565b82525050565b5f81519050919050565b5f82825260208201905092915050565b5f819050602082019050919050565b5f610cae8383610c2a565b905092915050565b5f602082019050919050565b5f610ccc82610c7a565b610cd68185610c84565b935083602082028501610ce885610c94565b805f5b85811015610d235784840389528151610d048582610ca3565b9450610d0f83610cb6565b925060208a01995050600181019050610ceb565b50829750879550505050505092915050565b5f60a083015f8301518482035f860152610d4f8282610c2a565b9150506020830151610d646020860182610c6b565b506040830151610d776040860182610c6b565b5060608301518482036060860152610d8f8282610c2a565b91505060808301518482036080860152610da98282610cc2565b9150508091505092915050565b5f610dc18383610d35565b905092915050565b5f602082019050919050565b5f610ddf82610bc9565b610de98185610bd3565b935083602082028501610dfb85610be3565b805f5b85811015610e365784840389528151610e178582610db6565b9450610e2283610dc9565b925060208a01995050600181019050610dfe565b50829750879550505050505092915050565b5f6020820190508181035f830152610e608184610dd5565b905092915050565b5f604051905090565b5f80fd5b5f80fd5b610e8281610c62565b8114610e8c575f80fd5b50565b5f81359050610e9d81610e79565b92915050565b5f60208284031215610eb857610eb7610e71565b5b5f610ec584828501610e8f565b91505092915050565b5f82825260208201905092915050565b5f610ee882610bf2565b610ef28185610ece565b9350610f02818560208601610c0c565b610f0b81610c1a565b840191505092915050565b5f6020820190508181035f830152610f2e8184610ede565b905092915050565b5f80fd5b5f80fd5b7f4e487b71000000000000000000000000000000000000000000000000000000005f52604160045260245ffd5b610f7482610c1a565b810181811067ffffffffffffffff82111715610f9357610f92610f3e565b5b80604052505050565b5f610fa5610e68565b9050610fb18282610f6b565b919050565b5f67ffffffffffffffff821115610fd057610fcf610f3e565b5b610fd982610c1a565b9050602081019050919050565b828183375f83830152505050565b5f61100661100184610fb6565b610f9c565b90508281526020810184848401111561102257611021610f3a565b5b61102d848285610fe6565b509392505050565b5f82601f83011261104957611048610f36565b5b8135611059848260208601610ff4565b91505092915050565b5f67ffffffffffffffff82111561107c5761107b610f3e565b5b602082029050602081019050919050565b5f80fd5b5f6110a361109e84611062565b610f9c565b905080838252602082019050602084028301858111156110c6576110c561108d565b5b835b8181101561110d57803567ffffffffffffffff8111156110eb576110ea610f36565b5b8086016110f88982611035565b855260208501945050506020810190506110c8565b5050509392505050565b5f82601f83011261112b5761112a610f36565b5b813561113b848260208601611091565b91505092915050565b5f805f806080858703121561115c5761115b610e71565b5b5f85013567ffffffffffffffff81111561117957611178610e75565b5b61118587828801611035565b945050602061119687828801610e8f565b93505060406111a787828801610e8f565b925050606085013567ffffffffffffffff8111156111c8576111c7610e75565b5b6111d487828801611117565b91505092959194509250565b6111e981610c62565b82525050565b5f6020820190506112025f8301846111e0565b92915050565b5f6020828403121561121d5761121c610e71565b5b5f82013567ffffffffffffffff81111561123a57611239610e75565b5b61124684828501611035565b91505092915050565b7f4e487b71000000000000000000000000000000000000000000000000000000005f52602260045260245ffd5b5f600282049050600182168061129357607f821691505b6020821081036112a6576112a561124f565b5b50919050565b5f819050815f5260205f209050919050565b5f6020601f8301049050919050565b5f82821b905092915050565b5f600883026113087fffffffffffffffffffffffffffffffffffffffffffffffffffffffffffffffff826112cd565b61131286836112cd565b95508019841693508086168417925050509392505050565b5f819050919050565b5f61134d61134861134384610c62565b61132a565b610c62565b9050919050565b5f819050919050565b61136683611333565b61137a61137282611354565b8484546112d9565b825550505050565b5f90565b61138e611382565b61139981848461135d565b505050565b5b818110156113bc576113b15f82611386565b60018101905061139f565b5050565b601f821115611401576113d2816112ac565b6113db846112be565b810160208510156113ea578190505b6113fe6113f6856112be565b83018261139e565b50505b505050565b5f82821c905092915050565b5f6114215f1984600802611406565b1980831691505092915050565b5f6114398383611412565b9150826002028217905092915050565b61145282610bf2565b67ffffffffffffffff81111561146b5761146a610f3e565b5b611475825461127c565b6114808282856113c0565b5f60209050601f8311600181146114b1575f841561149f578287015190505b6114a9858261142e565b865550611510565b601f1984166114bf866112ac565b5f5b828110156114e6578489015182556001820191506020850194506020810190506114c1565b8683101561150357848901516114ff601f891682611412565b8355505b6001600288020188555050505b505050505050565b5f81905092915050565b5f61152c82610bf2565b6115368185611518565b9350611546818560208601610c0c565b80840191505092915050565b5f61155d8284611522565b91508190509291505056fea2646970667358221220d833338c3efcf6ffdd0089964ee442fd9e943b556329dc296dcc34509efa590b64736f6c634300081a0033",
					"opcodes": "PUSH1 0x80 PUSH1 0x40 MSTORE CALLVALUE DUP1 ISZERO PUSH1 0xE JUMPI PUSH0 DUP1 REVERT JUMPDEST POP PUSH2 0x159E DUP1 PUSH2 0x1C PUSH0 CODECOPY PUSH0 RETURN INVALID PUSH1 0x80 PUSH1 0x40 MSTORE CALLVALUE DUP1 ISZERO PUSH2 0xF JUMPI PUSH0 DUP1 REVERT JUMPDEST POP PUSH1 0x4 CALLDATASIZE LT PUSH2 0x60 JUMPI PUSH0 CALLDATALOAD PUSH1 0xE0 SHR DUP1 PUSH4 0x133D0460 EQ PUSH2 0x64 JUMPI DUP1 PUSH4 0x674271CD EQ PUSH2 0x82 JUMPI DUP1 PUSH4 0x84A1288D EQ PUSH2 0xB2 JUMPI DUP1 PUSH4 0xB0F3BDC2 EQ PUSH2 0xCE JUMPI DUP1 PUSH4 0xBE1C766B EQ PUSH2 0xFE JUMPI DUP1 PUSH4 0xCD5B84EB EQ PUSH2 0x11C JUMPI JUMPDEST PUSH0 DUP1 REVERT JUMPDEST PUSH2 0x6C PUSH2 0x14C JUMP JUMPDEST PUSH1 0x40 MLOAD PUSH2 0x79 SWAP2 SWAP1 PUSH2 0xE48 JUMP JUMPDEST PUSH1 0x40 MLOAD DUP1 SWAP2 SUB SWAP1 RETURN JUMPDEST PUSH2 0x9C PUSH1 0x4 DUP1 CALLDATASIZE SUB DUP2 ADD SWAP1 PUSH2 0x97 SWAP2 SWAP1 PUSH2 0xEA3 JUMP JUMPDEST PUSH2 0x3AF JUMP JUMPDEST PUSH1 0x40 MLOAD PUSH2 0xA9 SWAP2 SWAP1 PUSH2 0xF16 JUMP JUMPDEST PUSH1 0x40 MLOAD DUP1 SWAP2 SUB SWAP1 RETURN JUMPDEST PUSH2 0xCC PUSH1 0x4 DUP1 CALLDATASIZE SUB DUP2 ADD SWAP1 PUSH2 0xC7 SWAP2 SWAP1 PUSH2 0x1144 JUMP JUMPDEST PUSH2 0x53C JUMP JUMPDEST STOP JUMPDEST PUSH2 0xE8 PUSH1 0x4 DUP1 CALLDATASIZE SUB DUP2 ADD SWAP1 PUSH2 0xE3 SWAP2 SWAP1 PUSH2 0xEA3 JUMP JUMPDEST PUSH2 0x5F6 JUMP JUMPDEST PUSH1 0x40 MLOAD PUSH2 0xF5 SWAP2 SWAP1 PUSH2 0xE48 JUMP JUMPDEST PUSH1 0x40 MLOAD DUP1 SWAP2 SUB SWAP1 RETURN JUMPDEST PUSH2 0x106 PUSH2 0x86A JUMP JUMPDEST PUSH1 0x40 MLOAD PUSH2 0x113 SWAP2 SWAP1 PUSH2 0x11EF JUMP JUMPDEST PUSH1 0x40 MLOAD DUP1 SWAP2 SUB SWAP1 RETURN JUMPDEST PUSH2 0x136 PUSH1 0x4 DUP1 CALLDATASIZE SUB DUP2 ADD SWAP1 PUSH2 0x131 SWAP2 SWAP1 PUSH2 0x1208 JUMP JUMPDEST PUSH2 0x876 JUMP JUMPDEST PUSH1 0x40 MLOAD PUSH2 0x143 SWAP2 SWAP1 PUSH2 0xE48 JUMP JUMPDEST PUSH1 0x40 MLOAD DUP1 SWAP2 SUB SWAP1 RETURN JUMPDEST PUSH1 0x60 PUSH1 0x5 DUP1 SLOAD DUP1 PUSH1 0x20 MUL PUSH1 0x20 ADD PUSH1 0x40 MLOAD SWAP1 DUP2 ADD PUSH1 0x40 MSTORE DUP1 SWAP3 SWAP2 SWAP1 DUP2 DUP2 MSTORE PUSH1 0x20 ADD PUSH0 SWAP1 JUMPDEST DUP3 DUP3 LT ISZERO PUSH2 0x3A6 JUMPI DUP4 DUP3 SWAP1 PUSH0 MSTORE PUSH1 0x20 PUSH0 KECCAK256 SWAP1 PUSH1 0x5 MUL ADD PUSH1 0x40 MLOAD DUP1 PUSH1 0xA0 ADD PUSH1 0x40 MSTORE SWAP1 DUP2 PUSH0 DUP3 ADD DUP1 SLOAD PUSH2 0x19F SWAP1 PUSH2 0x127C JUMP JUMPDEST DUP1 PUSH1 0x1F ADD PUSH1 0x20 DUP1 SWAP2 DIV MUL PUSH1 0x20 ADD PUSH1 0x40 MLOAD SWAP1 DUP2 ADD PUSH1 0x40 MSTORE DUP1 SWAP3 SWAP2 SWAP1 DUP2 DUP2 MSTORE PUSH1 0x20 ADD DUP3 DUP1 SLOAD PUSH2 0x1CB SWAP1 PUSH2 0x127C JUMP JUMPDEST DUP1 ISZERO PUSH2 0x216 JUMPI DUP1 PUSH1 0x1F LT PUSH2 0x1ED JUMPI PUSH2 0x100 DUP1 DUP4 SLOAD DIV MUL DUP4 MSTORE SWAP2 PUSH1 0x20 ADD SWAP2 PUSH2 0x216 JUMP JUMPDEST DUP3 ADD SWAP2 SWAP1 PUSH0 MSTORE PUSH1 0x20 PUSH0 KECCAK256 SWAP1 JUMPDEST DUP2 SLOAD DUP2 MSTORE SWAP1 PUSH1 0x1 ADD SWAP1 PUSH1 0x20 ADD DUP1 DUP4 GT PUSH2 0x1F9 JUMPI DUP3 SWAP1 SUB PUSH1 0x1F AND DUP3 ADD SWAP2 JUMPDEST POP POP POP POP POP DUP2 MSTORE PUSH1 0x20 ADD PUSH1 0x1 DUP3 ADD SLOAD DUP2 MSTORE PUSH1 0x20 ADD PUSH1 0x2 DUP3 ADD SLOAD DUP2 MSTORE PUSH1 0x20 ADD PUSH1 0x3 DUP3 ADD DUP1 SLOAD PUSH2 0x243 SWAP1 PUSH2 0x127C JUMP JUMPDEST DUP1 PUSH1 0x1F ADD PUSH1 0x20 DUP1 SWAP2 DIV MUL PUSH1 0x20 ADD PUSH1 0x40 MLOAD SWAP1 DUP2 ADD PUSH1 0x40 MSTORE DUP1 SWAP3 SWAP2 SWAP1 DUP2 DUP2 MSTORE PUSH1 0x20 ADD DUP3 DUP1 SLOAD PUSH2 0x26F SWAP1 PUSH2 0x127C JUMP JUMPDEST DUP1 ISZERO PUSH2 0x2BA JUMPI DUP1 PUSH1 0x1F LT PUSH2 0x291 JUMPI PUSH2 0x100 DUP1 DUP4 SLOAD DIV MUL DUP4 MSTORE SWAP2 PUSH1 0x20 ADD SWAP2 PUSH2 0x2BA JUMP JUMPDEST DUP3 ADD SWAP2 SWAP1 PUSH0 MSTORE PUSH1 0x20 PUSH0 KECCAK256 SWAP1 JUMPDEST DUP2 SLOAD DUP2 MSTORE SWAP1 PUSH1 0x1 ADD SWAP1 PUSH1 0x20 ADD DUP1 DUP4 GT PUSH2 0x29D JUMPI DUP3 SWAP1 SUB PUSH1 0x1F AND DUP3 ADD SWAP2 JUMPDEST POP POP POP POP POP DUP2 MSTORE PUSH1 0x20 ADD PUSH1 0x4 DUP3 ADD DUP1 SLOAD DUP1 PUSH1 0x20 MUL PUSH1 0x20 ADD PUSH1 0x40 MLOAD SWAP1 DUP2 ADD PUSH1 0x40 MSTORE DUP1 SWAP3 SWAP2 SWAP1 DUP2 DUP2 MSTORE PUSH1 0x20 ADD PUSH0 SWAP1 JUMPDEST DUP3 DUP3 LT ISZERO PUSH2 0x38F JUMPI DUP4 DUP3 SWAP1 PUSH0 MSTORE PUSH1 0x20 PUSH0 KECCAK256 ADD DUP1 SLOAD PUSH2 0x304 SWAP1 PUSH2 0x127C JUMP JUMPDEST DUP1 PUSH1 0x1F ADD PUSH1 0x20 DUP1 SWAP2 DIV MUL PUSH1 0x20 ADD PUSH1 0x40 MLOAD SWAP1 DUP2 ADD PUSH1 0x40 MSTORE DUP1 SWAP3 SWAP2 SWAP1 DUP2 DUP2 MSTORE PUSH1 0x20 ADD DUP3 DUP1 SLOAD PUSH2 0x330 SWAP1 PUSH2 0x127C JUMP JUMPDEST DUP1 ISZERO PUSH2 0x37B JUMPI DUP1 PUSH1 0x1F LT PUSH2 0x352 JUMPI PUSH2 0x100 DUP1 DUP4 SLOAD DIV MUL DUP4 MSTORE SWAP2 PUSH1 0x20 ADD SWAP2 PUSH2 0x37B JUMP JUMPDEST DUP3 ADD SWAP2 SWAP1 PUSH0 MSTORE PUSH1 0x20 PUSH0 KECCAK256 SWAP1 JUMPDEST DUP2 SLOAD DUP2 MSTORE SWAP1 PUSH1 0x1 ADD SWAP1 PUSH1 0x20 ADD DUP1 DUP4 GT PUSH2 0x35E JUMPI DUP3 SWAP1 SUB PUSH1 0x1F AND DUP3 ADD SWAP2 JUMPDEST POP POP POP POP POP DUP2 MSTORE PUSH1 0x20 ADD SWAP1 PUSH1 0x1 ADD SWAP1 PUSH2 0x2E7 JUMP JUMPDEST POP POP POP POP DUP2 MSTORE POP POP DUP2 MSTORE PUSH1 0x20 ADD SWAP1 PUSH1 0x1 ADD SWAP1 PUSH2 0x16F JUMP JUMPDEST POP POP POP POP SWAP1 POP SWAP1 JUMP JUMPDEST PUSH1 0x60 PUSH1 0x64 DUP3 GT ISZERO DUP1 ISZERO PUSH2 0x3C3 JUMPI POP PUSH1 0x5A DUP3 LT ISZERO JUMPDEST ISZERO PUSH2 0x405 JUMPI PUSH1 0x40 MLOAD DUP1 PUSH1 0x40 ADD PUSH1 0x40 MSTORE DUP1 PUSH1 0x1 DUP2 MSTORE PUSH1 0x20 ADD PUSH32 0x4100000000000000000000000000000000000000000000000000000000000000 DUP2 MSTORE POP SWAP1 POP PUSH2 0x537 JUMP JUMPDEST PUSH1 0x5A DUP3 LT DUP1 ISZERO PUSH2 0x416 JUMPI POP PUSH1 0x50 DUP3 LT ISZERO JUMPDEST ISZERO PUSH2 0x458 JUMPI PUSH1 0x40 MLOAD DUP1 PUSH1 0x40 ADD PUSH1 0x40 MSTORE DUP1 PUSH1 0x1 DUP2 MSTORE PUSH1 0x20 ADD PUSH32 0x4200000000000000000000000000000000000000000000000000000000000000 DUP2 MSTORE POP SWAP1 POP PUSH2 0x537 JUMP JUMPDEST PUSH1 0x50 DUP3 LT DUP1 ISZERO PUSH2 0x469 JUMPI POP PUSH1 0x46 DUP3 LT ISZERO JUMPDEST ISZERO PUSH2 0x4AB JUMPI PUSH1 0x40 MLOAD DUP1 PUSH1 0x40 ADD PUSH1 0x40 MSTORE DUP1 PUSH1 0x1 DUP2 MSTORE PUSH1 0x20 ADD PUSH32 0x4300000000000000000000000000000000000000000000000000000000000000 DUP2 MSTORE POP SWAP1 POP PUSH2 0x537 JUMP JUMPDEST PUSH1 0x46 DUP3 LT DUP1 ISZERO PUSH2 0x4BC JUMPI POP PUSH1 0x3C DUP3 LT ISZERO JUMPDEST ISZERO PUSH2 0x4FE JUMPI PUSH1 0x40 MLOAD DUP1 PUSH1 0x40 ADD PUSH1 0x40 MSTORE DUP1 PUSH1 0x1 DUP2 MSTORE PUSH1 0x20 ADD PUSH32 0x4400000000000000000000000000000000000000000000000000000000000000 DUP2 MSTORE POP SWAP1 POP PUSH2 0x537 JUMP JUMPDEST PUSH1 0x40 MLOAD DUP1 PUSH1 0x40 ADD PUSH1 0x40 MSTORE DUP1 PUSH1 0x1 DUP2 MSTORE PUSH1 0x20 ADD PUSH32 0x4600000000000000000000000000000000000000000000000000000000000000 DUP2 MSTORE POP SWAP1 POP JUMPDEST SWAP2 SWAP1 POP JUMP JUMPDEST PUSH1 0x5 PUSH1 0x40 MLOAD DUP1 PUSH1 0xA0 ADD PUSH1 0x40 MSTORE DUP1 DUP7 DUP2 MSTORE PUSH1 0x20 ADD DUP6 DUP2 MSTORE PUSH1 0x20 ADD DUP5 DUP2 MSTORE PUSH1 0x20 ADD PUSH2 0x564 DUP6 PUSH2 0x3AF JUMP JUMPDEST DUP2 MSTORE PUSH1 0x20 ADD DUP4 DUP2 MSTORE POP SWAP1 DUP1 PUSH1 0x1 DUP2 SLOAD ADD DUP1 DUP3 SSTORE DUP1 SWAP2 POP POP PUSH1 0x1 SWAP1 SUB SWAP1 PUSH0 MSTORE PUSH1 0x20 PUSH0 KECCAK256 SWAP1 PUSH1 0x5 MUL ADD PUSH0 SWAP1 SWAP2 SWAP1 SWAP2 SWAP1 SWAP2 POP PUSH0 DUP3 ADD MLOAD DUP2 PUSH0 ADD SWAP1 DUP2 PUSH2 0x5A6 SWAP2 SWAP1 PUSH2 0x1449 JUMP JUMPDEST POP PUSH1 0x20 DUP3 ADD MLOAD DUP2 PUSH1 0x1 ADD SSTORE PUSH1 0x40 DUP3 ADD MLOAD DUP2 PUSH1 0x2 ADD SSTORE PUSH1 0x60 DUP3 ADD MLOAD DUP2 PUSH1 0x3 ADD SWAP1 DUP2 PUSH2 0x5D0 SWAP2 SWAP1 PUSH2 0x1449 JUMP JUMPDEST POP PUSH1 0x80 DUP3 ADD MLOAD DUP2 PUSH1 0x4 ADD SWAP1 DUP1 MLOAD SWAP1 PUSH1 0x20 ADD SWAP1 PUSH2 0x5ED SWAP3 SWAP2 SWAP1 PUSH2 0xAF7 JUMP JUMPDEST POP POP POP POP POP POP POP JUMP JUMPDEST PUSH1 0x60 PUSH1 0x7 PUSH0 DUP4 DUP2 MSTORE PUSH1 0x20 ADD SWAP1 DUP2 MSTORE PUSH1 0x20 ADD PUSH0 KECCAK256 DUP1 SLOAD DUP1 PUSH1 0x20 MUL PUSH1 0x20 ADD PUSH1 0x40 MLOAD SWAP1 DUP2 ADD PUSH1 0x40 MSTORE DUP1 SWAP3 SWAP2 SWAP1 DUP2 DUP2 MSTORE PUSH1 0x20 ADD PUSH0 SWAP1 JUMPDEST DUP3 DUP3 LT ISZERO PUSH2 0x85F JUMPI DUP4 DUP3 SWAP1 PUSH0 MSTORE PUSH1 0x20 PUSH0 KECCAK256 SWAP1 PUSH1 0x5 MUL ADD PUSH1 0x40 MLOAD DUP1 PUSH1 0xA0 ADD PUSH1 0x40 MSTORE SWAP1 DUP2 PUSH0 DUP3 ADD DUP1 SLOAD PUSH2 0x658 SWAP1 PUSH2 0x127C JUMP JUMPDEST DUP1 PUSH1 0x1F ADD PUSH1 0x20 DUP1 SWAP2 DIV MUL PUSH1 0x20 ADD PUSH1 0x40 MLOAD SWAP1 DUP2 ADD PUSH1 0x40 MSTORE DUP1 SWAP3 SWAP2 SWAP1 DUP2 DUP2 MSTORE PUSH1 0x20 ADD DUP3 DUP1 SLOAD PUSH2 0x684 SWAP1 PUSH2 0x127C JUMP JUMPDEST DUP1 ISZERO PUSH2 0x6CF JUMPI DUP1 PUSH1 0x1F LT PUSH2 0x6A6 JUMPI PUSH2 0x100 DUP1 DUP4 SLOAD DIV MUL DUP4 MSTORE SWAP2 PUSH1 0x20 ADD SWAP2 PUSH2 0x6CF JUMP JUMPDEST DUP3 ADD SWAP2 SWAP1 PUSH0 MSTORE PUSH1 0x20 PUSH0 KECCAK256 SWAP1 JUMPDEST DUP2 SLOAD DUP2 MSTORE SWAP1 PUSH1 0x1 ADD SWAP1 PUSH1 0x20 ADD DUP1 DUP4 GT PUSH2 0x6B2 JUMPI DUP3 SWAP1 SUB PUSH1 0x1F AND DUP3 ADD SWAP2 JUMPDEST POP POP POP POP POP DUP2 MSTORE PUSH1 0x20 ADD PUSH1 0x1 DUP3 ADD SLOAD DUP2 MSTORE PUSH1 0x20 ADD PUSH1 0x2 DUP3 ADD SLOAD DUP2 MSTORE PUSH1 0x20 ADD PUSH1 0x3 DUP3 ADD DUP1 SLOAD PUSH2 0x6FC SWAP1 PUSH2 0x127C JUMP JUMPDEST DUP1 PUSH1 0x1F ADD PUSH1 0x20 DUP1 SWAP2 DIV MUL PUSH1 0x20 ADD PUSH1 0x40 MLOAD SWAP1 DUP2 ADD PUSH1 0x40 MSTORE DUP1 SWAP3 SWAP2 SWAP1 DUP2 DUP2 MSTORE PUSH1 0x20 ADD DUP3 DUP1 SLOAD PUSH2 0x728 SWAP1 PUSH2 0x127C JUMP JUMPDEST DUP1 ISZERO PUSH2 0x773 JUMPI DUP1 PUSH1 0x1F LT PUSH2 0x74A JUMPI PUSH2 0x100 DUP1 DUP4 SLOAD DIV MUL DUP4 MSTORE SWAP2 PUSH1 0x20 ADD SWAP2 PUSH2 0x773 JUMP JUMPDEST DUP3 ADD SWAP2 SWAP1 PUSH0 MSTORE PUSH1 0x20 PUSH0 KECCAK256 SWAP1 JUMPDEST DUP2 SLOAD DUP2 MSTORE SWAP1 PUSH1 0x1 ADD SWAP1 PUSH1 0x20 ADD DUP1 DUP4 GT PUSH2 0x756 JUMPI DUP3 SWAP1 SUB PUSH1 0x1F AND DUP3 ADD SWAP2 JUMPDEST POP POP POP POP POP DUP2 MSTORE PUSH1 0x20 ADD PUSH1 0x4 DUP3 ADD DUP1 SLOAD DUP1 PUSH1 0x20 MUL PUSH1 0x20 ADD PUSH1 0x40 MLOAD SWAP1 DUP2 ADD PUSH1 0x40 MSTORE DUP1 SWAP3 SWAP2 SWAP1 DUP2 DUP2 MSTORE PUSH1 0x20 ADD PUSH0 SWAP1 JUMPDEST DUP3 DUP3 LT ISZERO PUSH2 0x848 JUMPI DUP4 DUP3 SWAP1 PUSH0 MSTORE PUSH1 0x20 PUSH0 KECCAK256 ADD DUP1 SLOAD PUSH2 0x7BD SWAP1 PUSH2 0x127C JUMP JUMPDEST DUP1 PUSH1 0x1F ADD PUSH1 0x20 DUP1 SWAP2 DIV MUL PUSH1 0x20 ADD PUSH1 0x40 MLOAD SWAP1 DUP2 ADD PUSH1 0x40 MSTORE DUP1 SWAP3 SWAP2 SWAP1 DUP2 DUP2 MSTORE PUSH1 0x20 ADD DUP3 DUP1 SLOAD PUSH2 0x7E9 SWAP1 PUSH2 0x127C JUMP JUMPDEST DUP1 ISZERO PUSH2 0x834 JUMPI DUP1 PUSH1 0x1F LT PUSH2 0x80B JUMPI PUSH2 0x100 DUP1 DUP4 SLOAD DIV MUL DUP4 MSTORE SWAP2 PUSH1 0x20 ADD SWAP2 PUSH2 0x834 JUMP JUMPDEST DUP3 ADD SWAP2 SWAP1 PUSH0 MSTORE PUSH1 0x20 PUSH0 KECCAK256 SWAP1 JUMPDEST DUP2 SLOAD DUP2 MSTORE SWAP1 PUSH1 0x1 ADD SWAP1 PUSH1 0x20 ADD DUP1 DUP4 GT PUSH2 0x817 JUMPI DUP3 SWAP1 SUB PUSH1 0x1F AND DUP3 ADD SWAP2 JUMPDEST POP POP POP POP POP DUP2 MSTORE PUSH1 0x20 ADD SWAP1 PUSH1 0x1 ADD SWAP1 PUSH2 0x7A0 JUMP JUMPDEST POP POP POP POP DUP2 MSTORE POP POP DUP2 MSTORE PUSH1 0x20 ADD SWAP1 PUSH1 0x1 ADD SWAP1 PUSH2 0x628 JUMP JUMPDEST POP POP POP POP SWAP1 POP SWAP2 SWAP1 POP JUMP JUMPDEST PUSH0 PUSH1 0x5 DUP1 SLOAD SWAP1 POP SWAP1 POP SWAP1 JUMP JUMPDEST PUSH1 0x60 PUSH1 0x6 DUP3 PUSH1 0x40 MLOAD PUSH2 0x888 SWAP2 SWAP1 PUSH2 0x1552 JUMP JUMPDEST SWAP1 DUP2 MSTORE PUSH1 0x20 ADD PUSH1 0x40 MLOAD DUP1 SWAP2 SUB SWAP1 KECCAK256 DUP1 SLOAD DUP1 PUSH1 0x20 MUL PUSH1 0x20 ADD PUSH1 0x40 MLOAD SWAP1 DUP2 ADD PUSH1 0x40 MSTORE DUP1 SWAP3 SWAP2 SWAP1 DUP2 DUP2 MSTORE PUSH1 0x20 ADD PUSH0 SWAP1 JUMPDEST DUP3 DUP3 LT ISZERO PUSH2 0xAEC JUMPI DUP4 DUP3 SWAP1 PUSH0 MSTORE PUSH1 0x20 PUSH0 KECCAK256 SWAP1 PUSH1 0x5 MUL ADD PUSH1 0x40 MLOAD DUP1 PUSH1 0xA0 ADD PUSH1 0x40 MSTORE SWAP1 DUP2 PUSH0 DUP3 ADD DUP1 SLOAD PUSH2 0x8E5 SWAP1 PUSH2 0x127C JUMP JUMPDEST DUP1 PUSH1 0x1F ADD PUSH1 0x20 DUP1 SWAP2 DIV MUL PUSH1 0x20 ADD PUSH1 0x40 MLOAD SWAP1 DUP2 ADD PUSH1 0x40 MSTORE DUP1 SWAP3 SWAP2 SWAP1 DUP2 DUP2 MSTORE PUSH1 0x20 ADD DUP3 DUP1 SLOAD PUSH2 0x911 SWAP1 PUSH2 0x127C JUMP JUMPDEST DUP1 ISZERO PUSH2 0x95C JUMPI DUP1 PUSH1 0x1F LT PUSH2 0x933 JUMPI PUSH2 0x100 DUP1 DUP4 SLOAD DIV MUL DUP4 MSTORE SWAP2 PUSH1 0x20 ADD SWAP2 PUSH2 0x95C JUMP JUMPDEST DUP3 ADD SWAP2 SWAP1 PUSH0 MSTORE PUSH1 0x20 PUSH0 KECCAK256 SWAP1 JUMPDEST DUP2 SLOAD DUP2 MSTORE SWAP1 PUSH1 0x1 ADD SWAP1 PUSH1 0x20 ADD DUP1 DUP4 GT PUSH2 0x93F JUMPI DUP3 SWAP1 SUB PUSH1 0x1F AND DUP3 ADD SWAP2 JUMPDEST POP POP POP POP POP DUP2 MSTORE PUSH1 0x20 ADD PUSH1 0x1 DUP3 ADD SLOAD DUP2 MSTORE PUSH1 0x20 ADD PUSH1 0x2 DUP3 ADD SLOAD DUP2 MSTORE PUSH1 0x20 ADD PUSH1 0x3 DUP3 ADD DUP1 SLOAD PUSH2 0x989 SWAP1 PUSH2 0x127C JUMP JUMPDEST DUP1 PUSH1 0x1F ADD PUSH1 0x20 DUP1 SWAP2 DIV MUL PUSH1 0x20 ADD PUSH1 0x40 MLOAD SWAP1 DUP2 ADD PUSH1 0x40 MSTORE DUP1 SWAP3 SWAP2 SWAP1 DUP2 DUP2 MSTORE PUSH1 0x20 ADD DUP3 DUP1 SLOAD PUSH2 0x9B5 SWAP1 PUSH2 0x127C JUMP JUMPDEST DUP1 ISZERO PUSH2 0xA00 JUMPI DUP1 PUSH1 0x1F LT PUSH2 0x9D7 JUMPI PUSH2 0x100 DUP1 DUP4 SLOAD DIV MUL DUP4 MSTORE SWAP2 PUSH1 0x20 ADD SWAP2 PUSH2 0xA00 JUMP JUMPDEST DUP3 ADD SWAP2 SWAP1 PUSH0 MSTORE PUSH1 0x20 PUSH0 KECCAK256 SWAP1 JUMPDEST DUP2 SLOAD DUP2 MSTORE SWAP1 PUSH1 0x1 ADD SWAP1 PUSH1 0x20 ADD DUP1 DUP4 GT PUSH2 0x9E3 JUMPI DUP3 SWAP1 SUB PUSH1 0x1F AND DUP3 ADD SWAP2 JUMPDEST POP POP POP POP POP DUP2 MSTORE PUSH1 0x20 ADD PUSH1 0x4 DUP3 ADD DUP1 SLOAD DUP1 PUSH1 0x20 MUL PUSH1 0x20 ADD PUSH1 0x40 MLOAD SWAP1 DUP2 ADD PUSH1 0x40 MSTORE DUP1 SWAP3 SWAP2 SWAP1 DUP2 DUP2 MSTORE PUSH1 0x20 ADD PUSH0 SWAP1 JUMPDEST DUP3 DUP3 LT ISZERO PUSH2 0xAD5 JUMPI DUP4 DUP3 SWAP1 PUSH0 MSTORE PUSH1 0x20 PUSH0 KECCAK256 ADD DUP1 SLOAD PUSH2 0xA4A SWAP1 PUSH2 0x127C JUMP JUMPDEST DUP1 PUSH1 0x1F ADD PUSH1 0x20 DUP1 SWAP2 DIV MUL PUSH1 0x20 ADD PUSH1 0x40 MLOAD SWAP1 DUP2 ADD PUSH1 0x40 MSTORE DUP1 SWAP3 SWAP2 SWAP1 DUP2 DUP2 MSTORE PUSH1 0x20 ADD DUP3 DUP1 SLOAD PUSH2 0xA76 SWAP1 PUSH2 0x127C JUMP JUMPDEST DUP1 ISZERO PUSH2 0xAC1 JUMPI DUP1 PUSH1 0x1F LT PUSH2 0xA98 JUMPI PUSH2 0x100 DUP1 DUP4 SLOAD DIV MUL DUP4 MSTORE SWAP2 PUSH1 0x20 ADD SWAP2 PUSH2 0xAC1 JUMP JUMPDEST DUP3 ADD SWAP2 SWAP1 PUSH0 MSTORE PUSH1 0x20 PUSH0 KECCAK256 SWAP1 JUMPDEST DUP2 SLOAD DUP2 MSTORE SWAP1 PUSH1 0x1 ADD SWAP1 PUSH1 0x20 ADD DUP1 DUP4 GT PUSH2 0xAA4 JUMPI DUP3 SWAP1 SUB PUSH1 0x1F AND DUP3 ADD SWAP2 JUMPDEST POP POP POP POP POP DUP2 MSTORE PUSH1 0x20 ADD SWAP1 PUSH1 0x1 ADD SWAP1 PUSH2 0xA2D JUMP JUMPDEST POP POP POP POP DUP2 MSTORE POP POP DUP2 MSTORE PUSH1 0x20 ADD SWAP1 PUSH1 0x1 ADD SWAP1 PUSH2 0x8B5 JUMP JUMPDEST POP POP POP POP SWAP1 POP SWAP2 SWAP1 POP JUMP JUMPDEST DUP3 DUP1 SLOAD DUP3 DUP3 SSTORE SWAP1 PUSH0 MSTORE PUSH1 0x20 PUSH0 KECCAK256 SWAP1 DUP2 ADD SWAP3 DUP3 ISZERO PUSH2 0xB3D JUMPI SWAP2 PUSH1 0x20 MUL DUP3 ADD JUMPDEST DUP3 DUP2 GT ISZERO PUSH2 0xB3C JUMPI DUP3 MLOAD DUP3 SWAP1 DUP2 PUSH2 0xB2C SWAP2 SWAP1 PUSH2 0x1449 JUMP JUMPDEST POP SWAP2 PUSH1 0x20 ADD SWAP2 SWAP1 PUSH1 0x1 ADD SWAP1 PUSH2 0xB15 JUMP JUMPDEST JUMPDEST POP SWAP1 POP PUSH2 0xB4A SWAP2 SWAP1 PUSH2 0xB4E JUMP JUMPDEST POP SWAP1 JUMP JUMPDEST JUMPDEST DUP1 DUP3 GT ISZERO PUSH2 0xB6D JUMPI PUSH0 DUP2 DUP2 PUSH2 0xB64 SWAP2 SWAP1 PUSH2 0xB71 JUMP JUMPDEST POP PUSH1 0x1 ADD PUSH2 0xB4F JUMP JUMPDEST POP SWAP1 JUMP JUMPDEST POP DUP1 SLOAD PUSH2 0xB7D SWAP1 PUSH2 0x127C JUMP JUMPDEST PUSH0 DUP3 SSTORE DUP1 PUSH1 0x1F LT PUSH2 0xB8E JUMPI POP PUSH2 0xBAB JUMP JUMPDEST PUSH1 0x1F ADD PUSH1 0x20 SWAP1 DIV SWAP1 PUSH0 MSTORE PUSH1 0x20 PUSH0 KECCAK256 SWAP1 DUP2 ADD SWAP1 PUSH2 0xBAA SWAP2 SWAP1 PUSH2 0xBAE JUMP JUMPDEST JUMPDEST POP JUMP JUMPDEST JUMPDEST DUP1 DUP3 GT ISZERO PUSH2 0xBC5 JUMPI PUSH0 DUP2 PUSH0 SWAP1 SSTORE POP PUSH1 0x1 ADD PUSH2 0xBAF JUMP JUMPDEST POP SWAP1 JUMP JUMPDEST PUSH0 DUP2 MLOAD SWAP1 POP SWAP2 SWAP1 POP JUMP JUMPDEST PUSH0 DUP3 DUP3 MSTORE PUSH1 0x20 DUP3 ADD SWAP1 POP SWAP3 SWAP2 POP POP JUMP JUMPDEST PUSH0 DUP2 SWAP1 POP PUSH1 0x20 DUP3 ADD SWAP1 POP SWAP2 SWAP1 POP JUMP JUMPDEST PUSH0 DUP2 MLOAD SWAP1 POP SWAP2 SWAP1 POP JUMP JUMPDEST PUSH0 DUP3 DUP3 MSTORE PUSH1 0x20 DUP3 ADD SWAP1 POP SWAP3 SWAP2 POP POP JUMP JUMPDEST DUP3 DUP2 DUP4 MCOPY PUSH0 DUP4 DUP4 ADD MSTORE POP POP POP JUMP JUMPDEST PUSH0 PUSH1 0x1F NOT PUSH1 0x1F DUP4 ADD AND SWAP1 POP SWAP2 SWAP1 POP JUMP JUMPDEST PUSH0 PUSH2 0xC34 DUP3 PUSH2 0xBF2 JUMP JUMPDEST PUSH2 0xC3E DUP2 DUP6 PUSH2 0xBFC JUMP JUMPDEST SWAP4 POP PUSH2 0xC4E DUP2 DUP6 PUSH1 0x20 DUP7 ADD PUSH2 0xC0C JUMP JUMPDEST PUSH2 0xC57 DUP2 PUSH2 0xC1A JUMP JUMPDEST DUP5 ADD SWAP2 POP POP SWAP3 SWAP2 POP POP JUMP JUMPDEST PUSH0 DUP2 SWAP1 POP SWAP2 SWAP1 POP JUMP JUMPDEST PUSH2 0xC74 DUP2 PUSH2 0xC62 JUMP JUMPDEST DUP3 MSTORE POP POP JUMP JUMPDEST PUSH0 DUP2 MLOAD SWAP1 POP SWAP2 SWAP1 POP JUMP JUMPDEST PUSH0 DUP3 DUP3 MSTORE PUSH1 0x20 DUP3 ADD SWAP1 POP SWAP3 SWAP2 POP POP JUMP JUMPDEST PUSH0 DUP2 SWAP1 POP PUSH1 0x20 DUP3 ADD SWAP1 POP SWAP2 SWAP1 POP JUMP JUMPDEST PUSH0 PUSH2 0xCAE DUP4 DUP4 PUSH2 0xC2A JUMP JUMPDEST SWAP1 POP SWAP3 SWAP2 POP POP JUMP JUMPDEST PUSH0 PUSH1 0x20 DUP3 ADD SWAP1 POP SWAP2 SWAP1 POP JUMP JUMPDEST PUSH0 PUSH2 0xCCC DUP3 PUSH2 0xC7A JUMP JUMPDEST PUSH2 0xCD6 DUP2 DUP6 PUSH2 0xC84 JUMP JUMPDEST SWAP4 POP DUP4 PUSH1 0x20 DUP3 MUL DUP6 ADD PUSH2 0xCE8 DUP6 PUSH2 0xC94 JUMP JUMPDEST DUP1 PUSH0 JUMPDEST DUP6 DUP2 LT ISZERO PUSH2 0xD23 JUMPI DUP5 DUP5 SUB DUP10 MSTORE DUP2 MLOAD PUSH2 0xD04 DUP6 DUP3 PUSH2 0xCA3 JUMP JUMPDEST SWAP5 POP PUSH2 0xD0F DUP4 PUSH2 0xCB6 JUMP JUMPDEST SWAP3 POP PUSH1 0x20 DUP11 ADD SWAP10 POP POP PUSH1 0x1 DUP2 ADD SWAP1 POP PUSH2 0xCEB JUMP JUMPDEST POP DUP3 SWAP8 POP DUP8 SWAP6 POP POP POP POP POP POP SWAP3 SWAP2 POP POP JUMP JUMPDEST PUSH0 PUSH1 0xA0 DUP4 ADD PUSH0 DUP4 ADD MLOAD DUP5 DUP3 SUB PUSH0 DUP7 ADD MSTORE PUSH2 0xD4F DUP3 DUP3 PUSH2 0xC2A JUMP JUMPDEST SWAP2 POP POP PUSH1 0x20 DUP4 ADD MLOAD PUSH2 0xD64 PUSH1 0x20 DUP7 ADD DUP3 PUSH2 0xC6B JUMP JUMPDEST POP PUSH1 0x40 DUP4 ADD MLOAD PUSH2 0xD77 PUSH1 0x40 DUP7 ADD DUP3 PUSH2 0xC6B JUMP JUMPDEST POP PUSH1 0x60 DUP4 ADD MLOAD DUP5 DUP3 SUB PUSH1 0x60 DUP7 ADD MSTORE PUSH2 0xD8F DUP3 DUP3 PUSH2 0xC2A JUMP JUMPDEST SWAP2 POP POP PUSH1 0x80 DUP4 ADD MLOAD DUP5 DUP3 SUB PUSH1 0x80 DUP7 ADD MSTORE PUSH2 0xDA9 DUP3 DUP3 PUSH2 0xCC2 JUMP JUMPDEST SWAP2 POP POP DUP1 SWAP2 POP POP SWAP3 SWAP2 POP POP JUMP JUMPDEST PUSH0 PUSH2 0xDC1 DUP4 DUP4 PUSH2 0xD35 JUMP JUMPDEST SWAP1 POP SWAP3 SWAP2 POP POP JUMP JUMPDEST PUSH0 PUSH1 0x20 DUP3 ADD SWAP1 POP SWAP2 SWAP1 POP JUMP JUMPDEST PUSH0 PUSH2 0xDDF DUP3 PUSH2 0xBC9 JUMP JUMPDEST PUSH2 0xDE9 DUP2 DUP6 PUSH2 0xBD3 JUMP JUMPDEST SWAP4 POP DUP4 PUSH1 0x20 DUP3 MUL DUP6 ADD PUSH2 0xDFB DUP6 PUSH2 0xBE3 JUMP JUMPDEST DUP1 PUSH0 JUMPDEST DUP6 DUP2 LT ISZERO PUSH2 0xE36 JUMPI DUP5 DUP5 SUB DUP10 MSTORE DUP2 MLOAD PUSH2 0xE17 DUP6 DUP3 PUSH2 0xDB6 JUMP JUMPDEST SWAP5 POP PUSH2 0xE22 DUP4 PUSH2 0xDC9 JUMP JUMPDEST SWAP3 POP PUSH1 0x20 DUP11 ADD SWAP10 POP POP PUSH1 0x1 DUP2 ADD SWAP1 POP PUSH2 0xDFE JUMP JUMPDEST POP DUP3 SWAP8 POP DUP8 SWAP6 POP POP POP POP POP POP SWAP3 SWAP2 POP POP JUMP JUMPDEST PUSH0 PUSH1 0x20 DUP3 ADD SWAP1 POP DUP2 DUP2 SUB PUSH0 DUP4 ADD MSTORE PUSH2 0xE60 DUP2 DUP5 PUSH2 0xDD5 JUMP JUMPDEST SWAP1 POP SWAP3 SWAP2 POP POP JUMP JUMPDEST PUSH0 PUSH1 0x40 MLOAD SWAP1 POP SWAP1 JUMP JUMPDEST PUSH0 DUP1 REVERT JUMPDEST PUSH0 DUP1 REVERT JUMPDEST PUSH2 0xE82 DUP2 PUSH2 0xC62 JUMP JUMPDEST DUP2 EQ PUSH2 0xE8C JUMPI PUSH0 DUP1 REVERT JUMPDEST POP JUMP JUMPDEST PUSH0 DUP2 CALLDATALOAD SWAP1 POP PUSH2 0xE9D DUP2 PUSH2 0xE79 JUMP JUMPDEST SWAP3 SWAP2 POP POP JUMP JUMPDEST PUSH0 PUSH1 0x20 DUP3 DUP5 SUB SLT ISZERO PUSH2 0xEB8 JUMPI PUSH2 0xEB7 PUSH2 0xE71 JUMP JUMPDEST JUMPDEST PUSH0 PUSH2 0xEC5 DUP5 DUP3 DUP6 ADD PUSH2 0xE8F JUMP JUMPDEST SWAP2 POP POP SWAP3 SWAP2 POP POP JUMP JUMPDEST PUSH0 DUP3 DUP3 MSTORE PUSH1 0x20 DUP3 ADD SWAP1 POP SWAP3 SWAP2 POP POP JUMP JUMPDEST PUSH0 PUSH2 0xEE8 DUP3 PUSH2 0xBF2 JUMP JUMPDEST PUSH2 0xEF2 DUP2 DUP6 PUSH2 0xECE JUMP JUMPDEST SWAP4 POP PUSH2 0xF02 DUP2 DUP6 PUSH1 0x20 DUP7 ADD PUSH2 0xC0C JUMP JUMPDEST PUSH2 0xF0B DUP2 PUSH2 0xC1A JUMP JUMPDEST DUP5 ADD SWAP2 POP POP SWAP3 SWAP2 POP POP JUMP JUMPDEST PUSH0 PUSH1 0x20 DUP3 ADD SWAP1 POP DUP2 DUP2 SUB PUSH0 DUP4 ADD MSTORE PUSH2 0xF2E DUP2 DUP5 PUSH2 0xEDE JUMP JUMPDEST SWAP1 POP SWAP3 SWAP2 POP POP JUMP JUMPDEST PUSH0 DUP1 REVERT JUMPDEST PUSH0 DUP1 REVERT JUMPDEST PUSH32 0x4E487B7100000000000000000000000000000000000000000000000000000000 PUSH0 MSTORE PUSH1 0x41 PUSH1 0x4 MSTORE PUSH1 0x24 PUSH0 REVERT JUMPDEST PUSH2 0xF74 DUP3 PUSH2 0xC1A JUMP JUMPDEST DUP2 ADD DUP2 DUP2 LT PUSH8 0xFFFFFFFFFFFFFFFF DUP3 GT OR ISZERO PUSH2 0xF93 JUMPI PUSH2 0xF92 PUSH2 0xF3E JUMP JUMPDEST JUMPDEST DUP1 PUSH1 0x40 MSTORE POP POP POP JUMP JUMPDEST PUSH0 PUSH2 0xFA5 PUSH2 0xE68 JUMP JUMPDEST SWAP1 POP PUSH2 0xFB1 DUP3 DUP3 PUSH2 0xF6B JUMP JUMPDEST SWAP2 SWAP1 POP JUMP JUMPDEST PUSH0 PUSH8 0xFFFFFFFFFFFFFFFF DUP3 GT ISZERO PUSH2 0xFD0 JUMPI PUSH2 0xFCF PUSH2 0xF3E JUMP JUMPDEST JUMPDEST PUSH2 0xFD9 DUP3 PUSH2 0xC1A JUMP JUMPDEST SWAP1 POP PUSH1 0x20 DUP2 ADD SWAP1 POP SWAP2 SWAP1 POP JUMP JUMPDEST DUP3 DUP2 DUP4 CALLDATACOPY PUSH0 DUP4 DUP4 ADD MSTORE POP POP POP JUMP JUMPDEST PUSH0 PUSH2 0x1006 PUSH2 0x1001 DUP5 PUSH2 0xFB6 JUMP JUMPDEST PUSH2 0xF9C JUMP JUMPDEST SWAP1 POP DUP3 DUP2 MSTORE PUSH1 0x20 DUP2 ADD DUP5 DUP5 DUP5 ADD GT ISZERO PUSH2 0x1022 JUMPI PUSH2 0x1021 PUSH2 0xF3A JUMP JUMPDEST JUMPDEST PUSH2 0x102D DUP5 DUP3 DUP6 PUSH2 0xFE6 JUMP JUMPDEST POP SWAP4 SWAP3 POP POP POP JUMP JUMPDEST PUSH0 DUP3 PUSH1 0x1F DUP4 ADD SLT PUSH2 0x1049 JUMPI PUSH2 0x1048 PUSH2 0xF36 JUMP JUMPDEST JUMPDEST DUP2 CALLDATALOAD PUSH2 0x1059 DUP5 DUP3 PUSH1 0x20 DUP7 ADD PUSH2 0xFF4 JUMP JUMPDEST SWAP2 POP POP SWAP3 SWAP2 POP POP JUMP JUMPDEST PUSH0 PUSH8 0xFFFFFFFFFFFFFFFF DUP3 GT ISZERO PUSH2 0x107C JUMPI PUSH2 0x107B PUSH2 0xF3E JUMP JUMPDEST JUMPDEST PUSH1 0x20 DUP3 MUL SWAP1 POP PUSH1 0x20 DUP2 ADD SWAP1 POP SWAP2 SWAP1 POP JUMP JUMPDEST PUSH0 DUP1 REVERT JUMPDEST PUSH0 PUSH2 0x10A3 PUSH2 0x109E DUP5 PUSH2 0x1062 JUMP JUMPDEST PUSH2 0xF9C JUMP JUMPDEST SWAP1 POP DUP1 DUP4 DUP3 MSTORE PUSH1 0x20 DUP3 ADD SWAP1 POP PUSH1 0x20 DUP5 MUL DUP4 ADD DUP6 DUP2 GT ISZERO PUSH2 0x10C6 JUMPI PUSH2 0x10C5 PUSH2 0x108D JUMP JUMPDEST JUMPDEST DUP4 JUMPDEST DUP2 DUP2 LT ISZERO PUSH2 0x110D JUMPI DUP1 CALLDATALOAD PUSH8 0xFFFFFFFFFFFFFFFF DUP2 GT ISZERO PUSH2 0x10EB JUMPI PUSH2 0x10EA PUSH2 0xF36 JUMP JUMPDEST JUMPDEST DUP1 DUP7 ADD PUSH2 0x10F8 DUP10 DUP3 PUSH2 0x1035 JUMP JUMPDEST DUP6 MSTORE PUSH1 0x20 DUP6 ADD SWAP5 POP POP POP PUSH1 0x20 DUP2 ADD SWAP1 POP PUSH2 0x10C8 JUMP JUMPDEST POP POP POP SWAP4 SWAP3 POP POP POP JUMP JUMPDEST PUSH0 DUP3 PUSH1 0x1F DUP4 ADD SLT PUSH2 0x112B JUMPI PUSH2 0x112A PUSH2 0xF36 JUMP JUMPDEST JUMPDEST DUP2 CALLDATALOAD PUSH2 0x113B DUP5 DUP3 PUSH1 0x20 DUP7 ADD PUSH2 0x1091 JUMP JUMPDEST SWAP2 POP POP SWAP3 SWAP2 POP POP JUMP JUMPDEST PUSH0 DUP1 PUSH0 DUP1 PUSH1 0x80 DUP6 DUP8 SUB SLT ISZERO PUSH2 0x115C JUMPI PUSH2 0x115B PUSH2 0xE71 JUMP JUMPDEST JUMPDEST PUSH0 DUP6 ADD CALLDATALOAD PUSH8 0xFFFFFFFFFFFFFFFF DUP2 GT ISZERO PUSH2 0x1179 JUMPI PUSH2 0x1178 PUSH2 0xE75 JUMP JUMPDEST JUMPDEST PUSH2 0x1185 DUP8 DUP3 DUP9 ADD PUSH2 0x1035 JUMP JUMPDEST SWAP5 POP POP PUSH1 0x20 PUSH2 0x1196 DUP8 DUP3 DUP9 ADD PUSH2 0xE8F JUMP JUMPDEST SWAP4 POP POP PUSH1 0x40 PUSH2 0x11A7 DUP8 DUP3 DUP9 ADD PUSH2 0xE8F JUMP JUMPDEST SWAP3 POP POP PUSH1 0x60 DUP6 ADD CALLDATALOAD PUSH8 0xFFFFFFFFFFFFFFFF DUP2 GT ISZERO PUSH2 0x11C8 JUMPI PUSH2 0x11C7 PUSH2 0xE75 JUMP JUMPDEST JUMPDEST PUSH2 0x11D4 DUP8 DUP3 DUP9 ADD PUSH2 0x1117 JUMP JUMPDEST SWAP2 POP POP SWAP3 SWAP6 SWAP2 SWAP5 POP SWAP3 POP JUMP JUMPDEST PUSH2 0x11E9 DUP2 PUSH2 0xC62 JUMP JUMPDEST DUP3 MSTORE POP POP JUMP JUMPDEST PUSH0 PUSH1 0x20 DUP3 ADD SWAP1 POP PUSH2 0x1202 PUSH0 DUP4 ADD DUP5 PUSH2 0x11E0 JUMP JUMPDEST SWAP3 SWAP2 POP POP JUMP JUMPDEST PUSH0 PUSH1 0x20 DUP3 DUP5 SUB SLT ISZERO PUSH2 0x121D JUMPI PUSH2 0x121C PUSH2 0xE71 JUMP JUMPDEST JUMPDEST PUSH0 DUP3 ADD CALLDATALOAD PUSH8 0xFFFFFFFFFFFFFFFF DUP2 GT ISZERO PUSH2 0x123A JUMPI PUSH2 0x1239 PUSH2 0xE75 JUMP JUMPDEST JUMPDEST PUSH2 0x1246 DUP5 DUP3 DUP6 ADD PUSH2 0x1035 JUMP JUMPDEST SWAP2 POP POP SWAP3 SWAP2 POP POP JUMP JUMPDEST PUSH32 0x4E487B7100000000000000000000000000000000000000000000000000000000 PUSH0 MSTORE PUSH1 0x22 PUSH1 0x4 MSTORE PUSH1 0x24 PUSH0 REVERT JUMPDEST PUSH0 PUSH1 0x2 DUP3 DIV SWAP1 POP PUSH1 0x1 DUP3 AND DUP1 PUSH2 0x1293 JUMPI PUSH1 0x7F DUP3 AND SWAP2 POP JUMPDEST PUSH1 0x20 DUP3 LT DUP2 SUB PUSH2 0x12A6 JUMPI PUSH2 0x12A5 PUSH2 0x124F JUMP JUMPDEST JUMPDEST POP SWAP2 SWAP1 POP JUMP JUMPDEST PUSH0 DUP2 SWAP1 POP DUP2 PUSH0 MSTORE PUSH1 0x20 PUSH0 KECCAK256 SWAP1 POP SWAP2 SWAP1 POP JUMP JUMPDEST PUSH0 PUSH1 0x20 PUSH1 0x1F DUP4 ADD DIV SWAP1 POP SWAP2 SWAP1 POP JUMP JUMPDEST PUSH0 DUP3 DUP3 SHL SWAP1 POP SWAP3 SWAP2 POP POP JUMP JUMPDEST PUSH0 PUSH1 0x8 DUP4 MUL PUSH2 0x1308 PUSH32 0xFFFFFFFFFFFFFFFFFFFFFFFFFFFFFFFFFFFFFFFFFFFFFFFFFFFFFFFFFFFFFFFF DUP3 PUSH2 0x12CD JUMP JUMPDEST PUSH2 0x1312 DUP7 DUP4 PUSH2 0x12CD JUMP JUMPDEST SWAP6 POP DUP1 NOT DUP5 AND SWAP4 POP DUP1 DUP7 AND DUP5 OR SWAP3 POP POP POP SWAP4 SWAP3 POP POP POP JUMP JUMPDEST PUSH0 DUP2 SWAP1 POP SWAP2 SWAP1 POP JUMP JUMPDEST PUSH0 PUSH2 0x134D PUSH2 0x1348 PUSH2 0x1343 DUP5 PUSH2 0xC62 JUMP JUMPDEST PUSH2 0x132A JUMP JUMPDEST PUSH2 0xC62 JUMP JUMPDEST SWAP1 POP SWAP2 SWAP1 POP JUMP JUMPDEST PUSH0 DUP2 SWAP1 POP SWAP2 SWAP1 POP JUMP JUMPDEST PUSH2 0x1366 DUP4 PUSH2 0x1333 JUMP JUMPDEST PUSH2 0x137A PUSH2 0x1372 DUP3 PUSH2 0x1354 JUMP JUMPDEST DUP5 DUP5 SLOAD PUSH2 0x12D9 JUMP JUMPDEST DUP3 SSTORE POP POP POP POP JUMP JUMPDEST PUSH0 SWAP1 JUMP JUMPDEST PUSH2 0x138E PUSH2 0x1382 JUMP JUMPDEST PUSH2 0x1399 DUP2 DUP5 DUP5 PUSH2 0x135D JUMP JUMPDEST POP POP POP JUMP JUMPDEST JUMPDEST DUP2 DUP2 LT ISZERO PUSH2 0x13BC JUMPI PUSH2 0x13B1 PUSH0 DUP3 PUSH2 0x1386 JUMP JUMPDEST PUSH1 0x1 DUP2 ADD SWAP1 POP PUSH2 0x139F JUMP JUMPDEST POP POP JUMP JUMPDEST PUSH1 0x1F DUP3 GT ISZERO PUSH2 0x1401 JUMPI PUSH2 0x13D2 DUP2 PUSH2 0x12AC JUMP JUMPDEST PUSH2 0x13DB DUP5 PUSH2 0x12BE JUMP JUMPDEST DUP2 ADD PUSH1 0x20 DUP6 LT ISZERO PUSH2 0x13EA JUMPI DUP2 SWAP1 POP JUMPDEST PUSH2 0x13FE PUSH2 0x13F6 DUP6 PUSH2 0x12BE JUMP JUMPDEST DUP4 ADD DUP3 PUSH2 0x139E JUMP JUMPDEST POP POP JUMPDEST POP POP POP JUMP JUMPDEST PUSH0 DUP3 DUP3 SHR SWAP1 POP SWAP3 SWAP2 POP POP JUMP JUMPDEST PUSH0 PUSH2 0x1421 PUSH0 NOT DUP5 PUSH1 0x8 MUL PUSH2 0x1406 JUMP JUMPDEST NOT DUP1 DUP4 AND SWAP2 POP POP SWAP3 SWAP2 POP POP JUMP JUMPDEST PUSH0 PUSH2 0x1439 DUP4 DUP4 PUSH2 0x1412 JUMP JUMPDEST SWAP2 POP DUP3 PUSH1 0x2 MUL DUP3 OR SWAP1 POP SWAP3 SWAP2 POP POP JUMP JUMPDEST PUSH2 0x1452 DUP3 PUSH2 0xBF2 JUMP JUMPDEST PUSH8 0xFFFFFFFFFFFFFFFF DUP2 GT ISZERO PUSH2 0x146B JUMPI PUSH2 0x146A PUSH2 0xF3E JUMP JUMPDEST JUMPDEST PUSH2 0x1475 DUP3 SLOAD PUSH2 0x127C JUMP JUMPDEST PUSH2 0x1480 DUP3 DUP3 DUP6 PUSH2 0x13C0 JUMP JUMPDEST PUSH0 PUSH1 0x20 SWAP1 POP PUSH1 0x1F DUP4 GT PUSH1 0x1 DUP2 EQ PUSH2 0x14B1 JUMPI PUSH0 DUP5 ISZERO PUSH2 0x149F JUMPI DUP3 DUP8 ADD MLOAD SWAP1 POP JUMPDEST PUSH2 0x14A9 DUP6 DUP3 PUSH2 0x142E JUMP JUMPDEST DUP7 SSTORE POP PUSH2 0x1510 JUMP JUMPDEST PUSH1 0x1F NOT DUP5 AND PUSH2 0x14BF DUP7 PUSH2 0x12AC JUMP JUMPDEST PUSH0 JUMPDEST DUP3 DUP2 LT ISZERO PUSH2 0x14E6 JUMPI DUP5 DUP10 ADD MLOAD DUP3 SSTORE PUSH1 0x1 DUP3 ADD SWAP2 POP PUSH1 0x20 DUP6 ADD SWAP5 POP PUSH1 0x20 DUP2 ADD SWAP1 POP PUSH2 0x14C1 JUMP JUMPDEST DUP7 DUP4 LT ISZERO PUSH2 0x1503 JUMPI DUP5 DUP10 ADD MLOAD PUSH2 0x14FF PUSH1 0x1F DUP10 AND DUP3 PUSH2 0x1412 JUMP JUMPDEST DUP4 SSTORE POP JUMPDEST PUSH1 0x1 PUSH1 0x2 DUP9 MUL ADD DUP9 SSTORE POP POP POP JUMPDEST POP POP POP POP POP POP JUMP JUMPDEST PUSH0 DUP2 SWAP1 POP SWAP3 SWAP2 POP POP JUMP JUMPDEST PUSH0 PUSH2 0x152C DUP3 PUSH2 0xBF2 JUMP JUMPDEST PUSH2 0x1536 DUP2 DUP6 PUSH2 0x1518 JUMP JUMPDEST SWAP4 POP PUSH2 0x1546 DUP2 DUP6 PUSH1 0x20 DUP7 ADD PUSH2 0xC0C JUMP JUMPDEST DUP1 DUP5 ADD SWAP2 POP POP SWAP3 SWAP2 POP POP JUMP JUMPDEST PUSH0 PUSH2 0x155D DUP3 DUP5 PUSH2 0x1522 JUMP JUMPDEST SWAP2 POP DUP2 SWAP1 POP SWAP3 SWAP2 POP POP JUMP INVALID LOG2 PUSH5 0x6970667358 0x22 SLT KECCAK256 0xD8 CALLER CALLER DUP13 RETURNDATACOPY 0xFC 0xF6 SELFDESTRUCT 0xDD STOP DUP10 SWAP7 0x4E 0xE4 TIMESTAMP REVERT SWAP15 SWAP5 EXTCODESIZE SSTORE PUSH4 0x29DC296D 0xCC CALLVALUE POP SWAP15 STATICCALL MSIZE SIGNEXTEND PUSH5 0x736F6C6343 STOP ADDMOD BYTE STOP CALLER "
				},
				"gasEstimates": {
					"creation": {
						"codeDepositCost": "1106800",
						"executionCost": "1145",
						"totalCost": "1107945"
					},
					"external": {
						"getAllStudent()": "infinite",
						"getLength()": "2506",
						"getstudent(string)": "infinite",
						"getstudent(uint256)": "infinite",
						"pushStudent(string,uint256,uint256,string[])": "infinite",
						"setGrade(uint256)": "infinite"
					}
				},
				"methodIdentifiers": {
					"getAllStudent()": "133d0460",
					"getLength()": "be1c766b",
					"getstudent(string)": "cd5b84eb",
					"getstudent(uint256)": "b0f3bdc2",
					"pushStudent(string,uint256,uint256,string[])": "84a1288d",
					"setGrade(uint256)": "674271cd"
				}
			},
			"storageLayout": {
				"storage": [
					{
						"astId": 16,
						"contract": "Coding test/test1.sol:TEST2",
						"label": "s1",
						"offset": 0,
						"slot": "0",
						"type": "t_struct(student)13_storage"
					},
					{
						"astId": 20,
						"contract": "Coding test/test1.sol:TEST2",
						"label": "Students",
						"offset": 0,
						"slot": "5",
						"type": "t_array(t_struct(student)13_storage)dyn_storage"
					},
					{
						"astId": 108,
						"contract": "Coding test/test1.sol:TEST2",
						"label": "students1",
						"offset": 0,
						"slot": "6",
						"type": "t_mapping(t_string_memory_ptr,t_array(t_struct(student)13_storage)dyn_storage)"
					},
					{
						"astId": 114,
						"contract": "Coding test/test1.sol:TEST2",
						"label": "students2",
						"offset": 0,
						"slot": "7",
						"type": "t_mapping(t_uint256,t_array(t_struct(student)13_storage)dyn_storage)"
					}
				],
				"types": {
					"t_array(t_string_storage)dyn_storage": {
						"base": "t_string_storage",
						"encoding": "dynamic_array",
						"label": "string[]",
						"numberOfBytes": "32"
					},
					"t_array(t_struct(student)13_storage)dyn_storage": {
						"base": "t_struct(student)13_storage",
						"encoding": "dynamic_array",
						"label": "struct TEST2.student[]",
						"numberOfBytes": "32"
					},
					"t_mapping(t_string_memory_ptr,t_array(t_struct(student)13_storage)dyn_storage)": {
						"encoding": "mapping",
						"key": "t_string_memory_ptr",
						"label": "mapping(string => struct TEST2.student[])",
						"numberOfBytes": "32",
						"value": "t_array(t_struct(student)13_storage)dyn_storage"
					},
					"t_mapping(t_uint256,t_array(t_struct(student)13_storage)dyn_storage)": {
						"encoding": "mapping",
						"key": "t_uint256",
						"label": "mapping(uint256 => struct TEST2.student[])",
						"numberOfBytes": "32",
						"value": "t_array(t_struct(student)13_storage)dyn_storage"
					},
					"t_string_memory_ptr": {
						"encoding": "bytes",
						"label": "string",
						"numberOfBytes": "32"
					},
					"t_string_storage": {
						"encoding": "bytes",
						"label": "string",
						"numberOfBytes": "32"
					},
					"t_struct(student)13_storage": {
						"encoding": "inplace",
						"label": "struct TEST2.student",
						"members": [
							{
								"astId": 3,
								"contract": "Coding test/test1.sol:TEST2",
								"label": "name",
								"offset": 0,
								"slot": "0",
								"type": "t_string_storage"
							},
							{
								"astId": 5,
								"contract": "Coding test/test1.sol:TEST2",
								"label": "num",
								"offset": 0,
								"slot": "1",
								"type": "t_uint256"
							},
							{
								"astId": 7,
								"contract": "Coding test/test1.sol:TEST2",
								"label": "score",
								"offset": 0,
								"slot": "2",
								"type": "t_uint256"
							},
							{
								"astId": 9,
								"contract": "Coding test/test1.sol:TEST2",
								"label": "grade",
								"offset": 0,
								"slot": "3",
								"type": "t_string_storage"
							},
							{
								"astId": 12,
								"contract": "Coding test/test1.sol:TEST2",
								"label": "class",
								"offset": 0,
								"slot": "4",
								"type": "t_array(t_string_storage)dyn_storage"
							}
						],
						"numberOfBytes": "160"
					},
					"t_uint256": {
						"encoding": "inplace",
						"label": "uint256",
						"numberOfBytes": "32"
					}
				}
			},
			"userdoc": {
				"kind": "user",
				"methods": {},
				"version": 1
			}
		}
	}
}