{
	"Coding test/test5.sol": {
		"TEST5": {
			"abi": [
				{
					"inputs": [
						{
							"internalType": "uint256",
							"name": "_n",
							"type": "uint256"
						}
					],
					"name": "getTime",
					"outputs": [
						{
							"internalType": "uint256",
							"name": "",
							"type": "uint256"
						},
						{
							"internalType": "string",
							"name": "",
							"type": "string"
						},
						{
							"internalType": "uint256",
							"name": "",
							"type": "uint256"
						},
						{
							"internalType": "string",
							"name": "",
							"type": "string"
						},
						{
							"internalType": "uint256",
							"name": "",
							"type": "uint256"
						},
						{
							"internalType": "string",
							"name": "",
							"type": "string"
						}
					],
					"stateMutability": "pure",
					"type": "function"
				}
			],
			"devdoc": {
				"kind": "dev",
				"methods": {},
				"version": 1
			},
			"evm": {
				"assembly": "    /* \"Coding test/test5.sol\":76:624  contract TEST5 {... */\n  mstore(0x40, 0x80)\n  callvalue\n  dup1\n  iszero\n  tag_1\n  jumpi\n  0x00\n  dup1\n  revert\ntag_1:\n  pop\n  dataSize(sub_0)\n  dup1\n  dataOffset(sub_0)\n  0x00\n  codecopy\n  0x00\n  return\nstop\n\nsub_0: assembly {\n        /* \"Coding test/test5.sol\":76:624  contract TEST5 {... */\n      mstore(0x40, 0x80)\n      callvalue\n      dup1\n      iszero\n      tag_1\n      jumpi\n      0x00\n      dup1\n      revert\n    tag_1:\n      pop\n      jumpi(tag_2, lt(calldatasize, 0x04))\n      shr(0xe0, calldataload(0x00))\n      dup1\n      0x73627826\n      eq\n      tag_3\n      jumpi\n    tag_2:\n      0x00\n      dup1\n      revert\n        /* \"Coding test/test5.sol\":247:619  function getTime(uint _n) public pure returns(uint,string memory, uint, string memory,uint, string memory){... */\n    tag_3:\n      tag_4\n      0x04\n      dup1\n      calldatasize\n      sub\n      dup2\n      add\n      swap1\n      tag_5\n      swap2\n      swap1\n      tag_6\n      jump\t// in\n    tag_5:\n      tag_7\n      jump\t// in\n    tag_4:\n      mload(0x40)\n      tag_8\n      swap7\n      swap6\n      swap5\n      swap4\n      swap3\n      swap2\n      swap1\n      tag_9\n      jump\t// in\n    tag_8:\n      mload(0x40)\n      dup1\n      swap2\n      sub\n      swap1\n      return\n    tag_7:\n        /* \"Coding test/test5.sol\":293:297  uint */\n      0x00\n        /* \"Coding test/test5.sol\":298:311  string memory */\n      0x60\n        /* \"Coding test/test5.sol\":313:317  uint */\n      0x00\n        /* \"Coding test/test5.sol\":319:332  string memory */\n      0x60\n        /* \"Coding test/test5.sol\":333:337  uint */\n      0x00\n        /* \"Coding test/test5.sol\":339:352  string memory */\n      0x60\n        /* \"Coding test/test5.sol\":374:378  3600 */\n      0x0e10\n        /* \"Coding test/test5.sol\":368:370  _n */\n      dup8\n        /* \"Coding test/test5.sol\":368:378  _n >= 3600 */\n      lt\n        /* \"Coding test/test5.sol\":364:611  if (_n >= 3600) {... */\n      tag_11\n      jumpi\n        /* \"Coding test/test5.sol\":407:411  3600 */\n      0x0e10\n        /* \"Coding test/test5.sol\":404:406  _n */\n      dup8\n        /* \"Coding test/test5.sol\":404:411  _n/3600 */\n      tag_12\n      swap2\n      swap1\n      tag_13\n      jump\t// in\n    tag_12:\n        /* \"Coding test/test5.sol\":433:435  60 */\n      0x3c\n        /* \"Coding test/test5.sol\":426:430  3600 */\n      0x0e10\n        /* \"Coding test/test5.sol\":421:423  _n */\n      dup10\n        /* \"Coding test/test5.sol\":421:430  _n % 3600 */\n      tag_14\n      swap2\n      swap1\n      tag_15\n      jump\t// in\n    tag_14:\n        /* \"Coding test/test5.sol\":421:435  _n % 3600 / 60 */\n      tag_16\n      swap2\n      swap1\n      tag_13\n      jump\t// in\n    tag_16:\n        /* \"Coding test/test5.sol\":449:451  60 */\n      0x3c\n        /* \"Coding test/test5.sol\":444:446  _n */\n      dup10\n        /* \"Coding test/test5.sol\":444:451  _n % 60 */\n      tag_17\n      swap2\n      swap1\n      tag_15\n      jump\t// in\n    tag_17:\n        /* \"Coding test/test5.sol\":395:459  return ((_n/3600),\"hour\",(_n % 3600 / 60),\"min\",(_n % 60),\"sec\") */\n      mload(0x40)\n      dup1\n      0x40\n      add\n      0x40\n      mstore\n      dup1\n      0x04\n      dup2\n      mstore\n      0x20\n      add\n      0x686f757200000000000000000000000000000000000000000000000000000000\n      dup2\n      mstore\n      pop\n      swap2\n      swap1\n      mload(0x40)\n      dup1\n      0x40\n      add\n      0x40\n      mstore\n      dup1\n      0x03\n      dup2\n      mstore\n      0x20\n      add\n      0x6d696e0000000000000000000000000000000000000000000000000000000000\n      dup2\n      mstore\n      pop\n      swap1\n      mload(0x40)\n      dup1\n      0x40\n      add\n      0x40\n      mstore\n      dup1\n      0x03\n      dup2\n      mstore\n      0x20\n      add\n      0x7365630000000000000000000000000000000000000000000000000000000000\n      dup2\n      mstore\n      pop\n      swap6\n      pop\n      swap6\n      pop\n      swap6\n      pop\n      swap6\n      pop\n      swap6\n      pop\n      swap6\n      pop\n      jump(tag_10)\n        /* \"Coding test/test5.sol\":364:611  if (_n >= 3600) {... */\n    tag_11:\n        /* \"Coding test/test5.sol\":487:489  60 */\n      0x3c\n        /* \"Coding test/test5.sol\":481:483  _n */\n      dup8\n        /* \"Coding test/test5.sol\":481:489  _n >= 60 */\n      lt\n        /* \"Coding test/test5.sol\":477:611  if (_n >= 60) {... */\n      tag_19\n      jumpi\n        /* \"Coding test/test5.sol\":514:515  0 */\n      0x00\n        /* \"Coding test/test5.sol\":530:532  60 */\n      0x3c\n        /* \"Coding test/test5.sol\":525:527  _n */\n      dup9\n        /* \"Coding test/test5.sol\":525:532  _n / 60 */\n      tag_20\n      swap2\n      swap1\n      tag_13\n      jump\t// in\n    tag_20:\n        /* \"Coding test/test5.sol\":548:550  60 */\n      0x3c\n        /* \"Coding test/test5.sol\":543:545  _n */\n      dup10\n        /* \"Coding test/test5.sol\":543:550  _n % 60 */\n      tag_21\n      swap2\n      swap1\n      tag_15\n      jump\t// in\n    tag_21:\n        /* \"Coding test/test5.sol\":506:559  return (0,\"hour\",( _n / 60) ,\"min\", (_n % 60) ,\"sec\") */\n      mload(0x40)\n      dup1\n      0x40\n      add\n      0x40\n      mstore\n      dup1\n      0x04\n      dup2\n      mstore\n      0x20\n      add\n      0x686f757200000000000000000000000000000000000000000000000000000000\n      dup2\n      mstore\n      pop\n      swap2\n      swap1\n      mload(0x40)\n      dup1\n      0x40\n      add\n      0x40\n      mstore\n      dup1\n      0x03\n      dup2\n      mstore\n      0x20\n      add\n      0x6d696e0000000000000000000000000000000000000000000000000000000000\n      dup2\n      mstore\n      pop\n      swap1\n      mload(0x40)\n      dup1\n      0x40\n      add\n      0x40\n      mstore\n      dup1\n      0x03\n      dup2\n      mstore\n      0x20\n      add\n      0x7365630000000000000000000000000000000000000000000000000000000000\n      dup2\n      mstore\n      pop\n      swap6\n      pop\n      swap6\n      pop\n      swap6\n      pop\n      swap6\n      pop\n      swap6\n      pop\n      swap6\n      pop\n      jump(tag_10)\n        /* \"Coding test/test5.sol\":477:611  if (_n >= 60) {... */\n    tag_19:\n        /* \"Coding test/test5.sol\":585:586  0 */\n      0x00\n        /* \"Coding test/test5.sol\":594:595  0 */\n      dup1\n        /* \"Coding test/test5.sol\":602:604  _n */\n      dup9\n        /* \"Coding test/test5.sol\":577:611  return (0,\"hour\",0,\"min\",_n,\"sec\") */\n      mload(0x40)\n      dup1\n      0x40\n      add\n      0x40\n      mstore\n      dup1\n      0x04\n      dup2\n      mstore\n      0x20\n      add\n      0x686f757200000000000000000000000000000000000000000000000000000000\n      dup2\n      mstore\n      pop\n      swap2\n      swap1\n      mload(0x40)\n      dup1\n      0x40\n      add\n      0x40\n      mstore\n      dup1\n      0x03\n      dup2\n      mstore\n      0x20\n      add\n      0x6d696e0000000000000000000000000000000000000000000000000000000000\n      dup2\n      mstore\n      pop\n      swap1\n      mload(0x40)\n      dup1\n      0x40\n      add\n      0x40\n      mstore\n      dup1\n      0x03\n      dup2\n      mstore\n      0x20\n      add\n      0x7365630000000000000000000000000000000000000000000000000000000000\n      dup2\n      mstore\n      pop\n      swap6\n      pop\n      swap6\n      pop\n      swap6\n      pop\n      swap6\n      pop\n      swap6\n      pop\n      swap6\n      pop\n        /* \"Coding test/test5.sol\":247:619  function getTime(uint _n) public pure returns(uint,string memory, uint, string memory,uint, string memory){... */\n    tag_10:\n      swap2\n      swap4\n      swap6\n      pop\n      swap2\n      swap4\n      swap6\n      jump\t// out\n        /* \"#utility.yul\":88:205   */\n    tag_24:\n        /* \"#utility.yul\":197:198   */\n      0x00\n        /* \"#utility.yul\":194:195   */\n      dup1\n        /* \"#utility.yul\":187:199   */\n      revert\n        /* \"#utility.yul\":334:411   */\n    tag_26:\n        /* \"#utility.yul\":371:378   */\n      0x00\n        /* \"#utility.yul\":400:405   */\n      dup2\n        /* \"#utility.yul\":389:405   */\n      swap1\n      pop\n        /* \"#utility.yul\":334:411   */\n      swap2\n      swap1\n      pop\n      jump\t// out\n        /* \"#utility.yul\":417:539   */\n    tag_27:\n        /* \"#utility.yul\":490:514   */\n      tag_43\n        /* \"#utility.yul\":508:513   */\n      dup2\n        /* \"#utility.yul\":490:514   */\n      tag_26\n      jump\t// in\n    tag_43:\n        /* \"#utility.yul\":483:488   */\n      dup2\n        /* \"#utility.yul\":480:515   */\n      eq\n        /* \"#utility.yul\":470:533   */\n      tag_44\n      jumpi\n        /* \"#utility.yul\":529:530   */\n      0x00\n        /* \"#utility.yul\":526:527   */\n      dup1\n        /* \"#utility.yul\":519:531   */\n      revert\n        /* \"#utility.yul\":470:533   */\n    tag_44:\n        /* \"#utility.yul\":417:539   */\n      pop\n      jump\t// out\n        /* \"#utility.yul\":545:684   */\n    tag_28:\n        /* \"#utility.yul\":591:596   */\n      0x00\n        /* \"#utility.yul\":629:635   */\n      dup2\n        /* \"#utility.yul\":616:636   */\n      calldataload\n        /* \"#utility.yul\":607:636   */\n      swap1\n      pop\n        /* \"#utility.yul\":645:678   */\n      tag_46\n        /* \"#utility.yul\":672:677   */\n      dup2\n        /* \"#utility.yul\":645:678   */\n      tag_27\n      jump\t// in\n    tag_46:\n        /* \"#utility.yul\":545:684   */\n      swap3\n      swap2\n      pop\n      pop\n      jump\t// out\n        /* \"#utility.yul\":690:1019   */\n    tag_6:\n        /* \"#utility.yul\":749:755   */\n      0x00\n        /* \"#utility.yul\":798:800   */\n      0x20\n        /* \"#utility.yul\":786:795   */\n      dup3\n        /* \"#utility.yul\":777:784   */\n      dup5\n        /* \"#utility.yul\":773:796   */\n      sub\n        /* \"#utility.yul\":769:801   */\n      slt\n        /* \"#utility.yul\":766:885   */\n      iszero\n      tag_48\n      jumpi\n        /* \"#utility.yul\":804:883   */\n      tag_49\n      tag_24\n      jump\t// in\n    tag_49:\n        /* \"#utility.yul\":766:885   */\n    tag_48:\n        /* \"#utility.yul\":924:925   */\n      0x00\n        /* \"#utility.yul\":949:1002   */\n      tag_50\n        /* \"#utility.yul\":994:1001   */\n      dup5\n        /* \"#utility.yul\":985:991   */\n      dup3\n        /* \"#utility.yul\":974:983   */\n      dup6\n        /* \"#utility.yul\":970:992   */\n      add\n        /* \"#utility.yul\":949:1002   */\n      tag_28\n      jump\t// in\n    tag_50:\n        /* \"#utility.yul\":939:1002   */\n      swap2\n      pop\n        /* \"#utility.yul\":895:1012   */\n      pop\n        /* \"#utility.yul\":690:1019   */\n      swap3\n      swap2\n      pop\n      pop\n      jump\t// out\n        /* \"#utility.yul\":1025:1143   */\n    tag_29:\n        /* \"#utility.yul\":1112:1136   */\n      tag_52\n        /* \"#utility.yul\":1130:1135   */\n      dup2\n        /* \"#utility.yul\":1112:1136   */\n      tag_26\n      jump\t// in\n    tag_52:\n        /* \"#utility.yul\":1107:1110   */\n      dup3\n        /* \"#utility.yul\":1100:1137   */\n      mstore\n        /* \"#utility.yul\":1025:1143   */\n      pop\n      pop\n      jump\t// out\n        /* \"#utility.yul\":1149:1248   */\n    tag_30:\n        /* \"#utility.yul\":1201:1207   */\n      0x00\n        /* \"#utility.yul\":1235:1240   */\n      dup2\n        /* \"#utility.yul\":1229:1241   */\n      mload\n        /* \"#utility.yul\":1219:1241   */\n      swap1\n      pop\n        /* \"#utility.yul\":1149:1248   */\n      swap2\n      swap1\n      pop\n      jump\t// out\n        /* \"#utility.yul\":1254:1423   */\n    tag_31:\n        /* \"#utility.yul\":1338:1349   */\n      0x00\n        /* \"#utility.yul\":1372:1378   */\n      dup3\n        /* \"#utility.yul\":1367:1370   */\n      dup3\n        /* \"#utility.yul\":1360:1379   */\n      mstore\n        /* \"#utility.yul\":1412:1416   */\n      0x20\n        /* \"#utility.yul\":1407:1410   */\n      dup3\n        /* \"#utility.yul\":1403:1417   */\n      add\n        /* \"#utility.yul\":1388:1417   */\n      swap1\n      pop\n        /* \"#utility.yul\":1254:1423   */\n      swap3\n      swap2\n      pop\n      pop\n      jump\t// out\n        /* \"#utility.yul\":1429:1568   */\n    tag_32:\n        /* \"#utility.yul\":1518:1524   */\n      dup3\n        /* \"#utility.yul\":1513:1516   */\n      dup2\n        /* \"#utility.yul\":1508:1511   */\n      dup4\n        /* \"#utility.yul\":1502:1525   */\n      mcopy\n        /* \"#utility.yul\":1559:1560   */\n      0x00\n        /* \"#utility.yul\":1550:1556   */\n      dup4\n        /* \"#utility.yul\":1545:1548   */\n      dup4\n        /* \"#utility.yul\":1541:1557   */\n      add\n        /* \"#utility.yul\":1534:1561   */\n      mstore\n        /* \"#utility.yul\":1429:1568   */\n      pop\n      pop\n      pop\n      jump\t// out\n        /* \"#utility.yul\":1574:1676   */\n    tag_33:\n        /* \"#utility.yul\":1615:1621   */\n      0x00\n        /* \"#utility.yul\":1666:1668   */\n      0x1f\n        /* \"#utility.yul\":1662:1669   */\n      not\n        /* \"#utility.yul\":1657:1659   */\n      0x1f\n        /* \"#utility.yul\":1650:1655   */\n      dup4\n        /* \"#utility.yul\":1646:1660   */\n      add\n        /* \"#utility.yul\":1642:1670   */\n      and\n        /* \"#utility.yul\":1632:1670   */\n      swap1\n      pop\n        /* \"#utility.yul\":1574:1676   */\n      swap2\n      swap1\n      pop\n      jump\t// out\n        /* \"#utility.yul\":1682:2059   */\n    tag_34:\n        /* \"#utility.yul\":1770:1773   */\n      0x00\n        /* \"#utility.yul\":1798:1837   */\n      tag_58\n        /* \"#utility.yul\":1831:1836   */\n      dup3\n        /* \"#utility.yul\":1798:1837   */\n      tag_30\n      jump\t// in\n    tag_58:\n        /* \"#utility.yul\":1853:1924   */\n      tag_59\n        /* \"#utility.yul\":1917:1923   */\n      dup2\n        /* \"#utility.yul\":1912:1915   */\n      dup6\n        /* \"#utility.yul\":1853:1924   */\n      tag_31\n      jump\t// in\n    tag_59:\n        /* \"#utility.yul\":1846:1924   */\n      swap4\n      pop\n        /* \"#utility.yul\":1933:1998   */\n      tag_60\n        /* \"#utility.yul\":1991:1997   */\n      dup2\n        /* \"#utility.yul\":1986:1989   */\n      dup6\n        /* \"#utility.yul\":1979:1983   */\n      0x20\n        /* \"#utility.yul\":1972:1977   */\n      dup7\n        /* \"#utility.yul\":1968:1984   */\n      add\n        /* \"#utility.yul\":1933:1998   */\n      tag_32\n      jump\t// in\n    tag_60:\n        /* \"#utility.yul\":2023:2052   */\n      tag_61\n        /* \"#utility.yul\":2045:2051   */\n      dup2\n        /* \"#utility.yul\":2023:2052   */\n      tag_33\n      jump\t// in\n    tag_61:\n        /* \"#utility.yul\":2018:2021   */\n      dup5\n        /* \"#utility.yul\":2014:2053   */\n      add\n        /* \"#utility.yul\":2007:2053   */\n      swap2\n      pop\n        /* \"#utility.yul\":1774:2059   */\n      pop\n        /* \"#utility.yul\":1682:2059   */\n      swap3\n      swap2\n      pop\n      pop\n      jump\t// out\n        /* \"#utility.yul\":2065:3113   */\n    tag_9:\n        /* \"#utility.yul\":2358:2362   */\n      0x00\n        /* \"#utility.yul\":2396:2399   */\n      0xc0\n        /* \"#utility.yul\":2385:2394   */\n      dup3\n        /* \"#utility.yul\":2381:2400   */\n      add\n        /* \"#utility.yul\":2373:2400   */\n      swap1\n      pop\n        /* \"#utility.yul\":2410:2481   */\n      tag_63\n        /* \"#utility.yul\":2478:2479   */\n      0x00\n        /* \"#utility.yul\":2467:2476   */\n      dup4\n        /* \"#utility.yul\":2463:2480   */\n      add\n        /* \"#utility.yul\":2454:2460   */\n      dup10\n        /* \"#utility.yul\":2410:2481   */\n      tag_29\n      jump\t// in\n    tag_63:\n        /* \"#utility.yul\":2528:2537   */\n      dup2\n        /* \"#utility.yul\":2522:2526   */\n      dup2\n        /* \"#utility.yul\":2518:2538   */\n      sub\n        /* \"#utility.yul\":2513:2515   */\n      0x20\n        /* \"#utility.yul\":2502:2511   */\n      dup4\n        /* \"#utility.yul\":2498:2516   */\n      add\n        /* \"#utility.yul\":2491:2539   */\n      mstore\n        /* \"#utility.yul\":2556:2634   */\n      tag_64\n        /* \"#utility.yul\":2629:2633   */\n      dup2\n        /* \"#utility.yul\":2620:2626   */\n      dup9\n        /* \"#utility.yul\":2556:2634   */\n      tag_34\n      jump\t// in\n    tag_64:\n        /* \"#utility.yul\":2548:2634   */\n      swap1\n      pop\n        /* \"#utility.yul\":2644:2716   */\n      tag_65\n        /* \"#utility.yul\":2712:2714   */\n      0x40\n        /* \"#utility.yul\":2701:2710   */\n      dup4\n        /* \"#utility.yul\":2697:2715   */\n      add\n        /* \"#utility.yul\":2688:2694   */\n      dup8\n        /* \"#utility.yul\":2644:2716   */\n      tag_29\n      jump\t// in\n    tag_65:\n        /* \"#utility.yul\":2763:2772   */\n      dup2\n        /* \"#utility.yul\":2757:2761   */\n      dup2\n        /* \"#utility.yul\":2753:2773   */\n      sub\n        /* \"#utility.yul\":2748:2750   */\n      0x60\n        /* \"#utility.yul\":2737:2746   */\n      dup4\n        /* \"#utility.yul\":2733:2751   */\n      add\n        /* \"#utility.yul\":2726:2774   */\n      mstore\n        /* \"#utility.yul\":2791:2869   */\n      tag_66\n        /* \"#utility.yul\":2864:2868   */\n      dup2\n        /* \"#utility.yul\":2855:2861   */\n      dup7\n        /* \"#utility.yul\":2791:2869   */\n      tag_34\n      jump\t// in\n    tag_66:\n        /* \"#utility.yul\":2783:2869   */\n      swap1\n      pop\n        /* \"#utility.yul\":2879:2952   */\n      tag_67\n        /* \"#utility.yul\":2947:2950   */\n      0x80\n        /* \"#utility.yul\":2936:2945   */\n      dup4\n        /* \"#utility.yul\":2932:2951   */\n      add\n        /* \"#utility.yul\":2923:2929   */\n      dup6\n        /* \"#utility.yul\":2879:2952   */\n      tag_29\n      jump\t// in\n    tag_67:\n        /* \"#utility.yul\":3000:3009   */\n      dup2\n        /* \"#utility.yul\":2994:2998   */\n      dup2\n        /* \"#utility.yul\":2990:3010   */\n      sub\n        /* \"#utility.yul\":2984:2987   */\n      0xa0\n        /* \"#utility.yul\":2973:2982   */\n      dup4\n        /* \"#utility.yul\":2969:2988   */\n      add\n        /* \"#utility.yul\":2962:3011   */\n      mstore\n        /* \"#utility.yul\":3028:3106   */\n      tag_68\n        /* \"#utility.yul\":3101:3105   */\n      dup2\n        /* \"#utility.yul\":3092:3098   */\n      dup5\n        /* \"#utility.yul\":3028:3106   */\n      tag_34\n      jump\t// in\n    tag_68:\n        /* \"#utility.yul\":3020:3106   */\n      swap1\n      pop\n        /* \"#utility.yul\":2065:3113   */\n      swap8\n      swap7\n      pop\n      pop\n      pop\n      pop\n      pop\n      pop\n      pop\n      jump\t// out\n        /* \"#utility.yul\":3119:3299   */\n    tag_35:\n        /* \"#utility.yul\":3167:3244   */\n      0x4e487b7100000000000000000000000000000000000000000000000000000000\n        /* \"#utility.yul\":3164:3165   */\n      0x00\n        /* \"#utility.yul\":3157:3245   */\n      mstore\n        /* \"#utility.yul\":3264:3268   */\n      0x12\n        /* \"#utility.yul\":3261:3262   */\n      0x04\n        /* \"#utility.yul\":3254:3269   */\n      mstore\n        /* \"#utility.yul\":3288:3292   */\n      0x24\n        /* \"#utility.yul\":3285:3286   */\n      0x00\n        /* \"#utility.yul\":3278:3293   */\n      revert\n        /* \"#utility.yul\":3491:3676   */\n    tag_13:\n        /* \"#utility.yul\":3531:3532   */\n      0x00\n        /* \"#utility.yul\":3548:3568   */\n      tag_72\n        /* \"#utility.yul\":3566:3567   */\n      dup3\n        /* \"#utility.yul\":3548:3568   */\n      tag_26\n      jump\t// in\n    tag_72:\n        /* \"#utility.yul\":3543:3568   */\n      swap2\n      pop\n        /* \"#utility.yul\":3582:3602   */\n      tag_73\n        /* \"#utility.yul\":3600:3601   */\n      dup4\n        /* \"#utility.yul\":3582:3602   */\n      tag_26\n      jump\t// in\n    tag_73:\n        /* \"#utility.yul\":3577:3602   */\n      swap3\n      pop\n        /* \"#utility.yul\":3621:3622   */\n      dup3\n        /* \"#utility.yul\":3611:3646   */\n      tag_74\n      jumpi\n        /* \"#utility.yul\":3626:3644   */\n      tag_75\n      tag_35\n      jump\t// in\n    tag_75:\n        /* \"#utility.yul\":3611:3646   */\n    tag_74:\n        /* \"#utility.yul\":3668:3669   */\n      dup3\n        /* \"#utility.yul\":3665:3666   */\n      dup3\n        /* \"#utility.yul\":3661:3670   */\n      div\n        /* \"#utility.yul\":3656:3670   */\n      swap1\n      pop\n        /* \"#utility.yul\":3491:3676   */\n      swap3\n      swap2\n      pop\n      pop\n      jump\t// out\n        /* \"#utility.yul\":3682:3858   */\n    tag_15:\n        /* \"#utility.yul\":3714:3715   */\n      0x00\n        /* \"#utility.yul\":3731:3751   */\n      tag_77\n        /* \"#utility.yul\":3749:3750   */\n      dup3\n        /* \"#utility.yul\":3731:3751   */\n      tag_26\n      jump\t// in\n    tag_77:\n        /* \"#utility.yul\":3726:3751   */\n      swap2\n      pop\n        /* \"#utility.yul\":3765:3785   */\n      tag_78\n        /* \"#utility.yul\":3783:3784   */\n      dup4\n        /* \"#utility.yul\":3765:3785   */\n      tag_26\n      jump\t// in\n    tag_78:\n        /* \"#utility.yul\":3760:3785   */\n      swap3\n      pop\n        /* \"#utility.yul\":3804:3805   */\n      dup3\n        /* \"#utility.yul\":3794:3829   */\n      tag_79\n      jumpi\n        /* \"#utility.yul\":3809:3827   */\n      tag_80\n      tag_35\n      jump\t// in\n    tag_80:\n        /* \"#utility.yul\":3794:3829   */\n    tag_79:\n        /* \"#utility.yul\":3850:3851   */\n      dup3\n        /* \"#utility.yul\":3847:3848   */\n      dup3\n        /* \"#utility.yul\":3843:3852   */\n      mod\n        /* \"#utility.yul\":3838:3852   */\n      swap1\n      pop\n        /* \"#utility.yul\":3682:3858   */\n      swap3\n      swap2\n      pop\n      pop\n      jump\t// out\n\n    auxdata: 0xa264697066735822122071c3a36b80084e3e963a5d3e77e28ece30cf2064d2c1f63f6b3400e7f3ef0d0564736f6c634300081a0033\n}\n",
				"bytecode": {
					"linkReferences": {},
					"object": "6080604052348015600e575f80fd5b5061050e8061001c5f395ff3fe608060405234801561000f575f80fd5b5060043610610029575f3560e01c8063736278261461002d575b5f80fd5b6100476004803603810190610042919061032d565b610062565b604051610059969594939291906103d7565b60405180910390f35b5f60605f60605f6060610e10871061015f57610e10876100829190610478565b603c610e108961009291906104a8565b61009c9190610478565b603c896100a991906104a8565b6040518060400160405280600481526020017f686f75720000000000000000000000000000000000000000000000000000000081525091906040518060400160405280600381526020017f6d696e0000000000000000000000000000000000000000000000000000000000815250906040518060400160405280600381526020017f73656300000000000000000000000000000000000000000000000000000000008152509550955095509550955095506102ed565b603c8710610238575f603c886101759190610478565b603c8961018291906104a8565b6040518060400160405280600481526020017f686f75720000000000000000000000000000000000000000000000000000000081525091906040518060400160405280600381526020017f6d696e0000000000000000000000000000000000000000000000000000000000815250906040518060400160405280600381526020017f73656300000000000000000000000000000000000000000000000000000000008152509550955095509550955095506102ed565b5f80886040518060400160405280600481526020017f686f75720000000000000000000000000000000000000000000000000000000081525091906040518060400160405280600381526020017f6d696e0000000000000000000000000000000000000000000000000000000000815250906040518060400160405280600381526020017f73656300000000000000000000000000000000000000000000000000000000008152509550955095509550955095505b91939550919395565b5f80fd5b5f819050919050565b61030c816102fa565b8114610316575f80fd5b50565b5f8135905061032781610303565b92915050565b5f60208284031215610342576103416102f6565b5b5f61034f84828501610319565b91505092915050565b610361816102fa565b82525050565b5f81519050919050565b5f82825260208201905092915050565b8281835e5f83830152505050565b5f601f19601f8301169050919050565b5f6103a982610367565b6103b38185610371565b93506103c3818560208601610381565b6103cc8161038f565b840191505092915050565b5f60c0820190506103ea5f830189610358565b81810360208301526103fc818861039f565b905061040b6040830187610358565b818103606083015261041d818661039f565b905061042c6080830185610358565b81810360a083015261043e818461039f565b9050979650505050505050565b7f4e487b71000000000000000000000000000000000000000000000000000000005f52601260045260245ffd5b5f610482826102fa565b915061048d836102fa565b92508261049d5761049c61044b565b5b828204905092915050565b5f6104b2826102fa565b91506104bd836102fa565b9250826104cd576104cc61044b565b5b82820690509291505056fea264697066735822122071c3a36b80084e3e963a5d3e77e28ece30cf2064d2c1f63f6b3400e7f3ef0d0564736f6c634300081a0033",
					"opcodes": "PUSH1 0x80 PUSH1 0x40 MSTORE CALLVALUE DUP1 ISZERO PUSH1 0xE JUMPI PUSH0 DUP1 REVERT JUMPDEST POP PUSH2 0x50E DUP1 PUSH2 0x1C PUSH0 CODECOPY PUSH0 RETURN INVALID PUSH1 0x80 PUSH1 0x40 MSTORE CALLVALUE DUP1 ISZERO PUSH2 0xF JUMPI PUSH0 DUP1 REVERT JUMPDEST POP PUSH1 0x4 CALLDATASIZE LT PUSH2 0x29 JUMPI PUSH0 CALLDATALOAD PUSH1 0xE0 SHR DUP1 PUSH4 0x73627826 EQ PUSH2 0x2D JUMPI JUMPDEST PUSH0 DUP1 REVERT JUMPDEST PUSH2 0x47 PUSH1 0x4 DUP1 CALLDATASIZE SUB DUP2 ADD SWAP1 PUSH2 0x42 SWAP2 SWAP1 PUSH2 0x32D JUMP JUMPDEST PUSH2 0x62 JUMP JUMPDEST PUSH1 0x40 MLOAD PUSH2 0x59 SWAP7 SWAP6 SWAP5 SWAP4 SWAP3 SWAP2 SWAP1 PUSH2 0x3D7 JUMP JUMPDEST PUSH1 0x40 MLOAD DUP1 SWAP2 SUB SWAP1 RETURN JUMPDEST PUSH0 PUSH1 0x60 PUSH0 PUSH1 0x60 PUSH0 PUSH1 0x60 PUSH2 0xE10 DUP8 LT PUSH2 0x15F JUMPI PUSH2 0xE10 DUP8 PUSH2 0x82 SWAP2 SWAP1 PUSH2 0x478 JUMP JUMPDEST PUSH1 0x3C PUSH2 0xE10 DUP10 PUSH2 0x92 SWAP2 SWAP1 PUSH2 0x4A8 JUMP JUMPDEST PUSH2 0x9C SWAP2 SWAP1 PUSH2 0x478 JUMP JUMPDEST PUSH1 0x3C DUP10 PUSH2 0xA9 SWAP2 SWAP1 PUSH2 0x4A8 JUMP JUMPDEST PUSH1 0x40 MLOAD DUP1 PUSH1 0x40 ADD PUSH1 0x40 MSTORE DUP1 PUSH1 0x4 DUP2 MSTORE PUSH1 0x20 ADD PUSH32 0x686F757200000000000000000000000000000000000000000000000000000000 DUP2 MSTORE POP SWAP2 SWAP1 PUSH1 0x40 MLOAD DUP1 PUSH1 0x40 ADD PUSH1 0x40 MSTORE DUP1 PUSH1 0x3 DUP2 MSTORE PUSH1 0x20 ADD PUSH32 0x6D696E0000000000000000000000000000000000000000000000000000000000 DUP2 MSTORE POP SWAP1 PUSH1 0x40 MLOAD DUP1 PUSH1 0x40 ADD PUSH1 0x40 MSTORE DUP1 PUSH1 0x3 DUP2 MSTORE PUSH1 0x20 ADD PUSH32 0x7365630000000000000000000000000000000000000000000000000000000000 DUP2 MSTORE POP SWAP6 POP SWAP6 POP SWAP6 POP SWAP6 POP SWAP6 POP SWAP6 POP PUSH2 0x2ED JUMP JUMPDEST PUSH1 0x3C DUP8 LT PUSH2 0x238 JUMPI PUSH0 PUSH1 0x3C DUP9 PUSH2 0x175 SWAP2 SWAP1 PUSH2 0x478 JUMP JUMPDEST PUSH1 0x3C DUP10 PUSH2 0x182 SWAP2 SWAP1 PUSH2 0x4A8 JUMP JUMPDEST PUSH1 0x40 MLOAD DUP1 PUSH1 0x40 ADD PUSH1 0x40 MSTORE DUP1 PUSH1 0x4 DUP2 MSTORE PUSH1 0x20 ADD PUSH32 0x686F757200000000000000000000000000000000000000000000000000000000 DUP2 MSTORE POP SWAP2 SWAP1 PUSH1 0x40 MLOAD DUP1 PUSH1 0x40 ADD PUSH1 0x40 MSTORE DUP1 PUSH1 0x3 DUP2 MSTORE PUSH1 0x20 ADD PUSH32 0x6D696E0000000000000000000000000000000000000000000000000000000000 DUP2 MSTORE POP SWAP1 PUSH1 0x40 MLOAD DUP1 PUSH1 0x40 ADD PUSH1 0x40 MSTORE DUP1 PUSH1 0x3 DUP2 MSTORE PUSH1 0x20 ADD PUSH32 0x7365630000000000000000000000000000000000000000000000000000000000 DUP2 MSTORE POP SWAP6 POP SWAP6 POP SWAP6 POP SWAP6 POP SWAP6 POP SWAP6 POP PUSH2 0x2ED JUMP JUMPDEST PUSH0 DUP1 DUP9 PUSH1 0x40 MLOAD DUP1 PUSH1 0x40 ADD PUSH1 0x40 MSTORE DUP1 PUSH1 0x4 DUP2 MSTORE PUSH1 0x20 ADD PUSH32 0x686F757200000000000000000000000000000000000000000000000000000000 DUP2 MSTORE POP SWAP2 SWAP1 PUSH1 0x40 MLOAD DUP1 PUSH1 0x40 ADD PUSH1 0x40 MSTORE DUP1 PUSH1 0x3 DUP2 MSTORE PUSH1 0x20 ADD PUSH32 0x6D696E0000000000000000000000000000000000000000000000000000000000 DUP2 MSTORE POP SWAP1 PUSH1 0x40 MLOAD DUP1 PUSH1 0x40 ADD PUSH1 0x40 MSTORE DUP1 PUSH1 0x3 DUP2 MSTORE PUSH1 0x20 ADD PUSH32 0x7365630000000000000000000000000000000000000000000000000000000000 DUP2 MSTORE POP SWAP6 POP SWAP6 POP SWAP6 POP SWAP6 POP SWAP6 POP SWAP6 POP JUMPDEST SWAP2 SWAP4 SWAP6 POP SWAP2 SWAP4 SWAP6 JUMP JUMPDEST PUSH0 DUP1 REVERT JUMPDEST PUSH0 DUP2 SWAP1 POP SWAP2 SWAP1 POP JUMP JUMPDEST PUSH2 0x30C DUP2 PUSH2 0x2FA JUMP JUMPDEST DUP2 EQ PUSH2 0x316 JUMPI PUSH0 DUP1 REVERT JUMPDEST POP JUMP JUMPDEST PUSH0 DUP2 CALLDATALOAD SWAP1 POP PUSH2 0x327 DUP2 PUSH2 0x303 JUMP JUMPDEST SWAP3 SWAP2 POP POP JUMP JUMPDEST PUSH0 PUSH1 0x20 DUP3 DUP5 SUB SLT ISZERO PUSH2 0x342 JUMPI PUSH2 0x341 PUSH2 0x2F6 JUMP JUMPDEST JUMPDEST PUSH0 PUSH2 0x34F DUP5 DUP3 DUP6 ADD PUSH2 0x319 JUMP JUMPDEST SWAP2 POP POP SWAP3 SWAP2 POP POP JUMP JUMPDEST PUSH2 0x361 DUP2 PUSH2 0x2FA JUMP JUMPDEST DUP3 MSTORE POP POP JUMP JUMPDEST PUSH0 DUP2 MLOAD SWAP1 POP SWAP2 SWAP1 POP JUMP JUMPDEST PUSH0 DUP3 DUP3 MSTORE PUSH1 0x20 DUP3 ADD SWAP1 POP SWAP3 SWAP2 POP POP JUMP JUMPDEST DUP3 DUP2 DUP4 MCOPY PUSH0 DUP4 DUP4 ADD MSTORE POP POP POP JUMP JUMPDEST PUSH0 PUSH1 0x1F NOT PUSH1 0x1F DUP4 ADD AND SWAP1 POP SWAP2 SWAP1 POP JUMP JUMPDEST PUSH0 PUSH2 0x3A9 DUP3 PUSH2 0x367 JUMP JUMPDEST PUSH2 0x3B3 DUP2 DUP6 PUSH2 0x371 JUMP JUMPDEST SWAP4 POP PUSH2 0x3C3 DUP2 DUP6 PUSH1 0x20 DUP7 ADD PUSH2 0x381 JUMP JUMPDEST PUSH2 0x3CC DUP2 PUSH2 0x38F JUMP JUMPDEST DUP5 ADD SWAP2 POP POP SWAP3 SWAP2 POP POP JUMP JUMPDEST PUSH0 PUSH1 0xC0 DUP3 ADD SWAP1 POP PUSH2 0x3EA PUSH0 DUP4 ADD DUP10 PUSH2 0x358 JUMP JUMPDEST DUP2 DUP2 SUB PUSH1 0x20 DUP4 ADD MSTORE PUSH2 0x3FC DUP2 DUP9 PUSH2 0x39F JUMP JUMPDEST SWAP1 POP PUSH2 0x40B PUSH1 0x40 DUP4 ADD DUP8 PUSH2 0x358 JUMP JUMPDEST DUP2 DUP2 SUB PUSH1 0x60 DUP4 ADD MSTORE PUSH2 0x41D DUP2 DUP7 PUSH2 0x39F JUMP JUMPDEST SWAP1 POP PUSH2 0x42C PUSH1 0x80 DUP4 ADD DUP6 PUSH2 0x358 JUMP JUMPDEST DUP2 DUP2 SUB PUSH1 0xA0 DUP4 ADD MSTORE PUSH2 0x43E DUP2 DUP5 PUSH2 0x39F JUMP JUMPDEST SWAP1 POP SWAP8 SWAP7 POP POP POP POP POP POP POP JUMP JUMPDEST PUSH32 0x4E487B7100000000000000000000000000000000000000000000000000000000 PUSH0 MSTORE PUSH1 0x12 PUSH1 0x4 MSTORE PUSH1 0x24 PUSH0 REVERT JUMPDEST PUSH0 PUSH2 0x482 DUP3 PUSH2 0x2FA JUMP JUMPDEST SWAP2 POP PUSH2 0x48D DUP4 PUSH2 0x2FA JUMP JUMPDEST SWAP3 POP DUP3 PUSH2 0x49D JUMPI PUSH2 0x49C PUSH2 0x44B JUMP JUMPDEST JUMPDEST DUP3 DUP3 DIV SWAP1 POP SWAP3 SWAP2 POP POP JUMP JUMPDEST PUSH0 PUSH2 0x4B2 DUP3 PUSH2 0x2FA JUMP JUMPDEST SWAP2 POP PUSH2 0x4BD DUP4 PUSH2 0x2FA JUMP JUMPDEST SWAP3 POP DUP3 PUSH2 0x4CD JUMPI PUSH2 0x4CC PUSH2 0x44B JUMP JUMPDEST JUMPDEST DUP3 DUP3 MOD SWAP1 POP SWAP3 SWAP2 POP POP JUMP INVALID LOG2 PUSH5 0x6970667358 0x22 SLT KECCAK256 PUSH18 0xC3A36B80084E3E963A5D3E77E28ECE30CF20 PUSH5 0xD2C1F63F6B CALLVALUE STOP 0xE7 RETURN 0xEF 0xD SDIV PUSH5 0x736F6C6343 STOP ADDMOD BYTE STOP CALLER "
				},
				"gasEstimates": {
					"creation": {
						"codeDepositCost": "258800",
						"executionCost": "298",
						"totalCost": "259098"
					},
					"external": {
						"getTime(uint256)": "infinite"
					}
				},
				"methodIdentifiers": {
					"getTime(uint256)": "73627826"
				}
			},
			"storageLayout": {
				"storage": [],
				"types": null
			},
			"userdoc": {
				"kind": "user",
				"methods": {},
				"version": 1
			}
		}
	}
}