{
	"Coding test/bank.sol": {
		"IRS": {
			"abi": [
				{
					"inputs": [],
					"name": "getList",
					"outputs": [
						{
							"internalType": "address[]",
							"name": "",
							"type": "address[]"
						}
					],
					"stateMutability": "view",
					"type": "function"
				},
				{
					"inputs": [],
					"name": "payTaxes",
					"outputs": [],
					"stateMutability": "payable",
					"type": "function"
				},
				{
					"inputs": [],
					"name": "predict",
					"outputs": [
						{
							"internalType": "uint256",
							"name": "",
							"type": "uint256"
						}
					],
					"stateMutability": "view",
					"type": "function"
				},
				{
					"inputs": [
						{
							"internalType": "address",
							"name": "_addr",
							"type": "address"
						}
					],
					"name": "pushList",
					"outputs": [],
					"stateMutability": "nonpayable",
					"type": "function"
				}
			],
			"devdoc": {
				"kind": "dev",
				"methods": {},
				"version": 1
			},
			"evm": {
				"assembly": "    /* \"Coding test/bank.sol\":76:778  contract IRS {... */\n  mstore(0x40, 0x80)\n  callvalue\n  dup1\n  iszero\n  tag_1\n  jumpi\n  0x00\n  dup1\n  revert\ntag_1:\n  pop\n  dataSize(sub_0)\n  dup1\n  dataOffset(sub_0)\n  0x00\n  codecopy\n  0x00\n  return\nstop\n\nsub_0: assembly {\n        /* \"Coding test/bank.sol\":76:778  contract IRS {... */\n      mstore(0x40, 0x80)\n      jumpi(tag_1, lt(calldatasize, 0x04))\n      shr(0xe0, calldataload(0x00))\n      dup1\n      0x942b765a\n      eq\n      tag_2\n      jumpi\n      dup1\n      0xdaa93f60\n      eq\n      tag_3\n      jumpi\n      dup1\n      0xe10e384a\n      eq\n      tag_4\n      jumpi\n      dup1\n      0xe4629f34\n      eq\n      tag_5\n      jumpi\n    tag_1:\n      0x00\n      dup1\n      revert\n        /* \"Coding test/bank.sol\":210:301  function getList() public view returns(address[] memory) {... */\n    tag_2:\n      callvalue\n      dup1\n      iszero\n      tag_6\n      jumpi\n      0x00\n      dup1\n      revert\n    tag_6:\n      pop\n      tag_7\n      tag_8\n      jump\t// in\n    tag_7:\n      mload(0x40)\n      tag_9\n      swap2\n      swap1\n      tag_10\n      jump\t// in\n    tag_9:\n      mload(0x40)\n      dup1\n      swap2\n      sub\n      swap1\n      return\n        /* \"Coding test/bank.sol\":123:202  function pushList(address _addr) public {... */\n    tag_3:\n      callvalue\n      dup1\n      iszero\n      tag_11\n      jumpi\n      0x00\n      dup1\n      revert\n    tag_11:\n      pop\n      tag_12\n      0x04\n      dup1\n      calldatasize\n      sub\n      dup2\n      add\n      swap1\n      tag_13\n      swap2\n      swap1\n      tag_14\n      jump\t// in\n    tag_13:\n      tag_15\n      jump\t// in\n    tag_12:\n      stop\n        /* \"Coding test/bank.sol\":559:774  function payTaxes() public payable {... */\n    tag_4:\n      tag_16\n      tag_17\n      jump\t// in\n    tag_16:\n      stop\n        /* \"Coding test/bank.sol\":309:547  function predict() public view returns(uint) {... */\n    tag_5:\n      callvalue\n      dup1\n      iszero\n      tag_18\n      jumpi\n      0x00\n      dup1\n      revert\n    tag_18:\n      pop\n      tag_19\n      tag_20\n      jump\t// in\n    tag_19:\n      mload(0x40)\n      tag_21\n      swap2\n      swap1\n      tag_22\n      jump\t// in\n    tag_21:\n      mload(0x40)\n      dup1\n      swap2\n      sub\n      swap1\n      return\n        /* \"Coding test/bank.sol\":210:301  function getList() public view returns(address[] memory) {... */\n    tag_8:\n        /* \"Coding test/bank.sol\":249:265  address[] memory */\n      0x60\n        /* \"Coding test/bank.sol\":285:293  BankList */\n      0x00\n        /* \"Coding test/bank.sol\":278:293  return BankList */\n      dup1\n      sload\n      dup1\n      0x20\n      mul\n      0x20\n      add\n      mload(0x40)\n      swap1\n      dup2\n      add\n      0x40\n      mstore\n      dup1\n      swap3\n      swap2\n      swap1\n      dup2\n      dup2\n      mstore\n      0x20\n      add\n      dup3\n      dup1\n      sload\n      dup1\n      iszero\n      tag_24\n      jumpi\n      0x20\n      mul\n      dup3\n      add\n      swap2\n      swap1\n      0x00\n      mstore\n      keccak256(0x00, 0x20)\n      swap1\n    tag_25:\n      dup2\n      0x00\n      swap1\n      sload\n      swap1\n      0x0100\n      exp\n      swap1\n      div\n      0xffffffffffffffffffffffffffffffffffffffff\n      and\n      0xffffffffffffffffffffffffffffffffffffffff\n      and\n      dup2\n      mstore\n      0x20\n      add\n      swap1\n      0x01\n      add\n      swap1\n      dup1\n      dup4\n      gt\n      tag_25\n      jumpi\n    tag_24:\n      pop\n      pop\n      pop\n      pop\n      pop\n      swap1\n      pop\n        /* \"Coding test/bank.sol\":210:301  function getList() public view returns(address[] memory) {... */\n      swap1\n      jump\t// out\n        /* \"Coding test/bank.sol\":123:202  function pushList(address _addr) public {... */\n    tag_15:\n        /* \"Coding test/bank.sol\":174:182  BankList */\n      0x00\n        /* \"Coding test/bank.sol\":188:193  _addr */\n      dup2\n        /* \"Coding test/bank.sol\":174:194  BankList.push(_addr) */\n      swap1\n      dup1\n      0x01\n      dup2\n      sload\n      add\n      dup1\n      dup3\n      sstore\n      dup1\n      swap2\n      pop\n      pop\n      0x01\n      swap1\n      sub\n      swap1\n      0x00\n      mstore\n      keccak256(0x00, 0x20)\n      add\n      0x00\n      swap1\n      swap2\n      swap1\n      swap2\n      swap1\n      swap2\n      0x0100\n      exp\n      dup2\n      sload\n      dup2\n      0xffffffffffffffffffffffffffffffffffffffff\n      mul\n      not\n      and\n      swap1\n      dup4\n      0xffffffffffffffffffffffffffffffffffffffff\n      and\n      mul\n      or\n      swap1\n      sstore\n      pop\n        /* \"Coding test/bank.sol\":123:202  function pushList(address _addr) public {... */\n      pop\n      jump\t// out\n        /* \"Coding test/bank.sol\":559:774  function payTaxes() public payable {... */\n    tag_17:\n        /* \"Coding test/bank.sol\":626:635  predict() */\n      tag_29\n        /* \"Coding test/bank.sol\":626:633  predict */\n      tag_20\n        /* \"Coding test/bank.sol\":626:635  predict() */\n      jump\t// in\n    tag_29:\n        /* \"Coding test/bank.sol\":613:622  msg.value */\n      callvalue\n        /* \"Coding test/bank.sol\":613:635  msg.value == predict() */\n      eq\n        /* \"Coding test/bank.sol\":605:644  require(msg.value == predict(), \"nope\") */\n      tag_30\n      jumpi\n      mload(0x40)\n      0x08c379a000000000000000000000000000000000000000000000000000000000\n      dup2\n      mstore\n      0x04\n      add\n      tag_31\n      swap1\n      tag_32\n      jump\t// in\n    tag_31:\n      mload(0x40)\n      dup1\n      swap2\n      sub\n      swap1\n      revert\n    tag_30:\n        /* \"Coding test/bank.sol\":662:668  uint i */\n      0x00\n        /* \"Coding test/bank.sol\":658:767  for(uint i=0; i<BankList.length; i++){... */\n    tag_33:\n        /* \"Coding test/bank.sol\":674:682  BankList */\n      0x00\n        /* \"Coding test/bank.sol\":674:689  BankList.length */\n      dup1\n      sload\n      swap1\n      pop\n        /* \"Coding test/bank.sol\":672:673  i */\n      dup2\n        /* \"Coding test/bank.sol\":672:689  i<BankList.length */\n      lt\n        /* \"Coding test/bank.sol\":658:767  for(uint i=0; i<BankList.length; i++){... */\n      iszero\n      tag_34\n      jumpi\n        /* \"Coding test/bank.sol\":724:732  BankList */\n      0x00\n        /* \"Coding test/bank.sol\":733:734  i */\n      dup2\n        /* \"Coding test/bank.sol\":724:735  BankList[i] */\n      dup2\n      sload\n      dup2\n      lt\n      tag_36\n      jumpi\n      tag_37\n      tag_38\n      jump\t// in\n    tag_37:\n    tag_36:\n      swap1\n      0x00\n      mstore\n      keccak256(0x00, 0x20)\n      add\n      0x00\n      swap1\n      sload\n      swap1\n      0x0100\n      exp\n      swap1\n      div\n      0xffffffffffffffffffffffffffffffffffffffff\n      and\n        /* \"Coding test/bank.sol\":710:743  Bank(payable (BankList[i])).users */\n      0xffffffffffffffffffffffffffffffffffffffff\n      and\n      0xa87430ba\n        /* \"Coding test/bank.sol\":744:754  msg.sender */\n      caller\n        /* \"Coding test/bank.sol\":710:755  Bank(payable (BankList[i])).users(msg.sender) */\n      mload(0x40)\n      dup3\n      0xffffffff\n      and\n      0xe0\n      shl\n      dup2\n      mstore\n      0x04\n      add\n      tag_40\n      swap2\n      swap1\n      tag_41\n      jump\t// in\n    tag_40:\n      0x40\n      dup1\n      mload\n      dup1\n      dup4\n      sub\n      dup2\n      dup7\n      gas\n      staticcall\n      iszero\n      dup1\n      iszero\n      tag_43\n      jumpi\n      returndatasize\n      0x00\n      dup1\n      returndatacopy\n      revert(0x00, returndatasize)\n    tag_43:\n      pop\n      pop\n      pop\n      pop\n      mload(0x40)\n      returndatasize\n      not(0x1f)\n      0x1f\n      dup3\n      add\n      and\n      dup3\n      add\n      dup1\n      0x40\n      mstore\n      pop\n      dup2\n      add\n      swap1\n      tag_44\n      swap2\n      swap1\n      tag_45\n      jump\t// in\n    tag_44:\n      pop\n      pop\n        /* \"Coding test/bank.sol\":691:694  i++ */\n      dup1\n      dup1\n      0x01\n      add\n      swap2\n      pop\n      pop\n        /* \"Coding test/bank.sol\":658:767  for(uint i=0; i<BankList.length; i++){... */\n      jump(tag_33)\n    tag_34:\n      pop\n        /* \"Coding test/bank.sol\":559:774  function payTaxes() public payable {... */\n      jump\t// out\n        /* \"Coding test/bank.sol\":309:547  function predict() public view returns(uint) {... */\n    tag_20:\n        /* \"Coding test/bank.sol\":348:352  uint */\n      0x00\n        /* \"Coding test/bank.sol\":365:373  uint sum */\n      dup1\n        /* \"Coding test/bank.sol\":390:396  uint i */\n      0x00\n        /* \"Coding test/bank.sol\":386:513  for(uint i=0; i<BankList.length; i++) {... */\n    tag_47:\n        /* \"Coding test/bank.sol\":402:410  BankList */\n      0x00\n        /* \"Coding test/bank.sol\":402:417  BankList.length */\n      dup1\n      sload\n      swap1\n      pop\n        /* \"Coding test/bank.sol\":400:401  i */\n      dup2\n        /* \"Coding test/bank.sol\":400:417  i<BankList.length */\n      lt\n        /* \"Coding test/bank.sol\":386:513  for(uint i=0; i<BankList.length; i++) {... */\n      iszero\n      tag_48\n      jumpi\n        /* \"Coding test/bank.sol\":460:468  BankList */\n      0x00\n        /* \"Coding test/bank.sol\":469:470  i */\n      dup2\n        /* \"Coding test/bank.sol\":460:471  BankList[i] */\n      dup2\n      sload\n      dup2\n      lt\n      tag_50\n      jumpi\n      tag_51\n      tag_38\n      jump\t// in\n    tag_51:\n    tag_50:\n      swap1\n      0x00\n      mstore\n      keccak256(0x00, 0x20)\n      add\n      0x00\n      swap1\n      sload\n      swap1\n      0x0100\n      exp\n      swap1\n      div\n      0xffffffffffffffffffffffffffffffffffffffff\n      and\n        /* \"Coding test/bank.sol\":446:481  Bank(payable (BankList[i])).getUser */\n      0xffffffffffffffffffffffffffffffffffffffff\n      and\n      0x6f77926b\n        /* \"Coding test/bank.sol\":482:492  msg.sender */\n      caller\n        /* \"Coding test/bank.sol\":446:493  Bank(payable (BankList[i])).getUser(msg.sender) */\n      mload(0x40)\n      dup3\n      0xffffffff\n      and\n      0xe0\n      shl\n      dup2\n      mstore\n      0x04\n      add\n      tag_53\n      swap2\n      swap1\n      tag_41\n      jump\t// in\n    tag_53:\n      0x40\n      dup1\n      mload\n      dup1\n      dup4\n      sub\n      dup2\n      dup7\n      gas\n      staticcall\n      iszero\n      dup1\n      iszero\n      tag_55\n      jumpi\n      returndatasize\n      0x00\n      dup1\n      returndatacopy\n      revert(0x00, returndatasize)\n    tag_55:\n      pop\n      pop\n      pop\n      pop\n      mload(0x40)\n      returndatasize\n      not(0x1f)\n      0x1f\n      dup3\n      add\n      and\n      dup3\n      add\n      dup1\n      0x40\n      mstore\n      pop\n      dup2\n      add\n      swap1\n      tag_56\n      swap2\n      swap1\n      tag_57\n      jump\t// in\n    tag_56:\n        /* \"Coding test/bank.sol\":446:501  Bank(payable (BankList[i])).getUser(msg.sender).balance */\n      0x20\n      add\n      mload\n        /* \"Coding test/bank.sol\":439:501  sum += Bank(payable (BankList[i])).getUser(msg.sender).balance */\n      dup3\n      tag_58\n      swap2\n      swap1\n      tag_59\n      jump\t// in\n    tag_58:\n      swap2\n      pop\n        /* \"Coding test/bank.sol\":419:422  i++ */\n      dup1\n      dup1\n      0x01\n      add\n      swap2\n      pop\n      pop\n        /* \"Coding test/bank.sol\":386:513  for(uint i=0; i<BankList.length; i++) {... */\n      jump(tag_47)\n    tag_48:\n      pop\n        /* \"Coding test/bank.sol\":536:539  100 */\n      0x64\n        /* \"Coding test/bank.sol\":530:533  sum */\n      dup2\n        /* \"Coding test/bank.sol\":530:539  sum / 100 */\n      tag_60\n      swap2\n      swap1\n      tag_61\n      jump\t// in\n    tag_60:\n        /* \"Coding test/bank.sol\":523:539  return sum / 100 */\n      swap2\n      pop\n      pop\n        /* \"Coding test/bank.sol\":309:547  function predict() public view returns(uint) {... */\n      swap1\n      jump\t// out\n        /* \"#utility.yul\":7:121   */\n    tag_62:\n        /* \"#utility.yul\":74:80   */\n      0x00\n        /* \"#utility.yul\":108:113   */\n      dup2\n        /* \"#utility.yul\":102:114   */\n      mload\n        /* \"#utility.yul\":92:114   */\n      swap1\n      pop\n        /* \"#utility.yul\":7:121   */\n      swap2\n      swap1\n      pop\n      jump\t// out\n        /* \"#utility.yul\":127:311   */\n    tag_63:\n        /* \"#utility.yul\":226:237   */\n      0x00\n        /* \"#utility.yul\":260:266   */\n      dup3\n        /* \"#utility.yul\":255:258   */\n      dup3\n        /* \"#utility.yul\":248:267   */\n      mstore\n        /* \"#utility.yul\":300:304   */\n      0x20\n        /* \"#utility.yul\":295:298   */\n      dup3\n        /* \"#utility.yul\":291:305   */\n      add\n        /* \"#utility.yul\":276:305   */\n      swap1\n      pop\n        /* \"#utility.yul\":127:311   */\n      swap3\n      swap2\n      pop\n      pop\n      jump\t// out\n        /* \"#utility.yul\":317:449   */\n    tag_64:\n        /* \"#utility.yul\":384:388   */\n      0x00\n        /* \"#utility.yul\":407:410   */\n      dup2\n        /* \"#utility.yul\":399:410   */\n      swap1\n      pop\n        /* \"#utility.yul\":437:441   */\n      0x20\n        /* \"#utility.yul\":432:435   */\n      dup3\n        /* \"#utility.yul\":428:442   */\n      add\n        /* \"#utility.yul\":420:442   */\n      swap1\n      pop\n        /* \"#utility.yul\":317:449   */\n      swap2\n      swap1\n      pop\n      jump\t// out\n        /* \"#utility.yul\":455:581   */\n    tag_65:\n        /* \"#utility.yul\":492:499   */\n      0x00\n        /* \"#utility.yul\":532:574   */\n      0xffffffffffffffffffffffffffffffffffffffff\n        /* \"#utility.yul\":525:530   */\n      dup3\n        /* \"#utility.yul\":521:575   */\n      and\n        /* \"#utility.yul\":510:575   */\n      swap1\n      pop\n        /* \"#utility.yul\":455:581   */\n      swap2\n      swap1\n      pop\n      jump\t// out\n        /* \"#utility.yul\":587:683   */\n    tag_66:\n        /* \"#utility.yul\":624:631   */\n      0x00\n        /* \"#utility.yul\":653:677   */\n      tag_100\n        /* \"#utility.yul\":671:676   */\n      dup3\n        /* \"#utility.yul\":653:677   */\n      tag_65\n      jump\t// in\n    tag_100:\n        /* \"#utility.yul\":642:677   */\n      swap1\n      pop\n        /* \"#utility.yul\":587:683   */\n      swap2\n      swap1\n      pop\n      jump\t// out\n        /* \"#utility.yul\":689:797   */\n    tag_67:\n        /* \"#utility.yul\":766:790   */\n      tag_102\n        /* \"#utility.yul\":784:789   */\n      dup2\n        /* \"#utility.yul\":766:790   */\n      tag_66\n      jump\t// in\n    tag_102:\n        /* \"#utility.yul\":761:764   */\n      dup3\n        /* \"#utility.yul\":754:791   */\n      mstore\n        /* \"#utility.yul\":689:797   */\n      pop\n      pop\n      jump\t// out\n        /* \"#utility.yul\":803:982   */\n    tag_68:\n        /* \"#utility.yul\":872:882   */\n      0x00\n        /* \"#utility.yul\":893:939   */\n      tag_104\n        /* \"#utility.yul\":935:938   */\n      dup4\n        /* \"#utility.yul\":927:933   */\n      dup4\n        /* \"#utility.yul\":893:939   */\n      tag_67\n      jump\t// in\n    tag_104:\n        /* \"#utility.yul\":971:975   */\n      0x20\n        /* \"#utility.yul\":966:969   */\n      dup4\n        /* \"#utility.yul\":962:976   */\n      add\n        /* \"#utility.yul\":948:976   */\n      swap1\n      pop\n        /* \"#utility.yul\":803:982   */\n      swap3\n      swap2\n      pop\n      pop\n      jump\t// out\n        /* \"#utility.yul\":988:1101   */\n    tag_69:\n        /* \"#utility.yul\":1058:1062   */\n      0x00\n        /* \"#utility.yul\":1090:1094   */\n      0x20\n        /* \"#utility.yul\":1085:1088   */\n      dup3\n        /* \"#utility.yul\":1081:1095   */\n      add\n        /* \"#utility.yul\":1073:1095   */\n      swap1\n      pop\n        /* \"#utility.yul\":988:1101   */\n      swap2\n      swap1\n      pop\n      jump\t// out\n        /* \"#utility.yul\":1137:1869   */\n    tag_70:\n        /* \"#utility.yul\":1256:1259   */\n      0x00\n        /* \"#utility.yul\":1285:1339   */\n      tag_107\n        /* \"#utility.yul\":1333:1338   */\n      dup3\n        /* \"#utility.yul\":1285:1339   */\n      tag_62\n      jump\t// in\n    tag_107:\n        /* \"#utility.yul\":1355:1441   */\n      tag_108\n        /* \"#utility.yul\":1434:1440   */\n      dup2\n        /* \"#utility.yul\":1429:1432   */\n      dup6\n        /* \"#utility.yul\":1355:1441   */\n      tag_63\n      jump\t// in\n    tag_108:\n        /* \"#utility.yul\":1348:1441   */\n      swap4\n      pop\n        /* \"#utility.yul\":1465:1521   */\n      tag_109\n        /* \"#utility.yul\":1515:1520   */\n      dup4\n        /* \"#utility.yul\":1465:1521   */\n      tag_64\n      jump\t// in\n    tag_109:\n        /* \"#utility.yul\":1544:1551   */\n      dup1\n        /* \"#utility.yul\":1575:1576   */\n      0x00\n        /* \"#utility.yul\":1560:1844   */\n    tag_110:\n        /* \"#utility.yul\":1585:1591   */\n      dup4\n        /* \"#utility.yul\":1582:1583   */\n      dup2\n        /* \"#utility.yul\":1579:1592   */\n      lt\n        /* \"#utility.yul\":1560:1844   */\n      iszero\n      tag_112\n      jumpi\n        /* \"#utility.yul\":1661:1667   */\n      dup2\n        /* \"#utility.yul\":1655:1668   */\n      mload\n        /* \"#utility.yul\":1688:1751   */\n      tag_113\n        /* \"#utility.yul\":1747:1750   */\n      dup9\n        /* \"#utility.yul\":1732:1745   */\n      dup3\n        /* \"#utility.yul\":1688:1751   */\n      tag_68\n      jump\t// in\n    tag_113:\n        /* \"#utility.yul\":1681:1751   */\n      swap8\n      pop\n        /* \"#utility.yul\":1774:1834   */\n      tag_114\n        /* \"#utility.yul\":1827:1833   */\n      dup4\n        /* \"#utility.yul\":1774:1834   */\n      tag_69\n      jump\t// in\n    tag_114:\n        /* \"#utility.yul\":1764:1834   */\n      swap3\n      pop\n        /* \"#utility.yul\":1620:1844   */\n      pop\n        /* \"#utility.yul\":1607:1608   */\n      0x01\n        /* \"#utility.yul\":1604:1605   */\n      dup2\n        /* \"#utility.yul\":1600:1609   */\n      add\n        /* \"#utility.yul\":1595:1609   */\n      swap1\n      pop\n        /* \"#utility.yul\":1560:1844   */\n      jump(tag_110)\n    tag_112:\n        /* \"#utility.yul\":1564:1578   */\n      pop\n        /* \"#utility.yul\":1860:1863   */\n      dup6\n        /* \"#utility.yul\":1853:1863   */\n      swap4\n      pop\n        /* \"#utility.yul\":1261:1869   */\n      pop\n      pop\n      pop\n        /* \"#utility.yul\":1137:1869   */\n      swap3\n      swap2\n      pop\n      pop\n      jump\t// out\n        /* \"#utility.yul\":1875:2248   */\n    tag_10:\n        /* \"#utility.yul\":2018:2022   */\n      0x00\n        /* \"#utility.yul\":2056:2058   */\n      0x20\n        /* \"#utility.yul\":2045:2054   */\n      dup3\n        /* \"#utility.yul\":2041:2059   */\n      add\n        /* \"#utility.yul\":2033:2059   */\n      swap1\n      pop\n        /* \"#utility.yul\":2105:2114   */\n      dup2\n        /* \"#utility.yul\":2099:2103   */\n      dup2\n        /* \"#utility.yul\":2095:2115   */\n      sub\n        /* \"#utility.yul\":2091:2092   */\n      0x00\n        /* \"#utility.yul\":2080:2089   */\n      dup4\n        /* \"#utility.yul\":2076:2093   */\n      add\n        /* \"#utility.yul\":2069:2116   */\n      mstore\n        /* \"#utility.yul\":2133:2241   */\n      tag_116\n        /* \"#utility.yul\":2236:2240   */\n      dup2\n        /* \"#utility.yul\":2227:2233   */\n      dup5\n        /* \"#utility.yul\":2133:2241   */\n      tag_70\n      jump\t// in\n    tag_116:\n        /* \"#utility.yul\":2125:2241   */\n      swap1\n      pop\n        /* \"#utility.yul\":1875:2248   */\n      swap3\n      swap2\n      pop\n      pop\n      jump\t// out\n        /* \"#utility.yul\":2254:2329   */\n    tag_71:\n        /* \"#utility.yul\":2287:2293   */\n      0x00\n        /* \"#utility.yul\":2320:2322   */\n      0x40\n        /* \"#utility.yul\":2314:2323   */\n      mload\n        /* \"#utility.yul\":2304:2323   */\n      swap1\n      pop\n        /* \"#utility.yul\":2254:2329   */\n      swap1\n      jump\t// out\n        /* \"#utility.yul\":2335:2452   */\n    tag_72:\n        /* \"#utility.yul\":2444:2445   */\n      0x00\n        /* \"#utility.yul\":2441:2442   */\n      dup1\n        /* \"#utility.yul\":2434:2446   */\n      revert\n        /* \"#utility.yul\":2581:2703   */\n    tag_74:\n        /* \"#utility.yul\":2654:2678   */\n      tag_121\n        /* \"#utility.yul\":2672:2677   */\n      dup2\n        /* \"#utility.yul\":2654:2678   */\n      tag_66\n      jump\t// in\n    tag_121:\n        /* \"#utility.yul\":2647:2652   */\n      dup2\n        /* \"#utility.yul\":2644:2679   */\n      eq\n        /* \"#utility.yul\":2634:2697   */\n      tag_122\n      jumpi\n        /* \"#utility.yul\":2693:2694   */\n      0x00\n        /* \"#utility.yul\":2690:2691   */\n      dup1\n        /* \"#utility.yul\":2683:2695   */\n      revert\n        /* \"#utility.yul\":2634:2697   */\n    tag_122:\n        /* \"#utility.yul\":2581:2703   */\n      pop\n      jump\t// out\n        /* \"#utility.yul\":2709:2848   */\n    tag_75:\n        /* \"#utility.yul\":2755:2760   */\n      0x00\n        /* \"#utility.yul\":2793:2799   */\n      dup2\n        /* \"#utility.yul\":2780:2800   */\n      calldataload\n        /* \"#utility.yul\":2771:2800   */\n      swap1\n      pop\n        /* \"#utility.yul\":2809:2842   */\n      tag_124\n        /* \"#utility.yul\":2836:2841   */\n      dup2\n        /* \"#utility.yul\":2809:2842   */\n      tag_74\n      jump\t// in\n    tag_124:\n        /* \"#utility.yul\":2709:2848   */\n      swap3\n      swap2\n      pop\n      pop\n      jump\t// out\n        /* \"#utility.yul\":2854:3183   */\n    tag_14:\n        /* \"#utility.yul\":2913:2919   */\n      0x00\n        /* \"#utility.yul\":2962:2964   */\n      0x20\n        /* \"#utility.yul\":2950:2959   */\n      dup3\n        /* \"#utility.yul\":2941:2948   */\n      dup5\n        /* \"#utility.yul\":2937:2960   */\n      sub\n        /* \"#utility.yul\":2933:2965   */\n      slt\n        /* \"#utility.yul\":2930:3049   */\n      iszero\n      tag_126\n      jumpi\n        /* \"#utility.yul\":2968:3047   */\n      tag_127\n      tag_72\n      jump\t// in\n    tag_127:\n        /* \"#utility.yul\":2930:3049   */\n    tag_126:\n        /* \"#utility.yul\":3088:3089   */\n      0x00\n        /* \"#utility.yul\":3113:3166   */\n      tag_128\n        /* \"#utility.yul\":3158:3165   */\n      dup5\n        /* \"#utility.yul\":3149:3155   */\n      dup3\n        /* \"#utility.yul\":3138:3147   */\n      dup6\n        /* \"#utility.yul\":3134:3156   */\n      add\n        /* \"#utility.yul\":3113:3166   */\n      tag_75\n      jump\t// in\n    tag_128:\n        /* \"#utility.yul\":3103:3166   */\n      swap2\n      pop\n        /* \"#utility.yul\":3059:3176   */\n      pop\n        /* \"#utility.yul\":2854:3183   */\n      swap3\n      swap2\n      pop\n      pop\n      jump\t// out\n        /* \"#utility.yul\":3189:3266   */\n    tag_76:\n        /* \"#utility.yul\":3226:3233   */\n      0x00\n        /* \"#utility.yul\":3255:3260   */\n      dup2\n        /* \"#utility.yul\":3244:3260   */\n      swap1\n      pop\n        /* \"#utility.yul\":3189:3266   */\n      swap2\n      swap1\n      pop\n      jump\t// out\n        /* \"#utility.yul\":3272:3390   */\n    tag_77:\n        /* \"#utility.yul\":3359:3383   */\n      tag_131\n        /* \"#utility.yul\":3377:3382   */\n      dup2\n        /* \"#utility.yul\":3359:3383   */\n      tag_76\n      jump\t// in\n    tag_131:\n        /* \"#utility.yul\":3354:3357   */\n      dup3\n        /* \"#utility.yul\":3347:3384   */\n      mstore\n        /* \"#utility.yul\":3272:3390   */\n      pop\n      pop\n      jump\t// out\n        /* \"#utility.yul\":3396:3618   */\n    tag_22:\n        /* \"#utility.yul\":3489:3493   */\n      0x00\n        /* \"#utility.yul\":3527:3529   */\n      0x20\n        /* \"#utility.yul\":3516:3525   */\n      dup3\n        /* \"#utility.yul\":3512:3530   */\n      add\n        /* \"#utility.yul\":3504:3530   */\n      swap1\n      pop\n        /* \"#utility.yul\":3540:3611   */\n      tag_133\n        /* \"#utility.yul\":3608:3609   */\n      0x00\n        /* \"#utility.yul\":3597:3606   */\n      dup4\n        /* \"#utility.yul\":3593:3610   */\n      add\n        /* \"#utility.yul\":3584:3590   */\n      dup5\n        /* \"#utility.yul\":3540:3611   */\n      tag_77\n      jump\t// in\n    tag_133:\n        /* \"#utility.yul\":3396:3618   */\n      swap3\n      swap2\n      pop\n      pop\n      jump\t// out\n        /* \"#utility.yul\":3624:3793   */\n    tag_78:\n        /* \"#utility.yul\":3708:3719   */\n      0x00\n        /* \"#utility.yul\":3742:3748   */\n      dup3\n        /* \"#utility.yul\":3737:3740   */\n      dup3\n        /* \"#utility.yul\":3730:3749   */\n      mstore\n        /* \"#utility.yul\":3782:3786   */\n      0x20\n        /* \"#utility.yul\":3777:3780   */\n      dup3\n        /* \"#utility.yul\":3773:3787   */\n      add\n        /* \"#utility.yul\":3758:3787   */\n      swap1\n      pop\n        /* \"#utility.yul\":3624:3793   */\n      swap3\n      swap2\n      pop\n      pop\n      jump\t// out\n        /* \"#utility.yul\":3799:3953   */\n    tag_79:\n        /* \"#utility.yul\":3939:3945   */\n      0x6e6f706500000000000000000000000000000000000000000000000000000000\n        /* \"#utility.yul\":3935:3936   */\n      0x00\n        /* \"#utility.yul\":3927:3933   */\n      dup3\n        /* \"#utility.yul\":3923:3937   */\n      add\n        /* \"#utility.yul\":3916:3946   */\n      mstore\n        /* \"#utility.yul\":3799:3953   */\n      pop\n      jump\t// out\n        /* \"#utility.yul\":3959:4324   */\n    tag_80:\n        /* \"#utility.yul\":4101:4104   */\n      0x00\n        /* \"#utility.yul\":4122:4188   */\n      tag_137\n        /* \"#utility.yul\":4186:4187   */\n      0x04\n        /* \"#utility.yul\":4181:4184   */\n      dup4\n        /* \"#utility.yul\":4122:4188   */\n      tag_78\n      jump\t// in\n    tag_137:\n        /* \"#utility.yul\":4115:4188   */\n      swap2\n      pop\n        /* \"#utility.yul\":4197:4290   */\n      tag_138\n        /* \"#utility.yul\":4286:4289   */\n      dup3\n        /* \"#utility.yul\":4197:4290   */\n      tag_79\n      jump\t// in\n    tag_138:\n        /* \"#utility.yul\":4315:4317   */\n      0x20\n        /* \"#utility.yul\":4310:4313   */\n      dup3\n        /* \"#utility.yul\":4306:4318   */\n      add\n        /* \"#utility.yul\":4299:4318   */\n      swap1\n      pop\n        /* \"#utility.yul\":3959:4324   */\n      swap2\n      swap1\n      pop\n      jump\t// out\n        /* \"#utility.yul\":4330:4749   */\n    tag_32:\n        /* \"#utility.yul\":4496:4500   */\n      0x00\n        /* \"#utility.yul\":4534:4536   */\n      0x20\n        /* \"#utility.yul\":4523:4532   */\n      dup3\n        /* \"#utility.yul\":4519:4537   */\n      add\n        /* \"#utility.yul\":4511:4537   */\n      swap1\n      pop\n        /* \"#utility.yul\":4583:4592   */\n      dup2\n        /* \"#utility.yul\":4577:4581   */\n      dup2\n        /* \"#utility.yul\":4573:4593   */\n      sub\n        /* \"#utility.yul\":4569:4570   */\n      0x00\n        /* \"#utility.yul\":4558:4567   */\n      dup4\n        /* \"#utility.yul\":4554:4571   */\n      add\n        /* \"#utility.yul\":4547:4594   */\n      mstore\n        /* \"#utility.yul\":4611:4742   */\n      tag_140\n        /* \"#utility.yul\":4737:4741   */\n      dup2\n        /* \"#utility.yul\":4611:4742   */\n      tag_80\n      jump\t// in\n    tag_140:\n        /* \"#utility.yul\":4603:4742   */\n      swap1\n      pop\n        /* \"#utility.yul\":4330:4749   */\n      swap2\n      swap1\n      pop\n      jump\t// out\n        /* \"#utility.yul\":4755:4935   */\n    tag_38:\n        /* \"#utility.yul\":4803:4880   */\n      0x4e487b7100000000000000000000000000000000000000000000000000000000\n        /* \"#utility.yul\":4800:4801   */\n      0x00\n        /* \"#utility.yul\":4793:4881   */\n      mstore\n        /* \"#utility.yul\":4900:4904   */\n      0x32\n        /* \"#utility.yul\":4897:4898   */\n      0x04\n        /* \"#utility.yul\":4890:4905   */\n      mstore\n        /* \"#utility.yul\":4924:4928   */\n      0x24\n        /* \"#utility.yul\":4921:4922   */\n      0x00\n        /* \"#utility.yul\":4914:4929   */\n      revert\n        /* \"#utility.yul\":4941:5059   */\n    tag_81:\n        /* \"#utility.yul\":5028:5052   */\n      tag_143\n        /* \"#utility.yul\":5046:5051   */\n      dup2\n        /* \"#utility.yul\":5028:5052   */\n      tag_66\n      jump\t// in\n    tag_143:\n        /* \"#utility.yul\":5023:5026   */\n      dup3\n        /* \"#utility.yul\":5016:5053   */\n      mstore\n        /* \"#utility.yul\":4941:5059   */\n      pop\n      pop\n      jump\t// out\n        /* \"#utility.yul\":5065:5287   */\n    tag_41:\n        /* \"#utility.yul\":5158:5162   */\n      0x00\n        /* \"#utility.yul\":5196:5198   */\n      0x20\n        /* \"#utility.yul\":5185:5194   */\n      dup3\n        /* \"#utility.yul\":5181:5199   */\n      add\n        /* \"#utility.yul\":5173:5199   */\n      swap1\n      pop\n        /* \"#utility.yul\":5209:5280   */\n      tag_145\n        /* \"#utility.yul\":5277:5278   */\n      0x00\n        /* \"#utility.yul\":5266:5275   */\n      dup4\n        /* \"#utility.yul\":5262:5279   */\n      add\n        /* \"#utility.yul\":5253:5259   */\n      dup5\n        /* \"#utility.yul\":5209:5280   */\n      tag_81\n      jump\t// in\n    tag_145:\n        /* \"#utility.yul\":5065:5287   */\n      swap3\n      swap2\n      pop\n      pop\n      jump\t// out\n        /* \"#utility.yul\":5293:5436   */\n    tag_82:\n        /* \"#utility.yul\":5350:5355   */\n      0x00\n        /* \"#utility.yul\":5381:5387   */\n      dup2\n        /* \"#utility.yul\":5375:5388   */\n      mload\n        /* \"#utility.yul\":5366:5388   */\n      swap1\n      pop\n        /* \"#utility.yul\":5397:5430   */\n      tag_147\n        /* \"#utility.yul\":5424:5429   */\n      dup2\n        /* \"#utility.yul\":5397:5430   */\n      tag_74\n      jump\t// in\n    tag_147:\n        /* \"#utility.yul\":5293:5436   */\n      swap3\n      swap2\n      pop\n      pop\n      jump\t// out\n        /* \"#utility.yul\":5442:5564   */\n    tag_83:\n        /* \"#utility.yul\":5515:5539   */\n      tag_149\n        /* \"#utility.yul\":5533:5538   */\n      dup2\n        /* \"#utility.yul\":5515:5539   */\n      tag_76\n      jump\t// in\n    tag_149:\n        /* \"#utility.yul\":5508:5513   */\n      dup2\n        /* \"#utility.yul\":5505:5540   */\n      eq\n        /* \"#utility.yul\":5495:5558   */\n      tag_150\n      jumpi\n        /* \"#utility.yul\":5554:5555   */\n      0x00\n        /* \"#utility.yul\":5551:5552   */\n      dup1\n        /* \"#utility.yul\":5544:5556   */\n      revert\n        /* \"#utility.yul\":5495:5558   */\n    tag_150:\n        /* \"#utility.yul\":5442:5564   */\n      pop\n      jump\t// out\n        /* \"#utility.yul\":5570:5713   */\n    tag_84:\n        /* \"#utility.yul\":5627:5632   */\n      0x00\n        /* \"#utility.yul\":5658:5664   */\n      dup2\n        /* \"#utility.yul\":5652:5665   */\n      mload\n        /* \"#utility.yul\":5643:5665   */\n      swap1\n      pop\n        /* \"#utility.yul\":5674:5707   */\n      tag_152\n        /* \"#utility.yul\":5701:5706   */\n      dup2\n        /* \"#utility.yul\":5674:5707   */\n      tag_83\n      jump\t// in\n    tag_152:\n        /* \"#utility.yul\":5570:5713   */\n      swap3\n      swap2\n      pop\n      pop\n      jump\t// out\n        /* \"#utility.yul\":5719:6226   */\n    tag_45:\n        /* \"#utility.yul\":5798:5804   */\n      0x00\n        /* \"#utility.yul\":5806:5812   */\n      dup1\n        /* \"#utility.yul\":5855:5857   */\n      0x40\n        /* \"#utility.yul\":5843:5852   */\n      dup4\n        /* \"#utility.yul\":5834:5841   */\n      dup6\n        /* \"#utility.yul\":5830:5853   */\n      sub\n        /* \"#utility.yul\":5826:5858   */\n      slt\n        /* \"#utility.yul\":5823:5942   */\n      iszero\n      tag_154\n      jumpi\n        /* \"#utility.yul\":5861:5940   */\n      tag_155\n      tag_72\n      jump\t// in\n    tag_155:\n        /* \"#utility.yul\":5823:5942   */\n    tag_154:\n        /* \"#utility.yul\":5981:5982   */\n      0x00\n        /* \"#utility.yul\":6006:6070   */\n      tag_156\n        /* \"#utility.yul\":6062:6069   */\n      dup6\n        /* \"#utility.yul\":6053:6059   */\n      dup3\n        /* \"#utility.yul\":6042:6051   */\n      dup7\n        /* \"#utility.yul\":6038:6060   */\n      add\n        /* \"#utility.yul\":6006:6070   */\n      tag_82\n      jump\t// in\n    tag_156:\n        /* \"#utility.yul\":5996:6070   */\n      swap3\n      pop\n        /* \"#utility.yul\":5952:6080   */\n      pop\n        /* \"#utility.yul\":6119:6121   */\n      0x20\n        /* \"#utility.yul\":6145:6209   */\n      tag_157\n        /* \"#utility.yul\":6201:6208   */\n      dup6\n        /* \"#utility.yul\":6192:6198   */\n      dup3\n        /* \"#utility.yul\":6181:6190   */\n      dup7\n        /* \"#utility.yul\":6177:6199   */\n      add\n        /* \"#utility.yul\":6145:6209   */\n      tag_84\n      jump\t// in\n    tag_157:\n        /* \"#utility.yul\":6135:6209   */\n      swap2\n      pop\n        /* \"#utility.yul\":6090:6219   */\n      pop\n        /* \"#utility.yul\":5719:6226   */\n      swap3\n      pop\n      swap3\n      swap1\n      pop\n      jump\t// out\n        /* \"#utility.yul\":6232:6349   */\n    tag_85:\n        /* \"#utility.yul\":6341:6342   */\n      0x00\n        /* \"#utility.yul\":6338:6339   */\n      dup1\n        /* \"#utility.yul\":6331:6343   */\n      revert\n        /* \"#utility.yul\":6355:6457   */\n    tag_86:\n        /* \"#utility.yul\":6396:6402   */\n      0x00\n        /* \"#utility.yul\":6447:6449   */\n      0x1f\n        /* \"#utility.yul\":6443:6450   */\n      not\n        /* \"#utility.yul\":6438:6440   */\n      0x1f\n        /* \"#utility.yul\":6431:6436   */\n      dup4\n        /* \"#utility.yul\":6427:6441   */\n      add\n        /* \"#utility.yul\":6423:6451   */\n      and\n        /* \"#utility.yul\":6413:6451   */\n      swap1\n      pop\n        /* \"#utility.yul\":6355:6457   */\n      swap2\n      swap1\n      pop\n      jump\t// out\n        /* \"#utility.yul\":6463:6643   */\n    tag_87:\n        /* \"#utility.yul\":6511:6588   */\n      0x4e487b7100000000000000000000000000000000000000000000000000000000\n        /* \"#utility.yul\":6508:6509   */\n      0x00\n        /* \"#utility.yul\":6501:6589   */\n      mstore\n        /* \"#utility.yul\":6608:6612   */\n      0x41\n        /* \"#utility.yul\":6605:6606   */\n      0x04\n        /* \"#utility.yul\":6598:6613   */\n      mstore\n        /* \"#utility.yul\":6632:6636   */\n      0x24\n        /* \"#utility.yul\":6629:6630   */\n      0x00\n        /* \"#utility.yul\":6622:6637   */\n      revert\n        /* \"#utility.yul\":6649:6930   */\n    tag_88:\n        /* \"#utility.yul\":6732:6759   */\n      tag_162\n        /* \"#utility.yul\":6754:6758   */\n      dup3\n        /* \"#utility.yul\":6732:6759   */\n      tag_86\n      jump\t// in\n    tag_162:\n        /* \"#utility.yul\":6724:6730   */\n      dup2\n        /* \"#utility.yul\":6720:6760   */\n      add\n        /* \"#utility.yul\":6862:6868   */\n      dup2\n        /* \"#utility.yul\":6850:6860   */\n      dup2\n        /* \"#utility.yul\":6847:6869   */\n      lt\n        /* \"#utility.yul\":6826:6844   */\n      0xffffffffffffffff\n        /* \"#utility.yul\":6814:6824   */\n      dup3\n        /* \"#utility.yul\":6811:6845   */\n      gt\n        /* \"#utility.yul\":6808:6870   */\n      or\n        /* \"#utility.yul\":6805:6893   */\n      iszero\n      tag_163\n      jumpi\n        /* \"#utility.yul\":6873:6891   */\n      tag_164\n      tag_87\n      jump\t// in\n    tag_164:\n        /* \"#utility.yul\":6805:6893   */\n    tag_163:\n        /* \"#utility.yul\":6913:6923   */\n      dup1\n        /* \"#utility.yul\":6909:6911   */\n      0x40\n        /* \"#utility.yul\":6902:6924   */\n      mstore\n        /* \"#utility.yul\":6692:6930   */\n      pop\n        /* \"#utility.yul\":6649:6930   */\n      pop\n      pop\n      jump\t// out\n        /* \"#utility.yul\":6936:7065   */\n    tag_89:\n        /* \"#utility.yul\":6970:6976   */\n      0x00\n        /* \"#utility.yul\":6997:7017   */\n      tag_166\n      tag_71\n      jump\t// in\n    tag_166:\n        /* \"#utility.yul\":6987:7017   */\n      swap1\n      pop\n        /* \"#utility.yul\":7026:7059   */\n      tag_167\n        /* \"#utility.yul\":7054:7058   */\n      dup3\n        /* \"#utility.yul\":7046:7052   */\n      dup3\n        /* \"#utility.yul\":7026:7059   */\n      tag_88\n      jump\t// in\n    tag_167:\n        /* \"#utility.yul\":6936:7065   */\n      swap2\n      swap1\n      pop\n      jump\t// out\n        /* \"#utility.yul\":7218:7825   */\n    tag_91:\n        /* \"#utility.yul\":7299:7304   */\n      0x00\n        /* \"#utility.yul\":7343:7347   */\n      0x40\n        /* \"#utility.yul\":7331:7340   */\n      dup3\n        /* \"#utility.yul\":7326:7329   */\n      dup5\n        /* \"#utility.yul\":7322:7341   */\n      sub\n        /* \"#utility.yul\":7318:7348   */\n      slt\n        /* \"#utility.yul\":7315:7432   */\n      iszero\n      tag_170\n      jumpi\n        /* \"#utility.yul\":7351:7430   */\n      tag_171\n      tag_85\n      jump\t// in\n    tag_171:\n        /* \"#utility.yul\":7315:7432   */\n    tag_170:\n        /* \"#utility.yul\":7450:7471   */\n      tag_172\n        /* \"#utility.yul\":7466:7470   */\n      0x40\n        /* \"#utility.yul\":7450:7471   */\n      tag_89\n      jump\t// in\n    tag_172:\n        /* \"#utility.yul\":7441:7471   */\n      swap1\n      pop\n        /* \"#utility.yul\":7531:7532   */\n      0x00\n        /* \"#utility.yul\":7571:7631   */\n      tag_173\n        /* \"#utility.yul\":7627:7630   */\n      dup5\n        /* \"#utility.yul\":7618:7624   */\n      dup3\n        /* \"#utility.yul\":7607:7616   */\n      dup6\n        /* \"#utility.yul\":7603:7625   */\n      add\n        /* \"#utility.yul\":7571:7631   */\n      tag_82\n      jump\t// in\n    tag_173:\n        /* \"#utility.yul\":7564:7568   */\n      0x00\n        /* \"#utility.yul\":7557:7562   */\n      dup4\n        /* \"#utility.yul\":7553:7569   */\n      add\n        /* \"#utility.yul\":7546:7632   */\n      mstore\n        /* \"#utility.yul\":7481:7643   */\n      pop\n        /* \"#utility.yul\":7705:7707   */\n      0x20\n        /* \"#utility.yul\":7746:7806   */\n      tag_174\n        /* \"#utility.yul\":7802:7805   */\n      dup5\n        /* \"#utility.yul\":7793:7799   */\n      dup3\n        /* \"#utility.yul\":7782:7791   */\n      dup6\n        /* \"#utility.yul\":7778:7800   */\n      add\n        /* \"#utility.yul\":7746:7806   */\n      tag_84\n      jump\t// in\n    tag_174:\n        /* \"#utility.yul\":7739:7743   */\n      0x20\n        /* \"#utility.yul\":7732:7737   */\n      dup4\n        /* \"#utility.yul\":7728:7744   */\n      add\n        /* \"#utility.yul\":7721:7807   */\n      mstore\n        /* \"#utility.yul\":7653:7818   */\n      pop\n        /* \"#utility.yul\":7218:7825   */\n      swap3\n      swap2\n      pop\n      pop\n      jump\t// out\n        /* \"#utility.yul\":7831:8224   */\n    tag_57:\n        /* \"#utility.yul\":7922:7928   */\n      0x00\n        /* \"#utility.yul\":7971:7973   */\n      0x40\n        /* \"#utility.yul\":7959:7968   */\n      dup3\n        /* \"#utility.yul\":7950:7957   */\n      dup5\n        /* \"#utility.yul\":7946:7969   */\n      sub\n        /* \"#utility.yul\":7942:7974   */\n      slt\n        /* \"#utility.yul\":7939:8058   */\n      iszero\n      tag_176\n      jumpi\n        /* \"#utility.yul\":7977:8056   */\n      tag_177\n      tag_72\n      jump\t// in\n    tag_177:\n        /* \"#utility.yul\":7939:8058   */\n    tag_176:\n        /* \"#utility.yul\":8097:8098   */\n      0x00\n        /* \"#utility.yul\":8122:8207   */\n      tag_178\n        /* \"#utility.yul\":8199:8206   */\n      dup5\n        /* \"#utility.yul\":8190:8196   */\n      dup3\n        /* \"#utility.yul\":8179:8188   */\n      dup6\n        /* \"#utility.yul\":8175:8197   */\n      add\n        /* \"#utility.yul\":8122:8207   */\n      tag_91\n      jump\t// in\n    tag_178:\n        /* \"#utility.yul\":8112:8207   */\n      swap2\n      pop\n        /* \"#utility.yul\":8068:8217   */\n      pop\n        /* \"#utility.yul\":7831:8224   */\n      swap3\n      swap2\n      pop\n      pop\n      jump\t// out\n        /* \"#utility.yul\":8230:8410   */\n    tag_92:\n        /* \"#utility.yul\":8278:8355   */\n      0x4e487b7100000000000000000000000000000000000000000000000000000000\n        /* \"#utility.yul\":8275:8276   */\n      0x00\n        /* \"#utility.yul\":8268:8356   */\n      mstore\n        /* \"#utility.yul\":8375:8379   */\n      0x11\n        /* \"#utility.yul\":8372:8373   */\n      0x04\n        /* \"#utility.yul\":8365:8380   */\n      mstore\n        /* \"#utility.yul\":8399:8403   */\n      0x24\n        /* \"#utility.yul\":8396:8397   */\n      0x00\n        /* \"#utility.yul\":8389:8404   */\n      revert\n        /* \"#utility.yul\":8416:8607   */\n    tag_59:\n        /* \"#utility.yul\":8456:8459   */\n      0x00\n        /* \"#utility.yul\":8475:8495   */\n      tag_181\n        /* \"#utility.yul\":8493:8494   */\n      dup3\n        /* \"#utility.yul\":8475:8495   */\n      tag_76\n      jump\t// in\n    tag_181:\n        /* \"#utility.yul\":8470:8495   */\n      swap2\n      pop\n        /* \"#utility.yul\":8509:8529   */\n      tag_182\n        /* \"#utility.yul\":8527:8528   */\n      dup4\n        /* \"#utility.yul\":8509:8529   */\n      tag_76\n      jump\t// in\n    tag_182:\n        /* \"#utility.yul\":8504:8529   */\n      swap3\n      pop\n        /* \"#utility.yul\":8552:8553   */\n      dup3\n        /* \"#utility.yul\":8549:8550   */\n      dup3\n        /* \"#utility.yul\":8545:8554   */\n      add\n        /* \"#utility.yul\":8538:8554   */\n      swap1\n      pop\n        /* \"#utility.yul\":8573:8576   */\n      dup1\n        /* \"#utility.yul\":8570:8571   */\n      dup3\n        /* \"#utility.yul\":8567:8577   */\n      gt\n        /* \"#utility.yul\":8564:8600   */\n      iszero\n      tag_183\n      jumpi\n        /* \"#utility.yul\":8580:8598   */\n      tag_184\n      tag_92\n      jump\t// in\n    tag_184:\n        /* \"#utility.yul\":8564:8600   */\n    tag_183:\n        /* \"#utility.yul\":8416:8607   */\n      swap3\n      swap2\n      pop\n      pop\n      jump\t// out\n        /* \"#utility.yul\":8613:8793   */\n    tag_93:\n        /* \"#utility.yul\":8661:8738   */\n      0x4e487b7100000000000000000000000000000000000000000000000000000000\n        /* \"#utility.yul\":8658:8659   */\n      0x00\n        /* \"#utility.yul\":8651:8739   */\n      mstore\n        /* \"#utility.yul\":8758:8762   */\n      0x12\n        /* \"#utility.yul\":8755:8756   */\n      0x04\n        /* \"#utility.yul\":8748:8763   */\n      mstore\n        /* \"#utility.yul\":8782:8786   */\n      0x24\n        /* \"#utility.yul\":8779:8780   */\n      0x00\n        /* \"#utility.yul\":8772:8787   */\n      revert\n        /* \"#utility.yul\":8799:8984   */\n    tag_61:\n        /* \"#utility.yul\":8839:8840   */\n      0x00\n        /* \"#utility.yul\":8856:8876   */\n      tag_187\n        /* \"#utility.yul\":8874:8875   */\n      dup3\n        /* \"#utility.yul\":8856:8876   */\n      tag_76\n      jump\t// in\n    tag_187:\n        /* \"#utility.yul\":8851:8876   */\n      swap2\n      pop\n        /* \"#utility.yul\":8890:8910   */\n      tag_188\n        /* \"#utility.yul\":8908:8909   */\n      dup4\n        /* \"#utility.yul\":8890:8910   */\n      tag_76\n      jump\t// in\n    tag_188:\n        /* \"#utility.yul\":8885:8910   */\n      swap3\n      pop\n        /* \"#utility.yul\":8929:8930   */\n      dup3\n        /* \"#utility.yul\":8919:8954   */\n      tag_189\n      jumpi\n        /* \"#utility.yul\":8934:8952   */\n      tag_190\n      tag_93\n      jump\t// in\n    tag_190:\n        /* \"#utility.yul\":8919:8954   */\n    tag_189:\n        /* \"#utility.yul\":8976:8977   */\n      dup3\n        /* \"#utility.yul\":8973:8974   */\n      dup3\n        /* \"#utility.yul\":8969:8978   */\n      div\n        /* \"#utility.yul\":8964:8978   */\n      swap1\n      pop\n        /* \"#utility.yul\":8799:8984   */\n      swap3\n      swap2\n      pop\n      pop\n      jump\t// out\n\n    auxdata: 0xa26469706673582212206f77a77ec2c468e5aa1cd696219c2ffff29be1698af4b223bba6ae281f29f2df64736f6c634300081a0033\n}\n",
				"bytecode": {
					"linkReferences": {},
					"object": "6080604052348015600e575f80fd5b5061089b8061001c5f395ff3fe60806040526004361061003e575f3560e01c8063942b765a14610042578063daa93f601461006c578063e10e384a14610094578063e4629f341461009e575b5f80fd5b34801561004d575f80fd5b506100566100c8565b60405161006391906104a8565b60405180910390f35b348015610077575f80fd5b50610092600480360381019061008d91906104ff565b610152565b005b61009c6101b4565b005b3480156100a9575f80fd5b506100b26102ce565b6040516100bf9190610542565b60405180910390f35b60605f80548060200260200160405190810160405280929190818152602001828054801561014857602002820191905f5260205f20905b815f9054906101000a900473ffffffffffffffffffffffffffffffffffffffff1673ffffffffffffffffffffffffffffffffffffffff16815260200190600101908083116100ff575b5050505050905090565b5f81908060018154018082558091505060019003905f5260205f20015f9091909190916101000a81548173ffffffffffffffffffffffffffffffffffffffff021916908373ffffffffffffffffffffffffffffffffffffffff16021790555050565b6101bc6102ce565b34146101fd576040517f08c379a00000000000000000000000000000000000000000000000000000000081526004016101f4906105b5565b60405180910390fd5b5f5b5f805490508110156102cb575f818154811061021e5761021d6105d3565b5b905f5260205f20015f9054906101000a900473ffffffffffffffffffffffffffffffffffffffff1673ffffffffffffffffffffffffffffffffffffffff1663a87430ba336040518263ffffffff1660e01b815260040161027e919061060f565b6040805180830381865afa158015610298573d5f803e3d5ffd5b505050506040513d601f19601f820116820180604052508101906102bc9190610666565b505080806001019150506101ff565b50565b5f805f5b5f805490508110156103ad575f81815481106102f1576102f06105d3565b5b905f5260205f20015f9054906101000a900473ffffffffffffffffffffffffffffffffffffffff1673ffffffffffffffffffffffffffffffffffffffff16636f77926b336040518263ffffffff1660e01b8152600401610351919061060f565b6040805180830381865afa15801561036b573d5f803e3d5ffd5b505050506040513d601f19601f8201168201806040525081019061038f919061077d565b602001518261039e91906107d5565b915080806001019150506102d2565b506064816103bb9190610835565b91505090565b5f81519050919050565b5f82825260208201905092915050565b5f819050602082019050919050565b5f73ffffffffffffffffffffffffffffffffffffffff82169050919050565b5f610413826103ea565b9050919050565b61042381610409565b82525050565b5f610434838361041a565b60208301905092915050565b5f602082019050919050565b5f610456826103c1565b61046081856103cb565b935061046b836103db565b805f5b8381101561049b5781516104828882610429565b975061048d83610440565b92505060018101905061046e565b5085935050505092915050565b5f6020820190508181035f8301526104c0818461044c565b905092915050565b5f604051905090565b5f80fd5b6104de81610409565b81146104e8575f80fd5b50565b5f813590506104f9816104d5565b92915050565b5f60208284031215610514576105136104d1565b5b5f610521848285016104eb565b91505092915050565b5f819050919050565b61053c8161052a565b82525050565b5f6020820190506105555f830184610533565b92915050565b5f82825260208201905092915050565b7f6e6f7065000000000000000000000000000000000000000000000000000000005f82015250565b5f61059f60048361055b565b91506105aa8261056b565b602082019050919050565b5f6020820190508181035f8301526105cc81610593565b9050919050565b7f4e487b71000000000000000000000000000000000000000000000000000000005f52603260045260245ffd5b61060981610409565b82525050565b5f6020820190506106225f830184610600565b92915050565b5f81519050610636816104d5565b92915050565b6106458161052a565b811461064f575f80fd5b50565b5f815190506106608161063c565b92915050565b5f806040838503121561067c5761067b6104d1565b5b5f61068985828601610628565b925050602061069a85828601610652565b9150509250929050565b5f80fd5b5f601f19601f8301169050919050565b7f4e487b71000000000000000000000000000000000000000000000000000000005f52604160045260245ffd5b6106ee826106a8565b810181811067ffffffffffffffff8211171561070d5761070c6106b8565b5b80604052505050565b5f61071f6104c8565b905061072b82826106e5565b919050565b5f60408284031215610745576107446106a4565b5b61074f6040610716565b90505f61075e84828501610628565b5f83015250602061077184828501610652565b60208301525092915050565b5f60408284031215610792576107916104d1565b5b5f61079f84828501610730565b91505092915050565b7f4e487b71000000000000000000000000000000000000000000000000000000005f52601160045260245ffd5b5f6107df8261052a565b91506107ea8361052a565b9250828201905080821115610802576108016107a8565b5b92915050565b7f4e487b71000000000000000000000000000000000000000000000000000000005f52601260045260245ffd5b5f61083f8261052a565b915061084a8361052a565b92508261085a57610859610808565b5b82820490509291505056fea26469706673582212206f77a77ec2c468e5aa1cd696219c2ffff29be1698af4b223bba6ae281f29f2df64736f6c634300081a0033",
					"opcodes": "PUSH1 0x80 PUSH1 0x40 MSTORE CALLVALUE DUP1 ISZERO PUSH1 0xE JUMPI PUSH0 DUP1 REVERT JUMPDEST POP PUSH2 0x89B DUP1 PUSH2 0x1C PUSH0 CODECOPY PUSH0 RETURN INVALID PUSH1 0x80 PUSH1 0x40 MSTORE PUSH1 0x4 CALLDATASIZE LT PUSH2 0x3E JUMPI PUSH0 CALLDATALOAD PUSH1 0xE0 SHR DUP1 PUSH4 0x942B765A EQ PUSH2 0x42 JUMPI DUP1 PUSH4 0xDAA93F60 EQ PUSH2 0x6C JUMPI DUP1 PUSH4 0xE10E384A EQ PUSH2 0x94 JUMPI DUP1 PUSH4 0xE4629F34 EQ PUSH2 0x9E JUMPI JUMPDEST PUSH0 DUP1 REVERT JUMPDEST CALLVALUE DUP1 ISZERO PUSH2 0x4D JUMPI PUSH0 DUP1 REVERT JUMPDEST POP PUSH2 0x56 PUSH2 0xC8 JUMP JUMPDEST PUSH1 0x40 MLOAD PUSH2 0x63 SWAP2 SWAP1 PUSH2 0x4A8 JUMP JUMPDEST PUSH1 0x40 MLOAD DUP1 SWAP2 SUB SWAP1 RETURN JUMPDEST CALLVALUE DUP1 ISZERO PUSH2 0x77 JUMPI PUSH0 DUP1 REVERT JUMPDEST POP PUSH2 0x92 PUSH1 0x4 DUP1 CALLDATASIZE SUB DUP2 ADD SWAP1 PUSH2 0x8D SWAP2 SWAP1 PUSH2 0x4FF JUMP JUMPDEST PUSH2 0x152 JUMP JUMPDEST STOP JUMPDEST PUSH2 0x9C PUSH2 0x1B4 JUMP JUMPDEST STOP JUMPDEST CALLVALUE DUP1 ISZERO PUSH2 0xA9 JUMPI PUSH0 DUP1 REVERT JUMPDEST POP PUSH2 0xB2 PUSH2 0x2CE JUMP JUMPDEST PUSH1 0x40 MLOAD PUSH2 0xBF SWAP2 SWAP1 PUSH2 0x542 JUMP JUMPDEST PUSH1 0x40 MLOAD DUP1 SWAP2 SUB SWAP1 RETURN JUMPDEST PUSH1 0x60 PUSH0 DUP1 SLOAD DUP1 PUSH1 0x20 MUL PUSH1 0x20 ADD PUSH1 0x40 MLOAD SWAP1 DUP2 ADD PUSH1 0x40 MSTORE DUP1 SWAP3 SWAP2 SWAP1 DUP2 DUP2 MSTORE PUSH1 0x20 ADD DUP3 DUP1 SLOAD DUP1 ISZERO PUSH2 0x148 JUMPI PUSH1 0x20 MUL DUP3 ADD SWAP2 SWAP1 PUSH0 MSTORE PUSH1 0x20 PUSH0 KECCAK256 SWAP1 JUMPDEST DUP2 PUSH0 SWAP1 SLOAD SWAP1 PUSH2 0x100 EXP SWAP1 DIV PUSH20 0xFFFFFFFFFFFFFFFFFFFFFFFFFFFFFFFFFFFFFFFF AND PUSH20 0xFFFFFFFFFFFFFFFFFFFFFFFFFFFFFFFFFFFFFFFF AND DUP2 MSTORE PUSH1 0x20 ADD SWAP1 PUSH1 0x1 ADD SWAP1 DUP1 DUP4 GT PUSH2 0xFF JUMPI JUMPDEST POP POP POP POP POP SWAP1 POP SWAP1 JUMP JUMPDEST PUSH0 DUP2 SWAP1 DUP1 PUSH1 0x1 DUP2 SLOAD ADD DUP1 DUP3 SSTORE DUP1 SWAP2 POP POP PUSH1 0x1 SWAP1 SUB SWAP1 PUSH0 MSTORE PUSH1 0x20 PUSH0 KECCAK256 ADD PUSH0 SWAP1 SWAP2 SWAP1 SWAP2 SWAP1 SWAP2 PUSH2 0x100 EXP DUP2 SLOAD DUP2 PUSH20 0xFFFFFFFFFFFFFFFFFFFFFFFFFFFFFFFFFFFFFFFF MUL NOT AND SWAP1 DUP4 PUSH20 0xFFFFFFFFFFFFFFFFFFFFFFFFFFFFFFFFFFFFFFFF AND MUL OR SWAP1 SSTORE POP POP JUMP JUMPDEST PUSH2 0x1BC PUSH2 0x2CE JUMP JUMPDEST CALLVALUE EQ PUSH2 0x1FD JUMPI PUSH1 0x40 MLOAD PUSH32 0x8C379A000000000000000000000000000000000000000000000000000000000 DUP2 MSTORE PUSH1 0x4 ADD PUSH2 0x1F4 SWAP1 PUSH2 0x5B5 JUMP JUMPDEST PUSH1 0x40 MLOAD DUP1 SWAP2 SUB SWAP1 REVERT JUMPDEST PUSH0 JUMPDEST PUSH0 DUP1 SLOAD SWAP1 POP DUP2 LT ISZERO PUSH2 0x2CB JUMPI PUSH0 DUP2 DUP2 SLOAD DUP2 LT PUSH2 0x21E JUMPI PUSH2 0x21D PUSH2 0x5D3 JUMP JUMPDEST JUMPDEST SWAP1 PUSH0 MSTORE PUSH1 0x20 PUSH0 KECCAK256 ADD PUSH0 SWAP1 SLOAD SWAP1 PUSH2 0x100 EXP SWAP1 DIV PUSH20 0xFFFFFFFFFFFFFFFFFFFFFFFFFFFFFFFFFFFFFFFF AND PUSH20 0xFFFFFFFFFFFFFFFFFFFFFFFFFFFFFFFFFFFFFFFF AND PUSH4 0xA87430BA CALLER PUSH1 0x40 MLOAD DUP3 PUSH4 0xFFFFFFFF AND PUSH1 0xE0 SHL DUP2 MSTORE PUSH1 0x4 ADD PUSH2 0x27E SWAP2 SWAP1 PUSH2 0x60F JUMP JUMPDEST PUSH1 0x40 DUP1 MLOAD DUP1 DUP4 SUB DUP2 DUP7 GAS STATICCALL ISZERO DUP1 ISZERO PUSH2 0x298 JUMPI RETURNDATASIZE PUSH0 DUP1 RETURNDATACOPY RETURNDATASIZE PUSH0 REVERT JUMPDEST POP POP POP POP PUSH1 0x40 MLOAD RETURNDATASIZE PUSH1 0x1F NOT PUSH1 0x1F DUP3 ADD AND DUP3 ADD DUP1 PUSH1 0x40 MSTORE POP DUP2 ADD SWAP1 PUSH2 0x2BC SWAP2 SWAP1 PUSH2 0x666 JUMP JUMPDEST POP POP DUP1 DUP1 PUSH1 0x1 ADD SWAP2 POP POP PUSH2 0x1FF JUMP JUMPDEST POP JUMP JUMPDEST PUSH0 DUP1 PUSH0 JUMPDEST PUSH0 DUP1 SLOAD SWAP1 POP DUP2 LT ISZERO PUSH2 0x3AD JUMPI PUSH0 DUP2 DUP2 SLOAD DUP2 LT PUSH2 0x2F1 JUMPI PUSH2 0x2F0 PUSH2 0x5D3 JUMP JUMPDEST JUMPDEST SWAP1 PUSH0 MSTORE PUSH1 0x20 PUSH0 KECCAK256 ADD PUSH0 SWAP1 SLOAD SWAP1 PUSH2 0x100 EXP SWAP1 DIV PUSH20 0xFFFFFFFFFFFFFFFFFFFFFFFFFFFFFFFFFFFFFFFF AND PUSH20 0xFFFFFFFFFFFFFFFFFFFFFFFFFFFFFFFFFFFFFFFF AND PUSH4 0x6F77926B CALLER PUSH1 0x40 MLOAD DUP3 PUSH4 0xFFFFFFFF AND PUSH1 0xE0 SHL DUP2 MSTORE PUSH1 0x4 ADD PUSH2 0x351 SWAP2 SWAP1 PUSH2 0x60F JUMP JUMPDEST PUSH1 0x40 DUP1 MLOAD DUP1 DUP4 SUB DUP2 DUP7 GAS STATICCALL ISZERO DUP1 ISZERO PUSH2 0x36B JUMPI RETURNDATASIZE PUSH0 DUP1 RETURNDATACOPY RETURNDATASIZE PUSH0 REVERT JUMPDEST POP POP POP POP PUSH1 0x40 MLOAD RETURNDATASIZE PUSH1 0x1F NOT PUSH1 0x1F DUP3 ADD AND DUP3 ADD DUP1 PUSH1 0x40 MSTORE POP DUP2 ADD SWAP1 PUSH2 0x38F SWAP2 SWAP1 PUSH2 0x77D JUMP JUMPDEST PUSH1 0x20 ADD MLOAD DUP3 PUSH2 0x39E SWAP2 SWAP1 PUSH2 0x7D5 JUMP JUMPDEST SWAP2 POP DUP1 DUP1 PUSH1 0x1 ADD SWAP2 POP POP PUSH2 0x2D2 JUMP JUMPDEST POP PUSH1 0x64 DUP2 PUSH2 0x3BB SWAP2 SWAP1 PUSH2 0x835 JUMP JUMPDEST SWAP2 POP POP SWAP1 JUMP JUMPDEST PUSH0 DUP2 MLOAD SWAP1 POP SWAP2 SWAP1 POP JUMP JUMPDEST PUSH0 DUP3 DUP3 MSTORE PUSH1 0x20 DUP3 ADD SWAP1 POP SWAP3 SWAP2 POP POP JUMP JUMPDEST PUSH0 DUP2 SWAP1 POP PUSH1 0x20 DUP3 ADD SWAP1 POP SWAP2 SWAP1 POP JUMP JUMPDEST PUSH0 PUSH20 0xFFFFFFFFFFFFFFFFFFFFFFFFFFFFFFFFFFFFFFFF DUP3 AND SWAP1 POP SWAP2 SWAP1 POP JUMP JUMPDEST PUSH0 PUSH2 0x413 DUP3 PUSH2 0x3EA JUMP JUMPDEST SWAP1 POP SWAP2 SWAP1 POP JUMP JUMPDEST PUSH2 0x423 DUP2 PUSH2 0x409 JUMP JUMPDEST DUP3 MSTORE POP POP JUMP JUMPDEST PUSH0 PUSH2 0x434 DUP4 DUP4 PUSH2 0x41A JUMP JUMPDEST PUSH1 0x20 DUP4 ADD SWAP1 POP SWAP3 SWAP2 POP POP JUMP JUMPDEST PUSH0 PUSH1 0x20 DUP3 ADD SWAP1 POP SWAP2 SWAP1 POP JUMP JUMPDEST PUSH0 PUSH2 0x456 DUP3 PUSH2 0x3C1 JUMP JUMPDEST PUSH2 0x460 DUP2 DUP6 PUSH2 0x3CB JUMP JUMPDEST SWAP4 POP PUSH2 0x46B DUP4 PUSH2 0x3DB JUMP JUMPDEST DUP1 PUSH0 JUMPDEST DUP4 DUP2 LT ISZERO PUSH2 0x49B JUMPI DUP2 MLOAD PUSH2 0x482 DUP9 DUP3 PUSH2 0x429 JUMP JUMPDEST SWAP8 POP PUSH2 0x48D DUP4 PUSH2 0x440 JUMP JUMPDEST SWAP3 POP POP PUSH1 0x1 DUP2 ADD SWAP1 POP PUSH2 0x46E JUMP JUMPDEST POP DUP6 SWAP4 POP POP POP POP SWAP3 SWAP2 POP POP JUMP JUMPDEST PUSH0 PUSH1 0x20 DUP3 ADD SWAP1 POP DUP2 DUP2 SUB PUSH0 DUP4 ADD MSTORE PUSH2 0x4C0 DUP2 DUP5 PUSH2 0x44C JUMP JUMPDEST SWAP1 POP SWAP3 SWAP2 POP POP JUMP JUMPDEST PUSH0 PUSH1 0x40 MLOAD SWAP1 POP SWAP1 JUMP JUMPDEST PUSH0 DUP1 REVERT JUMPDEST PUSH2 0x4DE DUP2 PUSH2 0x409 JUMP JUMPDEST DUP2 EQ PUSH2 0x4E8 JUMPI PUSH0 DUP1 REVERT JUMPDEST POP JUMP JUMPDEST PUSH0 DUP2 CALLDATALOAD SWAP1 POP PUSH2 0x4F9 DUP2 PUSH2 0x4D5 JUMP JUMPDEST SWAP3 SWAP2 POP POP JUMP JUMPDEST PUSH0 PUSH1 0x20 DUP3 DUP5 SUB SLT ISZERO PUSH2 0x514 JUMPI PUSH2 0x513 PUSH2 0x4D1 JUMP JUMPDEST JUMPDEST PUSH0 PUSH2 0x521 DUP5 DUP3 DUP6 ADD PUSH2 0x4EB JUMP JUMPDEST SWAP2 POP POP SWAP3 SWAP2 POP POP JUMP JUMPDEST PUSH0 DUP2 SWAP1 POP SWAP2 SWAP1 POP JUMP JUMPDEST PUSH2 0x53C DUP2 PUSH2 0x52A JUMP JUMPDEST DUP3 MSTORE POP POP JUMP JUMPDEST PUSH0 PUSH1 0x20 DUP3 ADD SWAP1 POP PUSH2 0x555 PUSH0 DUP4 ADD DUP5 PUSH2 0x533 JUMP JUMPDEST SWAP3 SWAP2 POP POP JUMP JUMPDEST PUSH0 DUP3 DUP3 MSTORE PUSH1 0x20 DUP3 ADD SWAP1 POP SWAP3 SWAP2 POP POP JUMP JUMPDEST PUSH32 0x6E6F706500000000000000000000000000000000000000000000000000000000 PUSH0 DUP3 ADD MSTORE POP JUMP JUMPDEST PUSH0 PUSH2 0x59F PUSH1 0x4 DUP4 PUSH2 0x55B JUMP JUMPDEST SWAP2 POP PUSH2 0x5AA DUP3 PUSH2 0x56B JUMP JUMPDEST PUSH1 0x20 DUP3 ADD SWAP1 POP SWAP2 SWAP1 POP JUMP JUMPDEST PUSH0 PUSH1 0x20 DUP3 ADD SWAP1 POP DUP2 DUP2 SUB PUSH0 DUP4 ADD MSTORE PUSH2 0x5CC DUP2 PUSH2 0x593 JUMP JUMPDEST SWAP1 POP SWAP2 SWAP1 POP JUMP JUMPDEST PUSH32 0x4E487B7100000000000000000000000000000000000000000000000000000000 PUSH0 MSTORE PUSH1 0x32 PUSH1 0x4 MSTORE PUSH1 0x24 PUSH0 REVERT JUMPDEST PUSH2 0x609 DUP2 PUSH2 0x409 JUMP JUMPDEST DUP3 MSTORE POP POP JUMP JUMPDEST PUSH0 PUSH1 0x20 DUP3 ADD SWAP1 POP PUSH2 0x622 PUSH0 DUP4 ADD DUP5 PUSH2 0x600 JUMP JUMPDEST SWAP3 SWAP2 POP POP JUMP JUMPDEST PUSH0 DUP2 MLOAD SWAP1 POP PUSH2 0x636 DUP2 PUSH2 0x4D5 JUMP JUMPDEST SWAP3 SWAP2 POP POP JUMP JUMPDEST PUSH2 0x645 DUP2 PUSH2 0x52A JUMP JUMPDEST DUP2 EQ PUSH2 0x64F JUMPI PUSH0 DUP1 REVERT JUMPDEST POP JUMP JUMPDEST PUSH0 DUP2 MLOAD SWAP1 POP PUSH2 0x660 DUP2 PUSH2 0x63C JUMP JUMPDEST SWAP3 SWAP2 POP POP JUMP JUMPDEST PUSH0 DUP1 PUSH1 0x40 DUP4 DUP6 SUB SLT ISZERO PUSH2 0x67C JUMPI PUSH2 0x67B PUSH2 0x4D1 JUMP JUMPDEST JUMPDEST PUSH0 PUSH2 0x689 DUP6 DUP3 DUP7 ADD PUSH2 0x628 JUMP JUMPDEST SWAP3 POP POP PUSH1 0x20 PUSH2 0x69A DUP6 DUP3 DUP7 ADD PUSH2 0x652 JUMP JUMPDEST SWAP2 POP POP SWAP3 POP SWAP3 SWAP1 POP JUMP JUMPDEST PUSH0 DUP1 REVERT JUMPDEST PUSH0 PUSH1 0x1F NOT PUSH1 0x1F DUP4 ADD AND SWAP1 POP SWAP2 SWAP1 POP JUMP JUMPDEST PUSH32 0x4E487B7100000000000000000000000000000000000000000000000000000000 PUSH0 MSTORE PUSH1 0x41 PUSH1 0x4 MSTORE PUSH1 0x24 PUSH0 REVERT JUMPDEST PUSH2 0x6EE DUP3 PUSH2 0x6A8 JUMP JUMPDEST DUP2 ADD DUP2 DUP2 LT PUSH8 0xFFFFFFFFFFFFFFFF DUP3 GT OR ISZERO PUSH2 0x70D JUMPI PUSH2 0x70C PUSH2 0x6B8 JUMP JUMPDEST JUMPDEST DUP1 PUSH1 0x40 MSTORE POP POP POP JUMP JUMPDEST PUSH0 PUSH2 0x71F PUSH2 0x4C8 JUMP JUMPDEST SWAP1 POP PUSH2 0x72B DUP3 DUP3 PUSH2 0x6E5 JUMP JUMPDEST SWAP2 SWAP1 POP JUMP JUMPDEST PUSH0 PUSH1 0x40 DUP3 DUP5 SUB SLT ISZERO PUSH2 0x745 JUMPI PUSH2 0x744 PUSH2 0x6A4 JUMP JUMPDEST JUMPDEST PUSH2 0x74F PUSH1 0x40 PUSH2 0x716 JUMP JUMPDEST SWAP1 POP PUSH0 PUSH2 0x75E DUP5 DUP3 DUP6 ADD PUSH2 0x628 JUMP JUMPDEST PUSH0 DUP4 ADD MSTORE POP PUSH1 0x20 PUSH2 0x771 DUP5 DUP3 DUP6 ADD PUSH2 0x652 JUMP JUMPDEST PUSH1 0x20 DUP4 ADD MSTORE POP SWAP3 SWAP2 POP POP JUMP JUMPDEST PUSH0 PUSH1 0x40 DUP3 DUP5 SUB SLT ISZERO PUSH2 0x792 JUMPI PUSH2 0x791 PUSH2 0x4D1 JUMP JUMPDEST JUMPDEST PUSH0 PUSH2 0x79F DUP5 DUP3 DUP6 ADD PUSH2 0x730 JUMP JUMPDEST SWAP2 POP POP SWAP3 SWAP2 POP POP JUMP JUMPDEST PUSH32 0x4E487B7100000000000000000000000000000000000000000000000000000000 PUSH0 MSTORE PUSH1 0x11 PUSH1 0x4 MSTORE PUSH1 0x24 PUSH0 REVERT JUMPDEST PUSH0 PUSH2 0x7DF DUP3 PUSH2 0x52A JUMP JUMPDEST SWAP2 POP PUSH2 0x7EA DUP4 PUSH2 0x52A JUMP JUMPDEST SWAP3 POP DUP3 DUP3 ADD SWAP1 POP DUP1 DUP3 GT ISZERO PUSH2 0x802 JUMPI PUSH2 0x801 PUSH2 0x7A8 JUMP JUMPDEST JUMPDEST SWAP3 SWAP2 POP POP JUMP JUMPDEST PUSH32 0x4E487B7100000000000000000000000000000000000000000000000000000000 PUSH0 MSTORE PUSH1 0x12 PUSH1 0x4 MSTORE PUSH1 0x24 PUSH0 REVERT JUMPDEST PUSH0 PUSH2 0x83F DUP3 PUSH2 0x52A JUMP JUMPDEST SWAP2 POP PUSH2 0x84A DUP4 PUSH2 0x52A JUMP JUMPDEST SWAP3 POP DUP3 PUSH2 0x85A JUMPI PUSH2 0x859 PUSH2 0x808 JUMP JUMPDEST JUMPDEST DUP3 DUP3 DIV SWAP1 POP SWAP3 SWAP2 POP POP JUMP INVALID LOG2 PUSH5 0x6970667358 0x22 SLT KECCAK256 PUSH16 0x77A77EC2C468E5AA1CD696219C2FFFF2 SWAP12 0xE1 PUSH10 0x8AF4B223BBA6AE281F29 CALLCODE 0xDF PUSH5 0x736F6C6343 STOP ADDMOD BYTE STOP CALLER "
				},
				"gasEstimates": {
					"creation": {
						"codeDepositCost": "440600",
						"executionCost": "472",
						"totalCost": "441072"
					},
					"external": {
						"getList()": "infinite",
						"payTaxes()": "infinite",
						"predict()": "infinite",
						"pushList(address)": "49024"
					}
				},
				"methodIdentifiers": {
					"getList()": "942b765a",
					"payTaxes()": "e10e384a",
					"predict()": "e4629f34",
					"pushList(address)": "daa93f60"
				}
			},
			"storageLayout": {
				"storage": [
					{
						"astId": 4,
						"contract": "Coding test/bank.sol:IRS",
						"label": "BankList",
						"offset": 0,
						"slot": "0",
						"type": "t_array(t_address)dyn_storage"
					}
				],
				"types": {
					"t_address": {
						"encoding": "inplace",
						"label": "address",
						"numberOfBytes": "20"
					},
					"t_array(t_address)dyn_storage": {
						"base": "t_address",
						"encoding": "dynamic_array",
						"label": "address[]",
						"numberOfBytes": "32"
					}
				}
			},
			"userdoc": {
				"kind": "user",
				"methods": {},
				"version": 1
			}
		}
	}
}