{
	"Solidity100/sol100(11~20).sol": {
		"Q18": {
			"abi": [
				{
					"inputs": [
						{
							"internalType": "string",
							"name": "_name",
							"type": "string"
						}
					],
					"name": "getbirth",
					"outputs": [
						{
							"internalType": "string",
							"name": "",
							"type": "string"
						}
					],
					"stateMutability": "view",
					"type": "function"
				},
				{
					"inputs": [
						{
							"internalType": "string",
							"name": "_name",
							"type": "string"
						},
						{
							"internalType": "string",
							"name": "_birth",
							"type": "string"
						}
					],
					"name": "setbirth",
					"outputs": [],
					"stateMutability": "nonpayable",
					"type": "function"
				}
			],
			"devdoc": {
				"kind": "dev",
				"methods": {},
				"version": 1
			},
			"evm": {
				"assembly": "    /* \"Solidity100/sol100(11~20).sol\":3255:3759  contract Q18 {... */\n  mstore(0x40, 0x80)\n  callvalue\n  dup1\n  iszero\n  tag_1\n  jumpi\n  0x00\n  dup1\n  revert\ntag_1:\n  pop\n  dataSize(sub_0)\n  dup1\n  dataOffset(sub_0)\n  0x00\n  codecopy\n  0x00\n  return\nstop\n\nsub_0: assembly {\n        /* \"Solidity100/sol100(11~20).sol\":3255:3759  contract Q18 {... */\n      mstore(0x40, 0x80)\n      callvalue\n      dup1\n      iszero\n      tag_1\n      jumpi\n      0x00\n      dup1\n      revert\n    tag_1:\n      pop\n      jumpi(tag_2, lt(calldatasize, 0x04))\n      shr(0xe0, calldataload(0x00))\n      dup1\n      0xd1613c9b\n      eq\n      tag_3\n      jumpi\n      dup1\n      0xfe645442\n      eq\n      tag_4\n      jumpi\n    tag_2:\n      0x00\n      dup1\n      revert\n        /* \"Solidity100/sol100(11~20).sol\":3529:3637  function setbirth(string memory _name, string memory _birth) public {... */\n    tag_3:\n      tag_5\n      0x04\n      dup1\n      calldatasize\n      sub\n      dup2\n      add\n      swap1\n      tag_6\n      swap2\n      swap1\n      tag_7\n      jump\t// in\n    tag_6:\n      tag_8\n      jump\t// in\n    tag_5:\n      stop\n        /* \"Solidity100/sol100(11~20).sol\":3645:3756  function getbirth(string memory _name) public view returns(string memory){... */\n    tag_4:\n      tag_9\n      0x04\n      dup1\n      calldatasize\n      sub\n      dup2\n      add\n      swap1\n      tag_10\n      swap2\n      swap1\n      tag_11\n      jump\t// in\n    tag_10:\n      tag_12\n      jump\t// in\n    tag_9:\n      mload(0x40)\n      tag_13\n      swap2\n      swap1\n      tag_14\n      jump\t// in\n    tag_13:\n      mload(0x40)\n      dup1\n      swap2\n      sub\n      swap1\n      return\n        /* \"Solidity100/sol100(11~20).sol\":3529:3637  function setbirth(string memory _name, string memory _birth) public {... */\n    tag_8:\n        /* \"Solidity100/sol100(11~20).sol\":3623:3629  _birth */\n      dup1\n        /* \"Solidity100/sol100(11~20).sol\":3608:3613  birth */\n      0x00\n        /* \"Solidity100/sol100(11~20).sol\":3614:3619  _name */\n      dup4\n        /* \"Solidity100/sol100(11~20).sol\":3608:3620  birth[_name] */\n      mload(0x40)\n      tag_16\n      swap2\n      swap1\n      tag_17\n      jump\t// in\n    tag_16:\n      swap1\n      dup2\n      mstore\n      0x20\n      add\n      mload(0x40)\n      dup1\n      swap2\n      sub\n      swap1\n      keccak256\n        /* \"Solidity100/sol100(11~20).sol\":3608:3629  birth[_name] = _birth */\n      swap1\n      dup2\n      tag_18\n      swap2\n      swap1\n      tag_19\n      jump\t// in\n    tag_18:\n      pop\n        /* \"Solidity100/sol100(11~20).sol\":3529:3637  function setbirth(string memory _name, string memory _birth) public {... */\n      pop\n      pop\n      jump\t// out\n        /* \"Solidity100/sol100(11~20).sol\":3645:3756  function getbirth(string memory _name) public view returns(string memory){... */\n    tag_12:\n        /* \"Solidity100/sol100(11~20).sol\":3704:3717  string memory */\n      0x60\n        /* \"Solidity100/sol100(11~20).sol\":3736:3741  birth */\n      0x00\n        /* \"Solidity100/sol100(11~20).sol\":3742:3747  _name */\n      dup3\n        /* \"Solidity100/sol100(11~20).sol\":3736:3748  birth[_name] */\n      mload(0x40)\n      tag_21\n      swap2\n      swap1\n      tag_17\n      jump\t// in\n    tag_21:\n      swap1\n      dup2\n      mstore\n      0x20\n      add\n      mload(0x40)\n      dup1\n      swap2\n      sub\n      swap1\n      keccak256\n        /* \"Solidity100/sol100(11~20).sol\":3729:3748  return birth[_name] */\n      dup1\n      sload\n      tag_22\n      swap1\n      tag_23\n      jump\t// in\n    tag_22:\n      dup1\n      0x1f\n      add\n      0x20\n      dup1\n      swap2\n      div\n      mul\n      0x20\n      add\n      mload(0x40)\n      swap1\n      dup2\n      add\n      0x40\n      mstore\n      dup1\n      swap3\n      swap2\n      swap1\n      dup2\n      dup2\n      mstore\n      0x20\n      add\n      dup3\n      dup1\n      sload\n      tag_24\n      swap1\n      tag_23\n      jump\t// in\n    tag_24:\n      dup1\n      iszero\n      tag_25\n      jumpi\n      dup1\n      0x1f\n      lt\n      tag_26\n      jumpi\n      0x0100\n      dup1\n      dup4\n      sload\n      div\n      mul\n      dup4\n      mstore\n      swap2\n      0x20\n      add\n      swap2\n      jump(tag_25)\n    tag_26:\n      dup3\n      add\n      swap2\n      swap1\n      0x00\n      mstore\n      keccak256(0x00, 0x20)\n      swap1\n    tag_27:\n      dup2\n      sload\n      dup2\n      mstore\n      swap1\n      0x01\n      add\n      swap1\n      0x20\n      add\n      dup1\n      dup4\n      gt\n      tag_27\n      jumpi\n      dup3\n      swap1\n      sub\n      0x1f\n      and\n      dup3\n      add\n      swap2\n    tag_25:\n      pop\n      pop\n      pop\n      pop\n      pop\n      swap1\n      pop\n        /* \"Solidity100/sol100(11~20).sol\":3645:3756  function getbirth(string memory _name) public view returns(string memory){... */\n      swap2\n      swap1\n      pop\n      jump\t// out\n        /* \"#utility.yul\":7:82   */\n    tag_28:\n        /* \"#utility.yul\":40:46   */\n      0x00\n        /* \"#utility.yul\":73:75   */\n      0x40\n        /* \"#utility.yul\":67:76   */\n      mload\n        /* \"#utility.yul\":57:76   */\n      swap1\n      pop\n        /* \"#utility.yul\":7:82   */\n      swap1\n      jump\t// out\n        /* \"#utility.yul\":88:205   */\n    tag_29:\n        /* \"#utility.yul\":197:198   */\n      0x00\n        /* \"#utility.yul\":194:195   */\n      dup1\n        /* \"#utility.yul\":187:199   */\n      revert\n        /* \"#utility.yul\":211:328   */\n    tag_30:\n        /* \"#utility.yul\":320:321   */\n      0x00\n        /* \"#utility.yul\":317:318   */\n      dup1\n        /* \"#utility.yul\":310:322   */\n      revert\n        /* \"#utility.yul\":334:451   */\n    tag_31:\n        /* \"#utility.yul\":443:444   */\n      0x00\n        /* \"#utility.yul\":440:441   */\n      dup1\n        /* \"#utility.yul\":433:445   */\n      revert\n        /* \"#utility.yul\":457:574   */\n    tag_32:\n        /* \"#utility.yul\":566:567   */\n      0x00\n        /* \"#utility.yul\":563:564   */\n      dup1\n        /* \"#utility.yul\":556:568   */\n      revert\n        /* \"#utility.yul\":580:682   */\n    tag_33:\n        /* \"#utility.yul\":621:627   */\n      0x00\n        /* \"#utility.yul\":672:674   */\n      0x1f\n        /* \"#utility.yul\":668:675   */\n      not\n        /* \"#utility.yul\":663:665   */\n      0x1f\n        /* \"#utility.yul\":656:661   */\n      dup4\n        /* \"#utility.yul\":652:666   */\n      add\n        /* \"#utility.yul\":648:676   */\n      and\n        /* \"#utility.yul\":638:676   */\n      swap1\n      pop\n        /* \"#utility.yul\":580:682   */\n      swap2\n      swap1\n      pop\n      jump\t// out\n        /* \"#utility.yul\":688:868   */\n    tag_34:\n        /* \"#utility.yul\":736:813   */\n      0x4e487b7100000000000000000000000000000000000000000000000000000000\n        /* \"#utility.yul\":733:734   */\n      0x00\n        /* \"#utility.yul\":726:814   */\n      mstore\n        /* \"#utility.yul\":833:837   */\n      0x41\n        /* \"#utility.yul\":830:831   */\n      0x04\n        /* \"#utility.yul\":823:838   */\n      mstore\n        /* \"#utility.yul\":857:861   */\n      0x24\n        /* \"#utility.yul\":854:855   */\n      0x00\n        /* \"#utility.yul\":847:862   */\n      revert\n        /* \"#utility.yul\":874:1155   */\n    tag_35:\n        /* \"#utility.yul\":957:984   */\n      tag_73\n        /* \"#utility.yul\":979:983   */\n      dup3\n        /* \"#utility.yul\":957:984   */\n      tag_33\n      jump\t// in\n    tag_73:\n        /* \"#utility.yul\":949:955   */\n      dup2\n        /* \"#utility.yul\":945:985   */\n      add\n        /* \"#utility.yul\":1087:1093   */\n      dup2\n        /* \"#utility.yul\":1075:1085   */\n      dup2\n        /* \"#utility.yul\":1072:1094   */\n      lt\n        /* \"#utility.yul\":1051:1069   */\n      0xffffffffffffffff\n        /* \"#utility.yul\":1039:1049   */\n      dup3\n        /* \"#utility.yul\":1036:1070   */\n      gt\n        /* \"#utility.yul\":1033:1095   */\n      or\n        /* \"#utility.yul\":1030:1118   */\n      iszero\n      tag_74\n      jumpi\n        /* \"#utility.yul\":1098:1116   */\n      tag_75\n      tag_34\n      jump\t// in\n    tag_75:\n        /* \"#utility.yul\":1030:1118   */\n    tag_74:\n        /* \"#utility.yul\":1138:1148   */\n      dup1\n        /* \"#utility.yul\":1134:1136   */\n      0x40\n        /* \"#utility.yul\":1127:1149   */\n      mstore\n        /* \"#utility.yul\":917:1155   */\n      pop\n        /* \"#utility.yul\":874:1155   */\n      pop\n      pop\n      jump\t// out\n        /* \"#utility.yul\":1161:1290   */\n    tag_36:\n        /* \"#utility.yul\":1195:1201   */\n      0x00\n        /* \"#utility.yul\":1222:1242   */\n      tag_77\n      tag_28\n      jump\t// in\n    tag_77:\n        /* \"#utility.yul\":1212:1242   */\n      swap1\n      pop\n        /* \"#utility.yul\":1251:1284   */\n      tag_78\n        /* \"#utility.yul\":1279:1283   */\n      dup3\n        /* \"#utility.yul\":1271:1277   */\n      dup3\n        /* \"#utility.yul\":1251:1284   */\n      tag_35\n      jump\t// in\n    tag_78:\n        /* \"#utility.yul\":1161:1290   */\n      swap2\n      swap1\n      pop\n      jump\t// out\n        /* \"#utility.yul\":1296:1604   */\n    tag_37:\n        /* \"#utility.yul\":1358:1362   */\n      0x00\n        /* \"#utility.yul\":1448:1466   */\n      0xffffffffffffffff\n        /* \"#utility.yul\":1440:1446   */\n      dup3\n        /* \"#utility.yul\":1437:1467   */\n      gt\n        /* \"#utility.yul\":1434:1490   */\n      iszero\n      tag_80\n      jumpi\n        /* \"#utility.yul\":1470:1488   */\n      tag_81\n      tag_34\n      jump\t// in\n    tag_81:\n        /* \"#utility.yul\":1434:1490   */\n    tag_80:\n        /* \"#utility.yul\":1508:1537   */\n      tag_82\n        /* \"#utility.yul\":1530:1536   */\n      dup3\n        /* \"#utility.yul\":1508:1537   */\n      tag_33\n      jump\t// in\n    tag_82:\n        /* \"#utility.yul\":1500:1537   */\n      swap1\n      pop\n        /* \"#utility.yul\":1592:1596   */\n      0x20\n        /* \"#utility.yul\":1586:1590   */\n      dup2\n        /* \"#utility.yul\":1582:1597   */\n      add\n        /* \"#utility.yul\":1574:1597   */\n      swap1\n      pop\n        /* \"#utility.yul\":1296:1604   */\n      swap2\n      swap1\n      pop\n      jump\t// out\n        /* \"#utility.yul\":1610:1758   */\n    tag_38:\n        /* \"#utility.yul\":1708:1714   */\n      dup3\n        /* \"#utility.yul\":1703:1706   */\n      dup2\n        /* \"#utility.yul\":1698:1701   */\n      dup4\n        /* \"#utility.yul\":1685:1715   */\n      calldatacopy\n        /* \"#utility.yul\":1749:1750   */\n      0x00\n        /* \"#utility.yul\":1740:1746   */\n      dup4\n        /* \"#utility.yul\":1735:1738   */\n      dup4\n        /* \"#utility.yul\":1731:1747   */\n      add\n        /* \"#utility.yul\":1724:1751   */\n      mstore\n        /* \"#utility.yul\":1610:1758   */\n      pop\n      pop\n      pop\n      jump\t// out\n        /* \"#utility.yul\":1764:2189   */\n    tag_39:\n        /* \"#utility.yul\":1842:1847   */\n      0x00\n        /* \"#utility.yul\":1867:1933   */\n      tag_85\n        /* \"#utility.yul\":1883:1932   */\n      tag_86\n        /* \"#utility.yul\":1925:1931   */\n      dup5\n        /* \"#utility.yul\":1883:1932   */\n      tag_37\n      jump\t// in\n    tag_86:\n        /* \"#utility.yul\":1867:1933   */\n      tag_36\n      jump\t// in\n    tag_85:\n        /* \"#utility.yul\":1858:1933   */\n      swap1\n      pop\n        /* \"#utility.yul\":1956:1962   */\n      dup3\n        /* \"#utility.yul\":1949:1954   */\n      dup2\n        /* \"#utility.yul\":1942:1963   */\n      mstore\n        /* \"#utility.yul\":1994:1998   */\n      0x20\n        /* \"#utility.yul\":1987:1992   */\n      dup2\n        /* \"#utility.yul\":1983:1999   */\n      add\n        /* \"#utility.yul\":2032:2035   */\n      dup5\n        /* \"#utility.yul\":2023:2029   */\n      dup5\n        /* \"#utility.yul\":2018:2021   */\n      dup5\n        /* \"#utility.yul\":2014:2030   */\n      add\n        /* \"#utility.yul\":2011:2036   */\n      gt\n        /* \"#utility.yul\":2008:2120   */\n      iszero\n      tag_87\n      jumpi\n        /* \"#utility.yul\":2039:2118   */\n      tag_88\n      tag_32\n      jump\t// in\n    tag_88:\n        /* \"#utility.yul\":2008:2120   */\n    tag_87:\n        /* \"#utility.yul\":2129:2183   */\n      tag_89\n        /* \"#utility.yul\":2176:2182   */\n      dup5\n        /* \"#utility.yul\":2171:2174   */\n      dup3\n        /* \"#utility.yul\":2166:2169   */\n      dup6\n        /* \"#utility.yul\":2129:2183   */\n      tag_38\n      jump\t// in\n    tag_89:\n        /* \"#utility.yul\":1848:2189   */\n      pop\n        /* \"#utility.yul\":1764:2189   */\n      swap4\n      swap3\n      pop\n      pop\n      pop\n      jump\t// out\n        /* \"#utility.yul\":2209:2549   */\n    tag_40:\n        /* \"#utility.yul\":2265:2270   */\n      0x00\n        /* \"#utility.yul\":2314:2317   */\n      dup3\n        /* \"#utility.yul\":2307:2311   */\n      0x1f\n        /* \"#utility.yul\":2299:2305   */\n      dup4\n        /* \"#utility.yul\":2295:2312   */\n      add\n        /* \"#utility.yul\":2291:2318   */\n      slt\n        /* \"#utility.yul\":2281:2403   */\n      tag_91\n      jumpi\n        /* \"#utility.yul\":2322:2401   */\n      tag_92\n      tag_31\n      jump\t// in\n    tag_92:\n        /* \"#utility.yul\":2281:2403   */\n    tag_91:\n        /* \"#utility.yul\":2439:2445   */\n      dup2\n        /* \"#utility.yul\":2426:2446   */\n      calldataload\n        /* \"#utility.yul\":2464:2543   */\n      tag_93\n        /* \"#utility.yul\":2539:2542   */\n      dup5\n        /* \"#utility.yul\":2531:2537   */\n      dup3\n        /* \"#utility.yul\":2524:2528   */\n      0x20\n        /* \"#utility.yul\":2516:2522   */\n      dup7\n        /* \"#utility.yul\":2512:2529   */\n      add\n        /* \"#utility.yul\":2464:2543   */\n      tag_39\n      jump\t// in\n    tag_93:\n        /* \"#utility.yul\":2455:2543   */\n      swap2\n      pop\n        /* \"#utility.yul\":2271:2549   */\n      pop\n        /* \"#utility.yul\":2209:2549   */\n      swap3\n      swap2\n      pop\n      pop\n      jump\t// out\n        /* \"#utility.yul\":2555:3389   */\n    tag_7:\n        /* \"#utility.yul\":2643:2649   */\n      0x00\n        /* \"#utility.yul\":2651:2657   */\n      dup1\n        /* \"#utility.yul\":2700:2702   */\n      0x40\n        /* \"#utility.yul\":2688:2697   */\n      dup4\n        /* \"#utility.yul\":2679:2686   */\n      dup6\n        /* \"#utility.yul\":2675:2698   */\n      sub\n        /* \"#utility.yul\":2671:2703   */\n      slt\n        /* \"#utility.yul\":2668:2787   */\n      iszero\n      tag_95\n      jumpi\n        /* \"#utility.yul\":2706:2785   */\n      tag_96\n      tag_29\n      jump\t// in\n    tag_96:\n        /* \"#utility.yul\":2668:2787   */\n    tag_95:\n        /* \"#utility.yul\":2854:2855   */\n      0x00\n        /* \"#utility.yul\":2843:2852   */\n      dup4\n        /* \"#utility.yul\":2839:2856   */\n      add\n        /* \"#utility.yul\":2826:2857   */\n      calldataload\n        /* \"#utility.yul\":2884:2902   */\n      0xffffffffffffffff\n        /* \"#utility.yul\":2876:2882   */\n      dup2\n        /* \"#utility.yul\":2873:2903   */\n      gt\n        /* \"#utility.yul\":2870:2987   */\n      iszero\n      tag_97\n      jumpi\n        /* \"#utility.yul\":2906:2985   */\n      tag_98\n      tag_30\n      jump\t// in\n    tag_98:\n        /* \"#utility.yul\":2870:2987   */\n    tag_97:\n        /* \"#utility.yul\":3011:3074   */\n      tag_99\n        /* \"#utility.yul\":3066:3073   */\n      dup6\n        /* \"#utility.yul\":3057:3063   */\n      dup3\n        /* \"#utility.yul\":3046:3055   */\n      dup7\n        /* \"#utility.yul\":3042:3064   */\n      add\n        /* \"#utility.yul\":3011:3074   */\n      tag_40\n      jump\t// in\n    tag_99:\n        /* \"#utility.yul\":3001:3074   */\n      swap3\n      pop\n        /* \"#utility.yul\":2797:3084   */\n      pop\n        /* \"#utility.yul\":3151:3153   */\n      0x20\n        /* \"#utility.yul\":3140:3149   */\n      dup4\n        /* \"#utility.yul\":3136:3154   */\n      add\n        /* \"#utility.yul\":3123:3155   */\n      calldataload\n        /* \"#utility.yul\":3182:3200   */\n      0xffffffffffffffff\n        /* \"#utility.yul\":3174:3180   */\n      dup2\n        /* \"#utility.yul\":3171:3201   */\n      gt\n        /* \"#utility.yul\":3168:3285   */\n      iszero\n      tag_100\n      jumpi\n        /* \"#utility.yul\":3204:3283   */\n      tag_101\n      tag_30\n      jump\t// in\n    tag_101:\n        /* \"#utility.yul\":3168:3285   */\n    tag_100:\n        /* \"#utility.yul\":3309:3372   */\n      tag_102\n        /* \"#utility.yul\":3364:3371   */\n      dup6\n        /* \"#utility.yul\":3355:3361   */\n      dup3\n        /* \"#utility.yul\":3344:3353   */\n      dup7\n        /* \"#utility.yul\":3340:3362   */\n      add\n        /* \"#utility.yul\":3309:3372   */\n      tag_40\n      jump\t// in\n    tag_102:\n        /* \"#utility.yul\":3299:3372   */\n      swap2\n      pop\n        /* \"#utility.yul\":3094:3382   */\n      pop\n        /* \"#utility.yul\":2555:3389   */\n      swap3\n      pop\n      swap3\n      swap1\n      pop\n      jump\t// out\n        /* \"#utility.yul\":3395:3904   */\n    tag_11:\n        /* \"#utility.yul\":3464:3470   */\n      0x00\n        /* \"#utility.yul\":3513:3515   */\n      0x20\n        /* \"#utility.yul\":3501:3510   */\n      dup3\n        /* \"#utility.yul\":3492:3499   */\n      dup5\n        /* \"#utility.yul\":3488:3511   */\n      sub\n        /* \"#utility.yul\":3484:3516   */\n      slt\n        /* \"#utility.yul\":3481:3600   */\n      iszero\n      tag_104\n      jumpi\n        /* \"#utility.yul\":3519:3598   */\n      tag_105\n      tag_29\n      jump\t// in\n    tag_105:\n        /* \"#utility.yul\":3481:3600   */\n    tag_104:\n        /* \"#utility.yul\":3667:3668   */\n      0x00\n        /* \"#utility.yul\":3656:3665   */\n      dup3\n        /* \"#utility.yul\":3652:3669   */\n      add\n        /* \"#utility.yul\":3639:3670   */\n      calldataload\n        /* \"#utility.yul\":3697:3715   */\n      0xffffffffffffffff\n        /* \"#utility.yul\":3689:3695   */\n      dup2\n        /* \"#utility.yul\":3686:3716   */\n      gt\n        /* \"#utility.yul\":3683:3800   */\n      iszero\n      tag_106\n      jumpi\n        /* \"#utility.yul\":3719:3798   */\n      tag_107\n      tag_30\n      jump\t// in\n    tag_107:\n        /* \"#utility.yul\":3683:3800   */\n    tag_106:\n        /* \"#utility.yul\":3824:3887   */\n      tag_108\n        /* \"#utility.yul\":3879:3886   */\n      dup5\n        /* \"#utility.yul\":3870:3876   */\n      dup3\n        /* \"#utility.yul\":3859:3868   */\n      dup6\n        /* \"#utility.yul\":3855:3877   */\n      add\n        /* \"#utility.yul\":3824:3887   */\n      tag_40\n      jump\t// in\n    tag_108:\n        /* \"#utility.yul\":3814:3887   */\n      swap2\n      pop\n        /* \"#utility.yul\":3610:3897   */\n      pop\n        /* \"#utility.yul\":3395:3904   */\n      swap3\n      swap2\n      pop\n      pop\n      jump\t// out\n        /* \"#utility.yul\":3910:4009   */\n    tag_41:\n        /* \"#utility.yul\":3962:3968   */\n      0x00\n        /* \"#utility.yul\":3996:4001   */\n      dup2\n        /* \"#utility.yul\":3990:4002   */\n      mload\n        /* \"#utility.yul\":3980:4002   */\n      swap1\n      pop\n        /* \"#utility.yul\":3910:4009   */\n      swap2\n      swap1\n      pop\n      jump\t// out\n        /* \"#utility.yul\":4015:4184   */\n    tag_42:\n        /* \"#utility.yul\":4099:4110   */\n      0x00\n        /* \"#utility.yul\":4133:4139   */\n      dup3\n        /* \"#utility.yul\":4128:4131   */\n      dup3\n        /* \"#utility.yul\":4121:4140   */\n      mstore\n        /* \"#utility.yul\":4173:4177   */\n      0x20\n        /* \"#utility.yul\":4168:4171   */\n      dup3\n        /* \"#utility.yul\":4164:4178   */\n      add\n        /* \"#utility.yul\":4149:4178   */\n      swap1\n      pop\n        /* \"#utility.yul\":4015:4184   */\n      swap3\n      swap2\n      pop\n      pop\n      jump\t// out\n        /* \"#utility.yul\":4190:4329   */\n    tag_43:\n        /* \"#utility.yul\":4279:4285   */\n      dup3\n        /* \"#utility.yul\":4274:4277   */\n      dup2\n        /* \"#utility.yul\":4269:4272   */\n      dup4\n        /* \"#utility.yul\":4263:4286   */\n      mcopy\n        /* \"#utility.yul\":4320:4321   */\n      0x00\n        /* \"#utility.yul\":4311:4317   */\n      dup4\n        /* \"#utility.yul\":4306:4309   */\n      dup4\n        /* \"#utility.yul\":4302:4318   */\n      add\n        /* \"#utility.yul\":4295:4322   */\n      mstore\n        /* \"#utility.yul\":4190:4329   */\n      pop\n      pop\n      pop\n      jump\t// out\n        /* \"#utility.yul\":4335:4712   */\n    tag_44:\n        /* \"#utility.yul\":4423:4426   */\n      0x00\n        /* \"#utility.yul\":4451:4490   */\n      tag_113\n        /* \"#utility.yul\":4484:4489   */\n      dup3\n        /* \"#utility.yul\":4451:4490   */\n      tag_41\n      jump\t// in\n    tag_113:\n        /* \"#utility.yul\":4506:4577   */\n      tag_114\n        /* \"#utility.yul\":4570:4576   */\n      dup2\n        /* \"#utility.yul\":4565:4568   */\n      dup6\n        /* \"#utility.yul\":4506:4577   */\n      tag_42\n      jump\t// in\n    tag_114:\n        /* \"#utility.yul\":4499:4577   */\n      swap4\n      pop\n        /* \"#utility.yul\":4586:4651   */\n      tag_115\n        /* \"#utility.yul\":4644:4650   */\n      dup2\n        /* \"#utility.yul\":4639:4642   */\n      dup6\n        /* \"#utility.yul\":4632:4636   */\n      0x20\n        /* \"#utility.yul\":4625:4630   */\n      dup7\n        /* \"#utility.yul\":4621:4637   */\n      add\n        /* \"#utility.yul\":4586:4651   */\n      tag_43\n      jump\t// in\n    tag_115:\n        /* \"#utility.yul\":4676:4705   */\n      tag_116\n        /* \"#utility.yul\":4698:4704   */\n      dup2\n        /* \"#utility.yul\":4676:4705   */\n      tag_33\n      jump\t// in\n    tag_116:\n        /* \"#utility.yul\":4671:4674   */\n      dup5\n        /* \"#utility.yul\":4667:4706   */\n      add\n        /* \"#utility.yul\":4660:4706   */\n      swap2\n      pop\n        /* \"#utility.yul\":4427:4712   */\n      pop\n        /* \"#utility.yul\":4335:4712   */\n      swap3\n      swap2\n      pop\n      pop\n      jump\t// out\n        /* \"#utility.yul\":4718:5031   */\n    tag_14:\n        /* \"#utility.yul\":4831:4835   */\n      0x00\n        /* \"#utility.yul\":4869:4871   */\n      0x20\n        /* \"#utility.yul\":4858:4867   */\n      dup3\n        /* \"#utility.yul\":4854:4872   */\n      add\n        /* \"#utility.yul\":4846:4872   */\n      swap1\n      pop\n        /* \"#utility.yul\":4918:4927   */\n      dup2\n        /* \"#utility.yul\":4912:4916   */\n      dup2\n        /* \"#utility.yul\":4908:4928   */\n      sub\n        /* \"#utility.yul\":4904:4905   */\n      0x00\n        /* \"#utility.yul\":4893:4902   */\n      dup4\n        /* \"#utility.yul\":4889:4906   */\n      add\n        /* \"#utility.yul\":4882:4929   */\n      mstore\n        /* \"#utility.yul\":4946:5024   */\n      tag_118\n        /* \"#utility.yul\":5019:5023   */\n      dup2\n        /* \"#utility.yul\":5010:5016   */\n      dup5\n        /* \"#utility.yul\":4946:5024   */\n      tag_44\n      jump\t// in\n    tag_118:\n        /* \"#utility.yul\":4938:5024   */\n      swap1\n      pop\n        /* \"#utility.yul\":4718:5031   */\n      swap3\n      swap2\n      pop\n      pop\n      jump\t// out\n        /* \"#utility.yul\":5037:5185   */\n    tag_45:\n        /* \"#utility.yul\":5139:5150   */\n      0x00\n        /* \"#utility.yul\":5176:5179   */\n      dup2\n        /* \"#utility.yul\":5161:5179   */\n      swap1\n      pop\n        /* \"#utility.yul\":5037:5185   */\n      swap3\n      swap2\n      pop\n      pop\n      jump\t// out\n        /* \"#utility.yul\":5191:5581   */\n    tag_46:\n        /* \"#utility.yul\":5297:5300   */\n      0x00\n        /* \"#utility.yul\":5325:5364   */\n      tag_121\n        /* \"#utility.yul\":5358:5363   */\n      dup3\n        /* \"#utility.yul\":5325:5364   */\n      tag_41\n      jump\t// in\n    tag_121:\n        /* \"#utility.yul\":5380:5469   */\n      tag_122\n        /* \"#utility.yul\":5462:5468   */\n      dup2\n        /* \"#utility.yul\":5457:5460   */\n      dup6\n        /* \"#utility.yul\":5380:5469   */\n      tag_45\n      jump\t// in\n    tag_122:\n        /* \"#utility.yul\":5373:5469   */\n      swap4\n      pop\n        /* \"#utility.yul\":5478:5543   */\n      tag_123\n        /* \"#utility.yul\":5536:5542   */\n      dup2\n        /* \"#utility.yul\":5531:5534   */\n      dup6\n        /* \"#utility.yul\":5524:5528   */\n      0x20\n        /* \"#utility.yul\":5517:5522   */\n      dup7\n        /* \"#utility.yul\":5513:5529   */\n      add\n        /* \"#utility.yul\":5478:5543   */\n      tag_43\n      jump\t// in\n    tag_123:\n        /* \"#utility.yul\":5568:5574   */\n      dup1\n        /* \"#utility.yul\":5563:5566   */\n      dup5\n        /* \"#utility.yul\":5559:5575   */\n      add\n        /* \"#utility.yul\":5552:5575   */\n      swap2\n      pop\n        /* \"#utility.yul\":5301:5581   */\n      pop\n        /* \"#utility.yul\":5191:5581   */\n      swap3\n      swap2\n      pop\n      pop\n      jump\t// out\n        /* \"#utility.yul\":5587:5862   */\n    tag_17:\n        /* \"#utility.yul\":5719:5722   */\n      0x00\n        /* \"#utility.yul\":5741:5836   */\n      tag_125\n        /* \"#utility.yul\":5832:5835   */\n      dup3\n        /* \"#utility.yul\":5823:5829   */\n      dup5\n        /* \"#utility.yul\":5741:5836   */\n      tag_46\n      jump\t// in\n    tag_125:\n        /* \"#utility.yul\":5734:5836   */\n      swap2\n      pop\n        /* \"#utility.yul\":5853:5856   */\n      dup2\n        /* \"#utility.yul\":5846:5856   */\n      swap1\n      pop\n        /* \"#utility.yul\":5587:5862   */\n      swap3\n      swap2\n      pop\n      pop\n      jump\t// out\n        /* \"#utility.yul\":5868:6048   */\n    tag_47:\n        /* \"#utility.yul\":5916:5993   */\n      0x4e487b7100000000000000000000000000000000000000000000000000000000\n        /* \"#utility.yul\":5913:5914   */\n      0x00\n        /* \"#utility.yul\":5906:5994   */\n      mstore\n        /* \"#utility.yul\":6013:6017   */\n      0x22\n        /* \"#utility.yul\":6010:6011   */\n      0x04\n        /* \"#utility.yul\":6003:6018   */\n      mstore\n        /* \"#utility.yul\":6037:6041   */\n      0x24\n        /* \"#utility.yul\":6034:6035   */\n      0x00\n        /* \"#utility.yul\":6027:6042   */\n      revert\n        /* \"#utility.yul\":6054:6374   */\n    tag_23:\n        /* \"#utility.yul\":6098:6104   */\n      0x00\n        /* \"#utility.yul\":6135:6136   */\n      0x02\n        /* \"#utility.yul\":6129:6133   */\n      dup3\n        /* \"#utility.yul\":6125:6137   */\n      div\n        /* \"#utility.yul\":6115:6137   */\n      swap1\n      pop\n        /* \"#utility.yul\":6182:6183   */\n      0x01\n        /* \"#utility.yul\":6176:6180   */\n      dup3\n        /* \"#utility.yul\":6172:6184   */\n      and\n        /* \"#utility.yul\":6203:6221   */\n      dup1\n        /* \"#utility.yul\":6193:6274   */\n      tag_128\n      jumpi\n        /* \"#utility.yul\":6259:6263   */\n      0x7f\n        /* \"#utility.yul\":6251:6257   */\n      dup3\n        /* \"#utility.yul\":6247:6264   */\n      and\n        /* \"#utility.yul\":6237:6264   */\n      swap2\n      pop\n        /* \"#utility.yul\":6193:6274   */\n    tag_128:\n        /* \"#utility.yul\":6321:6323   */\n      0x20\n        /* \"#utility.yul\":6313:6319   */\n      dup3\n        /* \"#utility.yul\":6310:6324   */\n      lt\n        /* \"#utility.yul\":6290:6308   */\n      dup2\n        /* \"#utility.yul\":6287:6325   */\n      sub\n        /* \"#utility.yul\":6284:6368   */\n      tag_129\n      jumpi\n        /* \"#utility.yul\":6340:6358   */\n      tag_130\n      tag_47\n      jump\t// in\n    tag_130:\n        /* \"#utility.yul\":6284:6368   */\n    tag_129:\n        /* \"#utility.yul\":6105:6374   */\n      pop\n        /* \"#utility.yul\":6054:6374   */\n      swap2\n      swap1\n      pop\n      jump\t// out\n        /* \"#utility.yul\":6380:6521   */\n    tag_48:\n        /* \"#utility.yul\":6429:6433   */\n      0x00\n        /* \"#utility.yul\":6452:6455   */\n      dup2\n        /* \"#utility.yul\":6444:6455   */\n      swap1\n      pop\n        /* \"#utility.yul\":6475:6478   */\n      dup2\n        /* \"#utility.yul\":6472:6473   */\n      0x00\n        /* \"#utility.yul\":6465:6479   */\n      mstore\n        /* \"#utility.yul\":6509:6513   */\n      0x20\n        /* \"#utility.yul\":6506:6507   */\n      0x00\n        /* \"#utility.yul\":6496:6514   */\n      keccak256\n        /* \"#utility.yul\":6488:6514   */\n      swap1\n      pop\n        /* \"#utility.yul\":6380:6521   */\n      swap2\n      swap1\n      pop\n      jump\t// out\n        /* \"#utility.yul\":6527:6620   */\n    tag_49:\n        /* \"#utility.yul\":6564:6570   */\n      0x00\n        /* \"#utility.yul\":6611:6613   */\n      0x20\n        /* \"#utility.yul\":6606:6608   */\n      0x1f\n        /* \"#utility.yul\":6599:6604   */\n      dup4\n        /* \"#utility.yul\":6595:6609   */\n      add\n        /* \"#utility.yul\":6591:6614   */\n      div\n        /* \"#utility.yul\":6581:6614   */\n      swap1\n      pop\n        /* \"#utility.yul\":6527:6620   */\n      swap2\n      swap1\n      pop\n      jump\t// out\n        /* \"#utility.yul\":6626:6733   */\n    tag_50:\n        /* \"#utility.yul\":6670:6678   */\n      0x00\n        /* \"#utility.yul\":6720:6725   */\n      dup3\n        /* \"#utility.yul\":6714:6718   */\n      dup3\n        /* \"#utility.yul\":6710:6726   */\n      shl\n        /* \"#utility.yul\":6689:6726   */\n      swap1\n      pop\n        /* \"#utility.yul\":6626:6733   */\n      swap3\n      swap2\n      pop\n      pop\n      jump\t// out\n        /* \"#utility.yul\":6739:7132   */\n    tag_51:\n        /* \"#utility.yul\":6808:6814   */\n      0x00\n        /* \"#utility.yul\":6858:6859   */\n      0x08\n        /* \"#utility.yul\":6846:6856   */\n      dup4\n        /* \"#utility.yul\":6842:6860   */\n      mul\n        /* \"#utility.yul\":6881:6978   */\n      tag_135\n        /* \"#utility.yul\":6911:6977   */\n      0xffffffffffffffffffffffffffffffffffffffffffffffffffffffffffffffff\n        /* \"#utility.yul\":6900:6909   */\n      dup3\n        /* \"#utility.yul\":6881:6978   */\n      tag_50\n      jump\t// in\n    tag_135:\n        /* \"#utility.yul\":6999:7038   */\n      tag_136\n        /* \"#utility.yul\":7029:7037   */\n      dup7\n        /* \"#utility.yul\":7018:7027   */\n      dup4\n        /* \"#utility.yul\":6999:7038   */\n      tag_50\n      jump\t// in\n    tag_136:\n        /* \"#utility.yul\":6987:7038   */\n      swap6\n      pop\n        /* \"#utility.yul\":7071:7075   */\n      dup1\n        /* \"#utility.yul\":7067:7076   */\n      not\n        /* \"#utility.yul\":7060:7065   */\n      dup5\n        /* \"#utility.yul\":7056:7077   */\n      and\n        /* \"#utility.yul\":7047:7077   */\n      swap4\n      pop\n        /* \"#utility.yul\":7120:7124   */\n      dup1\n        /* \"#utility.yul\":7110:7118   */\n      dup7\n        /* \"#utility.yul\":7106:7125   */\n      and\n        /* \"#utility.yul\":7099:7104   */\n      dup5\n        /* \"#utility.yul\":7096:7126   */\n      or\n        /* \"#utility.yul\":7086:7126   */\n      swap3\n      pop\n        /* \"#utility.yul\":6815:7132   */\n      pop\n      pop\n        /* \"#utility.yul\":6739:7132   */\n      swap4\n      swap3\n      pop\n      pop\n      pop\n      jump\t// out\n        /* \"#utility.yul\":7138:7215   */\n    tag_52:\n        /* \"#utility.yul\":7175:7182   */\n      0x00\n        /* \"#utility.yul\":7204:7209   */\n      dup2\n        /* \"#utility.yul\":7193:7209   */\n      swap1\n      pop\n        /* \"#utility.yul\":7138:7215   */\n      swap2\n      swap1\n      pop\n      jump\t// out\n        /* \"#utility.yul\":7221:7281   */\n    tag_53:\n        /* \"#utility.yul\":7249:7252   */\n      0x00\n        /* \"#utility.yul\":7270:7275   */\n      dup2\n        /* \"#utility.yul\":7263:7275   */\n      swap1\n      pop\n        /* \"#utility.yul\":7221:7281   */\n      swap2\n      swap1\n      pop\n      jump\t// out\n        /* \"#utility.yul\":7287:7429   */\n    tag_54:\n        /* \"#utility.yul\":7337:7346   */\n      0x00\n        /* \"#utility.yul\":7370:7423   */\n      tag_140\n        /* \"#utility.yul\":7388:7422   */\n      tag_141\n        /* \"#utility.yul\":7397:7421   */\n      tag_142\n        /* \"#utility.yul\":7415:7420   */\n      dup5\n        /* \"#utility.yul\":7397:7421   */\n      tag_52\n      jump\t// in\n    tag_142:\n        /* \"#utility.yul\":7388:7422   */\n      tag_53\n      jump\t// in\n    tag_141:\n        /* \"#utility.yul\":7370:7423   */\n      tag_52\n      jump\t// in\n    tag_140:\n        /* \"#utility.yul\":7357:7423   */\n      swap1\n      pop\n        /* \"#utility.yul\":7287:7429   */\n      swap2\n      swap1\n      pop\n      jump\t// out\n        /* \"#utility.yul\":7435:7510   */\n    tag_55:\n        /* \"#utility.yul\":7478:7481   */\n      0x00\n        /* \"#utility.yul\":7499:7504   */\n      dup2\n        /* \"#utility.yul\":7492:7504   */\n      swap1\n      pop\n        /* \"#utility.yul\":7435:7510   */\n      swap2\n      swap1\n      pop\n      jump\t// out\n        /* \"#utility.yul\":7516:7785   */\n    tag_56:\n        /* \"#utility.yul\":7626:7665   */\n      tag_145\n        /* \"#utility.yul\":7657:7664   */\n      dup4\n        /* \"#utility.yul\":7626:7665   */\n      tag_54\n      jump\t// in\n    tag_145:\n        /* \"#utility.yul\":7687:7778   */\n      tag_146\n        /* \"#utility.yul\":7736:7777   */\n      tag_147\n        /* \"#utility.yul\":7760:7776   */\n      dup3\n        /* \"#utility.yul\":7736:7777   */\n      tag_55\n      jump\t// in\n    tag_147:\n        /* \"#utility.yul\":7728:7734   */\n      dup5\n        /* \"#utility.yul\":7721:7725   */\n      dup5\n        /* \"#utility.yul\":7715:7726   */\n      sload\n        /* \"#utility.yul\":7687:7778   */\n      tag_51\n      jump\t// in\n    tag_146:\n        /* \"#utility.yul\":7681:7685   */\n      dup3\n        /* \"#utility.yul\":7674:7779   */\n      sstore\n        /* \"#utility.yul\":7592:7785   */\n      pop\n        /* \"#utility.yul\":7516:7785   */\n      pop\n      pop\n      pop\n      jump\t// out\n        /* \"#utility.yul\":7791:7864   */\n    tag_57:\n        /* \"#utility.yul\":7836:7839   */\n      0x00\n        /* \"#utility.yul\":7791:7864   */\n      swap1\n      jump\t// out\n        /* \"#utility.yul\":7870:8059   */\n    tag_58:\n        /* \"#utility.yul\":7947:7979   */\n      tag_150\n      tag_57\n      jump\t// in\n    tag_150:\n        /* \"#utility.yul\":7988:8053   */\n      tag_151\n        /* \"#utility.yul\":8046:8052   */\n      dup2\n        /* \"#utility.yul\":8038:8044   */\n      dup5\n        /* \"#utility.yul\":8032:8036   */\n      dup5\n        /* \"#utility.yul\":7988:8053   */\n      tag_56\n      jump\t// in\n    tag_151:\n        /* \"#utility.yul\":7923:8059   */\n      pop\n        /* \"#utility.yul\":7870:8059   */\n      pop\n      pop\n      jump\t// out\n        /* \"#utility.yul\":8065:8251   */\n    tag_59:\n        /* \"#utility.yul\":8125:8245   */\n    tag_153:\n        /* \"#utility.yul\":8142:8145   */\n      dup2\n        /* \"#utility.yul\":8135:8140   */\n      dup2\n        /* \"#utility.yul\":8132:8146   */\n      lt\n        /* \"#utility.yul\":8125:8245   */\n      iszero\n      tag_155\n      jumpi\n        /* \"#utility.yul\":8196:8235   */\n      tag_156\n        /* \"#utility.yul\":8233:8234   */\n      0x00\n        /* \"#utility.yul\":8226:8231   */\n      dup3\n        /* \"#utility.yul\":8196:8235   */\n      tag_58\n      jump\t// in\n    tag_156:\n        /* \"#utility.yul\":8169:8170   */\n      0x01\n        /* \"#utility.yul\":8162:8167   */\n      dup2\n        /* \"#utility.yul\":8158:8171   */\n      add\n        /* \"#utility.yul\":8149:8171   */\n      swap1\n      pop\n        /* \"#utility.yul\":8125:8245   */\n      jump(tag_153)\n    tag_155:\n        /* \"#utility.yul\":8065:8251   */\n      pop\n      pop\n      jump\t// out\n        /* \"#utility.yul\":8257:8800   */\n    tag_60:\n        /* \"#utility.yul\":8358:8360   */\n      0x1f\n        /* \"#utility.yul\":8353:8356   */\n      dup3\n        /* \"#utility.yul\":8350:8361   */\n      gt\n        /* \"#utility.yul\":8347:8793   */\n      iszero\n      tag_158\n      jumpi\n        /* \"#utility.yul\":8392:8430   */\n      tag_159\n        /* \"#utility.yul\":8424:8429   */\n      dup2\n        /* \"#utility.yul\":8392:8430   */\n      tag_48\n      jump\t// in\n    tag_159:\n        /* \"#utility.yul\":8476:8505   */\n      tag_160\n        /* \"#utility.yul\":8494:8504   */\n      dup5\n        /* \"#utility.yul\":8476:8505   */\n      tag_49\n      jump\t// in\n    tag_160:\n        /* \"#utility.yul\":8466:8474   */\n      dup2\n        /* \"#utility.yul\":8462:8506   */\n      add\n        /* \"#utility.yul\":8659:8661   */\n      0x20\n        /* \"#utility.yul\":8647:8657   */\n      dup6\n        /* \"#utility.yul\":8644:8662   */\n      lt\n        /* \"#utility.yul\":8641:8690   */\n      iszero\n      tag_161\n      jumpi\n        /* \"#utility.yul\":8680:8688   */\n      dup2\n        /* \"#utility.yul\":8665:8688   */\n      swap1\n      pop\n        /* \"#utility.yul\":8641:8690   */\n    tag_161:\n        /* \"#utility.yul\":8703:8783   */\n      tag_162\n        /* \"#utility.yul\":8759:8781   */\n      tag_163\n        /* \"#utility.yul\":8777:8780   */\n      dup6\n        /* \"#utility.yul\":8759:8781   */\n      tag_49\n      jump\t// in\n    tag_163:\n        /* \"#utility.yul\":8749:8757   */\n      dup4\n        /* \"#utility.yul\":8745:8782   */\n      add\n        /* \"#utility.yul\":8732:8743   */\n      dup3\n        /* \"#utility.yul\":8703:8783   */\n      tag_59\n      jump\t// in\n    tag_162:\n        /* \"#utility.yul\":8362:8793   */\n      pop\n      pop\n        /* \"#utility.yul\":8347:8793   */\n    tag_158:\n        /* \"#utility.yul\":8257:8800   */\n      pop\n      pop\n      pop\n      jump\t// out\n        /* \"#utility.yul\":8806:8923   */\n    tag_61:\n        /* \"#utility.yul\":8860:8868   */\n      0x00\n        /* \"#utility.yul\":8910:8915   */\n      dup3\n        /* \"#utility.yul\":8904:8908   */\n      dup3\n        /* \"#utility.yul\":8900:8916   */\n      shr\n        /* \"#utility.yul\":8879:8916   */\n      swap1\n      pop\n        /* \"#utility.yul\":8806:8923   */\n      swap3\n      swap2\n      pop\n      pop\n      jump\t// out\n        /* \"#utility.yul\":8929:9098   */\n    tag_62:\n        /* \"#utility.yul\":8973:8979   */\n      0x00\n        /* \"#utility.yul\":9006:9057   */\n      tag_166\n        /* \"#utility.yul\":9054:9055   */\n      0x00\n        /* \"#utility.yul\":9050:9056   */\n      not\n        /* \"#utility.yul\":9042:9047   */\n      dup5\n        /* \"#utility.yul\":9039:9040   */\n      0x08\n        /* \"#utility.yul\":9035:9048   */\n      mul\n        /* \"#utility.yul\":9006:9057   */\n      tag_61\n      jump\t// in\n    tag_166:\n        /* \"#utility.yul\":9002:9058   */\n      not\n        /* \"#utility.yul\":9087:9091   */\n      dup1\n        /* \"#utility.yul\":9081:9085   */\n      dup4\n        /* \"#utility.yul\":9077:9092   */\n      and\n        /* \"#utility.yul\":9067:9092   */\n      swap2\n      pop\n        /* \"#utility.yul\":8980:9098   */\n      pop\n        /* \"#utility.yul\":8929:9098   */\n      swap3\n      swap2\n      pop\n      pop\n      jump\t// out\n        /* \"#utility.yul\":9103:9398   */\n    tag_63:\n        /* \"#utility.yul\":9179:9183   */\n      0x00\n        /* \"#utility.yul\":9325:9354   */\n      tag_168\n        /* \"#utility.yul\":9350:9353   */\n      dup4\n        /* \"#utility.yul\":9344:9348   */\n      dup4\n        /* \"#utility.yul\":9325:9354   */\n      tag_62\n      jump\t// in\n    tag_168:\n        /* \"#utility.yul\":9317:9354   */\n      swap2\n      pop\n        /* \"#utility.yul\":9387:9390   */\n      dup3\n        /* \"#utility.yul\":9384:9385   */\n      0x02\n        /* \"#utility.yul\":9380:9391   */\n      mul\n        /* \"#utility.yul\":9374:9378   */\n      dup3\n        /* \"#utility.yul\":9371:9392   */\n      or\n        /* \"#utility.yul\":9363:9392   */\n      swap1\n      pop\n        /* \"#utility.yul\":9103:9398   */\n      swap3\n      swap2\n      pop\n      pop\n      jump\t// out\n        /* \"#utility.yul\":9403:10798   */\n    tag_19:\n        /* \"#utility.yul\":9520:9557   */\n      tag_170\n        /* \"#utility.yul\":9553:9556   */\n      dup3\n        /* \"#utility.yul\":9520:9557   */\n      tag_41\n      jump\t// in\n    tag_170:\n        /* \"#utility.yul\":9622:9640   */\n      0xffffffffffffffff\n        /* \"#utility.yul\":9614:9620   */\n      dup2\n        /* \"#utility.yul\":9611:9641   */\n      gt\n        /* \"#utility.yul\":9608:9664   */\n      iszero\n      tag_171\n      jumpi\n        /* \"#utility.yul\":9644:9662   */\n      tag_172\n      tag_34\n      jump\t// in\n    tag_172:\n        /* \"#utility.yul\":9608:9664   */\n    tag_171:\n        /* \"#utility.yul\":9688:9726   */\n      tag_173\n        /* \"#utility.yul\":9720:9724   */\n      dup3\n        /* \"#utility.yul\":9714:9725   */\n      sload\n        /* \"#utility.yul\":9688:9726   */\n      tag_23\n      jump\t// in\n    tag_173:\n        /* \"#utility.yul\":9773:9840   */\n      tag_174\n        /* \"#utility.yul\":9833:9839   */\n      dup3\n        /* \"#utility.yul\":9825:9831   */\n      dup3\n        /* \"#utility.yul\":9819:9823   */\n      dup6\n        /* \"#utility.yul\":9773:9840   */\n      tag_60\n      jump\t// in\n    tag_174:\n        /* \"#utility.yul\":9867:9868   */\n      0x00\n        /* \"#utility.yul\":9891:9895   */\n      0x20\n        /* \"#utility.yul\":9878:9895   */\n      swap1\n      pop\n        /* \"#utility.yul\":9923:9925   */\n      0x1f\n        /* \"#utility.yul\":9915:9921   */\n      dup4\n        /* \"#utility.yul\":9912:9926   */\n      gt\n        /* \"#utility.yul\":9940:9941   */\n      0x01\n        /* \"#utility.yul\":9935:10553   */\n      dup2\n      eq\n      tag_176\n      jumpi\n        /* \"#utility.yul\":10597:10598   */\n      0x00\n        /* \"#utility.yul\":10614:10620   */\n      dup5\n        /* \"#utility.yul\":10611:10688   */\n      iszero\n      tag_177\n      jumpi\n        /* \"#utility.yul\":10663:10672   */\n      dup3\n        /* \"#utility.yul\":10658:10661   */\n      dup8\n        /* \"#utility.yul\":10654:10673   */\n      add\n        /* \"#utility.yul\":10648:10674   */\n      mload\n        /* \"#utility.yul\":10639:10674   */\n      swap1\n      pop\n        /* \"#utility.yul\":10611:10688   */\n    tag_177:\n        /* \"#utility.yul\":10714:10781   */\n      tag_178\n        /* \"#utility.yul\":10774:10780   */\n      dup6\n        /* \"#utility.yul\":10767:10772   */\n      dup3\n        /* \"#utility.yul\":10714:10781   */\n      tag_63\n      jump\t// in\n    tag_178:\n        /* \"#utility.yul\":10708:10712   */\n      dup7\n        /* \"#utility.yul\":10701:10782   */\n      sstore\n        /* \"#utility.yul\":10570:10792   */\n      pop\n        /* \"#utility.yul\":9905:10792   */\n      jump(tag_175)\n        /* \"#utility.yul\":9935:10553   */\n    tag_176:\n        /* \"#utility.yul\":9987:9991   */\n      0x1f\n        /* \"#utility.yul\":9983:9992   */\n      not\n        /* \"#utility.yul\":9975:9981   */\n      dup5\n        /* \"#utility.yul\":9971:9993   */\n      and\n        /* \"#utility.yul\":10021:10058   */\n      tag_179\n        /* \"#utility.yul\":10053:10057   */\n      dup7\n        /* \"#utility.yul\":10021:10058   */\n      tag_48\n      jump\t// in\n    tag_179:\n        /* \"#utility.yul\":10080:10081   */\n      0x00\n        /* \"#utility.yul\":10094:10302   */\n    tag_180:\n        /* \"#utility.yul\":10108:10115   */\n      dup3\n        /* \"#utility.yul\":10105:10106   */\n      dup2\n        /* \"#utility.yul\":10102:10116   */\n      lt\n        /* \"#utility.yul\":10094:10302   */\n      iszero\n      tag_182\n      jumpi\n        /* \"#utility.yul\":10187:10196   */\n      dup5\n        /* \"#utility.yul\":10182:10185   */\n      dup10\n        /* \"#utility.yul\":10178:10197   */\n      add\n        /* \"#utility.yul\":10172:10198   */\n      mload\n        /* \"#utility.yul\":10164:10170   */\n      dup3\n        /* \"#utility.yul\":10157:10199   */\n      sstore\n        /* \"#utility.yul\":10238:10239   */\n      0x01\n        /* \"#utility.yul\":10230:10236   */\n      dup3\n        /* \"#utility.yul\":10226:10240   */\n      add\n        /* \"#utility.yul\":10216:10240   */\n      swap2\n      pop\n        /* \"#utility.yul\":10285:10287   */\n      0x20\n        /* \"#utility.yul\":10274:10283   */\n      dup6\n        /* \"#utility.yul\":10270:10288   */\n      add\n        /* \"#utility.yul\":10257:10288   */\n      swap5\n      pop\n        /* \"#utility.yul\":10131:10135   */\n      0x20\n        /* \"#utility.yul\":10128:10129   */\n      dup2\n        /* \"#utility.yul\":10124:10136   */\n      add\n        /* \"#utility.yul\":10119:10136   */\n      swap1\n      pop\n        /* \"#utility.yul\":10094:10302   */\n      jump(tag_180)\n    tag_182:\n        /* \"#utility.yul\":10330:10336   */\n      dup7\n        /* \"#utility.yul\":10321:10328   */\n      dup4\n        /* \"#utility.yul\":10318:10337   */\n      lt\n        /* \"#utility.yul\":10315:10494   */\n      iszero\n      tag_183\n      jumpi\n        /* \"#utility.yul\":10388:10397   */\n      dup5\n        /* \"#utility.yul\":10383:10386   */\n      dup10\n        /* \"#utility.yul\":10379:10398   */\n      add\n        /* \"#utility.yul\":10373:10399   */\n      mload\n        /* \"#utility.yul\":10431:10479   */\n      tag_184\n        /* \"#utility.yul\":10473:10477   */\n      0x1f\n        /* \"#utility.yul\":10465:10471   */\n      dup10\n        /* \"#utility.yul\":10461:10478   */\n      and\n        /* \"#utility.yul\":10450:10459   */\n      dup3\n        /* \"#utility.yul\":10431:10479   */\n      tag_62\n      jump\t// in\n    tag_184:\n        /* \"#utility.yul\":10423:10429   */\n      dup4\n        /* \"#utility.yul\":10416:10480   */\n      sstore\n        /* \"#utility.yul\":10338:10494   */\n      pop\n        /* \"#utility.yul\":10315:10494   */\n    tag_183:\n        /* \"#utility.yul\":10540:10541   */\n      0x01\n        /* \"#utility.yul\":10536:10537   */\n      0x02\n        /* \"#utility.yul\":10528:10534   */\n      dup9\n        /* \"#utility.yul\":10524:10538   */\n      mul\n        /* \"#utility.yul\":10520:10542   */\n      add\n        /* \"#utility.yul\":10514:10518   */\n      dup9\n        /* \"#utility.yul\":10507:10543   */\n      sstore\n        /* \"#utility.yul\":9942:10553   */\n      pop\n      pop\n      pop\n        /* \"#utility.yul\":9905:10792   */\n    tag_175:\n      pop\n        /* \"#utility.yul\":9495:10798   */\n      pop\n      pop\n      pop\n        /* \"#utility.yul\":9403:10798   */\n      pop\n      pop\n      jump\t// out\n\n    auxdata: 0xa264697066735822122029c527946bd3e71f22dd2ee34b4f41bb73b4777cb3ed779cfc426cb078e3166664736f6c634300081a0033\n}\n",
				"bytecode": {
					"linkReferences": {},
					"object": "6080604052348015600e575f80fd5b506107428061001c5f395ff3fe608060405234801561000f575f80fd5b5060043610610034575f3560e01c8063d1613c9b14610038578063fe64544214610054575b5f80fd5b610052600480360381019061004d91906102ad565b610084565b005b61006e60048036038101906100699190610323565b6100b3565b60405161007b91906103ca565b60405180910390f35b805f836040516100949190610424565b908152602001604051809103902090816100ae919061063d565b505050565b60605f826040516100c49190610424565b908152602001604051809103902080546100dd90610467565b80601f016020809104026020016040519081016040528092919081815260200182805461010990610467565b80156101545780601f1061012b57610100808354040283529160200191610154565b820191905f5260205f20905b81548152906001019060200180831161013757829003601f168201915b50505050509050919050565b5f604051905090565b5f80fd5b5f80fd5b5f80fd5b5f80fd5b5f601f19601f8301169050919050565b7f4e487b71000000000000000000000000000000000000000000000000000000005f52604160045260245ffd5b6101bf82610179565b810181811067ffffffffffffffff821117156101de576101dd610189565b5b80604052505050565b5f6101f0610160565b90506101fc82826101b6565b919050565b5f67ffffffffffffffff82111561021b5761021a610189565b5b61022482610179565b9050602081019050919050565b828183375f83830152505050565b5f61025161024c84610201565b6101e7565b90508281526020810184848401111561026d5761026c610175565b5b610278848285610231565b509392505050565b5f82601f83011261029457610293610171565b5b81356102a484826020860161023f565b91505092915050565b5f80604083850312156102c3576102c2610169565b5b5f83013567ffffffffffffffff8111156102e0576102df61016d565b5b6102ec85828601610280565b925050602083013567ffffffffffffffff81111561030d5761030c61016d565b5b61031985828601610280565b9150509250929050565b5f6020828403121561033857610337610169565b5b5f82013567ffffffffffffffff8111156103555761035461016d565b5b61036184828501610280565b91505092915050565b5f81519050919050565b5f82825260208201905092915050565b8281835e5f83830152505050565b5f61039c8261036a565b6103a68185610374565b93506103b6818560208601610384565b6103bf81610179565b840191505092915050565b5f6020820190508181035f8301526103e28184610392565b905092915050565b5f81905092915050565b5f6103fe8261036a565b61040881856103ea565b9350610418818560208601610384565b80840191505092915050565b5f61042f82846103f4565b915081905092915050565b7f4e487b71000000000000000000000000000000000000000000000000000000005f52602260045260245ffd5b5f600282049050600182168061047e57607f821691505b6020821081036104915761049061043a565b5b50919050565b5f819050815f5260205f209050919050565b5f6020601f8301049050919050565b5f82821b905092915050565b5f600883026104f37fffffffffffffffffffffffffffffffffffffffffffffffffffffffffffffffff826104b8565b6104fd86836104b8565b95508019841693508086168417925050509392505050565b5f819050919050565b5f819050919050565b5f61054161053c61053784610515565b61051e565b610515565b9050919050565b5f819050919050565b61055a83610527565b61056e61056682610548565b8484546104c4565b825550505050565b5f90565b610582610576565b61058d818484610551565b505050565b5b818110156105b0576105a55f8261057a565b600181019050610593565b5050565b601f8211156105f5576105c681610497565b6105cf846104a9565b810160208510156105de578190505b6105f26105ea856104a9565b830182610592565b50505b505050565b5f82821c905092915050565b5f6106155f19846008026105fa565b1980831691505092915050565b5f61062d8383610606565b9150826002028217905092915050565b6106468261036a565b67ffffffffffffffff81111561065f5761065e610189565b5b6106698254610467565b6106748282856105b4565b5f60209050601f8311600181146106a5575f8415610693578287015190505b61069d8582610622565b865550610704565b601f1984166106b386610497565b5f5b828110156106da578489015182556001820191506020850194506020810190506106b5565b868310156106f757848901516106f3601f891682610606565b8355505b6001600288020188555050505b50505050505056fea264697066735822122029c527946bd3e71f22dd2ee34b4f41bb73b4777cb3ed779cfc426cb078e3166664736f6c634300081a0033",
					"opcodes": "PUSH1 0x80 PUSH1 0x40 MSTORE CALLVALUE DUP1 ISZERO PUSH1 0xE JUMPI PUSH0 DUP1 REVERT JUMPDEST POP PUSH2 0x742 DUP1 PUSH2 0x1C PUSH0 CODECOPY PUSH0 RETURN INVALID PUSH1 0x80 PUSH1 0x40 MSTORE CALLVALUE DUP1 ISZERO PUSH2 0xF JUMPI PUSH0 DUP1 REVERT JUMPDEST POP PUSH1 0x4 CALLDATASIZE LT PUSH2 0x34 JUMPI PUSH0 CALLDATALOAD PUSH1 0xE0 SHR DUP1 PUSH4 0xD1613C9B EQ PUSH2 0x38 JUMPI DUP1 PUSH4 0xFE645442 EQ PUSH2 0x54 JUMPI JUMPDEST PUSH0 DUP1 REVERT JUMPDEST PUSH2 0x52 PUSH1 0x4 DUP1 CALLDATASIZE SUB DUP2 ADD SWAP1 PUSH2 0x4D SWAP2 SWAP1 PUSH2 0x2AD JUMP JUMPDEST PUSH2 0x84 JUMP JUMPDEST STOP JUMPDEST PUSH2 0x6E PUSH1 0x4 DUP1 CALLDATASIZE SUB DUP2 ADD SWAP1 PUSH2 0x69 SWAP2 SWAP1 PUSH2 0x323 JUMP JUMPDEST PUSH2 0xB3 JUMP JUMPDEST PUSH1 0x40 MLOAD PUSH2 0x7B SWAP2 SWAP1 PUSH2 0x3CA JUMP JUMPDEST PUSH1 0x40 MLOAD DUP1 SWAP2 SUB SWAP1 RETURN JUMPDEST DUP1 PUSH0 DUP4 PUSH1 0x40 MLOAD PUSH2 0x94 SWAP2 SWAP1 PUSH2 0x424 JUMP JUMPDEST SWAP1 DUP2 MSTORE PUSH1 0x20 ADD PUSH1 0x40 MLOAD DUP1 SWAP2 SUB SWAP1 KECCAK256 SWAP1 DUP2 PUSH2 0xAE SWAP2 SWAP1 PUSH2 0x63D JUMP JUMPDEST POP POP POP JUMP JUMPDEST PUSH1 0x60 PUSH0 DUP3 PUSH1 0x40 MLOAD PUSH2 0xC4 SWAP2 SWAP1 PUSH2 0x424 JUMP JUMPDEST SWAP1 DUP2 MSTORE PUSH1 0x20 ADD PUSH1 0x40 MLOAD DUP1 SWAP2 SUB SWAP1 KECCAK256 DUP1 SLOAD PUSH2 0xDD SWAP1 PUSH2 0x467 JUMP JUMPDEST DUP1 PUSH1 0x1F ADD PUSH1 0x20 DUP1 SWAP2 DIV MUL PUSH1 0x20 ADD PUSH1 0x40 MLOAD SWAP1 DUP2 ADD PUSH1 0x40 MSTORE DUP1 SWAP3 SWAP2 SWAP1 DUP2 DUP2 MSTORE PUSH1 0x20 ADD DUP3 DUP1 SLOAD PUSH2 0x109 SWAP1 PUSH2 0x467 JUMP JUMPDEST DUP1 ISZERO PUSH2 0x154 JUMPI DUP1 PUSH1 0x1F LT PUSH2 0x12B JUMPI PUSH2 0x100 DUP1 DUP4 SLOAD DIV MUL DUP4 MSTORE SWAP2 PUSH1 0x20 ADD SWAP2 PUSH2 0x154 JUMP JUMPDEST DUP3 ADD SWAP2 SWAP1 PUSH0 MSTORE PUSH1 0x20 PUSH0 KECCAK256 SWAP1 JUMPDEST DUP2 SLOAD DUP2 MSTORE SWAP1 PUSH1 0x1 ADD SWAP1 PUSH1 0x20 ADD DUP1 DUP4 GT PUSH2 0x137 JUMPI DUP3 SWAP1 SUB PUSH1 0x1F AND DUP3 ADD SWAP2 JUMPDEST POP POP POP POP POP SWAP1 POP SWAP2 SWAP1 POP JUMP JUMPDEST PUSH0 PUSH1 0x40 MLOAD SWAP1 POP SWAP1 JUMP JUMPDEST PUSH0 DUP1 REVERT JUMPDEST PUSH0 DUP1 REVERT JUMPDEST PUSH0 DUP1 REVERT JUMPDEST PUSH0 DUP1 REVERT JUMPDEST PUSH0 PUSH1 0x1F NOT PUSH1 0x1F DUP4 ADD AND SWAP1 POP SWAP2 SWAP1 POP JUMP JUMPDEST PUSH32 0x4E487B7100000000000000000000000000000000000000000000000000000000 PUSH0 MSTORE PUSH1 0x41 PUSH1 0x4 MSTORE PUSH1 0x24 PUSH0 REVERT JUMPDEST PUSH2 0x1BF DUP3 PUSH2 0x179 JUMP JUMPDEST DUP2 ADD DUP2 DUP2 LT PUSH8 0xFFFFFFFFFFFFFFFF DUP3 GT OR ISZERO PUSH2 0x1DE JUMPI PUSH2 0x1DD PUSH2 0x189 JUMP JUMPDEST JUMPDEST DUP1 PUSH1 0x40 MSTORE POP POP POP JUMP JUMPDEST PUSH0 PUSH2 0x1F0 PUSH2 0x160 JUMP JUMPDEST SWAP1 POP PUSH2 0x1FC DUP3 DUP3 PUSH2 0x1B6 JUMP JUMPDEST SWAP2 SWAP1 POP JUMP JUMPDEST PUSH0 PUSH8 0xFFFFFFFFFFFFFFFF DUP3 GT ISZERO PUSH2 0x21B JUMPI PUSH2 0x21A PUSH2 0x189 JUMP JUMPDEST JUMPDEST PUSH2 0x224 DUP3 PUSH2 0x179 JUMP JUMPDEST SWAP1 POP PUSH1 0x20 DUP2 ADD SWAP1 POP SWAP2 SWAP1 POP JUMP JUMPDEST DUP3 DUP2 DUP4 CALLDATACOPY PUSH0 DUP4 DUP4 ADD MSTORE POP POP POP JUMP JUMPDEST PUSH0 PUSH2 0x251 PUSH2 0x24C DUP5 PUSH2 0x201 JUMP JUMPDEST PUSH2 0x1E7 JUMP JUMPDEST SWAP1 POP DUP3 DUP2 MSTORE PUSH1 0x20 DUP2 ADD DUP5 DUP5 DUP5 ADD GT ISZERO PUSH2 0x26D JUMPI PUSH2 0x26C PUSH2 0x175 JUMP JUMPDEST JUMPDEST PUSH2 0x278 DUP5 DUP3 DUP6 PUSH2 0x231 JUMP JUMPDEST POP SWAP4 SWAP3 POP POP POP JUMP JUMPDEST PUSH0 DUP3 PUSH1 0x1F DUP4 ADD SLT PUSH2 0x294 JUMPI PUSH2 0x293 PUSH2 0x171 JUMP JUMPDEST JUMPDEST DUP2 CALLDATALOAD PUSH2 0x2A4 DUP5 DUP3 PUSH1 0x20 DUP7 ADD PUSH2 0x23F JUMP JUMPDEST SWAP2 POP POP SWAP3 SWAP2 POP POP JUMP JUMPDEST PUSH0 DUP1 PUSH1 0x40 DUP4 DUP6 SUB SLT ISZERO PUSH2 0x2C3 JUMPI PUSH2 0x2C2 PUSH2 0x169 JUMP JUMPDEST JUMPDEST PUSH0 DUP4 ADD CALLDATALOAD PUSH8 0xFFFFFFFFFFFFFFFF DUP2 GT ISZERO PUSH2 0x2E0 JUMPI PUSH2 0x2DF PUSH2 0x16D JUMP JUMPDEST JUMPDEST PUSH2 0x2EC DUP6 DUP3 DUP7 ADD PUSH2 0x280 JUMP JUMPDEST SWAP3 POP POP PUSH1 0x20 DUP4 ADD CALLDATALOAD PUSH8 0xFFFFFFFFFFFFFFFF DUP2 GT ISZERO PUSH2 0x30D JUMPI PUSH2 0x30C PUSH2 0x16D JUMP JUMPDEST JUMPDEST PUSH2 0x319 DUP6 DUP3 DUP7 ADD PUSH2 0x280 JUMP JUMPDEST SWAP2 POP POP SWAP3 POP SWAP3 SWAP1 POP JUMP JUMPDEST PUSH0 PUSH1 0x20 DUP3 DUP5 SUB SLT ISZERO PUSH2 0x338 JUMPI PUSH2 0x337 PUSH2 0x169 JUMP JUMPDEST JUMPDEST PUSH0 DUP3 ADD CALLDATALOAD PUSH8 0xFFFFFFFFFFFFFFFF DUP2 GT ISZERO PUSH2 0x355 JUMPI PUSH2 0x354 PUSH2 0x16D JUMP JUMPDEST JUMPDEST PUSH2 0x361 DUP5 DUP3 DUP6 ADD PUSH2 0x280 JUMP JUMPDEST SWAP2 POP POP SWAP3 SWAP2 POP POP JUMP JUMPDEST PUSH0 DUP2 MLOAD SWAP1 POP SWAP2 SWAP1 POP JUMP JUMPDEST PUSH0 DUP3 DUP3 MSTORE PUSH1 0x20 DUP3 ADD SWAP1 POP SWAP3 SWAP2 POP POP JUMP JUMPDEST DUP3 DUP2 DUP4 MCOPY PUSH0 DUP4 DUP4 ADD MSTORE POP POP POP JUMP JUMPDEST PUSH0 PUSH2 0x39C DUP3 PUSH2 0x36A JUMP JUMPDEST PUSH2 0x3A6 DUP2 DUP6 PUSH2 0x374 JUMP JUMPDEST SWAP4 POP PUSH2 0x3B6 DUP2 DUP6 PUSH1 0x20 DUP7 ADD PUSH2 0x384 JUMP JUMPDEST PUSH2 0x3BF DUP2 PUSH2 0x179 JUMP JUMPDEST DUP5 ADD SWAP2 POP POP SWAP3 SWAP2 POP POP JUMP JUMPDEST PUSH0 PUSH1 0x20 DUP3 ADD SWAP1 POP DUP2 DUP2 SUB PUSH0 DUP4 ADD MSTORE PUSH2 0x3E2 DUP2 DUP5 PUSH2 0x392 JUMP JUMPDEST SWAP1 POP SWAP3 SWAP2 POP POP JUMP JUMPDEST PUSH0 DUP2 SWAP1 POP SWAP3 SWAP2 POP POP JUMP JUMPDEST PUSH0 PUSH2 0x3FE DUP3 PUSH2 0x36A JUMP JUMPDEST PUSH2 0x408 DUP2 DUP6 PUSH2 0x3EA JUMP JUMPDEST SWAP4 POP PUSH2 0x418 DUP2 DUP6 PUSH1 0x20 DUP7 ADD PUSH2 0x384 JUMP JUMPDEST DUP1 DUP5 ADD SWAP2 POP POP SWAP3 SWAP2 POP POP JUMP JUMPDEST PUSH0 PUSH2 0x42F DUP3 DUP5 PUSH2 0x3F4 JUMP JUMPDEST SWAP2 POP DUP2 SWAP1 POP SWAP3 SWAP2 POP POP JUMP JUMPDEST PUSH32 0x4E487B7100000000000000000000000000000000000000000000000000000000 PUSH0 MSTORE PUSH1 0x22 PUSH1 0x4 MSTORE PUSH1 0x24 PUSH0 REVERT JUMPDEST PUSH0 PUSH1 0x2 DUP3 DIV SWAP1 POP PUSH1 0x1 DUP3 AND DUP1 PUSH2 0x47E JUMPI PUSH1 0x7F DUP3 AND SWAP2 POP JUMPDEST PUSH1 0x20 DUP3 LT DUP2 SUB PUSH2 0x491 JUMPI PUSH2 0x490 PUSH2 0x43A JUMP JUMPDEST JUMPDEST POP SWAP2 SWAP1 POP JUMP JUMPDEST PUSH0 DUP2 SWAP1 POP DUP2 PUSH0 MSTORE PUSH1 0x20 PUSH0 KECCAK256 SWAP1 POP SWAP2 SWAP1 POP JUMP JUMPDEST PUSH0 PUSH1 0x20 PUSH1 0x1F DUP4 ADD DIV SWAP1 POP SWAP2 SWAP1 POP JUMP JUMPDEST PUSH0 DUP3 DUP3 SHL SWAP1 POP SWAP3 SWAP2 POP POP JUMP JUMPDEST PUSH0 PUSH1 0x8 DUP4 MUL PUSH2 0x4F3 PUSH32 0xFFFFFFFFFFFFFFFFFFFFFFFFFFFFFFFFFFFFFFFFFFFFFFFFFFFFFFFFFFFFFFFF DUP3 PUSH2 0x4B8 JUMP JUMPDEST PUSH2 0x4FD DUP7 DUP4 PUSH2 0x4B8 JUMP JUMPDEST SWAP6 POP DUP1 NOT DUP5 AND SWAP4 POP DUP1 DUP7 AND DUP5 OR SWAP3 POP POP POP SWAP4 SWAP3 POP POP POP JUMP JUMPDEST PUSH0 DUP2 SWAP1 POP SWAP2 SWAP1 POP JUMP JUMPDEST PUSH0 DUP2 SWAP1 POP SWAP2 SWAP1 POP JUMP JUMPDEST PUSH0 PUSH2 0x541 PUSH2 0x53C PUSH2 0x537 DUP5 PUSH2 0x515 JUMP JUMPDEST PUSH2 0x51E JUMP JUMPDEST PUSH2 0x515 JUMP JUMPDEST SWAP1 POP SWAP2 SWAP1 POP JUMP JUMPDEST PUSH0 DUP2 SWAP1 POP SWAP2 SWAP1 POP JUMP JUMPDEST PUSH2 0x55A DUP4 PUSH2 0x527 JUMP JUMPDEST PUSH2 0x56E PUSH2 0x566 DUP3 PUSH2 0x548 JUMP JUMPDEST DUP5 DUP5 SLOAD PUSH2 0x4C4 JUMP JUMPDEST DUP3 SSTORE POP POP POP POP JUMP JUMPDEST PUSH0 SWAP1 JUMP JUMPDEST PUSH2 0x582 PUSH2 0x576 JUMP JUMPDEST PUSH2 0x58D DUP2 DUP5 DUP5 PUSH2 0x551 JUMP JUMPDEST POP POP POP JUMP JUMPDEST JUMPDEST DUP2 DUP2 LT ISZERO PUSH2 0x5B0 JUMPI PUSH2 0x5A5 PUSH0 DUP3 PUSH2 0x57A JUMP JUMPDEST PUSH1 0x1 DUP2 ADD SWAP1 POP PUSH2 0x593 JUMP JUMPDEST POP POP JUMP JUMPDEST PUSH1 0x1F DUP3 GT ISZERO PUSH2 0x5F5 JUMPI PUSH2 0x5C6 DUP2 PUSH2 0x497 JUMP JUMPDEST PUSH2 0x5CF DUP5 PUSH2 0x4A9 JUMP JUMPDEST DUP2 ADD PUSH1 0x20 DUP6 LT ISZERO PUSH2 0x5DE JUMPI DUP2 SWAP1 POP JUMPDEST PUSH2 0x5F2 PUSH2 0x5EA DUP6 PUSH2 0x4A9 JUMP JUMPDEST DUP4 ADD DUP3 PUSH2 0x592 JUMP JUMPDEST POP POP JUMPDEST POP POP POP JUMP JUMPDEST PUSH0 DUP3 DUP3 SHR SWAP1 POP SWAP3 SWAP2 POP POP JUMP JUMPDEST PUSH0 PUSH2 0x615 PUSH0 NOT DUP5 PUSH1 0x8 MUL PUSH2 0x5FA JUMP JUMPDEST NOT DUP1 DUP4 AND SWAP2 POP POP SWAP3 SWAP2 POP POP JUMP JUMPDEST PUSH0 PUSH2 0x62D DUP4 DUP4 PUSH2 0x606 JUMP JUMPDEST SWAP2 POP DUP3 PUSH1 0x2 MUL DUP3 OR SWAP1 POP SWAP3 SWAP2 POP POP JUMP JUMPDEST PUSH2 0x646 DUP3 PUSH2 0x36A JUMP JUMPDEST PUSH8 0xFFFFFFFFFFFFFFFF DUP2 GT ISZERO PUSH2 0x65F JUMPI PUSH2 0x65E PUSH2 0x189 JUMP JUMPDEST JUMPDEST PUSH2 0x669 DUP3 SLOAD PUSH2 0x467 JUMP JUMPDEST PUSH2 0x674 DUP3 DUP3 DUP6 PUSH2 0x5B4 JUMP JUMPDEST PUSH0 PUSH1 0x20 SWAP1 POP PUSH1 0x1F DUP4 GT PUSH1 0x1 DUP2 EQ PUSH2 0x6A5 JUMPI PUSH0 DUP5 ISZERO PUSH2 0x693 JUMPI DUP3 DUP8 ADD MLOAD SWAP1 POP JUMPDEST PUSH2 0x69D DUP6 DUP3 PUSH2 0x622 JUMP JUMPDEST DUP7 SSTORE POP PUSH2 0x704 JUMP JUMPDEST PUSH1 0x1F NOT DUP5 AND PUSH2 0x6B3 DUP7 PUSH2 0x497 JUMP JUMPDEST PUSH0 JUMPDEST DUP3 DUP2 LT ISZERO PUSH2 0x6DA JUMPI DUP5 DUP10 ADD MLOAD DUP3 SSTORE PUSH1 0x1 DUP3 ADD SWAP2 POP PUSH1 0x20 DUP6 ADD SWAP5 POP PUSH1 0x20 DUP2 ADD SWAP1 POP PUSH2 0x6B5 JUMP JUMPDEST DUP7 DUP4 LT ISZERO PUSH2 0x6F7 JUMPI DUP5 DUP10 ADD MLOAD PUSH2 0x6F3 PUSH1 0x1F DUP10 AND DUP3 PUSH2 0x606 JUMP JUMPDEST DUP4 SSTORE POP JUMPDEST PUSH1 0x1 PUSH1 0x2 DUP9 MUL ADD DUP9 SSTORE POP POP POP JUMPDEST POP POP POP POP POP POP JUMP INVALID LOG2 PUSH5 0x6970667358 0x22 SLT KECCAK256 0x29 0xC5 0x27 SWAP5 PUSH12 0xD3E71F22DD2EE34B4F41BB73 0xB4 PUSH24 0x7CB3ED779CFC426CB078E3166664736F6C634300081A0033 "
				},
				"gasEstimates": {
					"creation": {
						"codeDepositCost": "371600",
						"executionCost": "409",
						"totalCost": "372009"
					},
					"external": {
						"getbirth(string)": "infinite",
						"setbirth(string,string)": "infinite"
					}
				},
				"methodIdentifiers": {
					"getbirth(string)": "fe645442",
					"setbirth(string,string)": "d1613c9b"
				}
			},
			"storageLayout": {
				"storage": [
					{
						"astId": 265,
						"contract": "Solidity100/sol100(11~20).sol:Q18",
						"label": "birth",
						"offset": 0,
						"slot": "0",
						"type": "t_mapping(t_string_memory_ptr,t_string_storage)"
					}
				],
				"types": {
					"t_mapping(t_string_memory_ptr,t_string_storage)": {
						"encoding": "mapping",
						"key": "t_string_memory_ptr",
						"label": "mapping(string => string)",
						"numberOfBytes": "32",
						"value": "t_string_storage"
					},
					"t_string_memory_ptr": {
						"encoding": "bytes",
						"label": "string",
						"numberOfBytes": "32"
					},
					"t_string_storage": {
						"encoding": "bytes",
						"label": "string",
						"numberOfBytes": "32"
					}
				}
			},
			"userdoc": {
				"kind": "user",
				"methods": {},
				"version": 1
			}
		}
	}
}