{
	"Solidity100/sol100(71~80).sol": {
		"Q76": {
			"abi": [
				{
					"inputs": [
						{
							"internalType": "uint256",
							"name": "_n",
							"type": "uint256"
						}
					],
					"name": "digits",
					"outputs": [
						{
							"internalType": "string",
							"name": "",
							"type": "string"
						}
					],
					"stateMutability": "pure",
					"type": "function"
				}
			],
			"devdoc": {
				"kind": "dev",
				"methods": {},
				"version": 1
			},
			"evm": {
				"assembly": "    /* \"Solidity100/sol100(71~80).sol\":3117:3820  contract Q76 {... */\n  mstore(0x40, 0x80)\n  callvalue\n  dup1\n  iszero\n  tag_1\n  jumpi\n  0x00\n  dup1\n  revert\ntag_1:\n  pop\n  dataSize(sub_0)\n  dup1\n  dataOffset(sub_0)\n  0x00\n  codecopy\n  0x00\n  return\nstop\n\nsub_0: assembly {\n        /* \"Solidity100/sol100(71~80).sol\":3117:3820  contract Q76 {... */\n      mstore(0x40, 0x80)\n      callvalue\n      dup1\n      iszero\n      tag_1\n      jumpi\n      0x00\n      dup1\n      revert\n    tag_1:\n      pop\n      jumpi(tag_2, lt(calldatasize, 0x04))\n      shr(0xe0, calldataload(0x00))\n      dup1\n      0x7b23c90d\n      eq\n      tag_3\n      jumpi\n    tag_2:\n      0x00\n      dup1\n      revert\n        /* \"Solidity100/sol100(71~80).sol\":3256:3817  function digits(uint _n) public pure returns(string memory) {... */\n    tag_3:\n      tag_4\n      0x04\n      dup1\n      calldatasize\n      sub\n      dup2\n      add\n      swap1\n      tag_5\n      swap2\n      swap1\n      tag_6\n      jump\t// in\n    tag_5:\n      tag_7\n      jump\t// in\n    tag_4:\n      mload(0x40)\n      tag_8\n      swap2\n      swap1\n      tag_9\n      jump\t// in\n    tag_8:\n      mload(0x40)\n      dup1\n      swap2\n      sub\n      swap1\n      return\n    tag_7:\n        /* \"Solidity100/sol100(71~80).sol\":3301:3314  string memory */\n      0x60\n        /* \"Solidity100/sol100(71~80).sol\":3327:3338  uint length */\n      0x00\n        /* \"Solidity100/sol100(71~80).sol\":3353:3364  uint temp_n */\n      dup1\n        /* \"Solidity100/sol100(71~80).sol\":3367:3369  _n */\n      dup4\n        /* \"Solidity100/sol100(71~80).sol\":3353:3369  uint temp_n = _n */\n      swap1\n      pop\n        /* \"Solidity100/sol100(71~80).sol\":3382:3463  while(temp_n != 0) {... */\n    tag_11:\n        /* \"Solidity100/sol100(71~80).sol\":3398:3399  0 */\n      0x00\n        /* \"Solidity100/sol100(71~80).sol\":3388:3394  temp_n */\n      dup2\n        /* \"Solidity100/sol100(71~80).sol\":3388:3399  temp_n != 0 */\n      eq\n        /* \"Solidity100/sol100(71~80).sol\":3382:3463  while(temp_n != 0) {... */\n      tag_12\n      jumpi\n        /* \"Solidity100/sol100(71~80).sol\":3416:3425  length ++ */\n      dup2\n      dup1\n      tag_13\n      swap1\n      tag_14\n      jump\t// in\n    tag_13:\n      swap3\n      pop\n      pop\n        /* \"Solidity100/sol100(71~80).sol\":3449:3451  10 */\n      0x0a\n        /* \"Solidity100/sol100(71~80).sol\":3440:3451  temp_n /=10 */\n      dup2\n      tag_15\n      swap2\n      swap1\n      tag_16\n      jump\t// in\n    tag_15:\n      swap1\n      pop\n        /* \"Solidity100/sol100(71~80).sol\":3382:3463  while(temp_n != 0) {... */\n      jump(tag_11)\n    tag_12:\n        /* \"Solidity100/sol100(71~80).sol\":3477:3498  uint[] memory numbers */\n      0x00\n        /* \"Solidity100/sol100(71~80).sol\":3512:3518  length */\n      dup3\n        /* \"Solidity100/sol100(71~80).sol\":3501:3519  new uint[](length) */\n      0xffffffffffffffff\n      dup2\n      gt\n      iszero\n      tag_17\n      jumpi\n      tag_18\n      tag_19\n      jump\t// in\n    tag_18:\n    tag_17:\n      mload(0x40)\n      swap1\n      dup1\n      dup3\n      mstore\n      dup1\n      0x20\n      mul\n      0x20\n      add\n      dup3\n      add\n      0x40\n      mstore\n      dup1\n      iszero\n      tag_20\n      jumpi\n      dup2\n      0x20\n      add\n      0x20\n      dup3\n      mul\n      dup1\n      calldatasize\n      dup4\n      calldatacopy\n      dup1\n      dup3\n      add\n      swap2\n      pop\n      pop\n      swap1\n      pop\n    tag_20:\n      pop\n        /* \"Solidity100/sol100(71~80).sol\":3477:3519  uint[] memory numbers = new uint[](length) */\n      swap1\n      pop\n        /* \"Solidity100/sol100(71~80).sol\":3530:3666  while(_n != 0) {... */\n    tag_21:\n        /* \"Solidity100/sol100(71~80).sol\":3542:3543  0 */\n      0x00\n        /* \"Solidity100/sol100(71~80).sol\":3536:3538  _n */\n      dup6\n        /* \"Solidity100/sol100(71~80).sol\":3536:3543  _n != 0 */\n      eq\n        /* \"Solidity100/sol100(71~80).sol\":3530:3666  while(_n != 0) {... */\n      tag_22\n      jumpi\n        /* \"Solidity100/sol100(71~80).sol\":3585:3587  10 */\n      0x0a\n        /* \"Solidity100/sol100(71~80).sol\":3580:3582  _n */\n      dup6\n        /* \"Solidity100/sol100(71~80).sol\":3580:3587  _n % 10 */\n      tag_23\n      swap2\n      swap1\n      tag_24\n      jump\t// in\n    tag_23:\n        /* \"Solidity100/sol100(71~80).sol\":3560:3567  numbers */\n      dup2\n        /* \"Solidity100/sol100(71~80).sol\":3568:3576  --length */\n      dup5\n      tag_25\n      swap1\n      tag_26\n      jump\t// in\n    tag_25:\n      swap5\n      pop\n      dup5\n        /* \"Solidity100/sol100(71~80).sol\":3560:3577  numbers[--length] */\n      dup2\n      mload\n      dup2\n      lt\n      tag_27\n      jumpi\n      tag_28\n      tag_29\n      jump\t// in\n    tag_28:\n    tag_27:\n      0x20\n      mul\n      0x20\n      add\n      add\n        /* \"Solidity100/sol100(71~80).sol\":3560:3587  numbers[--length] = _n % 10 */\n      dup2\n      dup2\n      mstore\n      pop\n      pop\n        /* \"Solidity100/sol100(71~80).sol\":3652:3654  10 */\n      0x0a\n        /* \"Solidity100/sol100(71~80).sol\":3647:3654  _n /=10 */\n      dup6\n      tag_30\n      swap2\n      swap1\n      tag_16\n      jump\t// in\n    tag_30:\n      swap5\n      pop\n        /* \"Solidity100/sol100(71~80).sol\":3530:3666  while(_n != 0) {... */\n      jump(tag_21)\n    tag_22:\n        /* \"Solidity100/sol100(71~80).sol\":3690:3696  uint i */\n      0x00\n        /* \"Solidity100/sol100(71~80).sol\":3686:3808  for(uint i=0; i<length; i++) {... */\n    tag_31:\n        /* \"Solidity100/sol100(71~80).sol\":3702:3708  length */\n      dup4\n        /* \"Solidity100/sol100(71~80).sol\":3700:3701  i */\n      dup2\n        /* \"Solidity100/sol100(71~80).sol\":3700:3708  i<length */\n      lt\n        /* \"Solidity100/sol100(71~80).sol\":3686:3808  for(uint i=0; i<length; i++) {... */\n      iszero\n      tag_32\n      jumpi\n        /* \"Solidity100/sol100(71~80).sol\":3730:3737  numbers */\n      dup2\n        /* \"Solidity100/sol100(71~80).sol\":3738:3739  i */\n      dup2\n        /* \"Solidity100/sol100(71~80).sol\":3730:3740  numbers[i] */\n      dup2\n      mload\n      dup2\n      lt\n      tag_34\n      jumpi\n      tag_35\n      tag_29\n      jump\t// in\n    tag_35:\n    tag_34:\n      0x20\n      mul\n      0x20\n      add\n      add\n      mload\n      pop\n        /* \"Solidity100/sol100(71~80).sol\":3778:3785  numbers */\n      dup2\n        /* \"Solidity100/sol100(71~80).sol\":3786:3787  i */\n      dup2\n        /* \"Solidity100/sol100(71~80).sol\":3778:3788  numbers[i] */\n      dup2\n      mload\n      dup2\n      lt\n      tag_36\n      jumpi\n      tag_37\n      tag_29\n      jump\t// in\n    tag_37:\n    tag_36:\n      0x20\n      mul\n      0x20\n      add\n      add\n      mload\n        /* \"Solidity100/sol100(71~80).sol\":3761:3789  abi.encodePacked(numbers[i]) */\n      add(0x20, mload(0x40))\n      tag_38\n      swap2\n      swap1\n      tag_39\n      jump\t// in\n    tag_38:\n      mload(0x40)\n      0x20\n      dup2\n      dup4\n      sub\n      sub\n      dup2\n      mstore\n      swap1\n      0x40\n      mstore\n        /* \"Solidity100/sol100(71~80).sol\":3754:3790  string(abi.encodePacked(numbers[i])) */\n      pop\n        /* \"Solidity100/sol100(71~80).sol\":3710:3713  i++ */\n      dup1\n      dup1\n      0x01\n      add\n      swap2\n      pop\n      pop\n        /* \"Solidity100/sol100(71~80).sol\":3686:3808  for(uint i=0; i<length; i++) {... */\n      jump(tag_31)\n    tag_32:\n      pop\n        /* \"Solidity100/sol100(71~80).sol\":3316:3817  {... */\n      pop\n      pop\n      pop\n        /* \"Solidity100/sol100(71~80).sol\":3256:3817  function digits(uint _n) public pure returns(string memory) {... */\n      swap2\n      swap1\n      pop\n      jump\t// out\n        /* \"#utility.yul\":88:205   */\n    tag_41:\n        /* \"#utility.yul\":197:198   */\n      0x00\n        /* \"#utility.yul\":194:195   */\n      dup1\n        /* \"#utility.yul\":187:199   */\n      revert\n        /* \"#utility.yul\":334:411   */\n    tag_43:\n        /* \"#utility.yul\":371:378   */\n      0x00\n        /* \"#utility.yul\":400:405   */\n      dup2\n        /* \"#utility.yul\":389:405   */\n      swap1\n      pop\n        /* \"#utility.yul\":334:411   */\n      swap2\n      swap1\n      pop\n      jump\t// out\n        /* \"#utility.yul\":417:539   */\n    tag_44:\n        /* \"#utility.yul\":490:514   */\n      tag_61\n        /* \"#utility.yul\":508:513   */\n      dup2\n        /* \"#utility.yul\":490:514   */\n      tag_43\n      jump\t// in\n    tag_61:\n        /* \"#utility.yul\":483:488   */\n      dup2\n        /* \"#utility.yul\":480:515   */\n      eq\n        /* \"#utility.yul\":470:533   */\n      tag_62\n      jumpi\n        /* \"#utility.yul\":529:530   */\n      0x00\n        /* \"#utility.yul\":526:527   */\n      dup1\n        /* \"#utility.yul\":519:531   */\n      revert\n        /* \"#utility.yul\":470:533   */\n    tag_62:\n        /* \"#utility.yul\":417:539   */\n      pop\n      jump\t// out\n        /* \"#utility.yul\":545:684   */\n    tag_45:\n        /* \"#utility.yul\":591:596   */\n      0x00\n        /* \"#utility.yul\":629:635   */\n      dup2\n        /* \"#utility.yul\":616:636   */\n      calldataload\n        /* \"#utility.yul\":607:636   */\n      swap1\n      pop\n        /* \"#utility.yul\":645:678   */\n      tag_64\n        /* \"#utility.yul\":672:677   */\n      dup2\n        /* \"#utility.yul\":645:678   */\n      tag_44\n      jump\t// in\n    tag_64:\n        /* \"#utility.yul\":545:684   */\n      swap3\n      swap2\n      pop\n      pop\n      jump\t// out\n        /* \"#utility.yul\":690:1019   */\n    tag_6:\n        /* \"#utility.yul\":749:755   */\n      0x00\n        /* \"#utility.yul\":798:800   */\n      0x20\n        /* \"#utility.yul\":786:795   */\n      dup3\n        /* \"#utility.yul\":777:784   */\n      dup5\n        /* \"#utility.yul\":773:796   */\n      sub\n        /* \"#utility.yul\":769:801   */\n      slt\n        /* \"#utility.yul\":766:885   */\n      iszero\n      tag_66\n      jumpi\n        /* \"#utility.yul\":804:883   */\n      tag_67\n      tag_41\n      jump\t// in\n    tag_67:\n        /* \"#utility.yul\":766:885   */\n    tag_66:\n        /* \"#utility.yul\":924:925   */\n      0x00\n        /* \"#utility.yul\":949:1002   */\n      tag_68\n        /* \"#utility.yul\":994:1001   */\n      dup5\n        /* \"#utility.yul\":985:991   */\n      dup3\n        /* \"#utility.yul\":974:983   */\n      dup6\n        /* \"#utility.yul\":970:992   */\n      add\n        /* \"#utility.yul\":949:1002   */\n      tag_45\n      jump\t// in\n    tag_68:\n        /* \"#utility.yul\":939:1002   */\n      swap2\n      pop\n        /* \"#utility.yul\":895:1012   */\n      pop\n        /* \"#utility.yul\":690:1019   */\n      swap3\n      swap2\n      pop\n      pop\n      jump\t// out\n        /* \"#utility.yul\":1025:1124   */\n    tag_46:\n        /* \"#utility.yul\":1077:1083   */\n      0x00\n        /* \"#utility.yul\":1111:1116   */\n      dup2\n        /* \"#utility.yul\":1105:1117   */\n      mload\n        /* \"#utility.yul\":1095:1117   */\n      swap1\n      pop\n        /* \"#utility.yul\":1025:1124   */\n      swap2\n      swap1\n      pop\n      jump\t// out\n        /* \"#utility.yul\":1130:1299   */\n    tag_47:\n        /* \"#utility.yul\":1214:1225   */\n      0x00\n        /* \"#utility.yul\":1248:1254   */\n      dup3\n        /* \"#utility.yul\":1243:1246   */\n      dup3\n        /* \"#utility.yul\":1236:1255   */\n      mstore\n        /* \"#utility.yul\":1288:1292   */\n      0x20\n        /* \"#utility.yul\":1283:1286   */\n      dup3\n        /* \"#utility.yul\":1279:1293   */\n      add\n        /* \"#utility.yul\":1264:1293   */\n      swap1\n      pop\n        /* \"#utility.yul\":1130:1299   */\n      swap3\n      swap2\n      pop\n      pop\n      jump\t// out\n        /* \"#utility.yul\":1305:1444   */\n    tag_48:\n        /* \"#utility.yul\":1394:1400   */\n      dup3\n        /* \"#utility.yul\":1389:1392   */\n      dup2\n        /* \"#utility.yul\":1384:1387   */\n      dup4\n        /* \"#utility.yul\":1378:1401   */\n      mcopy\n        /* \"#utility.yul\":1435:1436   */\n      0x00\n        /* \"#utility.yul\":1426:1432   */\n      dup4\n        /* \"#utility.yul\":1421:1424   */\n      dup4\n        /* \"#utility.yul\":1417:1433   */\n      add\n        /* \"#utility.yul\":1410:1437   */\n      mstore\n        /* \"#utility.yul\":1305:1444   */\n      pop\n      pop\n      pop\n      jump\t// out\n        /* \"#utility.yul\":1450:1552   */\n    tag_49:\n        /* \"#utility.yul\":1491:1497   */\n      0x00\n        /* \"#utility.yul\":1542:1544   */\n      0x1f\n        /* \"#utility.yul\":1538:1545   */\n      not\n        /* \"#utility.yul\":1533:1535   */\n      0x1f\n        /* \"#utility.yul\":1526:1531   */\n      dup4\n        /* \"#utility.yul\":1522:1536   */\n      add\n        /* \"#utility.yul\":1518:1546   */\n      and\n        /* \"#utility.yul\":1508:1546   */\n      swap1\n      pop\n        /* \"#utility.yul\":1450:1552   */\n      swap2\n      swap1\n      pop\n      jump\t// out\n        /* \"#utility.yul\":1558:1935   */\n    tag_50:\n        /* \"#utility.yul\":1646:1649   */\n      0x00\n        /* \"#utility.yul\":1674:1713   */\n      tag_74\n        /* \"#utility.yul\":1707:1712   */\n      dup3\n        /* \"#utility.yul\":1674:1713   */\n      tag_46\n      jump\t// in\n    tag_74:\n        /* \"#utility.yul\":1729:1800   */\n      tag_75\n        /* \"#utility.yul\":1793:1799   */\n      dup2\n        /* \"#utility.yul\":1788:1791   */\n      dup6\n        /* \"#utility.yul\":1729:1800   */\n      tag_47\n      jump\t// in\n    tag_75:\n        /* \"#utility.yul\":1722:1800   */\n      swap4\n      pop\n        /* \"#utility.yul\":1809:1874   */\n      tag_76\n        /* \"#utility.yul\":1867:1873   */\n      dup2\n        /* \"#utility.yul\":1862:1865   */\n      dup6\n        /* \"#utility.yul\":1855:1859   */\n      0x20\n        /* \"#utility.yul\":1848:1853   */\n      dup7\n        /* \"#utility.yul\":1844:1860   */\n      add\n        /* \"#utility.yul\":1809:1874   */\n      tag_48\n      jump\t// in\n    tag_76:\n        /* \"#utility.yul\":1899:1928   */\n      tag_77\n        /* \"#utility.yul\":1921:1927   */\n      dup2\n        /* \"#utility.yul\":1899:1928   */\n      tag_49\n      jump\t// in\n    tag_77:\n        /* \"#utility.yul\":1894:1897   */\n      dup5\n        /* \"#utility.yul\":1890:1929   */\n      add\n        /* \"#utility.yul\":1883:1929   */\n      swap2\n      pop\n        /* \"#utility.yul\":1650:1935   */\n      pop\n        /* \"#utility.yul\":1558:1935   */\n      swap3\n      swap2\n      pop\n      pop\n      jump\t// out\n        /* \"#utility.yul\":1941:2254   */\n    tag_9:\n        /* \"#utility.yul\":2054:2058   */\n      0x00\n        /* \"#utility.yul\":2092:2094   */\n      0x20\n        /* \"#utility.yul\":2081:2090   */\n      dup3\n        /* \"#utility.yul\":2077:2095   */\n      add\n        /* \"#utility.yul\":2069:2095   */\n      swap1\n      pop\n        /* \"#utility.yul\":2141:2150   */\n      dup2\n        /* \"#utility.yul\":2135:2139   */\n      dup2\n        /* \"#utility.yul\":2131:2151   */\n      sub\n        /* \"#utility.yul\":2127:2128   */\n      0x00\n        /* \"#utility.yul\":2116:2125   */\n      dup4\n        /* \"#utility.yul\":2112:2129   */\n      add\n        /* \"#utility.yul\":2105:2152   */\n      mstore\n        /* \"#utility.yul\":2169:2247   */\n      tag_79\n        /* \"#utility.yul\":2242:2246   */\n      dup2\n        /* \"#utility.yul\":2233:2239   */\n      dup5\n        /* \"#utility.yul\":2169:2247   */\n      tag_50\n      jump\t// in\n    tag_79:\n        /* \"#utility.yul\":2161:2247   */\n      swap1\n      pop\n        /* \"#utility.yul\":1941:2254   */\n      swap3\n      swap2\n      pop\n      pop\n      jump\t// out\n        /* \"#utility.yul\":2260:2440   */\n    tag_51:\n        /* \"#utility.yul\":2308:2385   */\n      0x4e487b7100000000000000000000000000000000000000000000000000000000\n        /* \"#utility.yul\":2305:2306   */\n      0x00\n        /* \"#utility.yul\":2298:2386   */\n      mstore\n        /* \"#utility.yul\":2405:2409   */\n      0x11\n        /* \"#utility.yul\":2402:2403   */\n      0x04\n        /* \"#utility.yul\":2395:2410   */\n      mstore\n        /* \"#utility.yul\":2429:2433   */\n      0x24\n        /* \"#utility.yul\":2426:2427   */\n      0x00\n        /* \"#utility.yul\":2419:2434   */\n      revert\n        /* \"#utility.yul\":2446:2679   */\n    tag_14:\n        /* \"#utility.yul\":2485:2488   */\n      0x00\n        /* \"#utility.yul\":2508:2532   */\n      tag_82\n        /* \"#utility.yul\":2526:2531   */\n      dup3\n        /* \"#utility.yul\":2508:2532   */\n      tag_43\n      jump\t// in\n    tag_82:\n        /* \"#utility.yul\":2499:2532   */\n      swap2\n      pop\n        /* \"#utility.yul\":2554:2620   */\n      0xffffffffffffffffffffffffffffffffffffffffffffffffffffffffffffffff\n        /* \"#utility.yul\":2547:2552   */\n      dup3\n        /* \"#utility.yul\":2544:2621   */\n      sub\n        /* \"#utility.yul\":2541:2644   */\n      tag_83\n      jumpi\n        /* \"#utility.yul\":2624:2642   */\n      tag_84\n      tag_51\n      jump\t// in\n    tag_84:\n        /* \"#utility.yul\":2541:2644   */\n    tag_83:\n        /* \"#utility.yul\":2671:2672   */\n      0x01\n        /* \"#utility.yul\":2664:2669   */\n      dup3\n        /* \"#utility.yul\":2660:2673   */\n      add\n        /* \"#utility.yul\":2653:2673   */\n      swap1\n      pop\n        /* \"#utility.yul\":2446:2679   */\n      swap2\n      swap1\n      pop\n      jump\t// out\n        /* \"#utility.yul\":2685:2865   */\n    tag_52:\n        /* \"#utility.yul\":2733:2810   */\n      0x4e487b7100000000000000000000000000000000000000000000000000000000\n        /* \"#utility.yul\":2730:2731   */\n      0x00\n        /* \"#utility.yul\":2723:2811   */\n      mstore\n        /* \"#utility.yul\":2830:2834   */\n      0x12\n        /* \"#utility.yul\":2827:2828   */\n      0x04\n        /* \"#utility.yul\":2820:2835   */\n      mstore\n        /* \"#utility.yul\":2854:2858   */\n      0x24\n        /* \"#utility.yul\":2851:2852   */\n      0x00\n        /* \"#utility.yul\":2844:2859   */\n      revert\n        /* \"#utility.yul\":2871:3056   */\n    tag_16:\n        /* \"#utility.yul\":2911:2912   */\n      0x00\n        /* \"#utility.yul\":2928:2948   */\n      tag_87\n        /* \"#utility.yul\":2946:2947   */\n      dup3\n        /* \"#utility.yul\":2928:2948   */\n      tag_43\n      jump\t// in\n    tag_87:\n        /* \"#utility.yul\":2923:2948   */\n      swap2\n      pop\n        /* \"#utility.yul\":2962:2982   */\n      tag_88\n        /* \"#utility.yul\":2980:2981   */\n      dup4\n        /* \"#utility.yul\":2962:2982   */\n      tag_43\n      jump\t// in\n    tag_88:\n        /* \"#utility.yul\":2957:2982   */\n      swap3\n      pop\n        /* \"#utility.yul\":3001:3002   */\n      dup3\n        /* \"#utility.yul\":2991:3026   */\n      tag_89\n      jumpi\n        /* \"#utility.yul\":3006:3024   */\n      tag_90\n      tag_52\n      jump\t// in\n    tag_90:\n        /* \"#utility.yul\":2991:3026   */\n    tag_89:\n        /* \"#utility.yul\":3048:3049   */\n      dup3\n        /* \"#utility.yul\":3045:3046   */\n      dup3\n        /* \"#utility.yul\":3041:3050   */\n      div\n        /* \"#utility.yul\":3036:3050   */\n      swap1\n      pop\n        /* \"#utility.yul\":2871:3056   */\n      swap3\n      swap2\n      pop\n      pop\n      jump\t// out\n        /* \"#utility.yul\":3062:3242   */\n    tag_19:\n        /* \"#utility.yul\":3110:3187   */\n      0x4e487b7100000000000000000000000000000000000000000000000000000000\n        /* \"#utility.yul\":3107:3108   */\n      0x00\n        /* \"#utility.yul\":3100:3188   */\n      mstore\n        /* \"#utility.yul\":3207:3211   */\n      0x41\n        /* \"#utility.yul\":3204:3205   */\n      0x04\n        /* \"#utility.yul\":3197:3212   */\n      mstore\n        /* \"#utility.yul\":3231:3235   */\n      0x24\n        /* \"#utility.yul\":3228:3229   */\n      0x00\n        /* \"#utility.yul\":3221:3236   */\n      revert\n        /* \"#utility.yul\":3248:3424   */\n    tag_24:\n        /* \"#utility.yul\":3280:3281   */\n      0x00\n        /* \"#utility.yul\":3297:3317   */\n      tag_93\n        /* \"#utility.yul\":3315:3316   */\n      dup3\n        /* \"#utility.yul\":3297:3317   */\n      tag_43\n      jump\t// in\n    tag_93:\n        /* \"#utility.yul\":3292:3317   */\n      swap2\n      pop\n        /* \"#utility.yul\":3331:3351   */\n      tag_94\n        /* \"#utility.yul\":3349:3350   */\n      dup4\n        /* \"#utility.yul\":3331:3351   */\n      tag_43\n      jump\t// in\n    tag_94:\n        /* \"#utility.yul\":3326:3351   */\n      swap3\n      pop\n        /* \"#utility.yul\":3370:3371   */\n      dup3\n        /* \"#utility.yul\":3360:3395   */\n      tag_95\n      jumpi\n        /* \"#utility.yul\":3375:3393   */\n      tag_96\n      tag_52\n      jump\t// in\n    tag_96:\n        /* \"#utility.yul\":3360:3395   */\n    tag_95:\n        /* \"#utility.yul\":3416:3417   */\n      dup3\n        /* \"#utility.yul\":3413:3414   */\n      dup3\n        /* \"#utility.yul\":3409:3418   */\n      mod\n        /* \"#utility.yul\":3404:3418   */\n      swap1\n      pop\n        /* \"#utility.yul\":3248:3424   */\n      swap3\n      swap2\n      pop\n      pop\n      jump\t// out\n        /* \"#utility.yul\":3430:3601   */\n    tag_26:\n        /* \"#utility.yul\":3469:3472   */\n      0x00\n        /* \"#utility.yul\":3492:3516   */\n      tag_98\n        /* \"#utility.yul\":3510:3515   */\n      dup3\n        /* \"#utility.yul\":3492:3516   */\n      tag_43\n      jump\t// in\n    tag_98:\n        /* \"#utility.yul\":3483:3516   */\n      swap2\n      pop\n        /* \"#utility.yul\":3538:3542   */\n      0x00\n        /* \"#utility.yul\":3531:3536   */\n      dup3\n        /* \"#utility.yul\":3528:3543   */\n      sub\n        /* \"#utility.yul\":3525:3566   */\n      tag_99\n      jumpi\n        /* \"#utility.yul\":3546:3564   */\n      tag_100\n      tag_51\n      jump\t// in\n    tag_100:\n        /* \"#utility.yul\":3525:3566   */\n    tag_99:\n        /* \"#utility.yul\":3593:3594   */\n      0x01\n        /* \"#utility.yul\":3586:3591   */\n      dup3\n        /* \"#utility.yul\":3582:3595   */\n      sub\n        /* \"#utility.yul\":3575:3595   */\n      swap1\n      pop\n        /* \"#utility.yul\":3430:3601   */\n      swap2\n      swap1\n      pop\n      jump\t// out\n        /* \"#utility.yul\":3607:3787   */\n    tag_29:\n        /* \"#utility.yul\":3655:3732   */\n      0x4e487b7100000000000000000000000000000000000000000000000000000000\n        /* \"#utility.yul\":3652:3653   */\n      0x00\n        /* \"#utility.yul\":3645:3733   */\n      mstore\n        /* \"#utility.yul\":3752:3756   */\n      0x32\n        /* \"#utility.yul\":3749:3750   */\n      0x04\n        /* \"#utility.yul\":3742:3757   */\n      mstore\n        /* \"#utility.yul\":3776:3780   */\n      0x24\n        /* \"#utility.yul\":3773:3774   */\n      0x00\n        /* \"#utility.yul\":3766:3781   */\n      revert\n        /* \"#utility.yul\":3793:3872   */\n    tag_53:\n        /* \"#utility.yul\":3832:3839   */\n      0x00\n        /* \"#utility.yul\":3861:3866   */\n      dup2\n        /* \"#utility.yul\":3850:3866   */\n      swap1\n      pop\n        /* \"#utility.yul\":3793:3872   */\n      swap2\n      swap1\n      pop\n      jump\t// out\n        /* \"#utility.yul\":3878:4035   */\n    tag_54:\n        /* \"#utility.yul\":3983:4028   */\n      tag_104\n        /* \"#utility.yul\":4003:4027   */\n      tag_105\n        /* \"#utility.yul\":4021:4026   */\n      dup3\n        /* \"#utility.yul\":4003:4027   */\n      tag_43\n      jump\t// in\n    tag_105:\n        /* \"#utility.yul\":3983:4028   */\n      tag_53\n      jump\t// in\n    tag_104:\n        /* \"#utility.yul\":3978:3981   */\n      dup3\n        /* \"#utility.yul\":3971:4029   */\n      mstore\n        /* \"#utility.yul\":3878:4035   */\n      pop\n      pop\n      jump\t// out\n        /* \"#utility.yul\":4041:4297   */\n    tag_39:\n        /* \"#utility.yul\":4153:4156   */\n      0x00\n        /* \"#utility.yul\":4168:4243   */\n      tag_107\n        /* \"#utility.yul\":4239:4242   */\n      dup3\n        /* \"#utility.yul\":4230:4236   */\n      dup5\n        /* \"#utility.yul\":4168:4243   */\n      tag_54\n      jump\t// in\n    tag_107:\n        /* \"#utility.yul\":4268:4270   */\n      0x20\n        /* \"#utility.yul\":4263:4266   */\n      dup3\n        /* \"#utility.yul\":4259:4271   */\n      add\n        /* \"#utility.yul\":4252:4271   */\n      swap2\n      pop\n        /* \"#utility.yul\":4288:4291   */\n      dup2\n        /* \"#utility.yul\":4281:4291   */\n      swap1\n      pop\n        /* \"#utility.yul\":4041:4297   */\n      swap3\n      swap2\n      pop\n      pop\n      jump\t// out\n\n    auxdata: 0xa2646970667358221220ada43d367db0542a26182b470beef55623ed216dacb55f783770736b6fb65b5964736f6c634300081a0033\n}\n",
				"bytecode": {
					"linkReferences": {},
					"object": "6080604052348015600e575f80fd5b506104898061001c5f395ff3fe608060405234801561000f575f80fd5b5060043610610029575f3560e01c80637b23c90d1461002d575b5f80fd5b610047600480360381019061004291906101dc565b61005d565b6040516100549190610277565b60405180910390f35b60605f808390505b5f811461008e578180610077906102c4565b925050600a816100879190610338565b9050610065565b5f8267ffffffffffffffff8111156100a9576100a8610368565b5b6040519080825280602002602001820160405280156100d75781602001602082028036833780820191505090505b5090505b5f851461012e57600a856100ef9190610395565b81846100fa906103c5565b9450848151811061010e5761010d6103ec565b5b602002602001018181525050600a856101279190610338565b94506100db565b5f5b8381101561019c5781818151811061014b5761014a6103ec565b5b602002602001015150818181518110610167576101666103ec565b5b602002602001015160405160200161017f9190610439565b604051602081830303815290604052508080600101915050610130565b50505050919050565b5f80fd5b5f819050919050565b6101bb816101a9565b81146101c5575f80fd5b50565b5f813590506101d6816101b2565b92915050565b5f602082840312156101f1576101f06101a5565b5b5f6101fe848285016101c8565b91505092915050565b5f81519050919050565b5f82825260208201905092915050565b8281835e5f83830152505050565b5f601f19601f8301169050919050565b5f61024982610207565b6102538185610211565b9350610263818560208601610221565b61026c8161022f565b840191505092915050565b5f6020820190508181035f83015261028f818461023f565b905092915050565b7f4e487b71000000000000000000000000000000000000000000000000000000005f52601160045260245ffd5b5f6102ce826101a9565b91507fffffffffffffffffffffffffffffffffffffffffffffffffffffffffffffffff8203610300576102ff610297565b5b600182019050919050565b7f4e487b71000000000000000000000000000000000000000000000000000000005f52601260045260245ffd5b5f610342826101a9565b915061034d836101a9565b92508261035d5761035c61030b565b5b828204905092915050565b7f4e487b71000000000000000000000000000000000000000000000000000000005f52604160045260245ffd5b5f61039f826101a9565b91506103aa836101a9565b9250826103ba576103b961030b565b5b828206905092915050565b5f6103cf826101a9565b91505f82036103e1576103e0610297565b5b600182039050919050565b7f4e487b71000000000000000000000000000000000000000000000000000000005f52603260045260245ffd5b5f819050919050565b61043361042e826101a9565b610419565b82525050565b5f6104448284610422565b6020820191508190509291505056fea2646970667358221220ada43d367db0542a26182b470beef55623ed216dacb55f783770736b6fb65b5964736f6c634300081a0033",
					"opcodes": "PUSH1 0x80 PUSH1 0x40 MSTORE CALLVALUE DUP1 ISZERO PUSH1 0xE JUMPI PUSH0 DUP1 REVERT JUMPDEST POP PUSH2 0x489 DUP1 PUSH2 0x1C PUSH0 CODECOPY PUSH0 RETURN INVALID PUSH1 0x80 PUSH1 0x40 MSTORE CALLVALUE DUP1 ISZERO PUSH2 0xF JUMPI PUSH0 DUP1 REVERT JUMPDEST POP PUSH1 0x4 CALLDATASIZE LT PUSH2 0x29 JUMPI PUSH0 CALLDATALOAD PUSH1 0xE0 SHR DUP1 PUSH4 0x7B23C90D EQ PUSH2 0x2D JUMPI JUMPDEST PUSH0 DUP1 REVERT JUMPDEST PUSH2 0x47 PUSH1 0x4 DUP1 CALLDATASIZE SUB DUP2 ADD SWAP1 PUSH2 0x42 SWAP2 SWAP1 PUSH2 0x1DC JUMP JUMPDEST PUSH2 0x5D JUMP JUMPDEST PUSH1 0x40 MLOAD PUSH2 0x54 SWAP2 SWAP1 PUSH2 0x277 JUMP JUMPDEST PUSH1 0x40 MLOAD DUP1 SWAP2 SUB SWAP1 RETURN JUMPDEST PUSH1 0x60 PUSH0 DUP1 DUP4 SWAP1 POP JUMPDEST PUSH0 DUP2 EQ PUSH2 0x8E JUMPI DUP2 DUP1 PUSH2 0x77 SWAP1 PUSH2 0x2C4 JUMP JUMPDEST SWAP3 POP POP PUSH1 0xA DUP2 PUSH2 0x87 SWAP2 SWAP1 PUSH2 0x338 JUMP JUMPDEST SWAP1 POP PUSH2 0x65 JUMP JUMPDEST PUSH0 DUP3 PUSH8 0xFFFFFFFFFFFFFFFF DUP2 GT ISZERO PUSH2 0xA9 JUMPI PUSH2 0xA8 PUSH2 0x368 JUMP JUMPDEST JUMPDEST PUSH1 0x40 MLOAD SWAP1 DUP1 DUP3 MSTORE DUP1 PUSH1 0x20 MUL PUSH1 0x20 ADD DUP3 ADD PUSH1 0x40 MSTORE DUP1 ISZERO PUSH2 0xD7 JUMPI DUP2 PUSH1 0x20 ADD PUSH1 0x20 DUP3 MUL DUP1 CALLDATASIZE DUP4 CALLDATACOPY DUP1 DUP3 ADD SWAP2 POP POP SWAP1 POP JUMPDEST POP SWAP1 POP JUMPDEST PUSH0 DUP6 EQ PUSH2 0x12E JUMPI PUSH1 0xA DUP6 PUSH2 0xEF SWAP2 SWAP1 PUSH2 0x395 JUMP JUMPDEST DUP2 DUP5 PUSH2 0xFA SWAP1 PUSH2 0x3C5 JUMP JUMPDEST SWAP5 POP DUP5 DUP2 MLOAD DUP2 LT PUSH2 0x10E JUMPI PUSH2 0x10D PUSH2 0x3EC JUMP JUMPDEST JUMPDEST PUSH1 0x20 MUL PUSH1 0x20 ADD ADD DUP2 DUP2 MSTORE POP POP PUSH1 0xA DUP6 PUSH2 0x127 SWAP2 SWAP1 PUSH2 0x338 JUMP JUMPDEST SWAP5 POP PUSH2 0xDB JUMP JUMPDEST PUSH0 JUMPDEST DUP4 DUP2 LT ISZERO PUSH2 0x19C JUMPI DUP2 DUP2 DUP2 MLOAD DUP2 LT PUSH2 0x14B JUMPI PUSH2 0x14A PUSH2 0x3EC JUMP JUMPDEST JUMPDEST PUSH1 0x20 MUL PUSH1 0x20 ADD ADD MLOAD POP DUP2 DUP2 DUP2 MLOAD DUP2 LT PUSH2 0x167 JUMPI PUSH2 0x166 PUSH2 0x3EC JUMP JUMPDEST JUMPDEST PUSH1 0x20 MUL PUSH1 0x20 ADD ADD MLOAD PUSH1 0x40 MLOAD PUSH1 0x20 ADD PUSH2 0x17F SWAP2 SWAP1 PUSH2 0x439 JUMP JUMPDEST PUSH1 0x40 MLOAD PUSH1 0x20 DUP2 DUP4 SUB SUB DUP2 MSTORE SWAP1 PUSH1 0x40 MSTORE POP DUP1 DUP1 PUSH1 0x1 ADD SWAP2 POP POP PUSH2 0x130 JUMP JUMPDEST POP POP POP POP SWAP2 SWAP1 POP JUMP JUMPDEST PUSH0 DUP1 REVERT JUMPDEST PUSH0 DUP2 SWAP1 POP SWAP2 SWAP1 POP JUMP JUMPDEST PUSH2 0x1BB DUP2 PUSH2 0x1A9 JUMP JUMPDEST DUP2 EQ PUSH2 0x1C5 JUMPI PUSH0 DUP1 REVERT JUMPDEST POP JUMP JUMPDEST PUSH0 DUP2 CALLDATALOAD SWAP1 POP PUSH2 0x1D6 DUP2 PUSH2 0x1B2 JUMP JUMPDEST SWAP3 SWAP2 POP POP JUMP JUMPDEST PUSH0 PUSH1 0x20 DUP3 DUP5 SUB SLT ISZERO PUSH2 0x1F1 JUMPI PUSH2 0x1F0 PUSH2 0x1A5 JUMP JUMPDEST JUMPDEST PUSH0 PUSH2 0x1FE DUP5 DUP3 DUP6 ADD PUSH2 0x1C8 JUMP JUMPDEST SWAP2 POP POP SWAP3 SWAP2 POP POP JUMP JUMPDEST PUSH0 DUP2 MLOAD SWAP1 POP SWAP2 SWAP1 POP JUMP JUMPDEST PUSH0 DUP3 DUP3 MSTORE PUSH1 0x20 DUP3 ADD SWAP1 POP SWAP3 SWAP2 POP POP JUMP JUMPDEST DUP3 DUP2 DUP4 MCOPY PUSH0 DUP4 DUP4 ADD MSTORE POP POP POP JUMP JUMPDEST PUSH0 PUSH1 0x1F NOT PUSH1 0x1F DUP4 ADD AND SWAP1 POP SWAP2 SWAP1 POP JUMP JUMPDEST PUSH0 PUSH2 0x249 DUP3 PUSH2 0x207 JUMP JUMPDEST PUSH2 0x253 DUP2 DUP6 PUSH2 0x211 JUMP JUMPDEST SWAP4 POP PUSH2 0x263 DUP2 DUP6 PUSH1 0x20 DUP7 ADD PUSH2 0x221 JUMP JUMPDEST PUSH2 0x26C DUP2 PUSH2 0x22F JUMP JUMPDEST DUP5 ADD SWAP2 POP POP SWAP3 SWAP2 POP POP JUMP JUMPDEST PUSH0 PUSH1 0x20 DUP3 ADD SWAP1 POP DUP2 DUP2 SUB PUSH0 DUP4 ADD MSTORE PUSH2 0x28F DUP2 DUP5 PUSH2 0x23F JUMP JUMPDEST SWAP1 POP SWAP3 SWAP2 POP POP JUMP JUMPDEST PUSH32 0x4E487B7100000000000000000000000000000000000000000000000000000000 PUSH0 MSTORE PUSH1 0x11 PUSH1 0x4 MSTORE PUSH1 0x24 PUSH0 REVERT JUMPDEST PUSH0 PUSH2 0x2CE DUP3 PUSH2 0x1A9 JUMP JUMPDEST SWAP2 POP PUSH32 0xFFFFFFFFFFFFFFFFFFFFFFFFFFFFFFFFFFFFFFFFFFFFFFFFFFFFFFFFFFFFFFFF DUP3 SUB PUSH2 0x300 JUMPI PUSH2 0x2FF PUSH2 0x297 JUMP JUMPDEST JUMPDEST PUSH1 0x1 DUP3 ADD SWAP1 POP SWAP2 SWAP1 POP JUMP JUMPDEST PUSH32 0x4E487B7100000000000000000000000000000000000000000000000000000000 PUSH0 MSTORE PUSH1 0x12 PUSH1 0x4 MSTORE PUSH1 0x24 PUSH0 REVERT JUMPDEST PUSH0 PUSH2 0x342 DUP3 PUSH2 0x1A9 JUMP JUMPDEST SWAP2 POP PUSH2 0x34D DUP4 PUSH2 0x1A9 JUMP JUMPDEST SWAP3 POP DUP3 PUSH2 0x35D JUMPI PUSH2 0x35C PUSH2 0x30B JUMP JUMPDEST JUMPDEST DUP3 DUP3 DIV SWAP1 POP SWAP3 SWAP2 POP POP JUMP JUMPDEST PUSH32 0x4E487B7100000000000000000000000000000000000000000000000000000000 PUSH0 MSTORE PUSH1 0x41 PUSH1 0x4 MSTORE PUSH1 0x24 PUSH0 REVERT JUMPDEST PUSH0 PUSH2 0x39F DUP3 PUSH2 0x1A9 JUMP JUMPDEST SWAP2 POP PUSH2 0x3AA DUP4 PUSH2 0x1A9 JUMP JUMPDEST SWAP3 POP DUP3 PUSH2 0x3BA JUMPI PUSH2 0x3B9 PUSH2 0x30B JUMP JUMPDEST JUMPDEST DUP3 DUP3 MOD SWAP1 POP SWAP3 SWAP2 POP POP JUMP JUMPDEST PUSH0 PUSH2 0x3CF DUP3 PUSH2 0x1A9 JUMP JUMPDEST SWAP2 POP PUSH0 DUP3 SUB PUSH2 0x3E1 JUMPI PUSH2 0x3E0 PUSH2 0x297 JUMP JUMPDEST JUMPDEST PUSH1 0x1 DUP3 SUB SWAP1 POP SWAP2 SWAP1 POP JUMP JUMPDEST PUSH32 0x4E487B7100000000000000000000000000000000000000000000000000000000 PUSH0 MSTORE PUSH1 0x32 PUSH1 0x4 MSTORE PUSH1 0x24 PUSH0 REVERT JUMPDEST PUSH0 DUP2 SWAP1 POP SWAP2 SWAP1 POP JUMP JUMPDEST PUSH2 0x433 PUSH2 0x42E DUP3 PUSH2 0x1A9 JUMP JUMPDEST PUSH2 0x419 JUMP JUMPDEST DUP3 MSTORE POP POP JUMP JUMPDEST PUSH0 PUSH2 0x444 DUP3 DUP5 PUSH2 0x422 JUMP JUMPDEST PUSH1 0x20 DUP3 ADD SWAP2 POP DUP2 SWAP1 POP SWAP3 SWAP2 POP POP JUMP INVALID LOG2 PUSH5 0x6970667358 0x22 SLT KECCAK256 0xAD LOG4 RETURNDATASIZE CALLDATASIZE PUSH30 0xB0542A26182B470BEEF55623ED216DACB55F783770736B6FB65B5964736F PUSH13 0x634300081A0033000000000000 "
				},
				"gasEstimates": {
					"creation": {
						"codeDepositCost": "232200",
						"executionCost": "273",
						"totalCost": "232473"
					},
					"external": {
						"digits(uint256)": "infinite"
					}
				},
				"methodIdentifiers": {
					"digits(uint256)": "7b23c90d"
				}
			},
			"storageLayout": {
				"storage": [],
				"types": null
			},
			"userdoc": {
				"kind": "user",
				"methods": {},
				"version": 1
			}
		}
	}
}