{
	"Solidity100/sol100(71~80).sol": {
		"Q79B": {
			"abi": [
				{
					"inputs": [
						{
							"internalType": "uint256",
							"name": "_a",
							"type": "uint256"
						},
						{
							"internalType": "uint256",
							"name": "_b",
							"type": "uint256"
						},
						{
							"internalType": "uint256",
							"name": "_c",
							"type": "uint256"
						}
					],
					"name": "biggest",
					"outputs": [
						{
							"internalType": "uint256",
							"name": "",
							"type": "uint256"
						}
					],
					"stateMutability": "pure",
					"type": "function"
				},
				{
					"inputs": [
						{
							"internalType": "string",
							"name": "_name",
							"type": "string"
						},
						{
							"internalType": "uint256",
							"name": "_number",
							"type": "uint256"
						},
						{
							"internalType": "uint256",
							"name": "_score",
							"type": "uint256"
						},
						{
							"internalType": "uint256",
							"name": "n",
							"type": "uint256"
						}
					],
					"name": "setStudent",
					"outputs": [],
					"stateMutability": "nonpayable",
					"type": "function"
				}
			],
			"devdoc": {
				"kind": "dev",
				"methods": {},
				"version": 1
			},
			"evm": {
				"assembly": "    /* \"Solidity100/sol100(71~80).sol\":5453:5772  contract Q79B is Q79A { ... */\n  mstore(0x40, 0x80)\n  callvalue\n  dup1\n  iszero\n  tag_1\n  jumpi\n  0x00\n  dup1\n  revert\ntag_1:\n  pop\n  dataSize(sub_0)\n  dup1\n  dataOffset(sub_0)\n  0x00\n  codecopy\n  0x00\n  return\nstop\n\nsub_0: assembly {\n        /* \"Solidity100/sol100(71~80).sol\":5453:5772  contract Q79B is Q79A { ... */\n      mstore(0x40, 0x80)\n      callvalue\n      dup1\n      iszero\n      tag_1\n      jumpi\n      0x00\n      dup1\n      revert\n    tag_1:\n      pop\n      jumpi(tag_2, lt(calldatasize, 0x04))\n      shr(0xe0, calldataload(0x00))\n      dup1\n      0x0812d8e9\n      eq\n      tag_3\n      jumpi\n      dup1\n      0xfb987c9d\n      eq\n      tag_4\n      jumpi\n    tag_2:\n      0x00\n      dup1\n      revert\n        /* \"Solidity100/sol100(71~80).sol\":5062:5446  function biggest(uint _a, uint _b, uint _c) public pure returns(uint){... */\n    tag_3:\n      tag_5\n      0x04\n      dup1\n      calldatasize\n      sub\n      dup2\n      add\n      swap1\n      tag_6\n      swap2\n      swap1\n      tag_7\n      jump\t// in\n    tag_6:\n      tag_8\n      jump\t// in\n    tag_5:\n      mload(0x40)\n      tag_9\n      swap2\n      swap1\n      tag_10\n      jump\t// in\n    tag_9:\n      mload(0x40)\n      dup1\n      swap2\n      sub\n      swap1\n      return\n        /* \"Solidity100/sol100(71~80).sol\":5613:5760  function setStudent(string memory _name, uint _number, uint _score, uint n) public {... */\n    tag_4:\n      tag_11\n      0x04\n      dup1\n      calldatasize\n      sub\n      dup2\n      add\n      swap1\n      tag_12\n      swap2\n      swap1\n      tag_13\n      jump\t// in\n    tag_12:\n      tag_14\n      jump\t// in\n    tag_11:\n      stop\n        /* \"Solidity100/sol100(71~80).sol\":5062:5446  function biggest(uint _a, uint _b, uint _c) public pure returns(uint){... */\n    tag_8:\n        /* \"Solidity100/sol100(71~80).sol\":5126:5130  uint */\n      0x00\n        /* \"Solidity100/sol100(71~80).sol\":5140:5158  uint[3] memory num */\n      dup1\n        /* \"Solidity100/sol100(71~80).sol\":5140:5171  uint[3] memory num = [_a,_b,_c] */\n      mload(0x40)\n      dup1\n      0x60\n      add\n      0x40\n      mstore\n      dup1\n        /* \"Solidity100/sol100(71~80).sol\":5162:5164  _a */\n      dup7\n        /* \"Solidity100/sol100(71~80).sol\":5140:5171  uint[3] memory num = [_a,_b,_c] */\n      dup2\n      mstore\n      0x20\n      add\n        /* \"Solidity100/sol100(71~80).sol\":5165:5167  _b */\n      dup6\n        /* \"Solidity100/sol100(71~80).sol\":5140:5171  uint[3] memory num = [_a,_b,_c] */\n      dup2\n      mstore\n      0x20\n      add\n        /* \"Solidity100/sol100(71~80).sol\":5168:5170  _c */\n      dup5\n        /* \"Solidity100/sol100(71~80).sol\":5140:5171  uint[3] memory num = [_a,_b,_c] */\n      dup2\n      mstore\n      pop\n      swap1\n      pop\n        /* \"Solidity100/sol100(71~80).sol\":5187:5193  uint i */\n      0x00\n        /* \"Solidity100/sol100(71~80).sol\":5183:5413  for(uint i=0; i < num.length; i++) {... */\n    tag_16:\n        /* \"Solidity100/sol100(71~80).sol\":5201:5211  num.length */\n      0x03\n        /* \"Solidity100/sol100(71~80).sol\":5197:5198  i */\n      dup2\n        /* \"Solidity100/sol100(71~80).sol\":5197:5211  i < num.length */\n      lt\n        /* \"Solidity100/sol100(71~80).sol\":5183:5413  for(uint i=0; i < num.length; i++) {... */\n      iszero\n      tag_17\n      jumpi\n        /* \"Solidity100/sol100(71~80).sol\":5237:5243  uint j */\n      0x00\n        /* \"Solidity100/sol100(71~80).sol\":5246:5247  1 */\n      0x01\n        /* \"Solidity100/sol100(71~80).sol\":5244:5245  i */\n      dup3\n        /* \"Solidity100/sol100(71~80).sol\":5244:5247  i+1 */\n      tag_22\n      swap2\n      swap1\n      tag_23\n      jump\t// in\n    tag_22:\n        /* \"Solidity100/sol100(71~80).sol\":5237:5247  uint j=i+1 */\n      swap1\n      pop\n        /* \"Solidity100/sol100(71~80).sol\":5233:5402  for(uint j=i+1; j < num.length; j++) {... */\n    tag_19:\n        /* \"Solidity100/sol100(71~80).sol\":5253:5263  num.length */\n      0x03\n        /* \"Solidity100/sol100(71~80).sol\":5249:5250  j */\n      dup2\n        /* \"Solidity100/sol100(71~80).sol\":5249:5263  j < num.length */\n      lt\n        /* \"Solidity100/sol100(71~80).sol\":5233:5402  for(uint j=i+1; j < num.length; j++) {... */\n      iszero\n      tag_20\n      jumpi\n        /* \"Solidity100/sol100(71~80).sol\":5301:5304  num */\n      dup3\n        /* \"Solidity100/sol100(71~80).sol\":5305:5306  j */\n      dup2\n        /* \"Solidity100/sol100(71~80).sol\":5301:5307  num[j] */\n      0x03\n      dup2\n      lt\n      tag_24\n      jumpi\n      tag_25\n      tag_26\n      jump\t// in\n    tag_25:\n    tag_24:\n      0x20\n      mul\n      add\n      mload\n        /* \"Solidity100/sol100(71~80).sol\":5292:5295  num */\n      dup4\n        /* \"Solidity100/sol100(71~80).sol\":5296:5297  i */\n      dup4\n        /* \"Solidity100/sol100(71~80).sol\":5292:5298  num[i] */\n      0x03\n      dup2\n      lt\n      tag_27\n      jumpi\n      tag_28\n      tag_26\n      jump\t// in\n    tag_28:\n    tag_27:\n      0x20\n      mul\n      add\n      mload\n        /* \"Solidity100/sol100(71~80).sol\":5292:5307  num[i] < num[j] */\n      lt\n        /* \"Solidity100/sol100(71~80).sol\":5289:5387  if(num[i] < num[j]) {... */\n      iszero\n      tag_29\n      jumpi\n        /* \"Solidity100/sol100(71~80).sol\":5352:5355  num */\n      dup3\n        /* \"Solidity100/sol100(71~80).sol\":5356:5357  j */\n      dup2\n        /* \"Solidity100/sol100(71~80).sol\":5352:5358  num[j] */\n      0x03\n      dup2\n      lt\n      tag_30\n      jumpi\n      tag_31\n      tag_26\n      jump\t// in\n    tag_31:\n    tag_30:\n      0x20\n      mul\n      add\n      mload\n        /* \"Solidity100/sol100(71~80).sol\":5360:5363  num */\n      dup4\n        /* \"Solidity100/sol100(71~80).sol\":5364:5365  i */\n      dup4\n        /* \"Solidity100/sol100(71~80).sol\":5360:5366  num[i] */\n      0x03\n      dup2\n      lt\n      tag_32\n      jumpi\n      tag_33\n      tag_26\n      jump\t// in\n    tag_33:\n    tag_32:\n      0x20\n      mul\n      add\n      mload\n        /* \"Solidity100/sol100(71~80).sol\":5333:5336  num */\n      dup5\n        /* \"Solidity100/sol100(71~80).sol\":5337:5338  i */\n      dup5\n        /* \"Solidity100/sol100(71~80).sol\":5333:5339  num[i] */\n      0x03\n      dup2\n      lt\n      tag_34\n      jumpi\n      tag_35\n      tag_26\n      jump\t// in\n    tag_35:\n    tag_34:\n      0x20\n      mul\n      add\n        /* \"Solidity100/sol100(71~80).sol\":5341:5344  num */\n      dup6\n        /* \"Solidity100/sol100(71~80).sol\":5345:5346  j */\n      dup5\n        /* \"Solidity100/sol100(71~80).sol\":5341:5347  num[j] */\n      0x03\n      dup2\n      lt\n      tag_36\n      jumpi\n      tag_37\n      tag_26\n      jump\t// in\n    tag_37:\n    tag_36:\n      0x20\n      mul\n      add\n        /* \"Solidity100/sol100(71~80).sol\":5332:5367  (num[i], num[j]) = (num[j], num[i]) */\n      dup3\n      dup2\n      mstore\n      pop\n      dup3\n      dup2\n      mstore\n      pop\n      pop\n      pop\n        /* \"Solidity100/sol100(71~80).sol\":5289:5387  if(num[i] < num[j]) {... */\n    tag_29:\n        /* \"Solidity100/sol100(71~80).sol\":5265:5268  j++ */\n      dup1\n      dup1\n      0x01\n      add\n      swap2\n      pop\n      pop\n        /* \"Solidity100/sol100(71~80).sol\":5233:5402  for(uint j=i+1; j < num.length; j++) {... */\n      jump(tag_19)\n    tag_20:\n      pop\n        /* \"Solidity100/sol100(71~80).sol\":5213:5216  i++ */\n      dup1\n      dup1\n      0x01\n      add\n      swap2\n      pop\n      pop\n        /* \"Solidity100/sol100(71~80).sol\":5183:5413  for(uint i=0; i < num.length; i++) {... */\n      jump(tag_16)\n    tag_17:\n      pop\n        /* \"Solidity100/sol100(71~80).sol\":5432:5435  num */\n      dup1\n        /* \"Solidity100/sol100(71~80).sol\":5436:5437  0 */\n      0x00\n        /* \"Solidity100/sol100(71~80).sol\":5432:5438  num[0] */\n      0x03\n      dup2\n      lt\n      tag_38\n      jumpi\n      tag_39\n      tag_26\n      jump\t// in\n    tag_39:\n    tag_38:\n      0x20\n      mul\n      add\n      mload\n        /* \"Solidity100/sol100(71~80).sol\":5425:5438  return num[0] */\n      swap2\n      pop\n      pop\n        /* \"Solidity100/sol100(71~80).sol\":5062:5446  function biggest(uint _a, uint _b, uint _c) public pure returns(uint){... */\n      swap4\n      swap3\n      pop\n      pop\n      pop\n      jump\t// out\n        /* \"Solidity100/sol100(71~80).sol\":5613:5760  function setStudent(string memory _name, uint _number, uint _score, uint n) public {... */\n    tag_14:\n        /* \"Solidity100/sol100(71~80).sol\":5723:5752  student(_name,_number,_score) */\n      mload(0x40)\n      dup1\n      0x60\n      add\n      0x40\n      mstore\n      dup1\n        /* \"Solidity100/sol100(71~80).sol\":5731:5736  _name */\n      dup6\n        /* \"Solidity100/sol100(71~80).sol\":5723:5752  student(_name,_number,_score) */\n      dup2\n      mstore\n      0x20\n      add\n        /* \"Solidity100/sol100(71~80).sol\":5737:5744  _number */\n      dup5\n        /* \"Solidity100/sol100(71~80).sol\":5723:5752  student(_name,_number,_score) */\n      dup2\n      mstore\n      0x20\n      add\n        /* \"Solidity100/sol100(71~80).sol\":5745:5751  _score */\n      dup4\n        /* \"Solidity100/sol100(71~80).sol\":5723:5752  student(_name,_number,_score) */\n      dup2\n      mstore\n      pop\n        /* \"Solidity100/sol100(71~80).sol\":5707:5715  Students */\n      0x00\n        /* \"Solidity100/sol100(71~80).sol\":5718:5719  1 */\n      0x01\n        /* \"Solidity100/sol100(71~80).sol\":5716:5717  n */\n      dup4\n        /* \"Solidity100/sol100(71~80).sol\":5716:5719  n-1 */\n      tag_41\n      swap2\n      swap1\n      tag_42\n      jump\t// in\n    tag_41:\n        /* \"Solidity100/sol100(71~80).sol\":5707:5720  Students[n-1] */\n      0x03\n      dup2\n      lt\n      tag_43\n      jumpi\n      tag_44\n      tag_26\n      jump\t// in\n    tag_44:\n    tag_43:\n      0x03\n      mul\n      add\n        /* \"Solidity100/sol100(71~80).sol\":5707:5752  Students[n-1] = student(_name,_number,_score) */\n      0x00\n      dup3\n      add\n      mload\n      dup2\n      0x00\n      add\n      swap1\n      dup2\n      tag_46\n      swap2\n      swap1\n      tag_47\n      jump\t// in\n    tag_46:\n      pop\n      0x20\n      dup3\n      add\n      mload\n      dup2\n      0x01\n      add\n      sstore\n      0x40\n      dup3\n      add\n      mload\n      dup2\n      0x02\n      add\n      sstore\n      swap1\n      pop\n      pop\n        /* \"Solidity100/sol100(71~80).sol\":5613:5760  function setStudent(string memory _name, uint _number, uint _score, uint n) public {... */\n      pop\n      pop\n      pop\n      pop\n      jump\t// out\n        /* \"#utility.yul\":7:82   */\n    tag_48:\n        /* \"#utility.yul\":40:46   */\n      0x00\n        /* \"#utility.yul\":73:75   */\n      0x40\n        /* \"#utility.yul\":67:76   */\n      mload\n        /* \"#utility.yul\":57:76   */\n      swap1\n      pop\n        /* \"#utility.yul\":7:82   */\n      swap1\n      jump\t// out\n        /* \"#utility.yul\":88:205   */\n    tag_49:\n        /* \"#utility.yul\":197:198   */\n      0x00\n        /* \"#utility.yul\":194:195   */\n      dup1\n        /* \"#utility.yul\":187:199   */\n      revert\n        /* \"#utility.yul\":211:328   */\n    tag_50:\n        /* \"#utility.yul\":320:321   */\n      0x00\n        /* \"#utility.yul\":317:318   */\n      dup1\n        /* \"#utility.yul\":310:322   */\n      revert\n        /* \"#utility.yul\":334:411   */\n    tag_51:\n        /* \"#utility.yul\":371:378   */\n      0x00\n        /* \"#utility.yul\":400:405   */\n      dup2\n        /* \"#utility.yul\":389:405   */\n      swap1\n      pop\n        /* \"#utility.yul\":334:411   */\n      swap2\n      swap1\n      pop\n      jump\t// out\n        /* \"#utility.yul\":417:539   */\n    tag_52:\n        /* \"#utility.yul\":490:514   */\n      tag_90\n        /* \"#utility.yul\":508:513   */\n      dup2\n        /* \"#utility.yul\":490:514   */\n      tag_51\n      jump\t// in\n    tag_90:\n        /* \"#utility.yul\":483:488   */\n      dup2\n        /* \"#utility.yul\":480:515   */\n      eq\n        /* \"#utility.yul\":470:533   */\n      tag_91\n      jumpi\n        /* \"#utility.yul\":529:530   */\n      0x00\n        /* \"#utility.yul\":526:527   */\n      dup1\n        /* \"#utility.yul\":519:531   */\n      revert\n        /* \"#utility.yul\":470:533   */\n    tag_91:\n        /* \"#utility.yul\":417:539   */\n      pop\n      jump\t// out\n        /* \"#utility.yul\":545:684   */\n    tag_53:\n        /* \"#utility.yul\":591:596   */\n      0x00\n        /* \"#utility.yul\":629:635   */\n      dup2\n        /* \"#utility.yul\":616:636   */\n      calldataload\n        /* \"#utility.yul\":607:636   */\n      swap1\n      pop\n        /* \"#utility.yul\":645:678   */\n      tag_93\n        /* \"#utility.yul\":672:677   */\n      dup2\n        /* \"#utility.yul\":645:678   */\n      tag_52\n      jump\t// in\n    tag_93:\n        /* \"#utility.yul\":545:684   */\n      swap3\n      swap2\n      pop\n      pop\n      jump\t// out\n        /* \"#utility.yul\":690:1309   */\n    tag_7:\n        /* \"#utility.yul\":767:773   */\n      0x00\n        /* \"#utility.yul\":775:781   */\n      dup1\n        /* \"#utility.yul\":783:789   */\n      0x00\n        /* \"#utility.yul\":832:834   */\n      0x60\n        /* \"#utility.yul\":820:829   */\n      dup5\n        /* \"#utility.yul\":811:818   */\n      dup7\n        /* \"#utility.yul\":807:830   */\n      sub\n        /* \"#utility.yul\":803:835   */\n      slt\n        /* \"#utility.yul\":800:919   */\n      iszero\n      tag_95\n      jumpi\n        /* \"#utility.yul\":838:917   */\n      tag_96\n      tag_49\n      jump\t// in\n    tag_96:\n        /* \"#utility.yul\":800:919   */\n    tag_95:\n        /* \"#utility.yul\":958:959   */\n      0x00\n        /* \"#utility.yul\":983:1036   */\n      tag_97\n        /* \"#utility.yul\":1028:1035   */\n      dup7\n        /* \"#utility.yul\":1019:1025   */\n      dup3\n        /* \"#utility.yul\":1008:1017   */\n      dup8\n        /* \"#utility.yul\":1004:1026   */\n      add\n        /* \"#utility.yul\":983:1036   */\n      tag_53\n      jump\t// in\n    tag_97:\n        /* \"#utility.yul\":973:1036   */\n      swap4\n      pop\n        /* \"#utility.yul\":929:1046   */\n      pop\n        /* \"#utility.yul\":1085:1087   */\n      0x20\n        /* \"#utility.yul\":1111:1164   */\n      tag_98\n        /* \"#utility.yul\":1156:1163   */\n      dup7\n        /* \"#utility.yul\":1147:1153   */\n      dup3\n        /* \"#utility.yul\":1136:1145   */\n      dup8\n        /* \"#utility.yul\":1132:1154   */\n      add\n        /* \"#utility.yul\":1111:1164   */\n      tag_53\n      jump\t// in\n    tag_98:\n        /* \"#utility.yul\":1101:1164   */\n      swap3\n      pop\n        /* \"#utility.yul\":1056:1174   */\n      pop\n        /* \"#utility.yul\":1213:1215   */\n      0x40\n        /* \"#utility.yul\":1239:1292   */\n      tag_99\n        /* \"#utility.yul\":1284:1291   */\n      dup7\n        /* \"#utility.yul\":1275:1281   */\n      dup3\n        /* \"#utility.yul\":1264:1273   */\n      dup8\n        /* \"#utility.yul\":1260:1282   */\n      add\n        /* \"#utility.yul\":1239:1292   */\n      tag_53\n      jump\t// in\n    tag_99:\n        /* \"#utility.yul\":1229:1292   */\n      swap2\n      pop\n        /* \"#utility.yul\":1184:1302   */\n      pop\n        /* \"#utility.yul\":690:1309   */\n      swap3\n      pop\n      swap3\n      pop\n      swap3\n      jump\t// out\n        /* \"#utility.yul\":1315:1433   */\n    tag_54:\n        /* \"#utility.yul\":1402:1426   */\n      tag_101\n        /* \"#utility.yul\":1420:1425   */\n      dup2\n        /* \"#utility.yul\":1402:1426   */\n      tag_51\n      jump\t// in\n    tag_101:\n        /* \"#utility.yul\":1397:1400   */\n      dup3\n        /* \"#utility.yul\":1390:1427   */\n      mstore\n        /* \"#utility.yul\":1315:1433   */\n      pop\n      pop\n      jump\t// out\n        /* \"#utility.yul\":1439:1661   */\n    tag_10:\n        /* \"#utility.yul\":1532:1536   */\n      0x00\n        /* \"#utility.yul\":1570:1572   */\n      0x20\n        /* \"#utility.yul\":1559:1568   */\n      dup3\n        /* \"#utility.yul\":1555:1573   */\n      add\n        /* \"#utility.yul\":1547:1573   */\n      swap1\n      pop\n        /* \"#utility.yul\":1583:1654   */\n      tag_103\n        /* \"#utility.yul\":1651:1652   */\n      0x00\n        /* \"#utility.yul\":1640:1649   */\n      dup4\n        /* \"#utility.yul\":1636:1653   */\n      add\n        /* \"#utility.yul\":1627:1633   */\n      dup5\n        /* \"#utility.yul\":1583:1654   */\n      tag_54\n      jump\t// in\n    tag_103:\n        /* \"#utility.yul\":1439:1661   */\n      swap3\n      swap2\n      pop\n      pop\n      jump\t// out\n        /* \"#utility.yul\":1667:1784   */\n    tag_55:\n        /* \"#utility.yul\":1776:1777   */\n      0x00\n        /* \"#utility.yul\":1773:1774   */\n      dup1\n        /* \"#utility.yul\":1766:1778   */\n      revert\n        /* \"#utility.yul\":1790:1907   */\n    tag_56:\n        /* \"#utility.yul\":1899:1900   */\n      0x00\n        /* \"#utility.yul\":1896:1897   */\n      dup1\n        /* \"#utility.yul\":1889:1901   */\n      revert\n        /* \"#utility.yul\":1913:2015   */\n    tag_57:\n        /* \"#utility.yul\":1954:1960   */\n      0x00\n        /* \"#utility.yul\":2005:2007   */\n      0x1f\n        /* \"#utility.yul\":2001:2008   */\n      not\n        /* \"#utility.yul\":1996:1998   */\n      0x1f\n        /* \"#utility.yul\":1989:1994   */\n      dup4\n        /* \"#utility.yul\":1985:1999   */\n      add\n        /* \"#utility.yul\":1981:2009   */\n      and\n        /* \"#utility.yul\":1971:2009   */\n      swap1\n      pop\n        /* \"#utility.yul\":1913:2015   */\n      swap2\n      swap1\n      pop\n      jump\t// out\n        /* \"#utility.yul\":2021:2201   */\n    tag_58:\n        /* \"#utility.yul\":2069:2146   */\n      0x4e487b7100000000000000000000000000000000000000000000000000000000\n        /* \"#utility.yul\":2066:2067   */\n      0x00\n        /* \"#utility.yul\":2059:2147   */\n      mstore\n        /* \"#utility.yul\":2166:2170   */\n      0x41\n        /* \"#utility.yul\":2163:2164   */\n      0x04\n        /* \"#utility.yul\":2156:2171   */\n      mstore\n        /* \"#utility.yul\":2190:2194   */\n      0x24\n        /* \"#utility.yul\":2187:2188   */\n      0x00\n        /* \"#utility.yul\":2180:2195   */\n      revert\n        /* \"#utility.yul\":2207:2488   */\n    tag_59:\n        /* \"#utility.yul\":2290:2317   */\n      tag_109\n        /* \"#utility.yul\":2312:2316   */\n      dup3\n        /* \"#utility.yul\":2290:2317   */\n      tag_57\n      jump\t// in\n    tag_109:\n        /* \"#utility.yul\":2282:2288   */\n      dup2\n        /* \"#utility.yul\":2278:2318   */\n      add\n        /* \"#utility.yul\":2420:2426   */\n      dup2\n        /* \"#utility.yul\":2408:2418   */\n      dup2\n        /* \"#utility.yul\":2405:2427   */\n      lt\n        /* \"#utility.yul\":2384:2402   */\n      0xffffffffffffffff\n        /* \"#utility.yul\":2372:2382   */\n      dup3\n        /* \"#utility.yul\":2369:2403   */\n      gt\n        /* \"#utility.yul\":2366:2428   */\n      or\n        /* \"#utility.yul\":2363:2451   */\n      iszero\n      tag_110\n      jumpi\n        /* \"#utility.yul\":2431:2449   */\n      tag_111\n      tag_58\n      jump\t// in\n    tag_111:\n        /* \"#utility.yul\":2363:2451   */\n    tag_110:\n        /* \"#utility.yul\":2471:2481   */\n      dup1\n        /* \"#utility.yul\":2467:2469   */\n      0x40\n        /* \"#utility.yul\":2460:2482   */\n      mstore\n        /* \"#utility.yul\":2250:2488   */\n      pop\n        /* \"#utility.yul\":2207:2488   */\n      pop\n      pop\n      jump\t// out\n        /* \"#utility.yul\":2494:2623   */\n    tag_60:\n        /* \"#utility.yul\":2528:2534   */\n      0x00\n        /* \"#utility.yul\":2555:2575   */\n      tag_113\n      tag_48\n      jump\t// in\n    tag_113:\n        /* \"#utility.yul\":2545:2575   */\n      swap1\n      pop\n        /* \"#utility.yul\":2584:2617   */\n      tag_114\n        /* \"#utility.yul\":2612:2616   */\n      dup3\n        /* \"#utility.yul\":2604:2610   */\n      dup3\n        /* \"#utility.yul\":2584:2617   */\n      tag_59\n      jump\t// in\n    tag_114:\n        /* \"#utility.yul\":2494:2623   */\n      swap2\n      swap1\n      pop\n      jump\t// out\n        /* \"#utility.yul\":2629:2937   */\n    tag_61:\n        /* \"#utility.yul\":2691:2695   */\n      0x00\n        /* \"#utility.yul\":2781:2799   */\n      0xffffffffffffffff\n        /* \"#utility.yul\":2773:2779   */\n      dup3\n        /* \"#utility.yul\":2770:2800   */\n      gt\n        /* \"#utility.yul\":2767:2823   */\n      iszero\n      tag_116\n      jumpi\n        /* \"#utility.yul\":2803:2821   */\n      tag_117\n      tag_58\n      jump\t// in\n    tag_117:\n        /* \"#utility.yul\":2767:2823   */\n    tag_116:\n        /* \"#utility.yul\":2841:2870   */\n      tag_118\n        /* \"#utility.yul\":2863:2869   */\n      dup3\n        /* \"#utility.yul\":2841:2870   */\n      tag_57\n      jump\t// in\n    tag_118:\n        /* \"#utility.yul\":2833:2870   */\n      swap1\n      pop\n        /* \"#utility.yul\":2925:2929   */\n      0x20\n        /* \"#utility.yul\":2919:2923   */\n      dup2\n        /* \"#utility.yul\":2915:2930   */\n      add\n        /* \"#utility.yul\":2907:2930   */\n      swap1\n      pop\n        /* \"#utility.yul\":2629:2937   */\n      swap2\n      swap1\n      pop\n      jump\t// out\n        /* \"#utility.yul\":2943:3091   */\n    tag_62:\n        /* \"#utility.yul\":3041:3047   */\n      dup3\n        /* \"#utility.yul\":3036:3039   */\n      dup2\n        /* \"#utility.yul\":3031:3034   */\n      dup4\n        /* \"#utility.yul\":3018:3048   */\n      calldatacopy\n        /* \"#utility.yul\":3082:3083   */\n      0x00\n        /* \"#utility.yul\":3073:3079   */\n      dup4\n        /* \"#utility.yul\":3068:3071   */\n      dup4\n        /* \"#utility.yul\":3064:3080   */\n      add\n        /* \"#utility.yul\":3057:3084   */\n      mstore\n        /* \"#utility.yul\":2943:3091   */\n      pop\n      pop\n      pop\n      jump\t// out\n        /* \"#utility.yul\":3097:3522   */\n    tag_63:\n        /* \"#utility.yul\":3175:3180   */\n      0x00\n        /* \"#utility.yul\":3200:3266   */\n      tag_121\n        /* \"#utility.yul\":3216:3265   */\n      tag_122\n        /* \"#utility.yul\":3258:3264   */\n      dup5\n        /* \"#utility.yul\":3216:3265   */\n      tag_61\n      jump\t// in\n    tag_122:\n        /* \"#utility.yul\":3200:3266   */\n      tag_60\n      jump\t// in\n    tag_121:\n        /* \"#utility.yul\":3191:3266   */\n      swap1\n      pop\n        /* \"#utility.yul\":3289:3295   */\n      dup3\n        /* \"#utility.yul\":3282:3287   */\n      dup2\n        /* \"#utility.yul\":3275:3296   */\n      mstore\n        /* \"#utility.yul\":3327:3331   */\n      0x20\n        /* \"#utility.yul\":3320:3325   */\n      dup2\n        /* \"#utility.yul\":3316:3332   */\n      add\n        /* \"#utility.yul\":3365:3368   */\n      dup5\n        /* \"#utility.yul\":3356:3362   */\n      dup5\n        /* \"#utility.yul\":3351:3354   */\n      dup5\n        /* \"#utility.yul\":3347:3363   */\n      add\n        /* \"#utility.yul\":3344:3369   */\n      gt\n        /* \"#utility.yul\":3341:3453   */\n      iszero\n      tag_123\n      jumpi\n        /* \"#utility.yul\":3372:3451   */\n      tag_124\n      tag_56\n      jump\t// in\n    tag_124:\n        /* \"#utility.yul\":3341:3453   */\n    tag_123:\n        /* \"#utility.yul\":3462:3516   */\n      tag_125\n        /* \"#utility.yul\":3509:3515   */\n      dup5\n        /* \"#utility.yul\":3504:3507   */\n      dup3\n        /* \"#utility.yul\":3499:3502   */\n      dup6\n        /* \"#utility.yul\":3462:3516   */\n      tag_62\n      jump\t// in\n    tag_125:\n        /* \"#utility.yul\":3181:3522   */\n      pop\n        /* \"#utility.yul\":3097:3522   */\n      swap4\n      swap3\n      pop\n      pop\n      pop\n      jump\t// out\n        /* \"#utility.yul\":3542:3882   */\n    tag_64:\n        /* \"#utility.yul\":3598:3603   */\n      0x00\n        /* \"#utility.yul\":3647:3650   */\n      dup3\n        /* \"#utility.yul\":3640:3644   */\n      0x1f\n        /* \"#utility.yul\":3632:3638   */\n      dup4\n        /* \"#utility.yul\":3628:3645   */\n      add\n        /* \"#utility.yul\":3624:3651   */\n      slt\n        /* \"#utility.yul\":3614:3736   */\n      tag_127\n      jumpi\n        /* \"#utility.yul\":3655:3734   */\n      tag_128\n      tag_55\n      jump\t// in\n    tag_128:\n        /* \"#utility.yul\":3614:3736   */\n    tag_127:\n        /* \"#utility.yul\":3772:3778   */\n      dup2\n        /* \"#utility.yul\":3759:3779   */\n      calldataload\n        /* \"#utility.yul\":3797:3876   */\n      tag_129\n        /* \"#utility.yul\":3872:3875   */\n      dup5\n        /* \"#utility.yul\":3864:3870   */\n      dup3\n        /* \"#utility.yul\":3857:3861   */\n      0x20\n        /* \"#utility.yul\":3849:3855   */\n      dup7\n        /* \"#utility.yul\":3845:3862   */\n      add\n        /* \"#utility.yul\":3797:3876   */\n      tag_63\n      jump\t// in\n    tag_129:\n        /* \"#utility.yul\":3788:3876   */\n      swap2\n      pop\n        /* \"#utility.yul\":3604:3882   */\n      pop\n        /* \"#utility.yul\":3542:3882   */\n      swap3\n      swap2\n      pop\n      pop\n      jump\t// out\n        /* \"#utility.yul\":3888:4833   */\n    tag_13:\n        /* \"#utility.yul\":3984:3990   */\n      0x00\n        /* \"#utility.yul\":3992:3998   */\n      dup1\n        /* \"#utility.yul\":4000:4006   */\n      0x00\n        /* \"#utility.yul\":4008:4014   */\n      dup1\n        /* \"#utility.yul\":4057:4060   */\n      0x80\n        /* \"#utility.yul\":4045:4054   */\n      dup6\n        /* \"#utility.yul\":4036:4043   */\n      dup8\n        /* \"#utility.yul\":4032:4055   */\n      sub\n        /* \"#utility.yul\":4028:4061   */\n      slt\n        /* \"#utility.yul\":4025:4145   */\n      iszero\n      tag_131\n      jumpi\n        /* \"#utility.yul\":4064:4143   */\n      tag_132\n      tag_49\n      jump\t// in\n    tag_132:\n        /* \"#utility.yul\":4025:4145   */\n    tag_131:\n        /* \"#utility.yul\":4212:4213   */\n      0x00\n        /* \"#utility.yul\":4201:4210   */\n      dup6\n        /* \"#utility.yul\":4197:4214   */\n      add\n        /* \"#utility.yul\":4184:4215   */\n      calldataload\n        /* \"#utility.yul\":4242:4260   */\n      0xffffffffffffffff\n        /* \"#utility.yul\":4234:4240   */\n      dup2\n        /* \"#utility.yul\":4231:4261   */\n      gt\n        /* \"#utility.yul\":4228:4345   */\n      iszero\n      tag_133\n      jumpi\n        /* \"#utility.yul\":4264:4343   */\n      tag_134\n      tag_50\n      jump\t// in\n    tag_134:\n        /* \"#utility.yul\":4228:4345   */\n    tag_133:\n        /* \"#utility.yul\":4369:4432   */\n      tag_135\n        /* \"#utility.yul\":4424:4431   */\n      dup8\n        /* \"#utility.yul\":4415:4421   */\n      dup3\n        /* \"#utility.yul\":4404:4413   */\n      dup9\n        /* \"#utility.yul\":4400:4422   */\n      add\n        /* \"#utility.yul\":4369:4432   */\n      tag_64\n      jump\t// in\n    tag_135:\n        /* \"#utility.yul\":4359:4432   */\n      swap5\n      pop\n        /* \"#utility.yul\":4155:4442   */\n      pop\n        /* \"#utility.yul\":4481:4483   */\n      0x20\n        /* \"#utility.yul\":4507:4560   */\n      tag_136\n        /* \"#utility.yul\":4552:4559   */\n      dup8\n        /* \"#utility.yul\":4543:4549   */\n      dup3\n        /* \"#utility.yul\":4532:4541   */\n      dup9\n        /* \"#utility.yul\":4528:4550   */\n      add\n        /* \"#utility.yul\":4507:4560   */\n      tag_53\n      jump\t// in\n    tag_136:\n        /* \"#utility.yul\":4497:4560   */\n      swap4\n      pop\n        /* \"#utility.yul\":4452:4570   */\n      pop\n        /* \"#utility.yul\":4609:4611   */\n      0x40\n        /* \"#utility.yul\":4635:4688   */\n      tag_137\n        /* \"#utility.yul\":4680:4687   */\n      dup8\n        /* \"#utility.yul\":4671:4677   */\n      dup3\n        /* \"#utility.yul\":4660:4669   */\n      dup9\n        /* \"#utility.yul\":4656:4678   */\n      add\n        /* \"#utility.yul\":4635:4688   */\n      tag_53\n      jump\t// in\n    tag_137:\n        /* \"#utility.yul\":4625:4688   */\n      swap3\n      pop\n        /* \"#utility.yul\":4580:4698   */\n      pop\n        /* \"#utility.yul\":4737:4739   */\n      0x60\n        /* \"#utility.yul\":4763:4816   */\n      tag_138\n        /* \"#utility.yul\":4808:4815   */\n      dup8\n        /* \"#utility.yul\":4799:4805   */\n      dup3\n        /* \"#utility.yul\":4788:4797   */\n      dup9\n        /* \"#utility.yul\":4784:4806   */\n      add\n        /* \"#utility.yul\":4763:4816   */\n      tag_53\n      jump\t// in\n    tag_138:\n        /* \"#utility.yul\":4753:4816   */\n      swap2\n      pop\n        /* \"#utility.yul\":4708:4826   */\n      pop\n        /* \"#utility.yul\":3888:4833   */\n      swap3\n      swap6\n      swap2\n      swap5\n      pop\n      swap3\n      pop\n      jump\t// out\n        /* \"#utility.yul\":4839:5019   */\n    tag_65:\n        /* \"#utility.yul\":4887:4964   */\n      0x4e487b7100000000000000000000000000000000000000000000000000000000\n        /* \"#utility.yul\":4884:4885   */\n      0x00\n        /* \"#utility.yul\":4877:4965   */\n      mstore\n        /* \"#utility.yul\":4984:4988   */\n      0x11\n        /* \"#utility.yul\":4981:4982   */\n      0x04\n        /* \"#utility.yul\":4974:4989   */\n      mstore\n        /* \"#utility.yul\":5008:5012   */\n      0x24\n        /* \"#utility.yul\":5005:5006   */\n      0x00\n        /* \"#utility.yul\":4998:5013   */\n      revert\n        /* \"#utility.yul\":5025:5216   */\n    tag_23:\n        /* \"#utility.yul\":5065:5068   */\n      0x00\n        /* \"#utility.yul\":5084:5104   */\n      tag_141\n        /* \"#utility.yul\":5102:5103   */\n      dup3\n        /* \"#utility.yul\":5084:5104   */\n      tag_51\n      jump\t// in\n    tag_141:\n        /* \"#utility.yul\":5079:5104   */\n      swap2\n      pop\n        /* \"#utility.yul\":5118:5138   */\n      tag_142\n        /* \"#utility.yul\":5136:5137   */\n      dup4\n        /* \"#utility.yul\":5118:5138   */\n      tag_51\n      jump\t// in\n    tag_142:\n        /* \"#utility.yul\":5113:5138   */\n      swap3\n      pop\n        /* \"#utility.yul\":5161:5162   */\n      dup3\n        /* \"#utility.yul\":5158:5159   */\n      dup3\n        /* \"#utility.yul\":5154:5163   */\n      add\n        /* \"#utility.yul\":5147:5163   */\n      swap1\n      pop\n        /* \"#utility.yul\":5182:5185   */\n      dup1\n        /* \"#utility.yul\":5179:5180   */\n      dup3\n        /* \"#utility.yul\":5176:5186   */\n      gt\n        /* \"#utility.yul\":5173:5209   */\n      iszero\n      tag_143\n      jumpi\n        /* \"#utility.yul\":5189:5207   */\n      tag_144\n      tag_65\n      jump\t// in\n    tag_144:\n        /* \"#utility.yul\":5173:5209   */\n    tag_143:\n        /* \"#utility.yul\":5025:5216   */\n      swap3\n      swap2\n      pop\n      pop\n      jump\t// out\n        /* \"#utility.yul\":5222:5402   */\n    tag_26:\n        /* \"#utility.yul\":5270:5347   */\n      0x4e487b7100000000000000000000000000000000000000000000000000000000\n        /* \"#utility.yul\":5267:5268   */\n      0x00\n        /* \"#utility.yul\":5260:5348   */\n      mstore\n        /* \"#utility.yul\":5367:5371   */\n      0x32\n        /* \"#utility.yul\":5364:5365   */\n      0x04\n        /* \"#utility.yul\":5357:5372   */\n      mstore\n        /* \"#utility.yul\":5391:5395   */\n      0x24\n        /* \"#utility.yul\":5388:5389   */\n      0x00\n        /* \"#utility.yul\":5381:5396   */\n      revert\n        /* \"#utility.yul\":5408:5602   */\n    tag_42:\n        /* \"#utility.yul\":5448:5452   */\n      0x00\n        /* \"#utility.yul\":5468:5488   */\n      tag_147\n        /* \"#utility.yul\":5486:5487   */\n      dup3\n        /* \"#utility.yul\":5468:5488   */\n      tag_51\n      jump\t// in\n    tag_147:\n        /* \"#utility.yul\":5463:5488   */\n      swap2\n      pop\n        /* \"#utility.yul\":5502:5522   */\n      tag_148\n        /* \"#utility.yul\":5520:5521   */\n      dup4\n        /* \"#utility.yul\":5502:5522   */\n      tag_51\n      jump\t// in\n    tag_148:\n        /* \"#utility.yul\":5497:5522   */\n      swap3\n      pop\n        /* \"#utility.yul\":5546:5547   */\n      dup3\n        /* \"#utility.yul\":5543:5544   */\n      dup3\n        /* \"#utility.yul\":5539:5548   */\n      sub\n        /* \"#utility.yul\":5531:5548   */\n      swap1\n      pop\n        /* \"#utility.yul\":5570:5571   */\n      dup2\n        /* \"#utility.yul\":5564:5568   */\n      dup2\n        /* \"#utility.yul\":5561:5572   */\n      gt\n        /* \"#utility.yul\":5558:5595   */\n      iszero\n      tag_149\n      jumpi\n        /* \"#utility.yul\":5575:5593   */\n      tag_150\n      tag_65\n      jump\t// in\n    tag_150:\n        /* \"#utility.yul\":5558:5595   */\n    tag_149:\n        /* \"#utility.yul\":5408:5602   */\n      swap3\n      swap2\n      pop\n      pop\n      jump\t// out\n        /* \"#utility.yul\":5608:5707   */\n    tag_66:\n        /* \"#utility.yul\":5660:5666   */\n      0x00\n        /* \"#utility.yul\":5694:5699   */\n      dup2\n        /* \"#utility.yul\":5688:5700   */\n      mload\n        /* \"#utility.yul\":5678:5700   */\n      swap1\n      pop\n        /* \"#utility.yul\":5608:5707   */\n      swap2\n      swap1\n      pop\n      jump\t// out\n        /* \"#utility.yul\":5713:5893   */\n    tag_67:\n        /* \"#utility.yul\":5761:5838   */\n      0x4e487b7100000000000000000000000000000000000000000000000000000000\n        /* \"#utility.yul\":5758:5759   */\n      0x00\n        /* \"#utility.yul\":5751:5839   */\n      mstore\n        /* \"#utility.yul\":5858:5862   */\n      0x22\n        /* \"#utility.yul\":5855:5856   */\n      0x04\n        /* \"#utility.yul\":5848:5863   */\n      mstore\n        /* \"#utility.yul\":5882:5886   */\n      0x24\n        /* \"#utility.yul\":5879:5880   */\n      0x00\n        /* \"#utility.yul\":5872:5887   */\n      revert\n        /* \"#utility.yul\":5899:6219   */\n    tag_68:\n        /* \"#utility.yul\":5943:5949   */\n      0x00\n        /* \"#utility.yul\":5980:5981   */\n      0x02\n        /* \"#utility.yul\":5974:5978   */\n      dup3\n        /* \"#utility.yul\":5970:5982   */\n      div\n        /* \"#utility.yul\":5960:5982   */\n      swap1\n      pop\n        /* \"#utility.yul\":6027:6028   */\n      0x01\n        /* \"#utility.yul\":6021:6025   */\n      dup3\n        /* \"#utility.yul\":6017:6029   */\n      and\n        /* \"#utility.yul\":6048:6066   */\n      dup1\n        /* \"#utility.yul\":6038:6119   */\n      tag_154\n      jumpi\n        /* \"#utility.yul\":6104:6108   */\n      0x7f\n        /* \"#utility.yul\":6096:6102   */\n      dup3\n        /* \"#utility.yul\":6092:6109   */\n      and\n        /* \"#utility.yul\":6082:6109   */\n      swap2\n      pop\n        /* \"#utility.yul\":6038:6119   */\n    tag_154:\n        /* \"#utility.yul\":6166:6168   */\n      0x20\n        /* \"#utility.yul\":6158:6164   */\n      dup3\n        /* \"#utility.yul\":6155:6169   */\n      lt\n        /* \"#utility.yul\":6135:6153   */\n      dup2\n        /* \"#utility.yul\":6132:6170   */\n      sub\n        /* \"#utility.yul\":6129:6213   */\n      tag_155\n      jumpi\n        /* \"#utility.yul\":6185:6203   */\n      tag_156\n      tag_67\n      jump\t// in\n    tag_156:\n        /* \"#utility.yul\":6129:6213   */\n    tag_155:\n        /* \"#utility.yul\":5950:6219   */\n      pop\n        /* \"#utility.yul\":5899:6219   */\n      swap2\n      swap1\n      pop\n      jump\t// out\n        /* \"#utility.yul\":6225:6366   */\n    tag_69:\n        /* \"#utility.yul\":6274:6278   */\n      0x00\n        /* \"#utility.yul\":6297:6300   */\n      dup2\n        /* \"#utility.yul\":6289:6300   */\n      swap1\n      pop\n        /* \"#utility.yul\":6320:6323   */\n      dup2\n        /* \"#utility.yul\":6317:6318   */\n      0x00\n        /* \"#utility.yul\":6310:6324   */\n      mstore\n        /* \"#utility.yul\":6354:6358   */\n      0x20\n        /* \"#utility.yul\":6351:6352   */\n      0x00\n        /* \"#utility.yul\":6341:6359   */\n      keccak256\n        /* \"#utility.yul\":6333:6359   */\n      swap1\n      pop\n        /* \"#utility.yul\":6225:6366   */\n      swap2\n      swap1\n      pop\n      jump\t// out\n        /* \"#utility.yul\":6372:6465   */\n    tag_70:\n        /* \"#utility.yul\":6409:6415   */\n      0x00\n        /* \"#utility.yul\":6456:6458   */\n      0x20\n        /* \"#utility.yul\":6451:6453   */\n      0x1f\n        /* \"#utility.yul\":6444:6449   */\n      dup4\n        /* \"#utility.yul\":6440:6454   */\n      add\n        /* \"#utility.yul\":6436:6459   */\n      div\n        /* \"#utility.yul\":6426:6459   */\n      swap1\n      pop\n        /* \"#utility.yul\":6372:6465   */\n      swap2\n      swap1\n      pop\n      jump\t// out\n        /* \"#utility.yul\":6471:6578   */\n    tag_71:\n        /* \"#utility.yul\":6515:6523   */\n      0x00\n        /* \"#utility.yul\":6565:6570   */\n      dup3\n        /* \"#utility.yul\":6559:6563   */\n      dup3\n        /* \"#utility.yul\":6555:6571   */\n      shl\n        /* \"#utility.yul\":6534:6571   */\n      swap1\n      pop\n        /* \"#utility.yul\":6471:6578   */\n      swap3\n      swap2\n      pop\n      pop\n      jump\t// out\n        /* \"#utility.yul\":6584:6977   */\n    tag_72:\n        /* \"#utility.yul\":6653:6659   */\n      0x00\n        /* \"#utility.yul\":6703:6704   */\n      0x08\n        /* \"#utility.yul\":6691:6701   */\n      dup4\n        /* \"#utility.yul\":6687:6705   */\n      mul\n        /* \"#utility.yul\":6726:6823   */\n      tag_161\n        /* \"#utility.yul\":6756:6822   */\n      0xffffffffffffffffffffffffffffffffffffffffffffffffffffffffffffffff\n        /* \"#utility.yul\":6745:6754   */\n      dup3\n        /* \"#utility.yul\":6726:6823   */\n      tag_71\n      jump\t// in\n    tag_161:\n        /* \"#utility.yul\":6844:6883   */\n      tag_162\n        /* \"#utility.yul\":6874:6882   */\n      dup7\n        /* \"#utility.yul\":6863:6872   */\n      dup4\n        /* \"#utility.yul\":6844:6883   */\n      tag_71\n      jump\t// in\n    tag_162:\n        /* \"#utility.yul\":6832:6883   */\n      swap6\n      pop\n        /* \"#utility.yul\":6916:6920   */\n      dup1\n        /* \"#utility.yul\":6912:6921   */\n      not\n        /* \"#utility.yul\":6905:6910   */\n      dup5\n        /* \"#utility.yul\":6901:6922   */\n      and\n        /* \"#utility.yul\":6892:6922   */\n      swap4\n      pop\n        /* \"#utility.yul\":6965:6969   */\n      dup1\n        /* \"#utility.yul\":6955:6963   */\n      dup7\n        /* \"#utility.yul\":6951:6970   */\n      and\n        /* \"#utility.yul\":6944:6949   */\n      dup5\n        /* \"#utility.yul\":6941:6971   */\n      or\n        /* \"#utility.yul\":6931:6971   */\n      swap3\n      pop\n        /* \"#utility.yul\":6660:6977   */\n      pop\n      pop\n        /* \"#utility.yul\":6584:6977   */\n      swap4\n      swap3\n      pop\n      pop\n      pop\n      jump\t// out\n        /* \"#utility.yul\":6983:7043   */\n    tag_73:\n        /* \"#utility.yul\":7011:7014   */\n      0x00\n        /* \"#utility.yul\":7032:7037   */\n      dup2\n        /* \"#utility.yul\":7025:7037   */\n      swap1\n      pop\n        /* \"#utility.yul\":6983:7043   */\n      swap2\n      swap1\n      pop\n      jump\t// out\n        /* \"#utility.yul\":7049:7191   */\n    tag_74:\n        /* \"#utility.yul\":7099:7108   */\n      0x00\n        /* \"#utility.yul\":7132:7185   */\n      tag_165\n        /* \"#utility.yul\":7150:7184   */\n      tag_166\n        /* \"#utility.yul\":7159:7183   */\n      tag_167\n        /* \"#utility.yul\":7177:7182   */\n      dup5\n        /* \"#utility.yul\":7159:7183   */\n      tag_51\n      jump\t// in\n    tag_167:\n        /* \"#utility.yul\":7150:7184   */\n      tag_73\n      jump\t// in\n    tag_166:\n        /* \"#utility.yul\":7132:7185   */\n      tag_51\n      jump\t// in\n    tag_165:\n        /* \"#utility.yul\":7119:7185   */\n      swap1\n      pop\n        /* \"#utility.yul\":7049:7191   */\n      swap2\n      swap1\n      pop\n      jump\t// out\n        /* \"#utility.yul\":7197:7272   */\n    tag_75:\n        /* \"#utility.yul\":7240:7243   */\n      0x00\n        /* \"#utility.yul\":7261:7266   */\n      dup2\n        /* \"#utility.yul\":7254:7266   */\n      swap1\n      pop\n        /* \"#utility.yul\":7197:7272   */\n      swap2\n      swap1\n      pop\n      jump\t// out\n        /* \"#utility.yul\":7278:7547   */\n    tag_76:\n        /* \"#utility.yul\":7388:7427   */\n      tag_170\n        /* \"#utility.yul\":7419:7426   */\n      dup4\n        /* \"#utility.yul\":7388:7427   */\n      tag_74\n      jump\t// in\n    tag_170:\n        /* \"#utility.yul\":7449:7540   */\n      tag_171\n        /* \"#utility.yul\":7498:7539   */\n      tag_172\n        /* \"#utility.yul\":7522:7538   */\n      dup3\n        /* \"#utility.yul\":7498:7539   */\n      tag_75\n      jump\t// in\n    tag_172:\n        /* \"#utility.yul\":7490:7496   */\n      dup5\n        /* \"#utility.yul\":7483:7487   */\n      dup5\n        /* \"#utility.yul\":7477:7488   */\n      sload\n        /* \"#utility.yul\":7449:7540   */\n      tag_72\n      jump\t// in\n    tag_171:\n        /* \"#utility.yul\":7443:7447   */\n      dup3\n        /* \"#utility.yul\":7436:7541   */\n      sstore\n        /* \"#utility.yul\":7354:7547   */\n      pop\n        /* \"#utility.yul\":7278:7547   */\n      pop\n      pop\n      pop\n      jump\t// out\n        /* \"#utility.yul\":7553:7626   */\n    tag_77:\n        /* \"#utility.yul\":7598:7601   */\n      0x00\n        /* \"#utility.yul\":7553:7626   */\n      swap1\n      jump\t// out\n        /* \"#utility.yul\":7632:7821   */\n    tag_78:\n        /* \"#utility.yul\":7709:7741   */\n      tag_175\n      tag_77\n      jump\t// in\n    tag_175:\n        /* \"#utility.yul\":7750:7815   */\n      tag_176\n        /* \"#utility.yul\":7808:7814   */\n      dup2\n        /* \"#utility.yul\":7800:7806   */\n      dup5\n        /* \"#utility.yul\":7794:7798   */\n      dup5\n        /* \"#utility.yul\":7750:7815   */\n      tag_76\n      jump\t// in\n    tag_176:\n        /* \"#utility.yul\":7685:7821   */\n      pop\n        /* \"#utility.yul\":7632:7821   */\n      pop\n      pop\n      jump\t// out\n        /* \"#utility.yul\":7827:8013   */\n    tag_79:\n        /* \"#utility.yul\":7887:8007   */\n    tag_178:\n        /* \"#utility.yul\":7904:7907   */\n      dup2\n        /* \"#utility.yul\":7897:7902   */\n      dup2\n        /* \"#utility.yul\":7894:7908   */\n      lt\n        /* \"#utility.yul\":7887:8007   */\n      iszero\n      tag_180\n      jumpi\n        /* \"#utility.yul\":7958:7997   */\n      tag_181\n        /* \"#utility.yul\":7995:7996   */\n      0x00\n        /* \"#utility.yul\":7988:7993   */\n      dup3\n        /* \"#utility.yul\":7958:7997   */\n      tag_78\n      jump\t// in\n    tag_181:\n        /* \"#utility.yul\":7931:7932   */\n      0x01\n        /* \"#utility.yul\":7924:7929   */\n      dup2\n        /* \"#utility.yul\":7920:7933   */\n      add\n        /* \"#utility.yul\":7911:7933   */\n      swap1\n      pop\n        /* \"#utility.yul\":7887:8007   */\n      jump(tag_178)\n    tag_180:\n        /* \"#utility.yul\":7827:8013   */\n      pop\n      pop\n      jump\t// out\n        /* \"#utility.yul\":8019:8562   */\n    tag_80:\n        /* \"#utility.yul\":8120:8122   */\n      0x1f\n        /* \"#utility.yul\":8115:8118   */\n      dup3\n        /* \"#utility.yul\":8112:8123   */\n      gt\n        /* \"#utility.yul\":8109:8555   */\n      iszero\n      tag_183\n      jumpi\n        /* \"#utility.yul\":8154:8192   */\n      tag_184\n        /* \"#utility.yul\":8186:8191   */\n      dup2\n        /* \"#utility.yul\":8154:8192   */\n      tag_69\n      jump\t// in\n    tag_184:\n        /* \"#utility.yul\":8238:8267   */\n      tag_185\n        /* \"#utility.yul\":8256:8266   */\n      dup5\n        /* \"#utility.yul\":8238:8267   */\n      tag_70\n      jump\t// in\n    tag_185:\n        /* \"#utility.yul\":8228:8236   */\n      dup2\n        /* \"#utility.yul\":8224:8268   */\n      add\n        /* \"#utility.yul\":8421:8423   */\n      0x20\n        /* \"#utility.yul\":8409:8419   */\n      dup6\n        /* \"#utility.yul\":8406:8424   */\n      lt\n        /* \"#utility.yul\":8403:8452   */\n      iszero\n      tag_186\n      jumpi\n        /* \"#utility.yul\":8442:8450   */\n      dup2\n        /* \"#utility.yul\":8427:8450   */\n      swap1\n      pop\n        /* \"#utility.yul\":8403:8452   */\n    tag_186:\n        /* \"#utility.yul\":8465:8545   */\n      tag_187\n        /* \"#utility.yul\":8521:8543   */\n      tag_188\n        /* \"#utility.yul\":8539:8542   */\n      dup6\n        /* \"#utility.yul\":8521:8543   */\n      tag_70\n      jump\t// in\n    tag_188:\n        /* \"#utility.yul\":8511:8519   */\n      dup4\n        /* \"#utility.yul\":8507:8544   */\n      add\n        /* \"#utility.yul\":8494:8505   */\n      dup3\n        /* \"#utility.yul\":8465:8545   */\n      tag_79\n      jump\t// in\n    tag_187:\n        /* \"#utility.yul\":8124:8555   */\n      pop\n      pop\n        /* \"#utility.yul\":8109:8555   */\n    tag_183:\n        /* \"#utility.yul\":8019:8562   */\n      pop\n      pop\n      pop\n      jump\t// out\n        /* \"#utility.yul\":8568:8685   */\n    tag_81:\n        /* \"#utility.yul\":8622:8630   */\n      0x00\n        /* \"#utility.yul\":8672:8677   */\n      dup3\n        /* \"#utility.yul\":8666:8670   */\n      dup3\n        /* \"#utility.yul\":8662:8678   */\n      shr\n        /* \"#utility.yul\":8641:8678   */\n      swap1\n      pop\n        /* \"#utility.yul\":8568:8685   */\n      swap3\n      swap2\n      pop\n      pop\n      jump\t// out\n        /* \"#utility.yul\":8691:8860   */\n    tag_82:\n        /* \"#utility.yul\":8735:8741   */\n      0x00\n        /* \"#utility.yul\":8768:8819   */\n      tag_191\n        /* \"#utility.yul\":8816:8817   */\n      0x00\n        /* \"#utility.yul\":8812:8818   */\n      not\n        /* \"#utility.yul\":8804:8809   */\n      dup5\n        /* \"#utility.yul\":8801:8802   */\n      0x08\n        /* \"#utility.yul\":8797:8810   */\n      mul\n        /* \"#utility.yul\":8768:8819   */\n      tag_81\n      jump\t// in\n    tag_191:\n        /* \"#utility.yul\":8764:8820   */\n      not\n        /* \"#utility.yul\":8849:8853   */\n      dup1\n        /* \"#utility.yul\":8843:8847   */\n      dup4\n        /* \"#utility.yul\":8839:8854   */\n      and\n        /* \"#utility.yul\":8829:8854   */\n      swap2\n      pop\n        /* \"#utility.yul\":8742:8860   */\n      pop\n        /* \"#utility.yul\":8691:8860   */\n      swap3\n      swap2\n      pop\n      pop\n      jump\t// out\n        /* \"#utility.yul\":8865:9160   */\n    tag_83:\n        /* \"#utility.yul\":8941:8945   */\n      0x00\n        /* \"#utility.yul\":9087:9116   */\n      tag_193\n        /* \"#utility.yul\":9112:9115   */\n      dup4\n        /* \"#utility.yul\":9106:9110   */\n      dup4\n        /* \"#utility.yul\":9087:9116   */\n      tag_82\n      jump\t// in\n    tag_193:\n        /* \"#utility.yul\":9079:9116   */\n      swap2\n      pop\n        /* \"#utility.yul\":9149:9152   */\n      dup3\n        /* \"#utility.yul\":9146:9147   */\n      0x02\n        /* \"#utility.yul\":9142:9153   */\n      mul\n        /* \"#utility.yul\":9136:9140   */\n      dup3\n        /* \"#utility.yul\":9133:9154   */\n      or\n        /* \"#utility.yul\":9125:9154   */\n      swap1\n      pop\n        /* \"#utility.yul\":8865:9160   */\n      swap3\n      swap2\n      pop\n      pop\n      jump\t// out\n        /* \"#utility.yul\":9165:10560   */\n    tag_47:\n        /* \"#utility.yul\":9282:9319   */\n      tag_195\n        /* \"#utility.yul\":9315:9318   */\n      dup3\n        /* \"#utility.yul\":9282:9319   */\n      tag_66\n      jump\t// in\n    tag_195:\n        /* \"#utility.yul\":9384:9402   */\n      0xffffffffffffffff\n        /* \"#utility.yul\":9376:9382   */\n      dup2\n        /* \"#utility.yul\":9373:9403   */\n      gt\n        /* \"#utility.yul\":9370:9426   */\n      iszero\n      tag_196\n      jumpi\n        /* \"#utility.yul\":9406:9424   */\n      tag_197\n      tag_58\n      jump\t// in\n    tag_197:\n        /* \"#utility.yul\":9370:9426   */\n    tag_196:\n        /* \"#utility.yul\":9450:9488   */\n      tag_198\n        /* \"#utility.yul\":9482:9486   */\n      dup3\n        /* \"#utility.yul\":9476:9487   */\n      sload\n        /* \"#utility.yul\":9450:9488   */\n      tag_68\n      jump\t// in\n    tag_198:\n        /* \"#utility.yul\":9535:9602   */\n      tag_199\n        /* \"#utility.yul\":9595:9601   */\n      dup3\n        /* \"#utility.yul\":9587:9593   */\n      dup3\n        /* \"#utility.yul\":9581:9585   */\n      dup6\n        /* \"#utility.yul\":9535:9602   */\n      tag_80\n      jump\t// in\n    tag_199:\n        /* \"#utility.yul\":9629:9630   */\n      0x00\n        /* \"#utility.yul\":9653:9657   */\n      0x20\n        /* \"#utility.yul\":9640:9657   */\n      swap1\n      pop\n        /* \"#utility.yul\":9685:9687   */\n      0x1f\n        /* \"#utility.yul\":9677:9683   */\n      dup4\n        /* \"#utility.yul\":9674:9688   */\n      gt\n        /* \"#utility.yul\":9702:9703   */\n      0x01\n        /* \"#utility.yul\":9697:10315   */\n      dup2\n      eq\n      tag_201\n      jumpi\n        /* \"#utility.yul\":10359:10360   */\n      0x00\n        /* \"#utility.yul\":10376:10382   */\n      dup5\n        /* \"#utility.yul\":10373:10450   */\n      iszero\n      tag_202\n      jumpi\n        /* \"#utility.yul\":10425:10434   */\n      dup3\n        /* \"#utility.yul\":10420:10423   */\n      dup8\n        /* \"#utility.yul\":10416:10435   */\n      add\n        /* \"#utility.yul\":10410:10436   */\n      mload\n        /* \"#utility.yul\":10401:10436   */\n      swap1\n      pop\n        /* \"#utility.yul\":10373:10450   */\n    tag_202:\n        /* \"#utility.yul\":10476:10543   */\n      tag_203\n        /* \"#utility.yul\":10536:10542   */\n      dup6\n        /* \"#utility.yul\":10529:10534   */\n      dup3\n        /* \"#utility.yul\":10476:10543   */\n      tag_83\n      jump\t// in\n    tag_203:\n        /* \"#utility.yul\":10470:10474   */\n      dup7\n        /* \"#utility.yul\":10463:10544   */\n      sstore\n        /* \"#utility.yul\":10332:10554   */\n      pop\n        /* \"#utility.yul\":9667:10554   */\n      jump(tag_200)\n        /* \"#utility.yul\":9697:10315   */\n    tag_201:\n        /* \"#utility.yul\":9749:9753   */\n      0x1f\n        /* \"#utility.yul\":9745:9754   */\n      not\n        /* \"#utility.yul\":9737:9743   */\n      dup5\n        /* \"#utility.yul\":9733:9755   */\n      and\n        /* \"#utility.yul\":9783:9820   */\n      tag_204\n        /* \"#utility.yul\":9815:9819   */\n      dup7\n        /* \"#utility.yul\":9783:9820   */\n      tag_69\n      jump\t// in\n    tag_204:\n        /* \"#utility.yul\":9842:9843   */\n      0x00\n        /* \"#utility.yul\":9856:10064   */\n    tag_205:\n        /* \"#utility.yul\":9870:9877   */\n      dup3\n        /* \"#utility.yul\":9867:9868   */\n      dup2\n        /* \"#utility.yul\":9864:9878   */\n      lt\n        /* \"#utility.yul\":9856:10064   */\n      iszero\n      tag_207\n      jumpi\n        /* \"#utility.yul\":9949:9958   */\n      dup5\n        /* \"#utility.yul\":9944:9947   */\n      dup10\n        /* \"#utility.yul\":9940:9959   */\n      add\n        /* \"#utility.yul\":9934:9960   */\n      mload\n        /* \"#utility.yul\":9926:9932   */\n      dup3\n        /* \"#utility.yul\":9919:9961   */\n      sstore\n        /* \"#utility.yul\":10000:10001   */\n      0x01\n        /* \"#utility.yul\":9992:9998   */\n      dup3\n        /* \"#utility.yul\":9988:10002   */\n      add\n        /* \"#utility.yul\":9978:10002   */\n      swap2\n      pop\n        /* \"#utility.yul\":10047:10049   */\n      0x20\n        /* \"#utility.yul\":10036:10045   */\n      dup6\n        /* \"#utility.yul\":10032:10050   */\n      add\n        /* \"#utility.yul\":10019:10050   */\n      swap5\n      pop\n        /* \"#utility.yul\":9893:9897   */\n      0x20\n        /* \"#utility.yul\":9890:9891   */\n      dup2\n        /* \"#utility.yul\":9886:9898   */\n      add\n        /* \"#utility.yul\":9881:9898   */\n      swap1\n      pop\n        /* \"#utility.yul\":9856:10064   */\n      jump(tag_205)\n    tag_207:\n        /* \"#utility.yul\":10092:10098   */\n      dup7\n        /* \"#utility.yul\":10083:10090   */\n      dup4\n        /* \"#utility.yul\":10080:10099   */\n      lt\n        /* \"#utility.yul\":10077:10256   */\n      iszero\n      tag_208\n      jumpi\n        /* \"#utility.yul\":10150:10159   */\n      dup5\n        /* \"#utility.yul\":10145:10148   */\n      dup10\n        /* \"#utility.yul\":10141:10160   */\n      add\n        /* \"#utility.yul\":10135:10161   */\n      mload\n        /* \"#utility.yul\":10193:10241   */\n      tag_209\n        /* \"#utility.yul\":10235:10239   */\n      0x1f\n        /* \"#utility.yul\":10227:10233   */\n      dup10\n        /* \"#utility.yul\":10223:10240   */\n      and\n        /* \"#utility.yul\":10212:10221   */\n      dup3\n        /* \"#utility.yul\":10193:10241   */\n      tag_82\n      jump\t// in\n    tag_209:\n        /* \"#utility.yul\":10185:10191   */\n      dup4\n        /* \"#utility.yul\":10178:10242   */\n      sstore\n        /* \"#utility.yul\":10100:10256   */\n      pop\n        /* \"#utility.yul\":10077:10256   */\n    tag_208:\n        /* \"#utility.yul\":10302:10303   */\n      0x01\n        /* \"#utility.yul\":10298:10299   */\n      0x02\n        /* \"#utility.yul\":10290:10296   */\n      dup9\n        /* \"#utility.yul\":10286:10300   */\n      mul\n        /* \"#utility.yul\":10282:10304   */\n      add\n        /* \"#utility.yul\":10276:10280   */\n      dup9\n        /* \"#utility.yul\":10269:10305   */\n      sstore\n        /* \"#utility.yul\":9704:10315   */\n      pop\n      pop\n      pop\n        /* \"#utility.yul\":9667:10554   */\n    tag_200:\n      pop\n        /* \"#utility.yul\":9257:10560   */\n      pop\n      pop\n      pop\n        /* \"#utility.yul\":9165:10560   */\n      pop\n      pop\n      jump\t// out\n\n    auxdata: 0xa264697066735822122096e36bad970080e8568dd7fbc67a538e1c13d01bc689f2286c7e08f6da85047b64736f6c634300081a0033\n}\n",
				"bytecode": {
					"linkReferences": {},
					"object": "6080604052348015600e575f80fd5b506108558061001c5f395ff3fe608060405234801561000f575f80fd5b5060043610610034575f3560e01c80630812d8e914610038578063fb987c9d14610068575b5f80fd5b610052600480360381019061004d9190610258565b610084565b60405161005f91906102b7565b60405180910390f35b610082600480360381019061007d919061040c565b6101a5565b005b5f8060405180606001604052808681526020018581526020018481525090505f5b6003811015610182575f6001826100bc91906104b9565b90505b6003811015610174578281600381106100db576100da6104ec565b5b60200201518383600381106100f3576100f26104ec565b5b6020020151101561016757828160038110610111576101106104ec565b5b6020020151838360038110610129576101286104ec565b5b6020020151848460038110610141576101406104ec565b5b60200201858460038110610158576101576104ec565b5b60200201828152508281525050505b80806001019150506100bf565b5080806001019150506100a5565b50805f60038110610196576101956104ec565b5b60200201519150509392505050565b6040518060600160405280858152602001848152602001838152505f6001836101ce9190610519565b600381106101df576101de6104ec565b5b600302015f820151815f0190816101f69190610750565b50602082015181600101556040820151816002015590505050505050565b5f604051905090565b5f80fd5b5f80fd5b5f819050919050565b61023781610225565b8114610241575f80fd5b50565b5f813590506102528161022e565b92915050565b5f805f6060848603121561026f5761026e61021d565b5b5f61027c86828701610244565b935050602061028d86828701610244565b925050604061029e86828701610244565b9150509250925092565b6102b181610225565b82525050565b5f6020820190506102ca5f8301846102a8565b92915050565b5f80fd5b5f80fd5b5f601f19601f8301169050919050565b7f4e487b71000000000000000000000000000000000000000000000000000000005f52604160045260245ffd5b61031e826102d8565b810181811067ffffffffffffffff8211171561033d5761033c6102e8565b5b80604052505050565b5f61034f610214565b905061035b8282610315565b919050565b5f67ffffffffffffffff82111561037a576103796102e8565b5b610383826102d8565b9050602081019050919050565b828183375f83830152505050565b5f6103b06103ab84610360565b610346565b9050828152602081018484840111156103cc576103cb6102d4565b5b6103d7848285610390565b509392505050565b5f82601f8301126103f3576103f26102d0565b5b813561040384826020860161039e565b91505092915050565b5f805f80608085870312156104245761042361021d565b5b5f85013567ffffffffffffffff81111561044157610440610221565b5b61044d878288016103df565b945050602061045e87828801610244565b935050604061046f87828801610244565b925050606061048087828801610244565b91505092959194509250565b7f4e487b71000000000000000000000000000000000000000000000000000000005f52601160045260245ffd5b5f6104c382610225565b91506104ce83610225565b92508282019050808211156104e6576104e561048c565b5b92915050565b7f4e487b71000000000000000000000000000000000000000000000000000000005f52603260045260245ffd5b5f61052382610225565b915061052e83610225565b92508282039050818111156105465761054561048c565b5b92915050565b5f81519050919050565b7f4e487b71000000000000000000000000000000000000000000000000000000005f52602260045260245ffd5b5f600282049050600182168061059a57607f821691505b6020821081036105ad576105ac610556565b5b50919050565b5f819050815f5260205f209050919050565b5f6020601f8301049050919050565b5f82821b905092915050565b5f6008830261060f7fffffffffffffffffffffffffffffffffffffffffffffffffffffffffffffffff826105d4565b61061986836105d4565b95508019841693508086168417925050509392505050565b5f819050919050565b5f61065461064f61064a84610225565b610631565b610225565b9050919050565b5f819050919050565b61066d8361063a565b6106816106798261065b565b8484546105e0565b825550505050565b5f90565b610695610689565b6106a0818484610664565b505050565b5b818110156106c3576106b85f8261068d565b6001810190506106a6565b5050565b601f821115610708576106d9816105b3565b6106e2846105c5565b810160208510156106f1578190505b6107056106fd856105c5565b8301826106a5565b50505b505050565b5f82821c905092915050565b5f6107285f198460080261070d565b1980831691505092915050565b5f6107408383610719565b9150826002028217905092915050565b6107598261054c565b67ffffffffffffffff811115610772576107716102e8565b5b61077c8254610583565b6107878282856106c7565b5f60209050601f8311600181146107b8575f84156107a6578287015190505b6107b08582610735565b865550610817565b601f1984166107c6866105b3565b5f5b828110156107ed578489015182556001820191506020850194506020810190506107c8565b8683101561080a5784890151610806601f891682610719565b8355505b6001600288020188555050505b50505050505056fea264697066735822122096e36bad970080e8568dd7fbc67a538e1c13d01bc689f2286c7e08f6da85047b64736f6c634300081a0033",
					"opcodes": "PUSH1 0x80 PUSH1 0x40 MSTORE CALLVALUE DUP1 ISZERO PUSH1 0xE JUMPI PUSH0 DUP1 REVERT JUMPDEST POP PUSH2 0x855 DUP1 PUSH2 0x1C PUSH0 CODECOPY PUSH0 RETURN INVALID PUSH1 0x80 PUSH1 0x40 MSTORE CALLVALUE DUP1 ISZERO PUSH2 0xF JUMPI PUSH0 DUP1 REVERT JUMPDEST POP PUSH1 0x4 CALLDATASIZE LT PUSH2 0x34 JUMPI PUSH0 CALLDATALOAD PUSH1 0xE0 SHR DUP1 PUSH4 0x812D8E9 EQ PUSH2 0x38 JUMPI DUP1 PUSH4 0xFB987C9D EQ PUSH2 0x68 JUMPI JUMPDEST PUSH0 DUP1 REVERT JUMPDEST PUSH2 0x52 PUSH1 0x4 DUP1 CALLDATASIZE SUB DUP2 ADD SWAP1 PUSH2 0x4D SWAP2 SWAP1 PUSH2 0x258 JUMP JUMPDEST PUSH2 0x84 JUMP JUMPDEST PUSH1 0x40 MLOAD PUSH2 0x5F SWAP2 SWAP1 PUSH2 0x2B7 JUMP JUMPDEST PUSH1 0x40 MLOAD DUP1 SWAP2 SUB SWAP1 RETURN JUMPDEST PUSH2 0x82 PUSH1 0x4 DUP1 CALLDATASIZE SUB DUP2 ADD SWAP1 PUSH2 0x7D SWAP2 SWAP1 PUSH2 0x40C JUMP JUMPDEST PUSH2 0x1A5 JUMP JUMPDEST STOP JUMPDEST PUSH0 DUP1 PUSH1 0x40 MLOAD DUP1 PUSH1 0x60 ADD PUSH1 0x40 MSTORE DUP1 DUP7 DUP2 MSTORE PUSH1 0x20 ADD DUP6 DUP2 MSTORE PUSH1 0x20 ADD DUP5 DUP2 MSTORE POP SWAP1 POP PUSH0 JUMPDEST PUSH1 0x3 DUP2 LT ISZERO PUSH2 0x182 JUMPI PUSH0 PUSH1 0x1 DUP3 PUSH2 0xBC SWAP2 SWAP1 PUSH2 0x4B9 JUMP JUMPDEST SWAP1 POP JUMPDEST PUSH1 0x3 DUP2 LT ISZERO PUSH2 0x174 JUMPI DUP3 DUP2 PUSH1 0x3 DUP2 LT PUSH2 0xDB JUMPI PUSH2 0xDA PUSH2 0x4EC JUMP JUMPDEST JUMPDEST PUSH1 0x20 MUL ADD MLOAD DUP4 DUP4 PUSH1 0x3 DUP2 LT PUSH2 0xF3 JUMPI PUSH2 0xF2 PUSH2 0x4EC JUMP JUMPDEST JUMPDEST PUSH1 0x20 MUL ADD MLOAD LT ISZERO PUSH2 0x167 JUMPI DUP3 DUP2 PUSH1 0x3 DUP2 LT PUSH2 0x111 JUMPI PUSH2 0x110 PUSH2 0x4EC JUMP JUMPDEST JUMPDEST PUSH1 0x20 MUL ADD MLOAD DUP4 DUP4 PUSH1 0x3 DUP2 LT PUSH2 0x129 JUMPI PUSH2 0x128 PUSH2 0x4EC JUMP JUMPDEST JUMPDEST PUSH1 0x20 MUL ADD MLOAD DUP5 DUP5 PUSH1 0x3 DUP2 LT PUSH2 0x141 JUMPI PUSH2 0x140 PUSH2 0x4EC JUMP JUMPDEST JUMPDEST PUSH1 0x20 MUL ADD DUP6 DUP5 PUSH1 0x3 DUP2 LT PUSH2 0x158 JUMPI PUSH2 0x157 PUSH2 0x4EC JUMP JUMPDEST JUMPDEST PUSH1 0x20 MUL ADD DUP3 DUP2 MSTORE POP DUP3 DUP2 MSTORE POP POP POP JUMPDEST DUP1 DUP1 PUSH1 0x1 ADD SWAP2 POP POP PUSH2 0xBF JUMP JUMPDEST POP DUP1 DUP1 PUSH1 0x1 ADD SWAP2 POP POP PUSH2 0xA5 JUMP JUMPDEST POP DUP1 PUSH0 PUSH1 0x3 DUP2 LT PUSH2 0x196 JUMPI PUSH2 0x195 PUSH2 0x4EC JUMP JUMPDEST JUMPDEST PUSH1 0x20 MUL ADD MLOAD SWAP2 POP POP SWAP4 SWAP3 POP POP POP JUMP JUMPDEST PUSH1 0x40 MLOAD DUP1 PUSH1 0x60 ADD PUSH1 0x40 MSTORE DUP1 DUP6 DUP2 MSTORE PUSH1 0x20 ADD DUP5 DUP2 MSTORE PUSH1 0x20 ADD DUP4 DUP2 MSTORE POP PUSH0 PUSH1 0x1 DUP4 PUSH2 0x1CE SWAP2 SWAP1 PUSH2 0x519 JUMP JUMPDEST PUSH1 0x3 DUP2 LT PUSH2 0x1DF JUMPI PUSH2 0x1DE PUSH2 0x4EC JUMP JUMPDEST JUMPDEST PUSH1 0x3 MUL ADD PUSH0 DUP3 ADD MLOAD DUP2 PUSH0 ADD SWAP1 DUP2 PUSH2 0x1F6 SWAP2 SWAP1 PUSH2 0x750 JUMP JUMPDEST POP PUSH1 0x20 DUP3 ADD MLOAD DUP2 PUSH1 0x1 ADD SSTORE PUSH1 0x40 DUP3 ADD MLOAD DUP2 PUSH1 0x2 ADD SSTORE SWAP1 POP POP POP POP POP POP JUMP JUMPDEST PUSH0 PUSH1 0x40 MLOAD SWAP1 POP SWAP1 JUMP JUMPDEST PUSH0 DUP1 REVERT JUMPDEST PUSH0 DUP1 REVERT JUMPDEST PUSH0 DUP2 SWAP1 POP SWAP2 SWAP1 POP JUMP JUMPDEST PUSH2 0x237 DUP2 PUSH2 0x225 JUMP JUMPDEST DUP2 EQ PUSH2 0x241 JUMPI PUSH0 DUP1 REVERT JUMPDEST POP JUMP JUMPDEST PUSH0 DUP2 CALLDATALOAD SWAP1 POP PUSH2 0x252 DUP2 PUSH2 0x22E JUMP JUMPDEST SWAP3 SWAP2 POP POP JUMP JUMPDEST PUSH0 DUP1 PUSH0 PUSH1 0x60 DUP5 DUP7 SUB SLT ISZERO PUSH2 0x26F JUMPI PUSH2 0x26E PUSH2 0x21D JUMP JUMPDEST JUMPDEST PUSH0 PUSH2 0x27C DUP7 DUP3 DUP8 ADD PUSH2 0x244 JUMP JUMPDEST SWAP4 POP POP PUSH1 0x20 PUSH2 0x28D DUP7 DUP3 DUP8 ADD PUSH2 0x244 JUMP JUMPDEST SWAP3 POP POP PUSH1 0x40 PUSH2 0x29E DUP7 DUP3 DUP8 ADD PUSH2 0x244 JUMP JUMPDEST SWAP2 POP POP SWAP3 POP SWAP3 POP SWAP3 JUMP JUMPDEST PUSH2 0x2B1 DUP2 PUSH2 0x225 JUMP JUMPDEST DUP3 MSTORE POP POP JUMP JUMPDEST PUSH0 PUSH1 0x20 DUP3 ADD SWAP1 POP PUSH2 0x2CA PUSH0 DUP4 ADD DUP5 PUSH2 0x2A8 JUMP JUMPDEST SWAP3 SWAP2 POP POP JUMP JUMPDEST PUSH0 DUP1 REVERT JUMPDEST PUSH0 DUP1 REVERT JUMPDEST PUSH0 PUSH1 0x1F NOT PUSH1 0x1F DUP4 ADD AND SWAP1 POP SWAP2 SWAP1 POP JUMP JUMPDEST PUSH32 0x4E487B7100000000000000000000000000000000000000000000000000000000 PUSH0 MSTORE PUSH1 0x41 PUSH1 0x4 MSTORE PUSH1 0x24 PUSH0 REVERT JUMPDEST PUSH2 0x31E DUP3 PUSH2 0x2D8 JUMP JUMPDEST DUP2 ADD DUP2 DUP2 LT PUSH8 0xFFFFFFFFFFFFFFFF DUP3 GT OR ISZERO PUSH2 0x33D JUMPI PUSH2 0x33C PUSH2 0x2E8 JUMP JUMPDEST JUMPDEST DUP1 PUSH1 0x40 MSTORE POP POP POP JUMP JUMPDEST PUSH0 PUSH2 0x34F PUSH2 0x214 JUMP JUMPDEST SWAP1 POP PUSH2 0x35B DUP3 DUP3 PUSH2 0x315 JUMP JUMPDEST SWAP2 SWAP1 POP JUMP JUMPDEST PUSH0 PUSH8 0xFFFFFFFFFFFFFFFF DUP3 GT ISZERO PUSH2 0x37A JUMPI PUSH2 0x379 PUSH2 0x2E8 JUMP JUMPDEST JUMPDEST PUSH2 0x383 DUP3 PUSH2 0x2D8 JUMP JUMPDEST SWAP1 POP PUSH1 0x20 DUP2 ADD SWAP1 POP SWAP2 SWAP1 POP JUMP JUMPDEST DUP3 DUP2 DUP4 CALLDATACOPY PUSH0 DUP4 DUP4 ADD MSTORE POP POP POP JUMP JUMPDEST PUSH0 PUSH2 0x3B0 PUSH2 0x3AB DUP5 PUSH2 0x360 JUMP JUMPDEST PUSH2 0x346 JUMP JUMPDEST SWAP1 POP DUP3 DUP2 MSTORE PUSH1 0x20 DUP2 ADD DUP5 DUP5 DUP5 ADD GT ISZERO PUSH2 0x3CC JUMPI PUSH2 0x3CB PUSH2 0x2D4 JUMP JUMPDEST JUMPDEST PUSH2 0x3D7 DUP5 DUP3 DUP6 PUSH2 0x390 JUMP JUMPDEST POP SWAP4 SWAP3 POP POP POP JUMP JUMPDEST PUSH0 DUP3 PUSH1 0x1F DUP4 ADD SLT PUSH2 0x3F3 JUMPI PUSH2 0x3F2 PUSH2 0x2D0 JUMP JUMPDEST JUMPDEST DUP2 CALLDATALOAD PUSH2 0x403 DUP5 DUP3 PUSH1 0x20 DUP7 ADD PUSH2 0x39E JUMP JUMPDEST SWAP2 POP POP SWAP3 SWAP2 POP POP JUMP JUMPDEST PUSH0 DUP1 PUSH0 DUP1 PUSH1 0x80 DUP6 DUP8 SUB SLT ISZERO PUSH2 0x424 JUMPI PUSH2 0x423 PUSH2 0x21D JUMP JUMPDEST JUMPDEST PUSH0 DUP6 ADD CALLDATALOAD PUSH8 0xFFFFFFFFFFFFFFFF DUP2 GT ISZERO PUSH2 0x441 JUMPI PUSH2 0x440 PUSH2 0x221 JUMP JUMPDEST JUMPDEST PUSH2 0x44D DUP8 DUP3 DUP9 ADD PUSH2 0x3DF JUMP JUMPDEST SWAP5 POP POP PUSH1 0x20 PUSH2 0x45E DUP8 DUP3 DUP9 ADD PUSH2 0x244 JUMP JUMPDEST SWAP4 POP POP PUSH1 0x40 PUSH2 0x46F DUP8 DUP3 DUP9 ADD PUSH2 0x244 JUMP JUMPDEST SWAP3 POP POP PUSH1 0x60 PUSH2 0x480 DUP8 DUP3 DUP9 ADD PUSH2 0x244 JUMP JUMPDEST SWAP2 POP POP SWAP3 SWAP6 SWAP2 SWAP5 POP SWAP3 POP JUMP JUMPDEST PUSH32 0x4E487B7100000000000000000000000000000000000000000000000000000000 PUSH0 MSTORE PUSH1 0x11 PUSH1 0x4 MSTORE PUSH1 0x24 PUSH0 REVERT JUMPDEST PUSH0 PUSH2 0x4C3 DUP3 PUSH2 0x225 JUMP JUMPDEST SWAP2 POP PUSH2 0x4CE DUP4 PUSH2 0x225 JUMP JUMPDEST SWAP3 POP DUP3 DUP3 ADD SWAP1 POP DUP1 DUP3 GT ISZERO PUSH2 0x4E6 JUMPI PUSH2 0x4E5 PUSH2 0x48C JUMP JUMPDEST JUMPDEST SWAP3 SWAP2 POP POP JUMP JUMPDEST PUSH32 0x4E487B7100000000000000000000000000000000000000000000000000000000 PUSH0 MSTORE PUSH1 0x32 PUSH1 0x4 MSTORE PUSH1 0x24 PUSH0 REVERT JUMPDEST PUSH0 PUSH2 0x523 DUP3 PUSH2 0x225 JUMP JUMPDEST SWAP2 POP PUSH2 0x52E DUP4 PUSH2 0x225 JUMP JUMPDEST SWAP3 POP DUP3 DUP3 SUB SWAP1 POP DUP2 DUP2 GT ISZERO PUSH2 0x546 JUMPI PUSH2 0x545 PUSH2 0x48C JUMP JUMPDEST JUMPDEST SWAP3 SWAP2 POP POP JUMP JUMPDEST PUSH0 DUP2 MLOAD SWAP1 POP SWAP2 SWAP1 POP JUMP JUMPDEST PUSH32 0x4E487B7100000000000000000000000000000000000000000000000000000000 PUSH0 MSTORE PUSH1 0x22 PUSH1 0x4 MSTORE PUSH1 0x24 PUSH0 REVERT JUMPDEST PUSH0 PUSH1 0x2 DUP3 DIV SWAP1 POP PUSH1 0x1 DUP3 AND DUP1 PUSH2 0x59A JUMPI PUSH1 0x7F DUP3 AND SWAP2 POP JUMPDEST PUSH1 0x20 DUP3 LT DUP2 SUB PUSH2 0x5AD JUMPI PUSH2 0x5AC PUSH2 0x556 JUMP JUMPDEST JUMPDEST POP SWAP2 SWAP1 POP JUMP JUMPDEST PUSH0 DUP2 SWAP1 POP DUP2 PUSH0 MSTORE PUSH1 0x20 PUSH0 KECCAK256 SWAP1 POP SWAP2 SWAP1 POP JUMP JUMPDEST PUSH0 PUSH1 0x20 PUSH1 0x1F DUP4 ADD DIV SWAP1 POP SWAP2 SWAP1 POP JUMP JUMPDEST PUSH0 DUP3 DUP3 SHL SWAP1 POP SWAP3 SWAP2 POP POP JUMP JUMPDEST PUSH0 PUSH1 0x8 DUP4 MUL PUSH2 0x60F PUSH32 0xFFFFFFFFFFFFFFFFFFFFFFFFFFFFFFFFFFFFFFFFFFFFFFFFFFFFFFFFFFFFFFFF DUP3 PUSH2 0x5D4 JUMP JUMPDEST PUSH2 0x619 DUP7 DUP4 PUSH2 0x5D4 JUMP JUMPDEST SWAP6 POP DUP1 NOT DUP5 AND SWAP4 POP DUP1 DUP7 AND DUP5 OR SWAP3 POP POP POP SWAP4 SWAP3 POP POP POP JUMP JUMPDEST PUSH0 DUP2 SWAP1 POP SWAP2 SWAP1 POP JUMP JUMPDEST PUSH0 PUSH2 0x654 PUSH2 0x64F PUSH2 0x64A DUP5 PUSH2 0x225 JUMP JUMPDEST PUSH2 0x631 JUMP JUMPDEST PUSH2 0x225 JUMP JUMPDEST SWAP1 POP SWAP2 SWAP1 POP JUMP JUMPDEST PUSH0 DUP2 SWAP1 POP SWAP2 SWAP1 POP JUMP JUMPDEST PUSH2 0x66D DUP4 PUSH2 0x63A JUMP JUMPDEST PUSH2 0x681 PUSH2 0x679 DUP3 PUSH2 0x65B JUMP JUMPDEST DUP5 DUP5 SLOAD PUSH2 0x5E0 JUMP JUMPDEST DUP3 SSTORE POP POP POP POP JUMP JUMPDEST PUSH0 SWAP1 JUMP JUMPDEST PUSH2 0x695 PUSH2 0x689 JUMP JUMPDEST PUSH2 0x6A0 DUP2 DUP5 DUP5 PUSH2 0x664 JUMP JUMPDEST POP POP POP JUMP JUMPDEST JUMPDEST DUP2 DUP2 LT ISZERO PUSH2 0x6C3 JUMPI PUSH2 0x6B8 PUSH0 DUP3 PUSH2 0x68D JUMP JUMPDEST PUSH1 0x1 DUP2 ADD SWAP1 POP PUSH2 0x6A6 JUMP JUMPDEST POP POP JUMP JUMPDEST PUSH1 0x1F DUP3 GT ISZERO PUSH2 0x708 JUMPI PUSH2 0x6D9 DUP2 PUSH2 0x5B3 JUMP JUMPDEST PUSH2 0x6E2 DUP5 PUSH2 0x5C5 JUMP JUMPDEST DUP2 ADD PUSH1 0x20 DUP6 LT ISZERO PUSH2 0x6F1 JUMPI DUP2 SWAP1 POP JUMPDEST PUSH2 0x705 PUSH2 0x6FD DUP6 PUSH2 0x5C5 JUMP JUMPDEST DUP4 ADD DUP3 PUSH2 0x6A5 JUMP JUMPDEST POP POP JUMPDEST POP POP POP JUMP JUMPDEST PUSH0 DUP3 DUP3 SHR SWAP1 POP SWAP3 SWAP2 POP POP JUMP JUMPDEST PUSH0 PUSH2 0x728 PUSH0 NOT DUP5 PUSH1 0x8 MUL PUSH2 0x70D JUMP JUMPDEST NOT DUP1 DUP4 AND SWAP2 POP POP SWAP3 SWAP2 POP POP JUMP JUMPDEST PUSH0 PUSH2 0x740 DUP4 DUP4 PUSH2 0x719 JUMP JUMPDEST SWAP2 POP DUP3 PUSH1 0x2 MUL DUP3 OR SWAP1 POP SWAP3 SWAP2 POP POP JUMP JUMPDEST PUSH2 0x759 DUP3 PUSH2 0x54C JUMP JUMPDEST PUSH8 0xFFFFFFFFFFFFFFFF DUP2 GT ISZERO PUSH2 0x772 JUMPI PUSH2 0x771 PUSH2 0x2E8 JUMP JUMPDEST JUMPDEST PUSH2 0x77C DUP3 SLOAD PUSH2 0x583 JUMP JUMPDEST PUSH2 0x787 DUP3 DUP3 DUP6 PUSH2 0x6C7 JUMP JUMPDEST PUSH0 PUSH1 0x20 SWAP1 POP PUSH1 0x1F DUP4 GT PUSH1 0x1 DUP2 EQ PUSH2 0x7B8 JUMPI PUSH0 DUP5 ISZERO PUSH2 0x7A6 JUMPI DUP3 DUP8 ADD MLOAD SWAP1 POP JUMPDEST PUSH2 0x7B0 DUP6 DUP3 PUSH2 0x735 JUMP JUMPDEST DUP7 SSTORE POP PUSH2 0x817 JUMP JUMPDEST PUSH1 0x1F NOT DUP5 AND PUSH2 0x7C6 DUP7 PUSH2 0x5B3 JUMP JUMPDEST PUSH0 JUMPDEST DUP3 DUP2 LT ISZERO PUSH2 0x7ED JUMPI DUP5 DUP10 ADD MLOAD DUP3 SSTORE PUSH1 0x1 DUP3 ADD SWAP2 POP PUSH1 0x20 DUP6 ADD SWAP5 POP PUSH1 0x20 DUP2 ADD SWAP1 POP PUSH2 0x7C8 JUMP JUMPDEST DUP7 DUP4 LT ISZERO PUSH2 0x80A JUMPI DUP5 DUP10 ADD MLOAD PUSH2 0x806 PUSH1 0x1F DUP10 AND DUP3 PUSH2 0x719 JUMP JUMPDEST DUP4 SSTORE POP JUMPDEST PUSH1 0x1 PUSH1 0x2 DUP9 MUL ADD DUP9 SSTORE POP POP POP JUMPDEST POP POP POP POP POP POP JUMP INVALID LOG2 PUSH5 0x6970667358 0x22 SLT KECCAK256 SWAP7 0xE3 PUSH12 0xAD970080E8568DD7FBC67A53 DUP15 SHR SGT 0xD0 SHL 0xC6 DUP10 CALLCODE 0x28 PUSH13 0x7E08F6DA85047B64736F6C6343 STOP ADDMOD BYTE STOP CALLER "
				},
				"gasEstimates": {
					"creation": {
						"codeDepositCost": "426600",
						"executionCost": "459",
						"totalCost": "427059"
					},
					"external": {
						"biggest(uint256,uint256,uint256)": "infinite",
						"setStudent(string,uint256,uint256,uint256)": "infinite"
					}
				},
				"methodIdentifiers": {
					"biggest(uint256,uint256,uint256)": "0812d8e9",
					"setStudent(string,uint256,uint256,uint256)": "fb987c9d"
				}
			},
			"storageLayout": {
				"storage": [
					{
						"astId": 404,
						"contract": "Solidity100/sol100(71~80).sol:Q79B",
						"label": "Students",
						"offset": 0,
						"slot": "0",
						"type": "t_array(t_struct(student)399_storage)3_storage"
					}
				],
				"types": {
					"t_array(t_struct(student)399_storage)3_storage": {
						"base": "t_struct(student)399_storage",
						"encoding": "inplace",
						"label": "struct Q79B.student[3]",
						"numberOfBytes": "288"
					},
					"t_string_storage": {
						"encoding": "bytes",
						"label": "string",
						"numberOfBytes": "32"
					},
					"t_struct(student)399_storage": {
						"encoding": "inplace",
						"label": "struct Q79B.student",
						"members": [
							{
								"astId": 394,
								"contract": "Solidity100/sol100(71~80).sol:Q79B",
								"label": "name",
								"offset": 0,
								"slot": "0",
								"type": "t_string_storage"
							},
							{
								"astId": 396,
								"contract": "Solidity100/sol100(71~80).sol:Q79B",
								"label": "number",
								"offset": 0,
								"slot": "1",
								"type": "t_uint256"
							},
							{
								"astId": 398,
								"contract": "Solidity100/sol100(71~80).sol:Q79B",
								"label": "score",
								"offset": 0,
								"slot": "2",
								"type": "t_uint256"
							}
						],
						"numberOfBytes": "96"
					},
					"t_uint256": {
						"encoding": "inplace",
						"label": "uint256",
						"numberOfBytes": "32"
					}
				}
			},
			"userdoc": {
				"kind": "user",
				"methods": {},
				"version": 1
			}
		}
	}
}