{
	"Solidity100/sol100(71~80).sol": {
		"Q79A": {
			"abi": [
				{
					"inputs": [
						{
							"internalType": "uint256",
							"name": "_a",
							"type": "uint256"
						},
						{
							"internalType": "uint256",
							"name": "_b",
							"type": "uint256"
						},
						{
							"internalType": "uint256",
							"name": "_c",
							"type": "uint256"
						}
					],
					"name": "biggest",
					"outputs": [
						{
							"internalType": "uint256",
							"name": "",
							"type": "uint256"
						}
					],
					"stateMutability": "pure",
					"type": "function"
				}
			],
			"devdoc": {
				"kind": "dev",
				"methods": {},
				"version": 1
			},
			"evm": {
				"assembly": "    /* \"Solidity100/sol100(71~80).sol\":4621:5449  contract Q79A {... */\n  mstore(0x40, 0x80)\n  callvalue\n  dup1\n  iszero\n  tag_1\n  jumpi\n  0x00\n  dup1\n  revert\ntag_1:\n  pop\n  dataSize(sub_0)\n  dup1\n  dataOffset(sub_0)\n  0x00\n  codecopy\n  0x00\n  return\nstop\n\nsub_0: assembly {\n        /* \"Solidity100/sol100(71~80).sol\":4621:5449  contract Q79A {... */\n      mstore(0x40, 0x80)\n      callvalue\n      dup1\n      iszero\n      tag_1\n      jumpi\n      0x00\n      dup1\n      revert\n    tag_1:\n      pop\n      jumpi(tag_2, lt(calldatasize, 0x04))\n      shr(0xe0, calldataload(0x00))\n      dup1\n      0x0812d8e9\n      eq\n      tag_3\n      jumpi\n    tag_2:\n      0x00\n      dup1\n      revert\n        /* \"Solidity100/sol100(71~80).sol\":5062:5446  function biggest(uint _a, uint _b, uint _c) public pure returns(uint){... */\n    tag_3:\n      tag_4\n      0x04\n      dup1\n      calldatasize\n      sub\n      dup2\n      add\n      swap1\n      tag_5\n      swap2\n      swap1\n      tag_6\n      jump\t// in\n    tag_5:\n      tag_7\n      jump\t// in\n    tag_4:\n      mload(0x40)\n      tag_8\n      swap2\n      swap1\n      tag_9\n      jump\t// in\n    tag_8:\n      mload(0x40)\n      dup1\n      swap2\n      sub\n      swap1\n      return\n    tag_7:\n        /* \"Solidity100/sol100(71~80).sol\":5126:5130  uint */\n      0x00\n        /* \"Solidity100/sol100(71~80).sol\":5140:5158  uint[3] memory num */\n      dup1\n        /* \"Solidity100/sol100(71~80).sol\":5140:5171  uint[3] memory num = [_a,_b,_c] */\n      mload(0x40)\n      dup1\n      0x60\n      add\n      0x40\n      mstore\n      dup1\n        /* \"Solidity100/sol100(71~80).sol\":5162:5164  _a */\n      dup7\n        /* \"Solidity100/sol100(71~80).sol\":5140:5171  uint[3] memory num = [_a,_b,_c] */\n      dup2\n      mstore\n      0x20\n      add\n        /* \"Solidity100/sol100(71~80).sol\":5165:5167  _b */\n      dup6\n        /* \"Solidity100/sol100(71~80).sol\":5140:5171  uint[3] memory num = [_a,_b,_c] */\n      dup2\n      mstore\n      0x20\n      add\n        /* \"Solidity100/sol100(71~80).sol\":5168:5170  _c */\n      dup5\n        /* \"Solidity100/sol100(71~80).sol\":5140:5171  uint[3] memory num = [_a,_b,_c] */\n      dup2\n      mstore\n      pop\n      swap1\n      pop\n        /* \"Solidity100/sol100(71~80).sol\":5187:5193  uint i */\n      0x00\n        /* \"Solidity100/sol100(71~80).sol\":5183:5413  for(uint i=0; i < num.length; i++) {... */\n    tag_11:\n        /* \"Solidity100/sol100(71~80).sol\":5201:5211  num.length */\n      0x03\n        /* \"Solidity100/sol100(71~80).sol\":5197:5198  i */\n      dup2\n        /* \"Solidity100/sol100(71~80).sol\":5197:5211  i < num.length */\n      lt\n        /* \"Solidity100/sol100(71~80).sol\":5183:5413  for(uint i=0; i < num.length; i++) {... */\n      iszero\n      tag_12\n      jumpi\n        /* \"Solidity100/sol100(71~80).sol\":5237:5243  uint j */\n      0x00\n        /* \"Solidity100/sol100(71~80).sol\":5246:5247  1 */\n      0x01\n        /* \"Solidity100/sol100(71~80).sol\":5244:5245  i */\n      dup3\n        /* \"Solidity100/sol100(71~80).sol\":5244:5247  i+1 */\n      tag_17\n      swap2\n      swap1\n      tag_18\n      jump\t// in\n    tag_17:\n        /* \"Solidity100/sol100(71~80).sol\":5237:5247  uint j=i+1 */\n      swap1\n      pop\n        /* \"Solidity100/sol100(71~80).sol\":5233:5402  for(uint j=i+1; j < num.length; j++) {... */\n    tag_14:\n        /* \"Solidity100/sol100(71~80).sol\":5253:5263  num.length */\n      0x03\n        /* \"Solidity100/sol100(71~80).sol\":5249:5250  j */\n      dup2\n        /* \"Solidity100/sol100(71~80).sol\":5249:5263  j < num.length */\n      lt\n        /* \"Solidity100/sol100(71~80).sol\":5233:5402  for(uint j=i+1; j < num.length; j++) {... */\n      iszero\n      tag_15\n      jumpi\n        /* \"Solidity100/sol100(71~80).sol\":5301:5304  num */\n      dup3\n        /* \"Solidity100/sol100(71~80).sol\":5305:5306  j */\n      dup2\n        /* \"Solidity100/sol100(71~80).sol\":5301:5307  num[j] */\n      0x03\n      dup2\n      lt\n      tag_19\n      jumpi\n      tag_20\n      tag_21\n      jump\t// in\n    tag_20:\n    tag_19:\n      0x20\n      mul\n      add\n      mload\n        /* \"Solidity100/sol100(71~80).sol\":5292:5295  num */\n      dup4\n        /* \"Solidity100/sol100(71~80).sol\":5296:5297  i */\n      dup4\n        /* \"Solidity100/sol100(71~80).sol\":5292:5298  num[i] */\n      0x03\n      dup2\n      lt\n      tag_22\n      jumpi\n      tag_23\n      tag_21\n      jump\t// in\n    tag_23:\n    tag_22:\n      0x20\n      mul\n      add\n      mload\n        /* \"Solidity100/sol100(71~80).sol\":5292:5307  num[i] < num[j] */\n      lt\n        /* \"Solidity100/sol100(71~80).sol\":5289:5387  if(num[i] < num[j]) {... */\n      iszero\n      tag_24\n      jumpi\n        /* \"Solidity100/sol100(71~80).sol\":5352:5355  num */\n      dup3\n        /* \"Solidity100/sol100(71~80).sol\":5356:5357  j */\n      dup2\n        /* \"Solidity100/sol100(71~80).sol\":5352:5358  num[j] */\n      0x03\n      dup2\n      lt\n      tag_25\n      jumpi\n      tag_26\n      tag_21\n      jump\t// in\n    tag_26:\n    tag_25:\n      0x20\n      mul\n      add\n      mload\n        /* \"Solidity100/sol100(71~80).sol\":5360:5363  num */\n      dup4\n        /* \"Solidity100/sol100(71~80).sol\":5364:5365  i */\n      dup4\n        /* \"Solidity100/sol100(71~80).sol\":5360:5366  num[i] */\n      0x03\n      dup2\n      lt\n      tag_27\n      jumpi\n      tag_28\n      tag_21\n      jump\t// in\n    tag_28:\n    tag_27:\n      0x20\n      mul\n      add\n      mload\n        /* \"Solidity100/sol100(71~80).sol\":5333:5336  num */\n      dup5\n        /* \"Solidity100/sol100(71~80).sol\":5337:5338  i */\n      dup5\n        /* \"Solidity100/sol100(71~80).sol\":5333:5339  num[i] */\n      0x03\n      dup2\n      lt\n      tag_29\n      jumpi\n      tag_30\n      tag_21\n      jump\t// in\n    tag_30:\n    tag_29:\n      0x20\n      mul\n      add\n        /* \"Solidity100/sol100(71~80).sol\":5341:5344  num */\n      dup6\n        /* \"Solidity100/sol100(71~80).sol\":5345:5346  j */\n      dup5\n        /* \"Solidity100/sol100(71~80).sol\":5341:5347  num[j] */\n      0x03\n      dup2\n      lt\n      tag_31\n      jumpi\n      tag_32\n      tag_21\n      jump\t// in\n    tag_32:\n    tag_31:\n      0x20\n      mul\n      add\n        /* \"Solidity100/sol100(71~80).sol\":5332:5367  (num[i], num[j]) = (num[j], num[i]) */\n      dup3\n      dup2\n      mstore\n      pop\n      dup3\n      dup2\n      mstore\n      pop\n      pop\n      pop\n        /* \"Solidity100/sol100(71~80).sol\":5289:5387  if(num[i] < num[j]) {... */\n    tag_24:\n        /* \"Solidity100/sol100(71~80).sol\":5265:5268  j++ */\n      dup1\n      dup1\n      0x01\n      add\n      swap2\n      pop\n      pop\n        /* \"Solidity100/sol100(71~80).sol\":5233:5402  for(uint j=i+1; j < num.length; j++) {... */\n      jump(tag_14)\n    tag_15:\n      pop\n        /* \"Solidity100/sol100(71~80).sol\":5213:5216  i++ */\n      dup1\n      dup1\n      0x01\n      add\n      swap2\n      pop\n      pop\n        /* \"Solidity100/sol100(71~80).sol\":5183:5413  for(uint i=0; i < num.length; i++) {... */\n      jump(tag_11)\n    tag_12:\n      pop\n        /* \"Solidity100/sol100(71~80).sol\":5432:5435  num */\n      dup1\n        /* \"Solidity100/sol100(71~80).sol\":5436:5437  0 */\n      0x00\n        /* \"Solidity100/sol100(71~80).sol\":5432:5438  num[0] */\n      0x03\n      dup2\n      lt\n      tag_33\n      jumpi\n      tag_34\n      tag_21\n      jump\t// in\n    tag_34:\n    tag_33:\n      0x20\n      mul\n      add\n      mload\n        /* \"Solidity100/sol100(71~80).sol\":5425:5438  return num[0] */\n      swap2\n      pop\n      pop\n        /* \"Solidity100/sol100(71~80).sol\":5062:5446  function biggest(uint _a, uint _b, uint _c) public pure returns(uint){... */\n      swap4\n      swap3\n      pop\n      pop\n      pop\n      jump\t// out\n        /* \"#utility.yul\":88:205   */\n    tag_36:\n        /* \"#utility.yul\":197:198   */\n      0x00\n        /* \"#utility.yul\":194:195   */\n      dup1\n        /* \"#utility.yul\":187:199   */\n      revert\n        /* \"#utility.yul\":334:411   */\n    tag_38:\n        /* \"#utility.yul\":371:378   */\n      0x00\n        /* \"#utility.yul\":400:405   */\n      dup2\n        /* \"#utility.yul\":389:405   */\n      swap1\n      pop\n        /* \"#utility.yul\":334:411   */\n      swap2\n      swap1\n      pop\n      jump\t// out\n        /* \"#utility.yul\":417:539   */\n    tag_39:\n        /* \"#utility.yul\":490:514   */\n      tag_49\n        /* \"#utility.yul\":508:513   */\n      dup2\n        /* \"#utility.yul\":490:514   */\n      tag_38\n      jump\t// in\n    tag_49:\n        /* \"#utility.yul\":483:488   */\n      dup2\n        /* \"#utility.yul\":480:515   */\n      eq\n        /* \"#utility.yul\":470:533   */\n      tag_50\n      jumpi\n        /* \"#utility.yul\":529:530   */\n      0x00\n        /* \"#utility.yul\":526:527   */\n      dup1\n        /* \"#utility.yul\":519:531   */\n      revert\n        /* \"#utility.yul\":470:533   */\n    tag_50:\n        /* \"#utility.yul\":417:539   */\n      pop\n      jump\t// out\n        /* \"#utility.yul\":545:684   */\n    tag_40:\n        /* \"#utility.yul\":591:596   */\n      0x00\n        /* \"#utility.yul\":629:635   */\n      dup2\n        /* \"#utility.yul\":616:636   */\n      calldataload\n        /* \"#utility.yul\":607:636   */\n      swap1\n      pop\n        /* \"#utility.yul\":645:678   */\n      tag_52\n        /* \"#utility.yul\":672:677   */\n      dup2\n        /* \"#utility.yul\":645:678   */\n      tag_39\n      jump\t// in\n    tag_52:\n        /* \"#utility.yul\":545:684   */\n      swap3\n      swap2\n      pop\n      pop\n      jump\t// out\n        /* \"#utility.yul\":690:1309   */\n    tag_6:\n        /* \"#utility.yul\":767:773   */\n      0x00\n        /* \"#utility.yul\":775:781   */\n      dup1\n        /* \"#utility.yul\":783:789   */\n      0x00\n        /* \"#utility.yul\":832:834   */\n      0x60\n        /* \"#utility.yul\":820:829   */\n      dup5\n        /* \"#utility.yul\":811:818   */\n      dup7\n        /* \"#utility.yul\":807:830   */\n      sub\n        /* \"#utility.yul\":803:835   */\n      slt\n        /* \"#utility.yul\":800:919   */\n      iszero\n      tag_54\n      jumpi\n        /* \"#utility.yul\":838:917   */\n      tag_55\n      tag_36\n      jump\t// in\n    tag_55:\n        /* \"#utility.yul\":800:919   */\n    tag_54:\n        /* \"#utility.yul\":958:959   */\n      0x00\n        /* \"#utility.yul\":983:1036   */\n      tag_56\n        /* \"#utility.yul\":1028:1035   */\n      dup7\n        /* \"#utility.yul\":1019:1025   */\n      dup3\n        /* \"#utility.yul\":1008:1017   */\n      dup8\n        /* \"#utility.yul\":1004:1026   */\n      add\n        /* \"#utility.yul\":983:1036   */\n      tag_40\n      jump\t// in\n    tag_56:\n        /* \"#utility.yul\":973:1036   */\n      swap4\n      pop\n        /* \"#utility.yul\":929:1046   */\n      pop\n        /* \"#utility.yul\":1085:1087   */\n      0x20\n        /* \"#utility.yul\":1111:1164   */\n      tag_57\n        /* \"#utility.yul\":1156:1163   */\n      dup7\n        /* \"#utility.yul\":1147:1153   */\n      dup3\n        /* \"#utility.yul\":1136:1145   */\n      dup8\n        /* \"#utility.yul\":1132:1154   */\n      add\n        /* \"#utility.yul\":1111:1164   */\n      tag_40\n      jump\t// in\n    tag_57:\n        /* \"#utility.yul\":1101:1164   */\n      swap3\n      pop\n        /* \"#utility.yul\":1056:1174   */\n      pop\n        /* \"#utility.yul\":1213:1215   */\n      0x40\n        /* \"#utility.yul\":1239:1292   */\n      tag_58\n        /* \"#utility.yul\":1284:1291   */\n      dup7\n        /* \"#utility.yul\":1275:1281   */\n      dup3\n        /* \"#utility.yul\":1264:1273   */\n      dup8\n        /* \"#utility.yul\":1260:1282   */\n      add\n        /* \"#utility.yul\":1239:1292   */\n      tag_40\n      jump\t// in\n    tag_58:\n        /* \"#utility.yul\":1229:1292   */\n      swap2\n      pop\n        /* \"#utility.yul\":1184:1302   */\n      pop\n        /* \"#utility.yul\":690:1309   */\n      swap3\n      pop\n      swap3\n      pop\n      swap3\n      jump\t// out\n        /* \"#utility.yul\":1315:1433   */\n    tag_41:\n        /* \"#utility.yul\":1402:1426   */\n      tag_60\n        /* \"#utility.yul\":1420:1425   */\n      dup2\n        /* \"#utility.yul\":1402:1426   */\n      tag_38\n      jump\t// in\n    tag_60:\n        /* \"#utility.yul\":1397:1400   */\n      dup3\n        /* \"#utility.yul\":1390:1427   */\n      mstore\n        /* \"#utility.yul\":1315:1433   */\n      pop\n      pop\n      jump\t// out\n        /* \"#utility.yul\":1439:1661   */\n    tag_9:\n        /* \"#utility.yul\":1532:1536   */\n      0x00\n        /* \"#utility.yul\":1570:1572   */\n      0x20\n        /* \"#utility.yul\":1559:1568   */\n      dup3\n        /* \"#utility.yul\":1555:1573   */\n      add\n        /* \"#utility.yul\":1547:1573   */\n      swap1\n      pop\n        /* \"#utility.yul\":1583:1654   */\n      tag_62\n        /* \"#utility.yul\":1651:1652   */\n      0x00\n        /* \"#utility.yul\":1640:1649   */\n      dup4\n        /* \"#utility.yul\":1636:1653   */\n      add\n        /* \"#utility.yul\":1627:1633   */\n      dup5\n        /* \"#utility.yul\":1583:1654   */\n      tag_41\n      jump\t// in\n    tag_62:\n        /* \"#utility.yul\":1439:1661   */\n      swap3\n      swap2\n      pop\n      pop\n      jump\t// out\n        /* \"#utility.yul\":1667:1847   */\n    tag_42:\n        /* \"#utility.yul\":1715:1792   */\n      0x4e487b7100000000000000000000000000000000000000000000000000000000\n        /* \"#utility.yul\":1712:1713   */\n      0x00\n        /* \"#utility.yul\":1705:1793   */\n      mstore\n        /* \"#utility.yul\":1812:1816   */\n      0x11\n        /* \"#utility.yul\":1809:1810   */\n      0x04\n        /* \"#utility.yul\":1802:1817   */\n      mstore\n        /* \"#utility.yul\":1836:1840   */\n      0x24\n        /* \"#utility.yul\":1833:1834   */\n      0x00\n        /* \"#utility.yul\":1826:1841   */\n      revert\n        /* \"#utility.yul\":1853:2044   */\n    tag_18:\n        /* \"#utility.yul\":1893:1896   */\n      0x00\n        /* \"#utility.yul\":1912:1932   */\n      tag_65\n        /* \"#utility.yul\":1930:1931   */\n      dup3\n        /* \"#utility.yul\":1912:1932   */\n      tag_38\n      jump\t// in\n    tag_65:\n        /* \"#utility.yul\":1907:1932   */\n      swap2\n      pop\n        /* \"#utility.yul\":1946:1966   */\n      tag_66\n        /* \"#utility.yul\":1964:1965   */\n      dup4\n        /* \"#utility.yul\":1946:1966   */\n      tag_38\n      jump\t// in\n    tag_66:\n        /* \"#utility.yul\":1941:1966   */\n      swap3\n      pop\n        /* \"#utility.yul\":1989:1990   */\n      dup3\n        /* \"#utility.yul\":1986:1987   */\n      dup3\n        /* \"#utility.yul\":1982:1991   */\n      add\n        /* \"#utility.yul\":1975:1991   */\n      swap1\n      pop\n        /* \"#utility.yul\":2010:2013   */\n      dup1\n        /* \"#utility.yul\":2007:2008   */\n      dup3\n        /* \"#utility.yul\":2004:2014   */\n      gt\n        /* \"#utility.yul\":2001:2037   */\n      iszero\n      tag_67\n      jumpi\n        /* \"#utility.yul\":2017:2035   */\n      tag_68\n      tag_42\n      jump\t// in\n    tag_68:\n        /* \"#utility.yul\":2001:2037   */\n    tag_67:\n        /* \"#utility.yul\":1853:2044   */\n      swap3\n      swap2\n      pop\n      pop\n      jump\t// out\n        /* \"#utility.yul\":2050:2230   */\n    tag_21:\n        /* \"#utility.yul\":2098:2175   */\n      0x4e487b7100000000000000000000000000000000000000000000000000000000\n        /* \"#utility.yul\":2095:2096   */\n      0x00\n        /* \"#utility.yul\":2088:2176   */\n      mstore\n        /* \"#utility.yul\":2195:2199   */\n      0x32\n        /* \"#utility.yul\":2192:2193   */\n      0x04\n        /* \"#utility.yul\":2185:2200   */\n      mstore\n        /* \"#utility.yul\":2219:2223   */\n      0x24\n        /* \"#utility.yul\":2216:2217   */\n      0x00\n        /* \"#utility.yul\":2209:2224   */\n      revert\n\n    auxdata: 0xa2646970667358221220a81113a6b6f592769a52fd7ef436d61867a5ac4dd591d5fb58b3ccd634b3f55764736f6c634300081a0033\n}\n",
				"bytecode": {
					"linkReferences": {},
					"object": "6080604052348015600e575f80fd5b506102f08061001c5f395ff3fe608060405234801561000f575f80fd5b5060043610610029575f3560e01c80630812d8e91461002d575b5f80fd5b610047600480360381019061004291906101b5565b61005d565b6040516100549190610214565b60405180910390f35b5f8060405180606001604052808681526020018581526020018481525090505f5b600381101561015b575f600182610095919061025a565b90505b600381101561014d578281600381106100b4576100b361028d565b5b60200201518383600381106100cc576100cb61028d565b5b60200201511015610140578281600381106100ea576100e961028d565b5b60200201518383600381106101025761010161028d565b5b602002015184846003811061011a5761011961028d565b5b602002018584600381106101315761013061028d565b5b60200201828152508281525050505b8080600101915050610098565b50808060010191505061007e565b50805f6003811061016f5761016e61028d565b5b60200201519150509392505050565b5f80fd5b5f819050919050565b61019481610182565b811461019e575f80fd5b50565b5f813590506101af8161018b565b92915050565b5f805f606084860312156101cc576101cb61017e565b5b5f6101d9868287016101a1565b93505060206101ea868287016101a1565b92505060406101fb868287016101a1565b9150509250925092565b61020e81610182565b82525050565b5f6020820190506102275f830184610205565b92915050565b7f4e487b71000000000000000000000000000000000000000000000000000000005f52601160045260245ffd5b5f61026482610182565b915061026f83610182565b92508282019050808211156102875761028661022d565b5b92915050565b7f4e487b71000000000000000000000000000000000000000000000000000000005f52603260045260245ffdfea2646970667358221220a81113a6b6f592769a52fd7ef436d61867a5ac4dd591d5fb58b3ccd634b3f55764736f6c634300081a0033",
					"opcodes": "PUSH1 0x80 PUSH1 0x40 MSTORE CALLVALUE DUP1 ISZERO PUSH1 0xE JUMPI PUSH0 DUP1 REVERT JUMPDEST POP PUSH2 0x2F0 DUP1 PUSH2 0x1C PUSH0 CODECOPY PUSH0 RETURN INVALID PUSH1 0x80 PUSH1 0x40 MSTORE CALLVALUE DUP1 ISZERO PUSH2 0xF JUMPI PUSH0 DUP1 REVERT JUMPDEST POP PUSH1 0x4 CALLDATASIZE LT PUSH2 0x29 JUMPI PUSH0 CALLDATALOAD PUSH1 0xE0 SHR DUP1 PUSH4 0x812D8E9 EQ PUSH2 0x2D JUMPI JUMPDEST PUSH0 DUP1 REVERT JUMPDEST PUSH2 0x47 PUSH1 0x4 DUP1 CALLDATASIZE SUB DUP2 ADD SWAP1 PUSH2 0x42 SWAP2 SWAP1 PUSH2 0x1B5 JUMP JUMPDEST PUSH2 0x5D JUMP JUMPDEST PUSH1 0x40 MLOAD PUSH2 0x54 SWAP2 SWAP1 PUSH2 0x214 JUMP JUMPDEST PUSH1 0x40 MLOAD DUP1 SWAP2 SUB SWAP1 RETURN JUMPDEST PUSH0 DUP1 PUSH1 0x40 MLOAD DUP1 PUSH1 0x60 ADD PUSH1 0x40 MSTORE DUP1 DUP7 DUP2 MSTORE PUSH1 0x20 ADD DUP6 DUP2 MSTORE PUSH1 0x20 ADD DUP5 DUP2 MSTORE POP SWAP1 POP PUSH0 JUMPDEST PUSH1 0x3 DUP2 LT ISZERO PUSH2 0x15B JUMPI PUSH0 PUSH1 0x1 DUP3 PUSH2 0x95 SWAP2 SWAP1 PUSH2 0x25A JUMP JUMPDEST SWAP1 POP JUMPDEST PUSH1 0x3 DUP2 LT ISZERO PUSH2 0x14D JUMPI DUP3 DUP2 PUSH1 0x3 DUP2 LT PUSH2 0xB4 JUMPI PUSH2 0xB3 PUSH2 0x28D JUMP JUMPDEST JUMPDEST PUSH1 0x20 MUL ADD MLOAD DUP4 DUP4 PUSH1 0x3 DUP2 LT PUSH2 0xCC JUMPI PUSH2 0xCB PUSH2 0x28D JUMP JUMPDEST JUMPDEST PUSH1 0x20 MUL ADD MLOAD LT ISZERO PUSH2 0x140 JUMPI DUP3 DUP2 PUSH1 0x3 DUP2 LT PUSH2 0xEA JUMPI PUSH2 0xE9 PUSH2 0x28D JUMP JUMPDEST JUMPDEST PUSH1 0x20 MUL ADD MLOAD DUP4 DUP4 PUSH1 0x3 DUP2 LT PUSH2 0x102 JUMPI PUSH2 0x101 PUSH2 0x28D JUMP JUMPDEST JUMPDEST PUSH1 0x20 MUL ADD MLOAD DUP5 DUP5 PUSH1 0x3 DUP2 LT PUSH2 0x11A JUMPI PUSH2 0x119 PUSH2 0x28D JUMP JUMPDEST JUMPDEST PUSH1 0x20 MUL ADD DUP6 DUP5 PUSH1 0x3 DUP2 LT PUSH2 0x131 JUMPI PUSH2 0x130 PUSH2 0x28D JUMP JUMPDEST JUMPDEST PUSH1 0x20 MUL ADD DUP3 DUP2 MSTORE POP DUP3 DUP2 MSTORE POP POP POP JUMPDEST DUP1 DUP1 PUSH1 0x1 ADD SWAP2 POP POP PUSH2 0x98 JUMP JUMPDEST POP DUP1 DUP1 PUSH1 0x1 ADD SWAP2 POP POP PUSH2 0x7E JUMP JUMPDEST POP DUP1 PUSH0 PUSH1 0x3 DUP2 LT PUSH2 0x16F JUMPI PUSH2 0x16E PUSH2 0x28D JUMP JUMPDEST JUMPDEST PUSH1 0x20 MUL ADD MLOAD SWAP2 POP POP SWAP4 SWAP3 POP POP POP JUMP JUMPDEST PUSH0 DUP1 REVERT JUMPDEST PUSH0 DUP2 SWAP1 POP SWAP2 SWAP1 POP JUMP JUMPDEST PUSH2 0x194 DUP2 PUSH2 0x182 JUMP JUMPDEST DUP2 EQ PUSH2 0x19E JUMPI PUSH0 DUP1 REVERT JUMPDEST POP JUMP JUMPDEST PUSH0 DUP2 CALLDATALOAD SWAP1 POP PUSH2 0x1AF DUP2 PUSH2 0x18B JUMP JUMPDEST SWAP3 SWAP2 POP POP JUMP JUMPDEST PUSH0 DUP1 PUSH0 PUSH1 0x60 DUP5 DUP7 SUB SLT ISZERO PUSH2 0x1CC JUMPI PUSH2 0x1CB PUSH2 0x17E JUMP JUMPDEST JUMPDEST PUSH0 PUSH2 0x1D9 DUP7 DUP3 DUP8 ADD PUSH2 0x1A1 JUMP JUMPDEST SWAP4 POP POP PUSH1 0x20 PUSH2 0x1EA DUP7 DUP3 DUP8 ADD PUSH2 0x1A1 JUMP JUMPDEST SWAP3 POP POP PUSH1 0x40 PUSH2 0x1FB DUP7 DUP3 DUP8 ADD PUSH2 0x1A1 JUMP JUMPDEST SWAP2 POP POP SWAP3 POP SWAP3 POP SWAP3 JUMP JUMPDEST PUSH2 0x20E DUP2 PUSH2 0x182 JUMP JUMPDEST DUP3 MSTORE POP POP JUMP JUMPDEST PUSH0 PUSH1 0x20 DUP3 ADD SWAP1 POP PUSH2 0x227 PUSH0 DUP4 ADD DUP5 PUSH2 0x205 JUMP JUMPDEST SWAP3 SWAP2 POP POP JUMP JUMPDEST PUSH32 0x4E487B7100000000000000000000000000000000000000000000000000000000 PUSH0 MSTORE PUSH1 0x11 PUSH1 0x4 MSTORE PUSH1 0x24 PUSH0 REVERT JUMPDEST PUSH0 PUSH2 0x264 DUP3 PUSH2 0x182 JUMP JUMPDEST SWAP2 POP PUSH2 0x26F DUP4 PUSH2 0x182 JUMP JUMPDEST SWAP3 POP DUP3 DUP3 ADD SWAP1 POP DUP1 DUP3 GT ISZERO PUSH2 0x287 JUMPI PUSH2 0x286 PUSH2 0x22D JUMP JUMPDEST JUMPDEST SWAP3 SWAP2 POP POP JUMP JUMPDEST PUSH32 0x4E487B7100000000000000000000000000000000000000000000000000000000 PUSH0 MSTORE PUSH1 0x32 PUSH1 0x4 MSTORE PUSH1 0x24 PUSH0 REVERT INVALID LOG2 PUSH5 0x6970667358 0x22 SLT KECCAK256 0xA8 GT SGT 0xA6 0xB6 CREATE2 SWAP3 PUSH23 0x9A52FD7EF436D61867A5AC4DD591D5FB58B3CCD634B3F5 JUMPI PUSH5 0x736F6C6343 STOP ADDMOD BYTE STOP CALLER "
				},
				"gasEstimates": {
					"creation": {
						"codeDepositCost": "150400",
						"executionCost": "194",
						"totalCost": "150594"
					},
					"external": {
						"biggest(uint256,uint256,uint256)": "infinite"
					}
				},
				"methodIdentifiers": {
					"biggest(uint256,uint256,uint256)": "0812d8e9"
				}
			},
			"storageLayout": {
				"storage": [],
				"types": null
			},
			"userdoc": {
				"kind": "user",
				"methods": {},
				"version": 1
			}
		}
	}
}