{
	"Solidity100/sol100(1~10).sol": {
		"Q1": {
			"abi": [
				{
					"inputs": [
						{
							"internalType": "uint256",
							"name": "_a",
							"type": "uint256"
						},
						{
							"internalType": "uint256",
							"name": "_b",
							"type": "uint256"
						}
					],
					"name": "add",
					"outputs": [
						{
							"internalType": "uint256",
							"name": "",
							"type": "uint256"
						}
					],
					"stateMutability": "pure",
					"type": "function"
				},
				{
					"inputs": [
						{
							"internalType": "uint256",
							"name": "_a",
							"type": "uint256"
						},
						{
							"internalType": "uint256",
							"name": "_b",
							"type": "uint256"
						}
					],
					"name": "div",
					"outputs": [
						{
							"internalType": "uint256",
							"name": "",
							"type": "uint256"
						}
					],
					"stateMutability": "pure",
					"type": "function"
				},
				{
					"inputs": [
						{
							"internalType": "uint256",
							"name": "_a",
							"type": "uint256"
						},
						{
							"internalType": "uint256",
							"name": "_b",
							"type": "uint256"
						}
					],
					"name": "mul",
					"outputs": [
						{
							"internalType": "uint256",
							"name": "",
							"type": "uint256"
						}
					],
					"stateMutability": "pure",
					"type": "function"
				},
				{
					"inputs": [
						{
							"internalType": "uint256",
							"name": "_a",
							"type": "uint256"
						}
					],
					"name": "pow",
					"outputs": [
						{
							"internalType": "uint256",
							"name": "",
							"type": "uint256"
						}
					],
					"stateMutability": "pure",
					"type": "function"
				},
				{
					"inputs": [
						{
							"internalType": "uint256",
							"name": "_a",
							"type": "uint256"
						},
						{
							"internalType": "uint256",
							"name": "_b",
							"type": "uint256"
						}
					],
					"name": "sub",
					"outputs": [
						{
							"internalType": "uint256",
							"name": "",
							"type": "uint256"
						}
					],
					"stateMutability": "pure",
					"type": "function"
				}
			],
			"devdoc": {
				"kind": "dev",
				"methods": {},
				"version": 1
			},
			"evm": {
				"assembly": "    /* \"Solidity100/sol100(1~10).sol\":76:704  contract Q1 {... */\n  mstore(0x40, 0x80)\n  callvalue\n  dup1\n  iszero\n  tag_1\n  jumpi\n  0x00\n  dup1\n  revert\ntag_1:\n  pop\n  dataSize(sub_0)\n  dup1\n  dataOffset(sub_0)\n  0x00\n  codecopy\n  0x00\n  return\nstop\n\nsub_0: assembly {\n        /* \"Solidity100/sol100(1~10).sol\":76:704  contract Q1 {... */\n      mstore(0x40, 0x80)\n      callvalue\n      dup1\n      iszero\n      tag_1\n      jumpi\n      0x00\n      dup1\n      revert\n    tag_1:\n      pop\n      jumpi(tag_2, lt(calldatasize, 0x04))\n      shr(0xe0, calldataload(0x00))\n      dup1\n      0x771602f7\n      eq\n      tag_3\n      jumpi\n      dup1\n      0xa391c15b\n      eq\n      tag_4\n      jumpi\n      dup1\n      0xb48d82cd\n      eq\n      tag_5\n      jumpi\n      dup1\n      0xb67d77c5\n      eq\n      tag_6\n      jumpi\n      dup1\n      0xc8a4ac9c\n      eq\n      tag_7\n      jumpi\n    tag_2:\n      0x00\n      dup1\n      revert\n        /* \"Solidity100/sol100(1~10).sol\":224:314  function add(uint _a, uint _b) public pure returns(uint) {... */\n    tag_3:\n      tag_8\n      0x04\n      dup1\n      calldatasize\n      sub\n      dup2\n      add\n      swap1\n      tag_9\n      swap2\n      swap1\n      tag_10\n      jump\t// in\n    tag_9:\n      tag_11\n      jump\t// in\n    tag_8:\n      mload(0x40)\n      tag_12\n      swap2\n      swap1\n      tag_13\n      jump\t// in\n    tag_12:\n      mload(0x40)\n      dup1\n      swap2\n      sub\n      swap1\n      return\n        /* \"Solidity100/sol100(1~10).sol\":518:607  function div(uint _a, uint _b) public pure returns(uint) {... */\n    tag_4:\n      tag_14\n      0x04\n      dup1\n      calldatasize\n      sub\n      dup2\n      add\n      swap1\n      tag_15\n      swap2\n      swap1\n      tag_10\n      jump\t// in\n    tag_15:\n      tag_16\n      jump\t// in\n    tag_14:\n      mload(0x40)\n      tag_17\n      swap2\n      swap1\n      tag_13\n      jump\t// in\n    tag_17:\n      mload(0x40)\n      dup1\n      swap2\n      sub\n      swap1\n      return\n        /* \"Solidity100/sol100(1~10).sol\":617:697  function pow(uint _a) public pure returns(uint) {... */\n    tag_5:\n      tag_18\n      0x04\n      dup1\n      calldatasize\n      sub\n      dup2\n      add\n      swap1\n      tag_19\n      swap2\n      swap1\n      tag_20\n      jump\t// in\n    tag_19:\n      tag_21\n      jump\t// in\n    tag_18:\n      mload(0x40)\n      tag_22\n      swap2\n      swap1\n      tag_13\n      jump\t// in\n    tag_22:\n      mload(0x40)\n      dup1\n      swap2\n      sub\n      swap1\n      return\n        /* \"Solidity100/sol100(1~10).sol\":322:412  function sub(uint _a, uint _b) public pure returns(uint) {... */\n    tag_6:\n      tag_23\n      0x04\n      dup1\n      calldatasize\n      sub\n      dup2\n      add\n      swap1\n      tag_24\n      swap2\n      swap1\n      tag_10\n      jump\t// in\n    tag_24:\n      tag_25\n      jump\t// in\n    tag_23:\n      mload(0x40)\n      tag_26\n      swap2\n      swap1\n      tag_13\n      jump\t// in\n    tag_26:\n      mload(0x40)\n      dup1\n      swap2\n      sub\n      swap1\n      return\n        /* \"Solidity100/sol100(1~10).sol\":420:510  function mul(uint _a, uint _b) public pure returns(uint) {... */\n    tag_7:\n      tag_27\n      0x04\n      dup1\n      calldatasize\n      sub\n      dup2\n      add\n      swap1\n      tag_28\n      swap2\n      swap1\n      tag_10\n      jump\t// in\n    tag_28:\n      tag_29\n      jump\t// in\n    tag_27:\n      mload(0x40)\n      tag_30\n      swap2\n      swap1\n      tag_13\n      jump\t// in\n    tag_30:\n      mload(0x40)\n      dup1\n      swap2\n      sub\n      swap1\n      return\n        /* \"Solidity100/sol100(1~10).sol\":224:314  function add(uint _a, uint _b) public pure returns(uint) {... */\n    tag_11:\n        /* \"Solidity100/sol100(1~10).sol\":275:279  uint */\n      0x00\n        /* \"Solidity100/sol100(1~10).sol\":304:306  _b */\n      dup2\n        /* \"Solidity100/sol100(1~10).sol\":299:301  _a */\n      dup4\n        /* \"Solidity100/sol100(1~10).sol\":299:306  _a + _b */\n      tag_32\n      swap2\n      swap1\n      tag_33\n      jump\t// in\n    tag_32:\n        /* \"Solidity100/sol100(1~10).sol\":292:306  return _a + _b */\n      swap1\n      pop\n        /* \"Solidity100/sol100(1~10).sol\":224:314  function add(uint _a, uint _b) public pure returns(uint) {... */\n      swap3\n      swap2\n      pop\n      pop\n      jump\t// out\n        /* \"Solidity100/sol100(1~10).sol\":518:607  function div(uint _a, uint _b) public pure returns(uint) {... */\n    tag_16:\n        /* \"Solidity100/sol100(1~10).sol\":569:573  uint */\n      0x00\n        /* \"Solidity100/sol100(1~10).sol\":597:599  _b */\n      dup2\n        /* \"Solidity100/sol100(1~10).sol\":593:595  _a */\n      dup4\n        /* \"Solidity100/sol100(1~10).sol\":593:599  _a /_b */\n      tag_35\n      swap2\n      swap1\n      tag_36\n      jump\t// in\n    tag_35:\n        /* \"Solidity100/sol100(1~10).sol\":586:599  return _a /_b */\n      swap1\n      pop\n        /* \"Solidity100/sol100(1~10).sol\":518:607  function div(uint _a, uint _b) public pure returns(uint) {... */\n      swap3\n      swap2\n      pop\n      pop\n      jump\t// out\n        /* \"Solidity100/sol100(1~10).sol\":617:697  function pow(uint _a) public pure returns(uint) {... */\n    tag_21:\n        /* \"Solidity100/sol100(1~10).sol\":659:663  uint */\n      0x00\n        /* \"Solidity100/sol100(1~10).sol\":688:689  2 */\n      0x02\n        /* \"Solidity100/sol100(1~10).sol\":683:685  _a */\n      dup3\n        /* \"Solidity100/sol100(1~10).sol\":683:689  _a **2 */\n      tag_38\n      swap2\n      swap1\n      tag_39\n      jump\t// in\n    tag_38:\n        /* \"Solidity100/sol100(1~10).sol\":676:689  return _a **2 */\n      swap1\n      pop\n        /* \"Solidity100/sol100(1~10).sol\":617:697  function pow(uint _a) public pure returns(uint) {... */\n      swap2\n      swap1\n      pop\n      jump\t// out\n        /* \"Solidity100/sol100(1~10).sol\":322:412  function sub(uint _a, uint _b) public pure returns(uint) {... */\n    tag_25:\n        /* \"Solidity100/sol100(1~10).sol\":373:377  uint */\n      0x00\n        /* \"Solidity100/sol100(1~10).sol\":402:404  _b */\n      dup2\n        /* \"Solidity100/sol100(1~10).sol\":397:399  _a */\n      dup4\n        /* \"Solidity100/sol100(1~10).sol\":397:404  _a - _b */\n      tag_41\n      swap2\n      swap1\n      tag_42\n      jump\t// in\n    tag_41:\n        /* \"Solidity100/sol100(1~10).sol\":390:404  return _a - _b */\n      swap1\n      pop\n        /* \"Solidity100/sol100(1~10).sol\":322:412  function sub(uint _a, uint _b) public pure returns(uint) {... */\n      swap3\n      swap2\n      pop\n      pop\n      jump\t// out\n        /* \"Solidity100/sol100(1~10).sol\":420:510  function mul(uint _a, uint _b) public pure returns(uint) {... */\n    tag_29:\n        /* \"Solidity100/sol100(1~10).sol\":471:475  uint */\n      0x00\n        /* \"Solidity100/sol100(1~10).sol\":500:502  _b */\n      dup2\n        /* \"Solidity100/sol100(1~10).sol\":495:497  _a */\n      dup4\n        /* \"Solidity100/sol100(1~10).sol\":495:502  _a * _b */\n      tag_44\n      swap2\n      swap1\n      tag_45\n      jump\t// in\n    tag_44:\n        /* \"Solidity100/sol100(1~10).sol\":488:502  return _a * _b */\n      swap1\n      pop\n        /* \"Solidity100/sol100(1~10).sol\":420:510  function mul(uint _a, uint _b) public pure returns(uint) {... */\n      swap3\n      swap2\n      pop\n      pop\n      jump\t// out\n        /* \"#utility.yul\":88:205   */\n    tag_47:\n        /* \"#utility.yul\":197:198   */\n      0x00\n        /* \"#utility.yul\":194:195   */\n      dup1\n        /* \"#utility.yul\":187:199   */\n      revert\n        /* \"#utility.yul\":334:411   */\n    tag_49:\n        /* \"#utility.yul\":371:378   */\n      0x00\n        /* \"#utility.yul\":400:405   */\n      dup2\n        /* \"#utility.yul\":389:405   */\n      swap1\n      pop\n        /* \"#utility.yul\":334:411   */\n      swap2\n      swap1\n      pop\n      jump\t// out\n        /* \"#utility.yul\":417:539   */\n    tag_50:\n        /* \"#utility.yul\":490:514   */\n      tag_65\n        /* \"#utility.yul\":508:513   */\n      dup2\n        /* \"#utility.yul\":490:514   */\n      tag_49\n      jump\t// in\n    tag_65:\n        /* \"#utility.yul\":483:488   */\n      dup2\n        /* \"#utility.yul\":480:515   */\n      eq\n        /* \"#utility.yul\":470:533   */\n      tag_66\n      jumpi\n        /* \"#utility.yul\":529:530   */\n      0x00\n        /* \"#utility.yul\":526:527   */\n      dup1\n        /* \"#utility.yul\":519:531   */\n      revert\n        /* \"#utility.yul\":470:533   */\n    tag_66:\n        /* \"#utility.yul\":417:539   */\n      pop\n      jump\t// out\n        /* \"#utility.yul\":545:684   */\n    tag_51:\n        /* \"#utility.yul\":591:596   */\n      0x00\n        /* \"#utility.yul\":629:635   */\n      dup2\n        /* \"#utility.yul\":616:636   */\n      calldataload\n        /* \"#utility.yul\":607:636   */\n      swap1\n      pop\n        /* \"#utility.yul\":645:678   */\n      tag_68\n        /* \"#utility.yul\":672:677   */\n      dup2\n        /* \"#utility.yul\":645:678   */\n      tag_50\n      jump\t// in\n    tag_68:\n        /* \"#utility.yul\":545:684   */\n      swap3\n      swap2\n      pop\n      pop\n      jump\t// out\n        /* \"#utility.yul\":690:1164   */\n    tag_10:\n        /* \"#utility.yul\":758:764   */\n      0x00\n        /* \"#utility.yul\":766:772   */\n      dup1\n        /* \"#utility.yul\":815:817   */\n      0x40\n        /* \"#utility.yul\":803:812   */\n      dup4\n        /* \"#utility.yul\":794:801   */\n      dup6\n        /* \"#utility.yul\":790:813   */\n      sub\n        /* \"#utility.yul\":786:818   */\n      slt\n        /* \"#utility.yul\":783:902   */\n      iszero\n      tag_70\n      jumpi\n        /* \"#utility.yul\":821:900   */\n      tag_71\n      tag_47\n      jump\t// in\n    tag_71:\n        /* \"#utility.yul\":783:902   */\n    tag_70:\n        /* \"#utility.yul\":941:942   */\n      0x00\n        /* \"#utility.yul\":966:1019   */\n      tag_72\n        /* \"#utility.yul\":1011:1018   */\n      dup6\n        /* \"#utility.yul\":1002:1008   */\n      dup3\n        /* \"#utility.yul\":991:1000   */\n      dup7\n        /* \"#utility.yul\":987:1009   */\n      add\n        /* \"#utility.yul\":966:1019   */\n      tag_51\n      jump\t// in\n    tag_72:\n        /* \"#utility.yul\":956:1019   */\n      swap3\n      pop\n        /* \"#utility.yul\":912:1029   */\n      pop\n        /* \"#utility.yul\":1068:1070   */\n      0x20\n        /* \"#utility.yul\":1094:1147   */\n      tag_73\n        /* \"#utility.yul\":1139:1146   */\n      dup6\n        /* \"#utility.yul\":1130:1136   */\n      dup3\n        /* \"#utility.yul\":1119:1128   */\n      dup7\n        /* \"#utility.yul\":1115:1137   */\n      add\n        /* \"#utility.yul\":1094:1147   */\n      tag_51\n      jump\t// in\n    tag_73:\n        /* \"#utility.yul\":1084:1147   */\n      swap2\n      pop\n        /* \"#utility.yul\":1039:1157   */\n      pop\n        /* \"#utility.yul\":690:1164   */\n      swap3\n      pop\n      swap3\n      swap1\n      pop\n      jump\t// out\n        /* \"#utility.yul\":1170:1288   */\n    tag_52:\n        /* \"#utility.yul\":1257:1281   */\n      tag_75\n        /* \"#utility.yul\":1275:1280   */\n      dup2\n        /* \"#utility.yul\":1257:1281   */\n      tag_49\n      jump\t// in\n    tag_75:\n        /* \"#utility.yul\":1252:1255   */\n      dup3\n        /* \"#utility.yul\":1245:1282   */\n      mstore\n        /* \"#utility.yul\":1170:1288   */\n      pop\n      pop\n      jump\t// out\n        /* \"#utility.yul\":1294:1516   */\n    tag_13:\n        /* \"#utility.yul\":1387:1391   */\n      0x00\n        /* \"#utility.yul\":1425:1427   */\n      0x20\n        /* \"#utility.yul\":1414:1423   */\n      dup3\n        /* \"#utility.yul\":1410:1428   */\n      add\n        /* \"#utility.yul\":1402:1428   */\n      swap1\n      pop\n        /* \"#utility.yul\":1438:1509   */\n      tag_77\n        /* \"#utility.yul\":1506:1507   */\n      0x00\n        /* \"#utility.yul\":1495:1504   */\n      dup4\n        /* \"#utility.yul\":1491:1508   */\n      add\n        /* \"#utility.yul\":1482:1488   */\n      dup5\n        /* \"#utility.yul\":1438:1509   */\n      tag_52\n      jump\t// in\n    tag_77:\n        /* \"#utility.yul\":1294:1516   */\n      swap3\n      swap2\n      pop\n      pop\n      jump\t// out\n        /* \"#utility.yul\":1522:1851   */\n    tag_20:\n        /* \"#utility.yul\":1581:1587   */\n      0x00\n        /* \"#utility.yul\":1630:1632   */\n      0x20\n        /* \"#utility.yul\":1618:1627   */\n      dup3\n        /* \"#utility.yul\":1609:1616   */\n      dup5\n        /* \"#utility.yul\":1605:1628   */\n      sub\n        /* \"#utility.yul\":1601:1633   */\n      slt\n        /* \"#utility.yul\":1598:1717   */\n      iszero\n      tag_79\n      jumpi\n        /* \"#utility.yul\":1636:1715   */\n      tag_80\n      tag_47\n      jump\t// in\n    tag_80:\n        /* \"#utility.yul\":1598:1717   */\n    tag_79:\n        /* \"#utility.yul\":1756:1757   */\n      0x00\n        /* \"#utility.yul\":1781:1834   */\n      tag_81\n        /* \"#utility.yul\":1826:1833   */\n      dup5\n        /* \"#utility.yul\":1817:1823   */\n      dup3\n        /* \"#utility.yul\":1806:1815   */\n      dup6\n        /* \"#utility.yul\":1802:1824   */\n      add\n        /* \"#utility.yul\":1781:1834   */\n      tag_51\n      jump\t// in\n    tag_81:\n        /* \"#utility.yul\":1771:1834   */\n      swap2\n      pop\n        /* \"#utility.yul\":1727:1844   */\n      pop\n        /* \"#utility.yul\":1522:1851   */\n      swap3\n      swap2\n      pop\n      pop\n      jump\t// out\n        /* \"#utility.yul\":1857:2037   */\n    tag_53:\n        /* \"#utility.yul\":1905:1982   */\n      0x4e487b7100000000000000000000000000000000000000000000000000000000\n        /* \"#utility.yul\":1902:1903   */\n      0x00\n        /* \"#utility.yul\":1895:1983   */\n      mstore\n        /* \"#utility.yul\":2002:2006   */\n      0x11\n        /* \"#utility.yul\":1999:2000   */\n      0x04\n        /* \"#utility.yul\":1992:2007   */\n      mstore\n        /* \"#utility.yul\":2026:2030   */\n      0x24\n        /* \"#utility.yul\":2023:2024   */\n      0x00\n        /* \"#utility.yul\":2016:2031   */\n      revert\n        /* \"#utility.yul\":2043:2234   */\n    tag_33:\n        /* \"#utility.yul\":2083:2086   */\n      0x00\n        /* \"#utility.yul\":2102:2122   */\n      tag_84\n        /* \"#utility.yul\":2120:2121   */\n      dup3\n        /* \"#utility.yul\":2102:2122   */\n      tag_49\n      jump\t// in\n    tag_84:\n        /* \"#utility.yul\":2097:2122   */\n      swap2\n      pop\n        /* \"#utility.yul\":2136:2156   */\n      tag_85\n        /* \"#utility.yul\":2154:2155   */\n      dup4\n        /* \"#utility.yul\":2136:2156   */\n      tag_49\n      jump\t// in\n    tag_85:\n        /* \"#utility.yul\":2131:2156   */\n      swap3\n      pop\n        /* \"#utility.yul\":2179:2180   */\n      dup3\n        /* \"#utility.yul\":2176:2177   */\n      dup3\n        /* \"#utility.yul\":2172:2181   */\n      add\n        /* \"#utility.yul\":2165:2181   */\n      swap1\n      pop\n        /* \"#utility.yul\":2200:2203   */\n      dup1\n        /* \"#utility.yul\":2197:2198   */\n      dup3\n        /* \"#utility.yul\":2194:2204   */\n      gt\n        /* \"#utility.yul\":2191:2227   */\n      iszero\n      tag_86\n      jumpi\n        /* \"#utility.yul\":2207:2225   */\n      tag_87\n      tag_53\n      jump\t// in\n    tag_87:\n        /* \"#utility.yul\":2191:2227   */\n    tag_86:\n        /* \"#utility.yul\":2043:2234   */\n      swap3\n      swap2\n      pop\n      pop\n      jump\t// out\n        /* \"#utility.yul\":2240:2420   */\n    tag_54:\n        /* \"#utility.yul\":2288:2365   */\n      0x4e487b7100000000000000000000000000000000000000000000000000000000\n        /* \"#utility.yul\":2285:2286   */\n      0x00\n        /* \"#utility.yul\":2278:2366   */\n      mstore\n        /* \"#utility.yul\":2385:2389   */\n      0x12\n        /* \"#utility.yul\":2382:2383   */\n      0x04\n        /* \"#utility.yul\":2375:2390   */\n      mstore\n        /* \"#utility.yul\":2409:2413   */\n      0x24\n        /* \"#utility.yul\":2406:2407   */\n      0x00\n        /* \"#utility.yul\":2399:2414   */\n      revert\n        /* \"#utility.yul\":2426:2611   */\n    tag_36:\n        /* \"#utility.yul\":2466:2467   */\n      0x00\n        /* \"#utility.yul\":2483:2503   */\n      tag_90\n        /* \"#utility.yul\":2501:2502   */\n      dup3\n        /* \"#utility.yul\":2483:2503   */\n      tag_49\n      jump\t// in\n    tag_90:\n        /* \"#utility.yul\":2478:2503   */\n      swap2\n      pop\n        /* \"#utility.yul\":2517:2537   */\n      tag_91\n        /* \"#utility.yul\":2535:2536   */\n      dup4\n        /* \"#utility.yul\":2517:2537   */\n      tag_49\n      jump\t// in\n    tag_91:\n        /* \"#utility.yul\":2512:2537   */\n      swap3\n      pop\n        /* \"#utility.yul\":2556:2557   */\n      dup3\n        /* \"#utility.yul\":2546:2581   */\n      tag_92\n      jumpi\n        /* \"#utility.yul\":2561:2579   */\n      tag_93\n      tag_54\n      jump\t// in\n    tag_93:\n        /* \"#utility.yul\":2546:2581   */\n    tag_92:\n        /* \"#utility.yul\":2603:2604   */\n      dup3\n        /* \"#utility.yul\":2600:2601   */\n      dup3\n        /* \"#utility.yul\":2596:2605   */\n      div\n        /* \"#utility.yul\":2591:2605   */\n      swap1\n      pop\n        /* \"#utility.yul\":2426:2611   */\n      swap3\n      swap2\n      pop\n      pop\n      jump\t// out\n        /* \"#utility.yul\":2617:2719   */\n    tag_55:\n        /* \"#utility.yul\":2659:2667   */\n      0x00\n        /* \"#utility.yul\":2706:2711   */\n      dup2\n        /* \"#utility.yul\":2703:2704   */\n      0x01\n        /* \"#utility.yul\":2699:2712   */\n      shr\n        /* \"#utility.yul\":2678:2712   */\n      swap1\n      pop\n        /* \"#utility.yul\":2617:2719   */\n      swap2\n      swap1\n      pop\n      jump\t// out\n        /* \"#utility.yul\":2725:3573   */\n    tag_56:\n        /* \"#utility.yul\":2786:2791   */\n      0x00\n        /* \"#utility.yul\":2793:2797   */\n      dup1\n        /* \"#utility.yul\":2817:2823   */\n      dup3\n        /* \"#utility.yul\":2808:2823   */\n      swap2\n      pop\n        /* \"#utility.yul\":2841:2846   */\n      dup4\n        /* \"#utility.yul\":2832:2846   */\n      swap1\n      pop\n        /* \"#utility.yul\":2855:3567   */\n    tag_96:\n        /* \"#utility.yul\":2876:2877   */\n      0x01\n        /* \"#utility.yul\":2866:2874   */\n      dup6\n        /* \"#utility.yul\":2863:2878   */\n      gt\n        /* \"#utility.yul\":2855:3567   */\n      iszero\n      tag_98\n      jumpi\n        /* \"#utility.yul\":2971:2975   */\n      dup1\n        /* \"#utility.yul\":2966:2969   */\n      dup7\n        /* \"#utility.yul\":2962:2976   */\n      div\n        /* \"#utility.yul\":2956:2960   */\n      dup2\n        /* \"#utility.yul\":2953:2977   */\n      gt\n        /* \"#utility.yul\":2950:3000   */\n      iszero\n      tag_99\n      jumpi\n        /* \"#utility.yul\":2980:2998   */\n      tag_100\n      tag_53\n      jump\t// in\n    tag_100:\n        /* \"#utility.yul\":2950:3000   */\n    tag_99:\n        /* \"#utility.yul\":3030:3031   */\n      0x01\n        /* \"#utility.yul\":3020:3028   */\n      dup6\n        /* \"#utility.yul\":3016:3032   */\n      and\n        /* \"#utility.yul\":3013:3464   */\n      iszero\n      tag_101\n      jumpi\n        /* \"#utility.yul\":3445:3449   */\n      dup1\n        /* \"#utility.yul\":3438:3443   */\n      dup3\n        /* \"#utility.yul\":3434:3450   */\n      mul\n        /* \"#utility.yul\":3425:3450   */\n      swap2\n      pop\n        /* \"#utility.yul\":3013:3464   */\n    tag_101:\n        /* \"#utility.yul\":3495:3499   */\n      dup1\n        /* \"#utility.yul\":3489:3493   */\n      dup2\n        /* \"#utility.yul\":3485:3500   */\n      mul\n        /* \"#utility.yul\":3477:3500   */\n      swap1\n      pop\n        /* \"#utility.yul\":3525:3557   */\n      tag_102\n        /* \"#utility.yul\":3548:3556   */\n      dup6\n        /* \"#utility.yul\":3525:3557   */\n      tag_55\n      jump\t// in\n    tag_102:\n        /* \"#utility.yul\":3513:3557   */\n      swap5\n      pop\n        /* \"#utility.yul\":2855:3567   */\n      jump(tag_96)\n    tag_98:\n        /* \"#utility.yul\":2725:3573   */\n      swap5\n      pop\n      swap5\n      swap3\n      pop\n      pop\n      pop\n      jump\t// out\n        /* \"#utility.yul\":3579:4652   */\n    tag_57:\n        /* \"#utility.yul\":3633:3638   */\n      0x00\n        /* \"#utility.yul\":3824:3832   */\n      dup3\n        /* \"#utility.yul\":3814:3854   */\n      tag_104\n      jumpi\n        /* \"#utility.yul\":3845:3846   */\n      0x01\n        /* \"#utility.yul\":3836:3846   */\n      swap1\n      pop\n        /* \"#utility.yul\":3847:3852   */\n      jump(tag_103)\n        /* \"#utility.yul\":3814:3854   */\n    tag_104:\n        /* \"#utility.yul\":3873:3877   */\n      dup2\n        /* \"#utility.yul\":3863:3899   */\n      tag_105\n      jumpi\n        /* \"#utility.yul\":3890:3891   */\n      0x00\n        /* \"#utility.yul\":3881:3891   */\n      swap1\n      pop\n        /* \"#utility.yul\":3892:3897   */\n      jump(tag_103)\n        /* \"#utility.yul\":3863:3899   */\n    tag_105:\n        /* \"#utility.yul\":3959:3963   */\n      dup2\n        /* \"#utility.yul\":4007:4008   */\n      0x01\n        /* \"#utility.yul\":4002:4029   */\n      dup2\n      eq\n      tag_107\n      jumpi\n        /* \"#utility.yul\":4043:4044   */\n      0x02\n        /* \"#utility.yul\":4038:4229   */\n      dup2\n      eq\n      tag_108\n      jumpi\n        /* \"#utility.yul\":3952:4229   */\n      jump(tag_106)\n        /* \"#utility.yul\":4002:4029   */\n    tag_107:\n        /* \"#utility.yul\":4020:4021   */\n      0x01\n        /* \"#utility.yul\":4011:4021   */\n      swap2\n      pop\n        /* \"#utility.yul\":4022:4027   */\n      pop\n      jump(tag_103)\n        /* \"#utility.yul\":4038:4229   */\n    tag_108:\n        /* \"#utility.yul\":4083:4086   */\n      0xff\n        /* \"#utility.yul\":4073:4081   */\n      dup5\n        /* \"#utility.yul\":4070:4087   */\n      gt\n        /* \"#utility.yul\":4067:4110   */\n      iszero\n      tag_109\n      jumpi\n        /* \"#utility.yul\":4090:4108   */\n      tag_110\n      tag_53\n      jump\t// in\n    tag_110:\n        /* \"#utility.yul\":4067:4110   */\n    tag_109:\n        /* \"#utility.yul\":4139:4147   */\n      dup4\n        /* \"#utility.yul\":4136:4137   */\n      0x02\n        /* \"#utility.yul\":4132:4148   */\n      exp\n        /* \"#utility.yul\":4123:4148   */\n      swap2\n      pop\n        /* \"#utility.yul\":4174:4177   */\n      dup5\n        /* \"#utility.yul\":4167:4172   */\n      dup3\n        /* \"#utility.yul\":4164:4178   */\n      gt\n        /* \"#utility.yul\":4161:4201   */\n      iszero\n      tag_111\n      jumpi\n        /* \"#utility.yul\":4181:4199   */\n      tag_112\n      tag_53\n      jump\t// in\n    tag_112:\n        /* \"#utility.yul\":4161:4201   */\n    tag_111:\n        /* \"#utility.yul\":4214:4219   */\n      pop\n      jump(tag_103)\n        /* \"#utility.yul\":3952:4229   */\n    tag_106:\n      pop\n        /* \"#utility.yul\":4338:4340   */\n      0x20\n        /* \"#utility.yul\":4328:4336   */\n      dup4\n        /* \"#utility.yul\":4325:4341   */\n      lt\n        /* \"#utility.yul\":4319:4322   */\n      0x0133\n        /* \"#utility.yul\":4313:4317   */\n      dup4\n        /* \"#utility.yul\":4310:4323   */\n      lt\n        /* \"#utility.yul\":4306:4342   */\n      and\n        /* \"#utility.yul\":4288:4290   */\n      0x4e\n        /* \"#utility.yul\":4278:4286   */\n      dup5\n        /* \"#utility.yul\":4275:4291   */\n      lt\n        /* \"#utility.yul\":4270:4272   */\n      0x0b\n        /* \"#utility.yul\":4264:4268   */\n      dup5\n        /* \"#utility.yul\":4261:4273   */\n      lt\n        /* \"#utility.yul\":4257:4292   */\n      and\n        /* \"#utility.yul\":4241:4352   */\n      or\n        /* \"#utility.yul\":4238:4484   */\n      iszero\n      tag_113\n      jumpi\n        /* \"#utility.yul\":4394:4402   */\n      dup3\n        /* \"#utility.yul\":4388:4392   */\n      dup3\n        /* \"#utility.yul\":4384:4403   */\n      exp\n        /* \"#utility.yul\":4375:4403   */\n      swap1\n      pop\n        /* \"#utility.yul\":4429:4432   */\n      dup4\n        /* \"#utility.yul\":4422:4427   */\n      dup2\n        /* \"#utility.yul\":4419:4433   */\n      gt\n        /* \"#utility.yul\":4416:4456   */\n      iszero\n      tag_114\n      jumpi\n        /* \"#utility.yul\":4436:4454   */\n      tag_115\n      tag_53\n      jump\t// in\n    tag_115:\n        /* \"#utility.yul\":4416:4456   */\n    tag_114:\n        /* \"#utility.yul\":4469:4474   */\n      jump(tag_103)\n        /* \"#utility.yul\":4238:4484   */\n    tag_113:\n        /* \"#utility.yul\":4509:4551   */\n      tag_116\n        /* \"#utility.yul\":4547:4550   */\n      dup5\n        /* \"#utility.yul\":4537:4545   */\n      dup5\n        /* \"#utility.yul\":4531:4535   */\n      dup5\n        /* \"#utility.yul\":4528:4529   */\n      0x01\n        /* \"#utility.yul\":4509:4551   */\n      tag_56\n      jump\t// in\n    tag_116:\n        /* \"#utility.yul\":4494:4551   */\n      swap3\n      pop\n      swap1\n      pop\n        /* \"#utility.yul\":4583:4587   */\n      dup2\n        /* \"#utility.yul\":4578:4581   */\n      dup5\n        /* \"#utility.yul\":4574:4588   */\n      div\n        /* \"#utility.yul\":4567:4572   */\n      dup2\n        /* \"#utility.yul\":4564:4589   */\n      gt\n        /* \"#utility.yul\":4561:4612   */\n      iszero\n      tag_117\n      jumpi\n        /* \"#utility.yul\":4592:4610   */\n      tag_118\n      tag_53\n      jump\t// in\n    tag_118:\n        /* \"#utility.yul\":4561:4612   */\n    tag_117:\n        /* \"#utility.yul\":4641:4645   */\n      dup2\n        /* \"#utility.yul\":4634:4639   */\n      dup2\n        /* \"#utility.yul\":4630:4646   */\n      mul\n        /* \"#utility.yul\":4621:4646   */\n      swap1\n      pop\n        /* \"#utility.yul\":3579:4652   */\n    tag_103:\n      swap4\n      swap3\n      pop\n      pop\n      pop\n      jump\t// out\n        /* \"#utility.yul\":4658:4744   */\n    tag_58:\n        /* \"#utility.yul\":4693:4700   */\n      0x00\n        /* \"#utility.yul\":4733:4737   */\n      0xff\n        /* \"#utility.yul\":4726:4731   */\n      dup3\n        /* \"#utility.yul\":4722:4738   */\n      and\n        /* \"#utility.yul\":4711:4738   */\n      swap1\n      pop\n        /* \"#utility.yul\":4658:4744   */\n      swap2\n      swap1\n      pop\n      jump\t// out\n        /* \"#utility.yul\":4750:5031   */\n    tag_39:\n        /* \"#utility.yul\":4808:4813   */\n      0x00\n        /* \"#utility.yul\":4832:4855   */\n      tag_121\n        /* \"#utility.yul\":4850:4854   */\n      dup3\n        /* \"#utility.yul\":4832:4855   */\n      tag_49\n      jump\t// in\n    tag_121:\n        /* \"#utility.yul\":4824:4855   */\n      swap2\n      pop\n        /* \"#utility.yul\":4876:4901   */\n      tag_122\n        /* \"#utility.yul\":4892:4900   */\n      dup4\n        /* \"#utility.yul\":4876:4901   */\n      tag_58\n      jump\t// in\n    tag_122:\n        /* \"#utility.yul\":4864:4901   */\n      swap3\n      pop\n        /* \"#utility.yul\":4920:5024   */\n      tag_123\n        /* \"#utility.yul\":4957:5023   */\n      0xffffffffffffffffffffffffffffffffffffffffffffffffffffffffffffffff\n        /* \"#utility.yul\":4947:4955   */\n      dup5\n        /* \"#utility.yul\":4941:4945   */\n      dup5\n        /* \"#utility.yul\":4920:5024   */\n      tag_57\n      jump\t// in\n    tag_123:\n        /* \"#utility.yul\":4911:5024   */\n      swap1\n      pop\n        /* \"#utility.yul\":4750:5031   */\n      swap3\n      swap2\n      pop\n      pop\n      jump\t// out\n        /* \"#utility.yul\":5037:5231   */\n    tag_42:\n        /* \"#utility.yul\":5077:5081   */\n      0x00\n        /* \"#utility.yul\":5097:5117   */\n      tag_125\n        /* \"#utility.yul\":5115:5116   */\n      dup3\n        /* \"#utility.yul\":5097:5117   */\n      tag_49\n      jump\t// in\n    tag_125:\n        /* \"#utility.yul\":5092:5117   */\n      swap2\n      pop\n        /* \"#utility.yul\":5131:5151   */\n      tag_126\n        /* \"#utility.yul\":5149:5150   */\n      dup4\n        /* \"#utility.yul\":5131:5151   */\n      tag_49\n      jump\t// in\n    tag_126:\n        /* \"#utility.yul\":5126:5151   */\n      swap3\n      pop\n        /* \"#utility.yul\":5175:5176   */\n      dup3\n        /* \"#utility.yul\":5172:5173   */\n      dup3\n        /* \"#utility.yul\":5168:5177   */\n      sub\n        /* \"#utility.yul\":5160:5177   */\n      swap1\n      pop\n        /* \"#utility.yul\":5199:5200   */\n      dup2\n        /* \"#utility.yul\":5193:5197   */\n      dup2\n        /* \"#utility.yul\":5190:5201   */\n      gt\n        /* \"#utility.yul\":5187:5224   */\n      iszero\n      tag_127\n      jumpi\n        /* \"#utility.yul\":5204:5222   */\n      tag_128\n      tag_53\n      jump\t// in\n    tag_128:\n        /* \"#utility.yul\":5187:5224   */\n    tag_127:\n        /* \"#utility.yul\":5037:5231   */\n      swap3\n      swap2\n      pop\n      pop\n      jump\t// out\n        /* \"#utility.yul\":5237:5647   */\n    tag_45:\n        /* \"#utility.yul\":5277:5284   */\n      0x00\n        /* \"#utility.yul\":5300:5320   */\n      tag_130\n        /* \"#utility.yul\":5318:5319   */\n      dup3\n        /* \"#utility.yul\":5300:5320   */\n      tag_49\n      jump\t// in\n    tag_130:\n        /* \"#utility.yul\":5295:5320   */\n      swap2\n      pop\n        /* \"#utility.yul\":5334:5354   */\n      tag_131\n        /* \"#utility.yul\":5352:5353   */\n      dup4\n        /* \"#utility.yul\":5334:5354   */\n      tag_49\n      jump\t// in\n    tag_131:\n        /* \"#utility.yul\":5329:5354   */\n      swap3\n      pop\n        /* \"#utility.yul\":5389:5390   */\n      dup3\n        /* \"#utility.yul\":5386:5387   */\n      dup3\n        /* \"#utility.yul\":5382:5391   */\n      mul\n        /* \"#utility.yul\":5411:5441   */\n      tag_132\n        /* \"#utility.yul\":5429:5440   */\n      dup2\n        /* \"#utility.yul\":5411:5441   */\n      tag_49\n      jump\t// in\n    tag_132:\n        /* \"#utility.yul\":5400:5441   */\n      swap2\n      pop\n        /* \"#utility.yul\":5590:5591   */\n      dup3\n        /* \"#utility.yul\":5581:5588   */\n      dup3\n        /* \"#utility.yul\":5577:5592   */\n      div\n        /* \"#utility.yul\":5574:5575   */\n      dup5\n        /* \"#utility.yul\":5571:5593   */\n      eq\n        /* \"#utility.yul\":5551:5552   */\n      dup4\n        /* \"#utility.yul\":5544:5553   */\n      iszero\n        /* \"#utility.yul\":5524:5607   */\n      or\n        /* \"#utility.yul\":5501:5640   */\n      tag_133\n      jumpi\n        /* \"#utility.yul\":5620:5638   */\n      tag_134\n      tag_53\n      jump\t// in\n    tag_134:\n        /* \"#utility.yul\":5501:5640   */\n    tag_133:\n        /* \"#utility.yul\":5285:5647   */\n      pop\n        /* \"#utility.yul\":5237:5647   */\n      swap3\n      swap2\n      pop\n      pop\n      jump\t// out\n\n    auxdata: 0xa2646970667358221220678cce06f31bf4ea47624f76518ccedbf485f166521a89a7e9e9951a87ca3af264736f6c634300081a0033\n}\n",
				"bytecode": {
					"linkReferences": {},
					"object": "6080604052348015600e575f80fd5b506105668061001c5f395ff3fe608060405234801561000f575f80fd5b5060043610610055575f3560e01c8063771602f714610059578063a391c15b14610089578063b48d82cd146100b9578063b67d77c5146100e9578063c8a4ac9c14610119575b5f80fd5b610073600480360381019061006e91906101e9565b610149565b6040516100809190610236565b60405180910390f35b6100a3600480360381019061009e91906101e9565b61015e565b6040516100b09190610236565b60405180910390f35b6100d360048036038101906100ce919061024f565b610173565b6040516100e09190610236565b60405180910390f35b61010360048036038101906100fe91906101e9565b610188565b6040516101109190610236565b60405180910390f35b610133600480360381019061012e91906101e9565b61019d565b6040516101409190610236565b60405180910390f35b5f818361015691906102a7565b905092915050565b5f818361016b9190610307565b905092915050565b5f6002826101819190610472565b9050919050565b5f818361019591906104bc565b905092915050565b5f81836101aa91906104ef565b905092915050565b5f80fd5b5f819050919050565b6101c8816101b6565b81146101d2575f80fd5b50565b5f813590506101e3816101bf565b92915050565b5f80604083850312156101ff576101fe6101b2565b5b5f61020c858286016101d5565b925050602061021d858286016101d5565b9150509250929050565b610230816101b6565b82525050565b5f6020820190506102495f830184610227565b92915050565b5f60208284031215610264576102636101b2565b5b5f610271848285016101d5565b91505092915050565b7f4e487b71000000000000000000000000000000000000000000000000000000005f52601160045260245ffd5b5f6102b1826101b6565b91506102bc836101b6565b92508282019050808211156102d4576102d361027a565b5b92915050565b7f4e487b71000000000000000000000000000000000000000000000000000000005f52601260045260245ffd5b5f610311826101b6565b915061031c836101b6565b92508261032c5761032b6102da565b5b828204905092915050565b5f8160011c9050919050565b5f808291508390505b600185111561038c578086048111156103685761036761027a565b5b60018516156103775780820291505b808102905061038585610337565b945061034c565b94509492505050565b5f826103a4576001905061045f565b816103b1575f905061045f565b81600181146103c757600281146103d157610400565b600191505061045f565b60ff8411156103e3576103e261027a565b5b8360020a9150848211156103fa576103f961027a565b5b5061045f565b5060208310610133831016604e8410600b84101617156104355782820a9050838111156104305761042f61027a565b5b61045f565b6104428484846001610343565b925090508184048111156104595761045861027a565b5b81810290505b9392505050565b5f60ff82169050919050565b5f61047c826101b6565b915061048783610466565b92506104b47fffffffffffffffffffffffffffffffffffffffffffffffffffffffffffffffff8484610395565b905092915050565b5f6104c6826101b6565b91506104d1836101b6565b92508282039050818111156104e9576104e861027a565b5b92915050565b5f6104f9826101b6565b9150610504836101b6565b9250828202610512816101b6565b915082820484148315176105295761052861027a565b5b509291505056fea2646970667358221220678cce06f31bf4ea47624f76518ccedbf485f166521a89a7e9e9951a87ca3af264736f6c634300081a0033",
					"opcodes": "PUSH1 0x80 PUSH1 0x40 MSTORE CALLVALUE DUP1 ISZERO PUSH1 0xE JUMPI PUSH0 DUP1 REVERT JUMPDEST POP PUSH2 0x566 DUP1 PUSH2 0x1C PUSH0 CODECOPY PUSH0 RETURN INVALID PUSH1 0x80 PUSH1 0x40 MSTORE CALLVALUE DUP1 ISZERO PUSH2 0xF JUMPI PUSH0 DUP1 REVERT JUMPDEST POP PUSH1 0x4 CALLDATASIZE LT PUSH2 0x55 JUMPI PUSH0 CALLDATALOAD PUSH1 0xE0 SHR DUP1 PUSH4 0x771602F7 EQ PUSH2 0x59 JUMPI DUP1 PUSH4 0xA391C15B EQ PUSH2 0x89 JUMPI DUP1 PUSH4 0xB48D82CD EQ PUSH2 0xB9 JUMPI DUP1 PUSH4 0xB67D77C5 EQ PUSH2 0xE9 JUMPI DUP1 PUSH4 0xC8A4AC9C EQ PUSH2 0x119 JUMPI JUMPDEST PUSH0 DUP1 REVERT JUMPDEST PUSH2 0x73 PUSH1 0x4 DUP1 CALLDATASIZE SUB DUP2 ADD SWAP1 PUSH2 0x6E SWAP2 SWAP1 PUSH2 0x1E9 JUMP JUMPDEST PUSH2 0x149 JUMP JUMPDEST PUSH1 0x40 MLOAD PUSH2 0x80 SWAP2 SWAP1 PUSH2 0x236 JUMP JUMPDEST PUSH1 0x40 MLOAD DUP1 SWAP2 SUB SWAP1 RETURN JUMPDEST PUSH2 0xA3 PUSH1 0x4 DUP1 CALLDATASIZE SUB DUP2 ADD SWAP1 PUSH2 0x9E SWAP2 SWAP1 PUSH2 0x1E9 JUMP JUMPDEST PUSH2 0x15E JUMP JUMPDEST PUSH1 0x40 MLOAD PUSH2 0xB0 SWAP2 SWAP1 PUSH2 0x236 JUMP JUMPDEST PUSH1 0x40 MLOAD DUP1 SWAP2 SUB SWAP1 RETURN JUMPDEST PUSH2 0xD3 PUSH1 0x4 DUP1 CALLDATASIZE SUB DUP2 ADD SWAP1 PUSH2 0xCE SWAP2 SWAP1 PUSH2 0x24F JUMP JUMPDEST PUSH2 0x173 JUMP JUMPDEST PUSH1 0x40 MLOAD PUSH2 0xE0 SWAP2 SWAP1 PUSH2 0x236 JUMP JUMPDEST PUSH1 0x40 MLOAD DUP1 SWAP2 SUB SWAP1 RETURN JUMPDEST PUSH2 0x103 PUSH1 0x4 DUP1 CALLDATASIZE SUB DUP2 ADD SWAP1 PUSH2 0xFE SWAP2 SWAP1 PUSH2 0x1E9 JUMP JUMPDEST PUSH2 0x188 JUMP JUMPDEST PUSH1 0x40 MLOAD PUSH2 0x110 SWAP2 SWAP1 PUSH2 0x236 JUMP JUMPDEST PUSH1 0x40 MLOAD DUP1 SWAP2 SUB SWAP1 RETURN JUMPDEST PUSH2 0x133 PUSH1 0x4 DUP1 CALLDATASIZE SUB DUP2 ADD SWAP1 PUSH2 0x12E SWAP2 SWAP1 PUSH2 0x1E9 JUMP JUMPDEST PUSH2 0x19D JUMP JUMPDEST PUSH1 0x40 MLOAD PUSH2 0x140 SWAP2 SWAP1 PUSH2 0x236 JUMP JUMPDEST PUSH1 0x40 MLOAD DUP1 SWAP2 SUB SWAP1 RETURN JUMPDEST PUSH0 DUP2 DUP4 PUSH2 0x156 SWAP2 SWAP1 PUSH2 0x2A7 JUMP JUMPDEST SWAP1 POP SWAP3 SWAP2 POP POP JUMP JUMPDEST PUSH0 DUP2 DUP4 PUSH2 0x16B SWAP2 SWAP1 PUSH2 0x307 JUMP JUMPDEST SWAP1 POP SWAP3 SWAP2 POP POP JUMP JUMPDEST PUSH0 PUSH1 0x2 DUP3 PUSH2 0x181 SWAP2 SWAP1 PUSH2 0x472 JUMP JUMPDEST SWAP1 POP SWAP2 SWAP1 POP JUMP JUMPDEST PUSH0 DUP2 DUP4 PUSH2 0x195 SWAP2 SWAP1 PUSH2 0x4BC JUMP JUMPDEST SWAP1 POP SWAP3 SWAP2 POP POP JUMP JUMPDEST PUSH0 DUP2 DUP4 PUSH2 0x1AA SWAP2 SWAP1 PUSH2 0x4EF JUMP JUMPDEST SWAP1 POP SWAP3 SWAP2 POP POP JUMP JUMPDEST PUSH0 DUP1 REVERT JUMPDEST PUSH0 DUP2 SWAP1 POP SWAP2 SWAP1 POP JUMP JUMPDEST PUSH2 0x1C8 DUP2 PUSH2 0x1B6 JUMP JUMPDEST DUP2 EQ PUSH2 0x1D2 JUMPI PUSH0 DUP1 REVERT JUMPDEST POP JUMP JUMPDEST PUSH0 DUP2 CALLDATALOAD SWAP1 POP PUSH2 0x1E3 DUP2 PUSH2 0x1BF JUMP JUMPDEST SWAP3 SWAP2 POP POP JUMP JUMPDEST PUSH0 DUP1 PUSH1 0x40 DUP4 DUP6 SUB SLT ISZERO PUSH2 0x1FF JUMPI PUSH2 0x1FE PUSH2 0x1B2 JUMP JUMPDEST JUMPDEST PUSH0 PUSH2 0x20C DUP6 DUP3 DUP7 ADD PUSH2 0x1D5 JUMP JUMPDEST SWAP3 POP POP PUSH1 0x20 PUSH2 0x21D DUP6 DUP3 DUP7 ADD PUSH2 0x1D5 JUMP JUMPDEST SWAP2 POP POP SWAP3 POP SWAP3 SWAP1 POP JUMP JUMPDEST PUSH2 0x230 DUP2 PUSH2 0x1B6 JUMP JUMPDEST DUP3 MSTORE POP POP JUMP JUMPDEST PUSH0 PUSH1 0x20 DUP3 ADD SWAP1 POP PUSH2 0x249 PUSH0 DUP4 ADD DUP5 PUSH2 0x227 JUMP JUMPDEST SWAP3 SWAP2 POP POP JUMP JUMPDEST PUSH0 PUSH1 0x20 DUP3 DUP5 SUB SLT ISZERO PUSH2 0x264 JUMPI PUSH2 0x263 PUSH2 0x1B2 JUMP JUMPDEST JUMPDEST PUSH0 PUSH2 0x271 DUP5 DUP3 DUP6 ADD PUSH2 0x1D5 JUMP JUMPDEST SWAP2 POP POP SWAP3 SWAP2 POP POP JUMP JUMPDEST PUSH32 0x4E487B7100000000000000000000000000000000000000000000000000000000 PUSH0 MSTORE PUSH1 0x11 PUSH1 0x4 MSTORE PUSH1 0x24 PUSH0 REVERT JUMPDEST PUSH0 PUSH2 0x2B1 DUP3 PUSH2 0x1B6 JUMP JUMPDEST SWAP2 POP PUSH2 0x2BC DUP4 PUSH2 0x1B6 JUMP JUMPDEST SWAP3 POP DUP3 DUP3 ADD SWAP1 POP DUP1 DUP3 GT ISZERO PUSH2 0x2D4 JUMPI PUSH2 0x2D3 PUSH2 0x27A JUMP JUMPDEST JUMPDEST SWAP3 SWAP2 POP POP JUMP JUMPDEST PUSH32 0x4E487B7100000000000000000000000000000000000000000000000000000000 PUSH0 MSTORE PUSH1 0x12 PUSH1 0x4 MSTORE PUSH1 0x24 PUSH0 REVERT JUMPDEST PUSH0 PUSH2 0x311 DUP3 PUSH2 0x1B6 JUMP JUMPDEST SWAP2 POP PUSH2 0x31C DUP4 PUSH2 0x1B6 JUMP JUMPDEST SWAP3 POP DUP3 PUSH2 0x32C JUMPI PUSH2 0x32B PUSH2 0x2DA JUMP JUMPDEST JUMPDEST DUP3 DUP3 DIV SWAP1 POP SWAP3 SWAP2 POP POP JUMP JUMPDEST PUSH0 DUP2 PUSH1 0x1 SHR SWAP1 POP SWAP2 SWAP1 POP JUMP JUMPDEST PUSH0 DUP1 DUP3 SWAP2 POP DUP4 SWAP1 POP JUMPDEST PUSH1 0x1 DUP6 GT ISZERO PUSH2 0x38C JUMPI DUP1 DUP7 DIV DUP2 GT ISZERO PUSH2 0x368 JUMPI PUSH2 0x367 PUSH2 0x27A JUMP JUMPDEST JUMPDEST PUSH1 0x1 DUP6 AND ISZERO PUSH2 0x377 JUMPI DUP1 DUP3 MUL SWAP2 POP JUMPDEST DUP1 DUP2 MUL SWAP1 POP PUSH2 0x385 DUP6 PUSH2 0x337 JUMP JUMPDEST SWAP5 POP PUSH2 0x34C JUMP JUMPDEST SWAP5 POP SWAP5 SWAP3 POP POP POP JUMP JUMPDEST PUSH0 DUP3 PUSH2 0x3A4 JUMPI PUSH1 0x1 SWAP1 POP PUSH2 0x45F JUMP JUMPDEST DUP2 PUSH2 0x3B1 JUMPI PUSH0 SWAP1 POP PUSH2 0x45F JUMP JUMPDEST DUP2 PUSH1 0x1 DUP2 EQ PUSH2 0x3C7 JUMPI PUSH1 0x2 DUP2 EQ PUSH2 0x3D1 JUMPI PUSH2 0x400 JUMP JUMPDEST PUSH1 0x1 SWAP2 POP POP PUSH2 0x45F JUMP JUMPDEST PUSH1 0xFF DUP5 GT ISZERO PUSH2 0x3E3 JUMPI PUSH2 0x3E2 PUSH2 0x27A JUMP JUMPDEST JUMPDEST DUP4 PUSH1 0x2 EXP SWAP2 POP DUP5 DUP3 GT ISZERO PUSH2 0x3FA JUMPI PUSH2 0x3F9 PUSH2 0x27A JUMP JUMPDEST JUMPDEST POP PUSH2 0x45F JUMP JUMPDEST POP PUSH1 0x20 DUP4 LT PUSH2 0x133 DUP4 LT AND PUSH1 0x4E DUP5 LT PUSH1 0xB DUP5 LT AND OR ISZERO PUSH2 0x435 JUMPI DUP3 DUP3 EXP SWAP1 POP DUP4 DUP2 GT ISZERO PUSH2 0x430 JUMPI PUSH2 0x42F PUSH2 0x27A JUMP JUMPDEST JUMPDEST PUSH2 0x45F JUMP JUMPDEST PUSH2 0x442 DUP5 DUP5 DUP5 PUSH1 0x1 PUSH2 0x343 JUMP JUMPDEST SWAP3 POP SWAP1 POP DUP2 DUP5 DIV DUP2 GT ISZERO PUSH2 0x459 JUMPI PUSH2 0x458 PUSH2 0x27A JUMP JUMPDEST JUMPDEST DUP2 DUP2 MUL SWAP1 POP JUMPDEST SWAP4 SWAP3 POP POP POP JUMP JUMPDEST PUSH0 PUSH1 0xFF DUP3 AND SWAP1 POP SWAP2 SWAP1 POP JUMP JUMPDEST PUSH0 PUSH2 0x47C DUP3 PUSH2 0x1B6 JUMP JUMPDEST SWAP2 POP PUSH2 0x487 DUP4 PUSH2 0x466 JUMP JUMPDEST SWAP3 POP PUSH2 0x4B4 PUSH32 0xFFFFFFFFFFFFFFFFFFFFFFFFFFFFFFFFFFFFFFFFFFFFFFFFFFFFFFFFFFFFFFFF DUP5 DUP5 PUSH2 0x395 JUMP JUMPDEST SWAP1 POP SWAP3 SWAP2 POP POP JUMP JUMPDEST PUSH0 PUSH2 0x4C6 DUP3 PUSH2 0x1B6 JUMP JUMPDEST SWAP2 POP PUSH2 0x4D1 DUP4 PUSH2 0x1B6 JUMP JUMPDEST SWAP3 POP DUP3 DUP3 SUB SWAP1 POP DUP2 DUP2 GT ISZERO PUSH2 0x4E9 JUMPI PUSH2 0x4E8 PUSH2 0x27A JUMP JUMPDEST JUMPDEST SWAP3 SWAP2 POP POP JUMP JUMPDEST PUSH0 PUSH2 0x4F9 DUP3 PUSH2 0x1B6 JUMP JUMPDEST SWAP2 POP PUSH2 0x504 DUP4 PUSH2 0x1B6 JUMP JUMPDEST SWAP3 POP DUP3 DUP3 MUL PUSH2 0x512 DUP2 PUSH2 0x1B6 JUMP JUMPDEST SWAP2 POP DUP3 DUP3 DIV DUP5 EQ DUP4 ISZERO OR PUSH2 0x529 JUMPI PUSH2 0x528 PUSH2 0x27A JUMP JUMPDEST JUMPDEST POP SWAP3 SWAP2 POP POP JUMP INVALID LOG2 PUSH5 0x6970667358 0x22 SLT KECCAK256 PUSH8 0x8CCE06F31BF4EA47 PUSH3 0x4F7651 DUP13 0xCE 0xDB DELEGATECALL DUP6 CALL PUSH7 0x521A89A7E9E995 BYTE DUP8 0xCA GASPRICE CALLCODE PUSH5 0x736F6C6343 STOP ADDMOD BYTE STOP CALLER "
				},
				"gasEstimates": {
					"creation": {
						"codeDepositCost": "276400",
						"executionCost": "316",
						"totalCost": "276716"
					},
					"external": {
						"add(uint256,uint256)": "infinite",
						"div(uint256,uint256)": "infinite",
						"mul(uint256,uint256)": "infinite",
						"pow(uint256)": "infinite",
						"sub(uint256,uint256)": "infinite"
					}
				},
				"methodIdentifiers": {
					"add(uint256,uint256)": "771602f7",
					"div(uint256,uint256)": "a391c15b",
					"mul(uint256,uint256)": "c8a4ac9c",
					"pow(uint256)": "b48d82cd",
					"sub(uint256,uint256)": "b67d77c5"
				}
			},
			"storageLayout": {
				"storage": [],
				"types": null
			},
			"userdoc": {
				"kind": "user",
				"methods": {},
				"version": 1
			}
		}
	}
}