{
	"Solidity100/sol100(1~10).sol": {
		"Q2": {
			"abi": [
				{
					"inputs": [
						{
							"internalType": "uint256",
							"name": "_a",
							"type": "uint256"
						},
						{
							"internalType": "uint256",
							"name": "_b",
							"type": "uint256"
						}
					],
					"name": "add",
					"outputs": [
						{
							"internalType": "uint256",
							"name": "",
							"type": "uint256"
						}
					],
					"stateMutability": "pure",
					"type": "function"
				},
				{
					"inputs": [
						{
							"internalType": "uint256",
							"name": "_a",
							"type": "uint256"
						},
						{
							"internalType": "uint256",
							"name": "_b",
							"type": "uint256"
						}
					],
					"name": "div",
					"outputs": [
						{
							"internalType": "uint256",
							"name": "",
							"type": "uint256"
						},
						{
							"internalType": "uint256",
							"name": "",
							"type": "uint256"
						}
					],
					"stateMutability": "pure",
					"type": "function"
				},
				{
					"inputs": [
						{
							"internalType": "uint256",
							"name": "_a",
							"type": "uint256"
						},
						{
							"internalType": "uint256",
							"name": "_b",
							"type": "uint256"
						}
					],
					"name": "mul",
					"outputs": [
						{
							"internalType": "uint256",
							"name": "",
							"type": "uint256"
						}
					],
					"stateMutability": "pure",
					"type": "function"
				},
				{
					"inputs": [
						{
							"internalType": "uint256",
							"name": "_a",
							"type": "uint256"
						},
						{
							"internalType": "uint256",
							"name": "_b",
							"type": "uint256"
						}
					],
					"name": "sub",
					"outputs": [
						{
							"internalType": "uint256",
							"name": "",
							"type": "uint256"
						}
					],
					"stateMutability": "pure",
					"type": "function"
				}
			],
			"devdoc": {
				"kind": "dev",
				"methods": {},
				"version": 1
			},
			"evm": {
				"assembly": "    /* \"Solidity100/sol100(1~10).sol\":708:1337  contract Q2 {... */\n  mstore(0x40, 0x80)\n  callvalue\n  dup1\n  iszero\n  tag_1\n  jumpi\n  0x00\n  dup1\n  revert\ntag_1:\n  pop\n  dataSize(sub_0)\n  dup1\n  dataOffset(sub_0)\n  0x00\n  codecopy\n  0x00\n  return\nstop\n\nsub_0: assembly {\n        /* \"Solidity100/sol100(1~10).sol\":708:1337  contract Q2 {... */\n      mstore(0x40, 0x80)\n      callvalue\n      dup1\n      iszero\n      tag_1\n      jumpi\n      0x00\n      dup1\n      revert\n    tag_1:\n      pop\n      jumpi(tag_2, lt(calldatasize, 0x04))\n      shr(0xe0, calldataload(0x00))\n      dup1\n      0x771602f7\n      eq\n      tag_3\n      jumpi\n      dup1\n      0xa391c15b\n      eq\n      tag_4\n      jumpi\n      dup1\n      0xb67d77c5\n      eq\n      tag_5\n      jumpi\n      dup1\n      0xc8a4ac9c\n      eq\n      tag_6\n      jumpi\n    tag_2:\n      0x00\n      dup1\n      revert\n        /* \"Solidity100/sol100(1~10).sol\":933:1023  function add(uint _a, uint _b) public pure returns(uint) {... */\n    tag_3:\n      tag_7\n      0x04\n      dup1\n      calldatasize\n      sub\n      dup2\n      add\n      swap1\n      tag_8\n      swap2\n      swap1\n      tag_9\n      jump\t// in\n    tag_8:\n      tag_10\n      jump\t// in\n    tag_7:\n      mload(0x40)\n      tag_11\n      swap2\n      swap1\n      tag_12\n      jump\t// in\n    tag_11:\n      mload(0x40)\n      dup1\n      swap2\n      sub\n      swap1\n      return\n        /* \"Solidity100/sol100(1~10).sol\":1227:1334  function div(uint _a, uint _b) public pure returns(uint, uint) {... */\n    tag_4:\n      tag_13\n      0x04\n      dup1\n      calldatasize\n      sub\n      dup2\n      add\n      swap1\n      tag_14\n      swap2\n      swap1\n      tag_9\n      jump\t// in\n    tag_14:\n      tag_15\n      jump\t// in\n    tag_13:\n      mload(0x40)\n      tag_16\n      swap3\n      swap2\n      swap1\n      tag_17\n      jump\t// in\n    tag_16:\n      mload(0x40)\n      dup1\n      swap2\n      sub\n      swap1\n      return\n        /* \"Solidity100/sol100(1~10).sol\":1031:1121  function sub(uint _a, uint _b) public pure returns(uint) {... */\n    tag_5:\n      tag_18\n      0x04\n      dup1\n      calldatasize\n      sub\n      dup2\n      add\n      swap1\n      tag_19\n      swap2\n      swap1\n      tag_9\n      jump\t// in\n    tag_19:\n      tag_20\n      jump\t// in\n    tag_18:\n      mload(0x40)\n      tag_21\n      swap2\n      swap1\n      tag_12\n      jump\t// in\n    tag_21:\n      mload(0x40)\n      dup1\n      swap2\n      sub\n      swap1\n      return\n        /* \"Solidity100/sol100(1~10).sol\":1129:1219  function mul(uint _a, uint _b) public pure returns(uint) {... */\n    tag_6:\n      tag_22\n      0x04\n      dup1\n      calldatasize\n      sub\n      dup2\n      add\n      swap1\n      tag_23\n      swap2\n      swap1\n      tag_9\n      jump\t// in\n    tag_23:\n      tag_24\n      jump\t// in\n    tag_22:\n      mload(0x40)\n      tag_25\n      swap2\n      swap1\n      tag_12\n      jump\t// in\n    tag_25:\n      mload(0x40)\n      dup1\n      swap2\n      sub\n      swap1\n      return\n        /* \"Solidity100/sol100(1~10).sol\":933:1023  function add(uint _a, uint _b) public pure returns(uint) {... */\n    tag_10:\n        /* \"Solidity100/sol100(1~10).sol\":984:988  uint */\n      0x00\n        /* \"Solidity100/sol100(1~10).sol\":1013:1015  _b */\n      dup2\n        /* \"Solidity100/sol100(1~10).sol\":1008:1010  _a */\n      dup4\n        /* \"Solidity100/sol100(1~10).sol\":1008:1015  _a + _b */\n      tag_27\n      swap2\n      swap1\n      tag_28\n      jump\t// in\n    tag_27:\n        /* \"Solidity100/sol100(1~10).sol\":1001:1015  return _a + _b */\n      swap1\n      pop\n        /* \"Solidity100/sol100(1~10).sol\":933:1023  function add(uint _a, uint _b) public pure returns(uint) {... */\n      swap3\n      swap2\n      pop\n      pop\n      jump\t// out\n        /* \"Solidity100/sol100(1~10).sol\":1227:1334  function div(uint _a, uint _b) public pure returns(uint, uint) {... */\n    tag_15:\n        /* \"Solidity100/sol100(1~10).sol\":1278:1282  uint */\n      0x00\n        /* \"Solidity100/sol100(1~10).sol\":1284:1288  uint */\n      dup1\n        /* \"Solidity100/sol100(1~10).sol\":1314:1316  _b */\n      dup3\n        /* \"Solidity100/sol100(1~10).sol\":1309:1311  _a */\n      dup5\n        /* \"Solidity100/sol100(1~10).sol\":1309:1316  _a / _b */\n      tag_30\n      swap2\n      swap1\n      tag_31\n      jump\t// in\n    tag_30:\n        /* \"Solidity100/sol100(1~10).sol\":1323:1325  _b */\n      dup4\n        /* \"Solidity100/sol100(1~10).sol\":1318:1320  _a */\n      dup6\n        /* \"Solidity100/sol100(1~10).sol\":1318:1325  _a % _b */\n      tag_32\n      swap2\n      swap1\n      tag_33\n      jump\t// in\n    tag_32:\n        /* \"Solidity100/sol100(1~10).sol\":1301:1326  return (_a / _b, _a % _b) */\n      swap2\n      pop\n      swap2\n      pop\n        /* \"Solidity100/sol100(1~10).sol\":1227:1334  function div(uint _a, uint _b) public pure returns(uint, uint) {... */\n      swap3\n      pop\n      swap3\n      swap1\n      pop\n      jump\t// out\n        /* \"Solidity100/sol100(1~10).sol\":1031:1121  function sub(uint _a, uint _b) public pure returns(uint) {... */\n    tag_20:\n        /* \"Solidity100/sol100(1~10).sol\":1082:1086  uint */\n      0x00\n        /* \"Solidity100/sol100(1~10).sol\":1111:1113  _b */\n      dup2\n        /* \"Solidity100/sol100(1~10).sol\":1106:1108  _a */\n      dup4\n        /* \"Solidity100/sol100(1~10).sol\":1106:1113  _a - _b */\n      tag_35\n      swap2\n      swap1\n      tag_36\n      jump\t// in\n    tag_35:\n        /* \"Solidity100/sol100(1~10).sol\":1099:1113  return _a - _b */\n      swap1\n      pop\n        /* \"Solidity100/sol100(1~10).sol\":1031:1121  function sub(uint _a, uint _b) public pure returns(uint) {... */\n      swap3\n      swap2\n      pop\n      pop\n      jump\t// out\n        /* \"Solidity100/sol100(1~10).sol\":1129:1219  function mul(uint _a, uint _b) public pure returns(uint) {... */\n    tag_24:\n        /* \"Solidity100/sol100(1~10).sol\":1180:1184  uint */\n      0x00\n        /* \"Solidity100/sol100(1~10).sol\":1209:1211  _b */\n      dup2\n        /* \"Solidity100/sol100(1~10).sol\":1204:1206  _a */\n      dup4\n        /* \"Solidity100/sol100(1~10).sol\":1204:1211  _a * _b */\n      tag_38\n      swap2\n      swap1\n      tag_39\n      jump\t// in\n    tag_38:\n        /* \"Solidity100/sol100(1~10).sol\":1197:1211  return _a * _b */\n      swap1\n      pop\n        /* \"Solidity100/sol100(1~10).sol\":1129:1219  function mul(uint _a, uint _b) public pure returns(uint) {... */\n      swap3\n      swap2\n      pop\n      pop\n      jump\t// out\n        /* \"#utility.yul\":88:205   */\n    tag_41:\n        /* \"#utility.yul\":197:198   */\n      0x00\n        /* \"#utility.yul\":194:195   */\n      dup1\n        /* \"#utility.yul\":187:199   */\n      revert\n        /* \"#utility.yul\":334:411   */\n    tag_43:\n        /* \"#utility.yul\":371:378   */\n      0x00\n        /* \"#utility.yul\":400:405   */\n      dup2\n        /* \"#utility.yul\":389:405   */\n      swap1\n      pop\n        /* \"#utility.yul\":334:411   */\n      swap2\n      swap1\n      pop\n      jump\t// out\n        /* \"#utility.yul\":417:539   */\n    tag_44:\n        /* \"#utility.yul\":490:514   */\n      tag_55\n        /* \"#utility.yul\":508:513   */\n      dup2\n        /* \"#utility.yul\":490:514   */\n      tag_43\n      jump\t// in\n    tag_55:\n        /* \"#utility.yul\":483:488   */\n      dup2\n        /* \"#utility.yul\":480:515   */\n      eq\n        /* \"#utility.yul\":470:533   */\n      tag_56\n      jumpi\n        /* \"#utility.yul\":529:530   */\n      0x00\n        /* \"#utility.yul\":526:527   */\n      dup1\n        /* \"#utility.yul\":519:531   */\n      revert\n        /* \"#utility.yul\":470:533   */\n    tag_56:\n        /* \"#utility.yul\":417:539   */\n      pop\n      jump\t// out\n        /* \"#utility.yul\":545:684   */\n    tag_45:\n        /* \"#utility.yul\":591:596   */\n      0x00\n        /* \"#utility.yul\":629:635   */\n      dup2\n        /* \"#utility.yul\":616:636   */\n      calldataload\n        /* \"#utility.yul\":607:636   */\n      swap1\n      pop\n        /* \"#utility.yul\":645:678   */\n      tag_58\n        /* \"#utility.yul\":672:677   */\n      dup2\n        /* \"#utility.yul\":645:678   */\n      tag_44\n      jump\t// in\n    tag_58:\n        /* \"#utility.yul\":545:684   */\n      swap3\n      swap2\n      pop\n      pop\n      jump\t// out\n        /* \"#utility.yul\":690:1164   */\n    tag_9:\n        /* \"#utility.yul\":758:764   */\n      0x00\n        /* \"#utility.yul\":766:772   */\n      dup1\n        /* \"#utility.yul\":815:817   */\n      0x40\n        /* \"#utility.yul\":803:812   */\n      dup4\n        /* \"#utility.yul\":794:801   */\n      dup6\n        /* \"#utility.yul\":790:813   */\n      sub\n        /* \"#utility.yul\":786:818   */\n      slt\n        /* \"#utility.yul\":783:902   */\n      iszero\n      tag_60\n      jumpi\n        /* \"#utility.yul\":821:900   */\n      tag_61\n      tag_41\n      jump\t// in\n    tag_61:\n        /* \"#utility.yul\":783:902   */\n    tag_60:\n        /* \"#utility.yul\":941:942   */\n      0x00\n        /* \"#utility.yul\":966:1019   */\n      tag_62\n        /* \"#utility.yul\":1011:1018   */\n      dup6\n        /* \"#utility.yul\":1002:1008   */\n      dup3\n        /* \"#utility.yul\":991:1000   */\n      dup7\n        /* \"#utility.yul\":987:1009   */\n      add\n        /* \"#utility.yul\":966:1019   */\n      tag_45\n      jump\t// in\n    tag_62:\n        /* \"#utility.yul\":956:1019   */\n      swap3\n      pop\n        /* \"#utility.yul\":912:1029   */\n      pop\n        /* \"#utility.yul\":1068:1070   */\n      0x20\n        /* \"#utility.yul\":1094:1147   */\n      tag_63\n        /* \"#utility.yul\":1139:1146   */\n      dup6\n        /* \"#utility.yul\":1130:1136   */\n      dup3\n        /* \"#utility.yul\":1119:1128   */\n      dup7\n        /* \"#utility.yul\":1115:1137   */\n      add\n        /* \"#utility.yul\":1094:1147   */\n      tag_45\n      jump\t// in\n    tag_63:\n        /* \"#utility.yul\":1084:1147   */\n      swap2\n      pop\n        /* \"#utility.yul\":1039:1157   */\n      pop\n        /* \"#utility.yul\":690:1164   */\n      swap3\n      pop\n      swap3\n      swap1\n      pop\n      jump\t// out\n        /* \"#utility.yul\":1170:1288   */\n    tag_46:\n        /* \"#utility.yul\":1257:1281   */\n      tag_65\n        /* \"#utility.yul\":1275:1280   */\n      dup2\n        /* \"#utility.yul\":1257:1281   */\n      tag_43\n      jump\t// in\n    tag_65:\n        /* \"#utility.yul\":1252:1255   */\n      dup3\n        /* \"#utility.yul\":1245:1282   */\n      mstore\n        /* \"#utility.yul\":1170:1288   */\n      pop\n      pop\n      jump\t// out\n        /* \"#utility.yul\":1294:1516   */\n    tag_12:\n        /* \"#utility.yul\":1387:1391   */\n      0x00\n        /* \"#utility.yul\":1425:1427   */\n      0x20\n        /* \"#utility.yul\":1414:1423   */\n      dup3\n        /* \"#utility.yul\":1410:1428   */\n      add\n        /* \"#utility.yul\":1402:1428   */\n      swap1\n      pop\n        /* \"#utility.yul\":1438:1509   */\n      tag_67\n        /* \"#utility.yul\":1506:1507   */\n      0x00\n        /* \"#utility.yul\":1495:1504   */\n      dup4\n        /* \"#utility.yul\":1491:1508   */\n      add\n        /* \"#utility.yul\":1482:1488   */\n      dup5\n        /* \"#utility.yul\":1438:1509   */\n      tag_46\n      jump\t// in\n    tag_67:\n        /* \"#utility.yul\":1294:1516   */\n      swap3\n      swap2\n      pop\n      pop\n      jump\t// out\n        /* \"#utility.yul\":1522:1854   */\n    tag_17:\n        /* \"#utility.yul\":1643:1647   */\n      0x00\n        /* \"#utility.yul\":1681:1683   */\n      0x40\n        /* \"#utility.yul\":1670:1679   */\n      dup3\n        /* \"#utility.yul\":1666:1684   */\n      add\n        /* \"#utility.yul\":1658:1684   */\n      swap1\n      pop\n        /* \"#utility.yul\":1694:1765   */\n      tag_69\n        /* \"#utility.yul\":1762:1763   */\n      0x00\n        /* \"#utility.yul\":1751:1760   */\n      dup4\n        /* \"#utility.yul\":1747:1764   */\n      add\n        /* \"#utility.yul\":1738:1744   */\n      dup6\n        /* \"#utility.yul\":1694:1765   */\n      tag_46\n      jump\t// in\n    tag_69:\n        /* \"#utility.yul\":1775:1847   */\n      tag_70\n        /* \"#utility.yul\":1843:1845   */\n      0x20\n        /* \"#utility.yul\":1832:1841   */\n      dup4\n        /* \"#utility.yul\":1828:1846   */\n      add\n        /* \"#utility.yul\":1819:1825   */\n      dup5\n        /* \"#utility.yul\":1775:1847   */\n      tag_46\n      jump\t// in\n    tag_70:\n        /* \"#utility.yul\":1522:1854   */\n      swap4\n      swap3\n      pop\n      pop\n      pop\n      jump\t// out\n        /* \"#utility.yul\":1860:2040   */\n    tag_47:\n        /* \"#utility.yul\":1908:1985   */\n      0x4e487b7100000000000000000000000000000000000000000000000000000000\n        /* \"#utility.yul\":1905:1906   */\n      0x00\n        /* \"#utility.yul\":1898:1986   */\n      mstore\n        /* \"#utility.yul\":2005:2009   */\n      0x11\n        /* \"#utility.yul\":2002:2003   */\n      0x04\n        /* \"#utility.yul\":1995:2010   */\n      mstore\n        /* \"#utility.yul\":2029:2033   */\n      0x24\n        /* \"#utility.yul\":2026:2027   */\n      0x00\n        /* \"#utility.yul\":2019:2034   */\n      revert\n        /* \"#utility.yul\":2046:2237   */\n    tag_28:\n        /* \"#utility.yul\":2086:2089   */\n      0x00\n        /* \"#utility.yul\":2105:2125   */\n      tag_73\n        /* \"#utility.yul\":2123:2124   */\n      dup3\n        /* \"#utility.yul\":2105:2125   */\n      tag_43\n      jump\t// in\n    tag_73:\n        /* \"#utility.yul\":2100:2125   */\n      swap2\n      pop\n        /* \"#utility.yul\":2139:2159   */\n      tag_74\n        /* \"#utility.yul\":2157:2158   */\n      dup4\n        /* \"#utility.yul\":2139:2159   */\n      tag_43\n      jump\t// in\n    tag_74:\n        /* \"#utility.yul\":2134:2159   */\n      swap3\n      pop\n        /* \"#utility.yul\":2182:2183   */\n      dup3\n        /* \"#utility.yul\":2179:2180   */\n      dup3\n        /* \"#utility.yul\":2175:2184   */\n      add\n        /* \"#utility.yul\":2168:2184   */\n      swap1\n      pop\n        /* \"#utility.yul\":2203:2206   */\n      dup1\n        /* \"#utility.yul\":2200:2201   */\n      dup3\n        /* \"#utility.yul\":2197:2207   */\n      gt\n        /* \"#utility.yul\":2194:2230   */\n      iszero\n      tag_75\n      jumpi\n        /* \"#utility.yul\":2210:2228   */\n      tag_76\n      tag_47\n      jump\t// in\n    tag_76:\n        /* \"#utility.yul\":2194:2230   */\n    tag_75:\n        /* \"#utility.yul\":2046:2237   */\n      swap3\n      swap2\n      pop\n      pop\n      jump\t// out\n        /* \"#utility.yul\":2243:2423   */\n    tag_48:\n        /* \"#utility.yul\":2291:2368   */\n      0x4e487b7100000000000000000000000000000000000000000000000000000000\n        /* \"#utility.yul\":2288:2289   */\n      0x00\n        /* \"#utility.yul\":2281:2369   */\n      mstore\n        /* \"#utility.yul\":2388:2392   */\n      0x12\n        /* \"#utility.yul\":2385:2386   */\n      0x04\n        /* \"#utility.yul\":2378:2393   */\n      mstore\n        /* \"#utility.yul\":2412:2416   */\n      0x24\n        /* \"#utility.yul\":2409:2410   */\n      0x00\n        /* \"#utility.yul\":2402:2417   */\n      revert\n        /* \"#utility.yul\":2429:2614   */\n    tag_31:\n        /* \"#utility.yul\":2469:2470   */\n      0x00\n        /* \"#utility.yul\":2486:2506   */\n      tag_79\n        /* \"#utility.yul\":2504:2505   */\n      dup3\n        /* \"#utility.yul\":2486:2506   */\n      tag_43\n      jump\t// in\n    tag_79:\n        /* \"#utility.yul\":2481:2506   */\n      swap2\n      pop\n        /* \"#utility.yul\":2520:2540   */\n      tag_80\n        /* \"#utility.yul\":2538:2539   */\n      dup4\n        /* \"#utility.yul\":2520:2540   */\n      tag_43\n      jump\t// in\n    tag_80:\n        /* \"#utility.yul\":2515:2540   */\n      swap3\n      pop\n        /* \"#utility.yul\":2559:2560   */\n      dup3\n        /* \"#utility.yul\":2549:2584   */\n      tag_81\n      jumpi\n        /* \"#utility.yul\":2564:2582   */\n      tag_82\n      tag_48\n      jump\t// in\n    tag_82:\n        /* \"#utility.yul\":2549:2584   */\n    tag_81:\n        /* \"#utility.yul\":2606:2607   */\n      dup3\n        /* \"#utility.yul\":2603:2604   */\n      dup3\n        /* \"#utility.yul\":2599:2608   */\n      div\n        /* \"#utility.yul\":2594:2608   */\n      swap1\n      pop\n        /* \"#utility.yul\":2429:2614   */\n      swap3\n      swap2\n      pop\n      pop\n      jump\t// out\n        /* \"#utility.yul\":2620:2796   */\n    tag_33:\n        /* \"#utility.yul\":2652:2653   */\n      0x00\n        /* \"#utility.yul\":2669:2689   */\n      tag_84\n        /* \"#utility.yul\":2687:2688   */\n      dup3\n        /* \"#utility.yul\":2669:2689   */\n      tag_43\n      jump\t// in\n    tag_84:\n        /* \"#utility.yul\":2664:2689   */\n      swap2\n      pop\n        /* \"#utility.yul\":2703:2723   */\n      tag_85\n        /* \"#utility.yul\":2721:2722   */\n      dup4\n        /* \"#utility.yul\":2703:2723   */\n      tag_43\n      jump\t// in\n    tag_85:\n        /* \"#utility.yul\":2698:2723   */\n      swap3\n      pop\n        /* \"#utility.yul\":2742:2743   */\n      dup3\n        /* \"#utility.yul\":2732:2767   */\n      tag_86\n      jumpi\n        /* \"#utility.yul\":2747:2765   */\n      tag_87\n      tag_48\n      jump\t// in\n    tag_87:\n        /* \"#utility.yul\":2732:2767   */\n    tag_86:\n        /* \"#utility.yul\":2788:2789   */\n      dup3\n        /* \"#utility.yul\":2785:2786   */\n      dup3\n        /* \"#utility.yul\":2781:2790   */\n      mod\n        /* \"#utility.yul\":2776:2790   */\n      swap1\n      pop\n        /* \"#utility.yul\":2620:2796   */\n      swap3\n      swap2\n      pop\n      pop\n      jump\t// out\n        /* \"#utility.yul\":2802:2996   */\n    tag_36:\n        /* \"#utility.yul\":2842:2846   */\n      0x00\n        /* \"#utility.yul\":2862:2882   */\n      tag_89\n        /* \"#utility.yul\":2880:2881   */\n      dup3\n        /* \"#utility.yul\":2862:2882   */\n      tag_43\n      jump\t// in\n    tag_89:\n        /* \"#utility.yul\":2857:2882   */\n      swap2\n      pop\n        /* \"#utility.yul\":2896:2916   */\n      tag_90\n        /* \"#utility.yul\":2914:2915   */\n      dup4\n        /* \"#utility.yul\":2896:2916   */\n      tag_43\n      jump\t// in\n    tag_90:\n        /* \"#utility.yul\":2891:2916   */\n      swap3\n      pop\n        /* \"#utility.yul\":2940:2941   */\n      dup3\n        /* \"#utility.yul\":2937:2938   */\n      dup3\n        /* \"#utility.yul\":2933:2942   */\n      sub\n        /* \"#utility.yul\":2925:2942   */\n      swap1\n      pop\n        /* \"#utility.yul\":2964:2965   */\n      dup2\n        /* \"#utility.yul\":2958:2962   */\n      dup2\n        /* \"#utility.yul\":2955:2966   */\n      gt\n        /* \"#utility.yul\":2952:2989   */\n      iszero\n      tag_91\n      jumpi\n        /* \"#utility.yul\":2969:2987   */\n      tag_92\n      tag_47\n      jump\t// in\n    tag_92:\n        /* \"#utility.yul\":2952:2989   */\n    tag_91:\n        /* \"#utility.yul\":2802:2996   */\n      swap3\n      swap2\n      pop\n      pop\n      jump\t// out\n        /* \"#utility.yul\":3002:3412   */\n    tag_39:\n        /* \"#utility.yul\":3042:3049   */\n      0x00\n        /* \"#utility.yul\":3065:3085   */\n      tag_94\n        /* \"#utility.yul\":3083:3084   */\n      dup3\n        /* \"#utility.yul\":3065:3085   */\n      tag_43\n      jump\t// in\n    tag_94:\n        /* \"#utility.yul\":3060:3085   */\n      swap2\n      pop\n        /* \"#utility.yul\":3099:3119   */\n      tag_95\n        /* \"#utility.yul\":3117:3118   */\n      dup4\n        /* \"#utility.yul\":3099:3119   */\n      tag_43\n      jump\t// in\n    tag_95:\n        /* \"#utility.yul\":3094:3119   */\n      swap3\n      pop\n        /* \"#utility.yul\":3154:3155   */\n      dup3\n        /* \"#utility.yul\":3151:3152   */\n      dup3\n        /* \"#utility.yul\":3147:3156   */\n      mul\n        /* \"#utility.yul\":3176:3206   */\n      tag_96\n        /* \"#utility.yul\":3194:3205   */\n      dup2\n        /* \"#utility.yul\":3176:3206   */\n      tag_43\n      jump\t// in\n    tag_96:\n        /* \"#utility.yul\":3165:3206   */\n      swap2\n      pop\n        /* \"#utility.yul\":3355:3356   */\n      dup3\n        /* \"#utility.yul\":3346:3353   */\n      dup3\n        /* \"#utility.yul\":3342:3357   */\n      div\n        /* \"#utility.yul\":3339:3340   */\n      dup5\n        /* \"#utility.yul\":3336:3358   */\n      eq\n        /* \"#utility.yul\":3316:3317   */\n      dup4\n        /* \"#utility.yul\":3309:3318   */\n      iszero\n        /* \"#utility.yul\":3289:3372   */\n      or\n        /* \"#utility.yul\":3266:3405   */\n      tag_97\n      jumpi\n        /* \"#utility.yul\":3385:3403   */\n      tag_98\n      tag_47\n      jump\t// in\n    tag_98:\n        /* \"#utility.yul\":3266:3405   */\n    tag_97:\n        /* \"#utility.yul\":3050:3412   */\n      pop\n        /* \"#utility.yul\":3002:3412   */\n      swap3\n      swap2\n      pop\n      pop\n      jump\t// out\n\n    auxdata: 0xa2646970667358221220cabc5dd87cc6e15251e308d5ed0d560bbccaaea2e3d9edffd9b896a3ece627cf64736f6c634300081a0033\n}\n",
				"bytecode": {
					"linkReferences": {},
					"object": "6080604052348015600e575f80fd5b506103ce8061001c5f395ff3fe608060405234801561000f575f80fd5b506004361061004a575f3560e01c8063771602f71461004e578063a391c15b1461007e578063b67d77c5146100af578063c8a4ac9c146100df575b5f80fd5b610068600480360381019061006391906101aa565b61010f565b60405161007591906101f7565b60405180910390f35b610098600480360381019061009391906101aa565b610124565b6040516100a6929190610210565b60405180910390f35b6100c960048036038101906100c491906101aa565b610149565b6040516100d691906101f7565b60405180910390f35b6100f960048036038101906100f491906101aa565b61015e565b60405161010691906101f7565b60405180910390f35b5f818361011c9190610264565b905092915050565b5f80828461013291906102c4565b838561013e91906102f4565b915091509250929050565b5f81836101569190610324565b905092915050565b5f818361016b9190610357565b905092915050565b5f80fd5b5f819050919050565b61018981610177565b8114610193575f80fd5b50565b5f813590506101a481610180565b92915050565b5f80604083850312156101c0576101bf610173565b5b5f6101cd85828601610196565b92505060206101de85828601610196565b9150509250929050565b6101f181610177565b82525050565b5f60208201905061020a5f8301846101e8565b92915050565b5f6040820190506102235f8301856101e8565b61023060208301846101e8565b9392505050565b7f4e487b71000000000000000000000000000000000000000000000000000000005f52601160045260245ffd5b5f61026e82610177565b915061027983610177565b925082820190508082111561029157610290610237565b5b92915050565b7f4e487b71000000000000000000000000000000000000000000000000000000005f52601260045260245ffd5b5f6102ce82610177565b91506102d983610177565b9250826102e9576102e8610297565b5b828204905092915050565b5f6102fe82610177565b915061030983610177565b92508261031957610318610297565b5b828206905092915050565b5f61032e82610177565b915061033983610177565b925082820390508181111561035157610350610237565b5b92915050565b5f61036182610177565b915061036c83610177565b925082820261037a81610177565b9150828204841483151761039157610390610237565b5b509291505056fea2646970667358221220cabc5dd87cc6e15251e308d5ed0d560bbccaaea2e3d9edffd9b896a3ece627cf64736f6c634300081a0033",
					"opcodes": "PUSH1 0x80 PUSH1 0x40 MSTORE CALLVALUE DUP1 ISZERO PUSH1 0xE JUMPI PUSH0 DUP1 REVERT JUMPDEST POP PUSH2 0x3CE DUP1 PUSH2 0x1C PUSH0 CODECOPY PUSH0 RETURN INVALID PUSH1 0x80 PUSH1 0x40 MSTORE CALLVALUE DUP1 ISZERO PUSH2 0xF JUMPI PUSH0 DUP1 REVERT JUMPDEST POP PUSH1 0x4 CALLDATASIZE LT PUSH2 0x4A JUMPI PUSH0 CALLDATALOAD PUSH1 0xE0 SHR DUP1 PUSH4 0x771602F7 EQ PUSH2 0x4E JUMPI DUP1 PUSH4 0xA391C15B EQ PUSH2 0x7E JUMPI DUP1 PUSH4 0xB67D77C5 EQ PUSH2 0xAF JUMPI DUP1 PUSH4 0xC8A4AC9C EQ PUSH2 0xDF JUMPI JUMPDEST PUSH0 DUP1 REVERT JUMPDEST PUSH2 0x68 PUSH1 0x4 DUP1 CALLDATASIZE SUB DUP2 ADD SWAP1 PUSH2 0x63 SWAP2 SWAP1 PUSH2 0x1AA JUMP JUMPDEST PUSH2 0x10F JUMP JUMPDEST PUSH1 0x40 MLOAD PUSH2 0x75 SWAP2 SWAP1 PUSH2 0x1F7 JUMP JUMPDEST PUSH1 0x40 MLOAD DUP1 SWAP2 SUB SWAP1 RETURN JUMPDEST PUSH2 0x98 PUSH1 0x4 DUP1 CALLDATASIZE SUB DUP2 ADD SWAP1 PUSH2 0x93 SWAP2 SWAP1 PUSH2 0x1AA JUMP JUMPDEST PUSH2 0x124 JUMP JUMPDEST PUSH1 0x40 MLOAD PUSH2 0xA6 SWAP3 SWAP2 SWAP1 PUSH2 0x210 JUMP JUMPDEST PUSH1 0x40 MLOAD DUP1 SWAP2 SUB SWAP1 RETURN JUMPDEST PUSH2 0xC9 PUSH1 0x4 DUP1 CALLDATASIZE SUB DUP2 ADD SWAP1 PUSH2 0xC4 SWAP2 SWAP1 PUSH2 0x1AA JUMP JUMPDEST PUSH2 0x149 JUMP JUMPDEST PUSH1 0x40 MLOAD PUSH2 0xD6 SWAP2 SWAP1 PUSH2 0x1F7 JUMP JUMPDEST PUSH1 0x40 MLOAD DUP1 SWAP2 SUB SWAP1 RETURN JUMPDEST PUSH2 0xF9 PUSH1 0x4 DUP1 CALLDATASIZE SUB DUP2 ADD SWAP1 PUSH2 0xF4 SWAP2 SWAP1 PUSH2 0x1AA JUMP JUMPDEST PUSH2 0x15E JUMP JUMPDEST PUSH1 0x40 MLOAD PUSH2 0x106 SWAP2 SWAP1 PUSH2 0x1F7 JUMP JUMPDEST PUSH1 0x40 MLOAD DUP1 SWAP2 SUB SWAP1 RETURN JUMPDEST PUSH0 DUP2 DUP4 PUSH2 0x11C SWAP2 SWAP1 PUSH2 0x264 JUMP JUMPDEST SWAP1 POP SWAP3 SWAP2 POP POP JUMP JUMPDEST PUSH0 DUP1 DUP3 DUP5 PUSH2 0x132 SWAP2 SWAP1 PUSH2 0x2C4 JUMP JUMPDEST DUP4 DUP6 PUSH2 0x13E SWAP2 SWAP1 PUSH2 0x2F4 JUMP JUMPDEST SWAP2 POP SWAP2 POP SWAP3 POP SWAP3 SWAP1 POP JUMP JUMPDEST PUSH0 DUP2 DUP4 PUSH2 0x156 SWAP2 SWAP1 PUSH2 0x324 JUMP JUMPDEST SWAP1 POP SWAP3 SWAP2 POP POP JUMP JUMPDEST PUSH0 DUP2 DUP4 PUSH2 0x16B SWAP2 SWAP1 PUSH2 0x357 JUMP JUMPDEST SWAP1 POP SWAP3 SWAP2 POP POP JUMP JUMPDEST PUSH0 DUP1 REVERT JUMPDEST PUSH0 DUP2 SWAP1 POP SWAP2 SWAP1 POP JUMP JUMPDEST PUSH2 0x189 DUP2 PUSH2 0x177 JUMP JUMPDEST DUP2 EQ PUSH2 0x193 JUMPI PUSH0 DUP1 REVERT JUMPDEST POP JUMP JUMPDEST PUSH0 DUP2 CALLDATALOAD SWAP1 POP PUSH2 0x1A4 DUP2 PUSH2 0x180 JUMP JUMPDEST SWAP3 SWAP2 POP POP JUMP JUMPDEST PUSH0 DUP1 PUSH1 0x40 DUP4 DUP6 SUB SLT ISZERO PUSH2 0x1C0 JUMPI PUSH2 0x1BF PUSH2 0x173 JUMP JUMPDEST JUMPDEST PUSH0 PUSH2 0x1CD DUP6 DUP3 DUP7 ADD PUSH2 0x196 JUMP JUMPDEST SWAP3 POP POP PUSH1 0x20 PUSH2 0x1DE DUP6 DUP3 DUP7 ADD PUSH2 0x196 JUMP JUMPDEST SWAP2 POP POP SWAP3 POP SWAP3 SWAP1 POP JUMP JUMPDEST PUSH2 0x1F1 DUP2 PUSH2 0x177 JUMP JUMPDEST DUP3 MSTORE POP POP JUMP JUMPDEST PUSH0 PUSH1 0x20 DUP3 ADD SWAP1 POP PUSH2 0x20A PUSH0 DUP4 ADD DUP5 PUSH2 0x1E8 JUMP JUMPDEST SWAP3 SWAP2 POP POP JUMP JUMPDEST PUSH0 PUSH1 0x40 DUP3 ADD SWAP1 POP PUSH2 0x223 PUSH0 DUP4 ADD DUP6 PUSH2 0x1E8 JUMP JUMPDEST PUSH2 0x230 PUSH1 0x20 DUP4 ADD DUP5 PUSH2 0x1E8 JUMP JUMPDEST SWAP4 SWAP3 POP POP POP JUMP JUMPDEST PUSH32 0x4E487B7100000000000000000000000000000000000000000000000000000000 PUSH0 MSTORE PUSH1 0x11 PUSH1 0x4 MSTORE PUSH1 0x24 PUSH0 REVERT JUMPDEST PUSH0 PUSH2 0x26E DUP3 PUSH2 0x177 JUMP JUMPDEST SWAP2 POP PUSH2 0x279 DUP4 PUSH2 0x177 JUMP JUMPDEST SWAP3 POP DUP3 DUP3 ADD SWAP1 POP DUP1 DUP3 GT ISZERO PUSH2 0x291 JUMPI PUSH2 0x290 PUSH2 0x237 JUMP JUMPDEST JUMPDEST SWAP3 SWAP2 POP POP JUMP JUMPDEST PUSH32 0x4E487B7100000000000000000000000000000000000000000000000000000000 PUSH0 MSTORE PUSH1 0x12 PUSH1 0x4 MSTORE PUSH1 0x24 PUSH0 REVERT JUMPDEST PUSH0 PUSH2 0x2CE DUP3 PUSH2 0x177 JUMP JUMPDEST SWAP2 POP PUSH2 0x2D9 DUP4 PUSH2 0x177 JUMP JUMPDEST SWAP3 POP DUP3 PUSH2 0x2E9 JUMPI PUSH2 0x2E8 PUSH2 0x297 JUMP JUMPDEST JUMPDEST DUP3 DUP3 DIV SWAP1 POP SWAP3 SWAP2 POP POP JUMP JUMPDEST PUSH0 PUSH2 0x2FE DUP3 PUSH2 0x177 JUMP JUMPDEST SWAP2 POP PUSH2 0x309 DUP4 PUSH2 0x177 JUMP JUMPDEST SWAP3 POP DUP3 PUSH2 0x319 JUMPI PUSH2 0x318 PUSH2 0x297 JUMP JUMPDEST JUMPDEST DUP3 DUP3 MOD SWAP1 POP SWAP3 SWAP2 POP POP JUMP JUMPDEST PUSH0 PUSH2 0x32E DUP3 PUSH2 0x177 JUMP JUMPDEST SWAP2 POP PUSH2 0x339 DUP4 PUSH2 0x177 JUMP JUMPDEST SWAP3 POP DUP3 DUP3 SUB SWAP1 POP DUP2 DUP2 GT ISZERO PUSH2 0x351 JUMPI PUSH2 0x350 PUSH2 0x237 JUMP JUMPDEST JUMPDEST SWAP3 SWAP2 POP POP JUMP JUMPDEST PUSH0 PUSH2 0x361 DUP3 PUSH2 0x177 JUMP JUMPDEST SWAP2 POP PUSH2 0x36C DUP4 PUSH2 0x177 JUMP JUMPDEST SWAP3 POP DUP3 DUP3 MUL PUSH2 0x37A DUP2 PUSH2 0x177 JUMP JUMPDEST SWAP2 POP DUP3 DUP3 DIV DUP5 EQ DUP4 ISZERO OR PUSH2 0x391 JUMPI PUSH2 0x390 PUSH2 0x237 JUMP JUMPDEST JUMPDEST POP SWAP3 SWAP2 POP POP JUMP INVALID LOG2 PUSH5 0x6970667358 0x22 SLT KECCAK256 0xCA 0xBC TSTORE 0xD8 PUSH29 0xC6E15251E308D5ED0D560BBCCAAEA2E3D9EDFFD9B896A3ECE627CF6473 PUSH16 0x6C634300081A00330000000000000000 "
				},
				"gasEstimates": {
					"creation": {
						"codeDepositCost": "194800",
						"executionCost": "236",
						"totalCost": "195036"
					},
					"external": {
						"add(uint256,uint256)": "infinite",
						"div(uint256,uint256)": "infinite",
						"mul(uint256,uint256)": "infinite",
						"sub(uint256,uint256)": "infinite"
					}
				},
				"methodIdentifiers": {
					"add(uint256,uint256)": "771602f7",
					"div(uint256,uint256)": "a391c15b",
					"mul(uint256,uint256)": "c8a4ac9c",
					"sub(uint256,uint256)": "b67d77c5"
				}
			},
			"storageLayout": {
				"storage": [],
				"types": null
			},
			"userdoc": {
				"kind": "user",
				"methods": {},
				"version": 1
			}
		}
	}
}