{
	"Solidity100/sol100(1~10).sol": {
		"Q6": {
			"abi": [
				{
					"inputs": [],
					"name": "push",
					"outputs": [],
					"stateMutability": "nonpayable",
					"type": "function"
				}
			],
			"devdoc": {
				"kind": "dev",
				"methods": {},
				"version": 1
			},
			"evm": {
				"assembly": "    /* \"Solidity100/sol100(1~10).sol\":2672:3015  contract Q6 {... */\n  mstore(0x40, 0x80)\n  callvalue\n  dup1\n  iszero\n  tag_1\n  jumpi\n  0x00\n  dup1\n  revert\ntag_1:\n  pop\n  dataSize(sub_0)\n  dup1\n  dataOffset(sub_0)\n  0x00\n  codecopy\n  0x00\n  return\nstop\n\nsub_0: assembly {\n        /* \"Solidity100/sol100(1~10).sol\":2672:3015  contract Q6 {... */\n      mstore(0x40, 0x80)\n      callvalue\n      dup1\n      iszero\n      tag_1\n      jumpi\n      0x00\n      dup1\n      revert\n    tag_1:\n      pop\n      jumpi(tag_2, lt(calldatasize, 0x04))\n      shr(0xe0, calldataload(0x00))\n      dup1\n      0x8035f0ce\n      eq\n      tag_3\n      jumpi\n    tag_2:\n      0x00\n      dup1\n      revert\n        /* \"Solidity100/sol100(1~10).sol\":2891:3012  function push() public{... */\n    tag_3:\n      tag_4\n      tag_5\n      jump\t// in\n    tag_4:\n      stop\n    tag_5:\n        /* \"Solidity100/sol100(1~10).sol\":2924:2930  uint i */\n      0x00\n        /* \"Solidity100/sol100(1~10).sol\":2943:3004  for(i=0; i<=9; i++) {... */\n    tag_7:\n        /* \"Solidity100/sol100(1~10).sol\":2955:2956  9 */\n      0x09\n        /* \"Solidity100/sol100(1~10).sol\":2952:2953  i */\n      dup2\n        /* \"Solidity100/sol100(1~10).sol\":2952:2956  i<=9 */\n      gt\n        /* \"Solidity100/sol100(1~10).sol\":2943:3004  for(i=0; i<=9; i++) {... */\n      tag_8\n      jumpi\n        /* \"Solidity100/sol100(1~10).sol\":2977:2984  numbers */\n      0x00\n        /* \"Solidity100/sol100(1~10).sol\":2990:2991  i */\n      dup2\n        /* \"Solidity100/sol100(1~10).sol\":2977:2992  numbers.push(i) */\n      swap1\n      dup1\n      0x01\n      dup2\n      sload\n      add\n      dup1\n      dup3\n      sstore\n      dup1\n      swap2\n      pop\n      pop\n      0x01\n      swap1\n      sub\n      swap1\n      0x00\n      mstore\n      keccak256(0x00, 0x20)\n      add\n      0x00\n      swap1\n      swap2\n      swap1\n      swap2\n      swap1\n      swap2\n      pop\n      sstore\n        /* \"Solidity100/sol100(1~10).sol\":2958:2961  i++ */\n      dup1\n      dup1\n      tag_11\n      swap1\n      tag_12\n      jump\t// in\n    tag_11:\n      swap2\n      pop\n      pop\n        /* \"Solidity100/sol100(1~10).sol\":2943:3004  for(i=0; i<=9; i++) {... */\n      jump(tag_7)\n    tag_8:\n        /* \"Solidity100/sol100(1~10).sol\":2913:3012  {... */\n      pop\n        /* \"Solidity100/sol100(1~10).sol\":2891:3012  function push() public{... */\n      jump\t// out\n        /* \"#utility.yul\":7:187   */\n    tag_13:\n        /* \"#utility.yul\":55:132   */\n      0x4e487b7100000000000000000000000000000000000000000000000000000000\n        /* \"#utility.yul\":52:53   */\n      0x00\n        /* \"#utility.yul\":45:133   */\n      mstore\n        /* \"#utility.yul\":152:156   */\n      0x11\n        /* \"#utility.yul\":149:150   */\n      0x04\n        /* \"#utility.yul\":142:157   */\n      mstore\n        /* \"#utility.yul\":176:180   */\n      0x24\n        /* \"#utility.yul\":173:174   */\n      0x00\n        /* \"#utility.yul\":166:181   */\n      revert\n        /* \"#utility.yul\":193:270   */\n    tag_14:\n        /* \"#utility.yul\":230:237   */\n      0x00\n        /* \"#utility.yul\":259:264   */\n      dup2\n        /* \"#utility.yul\":248:264   */\n      swap1\n      pop\n        /* \"#utility.yul\":193:270   */\n      swap2\n      swap1\n      pop\n      jump\t// out\n        /* \"#utility.yul\":276:509   */\n    tag_12:\n        /* \"#utility.yul\":315:318   */\n      0x00\n        /* \"#utility.yul\":338:362   */\n      tag_19\n        /* \"#utility.yul\":356:361   */\n      dup3\n        /* \"#utility.yul\":338:362   */\n      tag_14\n      jump\t// in\n    tag_19:\n        /* \"#utility.yul\":329:362   */\n      swap2\n      pop\n        /* \"#utility.yul\":384:450   */\n      0xffffffffffffffffffffffffffffffffffffffffffffffffffffffffffffffff\n        /* \"#utility.yul\":377:382   */\n      dup3\n        /* \"#utility.yul\":374:451   */\n      sub\n        /* \"#utility.yul\":371:474   */\n      tag_20\n      jumpi\n        /* \"#utility.yul\":454:472   */\n      tag_21\n      tag_13\n      jump\t// in\n    tag_21:\n        /* \"#utility.yul\":371:474   */\n    tag_20:\n        /* \"#utility.yul\":501:502   */\n      0x01\n        /* \"#utility.yul\":494:499   */\n      dup3\n        /* \"#utility.yul\":490:503   */\n      add\n        /* \"#utility.yul\":483:503   */\n      swap1\n      pop\n        /* \"#utility.yul\":276:509   */\n      swap2\n      swap1\n      pop\n      jump\t// out\n\n    auxdata: 0xa2646970667358221220630bccaae4490ec43c10305c7ffb1c8366fe10bf57acf862829b40a6174e2f4e64736f6c634300081a0033\n}\n",
				"bytecode": {
					"linkReferences": {},
					"object": "6080604052348015600e575f80fd5b506101218061001c5f395ff3fe6080604052348015600e575f80fd5b50600436106026575f3560e01c80638035f0ce14602a575b5f80fd5b60306032565b005b5f5b600981116070575f81908060018154018082558091505060019003905f5260205f20015f9091909190915055808060699060a9565b9150506034565b50565b7f4e487b71000000000000000000000000000000000000000000000000000000005f52601160045260245ffd5b5f819050919050565b5f60b18260a0565b91507fffffffffffffffffffffffffffffffffffffffffffffffffffffffffffffffff820360e05760df6073565b5b60018201905091905056fea2646970667358221220630bccaae4490ec43c10305c7ffb1c8366fe10bf57acf862829b40a6174e2f4e64736f6c634300081a0033",
					"opcodes": "PUSH1 0x80 PUSH1 0x40 MSTORE CALLVALUE DUP1 ISZERO PUSH1 0xE JUMPI PUSH0 DUP1 REVERT JUMPDEST POP PUSH2 0x121 DUP1 PUSH2 0x1C PUSH0 CODECOPY PUSH0 RETURN INVALID PUSH1 0x80 PUSH1 0x40 MSTORE CALLVALUE DUP1 ISZERO PUSH1 0xE JUMPI PUSH0 DUP1 REVERT JUMPDEST POP PUSH1 0x4 CALLDATASIZE LT PUSH1 0x26 JUMPI PUSH0 CALLDATALOAD PUSH1 0xE0 SHR DUP1 PUSH4 0x8035F0CE EQ PUSH1 0x2A JUMPI JUMPDEST PUSH0 DUP1 REVERT JUMPDEST PUSH1 0x30 PUSH1 0x32 JUMP JUMPDEST STOP JUMPDEST PUSH0 JUMPDEST PUSH1 0x9 DUP2 GT PUSH1 0x70 JUMPI PUSH0 DUP2 SWAP1 DUP1 PUSH1 0x1 DUP2 SLOAD ADD DUP1 DUP3 SSTORE DUP1 SWAP2 POP POP PUSH1 0x1 SWAP1 SUB SWAP1 PUSH0 MSTORE PUSH1 0x20 PUSH0 KECCAK256 ADD PUSH0 SWAP1 SWAP2 SWAP1 SWAP2 SWAP1 SWAP2 POP SSTORE DUP1 DUP1 PUSH1 0x69 SWAP1 PUSH1 0xA9 JUMP JUMPDEST SWAP2 POP POP PUSH1 0x34 JUMP JUMPDEST POP JUMP JUMPDEST PUSH32 0x4E487B7100000000000000000000000000000000000000000000000000000000 PUSH0 MSTORE PUSH1 0x11 PUSH1 0x4 MSTORE PUSH1 0x24 PUSH0 REVERT JUMPDEST PUSH0 DUP2 SWAP1 POP SWAP2 SWAP1 POP JUMP JUMPDEST PUSH0 PUSH1 0xB1 DUP3 PUSH1 0xA0 JUMP JUMPDEST SWAP2 POP PUSH32 0xFFFFFFFFFFFFFFFFFFFFFFFFFFFFFFFFFFFFFFFFFFFFFFFFFFFFFFFFFFFFFFFF DUP3 SUB PUSH1 0xE0 JUMPI PUSH1 0xDF PUSH1 0x73 JUMP JUMPDEST JUMPDEST PUSH1 0x1 DUP3 ADD SWAP1 POP SWAP2 SWAP1 POP JUMP INVALID LOG2 PUSH5 0x6970667358 0x22 SLT KECCAK256 PUSH4 0xBCCAAE4 BLOBHASH 0xE 0xC4 EXTCODECOPY LT ADDRESS TLOAD PUSH32 0xFB1C8366FE10BF57ACF862829B40A6174E2F4E64736F6C634300081A00330000 "
				},
				"gasEstimates": {
					"creation": {
						"codeDepositCost": "57800",
						"executionCost": "109",
						"totalCost": "57909"
					},
					"external": {
						"push()": "infinite"
					}
				},
				"methodIdentifiers": {
					"push()": "8035f0ce"
				}
			},
			"storageLayout": {
				"storage": [
					{
						"astId": 222,
						"contract": "Solidity100/sol100(1~10).sol:Q6",
						"label": "numbers",
						"offset": 0,
						"slot": "0",
						"type": "t_array(t_uint256)dyn_storage"
					}
				],
				"types": {
					"t_array(t_uint256)dyn_storage": {
						"base": "t_uint256",
						"encoding": "dynamic_array",
						"label": "uint256[]",
						"numberOfBytes": "32"
					},
					"t_uint256": {
						"encoding": "inplace",
						"label": "uint256",
						"numberOfBytes": "32"
					}
				}
			},
			"userdoc": {
				"kind": "user",
				"methods": {},
				"version": 1
			}
		}
	}
}