{
	"Solidity100/sol100(1~10).sol": {
		"Q7": {
			"abi": [
				{
					"inputs": [],
					"name": "pushA",
					"outputs": [],
					"stateMutability": "nonpayable",
					"type": "function"
				},
				{
					"inputs": [],
					"name": "sumA",
					"outputs": [
						{
							"internalType": "uint256",
							"name": "",
							"type": "uint256"
						}
					],
					"stateMutability": "view",
					"type": "function"
				}
			],
			"devdoc": {
				"kind": "dev",
				"methods": {},
				"version": 1
			},
			"evm": {
				"assembly": "    /* \"Solidity100/sol100(1~10).sol\":3019:3633  contract Q7 {... */\n  mstore(0x40, 0x80)\n  callvalue\n  dup1\n  iszero\n  tag_1\n  jumpi\n  0x00\n  dup1\n  revert\ntag_1:\n  pop\n  dataSize(sub_0)\n  dup1\n  dataOffset(sub_0)\n  0x00\n  codecopy\n  0x00\n  return\nstop\n\nsub_0: assembly {\n        /* \"Solidity100/sol100(1~10).sol\":3019:3633  contract Q7 {... */\n      mstore(0x40, 0x80)\n      callvalue\n      dup1\n      iszero\n      tag_1\n      jumpi\n      0x00\n      dup1\n      revert\n    tag_1:\n      pop\n      jumpi(tag_2, lt(calldatasize, 0x04))\n      shr(0xe0, calldataload(0x00))\n      dup1\n      0x609e7a6f\n      eq\n      tag_3\n      jumpi\n      dup1\n      0x6aea0267\n      eq\n      tag_4\n      jumpi\n    tag_2:\n      0x00\n      dup1\n      revert\n        /* \"Solidity100/sol100(1~10).sol\":3439:3630  function sumA() public view returns(uint) {... */\n    tag_3:\n      tag_5\n      tag_6\n      jump\t// in\n    tag_5:\n      mload(0x40)\n      tag_7\n      swap2\n      swap1\n      tag_8\n      jump\t// in\n    tag_7:\n      mload(0x40)\n      dup1\n      swap2\n      sub\n      swap1\n      return\n        /* \"Solidity100/sol100(1~10).sol\":3309:3431  function pushA() public {... */\n    tag_4:\n      tag_9\n      tag_10\n      jump\t// in\n    tag_9:\n      stop\n        /* \"Solidity100/sol100(1~10).sol\":3439:3630  function sumA() public view returns(uint) {... */\n    tag_6:\n        /* \"Solidity100/sol100(1~10).sol\":3475:3479  uint */\n      0x00\n        /* \"Solidity100/sol100(1~10).sol\":3492:3498  uint a */\n      dup1\n        /* \"Solidity100/sol100(1~10).sol\":3509:3515  uint i */\n      0x00\n        /* \"Solidity100/sol100(1~10).sol\":3528:3603  for(i=0; i<numbers.length; i++){... */\n    tag_12:\n        /* \"Solidity100/sol100(1~10).sol\":3539:3546  numbers */\n      0x00\n        /* \"Solidity100/sol100(1~10).sol\":3539:3553  numbers.length */\n      dup1\n      sload\n      swap1\n      pop\n        /* \"Solidity100/sol100(1~10).sol\":3537:3538  i */\n      dup2\n        /* \"Solidity100/sol100(1~10).sol\":3537:3553  i<numbers.length */\n      lt\n        /* \"Solidity100/sol100(1~10).sol\":3528:3603  for(i=0; i<numbers.length; i++){... */\n      iszero\n      tag_13\n      jumpi\n        /* \"Solidity100/sol100(1~10).sol\":3581:3588  numbers */\n      0x00\n        /* \"Solidity100/sol100(1~10).sol\":3589:3590  i */\n      dup2\n        /* \"Solidity100/sol100(1~10).sol\":3581:3591  numbers[i] */\n      dup2\n      sload\n      dup2\n      lt\n      tag_15\n      jumpi\n      tag_16\n      tag_17\n      jump\t// in\n    tag_16:\n    tag_15:\n      swap1\n      0x00\n      mstore\n      keccak256(0x00, 0x20)\n      add\n      sload\n        /* \"Solidity100/sol100(1~10).sol\":3577:3578  a */\n      dup3\n        /* \"Solidity100/sol100(1~10).sol\":3577:3591  a + numbers[i] */\n      tag_19\n      swap2\n      swap1\n      tag_20\n      jump\t// in\n    tag_19:\n        /* \"Solidity100/sol100(1~10).sol\":3573:3591  a = a + numbers[i] */\n      swap2\n      pop\n        /* \"Solidity100/sol100(1~10).sol\":3555:3558  i++ */\n      dup1\n      dup1\n      0x01\n      add\n      swap2\n      pop\n      pop\n        /* \"Solidity100/sol100(1~10).sol\":3528:3603  for(i=0; i<numbers.length; i++){... */\n      jump(tag_12)\n    tag_13:\n        /* \"Solidity100/sol100(1~10).sol\":3621:3622  a */\n      dup2\n        /* \"Solidity100/sol100(1~10).sol\":3614:3622  return a */\n      swap3\n      pop\n      pop\n      pop\n        /* \"Solidity100/sol100(1~10).sol\":3439:3630  function sumA() public view returns(uint) {... */\n      swap1\n      jump\t// out\n        /* \"Solidity100/sol100(1~10).sol\":3309:3431  function pushA() public {... */\n    tag_10:\n        /* \"Solidity100/sol100(1~10).sol\":3344:3350  uint i */\n      0x00\n        /* \"Solidity100/sol100(1~10).sol\":3363:3424  for(i=0; i<=5; i++){... */\n    tag_22:\n        /* \"Solidity100/sol100(1~10).sol\":3375:3376  5 */\n      0x05\n        /* \"Solidity100/sol100(1~10).sol\":3372:3373  i */\n      dup2\n        /* \"Solidity100/sol100(1~10).sol\":3372:3376  i<=5 */\n      gt\n        /* \"Solidity100/sol100(1~10).sol\":3363:3424  for(i=0; i<=5; i++){... */\n      tag_23\n      jumpi\n        /* \"Solidity100/sol100(1~10).sol\":3397:3404  numbers */\n      0x00\n        /* \"Solidity100/sol100(1~10).sol\":3410:3411  i */\n      dup2\n        /* \"Solidity100/sol100(1~10).sol\":3397:3412  numbers.push(i) */\n      swap1\n      dup1\n      0x01\n      dup2\n      sload\n      add\n      dup1\n      dup3\n      sstore\n      dup1\n      swap2\n      pop\n      pop\n      0x01\n      swap1\n      sub\n      swap1\n      0x00\n      mstore\n      keccak256(0x00, 0x20)\n      add\n      0x00\n      swap1\n      swap2\n      swap1\n      swap2\n      swap1\n      swap2\n      pop\n      sstore\n        /* \"Solidity100/sol100(1~10).sol\":3378:3381  i++ */\n      dup1\n      dup1\n      tag_26\n      swap1\n      tag_27\n      jump\t// in\n    tag_26:\n      swap2\n      pop\n      pop\n        /* \"Solidity100/sol100(1~10).sol\":3363:3424  for(i=0; i<=5; i++){... */\n      jump(tag_22)\n    tag_23:\n        /* \"Solidity100/sol100(1~10).sol\":3333:3431  {... */\n      pop\n        /* \"Solidity100/sol100(1~10).sol\":3309:3431  function pushA() public {... */\n      jump\t// out\n        /* \"#utility.yul\":7:84   */\n    tag_28:\n        /* \"#utility.yul\":44:51   */\n      0x00\n        /* \"#utility.yul\":73:78   */\n      dup2\n        /* \"#utility.yul\":62:78   */\n      swap1\n      pop\n        /* \"#utility.yul\":7:84   */\n      swap2\n      swap1\n      pop\n      jump\t// out\n        /* \"#utility.yul\":90:208   */\n    tag_29:\n        /* \"#utility.yul\":177:201   */\n      tag_34\n        /* \"#utility.yul\":195:200   */\n      dup2\n        /* \"#utility.yul\":177:201   */\n      tag_28\n      jump\t// in\n    tag_34:\n        /* \"#utility.yul\":172:175   */\n      dup3\n        /* \"#utility.yul\":165:202   */\n      mstore\n        /* \"#utility.yul\":90:208   */\n      pop\n      pop\n      jump\t// out\n        /* \"#utility.yul\":214:436   */\n    tag_8:\n        /* \"#utility.yul\":307:311   */\n      0x00\n        /* \"#utility.yul\":345:347   */\n      0x20\n        /* \"#utility.yul\":334:343   */\n      dup3\n        /* \"#utility.yul\":330:348   */\n      add\n        /* \"#utility.yul\":322:348   */\n      swap1\n      pop\n        /* \"#utility.yul\":358:429   */\n      tag_36\n        /* \"#utility.yul\":426:427   */\n      0x00\n        /* \"#utility.yul\":415:424   */\n      dup4\n        /* \"#utility.yul\":411:428   */\n      add\n        /* \"#utility.yul\":402:408   */\n      dup5\n        /* \"#utility.yul\":358:429   */\n      tag_29\n      jump\t// in\n    tag_36:\n        /* \"#utility.yul\":214:436   */\n      swap3\n      swap2\n      pop\n      pop\n      jump\t// out\n        /* \"#utility.yul\":442:622   */\n    tag_17:\n        /* \"#utility.yul\":490:567   */\n      0x4e487b7100000000000000000000000000000000000000000000000000000000\n        /* \"#utility.yul\":487:488   */\n      0x00\n        /* \"#utility.yul\":480:568   */\n      mstore\n        /* \"#utility.yul\":587:591   */\n      0x32\n        /* \"#utility.yul\":584:585   */\n      0x04\n        /* \"#utility.yul\":577:592   */\n      mstore\n        /* \"#utility.yul\":611:615   */\n      0x24\n        /* \"#utility.yul\":608:609   */\n      0x00\n        /* \"#utility.yul\":601:616   */\n      revert\n        /* \"#utility.yul\":628:808   */\n    tag_30:\n        /* \"#utility.yul\":676:753   */\n      0x4e487b7100000000000000000000000000000000000000000000000000000000\n        /* \"#utility.yul\":673:674   */\n      0x00\n        /* \"#utility.yul\":666:754   */\n      mstore\n        /* \"#utility.yul\":773:777   */\n      0x11\n        /* \"#utility.yul\":770:771   */\n      0x04\n        /* \"#utility.yul\":763:778   */\n      mstore\n        /* \"#utility.yul\":797:801   */\n      0x24\n        /* \"#utility.yul\":794:795   */\n      0x00\n        /* \"#utility.yul\":787:802   */\n      revert\n        /* \"#utility.yul\":814:1005   */\n    tag_20:\n        /* \"#utility.yul\":854:857   */\n      0x00\n        /* \"#utility.yul\":873:893   */\n      tag_40\n        /* \"#utility.yul\":891:892   */\n      dup3\n        /* \"#utility.yul\":873:893   */\n      tag_28\n      jump\t// in\n    tag_40:\n        /* \"#utility.yul\":868:893   */\n      swap2\n      pop\n        /* \"#utility.yul\":907:927   */\n      tag_41\n        /* \"#utility.yul\":925:926   */\n      dup4\n        /* \"#utility.yul\":907:927   */\n      tag_28\n      jump\t// in\n    tag_41:\n        /* \"#utility.yul\":902:927   */\n      swap3\n      pop\n        /* \"#utility.yul\":950:951   */\n      dup3\n        /* \"#utility.yul\":947:948   */\n      dup3\n        /* \"#utility.yul\":943:952   */\n      add\n        /* \"#utility.yul\":936:952   */\n      swap1\n      pop\n        /* \"#utility.yul\":971:974   */\n      dup1\n        /* \"#utility.yul\":968:969   */\n      dup3\n        /* \"#utility.yul\":965:975   */\n      gt\n        /* \"#utility.yul\":962:998   */\n      iszero\n      tag_42\n      jumpi\n        /* \"#utility.yul\":978:996   */\n      tag_43\n      tag_30\n      jump\t// in\n    tag_43:\n        /* \"#utility.yul\":962:998   */\n    tag_42:\n        /* \"#utility.yul\":814:1005   */\n      swap3\n      swap2\n      pop\n      pop\n      jump\t// out\n        /* \"#utility.yul\":1011:1244   */\n    tag_27:\n        /* \"#utility.yul\":1050:1053   */\n      0x00\n        /* \"#utility.yul\":1073:1097   */\n      tag_45\n        /* \"#utility.yul\":1091:1096   */\n      dup3\n        /* \"#utility.yul\":1073:1097   */\n      tag_28\n      jump\t// in\n    tag_45:\n        /* \"#utility.yul\":1064:1097   */\n      swap2\n      pop\n        /* \"#utility.yul\":1119:1185   */\n      0xffffffffffffffffffffffffffffffffffffffffffffffffffffffffffffffff\n        /* \"#utility.yul\":1112:1117   */\n      dup3\n        /* \"#utility.yul\":1109:1186   */\n      sub\n        /* \"#utility.yul\":1106:1209   */\n      tag_46\n      jumpi\n        /* \"#utility.yul\":1189:1207   */\n      tag_47\n      tag_30\n      jump\t// in\n    tag_47:\n        /* \"#utility.yul\":1106:1209   */\n    tag_46:\n        /* \"#utility.yul\":1236:1237   */\n      0x01\n        /* \"#utility.yul\":1229:1234   */\n      dup3\n        /* \"#utility.yul\":1225:1238   */\n      add\n        /* \"#utility.yul\":1218:1238   */\n      swap1\n      pop\n        /* \"#utility.yul\":1011:1244   */\n      swap2\n      swap1\n      pop\n      jump\t// out\n\n    auxdata: 0xa26469706673582212202764d5af87d1e52c7bde9ebb80cf5fcce13bc1962526e801452811d7e7db347064736f6c634300081a0033\n}\n",
				"bytecode": {
					"linkReferences": {},
					"object": "6080604052348015600e575f80fd5b5061022e8061001c5f395ff3fe608060405234801561000f575f80fd5b5060043610610034575f3560e01c8063609e7a6f146100385780636aea026714610056575b5f80fd5b610040610060565b60405161004d919061010b565b60405180910390f35b61005e6100ae565b005b5f805f5b5f805490508110156100a6575f818154811061008357610082610124565b5b905f5260205f20015482610097919061017e565b91508080600101915050610064565b819250505090565b5f5b600581116100f0575f81908060018154018082558091505060019003905f5260205f20015f909190919091505580806100e8906101b1565b9150506100b0565b50565b5f819050919050565b610105816100f3565b82525050565b5f60208201905061011e5f8301846100fc565b92915050565b7f4e487b71000000000000000000000000000000000000000000000000000000005f52603260045260245ffd5b7f4e487b71000000000000000000000000000000000000000000000000000000005f52601160045260245ffd5b5f610188826100f3565b9150610193836100f3565b92508282019050808211156101ab576101aa610151565b5b92915050565b5f6101bb826100f3565b91507fffffffffffffffffffffffffffffffffffffffffffffffffffffffffffffffff82036101ed576101ec610151565b5b60018201905091905056fea26469706673582212202764d5af87d1e52c7bde9ebb80cf5fcce13bc1962526e801452811d7e7db347064736f6c634300081a0033",
					"opcodes": "PUSH1 0x80 PUSH1 0x40 MSTORE CALLVALUE DUP1 ISZERO PUSH1 0xE JUMPI PUSH0 DUP1 REVERT JUMPDEST POP PUSH2 0x22E DUP1 PUSH2 0x1C PUSH0 CODECOPY PUSH0 RETURN INVALID PUSH1 0x80 PUSH1 0x40 MSTORE CALLVALUE DUP1 ISZERO PUSH2 0xF JUMPI PUSH0 DUP1 REVERT JUMPDEST POP PUSH1 0x4 CALLDATASIZE LT PUSH2 0x34 JUMPI PUSH0 CALLDATALOAD PUSH1 0xE0 SHR DUP1 PUSH4 0x609E7A6F EQ PUSH2 0x38 JUMPI DUP1 PUSH4 0x6AEA0267 EQ PUSH2 0x56 JUMPI JUMPDEST PUSH0 DUP1 REVERT JUMPDEST PUSH2 0x40 PUSH2 0x60 JUMP JUMPDEST PUSH1 0x40 MLOAD PUSH2 0x4D SWAP2 SWAP1 PUSH2 0x10B JUMP JUMPDEST PUSH1 0x40 MLOAD DUP1 SWAP2 SUB SWAP1 RETURN JUMPDEST PUSH2 0x5E PUSH2 0xAE JUMP JUMPDEST STOP JUMPDEST PUSH0 DUP1 PUSH0 JUMPDEST PUSH0 DUP1 SLOAD SWAP1 POP DUP2 LT ISZERO PUSH2 0xA6 JUMPI PUSH0 DUP2 DUP2 SLOAD DUP2 LT PUSH2 0x83 JUMPI PUSH2 0x82 PUSH2 0x124 JUMP JUMPDEST JUMPDEST SWAP1 PUSH0 MSTORE PUSH1 0x20 PUSH0 KECCAK256 ADD SLOAD DUP3 PUSH2 0x97 SWAP2 SWAP1 PUSH2 0x17E JUMP JUMPDEST SWAP2 POP DUP1 DUP1 PUSH1 0x1 ADD SWAP2 POP POP PUSH2 0x64 JUMP JUMPDEST DUP2 SWAP3 POP POP POP SWAP1 JUMP JUMPDEST PUSH0 JUMPDEST PUSH1 0x5 DUP2 GT PUSH2 0xF0 JUMPI PUSH0 DUP2 SWAP1 DUP1 PUSH1 0x1 DUP2 SLOAD ADD DUP1 DUP3 SSTORE DUP1 SWAP2 POP POP PUSH1 0x1 SWAP1 SUB SWAP1 PUSH0 MSTORE PUSH1 0x20 PUSH0 KECCAK256 ADD PUSH0 SWAP1 SWAP2 SWAP1 SWAP2 SWAP1 SWAP2 POP SSTORE DUP1 DUP1 PUSH2 0xE8 SWAP1 PUSH2 0x1B1 JUMP JUMPDEST SWAP2 POP POP PUSH2 0xB0 JUMP JUMPDEST POP JUMP JUMPDEST PUSH0 DUP2 SWAP1 POP SWAP2 SWAP1 POP JUMP JUMPDEST PUSH2 0x105 DUP2 PUSH2 0xF3 JUMP JUMPDEST DUP3 MSTORE POP POP JUMP JUMPDEST PUSH0 PUSH1 0x20 DUP3 ADD SWAP1 POP PUSH2 0x11E PUSH0 DUP4 ADD DUP5 PUSH2 0xFC JUMP JUMPDEST SWAP3 SWAP2 POP POP JUMP JUMPDEST PUSH32 0x4E487B7100000000000000000000000000000000000000000000000000000000 PUSH0 MSTORE PUSH1 0x32 PUSH1 0x4 MSTORE PUSH1 0x24 PUSH0 REVERT JUMPDEST PUSH32 0x4E487B7100000000000000000000000000000000000000000000000000000000 PUSH0 MSTORE PUSH1 0x11 PUSH1 0x4 MSTORE PUSH1 0x24 PUSH0 REVERT JUMPDEST PUSH0 PUSH2 0x188 DUP3 PUSH2 0xF3 JUMP JUMPDEST SWAP2 POP PUSH2 0x193 DUP4 PUSH2 0xF3 JUMP JUMPDEST SWAP3 POP DUP3 DUP3 ADD SWAP1 POP DUP1 DUP3 GT ISZERO PUSH2 0x1AB JUMPI PUSH2 0x1AA PUSH2 0x151 JUMP JUMPDEST JUMPDEST SWAP3 SWAP2 POP POP JUMP JUMPDEST PUSH0 PUSH2 0x1BB DUP3 PUSH2 0xF3 JUMP JUMPDEST SWAP2 POP PUSH32 0xFFFFFFFFFFFFFFFFFFFFFFFFFFFFFFFFFFFFFFFFFFFFFFFFFFFFFFFFFFFFFFFF DUP3 SUB PUSH2 0x1ED JUMPI PUSH2 0x1EC PUSH2 0x151 JUMP JUMPDEST JUMPDEST PUSH1 0x1 DUP3 ADD SWAP1 POP SWAP2 SWAP1 POP JUMP INVALID LOG2 PUSH5 0x6970667358 0x22 SLT KECCAK256 0x27 PUSH5 0xD5AF87D1E5 0x2C PUSH28 0xDE9EBB80CF5FCCE13BC1962526E801452811D7E7DB347064736F6C63 NUMBER STOP ADDMOD BYTE STOP CALLER "
				},
				"gasEstimates": {
					"creation": {
						"codeDepositCost": "111600",
						"executionCost": "157",
						"totalCost": "111757"
					},
					"external": {
						"pushA()": "infinite",
						"sumA()": "infinite"
					}
				},
				"methodIdentifiers": {
					"pushA()": "6aea0267",
					"sumA()": "609e7a6f"
				}
			},
			"storageLayout": {
				"storage": [
					{
						"astId": 251,
						"contract": "Solidity100/sol100(1~10).sol:Q7",
						"label": "numbers",
						"offset": 0,
						"slot": "0",
						"type": "t_array(t_uint256)dyn_storage"
					}
				],
				"types": {
					"t_array(t_uint256)dyn_storage": {
						"base": "t_uint256",
						"encoding": "dynamic_array",
						"label": "uint256[]",
						"numberOfBytes": "32"
					},
					"t_uint256": {
						"encoding": "inplace",
						"label": "uint256",
						"numberOfBytes": "32"
					}
				}
			},
			"userdoc": {
				"kind": "user",
				"methods": {},
				"version": 1
			}
		}
	}
}