{
	"Solidity100/sol100(51~60).sol": {
		"Q54": {
			"abi": [
				{
					"inputs": [],
					"name": "donate",
					"outputs": [],
					"stateMutability": "payable",
					"type": "function"
				},
				{
					"inputs": [],
					"name": "top",
					"outputs": [
						{
							"components": [
								{
									"internalType": "address",
									"name": "_addr",
									"type": "address"
								},
								{
									"internalType": "uint256",
									"name": "_balance",
									"type": "uint256"
								}
							],
							"internalType": "struct Q54.donator[]",
							"name": "",
							"type": "tuple[]"
						}
					],
					"stateMutability": "view",
					"type": "function"
				}
			],
			"devdoc": {
				"kind": "dev",
				"methods": {},
				"version": 1
			},
			"evm": {
				"assembly": "    /* \"Solidity100/sol100(51~60).sol\":1555:2229  contract Q54 {... */\n  mstore(0x40, 0x80)\n  callvalue\n  dup1\n  iszero\n  tag_1\n  jumpi\n  0x00\n  dup1\n  revert\ntag_1:\n  pop\n  dataSize(sub_0)\n  dup1\n  dataOffset(sub_0)\n  0x00\n  codecopy\n  0x00\n  return\nstop\n\nsub_0: assembly {\n        /* \"Solidity100/sol100(51~60).sol\":1555:2229  contract Q54 {... */\n      mstore(0x40, 0x80)\n      jumpi(tag_1, lt(calldatasize, 0x04))\n      shr(0xe0, calldataload(0x00))\n      dup1\n      0xed88c68e\n      eq\n      tag_2\n      jumpi\n      dup1\n      0xfe6dcdba\n      eq\n      tag_3\n      jumpi\n    tag_1:\n      0x00\n      dup1\n      revert\n        /* \"Solidity100/sol100(51~60).sol\":1929:2026  function donate() public payable {... */\n    tag_2:\n      tag_4\n      tag_5\n      jump\t// in\n    tag_4:\n      stop\n        /* \"Solidity100/sol100(51~60).sol\":2034:2222  function top() public view returns(donator[] memory) {... */\n    tag_3:\n      callvalue\n      dup1\n      iszero\n      tag_6\n      jumpi\n      0x00\n      dup1\n      revert\n    tag_6:\n      pop\n      tag_7\n      tag_8\n      jump\t// in\n    tag_7:\n      mload(0x40)\n      tag_9\n      swap2\n      swap1\n      tag_10\n      jump\t// in\n    tag_9:\n      mload(0x40)\n      dup1\n      swap2\n      sub\n      swap1\n      return\n        /* \"Solidity100/sol100(51~60).sol\":1929:2026  function donate() public payable {... */\n    tag_5:\n        /* \"Solidity100/sol100(51~60).sol\":1973:1981  donators */\n      0x00\n        /* \"Solidity100/sol100(51~60).sol\":1987:2017  donator(msg.sender, msg.value) */\n      mload(0x40)\n      dup1\n      0x40\n      add\n      0x40\n      mstore\n      dup1\n        /* \"Solidity100/sol100(51~60).sol\":1995:2005  msg.sender */\n      caller\n        /* \"Solidity100/sol100(51~60).sol\":1987:2017  donator(msg.sender, msg.value) */\n      0xffffffffffffffffffffffffffffffffffffffff\n      and\n      dup2\n      mstore\n      0x20\n      add\n        /* \"Solidity100/sol100(51~60).sol\":2007:2016  msg.value */\n      callvalue\n        /* \"Solidity100/sol100(51~60).sol\":1987:2017  donator(msg.sender, msg.value) */\n      dup2\n      mstore\n      pop\n        /* \"Solidity100/sol100(51~60).sol\":1973:2018  donators.push(donator(msg.sender, msg.value)) */\n      swap1\n      dup1\n      0x01\n      dup2\n      sload\n      add\n      dup1\n      dup3\n      sstore\n      dup1\n      swap2\n      pop\n      pop\n      0x01\n      swap1\n      sub\n      swap1\n      0x00\n      mstore\n      keccak256(0x00, 0x20)\n      swap1\n      0x02\n      mul\n      add\n      0x00\n      swap1\n      swap2\n      swap1\n      swap2\n      swap1\n      swap2\n      pop\n      0x00\n      dup3\n      add\n      mload\n      dup2\n      0x00\n      add\n      exp(0x0100, 0x00)\n      dup2\n      sload\n      dup2\n      0xffffffffffffffffffffffffffffffffffffffff\n      mul\n      not\n      and\n      swap1\n      dup4\n      0xffffffffffffffffffffffffffffffffffffffff\n      and\n      mul\n      or\n      swap1\n      sstore\n      pop\n      0x20\n      dup3\n      add\n      mload\n      dup2\n      0x01\n      add\n      sstore\n      pop\n      pop\n        /* \"Solidity100/sol100(51~60).sol\":1929:2026  function donate() public payable {... */\n      jump\t// out\n        /* \"Solidity100/sol100(51~60).sol\":2034:2222  function top() public view returns(donator[] memory) {... */\n    tag_8:\n        /* \"Solidity100/sol100(51~60).sol\":2069:2085  donator[] memory */\n      0x60\n        /* \"Solidity100/sol100(51~60).sol\":2206:2214  donators */\n      0x00\n        /* \"Solidity100/sol100(51~60).sol\":2199:2214  return donators */\n      dup1\n      sload\n      dup1\n      0x20\n      mul\n      0x20\n      add\n      mload(0x40)\n      swap1\n      dup2\n      add\n      0x40\n      mstore\n      dup1\n      swap3\n      swap2\n      swap1\n      dup2\n      dup2\n      mstore\n      0x20\n      add\n      0x00\n      swap1\n    tag_14:\n      dup3\n      dup3\n      lt\n      iszero\n      tag_15\n      jumpi\n      dup4\n      dup3\n      swap1\n      0x00\n      mstore\n      keccak256(0x00, 0x20)\n      swap1\n      0x02\n      mul\n      add\n      mload(0x40)\n      dup1\n      0x40\n      add\n      0x40\n      mstore\n      swap1\n      dup2\n      0x00\n      dup3\n      add\n      0x00\n      swap1\n      sload\n      swap1\n      0x0100\n      exp\n      swap1\n      div\n      0xffffffffffffffffffffffffffffffffffffffff\n      and\n      0xffffffffffffffffffffffffffffffffffffffff\n      and\n      0xffffffffffffffffffffffffffffffffffffffff\n      and\n      dup2\n      mstore\n      0x20\n      add\n      0x01\n      dup3\n      add\n      sload\n      dup2\n      mstore\n      pop\n      pop\n      dup2\n      mstore\n      0x20\n      add\n      swap1\n      0x01\n      add\n      swap1\n      jump(tag_14)\n    tag_15:\n      pop\n      pop\n      pop\n      pop\n      swap1\n      pop\n        /* \"Solidity100/sol100(51~60).sol\":2034:2222  function top() public view returns(donator[] memory) {... */\n      swap1\n      jump\t// out\n        /* \"#utility.yul\":7:145   */\n    tag_17:\n        /* \"#utility.yul\":98:104   */\n      0x00\n        /* \"#utility.yul\":132:137   */\n      dup2\n        /* \"#utility.yul\":126:138   */\n      mload\n        /* \"#utility.yul\":116:138   */\n      swap1\n      pop\n        /* \"#utility.yul\":7:145   */\n      swap2\n      swap1\n      pop\n      jump\t// out\n        /* \"#utility.yul\":151:359   */\n    tag_18:\n        /* \"#utility.yul\":274:285   */\n      0x00\n        /* \"#utility.yul\":308:314   */\n      dup3\n        /* \"#utility.yul\":303:306   */\n      dup3\n        /* \"#utility.yul\":296:315   */\n      mstore\n        /* \"#utility.yul\":348:352   */\n      0x20\n        /* \"#utility.yul\":343:346   */\n      dup3\n        /* \"#utility.yul\":339:353   */\n      add\n        /* \"#utility.yul\":324:353   */\n      swap1\n      pop\n        /* \"#utility.yul\":151:359   */\n      swap3\n      swap2\n      pop\n      pop\n      jump\t// out\n        /* \"#utility.yul\":365:521   */\n    tag_19:\n        /* \"#utility.yul\":456:460   */\n      0x00\n        /* \"#utility.yul\":479:482   */\n      dup2\n        /* \"#utility.yul\":471:482   */\n      swap1\n      pop\n        /* \"#utility.yul\":509:513   */\n      0x20\n        /* \"#utility.yul\":504:507   */\n      dup3\n        /* \"#utility.yul\":500:514   */\n      add\n        /* \"#utility.yul\":492:514   */\n      swap1\n      pop\n        /* \"#utility.yul\":365:521   */\n      swap2\n      swap1\n      pop\n      jump\t// out\n        /* \"#utility.yul\":527:653   */\n    tag_20:\n        /* \"#utility.yul\":564:571   */\n      0x00\n        /* \"#utility.yul\":604:646   */\n      0xffffffffffffffffffffffffffffffffffffffff\n        /* \"#utility.yul\":597:602   */\n      dup3\n        /* \"#utility.yul\":593:647   */\n      and\n        /* \"#utility.yul\":582:647   */\n      swap1\n      pop\n        /* \"#utility.yul\":527:653   */\n      swap2\n      swap1\n      pop\n      jump\t// out\n        /* \"#utility.yul\":659:755   */\n    tag_21:\n        /* \"#utility.yul\":696:703   */\n      0x00\n        /* \"#utility.yul\":725:749   */\n      tag_35\n        /* \"#utility.yul\":743:748   */\n      dup3\n        /* \"#utility.yul\":725:749   */\n      tag_20\n      jump\t// in\n    tag_35:\n        /* \"#utility.yul\":714:749   */\n      swap1\n      pop\n        /* \"#utility.yul\":659:755   */\n      swap2\n      swap1\n      pop\n      jump\t// out\n        /* \"#utility.yul\":761:869   */\n    tag_22:\n        /* \"#utility.yul\":838:862   */\n      tag_37\n        /* \"#utility.yul\":856:861   */\n      dup2\n        /* \"#utility.yul\":838:862   */\n      tag_21\n      jump\t// in\n    tag_37:\n        /* \"#utility.yul\":833:836   */\n      dup3\n        /* \"#utility.yul\":826:863   */\n      mstore\n        /* \"#utility.yul\":761:869   */\n      pop\n      pop\n      jump\t// out\n        /* \"#utility.yul\":875:952   */\n    tag_23:\n        /* \"#utility.yul\":912:919   */\n      0x00\n        /* \"#utility.yul\":941:946   */\n      dup2\n        /* \"#utility.yul\":930:946   */\n      swap1\n      pop\n        /* \"#utility.yul\":875:952   */\n      swap2\n      swap1\n      pop\n      jump\t// out\n        /* \"#utility.yul\":958:1066   */\n    tag_24:\n        /* \"#utility.yul\":1035:1059   */\n      tag_40\n        /* \"#utility.yul\":1053:1058   */\n      dup2\n        /* \"#utility.yul\":1035:1059   */\n      tag_23\n      jump\t// in\n    tag_40:\n        /* \"#utility.yul\":1030:1033   */\n      dup3\n        /* \"#utility.yul\":1023:1060   */\n      mstore\n        /* \"#utility.yul\":958:1066   */\n      pop\n      pop\n      jump\t// out\n        /* \"#utility.yul\":1120:1620   */\n    tag_25:\n        /* \"#utility.yul\":1255:1259   */\n      0x40\n        /* \"#utility.yul\":1250:1253   */\n      dup3\n        /* \"#utility.yul\":1246:1260   */\n      add\n        /* \"#utility.yul\":1343:1347   */\n      0x00\n        /* \"#utility.yul\":1336:1341   */\n      dup3\n        /* \"#utility.yul\":1332:1348   */\n      add\n        /* \"#utility.yul\":1326:1349   */\n      mload\n        /* \"#utility.yul\":1362:1425   */\n      tag_42\n        /* \"#utility.yul\":1419:1423   */\n      0x00\n        /* \"#utility.yul\":1414:1417   */\n      dup6\n        /* \"#utility.yul\":1410:1424   */\n      add\n        /* \"#utility.yul\":1396:1408   */\n      dup3\n        /* \"#utility.yul\":1362:1425   */\n      tag_22\n      jump\t// in\n    tag_42:\n        /* \"#utility.yul\":1270:1435   */\n      pop\n        /* \"#utility.yul\":1521:1525   */\n      0x20\n        /* \"#utility.yul\":1514:1519   */\n      dup3\n        /* \"#utility.yul\":1510:1526   */\n      add\n        /* \"#utility.yul\":1504:1527   */\n      mload\n        /* \"#utility.yul\":1540:1603   */\n      tag_43\n        /* \"#utility.yul\":1597:1601   */\n      0x20\n        /* \"#utility.yul\":1592:1595   */\n      dup6\n        /* \"#utility.yul\":1588:1602   */\n      add\n        /* \"#utility.yul\":1574:1586   */\n      dup3\n        /* \"#utility.yul\":1540:1603   */\n      tag_24\n      jump\t// in\n    tag_43:\n        /* \"#utility.yul\":1445:1613   */\n      pop\n        /* \"#utility.yul\":1224:1620   */\n      pop\n        /* \"#utility.yul\":1120:1620   */\n      pop\n      pop\n      jump\t// out\n        /* \"#utility.yul\":1626:1901   */\n    tag_26:\n        /* \"#utility.yul\":1743:1753   */\n      0x00\n        /* \"#utility.yul\":1764:1858   */\n      tag_45\n        /* \"#utility.yul\":1854:1857   */\n      dup4\n        /* \"#utility.yul\":1846:1852   */\n      dup4\n        /* \"#utility.yul\":1764:1858   */\n      tag_25\n      jump\t// in\n    tag_45:\n        /* \"#utility.yul\":1890:1894   */\n      0x40\n        /* \"#utility.yul\":1885:1888   */\n      dup4\n        /* \"#utility.yul\":1881:1895   */\n      add\n        /* \"#utility.yul\":1867:1895   */\n      swap1\n      pop\n        /* \"#utility.yul\":1626:1901   */\n      swap3\n      swap2\n      pop\n      pop\n      jump\t// out\n        /* \"#utility.yul\":1907:2044   */\n    tag_27:\n        /* \"#utility.yul\":2001:2005   */\n      0x00\n        /* \"#utility.yul\":2033:2037   */\n      0x20\n        /* \"#utility.yul\":2028:2031   */\n      dup3\n        /* \"#utility.yul\":2024:2038   */\n      add\n        /* \"#utility.yul\":2016:2038   */\n      swap1\n      pop\n        /* \"#utility.yul\":1907:2044   */\n      swap2\n      swap1\n      pop\n      jump\t// out\n        /* \"#utility.yul\":2102:3026   */\n    tag_28:\n        /* \"#utility.yul\":2269:2272   */\n      0x00\n        /* \"#utility.yul\":2298:2376   */\n      tag_48\n        /* \"#utility.yul\":2370:2375   */\n      dup3\n        /* \"#utility.yul\":2298:2376   */\n      tag_17\n      jump\t// in\n    tag_48:\n        /* \"#utility.yul\":2392:2502   */\n      tag_49\n        /* \"#utility.yul\":2495:2501   */\n      dup2\n        /* \"#utility.yul\":2490:2493   */\n      dup6\n        /* \"#utility.yul\":2392:2502   */\n      tag_18\n      jump\t// in\n    tag_49:\n        /* \"#utility.yul\":2385:2502   */\n      swap4\n      pop\n        /* \"#utility.yul\":2526:2606   */\n      tag_50\n        /* \"#utility.yul\":2600:2605   */\n      dup4\n        /* \"#utility.yul\":2526:2606   */\n      tag_19\n      jump\t// in\n    tag_50:\n        /* \"#utility.yul\":2629:2636   */\n      dup1\n        /* \"#utility.yul\":2660:2661   */\n      0x00\n        /* \"#utility.yul\":2645:3001   */\n    tag_51:\n        /* \"#utility.yul\":2670:2676   */\n      dup4\n        /* \"#utility.yul\":2667:2668   */\n      dup2\n        /* \"#utility.yul\":2664:2677   */\n      lt\n        /* \"#utility.yul\":2645:3001   */\n      iszero\n      tag_53\n      jumpi\n        /* \"#utility.yul\":2746:2752   */\n      dup2\n        /* \"#utility.yul\":2740:2753   */\n      mload\n        /* \"#utility.yul\":2773:2884   */\n      tag_54\n        /* \"#utility.yul\":2880:2883   */\n      dup9\n        /* \"#utility.yul\":2865:2878   */\n      dup3\n        /* \"#utility.yul\":2773:2884   */\n      tag_26\n      jump\t// in\n    tag_54:\n        /* \"#utility.yul\":2766:2884   */\n      swap8\n      pop\n        /* \"#utility.yul\":2907:2991   */\n      tag_55\n        /* \"#utility.yul\":2984:2990   */\n      dup4\n        /* \"#utility.yul\":2907:2991   */\n      tag_27\n      jump\t// in\n    tag_55:\n        /* \"#utility.yul\":2897:2991   */\n      swap3\n      pop\n        /* \"#utility.yul\":2705:3001   */\n      pop\n        /* \"#utility.yul\":2692:2693   */\n      0x01\n        /* \"#utility.yul\":2689:2690   */\n      dup2\n        /* \"#utility.yul\":2685:2694   */\n      add\n        /* \"#utility.yul\":2680:2694   */\n      swap1\n      pop\n        /* \"#utility.yul\":2645:3001   */\n      jump(tag_51)\n    tag_53:\n        /* \"#utility.yul\":2649:2663   */\n      pop\n        /* \"#utility.yul\":3017:3020   */\n      dup6\n        /* \"#utility.yul\":3010:3020   */\n      swap4\n      pop\n        /* \"#utility.yul\":2274:3026   */\n      pop\n      pop\n      pop\n        /* \"#utility.yul\":2102:3026   */\n      swap3\n      swap2\n      pop\n      pop\n      jump\t// out\n        /* \"#utility.yul\":3032:3501   */\n    tag_10:\n        /* \"#utility.yul\":3223:3227   */\n      0x00\n        /* \"#utility.yul\":3261:3263   */\n      0x20\n        /* \"#utility.yul\":3250:3259   */\n      dup3\n        /* \"#utility.yul\":3246:3264   */\n      add\n        /* \"#utility.yul\":3238:3264   */\n      swap1\n      pop\n        /* \"#utility.yul\":3310:3319   */\n      dup2\n        /* \"#utility.yul\":3304:3308   */\n      dup2\n        /* \"#utility.yul\":3300:3320   */\n      sub\n        /* \"#utility.yul\":3296:3297   */\n      0x00\n        /* \"#utility.yul\":3285:3294   */\n      dup4\n        /* \"#utility.yul\":3281:3298   */\n      add\n        /* \"#utility.yul\":3274:3321   */\n      mstore\n        /* \"#utility.yul\":3338:3494   */\n      tag_57\n        /* \"#utility.yul\":3489:3493   */\n      dup2\n        /* \"#utility.yul\":3480:3486   */\n      dup5\n        /* \"#utility.yul\":3338:3494   */\n      tag_28\n      jump\t// in\n    tag_57:\n        /* \"#utility.yul\":3330:3494   */\n      swap1\n      pop\n        /* \"#utility.yul\":3032:3501   */\n      swap3\n      swap2\n      pop\n      pop\n      jump\t// out\n\n    auxdata: 0xa2646970667358221220398c4271e0151995c88f02e6ecd415d1b014e942e5ef47eb234a8ada293a632864736f6c634300081a0033\n}\n",
				"bytecode": {
					"linkReferences": {},
					"object": "6080604052348015600e575f80fd5b5061033f8061001c5f395ff3fe608060405260043610610028575f3560e01c8063ed88c68e1461002c578063fe6dcdba14610036575b5f80fd5b610034610060565b005b348015610041575f80fd5b5061004a610104565b60405161005791906102e9565b60405180910390f35b5f60405180604001604052803373ffffffffffffffffffffffffffffffffffffffff16815260200134815250908060018154018082558091505060019003905f5260205f2090600202015f909190919091505f820151815f015f6101000a81548173ffffffffffffffffffffffffffffffffffffffff021916908373ffffffffffffffffffffffffffffffffffffffff160217905550602082015181600101555050565b60605f805480602002602001604051908101604052809291908181526020015f905b828210156101b4578382905f5260205f2090600202016040518060400160405290815f82015f9054906101000a900473ffffffffffffffffffffffffffffffffffffffff1673ffffffffffffffffffffffffffffffffffffffff1673ffffffffffffffffffffffffffffffffffffffff16815260200160018201548152505081526020019060010190610126565b50505050905090565b5f81519050919050565b5f82825260208201905092915050565b5f819050602082019050919050565b5f73ffffffffffffffffffffffffffffffffffffffff82169050919050565b5f61020f826101e6565b9050919050565b61021f81610205565b82525050565b5f819050919050565b61023781610225565b82525050565b604082015f8201516102515f850182610216565b506020820151610264602085018261022e565b50505050565b5f610275838361023d565b60408301905092915050565b5f602082019050919050565b5f610297826101bd565b6102a181856101c7565b93506102ac836101d7565b805f5b838110156102dc5781516102c3888261026a565b97506102ce83610281565b9250506001810190506102af565b5085935050505092915050565b5f6020820190508181035f830152610301818461028d565b90509291505056fea2646970667358221220398c4271e0151995c88f02e6ecd415d1b014e942e5ef47eb234a8ada293a632864736f6c634300081a0033",
					"opcodes": "PUSH1 0x80 PUSH1 0x40 MSTORE CALLVALUE DUP1 ISZERO PUSH1 0xE JUMPI PUSH0 DUP1 REVERT JUMPDEST POP PUSH2 0x33F DUP1 PUSH2 0x1C PUSH0 CODECOPY PUSH0 RETURN INVALID PUSH1 0x80 PUSH1 0x40 MSTORE PUSH1 0x4 CALLDATASIZE LT PUSH2 0x28 JUMPI PUSH0 CALLDATALOAD PUSH1 0xE0 SHR DUP1 PUSH4 0xED88C68E EQ PUSH2 0x2C JUMPI DUP1 PUSH4 0xFE6DCDBA EQ PUSH2 0x36 JUMPI JUMPDEST PUSH0 DUP1 REVERT JUMPDEST PUSH2 0x34 PUSH2 0x60 JUMP JUMPDEST STOP JUMPDEST CALLVALUE DUP1 ISZERO PUSH2 0x41 JUMPI PUSH0 DUP1 REVERT JUMPDEST POP PUSH2 0x4A PUSH2 0x104 JUMP JUMPDEST PUSH1 0x40 MLOAD PUSH2 0x57 SWAP2 SWAP1 PUSH2 0x2E9 JUMP JUMPDEST PUSH1 0x40 MLOAD DUP1 SWAP2 SUB SWAP1 RETURN JUMPDEST PUSH0 PUSH1 0x40 MLOAD DUP1 PUSH1 0x40 ADD PUSH1 0x40 MSTORE DUP1 CALLER PUSH20 0xFFFFFFFFFFFFFFFFFFFFFFFFFFFFFFFFFFFFFFFF AND DUP2 MSTORE PUSH1 0x20 ADD CALLVALUE DUP2 MSTORE POP SWAP1 DUP1 PUSH1 0x1 DUP2 SLOAD ADD DUP1 DUP3 SSTORE DUP1 SWAP2 POP POP PUSH1 0x1 SWAP1 SUB SWAP1 PUSH0 MSTORE PUSH1 0x20 PUSH0 KECCAK256 SWAP1 PUSH1 0x2 MUL ADD PUSH0 SWAP1 SWAP2 SWAP1 SWAP2 SWAP1 SWAP2 POP PUSH0 DUP3 ADD MLOAD DUP2 PUSH0 ADD PUSH0 PUSH2 0x100 EXP DUP2 SLOAD DUP2 PUSH20 0xFFFFFFFFFFFFFFFFFFFFFFFFFFFFFFFFFFFFFFFF MUL NOT AND SWAP1 DUP4 PUSH20 0xFFFFFFFFFFFFFFFFFFFFFFFFFFFFFFFFFFFFFFFF AND MUL OR SWAP1 SSTORE POP PUSH1 0x20 DUP3 ADD MLOAD DUP2 PUSH1 0x1 ADD SSTORE POP POP JUMP JUMPDEST PUSH1 0x60 PUSH0 DUP1 SLOAD DUP1 PUSH1 0x20 MUL PUSH1 0x20 ADD PUSH1 0x40 MLOAD SWAP1 DUP2 ADD PUSH1 0x40 MSTORE DUP1 SWAP3 SWAP2 SWAP1 DUP2 DUP2 MSTORE PUSH1 0x20 ADD PUSH0 SWAP1 JUMPDEST DUP3 DUP3 LT ISZERO PUSH2 0x1B4 JUMPI DUP4 DUP3 SWAP1 PUSH0 MSTORE PUSH1 0x20 PUSH0 KECCAK256 SWAP1 PUSH1 0x2 MUL ADD PUSH1 0x40 MLOAD DUP1 PUSH1 0x40 ADD PUSH1 0x40 MSTORE SWAP1 DUP2 PUSH0 DUP3 ADD PUSH0 SWAP1 SLOAD SWAP1 PUSH2 0x100 EXP SWAP1 DIV PUSH20 0xFFFFFFFFFFFFFFFFFFFFFFFFFFFFFFFFFFFFFFFF AND PUSH20 0xFFFFFFFFFFFFFFFFFFFFFFFFFFFFFFFFFFFFFFFF AND PUSH20 0xFFFFFFFFFFFFFFFFFFFFFFFFFFFFFFFFFFFFFFFF AND DUP2 MSTORE PUSH1 0x20 ADD PUSH1 0x1 DUP3 ADD SLOAD DUP2 MSTORE POP POP DUP2 MSTORE PUSH1 0x20 ADD SWAP1 PUSH1 0x1 ADD SWAP1 PUSH2 0x126 JUMP JUMPDEST POP POP POP POP SWAP1 POP SWAP1 JUMP JUMPDEST PUSH0 DUP2 MLOAD SWAP1 POP SWAP2 SWAP1 POP JUMP JUMPDEST PUSH0 DUP3 DUP3 MSTORE PUSH1 0x20 DUP3 ADD SWAP1 POP SWAP3 SWAP2 POP POP JUMP JUMPDEST PUSH0 DUP2 SWAP1 POP PUSH1 0x20 DUP3 ADD SWAP1 POP SWAP2 SWAP1 POP JUMP JUMPDEST PUSH0 PUSH20 0xFFFFFFFFFFFFFFFFFFFFFFFFFFFFFFFFFFFFFFFF DUP3 AND SWAP1 POP SWAP2 SWAP1 POP JUMP JUMPDEST PUSH0 PUSH2 0x20F DUP3 PUSH2 0x1E6 JUMP JUMPDEST SWAP1 POP SWAP2 SWAP1 POP JUMP JUMPDEST PUSH2 0x21F DUP2 PUSH2 0x205 JUMP JUMPDEST DUP3 MSTORE POP POP JUMP JUMPDEST PUSH0 DUP2 SWAP1 POP SWAP2 SWAP1 POP JUMP JUMPDEST PUSH2 0x237 DUP2 PUSH2 0x225 JUMP JUMPDEST DUP3 MSTORE POP POP JUMP JUMPDEST PUSH1 0x40 DUP3 ADD PUSH0 DUP3 ADD MLOAD PUSH2 0x251 PUSH0 DUP6 ADD DUP3 PUSH2 0x216 JUMP JUMPDEST POP PUSH1 0x20 DUP3 ADD MLOAD PUSH2 0x264 PUSH1 0x20 DUP6 ADD DUP3 PUSH2 0x22E JUMP JUMPDEST POP POP POP POP JUMP JUMPDEST PUSH0 PUSH2 0x275 DUP4 DUP4 PUSH2 0x23D JUMP JUMPDEST PUSH1 0x40 DUP4 ADD SWAP1 POP SWAP3 SWAP2 POP POP JUMP JUMPDEST PUSH0 PUSH1 0x20 DUP3 ADD SWAP1 POP SWAP2 SWAP1 POP JUMP JUMPDEST PUSH0 PUSH2 0x297 DUP3 PUSH2 0x1BD JUMP JUMPDEST PUSH2 0x2A1 DUP2 DUP6 PUSH2 0x1C7 JUMP JUMPDEST SWAP4 POP PUSH2 0x2AC DUP4 PUSH2 0x1D7 JUMP JUMPDEST DUP1 PUSH0 JUMPDEST DUP4 DUP2 LT ISZERO PUSH2 0x2DC JUMPI DUP2 MLOAD PUSH2 0x2C3 DUP9 DUP3 PUSH2 0x26A JUMP JUMPDEST SWAP8 POP PUSH2 0x2CE DUP4 PUSH2 0x281 JUMP JUMPDEST SWAP3 POP POP PUSH1 0x1 DUP2 ADD SWAP1 POP PUSH2 0x2AF JUMP JUMPDEST POP DUP6 SWAP4 POP POP POP POP SWAP3 SWAP2 POP POP JUMP JUMPDEST PUSH0 PUSH1 0x20 DUP3 ADD SWAP1 POP DUP2 DUP2 SUB PUSH0 DUP4 ADD MSTORE PUSH2 0x301 DUP2 DUP5 PUSH2 0x28D JUMP JUMPDEST SWAP1 POP SWAP3 SWAP2 POP POP JUMP INVALID LOG2 PUSH5 0x6970667358 0x22 SLT KECCAK256 CODECOPY DUP13 TIMESTAMP PUSH18 0xE0151995C88F02E6ECD415D1B014E942E5EF SELFBALANCE 0xEB 0x23 BLOBBASEFEE DUP11 0xDA 0x29 GASPRICE PUSH4 0x2864736F PUSH13 0x634300081A0033000000000000 "
				},
				"gasEstimates": {
					"creation": {
						"codeDepositCost": "166200",
						"executionCost": "206",
						"totalCost": "166406"
					},
					"external": {
						"donate()": "70891",
						"top()": "infinite"
					}
				},
				"methodIdentifiers": {
					"donate()": "ed88c68e",
					"top()": "fe6dcdba"
				}
			},
			"storageLayout": {
				"storage": [
					{
						"astId": 131,
						"contract": "Solidity100/sol100(51~60).sol:Q54",
						"label": "donators",
						"offset": 0,
						"slot": "0",
						"type": "t_array(t_struct(donator)127_storage)dyn_storage"
					}
				],
				"types": {
					"t_address": {
						"encoding": "inplace",
						"label": "address",
						"numberOfBytes": "20"
					},
					"t_array(t_struct(donator)127_storage)dyn_storage": {
						"base": "t_struct(donator)127_storage",
						"encoding": "dynamic_array",
						"label": "struct Q54.donator[]",
						"numberOfBytes": "32"
					},
					"t_struct(donator)127_storage": {
						"encoding": "inplace",
						"label": "struct Q54.donator",
						"members": [
							{
								"astId": 124,
								"contract": "Solidity100/sol100(51~60).sol:Q54",
								"label": "_addr",
								"offset": 0,
								"slot": "0",
								"type": "t_address"
							},
							{
								"astId": 126,
								"contract": "Solidity100/sol100(51~60).sol:Q54",
								"label": "_balance",
								"offset": 0,
								"slot": "1",
								"type": "t_uint256"
							}
						],
						"numberOfBytes": "64"
					},
					"t_uint256": {
						"encoding": "inplace",
						"label": "uint256",
						"numberOfBytes": "32"
					}
				}
			},
			"userdoc": {
				"kind": "user",
				"methods": {},
				"version": 1
			}
		}
	}
}