{
	"Solidity100/sol100(51~60).sol": {
		"Q52": {
			"abi": [
				{
					"inputs": [
						{
							"internalType": "string",
							"name": "_name",
							"type": "string"
						},
						{
							"internalType": "uint256",
							"name": "_birth",
							"type": "uint256"
						},
						{
							"internalType": "address",
							"name": "_addr",
							"type": "address"
						}
					],
					"name": "a",
					"outputs": [
						{
							"internalType": "bytes32",
							"name": "",
							"type": "bytes32"
						}
					],
					"stateMutability": "pure",
					"type": "function"
				},
				{
					"inputs": [
						{
							"internalType": "string",
							"name": "_name",
							"type": "string"
						},
						{
							"internalType": "uint256",
							"name": "_birth",
							"type": "uint256"
						},
						{
							"internalType": "address",
							"name": "_addr",
							"type": "address"
						}
					],
					"name": "makeID",
					"outputs": [
						{
							"internalType": "bytes10",
							"name": "",
							"type": "bytes10"
						}
					],
					"stateMutability": "pure",
					"type": "function"
				}
			],
			"devdoc": {
				"kind": "dev",
				"methods": {},
				"version": 1
			},
			"evm": {
				"assembly": "    /* \"Solidity100/sol100(51~60).sol\":596:1184  contract Q52 {... */\n  mstore(0x40, 0x80)\n  callvalue\n  dup1\n  iszero\n  tag_1\n  jumpi\n  0x00\n  dup1\n  revert\ntag_1:\n  pop\n  dataSize(sub_0)\n  dup1\n  dataOffset(sub_0)\n  0x00\n  codecopy\n  0x00\n  return\nstop\n\nsub_0: assembly {\n        /* \"Solidity100/sol100(51~60).sol\":596:1184  contract Q52 {... */\n      mstore(0x40, 0x80)\n      callvalue\n      dup1\n      iszero\n      tag_1\n      jumpi\n      0x00\n      dup1\n      revert\n    tag_1:\n      pop\n      jumpi(tag_2, lt(calldatasize, 0x04))\n      shr(0xe0, calldataload(0x00))\n      dup1\n      0x53e0cf1c\n      eq\n      tag_3\n      jumpi\n      dup1\n      0x5e6aee76\n      eq\n      tag_4\n      jumpi\n    tag_2:\n      0x00\n      dup1\n      revert\n        /* \"Solidity100/sol100(51~60).sol\":821:981  function a(string memory _name, uint _birth, address _addr) public pure returns(bytes32){... */\n    tag_3:\n      tag_5\n      0x04\n      dup1\n      calldatasize\n      sub\n      dup2\n      add\n      swap1\n      tag_6\n      swap2\n      swap1\n      tag_7\n      jump\t// in\n    tag_6:\n      tag_8\n      jump\t// in\n    tag_5:\n      mload(0x40)\n      tag_9\n      swap2\n      swap1\n      tag_10\n      jump\t// in\n    tag_9:\n      mload(0x40)\n      dup1\n      swap2\n      sub\n      swap1\n      return\n        /* \"Solidity100/sol100(51~60).sol\":993:1167  function makeID(string memory _name, uint _birth, address _addr) public pure returns(bytes10){... */\n    tag_4:\n      tag_11\n      0x04\n      dup1\n      calldatasize\n      sub\n      dup2\n      add\n      swap1\n      tag_12\n      swap2\n      swap1\n      tag_7\n      jump\t// in\n    tag_12:\n      tag_13\n      jump\t// in\n    tag_11:\n      mload(0x40)\n      tag_14\n      swap2\n      swap1\n      tag_15\n      jump\t// in\n    tag_14:\n      mload(0x40)\n      dup1\n      swap2\n      sub\n      swap1\n      return\n        /* \"Solidity100/sol100(51~60).sol\":821:981  function a(string memory _name, uint _birth, address _addr) public pure returns(bytes32){... */\n    tag_8:\n        /* \"Solidity100/sol100(51~60).sol\":901:908  bytes32 */\n      0x00\n        /* \"Solidity100/sol100(51~60).sol\":953:958  _name */\n      dup4\n        /* \"Solidity100/sol100(51~60).sol\":959:965  _birth */\n      dup4\n        /* \"Solidity100/sol100(51~60).sol\":966:971  _addr */\n      dup4\n        /* \"Solidity100/sol100(51~60).sol\":936:972  abi.encodePacked(_name,_birth,_addr) */\n      add(0x20, mload(0x40))\n      tag_17\n      swap4\n      swap3\n      swap2\n      swap1\n      tag_18\n      jump\t// in\n    tag_17:\n      mload(0x40)\n      0x20\n      dup2\n      dup4\n      sub\n      sub\n      dup2\n      mstore\n      swap1\n      0x40\n      mstore\n        /* \"Solidity100/sol100(51~60).sol\":926:973  keccak256(abi.encodePacked(_name,_birth,_addr)) */\n      dup1\n      mload\n      swap1\n      0x20\n      add\n      keccak256\n        /* \"Solidity100/sol100(51~60).sol\":918:973  return  keccak256(abi.encodePacked(_name,_birth,_addr)) */\n      swap1\n      pop\n        /* \"Solidity100/sol100(51~60).sol\":821:981  function a(string memory _name, uint _birth, address _addr) public pure returns(bytes32){... */\n      swap4\n      swap3\n      pop\n      pop\n      pop\n      jump\t// out\n        /* \"Solidity100/sol100(51~60).sol\":993:1167  function makeID(string memory _name, uint _birth, address _addr) public pure returns(bytes10){... */\n    tag_13:\n        /* \"Solidity100/sol100(51~60).sol\":1078:1085  bytes10 */\n      0x00\n        /* \"Solidity100/sol100(51~60).sol\":1138:1143  _name */\n      dup4\n        /* \"Solidity100/sol100(51~60).sol\":1144:1150  _birth */\n      dup4\n        /* \"Solidity100/sol100(51~60).sol\":1151:1156  _addr */\n      dup4\n        /* \"Solidity100/sol100(51~60).sol\":1121:1157  abi.encodePacked(_name,_birth,_addr) */\n      add(0x20, mload(0x40))\n      tag_20\n      swap4\n      swap3\n      swap2\n      swap1\n      tag_18\n      jump\t// in\n    tag_20:\n      mload(0x40)\n      0x20\n      dup2\n      dup4\n      sub\n      sub\n      dup2\n      mstore\n      swap1\n      0x40\n      mstore\n        /* \"Solidity100/sol100(51~60).sol\":1111:1158  keccak256(abi.encodePacked(_name,_birth,_addr)) */\n      dup1\n      mload\n      swap1\n      0x20\n      add\n      keccak256\n        /* \"Solidity100/sol100(51~60).sol\":1095:1159  return  bytes10(keccak256(abi.encodePacked(_name,_birth,_addr))) */\n      swap1\n      pop\n        /* \"Solidity100/sol100(51~60).sol\":993:1167  function makeID(string memory _name, uint _birth, address _addr) public pure returns(bytes10){... */\n      swap4\n      swap3\n      pop\n      pop\n      pop\n      jump\t// out\n        /* \"#utility.yul\":7:82   */\n    tag_21:\n        /* \"#utility.yul\":40:46   */\n      0x00\n        /* \"#utility.yul\":73:75   */\n      0x40\n        /* \"#utility.yul\":67:76   */\n      mload\n        /* \"#utility.yul\":57:76   */\n      swap1\n      pop\n        /* \"#utility.yul\":7:82   */\n      swap1\n      jump\t// out\n        /* \"#utility.yul\":88:205   */\n    tag_22:\n        /* \"#utility.yul\":197:198   */\n      0x00\n        /* \"#utility.yul\":194:195   */\n      dup1\n        /* \"#utility.yul\":187:199   */\n      revert\n        /* \"#utility.yul\":211:328   */\n    tag_23:\n        /* \"#utility.yul\":320:321   */\n      0x00\n        /* \"#utility.yul\":317:318   */\n      dup1\n        /* \"#utility.yul\":310:322   */\n      revert\n        /* \"#utility.yul\":334:451   */\n    tag_24:\n        /* \"#utility.yul\":443:444   */\n      0x00\n        /* \"#utility.yul\":440:441   */\n      dup1\n        /* \"#utility.yul\":433:445   */\n      revert\n        /* \"#utility.yul\":457:574   */\n    tag_25:\n        /* \"#utility.yul\":566:567   */\n      0x00\n        /* \"#utility.yul\":563:564   */\n      dup1\n        /* \"#utility.yul\":556:568   */\n      revert\n        /* \"#utility.yul\":580:682   */\n    tag_26:\n        /* \"#utility.yul\":621:627   */\n      0x00\n        /* \"#utility.yul\":672:674   */\n      0x1f\n        /* \"#utility.yul\":668:675   */\n      not\n        /* \"#utility.yul\":663:665   */\n      0x1f\n        /* \"#utility.yul\":656:661   */\n      dup4\n        /* \"#utility.yul\":652:666   */\n      add\n        /* \"#utility.yul\":648:676   */\n      and\n        /* \"#utility.yul\":638:676   */\n      swap1\n      pop\n        /* \"#utility.yul\":580:682   */\n      swap2\n      swap1\n      pop\n      jump\t// out\n        /* \"#utility.yul\":688:868   */\n    tag_27:\n        /* \"#utility.yul\":736:813   */\n      0x4e487b7100000000000000000000000000000000000000000000000000000000\n        /* \"#utility.yul\":733:734   */\n      0x00\n        /* \"#utility.yul\":726:814   */\n      mstore\n        /* \"#utility.yul\":833:837   */\n      0x41\n        /* \"#utility.yul\":830:831   */\n      0x04\n        /* \"#utility.yul\":823:838   */\n      mstore\n        /* \"#utility.yul\":857:861   */\n      0x24\n        /* \"#utility.yul\":854:855   */\n      0x00\n        /* \"#utility.yul\":847:862   */\n      revert\n        /* \"#utility.yul\":874:1155   */\n    tag_28:\n        /* \"#utility.yul\":957:984   */\n      tag_64\n        /* \"#utility.yul\":979:983   */\n      dup3\n        /* \"#utility.yul\":957:984   */\n      tag_26\n      jump\t// in\n    tag_64:\n        /* \"#utility.yul\":949:955   */\n      dup2\n        /* \"#utility.yul\":945:985   */\n      add\n        /* \"#utility.yul\":1087:1093   */\n      dup2\n        /* \"#utility.yul\":1075:1085   */\n      dup2\n        /* \"#utility.yul\":1072:1094   */\n      lt\n        /* \"#utility.yul\":1051:1069   */\n      0xffffffffffffffff\n        /* \"#utility.yul\":1039:1049   */\n      dup3\n        /* \"#utility.yul\":1036:1070   */\n      gt\n        /* \"#utility.yul\":1033:1095   */\n      or\n        /* \"#utility.yul\":1030:1118   */\n      iszero\n      tag_65\n      jumpi\n        /* \"#utility.yul\":1098:1116   */\n      tag_66\n      tag_27\n      jump\t// in\n    tag_66:\n        /* \"#utility.yul\":1030:1118   */\n    tag_65:\n        /* \"#utility.yul\":1138:1148   */\n      dup1\n        /* \"#utility.yul\":1134:1136   */\n      0x40\n        /* \"#utility.yul\":1127:1149   */\n      mstore\n        /* \"#utility.yul\":917:1155   */\n      pop\n        /* \"#utility.yul\":874:1155   */\n      pop\n      pop\n      jump\t// out\n        /* \"#utility.yul\":1161:1290   */\n    tag_29:\n        /* \"#utility.yul\":1195:1201   */\n      0x00\n        /* \"#utility.yul\":1222:1242   */\n      tag_68\n      tag_21\n      jump\t// in\n    tag_68:\n        /* \"#utility.yul\":1212:1242   */\n      swap1\n      pop\n        /* \"#utility.yul\":1251:1284   */\n      tag_69\n        /* \"#utility.yul\":1279:1283   */\n      dup3\n        /* \"#utility.yul\":1271:1277   */\n      dup3\n        /* \"#utility.yul\":1251:1284   */\n      tag_28\n      jump\t// in\n    tag_69:\n        /* \"#utility.yul\":1161:1290   */\n      swap2\n      swap1\n      pop\n      jump\t// out\n        /* \"#utility.yul\":1296:1604   */\n    tag_30:\n        /* \"#utility.yul\":1358:1362   */\n      0x00\n        /* \"#utility.yul\":1448:1466   */\n      0xffffffffffffffff\n        /* \"#utility.yul\":1440:1446   */\n      dup3\n        /* \"#utility.yul\":1437:1467   */\n      gt\n        /* \"#utility.yul\":1434:1490   */\n      iszero\n      tag_71\n      jumpi\n        /* \"#utility.yul\":1470:1488   */\n      tag_72\n      tag_27\n      jump\t// in\n    tag_72:\n        /* \"#utility.yul\":1434:1490   */\n    tag_71:\n        /* \"#utility.yul\":1508:1537   */\n      tag_73\n        /* \"#utility.yul\":1530:1536   */\n      dup3\n        /* \"#utility.yul\":1508:1537   */\n      tag_26\n      jump\t// in\n    tag_73:\n        /* \"#utility.yul\":1500:1537   */\n      swap1\n      pop\n        /* \"#utility.yul\":1592:1596   */\n      0x20\n        /* \"#utility.yul\":1586:1590   */\n      dup2\n        /* \"#utility.yul\":1582:1597   */\n      add\n        /* \"#utility.yul\":1574:1597   */\n      swap1\n      pop\n        /* \"#utility.yul\":1296:1604   */\n      swap2\n      swap1\n      pop\n      jump\t// out\n        /* \"#utility.yul\":1610:1758   */\n    tag_31:\n        /* \"#utility.yul\":1708:1714   */\n      dup3\n        /* \"#utility.yul\":1703:1706   */\n      dup2\n        /* \"#utility.yul\":1698:1701   */\n      dup4\n        /* \"#utility.yul\":1685:1715   */\n      calldatacopy\n        /* \"#utility.yul\":1749:1750   */\n      0x00\n        /* \"#utility.yul\":1740:1746   */\n      dup4\n        /* \"#utility.yul\":1735:1738   */\n      dup4\n        /* \"#utility.yul\":1731:1747   */\n      add\n        /* \"#utility.yul\":1724:1751   */\n      mstore\n        /* \"#utility.yul\":1610:1758   */\n      pop\n      pop\n      pop\n      jump\t// out\n        /* \"#utility.yul\":1764:2189   */\n    tag_32:\n        /* \"#utility.yul\":1842:1847   */\n      0x00\n        /* \"#utility.yul\":1867:1933   */\n      tag_76\n        /* \"#utility.yul\":1883:1932   */\n      tag_77\n        /* \"#utility.yul\":1925:1931   */\n      dup5\n        /* \"#utility.yul\":1883:1932   */\n      tag_30\n      jump\t// in\n    tag_77:\n        /* \"#utility.yul\":1867:1933   */\n      tag_29\n      jump\t// in\n    tag_76:\n        /* \"#utility.yul\":1858:1933   */\n      swap1\n      pop\n        /* \"#utility.yul\":1956:1962   */\n      dup3\n        /* \"#utility.yul\":1949:1954   */\n      dup2\n        /* \"#utility.yul\":1942:1963   */\n      mstore\n        /* \"#utility.yul\":1994:1998   */\n      0x20\n        /* \"#utility.yul\":1987:1992   */\n      dup2\n        /* \"#utility.yul\":1983:1999   */\n      add\n        /* \"#utility.yul\":2032:2035   */\n      dup5\n        /* \"#utility.yul\":2023:2029   */\n      dup5\n        /* \"#utility.yul\":2018:2021   */\n      dup5\n        /* \"#utility.yul\":2014:2030   */\n      add\n        /* \"#utility.yul\":2011:2036   */\n      gt\n        /* \"#utility.yul\":2008:2120   */\n      iszero\n      tag_78\n      jumpi\n        /* \"#utility.yul\":2039:2118   */\n      tag_79\n      tag_25\n      jump\t// in\n    tag_79:\n        /* \"#utility.yul\":2008:2120   */\n    tag_78:\n        /* \"#utility.yul\":2129:2183   */\n      tag_80\n        /* \"#utility.yul\":2176:2182   */\n      dup5\n        /* \"#utility.yul\":2171:2174   */\n      dup3\n        /* \"#utility.yul\":2166:2169   */\n      dup6\n        /* \"#utility.yul\":2129:2183   */\n      tag_31\n      jump\t// in\n    tag_80:\n        /* \"#utility.yul\":1848:2189   */\n      pop\n        /* \"#utility.yul\":1764:2189   */\n      swap4\n      swap3\n      pop\n      pop\n      pop\n      jump\t// out\n        /* \"#utility.yul\":2209:2549   */\n    tag_33:\n        /* \"#utility.yul\":2265:2270   */\n      0x00\n        /* \"#utility.yul\":2314:2317   */\n      dup3\n        /* \"#utility.yul\":2307:2311   */\n      0x1f\n        /* \"#utility.yul\":2299:2305   */\n      dup4\n        /* \"#utility.yul\":2295:2312   */\n      add\n        /* \"#utility.yul\":2291:2318   */\n      slt\n        /* \"#utility.yul\":2281:2403   */\n      tag_82\n      jumpi\n        /* \"#utility.yul\":2322:2401   */\n      tag_83\n      tag_24\n      jump\t// in\n    tag_83:\n        /* \"#utility.yul\":2281:2403   */\n    tag_82:\n        /* \"#utility.yul\":2439:2445   */\n      dup2\n        /* \"#utility.yul\":2426:2446   */\n      calldataload\n        /* \"#utility.yul\":2464:2543   */\n      tag_84\n        /* \"#utility.yul\":2539:2542   */\n      dup5\n        /* \"#utility.yul\":2531:2537   */\n      dup3\n        /* \"#utility.yul\":2524:2528   */\n      0x20\n        /* \"#utility.yul\":2516:2522   */\n      dup7\n        /* \"#utility.yul\":2512:2529   */\n      add\n        /* \"#utility.yul\":2464:2543   */\n      tag_32\n      jump\t// in\n    tag_84:\n        /* \"#utility.yul\":2455:2543   */\n      swap2\n      pop\n        /* \"#utility.yul\":2271:2549   */\n      pop\n        /* \"#utility.yul\":2209:2549   */\n      swap3\n      swap2\n      pop\n      pop\n      jump\t// out\n        /* \"#utility.yul\":2555:2632   */\n    tag_34:\n        /* \"#utility.yul\":2592:2599   */\n      0x00\n        /* \"#utility.yul\":2621:2626   */\n      dup2\n        /* \"#utility.yul\":2610:2626   */\n      swap1\n      pop\n        /* \"#utility.yul\":2555:2632   */\n      swap2\n      swap1\n      pop\n      jump\t// out\n        /* \"#utility.yul\":2638:2760   */\n    tag_35:\n        /* \"#utility.yul\":2711:2735   */\n      tag_87\n        /* \"#utility.yul\":2729:2734   */\n      dup2\n        /* \"#utility.yul\":2711:2735   */\n      tag_34\n      jump\t// in\n    tag_87:\n        /* \"#utility.yul\":2704:2709   */\n      dup2\n        /* \"#utility.yul\":2701:2736   */\n      eq\n        /* \"#utility.yul\":2691:2754   */\n      tag_88\n      jumpi\n        /* \"#utility.yul\":2750:2751   */\n      0x00\n        /* \"#utility.yul\":2747:2748   */\n      dup1\n        /* \"#utility.yul\":2740:2752   */\n      revert\n        /* \"#utility.yul\":2691:2754   */\n    tag_88:\n        /* \"#utility.yul\":2638:2760   */\n      pop\n      jump\t// out\n        /* \"#utility.yul\":2766:2905   */\n    tag_36:\n        /* \"#utility.yul\":2812:2817   */\n      0x00\n        /* \"#utility.yul\":2850:2856   */\n      dup2\n        /* \"#utility.yul\":2837:2857   */\n      calldataload\n        /* \"#utility.yul\":2828:2857   */\n      swap1\n      pop\n        /* \"#utility.yul\":2866:2899   */\n      tag_90\n        /* \"#utility.yul\":2893:2898   */\n      dup2\n        /* \"#utility.yul\":2866:2899   */\n      tag_35\n      jump\t// in\n    tag_90:\n        /* \"#utility.yul\":2766:2905   */\n      swap3\n      swap2\n      pop\n      pop\n      jump\t// out\n        /* \"#utility.yul\":2911:3037   */\n    tag_37:\n        /* \"#utility.yul\":2948:2955   */\n      0x00\n        /* \"#utility.yul\":2988:3030   */\n      0xffffffffffffffffffffffffffffffffffffffff\n        /* \"#utility.yul\":2981:2986   */\n      dup3\n        /* \"#utility.yul\":2977:3031   */\n      and\n        /* \"#utility.yul\":2966:3031   */\n      swap1\n      pop\n        /* \"#utility.yul\":2911:3037   */\n      swap2\n      swap1\n      pop\n      jump\t// out\n        /* \"#utility.yul\":3043:3139   */\n    tag_38:\n        /* \"#utility.yul\":3080:3087   */\n      0x00\n        /* \"#utility.yul\":3109:3133   */\n      tag_93\n        /* \"#utility.yul\":3127:3132   */\n      dup3\n        /* \"#utility.yul\":3109:3133   */\n      tag_37\n      jump\t// in\n    tag_93:\n        /* \"#utility.yul\":3098:3133   */\n      swap1\n      pop\n        /* \"#utility.yul\":3043:3139   */\n      swap2\n      swap1\n      pop\n      jump\t// out\n        /* \"#utility.yul\":3145:3267   */\n    tag_39:\n        /* \"#utility.yul\":3218:3242   */\n      tag_95\n        /* \"#utility.yul\":3236:3241   */\n      dup2\n        /* \"#utility.yul\":3218:3242   */\n      tag_38\n      jump\t// in\n    tag_95:\n        /* \"#utility.yul\":3211:3216   */\n      dup2\n        /* \"#utility.yul\":3208:3243   */\n      eq\n        /* \"#utility.yul\":3198:3261   */\n      tag_96\n      jumpi\n        /* \"#utility.yul\":3257:3258   */\n      0x00\n        /* \"#utility.yul\":3254:3255   */\n      dup1\n        /* \"#utility.yul\":3247:3259   */\n      revert\n        /* \"#utility.yul\":3198:3261   */\n    tag_96:\n        /* \"#utility.yul\":3145:3267   */\n      pop\n      jump\t// out\n        /* \"#utility.yul\":3273:3412   */\n    tag_40:\n        /* \"#utility.yul\":3319:3324   */\n      0x00\n        /* \"#utility.yul\":3357:3363   */\n      dup2\n        /* \"#utility.yul\":3344:3364   */\n      calldataload\n        /* \"#utility.yul\":3335:3364   */\n      swap1\n      pop\n        /* \"#utility.yul\":3373:3406   */\n      tag_98\n        /* \"#utility.yul\":3400:3405   */\n      dup2\n        /* \"#utility.yul\":3373:3406   */\n      tag_39\n      jump\t// in\n    tag_98:\n        /* \"#utility.yul\":3273:3412   */\n      swap3\n      swap2\n      pop\n      pop\n      jump\t// out\n        /* \"#utility.yul\":3418:4217   */\n    tag_7:\n        /* \"#utility.yul\":3505:3511   */\n      0x00\n        /* \"#utility.yul\":3513:3519   */\n      dup1\n        /* \"#utility.yul\":3521:3527   */\n      0x00\n        /* \"#utility.yul\":3570:3572   */\n      0x60\n        /* \"#utility.yul\":3558:3567   */\n      dup5\n        /* \"#utility.yul\":3549:3556   */\n      dup7\n        /* \"#utility.yul\":3545:3568   */\n      sub\n        /* \"#utility.yul\":3541:3573   */\n      slt\n        /* \"#utility.yul\":3538:3657   */\n      iszero\n      tag_100\n      jumpi\n        /* \"#utility.yul\":3576:3655   */\n      tag_101\n      tag_22\n      jump\t// in\n    tag_101:\n        /* \"#utility.yul\":3538:3657   */\n    tag_100:\n        /* \"#utility.yul\":3724:3725   */\n      0x00\n        /* \"#utility.yul\":3713:3722   */\n      dup5\n        /* \"#utility.yul\":3709:3726   */\n      add\n        /* \"#utility.yul\":3696:3727   */\n      calldataload\n        /* \"#utility.yul\":3754:3772   */\n      0xffffffffffffffff\n        /* \"#utility.yul\":3746:3752   */\n      dup2\n        /* \"#utility.yul\":3743:3773   */\n      gt\n        /* \"#utility.yul\":3740:3857   */\n      iszero\n      tag_102\n      jumpi\n        /* \"#utility.yul\":3776:3855   */\n      tag_103\n      tag_23\n      jump\t// in\n    tag_103:\n        /* \"#utility.yul\":3740:3857   */\n    tag_102:\n        /* \"#utility.yul\":3881:3944   */\n      tag_104\n        /* \"#utility.yul\":3936:3943   */\n      dup7\n        /* \"#utility.yul\":3927:3933   */\n      dup3\n        /* \"#utility.yul\":3916:3925   */\n      dup8\n        /* \"#utility.yul\":3912:3934   */\n      add\n        /* \"#utility.yul\":3881:3944   */\n      tag_33\n      jump\t// in\n    tag_104:\n        /* \"#utility.yul\":3871:3944   */\n      swap4\n      pop\n        /* \"#utility.yul\":3667:3954   */\n      pop\n        /* \"#utility.yul\":3993:3995   */\n      0x20\n        /* \"#utility.yul\":4019:4072   */\n      tag_105\n        /* \"#utility.yul\":4064:4071   */\n      dup7\n        /* \"#utility.yul\":4055:4061   */\n      dup3\n        /* \"#utility.yul\":4044:4053   */\n      dup8\n        /* \"#utility.yul\":4040:4062   */\n      add\n        /* \"#utility.yul\":4019:4072   */\n      tag_36\n      jump\t// in\n    tag_105:\n        /* \"#utility.yul\":4009:4072   */\n      swap3\n      pop\n        /* \"#utility.yul\":3964:4082   */\n      pop\n        /* \"#utility.yul\":4121:4123   */\n      0x40\n        /* \"#utility.yul\":4147:4200   */\n      tag_106\n        /* \"#utility.yul\":4192:4199   */\n      dup7\n        /* \"#utility.yul\":4183:4189   */\n      dup3\n        /* \"#utility.yul\":4172:4181   */\n      dup8\n        /* \"#utility.yul\":4168:4190   */\n      add\n        /* \"#utility.yul\":4147:4200   */\n      tag_40\n      jump\t// in\n    tag_106:\n        /* \"#utility.yul\":4137:4200   */\n      swap2\n      pop\n        /* \"#utility.yul\":4092:4210   */\n      pop\n        /* \"#utility.yul\":3418:4217   */\n      swap3\n      pop\n      swap3\n      pop\n      swap3\n      jump\t// out\n        /* \"#utility.yul\":4223:4300   */\n    tag_41:\n        /* \"#utility.yul\":4260:4267   */\n      0x00\n        /* \"#utility.yul\":4289:4294   */\n      dup2\n        /* \"#utility.yul\":4278:4294   */\n      swap1\n      pop\n        /* \"#utility.yul\":4223:4300   */\n      swap2\n      swap1\n      pop\n      jump\t// out\n        /* \"#utility.yul\":4306:4424   */\n    tag_42:\n        /* \"#utility.yul\":4393:4417   */\n      tag_109\n        /* \"#utility.yul\":4411:4416   */\n      dup2\n        /* \"#utility.yul\":4393:4417   */\n      tag_41\n      jump\t// in\n    tag_109:\n        /* \"#utility.yul\":4388:4391   */\n      dup3\n        /* \"#utility.yul\":4381:4418   */\n      mstore\n        /* \"#utility.yul\":4306:4424   */\n      pop\n      pop\n      jump\t// out\n        /* \"#utility.yul\":4430:4652   */\n    tag_10:\n        /* \"#utility.yul\":4523:4527   */\n      0x00\n        /* \"#utility.yul\":4561:4563   */\n      0x20\n        /* \"#utility.yul\":4550:4559   */\n      dup3\n        /* \"#utility.yul\":4546:4564   */\n      add\n        /* \"#utility.yul\":4538:4564   */\n      swap1\n      pop\n        /* \"#utility.yul\":4574:4645   */\n      tag_111\n        /* \"#utility.yul\":4642:4643   */\n      0x00\n        /* \"#utility.yul\":4631:4640   */\n      dup4\n        /* \"#utility.yul\":4627:4644   */\n      add\n        /* \"#utility.yul\":4618:4624   */\n      dup5\n        /* \"#utility.yul\":4574:4645   */\n      tag_42\n      jump\t// in\n    tag_111:\n        /* \"#utility.yul\":4430:4652   */\n      swap3\n      swap2\n      pop\n      pop\n      jump\t// out\n        /* \"#utility.yul\":4658:4808   */\n    tag_43:\n        /* \"#utility.yul\":4695:4702   */\n      0x00\n        /* \"#utility.yul\":4735:4801   */\n      0xffffffffffffffffffff00000000000000000000000000000000000000000000\n        /* \"#utility.yul\":4728:4733   */\n      dup3\n        /* \"#utility.yul\":4724:4802   */\n      and\n        /* \"#utility.yul\":4713:4802   */\n      swap1\n      pop\n        /* \"#utility.yul\":4658:4808   */\n      swap2\n      swap1\n      pop\n      jump\t// out\n        /* \"#utility.yul\":4814:4932   */\n    tag_44:\n        /* \"#utility.yul\":4901:4925   */\n      tag_114\n        /* \"#utility.yul\":4919:4924   */\n      dup2\n        /* \"#utility.yul\":4901:4925   */\n      tag_43\n      jump\t// in\n    tag_114:\n        /* \"#utility.yul\":4896:4899   */\n      dup3\n        /* \"#utility.yul\":4889:4926   */\n      mstore\n        /* \"#utility.yul\":4814:4932   */\n      pop\n      pop\n      jump\t// out\n        /* \"#utility.yul\":4938:5160   */\n    tag_15:\n        /* \"#utility.yul\":5031:5035   */\n      0x00\n        /* \"#utility.yul\":5069:5071   */\n      0x20\n        /* \"#utility.yul\":5058:5067   */\n      dup3\n        /* \"#utility.yul\":5054:5072   */\n      add\n        /* \"#utility.yul\":5046:5072   */\n      swap1\n      pop\n        /* \"#utility.yul\":5082:5153   */\n      tag_116\n        /* \"#utility.yul\":5150:5151   */\n      0x00\n        /* \"#utility.yul\":5139:5148   */\n      dup4\n        /* \"#utility.yul\":5135:5152   */\n      add\n        /* \"#utility.yul\":5126:5132   */\n      dup5\n        /* \"#utility.yul\":5082:5153   */\n      tag_44\n      jump\t// in\n    tag_116:\n        /* \"#utility.yul\":4938:5160   */\n      swap3\n      swap2\n      pop\n      pop\n      jump\t// out\n        /* \"#utility.yul\":5166:5265   */\n    tag_45:\n        /* \"#utility.yul\":5218:5224   */\n      0x00\n        /* \"#utility.yul\":5252:5257   */\n      dup2\n        /* \"#utility.yul\":5246:5258   */\n      mload\n        /* \"#utility.yul\":5236:5258   */\n      swap1\n      pop\n        /* \"#utility.yul\":5166:5265   */\n      swap2\n      swap1\n      pop\n      jump\t// out\n        /* \"#utility.yul\":5271:5419   */\n    tag_46:\n        /* \"#utility.yul\":5373:5384   */\n      0x00\n        /* \"#utility.yul\":5410:5413   */\n      dup2\n        /* \"#utility.yul\":5395:5413   */\n      swap1\n      pop\n        /* \"#utility.yul\":5271:5419   */\n      swap3\n      swap2\n      pop\n      pop\n      jump\t// out\n        /* \"#utility.yul\":5425:5564   */\n    tag_47:\n        /* \"#utility.yul\":5514:5520   */\n      dup3\n        /* \"#utility.yul\":5509:5512   */\n      dup2\n        /* \"#utility.yul\":5504:5507   */\n      dup4\n        /* \"#utility.yul\":5498:5521   */\n      mcopy\n        /* \"#utility.yul\":5555:5556   */\n      0x00\n        /* \"#utility.yul\":5546:5552   */\n      dup4\n        /* \"#utility.yul\":5541:5544   */\n      dup4\n        /* \"#utility.yul\":5537:5553   */\n      add\n        /* \"#utility.yul\":5530:5557   */\n      mstore\n        /* \"#utility.yul\":5425:5564   */\n      pop\n      pop\n      pop\n      jump\t// out\n        /* \"#utility.yul\":5570:5960   */\n    tag_48:\n        /* \"#utility.yul\":5676:5679   */\n      0x00\n        /* \"#utility.yul\":5704:5743   */\n      tag_121\n        /* \"#utility.yul\":5737:5742   */\n      dup3\n        /* \"#utility.yul\":5704:5743   */\n      tag_45\n      jump\t// in\n    tag_121:\n        /* \"#utility.yul\":5759:5848   */\n      tag_122\n        /* \"#utility.yul\":5841:5847   */\n      dup2\n        /* \"#utility.yul\":5836:5839   */\n      dup6\n        /* \"#utility.yul\":5759:5848   */\n      tag_46\n      jump\t// in\n    tag_122:\n        /* \"#utility.yul\":5752:5848   */\n      swap4\n      pop\n        /* \"#utility.yul\":5857:5922   */\n      tag_123\n        /* \"#utility.yul\":5915:5921   */\n      dup2\n        /* \"#utility.yul\":5910:5913   */\n      dup6\n        /* \"#utility.yul\":5903:5907   */\n      0x20\n        /* \"#utility.yul\":5896:5901   */\n      dup7\n        /* \"#utility.yul\":5892:5908   */\n      add\n        /* \"#utility.yul\":5857:5922   */\n      tag_47\n      jump\t// in\n    tag_123:\n        /* \"#utility.yul\":5947:5953   */\n      dup1\n        /* \"#utility.yul\":5942:5945   */\n      dup5\n        /* \"#utility.yul\":5938:5954   */\n      add\n        /* \"#utility.yul\":5931:5954   */\n      swap2\n      pop\n        /* \"#utility.yul\":5680:5960   */\n      pop\n        /* \"#utility.yul\":5570:5960   */\n      swap3\n      swap2\n      pop\n      pop\n      jump\t// out\n        /* \"#utility.yul\":5966:6045   */\n    tag_49:\n        /* \"#utility.yul\":6005:6012   */\n      0x00\n        /* \"#utility.yul\":6034:6039   */\n      dup2\n        /* \"#utility.yul\":6023:6039   */\n      swap1\n      pop\n        /* \"#utility.yul\":5966:6045   */\n      swap2\n      swap1\n      pop\n      jump\t// out\n        /* \"#utility.yul\":6051:6208   */\n    tag_50:\n        /* \"#utility.yul\":6156:6201   */\n      tag_126\n        /* \"#utility.yul\":6176:6200   */\n      tag_127\n        /* \"#utility.yul\":6194:6199   */\n      dup3\n        /* \"#utility.yul\":6176:6200   */\n      tag_34\n      jump\t// in\n    tag_127:\n        /* \"#utility.yul\":6156:6201   */\n      tag_49\n      jump\t// in\n    tag_126:\n        /* \"#utility.yul\":6151:6154   */\n      dup3\n        /* \"#utility.yul\":6144:6202   */\n      mstore\n        /* \"#utility.yul\":6051:6208   */\n      pop\n      pop\n      jump\t// out\n        /* \"#utility.yul\":6214:6308   */\n    tag_51:\n        /* \"#utility.yul\":6247:6255   */\n      0x00\n        /* \"#utility.yul\":6295:6300   */\n      dup2\n        /* \"#utility.yul\":6291:6293   */\n      0x60\n        /* \"#utility.yul\":6287:6301   */\n      shl\n        /* \"#utility.yul\":6266:6301   */\n      swap1\n      pop\n        /* \"#utility.yul\":6214:6308   */\n      swap2\n      swap1\n      pop\n      jump\t// out\n        /* \"#utility.yul\":6314:6408   */\n    tag_52:\n        /* \"#utility.yul\":6353:6360   */\n      0x00\n        /* \"#utility.yul\":6382:6402   */\n      tag_130\n        /* \"#utility.yul\":6396:6401   */\n      dup3\n        /* \"#utility.yul\":6382:6402   */\n      tag_51\n      jump\t// in\n    tag_130:\n        /* \"#utility.yul\":6371:6402   */\n      swap1\n      pop\n        /* \"#utility.yul\":6314:6408   */\n      swap2\n      swap1\n      pop\n      jump\t// out\n        /* \"#utility.yul\":6414:6514   */\n    tag_53:\n        /* \"#utility.yul\":6453:6460   */\n      0x00\n        /* \"#utility.yul\":6482:6508   */\n      tag_132\n        /* \"#utility.yul\":6502:6507   */\n      dup3\n        /* \"#utility.yul\":6482:6508   */\n      tag_52\n      jump\t// in\n    tag_132:\n        /* \"#utility.yul\":6471:6508   */\n      swap1\n      pop\n        /* \"#utility.yul\":6414:6514   */\n      swap2\n      swap1\n      pop\n      jump\t// out\n        /* \"#utility.yul\":6520:6677   */\n    tag_54:\n        /* \"#utility.yul\":6625:6670   */\n      tag_134\n        /* \"#utility.yul\":6645:6669   */\n      tag_135\n        /* \"#utility.yul\":6663:6668   */\n      dup3\n        /* \"#utility.yul\":6645:6669   */\n      tag_38\n      jump\t// in\n    tag_135:\n        /* \"#utility.yul\":6625:6670   */\n      tag_53\n      jump\t// in\n    tag_134:\n        /* \"#utility.yul\":6620:6623   */\n      dup3\n        /* \"#utility.yul\":6613:6671   */\n      mstore\n        /* \"#utility.yul\":6520:6677   */\n      pop\n      pop\n      jump\t// out\n        /* \"#utility.yul\":6683:7240   */\n    tag_18:\n        /* \"#utility.yul\":6871:6874   */\n      0x00\n        /* \"#utility.yul\":6893:6988   */\n      tag_137\n        /* \"#utility.yul\":6984:6987   */\n      dup3\n        /* \"#utility.yul\":6975:6981   */\n      dup7\n        /* \"#utility.yul\":6893:6988   */\n      tag_48\n      jump\t// in\n    tag_137:\n        /* \"#utility.yul\":6886:6988   */\n      swap2\n      pop\n        /* \"#utility.yul\":6998:7073   */\n      tag_138\n        /* \"#utility.yul\":7069:7072   */\n      dup3\n        /* \"#utility.yul\":7060:7066   */\n      dup6\n        /* \"#utility.yul\":6998:7073   */\n      tag_50\n      jump\t// in\n    tag_138:\n        /* \"#utility.yul\":7098:7100   */\n      0x20\n        /* \"#utility.yul\":7093:7096   */\n      dup3\n        /* \"#utility.yul\":7089:7101   */\n      add\n        /* \"#utility.yul\":7082:7101   */\n      swap2\n      pop\n        /* \"#utility.yul\":7111:7186   */\n      tag_139\n        /* \"#utility.yul\":7182:7185   */\n      dup3\n        /* \"#utility.yul\":7173:7179   */\n      dup5\n        /* \"#utility.yul\":7111:7186   */\n      tag_54\n      jump\t// in\n    tag_139:\n        /* \"#utility.yul\":7211:7213   */\n      0x14\n        /* \"#utility.yul\":7206:7209   */\n      dup3\n        /* \"#utility.yul\":7202:7214   */\n      add\n        /* \"#utility.yul\":7195:7214   */\n      swap2\n      pop\n        /* \"#utility.yul\":7231:7234   */\n      dup2\n        /* \"#utility.yul\":7224:7234   */\n      swap1\n      pop\n        /* \"#utility.yul\":6683:7240   */\n      swap5\n      swap4\n      pop\n      pop\n      pop\n      pop\n      jump\t// out\n\n    auxdata: 0xa264697066735822122066e7a9729a4dcf9955175956979516232f62bbb1c6a80750cf265092110d5e5364736f6c634300081a0033\n}\n",
				"bytecode": {
					"linkReferences": {},
					"object": "6080604052348015600e575f80fd5b506104f18061001c5f395ff3fe608060405234801561000f575f80fd5b5060043610610034575f3560e01c806353e0cf1c146100385780635e6aee7614610068575b5f80fd5b610052600480360381019061004d91906102dc565b610098565b60405161005f9190610360565b60405180910390f35b610082600480360381019061007d91906102dc565b6100cd565b60405161008f91906103b3565b60405180910390f35b5f8383836040516020016100ae93929190610483565b6040516020818303038152906040528051906020012090509392505050565b5f8383836040516020016100e393929190610483565b6040516020818303038152906040528051906020012090509392505050565b5f604051905090565b5f80fd5b5f80fd5b5f80fd5b5f80fd5b5f601f19601f8301169050919050565b7f4e487b71000000000000000000000000000000000000000000000000000000005f52604160045260245ffd5b6101618261011b565b810181811067ffffffffffffffff821117156101805761017f61012b565b5b80604052505050565b5f610192610102565b905061019e8282610158565b919050565b5f67ffffffffffffffff8211156101bd576101bc61012b565b5b6101c68261011b565b9050602081019050919050565b828183375f83830152505050565b5f6101f36101ee846101a3565b610189565b90508281526020810184848401111561020f5761020e610117565b5b61021a8482856101d3565b509392505050565b5f82601f83011261023657610235610113565b5b81356102468482602086016101e1565b91505092915050565b5f819050919050565b6102618161024f565b811461026b575f80fd5b50565b5f8135905061027c81610258565b92915050565b5f73ffffffffffffffffffffffffffffffffffffffff82169050919050565b5f6102ab82610282565b9050919050565b6102bb816102a1565b81146102c5575f80fd5b50565b5f813590506102d6816102b2565b92915050565b5f805f606084860312156102f3576102f261010b565b5b5f84013567ffffffffffffffff8111156103105761030f61010f565b5b61031c86828701610222565b935050602061032d8682870161026e565b925050604061033e868287016102c8565b9150509250925092565b5f819050919050565b61035a81610348565b82525050565b5f6020820190506103735f830184610351565b92915050565b5f7fffffffffffffffffffff0000000000000000000000000000000000000000000082169050919050565b6103ad81610379565b82525050565b5f6020820190506103c65f8301846103a4565b92915050565b5f81519050919050565b5f81905092915050565b8281835e5f83830152505050565b5f6103f8826103cc565b61040281856103d6565b93506104128185602086016103e0565b80840191505092915050565b5f819050919050565b6104386104338261024f565b61041e565b82525050565b5f8160601b9050919050565b5f6104548261043e565b9050919050565b5f6104658261044a565b9050919050565b61047d610478826102a1565b61045b565b82525050565b5f61048e82866103ee565b915061049a8285610427565b6020820191506104aa828461046c565b60148201915081905094935050505056fea264697066735822122066e7a9729a4dcf9955175956979516232f62bbb1c6a80750cf265092110d5e5364736f6c634300081a0033",
					"opcodes": "PUSH1 0x80 PUSH1 0x40 MSTORE CALLVALUE DUP1 ISZERO PUSH1 0xE JUMPI PUSH0 DUP1 REVERT JUMPDEST POP PUSH2 0x4F1 DUP1 PUSH2 0x1C PUSH0 CODECOPY PUSH0 RETURN INVALID PUSH1 0x80 PUSH1 0x40 MSTORE CALLVALUE DUP1 ISZERO PUSH2 0xF JUMPI PUSH0 DUP1 REVERT JUMPDEST POP PUSH1 0x4 CALLDATASIZE LT PUSH2 0x34 JUMPI PUSH0 CALLDATALOAD PUSH1 0xE0 SHR DUP1 PUSH4 0x53E0CF1C EQ PUSH2 0x38 JUMPI DUP1 PUSH4 0x5E6AEE76 EQ PUSH2 0x68 JUMPI JUMPDEST PUSH0 DUP1 REVERT JUMPDEST PUSH2 0x52 PUSH1 0x4 DUP1 CALLDATASIZE SUB DUP2 ADD SWAP1 PUSH2 0x4D SWAP2 SWAP1 PUSH2 0x2DC JUMP JUMPDEST PUSH2 0x98 JUMP JUMPDEST PUSH1 0x40 MLOAD PUSH2 0x5F SWAP2 SWAP1 PUSH2 0x360 JUMP JUMPDEST PUSH1 0x40 MLOAD DUP1 SWAP2 SUB SWAP1 RETURN JUMPDEST PUSH2 0x82 PUSH1 0x4 DUP1 CALLDATASIZE SUB DUP2 ADD SWAP1 PUSH2 0x7D SWAP2 SWAP1 PUSH2 0x2DC JUMP JUMPDEST PUSH2 0xCD JUMP JUMPDEST PUSH1 0x40 MLOAD PUSH2 0x8F SWAP2 SWAP1 PUSH2 0x3B3 JUMP JUMPDEST PUSH1 0x40 MLOAD DUP1 SWAP2 SUB SWAP1 RETURN JUMPDEST PUSH0 DUP4 DUP4 DUP4 PUSH1 0x40 MLOAD PUSH1 0x20 ADD PUSH2 0xAE SWAP4 SWAP3 SWAP2 SWAP1 PUSH2 0x483 JUMP JUMPDEST PUSH1 0x40 MLOAD PUSH1 0x20 DUP2 DUP4 SUB SUB DUP2 MSTORE SWAP1 PUSH1 0x40 MSTORE DUP1 MLOAD SWAP1 PUSH1 0x20 ADD KECCAK256 SWAP1 POP SWAP4 SWAP3 POP POP POP JUMP JUMPDEST PUSH0 DUP4 DUP4 DUP4 PUSH1 0x40 MLOAD PUSH1 0x20 ADD PUSH2 0xE3 SWAP4 SWAP3 SWAP2 SWAP1 PUSH2 0x483 JUMP JUMPDEST PUSH1 0x40 MLOAD PUSH1 0x20 DUP2 DUP4 SUB SUB DUP2 MSTORE SWAP1 PUSH1 0x40 MSTORE DUP1 MLOAD SWAP1 PUSH1 0x20 ADD KECCAK256 SWAP1 POP SWAP4 SWAP3 POP POP POP JUMP JUMPDEST PUSH0 PUSH1 0x40 MLOAD SWAP1 POP SWAP1 JUMP JUMPDEST PUSH0 DUP1 REVERT JUMPDEST PUSH0 DUP1 REVERT JUMPDEST PUSH0 DUP1 REVERT JUMPDEST PUSH0 DUP1 REVERT JUMPDEST PUSH0 PUSH1 0x1F NOT PUSH1 0x1F DUP4 ADD AND SWAP1 POP SWAP2 SWAP1 POP JUMP JUMPDEST PUSH32 0x4E487B7100000000000000000000000000000000000000000000000000000000 PUSH0 MSTORE PUSH1 0x41 PUSH1 0x4 MSTORE PUSH1 0x24 PUSH0 REVERT JUMPDEST PUSH2 0x161 DUP3 PUSH2 0x11B JUMP JUMPDEST DUP2 ADD DUP2 DUP2 LT PUSH8 0xFFFFFFFFFFFFFFFF DUP3 GT OR ISZERO PUSH2 0x180 JUMPI PUSH2 0x17F PUSH2 0x12B JUMP JUMPDEST JUMPDEST DUP1 PUSH1 0x40 MSTORE POP POP POP JUMP JUMPDEST PUSH0 PUSH2 0x192 PUSH2 0x102 JUMP JUMPDEST SWAP1 POP PUSH2 0x19E DUP3 DUP3 PUSH2 0x158 JUMP JUMPDEST SWAP2 SWAP1 POP JUMP JUMPDEST PUSH0 PUSH8 0xFFFFFFFFFFFFFFFF DUP3 GT ISZERO PUSH2 0x1BD JUMPI PUSH2 0x1BC PUSH2 0x12B JUMP JUMPDEST JUMPDEST PUSH2 0x1C6 DUP3 PUSH2 0x11B JUMP JUMPDEST SWAP1 POP PUSH1 0x20 DUP2 ADD SWAP1 POP SWAP2 SWAP1 POP JUMP JUMPDEST DUP3 DUP2 DUP4 CALLDATACOPY PUSH0 DUP4 DUP4 ADD MSTORE POP POP POP JUMP JUMPDEST PUSH0 PUSH2 0x1F3 PUSH2 0x1EE DUP5 PUSH2 0x1A3 JUMP JUMPDEST PUSH2 0x189 JUMP JUMPDEST SWAP1 POP DUP3 DUP2 MSTORE PUSH1 0x20 DUP2 ADD DUP5 DUP5 DUP5 ADD GT ISZERO PUSH2 0x20F JUMPI PUSH2 0x20E PUSH2 0x117 JUMP JUMPDEST JUMPDEST PUSH2 0x21A DUP5 DUP3 DUP6 PUSH2 0x1D3 JUMP JUMPDEST POP SWAP4 SWAP3 POP POP POP JUMP JUMPDEST PUSH0 DUP3 PUSH1 0x1F DUP4 ADD SLT PUSH2 0x236 JUMPI PUSH2 0x235 PUSH2 0x113 JUMP JUMPDEST JUMPDEST DUP2 CALLDATALOAD PUSH2 0x246 DUP5 DUP3 PUSH1 0x20 DUP7 ADD PUSH2 0x1E1 JUMP JUMPDEST SWAP2 POP POP SWAP3 SWAP2 POP POP JUMP JUMPDEST PUSH0 DUP2 SWAP1 POP SWAP2 SWAP1 POP JUMP JUMPDEST PUSH2 0x261 DUP2 PUSH2 0x24F JUMP JUMPDEST DUP2 EQ PUSH2 0x26B JUMPI PUSH0 DUP1 REVERT JUMPDEST POP JUMP JUMPDEST PUSH0 DUP2 CALLDATALOAD SWAP1 POP PUSH2 0x27C DUP2 PUSH2 0x258 JUMP JUMPDEST SWAP3 SWAP2 POP POP JUMP JUMPDEST PUSH0 PUSH20 0xFFFFFFFFFFFFFFFFFFFFFFFFFFFFFFFFFFFFFFFF DUP3 AND SWAP1 POP SWAP2 SWAP1 POP JUMP JUMPDEST PUSH0 PUSH2 0x2AB DUP3 PUSH2 0x282 JUMP JUMPDEST SWAP1 POP SWAP2 SWAP1 POP JUMP JUMPDEST PUSH2 0x2BB DUP2 PUSH2 0x2A1 JUMP JUMPDEST DUP2 EQ PUSH2 0x2C5 JUMPI PUSH0 DUP1 REVERT JUMPDEST POP JUMP JUMPDEST PUSH0 DUP2 CALLDATALOAD SWAP1 POP PUSH2 0x2D6 DUP2 PUSH2 0x2B2 JUMP JUMPDEST SWAP3 SWAP2 POP POP JUMP JUMPDEST PUSH0 DUP1 PUSH0 PUSH1 0x60 DUP5 DUP7 SUB SLT ISZERO PUSH2 0x2F3 JUMPI PUSH2 0x2F2 PUSH2 0x10B JUMP JUMPDEST JUMPDEST PUSH0 DUP5 ADD CALLDATALOAD PUSH8 0xFFFFFFFFFFFFFFFF DUP2 GT ISZERO PUSH2 0x310 JUMPI PUSH2 0x30F PUSH2 0x10F JUMP JUMPDEST JUMPDEST PUSH2 0x31C DUP7 DUP3 DUP8 ADD PUSH2 0x222 JUMP JUMPDEST SWAP4 POP POP PUSH1 0x20 PUSH2 0x32D DUP7 DUP3 DUP8 ADD PUSH2 0x26E JUMP JUMPDEST SWAP3 POP POP PUSH1 0x40 PUSH2 0x33E DUP7 DUP3 DUP8 ADD PUSH2 0x2C8 JUMP JUMPDEST SWAP2 POP POP SWAP3 POP SWAP3 POP SWAP3 JUMP JUMPDEST PUSH0 DUP2 SWAP1 POP SWAP2 SWAP1 POP JUMP JUMPDEST PUSH2 0x35A DUP2 PUSH2 0x348 JUMP JUMPDEST DUP3 MSTORE POP POP JUMP JUMPDEST PUSH0 PUSH1 0x20 DUP3 ADD SWAP1 POP PUSH2 0x373 PUSH0 DUP4 ADD DUP5 PUSH2 0x351 JUMP JUMPDEST SWAP3 SWAP2 POP POP JUMP JUMPDEST PUSH0 PUSH32 0xFFFFFFFFFFFFFFFFFFFF00000000000000000000000000000000000000000000 DUP3 AND SWAP1 POP SWAP2 SWAP1 POP JUMP JUMPDEST PUSH2 0x3AD DUP2 PUSH2 0x379 JUMP JUMPDEST DUP3 MSTORE POP POP JUMP JUMPDEST PUSH0 PUSH1 0x20 DUP3 ADD SWAP1 POP PUSH2 0x3C6 PUSH0 DUP4 ADD DUP5 PUSH2 0x3A4 JUMP JUMPDEST SWAP3 SWAP2 POP POP JUMP JUMPDEST PUSH0 DUP2 MLOAD SWAP1 POP SWAP2 SWAP1 POP JUMP JUMPDEST PUSH0 DUP2 SWAP1 POP SWAP3 SWAP2 POP POP JUMP JUMPDEST DUP3 DUP2 DUP4 MCOPY PUSH0 DUP4 DUP4 ADD MSTORE POP POP POP JUMP JUMPDEST PUSH0 PUSH2 0x3F8 DUP3 PUSH2 0x3CC JUMP JUMPDEST PUSH2 0x402 DUP2 DUP6 PUSH2 0x3D6 JUMP JUMPDEST SWAP4 POP PUSH2 0x412 DUP2 DUP6 PUSH1 0x20 DUP7 ADD PUSH2 0x3E0 JUMP JUMPDEST DUP1 DUP5 ADD SWAP2 POP POP SWAP3 SWAP2 POP POP JUMP JUMPDEST PUSH0 DUP2 SWAP1 POP SWAP2 SWAP1 POP JUMP JUMPDEST PUSH2 0x438 PUSH2 0x433 DUP3 PUSH2 0x24F JUMP JUMPDEST PUSH2 0x41E JUMP JUMPDEST DUP3 MSTORE POP POP JUMP JUMPDEST PUSH0 DUP2 PUSH1 0x60 SHL SWAP1 POP SWAP2 SWAP1 POP JUMP JUMPDEST PUSH0 PUSH2 0x454 DUP3 PUSH2 0x43E JUMP JUMPDEST SWAP1 POP SWAP2 SWAP1 POP JUMP JUMPDEST PUSH0 PUSH2 0x465 DUP3 PUSH2 0x44A JUMP JUMPDEST SWAP1 POP SWAP2 SWAP1 POP JUMP JUMPDEST PUSH2 0x47D PUSH2 0x478 DUP3 PUSH2 0x2A1 JUMP JUMPDEST PUSH2 0x45B JUMP JUMPDEST DUP3 MSTORE POP POP JUMP JUMPDEST PUSH0 PUSH2 0x48E DUP3 DUP7 PUSH2 0x3EE JUMP JUMPDEST SWAP2 POP PUSH2 0x49A DUP3 DUP6 PUSH2 0x427 JUMP JUMPDEST PUSH1 0x20 DUP3 ADD SWAP2 POP PUSH2 0x4AA DUP3 DUP5 PUSH2 0x46C JUMP JUMPDEST PUSH1 0x14 DUP3 ADD SWAP2 POP DUP2 SWAP1 POP SWAP5 SWAP4 POP POP POP POP JUMP INVALID LOG2 PUSH5 0x6970667358 0x22 SLT KECCAK256 PUSH7 0xE7A9729A4DCF99 SSTORE OR MSIZE JUMP SWAP8 SWAP6 AND 0x23 0x2F PUSH3 0xBBB1C6 0xA8 SMOD POP 0xCF 0x26 POP SWAP3 GT 0xD MCOPY MSTORE8 PUSH5 0x736F6C6343 STOP ADDMOD BYTE STOP CALLER "
				},
				"gasEstimates": {
					"creation": {
						"codeDepositCost": "253000",
						"executionCost": "292",
						"totalCost": "253292"
					},
					"external": {
						"a(string,uint256,address)": "infinite",
						"makeID(string,uint256,address)": "infinite"
					}
				},
				"methodIdentifiers": {
					"a(string,uint256,address)": "53e0cf1c",
					"makeID(string,uint256,address)": "5e6aee76"
				}
			},
			"storageLayout": {
				"storage": [],
				"types": null
			},
			"userdoc": {
				"kind": "user",
				"methods": {},
				"version": 1
			}
		}
	}
}