{
	"Solidity100/sol100(21~30).sol": {
		"Q30": {
			"abi": [
				{
					"inputs": [],
					"name": "decending",
					"outputs": [
						{
							"internalType": "uint256[]",
							"name": "",
							"type": "uint256[]"
						}
					],
					"stateMutability": "view",
					"type": "function"
				},
				{
					"inputs": [
						{
							"internalType": "uint256",
							"name": "_a",
							"type": "uint256"
						}
					],
					"name": "pushNum",
					"outputs": [],
					"stateMutability": "nonpayable",
					"type": "function"
				}
			],
			"devdoc": {
				"kind": "dev",
				"methods": {},
				"version": 1
			},
			"evm": {
				"assembly": "    /* \"Solidity100/sol100(21~30).sol\":3917:4687  contract Q30 {... */\n  mstore(0x40, 0x80)\n    /* \"Solidity100/sol100(21~30).sol\":4202:4231  uint[] num2 = [2,6,7,4,5,1,9] */\n  mload(0x40)\n  dup1\n  0xe0\n  add\n  0x40\n  mstore\n  dup1\n    /* \"Solidity100/sol100(21~30).sol\":4217:4218  2 */\n  0x02\n    /* \"Solidity100/sol100(21~30).sol\":4202:4231  uint[] num2 = [2,6,7,4,5,1,9] */\n  0xff\n  and\n  dup2\n  mstore\n  0x20\n  add\n    /* \"Solidity100/sol100(21~30).sol\":4219:4220  6 */\n  0x06\n    /* \"Solidity100/sol100(21~30).sol\":4202:4231  uint[] num2 = [2,6,7,4,5,1,9] */\n  0xff\n  and\n  dup2\n  mstore\n  0x20\n  add\n    /* \"Solidity100/sol100(21~30).sol\":4221:4222  7 */\n  0x07\n    /* \"Solidity100/sol100(21~30).sol\":4202:4231  uint[] num2 = [2,6,7,4,5,1,9] */\n  0xff\n  and\n  dup2\n  mstore\n  0x20\n  add\n    /* \"Solidity100/sol100(21~30).sol\":4223:4224  4 */\n  0x04\n    /* \"Solidity100/sol100(21~30).sol\":4202:4231  uint[] num2 = [2,6,7,4,5,1,9] */\n  0xff\n  and\n  dup2\n  mstore\n  0x20\n  add\n    /* \"Solidity100/sol100(21~30).sol\":4225:4226  5 */\n  0x05\n    /* \"Solidity100/sol100(21~30).sol\":4202:4231  uint[] num2 = [2,6,7,4,5,1,9] */\n  0xff\n  and\n  dup2\n  mstore\n  0x20\n  add\n    /* \"Solidity100/sol100(21~30).sol\":4227:4228  1 */\n  0x01\n    /* \"Solidity100/sol100(21~30).sol\":4202:4231  uint[] num2 = [2,6,7,4,5,1,9] */\n  0xff\n  and\n  dup2\n  mstore\n  0x20\n  add\n    /* \"Solidity100/sol100(21~30).sol\":4229:4230  9 */\n  0x09\n    /* \"Solidity100/sol100(21~30).sol\":4202:4231  uint[] num2 = [2,6,7,4,5,1,9] */\n  0xff\n  and\n  dup2\n  mstore\n  pop\n  0x01\n  swap1\n  0x07\n  tag_1\n  swap3\n  swap2\n  swap1\n  tag_2\n  jump\t// in\ntag_1:\n  pop\n    /* \"Solidity100/sol100(21~30).sol\":3917:4687  contract Q30 {... */\n  callvalue\n  dup1\n  iszero\n  tag_3\n  jumpi\n  0x00\n  dup1\n  revert\ntag_3:\n  pop\n  jump(tag_4)\ntag_2:\n  dup3\n  dup1\n  sload\n  dup3\n  dup3\n  sstore\n  swap1\n  0x00\n  mstore\n  keccak256(0x00, 0x20)\n  swap1\n  dup2\n  add\n  swap3\n  dup3\n  iszero\n  tag_5\n  jumpi\n  swap2\n  0x20\n  mul\n  dup3\n  add\ntag_6:\n  dup3\n  dup2\n  gt\n  iszero\n  tag_7\n  jumpi\n  dup3\n  mload\n  dup3\n  swap1\n  0xff\n  and\n  swap1\n  sstore\n  swap2\n  0x20\n  add\n  swap2\n  swap1\n  0x01\n  add\n  swap1\n  jump(tag_6)\ntag_7:\ntag_5:\n  pop\n  swap1\n  pop\n  tag_8\n  swap2\n  swap1\n  tag_9\n  jump\t// in\ntag_8:\n  pop\n  swap1\n  jump\t// out\ntag_9:\ntag_10:\n  dup1\n  dup3\n  gt\n  iszero\n  tag_11\n  jumpi\n  0x00\n  dup2\n  0x00\n  swap1\n  sstore\n  pop\n  0x01\n  add\n  jump(tag_10)\ntag_11:\n  pop\n  swap1\n  jump\t// out\ntag_4:\n  dataSize(sub_0)\n  dup1\n  dataOffset(sub_0)\n  0x00\n  codecopy\n  0x00\n  return\nstop\n\nsub_0: assembly {\n        /* \"Solidity100/sol100(21~30).sol\":3917:4687  contract Q30 {... */\n      mstore(0x40, 0x80)\n      callvalue\n      dup1\n      iszero\n      tag_1\n      jumpi\n      0x00\n      dup1\n      revert\n    tag_1:\n      pop\n      jumpi(tag_2, lt(calldatasize, 0x04))\n      shr(0xe0, calldataload(0x00))\n      dup1\n      0x2cc2d53a\n      eq\n      tag_3\n      jumpi\n      dup1\n      0xbc07865f\n      eq\n      tag_4\n      jumpi\n    tag_2:\n      0x00\n      dup1\n      revert\n        /* \"Solidity100/sol100(21~30).sol\":4319:4684  function decending() public view returns(uint[] memory) {... */\n    tag_3:\n      tag_5\n      tag_6\n      jump\t// in\n    tag_5:\n      mload(0x40)\n      tag_7\n      swap2\n      swap1\n      tag_8\n      jump\t// in\n    tag_7:\n      mload(0x40)\n      dup1\n      swap2\n      sub\n      swap1\n      return\n        /* \"Solidity100/sol100(21~30).sol\":4240:4304  function pushNum(uint _a) public {... */\n    tag_4:\n      tag_9\n      0x04\n      dup1\n      calldatasize\n      sub\n      dup2\n      add\n      swap1\n      tag_10\n      swap2\n      swap1\n      tag_11\n      jump\t// in\n    tag_10:\n      tag_12\n      jump\t// in\n    tag_9:\n      stop\n        /* \"Solidity100/sol100(21~30).sol\":4319:4684  function decending() public view returns(uint[] memory) {... */\n    tag_6:\n        /* \"Solidity100/sol100(21~30).sol\":4360:4373  uint[] memory */\n      0x60\n        /* \"Solidity100/sol100(21~30).sol\":4386:4404  uint[] memory _num */\n      0x00\n        /* \"Solidity100/sol100(21~30).sol\":4407:4410  num */\n      dup1\n        /* \"Solidity100/sol100(21~30).sol\":4386:4410  uint[] memory _num = num */\n      dup1\n      sload\n      dup1\n      0x20\n      mul\n      0x20\n      add\n      mload(0x40)\n      swap1\n      dup2\n      add\n      0x40\n      mstore\n      dup1\n      swap3\n      swap2\n      swap1\n      dup2\n      dup2\n      mstore\n      0x20\n      add\n      dup3\n      dup1\n      sload\n      dup1\n      iszero\n      tag_14\n      jumpi\n      0x20\n      mul\n      dup3\n      add\n      swap2\n      swap1\n      0x00\n      mstore\n      keccak256(0x00, 0x20)\n      swap1\n    tag_15:\n      dup2\n      sload\n      dup2\n      mstore\n      0x20\n      add\n      swap1\n      0x01\n      add\n      swap1\n      dup1\n      dup4\n      gt\n      tag_15\n      jumpi\n    tag_14:\n      pop\n      pop\n      pop\n      pop\n      pop\n      swap1\n      pop\n        /* \"Solidity100/sol100(21~30).sol\":4425:4431  uint i */\n      0x00\n        /* \"Solidity100/sol100(21~30).sol\":4421:4653  for(uint i=0; i<num.length; i++) {... */\n    tag_16:\n        /* \"Solidity100/sol100(21~30).sol\":4437:4440  num */\n      0x00\n        /* \"Solidity100/sol100(21~30).sol\":4437:4447  num.length */\n      dup1\n      sload\n      swap1\n      pop\n        /* \"Solidity100/sol100(21~30).sol\":4435:4436  i */\n      dup2\n        /* \"Solidity100/sol100(21~30).sol\":4435:4447  i<num.length */\n      lt\n        /* \"Solidity100/sol100(21~30).sol\":4421:4653  for(uint i=0; i<num.length; i++) {... */\n      iszero\n      tag_17\n      jumpi\n        /* \"Solidity100/sol100(21~30).sol\":4473:4479  uint j */\n      0x00\n        /* \"Solidity100/sol100(21~30).sol\":4482:4483  1 */\n      0x01\n        /* \"Solidity100/sol100(21~30).sol\":4480:4481  i */\n      dup3\n        /* \"Solidity100/sol100(21~30).sol\":4480:4483  i+1 */\n      tag_22\n      swap2\n      swap1\n      tag_23\n      jump\t// in\n    tag_22:\n        /* \"Solidity100/sol100(21~30).sol\":4473:4483  uint j=i+1 */\n      swap1\n      pop\n        /* \"Solidity100/sol100(21~30).sol\":4469:4642  for(uint j=i+1; j<num.length; j++) {... */\n    tag_19:\n        /* \"Solidity100/sol100(21~30).sol\":4487:4490  num */\n      0x00\n        /* \"Solidity100/sol100(21~30).sol\":4487:4497  num.length */\n      dup1\n      sload\n      swap1\n      pop\n        /* \"Solidity100/sol100(21~30).sol\":4485:4486  j */\n      dup2\n        /* \"Solidity100/sol100(21~30).sol\":4485:4497  j<num.length */\n      lt\n        /* \"Solidity100/sol100(21~30).sol\":4469:4642  for(uint j=i+1; j<num.length; j++) {... */\n      iszero\n      tag_20\n      jumpi\n        /* \"Solidity100/sol100(21~30).sol\":4536:4540  _num */\n      dup3\n        /* \"Solidity100/sol100(21~30).sol\":4541:4542  j */\n      dup2\n        /* \"Solidity100/sol100(21~30).sol\":4536:4543  _num[j] */\n      dup2\n      mload\n      dup2\n      lt\n      tag_24\n      jumpi\n      tag_25\n      tag_26\n      jump\t// in\n    tag_25:\n    tag_24:\n      0x20\n      mul\n      0x20\n      add\n      add\n      mload\n        /* \"Solidity100/sol100(21~30).sol\":4526:4530  _num */\n      dup4\n        /* \"Solidity100/sol100(21~30).sol\":4531:4532  i */\n      dup4\n        /* \"Solidity100/sol100(21~30).sol\":4526:4533  _num[i] */\n      dup2\n      mload\n      dup2\n      lt\n      tag_27\n      jumpi\n      tag_28\n      tag_26\n      jump\t// in\n    tag_28:\n    tag_27:\n      0x20\n      mul\n      0x20\n      add\n      add\n      mload\n        /* \"Solidity100/sol100(21~30).sol\":4526:4543  _num[i] < _num[j] */\n      lt\n        /* \"Solidity100/sol100(21~30).sol\":4523:4627  if(_num[i] < _num[j]) {... */\n      iszero\n      tag_29\n      jumpi\n        /* \"Solidity100/sol100(21~30).sol\":4590:4594  _num */\n      dup3\n        /* \"Solidity100/sol100(21~30).sol\":4595:4596  j */\n      dup2\n        /* \"Solidity100/sol100(21~30).sol\":4590:4597  _num[j] */\n      dup2\n      mload\n      dup2\n      lt\n      tag_30\n      jumpi\n      tag_31\n      tag_26\n      jump\t// in\n    tag_31:\n    tag_30:\n      0x20\n      mul\n      0x20\n      add\n      add\n      mload\n        /* \"Solidity100/sol100(21~30).sol\":4599:4603  _num */\n      dup4\n        /* \"Solidity100/sol100(21~30).sol\":4604:4605  i */\n      dup4\n        /* \"Solidity100/sol100(21~30).sol\":4599:4606  _num[i] */\n      dup2\n      mload\n      dup2\n      lt\n      tag_32\n      jumpi\n      tag_33\n      tag_26\n      jump\t// in\n    tag_33:\n    tag_32:\n      0x20\n      mul\n      0x20\n      add\n      add\n      mload\n        /* \"Solidity100/sol100(21~30).sol\":4569:4573  _num */\n      dup5\n        /* \"Solidity100/sol100(21~30).sol\":4574:4575  i */\n      dup5\n        /* \"Solidity100/sol100(21~30).sol\":4569:4576  _num[i] */\n      dup2\n      mload\n      dup2\n      lt\n      tag_34\n      jumpi\n      tag_35\n      tag_26\n      jump\t// in\n    tag_35:\n    tag_34:\n      0x20\n      mul\n      0x20\n      add\n      add\n        /* \"Solidity100/sol100(21~30).sol\":4578:4582  _num */\n      dup6\n        /* \"Solidity100/sol100(21~30).sol\":4583:4584  j */\n      dup5\n        /* \"Solidity100/sol100(21~30).sol\":4578:4585  _num[j] */\n      dup2\n      mload\n      dup2\n      lt\n      tag_36\n      jumpi\n      tag_37\n      tag_26\n      jump\t// in\n    tag_37:\n    tag_36:\n      0x20\n      mul\n      0x20\n      add\n      add\n        /* \"Solidity100/sol100(21~30).sol\":4568:4607  (_num[i], _num[j]) = (_num[j], _num[i]) */\n      dup3\n      dup2\n      mstore\n      pop\n      dup3\n      dup2\n      mstore\n      pop\n      pop\n      pop\n        /* \"Solidity100/sol100(21~30).sol\":4523:4627  if(_num[i] < _num[j]) {... */\n    tag_29:\n        /* \"Solidity100/sol100(21~30).sol\":4499:4502  j++ */\n      dup1\n      dup1\n      0x01\n      add\n      swap2\n      pop\n      pop\n        /* \"Solidity100/sol100(21~30).sol\":4469:4642  for(uint j=i+1; j<num.length; j++) {... */\n      jump(tag_19)\n    tag_20:\n      pop\n        /* \"Solidity100/sol100(21~30).sol\":4449:4452  i++ */\n      dup1\n      dup1\n      0x01\n      add\n      swap2\n      pop\n      pop\n        /* \"Solidity100/sol100(21~30).sol\":4421:4653  for(uint i=0; i<num.length; i++) {... */\n      jump(tag_16)\n    tag_17:\n      pop\n        /* \"Solidity100/sol100(21~30).sol\":4672:4676  _num */\n      dup1\n        /* \"Solidity100/sol100(21~30).sol\":4665:4676  return _num */\n      swap2\n      pop\n      pop\n        /* \"Solidity100/sol100(21~30).sol\":4319:4684  function decending() public view returns(uint[] memory) {... */\n      swap1\n      jump\t// out\n        /* \"Solidity100/sol100(21~30).sol\":4240:4304  function pushNum(uint _a) public {... */\n    tag_12:\n        /* \"Solidity100/sol100(21~30).sol\":4284:4287  num */\n      0x00\n        /* \"Solidity100/sol100(21~30).sol\":4293:4295  _a */\n      dup2\n        /* \"Solidity100/sol100(21~30).sol\":4284:4296  num.push(_a) */\n      swap1\n      dup1\n      0x01\n      dup2\n      sload\n      add\n      dup1\n      dup3\n      sstore\n      dup1\n      swap2\n      pop\n      pop\n      0x01\n      swap1\n      sub\n      swap1\n      0x00\n      mstore\n      keccak256(0x00, 0x20)\n      add\n      0x00\n      swap1\n      swap2\n      swap1\n      swap2\n      swap1\n      swap2\n      pop\n      sstore\n        /* \"Solidity100/sol100(21~30).sol\":4240:4304  function pushNum(uint _a) public {... */\n      pop\n      jump\t// out\n        /* \"#utility.yul\":7:121   */\n    tag_40:\n        /* \"#utility.yul\":74:80   */\n      0x00\n        /* \"#utility.yul\":108:113   */\n      dup2\n        /* \"#utility.yul\":102:114   */\n      mload\n        /* \"#utility.yul\":92:114   */\n      swap1\n      pop\n        /* \"#utility.yul\":7:121   */\n      swap2\n      swap1\n      pop\n      jump\t// out\n        /* \"#utility.yul\":127:311   */\n    tag_41:\n        /* \"#utility.yul\":226:237   */\n      0x00\n        /* \"#utility.yul\":260:266   */\n      dup3\n        /* \"#utility.yul\":255:258   */\n      dup3\n        /* \"#utility.yul\":248:267   */\n      mstore\n        /* \"#utility.yul\":300:304   */\n      0x20\n        /* \"#utility.yul\":295:298   */\n      dup3\n        /* \"#utility.yul\":291:305   */\n      add\n        /* \"#utility.yul\":276:305   */\n      swap1\n      pop\n        /* \"#utility.yul\":127:311   */\n      swap3\n      swap2\n      pop\n      pop\n      jump\t// out\n        /* \"#utility.yul\":317:449   */\n    tag_42:\n        /* \"#utility.yul\":384:388   */\n      0x00\n        /* \"#utility.yul\":407:410   */\n      dup2\n        /* \"#utility.yul\":399:410   */\n      swap1\n      pop\n        /* \"#utility.yul\":437:441   */\n      0x20\n        /* \"#utility.yul\":432:435   */\n      dup3\n        /* \"#utility.yul\":428:442   */\n      add\n        /* \"#utility.yul\":420:442   */\n      swap1\n      pop\n        /* \"#utility.yul\":317:449   */\n      swap2\n      swap1\n      pop\n      jump\t// out\n        /* \"#utility.yul\":455:532   */\n    tag_43:\n        /* \"#utility.yul\":492:499   */\n      0x00\n        /* \"#utility.yul\":521:526   */\n      dup2\n        /* \"#utility.yul\":510:526   */\n      swap1\n      pop\n        /* \"#utility.yul\":455:532   */\n      swap2\n      swap1\n      pop\n      jump\t// out\n        /* \"#utility.yul\":538:646   */\n    tag_44:\n        /* \"#utility.yul\":615:639   */\n      tag_60\n        /* \"#utility.yul\":633:638   */\n      dup2\n        /* \"#utility.yul\":615:639   */\n      tag_43\n      jump\t// in\n    tag_60:\n        /* \"#utility.yul\":610:613   */\n      dup3\n        /* \"#utility.yul\":603:640   */\n      mstore\n        /* \"#utility.yul\":538:646   */\n      pop\n      pop\n      jump\t// out\n        /* \"#utility.yul\":652:831   */\n    tag_45:\n        /* \"#utility.yul\":721:731   */\n      0x00\n        /* \"#utility.yul\":742:788   */\n      tag_62\n        /* \"#utility.yul\":784:787   */\n      dup4\n        /* \"#utility.yul\":776:782   */\n      dup4\n        /* \"#utility.yul\":742:788   */\n      tag_44\n      jump\t// in\n    tag_62:\n        /* \"#utility.yul\":820:824   */\n      0x20\n        /* \"#utility.yul\":815:818   */\n      dup4\n        /* \"#utility.yul\":811:825   */\n      add\n        /* \"#utility.yul\":797:825   */\n      swap1\n      pop\n        /* \"#utility.yul\":652:831   */\n      swap3\n      swap2\n      pop\n      pop\n      jump\t// out\n        /* \"#utility.yul\":837:950   */\n    tag_46:\n        /* \"#utility.yul\":907:911   */\n      0x00\n        /* \"#utility.yul\":939:943   */\n      0x20\n        /* \"#utility.yul\":934:937   */\n      dup3\n        /* \"#utility.yul\":930:944   */\n      add\n        /* \"#utility.yul\":922:944   */\n      swap1\n      pop\n        /* \"#utility.yul\":837:950   */\n      swap2\n      swap1\n      pop\n      jump\t// out\n        /* \"#utility.yul\":986:1718   */\n    tag_47:\n        /* \"#utility.yul\":1105:1108   */\n      0x00\n        /* \"#utility.yul\":1134:1188   */\n      tag_65\n        /* \"#utility.yul\":1182:1187   */\n      dup3\n        /* \"#utility.yul\":1134:1188   */\n      tag_40\n      jump\t// in\n    tag_65:\n        /* \"#utility.yul\":1204:1290   */\n      tag_66\n        /* \"#utility.yul\":1283:1289   */\n      dup2\n        /* \"#utility.yul\":1278:1281   */\n      dup6\n        /* \"#utility.yul\":1204:1290   */\n      tag_41\n      jump\t// in\n    tag_66:\n        /* \"#utility.yul\":1197:1290   */\n      swap4\n      pop\n        /* \"#utility.yul\":1314:1370   */\n      tag_67\n        /* \"#utility.yul\":1364:1369   */\n      dup4\n        /* \"#utility.yul\":1314:1370   */\n      tag_42\n      jump\t// in\n    tag_67:\n        /* \"#utility.yul\":1393:1400   */\n      dup1\n        /* \"#utility.yul\":1424:1425   */\n      0x00\n        /* \"#utility.yul\":1409:1693   */\n    tag_68:\n        /* \"#utility.yul\":1434:1440   */\n      dup4\n        /* \"#utility.yul\":1431:1432   */\n      dup2\n        /* \"#utility.yul\":1428:1441   */\n      lt\n        /* \"#utility.yul\":1409:1693   */\n      iszero\n      tag_70\n      jumpi\n        /* \"#utility.yul\":1510:1516   */\n      dup2\n        /* \"#utility.yul\":1504:1517   */\n      mload\n        /* \"#utility.yul\":1537:1600   */\n      tag_71\n        /* \"#utility.yul\":1596:1599   */\n      dup9\n        /* \"#utility.yul\":1581:1594   */\n      dup3\n        /* \"#utility.yul\":1537:1600   */\n      tag_45\n      jump\t// in\n    tag_71:\n        /* \"#utility.yul\":1530:1600   */\n      swap8\n      pop\n        /* \"#utility.yul\":1623:1683   */\n      tag_72\n        /* \"#utility.yul\":1676:1682   */\n      dup4\n        /* \"#utility.yul\":1623:1683   */\n      tag_46\n      jump\t// in\n    tag_72:\n        /* \"#utility.yul\":1613:1683   */\n      swap3\n      pop\n        /* \"#utility.yul\":1469:1693   */\n      pop\n        /* \"#utility.yul\":1456:1457   */\n      0x01\n        /* \"#utility.yul\":1453:1454   */\n      dup2\n        /* \"#utility.yul\":1449:1458   */\n      add\n        /* \"#utility.yul\":1444:1458   */\n      swap1\n      pop\n        /* \"#utility.yul\":1409:1693   */\n      jump(tag_68)\n    tag_70:\n        /* \"#utility.yul\":1413:1427   */\n      pop\n        /* \"#utility.yul\":1709:1712   */\n      dup6\n        /* \"#utility.yul\":1702:1712   */\n      swap4\n      pop\n        /* \"#utility.yul\":1110:1718   */\n      pop\n      pop\n      pop\n        /* \"#utility.yul\":986:1718   */\n      swap3\n      swap2\n      pop\n      pop\n      jump\t// out\n        /* \"#utility.yul\":1724:2097   */\n    tag_8:\n        /* \"#utility.yul\":1867:1871   */\n      0x00\n        /* \"#utility.yul\":1905:1907   */\n      0x20\n        /* \"#utility.yul\":1894:1903   */\n      dup3\n        /* \"#utility.yul\":1890:1908   */\n      add\n        /* \"#utility.yul\":1882:1908   */\n      swap1\n      pop\n        /* \"#utility.yul\":1954:1963   */\n      dup2\n        /* \"#utility.yul\":1948:1952   */\n      dup2\n        /* \"#utility.yul\":1944:1964   */\n      sub\n        /* \"#utility.yul\":1940:1941   */\n      0x00\n        /* \"#utility.yul\":1929:1938   */\n      dup4\n        /* \"#utility.yul\":1925:1942   */\n      add\n        /* \"#utility.yul\":1918:1965   */\n      mstore\n        /* \"#utility.yul\":1982:2090   */\n      tag_74\n        /* \"#utility.yul\":2085:2089   */\n      dup2\n        /* \"#utility.yul\":2076:2082   */\n      dup5\n        /* \"#utility.yul\":1982:2090   */\n      tag_47\n      jump\t// in\n    tag_74:\n        /* \"#utility.yul\":1974:2090   */\n      swap1\n      pop\n        /* \"#utility.yul\":1724:2097   */\n      swap3\n      swap2\n      pop\n      pop\n      jump\t// out\n        /* \"#utility.yul\":2184:2301   */\n    tag_49:\n        /* \"#utility.yul\":2293:2294   */\n      0x00\n        /* \"#utility.yul\":2290:2291   */\n      dup1\n        /* \"#utility.yul\":2283:2295   */\n      revert\n        /* \"#utility.yul\":2430:2552   */\n    tag_51:\n        /* \"#utility.yul\":2503:2527   */\n      tag_79\n        /* \"#utility.yul\":2521:2526   */\n      dup2\n        /* \"#utility.yul\":2503:2527   */\n      tag_43\n      jump\t// in\n    tag_79:\n        /* \"#utility.yul\":2496:2501   */\n      dup2\n        /* \"#utility.yul\":2493:2528   */\n      eq\n        /* \"#utility.yul\":2483:2546   */\n      tag_80\n      jumpi\n        /* \"#utility.yul\":2542:2543   */\n      0x00\n        /* \"#utility.yul\":2539:2540   */\n      dup1\n        /* \"#utility.yul\":2532:2544   */\n      revert\n        /* \"#utility.yul\":2483:2546   */\n    tag_80:\n        /* \"#utility.yul\":2430:2552   */\n      pop\n      jump\t// out\n        /* \"#utility.yul\":2558:2697   */\n    tag_52:\n        /* \"#utility.yul\":2604:2609   */\n      0x00\n        /* \"#utility.yul\":2642:2648   */\n      dup2\n        /* \"#utility.yul\":2629:2649   */\n      calldataload\n        /* \"#utility.yul\":2620:2649   */\n      swap1\n      pop\n        /* \"#utility.yul\":2658:2691   */\n      tag_82\n        /* \"#utility.yul\":2685:2690   */\n      dup2\n        /* \"#utility.yul\":2658:2691   */\n      tag_51\n      jump\t// in\n    tag_82:\n        /* \"#utility.yul\":2558:2697   */\n      swap3\n      swap2\n      pop\n      pop\n      jump\t// out\n        /* \"#utility.yul\":2703:3032   */\n    tag_11:\n        /* \"#utility.yul\":2762:2768   */\n      0x00\n        /* \"#utility.yul\":2811:2813   */\n      0x20\n        /* \"#utility.yul\":2799:2808   */\n      dup3\n        /* \"#utility.yul\":2790:2797   */\n      dup5\n        /* \"#utility.yul\":2786:2809   */\n      sub\n        /* \"#utility.yul\":2782:2814   */\n      slt\n        /* \"#utility.yul\":2779:2898   */\n      iszero\n      tag_84\n      jumpi\n        /* \"#utility.yul\":2817:2896   */\n      tag_85\n      tag_49\n      jump\t// in\n    tag_85:\n        /* \"#utility.yul\":2779:2898   */\n    tag_84:\n        /* \"#utility.yul\":2937:2938   */\n      0x00\n        /* \"#utility.yul\":2962:3015   */\n      tag_86\n        /* \"#utility.yul\":3007:3014   */\n      dup5\n        /* \"#utility.yul\":2998:3004   */\n      dup3\n        /* \"#utility.yul\":2987:2996   */\n      dup6\n        /* \"#utility.yul\":2983:3005   */\n      add\n        /* \"#utility.yul\":2962:3015   */\n      tag_52\n      jump\t// in\n    tag_86:\n        /* \"#utility.yul\":2952:3015   */\n      swap2\n      pop\n        /* \"#utility.yul\":2908:3025   */\n      pop\n        /* \"#utility.yul\":2703:3032   */\n      swap3\n      swap2\n      pop\n      pop\n      jump\t// out\n        /* \"#utility.yul\":3038:3218   */\n    tag_53:\n        /* \"#utility.yul\":3086:3163   */\n      0x4e487b7100000000000000000000000000000000000000000000000000000000\n        /* \"#utility.yul\":3083:3084   */\n      0x00\n        /* \"#utility.yul\":3076:3164   */\n      mstore\n        /* \"#utility.yul\":3183:3187   */\n      0x11\n        /* \"#utility.yul\":3180:3181   */\n      0x04\n        /* \"#utility.yul\":3173:3188   */\n      mstore\n        /* \"#utility.yul\":3207:3211   */\n      0x24\n        /* \"#utility.yul\":3204:3205   */\n      0x00\n        /* \"#utility.yul\":3197:3212   */\n      revert\n        /* \"#utility.yul\":3224:3415   */\n    tag_23:\n        /* \"#utility.yul\":3264:3267   */\n      0x00\n        /* \"#utility.yul\":3283:3303   */\n      tag_89\n        /* \"#utility.yul\":3301:3302   */\n      dup3\n        /* \"#utility.yul\":3283:3303   */\n      tag_43\n      jump\t// in\n    tag_89:\n        /* \"#utility.yul\":3278:3303   */\n      swap2\n      pop\n        /* \"#utility.yul\":3317:3337   */\n      tag_90\n        /* \"#utility.yul\":3335:3336   */\n      dup4\n        /* \"#utility.yul\":3317:3337   */\n      tag_43\n      jump\t// in\n    tag_90:\n        /* \"#utility.yul\":3312:3337   */\n      swap3\n      pop\n        /* \"#utility.yul\":3360:3361   */\n      dup3\n        /* \"#utility.yul\":3357:3358   */\n      dup3\n        /* \"#utility.yul\":3353:3362   */\n      add\n        /* \"#utility.yul\":3346:3362   */\n      swap1\n      pop\n        /* \"#utility.yul\":3381:3384   */\n      dup1\n        /* \"#utility.yul\":3378:3379   */\n      dup3\n        /* \"#utility.yul\":3375:3385   */\n      gt\n        /* \"#utility.yul\":3372:3408   */\n      iszero\n      tag_91\n      jumpi\n        /* \"#utility.yul\":3388:3406   */\n      tag_92\n      tag_53\n      jump\t// in\n    tag_92:\n        /* \"#utility.yul\":3372:3408   */\n    tag_91:\n        /* \"#utility.yul\":3224:3415   */\n      swap3\n      swap2\n      pop\n      pop\n      jump\t// out\n        /* \"#utility.yul\":3421:3601   */\n    tag_26:\n        /* \"#utility.yul\":3469:3546   */\n      0x4e487b7100000000000000000000000000000000000000000000000000000000\n        /* \"#utility.yul\":3466:3467   */\n      0x00\n        /* \"#utility.yul\":3459:3547   */\n      mstore\n        /* \"#utility.yul\":3566:3570   */\n      0x32\n        /* \"#utility.yul\":3563:3564   */\n      0x04\n        /* \"#utility.yul\":3556:3571   */\n      mstore\n        /* \"#utility.yul\":3590:3594   */\n      0x24\n        /* \"#utility.yul\":3587:3588   */\n      0x00\n        /* \"#utility.yul\":3580:3595   */\n      revert\n\n    auxdata: 0xa2646970667358221220eca47d5dd332ccf50392f444c2f681619ae436be8b12e6484b8ce9252fb70ec464736f6c634300081a0033\n}\n",
				"bytecode": {
					"linkReferences": {},
					"object": "60806040526040518060e00160405280600260ff168152602001600660ff168152602001600760ff168152602001600460ff168152602001600560ff168152602001600160ff168152602001600960ff16815250600190600760619291906071565b50348015606c575f80fd5b5060d5565b828054828255905f5260205f2090810192821560ad579160200282015b8281111560ac578251829060ff16905591602001919060010190608e565b5b50905060b8919060bc565b5090565b5b8082111560d1575f815f90555060010160bd565b5090565b6103e8806100e25f395ff3fe608060405234801561000f575f80fd5b5060043610610034575f3560e01c80632cc2d53a14610038578063bc07865f14610056575b5f80fd5b610040610072565b60405161004d91906102ac565b60405180910390f35b610070600480360381019061006b91906102fa565b6101c4565b005b60605f808054806020026020016040519081016040528092919081815260200182805480156100be57602002820191905f5260205f20905b8154815260200190600101908083116100aa575b505050505090505f5b5f805490508110156101bc575f6001826100e19190610352565b90505b5f805490508110156101ae5782818151811061010357610102610385565b5b602002602001015183838151811061011e5761011d610385565b5b602002602001015110156101a15782818151811061013f5761013e610385565b5b602002602001015183838151811061015a57610159610385565b5b602002602001015184848151811061017557610174610385565b5b6020026020010185848151811061018f5761018e610385565b5b60200260200101828152508281525050505b80806001019150506100e4565b5080806001019150506100c7565b508091505090565b5f81908060018154018082558091505060019003905f5260205f20015f909190919091505550565b5f81519050919050565b5f82825260208201905092915050565b5f819050602082019050919050565b5f819050919050565b61022781610215565b82525050565b5f610238838361021e565b60208301905092915050565b5f602082019050919050565b5f61025a826101ec565b61026481856101f6565b935061026f83610206565b805f5b8381101561029f578151610286888261022d565b975061029183610244565b925050600181019050610272565b5085935050505092915050565b5f6020820190508181035f8301526102c48184610250565b905092915050565b5f80fd5b6102d981610215565b81146102e3575f80fd5b50565b5f813590506102f4816102d0565b92915050565b5f6020828403121561030f5761030e6102cc565b5b5f61031c848285016102e6565b91505092915050565b7f4e487b71000000000000000000000000000000000000000000000000000000005f52601160045260245ffd5b5f61035c82610215565b915061036783610215565b925082820190508082111561037f5761037e610325565b5b92915050565b7f4e487b71000000000000000000000000000000000000000000000000000000005f52603260045260245ffdfea2646970667358221220eca47d5dd332ccf50392f444c2f681619ae436be8b12e6484b8ce9252fb70ec464736f6c634300081a0033",
					"opcodes": "PUSH1 0x80 PUSH1 0x40 MSTORE PUSH1 0x40 MLOAD DUP1 PUSH1 0xE0 ADD PUSH1 0x40 MSTORE DUP1 PUSH1 0x2 PUSH1 0xFF AND DUP2 MSTORE PUSH1 0x20 ADD PUSH1 0x6 PUSH1 0xFF AND DUP2 MSTORE PUSH1 0x20 ADD PUSH1 0x7 PUSH1 0xFF AND DUP2 MSTORE PUSH1 0x20 ADD PUSH1 0x4 PUSH1 0xFF AND DUP2 MSTORE PUSH1 0x20 ADD PUSH1 0x5 PUSH1 0xFF AND DUP2 MSTORE PUSH1 0x20 ADD PUSH1 0x1 PUSH1 0xFF AND DUP2 MSTORE PUSH1 0x20 ADD PUSH1 0x9 PUSH1 0xFF AND DUP2 MSTORE POP PUSH1 0x1 SWAP1 PUSH1 0x7 PUSH1 0x61 SWAP3 SWAP2 SWAP1 PUSH1 0x71 JUMP JUMPDEST POP CALLVALUE DUP1 ISZERO PUSH1 0x6C JUMPI PUSH0 DUP1 REVERT JUMPDEST POP PUSH1 0xD5 JUMP JUMPDEST DUP3 DUP1 SLOAD DUP3 DUP3 SSTORE SWAP1 PUSH0 MSTORE PUSH1 0x20 PUSH0 KECCAK256 SWAP1 DUP2 ADD SWAP3 DUP3 ISZERO PUSH1 0xAD JUMPI SWAP2 PUSH1 0x20 MUL DUP3 ADD JUMPDEST DUP3 DUP2 GT ISZERO PUSH1 0xAC JUMPI DUP3 MLOAD DUP3 SWAP1 PUSH1 0xFF AND SWAP1 SSTORE SWAP2 PUSH1 0x20 ADD SWAP2 SWAP1 PUSH1 0x1 ADD SWAP1 PUSH1 0x8E JUMP JUMPDEST JUMPDEST POP SWAP1 POP PUSH1 0xB8 SWAP2 SWAP1 PUSH1 0xBC JUMP JUMPDEST POP SWAP1 JUMP JUMPDEST JUMPDEST DUP1 DUP3 GT ISZERO PUSH1 0xD1 JUMPI PUSH0 DUP2 PUSH0 SWAP1 SSTORE POP PUSH1 0x1 ADD PUSH1 0xBD JUMP JUMPDEST POP SWAP1 JUMP JUMPDEST PUSH2 0x3E8 DUP1 PUSH2 0xE2 PUSH0 CODECOPY PUSH0 RETURN INVALID PUSH1 0x80 PUSH1 0x40 MSTORE CALLVALUE DUP1 ISZERO PUSH2 0xF JUMPI PUSH0 DUP1 REVERT JUMPDEST POP PUSH1 0x4 CALLDATASIZE LT PUSH2 0x34 JUMPI PUSH0 CALLDATALOAD PUSH1 0xE0 SHR DUP1 PUSH4 0x2CC2D53A EQ PUSH2 0x38 JUMPI DUP1 PUSH4 0xBC07865F EQ PUSH2 0x56 JUMPI JUMPDEST PUSH0 DUP1 REVERT JUMPDEST PUSH2 0x40 PUSH2 0x72 JUMP JUMPDEST PUSH1 0x40 MLOAD PUSH2 0x4D SWAP2 SWAP1 PUSH2 0x2AC JUMP JUMPDEST PUSH1 0x40 MLOAD DUP1 SWAP2 SUB SWAP1 RETURN JUMPDEST PUSH2 0x70 PUSH1 0x4 DUP1 CALLDATASIZE SUB DUP2 ADD SWAP1 PUSH2 0x6B SWAP2 SWAP1 PUSH2 0x2FA JUMP JUMPDEST PUSH2 0x1C4 JUMP JUMPDEST STOP JUMPDEST PUSH1 0x60 PUSH0 DUP1 DUP1 SLOAD DUP1 PUSH1 0x20 MUL PUSH1 0x20 ADD PUSH1 0x40 MLOAD SWAP1 DUP2 ADD PUSH1 0x40 MSTORE DUP1 SWAP3 SWAP2 SWAP1 DUP2 DUP2 MSTORE PUSH1 0x20 ADD DUP3 DUP1 SLOAD DUP1 ISZERO PUSH2 0xBE JUMPI PUSH1 0x20 MUL DUP3 ADD SWAP2 SWAP1 PUSH0 MSTORE PUSH1 0x20 PUSH0 KECCAK256 SWAP1 JUMPDEST DUP2 SLOAD DUP2 MSTORE PUSH1 0x20 ADD SWAP1 PUSH1 0x1 ADD SWAP1 DUP1 DUP4 GT PUSH2 0xAA JUMPI JUMPDEST POP POP POP POP POP SWAP1 POP PUSH0 JUMPDEST PUSH0 DUP1 SLOAD SWAP1 POP DUP2 LT ISZERO PUSH2 0x1BC JUMPI PUSH0 PUSH1 0x1 DUP3 PUSH2 0xE1 SWAP2 SWAP1 PUSH2 0x352 JUMP JUMPDEST SWAP1 POP JUMPDEST PUSH0 DUP1 SLOAD SWAP1 POP DUP2 LT ISZERO PUSH2 0x1AE JUMPI DUP3 DUP2 DUP2 MLOAD DUP2 LT PUSH2 0x103 JUMPI PUSH2 0x102 PUSH2 0x385 JUMP JUMPDEST JUMPDEST PUSH1 0x20 MUL PUSH1 0x20 ADD ADD MLOAD DUP4 DUP4 DUP2 MLOAD DUP2 LT PUSH2 0x11E JUMPI PUSH2 0x11D PUSH2 0x385 JUMP JUMPDEST JUMPDEST PUSH1 0x20 MUL PUSH1 0x20 ADD ADD MLOAD LT ISZERO PUSH2 0x1A1 JUMPI DUP3 DUP2 DUP2 MLOAD DUP2 LT PUSH2 0x13F JUMPI PUSH2 0x13E PUSH2 0x385 JUMP JUMPDEST JUMPDEST PUSH1 0x20 MUL PUSH1 0x20 ADD ADD MLOAD DUP4 DUP4 DUP2 MLOAD DUP2 LT PUSH2 0x15A JUMPI PUSH2 0x159 PUSH2 0x385 JUMP JUMPDEST JUMPDEST PUSH1 0x20 MUL PUSH1 0x20 ADD ADD MLOAD DUP5 DUP5 DUP2 MLOAD DUP2 LT PUSH2 0x175 JUMPI PUSH2 0x174 PUSH2 0x385 JUMP JUMPDEST JUMPDEST PUSH1 0x20 MUL PUSH1 0x20 ADD ADD DUP6 DUP5 DUP2 MLOAD DUP2 LT PUSH2 0x18F JUMPI PUSH2 0x18E PUSH2 0x385 JUMP JUMPDEST JUMPDEST PUSH1 0x20 MUL PUSH1 0x20 ADD ADD DUP3 DUP2 MSTORE POP DUP3 DUP2 MSTORE POP POP POP JUMPDEST DUP1 DUP1 PUSH1 0x1 ADD SWAP2 POP POP PUSH2 0xE4 JUMP JUMPDEST POP DUP1 DUP1 PUSH1 0x1 ADD SWAP2 POP POP PUSH2 0xC7 JUMP JUMPDEST POP DUP1 SWAP2 POP POP SWAP1 JUMP JUMPDEST PUSH0 DUP2 SWAP1 DUP1 PUSH1 0x1 DUP2 SLOAD ADD DUP1 DUP3 SSTORE DUP1 SWAP2 POP POP PUSH1 0x1 SWAP1 SUB SWAP1 PUSH0 MSTORE PUSH1 0x20 PUSH0 KECCAK256 ADD PUSH0 SWAP1 SWAP2 SWAP1 SWAP2 SWAP1 SWAP2 POP SSTORE POP JUMP JUMPDEST PUSH0 DUP2 MLOAD SWAP1 POP SWAP2 SWAP1 POP JUMP JUMPDEST PUSH0 DUP3 DUP3 MSTORE PUSH1 0x20 DUP3 ADD SWAP1 POP SWAP3 SWAP2 POP POP JUMP JUMPDEST PUSH0 DUP2 SWAP1 POP PUSH1 0x20 DUP3 ADD SWAP1 POP SWAP2 SWAP1 POP JUMP JUMPDEST PUSH0 DUP2 SWAP1 POP SWAP2 SWAP1 POP JUMP JUMPDEST PUSH2 0x227 DUP2 PUSH2 0x215 JUMP JUMPDEST DUP3 MSTORE POP POP JUMP JUMPDEST PUSH0 PUSH2 0x238 DUP4 DUP4 PUSH2 0x21E JUMP JUMPDEST PUSH1 0x20 DUP4 ADD SWAP1 POP SWAP3 SWAP2 POP POP JUMP JUMPDEST PUSH0 PUSH1 0x20 DUP3 ADD SWAP1 POP SWAP2 SWAP1 POP JUMP JUMPDEST PUSH0 PUSH2 0x25A DUP3 PUSH2 0x1EC JUMP JUMPDEST PUSH2 0x264 DUP2 DUP6 PUSH2 0x1F6 JUMP JUMPDEST SWAP4 POP PUSH2 0x26F DUP4 PUSH2 0x206 JUMP JUMPDEST DUP1 PUSH0 JUMPDEST DUP4 DUP2 LT ISZERO PUSH2 0x29F JUMPI DUP2 MLOAD PUSH2 0x286 DUP9 DUP3 PUSH2 0x22D JUMP JUMPDEST SWAP8 POP PUSH2 0x291 DUP4 PUSH2 0x244 JUMP JUMPDEST SWAP3 POP POP PUSH1 0x1 DUP2 ADD SWAP1 POP PUSH2 0x272 JUMP JUMPDEST POP DUP6 SWAP4 POP POP POP POP SWAP3 SWAP2 POP POP JUMP JUMPDEST PUSH0 PUSH1 0x20 DUP3 ADD SWAP1 POP DUP2 DUP2 SUB PUSH0 DUP4 ADD MSTORE PUSH2 0x2C4 DUP2 DUP5 PUSH2 0x250 JUMP JUMPDEST SWAP1 POP SWAP3 SWAP2 POP POP JUMP JUMPDEST PUSH0 DUP1 REVERT JUMPDEST PUSH2 0x2D9 DUP2 PUSH2 0x215 JUMP JUMPDEST DUP2 EQ PUSH2 0x2E3 JUMPI PUSH0 DUP1 REVERT JUMPDEST POP JUMP JUMPDEST PUSH0 DUP2 CALLDATALOAD SWAP1 POP PUSH2 0x2F4 DUP2 PUSH2 0x2D0 JUMP JUMPDEST SWAP3 SWAP2 POP POP JUMP JUMPDEST PUSH0 PUSH1 0x20 DUP3 DUP5 SUB SLT ISZERO PUSH2 0x30F JUMPI PUSH2 0x30E PUSH2 0x2CC JUMP JUMPDEST JUMPDEST PUSH0 PUSH2 0x31C DUP5 DUP3 DUP6 ADD PUSH2 0x2E6 JUMP JUMPDEST SWAP2 POP POP SWAP3 SWAP2 POP POP JUMP JUMPDEST PUSH32 0x4E487B7100000000000000000000000000000000000000000000000000000000 PUSH0 MSTORE PUSH1 0x11 PUSH1 0x4 MSTORE PUSH1 0x24 PUSH0 REVERT JUMPDEST PUSH0 PUSH2 0x35C DUP3 PUSH2 0x215 JUMP JUMPDEST SWAP2 POP PUSH2 0x367 DUP4 PUSH2 0x215 JUMP JUMPDEST SWAP3 POP DUP3 DUP3 ADD SWAP1 POP DUP1 DUP3 GT ISZERO PUSH2 0x37F JUMPI PUSH2 0x37E PUSH2 0x325 JUMP JUMPDEST JUMPDEST SWAP3 SWAP2 POP POP JUMP JUMPDEST PUSH32 0x4E487B7100000000000000000000000000000000000000000000000000000000 PUSH0 MSTORE PUSH1 0x32 PUSH1 0x4 MSTORE PUSH1 0x24 PUSH0 REVERT INVALID LOG2 PUSH5 0x6970667358 0x22 SLT KECCAK256 0xEC LOG4 PUSH30 0x5DD332CCF50392F444C2F681619AE436BE8B12E6484B8CE9252FB70EC464 PUSH20 0x6F6C634300081A00330000000000000000000000 "
				},
				"gasEstimates": {
					"creation": {
						"codeDepositCost": "200000",
						"executionCost": "infinite",
						"totalCost": "infinite"
					},
					"external": {
						"decending()": "infinite",
						"pushNum(uint256)": "46820"
					}
				},
				"methodIdentifiers": {
					"decending()": "2cc2d53a",
					"pushNum(uint256)": "bc07865f"
				}
			},
			"storageLayout": {
				"storage": [
					{
						"astId": 302,
						"contract": "Solidity100/sol100(21~30).sol:Q30",
						"label": "num",
						"offset": 0,
						"slot": "0",
						"type": "t_array(t_uint256)dyn_storage"
					},
					{
						"astId": 313,
						"contract": "Solidity100/sol100(21~30).sol:Q30",
						"label": "num2",
						"offset": 0,
						"slot": "1",
						"type": "t_array(t_uint256)dyn_storage"
					}
				],
				"types": {
					"t_array(t_uint256)dyn_storage": {
						"base": "t_uint256",
						"encoding": "dynamic_array",
						"label": "uint256[]",
						"numberOfBytes": "32"
					},
					"t_uint256": {
						"encoding": "inplace",
						"label": "uint256",
						"numberOfBytes": "32"
					}
				}
			},
			"userdoc": {
				"kind": "user",
				"methods": {},
				"version": 1
			}
		}
	}
}