{
	"Solidity100/sol100(21~30).sol": {
		"Q25": {
			"abi": [
				{
					"inputs": [],
					"name": "setNum",
					"outputs": [],
					"stateMutability": "nonpayable",
					"type": "function"
				}
			],
			"devdoc": {
				"kind": "dev",
				"methods": {},
				"version": 1
			},
			"evm": {
				"assembly": "    /* \"Solidity100/sol100(21~30).sol\":1727:2038  contract Q25 {... */\n  mstore(0x40, 0x80)\n  callvalue\n  dup1\n  iszero\n  tag_1\n  jumpi\n  0x00\n  dup1\n  revert\ntag_1:\n  pop\n  dataSize(sub_0)\n  dup1\n  dataOffset(sub_0)\n  0x00\n  codecopy\n  0x00\n  return\nstop\n\nsub_0: assembly {\n        /* \"Solidity100/sol100(21~30).sol\":1727:2038  contract Q25 {... */\n      mstore(0x40, 0x80)\n      callvalue\n      dup1\n      iszero\n      tag_1\n      jumpi\n      0x00\n      dup1\n      revert\n    tag_1:\n      pop\n      jumpi(tag_2, lt(calldatasize, 0x04))\n      shr(0xe0, calldataload(0x00))\n      dup1\n      0xac3afa43\n      eq\n      tag_3\n      jumpi\n    tag_2:\n      0x00\n      dup1\n      revert\n        /* \"Solidity100/sol100(21~30).sol\":1899:2035  function setNum() public {... */\n    tag_3:\n      tag_4\n      tag_5\n      jump\t// in\n    tag_4:\n      stop\n    tag_5:\n        /* \"Solidity100/sol100(21~30).sol\":1935:1941  uint i */\n      0x00\n        /* \"Solidity100/sol100(21~30).sol\":1952:1958  uint n */\n      dup1\n        /* \"Solidity100/sol100(21~30).sol\":1977:1978  0 */\n      0x00\n        /* \"Solidity100/sol100(21~30).sol\":1975:1978  i=0 */\n      swap2\n      pop\n        /* \"Solidity100/sol100(21~30).sol\":1971:2028  for(i=0; i < n; i++) {... */\n    tag_7:\n        /* \"Solidity100/sol100(21~30).sol\":1984:1985  n */\n      dup1\n        /* \"Solidity100/sol100(21~30).sol\":1980:1981  i */\n      dup3\n        /* \"Solidity100/sol100(21~30).sol\":1980:1985  i < n */\n      lt\n        /* \"Solidity100/sol100(21~30).sol\":1971:2028  for(i=0; i < n; i++) {... */\n      iszero\n      tag_8\n      jumpi\n        /* \"Solidity100/sol100(21~30).sol\":2007:2008  A */\n      0x00\n        /* \"Solidity100/sol100(21~30).sol\":2014:2015  i */\n      dup3\n        /* \"Solidity100/sol100(21~30).sol\":2007:2016  A.push(i) */\n      swap1\n      dup1\n      0x01\n      dup2\n      sload\n      add\n      dup1\n      dup3\n      sstore\n      dup1\n      swap2\n      pop\n      pop\n      0x01\n      swap1\n      sub\n      swap1\n      0x00\n      mstore\n      keccak256(0x00, 0x20)\n      add\n      0x00\n      swap1\n      swap2\n      swap1\n      swap2\n      swap1\n      swap2\n      pop\n      sstore\n        /* \"Solidity100/sol100(21~30).sol\":1987:1990  i++ */\n      dup2\n      dup1\n      0x01\n      add\n      swap3\n      pop\n      pop\n        /* \"Solidity100/sol100(21~30).sol\":1971:2028  for(i=0; i < n; i++) {... */\n      jump(tag_7)\n    tag_8:\n        /* \"Solidity100/sol100(21~30).sol\":1924:2035  {... */\n      pop\n      pop\n        /* \"Solidity100/sol100(21~30).sol\":1899:2035  function setNum() public {... */\n      jump\t// out\n\n    auxdata: 0xa2646970667358221220c42bd507421cfa379d36b24ba6d4241b3c2e0d1e2f9093bc41673b6ad38ab92464736f6c634300081a0033\n}\n",
				"bytecode": {
					"linkReferences": {},
					"object": "6080604052348015600e575f80fd5b5060aa80601a5f395ff3fe6080604052348015600e575f80fd5b50600436106026575f3560e01c8063ac3afa4314602a575b5f80fd5b60306032565b005b5f805f91505b808210156070575f82908060018154018082558091505060019003905f5260205f20015f909190919091505581806001019250506038565b505056fea2646970667358221220c42bd507421cfa379d36b24ba6d4241b3c2e0d1e2f9093bc41673b6ad38ab92464736f6c634300081a0033",
					"opcodes": "PUSH1 0x80 PUSH1 0x40 MSTORE CALLVALUE DUP1 ISZERO PUSH1 0xE JUMPI PUSH0 DUP1 REVERT JUMPDEST POP PUSH1 0xAA DUP1 PUSH1 0x1A PUSH0 CODECOPY PUSH0 RETURN INVALID PUSH1 0x80 PUSH1 0x40 MSTORE CALLVALUE DUP1 ISZERO PUSH1 0xE JUMPI PUSH0 DUP1 REVERT JUMPDEST POP PUSH1 0x4 CALLDATASIZE LT PUSH1 0x26 JUMPI PUSH0 CALLDATALOAD PUSH1 0xE0 SHR DUP1 PUSH4 0xAC3AFA43 EQ PUSH1 0x2A JUMPI JUMPDEST PUSH0 DUP1 REVERT JUMPDEST PUSH1 0x30 PUSH1 0x32 JUMP JUMPDEST STOP JUMPDEST PUSH0 DUP1 PUSH0 SWAP2 POP JUMPDEST DUP1 DUP3 LT ISZERO PUSH1 0x70 JUMPI PUSH0 DUP3 SWAP1 DUP1 PUSH1 0x1 DUP2 SLOAD ADD DUP1 DUP3 SSTORE DUP1 SWAP2 POP POP PUSH1 0x1 SWAP1 SUB SWAP1 PUSH0 MSTORE PUSH1 0x20 PUSH0 KECCAK256 ADD PUSH0 SWAP1 SWAP2 SWAP1 SWAP2 SWAP1 SWAP2 POP SSTORE DUP2 DUP1 PUSH1 0x1 ADD SWAP3 POP POP PUSH1 0x38 JUMP JUMPDEST POP POP JUMP INVALID LOG2 PUSH5 0x6970667358 0x22 SLT KECCAK256 0xC4 0x2B 0xD5 SMOD TIMESTAMP SHR STATICCALL CALLDATACOPY SWAP14 CALLDATASIZE 0xB2 0x4B 0xA6 0xD4 0x24 SHL EXTCODECOPY 0x2E 0xD 0x1E 0x2F SWAP1 SWAP4 0xBC COINBASE PUSH8 0x3B6AD38AB9246473 PUSH16 0x6C634300081A00330000000000000000 "
				},
				"gasEstimates": {
					"creation": {
						"codeDepositCost": "34000",
						"executionCost": "85",
						"totalCost": "34085"
					},
					"external": {
						"setNum()": "164"
					}
				},
				"methodIdentifiers": {
					"setNum()": "ac3afa43"
				}
			},
			"storageLayout": {
				"storage": [
					{
						"astId": 125,
						"contract": "Solidity100/sol100(21~30).sol:Q25",
						"label": "A",
						"offset": 0,
						"slot": "0",
						"type": "t_array(t_uint256)dyn_storage"
					}
				],
				"types": {
					"t_array(t_uint256)dyn_storage": {
						"base": "t_uint256",
						"encoding": "dynamic_array",
						"label": "uint256[]",
						"numberOfBytes": "32"
					},
					"t_uint256": {
						"encoding": "inplace",
						"label": "uint256",
						"numberOfBytes": "32"
					}
				}
			},
			"userdoc": {
				"kind": "user",
				"methods": {},
				"version": 1
			}
		}
	}
}