{
	"Solidity100/sole100(41~50).sol": {
		"Q46": {
			"abi": [
				{
					"inputs": [
						{
							"internalType": "uint256",
							"name": "_a",
							"type": "uint256"
						}
					],
					"name": "pushNumber",
					"outputs": [],
					"stateMutability": "nonpayable",
					"type": "function"
				}
			],
			"devdoc": {
				"kind": "dev",
				"methods": {},
				"version": 1
			},
			"evm": {
				"assembly": "    /* \"Solidity100/sole100(41~50).sol\":2964:3458  contract Q46 {... */\n  mstore(0x40, 0x80)\n  callvalue\n  dup1\n  iszero\n  tag_1\n  jumpi\n  0x00\n  dup1\n  revert\ntag_1:\n  pop\n  dataSize(sub_0)\n  dup1\n  dataOffset(sub_0)\n  0x00\n  codecopy\n  0x00\n  return\nstop\n\nsub_0: assembly {\n        /* \"Solidity100/sole100(41~50).sol\":2964:3458  contract Q46 {... */\n      mstore(0x40, 0x80)\n      callvalue\n      dup1\n      iszero\n      tag_1\n      jumpi\n      0x00\n      dup1\n      revert\n    tag_1:\n      pop\n      jumpi(tag_2, lt(calldatasize, 0x04))\n      shr(0xe0, calldataload(0x00))\n      dup1\n      0x2bfe1805\n      eq\n      tag_3\n      jumpi\n    tag_2:\n      0x00\n      dup1\n      revert\n        /* \"Solidity100/sole100(41~50).sol\":3320:3455  function pushNumber(uint _a) public {... */\n    tag_3:\n      tag_4\n      0x04\n      dup1\n      calldatasize\n      sub\n      dup2\n      add\n      swap1\n      tag_5\n      swap2\n      swap1\n      tag_6\n      jump\t// in\n    tag_5:\n      tag_7\n      jump\t// in\n    tag_4:\n      stop\n    tag_7:\n        /* \"Solidity100/sole100(41~50).sol\":3384:3385  0 */\n      0x00\n        /* \"Solidity100/sole100(41~50).sol\":3380:3381  3 */\n      0x03\n        /* \"Solidity100/sole100(41~50).sol\":3375:3377  _a */\n      dup3\n        /* \"Solidity100/sole100(41~50).sol\":3375:3381  _a % 3 */\n      tag_9\n      swap2\n      swap1\n      tag_10\n      jump\t// in\n    tag_9:\n        /* \"Solidity100/sole100(41~50).sol\":3375:3385  _a % 3 ==0 */\n      eq\n        /* \"Solidity100/sole100(41~50).sol\":3375:3411  _a % 3 ==0 || _a % 10 ==0 && _a < 50 */\n      dup1\n      tag_11\n      jumpi\n      pop\n        /* \"Solidity100/sole100(41~50).sol\":3399:3400  0 */\n      0x00\n        /* \"Solidity100/sole100(41~50).sol\":3394:3396  10 */\n      0x0a\n        /* \"Solidity100/sole100(41~50).sol\":3389:3391  _a */\n      dup3\n        /* \"Solidity100/sole100(41~50).sol\":3389:3396  _a % 10 */\n      tag_12\n      swap2\n      swap1\n      tag_10\n      jump\t// in\n    tag_12:\n        /* \"Solidity100/sole100(41~50).sol\":3389:3400  _a % 10 ==0 */\n      eq\n        /* \"Solidity100/sole100(41~50).sol\":3389:3411  _a % 10 ==0 && _a < 50 */\n      dup1\n      iszero\n      tag_13\n      jumpi\n      pop\n        /* \"Solidity100/sole100(41~50).sol\":3409:3411  50 */\n      0x32\n        /* \"Solidity100/sole100(41~50).sol\":3404:3406  _a */\n      dup2\n        /* \"Solidity100/sole100(41~50).sol\":3404:3411  _a < 50 */\n      lt\n        /* \"Solidity100/sole100(41~50).sol\":3389:3411  _a % 10 ==0 && _a < 50 */\n    tag_13:\n        /* \"Solidity100/sole100(41~50).sol\":3375:3411  _a % 3 ==0 || _a % 10 ==0 && _a < 50 */\n    tag_11:\n        /* \"Solidity100/sole100(41~50).sol\":3367:3420  require(_a % 3 ==0 || _a % 10 ==0 && _a < 50, \"nope\") */\n      tag_14\n      jumpi\n      mload(0x40)\n      0x08c379a000000000000000000000000000000000000000000000000000000000\n      dup2\n      mstore\n      0x04\n      add\n      tag_15\n      swap1\n      tag_16\n      jump\t// in\n    tag_15:\n      mload(0x40)\n      dup1\n      swap2\n      sub\n      swap1\n      revert\n    tag_14:\n        /* \"Solidity100/sole100(41~50).sol\":3431:3438  numbers */\n      0x00\n        /* \"Solidity100/sole100(41~50).sol\":3444:3446  _a */\n      dup2\n        /* \"Solidity100/sole100(41~50).sol\":3431:3447  numbers.push(_a) */\n      swap1\n      dup1\n      0x01\n      dup2\n      sload\n      add\n      dup1\n      dup3\n      sstore\n      dup1\n      swap2\n      pop\n      pop\n      0x01\n      swap1\n      sub\n      swap1\n      0x00\n      mstore\n      keccak256(0x00, 0x20)\n      add\n      0x00\n      swap1\n      swap2\n      swap1\n      swap2\n      swap1\n      swap2\n      pop\n      sstore\n        /* \"Solidity100/sole100(41~50).sol\":3320:3455  function pushNumber(uint _a) public {... */\n      pop\n      jump\t// out\n        /* \"#utility.yul\":88:205   */\n    tag_19:\n        /* \"#utility.yul\":197:198   */\n      0x00\n        /* \"#utility.yul\":194:195   */\n      dup1\n        /* \"#utility.yul\":187:199   */\n      revert\n        /* \"#utility.yul\":334:411   */\n    tag_21:\n        /* \"#utility.yul\":371:378   */\n      0x00\n        /* \"#utility.yul\":400:405   */\n      dup2\n        /* \"#utility.yul\":389:405   */\n      swap1\n      pop\n        /* \"#utility.yul\":334:411   */\n      swap2\n      swap1\n      pop\n      jump\t// out\n        /* \"#utility.yul\":417:539   */\n    tag_22:\n        /* \"#utility.yul\":490:514   */\n      tag_34\n        /* \"#utility.yul\":508:513   */\n      dup2\n        /* \"#utility.yul\":490:514   */\n      tag_21\n      jump\t// in\n    tag_34:\n        /* \"#utility.yul\":483:488   */\n      dup2\n        /* \"#utility.yul\":480:515   */\n      eq\n        /* \"#utility.yul\":470:533   */\n      tag_35\n      jumpi\n        /* \"#utility.yul\":529:530   */\n      0x00\n        /* \"#utility.yul\":526:527   */\n      dup1\n        /* \"#utility.yul\":519:531   */\n      revert\n        /* \"#utility.yul\":470:533   */\n    tag_35:\n        /* \"#utility.yul\":417:539   */\n      pop\n      jump\t// out\n        /* \"#utility.yul\":545:684   */\n    tag_23:\n        /* \"#utility.yul\":591:596   */\n      0x00\n        /* \"#utility.yul\":629:635   */\n      dup2\n        /* \"#utility.yul\":616:636   */\n      calldataload\n        /* \"#utility.yul\":607:636   */\n      swap1\n      pop\n        /* \"#utility.yul\":645:678   */\n      tag_37\n        /* \"#utility.yul\":672:677   */\n      dup2\n        /* \"#utility.yul\":645:678   */\n      tag_22\n      jump\t// in\n    tag_37:\n        /* \"#utility.yul\":545:684   */\n      swap3\n      swap2\n      pop\n      pop\n      jump\t// out\n        /* \"#utility.yul\":690:1019   */\n    tag_6:\n        /* \"#utility.yul\":749:755   */\n      0x00\n        /* \"#utility.yul\":798:800   */\n      0x20\n        /* \"#utility.yul\":786:795   */\n      dup3\n        /* \"#utility.yul\":777:784   */\n      dup5\n        /* \"#utility.yul\":773:796   */\n      sub\n        /* \"#utility.yul\":769:801   */\n      slt\n        /* \"#utility.yul\":766:885   */\n      iszero\n      tag_39\n      jumpi\n        /* \"#utility.yul\":804:883   */\n      tag_40\n      tag_19\n      jump\t// in\n    tag_40:\n        /* \"#utility.yul\":766:885   */\n    tag_39:\n        /* \"#utility.yul\":924:925   */\n      0x00\n        /* \"#utility.yul\":949:1002   */\n      tag_41\n        /* \"#utility.yul\":994:1001   */\n      dup5\n        /* \"#utility.yul\":985:991   */\n      dup3\n        /* \"#utility.yul\":974:983   */\n      dup6\n        /* \"#utility.yul\":970:992   */\n      add\n        /* \"#utility.yul\":949:1002   */\n      tag_23\n      jump\t// in\n    tag_41:\n        /* \"#utility.yul\":939:1002   */\n      swap2\n      pop\n        /* \"#utility.yul\":895:1012   */\n      pop\n        /* \"#utility.yul\":690:1019   */\n      swap3\n      swap2\n      pop\n      pop\n      jump\t// out\n        /* \"#utility.yul\":1025:1205   */\n    tag_24:\n        /* \"#utility.yul\":1073:1150   */\n      0x4e487b7100000000000000000000000000000000000000000000000000000000\n        /* \"#utility.yul\":1070:1071   */\n      0x00\n        /* \"#utility.yul\":1063:1151   */\n      mstore\n        /* \"#utility.yul\":1170:1174   */\n      0x12\n        /* \"#utility.yul\":1167:1168   */\n      0x04\n        /* \"#utility.yul\":1160:1175   */\n      mstore\n        /* \"#utility.yul\":1194:1198   */\n      0x24\n        /* \"#utility.yul\":1191:1192   */\n      0x00\n        /* \"#utility.yul\":1184:1199   */\n      revert\n        /* \"#utility.yul\":1211:1387   */\n    tag_10:\n        /* \"#utility.yul\":1243:1244   */\n      0x00\n        /* \"#utility.yul\":1260:1280   */\n      tag_44\n        /* \"#utility.yul\":1278:1279   */\n      dup3\n        /* \"#utility.yul\":1260:1280   */\n      tag_21\n      jump\t// in\n    tag_44:\n        /* \"#utility.yul\":1255:1280   */\n      swap2\n      pop\n        /* \"#utility.yul\":1294:1314   */\n      tag_45\n        /* \"#utility.yul\":1312:1313   */\n      dup4\n        /* \"#utility.yul\":1294:1314   */\n      tag_21\n      jump\t// in\n    tag_45:\n        /* \"#utility.yul\":1289:1314   */\n      swap3\n      pop\n        /* \"#utility.yul\":1333:1334   */\n      dup3\n        /* \"#utility.yul\":1323:1358   */\n      tag_46\n      jumpi\n        /* \"#utility.yul\":1338:1356   */\n      tag_47\n      tag_24\n      jump\t// in\n    tag_47:\n        /* \"#utility.yul\":1323:1358   */\n    tag_46:\n        /* \"#utility.yul\":1379:1380   */\n      dup3\n        /* \"#utility.yul\":1376:1377   */\n      dup3\n        /* \"#utility.yul\":1372:1381   */\n      mod\n        /* \"#utility.yul\":1367:1381   */\n      swap1\n      pop\n        /* \"#utility.yul\":1211:1387   */\n      swap3\n      swap2\n      pop\n      pop\n      jump\t// out\n        /* \"#utility.yul\":1393:1562   */\n    tag_25:\n        /* \"#utility.yul\":1477:1488   */\n      0x00\n        /* \"#utility.yul\":1511:1517   */\n      dup3\n        /* \"#utility.yul\":1506:1509   */\n      dup3\n        /* \"#utility.yul\":1499:1518   */\n      mstore\n        /* \"#utility.yul\":1551:1555   */\n      0x20\n        /* \"#utility.yul\":1546:1549   */\n      dup3\n        /* \"#utility.yul\":1542:1556   */\n      add\n        /* \"#utility.yul\":1527:1556   */\n      swap1\n      pop\n        /* \"#utility.yul\":1393:1562   */\n      swap3\n      swap2\n      pop\n      pop\n      jump\t// out\n        /* \"#utility.yul\":1568:1722   */\n    tag_26:\n        /* \"#utility.yul\":1708:1714   */\n      0x6e6f706500000000000000000000000000000000000000000000000000000000\n        /* \"#utility.yul\":1704:1705   */\n      0x00\n        /* \"#utility.yul\":1696:1702   */\n      dup3\n        /* \"#utility.yul\":1692:1706   */\n      add\n        /* \"#utility.yul\":1685:1715   */\n      mstore\n        /* \"#utility.yul\":1568:1722   */\n      pop\n      jump\t// out\n        /* \"#utility.yul\":1728:2093   */\n    tag_27:\n        /* \"#utility.yul\":1870:1873   */\n      0x00\n        /* \"#utility.yul\":1891:1957   */\n      tag_51\n        /* \"#utility.yul\":1955:1956   */\n      0x04\n        /* \"#utility.yul\":1950:1953   */\n      dup4\n        /* \"#utility.yul\":1891:1957   */\n      tag_25\n      jump\t// in\n    tag_51:\n        /* \"#utility.yul\":1884:1957   */\n      swap2\n      pop\n        /* \"#utility.yul\":1966:2059   */\n      tag_52\n        /* \"#utility.yul\":2055:2058   */\n      dup3\n        /* \"#utility.yul\":1966:2059   */\n      tag_26\n      jump\t// in\n    tag_52:\n        /* \"#utility.yul\":2084:2086   */\n      0x20\n        /* \"#utility.yul\":2079:2082   */\n      dup3\n        /* \"#utility.yul\":2075:2087   */\n      add\n        /* \"#utility.yul\":2068:2087   */\n      swap1\n      pop\n        /* \"#utility.yul\":1728:2093   */\n      swap2\n      swap1\n      pop\n      jump\t// out\n        /* \"#utility.yul\":2099:2518   */\n    tag_16:\n        /* \"#utility.yul\":2265:2269   */\n      0x00\n        /* \"#utility.yul\":2303:2305   */\n      0x20\n        /* \"#utility.yul\":2292:2301   */\n      dup3\n        /* \"#utility.yul\":2288:2306   */\n      add\n        /* \"#utility.yul\":2280:2306   */\n      swap1\n      pop\n        /* \"#utility.yul\":2352:2361   */\n      dup2\n        /* \"#utility.yul\":2346:2350   */\n      dup2\n        /* \"#utility.yul\":2342:2362   */\n      sub\n        /* \"#utility.yul\":2338:2339   */\n      0x00\n        /* \"#utility.yul\":2327:2336   */\n      dup4\n        /* \"#utility.yul\":2323:2340   */\n      add\n        /* \"#utility.yul\":2316:2363   */\n      mstore\n        /* \"#utility.yul\":2380:2511   */\n      tag_54\n        /* \"#utility.yul\":2506:2510   */\n      dup2\n        /* \"#utility.yul\":2380:2511   */\n      tag_27\n      jump\t// in\n    tag_54:\n        /* \"#utility.yul\":2372:2511   */\n      swap1\n      pop\n        /* \"#utility.yul\":2099:2518   */\n      swap2\n      swap1\n      pop\n      jump\t// out\n\n    auxdata: 0xa2646970667358221220f88bdfe6ee8b1c94fa0bccb211d5c9e85d8ec1de359c24f700ef8617270893c164736f6c634300081a0033\n}\n",
				"bytecode": {
					"linkReferences": {},
					"object": "6080604052348015600e575f80fd5b5061024e8061001c5f395ff3fe608060405234801561000f575f80fd5b5060043610610029575f3560e01c80632bfe18051461002d575b5f80fd5b61004760048036038101906100429190610118565b610049565b005b5f6003826100579190610170565b148061007a57505f600a8261006c9190610170565b1480156100795750603281105b5b6100b9576040517f08c379a00000000000000000000000000000000000000000000000000000000081526004016100b0906101fa565b60405180910390fd5b5f81908060018154018082558091505060019003905f5260205f20015f909190919091505550565b5f80fd5b5f819050919050565b6100f7816100e5565b8114610101575f80fd5b50565b5f81359050610112816100ee565b92915050565b5f6020828403121561012d5761012c6100e1565b5b5f61013a84828501610104565b91505092915050565b7f4e487b71000000000000000000000000000000000000000000000000000000005f52601260045260245ffd5b5f61017a826100e5565b9150610185836100e5565b92508261019557610194610143565b5b828206905092915050565b5f82825260208201905092915050565b7f6e6f7065000000000000000000000000000000000000000000000000000000005f82015250565b5f6101e46004836101a0565b91506101ef826101b0565b602082019050919050565b5f6020820190508181035f830152610211816101d8565b905091905056fea2646970667358221220f88bdfe6ee8b1c94fa0bccb211d5c9e85d8ec1de359c24f700ef8617270893c164736f6c634300081a0033",
					"opcodes": "PUSH1 0x80 PUSH1 0x40 MSTORE CALLVALUE DUP1 ISZERO PUSH1 0xE JUMPI PUSH0 DUP1 REVERT JUMPDEST POP PUSH2 0x24E DUP1 PUSH2 0x1C PUSH0 CODECOPY PUSH0 RETURN INVALID PUSH1 0x80 PUSH1 0x40 MSTORE CALLVALUE DUP1 ISZERO PUSH2 0xF JUMPI PUSH0 DUP1 REVERT JUMPDEST POP PUSH1 0x4 CALLDATASIZE LT PUSH2 0x29 JUMPI PUSH0 CALLDATALOAD PUSH1 0xE0 SHR DUP1 PUSH4 0x2BFE1805 EQ PUSH2 0x2D JUMPI JUMPDEST PUSH0 DUP1 REVERT JUMPDEST PUSH2 0x47 PUSH1 0x4 DUP1 CALLDATASIZE SUB DUP2 ADD SWAP1 PUSH2 0x42 SWAP2 SWAP1 PUSH2 0x118 JUMP JUMPDEST PUSH2 0x49 JUMP JUMPDEST STOP JUMPDEST PUSH0 PUSH1 0x3 DUP3 PUSH2 0x57 SWAP2 SWAP1 PUSH2 0x170 JUMP JUMPDEST EQ DUP1 PUSH2 0x7A JUMPI POP PUSH0 PUSH1 0xA DUP3 PUSH2 0x6C SWAP2 SWAP1 PUSH2 0x170 JUMP JUMPDEST EQ DUP1 ISZERO PUSH2 0x79 JUMPI POP PUSH1 0x32 DUP2 LT JUMPDEST JUMPDEST PUSH2 0xB9 JUMPI PUSH1 0x40 MLOAD PUSH32 0x8C379A000000000000000000000000000000000000000000000000000000000 DUP2 MSTORE PUSH1 0x4 ADD PUSH2 0xB0 SWAP1 PUSH2 0x1FA JUMP JUMPDEST PUSH1 0x40 MLOAD DUP1 SWAP2 SUB SWAP1 REVERT JUMPDEST PUSH0 DUP2 SWAP1 DUP1 PUSH1 0x1 DUP2 SLOAD ADD DUP1 DUP3 SSTORE DUP1 SWAP2 POP POP PUSH1 0x1 SWAP1 SUB SWAP1 PUSH0 MSTORE PUSH1 0x20 PUSH0 KECCAK256 ADD PUSH0 SWAP1 SWAP2 SWAP1 SWAP2 SWAP1 SWAP2 POP SSTORE POP JUMP JUMPDEST PUSH0 DUP1 REVERT JUMPDEST PUSH0 DUP2 SWAP1 POP SWAP2 SWAP1 POP JUMP JUMPDEST PUSH2 0xF7 DUP2 PUSH2 0xE5 JUMP JUMPDEST DUP2 EQ PUSH2 0x101 JUMPI PUSH0 DUP1 REVERT JUMPDEST POP JUMP JUMPDEST PUSH0 DUP2 CALLDATALOAD SWAP1 POP PUSH2 0x112 DUP2 PUSH2 0xEE JUMP JUMPDEST SWAP3 SWAP2 POP POP JUMP JUMPDEST PUSH0 PUSH1 0x20 DUP3 DUP5 SUB SLT ISZERO PUSH2 0x12D JUMPI PUSH2 0x12C PUSH2 0xE1 JUMP JUMPDEST JUMPDEST PUSH0 PUSH2 0x13A DUP5 DUP3 DUP6 ADD PUSH2 0x104 JUMP JUMPDEST SWAP2 POP POP SWAP3 SWAP2 POP POP JUMP JUMPDEST PUSH32 0x4E487B7100000000000000000000000000000000000000000000000000000000 PUSH0 MSTORE PUSH1 0x12 PUSH1 0x4 MSTORE PUSH1 0x24 PUSH0 REVERT JUMPDEST PUSH0 PUSH2 0x17A DUP3 PUSH2 0xE5 JUMP JUMPDEST SWAP2 POP PUSH2 0x185 DUP4 PUSH2 0xE5 JUMP JUMPDEST SWAP3 POP DUP3 PUSH2 0x195 JUMPI PUSH2 0x194 PUSH2 0x143 JUMP JUMPDEST JUMPDEST DUP3 DUP3 MOD SWAP1 POP SWAP3 SWAP2 POP POP JUMP JUMPDEST PUSH0 DUP3 DUP3 MSTORE PUSH1 0x20 DUP3 ADD SWAP1 POP SWAP3 SWAP2 POP POP JUMP JUMPDEST PUSH32 0x6E6F706500000000000000000000000000000000000000000000000000000000 PUSH0 DUP3 ADD MSTORE POP JUMP JUMPDEST PUSH0 PUSH2 0x1E4 PUSH1 0x4 DUP4 PUSH2 0x1A0 JUMP JUMPDEST SWAP2 POP PUSH2 0x1EF DUP3 PUSH2 0x1B0 JUMP JUMPDEST PUSH1 0x20 DUP3 ADD SWAP1 POP SWAP2 SWAP1 POP JUMP JUMPDEST PUSH0 PUSH1 0x20 DUP3 ADD SWAP1 POP DUP2 DUP2 SUB PUSH0 DUP4 ADD MSTORE PUSH2 0x211 DUP2 PUSH2 0x1D8 JUMP JUMPDEST SWAP1 POP SWAP2 SWAP1 POP JUMP INVALID LOG2 PUSH5 0x6970667358 0x22 SLT KECCAK256 0xF8 DUP12 0xDF 0xE6 0xEE DUP12 SHR SWAP5 STATICCALL SIGNEXTEND 0xCC 0xB2 GT 0xD5 0xC9 0xE8 TSTORE DUP15 0xC1 0xDE CALLDATALOAD SWAP13 0x24 0xF7 STOP 0xEF DUP7 OR 0x27 ADDMOD SWAP4 0xC1 PUSH5 0x736F6C6343 STOP ADDMOD BYTE STOP CALLER "
				},
				"gasEstimates": {
					"creation": {
						"codeDepositCost": "118000",
						"executionCost": "163",
						"totalCost": "118163"
					},
					"external": {
						"pushNumber(uint256)": "infinite"
					}
				},
				"methodIdentifiers": {
					"pushNumber(uint256)": "2bfe1805"
				}
			},
			"storageLayout": {
				"storage": [
					{
						"astId": 218,
						"contract": "Solidity100/sole100(41~50).sol:Q46",
						"label": "numbers",
						"offset": 0,
						"slot": "0",
						"type": "t_array(t_uint256)dyn_storage"
					}
				],
				"types": {
					"t_array(t_uint256)dyn_storage": {
						"base": "t_uint256",
						"encoding": "dynamic_array",
						"label": "uint256[]",
						"numberOfBytes": "32"
					},
					"t_uint256": {
						"encoding": "inplace",
						"label": "uint256",
						"numberOfBytes": "32"
					}
				}
			},
			"userdoc": {
				"kind": "user",
				"methods": {},
				"version": 1
			}
		}
	}
}