{
	"Solidity100/sol100(11~20).sol": {
		"Q17": {
			"abi": [
				{
					"inputs": [
						{
							"internalType": "string",
							"name": "_name",
							"type": "string"
						}
					],
					"name": "a",
					"outputs": [
						{
							"internalType": "bool",
							"name": "",
							"type": "bool"
						}
					],
					"stateMutability": "pure",
					"type": "function"
				}
			],
			"devdoc": {
				"kind": "dev",
				"methods": {},
				"version": 1
			},
			"evm": {
				"assembly": "    /* \"Solidity100/sol100(11~20).sol\":2897:3342  contract Q17 {... */\n  mstore(0x40, 0x80)\n  callvalue\n  dup1\n  iszero\n  tag_1\n  jumpi\n  0x00\n  dup1\n  revert\ntag_1:\n  pop\n  dataSize(sub_0)\n  dup1\n  dataOffset(sub_0)\n  0x00\n  codecopy\n  0x00\n  return\nstop\n\nsub_0: assembly {\n        /* \"Solidity100/sol100(11~20).sol\":2897:3342  contract Q17 {... */\n      mstore(0x40, 0x80)\n      callvalue\n      dup1\n      iszero\n      tag_1\n      jumpi\n      0x00\n      dup1\n      revert\n    tag_1:\n      pop\n      jumpi(tag_2, lt(calldatasize, 0x04))\n      shr(0xe0, calldataload(0x00))\n      dup1\n      0x059274c9\n      eq\n      tag_3\n      jumpi\n    tag_2:\n      0x00\n      dup1\n      revert\n        /* \"Solidity100/sol100(11~20).sol\":3117:3335  function a(string memory _name) public pure returns(bool) { ... */\n    tag_3:\n      tag_4\n      0x04\n      dup1\n      calldatasize\n      sub\n      dup2\n      add\n      swap1\n      tag_5\n      swap2\n      swap1\n      tag_6\n      jump\t// in\n    tag_5:\n      tag_7\n      jump\t// in\n    tag_4:\n      mload(0x40)\n      tag_8\n      swap2\n      swap1\n      tag_9\n      jump\t// in\n    tag_8:\n      mload(0x40)\n      dup1\n      swap2\n      sub\n      swap1\n      return\n    tag_7:\n        /* \"Solidity100/sol100(11~20).sol\":3169:3173  bool */\n      0x00\n        /* \"Solidity100/sol100(11~20).sol\":3238:3261  abi.encodePacked(\"Bob\") */\n      add(0x20, mload(0x40))\n      tag_11\n      swap1\n      tag_12\n      jump\t// in\n    tag_11:\n      mload(0x40)\n      0x20\n      dup2\n      dup4\n      sub\n      sub\n      dup2\n      mstore\n      swap1\n      0x40\n      mstore\n        /* \"Solidity100/sol100(11~20).sol\":3228:3262  keccak256(abi.encodePacked(\"Bob\")) */\n      dup1\n      mload\n      swap1\n      0x20\n      add\n      keccak256\n        /* \"Solidity100/sol100(11~20).sol\":3217:3222  _name */\n      dup3\n        /* \"Solidity100/sol100(11~20).sol\":3200:3223  abi.encodePacked(_name) */\n      add(0x20, mload(0x40))\n      tag_13\n      swap2\n      swap1\n      tag_14\n      jump\t// in\n    tag_13:\n      mload(0x40)\n      0x20\n      dup2\n      dup4\n      sub\n      sub\n      dup2\n      mstore\n      swap1\n      0x40\n      mstore\n        /* \"Solidity100/sol100(11~20).sol\":3190:3224  keccak256(abi.encodePacked(_name)) */\n      dup1\n      mload\n      swap1\n      0x20\n      add\n      keccak256\n        /* \"Solidity100/sol100(11~20).sol\":3190:3262  keccak256(abi.encodePacked(_name)) == keccak256(abi.encodePacked(\"Bob\")) */\n      sub\n        /* \"Solidity100/sol100(11~20).sol\":3186:3302  if (keccak256(abi.encodePacked(_name)) == keccak256(abi.encodePacked(\"Bob\"))) { ... */\n      tag_15\n      jumpi\n        /* \"Solidity100/sol100(11~20).sol\":3287:3291  true */\n      0x01\n        /* \"Solidity100/sol100(11~20).sol\":3280:3291  return true */\n      swap1\n      pop\n      jump(tag_10)\n        /* \"Solidity100/sol100(11~20).sol\":3186:3302  if (keccak256(abi.encodePacked(_name)) == keccak256(abi.encodePacked(\"Bob\"))) { ... */\n    tag_15:\n        /* \"Solidity100/sol100(11~20).sol\":3319:3324  false */\n      0x00\n        /* \"Solidity100/sol100(11~20).sol\":3312:3324  return false */\n      swap1\n      pop\n        /* \"Solidity100/sol100(11~20).sol\":3117:3335  function a(string memory _name) public pure returns(bool) { ... */\n    tag_10:\n      swap2\n      swap1\n      pop\n      jump\t// out\n        /* \"#utility.yul\":7:82   */\n    tag_16:\n        /* \"#utility.yul\":40:46   */\n      0x00\n        /* \"#utility.yul\":73:75   */\n      0x40\n        /* \"#utility.yul\":67:76   */\n      mload\n        /* \"#utility.yul\":57:76   */\n      swap1\n      pop\n        /* \"#utility.yul\":7:82   */\n      swap1\n      jump\t// out\n        /* \"#utility.yul\":88:205   */\n    tag_17:\n        /* \"#utility.yul\":197:198   */\n      0x00\n        /* \"#utility.yul\":194:195   */\n      dup1\n        /* \"#utility.yul\":187:199   */\n      revert\n        /* \"#utility.yul\":211:328   */\n    tag_18:\n        /* \"#utility.yul\":320:321   */\n      0x00\n        /* \"#utility.yul\":317:318   */\n      dup1\n        /* \"#utility.yul\":310:322   */\n      revert\n        /* \"#utility.yul\":334:451   */\n    tag_19:\n        /* \"#utility.yul\":443:444   */\n      0x00\n        /* \"#utility.yul\":440:441   */\n      dup1\n        /* \"#utility.yul\":433:445   */\n      revert\n        /* \"#utility.yul\":457:574   */\n    tag_20:\n        /* \"#utility.yul\":566:567   */\n      0x00\n        /* \"#utility.yul\":563:564   */\n      dup1\n        /* \"#utility.yul\":556:568   */\n      revert\n        /* \"#utility.yul\":580:682   */\n    tag_21:\n        /* \"#utility.yul\":621:627   */\n      0x00\n        /* \"#utility.yul\":672:674   */\n      0x1f\n        /* \"#utility.yul\":668:675   */\n      not\n        /* \"#utility.yul\":663:665   */\n      0x1f\n        /* \"#utility.yul\":656:661   */\n      dup4\n        /* \"#utility.yul\":652:666   */\n      add\n        /* \"#utility.yul\":648:676   */\n      and\n        /* \"#utility.yul\":638:676   */\n      swap1\n      pop\n        /* \"#utility.yul\":580:682   */\n      swap2\n      swap1\n      pop\n      jump\t// out\n        /* \"#utility.yul\":688:868   */\n    tag_22:\n        /* \"#utility.yul\":736:813   */\n      0x4e487b7100000000000000000000000000000000000000000000000000000000\n        /* \"#utility.yul\":733:734   */\n      0x00\n        /* \"#utility.yul\":726:814   */\n      mstore\n        /* \"#utility.yul\":833:837   */\n      0x41\n        /* \"#utility.yul\":830:831   */\n      0x04\n        /* \"#utility.yul\":823:838   */\n      mstore\n        /* \"#utility.yul\":857:861   */\n      0x24\n        /* \"#utility.yul\":854:855   */\n      0x00\n        /* \"#utility.yul\":847:862   */\n      revert\n        /* \"#utility.yul\":874:1155   */\n    tag_23:\n        /* \"#utility.yul\":957:984   */\n      tag_46\n        /* \"#utility.yul\":979:983   */\n      dup3\n        /* \"#utility.yul\":957:984   */\n      tag_21\n      jump\t// in\n    tag_46:\n        /* \"#utility.yul\":949:955   */\n      dup2\n        /* \"#utility.yul\":945:985   */\n      add\n        /* \"#utility.yul\":1087:1093   */\n      dup2\n        /* \"#utility.yul\":1075:1085   */\n      dup2\n        /* \"#utility.yul\":1072:1094   */\n      lt\n        /* \"#utility.yul\":1051:1069   */\n      0xffffffffffffffff\n        /* \"#utility.yul\":1039:1049   */\n      dup3\n        /* \"#utility.yul\":1036:1070   */\n      gt\n        /* \"#utility.yul\":1033:1095   */\n      or\n        /* \"#utility.yul\":1030:1118   */\n      iszero\n      tag_47\n      jumpi\n        /* \"#utility.yul\":1098:1116   */\n      tag_48\n      tag_22\n      jump\t// in\n    tag_48:\n        /* \"#utility.yul\":1030:1118   */\n    tag_47:\n        /* \"#utility.yul\":1138:1148   */\n      dup1\n        /* \"#utility.yul\":1134:1136   */\n      0x40\n        /* \"#utility.yul\":1127:1149   */\n      mstore\n        /* \"#utility.yul\":917:1155   */\n      pop\n        /* \"#utility.yul\":874:1155   */\n      pop\n      pop\n      jump\t// out\n        /* \"#utility.yul\":1161:1290   */\n    tag_24:\n        /* \"#utility.yul\":1195:1201   */\n      0x00\n        /* \"#utility.yul\":1222:1242   */\n      tag_50\n      tag_16\n      jump\t// in\n    tag_50:\n        /* \"#utility.yul\":1212:1242   */\n      swap1\n      pop\n        /* \"#utility.yul\":1251:1284   */\n      tag_51\n        /* \"#utility.yul\":1279:1283   */\n      dup3\n        /* \"#utility.yul\":1271:1277   */\n      dup3\n        /* \"#utility.yul\":1251:1284   */\n      tag_23\n      jump\t// in\n    tag_51:\n        /* \"#utility.yul\":1161:1290   */\n      swap2\n      swap1\n      pop\n      jump\t// out\n        /* \"#utility.yul\":1296:1604   */\n    tag_25:\n        /* \"#utility.yul\":1358:1362   */\n      0x00\n        /* \"#utility.yul\":1448:1466   */\n      0xffffffffffffffff\n        /* \"#utility.yul\":1440:1446   */\n      dup3\n        /* \"#utility.yul\":1437:1467   */\n      gt\n        /* \"#utility.yul\":1434:1490   */\n      iszero\n      tag_53\n      jumpi\n        /* \"#utility.yul\":1470:1488   */\n      tag_54\n      tag_22\n      jump\t// in\n    tag_54:\n        /* \"#utility.yul\":1434:1490   */\n    tag_53:\n        /* \"#utility.yul\":1508:1537   */\n      tag_55\n        /* \"#utility.yul\":1530:1536   */\n      dup3\n        /* \"#utility.yul\":1508:1537   */\n      tag_21\n      jump\t// in\n    tag_55:\n        /* \"#utility.yul\":1500:1537   */\n      swap1\n      pop\n        /* \"#utility.yul\":1592:1596   */\n      0x20\n        /* \"#utility.yul\":1586:1590   */\n      dup2\n        /* \"#utility.yul\":1582:1597   */\n      add\n        /* \"#utility.yul\":1574:1597   */\n      swap1\n      pop\n        /* \"#utility.yul\":1296:1604   */\n      swap2\n      swap1\n      pop\n      jump\t// out\n        /* \"#utility.yul\":1610:1758   */\n    tag_26:\n        /* \"#utility.yul\":1708:1714   */\n      dup3\n        /* \"#utility.yul\":1703:1706   */\n      dup2\n        /* \"#utility.yul\":1698:1701   */\n      dup4\n        /* \"#utility.yul\":1685:1715   */\n      calldatacopy\n        /* \"#utility.yul\":1749:1750   */\n      0x00\n        /* \"#utility.yul\":1740:1746   */\n      dup4\n        /* \"#utility.yul\":1735:1738   */\n      dup4\n        /* \"#utility.yul\":1731:1747   */\n      add\n        /* \"#utility.yul\":1724:1751   */\n      mstore\n        /* \"#utility.yul\":1610:1758   */\n      pop\n      pop\n      pop\n      jump\t// out\n        /* \"#utility.yul\":1764:2189   */\n    tag_27:\n        /* \"#utility.yul\":1842:1847   */\n      0x00\n        /* \"#utility.yul\":1867:1933   */\n      tag_58\n        /* \"#utility.yul\":1883:1932   */\n      tag_59\n        /* \"#utility.yul\":1925:1931   */\n      dup5\n        /* \"#utility.yul\":1883:1932   */\n      tag_25\n      jump\t// in\n    tag_59:\n        /* \"#utility.yul\":1867:1933   */\n      tag_24\n      jump\t// in\n    tag_58:\n        /* \"#utility.yul\":1858:1933   */\n      swap1\n      pop\n        /* \"#utility.yul\":1956:1962   */\n      dup3\n        /* \"#utility.yul\":1949:1954   */\n      dup2\n        /* \"#utility.yul\":1942:1963   */\n      mstore\n        /* \"#utility.yul\":1994:1998   */\n      0x20\n        /* \"#utility.yul\":1987:1992   */\n      dup2\n        /* \"#utility.yul\":1983:1999   */\n      add\n        /* \"#utility.yul\":2032:2035   */\n      dup5\n        /* \"#utility.yul\":2023:2029   */\n      dup5\n        /* \"#utility.yul\":2018:2021   */\n      dup5\n        /* \"#utility.yul\":2014:2030   */\n      add\n        /* \"#utility.yul\":2011:2036   */\n      gt\n        /* \"#utility.yul\":2008:2120   */\n      iszero\n      tag_60\n      jumpi\n        /* \"#utility.yul\":2039:2118   */\n      tag_61\n      tag_20\n      jump\t// in\n    tag_61:\n        /* \"#utility.yul\":2008:2120   */\n    tag_60:\n        /* \"#utility.yul\":2129:2183   */\n      tag_62\n        /* \"#utility.yul\":2176:2182   */\n      dup5\n        /* \"#utility.yul\":2171:2174   */\n      dup3\n        /* \"#utility.yul\":2166:2169   */\n      dup6\n        /* \"#utility.yul\":2129:2183   */\n      tag_26\n      jump\t// in\n    tag_62:\n        /* \"#utility.yul\":1848:2189   */\n      pop\n        /* \"#utility.yul\":1764:2189   */\n      swap4\n      swap3\n      pop\n      pop\n      pop\n      jump\t// out\n        /* \"#utility.yul\":2209:2549   */\n    tag_28:\n        /* \"#utility.yul\":2265:2270   */\n      0x00\n        /* \"#utility.yul\":2314:2317   */\n      dup3\n        /* \"#utility.yul\":2307:2311   */\n      0x1f\n        /* \"#utility.yul\":2299:2305   */\n      dup4\n        /* \"#utility.yul\":2295:2312   */\n      add\n        /* \"#utility.yul\":2291:2318   */\n      slt\n        /* \"#utility.yul\":2281:2403   */\n      tag_64\n      jumpi\n        /* \"#utility.yul\":2322:2401   */\n      tag_65\n      tag_19\n      jump\t// in\n    tag_65:\n        /* \"#utility.yul\":2281:2403   */\n    tag_64:\n        /* \"#utility.yul\":2439:2445   */\n      dup2\n        /* \"#utility.yul\":2426:2446   */\n      calldataload\n        /* \"#utility.yul\":2464:2543   */\n      tag_66\n        /* \"#utility.yul\":2539:2542   */\n      dup5\n        /* \"#utility.yul\":2531:2537   */\n      dup3\n        /* \"#utility.yul\":2524:2528   */\n      0x20\n        /* \"#utility.yul\":2516:2522   */\n      dup7\n        /* \"#utility.yul\":2512:2529   */\n      add\n        /* \"#utility.yul\":2464:2543   */\n      tag_27\n      jump\t// in\n    tag_66:\n        /* \"#utility.yul\":2455:2543   */\n      swap2\n      pop\n        /* \"#utility.yul\":2271:2549   */\n      pop\n        /* \"#utility.yul\":2209:2549   */\n      swap3\n      swap2\n      pop\n      pop\n      jump\t// out\n        /* \"#utility.yul\":2555:3064   */\n    tag_6:\n        /* \"#utility.yul\":2624:2630   */\n      0x00\n        /* \"#utility.yul\":2673:2675   */\n      0x20\n        /* \"#utility.yul\":2661:2670   */\n      dup3\n        /* \"#utility.yul\":2652:2659   */\n      dup5\n        /* \"#utility.yul\":2648:2671   */\n      sub\n        /* \"#utility.yul\":2644:2676   */\n      slt\n        /* \"#utility.yul\":2641:2760   */\n      iszero\n      tag_68\n      jumpi\n        /* \"#utility.yul\":2679:2758   */\n      tag_69\n      tag_17\n      jump\t// in\n    tag_69:\n        /* \"#utility.yul\":2641:2760   */\n    tag_68:\n        /* \"#utility.yul\":2827:2828   */\n      0x00\n        /* \"#utility.yul\":2816:2825   */\n      dup3\n        /* \"#utility.yul\":2812:2829   */\n      add\n        /* \"#utility.yul\":2799:2830   */\n      calldataload\n        /* \"#utility.yul\":2857:2875   */\n      0xffffffffffffffff\n        /* \"#utility.yul\":2849:2855   */\n      dup2\n        /* \"#utility.yul\":2846:2876   */\n      gt\n        /* \"#utility.yul\":2843:2960   */\n      iszero\n      tag_70\n      jumpi\n        /* \"#utility.yul\":2879:2958   */\n      tag_71\n      tag_18\n      jump\t// in\n    tag_71:\n        /* \"#utility.yul\":2843:2960   */\n    tag_70:\n        /* \"#utility.yul\":2984:3047   */\n      tag_72\n        /* \"#utility.yul\":3039:3046   */\n      dup5\n        /* \"#utility.yul\":3030:3036   */\n      dup3\n        /* \"#utility.yul\":3019:3028   */\n      dup6\n        /* \"#utility.yul\":3015:3037   */\n      add\n        /* \"#utility.yul\":2984:3047   */\n      tag_28\n      jump\t// in\n    tag_72:\n        /* \"#utility.yul\":2974:3047   */\n      swap2\n      pop\n        /* \"#utility.yul\":2770:3057   */\n      pop\n        /* \"#utility.yul\":2555:3064   */\n      swap3\n      swap2\n      pop\n      pop\n      jump\t// out\n        /* \"#utility.yul\":3070:3160   */\n    tag_29:\n        /* \"#utility.yul\":3104:3111   */\n      0x00\n        /* \"#utility.yul\":3147:3152   */\n      dup2\n        /* \"#utility.yul\":3140:3153   */\n      iszero\n        /* \"#utility.yul\":3133:3154   */\n      iszero\n        /* \"#utility.yul\":3122:3154   */\n      swap1\n      pop\n        /* \"#utility.yul\":3070:3160   */\n      swap2\n      swap1\n      pop\n      jump\t// out\n        /* \"#utility.yul\":3166:3275   */\n    tag_30:\n        /* \"#utility.yul\":3247:3268   */\n      tag_75\n        /* \"#utility.yul\":3262:3267   */\n      dup2\n        /* \"#utility.yul\":3247:3268   */\n      tag_29\n      jump\t// in\n    tag_75:\n        /* \"#utility.yul\":3242:3245   */\n      dup3\n        /* \"#utility.yul\":3235:3269   */\n      mstore\n        /* \"#utility.yul\":3166:3275   */\n      pop\n      pop\n      jump\t// out\n        /* \"#utility.yul\":3281:3491   */\n    tag_9:\n        /* \"#utility.yul\":3368:3372   */\n      0x00\n        /* \"#utility.yul\":3406:3408   */\n      0x20\n        /* \"#utility.yul\":3395:3404   */\n      dup3\n        /* \"#utility.yul\":3391:3409   */\n      add\n        /* \"#utility.yul\":3383:3409   */\n      swap1\n      pop\n        /* \"#utility.yul\":3419:3484   */\n      tag_77\n        /* \"#utility.yul\":3481:3482   */\n      0x00\n        /* \"#utility.yul\":3470:3479   */\n      dup4\n        /* \"#utility.yul\":3466:3483   */\n      add\n        /* \"#utility.yul\":3457:3463   */\n      dup5\n        /* \"#utility.yul\":3419:3484   */\n      tag_30\n      jump\t// in\n    tag_77:\n        /* \"#utility.yul\":3281:3491   */\n      swap3\n      swap2\n      pop\n      pop\n      jump\t// out\n        /* \"#utility.yul\":3497:3645   */\n    tag_31:\n        /* \"#utility.yul\":3599:3610   */\n      0x00\n        /* \"#utility.yul\":3636:3639   */\n      dup2\n        /* \"#utility.yul\":3621:3639   */\n      swap1\n      pop\n        /* \"#utility.yul\":3497:3645   */\n      swap3\n      swap2\n      pop\n      pop\n      jump\t// out\n        /* \"#utility.yul\":3651:3804   */\n    tag_32:\n        /* \"#utility.yul\":3791:3796   */\n      0x426f620000000000000000000000000000000000000000000000000000000000\n        /* \"#utility.yul\":3787:3788   */\n      0x00\n        /* \"#utility.yul\":3779:3785   */\n      dup3\n        /* \"#utility.yul\":3775:3789   */\n      add\n        /* \"#utility.yul\":3768:3797   */\n      mstore\n        /* \"#utility.yul\":3651:3804   */\n      pop\n      jump\t// out\n        /* \"#utility.yul\":3810:4210   */\n    tag_33:\n        /* \"#utility.yul\":3970:3973   */\n      0x00\n        /* \"#utility.yul\":3991:4075   */\n      tag_81\n        /* \"#utility.yul\":4073:4074   */\n      0x03\n        /* \"#utility.yul\":4068:4071   */\n      dup4\n        /* \"#utility.yul\":3991:4075   */\n      tag_31\n      jump\t// in\n    tag_81:\n        /* \"#utility.yul\":3984:4075   */\n      swap2\n      pop\n        /* \"#utility.yul\":4084:4177   */\n      tag_82\n        /* \"#utility.yul\":4173:4176   */\n      dup3\n        /* \"#utility.yul\":4084:4177   */\n      tag_32\n      jump\t// in\n    tag_82:\n        /* \"#utility.yul\":4202:4203   */\n      0x03\n        /* \"#utility.yul\":4197:4200   */\n      dup3\n        /* \"#utility.yul\":4193:4204   */\n      add\n        /* \"#utility.yul\":4186:4204   */\n      swap1\n      pop\n        /* \"#utility.yul\":3810:4210   */\n      swap2\n      swap1\n      pop\n      jump\t// out\n        /* \"#utility.yul\":4216:4597   */\n    tag_12:\n        /* \"#utility.yul\":4401:4404   */\n      0x00\n        /* \"#utility.yul\":4423:4571   */\n      tag_84\n        /* \"#utility.yul\":4567:4570   */\n      dup3\n        /* \"#utility.yul\":4423:4571   */\n      tag_33\n      jump\t// in\n    tag_84:\n        /* \"#utility.yul\":4416:4571   */\n      swap2\n      pop\n        /* \"#utility.yul\":4588:4591   */\n      dup2\n        /* \"#utility.yul\":4581:4591   */\n      swap1\n      pop\n        /* \"#utility.yul\":4216:4597   */\n      swap2\n      swap1\n      pop\n      jump\t// out\n        /* \"#utility.yul\":4603:4702   */\n    tag_34:\n        /* \"#utility.yul\":4655:4661   */\n      0x00\n        /* \"#utility.yul\":4689:4694   */\n      dup2\n        /* \"#utility.yul\":4683:4695   */\n      mload\n        /* \"#utility.yul\":4673:4695   */\n      swap1\n      pop\n        /* \"#utility.yul\":4603:4702   */\n      swap2\n      swap1\n      pop\n      jump\t// out\n        /* \"#utility.yul\":4708:4847   */\n    tag_35:\n        /* \"#utility.yul\":4797:4803   */\n      dup3\n        /* \"#utility.yul\":4792:4795   */\n      dup2\n        /* \"#utility.yul\":4787:4790   */\n      dup4\n        /* \"#utility.yul\":4781:4804   */\n      mcopy\n        /* \"#utility.yul\":4838:4839   */\n      0x00\n        /* \"#utility.yul\":4829:4835   */\n      dup4\n        /* \"#utility.yul\":4824:4827   */\n      dup4\n        /* \"#utility.yul\":4820:4836   */\n      add\n        /* \"#utility.yul\":4813:4840   */\n      mstore\n        /* \"#utility.yul\":4708:4847   */\n      pop\n      pop\n      pop\n      jump\t// out\n        /* \"#utility.yul\":4853:5243   */\n    tag_36:\n        /* \"#utility.yul\":4959:4962   */\n      0x00\n        /* \"#utility.yul\":4987:5026   */\n      tag_88\n        /* \"#utility.yul\":5020:5025   */\n      dup3\n        /* \"#utility.yul\":4987:5026   */\n      tag_34\n      jump\t// in\n    tag_88:\n        /* \"#utility.yul\":5042:5131   */\n      tag_89\n        /* \"#utility.yul\":5124:5130   */\n      dup2\n        /* \"#utility.yul\":5119:5122   */\n      dup6\n        /* \"#utility.yul\":5042:5131   */\n      tag_31\n      jump\t// in\n    tag_89:\n        /* \"#utility.yul\":5035:5131   */\n      swap4\n      pop\n        /* \"#utility.yul\":5140:5205   */\n      tag_90\n        /* \"#utility.yul\":5198:5204   */\n      dup2\n        /* \"#utility.yul\":5193:5196   */\n      dup6\n        /* \"#utility.yul\":5186:5190   */\n      0x20\n        /* \"#utility.yul\":5179:5184   */\n      dup7\n        /* \"#utility.yul\":5175:5191   */\n      add\n        /* \"#utility.yul\":5140:5205   */\n      tag_35\n      jump\t// in\n    tag_90:\n        /* \"#utility.yul\":5230:5236   */\n      dup1\n        /* \"#utility.yul\":5225:5228   */\n      dup5\n        /* \"#utility.yul\":5221:5237   */\n      add\n        /* \"#utility.yul\":5214:5237   */\n      swap2\n      pop\n        /* \"#utility.yul\":4963:5243   */\n      pop\n        /* \"#utility.yul\":4853:5243   */\n      swap3\n      swap2\n      pop\n      pop\n      jump\t// out\n        /* \"#utility.yul\":5249:5524   */\n    tag_14:\n        /* \"#utility.yul\":5381:5384   */\n      0x00\n        /* \"#utility.yul\":5403:5498   */\n      tag_92\n        /* \"#utility.yul\":5494:5497   */\n      dup3\n        /* \"#utility.yul\":5485:5491   */\n      dup5\n        /* \"#utility.yul\":5403:5498   */\n      tag_36\n      jump\t// in\n    tag_92:\n        /* \"#utility.yul\":5396:5498   */\n      swap2\n      pop\n        /* \"#utility.yul\":5515:5518   */\n      dup2\n        /* \"#utility.yul\":5508:5518   */\n      swap1\n      pop\n        /* \"#utility.yul\":5249:5524   */\n      swap3\n      swap2\n      pop\n      pop\n      jump\t// out\n\n    auxdata: 0xa26469706673582212203596584dfc7a57cd111d6aae3ba640f0c31fc46dee03704e9430b0ca60377b4d64736f6c634300081a0033\n}\n",
				"bytecode": {
					"linkReferences": {},
					"object": "6080604052348015600e575f80fd5b506103848061001c5f395ff3fe608060405234801561000f575f80fd5b5060043610610029575f3560e01c8063059274c91461002d575b5f80fd5b6100476004803603810190610042919061020e565b61005d565b604051610054919061026f565b60405180910390f35b5f60405160200161006d906102dc565b60405160208183030381529060405280519060200120826040516020016100949190610338565b60405160208183030381529060405280519060200120036100b857600190506100bc565b5f90505b919050565b5f604051905090565b5f80fd5b5f80fd5b5f80fd5b5f80fd5b5f601f19601f8301169050919050565b7f4e487b71000000000000000000000000000000000000000000000000000000005f52604160045260245ffd5b610120826100da565b810181811067ffffffffffffffff8211171561013f5761013e6100ea565b5b80604052505050565b5f6101516100c1565b905061015d8282610117565b919050565b5f67ffffffffffffffff82111561017c5761017b6100ea565b5b610185826100da565b9050602081019050919050565b828183375f83830152505050565b5f6101b26101ad84610162565b610148565b9050828152602081018484840111156101ce576101cd6100d6565b5b6101d9848285610192565b509392505050565b5f82601f8301126101f5576101f46100d2565b5b81356102058482602086016101a0565b91505092915050565b5f60208284031215610223576102226100ca565b5b5f82013567ffffffffffffffff8111156102405761023f6100ce565b5b61024c848285016101e1565b91505092915050565b5f8115159050919050565b61026981610255565b82525050565b5f6020820190506102825f830184610260565b92915050565b5f81905092915050565b7f426f6200000000000000000000000000000000000000000000000000000000005f82015250565b5f6102c6600383610288565b91506102d182610292565b600382019050919050565b5f6102e6826102ba565b9150819050919050565b5f81519050919050565b8281835e5f83830152505050565b5f610312826102f0565b61031c8185610288565b935061032c8185602086016102fa565b80840191505092915050565b5f6103438284610308565b91508190509291505056fea26469706673582212203596584dfc7a57cd111d6aae3ba640f0c31fc46dee03704e9430b0ca60377b4d64736f6c634300081a0033",
					"opcodes": "PUSH1 0x80 PUSH1 0x40 MSTORE CALLVALUE DUP1 ISZERO PUSH1 0xE JUMPI PUSH0 DUP1 REVERT JUMPDEST POP PUSH2 0x384 DUP1 PUSH2 0x1C PUSH0 CODECOPY PUSH0 RETURN INVALID PUSH1 0x80 PUSH1 0x40 MSTORE CALLVALUE DUP1 ISZERO PUSH2 0xF JUMPI PUSH0 DUP1 REVERT JUMPDEST POP PUSH1 0x4 CALLDATASIZE LT PUSH2 0x29 JUMPI PUSH0 CALLDATALOAD PUSH1 0xE0 SHR DUP1 PUSH4 0x59274C9 EQ PUSH2 0x2D JUMPI JUMPDEST PUSH0 DUP1 REVERT JUMPDEST PUSH2 0x47 PUSH1 0x4 DUP1 CALLDATASIZE SUB DUP2 ADD SWAP1 PUSH2 0x42 SWAP2 SWAP1 PUSH2 0x20E JUMP JUMPDEST PUSH2 0x5D JUMP JUMPDEST PUSH1 0x40 MLOAD PUSH2 0x54 SWAP2 SWAP1 PUSH2 0x26F JUMP JUMPDEST PUSH1 0x40 MLOAD DUP1 SWAP2 SUB SWAP1 RETURN JUMPDEST PUSH0 PUSH1 0x40 MLOAD PUSH1 0x20 ADD PUSH2 0x6D SWAP1 PUSH2 0x2DC JUMP JUMPDEST PUSH1 0x40 MLOAD PUSH1 0x20 DUP2 DUP4 SUB SUB DUP2 MSTORE SWAP1 PUSH1 0x40 MSTORE DUP1 MLOAD SWAP1 PUSH1 0x20 ADD KECCAK256 DUP3 PUSH1 0x40 MLOAD PUSH1 0x20 ADD PUSH2 0x94 SWAP2 SWAP1 PUSH2 0x338 JUMP JUMPDEST PUSH1 0x40 MLOAD PUSH1 0x20 DUP2 DUP4 SUB SUB DUP2 MSTORE SWAP1 PUSH1 0x40 MSTORE DUP1 MLOAD SWAP1 PUSH1 0x20 ADD KECCAK256 SUB PUSH2 0xB8 JUMPI PUSH1 0x1 SWAP1 POP PUSH2 0xBC JUMP JUMPDEST PUSH0 SWAP1 POP JUMPDEST SWAP2 SWAP1 POP JUMP JUMPDEST PUSH0 PUSH1 0x40 MLOAD SWAP1 POP SWAP1 JUMP JUMPDEST PUSH0 DUP1 REVERT JUMPDEST PUSH0 DUP1 REVERT JUMPDEST PUSH0 DUP1 REVERT JUMPDEST PUSH0 DUP1 REVERT JUMPDEST PUSH0 PUSH1 0x1F NOT PUSH1 0x1F DUP4 ADD AND SWAP1 POP SWAP2 SWAP1 POP JUMP JUMPDEST PUSH32 0x4E487B7100000000000000000000000000000000000000000000000000000000 PUSH0 MSTORE PUSH1 0x41 PUSH1 0x4 MSTORE PUSH1 0x24 PUSH0 REVERT JUMPDEST PUSH2 0x120 DUP3 PUSH2 0xDA JUMP JUMPDEST DUP2 ADD DUP2 DUP2 LT PUSH8 0xFFFFFFFFFFFFFFFF DUP3 GT OR ISZERO PUSH2 0x13F JUMPI PUSH2 0x13E PUSH2 0xEA JUMP JUMPDEST JUMPDEST DUP1 PUSH1 0x40 MSTORE POP POP POP JUMP JUMPDEST PUSH0 PUSH2 0x151 PUSH2 0xC1 JUMP JUMPDEST SWAP1 POP PUSH2 0x15D DUP3 DUP3 PUSH2 0x117 JUMP JUMPDEST SWAP2 SWAP1 POP JUMP JUMPDEST PUSH0 PUSH8 0xFFFFFFFFFFFFFFFF DUP3 GT ISZERO PUSH2 0x17C JUMPI PUSH2 0x17B PUSH2 0xEA JUMP JUMPDEST JUMPDEST PUSH2 0x185 DUP3 PUSH2 0xDA JUMP JUMPDEST SWAP1 POP PUSH1 0x20 DUP2 ADD SWAP1 POP SWAP2 SWAP1 POP JUMP JUMPDEST DUP3 DUP2 DUP4 CALLDATACOPY PUSH0 DUP4 DUP4 ADD MSTORE POP POP POP JUMP JUMPDEST PUSH0 PUSH2 0x1B2 PUSH2 0x1AD DUP5 PUSH2 0x162 JUMP JUMPDEST PUSH2 0x148 JUMP JUMPDEST SWAP1 POP DUP3 DUP2 MSTORE PUSH1 0x20 DUP2 ADD DUP5 DUP5 DUP5 ADD GT ISZERO PUSH2 0x1CE JUMPI PUSH2 0x1CD PUSH2 0xD6 JUMP JUMPDEST JUMPDEST PUSH2 0x1D9 DUP5 DUP3 DUP6 PUSH2 0x192 JUMP JUMPDEST POP SWAP4 SWAP3 POP POP POP JUMP JUMPDEST PUSH0 DUP3 PUSH1 0x1F DUP4 ADD SLT PUSH2 0x1F5 JUMPI PUSH2 0x1F4 PUSH2 0xD2 JUMP JUMPDEST JUMPDEST DUP2 CALLDATALOAD PUSH2 0x205 DUP5 DUP3 PUSH1 0x20 DUP7 ADD PUSH2 0x1A0 JUMP JUMPDEST SWAP2 POP POP SWAP3 SWAP2 POP POP JUMP JUMPDEST PUSH0 PUSH1 0x20 DUP3 DUP5 SUB SLT ISZERO PUSH2 0x223 JUMPI PUSH2 0x222 PUSH2 0xCA JUMP JUMPDEST JUMPDEST PUSH0 DUP3 ADD CALLDATALOAD PUSH8 0xFFFFFFFFFFFFFFFF DUP2 GT ISZERO PUSH2 0x240 JUMPI PUSH2 0x23F PUSH2 0xCE JUMP JUMPDEST JUMPDEST PUSH2 0x24C DUP5 DUP3 DUP6 ADD PUSH2 0x1E1 JUMP JUMPDEST SWAP2 POP POP SWAP3 SWAP2 POP POP JUMP JUMPDEST PUSH0 DUP2 ISZERO ISZERO SWAP1 POP SWAP2 SWAP1 POP JUMP JUMPDEST PUSH2 0x269 DUP2 PUSH2 0x255 JUMP JUMPDEST DUP3 MSTORE POP POP JUMP JUMPDEST PUSH0 PUSH1 0x20 DUP3 ADD SWAP1 POP PUSH2 0x282 PUSH0 DUP4 ADD DUP5 PUSH2 0x260 JUMP JUMPDEST SWAP3 SWAP2 POP POP JUMP JUMPDEST PUSH0 DUP2 SWAP1 POP SWAP3 SWAP2 POP POP JUMP JUMPDEST PUSH32 0x426F620000000000000000000000000000000000000000000000000000000000 PUSH0 DUP3 ADD MSTORE POP JUMP JUMPDEST PUSH0 PUSH2 0x2C6 PUSH1 0x3 DUP4 PUSH2 0x288 JUMP JUMPDEST SWAP2 POP PUSH2 0x2D1 DUP3 PUSH2 0x292 JUMP JUMPDEST PUSH1 0x3 DUP3 ADD SWAP1 POP SWAP2 SWAP1 POP JUMP JUMPDEST PUSH0 PUSH2 0x2E6 DUP3 PUSH2 0x2BA JUMP JUMPDEST SWAP2 POP DUP2 SWAP1 POP SWAP2 SWAP1 POP JUMP JUMPDEST PUSH0 DUP2 MLOAD SWAP1 POP SWAP2 SWAP1 POP JUMP JUMPDEST DUP3 DUP2 DUP4 MCOPY PUSH0 DUP4 DUP4 ADD MSTORE POP POP POP JUMP JUMPDEST PUSH0 PUSH2 0x312 DUP3 PUSH2 0x2F0 JUMP JUMPDEST PUSH2 0x31C DUP2 DUP6 PUSH2 0x288 JUMP JUMPDEST SWAP4 POP PUSH2 0x32C DUP2 DUP6 PUSH1 0x20 DUP7 ADD PUSH2 0x2FA JUMP JUMPDEST DUP1 DUP5 ADD SWAP2 POP POP SWAP3 SWAP2 POP POP JUMP JUMPDEST PUSH0 PUSH2 0x343 DUP3 DUP5 PUSH2 0x308 JUMP JUMPDEST SWAP2 POP DUP2 SWAP1 POP SWAP3 SWAP2 POP POP JUMP INVALID LOG2 PUSH5 0x6970667358 0x22 SLT KECCAK256 CALLDATALOAD SWAP7 PC 0x4D 0xFC PUSH27 0x57CD111D6AAE3BA640F0C31FC46DEE03704E9430B0CA60377B4D64 PUSH20 0x6F6C634300081A00330000000000000000000000 "
				},
				"gasEstimates": {
					"creation": {
						"codeDepositCost": "180000",
						"executionCost": "224",
						"totalCost": "180224"
					},
					"external": {
						"a(string)": "infinite"
					}
				},
				"methodIdentifiers": {
					"a(string)": "059274c9"
				}
			},
			"storageLayout": {
				"storage": [],
				"types": null
			},
			"userdoc": {
				"kind": "user",
				"methods": {},
				"version": 1
			}
		}
	}
}