{
	"Solidity100/sole100(31~40).sol": {
		"Q34": {
			"abi": [
				{
					"inputs": [],
					"name": "getAverage",
					"outputs": [
						{
							"internalType": "uint256",
							"name": "",
							"type": "uint256"
						}
					],
					"stateMutability": "view",
					"type": "function"
				}
			],
			"devdoc": {
				"kind": "dev",
				"methods": {},
				"version": 1
			},
			"evm": {
				"assembly": "    /* \"Solidity100/sole100(31~40).sol\":1760:2276  contract Q34 {... */\n  mstore(0x40, 0x80)\n  callvalue\n  dup1\n  iszero\n  tag_1\n  jumpi\n  0x00\n  dup1\n  revert\ntag_1:\n  pop\n  dataSize(sub_0)\n  dup1\n  dataOffset(sub_0)\n  0x00\n  codecopy\n  0x00\n  return\nstop\n\nsub_0: assembly {\n        /* \"Solidity100/sole100(31~40).sol\":1760:2276  contract Q34 {... */\n      mstore(0x40, 0x80)\n      callvalue\n      dup1\n      iszero\n      tag_1\n      jumpi\n      0x00\n      dup1\n      revert\n    tag_1:\n      pop\n      jumpi(tag_2, lt(calldatasize, 0x04))\n      shr(0xe0, calldataload(0x00))\n      dup1\n      0x21055acb\n      eq\n      tag_3\n      jumpi\n    tag_2:\n      0x00\n      dup1\n      revert\n        /* \"Solidity100/sole100(31~40).sol\":2122:2269  function getAverage() public view returns(uint) {... */\n    tag_3:\n      tag_4\n      tag_5\n      jump\t// in\n    tag_4:\n      mload(0x40)\n      tag_6\n      swap2\n      swap1\n      tag_7\n      jump\t// in\n    tag_6:\n      mload(0x40)\n      dup1\n      swap2\n      sub\n      swap1\n      return\n    tag_5:\n        /* \"Solidity100/sole100(31~40).sol\":2164:2168  uint */\n      0x00\n        /* \"Solidity100/sole100(31~40).sol\":2181:2187  uint i */\n      dup1\n        /* \"Solidity100/sole100(31~40).sol\":2207:2208  0 */\n      0x00\n        /* \"Solidity100/sole100(31~40).sol\":2203:2208  i = 0 */\n      swap1\n      pop\n        /* \"Solidity100/sole100(31~40).sol\":2198:2262  for (i = 0; i < students.length; i++) {... */\n    tag_9:\n        /* \"Solidity100/sole100(31~40).sol\":2214:2222  students */\n      0x00\n        /* \"Solidity100/sole100(31~40).sol\":2214:2229  students.length */\n      dup1\n      sload\n      swap1\n      pop\n        /* \"Solidity100/sole100(31~40).sol\":2210:2211  i */\n      dup2\n        /* \"Solidity100/sole100(31~40).sol\":2210:2229  i < students.length */\n      lt\n        /* \"Solidity100/sole100(31~40).sol\":2198:2262  for (i = 0; i < students.length; i++) {... */\n      iszero\n      tag_10\n      jumpi\n        /* \"Solidity100/sole100(31~40).sol\":2231:2234  i++ */\n      dup1\n      dup1\n      0x01\n      add\n      swap2\n      pop\n      pop\n        /* \"Solidity100/sole100(31~40).sol\":2198:2262  for (i = 0; i < students.length; i++) {... */\n      jump(tag_9)\n    tag_10:\n        /* \"Solidity100/sole100(31~40).sol\":2170:2269  {... */\n      pop\n        /* \"Solidity100/sole100(31~40).sol\":2122:2269  function getAverage() public view returns(uint) {... */\n      swap1\n      jump\t// out\n        /* \"#utility.yul\":7:84   */\n    tag_12:\n        /* \"#utility.yul\":44:51   */\n      0x00\n        /* \"#utility.yul\":73:78   */\n      dup2\n        /* \"#utility.yul\":62:78   */\n      swap1\n      pop\n        /* \"#utility.yul\":7:84   */\n      swap2\n      swap1\n      pop\n      jump\t// out\n        /* \"#utility.yul\":90:208   */\n    tag_13:\n        /* \"#utility.yul\":177:201   */\n      tag_17\n        /* \"#utility.yul\":195:200   */\n      dup2\n        /* \"#utility.yul\":177:201   */\n      tag_12\n      jump\t// in\n    tag_17:\n        /* \"#utility.yul\":172:175   */\n      dup3\n        /* \"#utility.yul\":165:202   */\n      mstore\n        /* \"#utility.yul\":90:208   */\n      pop\n      pop\n      jump\t// out\n        /* \"#utility.yul\":214:436   */\n    tag_7:\n        /* \"#utility.yul\":307:311   */\n      0x00\n        /* \"#utility.yul\":345:347   */\n      0x20\n        /* \"#utility.yul\":334:343   */\n      dup3\n        /* \"#utility.yul\":330:348   */\n      add\n        /* \"#utility.yul\":322:348   */\n      swap1\n      pop\n        /* \"#utility.yul\":358:429   */\n      tag_19\n        /* \"#utility.yul\":426:427   */\n      0x00\n        /* \"#utility.yul\":415:424   */\n      dup4\n        /* \"#utility.yul\":411:428   */\n      add\n        /* \"#utility.yul\":402:408   */\n      dup5\n        /* \"#utility.yul\":358:429   */\n      tag_13\n      jump\t// in\n    tag_19:\n        /* \"#utility.yul\":214:436   */\n      swap3\n      swap2\n      pop\n      pop\n      jump\t// out\n\n    auxdata: 0xa2646970667358221220e0f6c026f7d7a925973ce02ff02056952fc4fefdc5a5067bf6ae60565187f1b964736f6c634300081a0033\n}\n",
				"bytecode": {
					"linkReferences": {},
					"object": "6080604052348015600e575f80fd5b5060c880601a5f395ff3fe6080604052348015600e575f80fd5b50600436106026575f3560e01c806321055acb14602a575b5f80fd5b60306044565b604051603b9190607b565b60405180910390f35b5f805f90505b5f805490508110156061578080600101915050604a565b5090565b5f819050919050565b6075816065565b82525050565b5f602082019050608c5f830184606e565b9291505056fea2646970667358221220e0f6c026f7d7a925973ce02ff02056952fc4fefdc5a5067bf6ae60565187f1b964736f6c634300081a0033",
					"opcodes": "PUSH1 0x80 PUSH1 0x40 MSTORE CALLVALUE DUP1 ISZERO PUSH1 0xE JUMPI PUSH0 DUP1 REVERT JUMPDEST POP PUSH1 0xC8 DUP1 PUSH1 0x1A PUSH0 CODECOPY PUSH0 RETURN INVALID PUSH1 0x80 PUSH1 0x40 MSTORE CALLVALUE DUP1 ISZERO PUSH1 0xE JUMPI PUSH0 DUP1 REVERT JUMPDEST POP PUSH1 0x4 CALLDATASIZE LT PUSH1 0x26 JUMPI PUSH0 CALLDATALOAD PUSH1 0xE0 SHR DUP1 PUSH4 0x21055ACB EQ PUSH1 0x2A JUMPI JUMPDEST PUSH0 DUP1 REVERT JUMPDEST PUSH1 0x30 PUSH1 0x44 JUMP JUMPDEST PUSH1 0x40 MLOAD PUSH1 0x3B SWAP2 SWAP1 PUSH1 0x7B JUMP JUMPDEST PUSH1 0x40 MLOAD DUP1 SWAP2 SUB SWAP1 RETURN JUMPDEST PUSH0 DUP1 PUSH0 SWAP1 POP JUMPDEST PUSH0 DUP1 SLOAD SWAP1 POP DUP2 LT ISZERO PUSH1 0x61 JUMPI DUP1 DUP1 PUSH1 0x1 ADD SWAP2 POP POP PUSH1 0x4A JUMP JUMPDEST POP SWAP1 JUMP JUMPDEST PUSH0 DUP2 SWAP1 POP SWAP2 SWAP1 POP JUMP JUMPDEST PUSH1 0x75 DUP2 PUSH1 0x65 JUMP JUMPDEST DUP3 MSTORE POP POP JUMP JUMPDEST PUSH0 PUSH1 0x20 DUP3 ADD SWAP1 POP PUSH1 0x8C PUSH0 DUP4 ADD DUP5 PUSH1 0x6E JUMP JUMPDEST SWAP3 SWAP2 POP POP JUMP INVALID LOG2 PUSH5 0x6970667358 0x22 SLT KECCAK256 0xE0 0xF6 0xC0 0x26 0xF7 0xD7 0xA9 0x25 SWAP8 EXTCODECOPY 0xE0 0x2F CREATE KECCAK256 JUMP SWAP6 0x2F 0xC4 INVALID REVERT 0xC5 0xA5 MOD PUSH28 0xF6AE60565187F1B964736F6C634300081A0033000000000000000000 "
				},
				"gasEstimates": {
					"creation": {
						"codeDepositCost": "40000",
						"executionCost": "91",
						"totalCost": "40091"
					},
					"external": {
						"getAverage()": "infinite"
					}
				},
				"methodIdentifiers": {
					"getAverage()": "21055acb"
				}
			},
			"storageLayout": {
				"storage": [
					{
						"astId": 136,
						"contract": "Solidity100/sole100(31~40).sol:Q34",
						"label": "students",
						"offset": 0,
						"slot": "0",
						"type": "t_array(t_struct(student)132_storage)dyn_storage"
					}
				],
				"types": {
					"t_array(t_struct(student)132_storage)dyn_storage": {
						"base": "t_struct(student)132_storage",
						"encoding": "dynamic_array",
						"label": "struct Q34.student[]",
						"numberOfBytes": "32"
					},
					"t_string_storage": {
						"encoding": "bytes",
						"label": "string",
						"numberOfBytes": "32"
					},
					"t_struct(student)132_storage": {
						"encoding": "inplace",
						"label": "struct Q34.student",
						"members": [
							{
								"astId": 127,
								"contract": "Solidity100/sole100(31~40).sol:Q34",
								"label": "name",
								"offset": 0,
								"slot": "0",
								"type": "t_string_storage"
							},
							{
								"astId": 129,
								"contract": "Solidity100/sole100(31~40).sol:Q34",
								"label": "num",
								"offset": 0,
								"slot": "1",
								"type": "t_uint256"
							},
							{
								"astId": 131,
								"contract": "Solidity100/sole100(31~40).sol:Q34",
								"label": "score",
								"offset": 0,
								"slot": "2",
								"type": "t_uint256"
							}
						],
						"numberOfBytes": "96"
					},
					"t_uint256": {
						"encoding": "inplace",
						"label": "uint256",
						"numberOfBytes": "32"
					}
				}
			},
			"userdoc": {
				"kind": "user",
				"methods": {},
				"version": 1
			}
		}
	}
}