{
	"Solidity100/sole100(31~40).sol": {
		"Q36": {
			"abi": [
				{
					"inputs": [
						{
							"internalType": "uint256",
							"name": "_a",
							"type": "uint256"
						}
					],
					"name": "ENUM",
					"outputs": [
						{
							"internalType": "enum Q36.Status",
							"name": "",
							"type": "uint8"
						}
					],
					"stateMutability": "nonpayable",
					"type": "function"
				},
				{
					"inputs": [],
					"name": "s1",
					"outputs": [
						{
							"internalType": "enum Q36.Status",
							"name": "",
							"type": "uint8"
						}
					],
					"stateMutability": "view",
					"type": "function"
				}
			],
			"devdoc": {
				"kind": "dev",
				"methods": {},
				"version": 1
			},
			"evm": {
				"assembly": "    /* \"Solidity100/sole100(31~40).sol\":3431:4018  contract Q36 {... */\n  mstore(0x40, 0x80)\n  callvalue\n  dup1\n  iszero\n  tag_1\n  jumpi\n  0x00\n  dup1\n  revert\ntag_1:\n  pop\n  dataSize(sub_0)\n  dup1\n  dataOffset(sub_0)\n  0x00\n  codecopy\n  0x00\n  return\nstop\n\nsub_0: assembly {\n        /* \"Solidity100/sole100(31~40).sol\":3431:4018  contract Q36 {... */\n      mstore(0x40, 0x80)\n      callvalue\n      dup1\n      iszero\n      tag_1\n      jumpi\n      0x00\n      dup1\n      revert\n    tag_1:\n      pop\n      jumpi(tag_2, lt(calldatasize, 0x04))\n      shr(0xe0, calldataload(0x00))\n      dup1\n      0x6cc014de\n      eq\n      tag_3\n      jumpi\n      dup1\n      0xa4faeed3\n      eq\n      tag_4\n      jumpi\n    tag_2:\n      0x00\n      dup1\n      revert\n        /* \"Solidity100/sole100(31~40).sol\":3732:3748  Status public s1 */\n    tag_3:\n      tag_5\n      tag_6\n      jump\t// in\n    tag_5:\n      mload(0x40)\n      tag_7\n      swap2\n      swap1\n      tag_8\n      jump\t// in\n    tag_7:\n      mload(0x40)\n      dup1\n      swap2\n      sub\n      swap1\n      return\n        /* \"Solidity100/sole100(31~40).sol\":3757:4008  function ENUM(uint _a) public returns(Status) {... */\n    tag_4:\n      tag_9\n      0x04\n      dup1\n      calldatasize\n      sub\n      dup2\n      add\n      swap1\n      tag_10\n      swap2\n      swap1\n      tag_11\n      jump\t// in\n    tag_10:\n      tag_12\n      jump\t// in\n    tag_9:\n      mload(0x40)\n      tag_13\n      swap2\n      swap1\n      tag_8\n      jump\t// in\n    tag_13:\n      mload(0x40)\n      dup1\n      swap2\n      sub\n      swap1\n      return\n        /* \"Solidity100/sole100(31~40).sol\":3732:3748  Status public s1 */\n    tag_6:\n      0x00\n      dup1\n      sload\n      swap1\n      0x0100\n      exp\n      swap1\n      div\n      0xff\n      and\n      dup2\n      jump\t// out\n        /* \"Solidity100/sole100(31~40).sol\":3757:4008  function ENUM(uint _a) public returns(Status) {... */\n    tag_12:\n        /* \"Solidity100/sole100(31~40).sol\":3795:3801  Status */\n      0x00\n        /* \"Solidity100/sole100(31~40).sol\":3824:3825  7 */\n      0x07\n        /* \"Solidity100/sole100(31~40).sol\":3818:3820  _a */\n      dup3\n        /* \"Solidity100/sole100(31~40).sol\":3818:3825  _a >= 7 */\n      lt\n        /* \"Solidity100/sole100(31~40).sol\":3814:4001  if (_a >= 7) {... */\n      tag_15\n      jumpi\n        /* \"Solidity100/sole100(31~40).sol\":3853:3864  Status.high */\n      0x00\n        /* \"Solidity100/sole100(31~40).sol\":3848:3850  s1 */\n      dup1\n      0x00\n        /* \"Solidity100/sole100(31~40).sol\":3848:3864  s1 = Status.high */\n      0x0100\n      exp\n      dup2\n      sload\n      dup2\n      0xff\n      mul\n      not\n      and\n      swap1\n      dup4\n      0x02\n      dup2\n      gt\n      iszero\n      tag_16\n      jumpi\n      tag_17\n      tag_18\n      jump\t// in\n    tag_17:\n    tag_16:\n      mul\n      or\n      swap1\n      sstore\n        /* \"Solidity100/sole100(31~40).sol\":3840:3864  return  s1 = Status.high */\n      swap1\n      pop\n      jump(tag_14)\n        /* \"Solidity100/sole100(31~40).sol\":3814:4001  if (_a >= 7) {... */\n    tag_15:\n        /* \"Solidity100/sole100(31~40).sol\":3892:3893  4 */\n      0x04\n        /* \"Solidity100/sole100(31~40).sol\":3886:3888  _a */\n      dup3\n        /* \"Solidity100/sole100(31~40).sol\":3886:3893  _a >= 4 */\n      lt\n        /* \"Solidity100/sole100(31~40).sol\":3882:4001  if (_a >= 4) {... */\n      tag_20\n      jumpi\n        /* \"Solidity100/sole100(31~40).sol\":3921:3935  Status.neutral */\n      0x01\n        /* \"Solidity100/sole100(31~40).sol\":3916:3918  s1 */\n      0x00\n      dup1\n        /* \"Solidity100/sole100(31~40).sol\":3916:3935  s1 = Status.neutral */\n      0x0100\n      exp\n      dup2\n      sload\n      dup2\n      0xff\n      mul\n      not\n      and\n      swap1\n      dup4\n      0x02\n      dup2\n      gt\n      iszero\n      tag_21\n      jumpi\n      tag_22\n      tag_18\n      jump\t// in\n    tag_22:\n    tag_21:\n      mul\n      or\n      swap1\n      sstore\n        /* \"Solidity100/sole100(31~40).sol\":3908:3935  return  s1 = Status.neutral */\n      swap1\n      pop\n      jump(tag_14)\n        /* \"Solidity100/sole100(31~40).sol\":3882:4001  if (_a >= 4) {... */\n    tag_20:\n        /* \"Solidity100/sole100(31~40).sol\":3979:3989  Status.low */\n      0x02\n        /* \"Solidity100/sole100(31~40).sol\":3974:3976  s1 */\n      0x00\n      dup1\n        /* \"Solidity100/sole100(31~40).sol\":3974:3989  s1 = Status.low */\n      0x0100\n      exp\n      dup2\n      sload\n      dup2\n      0xff\n      mul\n      not\n      and\n      swap1\n      dup4\n      0x02\n      dup2\n      gt\n      iszero\n      tag_24\n      jumpi\n      tag_25\n      tag_18\n      jump\t// in\n    tag_25:\n    tag_24:\n      mul\n      or\n      swap1\n      sstore\n        /* \"Solidity100/sole100(31~40).sol\":3965:3989  return   s1 = Status.low */\n      swap1\n      pop\n        /* \"Solidity100/sole100(31~40).sol\":3757:4008  function ENUM(uint _a) public returns(Status) {... */\n    tag_14:\n      swap2\n      swap1\n      pop\n      jump\t// out\n        /* \"#utility.yul\":7:187   */\n    tag_18:\n        /* \"#utility.yul\":55:132   */\n      0x4e487b7100000000000000000000000000000000000000000000000000000000\n        /* \"#utility.yul\":52:53   */\n      0x00\n        /* \"#utility.yul\":45:133   */\n      mstore\n        /* \"#utility.yul\":152:156   */\n      0x21\n        /* \"#utility.yul\":149:150   */\n      0x04\n        /* \"#utility.yul\":142:157   */\n      mstore\n        /* \"#utility.yul\":176:180   */\n      0x24\n        /* \"#utility.yul\":173:174   */\n      0x00\n        /* \"#utility.yul\":166:181   */\n      revert\n        /* \"#utility.yul\":193:308   */\n    tag_26:\n        /* \"#utility.yul\":276:277   */\n      0x03\n        /* \"#utility.yul\":269:274   */\n      dup2\n        /* \"#utility.yul\":266:278   */\n      lt\n        /* \"#utility.yul\":256:302   */\n      tag_39\n      jumpi\n        /* \"#utility.yul\":282:300   */\n      tag_40\n      tag_18\n      jump\t// in\n    tag_40:\n        /* \"#utility.yul\":256:302   */\n    tag_39:\n        /* \"#utility.yul\":193:308   */\n      pop\n      jump\t// out\n        /* \"#utility.yul\":314:445   */\n    tag_27:\n        /* \"#utility.yul\":361:368   */\n      0x00\n        /* \"#utility.yul\":390:395   */\n      dup2\n        /* \"#utility.yul\":379:395   */\n      swap1\n      pop\n        /* \"#utility.yul\":396:439   */\n      tag_42\n        /* \"#utility.yul\":433:438   */\n      dup3\n        /* \"#utility.yul\":396:439   */\n      tag_26\n      jump\t// in\n    tag_42:\n        /* \"#utility.yul\":314:445   */\n      swap2\n      swap1\n      pop\n      jump\t// out\n        /* \"#utility.yul\":451:582   */\n    tag_28:\n        /* \"#utility.yul\":509:518   */\n      0x00\n        /* \"#utility.yul\":542:576   */\n      tag_44\n        /* \"#utility.yul\":570:575   */\n      dup3\n        /* \"#utility.yul\":542:576   */\n      tag_27\n      jump\t// in\n    tag_44:\n        /* \"#utility.yul\":529:576   */\n      swap1\n      pop\n        /* \"#utility.yul\":451:582   */\n      swap2\n      swap1\n      pop\n      jump\t// out\n        /* \"#utility.yul\":588:735   */\n    tag_29:\n        /* \"#utility.yul\":683:728   */\n      tag_46\n        /* \"#utility.yul\":722:727   */\n      dup2\n        /* \"#utility.yul\":683:728   */\n      tag_28\n      jump\t// in\n    tag_46:\n        /* \"#utility.yul\":678:681   */\n      dup3\n        /* \"#utility.yul\":671:729   */\n      mstore\n        /* \"#utility.yul\":588:735   */\n      pop\n      pop\n      jump\t// out\n        /* \"#utility.yul\":741:979   */\n    tag_8:\n        /* \"#utility.yul\":842:846   */\n      0x00\n        /* \"#utility.yul\":880:882   */\n      0x20\n        /* \"#utility.yul\":869:878   */\n      dup3\n        /* \"#utility.yul\":865:883   */\n      add\n        /* \"#utility.yul\":857:883   */\n      swap1\n      pop\n        /* \"#utility.yul\":893:972   */\n      tag_48\n        /* \"#utility.yul\":969:970   */\n      0x00\n        /* \"#utility.yul\":958:967   */\n      dup4\n        /* \"#utility.yul\":954:971   */\n      add\n        /* \"#utility.yul\":945:951   */\n      dup5\n        /* \"#utility.yul\":893:972   */\n      tag_29\n      jump\t// in\n    tag_48:\n        /* \"#utility.yul\":741:979   */\n      swap3\n      swap2\n      pop\n      pop\n      jump\t// out\n        /* \"#utility.yul\":1066:1183   */\n    tag_31:\n        /* \"#utility.yul\":1175:1176   */\n      0x00\n        /* \"#utility.yul\":1172:1173   */\n      dup1\n        /* \"#utility.yul\":1165:1177   */\n      revert\n        /* \"#utility.yul\":1312:1389   */\n    tag_33:\n        /* \"#utility.yul\":1349:1356   */\n      0x00\n        /* \"#utility.yul\":1378:1383   */\n      dup2\n        /* \"#utility.yul\":1367:1383   */\n      swap1\n      pop\n        /* \"#utility.yul\":1312:1389   */\n      swap2\n      swap1\n      pop\n      jump\t// out\n        /* \"#utility.yul\":1395:1517   */\n    tag_34:\n        /* \"#utility.yul\":1468:1492   */\n      tag_54\n        /* \"#utility.yul\":1486:1491   */\n      dup2\n        /* \"#utility.yul\":1468:1492   */\n      tag_33\n      jump\t// in\n    tag_54:\n        /* \"#utility.yul\":1461:1466   */\n      dup2\n        /* \"#utility.yul\":1458:1493   */\n      eq\n        /* \"#utility.yul\":1448:1511   */\n      tag_55\n      jumpi\n        /* \"#utility.yul\":1507:1508   */\n      0x00\n        /* \"#utility.yul\":1504:1505   */\n      dup1\n        /* \"#utility.yul\":1497:1509   */\n      revert\n        /* \"#utility.yul\":1448:1511   */\n    tag_55:\n        /* \"#utility.yul\":1395:1517   */\n      pop\n      jump\t// out\n        /* \"#utility.yul\":1523:1662   */\n    tag_35:\n        /* \"#utility.yul\":1569:1574   */\n      0x00\n        /* \"#utility.yul\":1607:1613   */\n      dup2\n        /* \"#utility.yul\":1594:1614   */\n      calldataload\n        /* \"#utility.yul\":1585:1614   */\n      swap1\n      pop\n        /* \"#utility.yul\":1623:1656   */\n      tag_57\n        /* \"#utility.yul\":1650:1655   */\n      dup2\n        /* \"#utility.yul\":1623:1656   */\n      tag_34\n      jump\t// in\n    tag_57:\n        /* \"#utility.yul\":1523:1662   */\n      swap3\n      swap2\n      pop\n      pop\n      jump\t// out\n        /* \"#utility.yul\":1668:1997   */\n    tag_11:\n        /* \"#utility.yul\":1727:1733   */\n      0x00\n        /* \"#utility.yul\":1776:1778   */\n      0x20\n        /* \"#utility.yul\":1764:1773   */\n      dup3\n        /* \"#utility.yul\":1755:1762   */\n      dup5\n        /* \"#utility.yul\":1751:1774   */\n      sub\n        /* \"#utility.yul\":1747:1779   */\n      slt\n        /* \"#utility.yul\":1744:1863   */\n      iszero\n      tag_59\n      jumpi\n        /* \"#utility.yul\":1782:1861   */\n      tag_60\n      tag_31\n      jump\t// in\n    tag_60:\n        /* \"#utility.yul\":1744:1863   */\n    tag_59:\n        /* \"#utility.yul\":1902:1903   */\n      0x00\n        /* \"#utility.yul\":1927:1980   */\n      tag_61\n        /* \"#utility.yul\":1972:1979   */\n      dup5\n        /* \"#utility.yul\":1963:1969   */\n      dup3\n        /* \"#utility.yul\":1952:1961   */\n      dup6\n        /* \"#utility.yul\":1948:1970   */\n      add\n        /* \"#utility.yul\":1927:1980   */\n      tag_35\n      jump\t// in\n    tag_61:\n        /* \"#utility.yul\":1917:1980   */\n      swap2\n      pop\n        /* \"#utility.yul\":1873:1990   */\n      pop\n        /* \"#utility.yul\":1668:1997   */\n      swap3\n      swap2\n      pop\n      pop\n      jump\t// out\n\n    auxdata: 0xa26469706673582212206f66c4e72ac2beead7f88487a990ecdeb4c8b037d23d9a30f35c11a303508eca64736f6c634300081a0033\n}\n",
				"bytecode": {
					"linkReferences": {},
					"object": "6080604052348015600e575f80fd5b506102588061001c5f395ff3fe608060405234801561000f575f80fd5b5060043610610034575f3560e01c80636cc014de14610038578063a4faeed314610056575b5f80fd5b610040610086565b60405161004d91906101a7565b60405180910390f35b610070600480360381019061006b91906101f7565b610096565b60405161007d91906101a7565b60405180910390f35b5f8054906101000a900460ff1681565b5f600782106100cd575f805f6101000a81548160ff021916908360028111156100c2576100c1610134565b5b02179055905061012f565b600482106101045760015f806101000a81548160ff021916908360028111156100f9576100f8610134565b5b02179055905061012f565b60025f806101000a81548160ff0219169083600281111561012857610127610134565b5b0217905590505b919050565b7f4e487b71000000000000000000000000000000000000000000000000000000005f52602160045260245ffd5b6003811061017257610171610134565b5b50565b5f81905061018282610161565b919050565b5f61019182610175565b9050919050565b6101a181610187565b82525050565b5f6020820190506101ba5f830184610198565b92915050565b5f80fd5b5f819050919050565b6101d6816101c4565b81146101e0575f80fd5b50565b5f813590506101f1816101cd565b92915050565b5f6020828403121561020c5761020b6101c0565b5b5f610219848285016101e3565b9150509291505056fea26469706673582212206f66c4e72ac2beead7f88487a990ecdeb4c8b037d23d9a30f35c11a303508eca64736f6c634300081a0033",
					"opcodes": "PUSH1 0x80 PUSH1 0x40 MSTORE CALLVALUE DUP1 ISZERO PUSH1 0xE JUMPI PUSH0 DUP1 REVERT JUMPDEST POP PUSH2 0x258 DUP1 PUSH2 0x1C PUSH0 CODECOPY PUSH0 RETURN INVALID PUSH1 0x80 PUSH1 0x40 MSTORE CALLVALUE DUP1 ISZERO PUSH2 0xF JUMPI PUSH0 DUP1 REVERT JUMPDEST POP PUSH1 0x4 CALLDATASIZE LT PUSH2 0x34 JUMPI PUSH0 CALLDATALOAD PUSH1 0xE0 SHR DUP1 PUSH4 0x6CC014DE EQ PUSH2 0x38 JUMPI DUP1 PUSH4 0xA4FAEED3 EQ PUSH2 0x56 JUMPI JUMPDEST PUSH0 DUP1 REVERT JUMPDEST PUSH2 0x40 PUSH2 0x86 JUMP JUMPDEST PUSH1 0x40 MLOAD PUSH2 0x4D SWAP2 SWAP1 PUSH2 0x1A7 JUMP JUMPDEST PUSH1 0x40 MLOAD DUP1 SWAP2 SUB SWAP1 RETURN JUMPDEST PUSH2 0x70 PUSH1 0x4 DUP1 CALLDATASIZE SUB DUP2 ADD SWAP1 PUSH2 0x6B SWAP2 SWAP1 PUSH2 0x1F7 JUMP JUMPDEST PUSH2 0x96 JUMP JUMPDEST PUSH1 0x40 MLOAD PUSH2 0x7D SWAP2 SWAP1 PUSH2 0x1A7 JUMP JUMPDEST PUSH1 0x40 MLOAD DUP1 SWAP2 SUB SWAP1 RETURN JUMPDEST PUSH0 DUP1 SLOAD SWAP1 PUSH2 0x100 EXP SWAP1 DIV PUSH1 0xFF AND DUP2 JUMP JUMPDEST PUSH0 PUSH1 0x7 DUP3 LT PUSH2 0xCD JUMPI PUSH0 DUP1 PUSH0 PUSH2 0x100 EXP DUP2 SLOAD DUP2 PUSH1 0xFF MUL NOT AND SWAP1 DUP4 PUSH1 0x2 DUP2 GT ISZERO PUSH2 0xC2 JUMPI PUSH2 0xC1 PUSH2 0x134 JUMP JUMPDEST JUMPDEST MUL OR SWAP1 SSTORE SWAP1 POP PUSH2 0x12F JUMP JUMPDEST PUSH1 0x4 DUP3 LT PUSH2 0x104 JUMPI PUSH1 0x1 PUSH0 DUP1 PUSH2 0x100 EXP DUP2 SLOAD DUP2 PUSH1 0xFF MUL NOT AND SWAP1 DUP4 PUSH1 0x2 DUP2 GT ISZERO PUSH2 0xF9 JUMPI PUSH2 0xF8 PUSH2 0x134 JUMP JUMPDEST JUMPDEST MUL OR SWAP1 SSTORE SWAP1 POP PUSH2 0x12F JUMP JUMPDEST PUSH1 0x2 PUSH0 DUP1 PUSH2 0x100 EXP DUP2 SLOAD DUP2 PUSH1 0xFF MUL NOT AND SWAP1 DUP4 PUSH1 0x2 DUP2 GT ISZERO PUSH2 0x128 JUMPI PUSH2 0x127 PUSH2 0x134 JUMP JUMPDEST JUMPDEST MUL OR SWAP1 SSTORE SWAP1 POP JUMPDEST SWAP2 SWAP1 POP JUMP JUMPDEST PUSH32 0x4E487B7100000000000000000000000000000000000000000000000000000000 PUSH0 MSTORE PUSH1 0x21 PUSH1 0x4 MSTORE PUSH1 0x24 PUSH0 REVERT JUMPDEST PUSH1 0x3 DUP2 LT PUSH2 0x172 JUMPI PUSH2 0x171 PUSH2 0x134 JUMP JUMPDEST JUMPDEST POP JUMP JUMPDEST PUSH0 DUP2 SWAP1 POP PUSH2 0x182 DUP3 PUSH2 0x161 JUMP JUMPDEST SWAP2 SWAP1 POP JUMP JUMPDEST PUSH0 PUSH2 0x191 DUP3 PUSH2 0x175 JUMP JUMPDEST SWAP1 POP SWAP2 SWAP1 POP JUMP JUMPDEST PUSH2 0x1A1 DUP2 PUSH2 0x187 JUMP JUMPDEST DUP3 MSTORE POP POP JUMP JUMPDEST PUSH0 PUSH1 0x20 DUP3 ADD SWAP1 POP PUSH2 0x1BA PUSH0 DUP4 ADD DUP5 PUSH2 0x198 JUMP JUMPDEST SWAP3 SWAP2 POP POP JUMP JUMPDEST PUSH0 DUP1 REVERT JUMPDEST PUSH0 DUP2 SWAP1 POP SWAP2 SWAP1 POP JUMP JUMPDEST PUSH2 0x1D6 DUP2 PUSH2 0x1C4 JUMP JUMPDEST DUP2 EQ PUSH2 0x1E0 JUMPI PUSH0 DUP1 REVERT JUMPDEST POP JUMP JUMPDEST PUSH0 DUP2 CALLDATALOAD SWAP1 POP PUSH2 0x1F1 DUP2 PUSH2 0x1CD JUMP JUMPDEST SWAP3 SWAP2 POP POP JUMP JUMPDEST PUSH0 PUSH1 0x20 DUP3 DUP5 SUB SLT ISZERO PUSH2 0x20C JUMPI PUSH2 0x20B PUSH2 0x1C0 JUMP JUMPDEST JUMPDEST PUSH0 PUSH2 0x219 DUP5 DUP3 DUP6 ADD PUSH2 0x1E3 JUMP JUMPDEST SWAP2 POP POP SWAP3 SWAP2 POP POP JUMP INVALID LOG2 PUSH5 0x6970667358 0x22 SLT KECCAK256 PUSH16 0x66C4E72AC2BEEAD7F88487A990ECDEB4 0xC8 0xB0 CALLDATACOPY 0xD2 RETURNDATASIZE SWAP11 ADDRESS RETURN TLOAD GT LOG3 SUB POP DUP15 0xCA PUSH5 0x736F6C6343 STOP ADDMOD BYTE STOP CALLER "
				},
				"gasEstimates": {
					"creation": {
						"codeDepositCost": "120000",
						"executionCost": "163",
						"totalCost": "120163"
					},
					"external": {
						"ENUM(uint256)": "25025",
						"s1()": "2529"
					}
				},
				"methodIdentifiers": {
					"ENUM(uint256)": "a4faeed3",
					"s1()": "6cc014de"
				}
			},
			"storageLayout": {
				"storage": [
					{
						"astId": 298,
						"contract": "Solidity100/sole100(31~40).sol:Q36",
						"label": "s1",
						"offset": 0,
						"slot": "0",
						"type": "t_enum(Status)295"
					}
				],
				"types": {
					"t_enum(Status)295": {
						"encoding": "inplace",
						"label": "enum Q36.Status",
						"numberOfBytes": "1"
					}
				}
			},
			"userdoc": {
				"kind": "user",
				"methods": {},
				"version": 1
			}
		}
	}
}