{
	"Solidity100/sole100(31~40).sol": {
		"Q39": {
			"abi": [
				{
					"inputs": [
						{
							"internalType": "uint256",
							"name": "_n",
							"type": "uint256"
						}
					],
					"name": "getNum",
					"outputs": [
						{
							"internalType": "uint256",
							"name": "",
							"type": "uint256"
						},
						{
							"internalType": "uint256",
							"name": "",
							"type": "uint256"
						},
						{
							"internalType": "uint256",
							"name": "",
							"type": "uint256"
						},
						{
							"internalType": "uint256",
							"name": "",
							"type": "uint256"
						}
					],
					"stateMutability": "pure",
					"type": "function"
				}
			],
			"devdoc": {
				"kind": "dev",
				"methods": {},
				"version": 1
			},
			"evm": {
				"assembly": "    /* \"Solidity100/sole100(31~40).sol\":5780:6289  contract Q39 {... */\n  mstore(0x40, 0x80)\n  callvalue\n  dup1\n  iszero\n  tag_1\n  jumpi\n  0x00\n  dup1\n  revert\ntag_1:\n  pop\n  dataSize(sub_0)\n  dup1\n  dataOffset(sub_0)\n  0x00\n  codecopy\n  0x00\n  return\nstop\n\nsub_0: assembly {\n        /* \"Solidity100/sole100(31~40).sol\":5780:6289  contract Q39 {... */\n      mstore(0x40, 0x80)\n      callvalue\n      dup1\n      iszero\n      tag_1\n      jumpi\n      0x00\n      dup1\n      revert\n    tag_1:\n      pop\n      jumpi(tag_2, lt(calldatasize, 0x04))\n      shr(0xe0, calldataload(0x00))\n      dup1\n      0xf3358ac4\n      eq\n      tag_3\n      jumpi\n    tag_2:\n      0x00\n      dup1\n      revert\n        /* \"Solidity100/sole100(31~40).sol\":6155:6282  function getNum(uint _n) public pure returns(uint, uint, uint, uint) {... */\n    tag_3:\n      tag_4\n      0x04\n      dup1\n      calldatasize\n      sub\n      dup2\n      add\n      swap1\n      tag_5\n      swap2\n      swap1\n      tag_6\n      jump\t// in\n    tag_5:\n      tag_7\n      jump\t// in\n    tag_4:\n      mload(0x40)\n      tag_8\n      swap5\n      swap4\n      swap3\n      swap2\n      swap1\n      tag_9\n      jump\t// in\n    tag_8:\n      mload(0x40)\n      dup1\n      swap2\n      sub\n      swap1\n      return\n    tag_7:\n        /* \"Solidity100/sole100(31~40).sol\":6200:6204  uint */\n      0x00\n        /* \"Solidity100/sole100(31~40).sol\":6206:6210  uint */\n      dup1\n        /* \"Solidity100/sole100(31~40).sol\":6212:6216  uint */\n      0x00\n        /* \"Solidity100/sole100(31~40).sol\":6218:6222  uint */\n      dup1\n        /* \"Solidity100/sole100(31~40).sol\":6247:6248  2 */\n      0x02\n        /* \"Solidity100/sole100(31~40).sol\":6242:6244  _n */\n      dup6\n        /* \"Solidity100/sole100(31~40).sol\":6242:6248  _n / 2 */\n      tag_11\n      swap2\n      swap1\n      tag_12\n      jump\t// in\n    tag_11:\n        /* \"Solidity100/sole100(31~40).sol\":6255:6256  3 */\n      0x03\n        /* \"Solidity100/sole100(31~40).sol\":6250:6252  _n */\n      dup7\n        /* \"Solidity100/sole100(31~40).sol\":6250:6256  _n / 3 */\n      tag_13\n      swap2\n      swap1\n      tag_12\n      jump\t// in\n    tag_13:\n        /* \"Solidity100/sole100(31~40).sol\":6263:6264  5 */\n      0x05\n        /* \"Solidity100/sole100(31~40).sol\":6258:6260  _n */\n      dup8\n        /* \"Solidity100/sole100(31~40).sol\":6258:6264  _n / 5 */\n      tag_14\n      swap2\n      swap1\n      tag_12\n      jump\t// in\n    tag_14:\n        /* \"Solidity100/sole100(31~40).sol\":6271:6272  7 */\n      0x07\n        /* \"Solidity100/sole100(31~40).sol\":6266:6268  _n */\n      dup9\n        /* \"Solidity100/sole100(31~40).sol\":6266:6272  _n / 7 */\n      tag_15\n      swap2\n      swap1\n      tag_12\n      jump\t// in\n    tag_15:\n        /* \"Solidity100/sole100(31~40).sol\":6234:6273  return (_n / 2, _n / 3, _n / 5, _n / 7) */\n      swap4\n      pop\n      swap4\n      pop\n      swap4\n      pop\n      swap4\n      pop\n        /* \"Solidity100/sole100(31~40).sol\":6155:6282  function getNum(uint _n) public pure returns(uint, uint, uint, uint) {... */\n      swap2\n      swap4\n      pop\n      swap2\n      swap4\n      jump\t// out\n        /* \"#utility.yul\":88:205   */\n    tag_17:\n        /* \"#utility.yul\":197:198   */\n      0x00\n        /* \"#utility.yul\":194:195   */\n      dup1\n        /* \"#utility.yul\":187:199   */\n      revert\n        /* \"#utility.yul\":334:411   */\n    tag_19:\n        /* \"#utility.yul\":371:378   */\n      0x00\n        /* \"#utility.yul\":400:405   */\n      dup2\n        /* \"#utility.yul\":389:405   */\n      swap1\n      pop\n        /* \"#utility.yul\":334:411   */\n      swap2\n      swap1\n      pop\n      jump\t// out\n        /* \"#utility.yul\":417:539   */\n    tag_20:\n        /* \"#utility.yul\":490:514   */\n      tag_31\n        /* \"#utility.yul\":508:513   */\n      dup2\n        /* \"#utility.yul\":490:514   */\n      tag_19\n      jump\t// in\n    tag_31:\n        /* \"#utility.yul\":483:488   */\n      dup2\n        /* \"#utility.yul\":480:515   */\n      eq\n        /* \"#utility.yul\":470:533   */\n      tag_32\n      jumpi\n        /* \"#utility.yul\":529:530   */\n      0x00\n        /* \"#utility.yul\":526:527   */\n      dup1\n        /* \"#utility.yul\":519:531   */\n      revert\n        /* \"#utility.yul\":470:533   */\n    tag_32:\n        /* \"#utility.yul\":417:539   */\n      pop\n      jump\t// out\n        /* \"#utility.yul\":545:684   */\n    tag_21:\n        /* \"#utility.yul\":591:596   */\n      0x00\n        /* \"#utility.yul\":629:635   */\n      dup2\n        /* \"#utility.yul\":616:636   */\n      calldataload\n        /* \"#utility.yul\":607:636   */\n      swap1\n      pop\n        /* \"#utility.yul\":645:678   */\n      tag_34\n        /* \"#utility.yul\":672:677   */\n      dup2\n        /* \"#utility.yul\":645:678   */\n      tag_20\n      jump\t// in\n    tag_34:\n        /* \"#utility.yul\":545:684   */\n      swap3\n      swap2\n      pop\n      pop\n      jump\t// out\n        /* \"#utility.yul\":690:1019   */\n    tag_6:\n        /* \"#utility.yul\":749:755   */\n      0x00\n        /* \"#utility.yul\":798:800   */\n      0x20\n        /* \"#utility.yul\":786:795   */\n      dup3\n        /* \"#utility.yul\":777:784   */\n      dup5\n        /* \"#utility.yul\":773:796   */\n      sub\n        /* \"#utility.yul\":769:801   */\n      slt\n        /* \"#utility.yul\":766:885   */\n      iszero\n      tag_36\n      jumpi\n        /* \"#utility.yul\":804:883   */\n      tag_37\n      tag_17\n      jump\t// in\n    tag_37:\n        /* \"#utility.yul\":766:885   */\n    tag_36:\n        /* \"#utility.yul\":924:925   */\n      0x00\n        /* \"#utility.yul\":949:1002   */\n      tag_38\n        /* \"#utility.yul\":994:1001   */\n      dup5\n        /* \"#utility.yul\":985:991   */\n      dup3\n        /* \"#utility.yul\":974:983   */\n      dup6\n        /* \"#utility.yul\":970:992   */\n      add\n        /* \"#utility.yul\":949:1002   */\n      tag_21\n      jump\t// in\n    tag_38:\n        /* \"#utility.yul\":939:1002   */\n      swap2\n      pop\n        /* \"#utility.yul\":895:1012   */\n      pop\n        /* \"#utility.yul\":690:1019   */\n      swap3\n      swap2\n      pop\n      pop\n      jump\t// out\n        /* \"#utility.yul\":1025:1143   */\n    tag_22:\n        /* \"#utility.yul\":1112:1136   */\n      tag_40\n        /* \"#utility.yul\":1130:1135   */\n      dup2\n        /* \"#utility.yul\":1112:1136   */\n      tag_19\n      jump\t// in\n    tag_40:\n        /* \"#utility.yul\":1107:1110   */\n      dup3\n        /* \"#utility.yul\":1100:1137   */\n      mstore\n        /* \"#utility.yul\":1025:1143   */\n      pop\n      pop\n      jump\t// out\n        /* \"#utility.yul\":1149:1702   */\n    tag_9:\n        /* \"#utility.yul\":1326:1330   */\n      0x00\n        /* \"#utility.yul\":1364:1367   */\n      0x80\n        /* \"#utility.yul\":1353:1362   */\n      dup3\n        /* \"#utility.yul\":1349:1368   */\n      add\n        /* \"#utility.yul\":1341:1368   */\n      swap1\n      pop\n        /* \"#utility.yul\":1378:1449   */\n      tag_42\n        /* \"#utility.yul\":1446:1447   */\n      0x00\n        /* \"#utility.yul\":1435:1444   */\n      dup4\n        /* \"#utility.yul\":1431:1448   */\n      add\n        /* \"#utility.yul\":1422:1428   */\n      dup8\n        /* \"#utility.yul\":1378:1449   */\n      tag_22\n      jump\t// in\n    tag_42:\n        /* \"#utility.yul\":1459:1531   */\n      tag_43\n        /* \"#utility.yul\":1527:1529   */\n      0x20\n        /* \"#utility.yul\":1516:1525   */\n      dup4\n        /* \"#utility.yul\":1512:1530   */\n      add\n        /* \"#utility.yul\":1503:1509   */\n      dup7\n        /* \"#utility.yul\":1459:1531   */\n      tag_22\n      jump\t// in\n    tag_43:\n        /* \"#utility.yul\":1541:1613   */\n      tag_44\n        /* \"#utility.yul\":1609:1611   */\n      0x40\n        /* \"#utility.yul\":1598:1607   */\n      dup4\n        /* \"#utility.yul\":1594:1612   */\n      add\n        /* \"#utility.yul\":1585:1591   */\n      dup6\n        /* \"#utility.yul\":1541:1613   */\n      tag_22\n      jump\t// in\n    tag_44:\n        /* \"#utility.yul\":1623:1695   */\n      tag_45\n        /* \"#utility.yul\":1691:1693   */\n      0x60\n        /* \"#utility.yul\":1680:1689   */\n      dup4\n        /* \"#utility.yul\":1676:1694   */\n      add\n        /* \"#utility.yul\":1667:1673   */\n      dup5\n        /* \"#utility.yul\":1623:1695   */\n      tag_22\n      jump\t// in\n    tag_45:\n        /* \"#utility.yul\":1149:1702   */\n      swap6\n      swap5\n      pop\n      pop\n      pop\n      pop\n      pop\n      jump\t// out\n        /* \"#utility.yul\":1708:1888   */\n    tag_23:\n        /* \"#utility.yul\":1756:1833   */\n      0x4e487b7100000000000000000000000000000000000000000000000000000000\n        /* \"#utility.yul\":1753:1754   */\n      0x00\n        /* \"#utility.yul\":1746:1834   */\n      mstore\n        /* \"#utility.yul\":1853:1857   */\n      0x12\n        /* \"#utility.yul\":1850:1851   */\n      0x04\n        /* \"#utility.yul\":1843:1858   */\n      mstore\n        /* \"#utility.yul\":1877:1881   */\n      0x24\n        /* \"#utility.yul\":1874:1875   */\n      0x00\n        /* \"#utility.yul\":1867:1882   */\n      revert\n        /* \"#utility.yul\":2080:2265   */\n    tag_12:\n        /* \"#utility.yul\":2120:2121   */\n      0x00\n        /* \"#utility.yul\":2137:2157   */\n      tag_49\n        /* \"#utility.yul\":2155:2156   */\n      dup3\n        /* \"#utility.yul\":2137:2157   */\n      tag_19\n      jump\t// in\n    tag_49:\n        /* \"#utility.yul\":2132:2157   */\n      swap2\n      pop\n        /* \"#utility.yul\":2171:2191   */\n      tag_50\n        /* \"#utility.yul\":2189:2190   */\n      dup4\n        /* \"#utility.yul\":2171:2191   */\n      tag_19\n      jump\t// in\n    tag_50:\n        /* \"#utility.yul\":2166:2191   */\n      swap3\n      pop\n        /* \"#utility.yul\":2210:2211   */\n      dup3\n        /* \"#utility.yul\":2200:2235   */\n      tag_51\n      jumpi\n        /* \"#utility.yul\":2215:2233   */\n      tag_52\n      tag_23\n      jump\t// in\n    tag_52:\n        /* \"#utility.yul\":2200:2235   */\n    tag_51:\n        /* \"#utility.yul\":2257:2258   */\n      dup3\n        /* \"#utility.yul\":2254:2255   */\n      dup3\n        /* \"#utility.yul\":2250:2259   */\n      div\n        /* \"#utility.yul\":2245:2259   */\n      swap1\n      pop\n        /* \"#utility.yul\":2080:2265   */\n      swap3\n      swap2\n      pop\n      pop\n      jump\t// out\n\n    auxdata: 0xa26469706673582212200b8a00c1ee3b5a5e1e0662bd84955bb8db67b05743ab488210dc30a9d278e18f64736f6c634300081a0033\n}\n",
				"bytecode": {
					"linkReferences": {},
					"object": "6080604052348015600e575f80fd5b506101ee8061001c5f395ff3fe608060405234801561000f575f80fd5b5060043610610029575f3560e01c8063f3358ac41461002d575b5f80fd5b610047600480360381019061004291906100de565b610060565b6040516100579493929190610118565b60405180910390f35b5f805f806002856100719190610188565b60038661007e9190610188565b60058761008b9190610188565b6007886100989190610188565b93509350935093509193509193565b5f80fd5b5f819050919050565b6100bd816100ab565b81146100c7575f80fd5b50565b5f813590506100d8816100b4565b92915050565b5f602082840312156100f3576100f26100a7565b5b5f610100848285016100ca565b91505092915050565b610112816100ab565b82525050565b5f60808201905061012b5f830187610109565b6101386020830186610109565b6101456040830185610109565b6101526060830184610109565b95945050505050565b7f4e487b71000000000000000000000000000000000000000000000000000000005f52601260045260245ffd5b5f610192826100ab565b915061019d836100ab565b9250826101ad576101ac61015b565b5b82820490509291505056fea26469706673582212200b8a00c1ee3b5a5e1e0662bd84955bb8db67b05743ab488210dc30a9d278e18f64736f6c634300081a0033",
					"opcodes": "PUSH1 0x80 PUSH1 0x40 MSTORE CALLVALUE DUP1 ISZERO PUSH1 0xE JUMPI PUSH0 DUP1 REVERT JUMPDEST POP PUSH2 0x1EE DUP1 PUSH2 0x1C PUSH0 CODECOPY PUSH0 RETURN INVALID PUSH1 0x80 PUSH1 0x40 MSTORE CALLVALUE DUP1 ISZERO PUSH2 0xF JUMPI PUSH0 DUP1 REVERT JUMPDEST POP PUSH1 0x4 CALLDATASIZE LT PUSH2 0x29 JUMPI PUSH0 CALLDATALOAD PUSH1 0xE0 SHR DUP1 PUSH4 0xF3358AC4 EQ PUSH2 0x2D JUMPI JUMPDEST PUSH0 DUP1 REVERT JUMPDEST PUSH2 0x47 PUSH1 0x4 DUP1 CALLDATASIZE SUB DUP2 ADD SWAP1 PUSH2 0x42 SWAP2 SWAP1 PUSH2 0xDE JUMP JUMPDEST PUSH2 0x60 JUMP JUMPDEST PUSH1 0x40 MLOAD PUSH2 0x57 SWAP5 SWAP4 SWAP3 SWAP2 SWAP1 PUSH2 0x118 JUMP JUMPDEST PUSH1 0x40 MLOAD DUP1 SWAP2 SUB SWAP1 RETURN JUMPDEST PUSH0 DUP1 PUSH0 DUP1 PUSH1 0x2 DUP6 PUSH2 0x71 SWAP2 SWAP1 PUSH2 0x188 JUMP JUMPDEST PUSH1 0x3 DUP7 PUSH2 0x7E SWAP2 SWAP1 PUSH2 0x188 JUMP JUMPDEST PUSH1 0x5 DUP8 PUSH2 0x8B SWAP2 SWAP1 PUSH2 0x188 JUMP JUMPDEST PUSH1 0x7 DUP9 PUSH2 0x98 SWAP2 SWAP1 PUSH2 0x188 JUMP JUMPDEST SWAP4 POP SWAP4 POP SWAP4 POP SWAP4 POP SWAP2 SWAP4 POP SWAP2 SWAP4 JUMP JUMPDEST PUSH0 DUP1 REVERT JUMPDEST PUSH0 DUP2 SWAP1 POP SWAP2 SWAP1 POP JUMP JUMPDEST PUSH2 0xBD DUP2 PUSH2 0xAB JUMP JUMPDEST DUP2 EQ PUSH2 0xC7 JUMPI PUSH0 DUP1 REVERT JUMPDEST POP JUMP JUMPDEST PUSH0 DUP2 CALLDATALOAD SWAP1 POP PUSH2 0xD8 DUP2 PUSH2 0xB4 JUMP JUMPDEST SWAP3 SWAP2 POP POP JUMP JUMPDEST PUSH0 PUSH1 0x20 DUP3 DUP5 SUB SLT ISZERO PUSH2 0xF3 JUMPI PUSH2 0xF2 PUSH2 0xA7 JUMP JUMPDEST JUMPDEST PUSH0 PUSH2 0x100 DUP5 DUP3 DUP6 ADD PUSH2 0xCA JUMP JUMPDEST SWAP2 POP POP SWAP3 SWAP2 POP POP JUMP JUMPDEST PUSH2 0x112 DUP2 PUSH2 0xAB JUMP JUMPDEST DUP3 MSTORE POP POP JUMP JUMPDEST PUSH0 PUSH1 0x80 DUP3 ADD SWAP1 POP PUSH2 0x12B PUSH0 DUP4 ADD DUP8 PUSH2 0x109 JUMP JUMPDEST PUSH2 0x138 PUSH1 0x20 DUP4 ADD DUP7 PUSH2 0x109 JUMP JUMPDEST PUSH2 0x145 PUSH1 0x40 DUP4 ADD DUP6 PUSH2 0x109 JUMP JUMPDEST PUSH2 0x152 PUSH1 0x60 DUP4 ADD DUP5 PUSH2 0x109 JUMP JUMPDEST SWAP6 SWAP5 POP POP POP POP POP JUMP JUMPDEST PUSH32 0x4E487B7100000000000000000000000000000000000000000000000000000000 PUSH0 MSTORE PUSH1 0x12 PUSH1 0x4 MSTORE PUSH1 0x24 PUSH0 REVERT JUMPDEST PUSH0 PUSH2 0x192 DUP3 PUSH2 0xAB JUMP JUMPDEST SWAP2 POP PUSH2 0x19D DUP4 PUSH2 0xAB JUMP JUMPDEST SWAP3 POP DUP3 PUSH2 0x1AD JUMPI PUSH2 0x1AC PUSH2 0x15B JUMP JUMPDEST JUMPDEST DUP3 DUP3 DIV SWAP1 POP SWAP3 SWAP2 POP POP JUMP INVALID LOG2 PUSH5 0x6970667358 0x22 SLT KECCAK256 SIGNEXTEND DUP11 STOP 0xC1 0xEE EXTCODESIZE GAS MCOPY 0x1E MOD PUSH3 0xBD8495 JUMPDEST 0xB8 0xDB PUSH8 0xB05743AB488210DC ADDRESS 0xA9 0xD2 PUSH25 0xE18F64736F6C634300081A0033000000000000000000000000 "
				},
				"gasEstimates": {
					"creation": {
						"codeDepositCost": "98800",
						"executionCost": "145",
						"totalCost": "98945"
					},
					"external": {
						"getNum(uint256)": "infinite"
					}
				},
				"methodIdentifiers": {
					"getNum(uint256)": "f3358ac4"
				}
			},
			"storageLayout": {
				"storage": [],
				"types": null
			},
			"userdoc": {
				"kind": "user",
				"methods": {},
				"version": 1
			}
		}
	}
}