{
	"Solidity100/sole100(31~40).sol": {
		"Q34": {
			"abi": [
				{
					"inputs": [],
					"name": "getAverage",
					"outputs": [
						{
							"internalType": "uint256",
							"name": "",
							"type": "uint256"
						}
					],
					"stateMutability": "view",
					"type": "function"
				},
				{
					"inputs": [
						{
							"internalType": "uint256",
							"name": "_n",
							"type": "uint256"
						}
					],
					"name": "getStudent",
					"outputs": [
						{
							"components": [
								{
									"internalType": "string",
									"name": "name",
									"type": "string"
								},
								{
									"internalType": "uint256",
									"name": "num",
									"type": "uint256"
								},
								{
									"internalType": "uint256",
									"name": "score",
									"type": "uint256"
								}
							],
							"internalType": "struct Q34.student",
							"name": "",
							"type": "tuple"
						}
					],
					"stateMutability": "view",
					"type": "function"
				},
				{
					"inputs": [
						{
							"internalType": "string",
							"name": "_name",
							"type": "string"
						},
						{
							"internalType": "uint256",
							"name": "_num",
							"type": "uint256"
						},
						{
							"internalType": "uint256",
							"name": "_score",
							"type": "uint256"
						}
					],
					"name": "setStudent",
					"outputs": [],
					"stateMutability": "nonpayable",
					"type": "function"
				}
			],
			"devdoc": {
				"kind": "dev",
				"methods": {},
				"version": 1
			},
			"evm": {
				"assembly": "    /* \"Solidity100/sole100(31~40).sol\":1736:2586  contract Q34 {... */\n  mstore(0x40, 0x80)\n  callvalue\n  dup1\n  iszero\n  tag_1\n  jumpi\n  0x00\n  dup1\n  revert\ntag_1:\n  pop\n  dataSize(sub_0)\n  dup1\n  dataOffset(sub_0)\n  0x00\n  codecopy\n  0x00\n  return\nstop\n\nsub_0: assembly {\n        /* \"Solidity100/sole100(31~40).sol\":1736:2586  contract Q34 {... */\n      mstore(0x40, 0x80)\n      callvalue\n      dup1\n      iszero\n      tag_1\n      jumpi\n      0x00\n      dup1\n      revert\n    tag_1:\n      pop\n      jumpi(tag_2, lt(calldatasize, 0x04))\n      shr(0xe0, calldataload(0x00))\n      dup1\n      0x21055acb\n      eq\n      tag_3\n      jumpi\n      dup1\n      0x642f9163\n      eq\n      tag_4\n      jumpi\n      dup1\n      0x82fae9b7\n      eq\n      tag_5\n      jumpi\n    tag_2:\n      0x00\n      dup1\n      revert\n        /* \"Solidity100/sole100(31~40).sol\":2351:2579  function getAverage() public view returns(uint) {... */\n    tag_3:\n      tag_6\n      tag_7\n      jump\t// in\n    tag_6:\n      mload(0x40)\n      tag_8\n      swap2\n      swap1\n      tag_9\n      jump\t// in\n    tag_8:\n      mload(0x40)\n      dup1\n      swap2\n      sub\n      swap1\n      return\n        /* \"Solidity100/sole100(31~40).sol\":2238:2343  function getStudent(uint _n) public view returns(student memory) {... */\n    tag_4:\n      tag_10\n      0x04\n      dup1\n      calldatasize\n      sub\n      dup2\n      add\n      swap1\n      tag_11\n      swap2\n      swap1\n      tag_12\n      jump\t// in\n    tag_11:\n      tag_13\n      jump\t// in\n    tag_10:\n      mload(0x40)\n      tag_14\n      swap2\n      swap1\n      tag_15\n      jump\t// in\n    tag_14:\n      mload(0x40)\n      dup1\n      swap2\n      sub\n      swap1\n      return\n        /* \"Solidity100/sole100(31~40).sol\":2098:2230  function setStudent(string memory _name, uint _num, uint _score) public {... */\n    tag_5:\n      tag_16\n      0x04\n      dup1\n      calldatasize\n      sub\n      dup2\n      add\n      swap1\n      tag_17\n      swap2\n      swap1\n      tag_18\n      jump\t// in\n    tag_17:\n      tag_19\n      jump\t// in\n    tag_16:\n      stop\n        /* \"Solidity100/sole100(31~40).sol\":2351:2579  function getAverage() public view returns(uint) {... */\n    tag_7:\n        /* \"Solidity100/sole100(31~40).sol\":2393:2397  uint */\n      0x00\n        /* \"Solidity100/sole100(31~40).sol\":2410:2416  uint i */\n      dup1\n        /* \"Solidity100/sole100(31~40).sol\":2427:2433  uint a */\n      0x00\n        /* \"Solidity100/sole100(31~40).sol\":2453:2454  0 */\n      dup1\n        /* \"Solidity100/sole100(31~40).sol\":2449:2454  i = 0 */\n      swap2\n      pop\n        /* \"Solidity100/sole100(31~40).sol\":2444:2533  for (i = 0; i < students.length; i++) {... */\n    tag_21:\n        /* \"Solidity100/sole100(31~40).sol\":2460:2468  students */\n      0x00\n        /* \"Solidity100/sole100(31~40).sol\":2460:2475  students.length */\n      dup1\n      sload\n      swap1\n      pop\n        /* \"Solidity100/sole100(31~40).sol\":2456:2457  i */\n      dup3\n        /* \"Solidity100/sole100(31~40).sol\":2456:2475  i < students.length */\n      lt\n        /* \"Solidity100/sole100(31~40).sol\":2444:2533  for (i = 0; i < students.length; i++) {... */\n      iszero\n      tag_22\n      jumpi\n        /* \"Solidity100/sole100(31~40).sol\":2504:2512  students */\n      0x00\n        /* \"Solidity100/sole100(31~40).sol\":2513:2514  i */\n      dup3\n        /* \"Solidity100/sole100(31~40).sol\":2504:2515  students[i] */\n      dup2\n      sload\n      dup2\n      lt\n      tag_24\n      jumpi\n      tag_25\n      tag_26\n      jump\t// in\n    tag_25:\n    tag_24:\n      swap1\n      0x00\n      mstore\n      keccak256(0x00, 0x20)\n      swap1\n      0x03\n      mul\n      add\n        /* \"Solidity100/sole100(31~40).sol\":2504:2521  students[i].score */\n      0x02\n      add\n      sload\n        /* \"Solidity100/sole100(31~40).sol\":2500:2501  a */\n      dup2\n        /* \"Solidity100/sole100(31~40).sol\":2500:2521  a + students[i].score */\n      tag_28\n      swap2\n      swap1\n      tag_29\n      jump\t// in\n    tag_28:\n        /* \"Solidity100/sole100(31~40).sol\":2496:2521  a = a + students[i].score */\n      swap1\n      pop\n        /* \"Solidity100/sole100(31~40).sol\":2477:2480  i++ */\n      dup2\n      dup1\n      0x01\n      add\n      swap3\n      pop\n      pop\n        /* \"Solidity100/sole100(31~40).sol\":2444:2533  for (i = 0; i < students.length; i++) {... */\n      jump(tag_21)\n    tag_22:\n        /* \"Solidity100/sole100(31~40).sol\":2556:2564  students */\n      0x00\n        /* \"Solidity100/sole100(31~40).sol\":2556:2571  students.length */\n      dup1\n      sload\n      swap1\n      pop\n        /* \"Solidity100/sole100(31~40).sol\":2552:2553  a */\n      dup2\n        /* \"Solidity100/sole100(31~40).sol\":2552:2571  a / students.length */\n      tag_30\n      swap2\n      swap1\n      tag_31\n      jump\t// in\n    tag_30:\n        /* \"Solidity100/sole100(31~40).sol\":2544:2571  return  a / students.length */\n      swap3\n      pop\n      pop\n      pop\n        /* \"Solidity100/sole100(31~40).sol\":2351:2579  function getAverage() public view returns(uint) {... */\n      swap1\n      jump\t// out\n        /* \"Solidity100/sole100(31~40).sol\":2238:2343  function getStudent(uint _n) public view returns(student memory) {... */\n    tag_13:\n        /* \"Solidity100/sole100(31~40).sol\":2287:2301  student memory */\n      tag_32\n      tag_33\n      jump\t// in\n    tag_32:\n        /* \"Solidity100/sole100(31~40).sol\":2321:2329  students */\n      0x00\n        /* \"Solidity100/sole100(31~40).sol\":2333:2334  1 */\n      0x01\n        /* \"Solidity100/sole100(31~40).sol\":2330:2332  _n */\n      dup4\n        /* \"Solidity100/sole100(31~40).sol\":2330:2334  _n-1 */\n      tag_35\n      swap2\n      swap1\n      tag_36\n      jump\t// in\n    tag_35:\n        /* \"Solidity100/sole100(31~40).sol\":2321:2335  students[_n-1] */\n      dup2\n      sload\n      dup2\n      lt\n      tag_37\n      jumpi\n      tag_38\n      tag_26\n      jump\t// in\n    tag_38:\n    tag_37:\n      swap1\n      0x00\n      mstore\n      keccak256(0x00, 0x20)\n      swap1\n      0x03\n      mul\n      add\n        /* \"Solidity100/sole100(31~40).sol\":2314:2335  return students[_n-1] */\n      mload(0x40)\n      dup1\n      0x60\n      add\n      0x40\n      mstore\n      swap1\n      dup2\n      0x00\n      dup3\n      add\n      dup1\n      sload\n      tag_40\n      swap1\n      tag_41\n      jump\t// in\n    tag_40:\n      dup1\n      0x1f\n      add\n      0x20\n      dup1\n      swap2\n      div\n      mul\n      0x20\n      add\n      mload(0x40)\n      swap1\n      dup2\n      add\n      0x40\n      mstore\n      dup1\n      swap3\n      swap2\n      swap1\n      dup2\n      dup2\n      mstore\n      0x20\n      add\n      dup3\n      dup1\n      sload\n      tag_42\n      swap1\n      tag_41\n      jump\t// in\n    tag_42:\n      dup1\n      iszero\n      tag_43\n      jumpi\n      dup1\n      0x1f\n      lt\n      tag_44\n      jumpi\n      0x0100\n      dup1\n      dup4\n      sload\n      div\n      mul\n      dup4\n      mstore\n      swap2\n      0x20\n      add\n      swap2\n      jump(tag_43)\n    tag_44:\n      dup3\n      add\n      swap2\n      swap1\n      0x00\n      mstore\n      keccak256(0x00, 0x20)\n      swap1\n    tag_45:\n      dup2\n      sload\n      dup2\n      mstore\n      swap1\n      0x01\n      add\n      swap1\n      0x20\n      add\n      dup1\n      dup4\n      gt\n      tag_45\n      jumpi\n      dup3\n      swap1\n      sub\n      0x1f\n      and\n      dup3\n      add\n      swap2\n    tag_43:\n      pop\n      pop\n      pop\n      pop\n      pop\n      dup2\n      mstore\n      0x20\n      add\n      0x01\n      dup3\n      add\n      sload\n      dup2\n      mstore\n      0x20\n      add\n      0x02\n      dup3\n      add\n      sload\n      dup2\n      mstore\n      pop\n      pop\n      swap1\n      pop\n        /* \"Solidity100/sole100(31~40).sol\":2238:2343  function getStudent(uint _n) public view returns(student memory) {... */\n      swap2\n      swap1\n      pop\n      jump\t// out\n        /* \"Solidity100/sole100(31~40).sol\":2098:2230  function setStudent(string memory _name, uint _num, uint _score) public {... */\n    tag_19:\n        /* \"Solidity100/sole100(31~40).sol\":2181:2189  students */\n      0x00\n        /* \"Solidity100/sole100(31~40).sol\":2195:2221  student(_name,_num,_score) */\n      mload(0x40)\n      dup1\n      0x60\n      add\n      0x40\n      mstore\n      dup1\n        /* \"Solidity100/sole100(31~40).sol\":2203:2208  _name */\n      dup6\n        /* \"Solidity100/sole100(31~40).sol\":2195:2221  student(_name,_num,_score) */\n      dup2\n      mstore\n      0x20\n      add\n        /* \"Solidity100/sole100(31~40).sol\":2209:2213  _num */\n      dup5\n        /* \"Solidity100/sole100(31~40).sol\":2195:2221  student(_name,_num,_score) */\n      dup2\n      mstore\n      0x20\n      add\n        /* \"Solidity100/sole100(31~40).sol\":2214:2220  _score */\n      dup4\n        /* \"Solidity100/sole100(31~40).sol\":2195:2221  student(_name,_num,_score) */\n      dup2\n      mstore\n      pop\n        /* \"Solidity100/sole100(31~40).sol\":2181:2222  students.push(student(_name,_num,_score)) */\n      swap1\n      dup1\n      0x01\n      dup2\n      sload\n      add\n      dup1\n      dup3\n      sstore\n      dup1\n      swap2\n      pop\n      pop\n      0x01\n      swap1\n      sub\n      swap1\n      0x00\n      mstore\n      keccak256(0x00, 0x20)\n      swap1\n      0x03\n      mul\n      add\n      0x00\n      swap1\n      swap2\n      swap1\n      swap2\n      swap1\n      swap2\n      pop\n      0x00\n      dup3\n      add\n      mload\n      dup2\n      0x00\n      add\n      swap1\n      dup2\n      tag_48\n      swap2\n      swap1\n      tag_49\n      jump\t// in\n    tag_48:\n      pop\n      0x20\n      dup3\n      add\n      mload\n      dup2\n      0x01\n      add\n      sstore\n      0x40\n      dup3\n      add\n      mload\n      dup2\n      0x02\n      add\n      sstore\n      pop\n      pop\n        /* \"Solidity100/sole100(31~40).sol\":2098:2230  function setStudent(string memory _name, uint _num, uint _score) public {... */\n      pop\n      pop\n      pop\n      jump\t// out\n    tag_33:\n      mload(0x40)\n      dup1\n      0x60\n      add\n      0x40\n      mstore\n      dup1\n      0x60\n      dup2\n      mstore\n      0x20\n      add\n      0x00\n      dup2\n      mstore\n      0x20\n      add\n      0x00\n      dup2\n      mstore\n      pop\n      swap1\n      jump\t// out\n        /* \"#utility.yul\":7:84   */\n    tag_50:\n        /* \"#utility.yul\":44:51   */\n      0x00\n        /* \"#utility.yul\":73:78   */\n      dup2\n        /* \"#utility.yul\":62:78   */\n      swap1\n      pop\n        /* \"#utility.yul\":7:84   */\n      swap2\n      swap1\n      pop\n      jump\t// out\n        /* \"#utility.yul\":90:208   */\n    tag_51:\n        /* \"#utility.yul\":177:201   */\n      tag_94\n        /* \"#utility.yul\":195:200   */\n      dup2\n        /* \"#utility.yul\":177:201   */\n      tag_50\n      jump\t// in\n    tag_94:\n        /* \"#utility.yul\":172:175   */\n      dup3\n        /* \"#utility.yul\":165:202   */\n      mstore\n        /* \"#utility.yul\":90:208   */\n      pop\n      pop\n      jump\t// out\n        /* \"#utility.yul\":214:436   */\n    tag_9:\n        /* \"#utility.yul\":307:311   */\n      0x00\n        /* \"#utility.yul\":345:347   */\n      0x20\n        /* \"#utility.yul\":334:343   */\n      dup3\n        /* \"#utility.yul\":330:348   */\n      add\n        /* \"#utility.yul\":322:348   */\n      swap1\n      pop\n        /* \"#utility.yul\":358:429   */\n      tag_96\n        /* \"#utility.yul\":426:427   */\n      0x00\n        /* \"#utility.yul\":415:424   */\n      dup4\n        /* \"#utility.yul\":411:428   */\n      add\n        /* \"#utility.yul\":402:408   */\n      dup5\n        /* \"#utility.yul\":358:429   */\n      tag_51\n      jump\t// in\n    tag_96:\n        /* \"#utility.yul\":214:436   */\n      swap3\n      swap2\n      pop\n      pop\n      jump\t// out\n        /* \"#utility.yul\":442:517   */\n    tag_52:\n        /* \"#utility.yul\":475:481   */\n      0x00\n        /* \"#utility.yul\":508:510   */\n      0x40\n        /* \"#utility.yul\":502:511   */\n      mload\n        /* \"#utility.yul\":492:511   */\n      swap1\n      pop\n        /* \"#utility.yul\":442:517   */\n      swap1\n      jump\t// out\n        /* \"#utility.yul\":523:640   */\n    tag_53:\n        /* \"#utility.yul\":632:633   */\n      0x00\n        /* \"#utility.yul\":629:630   */\n      dup1\n        /* \"#utility.yul\":622:634   */\n      revert\n        /* \"#utility.yul\":646:763   */\n    tag_54:\n        /* \"#utility.yul\":755:756   */\n      0x00\n        /* \"#utility.yul\":752:753   */\n      dup1\n        /* \"#utility.yul\":745:757   */\n      revert\n        /* \"#utility.yul\":769:891   */\n    tag_55:\n        /* \"#utility.yul\":842:866   */\n      tag_101\n        /* \"#utility.yul\":860:865   */\n      dup2\n        /* \"#utility.yul\":842:866   */\n      tag_50\n      jump\t// in\n    tag_101:\n        /* \"#utility.yul\":835:840   */\n      dup2\n        /* \"#utility.yul\":832:867   */\n      eq\n        /* \"#utility.yul\":822:885   */\n      tag_102\n      jumpi\n        /* \"#utility.yul\":881:882   */\n      0x00\n        /* \"#utility.yul\":878:879   */\n      dup1\n        /* \"#utility.yul\":871:883   */\n      revert\n        /* \"#utility.yul\":822:885   */\n    tag_102:\n        /* \"#utility.yul\":769:891   */\n      pop\n      jump\t// out\n        /* \"#utility.yul\":897:1036   */\n    tag_56:\n        /* \"#utility.yul\":943:948   */\n      0x00\n        /* \"#utility.yul\":981:987   */\n      dup2\n        /* \"#utility.yul\":968:988   */\n      calldataload\n        /* \"#utility.yul\":959:988   */\n      swap1\n      pop\n        /* \"#utility.yul\":997:1030   */\n      tag_104\n        /* \"#utility.yul\":1024:1029   */\n      dup2\n        /* \"#utility.yul\":997:1030   */\n      tag_55\n      jump\t// in\n    tag_104:\n        /* \"#utility.yul\":897:1036   */\n      swap3\n      swap2\n      pop\n      pop\n      jump\t// out\n        /* \"#utility.yul\":1042:1371   */\n    tag_12:\n        /* \"#utility.yul\":1101:1107   */\n      0x00\n        /* \"#utility.yul\":1150:1152   */\n      0x20\n        /* \"#utility.yul\":1138:1147   */\n      dup3\n        /* \"#utility.yul\":1129:1136   */\n      dup5\n        /* \"#utility.yul\":1125:1148   */\n      sub\n        /* \"#utility.yul\":1121:1153   */\n      slt\n        /* \"#utility.yul\":1118:1237   */\n      iszero\n      tag_106\n      jumpi\n        /* \"#utility.yul\":1156:1235   */\n      tag_107\n      tag_53\n      jump\t// in\n    tag_107:\n        /* \"#utility.yul\":1118:1237   */\n    tag_106:\n        /* \"#utility.yul\":1276:1277   */\n      0x00\n        /* \"#utility.yul\":1301:1354   */\n      tag_108\n        /* \"#utility.yul\":1346:1353   */\n      dup5\n        /* \"#utility.yul\":1337:1343   */\n      dup3\n        /* \"#utility.yul\":1326:1335   */\n      dup6\n        /* \"#utility.yul\":1322:1344   */\n      add\n        /* \"#utility.yul\":1301:1354   */\n      tag_56\n      jump\t// in\n    tag_108:\n        /* \"#utility.yul\":1291:1354   */\n      swap2\n      pop\n        /* \"#utility.yul\":1247:1364   */\n      pop\n        /* \"#utility.yul\":1042:1371   */\n      swap3\n      swap2\n      pop\n      pop\n      jump\t// out\n        /* \"#utility.yul\":1377:1476   */\n    tag_57:\n        /* \"#utility.yul\":1429:1435   */\n      0x00\n        /* \"#utility.yul\":1463:1468   */\n      dup2\n        /* \"#utility.yul\":1457:1469   */\n      mload\n        /* \"#utility.yul\":1447:1469   */\n      swap1\n      pop\n        /* \"#utility.yul\":1377:1476   */\n      swap2\n      swap1\n      pop\n      jump\t// out\n        /* \"#utility.yul\":1482:1641   */\n    tag_58:\n        /* \"#utility.yul\":1556:1567   */\n      0x00\n        /* \"#utility.yul\":1590:1596   */\n      dup3\n        /* \"#utility.yul\":1585:1588   */\n      dup3\n        /* \"#utility.yul\":1578:1597   */\n      mstore\n        /* \"#utility.yul\":1630:1634   */\n      0x20\n        /* \"#utility.yul\":1625:1628   */\n      dup3\n        /* \"#utility.yul\":1621:1635   */\n      add\n        /* \"#utility.yul\":1606:1635   */\n      swap1\n      pop\n        /* \"#utility.yul\":1482:1641   */\n      swap3\n      swap2\n      pop\n      pop\n      jump\t// out\n        /* \"#utility.yul\":1647:1786   */\n    tag_59:\n        /* \"#utility.yul\":1736:1742   */\n      dup3\n        /* \"#utility.yul\":1731:1734   */\n      dup2\n        /* \"#utility.yul\":1726:1729   */\n      dup4\n        /* \"#utility.yul\":1720:1743   */\n      mcopy\n        /* \"#utility.yul\":1777:1778   */\n      0x00\n        /* \"#utility.yul\":1768:1774   */\n      dup4\n        /* \"#utility.yul\":1763:1766   */\n      dup4\n        /* \"#utility.yul\":1759:1775   */\n      add\n        /* \"#utility.yul\":1752:1779   */\n      mstore\n        /* \"#utility.yul\":1647:1786   */\n      pop\n      pop\n      pop\n      jump\t// out\n        /* \"#utility.yul\":1792:1894   */\n    tag_60:\n        /* \"#utility.yul\":1833:1839   */\n      0x00\n        /* \"#utility.yul\":1884:1886   */\n      0x1f\n        /* \"#utility.yul\":1880:1887   */\n      not\n        /* \"#utility.yul\":1875:1877   */\n      0x1f\n        /* \"#utility.yul\":1868:1873   */\n      dup4\n        /* \"#utility.yul\":1864:1878   */\n      add\n        /* \"#utility.yul\":1860:1888   */\n      and\n        /* \"#utility.yul\":1850:1888   */\n      swap1\n      pop\n        /* \"#utility.yul\":1792:1894   */\n      swap2\n      swap1\n      pop\n      jump\t// out\n        /* \"#utility.yul\":1900:2257   */\n    tag_61:\n        /* \"#utility.yul\":1978:1981   */\n      0x00\n        /* \"#utility.yul\":2006:2045   */\n      tag_114\n        /* \"#utility.yul\":2039:2044   */\n      dup3\n        /* \"#utility.yul\":2006:2045   */\n      tag_57\n      jump\t// in\n    tag_114:\n        /* \"#utility.yul\":2061:2122   */\n      tag_115\n        /* \"#utility.yul\":2115:2121   */\n      dup2\n        /* \"#utility.yul\":2110:2113   */\n      dup6\n        /* \"#utility.yul\":2061:2122   */\n      tag_58\n      jump\t// in\n    tag_115:\n        /* \"#utility.yul\":2054:2122   */\n      swap4\n      pop\n        /* \"#utility.yul\":2131:2196   */\n      tag_116\n        /* \"#utility.yul\":2189:2195   */\n      dup2\n        /* \"#utility.yul\":2184:2187   */\n      dup6\n        /* \"#utility.yul\":2177:2181   */\n      0x20\n        /* \"#utility.yul\":2170:2175   */\n      dup7\n        /* \"#utility.yul\":2166:2182   */\n      add\n        /* \"#utility.yul\":2131:2196   */\n      tag_59\n      jump\t// in\n    tag_116:\n        /* \"#utility.yul\":2221:2250   */\n      tag_117\n        /* \"#utility.yul\":2243:2249   */\n      dup2\n        /* \"#utility.yul\":2221:2250   */\n      tag_60\n      jump\t// in\n    tag_117:\n        /* \"#utility.yul\":2216:2219   */\n      dup5\n        /* \"#utility.yul\":2212:2251   */\n      add\n        /* \"#utility.yul\":2205:2251   */\n      swap2\n      pop\n        /* \"#utility.yul\":1982:2257   */\n      pop\n        /* \"#utility.yul\":1900:2257   */\n      swap3\n      swap2\n      pop\n      pop\n      jump\t// out\n        /* \"#utility.yul\":2263:2371   */\n    tag_62:\n        /* \"#utility.yul\":2340:2364   */\n      tag_119\n        /* \"#utility.yul\":2358:2363   */\n      dup2\n        /* \"#utility.yul\":2340:2364   */\n      tag_50\n      jump\t// in\n    tag_119:\n        /* \"#utility.yul\":2335:2338   */\n      dup3\n        /* \"#utility.yul\":2328:2365   */\n      mstore\n        /* \"#utility.yul\":2263:2371   */\n      pop\n      pop\n      jump\t// out\n        /* \"#utility.yul\":2425:3203   */\n    tag_63:\n        /* \"#utility.yul\":2542:2545   */\n      0x00\n        /* \"#utility.yul\":2578:2582   */\n      0x60\n        /* \"#utility.yul\":2573:2576   */\n      dup4\n        /* \"#utility.yul\":2569:2583   */\n      add\n        /* \"#utility.yul\":2665:2669   */\n      0x00\n        /* \"#utility.yul\":2658:2663   */\n      dup4\n        /* \"#utility.yul\":2654:2670   */\n      add\n        /* \"#utility.yul\":2648:2671   */\n      mload\n        /* \"#utility.yul\":2718:2721   */\n      dup5\n        /* \"#utility.yul\":2712:2716   */\n      dup3\n        /* \"#utility.yul\":2708:2722   */\n      sub\n        /* \"#utility.yul\":2701:2705   */\n      0x00\n        /* \"#utility.yul\":2696:2699   */\n      dup7\n        /* \"#utility.yul\":2692:2706   */\n      add\n        /* \"#utility.yul\":2685:2723   */\n      mstore\n        /* \"#utility.yul\":2744:2817   */\n      tag_121\n        /* \"#utility.yul\":2812:2816   */\n      dup3\n        /* \"#utility.yul\":2798:2810   */\n      dup3\n        /* \"#utility.yul\":2744:2817   */\n      tag_61\n      jump\t// in\n    tag_121:\n        /* \"#utility.yul\":2736:2817   */\n      swap2\n      pop\n        /* \"#utility.yul\":2593:2828   */\n      pop\n        /* \"#utility.yul\":2909:2913   */\n      0x20\n        /* \"#utility.yul\":2902:2907   */\n      dup4\n        /* \"#utility.yul\":2898:2914   */\n      add\n        /* \"#utility.yul\":2892:2915   */\n      mload\n        /* \"#utility.yul\":2928:2991   */\n      tag_122\n        /* \"#utility.yul\":2985:2989   */\n      0x20\n        /* \"#utility.yul\":2980:2983   */\n      dup7\n        /* \"#utility.yul\":2976:2990   */\n      add\n        /* \"#utility.yul\":2962:2974   */\n      dup3\n        /* \"#utility.yul\":2928:2991   */\n      tag_62\n      jump\t// in\n    tag_122:\n        /* \"#utility.yul\":2838:3001   */\n      pop\n        /* \"#utility.yul\":3084:3088   */\n      0x40\n        /* \"#utility.yul\":3077:3082   */\n      dup4\n        /* \"#utility.yul\":3073:3089   */\n      add\n        /* \"#utility.yul\":3067:3090   */\n      mload\n        /* \"#utility.yul\":3103:3166   */\n      tag_123\n        /* \"#utility.yul\":3160:3164   */\n      0x40\n        /* \"#utility.yul\":3155:3158   */\n      dup7\n        /* \"#utility.yul\":3151:3165   */\n      add\n        /* \"#utility.yul\":3137:3149   */\n      dup3\n        /* \"#utility.yul\":3103:3166   */\n      tag_62\n      jump\t// in\n    tag_123:\n        /* \"#utility.yul\":3011:3176   */\n      pop\n        /* \"#utility.yul\":3193:3197   */\n      dup1\n        /* \"#utility.yul\":3186:3197   */\n      swap2\n      pop\n        /* \"#utility.yul\":2547:3203   */\n      pop\n        /* \"#utility.yul\":2425:3203   */\n      swap3\n      swap2\n      pop\n      pop\n      jump\t// out\n        /* \"#utility.yul\":3209:3578   */\n    tag_15:\n        /* \"#utility.yul\":3350:3354   */\n      0x00\n        /* \"#utility.yul\":3388:3390   */\n      0x20\n        /* \"#utility.yul\":3377:3386   */\n      dup3\n        /* \"#utility.yul\":3373:3391   */\n      add\n        /* \"#utility.yul\":3365:3391   */\n      swap1\n      pop\n        /* \"#utility.yul\":3437:3446   */\n      dup2\n        /* \"#utility.yul\":3431:3435   */\n      dup2\n        /* \"#utility.yul\":3427:3447   */\n      sub\n        /* \"#utility.yul\":3423:3424   */\n      0x00\n        /* \"#utility.yul\":3412:3421   */\n      dup4\n        /* \"#utility.yul\":3408:3425   */\n      add\n        /* \"#utility.yul\":3401:3448   */\n      mstore\n        /* \"#utility.yul\":3465:3571   */\n      tag_125\n        /* \"#utility.yul\":3566:3570   */\n      dup2\n        /* \"#utility.yul\":3557:3563   */\n      dup5\n        /* \"#utility.yul\":3465:3571   */\n      tag_63\n      jump\t// in\n    tag_125:\n        /* \"#utility.yul\":3457:3571   */\n      swap1\n      pop\n        /* \"#utility.yul\":3209:3578   */\n      swap3\n      swap2\n      pop\n      pop\n      jump\t// out\n        /* \"#utility.yul\":3584:3701   */\n    tag_64:\n        /* \"#utility.yul\":3693:3694   */\n      0x00\n        /* \"#utility.yul\":3690:3691   */\n      dup1\n        /* \"#utility.yul\":3683:3695   */\n      revert\n        /* \"#utility.yul\":3707:3824   */\n    tag_65:\n        /* \"#utility.yul\":3816:3817   */\n      0x00\n        /* \"#utility.yul\":3813:3814   */\n      dup1\n        /* \"#utility.yul\":3806:3818   */\n      revert\n        /* \"#utility.yul\":3830:4010   */\n    tag_66:\n        /* \"#utility.yul\":3878:3955   */\n      0x4e487b7100000000000000000000000000000000000000000000000000000000\n        /* \"#utility.yul\":3875:3876   */\n      0x00\n        /* \"#utility.yul\":3868:3956   */\n      mstore\n        /* \"#utility.yul\":3975:3979   */\n      0x41\n        /* \"#utility.yul\":3972:3973   */\n      0x04\n        /* \"#utility.yul\":3965:3980   */\n      mstore\n        /* \"#utility.yul\":3999:4003   */\n      0x24\n        /* \"#utility.yul\":3996:3997   */\n      0x00\n        /* \"#utility.yul\":3989:4004   */\n      revert\n        /* \"#utility.yul\":4016:4297   */\n    tag_67:\n        /* \"#utility.yul\":4099:4126   */\n      tag_130\n        /* \"#utility.yul\":4121:4125   */\n      dup3\n        /* \"#utility.yul\":4099:4126   */\n      tag_60\n      jump\t// in\n    tag_130:\n        /* \"#utility.yul\":4091:4097   */\n      dup2\n        /* \"#utility.yul\":4087:4127   */\n      add\n        /* \"#utility.yul\":4229:4235   */\n      dup2\n        /* \"#utility.yul\":4217:4227   */\n      dup2\n        /* \"#utility.yul\":4214:4236   */\n      lt\n        /* \"#utility.yul\":4193:4211   */\n      0xffffffffffffffff\n        /* \"#utility.yul\":4181:4191   */\n      dup3\n        /* \"#utility.yul\":4178:4212   */\n      gt\n        /* \"#utility.yul\":4175:4237   */\n      or\n        /* \"#utility.yul\":4172:4260   */\n      iszero\n      tag_131\n      jumpi\n        /* \"#utility.yul\":4240:4258   */\n      tag_132\n      tag_66\n      jump\t// in\n    tag_132:\n        /* \"#utility.yul\":4172:4260   */\n    tag_131:\n        /* \"#utility.yul\":4280:4290   */\n      dup1\n        /* \"#utility.yul\":4276:4278   */\n      0x40\n        /* \"#utility.yul\":4269:4291   */\n      mstore\n        /* \"#utility.yul\":4059:4297   */\n      pop\n        /* \"#utility.yul\":4016:4297   */\n      pop\n      pop\n      jump\t// out\n        /* \"#utility.yul\":4303:4432   */\n    tag_68:\n        /* \"#utility.yul\":4337:4343   */\n      0x00\n        /* \"#utility.yul\":4364:4384   */\n      tag_134\n      tag_52\n      jump\t// in\n    tag_134:\n        /* \"#utility.yul\":4354:4384   */\n      swap1\n      pop\n        /* \"#utility.yul\":4393:4426   */\n      tag_135\n        /* \"#utility.yul\":4421:4425   */\n      dup3\n        /* \"#utility.yul\":4413:4419   */\n      dup3\n        /* \"#utility.yul\":4393:4426   */\n      tag_67\n      jump\t// in\n    tag_135:\n        /* \"#utility.yul\":4303:4432   */\n      swap2\n      swap1\n      pop\n      jump\t// out\n        /* \"#utility.yul\":4438:4746   */\n    tag_69:\n        /* \"#utility.yul\":4500:4504   */\n      0x00\n        /* \"#utility.yul\":4590:4608   */\n      0xffffffffffffffff\n        /* \"#utility.yul\":4582:4588   */\n      dup3\n        /* \"#utility.yul\":4579:4609   */\n      gt\n        /* \"#utility.yul\":4576:4632   */\n      iszero\n      tag_137\n      jumpi\n        /* \"#utility.yul\":4612:4630   */\n      tag_138\n      tag_66\n      jump\t// in\n    tag_138:\n        /* \"#utility.yul\":4576:4632   */\n    tag_137:\n        /* \"#utility.yul\":4650:4679   */\n      tag_139\n        /* \"#utility.yul\":4672:4678   */\n      dup3\n        /* \"#utility.yul\":4650:4679   */\n      tag_60\n      jump\t// in\n    tag_139:\n        /* \"#utility.yul\":4642:4679   */\n      swap1\n      pop\n        /* \"#utility.yul\":4734:4738   */\n      0x20\n        /* \"#utility.yul\":4728:4732   */\n      dup2\n        /* \"#utility.yul\":4724:4739   */\n      add\n        /* \"#utility.yul\":4716:4739   */\n      swap1\n      pop\n        /* \"#utility.yul\":4438:4746   */\n      swap2\n      swap1\n      pop\n      jump\t// out\n        /* \"#utility.yul\":4752:4900   */\n    tag_70:\n        /* \"#utility.yul\":4850:4856   */\n      dup3\n        /* \"#utility.yul\":4845:4848   */\n      dup2\n        /* \"#utility.yul\":4840:4843   */\n      dup4\n        /* \"#utility.yul\":4827:4857   */\n      calldatacopy\n        /* \"#utility.yul\":4891:4892   */\n      0x00\n        /* \"#utility.yul\":4882:4888   */\n      dup4\n        /* \"#utility.yul\":4877:4880   */\n      dup4\n        /* \"#utility.yul\":4873:4889   */\n      add\n        /* \"#utility.yul\":4866:4893   */\n      mstore\n        /* \"#utility.yul\":4752:4900   */\n      pop\n      pop\n      pop\n      jump\t// out\n        /* \"#utility.yul\":4906:5331   */\n    tag_71:\n        /* \"#utility.yul\":4984:4989   */\n      0x00\n        /* \"#utility.yul\":5009:5075   */\n      tag_142\n        /* \"#utility.yul\":5025:5074   */\n      tag_143\n        /* \"#utility.yul\":5067:5073   */\n      dup5\n        /* \"#utility.yul\":5025:5074   */\n      tag_69\n      jump\t// in\n    tag_143:\n        /* \"#utility.yul\":5009:5075   */\n      tag_68\n      jump\t// in\n    tag_142:\n        /* \"#utility.yul\":5000:5075   */\n      swap1\n      pop\n        /* \"#utility.yul\":5098:5104   */\n      dup3\n        /* \"#utility.yul\":5091:5096   */\n      dup2\n        /* \"#utility.yul\":5084:5105   */\n      mstore\n        /* \"#utility.yul\":5136:5140   */\n      0x20\n        /* \"#utility.yul\":5129:5134   */\n      dup2\n        /* \"#utility.yul\":5125:5141   */\n      add\n        /* \"#utility.yul\":5174:5177   */\n      dup5\n        /* \"#utility.yul\":5165:5171   */\n      dup5\n        /* \"#utility.yul\":5160:5163   */\n      dup5\n        /* \"#utility.yul\":5156:5172   */\n      add\n        /* \"#utility.yul\":5153:5178   */\n      gt\n        /* \"#utility.yul\":5150:5262   */\n      iszero\n      tag_144\n      jumpi\n        /* \"#utility.yul\":5181:5260   */\n      tag_145\n      tag_65\n      jump\t// in\n    tag_145:\n        /* \"#utility.yul\":5150:5262   */\n    tag_144:\n        /* \"#utility.yul\":5271:5325   */\n      tag_146\n        /* \"#utility.yul\":5318:5324   */\n      dup5\n        /* \"#utility.yul\":5313:5316   */\n      dup3\n        /* \"#utility.yul\":5308:5311   */\n      dup6\n        /* \"#utility.yul\":5271:5325   */\n      tag_70\n      jump\t// in\n    tag_146:\n        /* \"#utility.yul\":4990:5331   */\n      pop\n        /* \"#utility.yul\":4906:5331   */\n      swap4\n      swap3\n      pop\n      pop\n      pop\n      jump\t// out\n        /* \"#utility.yul\":5351:5691   */\n    tag_72:\n        /* \"#utility.yul\":5407:5412   */\n      0x00\n        /* \"#utility.yul\":5456:5459   */\n      dup3\n        /* \"#utility.yul\":5449:5453   */\n      0x1f\n        /* \"#utility.yul\":5441:5447   */\n      dup4\n        /* \"#utility.yul\":5437:5454   */\n      add\n        /* \"#utility.yul\":5433:5460   */\n      slt\n        /* \"#utility.yul\":5423:5545   */\n      tag_148\n      jumpi\n        /* \"#utility.yul\":5464:5543   */\n      tag_149\n      tag_64\n      jump\t// in\n    tag_149:\n        /* \"#utility.yul\":5423:5545   */\n    tag_148:\n        /* \"#utility.yul\":5581:5587   */\n      dup2\n        /* \"#utility.yul\":5568:5588   */\n      calldataload\n        /* \"#utility.yul\":5606:5685   */\n      tag_150\n        /* \"#utility.yul\":5681:5684   */\n      dup5\n        /* \"#utility.yul\":5673:5679   */\n      dup3\n        /* \"#utility.yul\":5666:5670   */\n      0x20\n        /* \"#utility.yul\":5658:5664   */\n      dup7\n        /* \"#utility.yul\":5654:5671   */\n      add\n        /* \"#utility.yul\":5606:5685   */\n      tag_71\n      jump\t// in\n    tag_150:\n        /* \"#utility.yul\":5597:5685   */\n      swap2\n      pop\n        /* \"#utility.yul\":5413:5691   */\n      pop\n        /* \"#utility.yul\":5351:5691   */\n      swap3\n      swap2\n      pop\n      pop\n      jump\t// out\n        /* \"#utility.yul\":5697:6496   */\n    tag_18:\n        /* \"#utility.yul\":5784:5790   */\n      0x00\n        /* \"#utility.yul\":5792:5798   */\n      dup1\n        /* \"#utility.yul\":5800:5806   */\n      0x00\n        /* \"#utility.yul\":5849:5851   */\n      0x60\n        /* \"#utility.yul\":5837:5846   */\n      dup5\n        /* \"#utility.yul\":5828:5835   */\n      dup7\n        /* \"#utility.yul\":5824:5847   */\n      sub\n        /* \"#utility.yul\":5820:5852   */\n      slt\n        /* \"#utility.yul\":5817:5936   */\n      iszero\n      tag_152\n      jumpi\n        /* \"#utility.yul\":5855:5934   */\n      tag_153\n      tag_53\n      jump\t// in\n    tag_153:\n        /* \"#utility.yul\":5817:5936   */\n    tag_152:\n        /* \"#utility.yul\":6003:6004   */\n      0x00\n        /* \"#utility.yul\":5992:6001   */\n      dup5\n        /* \"#utility.yul\":5988:6005   */\n      add\n        /* \"#utility.yul\":5975:6006   */\n      calldataload\n        /* \"#utility.yul\":6033:6051   */\n      0xffffffffffffffff\n        /* \"#utility.yul\":6025:6031   */\n      dup2\n        /* \"#utility.yul\":6022:6052   */\n      gt\n        /* \"#utility.yul\":6019:6136   */\n      iszero\n      tag_154\n      jumpi\n        /* \"#utility.yul\":6055:6134   */\n      tag_155\n      tag_54\n      jump\t// in\n    tag_155:\n        /* \"#utility.yul\":6019:6136   */\n    tag_154:\n        /* \"#utility.yul\":6160:6223   */\n      tag_156\n        /* \"#utility.yul\":6215:6222   */\n      dup7\n        /* \"#utility.yul\":6206:6212   */\n      dup3\n        /* \"#utility.yul\":6195:6204   */\n      dup8\n        /* \"#utility.yul\":6191:6213   */\n      add\n        /* \"#utility.yul\":6160:6223   */\n      tag_72\n      jump\t// in\n    tag_156:\n        /* \"#utility.yul\":6150:6223   */\n      swap4\n      pop\n        /* \"#utility.yul\":5946:6233   */\n      pop\n        /* \"#utility.yul\":6272:6274   */\n      0x20\n        /* \"#utility.yul\":6298:6351   */\n      tag_157\n        /* \"#utility.yul\":6343:6350   */\n      dup7\n        /* \"#utility.yul\":6334:6340   */\n      dup3\n        /* \"#utility.yul\":6323:6332   */\n      dup8\n        /* \"#utility.yul\":6319:6341   */\n      add\n        /* \"#utility.yul\":6298:6351   */\n      tag_56\n      jump\t// in\n    tag_157:\n        /* \"#utility.yul\":6288:6351   */\n      swap3\n      pop\n        /* \"#utility.yul\":6243:6361   */\n      pop\n        /* \"#utility.yul\":6400:6402   */\n      0x40\n        /* \"#utility.yul\":6426:6479   */\n      tag_158\n        /* \"#utility.yul\":6471:6478   */\n      dup7\n        /* \"#utility.yul\":6462:6468   */\n      dup3\n        /* \"#utility.yul\":6451:6460   */\n      dup8\n        /* \"#utility.yul\":6447:6469   */\n      add\n        /* \"#utility.yul\":6426:6479   */\n      tag_56\n      jump\t// in\n    tag_158:\n        /* \"#utility.yul\":6416:6479   */\n      swap2\n      pop\n        /* \"#utility.yul\":6371:6489   */\n      pop\n        /* \"#utility.yul\":5697:6496   */\n      swap3\n      pop\n      swap3\n      pop\n      swap3\n      jump\t// out\n        /* \"#utility.yul\":6502:6682   */\n    tag_26:\n        /* \"#utility.yul\":6550:6627   */\n      0x4e487b7100000000000000000000000000000000000000000000000000000000\n        /* \"#utility.yul\":6547:6548   */\n      0x00\n        /* \"#utility.yul\":6540:6628   */\n      mstore\n        /* \"#utility.yul\":6647:6651   */\n      0x32\n        /* \"#utility.yul\":6644:6645   */\n      0x04\n        /* \"#utility.yul\":6637:6652   */\n      mstore\n        /* \"#utility.yul\":6671:6675   */\n      0x24\n        /* \"#utility.yul\":6668:6669   */\n      0x00\n        /* \"#utility.yul\":6661:6676   */\n      revert\n        /* \"#utility.yul\":6688:6868   */\n    tag_73:\n        /* \"#utility.yul\":6736:6813   */\n      0x4e487b7100000000000000000000000000000000000000000000000000000000\n        /* \"#utility.yul\":6733:6734   */\n      0x00\n        /* \"#utility.yul\":6726:6814   */\n      mstore\n        /* \"#utility.yul\":6833:6837   */\n      0x11\n        /* \"#utility.yul\":6830:6831   */\n      0x04\n        /* \"#utility.yul\":6823:6838   */\n      mstore\n        /* \"#utility.yul\":6857:6861   */\n      0x24\n        /* \"#utility.yul\":6854:6855   */\n      0x00\n        /* \"#utility.yul\":6847:6862   */\n      revert\n        /* \"#utility.yul\":6874:7065   */\n    tag_29:\n        /* \"#utility.yul\":6914:6917   */\n      0x00\n        /* \"#utility.yul\":6933:6953   */\n      tag_162\n        /* \"#utility.yul\":6951:6952   */\n      dup3\n        /* \"#utility.yul\":6933:6953   */\n      tag_50\n      jump\t// in\n    tag_162:\n        /* \"#utility.yul\":6928:6953   */\n      swap2\n      pop\n        /* \"#utility.yul\":6967:6987   */\n      tag_163\n        /* \"#utility.yul\":6985:6986   */\n      dup4\n        /* \"#utility.yul\":6967:6987   */\n      tag_50\n      jump\t// in\n    tag_163:\n        /* \"#utility.yul\":6962:6987   */\n      swap3\n      pop\n        /* \"#utility.yul\":7010:7011   */\n      dup3\n        /* \"#utility.yul\":7007:7008   */\n      dup3\n        /* \"#utility.yul\":7003:7012   */\n      add\n        /* \"#utility.yul\":6996:7012   */\n      swap1\n      pop\n        /* \"#utility.yul\":7031:7034   */\n      dup1\n        /* \"#utility.yul\":7028:7029   */\n      dup3\n        /* \"#utility.yul\":7025:7035   */\n      gt\n        /* \"#utility.yul\":7022:7058   */\n      iszero\n      tag_164\n      jumpi\n        /* \"#utility.yul\":7038:7056   */\n      tag_165\n      tag_73\n      jump\t// in\n    tag_165:\n        /* \"#utility.yul\":7022:7058   */\n    tag_164:\n        /* \"#utility.yul\":6874:7065   */\n      swap3\n      swap2\n      pop\n      pop\n      jump\t// out\n        /* \"#utility.yul\":7071:7251   */\n    tag_74:\n        /* \"#utility.yul\":7119:7196   */\n      0x4e487b7100000000000000000000000000000000000000000000000000000000\n        /* \"#utility.yul\":7116:7117   */\n      0x00\n        /* \"#utility.yul\":7109:7197   */\n      mstore\n        /* \"#utility.yul\":7216:7220   */\n      0x12\n        /* \"#utility.yul\":7213:7214   */\n      0x04\n        /* \"#utility.yul\":7206:7221   */\n      mstore\n        /* \"#utility.yul\":7240:7244   */\n      0x24\n        /* \"#utility.yul\":7237:7238   */\n      0x00\n        /* \"#utility.yul\":7230:7245   */\n      revert\n        /* \"#utility.yul\":7257:7442   */\n    tag_31:\n        /* \"#utility.yul\":7297:7298   */\n      0x00\n        /* \"#utility.yul\":7314:7334   */\n      tag_168\n        /* \"#utility.yul\":7332:7333   */\n      dup3\n        /* \"#utility.yul\":7314:7334   */\n      tag_50\n      jump\t// in\n    tag_168:\n        /* \"#utility.yul\":7309:7334   */\n      swap2\n      pop\n        /* \"#utility.yul\":7348:7368   */\n      tag_169\n        /* \"#utility.yul\":7366:7367   */\n      dup4\n        /* \"#utility.yul\":7348:7368   */\n      tag_50\n      jump\t// in\n    tag_169:\n        /* \"#utility.yul\":7343:7368   */\n      swap3\n      pop\n        /* \"#utility.yul\":7387:7388   */\n      dup3\n        /* \"#utility.yul\":7377:7412   */\n      tag_170\n      jumpi\n        /* \"#utility.yul\":7392:7410   */\n      tag_171\n      tag_74\n      jump\t// in\n    tag_171:\n        /* \"#utility.yul\":7377:7412   */\n    tag_170:\n        /* \"#utility.yul\":7434:7435   */\n      dup3\n        /* \"#utility.yul\":7431:7432   */\n      dup3\n        /* \"#utility.yul\":7427:7436   */\n      div\n        /* \"#utility.yul\":7422:7436   */\n      swap1\n      pop\n        /* \"#utility.yul\":7257:7442   */\n      swap3\n      swap2\n      pop\n      pop\n      jump\t// out\n        /* \"#utility.yul\":7448:7642   */\n    tag_36:\n        /* \"#utility.yul\":7488:7492   */\n      0x00\n        /* \"#utility.yul\":7508:7528   */\n      tag_173\n        /* \"#utility.yul\":7526:7527   */\n      dup3\n        /* \"#utility.yul\":7508:7528   */\n      tag_50\n      jump\t// in\n    tag_173:\n        /* \"#utility.yul\":7503:7528   */\n      swap2\n      pop\n        /* \"#utility.yul\":7542:7562   */\n      tag_174\n        /* \"#utility.yul\":7560:7561   */\n      dup4\n        /* \"#utility.yul\":7542:7562   */\n      tag_50\n      jump\t// in\n    tag_174:\n        /* \"#utility.yul\":7537:7562   */\n      swap3\n      pop\n        /* \"#utility.yul\":7586:7587   */\n      dup3\n        /* \"#utility.yul\":7583:7584   */\n      dup3\n        /* \"#utility.yul\":7579:7588   */\n      sub\n        /* \"#utility.yul\":7571:7588   */\n      swap1\n      pop\n        /* \"#utility.yul\":7610:7611   */\n      dup2\n        /* \"#utility.yul\":7604:7608   */\n      dup2\n        /* \"#utility.yul\":7601:7612   */\n      gt\n        /* \"#utility.yul\":7598:7635   */\n      iszero\n      tag_175\n      jumpi\n        /* \"#utility.yul\":7615:7633   */\n      tag_176\n      tag_73\n      jump\t// in\n    tag_176:\n        /* \"#utility.yul\":7598:7635   */\n    tag_175:\n        /* \"#utility.yul\":7448:7642   */\n      swap3\n      swap2\n      pop\n      pop\n      jump\t// out\n        /* \"#utility.yul\":7648:7828   */\n    tag_75:\n        /* \"#utility.yul\":7696:7773   */\n      0x4e487b7100000000000000000000000000000000000000000000000000000000\n        /* \"#utility.yul\":7693:7694   */\n      0x00\n        /* \"#utility.yul\":7686:7774   */\n      mstore\n        /* \"#utility.yul\":7793:7797   */\n      0x22\n        /* \"#utility.yul\":7790:7791   */\n      0x04\n        /* \"#utility.yul\":7783:7798   */\n      mstore\n        /* \"#utility.yul\":7817:7821   */\n      0x24\n        /* \"#utility.yul\":7814:7815   */\n      0x00\n        /* \"#utility.yul\":7807:7822   */\n      revert\n        /* \"#utility.yul\":7834:8154   */\n    tag_41:\n        /* \"#utility.yul\":7878:7884   */\n      0x00\n        /* \"#utility.yul\":7915:7916   */\n      0x02\n        /* \"#utility.yul\":7909:7913   */\n      dup3\n        /* \"#utility.yul\":7905:7917   */\n      div\n        /* \"#utility.yul\":7895:7917   */\n      swap1\n      pop\n        /* \"#utility.yul\":7962:7963   */\n      0x01\n        /* \"#utility.yul\":7956:7960   */\n      dup3\n        /* \"#utility.yul\":7952:7964   */\n      and\n        /* \"#utility.yul\":7983:8001   */\n      dup1\n        /* \"#utility.yul\":7973:8054   */\n      tag_179\n      jumpi\n        /* \"#utility.yul\":8039:8043   */\n      0x7f\n        /* \"#utility.yul\":8031:8037   */\n      dup3\n        /* \"#utility.yul\":8027:8044   */\n      and\n        /* \"#utility.yul\":8017:8044   */\n      swap2\n      pop\n        /* \"#utility.yul\":7973:8054   */\n    tag_179:\n        /* \"#utility.yul\":8101:8103   */\n      0x20\n        /* \"#utility.yul\":8093:8099   */\n      dup3\n        /* \"#utility.yul\":8090:8104   */\n      lt\n        /* \"#utility.yul\":8070:8088   */\n      dup2\n        /* \"#utility.yul\":8067:8105   */\n      sub\n        /* \"#utility.yul\":8064:8148   */\n      tag_180\n      jumpi\n        /* \"#utility.yul\":8120:8138   */\n      tag_181\n      tag_75\n      jump\t// in\n    tag_181:\n        /* \"#utility.yul\":8064:8148   */\n    tag_180:\n        /* \"#utility.yul\":7885:8154   */\n      pop\n        /* \"#utility.yul\":7834:8154   */\n      swap2\n      swap1\n      pop\n      jump\t// out\n        /* \"#utility.yul\":8160:8301   */\n    tag_76:\n        /* \"#utility.yul\":8209:8213   */\n      0x00\n        /* \"#utility.yul\":8232:8235   */\n      dup2\n        /* \"#utility.yul\":8224:8235   */\n      swap1\n      pop\n        /* \"#utility.yul\":8255:8258   */\n      dup2\n        /* \"#utility.yul\":8252:8253   */\n      0x00\n        /* \"#utility.yul\":8245:8259   */\n      mstore\n        /* \"#utility.yul\":8289:8293   */\n      0x20\n        /* \"#utility.yul\":8286:8287   */\n      0x00\n        /* \"#utility.yul\":8276:8294   */\n      keccak256\n        /* \"#utility.yul\":8268:8294   */\n      swap1\n      pop\n        /* \"#utility.yul\":8160:8301   */\n      swap2\n      swap1\n      pop\n      jump\t// out\n        /* \"#utility.yul\":8307:8400   */\n    tag_77:\n        /* \"#utility.yul\":8344:8350   */\n      0x00\n        /* \"#utility.yul\":8391:8393   */\n      0x20\n        /* \"#utility.yul\":8386:8388   */\n      0x1f\n        /* \"#utility.yul\":8379:8384   */\n      dup4\n        /* \"#utility.yul\":8375:8389   */\n      add\n        /* \"#utility.yul\":8371:8394   */\n      div\n        /* \"#utility.yul\":8361:8394   */\n      swap1\n      pop\n        /* \"#utility.yul\":8307:8400   */\n      swap2\n      swap1\n      pop\n      jump\t// out\n        /* \"#utility.yul\":8406:8513   */\n    tag_78:\n        /* \"#utility.yul\":8450:8458   */\n      0x00\n        /* \"#utility.yul\":8500:8505   */\n      dup3\n        /* \"#utility.yul\":8494:8498   */\n      dup3\n        /* \"#utility.yul\":8490:8506   */\n      shl\n        /* \"#utility.yul\":8469:8506   */\n      swap1\n      pop\n        /* \"#utility.yul\":8406:8513   */\n      swap3\n      swap2\n      pop\n      pop\n      jump\t// out\n        /* \"#utility.yul\":8519:8912   */\n    tag_79:\n        /* \"#utility.yul\":8588:8594   */\n      0x00\n        /* \"#utility.yul\":8638:8639   */\n      0x08\n        /* \"#utility.yul\":8626:8636   */\n      dup4\n        /* \"#utility.yul\":8622:8640   */\n      mul\n        /* \"#utility.yul\":8661:8758   */\n      tag_186\n        /* \"#utility.yul\":8691:8757   */\n      0xffffffffffffffffffffffffffffffffffffffffffffffffffffffffffffffff\n        /* \"#utility.yul\":8680:8689   */\n      dup3\n        /* \"#utility.yul\":8661:8758   */\n      tag_78\n      jump\t// in\n    tag_186:\n        /* \"#utility.yul\":8779:8818   */\n      tag_187\n        /* \"#utility.yul\":8809:8817   */\n      dup7\n        /* \"#utility.yul\":8798:8807   */\n      dup4\n        /* \"#utility.yul\":8779:8818   */\n      tag_78\n      jump\t// in\n    tag_187:\n        /* \"#utility.yul\":8767:8818   */\n      swap6\n      pop\n        /* \"#utility.yul\":8851:8855   */\n      dup1\n        /* \"#utility.yul\":8847:8856   */\n      not\n        /* \"#utility.yul\":8840:8845   */\n      dup5\n        /* \"#utility.yul\":8836:8857   */\n      and\n        /* \"#utility.yul\":8827:8857   */\n      swap4\n      pop\n        /* \"#utility.yul\":8900:8904   */\n      dup1\n        /* \"#utility.yul\":8890:8898   */\n      dup7\n        /* \"#utility.yul\":8886:8905   */\n      and\n        /* \"#utility.yul\":8879:8884   */\n      dup5\n        /* \"#utility.yul\":8876:8906   */\n      or\n        /* \"#utility.yul\":8866:8906   */\n      swap3\n      pop\n        /* \"#utility.yul\":8595:8912   */\n      pop\n      pop\n        /* \"#utility.yul\":8519:8912   */\n      swap4\n      swap3\n      pop\n      pop\n      pop\n      jump\t// out\n        /* \"#utility.yul\":8918:8978   */\n    tag_80:\n        /* \"#utility.yul\":8946:8949   */\n      0x00\n        /* \"#utility.yul\":8967:8972   */\n      dup2\n        /* \"#utility.yul\":8960:8972   */\n      swap1\n      pop\n        /* \"#utility.yul\":8918:8978   */\n      swap2\n      swap1\n      pop\n      jump\t// out\n        /* \"#utility.yul\":8984:9126   */\n    tag_81:\n        /* \"#utility.yul\":9034:9043   */\n      0x00\n        /* \"#utility.yul\":9067:9120   */\n      tag_190\n        /* \"#utility.yul\":9085:9119   */\n      tag_191\n        /* \"#utility.yul\":9094:9118   */\n      tag_192\n        /* \"#utility.yul\":9112:9117   */\n      dup5\n        /* \"#utility.yul\":9094:9118   */\n      tag_50\n      jump\t// in\n    tag_192:\n        /* \"#utility.yul\":9085:9119   */\n      tag_80\n      jump\t// in\n    tag_191:\n        /* \"#utility.yul\":9067:9120   */\n      tag_50\n      jump\t// in\n    tag_190:\n        /* \"#utility.yul\":9054:9120   */\n      swap1\n      pop\n        /* \"#utility.yul\":8984:9126   */\n      swap2\n      swap1\n      pop\n      jump\t// out\n        /* \"#utility.yul\":9132:9207   */\n    tag_82:\n        /* \"#utility.yul\":9175:9178   */\n      0x00\n        /* \"#utility.yul\":9196:9201   */\n      dup2\n        /* \"#utility.yul\":9189:9201   */\n      swap1\n      pop\n        /* \"#utility.yul\":9132:9207   */\n      swap2\n      swap1\n      pop\n      jump\t// out\n        /* \"#utility.yul\":9213:9482   */\n    tag_83:\n        /* \"#utility.yul\":9323:9362   */\n      tag_195\n        /* \"#utility.yul\":9354:9361   */\n      dup4\n        /* \"#utility.yul\":9323:9362   */\n      tag_81\n      jump\t// in\n    tag_195:\n        /* \"#utility.yul\":9384:9475   */\n      tag_196\n        /* \"#utility.yul\":9433:9474   */\n      tag_197\n        /* \"#utility.yul\":9457:9473   */\n      dup3\n        /* \"#utility.yul\":9433:9474   */\n      tag_82\n      jump\t// in\n    tag_197:\n        /* \"#utility.yul\":9425:9431   */\n      dup5\n        /* \"#utility.yul\":9418:9422   */\n      dup5\n        /* \"#utility.yul\":9412:9423   */\n      sload\n        /* \"#utility.yul\":9384:9475   */\n      tag_79\n      jump\t// in\n    tag_196:\n        /* \"#utility.yul\":9378:9382   */\n      dup3\n        /* \"#utility.yul\":9371:9476   */\n      sstore\n        /* \"#utility.yul\":9289:9482   */\n      pop\n        /* \"#utility.yul\":9213:9482   */\n      pop\n      pop\n      pop\n      jump\t// out\n        /* \"#utility.yul\":9488:9561   */\n    tag_84:\n        /* \"#utility.yul\":9533:9536   */\n      0x00\n        /* \"#utility.yul\":9488:9561   */\n      swap1\n      jump\t// out\n        /* \"#utility.yul\":9567:9756   */\n    tag_85:\n        /* \"#utility.yul\":9644:9676   */\n      tag_200\n      tag_84\n      jump\t// in\n    tag_200:\n        /* \"#utility.yul\":9685:9750   */\n      tag_201\n        /* \"#utility.yul\":9743:9749   */\n      dup2\n        /* \"#utility.yul\":9735:9741   */\n      dup5\n        /* \"#utility.yul\":9729:9733   */\n      dup5\n        /* \"#utility.yul\":9685:9750   */\n      tag_83\n      jump\t// in\n    tag_201:\n        /* \"#utility.yul\":9620:9756   */\n      pop\n        /* \"#utility.yul\":9567:9756   */\n      pop\n      pop\n      jump\t// out\n        /* \"#utility.yul\":9762:9948   */\n    tag_86:\n        /* \"#utility.yul\":9822:9942   */\n    tag_203:\n        /* \"#utility.yul\":9839:9842   */\n      dup2\n        /* \"#utility.yul\":9832:9837   */\n      dup2\n        /* \"#utility.yul\":9829:9843   */\n      lt\n        /* \"#utility.yul\":9822:9942   */\n      iszero\n      tag_205\n      jumpi\n        /* \"#utility.yul\":9893:9932   */\n      tag_206\n        /* \"#utility.yul\":9930:9931   */\n      0x00\n        /* \"#utility.yul\":9923:9928   */\n      dup3\n        /* \"#utility.yul\":9893:9932   */\n      tag_85\n      jump\t// in\n    tag_206:\n        /* \"#utility.yul\":9866:9867   */\n      0x01\n        /* \"#utility.yul\":9859:9864   */\n      dup2\n        /* \"#utility.yul\":9855:9868   */\n      add\n        /* \"#utility.yul\":9846:9868   */\n      swap1\n      pop\n        /* \"#utility.yul\":9822:9942   */\n      jump(tag_203)\n    tag_205:\n        /* \"#utility.yul\":9762:9948   */\n      pop\n      pop\n      jump\t// out\n        /* \"#utility.yul\":9954:10497   */\n    tag_87:\n        /* \"#utility.yul\":10055:10057   */\n      0x1f\n        /* \"#utility.yul\":10050:10053   */\n      dup3\n        /* \"#utility.yul\":10047:10058   */\n      gt\n        /* \"#utility.yul\":10044:10490   */\n      iszero\n      tag_208\n      jumpi\n        /* \"#utility.yul\":10089:10127   */\n      tag_209\n        /* \"#utility.yul\":10121:10126   */\n      dup2\n        /* \"#utility.yul\":10089:10127   */\n      tag_76\n      jump\t// in\n    tag_209:\n        /* \"#utility.yul\":10173:10202   */\n      tag_210\n        /* \"#utility.yul\":10191:10201   */\n      dup5\n        /* \"#utility.yul\":10173:10202   */\n      tag_77\n      jump\t// in\n    tag_210:\n        /* \"#utility.yul\":10163:10171   */\n      dup2\n        /* \"#utility.yul\":10159:10203   */\n      add\n        /* \"#utility.yul\":10356:10358   */\n      0x20\n        /* \"#utility.yul\":10344:10354   */\n      dup6\n        /* \"#utility.yul\":10341:10359   */\n      lt\n        /* \"#utility.yul\":10338:10387   */\n      iszero\n      tag_211\n      jumpi\n        /* \"#utility.yul\":10377:10385   */\n      dup2\n        /* \"#utility.yul\":10362:10385   */\n      swap1\n      pop\n        /* \"#utility.yul\":10338:10387   */\n    tag_211:\n        /* \"#utility.yul\":10400:10480   */\n      tag_212\n        /* \"#utility.yul\":10456:10478   */\n      tag_213\n        /* \"#utility.yul\":10474:10477   */\n      dup6\n        /* \"#utility.yul\":10456:10478   */\n      tag_77\n      jump\t// in\n    tag_213:\n        /* \"#utility.yul\":10446:10454   */\n      dup4\n        /* \"#utility.yul\":10442:10479   */\n      add\n        /* \"#utility.yul\":10429:10440   */\n      dup3\n        /* \"#utility.yul\":10400:10480   */\n      tag_86\n      jump\t// in\n    tag_212:\n        /* \"#utility.yul\":10059:10490   */\n      pop\n      pop\n        /* \"#utility.yul\":10044:10490   */\n    tag_208:\n        /* \"#utility.yul\":9954:10497   */\n      pop\n      pop\n      pop\n      jump\t// out\n        /* \"#utility.yul\":10503:10620   */\n    tag_88:\n        /* \"#utility.yul\":10557:10565   */\n      0x00\n        /* \"#utility.yul\":10607:10612   */\n      dup3\n        /* \"#utility.yul\":10601:10605   */\n      dup3\n        /* \"#utility.yul\":10597:10613   */\n      shr\n        /* \"#utility.yul\":10576:10613   */\n      swap1\n      pop\n        /* \"#utility.yul\":10503:10620   */\n      swap3\n      swap2\n      pop\n      pop\n      jump\t// out\n        /* \"#utility.yul\":10626:10795   */\n    tag_89:\n        /* \"#utility.yul\":10670:10676   */\n      0x00\n        /* \"#utility.yul\":10703:10754   */\n      tag_216\n        /* \"#utility.yul\":10751:10752   */\n      0x00\n        /* \"#utility.yul\":10747:10753   */\n      not\n        /* \"#utility.yul\":10739:10744   */\n      dup5\n        /* \"#utility.yul\":10736:10737   */\n      0x08\n        /* \"#utility.yul\":10732:10745   */\n      mul\n        /* \"#utility.yul\":10703:10754   */\n      tag_88\n      jump\t// in\n    tag_216:\n        /* \"#utility.yul\":10699:10755   */\n      not\n        /* \"#utility.yul\":10784:10788   */\n      dup1\n        /* \"#utility.yul\":10778:10782   */\n      dup4\n        /* \"#utility.yul\":10774:10789   */\n      and\n        /* \"#utility.yul\":10764:10789   */\n      swap2\n      pop\n        /* \"#utility.yul\":10677:10795   */\n      pop\n        /* \"#utility.yul\":10626:10795   */\n      swap3\n      swap2\n      pop\n      pop\n      jump\t// out\n        /* \"#utility.yul\":10800:11095   */\n    tag_90:\n        /* \"#utility.yul\":10876:10880   */\n      0x00\n        /* \"#utility.yul\":11022:11051   */\n      tag_218\n        /* \"#utility.yul\":11047:11050   */\n      dup4\n        /* \"#utility.yul\":11041:11045   */\n      dup4\n        /* \"#utility.yul\":11022:11051   */\n      tag_89\n      jump\t// in\n    tag_218:\n        /* \"#utility.yul\":11014:11051   */\n      swap2\n      pop\n        /* \"#utility.yul\":11084:11087   */\n      dup3\n        /* \"#utility.yul\":11081:11082   */\n      0x02\n        /* \"#utility.yul\":11077:11088   */\n      mul\n        /* \"#utility.yul\":11071:11075   */\n      dup3\n        /* \"#utility.yul\":11068:11089   */\n      or\n        /* \"#utility.yul\":11060:11089   */\n      swap1\n      pop\n        /* \"#utility.yul\":10800:11095   */\n      swap3\n      swap2\n      pop\n      pop\n      jump\t// out\n        /* \"#utility.yul\":11100:12495   */\n    tag_49:\n        /* \"#utility.yul\":11217:11254   */\n      tag_220\n        /* \"#utility.yul\":11250:11253   */\n      dup3\n        /* \"#utility.yul\":11217:11254   */\n      tag_57\n      jump\t// in\n    tag_220:\n        /* \"#utility.yul\":11319:11337   */\n      0xffffffffffffffff\n        /* \"#utility.yul\":11311:11317   */\n      dup2\n        /* \"#utility.yul\":11308:11338   */\n      gt\n        /* \"#utility.yul\":11305:11361   */\n      iszero\n      tag_221\n      jumpi\n        /* \"#utility.yul\":11341:11359   */\n      tag_222\n      tag_66\n      jump\t// in\n    tag_222:\n        /* \"#utility.yul\":11305:11361   */\n    tag_221:\n        /* \"#utility.yul\":11385:11423   */\n      tag_223\n        /* \"#utility.yul\":11417:11421   */\n      dup3\n        /* \"#utility.yul\":11411:11422   */\n      sload\n        /* \"#utility.yul\":11385:11423   */\n      tag_41\n      jump\t// in\n    tag_223:\n        /* \"#utility.yul\":11470:11537   */\n      tag_224\n        /* \"#utility.yul\":11530:11536   */\n      dup3\n        /* \"#utility.yul\":11522:11528   */\n      dup3\n        /* \"#utility.yul\":11516:11520   */\n      dup6\n        /* \"#utility.yul\":11470:11537   */\n      tag_87\n      jump\t// in\n    tag_224:\n        /* \"#utility.yul\":11564:11565   */\n      0x00\n        /* \"#utility.yul\":11588:11592   */\n      0x20\n        /* \"#utility.yul\":11575:11592   */\n      swap1\n      pop\n        /* \"#utility.yul\":11620:11622   */\n      0x1f\n        /* \"#utility.yul\":11612:11618   */\n      dup4\n        /* \"#utility.yul\":11609:11623   */\n      gt\n        /* \"#utility.yul\":11637:11638   */\n      0x01\n        /* \"#utility.yul\":11632:12250   */\n      dup2\n      eq\n      tag_226\n      jumpi\n        /* \"#utility.yul\":12294:12295   */\n      0x00\n        /* \"#utility.yul\":12311:12317   */\n      dup5\n        /* \"#utility.yul\":12308:12385   */\n      iszero\n      tag_227\n      jumpi\n        /* \"#utility.yul\":12360:12369   */\n      dup3\n        /* \"#utility.yul\":12355:12358   */\n      dup8\n        /* \"#utility.yul\":12351:12370   */\n      add\n        /* \"#utility.yul\":12345:12371   */\n      mload\n        /* \"#utility.yul\":12336:12371   */\n      swap1\n      pop\n        /* \"#utility.yul\":12308:12385   */\n    tag_227:\n        /* \"#utility.yul\":12411:12478   */\n      tag_228\n        /* \"#utility.yul\":12471:12477   */\n      dup6\n        /* \"#utility.yul\":12464:12469   */\n      dup3\n        /* \"#utility.yul\":12411:12478   */\n      tag_90\n      jump\t// in\n    tag_228:\n        /* \"#utility.yul\":12405:12409   */\n      dup7\n        /* \"#utility.yul\":12398:12479   */\n      sstore\n        /* \"#utility.yul\":12267:12489   */\n      pop\n        /* \"#utility.yul\":11602:12489   */\n      jump(tag_225)\n        /* \"#utility.yul\":11632:12250   */\n    tag_226:\n        /* \"#utility.yul\":11684:11688   */\n      0x1f\n        /* \"#utility.yul\":11680:11689   */\n      not\n        /* \"#utility.yul\":11672:11678   */\n      dup5\n        /* \"#utility.yul\":11668:11690   */\n      and\n        /* \"#utility.yul\":11718:11755   */\n      tag_229\n        /* \"#utility.yul\":11750:11754   */\n      dup7\n        /* \"#utility.yul\":11718:11755   */\n      tag_76\n      jump\t// in\n    tag_229:\n        /* \"#utility.yul\":11777:11778   */\n      0x00\n        /* \"#utility.yul\":11791:11999   */\n    tag_230:\n        /* \"#utility.yul\":11805:11812   */\n      dup3\n        /* \"#utility.yul\":11802:11803   */\n      dup2\n        /* \"#utility.yul\":11799:11813   */\n      lt\n        /* \"#utility.yul\":11791:11999   */\n      iszero\n      tag_232\n      jumpi\n        /* \"#utility.yul\":11884:11893   */\n      dup5\n        /* \"#utility.yul\":11879:11882   */\n      dup10\n        /* \"#utility.yul\":11875:11894   */\n      add\n        /* \"#utility.yul\":11869:11895   */\n      mload\n        /* \"#utility.yul\":11861:11867   */\n      dup3\n        /* \"#utility.yul\":11854:11896   */\n      sstore\n        /* \"#utility.yul\":11935:11936   */\n      0x01\n        /* \"#utility.yul\":11927:11933   */\n      dup3\n        /* \"#utility.yul\":11923:11937   */\n      add\n        /* \"#utility.yul\":11913:11937   */\n      swap2\n      pop\n        /* \"#utility.yul\":11982:11984   */\n      0x20\n        /* \"#utility.yul\":11971:11980   */\n      dup6\n        /* \"#utility.yul\":11967:11985   */\n      add\n        /* \"#utility.yul\":11954:11985   */\n      swap5\n      pop\n        /* \"#utility.yul\":11828:11832   */\n      0x20\n        /* \"#utility.yul\":11825:11826   */\n      dup2\n        /* \"#utility.yul\":11821:11833   */\n      add\n        /* \"#utility.yul\":11816:11833   */\n      swap1\n      pop\n        /* \"#utility.yul\":11791:11999   */\n      jump(tag_230)\n    tag_232:\n        /* \"#utility.yul\":12027:12033   */\n      dup7\n        /* \"#utility.yul\":12018:12025   */\n      dup4\n        /* \"#utility.yul\":12015:12034   */\n      lt\n        /* \"#utility.yul\":12012:12191   */\n      iszero\n      tag_233\n      jumpi\n        /* \"#utility.yul\":12085:12094   */\n      dup5\n        /* \"#utility.yul\":12080:12083   */\n      dup10\n        /* \"#utility.yul\":12076:12095   */\n      add\n        /* \"#utility.yul\":12070:12096   */\n      mload\n        /* \"#utility.yul\":12128:12176   */\n      tag_234\n        /* \"#utility.yul\":12170:12174   */\n      0x1f\n        /* \"#utility.yul\":12162:12168   */\n      dup10\n        /* \"#utility.yul\":12158:12175   */\n      and\n        /* \"#utility.yul\":12147:12156   */\n      dup3\n        /* \"#utility.yul\":12128:12176   */\n      tag_89\n      jump\t// in\n    tag_234:\n        /* \"#utility.yul\":12120:12126   */\n      dup4\n        /* \"#utility.yul\":12113:12177   */\n      sstore\n        /* \"#utility.yul\":12035:12191   */\n      pop\n        /* \"#utility.yul\":12012:12191   */\n    tag_233:\n        /* \"#utility.yul\":12237:12238   */\n      0x01\n        /* \"#utility.yul\":12233:12234   */\n      0x02\n        /* \"#utility.yul\":12225:12231   */\n      dup9\n        /* \"#utility.yul\":12221:12235   */\n      mul\n        /* \"#utility.yul\":12217:12239   */\n      add\n        /* \"#utility.yul\":12211:12215   */\n      dup9\n        /* \"#utility.yul\":12204:12240   */\n      sstore\n        /* \"#utility.yul\":11639:12250   */\n      pop\n      pop\n      pop\n        /* \"#utility.yul\":11602:12489   */\n    tag_225:\n      pop\n        /* \"#utility.yul\":11192:12495   */\n      pop\n      pop\n      pop\n        /* \"#utility.yul\":11100:12495   */\n      pop\n      pop\n      jump\t// out\n\n    auxdata: 0xa26469706673582212203964e1fa02f897994f42980066259d5b1088c7047e9bb440f7d21fa8a31de2a764736f6c634300081a0033\n}\n",
				"bytecode": {
					"linkReferences": {},
					"object": "6080604052348015600e575f80fd5b506109c38061001c5f395ff3fe608060405234801561000f575f80fd5b506004361061003f575f3560e01c806321055acb14610043578063642f91631461006157806382fae9b714610091575b5f80fd5b61004b6100ad565b60405161005891906102a4565b60405180910390f35b61007b600480360381019061007691906102f8565b610114565b60405161008891906103ef565b60405180910390f35b6100ab60048036038101906100a6919061053b565b6101fc565b005b5f805f8091505b5f805490508210156100fd575f82815481106100d3576100d26105a7565b5b905f5260205f20906003020160020154816100ee9190610601565b905081806001019250506100b4565b5f805490508161010d9190610661565b9250505090565b61011c61026d565b5f60018361012a9190610691565b8154811061013b5761013a6105a7565b5b905f5260205f2090600302016040518060600160405290815f82018054610161906106f1565b80601f016020809104026020016040519081016040528092919081815260200182805461018d906106f1565b80156101d85780601f106101af576101008083540402835291602001916101d8565b820191905f5260205f20905b8154815290600101906020018083116101bb57829003601f168201915b50505050508152602001600182015481526020016002820154815250509050919050565b5f604051806060016040528085815260200184815260200183815250908060018154018082558091505060019003905f5260205f2090600302015f909190919091505f820151815f01908161025191906108be565b5060208201518160010155604082015181600201555050505050565b6040518060600160405280606081526020015f81526020015f81525090565b5f819050919050565b61029e8161028c565b82525050565b5f6020820190506102b75f830184610295565b92915050565b5f604051905090565b5f80fd5b5f80fd5b6102d78161028c565b81146102e1575f80fd5b50565b5f813590506102f2816102ce565b92915050565b5f6020828403121561030d5761030c6102c6565b5b5f61031a848285016102e4565b91505092915050565b5f81519050919050565b5f82825260208201905092915050565b8281835e5f83830152505050565b5f601f19601f8301169050919050565b5f61036582610323565b61036f818561032d565b935061037f81856020860161033d565b6103888161034b565b840191505092915050565b61039c8161028c565b82525050565b5f606083015f8301518482035f8601526103bc828261035b565b91505060208301516103d16020860182610393565b5060408301516103e46040860182610393565b508091505092915050565b5f6020820190508181035f83015261040781846103a2565b905092915050565b5f80fd5b5f80fd5b7f4e487b71000000000000000000000000000000000000000000000000000000005f52604160045260245ffd5b61044d8261034b565b810181811067ffffffffffffffff8211171561046c5761046b610417565b5b80604052505050565b5f61047e6102bd565b905061048a8282610444565b919050565b5f67ffffffffffffffff8211156104a9576104a8610417565b5b6104b28261034b565b9050602081019050919050565b828183375f83830152505050565b5f6104df6104da8461048f565b610475565b9050828152602081018484840111156104fb576104fa610413565b5b6105068482856104bf565b509392505050565b5f82601f8301126105225761052161040f565b5b81356105328482602086016104cd565b91505092915050565b5f805f60608486031215610552576105516102c6565b5b5f84013567ffffffffffffffff81111561056f5761056e6102ca565b5b61057b8682870161050e565b935050602061058c868287016102e4565b925050604061059d868287016102e4565b9150509250925092565b7f4e487b71000000000000000000000000000000000000000000000000000000005f52603260045260245ffd5b7f4e487b71000000000000000000000000000000000000000000000000000000005f52601160045260245ffd5b5f61060b8261028c565b91506106168361028c565b925082820190508082111561062e5761062d6105d4565b5b92915050565b7f4e487b71000000000000000000000000000000000000000000000000000000005f52601260045260245ffd5b5f61066b8261028c565b91506106768361028c565b92508261068657610685610634565b5b828204905092915050565b5f61069b8261028c565b91506106a68361028c565b92508282039050818111156106be576106bd6105d4565b5b92915050565b7f4e487b71000000000000000000000000000000000000000000000000000000005f52602260045260245ffd5b5f600282049050600182168061070857607f821691505b60208210810361071b5761071a6106c4565b5b50919050565b5f819050815f5260205f209050919050565b5f6020601f8301049050919050565b5f82821b905092915050565b5f6008830261077d7fffffffffffffffffffffffffffffffffffffffffffffffffffffffffffffffff82610742565b6107878683610742565b95508019841693508086168417925050509392505050565b5f819050919050565b5f6107c26107bd6107b88461028c565b61079f565b61028c565b9050919050565b5f819050919050565b6107db836107a8565b6107ef6107e7826107c9565b84845461074e565b825550505050565b5f90565b6108036107f7565b61080e8184846107d2565b505050565b5b81811015610831576108265f826107fb565b600181019050610814565b5050565b601f8211156108765761084781610721565b61085084610733565b8101602085101561085f578190505b61087361086b85610733565b830182610813565b50505b505050565b5f82821c905092915050565b5f6108965f198460080261087b565b1980831691505092915050565b5f6108ae8383610887565b9150826002028217905092915050565b6108c782610323565b67ffffffffffffffff8111156108e0576108df610417565b5b6108ea82546106f1565b6108f5828285610835565b5f60209050601f831160018114610926575f8415610914578287015190505b61091e85826108a3565b865550610985565b601f19841661093486610721565b5f5b8281101561095b57848901518255600182019150602085019450602081019050610936565b868310156109785784890151610974601f891682610887565b8355505b6001600288020188555050505b50505050505056fea26469706673582212203964e1fa02f897994f42980066259d5b1088c7047e9bb440f7d21fa8a31de2a764736f6c634300081a0033",
					"opcodes": "PUSH1 0x80 PUSH1 0x40 MSTORE CALLVALUE DUP1 ISZERO PUSH1 0xE JUMPI PUSH0 DUP1 REVERT JUMPDEST POP PUSH2 0x9C3 DUP1 PUSH2 0x1C PUSH0 CODECOPY PUSH0 RETURN INVALID PUSH1 0x80 PUSH1 0x40 MSTORE CALLVALUE DUP1 ISZERO PUSH2 0xF JUMPI PUSH0 DUP1 REVERT JUMPDEST POP PUSH1 0x4 CALLDATASIZE LT PUSH2 0x3F JUMPI PUSH0 CALLDATALOAD PUSH1 0xE0 SHR DUP1 PUSH4 0x21055ACB EQ PUSH2 0x43 JUMPI DUP1 PUSH4 0x642F9163 EQ PUSH2 0x61 JUMPI DUP1 PUSH4 0x82FAE9B7 EQ PUSH2 0x91 JUMPI JUMPDEST PUSH0 DUP1 REVERT JUMPDEST PUSH2 0x4B PUSH2 0xAD JUMP JUMPDEST PUSH1 0x40 MLOAD PUSH2 0x58 SWAP2 SWAP1 PUSH2 0x2A4 JUMP JUMPDEST PUSH1 0x40 MLOAD DUP1 SWAP2 SUB SWAP1 RETURN JUMPDEST PUSH2 0x7B PUSH1 0x4 DUP1 CALLDATASIZE SUB DUP2 ADD SWAP1 PUSH2 0x76 SWAP2 SWAP1 PUSH2 0x2F8 JUMP JUMPDEST PUSH2 0x114 JUMP JUMPDEST PUSH1 0x40 MLOAD PUSH2 0x88 SWAP2 SWAP1 PUSH2 0x3EF JUMP JUMPDEST PUSH1 0x40 MLOAD DUP1 SWAP2 SUB SWAP1 RETURN JUMPDEST PUSH2 0xAB PUSH1 0x4 DUP1 CALLDATASIZE SUB DUP2 ADD SWAP1 PUSH2 0xA6 SWAP2 SWAP1 PUSH2 0x53B JUMP JUMPDEST PUSH2 0x1FC JUMP JUMPDEST STOP JUMPDEST PUSH0 DUP1 PUSH0 DUP1 SWAP2 POP JUMPDEST PUSH0 DUP1 SLOAD SWAP1 POP DUP3 LT ISZERO PUSH2 0xFD JUMPI PUSH0 DUP3 DUP2 SLOAD DUP2 LT PUSH2 0xD3 JUMPI PUSH2 0xD2 PUSH2 0x5A7 JUMP JUMPDEST JUMPDEST SWAP1 PUSH0 MSTORE PUSH1 0x20 PUSH0 KECCAK256 SWAP1 PUSH1 0x3 MUL ADD PUSH1 0x2 ADD SLOAD DUP2 PUSH2 0xEE SWAP2 SWAP1 PUSH2 0x601 JUMP JUMPDEST SWAP1 POP DUP2 DUP1 PUSH1 0x1 ADD SWAP3 POP POP PUSH2 0xB4 JUMP JUMPDEST PUSH0 DUP1 SLOAD SWAP1 POP DUP2 PUSH2 0x10D SWAP2 SWAP1 PUSH2 0x661 JUMP JUMPDEST SWAP3 POP POP POP SWAP1 JUMP JUMPDEST PUSH2 0x11C PUSH2 0x26D JUMP JUMPDEST PUSH0 PUSH1 0x1 DUP4 PUSH2 0x12A SWAP2 SWAP1 PUSH2 0x691 JUMP JUMPDEST DUP2 SLOAD DUP2 LT PUSH2 0x13B JUMPI PUSH2 0x13A PUSH2 0x5A7 JUMP JUMPDEST JUMPDEST SWAP1 PUSH0 MSTORE PUSH1 0x20 PUSH0 KECCAK256 SWAP1 PUSH1 0x3 MUL ADD PUSH1 0x40 MLOAD DUP1 PUSH1 0x60 ADD PUSH1 0x40 MSTORE SWAP1 DUP2 PUSH0 DUP3 ADD DUP1 SLOAD PUSH2 0x161 SWAP1 PUSH2 0x6F1 JUMP JUMPDEST DUP1 PUSH1 0x1F ADD PUSH1 0x20 DUP1 SWAP2 DIV MUL PUSH1 0x20 ADD PUSH1 0x40 MLOAD SWAP1 DUP2 ADD PUSH1 0x40 MSTORE DUP1 SWAP3 SWAP2 SWAP1 DUP2 DUP2 MSTORE PUSH1 0x20 ADD DUP3 DUP1 SLOAD PUSH2 0x18D SWAP1 PUSH2 0x6F1 JUMP JUMPDEST DUP1 ISZERO PUSH2 0x1D8 JUMPI DUP1 PUSH1 0x1F LT PUSH2 0x1AF JUMPI PUSH2 0x100 DUP1 DUP4 SLOAD DIV MUL DUP4 MSTORE SWAP2 PUSH1 0x20 ADD SWAP2 PUSH2 0x1D8 JUMP JUMPDEST DUP3 ADD SWAP2 SWAP1 PUSH0 MSTORE PUSH1 0x20 PUSH0 KECCAK256 SWAP1 JUMPDEST DUP2 SLOAD DUP2 MSTORE SWAP1 PUSH1 0x1 ADD SWAP1 PUSH1 0x20 ADD DUP1 DUP4 GT PUSH2 0x1BB JUMPI DUP3 SWAP1 SUB PUSH1 0x1F AND DUP3 ADD SWAP2 JUMPDEST POP POP POP POP POP DUP2 MSTORE PUSH1 0x20 ADD PUSH1 0x1 DUP3 ADD SLOAD DUP2 MSTORE PUSH1 0x20 ADD PUSH1 0x2 DUP3 ADD SLOAD DUP2 MSTORE POP POP SWAP1 POP SWAP2 SWAP1 POP JUMP JUMPDEST PUSH0 PUSH1 0x40 MLOAD DUP1 PUSH1 0x60 ADD PUSH1 0x40 MSTORE DUP1 DUP6 DUP2 MSTORE PUSH1 0x20 ADD DUP5 DUP2 MSTORE PUSH1 0x20 ADD DUP4 DUP2 MSTORE POP SWAP1 DUP1 PUSH1 0x1 DUP2 SLOAD ADD DUP1 DUP3 SSTORE DUP1 SWAP2 POP POP PUSH1 0x1 SWAP1 SUB SWAP1 PUSH0 MSTORE PUSH1 0x20 PUSH0 KECCAK256 SWAP1 PUSH1 0x3 MUL ADD PUSH0 SWAP1 SWAP2 SWAP1 SWAP2 SWAP1 SWAP2 POP PUSH0 DUP3 ADD MLOAD DUP2 PUSH0 ADD SWAP1 DUP2 PUSH2 0x251 SWAP2 SWAP1 PUSH2 0x8BE JUMP JUMPDEST POP PUSH1 0x20 DUP3 ADD MLOAD DUP2 PUSH1 0x1 ADD SSTORE PUSH1 0x40 DUP3 ADD MLOAD DUP2 PUSH1 0x2 ADD SSTORE POP POP POP POP POP JUMP JUMPDEST PUSH1 0x40 MLOAD DUP1 PUSH1 0x60 ADD PUSH1 0x40 MSTORE DUP1 PUSH1 0x60 DUP2 MSTORE PUSH1 0x20 ADD PUSH0 DUP2 MSTORE PUSH1 0x20 ADD PUSH0 DUP2 MSTORE POP SWAP1 JUMP JUMPDEST PUSH0 DUP2 SWAP1 POP SWAP2 SWAP1 POP JUMP JUMPDEST PUSH2 0x29E DUP2 PUSH2 0x28C JUMP JUMPDEST DUP3 MSTORE POP POP JUMP JUMPDEST PUSH0 PUSH1 0x20 DUP3 ADD SWAP1 POP PUSH2 0x2B7 PUSH0 DUP4 ADD DUP5 PUSH2 0x295 JUMP JUMPDEST SWAP3 SWAP2 POP POP JUMP JUMPDEST PUSH0 PUSH1 0x40 MLOAD SWAP1 POP SWAP1 JUMP JUMPDEST PUSH0 DUP1 REVERT JUMPDEST PUSH0 DUP1 REVERT JUMPDEST PUSH2 0x2D7 DUP2 PUSH2 0x28C JUMP JUMPDEST DUP2 EQ PUSH2 0x2E1 JUMPI PUSH0 DUP1 REVERT JUMPDEST POP JUMP JUMPDEST PUSH0 DUP2 CALLDATALOAD SWAP1 POP PUSH2 0x2F2 DUP2 PUSH2 0x2CE JUMP JUMPDEST SWAP3 SWAP2 POP POP JUMP JUMPDEST PUSH0 PUSH1 0x20 DUP3 DUP5 SUB SLT ISZERO PUSH2 0x30D JUMPI PUSH2 0x30C PUSH2 0x2C6 JUMP JUMPDEST JUMPDEST PUSH0 PUSH2 0x31A DUP5 DUP3 DUP6 ADD PUSH2 0x2E4 JUMP JUMPDEST SWAP2 POP POP SWAP3 SWAP2 POP POP JUMP JUMPDEST PUSH0 DUP2 MLOAD SWAP1 POP SWAP2 SWAP1 POP JUMP JUMPDEST PUSH0 DUP3 DUP3 MSTORE PUSH1 0x20 DUP3 ADD SWAP1 POP SWAP3 SWAP2 POP POP JUMP JUMPDEST DUP3 DUP2 DUP4 MCOPY PUSH0 DUP4 DUP4 ADD MSTORE POP POP POP JUMP JUMPDEST PUSH0 PUSH1 0x1F NOT PUSH1 0x1F DUP4 ADD AND SWAP1 POP SWAP2 SWAP1 POP JUMP JUMPDEST PUSH0 PUSH2 0x365 DUP3 PUSH2 0x323 JUMP JUMPDEST PUSH2 0x36F DUP2 DUP6 PUSH2 0x32D JUMP JUMPDEST SWAP4 POP PUSH2 0x37F DUP2 DUP6 PUSH1 0x20 DUP7 ADD PUSH2 0x33D JUMP JUMPDEST PUSH2 0x388 DUP2 PUSH2 0x34B JUMP JUMPDEST DUP5 ADD SWAP2 POP POP SWAP3 SWAP2 POP POP JUMP JUMPDEST PUSH2 0x39C DUP2 PUSH2 0x28C JUMP JUMPDEST DUP3 MSTORE POP POP JUMP JUMPDEST PUSH0 PUSH1 0x60 DUP4 ADD PUSH0 DUP4 ADD MLOAD DUP5 DUP3 SUB PUSH0 DUP7 ADD MSTORE PUSH2 0x3BC DUP3 DUP3 PUSH2 0x35B JUMP JUMPDEST SWAP2 POP POP PUSH1 0x20 DUP4 ADD MLOAD PUSH2 0x3D1 PUSH1 0x20 DUP7 ADD DUP3 PUSH2 0x393 JUMP JUMPDEST POP PUSH1 0x40 DUP4 ADD MLOAD PUSH2 0x3E4 PUSH1 0x40 DUP7 ADD DUP3 PUSH2 0x393 JUMP JUMPDEST POP DUP1 SWAP2 POP POP SWAP3 SWAP2 POP POP JUMP JUMPDEST PUSH0 PUSH1 0x20 DUP3 ADD SWAP1 POP DUP2 DUP2 SUB PUSH0 DUP4 ADD MSTORE PUSH2 0x407 DUP2 DUP5 PUSH2 0x3A2 JUMP JUMPDEST SWAP1 POP SWAP3 SWAP2 POP POP JUMP JUMPDEST PUSH0 DUP1 REVERT JUMPDEST PUSH0 DUP1 REVERT JUMPDEST PUSH32 0x4E487B7100000000000000000000000000000000000000000000000000000000 PUSH0 MSTORE PUSH1 0x41 PUSH1 0x4 MSTORE PUSH1 0x24 PUSH0 REVERT JUMPDEST PUSH2 0x44D DUP3 PUSH2 0x34B JUMP JUMPDEST DUP2 ADD DUP2 DUP2 LT PUSH8 0xFFFFFFFFFFFFFFFF DUP3 GT OR ISZERO PUSH2 0x46C JUMPI PUSH2 0x46B PUSH2 0x417 JUMP JUMPDEST JUMPDEST DUP1 PUSH1 0x40 MSTORE POP POP POP JUMP JUMPDEST PUSH0 PUSH2 0x47E PUSH2 0x2BD JUMP JUMPDEST SWAP1 POP PUSH2 0x48A DUP3 DUP3 PUSH2 0x444 JUMP JUMPDEST SWAP2 SWAP1 POP JUMP JUMPDEST PUSH0 PUSH8 0xFFFFFFFFFFFFFFFF DUP3 GT ISZERO PUSH2 0x4A9 JUMPI PUSH2 0x4A8 PUSH2 0x417 JUMP JUMPDEST JUMPDEST PUSH2 0x4B2 DUP3 PUSH2 0x34B JUMP JUMPDEST SWAP1 POP PUSH1 0x20 DUP2 ADD SWAP1 POP SWAP2 SWAP1 POP JUMP JUMPDEST DUP3 DUP2 DUP4 CALLDATACOPY PUSH0 DUP4 DUP4 ADD MSTORE POP POP POP JUMP JUMPDEST PUSH0 PUSH2 0x4DF PUSH2 0x4DA DUP5 PUSH2 0x48F JUMP JUMPDEST PUSH2 0x475 JUMP JUMPDEST SWAP1 POP DUP3 DUP2 MSTORE PUSH1 0x20 DUP2 ADD DUP5 DUP5 DUP5 ADD GT ISZERO PUSH2 0x4FB JUMPI PUSH2 0x4FA PUSH2 0x413 JUMP JUMPDEST JUMPDEST PUSH2 0x506 DUP5 DUP3 DUP6 PUSH2 0x4BF JUMP JUMPDEST POP SWAP4 SWAP3 POP POP POP JUMP JUMPDEST PUSH0 DUP3 PUSH1 0x1F DUP4 ADD SLT PUSH2 0x522 JUMPI PUSH2 0x521 PUSH2 0x40F JUMP JUMPDEST JUMPDEST DUP2 CALLDATALOAD PUSH2 0x532 DUP5 DUP3 PUSH1 0x20 DUP7 ADD PUSH2 0x4CD JUMP JUMPDEST SWAP2 POP POP SWAP3 SWAP2 POP POP JUMP JUMPDEST PUSH0 DUP1 PUSH0 PUSH1 0x60 DUP5 DUP7 SUB SLT ISZERO PUSH2 0x552 JUMPI PUSH2 0x551 PUSH2 0x2C6 JUMP JUMPDEST JUMPDEST PUSH0 DUP5 ADD CALLDATALOAD PUSH8 0xFFFFFFFFFFFFFFFF DUP2 GT ISZERO PUSH2 0x56F JUMPI PUSH2 0x56E PUSH2 0x2CA JUMP JUMPDEST JUMPDEST PUSH2 0x57B DUP7 DUP3 DUP8 ADD PUSH2 0x50E JUMP JUMPDEST SWAP4 POP POP PUSH1 0x20 PUSH2 0x58C DUP7 DUP3 DUP8 ADD PUSH2 0x2E4 JUMP JUMPDEST SWAP3 POP POP PUSH1 0x40 PUSH2 0x59D DUP7 DUP3 DUP8 ADD PUSH2 0x2E4 JUMP JUMPDEST SWAP2 POP POP SWAP3 POP SWAP3 POP SWAP3 JUMP JUMPDEST PUSH32 0x4E487B7100000000000000000000000000000000000000000000000000000000 PUSH0 MSTORE PUSH1 0x32 PUSH1 0x4 MSTORE PUSH1 0x24 PUSH0 REVERT JUMPDEST PUSH32 0x4E487B7100000000000000000000000000000000000000000000000000000000 PUSH0 MSTORE PUSH1 0x11 PUSH1 0x4 MSTORE PUSH1 0x24 PUSH0 REVERT JUMPDEST PUSH0 PUSH2 0x60B DUP3 PUSH2 0x28C JUMP JUMPDEST SWAP2 POP PUSH2 0x616 DUP4 PUSH2 0x28C JUMP JUMPDEST SWAP3 POP DUP3 DUP3 ADD SWAP1 POP DUP1 DUP3 GT ISZERO PUSH2 0x62E JUMPI PUSH2 0x62D PUSH2 0x5D4 JUMP JUMPDEST JUMPDEST SWAP3 SWAP2 POP POP JUMP JUMPDEST PUSH32 0x4E487B7100000000000000000000000000000000000000000000000000000000 PUSH0 MSTORE PUSH1 0x12 PUSH1 0x4 MSTORE PUSH1 0x24 PUSH0 REVERT JUMPDEST PUSH0 PUSH2 0x66B DUP3 PUSH2 0x28C JUMP JUMPDEST SWAP2 POP PUSH2 0x676 DUP4 PUSH2 0x28C JUMP JUMPDEST SWAP3 POP DUP3 PUSH2 0x686 JUMPI PUSH2 0x685 PUSH2 0x634 JUMP JUMPDEST JUMPDEST DUP3 DUP3 DIV SWAP1 POP SWAP3 SWAP2 POP POP JUMP JUMPDEST PUSH0 PUSH2 0x69B DUP3 PUSH2 0x28C JUMP JUMPDEST SWAP2 POP PUSH2 0x6A6 DUP4 PUSH2 0x28C JUMP JUMPDEST SWAP3 POP DUP3 DUP3 SUB SWAP1 POP DUP2 DUP2 GT ISZERO PUSH2 0x6BE JUMPI PUSH2 0x6BD PUSH2 0x5D4 JUMP JUMPDEST JUMPDEST SWAP3 SWAP2 POP POP JUMP JUMPDEST PUSH32 0x4E487B7100000000000000000000000000000000000000000000000000000000 PUSH0 MSTORE PUSH1 0x22 PUSH1 0x4 MSTORE PUSH1 0x24 PUSH0 REVERT JUMPDEST PUSH0 PUSH1 0x2 DUP3 DIV SWAP1 POP PUSH1 0x1 DUP3 AND DUP1 PUSH2 0x708 JUMPI PUSH1 0x7F DUP3 AND SWAP2 POP JUMPDEST PUSH1 0x20 DUP3 LT DUP2 SUB PUSH2 0x71B JUMPI PUSH2 0x71A PUSH2 0x6C4 JUMP JUMPDEST JUMPDEST POP SWAP2 SWAP1 POP JUMP JUMPDEST PUSH0 DUP2 SWAP1 POP DUP2 PUSH0 MSTORE PUSH1 0x20 PUSH0 KECCAK256 SWAP1 POP SWAP2 SWAP1 POP JUMP JUMPDEST PUSH0 PUSH1 0x20 PUSH1 0x1F DUP4 ADD DIV SWAP1 POP SWAP2 SWAP1 POP JUMP JUMPDEST PUSH0 DUP3 DUP3 SHL SWAP1 POP SWAP3 SWAP2 POP POP JUMP JUMPDEST PUSH0 PUSH1 0x8 DUP4 MUL PUSH2 0x77D PUSH32 0xFFFFFFFFFFFFFFFFFFFFFFFFFFFFFFFFFFFFFFFFFFFFFFFFFFFFFFFFFFFFFFFF DUP3 PUSH2 0x742 JUMP JUMPDEST PUSH2 0x787 DUP7 DUP4 PUSH2 0x742 JUMP JUMPDEST SWAP6 POP DUP1 NOT DUP5 AND SWAP4 POP DUP1 DUP7 AND DUP5 OR SWAP3 POP POP POP SWAP4 SWAP3 POP POP POP JUMP JUMPDEST PUSH0 DUP2 SWAP1 POP SWAP2 SWAP1 POP JUMP JUMPDEST PUSH0 PUSH2 0x7C2 PUSH2 0x7BD PUSH2 0x7B8 DUP5 PUSH2 0x28C JUMP JUMPDEST PUSH2 0x79F JUMP JUMPDEST PUSH2 0x28C JUMP JUMPDEST SWAP1 POP SWAP2 SWAP1 POP JUMP JUMPDEST PUSH0 DUP2 SWAP1 POP SWAP2 SWAP1 POP JUMP JUMPDEST PUSH2 0x7DB DUP4 PUSH2 0x7A8 JUMP JUMPDEST PUSH2 0x7EF PUSH2 0x7E7 DUP3 PUSH2 0x7C9 JUMP JUMPDEST DUP5 DUP5 SLOAD PUSH2 0x74E JUMP JUMPDEST DUP3 SSTORE POP POP POP POP JUMP JUMPDEST PUSH0 SWAP1 JUMP JUMPDEST PUSH2 0x803 PUSH2 0x7F7 JUMP JUMPDEST PUSH2 0x80E DUP2 DUP5 DUP5 PUSH2 0x7D2 JUMP JUMPDEST POP POP POP JUMP JUMPDEST JUMPDEST DUP2 DUP2 LT ISZERO PUSH2 0x831 JUMPI PUSH2 0x826 PUSH0 DUP3 PUSH2 0x7FB JUMP JUMPDEST PUSH1 0x1 DUP2 ADD SWAP1 POP PUSH2 0x814 JUMP JUMPDEST POP POP JUMP JUMPDEST PUSH1 0x1F DUP3 GT ISZERO PUSH2 0x876 JUMPI PUSH2 0x847 DUP2 PUSH2 0x721 JUMP JUMPDEST PUSH2 0x850 DUP5 PUSH2 0x733 JUMP JUMPDEST DUP2 ADD PUSH1 0x20 DUP6 LT ISZERO PUSH2 0x85F JUMPI DUP2 SWAP1 POP JUMPDEST PUSH2 0x873 PUSH2 0x86B DUP6 PUSH2 0x733 JUMP JUMPDEST DUP4 ADD DUP3 PUSH2 0x813 JUMP JUMPDEST POP POP JUMPDEST POP POP POP JUMP JUMPDEST PUSH0 DUP3 DUP3 SHR SWAP1 POP SWAP3 SWAP2 POP POP JUMP JUMPDEST PUSH0 PUSH2 0x896 PUSH0 NOT DUP5 PUSH1 0x8 MUL PUSH2 0x87B JUMP JUMPDEST NOT DUP1 DUP4 AND SWAP2 POP POP SWAP3 SWAP2 POP POP JUMP JUMPDEST PUSH0 PUSH2 0x8AE DUP4 DUP4 PUSH2 0x887 JUMP JUMPDEST SWAP2 POP DUP3 PUSH1 0x2 MUL DUP3 OR SWAP1 POP SWAP3 SWAP2 POP POP JUMP JUMPDEST PUSH2 0x8C7 DUP3 PUSH2 0x323 JUMP JUMPDEST PUSH8 0xFFFFFFFFFFFFFFFF DUP2 GT ISZERO PUSH2 0x8E0 JUMPI PUSH2 0x8DF PUSH2 0x417 JUMP JUMPDEST JUMPDEST PUSH2 0x8EA DUP3 SLOAD PUSH2 0x6F1 JUMP JUMPDEST PUSH2 0x8F5 DUP3 DUP3 DUP6 PUSH2 0x835 JUMP JUMPDEST PUSH0 PUSH1 0x20 SWAP1 POP PUSH1 0x1F DUP4 GT PUSH1 0x1 DUP2 EQ PUSH2 0x926 JUMPI PUSH0 DUP5 ISZERO PUSH2 0x914 JUMPI DUP3 DUP8 ADD MLOAD SWAP1 POP JUMPDEST PUSH2 0x91E DUP6 DUP3 PUSH2 0x8A3 JUMP JUMPDEST DUP7 SSTORE POP PUSH2 0x985 JUMP JUMPDEST PUSH1 0x1F NOT DUP5 AND PUSH2 0x934 DUP7 PUSH2 0x721 JUMP JUMPDEST PUSH0 JUMPDEST DUP3 DUP2 LT ISZERO PUSH2 0x95B JUMPI DUP5 DUP10 ADD MLOAD DUP3 SSTORE PUSH1 0x1 DUP3 ADD SWAP2 POP PUSH1 0x20 DUP6 ADD SWAP5 POP PUSH1 0x20 DUP2 ADD SWAP1 POP PUSH2 0x936 JUMP JUMPDEST DUP7 DUP4 LT ISZERO PUSH2 0x978 JUMPI DUP5 DUP10 ADD MLOAD PUSH2 0x974 PUSH1 0x1F DUP10 AND DUP3 PUSH2 0x887 JUMP JUMPDEST DUP4 SSTORE POP JUMPDEST PUSH1 0x1 PUSH1 0x2 DUP9 MUL ADD DUP9 SSTORE POP POP POP JUMPDEST POP POP POP POP POP POP JUMP INVALID LOG2 PUSH5 0x6970667358 0x22 SLT KECCAK256 CODECOPY PUSH5 0xE1FA02F897 SWAP10 0x4F TIMESTAMP SWAP9 STOP PUSH7 0x259D5B1088C704 PUSH31 0x9BB440F7D21FA8A31DE2A764736F6C634300081A0033000000000000000000 "
				},
				"gasEstimates": {
					"creation": {
						"codeDepositCost": "499800",
						"executionCost": "535",
						"totalCost": "500335"
					},
					"external": {
						"getAverage()": "infinite",
						"getStudent(uint256)": "infinite",
						"setStudent(string,uint256,uint256)": "infinite"
					}
				},
				"methodIdentifiers": {
					"getAverage()": "21055acb",
					"getStudent(uint256)": "642f9163",
					"setStudent(string,uint256,uint256)": "82fae9b7"
				}
			},
			"storageLayout": {
				"storage": [
					{
						"astId": 132,
						"contract": "Solidity100/sole100(31~40).sol:Q34",
						"label": "students",
						"offset": 0,
						"slot": "0",
						"type": "t_array(t_struct(student)128_storage)dyn_storage"
					}
				],
				"types": {
					"t_array(t_struct(student)128_storage)dyn_storage": {
						"base": "t_struct(student)128_storage",
						"encoding": "dynamic_array",
						"label": "struct Q34.student[]",
						"numberOfBytes": "32"
					},
					"t_string_storage": {
						"encoding": "bytes",
						"label": "string",
						"numberOfBytes": "32"
					},
					"t_struct(student)128_storage": {
						"encoding": "inplace",
						"label": "struct Q34.student",
						"members": [
							{
								"astId": 123,
								"contract": "Solidity100/sole100(31~40).sol:Q34",
								"label": "name",
								"offset": 0,
								"slot": "0",
								"type": "t_string_storage"
							},
							{
								"astId": 125,
								"contract": "Solidity100/sole100(31~40).sol:Q34",
								"label": "num",
								"offset": 0,
								"slot": "1",
								"type": "t_uint256"
							},
							{
								"astId": 127,
								"contract": "Solidity100/sole100(31~40).sol:Q34",
								"label": "score",
								"offset": 0,
								"slot": "2",
								"type": "t_uint256"
							}
						],
						"numberOfBytes": "96"
					},
					"t_uint256": {
						"encoding": "inplace",
						"label": "uint256",
						"numberOfBytes": "32"
					}
				}
			},
			"userdoc": {
				"kind": "user",
				"methods": {},
				"version": 1
			}
		}
	}
}