{
	"Solidity100/sole100(31~40).sol": {
		"Q35": {
			"abi": [
				{
					"inputs": [],
					"name": "getEvenIdx",
					"outputs": [
						{
							"internalType": "uint256[]",
							"name": "",
							"type": "uint256[]"
						}
					],
					"stateMutability": "nonpayable",
					"type": "function"
				},
				{
					"inputs": [],
					"name": "getEvenNum",
					"outputs": [
						{
							"internalType": "uint256[]",
							"name": "",
							"type": "uint256[]"
						}
					],
					"stateMutability": "view",
					"type": "function"
				},
				{
					"inputs": [],
					"name": "getnum",
					"outputs": [
						{
							"internalType": "uint256[]",
							"name": "",
							"type": "uint256[]"
						}
					],
					"stateMutability": "view",
					"type": "function"
				},
				{
					"inputs": [],
					"name": "push",
					"outputs": [],
					"stateMutability": "nonpayable",
					"type": "function"
				}
			],
			"devdoc": {
				"kind": "dev",
				"methods": {},
				"version": 1
			},
			"evm": {
				"assembly": "    /* \"Solidity100/sole100(31~40).sol\":2590:3427  contract Q35 {... */\n  mstore(0x40, 0x80)\n  callvalue\n  dup1\n  iszero\n  tag_1\n  jumpi\n  0x00\n  dup1\n  revert\ntag_1:\n  pop\n  dataSize(sub_0)\n  dup1\n  dataOffset(sub_0)\n  0x00\n  codecopy\n  0x00\n  return\nstop\n\nsub_0: assembly {\n        /* \"Solidity100/sole100(31~40).sol\":2590:3427  contract Q35 {... */\n      mstore(0x40, 0x80)\n      callvalue\n      dup1\n      iszero\n      tag_1\n      jumpi\n      0x00\n      dup1\n      revert\n    tag_1:\n      pop\n      jumpi(tag_2, lt(calldatasize, 0x04))\n      shr(0xe0, calldataload(0x00))\n      dup1\n      0x73882617\n      eq\n      tag_3\n      jumpi\n      dup1\n      0x7d368873\n      eq\n      tag_4\n      jumpi\n      dup1\n      0x8035f0ce\n      eq\n      tag_5\n      jumpi\n      dup1\n      0xa122c5d7\n      eq\n      tag_6\n      jumpi\n    tag_2:\n      0x00\n      dup1\n      revert\n        /* \"Solidity100/sole100(31~40).sol\":3332:3422  function getEvenNum() public view returns(uint[] memory) {... */\n    tag_3:\n      tag_7\n      tag_8\n      jump\t// in\n    tag_7:\n      mload(0x40)\n      tag_9\n      swap2\n      swap1\n      tag_10\n      jump\t// in\n    tag_9:\n      mload(0x40)\n      dup1\n      swap2\n      sub\n      swap1\n      return\n        /* \"Solidity100/sole100(31~40).sol\":2952:3034  function getnum() public view returns(uint[] memory) {... */\n    tag_4:\n      tag_11\n      tag_12\n      jump\t// in\n    tag_11:\n      mload(0x40)\n      tag_13\n      swap2\n      swap1\n      tag_10\n      jump\t// in\n    tag_13:\n      mload(0x40)\n      dup1\n      swap2\n      sub\n      swap1\n      return\n        /* \"Solidity100/sole100(31~40).sol\":2875:2944  function push() public{... */\n    tag_5:\n      tag_14\n      tag_15\n      jump\t// in\n    tag_14:\n      stop\n        /* \"Solidity100/sole100(31~40).sol\":3042:3324  function getEvenIdx() public returns(uint[] memory) { //view를 넣으면 error가 뜨는데 왜 뜰까요..... */\n    tag_6:\n      tag_16\n      tag_17\n      jump\t// in\n    tag_16:\n      mload(0x40)\n      tag_18\n      swap2\n      swap1\n      tag_10\n      jump\t// in\n    tag_18:\n      mload(0x40)\n      dup1\n      swap2\n      sub\n      swap1\n      return\n        /* \"Solidity100/sole100(31~40).sol\":3332:3422  function getEvenNum() public view returns(uint[] memory) {... */\n    tag_8:\n        /* \"Solidity100/sole100(31~40).sol\":3374:3387  uint[] memory */\n      0x60\n        /* \"Solidity100/sole100(31~40).sol\":3407:3414  EvenIdx */\n      0x01\n        /* \"Solidity100/sole100(31~40).sol\":3400:3414  return EvenIdx */\n      dup1\n      sload\n      dup1\n      0x20\n      mul\n      0x20\n      add\n      mload(0x40)\n      swap1\n      dup2\n      add\n      0x40\n      mstore\n      dup1\n      swap3\n      swap2\n      swap1\n      dup2\n      dup2\n      mstore\n      0x20\n      add\n      dup3\n      dup1\n      sload\n      dup1\n      iszero\n      tag_20\n      jumpi\n      0x20\n      mul\n      dup3\n      add\n      swap2\n      swap1\n      0x00\n      mstore\n      keccak256(0x00, 0x20)\n      swap1\n    tag_21:\n      dup2\n      sload\n      dup2\n      mstore\n      0x20\n      add\n      swap1\n      0x01\n      add\n      swap1\n      dup1\n      dup4\n      gt\n      tag_21\n      jumpi\n    tag_20:\n      pop\n      pop\n      pop\n      pop\n      pop\n      swap1\n      pop\n        /* \"Solidity100/sole100(31~40).sol\":3332:3422  function getEvenNum() public view returns(uint[] memory) {... */\n      swap1\n      jump\t// out\n        /* \"Solidity100/sole100(31~40).sol\":2952:3034  function getnum() public view returns(uint[] memory) {... */\n    tag_12:\n        /* \"Solidity100/sole100(31~40).sol\":2990:3003  uint[] memory */\n      0x60\n        /* \"Solidity100/sole100(31~40).sol\":3023:3026  num */\n      0x00\n        /* \"Solidity100/sole100(31~40).sol\":3016:3026  return num */\n      dup1\n      sload\n      dup1\n      0x20\n      mul\n      0x20\n      add\n      mload(0x40)\n      swap1\n      dup2\n      add\n      0x40\n      mstore\n      dup1\n      swap3\n      swap2\n      swap1\n      dup2\n      dup2\n      mstore\n      0x20\n      add\n      dup3\n      dup1\n      sload\n      dup1\n      iszero\n      tag_23\n      jumpi\n      0x20\n      mul\n      dup3\n      add\n      swap2\n      swap1\n      0x00\n      mstore\n      keccak256(0x00, 0x20)\n      swap1\n    tag_24:\n      dup2\n      sload\n      dup2\n      mstore\n      0x20\n      add\n      swap1\n      0x01\n      add\n      swap1\n      dup1\n      dup4\n      gt\n      tag_24\n      jumpi\n    tag_23:\n      pop\n      pop\n      pop\n      pop\n      pop\n      swap1\n      pop\n        /* \"Solidity100/sole100(31~40).sol\":2952:3034  function getnum() public view returns(uint[] memory) {... */\n      swap1\n      jump\t// out\n        /* \"Solidity100/sole100(31~40).sol\":2875:2944  function push() public{... */\n    tag_15:\n        /* \"Solidity100/sole100(31~40).sol\":2908:2936  num = [1,2,3,4,5,6,7,8,9,10] */\n      mload(0x40)\n      dup1\n      0x0140\n      add\n      0x40\n      mstore\n      dup1\n        /* \"Solidity100/sole100(31~40).sol\":2915:2916  1 */\n      0x01\n        /* \"Solidity100/sole100(31~40).sol\":2908:2936  num = [1,2,3,4,5,6,7,8,9,10] */\n      0xff\n      and\n      dup2\n      mstore\n      0x20\n      add\n        /* \"Solidity100/sole100(31~40).sol\":2917:2918  2 */\n      0x02\n        /* \"Solidity100/sole100(31~40).sol\":2908:2936  num = [1,2,3,4,5,6,7,8,9,10] */\n      0xff\n      and\n      dup2\n      mstore\n      0x20\n      add\n        /* \"Solidity100/sole100(31~40).sol\":2919:2920  3 */\n      0x03\n        /* \"Solidity100/sole100(31~40).sol\":2908:2936  num = [1,2,3,4,5,6,7,8,9,10] */\n      0xff\n      and\n      dup2\n      mstore\n      0x20\n      add\n        /* \"Solidity100/sole100(31~40).sol\":2921:2922  4 */\n      0x04\n        /* \"Solidity100/sole100(31~40).sol\":2908:2936  num = [1,2,3,4,5,6,7,8,9,10] */\n      0xff\n      and\n      dup2\n      mstore\n      0x20\n      add\n        /* \"Solidity100/sole100(31~40).sol\":2923:2924  5 */\n      0x05\n        /* \"Solidity100/sole100(31~40).sol\":2908:2936  num = [1,2,3,4,5,6,7,8,9,10] */\n      0xff\n      and\n      dup2\n      mstore\n      0x20\n      add\n        /* \"Solidity100/sole100(31~40).sol\":2925:2926  6 */\n      0x06\n        /* \"Solidity100/sole100(31~40).sol\":2908:2936  num = [1,2,3,4,5,6,7,8,9,10] */\n      0xff\n      and\n      dup2\n      mstore\n      0x20\n      add\n        /* \"Solidity100/sole100(31~40).sol\":2927:2928  7 */\n      0x07\n        /* \"Solidity100/sole100(31~40).sol\":2908:2936  num = [1,2,3,4,5,6,7,8,9,10] */\n      0xff\n      and\n      dup2\n      mstore\n      0x20\n      add\n        /* \"Solidity100/sole100(31~40).sol\":2929:2930  8 */\n      0x08\n        /* \"Solidity100/sole100(31~40).sol\":2908:2936  num = [1,2,3,4,5,6,7,8,9,10] */\n      0xff\n      and\n      dup2\n      mstore\n      0x20\n      add\n        /* \"Solidity100/sole100(31~40).sol\":2931:2932  9 */\n      0x09\n        /* \"Solidity100/sole100(31~40).sol\":2908:2936  num = [1,2,3,4,5,6,7,8,9,10] */\n      0xff\n      and\n      dup2\n      mstore\n      0x20\n      add\n        /* \"Solidity100/sole100(31~40).sol\":2933:2935  10 */\n      0x0a\n        /* \"Solidity100/sole100(31~40).sol\":2908:2936  num = [1,2,3,4,5,6,7,8,9,10] */\n      0xff\n      and\n      dup2\n      mstore\n      pop\n        /* \"Solidity100/sole100(31~40).sol\":2908:2911  num */\n      0x00\n        /* \"Solidity100/sole100(31~40).sol\":2908:2936  num = [1,2,3,4,5,6,7,8,9,10] */\n      swap1\n      0x0a\n      tag_26\n      swap3\n      swap2\n      swap1\n      tag_27\n      jump\t// in\n    tag_26:\n      pop\n        /* \"Solidity100/sole100(31~40).sol\":2875:2944  function push() public{... */\n      jump\t// out\n        /* \"Solidity100/sole100(31~40).sol\":3042:3324  function getEvenIdx() public returns(uint[] memory) { //view를 넣으면 error가 뜨는데 왜 뜰까요..... */\n    tag_17:\n        /* \"Solidity100/sole100(31~40).sol\":3079:3092  uint[] memory */\n      0x60\n        /* \"Solidity100/sole100(31~40).sol\":3160:3166  uint i */\n      0x00\n        /* \"Solidity100/sole100(31~40).sol\":3177:3183  uint a */\n      dup1\n        /* \"Solidity100/sole100(31~40).sol\":3201:3202  1 */\n      0x01\n        /* \"Solidity100/sole100(31~40).sol\":3199:3202  i=1 */\n      swap2\n      pop\n        /* \"Solidity100/sole100(31~40).sol\":3194:3292  for (i=1; i < num.length; i +=2) {... */\n    tag_29:\n        /* \"Solidity100/sole100(31~40).sol\":3208:3211  num */\n      0x00\n        /* \"Solidity100/sole100(31~40).sol\":3208:3218  num.length */\n      dup1\n      sload\n      swap1\n      pop\n        /* \"Solidity100/sole100(31~40).sol\":3204:3205  i */\n      dup3\n        /* \"Solidity100/sole100(31~40).sol\":3204:3218  i < num.length */\n      lt\n        /* \"Solidity100/sole100(31~40).sol\":3194:3292  for (i=1; i < num.length; i +=2) {... */\n      iszero\n      tag_30\n      jumpi\n        /* \"Solidity100/sole100(31~40).sol\":3245:3248  num */\n      0x00\n        /* \"Solidity100/sole100(31~40).sol\":3249:3250  i */\n      dup3\n        /* \"Solidity100/sole100(31~40).sol\":3245:3251  num[i] */\n      dup2\n      sload\n      dup2\n      lt\n      tag_32\n      jumpi\n      tag_33\n      tag_34\n      jump\t// in\n    tag_33:\n    tag_32:\n      swap1\n      0x00\n      mstore\n      keccak256(0x00, 0x20)\n      add\n      sload\n        /* \"Solidity100/sole100(31~40).sol\":3241:3251  a = num[i] */\n      swap1\n      pop\n        /* \"Solidity100/sole100(31~40).sol\":3265:3272  EvenIdx */\n      0x01\n        /* \"Solidity100/sole100(31~40).sol\":3278:3279  a */\n      dup2\n        /* \"Solidity100/sole100(31~40).sol\":3265:3280  EvenIdx.push(a) */\n      swap1\n      dup1\n      0x01\n      dup2\n      sload\n      add\n      dup1\n      dup3\n      sstore\n      dup1\n      swap2\n      pop\n      pop\n      0x01\n      swap1\n      sub\n      swap1\n      0x00\n      mstore\n      keccak256(0x00, 0x20)\n      add\n      0x00\n      swap1\n      swap2\n      swap1\n      swap2\n      swap1\n      swap2\n      pop\n      sstore\n        /* \"Solidity100/sole100(31~40).sol\":3224:3225  2 */\n      0x02\n        /* \"Solidity100/sole100(31~40).sol\":3220:3225  i +=2 */\n      dup3\n      tag_37\n      swap2\n      swap1\n      tag_38\n      jump\t// in\n    tag_37:\n      swap2\n      pop\n        /* \"Solidity100/sole100(31~40).sol\":3194:3292  for (i=1; i < num.length; i +=2) {... */\n      jump(tag_29)\n    tag_30:\n        /* \"Solidity100/sole100(31~40).sol\":3309:3316  EvenIdx */\n      0x01\n        /* \"Solidity100/sole100(31~40).sol\":3302:3316  return EvenIdx */\n      dup1\n      sload\n      dup1\n      0x20\n      mul\n      0x20\n      add\n      mload(0x40)\n      swap1\n      dup2\n      add\n      0x40\n      mstore\n      dup1\n      swap3\n      swap2\n      swap1\n      dup2\n      dup2\n      mstore\n      0x20\n      add\n      dup3\n      dup1\n      sload\n      dup1\n      iszero\n      tag_39\n      jumpi\n      0x20\n      mul\n      dup3\n      add\n      swap2\n      swap1\n      0x00\n      mstore\n      keccak256(0x00, 0x20)\n      swap1\n    tag_40:\n      dup2\n      sload\n      dup2\n      mstore\n      0x20\n      add\n      swap1\n      0x01\n      add\n      swap1\n      dup1\n      dup4\n      gt\n      tag_40\n      jumpi\n    tag_39:\n      pop\n      pop\n      pop\n      pop\n      pop\n      swap3\n      pop\n      pop\n      pop\n        /* \"Solidity100/sole100(31~40).sol\":3042:3324  function getEvenIdx() public returns(uint[] memory) { //view를 넣으면 error가 뜨는데 왜 뜰까요..... */\n      swap1\n      jump\t// out\n    tag_27:\n      dup3\n      dup1\n      sload\n      dup3\n      dup3\n      sstore\n      swap1\n      0x00\n      mstore\n      keccak256(0x00, 0x20)\n      swap1\n      dup2\n      add\n      swap3\n      dup3\n      iszero\n      tag_41\n      jumpi\n      swap2\n      0x20\n      mul\n      dup3\n      add\n    tag_42:\n      dup3\n      dup2\n      gt\n      iszero\n      tag_43\n      jumpi\n      dup3\n      mload\n      dup3\n      swap1\n      0xff\n      and\n      swap1\n      sstore\n      swap2\n      0x20\n      add\n      swap2\n      swap1\n      0x01\n      add\n      swap1\n      jump(tag_42)\n    tag_43:\n    tag_41:\n      pop\n      swap1\n      pop\n      tag_44\n      swap2\n      swap1\n      tag_45\n      jump\t// in\n    tag_44:\n      pop\n      swap1\n      jump\t// out\n    tag_45:\n    tag_46:\n      dup1\n      dup3\n      gt\n      iszero\n      tag_47\n      jumpi\n      0x00\n      dup2\n      0x00\n      swap1\n      sstore\n      pop\n      0x01\n      add\n      jump(tag_46)\n    tag_47:\n      pop\n      swap1\n      jump\t// out\n        /* \"#utility.yul\":7:121   */\n    tag_48:\n        /* \"#utility.yul\":74:80   */\n      0x00\n        /* \"#utility.yul\":108:113   */\n      dup2\n        /* \"#utility.yul\":102:114   */\n      mload\n        /* \"#utility.yul\":92:114   */\n      swap1\n      pop\n        /* \"#utility.yul\":7:121   */\n      swap2\n      swap1\n      pop\n      jump\t// out\n        /* \"#utility.yul\":127:311   */\n    tag_49:\n        /* \"#utility.yul\":226:237   */\n      0x00\n        /* \"#utility.yul\":260:266   */\n      dup3\n        /* \"#utility.yul\":255:258   */\n      dup3\n        /* \"#utility.yul\":248:267   */\n      mstore\n        /* \"#utility.yul\":300:304   */\n      0x20\n        /* \"#utility.yul\":295:298   */\n      dup3\n        /* \"#utility.yul\":291:305   */\n      add\n        /* \"#utility.yul\":276:305   */\n      swap1\n      pop\n        /* \"#utility.yul\":127:311   */\n      swap3\n      swap2\n      pop\n      pop\n      jump\t// out\n        /* \"#utility.yul\":317:449   */\n    tag_50:\n        /* \"#utility.yul\":384:388   */\n      0x00\n        /* \"#utility.yul\":407:410   */\n      dup2\n        /* \"#utility.yul\":399:410   */\n      swap1\n      pop\n        /* \"#utility.yul\":437:441   */\n      0x20\n        /* \"#utility.yul\":432:435   */\n      dup3\n        /* \"#utility.yul\":428:442   */\n      add\n        /* \"#utility.yul\":420:442   */\n      swap1\n      pop\n        /* \"#utility.yul\":317:449   */\n      swap2\n      swap1\n      pop\n      jump\t// out\n        /* \"#utility.yul\":455:532   */\n    tag_51:\n        /* \"#utility.yul\":492:499   */\n      0x00\n        /* \"#utility.yul\":521:526   */\n      dup2\n        /* \"#utility.yul\":510:526   */\n      swap1\n      pop\n        /* \"#utility.yul\":455:532   */\n      swap2\n      swap1\n      pop\n      jump\t// out\n        /* \"#utility.yul\":538:646   */\n    tag_52:\n        /* \"#utility.yul\":615:639   */\n      tag_63\n        /* \"#utility.yul\":633:638   */\n      dup2\n        /* \"#utility.yul\":615:639   */\n      tag_51\n      jump\t// in\n    tag_63:\n        /* \"#utility.yul\":610:613   */\n      dup3\n        /* \"#utility.yul\":603:640   */\n      mstore\n        /* \"#utility.yul\":538:646   */\n      pop\n      pop\n      jump\t// out\n        /* \"#utility.yul\":652:831   */\n    tag_53:\n        /* \"#utility.yul\":721:731   */\n      0x00\n        /* \"#utility.yul\":742:788   */\n      tag_65\n        /* \"#utility.yul\":784:787   */\n      dup4\n        /* \"#utility.yul\":776:782   */\n      dup4\n        /* \"#utility.yul\":742:788   */\n      tag_52\n      jump\t// in\n    tag_65:\n        /* \"#utility.yul\":820:824   */\n      0x20\n        /* \"#utility.yul\":815:818   */\n      dup4\n        /* \"#utility.yul\":811:825   */\n      add\n        /* \"#utility.yul\":797:825   */\n      swap1\n      pop\n        /* \"#utility.yul\":652:831   */\n      swap3\n      swap2\n      pop\n      pop\n      jump\t// out\n        /* \"#utility.yul\":837:950   */\n    tag_54:\n        /* \"#utility.yul\":907:911   */\n      0x00\n        /* \"#utility.yul\":939:943   */\n      0x20\n        /* \"#utility.yul\":934:937   */\n      dup3\n        /* \"#utility.yul\":930:944   */\n      add\n        /* \"#utility.yul\":922:944   */\n      swap1\n      pop\n        /* \"#utility.yul\":837:950   */\n      swap2\n      swap1\n      pop\n      jump\t// out\n        /* \"#utility.yul\":986:1718   */\n    tag_55:\n        /* \"#utility.yul\":1105:1108   */\n      0x00\n        /* \"#utility.yul\":1134:1188   */\n      tag_68\n        /* \"#utility.yul\":1182:1187   */\n      dup3\n        /* \"#utility.yul\":1134:1188   */\n      tag_48\n      jump\t// in\n    tag_68:\n        /* \"#utility.yul\":1204:1290   */\n      tag_69\n        /* \"#utility.yul\":1283:1289   */\n      dup2\n        /* \"#utility.yul\":1278:1281   */\n      dup6\n        /* \"#utility.yul\":1204:1290   */\n      tag_49\n      jump\t// in\n    tag_69:\n        /* \"#utility.yul\":1197:1290   */\n      swap4\n      pop\n        /* \"#utility.yul\":1314:1370   */\n      tag_70\n        /* \"#utility.yul\":1364:1369   */\n      dup4\n        /* \"#utility.yul\":1314:1370   */\n      tag_50\n      jump\t// in\n    tag_70:\n        /* \"#utility.yul\":1393:1400   */\n      dup1\n        /* \"#utility.yul\":1424:1425   */\n      0x00\n        /* \"#utility.yul\":1409:1693   */\n    tag_71:\n        /* \"#utility.yul\":1434:1440   */\n      dup4\n        /* \"#utility.yul\":1431:1432   */\n      dup2\n        /* \"#utility.yul\":1428:1441   */\n      lt\n        /* \"#utility.yul\":1409:1693   */\n      iszero\n      tag_73\n      jumpi\n        /* \"#utility.yul\":1510:1516   */\n      dup2\n        /* \"#utility.yul\":1504:1517   */\n      mload\n        /* \"#utility.yul\":1537:1600   */\n      tag_74\n        /* \"#utility.yul\":1596:1599   */\n      dup9\n        /* \"#utility.yul\":1581:1594   */\n      dup3\n        /* \"#utility.yul\":1537:1600   */\n      tag_53\n      jump\t// in\n    tag_74:\n        /* \"#utility.yul\":1530:1600   */\n      swap8\n      pop\n        /* \"#utility.yul\":1623:1683   */\n      tag_75\n        /* \"#utility.yul\":1676:1682   */\n      dup4\n        /* \"#utility.yul\":1623:1683   */\n      tag_54\n      jump\t// in\n    tag_75:\n        /* \"#utility.yul\":1613:1683   */\n      swap3\n      pop\n        /* \"#utility.yul\":1469:1693   */\n      pop\n        /* \"#utility.yul\":1456:1457   */\n      0x01\n        /* \"#utility.yul\":1453:1454   */\n      dup2\n        /* \"#utility.yul\":1449:1458   */\n      add\n        /* \"#utility.yul\":1444:1458   */\n      swap1\n      pop\n        /* \"#utility.yul\":1409:1693   */\n      jump(tag_71)\n    tag_73:\n        /* \"#utility.yul\":1413:1427   */\n      pop\n        /* \"#utility.yul\":1709:1712   */\n      dup6\n        /* \"#utility.yul\":1702:1712   */\n      swap4\n      pop\n        /* \"#utility.yul\":1110:1718   */\n      pop\n      pop\n      pop\n        /* \"#utility.yul\":986:1718   */\n      swap3\n      swap2\n      pop\n      pop\n      jump\t// out\n        /* \"#utility.yul\":1724:2097   */\n    tag_10:\n        /* \"#utility.yul\":1867:1871   */\n      0x00\n        /* \"#utility.yul\":1905:1907   */\n      0x20\n        /* \"#utility.yul\":1894:1903   */\n      dup3\n        /* \"#utility.yul\":1890:1908   */\n      add\n        /* \"#utility.yul\":1882:1908   */\n      swap1\n      pop\n        /* \"#utility.yul\":1954:1963   */\n      dup2\n        /* \"#utility.yul\":1948:1952   */\n      dup2\n        /* \"#utility.yul\":1944:1964   */\n      sub\n        /* \"#utility.yul\":1940:1941   */\n      0x00\n        /* \"#utility.yul\":1929:1938   */\n      dup4\n        /* \"#utility.yul\":1925:1942   */\n      add\n        /* \"#utility.yul\":1918:1965   */\n      mstore\n        /* \"#utility.yul\":1982:2090   */\n      tag_77\n        /* \"#utility.yul\":2085:2089   */\n      dup2\n        /* \"#utility.yul\":2076:2082   */\n      dup5\n        /* \"#utility.yul\":1982:2090   */\n      tag_55\n      jump\t// in\n    tag_77:\n        /* \"#utility.yul\":1974:2090   */\n      swap1\n      pop\n        /* \"#utility.yul\":1724:2097   */\n      swap3\n      swap2\n      pop\n      pop\n      jump\t// out\n        /* \"#utility.yul\":2103:2283   */\n    tag_34:\n        /* \"#utility.yul\":2151:2228   */\n      0x4e487b7100000000000000000000000000000000000000000000000000000000\n        /* \"#utility.yul\":2148:2149   */\n      0x00\n        /* \"#utility.yul\":2141:2229   */\n      mstore\n        /* \"#utility.yul\":2248:2252   */\n      0x32\n        /* \"#utility.yul\":2245:2246   */\n      0x04\n        /* \"#utility.yul\":2238:2253   */\n      mstore\n        /* \"#utility.yul\":2272:2276   */\n      0x24\n        /* \"#utility.yul\":2269:2270   */\n      0x00\n        /* \"#utility.yul\":2262:2277   */\n      revert\n        /* \"#utility.yul\":2289:2469   */\n    tag_56:\n        /* \"#utility.yul\":2337:2414   */\n      0x4e487b7100000000000000000000000000000000000000000000000000000000\n        /* \"#utility.yul\":2334:2335   */\n      0x00\n        /* \"#utility.yul\":2327:2415   */\n      mstore\n        /* \"#utility.yul\":2434:2438   */\n      0x11\n        /* \"#utility.yul\":2431:2432   */\n      0x04\n        /* \"#utility.yul\":2424:2439   */\n      mstore\n        /* \"#utility.yul\":2458:2462   */\n      0x24\n        /* \"#utility.yul\":2455:2456   */\n      0x00\n        /* \"#utility.yul\":2448:2463   */\n      revert\n        /* \"#utility.yul\":2475:2666   */\n    tag_38:\n        /* \"#utility.yul\":2515:2518   */\n      0x00\n        /* \"#utility.yul\":2534:2554   */\n      tag_81\n        /* \"#utility.yul\":2552:2553   */\n      dup3\n        /* \"#utility.yul\":2534:2554   */\n      tag_51\n      jump\t// in\n    tag_81:\n        /* \"#utility.yul\":2529:2554   */\n      swap2\n      pop\n        /* \"#utility.yul\":2568:2588   */\n      tag_82\n        /* \"#utility.yul\":2586:2587   */\n      dup4\n        /* \"#utility.yul\":2568:2588   */\n      tag_51\n      jump\t// in\n    tag_82:\n        /* \"#utility.yul\":2563:2588   */\n      swap3\n      pop\n        /* \"#utility.yul\":2611:2612   */\n      dup3\n        /* \"#utility.yul\":2608:2609   */\n      dup3\n        /* \"#utility.yul\":2604:2613   */\n      add\n        /* \"#utility.yul\":2597:2613   */\n      swap1\n      pop\n        /* \"#utility.yul\":2632:2635   */\n      dup1\n        /* \"#utility.yul\":2629:2630   */\n      dup3\n        /* \"#utility.yul\":2626:2636   */\n      gt\n        /* \"#utility.yul\":2623:2659   */\n      iszero\n      tag_83\n      jumpi\n        /* \"#utility.yul\":2639:2657   */\n      tag_84\n      tag_56\n      jump\t// in\n    tag_84:\n        /* \"#utility.yul\":2623:2659   */\n    tag_83:\n        /* \"#utility.yul\":2475:2666   */\n      swap3\n      swap2\n      pop\n      pop\n      jump\t// out\n\n    auxdata: 0xa2646970667358221220ea54830f25596e6aa96016d3a5584cd4447ce1dbe2eecfd86d100a2a9c0665f264736f6c634300081a0033\n}\n",
				"bytecode": {
					"linkReferences": {},
					"object": "6080604052348015600e575f80fd5b506104ae8061001c5f395ff3fe608060405234801561000f575f80fd5b506004361061004a575f3560e01c8063738826171461004e5780637d3688731461006c5780638035f0ce1461008a578063a122c5d714610094575b5f80fd5b6100566100b2565b60405161006391906103cb565b60405180910390f35b610074610108565b60405161008191906103cb565b60405180910390f35b61009261015d565b005b61009c6101dd565b6040516100a991906103cb565b60405180910390f35b606060018054806020026020016040519081016040528092919081815260200182805480156100fe57602002820191905f5260205f20905b8154815260200190600101908083116100ea575b5050505050905090565b60605f80548060200260200160405190810160405280929190818152602001828054801561015357602002820191905f5260205f20905b81548152602001906001019080831161013f575b5050505050905090565b604051806101400160405280600160ff168152602001600260ff168152602001600360ff168152602001600460ff168152602001600560ff168152602001600660ff168152602001600760ff168152602001600860ff168152602001600960ff168152602001600a60ff168152505f90600a6101da9291906102a0565b50565b60605f80600191505b5f8054905082101561024a575f8281548110610205576102046103eb565b5b905f5260205f2001549050600181908060018154018082558091505060019003905f5260205f20015f90919091909150556002826102439190610445565b91506101e6565b600180548060200260200160405190810160405280929190818152602001828054801561029457602002820191905f5260205f20905b815481526020019060010190808311610280575b50505050509250505090565b828054828255905f5260205f209081019282156102df579160200282015b828111156102de578251829060ff169055916020019190600101906102be565b5b5090506102ec91906102f0565b5090565b5b80821115610307575f815f9055506001016102f1565b5090565b5f81519050919050565b5f82825260208201905092915050565b5f819050602082019050919050565b5f819050919050565b61034681610334565b82525050565b5f610357838361033d565b60208301905092915050565b5f602082019050919050565b5f6103798261030b565b6103838185610315565b935061038e83610325565b805f5b838110156103be5781516103a5888261034c565b97506103b083610363565b925050600181019050610391565b5085935050505092915050565b5f6020820190508181035f8301526103e3818461036f565b905092915050565b7f4e487b71000000000000000000000000000000000000000000000000000000005f52603260045260245ffd5b7f4e487b71000000000000000000000000000000000000000000000000000000005f52601160045260245ffd5b5f61044f82610334565b915061045a83610334565b925082820190508082111561047257610471610418565b5b9291505056fea2646970667358221220ea54830f25596e6aa96016d3a5584cd4447ce1dbe2eecfd86d100a2a9c0665f264736f6c634300081a0033",
					"opcodes": "PUSH1 0x80 PUSH1 0x40 MSTORE CALLVALUE DUP1 ISZERO PUSH1 0xE JUMPI PUSH0 DUP1 REVERT JUMPDEST POP PUSH2 0x4AE DUP1 PUSH2 0x1C PUSH0 CODECOPY PUSH0 RETURN INVALID PUSH1 0x80 PUSH1 0x40 MSTORE CALLVALUE DUP1 ISZERO PUSH2 0xF JUMPI PUSH0 DUP1 REVERT JUMPDEST POP PUSH1 0x4 CALLDATASIZE LT PUSH2 0x4A JUMPI PUSH0 CALLDATALOAD PUSH1 0xE0 SHR DUP1 PUSH4 0x73882617 EQ PUSH2 0x4E JUMPI DUP1 PUSH4 0x7D368873 EQ PUSH2 0x6C JUMPI DUP1 PUSH4 0x8035F0CE EQ PUSH2 0x8A JUMPI DUP1 PUSH4 0xA122C5D7 EQ PUSH2 0x94 JUMPI JUMPDEST PUSH0 DUP1 REVERT JUMPDEST PUSH2 0x56 PUSH2 0xB2 JUMP JUMPDEST PUSH1 0x40 MLOAD PUSH2 0x63 SWAP2 SWAP1 PUSH2 0x3CB JUMP JUMPDEST PUSH1 0x40 MLOAD DUP1 SWAP2 SUB SWAP1 RETURN JUMPDEST PUSH2 0x74 PUSH2 0x108 JUMP JUMPDEST PUSH1 0x40 MLOAD PUSH2 0x81 SWAP2 SWAP1 PUSH2 0x3CB JUMP JUMPDEST PUSH1 0x40 MLOAD DUP1 SWAP2 SUB SWAP1 RETURN JUMPDEST PUSH2 0x92 PUSH2 0x15D JUMP JUMPDEST STOP JUMPDEST PUSH2 0x9C PUSH2 0x1DD JUMP JUMPDEST PUSH1 0x40 MLOAD PUSH2 0xA9 SWAP2 SWAP1 PUSH2 0x3CB JUMP JUMPDEST PUSH1 0x40 MLOAD DUP1 SWAP2 SUB SWAP1 RETURN JUMPDEST PUSH1 0x60 PUSH1 0x1 DUP1 SLOAD DUP1 PUSH1 0x20 MUL PUSH1 0x20 ADD PUSH1 0x40 MLOAD SWAP1 DUP2 ADD PUSH1 0x40 MSTORE DUP1 SWAP3 SWAP2 SWAP1 DUP2 DUP2 MSTORE PUSH1 0x20 ADD DUP3 DUP1 SLOAD DUP1 ISZERO PUSH2 0xFE JUMPI PUSH1 0x20 MUL DUP3 ADD SWAP2 SWAP1 PUSH0 MSTORE PUSH1 0x20 PUSH0 KECCAK256 SWAP1 JUMPDEST DUP2 SLOAD DUP2 MSTORE PUSH1 0x20 ADD SWAP1 PUSH1 0x1 ADD SWAP1 DUP1 DUP4 GT PUSH2 0xEA JUMPI JUMPDEST POP POP POP POP POP SWAP1 POP SWAP1 JUMP JUMPDEST PUSH1 0x60 PUSH0 DUP1 SLOAD DUP1 PUSH1 0x20 MUL PUSH1 0x20 ADD PUSH1 0x40 MLOAD SWAP1 DUP2 ADD PUSH1 0x40 MSTORE DUP1 SWAP3 SWAP2 SWAP1 DUP2 DUP2 MSTORE PUSH1 0x20 ADD DUP3 DUP1 SLOAD DUP1 ISZERO PUSH2 0x153 JUMPI PUSH1 0x20 MUL DUP3 ADD SWAP2 SWAP1 PUSH0 MSTORE PUSH1 0x20 PUSH0 KECCAK256 SWAP1 JUMPDEST DUP2 SLOAD DUP2 MSTORE PUSH1 0x20 ADD SWAP1 PUSH1 0x1 ADD SWAP1 DUP1 DUP4 GT PUSH2 0x13F JUMPI JUMPDEST POP POP POP POP POP SWAP1 POP SWAP1 JUMP JUMPDEST PUSH1 0x40 MLOAD DUP1 PUSH2 0x140 ADD PUSH1 0x40 MSTORE DUP1 PUSH1 0x1 PUSH1 0xFF AND DUP2 MSTORE PUSH1 0x20 ADD PUSH1 0x2 PUSH1 0xFF AND DUP2 MSTORE PUSH1 0x20 ADD PUSH1 0x3 PUSH1 0xFF AND DUP2 MSTORE PUSH1 0x20 ADD PUSH1 0x4 PUSH1 0xFF AND DUP2 MSTORE PUSH1 0x20 ADD PUSH1 0x5 PUSH1 0xFF AND DUP2 MSTORE PUSH1 0x20 ADD PUSH1 0x6 PUSH1 0xFF AND DUP2 MSTORE PUSH1 0x20 ADD PUSH1 0x7 PUSH1 0xFF AND DUP2 MSTORE PUSH1 0x20 ADD PUSH1 0x8 PUSH1 0xFF AND DUP2 MSTORE PUSH1 0x20 ADD PUSH1 0x9 PUSH1 0xFF AND DUP2 MSTORE PUSH1 0x20 ADD PUSH1 0xA PUSH1 0xFF AND DUP2 MSTORE POP PUSH0 SWAP1 PUSH1 0xA PUSH2 0x1DA SWAP3 SWAP2 SWAP1 PUSH2 0x2A0 JUMP JUMPDEST POP JUMP JUMPDEST PUSH1 0x60 PUSH0 DUP1 PUSH1 0x1 SWAP2 POP JUMPDEST PUSH0 DUP1 SLOAD SWAP1 POP DUP3 LT ISZERO PUSH2 0x24A JUMPI PUSH0 DUP3 DUP2 SLOAD DUP2 LT PUSH2 0x205 JUMPI PUSH2 0x204 PUSH2 0x3EB JUMP JUMPDEST JUMPDEST SWAP1 PUSH0 MSTORE PUSH1 0x20 PUSH0 KECCAK256 ADD SLOAD SWAP1 POP PUSH1 0x1 DUP2 SWAP1 DUP1 PUSH1 0x1 DUP2 SLOAD ADD DUP1 DUP3 SSTORE DUP1 SWAP2 POP POP PUSH1 0x1 SWAP1 SUB SWAP1 PUSH0 MSTORE PUSH1 0x20 PUSH0 KECCAK256 ADD PUSH0 SWAP1 SWAP2 SWAP1 SWAP2 SWAP1 SWAP2 POP SSTORE PUSH1 0x2 DUP3 PUSH2 0x243 SWAP2 SWAP1 PUSH2 0x445 JUMP JUMPDEST SWAP2 POP PUSH2 0x1E6 JUMP JUMPDEST PUSH1 0x1 DUP1 SLOAD DUP1 PUSH1 0x20 MUL PUSH1 0x20 ADD PUSH1 0x40 MLOAD SWAP1 DUP2 ADD PUSH1 0x40 MSTORE DUP1 SWAP3 SWAP2 SWAP1 DUP2 DUP2 MSTORE PUSH1 0x20 ADD DUP3 DUP1 SLOAD DUP1 ISZERO PUSH2 0x294 JUMPI PUSH1 0x20 MUL DUP3 ADD SWAP2 SWAP1 PUSH0 MSTORE PUSH1 0x20 PUSH0 KECCAK256 SWAP1 JUMPDEST DUP2 SLOAD DUP2 MSTORE PUSH1 0x20 ADD SWAP1 PUSH1 0x1 ADD SWAP1 DUP1 DUP4 GT PUSH2 0x280 JUMPI JUMPDEST POP POP POP POP POP SWAP3 POP POP POP SWAP1 JUMP JUMPDEST DUP3 DUP1 SLOAD DUP3 DUP3 SSTORE SWAP1 PUSH0 MSTORE PUSH1 0x20 PUSH0 KECCAK256 SWAP1 DUP2 ADD SWAP3 DUP3 ISZERO PUSH2 0x2DF JUMPI SWAP2 PUSH1 0x20 MUL DUP3 ADD JUMPDEST DUP3 DUP2 GT ISZERO PUSH2 0x2DE JUMPI DUP3 MLOAD DUP3 SWAP1 PUSH1 0xFF AND SWAP1 SSTORE SWAP2 PUSH1 0x20 ADD SWAP2 SWAP1 PUSH1 0x1 ADD SWAP1 PUSH2 0x2BE JUMP JUMPDEST JUMPDEST POP SWAP1 POP PUSH2 0x2EC SWAP2 SWAP1 PUSH2 0x2F0 JUMP JUMPDEST POP SWAP1 JUMP JUMPDEST JUMPDEST DUP1 DUP3 GT ISZERO PUSH2 0x307 JUMPI PUSH0 DUP2 PUSH0 SWAP1 SSTORE POP PUSH1 0x1 ADD PUSH2 0x2F1 JUMP JUMPDEST POP SWAP1 JUMP JUMPDEST PUSH0 DUP2 MLOAD SWAP1 POP SWAP2 SWAP1 POP JUMP JUMPDEST PUSH0 DUP3 DUP3 MSTORE PUSH1 0x20 DUP3 ADD SWAP1 POP SWAP3 SWAP2 POP POP JUMP JUMPDEST PUSH0 DUP2 SWAP1 POP PUSH1 0x20 DUP3 ADD SWAP1 POP SWAP2 SWAP1 POP JUMP JUMPDEST PUSH0 DUP2 SWAP1 POP SWAP2 SWAP1 POP JUMP JUMPDEST PUSH2 0x346 DUP2 PUSH2 0x334 JUMP JUMPDEST DUP3 MSTORE POP POP JUMP JUMPDEST PUSH0 PUSH2 0x357 DUP4 DUP4 PUSH2 0x33D JUMP JUMPDEST PUSH1 0x20 DUP4 ADD SWAP1 POP SWAP3 SWAP2 POP POP JUMP JUMPDEST PUSH0 PUSH1 0x20 DUP3 ADD SWAP1 POP SWAP2 SWAP1 POP JUMP JUMPDEST PUSH0 PUSH2 0x379 DUP3 PUSH2 0x30B JUMP JUMPDEST PUSH2 0x383 DUP2 DUP6 PUSH2 0x315 JUMP JUMPDEST SWAP4 POP PUSH2 0x38E DUP4 PUSH2 0x325 JUMP JUMPDEST DUP1 PUSH0 JUMPDEST DUP4 DUP2 LT ISZERO PUSH2 0x3BE JUMPI DUP2 MLOAD PUSH2 0x3A5 DUP9 DUP3 PUSH2 0x34C JUMP JUMPDEST SWAP8 POP PUSH2 0x3B0 DUP4 PUSH2 0x363 JUMP JUMPDEST SWAP3 POP POP PUSH1 0x1 DUP2 ADD SWAP1 POP PUSH2 0x391 JUMP JUMPDEST POP DUP6 SWAP4 POP POP POP POP SWAP3 SWAP2 POP POP JUMP JUMPDEST PUSH0 PUSH1 0x20 DUP3 ADD SWAP1 POP DUP2 DUP2 SUB PUSH0 DUP4 ADD MSTORE PUSH2 0x3E3 DUP2 DUP5 PUSH2 0x36F JUMP JUMPDEST SWAP1 POP SWAP3 SWAP2 POP POP JUMP JUMPDEST PUSH32 0x4E487B7100000000000000000000000000000000000000000000000000000000 PUSH0 MSTORE PUSH1 0x32 PUSH1 0x4 MSTORE PUSH1 0x24 PUSH0 REVERT JUMPDEST PUSH32 0x4E487B7100000000000000000000000000000000000000000000000000000000 PUSH0 MSTORE PUSH1 0x11 PUSH1 0x4 MSTORE PUSH1 0x24 PUSH0 REVERT JUMPDEST PUSH0 PUSH2 0x44F DUP3 PUSH2 0x334 JUMP JUMPDEST SWAP2 POP PUSH2 0x45A DUP4 PUSH2 0x334 JUMP JUMPDEST SWAP3 POP DUP3 DUP3 ADD SWAP1 POP DUP1 DUP3 GT ISZERO PUSH2 0x472 JUMPI PUSH2 0x471 PUSH2 0x418 JUMP JUMPDEST JUMPDEST SWAP3 SWAP2 POP POP JUMP INVALID LOG2 PUSH5 0x6970667358 0x22 SLT KECCAK256 0xEA SLOAD DUP4 0xF 0x25 MSIZE PUSH15 0x6AA96016D3A5584CD4447CE1DBE2EE 0xCF 0xD8 PUSH14 0x100A2A9C0665F264736F6C634300 ADDMOD BYTE STOP CALLER "
				},
				"gasEstimates": {
					"creation": {
						"codeDepositCost": "239600",
						"executionCost": "279",
						"totalCost": "239879"
					},
					"external": {
						"getEvenIdx()": "infinite",
						"getEvenNum()": "infinite",
						"getnum()": "infinite",
						"push()": "infinite"
					}
				},
				"methodIdentifiers": {
					"getEvenIdx()": "a122c5d7",
					"getEvenNum()": "73882617",
					"getnum()": "7d368873",
					"push()": "8035f0ce"
				}
			},
			"storageLayout": {
				"storage": [
					{
						"astId": 210,
						"contract": "Solidity100/sole100(31~40).sol:Q35",
						"label": "num",
						"offset": 0,
						"slot": "0",
						"type": "t_array(t_uint256)dyn_storage"
					},
					{
						"astId": 213,
						"contract": "Solidity100/sole100(31~40).sol:Q35",
						"label": "EvenIdx",
						"offset": 0,
						"slot": "1",
						"type": "t_array(t_uint256)dyn_storage"
					}
				],
				"types": {
					"t_array(t_uint256)dyn_storage": {
						"base": "t_uint256",
						"encoding": "dynamic_array",
						"label": "uint256[]",
						"numberOfBytes": "32"
					},
					"t_uint256": {
						"encoding": "inplace",
						"label": "uint256",
						"numberOfBytes": "32"
					}
				}
			},
			"userdoc": {
				"kind": "user",
				"methods": {},
				"version": 1
			}
		}
	}
}