{
	"Solidity100/sol100(51~60).sol": {
		"Q54": {
			"abi": [
				{
					"inputs": [],
					"name": "donate",
					"outputs": [],
					"stateMutability": "payable",
					"type": "function"
				},
				{
					"inputs": [],
					"name": "top",
					"outputs": [
						{
							"components": [
								{
									"internalType": "address",
									"name": "_addr",
									"type": "address"
								},
								{
									"internalType": "uint256",
									"name": "_balance",
									"type": "uint256"
								}
							],
							"internalType": "struct Q54.donator",
							"name": "",
							"type": "tuple"
						}
					],
					"stateMutability": "view",
					"type": "function"
				}
			],
			"devdoc": {
				"kind": "dev",
				"methods": {},
				"version": 1
			},
			"evm": {
				"assembly": "    /* \"Solidity100/sol100(51~60).sol\":2147:3135  contract Q54 {... */\n  mstore(0x40, 0x80)\n  callvalue\n  dup1\n  iszero\n  tag_1\n  jumpi\n  0x00\n  dup1\n  revert\ntag_1:\n  pop\n  dataSize(sub_0)\n  dup1\n  dataOffset(sub_0)\n  0x00\n  codecopy\n  0x00\n  return\nstop\n\nsub_0: assembly {\n        /* \"Solidity100/sol100(51~60).sol\":2147:3135  contract Q54 {... */\n      mstore(0x40, 0x80)\n      jumpi(tag_1, lt(calldatasize, 0x04))\n      shr(0xe0, calldataload(0x00))\n      dup1\n      0xed88c68e\n      eq\n      tag_2\n      jumpi\n      dup1\n      0xfe6dcdba\n      eq\n      tag_3\n      jumpi\n    tag_1:\n      0x00\n      dup1\n      revert\n        /* \"Solidity100/sol100(51~60).sol\":2521:2618  function donate() public payable {... */\n    tag_2:\n      tag_4\n      tag_5\n      jump\t// in\n    tag_4:\n      stop\n        /* \"Solidity100/sol100(51~60).sol\":2626:3111  function top() public view returns(donator memory) {... */\n    tag_3:\n      callvalue\n      dup1\n      iszero\n      tag_6\n      jumpi\n      0x00\n      dup1\n      revert\n    tag_6:\n      pop\n      tag_7\n      tag_8\n      jump\t// in\n    tag_7:\n      mload(0x40)\n      tag_9\n      swap2\n      swap1\n      tag_10\n      jump\t// in\n    tag_9:\n      mload(0x40)\n      dup1\n      swap2\n      sub\n      swap1\n      return\n        /* \"Solidity100/sol100(51~60).sol\":2521:2618  function donate() public payable {... */\n    tag_5:\n        /* \"Solidity100/sol100(51~60).sol\":2565:2573  donators */\n      0x00\n        /* \"Solidity100/sol100(51~60).sol\":2579:2609  donator(msg.sender, msg.value) */\n      mload(0x40)\n      dup1\n      0x40\n      add\n      0x40\n      mstore\n      dup1\n        /* \"Solidity100/sol100(51~60).sol\":2587:2597  msg.sender */\n      caller\n        /* \"Solidity100/sol100(51~60).sol\":2579:2609  donator(msg.sender, msg.value) */\n      0xffffffffffffffffffffffffffffffffffffffff\n      and\n      dup2\n      mstore\n      0x20\n      add\n        /* \"Solidity100/sol100(51~60).sol\":2599:2608  msg.value */\n      callvalue\n        /* \"Solidity100/sol100(51~60).sol\":2579:2609  donator(msg.sender, msg.value) */\n      dup2\n      mstore\n      pop\n        /* \"Solidity100/sol100(51~60).sol\":2565:2610  donators.push(donator(msg.sender, msg.value)) */\n      swap1\n      dup1\n      0x01\n      dup2\n      sload\n      add\n      dup1\n      dup3\n      sstore\n      dup1\n      swap2\n      pop\n      pop\n      0x01\n      swap1\n      sub\n      swap1\n      0x00\n      mstore\n      keccak256(0x00, 0x20)\n      swap1\n      0x02\n      mul\n      add\n      0x00\n      swap1\n      swap2\n      swap1\n      swap2\n      swap1\n      swap2\n      pop\n      0x00\n      dup3\n      add\n      mload\n      dup2\n      0x00\n      add\n      exp(0x0100, 0x00)\n      dup2\n      sload\n      dup2\n      0xffffffffffffffffffffffffffffffffffffffff\n      mul\n      not\n      and\n      swap1\n      dup4\n      0xffffffffffffffffffffffffffffffffffffffff\n      and\n      mul\n      or\n      swap1\n      sstore\n      pop\n      0x20\n      dup3\n      add\n      mload\n      dup2\n      0x01\n      add\n      sstore\n      pop\n      pop\n        /* \"Solidity100/sol100(51~60).sol\":2521:2618  function donate() public payable {... */\n      jump\t// out\n        /* \"Solidity100/sol100(51~60).sol\":2626:3111  function top() public view returns(donator memory) {... */\n    tag_8:\n        /* \"Solidity100/sol100(51~60).sol\":2661:2675  donator memory */\n      tag_13\n      tag_14\n      jump\t// in\n    tag_13:\n        /* \"Solidity100/sol100(51~60).sol\":2688:2714  donator[] memory _donators */\n      0x00\n        /* \"Solidity100/sol100(51~60).sol\":2717:2725  donators */\n      dup1\n        /* \"Solidity100/sol100(51~60).sol\":2688:2725  donator[] memory _donators = donators */\n      dup1\n      sload\n      dup1\n      0x20\n      mul\n      0x20\n      add\n      mload(0x40)\n      swap1\n      dup2\n      add\n      0x40\n      mstore\n      dup1\n      swap3\n      swap2\n      swap1\n      dup2\n      dup2\n      mstore\n      0x20\n      add\n      0x00\n      swap1\n    tag_16:\n      dup3\n      dup3\n      lt\n      iszero\n      tag_17\n      jumpi\n      dup4\n      dup3\n      swap1\n      0x00\n      mstore\n      keccak256(0x00, 0x20)\n      swap1\n      0x02\n      mul\n      add\n      mload(0x40)\n      dup1\n      0x40\n      add\n      0x40\n      mstore\n      swap1\n      dup2\n      0x00\n      dup3\n      add\n      0x00\n      swap1\n      sload\n      swap1\n      0x0100\n      exp\n      swap1\n      div\n      0xffffffffffffffffffffffffffffffffffffffff\n      and\n      0xffffffffffffffffffffffffffffffffffffffff\n      and\n      0xffffffffffffffffffffffffffffffffffffffff\n      and\n      dup2\n      mstore\n      0x20\n      add\n      0x01\n      dup3\n      add\n      sload\n      dup2\n      mstore\n      pop\n      pop\n      dup2\n      mstore\n      0x20\n      add\n      swap1\n      0x01\n      add\n      swap1\n      jump(tag_16)\n    tag_17:\n      pop\n      pop\n      pop\n      pop\n      swap1\n      pop\n        /* \"Solidity100/sol100(51~60).sol\":2740:2746  uint i */\n      0x00\n        /* \"Solidity100/sol100(51~60).sol\":2736:3068  for(uint i = 0; i < donators.length; i++) {... */\n    tag_19:\n        /* \"Solidity100/sol100(51~60).sol\":2756:2764  donators */\n      0x00\n        /* \"Solidity100/sol100(51~60).sol\":2756:2771  donators.length */\n      dup1\n      sload\n      swap1\n      pop\n        /* \"Solidity100/sol100(51~60).sol\":2752:2753  i */\n      dup2\n        /* \"Solidity100/sol100(51~60).sol\":2752:2771  i < donators.length */\n      lt\n        /* \"Solidity100/sol100(51~60).sol\":2736:3068  for(uint i = 0; i < donators.length; i++) {... */\n      iszero\n      tag_20\n      jumpi\n        /* \"Solidity100/sol100(51~60).sol\":2797:2803  uint j */\n      0x00\n        /* \"Solidity100/sol100(51~60).sol\":2806:2807  1 */\n      0x01\n        /* \"Solidity100/sol100(51~60).sol\":2804:2805  i */\n      dup3\n        /* \"Solidity100/sol100(51~60).sol\":2804:2807  i+1 */\n      tag_25\n      swap2\n      swap1\n      tag_26\n      jump\t// in\n    tag_25:\n        /* \"Solidity100/sol100(51~60).sol\":2797:2807  uint j=i+1 */\n      swap1\n      pop\n        /* \"Solidity100/sol100(51~60).sol\":2793:3057  for(uint j=i+1; j < donators.length; j++) {... */\n    tag_22:\n        /* \"Solidity100/sol100(51~60).sol\":2813:2821  donators */\n      0x00\n        /* \"Solidity100/sol100(51~60).sol\":2813:2828  donators.length */\n      dup1\n      sload\n      swap1\n      pop\n        /* \"Solidity100/sol100(51~60).sol\":2809:2810  j */\n      dup2\n        /* \"Solidity100/sol100(51~60).sol\":2809:2828  j < donators.length */\n      lt\n        /* \"Solidity100/sol100(51~60).sol\":2793:3057  for(uint j=i+1; j < donators.length; j++) {... */\n      iszero\n      tag_23\n      jumpi\n        /* \"Solidity100/sol100(51~60).sol\":2881:2890  _donators */\n      dup3\n        /* \"Solidity100/sol100(51~60).sol\":2891:2892  j */\n      dup2\n        /* \"Solidity100/sol100(51~60).sol\":2881:2893  _donators[j] */\n      dup2\n      mload\n      dup2\n      lt\n      tag_27\n      jumpi\n      tag_28\n      tag_29\n      jump\t// in\n    tag_28:\n    tag_27:\n      0x20\n      mul\n      0x20\n      add\n      add\n      mload\n        /* \"Solidity100/sol100(51~60).sol\":2881:2902  _donators[j]._balance */\n      0x20\n      add\n      mload\n        /* \"Solidity100/sol100(51~60).sol\":2857:2866  _donators */\n      dup4\n        /* \"Solidity100/sol100(51~60).sol\":2867:2868  i */\n      dup4\n        /* \"Solidity100/sol100(51~60).sol\":2857:2869  _donators[i] */\n      dup2\n      mload\n      dup2\n      lt\n      tag_30\n      jumpi\n      tag_31\n      tag_29\n      jump\t// in\n    tag_31:\n    tag_30:\n      0x20\n      mul\n      0x20\n      add\n      add\n      mload\n        /* \"Solidity100/sol100(51~60).sol\":2857:2878  _donators[i]._balance */\n      0x20\n      add\n      mload\n        /* \"Solidity100/sol100(51~60).sol\":2857:2902  _donators[i]._balance < _donators[j]._balance */\n      lt\n        /* \"Solidity100/sol100(51~60).sol\":2854:3042  if(_donators[i]._balance < _donators[j]._balance) {... */\n      iszero\n      tag_32\n      jumpi\n        /* \"Solidity100/sol100(51~60).sol\":2977:2986  _donators */\n      dup3\n        /* \"Solidity100/sol100(51~60).sol\":2987:2988  j */\n      dup2\n        /* \"Solidity100/sol100(51~60).sol\":2977:2989  _donators[j] */\n      dup2\n      mload\n      dup2\n      lt\n      tag_33\n      jumpi\n      tag_34\n      tag_29\n      jump\t// in\n    tag_34:\n    tag_33:\n      0x20\n      mul\n      0x20\n      add\n      add\n      mload\n        /* \"Solidity100/sol100(51~60).sol\":2977:2998  _donators[j]._balance */\n      0x20\n      add\n      mload\n        /* \"Solidity100/sol100(51~60).sol\":3000:3009  _donators */\n      dup4\n        /* \"Solidity100/sol100(51~60).sol\":3010:3011  i */\n      dup4\n        /* \"Solidity100/sol100(51~60).sol\":3000:3012  _donators[i] */\n      dup2\n      mload\n      dup2\n      lt\n      tag_35\n      jumpi\n      tag_36\n      tag_29\n      jump\t// in\n    tag_36:\n    tag_35:\n      0x20\n      mul\n      0x20\n      add\n      add\n      mload\n        /* \"Solidity100/sol100(51~60).sol\":3000:3021  _donators[i]._balance */\n      0x20\n      add\n      mload\n        /* \"Solidity100/sol100(51~60).sol\":2928:2937  _donators */\n      dup5\n        /* \"Solidity100/sol100(51~60).sol\":2938:2939  i */\n      dup5\n        /* \"Solidity100/sol100(51~60).sol\":2928:2940  _donators[i] */\n      dup2\n      mload\n      dup2\n      lt\n      tag_37\n      jumpi\n      tag_38\n      tag_29\n      jump\t// in\n    tag_38:\n    tag_37:\n      0x20\n      mul\n      0x20\n      add\n      add\n      mload\n        /* \"Solidity100/sol100(51~60).sol\":2928:2949  _donators[i]._balance */\n      0x20\n      add\n        /* \"Solidity100/sol100(51~60).sol\":2951:2960  _donators */\n      dup6\n        /* \"Solidity100/sol100(51~60).sol\":2961:2962  j */\n      dup5\n        /* \"Solidity100/sol100(51~60).sol\":2951:2963  _donators[j] */\n      dup2\n      mload\n      dup2\n      lt\n      tag_39\n      jumpi\n      tag_40\n      tag_29\n      jump\t// in\n    tag_40:\n    tag_39:\n      0x20\n      mul\n      0x20\n      add\n      add\n      mload\n        /* \"Solidity100/sol100(51~60).sol\":2951:2972  _donators[j]._balance */\n      0x20\n      add\n        /* \"Solidity100/sol100(51~60).sol\":2927:3022  (_donators[i]._balance, _donators[j]._balance) = (_donators[j]._balance, _donators[i]._balance) */\n      dup3\n      dup2\n      mstore\n      pop\n      dup3\n      dup2\n      mstore\n      pop\n      pop\n      pop\n        /* \"Solidity100/sol100(51~60).sol\":2854:3042  if(_donators[i]._balance < _donators[j]._balance) {... */\n    tag_32:\n        /* \"Solidity100/sol100(51~60).sol\":2830:2833  j++ */\n      dup1\n      dup1\n      0x01\n      add\n      swap2\n      pop\n      pop\n        /* \"Solidity100/sol100(51~60).sol\":2793:3057  for(uint j=i+1; j < donators.length; j++) {... */\n      jump(tag_22)\n    tag_23:\n      pop\n        /* \"Solidity100/sol100(51~60).sol\":2773:2776  i++ */\n      dup1\n      dup1\n      0x01\n      add\n      swap2\n      pop\n      pop\n        /* \"Solidity100/sol100(51~60).sol\":2736:3068  for(uint i = 0; i < donators.length; i++) {... */\n      jump(tag_19)\n    tag_20:\n      pop\n        /* \"Solidity100/sol100(51~60).sol\":3087:3096  _donators */\n      dup1\n        /* \"Solidity100/sol100(51~60).sol\":3097:3098  0 */\n      0x00\n        /* \"Solidity100/sol100(51~60).sol\":3087:3099  _donators[0] */\n      dup2\n      mload\n      dup2\n      lt\n      tag_41\n      jumpi\n      tag_42\n      tag_29\n      jump\t// in\n    tag_42:\n    tag_41:\n      0x20\n      mul\n      0x20\n      add\n      add\n      mload\n        /* \"Solidity100/sol100(51~60).sol\":3080:3099  return _donators[0] */\n      swap2\n      pop\n      pop\n        /* \"Solidity100/sol100(51~60).sol\":2626:3111  function top() public view returns(donator memory) {... */\n      swap1\n      jump\t// out\n    tag_14:\n      mload(0x40)\n      dup1\n      0x40\n      add\n      0x40\n      mstore\n      dup1\n      and(0xffffffffffffffffffffffffffffffffffffffff, 0x00)\n      dup2\n      mstore\n      0x20\n      add\n      0x00\n      dup2\n      mstore\n      pop\n      swap1\n      jump\t// out\n        /* \"#utility.yul\":7:133   */\n    tag_43:\n        /* \"#utility.yul\":44:51   */\n      0x00\n        /* \"#utility.yul\":84:126   */\n      0xffffffffffffffffffffffffffffffffffffffff\n        /* \"#utility.yul\":77:82   */\n      dup3\n        /* \"#utility.yul\":73:127   */\n      and\n        /* \"#utility.yul\":62:127   */\n      swap1\n      pop\n        /* \"#utility.yul\":7:133   */\n      swap2\n      swap1\n      pop\n      jump\t// out\n        /* \"#utility.yul\":139:235   */\n    tag_44:\n        /* \"#utility.yul\":176:183   */\n      0x00\n        /* \"#utility.yul\":205:229   */\n      tag_53\n        /* \"#utility.yul\":223:228   */\n      dup3\n        /* \"#utility.yul\":205:229   */\n      tag_43\n      jump\t// in\n    tag_53:\n        /* \"#utility.yul\":194:229   */\n      swap1\n      pop\n        /* \"#utility.yul\":139:235   */\n      swap2\n      swap1\n      pop\n      jump\t// out\n        /* \"#utility.yul\":241:349   */\n    tag_45:\n        /* \"#utility.yul\":318:342   */\n      tag_55\n        /* \"#utility.yul\":336:341   */\n      dup2\n        /* \"#utility.yul\":318:342   */\n      tag_44\n      jump\t// in\n    tag_55:\n        /* \"#utility.yul\":313:316   */\n      dup3\n        /* \"#utility.yul\":306:343   */\n      mstore\n        /* \"#utility.yul\":241:349   */\n      pop\n      pop\n      jump\t// out\n        /* \"#utility.yul\":355:432   */\n    tag_46:\n        /* \"#utility.yul\":392:399   */\n      0x00\n        /* \"#utility.yul\":421:426   */\n      dup2\n        /* \"#utility.yul\":410:426   */\n      swap1\n      pop\n        /* \"#utility.yul\":355:432   */\n      swap2\n      swap1\n      pop\n      jump\t// out\n        /* \"#utility.yul\":438:546   */\n    tag_47:\n        /* \"#utility.yul\":515:539   */\n      tag_58\n        /* \"#utility.yul\":533:538   */\n      dup2\n        /* \"#utility.yul\":515:539   */\n      tag_46\n      jump\t// in\n    tag_58:\n        /* \"#utility.yul\":510:513   */\n      dup3\n        /* \"#utility.yul\":503:540   */\n      mstore\n        /* \"#utility.yul\":438:546   */\n      pop\n      pop\n      jump\t// out\n        /* \"#utility.yul\":600:1110   */\n    tag_48:\n        /* \"#utility.yul\":745:749   */\n      0x40\n        /* \"#utility.yul\":740:743   */\n      dup3\n        /* \"#utility.yul\":736:750   */\n      add\n        /* \"#utility.yul\":833:837   */\n      0x00\n        /* \"#utility.yul\":826:831   */\n      dup3\n        /* \"#utility.yul\":822:838   */\n      add\n        /* \"#utility.yul\":816:839   */\n      mload\n        /* \"#utility.yul\":852:915   */\n      tag_60\n        /* \"#utility.yul\":909:913   */\n      0x00\n        /* \"#utility.yul\":904:907   */\n      dup6\n        /* \"#utility.yul\":900:914   */\n      add\n        /* \"#utility.yul\":886:898   */\n      dup3\n        /* \"#utility.yul\":852:915   */\n      tag_45\n      jump\t// in\n    tag_60:\n        /* \"#utility.yul\":760:925   */\n      pop\n        /* \"#utility.yul\":1011:1015   */\n      0x20\n        /* \"#utility.yul\":1004:1009   */\n      dup3\n        /* \"#utility.yul\":1000:1016   */\n      add\n        /* \"#utility.yul\":994:1017   */\n      mload\n        /* \"#utility.yul\":1030:1093   */\n      tag_61\n        /* \"#utility.yul\":1087:1091   */\n      0x20\n        /* \"#utility.yul\":1082:1085   */\n      dup6\n        /* \"#utility.yul\":1078:1092   */\n      add\n        /* \"#utility.yul\":1064:1076   */\n      dup3\n        /* \"#utility.yul\":1030:1093   */\n      tag_47\n      jump\t// in\n    tag_61:\n        /* \"#utility.yul\":935:1103   */\n      pop\n        /* \"#utility.yul\":714:1110   */\n      pop\n        /* \"#utility.yul\":600:1110   */\n      pop\n      pop\n      jump\t// out\n        /* \"#utility.yul\":1116:1434   */\n    tag_10:\n        /* \"#utility.yul\":1257:1261   */\n      0x00\n        /* \"#utility.yul\":1295:1297   */\n      0x40\n        /* \"#utility.yul\":1284:1293   */\n      dup3\n        /* \"#utility.yul\":1280:1298   */\n      add\n        /* \"#utility.yul\":1272:1298   */\n      swap1\n      pop\n        /* \"#utility.yul\":1308:1427   */\n      tag_63\n        /* \"#utility.yul\":1424:1425   */\n      0x00\n        /* \"#utility.yul\":1413:1422   */\n      dup4\n        /* \"#utility.yul\":1409:1426   */\n      add\n        /* \"#utility.yul\":1400:1406   */\n      dup5\n        /* \"#utility.yul\":1308:1427   */\n      tag_48\n      jump\t// in\n    tag_63:\n        /* \"#utility.yul\":1116:1434   */\n      swap3\n      swap2\n      pop\n      pop\n      jump\t// out\n        /* \"#utility.yul\":1440:1620   */\n    tag_49:\n        /* \"#utility.yul\":1488:1565   */\n      0x4e487b7100000000000000000000000000000000000000000000000000000000\n        /* \"#utility.yul\":1485:1486   */\n      0x00\n        /* \"#utility.yul\":1478:1566   */\n      mstore\n        /* \"#utility.yul\":1585:1589   */\n      0x11\n        /* \"#utility.yul\":1582:1583   */\n      0x04\n        /* \"#utility.yul\":1575:1590   */\n      mstore\n        /* \"#utility.yul\":1609:1613   */\n      0x24\n        /* \"#utility.yul\":1606:1607   */\n      0x00\n        /* \"#utility.yul\":1599:1614   */\n      revert\n        /* \"#utility.yul\":1626:1817   */\n    tag_26:\n        /* \"#utility.yul\":1666:1669   */\n      0x00\n        /* \"#utility.yul\":1685:1705   */\n      tag_66\n        /* \"#utility.yul\":1703:1704   */\n      dup3\n        /* \"#utility.yul\":1685:1705   */\n      tag_46\n      jump\t// in\n    tag_66:\n        /* \"#utility.yul\":1680:1705   */\n      swap2\n      pop\n        /* \"#utility.yul\":1719:1739   */\n      tag_67\n        /* \"#utility.yul\":1737:1738   */\n      dup4\n        /* \"#utility.yul\":1719:1739   */\n      tag_46\n      jump\t// in\n    tag_67:\n        /* \"#utility.yul\":1714:1739   */\n      swap3\n      pop\n        /* \"#utility.yul\":1762:1763   */\n      dup3\n        /* \"#utility.yul\":1759:1760   */\n      dup3\n        /* \"#utility.yul\":1755:1764   */\n      add\n        /* \"#utility.yul\":1748:1764   */\n      swap1\n      pop\n        /* \"#utility.yul\":1783:1786   */\n      dup1\n        /* \"#utility.yul\":1780:1781   */\n      dup3\n        /* \"#utility.yul\":1777:1787   */\n      gt\n        /* \"#utility.yul\":1774:1810   */\n      iszero\n      tag_68\n      jumpi\n        /* \"#utility.yul\":1790:1808   */\n      tag_69\n      tag_49\n      jump\t// in\n    tag_69:\n        /* \"#utility.yul\":1774:1810   */\n    tag_68:\n        /* \"#utility.yul\":1626:1817   */\n      swap3\n      swap2\n      pop\n      pop\n      jump\t// out\n        /* \"#utility.yul\":1823:2003   */\n    tag_29:\n        /* \"#utility.yul\":1871:1948   */\n      0x4e487b7100000000000000000000000000000000000000000000000000000000\n        /* \"#utility.yul\":1868:1869   */\n      0x00\n        /* \"#utility.yul\":1861:1949   */\n      mstore\n        /* \"#utility.yul\":1968:1972   */\n      0x32\n        /* \"#utility.yul\":1965:1966   */\n      0x04\n        /* \"#utility.yul\":1958:1973   */\n      mstore\n        /* \"#utility.yul\":1992:1996   */\n      0x24\n        /* \"#utility.yul\":1989:1990   */\n      0x00\n        /* \"#utility.yul\":1982:1997   */\n      revert\n\n    auxdata: 0xa26469706673582212201686dfbff2d78505a8eab45c47b1a01a09a350a77319ebdf1528f60231f9b1e664736f6c634300081a0033\n}\n",
				"bytecode": {
					"linkReferences": {},
					"object": "6080604052348015600e575f80fd5b506104808061001c5f395ff3fe608060405260043610610028575f3560e01c8063ed88c68e1461002c578063fe6dcdba14610036575b5f80fd5b610034610060565b005b348015610041575f80fd5b5061004a610104565b60405161005791906103a4565b60405180910390f35b5f60405180604001604052803373ffffffffffffffffffffffffffffffffffffffff16815260200134815250908060018154018082558091505060019003905f5260205f2090600202015f909190919091505f820151815f015f6101000a81548173ffffffffffffffffffffffffffffffffffffffff021916908373ffffffffffffffffffffffffffffffffffffffff160217905550602082015181600101555050565b61010c6102f2565b5f80805480602002602001604051908101604052809291908181526020015f905b828210156101bb578382905f5260205f2090600202016040518060400160405290815f82015f9054906101000a900473ffffffffffffffffffffffffffffffffffffffff1673ffffffffffffffffffffffffffffffffffffffff1673ffffffffffffffffffffffffffffffffffffffff1681526020016001820154815250508152602001906001019061012d565b5050505090505f5b5f805490508110156102d0575f6001826101dd91906103ea565b90505b5f805490508110156102c2578281815181106101ff576101fe61041d565b5b60200260200101516020015183838151811061021e5761021d61041d565b5b60200260200101516020015110156102b5578281815181106102435761024261041d565b5b6020026020010151602001518383815181106102625761026161041d565b5b6020026020010151602001518484815181106102815761028061041d565b5b602002602001015160200185848151811061029f5761029e61041d565b5b6020026020010151602001828152508281525050505b80806001019150506101e0565b5080806001019150506101c3565b50805f815181106102e4576102e361041d565b5b602002602001015191505090565b60405180604001604052805f73ffffffffffffffffffffffffffffffffffffffff1681526020015f81525090565b5f73ffffffffffffffffffffffffffffffffffffffff82169050919050565b5f61034982610320565b9050919050565b6103598161033f565b82525050565b5f819050919050565b6103718161035f565b82525050565b604082015f82015161038b5f850182610350565b50602082015161039e6020850182610368565b50505050565b5f6040820190506103b75f830184610377565b92915050565b7f4e487b71000000000000000000000000000000000000000000000000000000005f52601160045260245ffd5b5f6103f48261035f565b91506103ff8361035f565b9250828201905080821115610417576104166103bd565b5b92915050565b7f4e487b71000000000000000000000000000000000000000000000000000000005f52603260045260245ffdfea26469706673582212201686dfbff2d78505a8eab45c47b1a01a09a350a77319ebdf1528f60231f9b1e664736f6c634300081a0033",
					"opcodes": "PUSH1 0x80 PUSH1 0x40 MSTORE CALLVALUE DUP1 ISZERO PUSH1 0xE JUMPI PUSH0 DUP1 REVERT JUMPDEST POP PUSH2 0x480 DUP1 PUSH2 0x1C PUSH0 CODECOPY PUSH0 RETURN INVALID PUSH1 0x80 PUSH1 0x40 MSTORE PUSH1 0x4 CALLDATASIZE LT PUSH2 0x28 JUMPI PUSH0 CALLDATALOAD PUSH1 0xE0 SHR DUP1 PUSH4 0xED88C68E EQ PUSH2 0x2C JUMPI DUP1 PUSH4 0xFE6DCDBA EQ PUSH2 0x36 JUMPI JUMPDEST PUSH0 DUP1 REVERT JUMPDEST PUSH2 0x34 PUSH2 0x60 JUMP JUMPDEST STOP JUMPDEST CALLVALUE DUP1 ISZERO PUSH2 0x41 JUMPI PUSH0 DUP1 REVERT JUMPDEST POP PUSH2 0x4A PUSH2 0x104 JUMP JUMPDEST PUSH1 0x40 MLOAD PUSH2 0x57 SWAP2 SWAP1 PUSH2 0x3A4 JUMP JUMPDEST PUSH1 0x40 MLOAD DUP1 SWAP2 SUB SWAP1 RETURN JUMPDEST PUSH0 PUSH1 0x40 MLOAD DUP1 PUSH1 0x40 ADD PUSH1 0x40 MSTORE DUP1 CALLER PUSH20 0xFFFFFFFFFFFFFFFFFFFFFFFFFFFFFFFFFFFFFFFF AND DUP2 MSTORE PUSH1 0x20 ADD CALLVALUE DUP2 MSTORE POP SWAP1 DUP1 PUSH1 0x1 DUP2 SLOAD ADD DUP1 DUP3 SSTORE DUP1 SWAP2 POP POP PUSH1 0x1 SWAP1 SUB SWAP1 PUSH0 MSTORE PUSH1 0x20 PUSH0 KECCAK256 SWAP1 PUSH1 0x2 MUL ADD PUSH0 SWAP1 SWAP2 SWAP1 SWAP2 SWAP1 SWAP2 POP PUSH0 DUP3 ADD MLOAD DUP2 PUSH0 ADD PUSH0 PUSH2 0x100 EXP DUP2 SLOAD DUP2 PUSH20 0xFFFFFFFFFFFFFFFFFFFFFFFFFFFFFFFFFFFFFFFF MUL NOT AND SWAP1 DUP4 PUSH20 0xFFFFFFFFFFFFFFFFFFFFFFFFFFFFFFFFFFFFFFFF AND MUL OR SWAP1 SSTORE POP PUSH1 0x20 DUP3 ADD MLOAD DUP2 PUSH1 0x1 ADD SSTORE POP POP JUMP JUMPDEST PUSH2 0x10C PUSH2 0x2F2 JUMP JUMPDEST PUSH0 DUP1 DUP1 SLOAD DUP1 PUSH1 0x20 MUL PUSH1 0x20 ADD PUSH1 0x40 MLOAD SWAP1 DUP2 ADD PUSH1 0x40 MSTORE DUP1 SWAP3 SWAP2 SWAP1 DUP2 DUP2 MSTORE PUSH1 0x20 ADD PUSH0 SWAP1 JUMPDEST DUP3 DUP3 LT ISZERO PUSH2 0x1BB JUMPI DUP4 DUP3 SWAP1 PUSH0 MSTORE PUSH1 0x20 PUSH0 KECCAK256 SWAP1 PUSH1 0x2 MUL ADD PUSH1 0x40 MLOAD DUP1 PUSH1 0x40 ADD PUSH1 0x40 MSTORE SWAP1 DUP2 PUSH0 DUP3 ADD PUSH0 SWAP1 SLOAD SWAP1 PUSH2 0x100 EXP SWAP1 DIV PUSH20 0xFFFFFFFFFFFFFFFFFFFFFFFFFFFFFFFFFFFFFFFF AND PUSH20 0xFFFFFFFFFFFFFFFFFFFFFFFFFFFFFFFFFFFFFFFF AND PUSH20 0xFFFFFFFFFFFFFFFFFFFFFFFFFFFFFFFFFFFFFFFF AND DUP2 MSTORE PUSH1 0x20 ADD PUSH1 0x1 DUP3 ADD SLOAD DUP2 MSTORE POP POP DUP2 MSTORE PUSH1 0x20 ADD SWAP1 PUSH1 0x1 ADD SWAP1 PUSH2 0x12D JUMP JUMPDEST POP POP POP POP SWAP1 POP PUSH0 JUMPDEST PUSH0 DUP1 SLOAD SWAP1 POP DUP2 LT ISZERO PUSH2 0x2D0 JUMPI PUSH0 PUSH1 0x1 DUP3 PUSH2 0x1DD SWAP2 SWAP1 PUSH2 0x3EA JUMP JUMPDEST SWAP1 POP JUMPDEST PUSH0 DUP1 SLOAD SWAP1 POP DUP2 LT ISZERO PUSH2 0x2C2 JUMPI DUP3 DUP2 DUP2 MLOAD DUP2 LT PUSH2 0x1FF JUMPI PUSH2 0x1FE PUSH2 0x41D JUMP JUMPDEST JUMPDEST PUSH1 0x20 MUL PUSH1 0x20 ADD ADD MLOAD PUSH1 0x20 ADD MLOAD DUP4 DUP4 DUP2 MLOAD DUP2 LT PUSH2 0x21E JUMPI PUSH2 0x21D PUSH2 0x41D JUMP JUMPDEST JUMPDEST PUSH1 0x20 MUL PUSH1 0x20 ADD ADD MLOAD PUSH1 0x20 ADD MLOAD LT ISZERO PUSH2 0x2B5 JUMPI DUP3 DUP2 DUP2 MLOAD DUP2 LT PUSH2 0x243 JUMPI PUSH2 0x242 PUSH2 0x41D JUMP JUMPDEST JUMPDEST PUSH1 0x20 MUL PUSH1 0x20 ADD ADD MLOAD PUSH1 0x20 ADD MLOAD DUP4 DUP4 DUP2 MLOAD DUP2 LT PUSH2 0x262 JUMPI PUSH2 0x261 PUSH2 0x41D JUMP JUMPDEST JUMPDEST PUSH1 0x20 MUL PUSH1 0x20 ADD ADD MLOAD PUSH1 0x20 ADD MLOAD DUP5 DUP5 DUP2 MLOAD DUP2 LT PUSH2 0x281 JUMPI PUSH2 0x280 PUSH2 0x41D JUMP JUMPDEST JUMPDEST PUSH1 0x20 MUL PUSH1 0x20 ADD ADD MLOAD PUSH1 0x20 ADD DUP6 DUP5 DUP2 MLOAD DUP2 LT PUSH2 0x29F JUMPI PUSH2 0x29E PUSH2 0x41D JUMP JUMPDEST JUMPDEST PUSH1 0x20 MUL PUSH1 0x20 ADD ADD MLOAD PUSH1 0x20 ADD DUP3 DUP2 MSTORE POP DUP3 DUP2 MSTORE POP POP POP JUMPDEST DUP1 DUP1 PUSH1 0x1 ADD SWAP2 POP POP PUSH2 0x1E0 JUMP JUMPDEST POP DUP1 DUP1 PUSH1 0x1 ADD SWAP2 POP POP PUSH2 0x1C3 JUMP JUMPDEST POP DUP1 PUSH0 DUP2 MLOAD DUP2 LT PUSH2 0x2E4 JUMPI PUSH2 0x2E3 PUSH2 0x41D JUMP JUMPDEST JUMPDEST PUSH1 0x20 MUL PUSH1 0x20 ADD ADD MLOAD SWAP2 POP POP SWAP1 JUMP JUMPDEST PUSH1 0x40 MLOAD DUP1 PUSH1 0x40 ADD PUSH1 0x40 MSTORE DUP1 PUSH0 PUSH20 0xFFFFFFFFFFFFFFFFFFFFFFFFFFFFFFFFFFFFFFFF AND DUP2 MSTORE PUSH1 0x20 ADD PUSH0 DUP2 MSTORE POP SWAP1 JUMP JUMPDEST PUSH0 PUSH20 0xFFFFFFFFFFFFFFFFFFFFFFFFFFFFFFFFFFFFFFFF DUP3 AND SWAP1 POP SWAP2 SWAP1 POP JUMP JUMPDEST PUSH0 PUSH2 0x349 DUP3 PUSH2 0x320 JUMP JUMPDEST SWAP1 POP SWAP2 SWAP1 POP JUMP JUMPDEST PUSH2 0x359 DUP2 PUSH2 0x33F JUMP JUMPDEST DUP3 MSTORE POP POP JUMP JUMPDEST PUSH0 DUP2 SWAP1 POP SWAP2 SWAP1 POP JUMP JUMPDEST PUSH2 0x371 DUP2 PUSH2 0x35F JUMP JUMPDEST DUP3 MSTORE POP POP JUMP JUMPDEST PUSH1 0x40 DUP3 ADD PUSH0 DUP3 ADD MLOAD PUSH2 0x38B PUSH0 DUP6 ADD DUP3 PUSH2 0x350 JUMP JUMPDEST POP PUSH1 0x20 DUP3 ADD MLOAD PUSH2 0x39E PUSH1 0x20 DUP6 ADD DUP3 PUSH2 0x368 JUMP JUMPDEST POP POP POP POP JUMP JUMPDEST PUSH0 PUSH1 0x40 DUP3 ADD SWAP1 POP PUSH2 0x3B7 PUSH0 DUP4 ADD DUP5 PUSH2 0x377 JUMP JUMPDEST SWAP3 SWAP2 POP POP JUMP JUMPDEST PUSH32 0x4E487B7100000000000000000000000000000000000000000000000000000000 PUSH0 MSTORE PUSH1 0x11 PUSH1 0x4 MSTORE PUSH1 0x24 PUSH0 REVERT JUMPDEST PUSH0 PUSH2 0x3F4 DUP3 PUSH2 0x35F JUMP JUMPDEST SWAP2 POP PUSH2 0x3FF DUP4 PUSH2 0x35F JUMP JUMPDEST SWAP3 POP DUP3 DUP3 ADD SWAP1 POP DUP1 DUP3 GT ISZERO PUSH2 0x417 JUMPI PUSH2 0x416 PUSH2 0x3BD JUMP JUMPDEST JUMPDEST SWAP3 SWAP2 POP POP JUMP JUMPDEST PUSH32 0x4E487B7100000000000000000000000000000000000000000000000000000000 PUSH0 MSTORE PUSH1 0x32 PUSH1 0x4 MSTORE PUSH1 0x24 PUSH0 REVERT INVALID LOG2 PUSH5 0x6970667358 0x22 SLT KECCAK256 AND DUP7 0xDF 0xBF CALLCODE 0xD7 DUP6 SDIV 0xA8 0xEA 0xB4 TLOAD SELFBALANCE 0xB1 LOG0 BYTE MULMOD LOG3 POP 0xA7 PUSH20 0x19EBDF1528F60231F9B1E664736F6C634300081A STOP CALLER "
				},
				"gasEstimates": {
					"creation": {
						"codeDepositCost": "230400",
						"executionCost": "267",
						"totalCost": "230667"
					},
					"external": {
						"donate()": "70891",
						"top()": "infinite"
					}
				},
				"methodIdentifiers": {
					"donate()": "ed88c68e",
					"top()": "fe6dcdba"
				}
			},
			"storageLayout": {
				"storage": [
					{
						"astId": 216,
						"contract": "Solidity100/sol100(51~60).sol:Q54",
						"label": "donators",
						"offset": 0,
						"slot": "0",
						"type": "t_array(t_struct(donator)212_storage)dyn_storage"
					}
				],
				"types": {
					"t_address": {
						"encoding": "inplace",
						"label": "address",
						"numberOfBytes": "20"
					},
					"t_array(t_struct(donator)212_storage)dyn_storage": {
						"base": "t_struct(donator)212_storage",
						"encoding": "dynamic_array",
						"label": "struct Q54.donator[]",
						"numberOfBytes": "32"
					},
					"t_struct(donator)212_storage": {
						"encoding": "inplace",
						"label": "struct Q54.donator",
						"members": [
							{
								"astId": 209,
								"contract": "Solidity100/sol100(51~60).sol:Q54",
								"label": "_addr",
								"offset": 0,
								"slot": "0",
								"type": "t_address"
							},
							{
								"astId": 211,
								"contract": "Solidity100/sol100(51~60).sol:Q54",
								"label": "_balance",
								"offset": 0,
								"slot": "1",
								"type": "t_uint256"
							}
						],
						"numberOfBytes": "64"
					},
					"t_uint256": {
						"encoding": "inplace",
						"label": "uint256",
						"numberOfBytes": "32"
					}
				}
			},
			"userdoc": {
				"kind": "user",
				"methods": {},
				"version": 1
			}
		}
	}
}