{
	"Solidity100/sole100(41~50).sol": {
		"Conditional_output": {
			"abi": [
				{
					"inputs": [
						{
							"internalType": "uint256",
							"name": "_n",
							"type": "uint256"
						}
					],
					"name": "get",
					"outputs": [
						{
							"internalType": "bytes",
							"name": "",
							"type": "bytes"
						}
					],
					"stateMutability": "pure",
					"type": "function"
				}
			],
			"devdoc": {
				"kind": "dev",
				"methods": {},
				"version": 1
			},
			"evm": {
				"assembly": "    /* \"Solidity100/sole100(41~50).sol\":6596:6836  contract Conditional_output{... */\n  mstore(0x40, 0x80)\n  callvalue\n  dup1\n  iszero\n  tag_1\n  jumpi\n  0x00\n  dup1\n  revert\ntag_1:\n  pop\n  dataSize(sub_0)\n  dup1\n  dataOffset(sub_0)\n  0x00\n  codecopy\n  0x00\n  return\nstop\n\nsub_0: assembly {\n        /* \"Solidity100/sole100(41~50).sol\":6596:6836  contract Conditional_output{... */\n      mstore(0x40, 0x80)\n      callvalue\n      dup1\n      iszero\n      tag_1\n      jumpi\n      0x00\n      dup1\n      revert\n    tag_1:\n      pop\n      jumpi(tag_2, lt(calldatasize, 0x04))\n      shr(0xe0, calldataload(0x00))\n      dup1\n      0x9507d39a\n      eq\n      tag_3\n      jumpi\n    tag_2:\n      0x00\n      dup1\n      revert\n        /* \"Solidity100/sole100(41~50).sol\":6630:6833  function get(uint _n) public pure returns(bytes memory) {... */\n    tag_3:\n      tag_4\n      0x04\n      dup1\n      calldatasize\n      sub\n      dup2\n      add\n      swap1\n      tag_5\n      swap2\n      swap1\n      tag_6\n      jump\t// in\n    tag_5:\n      tag_7\n      jump\t// in\n    tag_4:\n      mload(0x40)\n      tag_8\n      swap2\n      swap1\n      tag_9\n      jump\t// in\n    tag_8:\n      mload(0x40)\n      dup1\n      swap2\n      sub\n      swap1\n      return\n    tag_7:\n        /* \"Solidity100/sole100(41~50).sol\":6672:6684  bytes memory */\n      0x60\n        /* \"Solidity100/sole100(41~50).sol\":6703:6704  5 */\n      0x05\n        /* \"Solidity100/sole100(41~50).sol\":6700:6702  _n */\n      dup3\n        /* \"Solidity100/sole100(41~50).sol\":6700:6704  _n>5 */\n      gt\n        /* \"Solidity100/sole100(41~50).sol\":6697:6826  if(_n>5) {... */\n      iszero\n      tag_11\n      jumpi\n        /* \"Solidity100/sole100(41~50).sol\":6728:6754  abi.encodePacked(\"String\") */\n      add(0x20, mload(0x40))\n      tag_12\n      swap1\n      tag_13\n      jump\t// in\n    tag_12:\n      mload(0x40)\n      0x20\n      dup2\n      dup4\n      sub\n      sub\n      dup2\n      mstore\n      swap1\n      0x40\n      mstore\n        /* \"Solidity100/sole100(41~50).sol\":6721:6754  return abi.encodePacked(\"String\") */\n      swap1\n      pop\n      jump(tag_10)\n        /* \"Solidity100/sole100(41~50).sol\":6697:6826  if(_n>5) {... */\n    tag_11:\n        /* \"Solidity100/sole100(41~50).sol\":6811:6813  _n */\n      dup2\n        /* \"Solidity100/sole100(41~50).sol\":6794:6814  abi.encodePacked(_n) */\n      add(0x20, mload(0x40))\n      tag_15\n      swap2\n      swap1\n      tag_16\n      jump\t// in\n    tag_15:\n      mload(0x40)\n      0x20\n      dup2\n      dup4\n      sub\n      sub\n      dup2\n      mstore\n      swap1\n      0x40\n      mstore\n        /* \"Solidity100/sole100(41~50).sol\":6787:6814  return abi.encodePacked(_n) */\n      swap1\n      pop\n        /* \"Solidity100/sole100(41~50).sol\":6630:6833  function get(uint _n) public pure returns(bytes memory) {... */\n    tag_10:\n      swap2\n      swap1\n      pop\n      jump\t// out\n        /* \"#utility.yul\":88:205   */\n    tag_18:\n        /* \"#utility.yul\":197:198   */\n      0x00\n        /* \"#utility.yul\":194:195   */\n      dup1\n        /* \"#utility.yul\":187:199   */\n      revert\n        /* \"#utility.yul\":334:411   */\n    tag_20:\n        /* \"#utility.yul\":371:378   */\n      0x00\n        /* \"#utility.yul\":400:405   */\n      dup2\n        /* \"#utility.yul\":389:405   */\n      swap1\n      pop\n        /* \"#utility.yul\":334:411   */\n      swap2\n      swap1\n      pop\n      jump\t// out\n        /* \"#utility.yul\":417:539   */\n    tag_21:\n        /* \"#utility.yul\":490:514   */\n      tag_39\n        /* \"#utility.yul\":508:513   */\n      dup2\n        /* \"#utility.yul\":490:514   */\n      tag_20\n      jump\t// in\n    tag_39:\n        /* \"#utility.yul\":483:488   */\n      dup2\n        /* \"#utility.yul\":480:515   */\n      eq\n        /* \"#utility.yul\":470:533   */\n      tag_40\n      jumpi\n        /* \"#utility.yul\":529:530   */\n      0x00\n        /* \"#utility.yul\":526:527   */\n      dup1\n        /* \"#utility.yul\":519:531   */\n      revert\n        /* \"#utility.yul\":470:533   */\n    tag_40:\n        /* \"#utility.yul\":417:539   */\n      pop\n      jump\t// out\n        /* \"#utility.yul\":545:684   */\n    tag_22:\n        /* \"#utility.yul\":591:596   */\n      0x00\n        /* \"#utility.yul\":629:635   */\n      dup2\n        /* \"#utility.yul\":616:636   */\n      calldataload\n        /* \"#utility.yul\":607:636   */\n      swap1\n      pop\n        /* \"#utility.yul\":645:678   */\n      tag_42\n        /* \"#utility.yul\":672:677   */\n      dup2\n        /* \"#utility.yul\":645:678   */\n      tag_21\n      jump\t// in\n    tag_42:\n        /* \"#utility.yul\":545:684   */\n      swap3\n      swap2\n      pop\n      pop\n      jump\t// out\n        /* \"#utility.yul\":690:1019   */\n    tag_6:\n        /* \"#utility.yul\":749:755   */\n      0x00\n        /* \"#utility.yul\":798:800   */\n      0x20\n        /* \"#utility.yul\":786:795   */\n      dup3\n        /* \"#utility.yul\":777:784   */\n      dup5\n        /* \"#utility.yul\":773:796   */\n      sub\n        /* \"#utility.yul\":769:801   */\n      slt\n        /* \"#utility.yul\":766:885   */\n      iszero\n      tag_44\n      jumpi\n        /* \"#utility.yul\":804:883   */\n      tag_45\n      tag_18\n      jump\t// in\n    tag_45:\n        /* \"#utility.yul\":766:885   */\n    tag_44:\n        /* \"#utility.yul\":924:925   */\n      0x00\n        /* \"#utility.yul\":949:1002   */\n      tag_46\n        /* \"#utility.yul\":994:1001   */\n      dup5\n        /* \"#utility.yul\":985:991   */\n      dup3\n        /* \"#utility.yul\":974:983   */\n      dup6\n        /* \"#utility.yul\":970:992   */\n      add\n        /* \"#utility.yul\":949:1002   */\n      tag_22\n      jump\t// in\n    tag_46:\n        /* \"#utility.yul\":939:1002   */\n      swap2\n      pop\n        /* \"#utility.yul\":895:1012   */\n      pop\n        /* \"#utility.yul\":690:1019   */\n      swap3\n      swap2\n      pop\n      pop\n      jump\t// out\n        /* \"#utility.yul\":1025:1123   */\n    tag_23:\n        /* \"#utility.yul\":1076:1082   */\n      0x00\n        /* \"#utility.yul\":1110:1115   */\n      dup2\n        /* \"#utility.yul\":1104:1116   */\n      mload\n        /* \"#utility.yul\":1094:1116   */\n      swap1\n      pop\n        /* \"#utility.yul\":1025:1123   */\n      swap2\n      swap1\n      pop\n      jump\t// out\n        /* \"#utility.yul\":1129:1297   */\n    tag_24:\n        /* \"#utility.yul\":1212:1223   */\n      0x00\n        /* \"#utility.yul\":1246:1252   */\n      dup3\n        /* \"#utility.yul\":1241:1244   */\n      dup3\n        /* \"#utility.yul\":1234:1253   */\n      mstore\n        /* \"#utility.yul\":1286:1290   */\n      0x20\n        /* \"#utility.yul\":1281:1284   */\n      dup3\n        /* \"#utility.yul\":1277:1291   */\n      add\n        /* \"#utility.yul\":1262:1291   */\n      swap1\n      pop\n        /* \"#utility.yul\":1129:1297   */\n      swap3\n      swap2\n      pop\n      pop\n      jump\t// out\n        /* \"#utility.yul\":1303:1442   */\n    tag_25:\n        /* \"#utility.yul\":1392:1398   */\n      dup3\n        /* \"#utility.yul\":1387:1390   */\n      dup2\n        /* \"#utility.yul\":1382:1385   */\n      dup4\n        /* \"#utility.yul\":1376:1399   */\n      mcopy\n        /* \"#utility.yul\":1433:1434   */\n      0x00\n        /* \"#utility.yul\":1424:1430   */\n      dup4\n        /* \"#utility.yul\":1419:1422   */\n      dup4\n        /* \"#utility.yul\":1415:1431   */\n      add\n        /* \"#utility.yul\":1408:1435   */\n      mstore\n        /* \"#utility.yul\":1303:1442   */\n      pop\n      pop\n      pop\n      jump\t// out\n        /* \"#utility.yul\":1448:1550   */\n    tag_26:\n        /* \"#utility.yul\":1489:1495   */\n      0x00\n        /* \"#utility.yul\":1540:1542   */\n      0x1f\n        /* \"#utility.yul\":1536:1543   */\n      not\n        /* \"#utility.yul\":1531:1533   */\n      0x1f\n        /* \"#utility.yul\":1524:1529   */\n      dup4\n        /* \"#utility.yul\":1520:1534   */\n      add\n        /* \"#utility.yul\":1516:1544   */\n      and\n        /* \"#utility.yul\":1506:1544   */\n      swap1\n      pop\n        /* \"#utility.yul\":1448:1550   */\n      swap2\n      swap1\n      pop\n      jump\t// out\n        /* \"#utility.yul\":1556:1929   */\n    tag_27:\n        /* \"#utility.yul\":1642:1645   */\n      0x00\n        /* \"#utility.yul\":1670:1708   */\n      tag_52\n        /* \"#utility.yul\":1702:1707   */\n      dup3\n        /* \"#utility.yul\":1670:1708   */\n      tag_23\n      jump\t// in\n    tag_52:\n        /* \"#utility.yul\":1724:1794   */\n      tag_53\n        /* \"#utility.yul\":1787:1793   */\n      dup2\n        /* \"#utility.yul\":1782:1785   */\n      dup6\n        /* \"#utility.yul\":1724:1794   */\n      tag_24\n      jump\t// in\n    tag_53:\n        /* \"#utility.yul\":1717:1794   */\n      swap4\n      pop\n        /* \"#utility.yul\":1803:1868   */\n      tag_54\n        /* \"#utility.yul\":1861:1867   */\n      dup2\n        /* \"#utility.yul\":1856:1859   */\n      dup6\n        /* \"#utility.yul\":1849:1853   */\n      0x20\n        /* \"#utility.yul\":1842:1847   */\n      dup7\n        /* \"#utility.yul\":1838:1854   */\n      add\n        /* \"#utility.yul\":1803:1868   */\n      tag_25\n      jump\t// in\n    tag_54:\n        /* \"#utility.yul\":1893:1922   */\n      tag_55\n        /* \"#utility.yul\":1915:1921   */\n      dup2\n        /* \"#utility.yul\":1893:1922   */\n      tag_26\n      jump\t// in\n    tag_55:\n        /* \"#utility.yul\":1888:1891   */\n      dup5\n        /* \"#utility.yul\":1884:1923   */\n      add\n        /* \"#utility.yul\":1877:1923   */\n      swap2\n      pop\n        /* \"#utility.yul\":1646:1929   */\n      pop\n        /* \"#utility.yul\":1556:1929   */\n      swap3\n      swap2\n      pop\n      pop\n      jump\t// out\n        /* \"#utility.yul\":1935:2244   */\n    tag_9:\n        /* \"#utility.yul\":2046:2050   */\n      0x00\n        /* \"#utility.yul\":2084:2086   */\n      0x20\n        /* \"#utility.yul\":2073:2082   */\n      dup3\n        /* \"#utility.yul\":2069:2087   */\n      add\n        /* \"#utility.yul\":2061:2087   */\n      swap1\n      pop\n        /* \"#utility.yul\":2133:2142   */\n      dup2\n        /* \"#utility.yul\":2127:2131   */\n      dup2\n        /* \"#utility.yul\":2123:2143   */\n      sub\n        /* \"#utility.yul\":2119:2120   */\n      0x00\n        /* \"#utility.yul\":2108:2117   */\n      dup4\n        /* \"#utility.yul\":2104:2121   */\n      add\n        /* \"#utility.yul\":2097:2144   */\n      mstore\n        /* \"#utility.yul\":2161:2237   */\n      tag_57\n        /* \"#utility.yul\":2232:2236   */\n      dup2\n        /* \"#utility.yul\":2223:2229   */\n      dup5\n        /* \"#utility.yul\":2161:2237   */\n      tag_27\n      jump\t// in\n    tag_57:\n        /* \"#utility.yul\":2153:2237   */\n      swap1\n      pop\n        /* \"#utility.yul\":1935:2244   */\n      swap3\n      swap2\n      pop\n      pop\n      jump\t// out\n        /* \"#utility.yul\":2250:2398   */\n    tag_28:\n        /* \"#utility.yul\":2352:2363   */\n      0x00\n        /* \"#utility.yul\":2389:2392   */\n      dup2\n        /* \"#utility.yul\":2374:2392   */\n      swap1\n      pop\n        /* \"#utility.yul\":2250:2398   */\n      swap3\n      swap2\n      pop\n      pop\n      jump\t// out\n        /* \"#utility.yul\":2404:2560   */\n    tag_29:\n        /* \"#utility.yul\":2544:2552   */\n      0x537472696e670000000000000000000000000000000000000000000000000000\n        /* \"#utility.yul\":2540:2541   */\n      0x00\n        /* \"#utility.yul\":2532:2538   */\n      dup3\n        /* \"#utility.yul\":2528:2542   */\n      add\n        /* \"#utility.yul\":2521:2553   */\n      mstore\n        /* \"#utility.yul\":2404:2560   */\n      pop\n      jump\t// out\n        /* \"#utility.yul\":2566:2966   */\n    tag_30:\n        /* \"#utility.yul\":2726:2729   */\n      0x00\n        /* \"#utility.yul\":2747:2831   */\n      tag_61\n        /* \"#utility.yul\":2829:2830   */\n      0x06\n        /* \"#utility.yul\":2824:2827   */\n      dup4\n        /* \"#utility.yul\":2747:2831   */\n      tag_28\n      jump\t// in\n    tag_61:\n        /* \"#utility.yul\":2740:2831   */\n      swap2\n      pop\n        /* \"#utility.yul\":2840:2933   */\n      tag_62\n        /* \"#utility.yul\":2929:2932   */\n      dup3\n        /* \"#utility.yul\":2840:2933   */\n      tag_29\n      jump\t// in\n    tag_62:\n        /* \"#utility.yul\":2958:2959   */\n      0x06\n        /* \"#utility.yul\":2953:2956   */\n      dup3\n        /* \"#utility.yul\":2949:2960   */\n      add\n        /* \"#utility.yul\":2942:2960   */\n      swap1\n      pop\n        /* \"#utility.yul\":2566:2966   */\n      swap2\n      swap1\n      pop\n      jump\t// out\n        /* \"#utility.yul\":2972:3353   */\n    tag_13:\n        /* \"#utility.yul\":3157:3160   */\n      0x00\n        /* \"#utility.yul\":3179:3327   */\n      tag_64\n        /* \"#utility.yul\":3323:3326   */\n      dup3\n        /* \"#utility.yul\":3179:3327   */\n      tag_30\n      jump\t// in\n    tag_64:\n        /* \"#utility.yul\":3172:3327   */\n      swap2\n      pop\n        /* \"#utility.yul\":3344:3347   */\n      dup2\n        /* \"#utility.yul\":3337:3347   */\n      swap1\n      pop\n        /* \"#utility.yul\":2972:3353   */\n      swap2\n      swap1\n      pop\n      jump\t// out\n        /* \"#utility.yul\":3359:3438   */\n    tag_31:\n        /* \"#utility.yul\":3398:3405   */\n      0x00\n        /* \"#utility.yul\":3427:3432   */\n      dup2\n        /* \"#utility.yul\":3416:3432   */\n      swap1\n      pop\n        /* \"#utility.yul\":3359:3438   */\n      swap2\n      swap1\n      pop\n      jump\t// out\n        /* \"#utility.yul\":3444:3601   */\n    tag_32:\n        /* \"#utility.yul\":3549:3594   */\n      tag_67\n        /* \"#utility.yul\":3569:3593   */\n      tag_68\n        /* \"#utility.yul\":3587:3592   */\n      dup3\n        /* \"#utility.yul\":3569:3593   */\n      tag_20\n      jump\t// in\n    tag_68:\n        /* \"#utility.yul\":3549:3594   */\n      tag_31\n      jump\t// in\n    tag_67:\n        /* \"#utility.yul\":3544:3547   */\n      dup3\n        /* \"#utility.yul\":3537:3595   */\n      mstore\n        /* \"#utility.yul\":3444:3601   */\n      pop\n      pop\n      jump\t// out\n        /* \"#utility.yul\":3607:3863   */\n    tag_16:\n        /* \"#utility.yul\":3719:3722   */\n      0x00\n        /* \"#utility.yul\":3734:3809   */\n      tag_70\n        /* \"#utility.yul\":3805:3808   */\n      dup3\n        /* \"#utility.yul\":3796:3802   */\n      dup5\n        /* \"#utility.yul\":3734:3809   */\n      tag_32\n      jump\t// in\n    tag_70:\n        /* \"#utility.yul\":3834:3836   */\n      0x20\n        /* \"#utility.yul\":3829:3832   */\n      dup3\n        /* \"#utility.yul\":3825:3837   */\n      add\n        /* \"#utility.yul\":3818:3837   */\n      swap2\n      pop\n        /* \"#utility.yul\":3854:3857   */\n      dup2\n        /* \"#utility.yul\":3847:3857   */\n      swap1\n      pop\n        /* \"#utility.yul\":3607:3863   */\n      swap3\n      swap2\n      pop\n      pop\n      jump\t// out\n\n    auxdata: 0xa26469706673582212207d92588b8263878b6683794906bc7d2c62a9b00f01edb0ce304b3fd4ab27aa8064736f6c634300081a0033\n}\n",
				"bytecode": {
					"linkReferences": {},
					"object": "6080604052348015600e575f80fd5b5061027f8061001c5f395ff3fe608060405234801561000f575f80fd5b5060043610610029575f3560e01c80639507d39a1461002d575b5f80fd5b610047600480360381019061004291906100ec565b61005d565b6040516100549190610187565b60405180910390f35b6060600582111561008d57604051602001610077906101fb565b60405160208183030381529060405290506100b0565b8160405160200161009e919061022f565b60405160208183030381529060405290505b919050565b5f80fd5b5f819050919050565b6100cb816100b9565b81146100d5575f80fd5b50565b5f813590506100e6816100c2565b92915050565b5f60208284031215610101576101006100b5565b5b5f61010e848285016100d8565b91505092915050565b5f81519050919050565b5f82825260208201905092915050565b8281835e5f83830152505050565b5f601f19601f8301169050919050565b5f61015982610117565b6101638185610121565b9350610173818560208601610131565b61017c8161013f565b840191505092915050565b5f6020820190508181035f83015261019f818461014f565b905092915050565b5f81905092915050565b7f537472696e6700000000000000000000000000000000000000000000000000005f82015250565b5f6101e56006836101a7565b91506101f0826101b1565b600682019050919050565b5f610205826101d9565b9150819050919050565b5f819050919050565b610229610224826100b9565b61020f565b82525050565b5f61023a8284610218565b6020820191508190509291505056fea26469706673582212207d92588b8263878b6683794906bc7d2c62a9b00f01edb0ce304b3fd4ab27aa8064736f6c634300081a0033",
					"opcodes": "PUSH1 0x80 PUSH1 0x40 MSTORE CALLVALUE DUP1 ISZERO PUSH1 0xE JUMPI PUSH0 DUP1 REVERT JUMPDEST POP PUSH2 0x27F DUP1 PUSH2 0x1C PUSH0 CODECOPY PUSH0 RETURN INVALID PUSH1 0x80 PUSH1 0x40 MSTORE CALLVALUE DUP1 ISZERO PUSH2 0xF JUMPI PUSH0 DUP1 REVERT JUMPDEST POP PUSH1 0x4 CALLDATASIZE LT PUSH2 0x29 JUMPI PUSH0 CALLDATALOAD PUSH1 0xE0 SHR DUP1 PUSH4 0x9507D39A EQ PUSH2 0x2D JUMPI JUMPDEST PUSH0 DUP1 REVERT JUMPDEST PUSH2 0x47 PUSH1 0x4 DUP1 CALLDATASIZE SUB DUP2 ADD SWAP1 PUSH2 0x42 SWAP2 SWAP1 PUSH2 0xEC JUMP JUMPDEST PUSH2 0x5D JUMP JUMPDEST PUSH1 0x40 MLOAD PUSH2 0x54 SWAP2 SWAP1 PUSH2 0x187 JUMP JUMPDEST PUSH1 0x40 MLOAD DUP1 SWAP2 SUB SWAP1 RETURN JUMPDEST PUSH1 0x60 PUSH1 0x5 DUP3 GT ISZERO PUSH2 0x8D JUMPI PUSH1 0x40 MLOAD PUSH1 0x20 ADD PUSH2 0x77 SWAP1 PUSH2 0x1FB JUMP JUMPDEST PUSH1 0x40 MLOAD PUSH1 0x20 DUP2 DUP4 SUB SUB DUP2 MSTORE SWAP1 PUSH1 0x40 MSTORE SWAP1 POP PUSH2 0xB0 JUMP JUMPDEST DUP2 PUSH1 0x40 MLOAD PUSH1 0x20 ADD PUSH2 0x9E SWAP2 SWAP1 PUSH2 0x22F JUMP JUMPDEST PUSH1 0x40 MLOAD PUSH1 0x20 DUP2 DUP4 SUB SUB DUP2 MSTORE SWAP1 PUSH1 0x40 MSTORE SWAP1 POP JUMPDEST SWAP2 SWAP1 POP JUMP JUMPDEST PUSH0 DUP1 REVERT JUMPDEST PUSH0 DUP2 SWAP1 POP SWAP2 SWAP1 POP JUMP JUMPDEST PUSH2 0xCB DUP2 PUSH2 0xB9 JUMP JUMPDEST DUP2 EQ PUSH2 0xD5 JUMPI PUSH0 DUP1 REVERT JUMPDEST POP JUMP JUMPDEST PUSH0 DUP2 CALLDATALOAD SWAP1 POP PUSH2 0xE6 DUP2 PUSH2 0xC2 JUMP JUMPDEST SWAP3 SWAP2 POP POP JUMP JUMPDEST PUSH0 PUSH1 0x20 DUP3 DUP5 SUB SLT ISZERO PUSH2 0x101 JUMPI PUSH2 0x100 PUSH2 0xB5 JUMP JUMPDEST JUMPDEST PUSH0 PUSH2 0x10E DUP5 DUP3 DUP6 ADD PUSH2 0xD8 JUMP JUMPDEST SWAP2 POP POP SWAP3 SWAP2 POP POP JUMP JUMPDEST PUSH0 DUP2 MLOAD SWAP1 POP SWAP2 SWAP1 POP JUMP JUMPDEST PUSH0 DUP3 DUP3 MSTORE PUSH1 0x20 DUP3 ADD SWAP1 POP SWAP3 SWAP2 POP POP JUMP JUMPDEST DUP3 DUP2 DUP4 MCOPY PUSH0 DUP4 DUP4 ADD MSTORE POP POP POP JUMP JUMPDEST PUSH0 PUSH1 0x1F NOT PUSH1 0x1F DUP4 ADD AND SWAP1 POP SWAP2 SWAP1 POP JUMP JUMPDEST PUSH0 PUSH2 0x159 DUP3 PUSH2 0x117 JUMP JUMPDEST PUSH2 0x163 DUP2 DUP6 PUSH2 0x121 JUMP JUMPDEST SWAP4 POP PUSH2 0x173 DUP2 DUP6 PUSH1 0x20 DUP7 ADD PUSH2 0x131 JUMP JUMPDEST PUSH2 0x17C DUP2 PUSH2 0x13F JUMP JUMPDEST DUP5 ADD SWAP2 POP POP SWAP3 SWAP2 POP POP JUMP JUMPDEST PUSH0 PUSH1 0x20 DUP3 ADD SWAP1 POP DUP2 DUP2 SUB PUSH0 DUP4 ADD MSTORE PUSH2 0x19F DUP2 DUP5 PUSH2 0x14F JUMP JUMPDEST SWAP1 POP SWAP3 SWAP2 POP POP JUMP JUMPDEST PUSH0 DUP2 SWAP1 POP SWAP3 SWAP2 POP POP JUMP JUMPDEST PUSH32 0x537472696E670000000000000000000000000000000000000000000000000000 PUSH0 DUP3 ADD MSTORE POP JUMP JUMPDEST PUSH0 PUSH2 0x1E5 PUSH1 0x6 DUP4 PUSH2 0x1A7 JUMP JUMPDEST SWAP2 POP PUSH2 0x1F0 DUP3 PUSH2 0x1B1 JUMP JUMPDEST PUSH1 0x6 DUP3 ADD SWAP1 POP SWAP2 SWAP1 POP JUMP JUMPDEST PUSH0 PUSH2 0x205 DUP3 PUSH2 0x1D9 JUMP JUMPDEST SWAP2 POP DUP2 SWAP1 POP SWAP2 SWAP1 POP JUMP JUMPDEST PUSH0 DUP2 SWAP1 POP SWAP2 SWAP1 POP JUMP JUMPDEST PUSH2 0x229 PUSH2 0x224 DUP3 PUSH2 0xB9 JUMP JUMPDEST PUSH2 0x20F JUMP JUMPDEST DUP3 MSTORE POP POP JUMP JUMPDEST PUSH0 PUSH2 0x23A DUP3 DUP5 PUSH2 0x218 JUMP JUMPDEST PUSH1 0x20 DUP3 ADD SWAP2 POP DUP2 SWAP1 POP SWAP3 SWAP2 POP POP JUMP INVALID LOG2 PUSH5 0x6970667358 0x22 SLT KECCAK256 PUSH30 0x92588B8263878B6683794906BC7D2C62A9B00F01EDB0CE304B3FD4AB27AA DUP1 PUSH5 0x736F6C6343 STOP ADDMOD BYTE STOP CALLER "
				},
				"gasEstimates": {
					"creation": {
						"codeDepositCost": "127800",
						"executionCost": "169",
						"totalCost": "127969"
					},
					"external": {
						"get(uint256)": "infinite"
					}
				},
				"methodIdentifiers": {
					"get(uint256)": "9507d39a"
				}
			},
			"storageLayout": {
				"storage": [],
				"types": null
			},
			"userdoc": {
				"kind": "user",
				"methods": {},
				"version": 1
			}
		}
	}
}