{
	"Solidity100/sole100(41~50).sol": {
		"TOSTRING": {
			"abi": [
				{
					"inputs": [
						{
							"internalType": "uint256",
							"name": "_a",
							"type": "uint256"
						}
					],
					"name": "A",
					"outputs": [
						{
							"internalType": "string",
							"name": "",
							"type": "string"
						}
					],
					"stateMutability": "pure",
					"type": "function"
				},
				{
					"inputs": [
						{
							"internalType": "uint256[]",
							"name": "_num",
							"type": "uint256[]"
						}
					],
					"name": "FINAL",
					"outputs": [
						{
							"internalType": "string",
							"name": "",
							"type": "string"
						}
					],
					"stateMutability": "pure",
					"type": "function"
				},
				{
					"inputs": [
						{
							"internalType": "uint256",
							"name": "_num",
							"type": "uint256"
						}
					],
					"name": "getDigits",
					"outputs": [
						{
							"internalType": "uint256",
							"name": "",
							"type": "uint256"
						}
					],
					"stateMutability": "pure",
					"type": "function"
				},
				{
					"inputs": [
						{
							"internalType": "uint256[]",
							"name": "_numbers",
							"type": "uint256[]"
						}
					],
					"name": "getNumbers",
					"outputs": [
						{
							"internalType": "string",
							"name": "",
							"type": "string"
						}
					],
					"stateMutability": "pure",
					"type": "function"
				},
				{
					"inputs": [
						{
							"internalType": "uint8",
							"name": "_num",
							"type": "uint8"
						}
					],
					"name": "uintToBytes",
					"outputs": [
						{
							"internalType": "bytes1",
							"name": "",
							"type": "bytes1"
						}
					],
					"stateMutability": "pure",
					"type": "function"
				},
				{
					"inputs": [
						{
							"internalType": "uint256",
							"name": "_num",
							"type": "uint256"
						}
					],
					"name": "uintToString",
					"outputs": [
						{
							"internalType": "string",
							"name": "",
							"type": "string"
						}
					],
					"stateMutability": "pure",
					"type": "function"
				}
			],
			"devdoc": {
				"kind": "dev",
				"methods": {},
				"version": 1
			},
			"evm": {
				"assembly": "    /* \"Solidity100/sole100(41~50).sol\":5118:6592  contract TOSTRING {... */\n  mstore(0x40, 0x80)\n  callvalue\n  dup1\n  iszero\n  tag_1\n  jumpi\n  0x00\n  dup1\n  revert\ntag_1:\n  pop\n  dataSize(sub_0)\n  dup1\n  dataOffset(sub_0)\n  0x00\n  codecopy\n  0x00\n  return\nstop\n\nsub_0: assembly {\n        /* \"Solidity100/sole100(41~50).sol\":5118:6592  contract TOSTRING {... */\n      mstore(0x40, 0x80)\n      callvalue\n      dup1\n      iszero\n      tag_1\n      jumpi\n      0x00\n      dup1\n      revert\n    tag_1:\n      pop\n      jumpi(tag_2, lt(calldatasize, 0x04))\n      shr(0xe0, calldataload(0x00))\n      dup1\n      0x17ea2090\n      eq\n      tag_3\n      jumpi\n      dup1\n      0x589d6090\n      eq\n      tag_4\n      jumpi\n      dup1\n      0x82326726\n      eq\n      tag_5\n      jumpi\n      dup1\n      0xa17a9e66\n      eq\n      tag_6\n      jumpi\n      dup1\n      0xce8bb065\n      eq\n      tag_7\n      jumpi\n      dup1\n      0xe9395679\n      eq\n      tag_8\n      jumpi\n    tag_2:\n      0x00\n      dup1\n      revert\n        /* \"Solidity100/sole100(41~50).sol\":5280:5550  function getNumbers(uint[] memory _numbers) public pure returns(string memory) {... */\n    tag_3:\n      tag_9\n      0x04\n      dup1\n      calldatasize\n      sub\n      dup2\n      add\n      swap1\n      tag_10\n      swap2\n      swap1\n      tag_11\n      jump\t// in\n    tag_10:\n      tag_12\n      jump\t// in\n    tag_9:\n      mload(0x40)\n      tag_13\n      swap2\n      swap1\n      tag_14\n      jump\t// in\n    tag_13:\n      mload(0x40)\n      dup1\n      swap2\n      sub\n      swap1\n      return\n        /* \"Solidity100/sole100(41~50).sol\":5766:5865  function uintToBytes(uint8 _num) public pure returns(bytes1) {... */\n    tag_4:\n      tag_15\n      0x04\n      dup1\n      calldatasize\n      sub\n      dup2\n      add\n      swap1\n      tag_16\n      swap2\n      swap1\n      tag_17\n      jump\t// in\n    tag_16:\n      tag_18\n      jump\t// in\n    tag_15:\n      mload(0x40)\n      tag_19\n      swap2\n      swap1\n      tag_20\n      jump\t// in\n    tag_19:\n      mload(0x40)\n      dup1\n      swap2\n      sub\n      swap1\n      return\n        /* \"Solidity100/sole100(41~50).sol\":6293:6589  function FINAL(uint[] memory _num) public pure returns(string memory) {... */\n    tag_5:\n      tag_21\n      0x04\n      dup1\n      calldatasize\n      sub\n      dup2\n      add\n      swap1\n      tag_22\n      swap2\n      swap1\n      tag_11\n      jump\t// in\n    tag_22:\n      tag_23\n      jump\t// in\n    tag_21:\n      mload(0x40)\n      tag_24\n      swap2\n      swap1\n      tag_14\n      jump\t// in\n    tag_24:\n      mload(0x40)\n      dup1\n      swap2\n      sub\n      swap1\n      return\n        /* \"Solidity100/sole100(41~50).sol\":5143:5244  function A(uint _a) public pure returns(string memory) {... */\n    tag_6:\n      tag_25\n      0x04\n      dup1\n      calldatasize\n      sub\n      dup2\n      add\n      swap1\n      tag_26\n      swap2\n      swap1\n      tag_27\n      jump\t// in\n    tag_26:\n      tag_28\n      jump\t// in\n    tag_25:\n      mload(0x40)\n      tag_29\n      swap2\n      swap1\n      tag_14\n      jump\t// in\n    tag_29:\n      mload(0x40)\n      dup1\n      swap2\n      sub\n      swap1\n      return\n        /* \"Solidity100/sole100(41~50).sol\":5558:5758  function getDigits(uint _num) public pure returns(uint) {... */\n    tag_7:\n      tag_30\n      0x04\n      dup1\n      calldatasize\n      sub\n      dup2\n      add\n      swap1\n      tag_31\n      swap2\n      swap1\n      tag_27\n      jump\t// in\n    tag_31:\n      tag_32\n      jump\t// in\n    tag_30:\n      mload(0x40)\n      tag_33\n      swap2\n      swap1\n      tag_34\n      jump\t// in\n    tag_33:\n      mload(0x40)\n      dup1\n      swap2\n      sub\n      swap1\n      return\n        /* \"Solidity100/sole100(41~50).sol\":5873:6285  function uintToString(uint _num) public pure returns(string memory) {... */\n    tag_8:\n      tag_35\n      0x04\n      dup1\n      calldatasize\n      sub\n      dup2\n      add\n      swap1\n      tag_36\n      swap2\n      swap1\n      tag_27\n      jump\t// in\n    tag_36:\n      tag_37\n      jump\t// in\n    tag_35:\n      mload(0x40)\n      tag_38\n      swap2\n      swap1\n      tag_14\n      jump\t// in\n    tag_38:\n      mload(0x40)\n      dup1\n      swap2\n      sub\n      swap1\n      return\n        /* \"Solidity100/sole100(41~50).sol\":5280:5550  function getNumbers(uint[] memory _numbers) public pure returns(string memory) {... */\n    tag_12:\n        /* \"Solidity100/sole100(41~50).sol\":5344:5357  string memory */\n      0x60\n        /* \"Solidity100/sole100(41~50).sol\":5370:5388  string memory _res */\n      dup1\n        /* \"Solidity100/sole100(41~50).sol\":5403:5409  uint i */\n      0x00\n        /* \"Solidity100/sole100(41~50).sol\":5399:5521  for(uint i=0; i<_numbers.length; i++) {... */\n    tag_40:\n        /* \"Solidity100/sole100(41~50).sol\":5415:5423  _numbers */\n      dup4\n        /* \"Solidity100/sole100(41~50).sol\":5415:5430  _numbers.length */\n      mload\n        /* \"Solidity100/sole100(41~50).sol\":5413:5414  i */\n      dup2\n        /* \"Solidity100/sole100(41~50).sol\":5413:5430  i<_numbers.length */\n      lt\n        /* \"Solidity100/sole100(41~50).sol\":5399:5521  for(uint i=0; i<_numbers.length; i++) {... */\n      iszero\n      tag_41\n      jumpi\n        /* \"Solidity100/sole100(41~50).sol\":5473:5477  _res */\n      dup2\n        /* \"Solidity100/sole100(41~50).sol\":5479:5508  Strings.toString(_numbers[i]) */\n      tag_43\n        /* \"Solidity100/sole100(41~50).sol\":5496:5504  _numbers */\n      dup6\n        /* \"Solidity100/sole100(41~50).sol\":5505:5506  i */\n      dup4\n        /* \"Solidity100/sole100(41~50).sol\":5496:5507  _numbers[i] */\n      dup2\n      mload\n      dup2\n      lt\n      tag_44\n      jumpi\n      tag_45\n      tag_46\n      jump\t// in\n    tag_45:\n    tag_44:\n      0x20\n      mul\n      0x20\n      add\n      add\n      mload\n        /* \"Solidity100/sole100(41~50).sol\":5479:5495  Strings.toString */\n      tag_47\n        /* \"Solidity100/sole100(41~50).sol\":5479:5508  Strings.toString(_numbers[i]) */\n      jump\t// in\n    tag_43:\n        /* \"Solidity100/sole100(41~50).sol\":5459:5509  string.concat(_res, Strings.toString(_numbers[i])) */\n      add(0x20, mload(0x40))\n      tag_48\n      swap3\n      swap2\n      swap1\n      tag_49\n      jump\t// in\n    tag_48:\n      mload(0x40)\n      0x20\n      dup2\n      dup4\n      sub\n      sub\n      dup2\n      mstore\n      swap1\n      0x40\n      mstore\n        /* \"Solidity100/sole100(41~50).sol\":5452:5509  _res = string.concat(_res, Strings.toString(_numbers[i])) */\n      swap2\n      pop\n        /* \"Solidity100/sole100(41~50).sol\":5432:5435  i++ */\n      dup1\n      dup1\n      0x01\n      add\n      swap2\n      pop\n      pop\n        /* \"Solidity100/sole100(41~50).sol\":5399:5521  for(uint i=0; i<_numbers.length; i++) {... */\n      jump(tag_40)\n    tag_41:\n      pop\n        /* \"Solidity100/sole100(41~50).sol\":5538:5542  _res */\n      dup1\n        /* \"Solidity100/sole100(41~50).sol\":5531:5542  return _res */\n      swap2\n      pop\n      pop\n        /* \"Solidity100/sole100(41~50).sol\":5280:5550  function getNumbers(uint[] memory _numbers) public pure returns(string memory) {... */\n      swap2\n      swap1\n      pop\n      jump\t// out\n        /* \"Solidity100/sole100(41~50).sol\":5766:5865  function uintToBytes(uint8 _num) public pure returns(bytes1) {... */\n    tag_18:\n        /* \"Solidity100/sole100(41~50).sol\":5819:5825  bytes1 */\n      0x00\n        /* \"Solidity100/sole100(41~50).sol\":5852:5856  _num */\n      dup2\n        /* \"Solidity100/sole100(41~50).sol\":5845:5857  bytes1(_num) */\n      0xf8\n      shl\n        /* \"Solidity100/sole100(41~50).sol\":5838:5857  return bytes1(_num) */\n      swap1\n      pop\n        /* \"Solidity100/sole100(41~50).sol\":5766:5865  function uintToBytes(uint8 _num) public pure returns(bytes1) {... */\n      swap2\n      swap1\n      pop\n      jump\t// out\n        /* \"Solidity100/sole100(41~50).sol\":6293:6589  function FINAL(uint[] memory _num) public pure returns(string memory) {... */\n    tag_23:\n        /* \"Solidity100/sole100(41~50).sol\":6348:6361  string memory */\n      0x60\n        /* \"Solidity100/sole100(41~50).sol\":6374:6389  bytes memory _b */\n      0x00\n        /* \"Solidity100/sole100(41~50).sol\":6402:6406  _num */\n      dup3\n        /* \"Solidity100/sole100(41~50).sol\":6402:6413  _num.length */\n      mload\n        /* \"Solidity100/sole100(41~50).sol\":6392:6414  new bytes(_num.length) */\n      0xffffffffffffffff\n      dup2\n      gt\n      iszero\n      tag_52\n      jumpi\n      tag_53\n      tag_54\n      jump\t// in\n    tag_53:\n    tag_52:\n      mload(0x40)\n      swap1\n      dup1\n      dup3\n      mstore\n      dup1\n      0x1f\n      add\n      not(0x1f)\n      and\n      0x20\n      add\n      dup3\n      add\n      0x40\n      mstore\n      dup1\n      iszero\n      tag_55\n      jumpi\n      dup2\n      0x20\n      add\n      0x01\n      dup3\n      mul\n      dup1\n      calldatasize\n      dup4\n      calldatacopy\n      dup1\n      dup3\n      add\n      swap2\n      pop\n      pop\n      swap1\n      pop\n    tag_55:\n      pop\n        /* \"Solidity100/sole100(41~50).sol\":6374:6414  bytes memory _b = new bytes(_num.length) */\n      swap1\n      pop\n        /* \"Solidity100/sole100(41~50).sol\":6429:6435  uint i */\n      0x00\n        /* \"Solidity100/sole100(41~50).sol\":6425:6534  for(uint i=0; i<_num.length; i++) {... */\n    tag_56:\n        /* \"Solidity100/sole100(41~50).sol\":6441:6445  _num */\n      dup4\n        /* \"Solidity100/sole100(41~50).sol\":6441:6452  _num.length */\n      mload\n        /* \"Solidity100/sole100(41~50).sol\":6439:6440  i */\n      dup2\n        /* \"Solidity100/sole100(41~50).sol\":6439:6452  i<_num.length */\n      lt\n        /* \"Solidity100/sole100(41~50).sol\":6425:6534  for(uint i=0; i<_num.length; i++) {... */\n      iszero\n      tag_57\n      jumpi\n        /* \"Solidity100/sole100(41~50).sol\":6496:6498  _b */\n      dup2\n        /* \"Solidity100/sole100(41~50).sol\":6500:6521  uintToString(_num[i]) */\n      tag_59\n        /* \"Solidity100/sole100(41~50).sol\":6513:6517  _num */\n      dup6\n        /* \"Solidity100/sole100(41~50).sol\":6518:6519  i */\n      dup4\n        /* \"Solidity100/sole100(41~50).sol\":6513:6520  _num[i] */\n      dup2\n      mload\n      dup2\n      lt\n      tag_60\n      jumpi\n      tag_61\n      tag_46\n      jump\t// in\n    tag_61:\n    tag_60:\n      0x20\n      mul\n      0x20\n      add\n      add\n      mload\n        /* \"Solidity100/sole100(41~50).sol\":6500:6512  uintToString */\n      tag_37\n        /* \"Solidity100/sole100(41~50).sol\":6500:6521  uintToString(_num[i]) */\n      jump\t// in\n    tag_59:\n        /* \"Solidity100/sole100(41~50).sol\":6479:6522  abi.encodePacked(_b, uintToString(_num[i])) */\n      add(0x20, mload(0x40))\n      tag_62\n      swap3\n      swap2\n      swap1\n      tag_63\n      jump\t// in\n    tag_62:\n      mload(0x40)\n      0x20\n      dup2\n      dup4\n      sub\n      sub\n      dup2\n      mstore\n      swap1\n      0x40\n      mstore\n        /* \"Solidity100/sole100(41~50).sol\":6474:6522  _b = abi.encodePacked(_b, uintToString(_num[i])) */\n      swap2\n      pop\n        /* \"Solidity100/sole100(41~50).sol\":6454:6457  i++ */\n      dup1\n      dup1\n      0x01\n      add\n      swap2\n      pop\n      pop\n        /* \"Solidity100/sole100(41~50).sol\":6425:6534  for(uint i=0; i<_num.length; i++) {... */\n      jump(tag_56)\n    tag_57:\n      pop\n        /* \"Solidity100/sole100(41~50).sol\":6577:6579  _b */\n      dup1\n        /* \"Solidity100/sole100(41~50).sol\":6560:6580  abi.encodePacked(_b) */\n      add(0x20, mload(0x40))\n      tag_64\n      swap2\n      swap1\n      tag_65\n      jump\t// in\n    tag_64:\n      mload(0x40)\n      0x20\n      dup2\n      dup4\n      sub\n      sub\n      dup2\n      mstore\n      swap1\n      0x40\n      mstore\n        /* \"Solidity100/sole100(41~50).sol\":6546:6581  return string(abi.encodePacked(_b)) */\n      swap2\n      pop\n      pop\n        /* \"Solidity100/sole100(41~50).sol\":6293:6589  function FINAL(uint[] memory _num) public pure returns(string memory) {... */\n      swap2\n      swap1\n      pop\n      jump\t// out\n        /* \"Solidity100/sole100(41~50).sol\":5143:5244  function A(uint _a) public pure returns(string memory) {... */\n    tag_28:\n        /* \"Solidity100/sole100(41~50).sol\":5183:5196  string memory */\n      0x60\n        /* \"Solidity100/sole100(41~50).sol\":5216:5236  Strings.toString(_a) */\n      tag_67\n        /* \"Solidity100/sole100(41~50).sol\":5233:5235  _a */\n      dup3\n        /* \"Solidity100/sole100(41~50).sol\":5216:5232  Strings.toString */\n      tag_47\n        /* \"Solidity100/sole100(41~50).sol\":5216:5236  Strings.toString(_a) */\n      jump\t// in\n    tag_67:\n        /* \"Solidity100/sole100(41~50).sol\":5209:5236  return Strings.toString(_a) */\n      swap1\n      pop\n        /* \"Solidity100/sole100(41~50).sol\":5143:5244  function A(uint _a) public pure returns(string memory) {... */\n      swap2\n      swap1\n      pop\n      jump\t// out\n        /* \"Solidity100/sole100(41~50).sol\":5558:5758  function getDigits(uint _num) public pure returns(uint) {... */\n    tag_32:\n        /* \"Solidity100/sole100(41~50).sol\":5608:5612  uint */\n      0x00\n        /* \"Solidity100/sole100(41~50).sol\":5625:5633  uint idx */\n      dup1\n        /* \"Solidity100/sole100(41~50).sol\":5636:5637  1 */\n      0x01\n        /* \"Solidity100/sole100(41~50).sol\":5625:5637  uint idx = 1 */\n      swap1\n      pop\n        /* \"Solidity100/sole100(41~50).sol\":5648:5728  while(_num >= 10) {... */\n    tag_69:\n        /* \"Solidity100/sole100(41~50).sol\":5662:5664  10 */\n      0x0a\n        /* \"Solidity100/sole100(41~50).sol\":5654:5658  _num */\n      dup4\n        /* \"Solidity100/sole100(41~50).sol\":5654:5664  _num >= 10 */\n      lt\n        /* \"Solidity100/sole100(41~50).sol\":5648:5728  while(_num >= 10) {... */\n      tag_70\n      jumpi\n        /* \"Solidity100/sole100(41~50).sol\":5693:5695  10 */\n      0x0a\n        /* \"Solidity100/sole100(41~50).sol\":5688:5692  _num */\n      dup4\n        /* \"Solidity100/sole100(41~50).sol\":5688:5695  _num/10 */\n      tag_71\n      swap2\n      swap1\n      tag_72\n      jump\t// in\n    tag_71:\n        /* \"Solidity100/sole100(41~50).sol\":5681:5695  _num = _num/10 */\n      swap3\n      pop\n        /* \"Solidity100/sole100(41~50).sol\":5710:5716  idx ++ */\n      dup1\n      dup1\n      tag_73\n      swap1\n      tag_74\n      jump\t// in\n    tag_73:\n      swap2\n      pop\n      pop\n        /* \"Solidity100/sole100(41~50).sol\":5648:5728  while(_num >= 10) {... */\n      jump(tag_69)\n    tag_70:\n        /* \"Solidity100/sole100(41~50).sol\":5747:5750  idx */\n      dup1\n        /* \"Solidity100/sole100(41~50).sol\":5740:5750  return idx */\n      swap2\n      pop\n      pop\n        /* \"Solidity100/sole100(41~50).sol\":5558:5758  function getDigits(uint _num) public pure returns(uint) {... */\n      swap2\n      swap1\n      pop\n      jump\t// out\n        /* \"Solidity100/sole100(41~50).sol\":5873:6285  function uintToString(uint _num) public pure returns(string memory) {... */\n    tag_37:\n        /* \"Solidity100/sole100(41~50).sol\":5926:5939  string memory */\n      0x60\n        /* \"Solidity100/sole100(41~50).sol\":5963:5964  0 */\n      0x00\n        /* \"Solidity100/sole100(41~50).sol\":5955:5959  _num */\n      dup3\n        /* \"Solidity100/sole100(41~50).sol\":5955:5964  _num == 0 */\n      sub\n        /* \"Solidity100/sole100(41~50).sol\":5951:6284  if (_num == 0) {... */\n      tag_76\n      jumpi\n        /* \"Solidity100/sole100(41~50).sol\":5981:5991  return \"0\" */\n      mload(0x40)\n      dup1\n      0x40\n      add\n      0x40\n      mstore\n      dup1\n      0x01\n      dup2\n      mstore\n      0x20\n      add\n      0x3000000000000000000000000000000000000000000000000000000000000000\n      dup2\n      mstore\n      pop\n      swap1\n      pop\n      jump(tag_75)\n        /* \"Solidity100/sole100(41~50).sol\":5951:6284  if (_num == 0) {... */\n    tag_76:\n        /* \"Solidity100/sole100(41~50).sol\":6029:6040  uint digits */\n      0x00\n        /* \"Solidity100/sole100(41~50).sol\":6043:6058  getDigits(_num) */\n      tag_78\n        /* \"Solidity100/sole100(41~50).sol\":6053:6057  _num */\n      dup4\n        /* \"Solidity100/sole100(41~50).sol\":6043:6052  getDigits */\n      tag_32\n        /* \"Solidity100/sole100(41~50).sol\":6043:6058  getDigits(_num) */\n      jump\t// in\n    tag_78:\n        /* \"Solidity100/sole100(41~50).sol\":6029:6058  uint digits = getDigits(_num) */\n      swap1\n      pop\n        /* \"Solidity100/sole100(41~50).sol\":6069:6084  bytes memory _b */\n      0x00\n        /* \"Solidity100/sole100(41~50).sol\":6097:6103  digits */\n      dup2\n        /* \"Solidity100/sole100(41~50).sol\":6087:6104  new bytes(digits) */\n      0xffffffffffffffff\n      dup2\n      gt\n      iszero\n      tag_79\n      jumpi\n      tag_80\n      tag_54\n      jump\t// in\n    tag_80:\n    tag_79:\n      mload(0x40)\n      swap1\n      dup1\n      dup3\n      mstore\n      dup1\n      0x1f\n      add\n      not(0x1f)\n      and\n      0x20\n      add\n      dup3\n      add\n      0x40\n      mstore\n      dup1\n      iszero\n      tag_81\n      jumpi\n      dup2\n      0x20\n      add\n      0x01\n      dup3\n      mul\n      dup1\n      calldatasize\n      dup4\n      calldatacopy\n      dup1\n      dup3\n      add\n      swap2\n      pop\n      pop\n      swap1\n      pop\n    tag_81:\n      pop\n        /* \"Solidity100/sole100(41~50).sol\":6069:6104  bytes memory _b = new bytes(digits) */\n      swap1\n      pop\n        /* \"Solidity100/sole100(41~50).sol\":6117:6247  while(_num != 0) {... */\n    tag_82:\n        /* \"Solidity100/sole100(41~50).sol\":6131:6132  0 */\n      0x00\n        /* \"Solidity100/sole100(41~50).sol\":6123:6127  _num */\n      dup5\n        /* \"Solidity100/sole100(41~50).sol\":6123:6132  _num != 0 */\n      eq\n        /* \"Solidity100/sole100(41~50).sol\":6117:6247  while(_num != 0) {... */\n      tag_83\n      jumpi\n        /* \"Solidity100/sole100(41~50).sol\":6149:6157  digits-- */\n      dup2\n      dup1\n      tag_84\n      swap1\n      tag_85\n      jump\t// in\n    tag_84:\n      swap3\n      pop\n      pop\n        /* \"Solidity100/sole100(41~50).sol\":6206:6208  10 */\n      0x0a\n        /* \"Solidity100/sole100(41~50).sol\":6201:6205  _num */\n      dup5\n        /* \"Solidity100/sole100(41~50).sol\":6201:6208  _num%10 */\n      tag_86\n      swap2\n      swap1\n      tag_87\n      jump\t// in\n    tag_86:\n        /* \"Solidity100/sole100(41~50).sol\":6198:6200  48 */\n      0x30\n        /* \"Solidity100/sole100(41~50).sol\":6198:6208  48+_num%10 */\n      tag_88\n      swap2\n      swap1\n      tag_89\n      jump\t// in\n    tag_88:\n        /* \"Solidity100/sole100(41~50).sol\":6185:6210  bytes1(uint8(48+_num%10)) */\n      0xf8\n      shl\n        /* \"Solidity100/sole100(41~50).sol\":6172:6174  _b */\n      dup2\n        /* \"Solidity100/sole100(41~50).sol\":6175:6181  digits */\n      dup4\n        /* \"Solidity100/sole100(41~50).sol\":6172:6182  _b[digits] */\n      dup2\n      mload\n      dup2\n      lt\n      tag_90\n      jumpi\n      tag_91\n      tag_46\n      jump\t// in\n    tag_91:\n    tag_90:\n      0x20\n      add\n      add\n        /* \"Solidity100/sole100(41~50).sol\":6172:6210  _b[digits] = bytes1(uint8(48+_num%10)) */\n      swap1\n      not(0xffffffffffffffffffffffffffffffffffffffffffffffffffffffffffffff)\n      and\n      swap1\n      dup2\n      0x00\n      byte\n      swap1\n      mstore8\n      pop\n        /* \"Solidity100/sole100(41~50).sol\":6233:6235  10 */\n      0x0a\n        /* \"Solidity100/sole100(41~50).sol\":6225:6235  _num /= 10 */\n      dup5\n      tag_92\n      swap2\n      swap1\n      tag_72\n      jump\t// in\n    tag_92:\n      swap4\n      pop\n        /* \"Solidity100/sole100(41~50).sol\":6117:6247  while(_num != 0) {... */\n      jump(tag_82)\n    tag_83:\n        /* \"Solidity100/sole100(41~50).sol\":6273:6275  _b */\n      dup1\n        /* \"Solidity100/sole100(41~50).sol\":6259:6276  return string(_b) */\n      swap3\n      pop\n      pop\n      pop\n        /* \"Solidity100/sole100(41~50).sol\":5873:6285  function uintToString(uint _num) public pure returns(string memory) {... */\n    tag_75:\n      swap2\n      swap1\n      pop\n      jump\t// out\n        /* \"@openzeppelin/contracts/utils/Strings.sol\":637:1335  function toString(uint256 value) internal pure returns (string memory) {... */\n    tag_47:\n        /* \"@openzeppelin/contracts/utils/Strings.sol\":693:706  string memory */\n      0x60\n        /* \"@openzeppelin/contracts/utils/Strings.sol\":742:756  uint256 length */\n      0x00\n        /* \"@openzeppelin/contracts/utils/Strings.sol\":779:780  1 */\n      0x01\n        /* \"@openzeppelin/contracts/utils/Strings.sol\":759:776  Math.log10(value) */\n      tag_94\n        /* \"@openzeppelin/contracts/utils/Strings.sol\":770:775  value */\n      dup5\n        /* \"@openzeppelin/contracts/utils/Strings.sol\":759:769  Math.log10 */\n      tag_95\n        /* \"@openzeppelin/contracts/utils/Strings.sol\":759:776  Math.log10(value) */\n      jump\t// in\n    tag_94:\n        /* \"@openzeppelin/contracts/utils/Strings.sol\":759:780  Math.log10(value) + 1 */\n      add\n        /* \"@openzeppelin/contracts/utils/Strings.sol\":742:780  uint256 length = Math.log10(value) + 1 */\n      swap1\n      pop\n        /* \"@openzeppelin/contracts/utils/Strings.sol\":794:814  string memory buffer */\n      0x00\n        /* \"@openzeppelin/contracts/utils/Strings.sol\":828:834  length */\n      dup2\n        /* \"@openzeppelin/contracts/utils/Strings.sol\":817:835  new string(length) */\n      0xffffffffffffffff\n      dup2\n      gt\n      iszero\n      tag_96\n      jumpi\n      tag_97\n      tag_54\n      jump\t// in\n    tag_97:\n    tag_96:\n      mload(0x40)\n      swap1\n      dup1\n      dup3\n      mstore\n      dup1\n      0x1f\n      add\n      not(0x1f)\n      and\n      0x20\n      add\n      dup3\n      add\n      0x40\n      mstore\n      dup1\n      iszero\n      tag_98\n      jumpi\n      dup2\n      0x20\n      add\n      0x01\n      dup3\n      mul\n      dup1\n      calldatasize\n      dup4\n      calldatacopy\n      dup1\n      dup3\n      add\n      swap2\n      pop\n      pop\n      swap1\n      pop\n    tag_98:\n      pop\n        /* \"@openzeppelin/contracts/utils/Strings.sol\":794:835  string memory buffer = new string(length) */\n      swap1\n      pop\n        /* \"@openzeppelin/contracts/utils/Strings.sol\":849:860  uint256 ptr */\n      0x00\n        /* \"@openzeppelin/contracts/utils/Strings.sol\":975:981  length */\n      dup3\n        /* \"@openzeppelin/contracts/utils/Strings.sol\":971:973  32 */\n      0x20\n        /* \"@openzeppelin/contracts/utils/Strings.sol\":967:982  add(32, length) */\n      add\n        /* \"@openzeppelin/contracts/utils/Strings.sol\":959:965  buffer */\n      dup3\n        /* \"@openzeppelin/contracts/utils/Strings.sol\":955:983  add(buffer, add(32, length)) */\n      add\n        /* \"@openzeppelin/contracts/utils/Strings.sol\":948:983  ptr := add(buffer, add(32, length)) */\n      swap1\n      pop\n        /* \"@openzeppelin/contracts/utils/Strings.sol\":1010:1292  while (true) {... */\n    tag_99:\n        /* \"@openzeppelin/contracts/utils/Strings.sol\":1017:1021  true */\n      0x01\n        /* \"@openzeppelin/contracts/utils/Strings.sol\":1010:1292  while (true) {... */\n      iszero\n      tag_100\n      jumpi\n        /* \"@openzeppelin/contracts/utils/Strings.sol\":1041:1046  ptr-- */\n      dup1\n      dup1\n      0x01\n      swap1\n      sub\n      swap2\n      pop\n      pop\n        /* \"@openzeppelin/contracts/utils/Strings.sol\":1180:1190  HEX_DIGITS */\n      0x3031323334353637383961626364656600000000000000000000000000000000\n        /* \"@openzeppelin/contracts/utils/Strings.sol\":1175:1177  10 */\n      0x0a\n        /* \"@openzeppelin/contracts/utils/Strings.sol\":1168:1173  value */\n      dup7\n        /* \"@openzeppelin/contracts/utils/Strings.sol\":1164:1178  mod(value, 10) */\n      mod\n        /* \"@openzeppelin/contracts/utils/Strings.sol\":1159:1191  byte(mod(value, 10), HEX_DIGITS) */\n      byte\n        /* \"@openzeppelin/contracts/utils/Strings.sol\":1154:1157  ptr */\n      dup2\n        /* \"@openzeppelin/contracts/utils/Strings.sol\":1146:1192  mstore8(ptr, byte(mod(value, 10), HEX_DIGITS)) */\n      mstore8\n        /* \"@openzeppelin/contracts/utils/Strings.sol\":1236:1238  10 */\n      0x0a\n        /* \"@openzeppelin/contracts/utils/Strings.sol\":1227:1238  value /= 10 */\n      dup6\n      dup2\n      tag_101\n      jumpi\n      tag_102\n      tag_103\n      jump\t// in\n    tag_102:\n    tag_101:\n      div\n      swap5\n      pop\n        /* \"@openzeppelin/contracts/utils/Strings.sol\":1269:1270  0 */\n      0x00\n        /* \"@openzeppelin/contracts/utils/Strings.sol\":1260:1265  value */\n      dup6\n        /* \"@openzeppelin/contracts/utils/Strings.sol\":1260:1270  value == 0 */\n      sub\n        /* \"@openzeppelin/contracts/utils/Strings.sol\":1010:1292  while (true) {... */\n      tag_99\n        /* \"@openzeppelin/contracts/utils/Strings.sol\":1256:1277  if (value == 0) break */\n      jumpi\n        /* \"@openzeppelin/contracts/utils/Strings.sol\":1010:1292  while (true) {... */\n    tag_100:\n        /* \"@openzeppelin/contracts/utils/Strings.sol\":1312:1318  buffer */\n      dup2\n        /* \"@openzeppelin/contracts/utils/Strings.sol\":1305:1318  return buffer */\n      swap4\n      pop\n      pop\n      pop\n      pop\n        /* \"@openzeppelin/contracts/utils/Strings.sol\":637:1335  function toString(uint256 value) internal pure returns (string memory) {... */\n      swap2\n      swap1\n      pop\n      jump\t// out\n        /* \"@openzeppelin/contracts/utils/math/Math.sol\":12214:13130  function log10(uint256 value) internal pure returns (uint256) {... */\n    tag_95:\n        /* \"@openzeppelin/contracts/utils/math/Math.sol\":12267:12274  uint256 */\n      0x00\n        /* \"@openzeppelin/contracts/utils/math/Math.sol\":12286:12300  uint256 result */\n      dup1\n        /* \"@openzeppelin/contracts/utils/math/Math.sol\":12303:12304  0 */\n      0x00\n        /* \"@openzeppelin/contracts/utils/math/Math.sol\":12286:12304  uint256 result = 0 */\n      swap1\n      pop\n        /* \"@openzeppelin/contracts/utils/math/Math.sol\":12351:12359  10 ** 64 */\n      0x184f03e93ff9f4daa797ed6e38ed64bf6a1f010000000000000000\n        /* \"@openzeppelin/contracts/utils/math/Math.sol\":12342:12347  value */\n      dup4\n        /* \"@openzeppelin/contracts/utils/math/Math.sol\":12342:12359  value >= 10 ** 64 */\n      lt\n        /* \"@openzeppelin/contracts/utils/math/Math.sol\":12338:12441  if (value >= 10 ** 64) {... */\n      tag_106\n      jumpi\n        /* \"@openzeppelin/contracts/utils/math/Math.sol\":12388:12396  10 ** 64 */\n      0x184f03e93ff9f4daa797ed6e38ed64bf6a1f010000000000000000\n        /* \"@openzeppelin/contracts/utils/math/Math.sol\":12379:12396  value /= 10 ** 64 */\n      dup4\n      dup2\n      tag_107\n      jumpi\n      tag_108\n      tag_103\n      jump\t// in\n    tag_108:\n    tag_107:\n      div\n      swap3\n      pop\n        /* \"@openzeppelin/contracts/utils/math/Math.sol\":12424:12426  64 */\n      0x40\n        /* \"@openzeppelin/contracts/utils/math/Math.sol\":12414:12426  result += 64 */\n      dup2\n      add\n      swap1\n      pop\n        /* \"@openzeppelin/contracts/utils/math/Math.sol\":12338:12441  if (value >= 10 ** 64) {... */\n    tag_106:\n        /* \"@openzeppelin/contracts/utils/math/Math.sol\":12467:12475  10 ** 32 */\n      0x04ee2d6d415b85acef8100000000\n        /* \"@openzeppelin/contracts/utils/math/Math.sol\":12458:12463  value */\n      dup4\n        /* \"@openzeppelin/contracts/utils/math/Math.sol\":12458:12475  value >= 10 ** 32 */\n      lt\n        /* \"@openzeppelin/contracts/utils/math/Math.sol\":12454:12557  if (value >= 10 ** 32) {... */\n      tag_109\n      jumpi\n        /* \"@openzeppelin/contracts/utils/math/Math.sol\":12504:12512  10 ** 32 */\n      0x04ee2d6d415b85acef8100000000\n        /* \"@openzeppelin/contracts/utils/math/Math.sol\":12495:12512  value /= 10 ** 32 */\n      dup4\n      dup2\n      tag_110\n      jumpi\n      tag_111\n      tag_103\n      jump\t// in\n    tag_111:\n    tag_110:\n      div\n      swap3\n      pop\n        /* \"@openzeppelin/contracts/utils/math/Math.sol\":12540:12542  32 */\n      0x20\n        /* \"@openzeppelin/contracts/utils/math/Math.sol\":12530:12542  result += 32 */\n      dup2\n      add\n      swap1\n      pop\n        /* \"@openzeppelin/contracts/utils/math/Math.sol\":12454:12557  if (value >= 10 ** 32) {... */\n    tag_109:\n        /* \"@openzeppelin/contracts/utils/math/Math.sol\":12583:12591  10 ** 16 */\n      0x2386f26fc10000\n        /* \"@openzeppelin/contracts/utils/math/Math.sol\":12574:12579  value */\n      dup4\n        /* \"@openzeppelin/contracts/utils/math/Math.sol\":12574:12591  value >= 10 ** 16 */\n      lt\n        /* \"@openzeppelin/contracts/utils/math/Math.sol\":12570:12673  if (value >= 10 ** 16) {... */\n      tag_112\n      jumpi\n        /* \"@openzeppelin/contracts/utils/math/Math.sol\":12620:12628  10 ** 16 */\n      0x2386f26fc10000\n        /* \"@openzeppelin/contracts/utils/math/Math.sol\":12611:12628  value /= 10 ** 16 */\n      dup4\n      dup2\n      tag_113\n      jumpi\n      tag_114\n      tag_103\n      jump\t// in\n    tag_114:\n    tag_113:\n      div\n      swap3\n      pop\n        /* \"@openzeppelin/contracts/utils/math/Math.sol\":12656:12658  16 */\n      0x10\n        /* \"@openzeppelin/contracts/utils/math/Math.sol\":12646:12658  result += 16 */\n      dup2\n      add\n      swap1\n      pop\n        /* \"@openzeppelin/contracts/utils/math/Math.sol\":12570:12673  if (value >= 10 ** 16) {... */\n    tag_112:\n        /* \"@openzeppelin/contracts/utils/math/Math.sol\":12699:12706  10 ** 8 */\n      0x05f5e100\n        /* \"@openzeppelin/contracts/utils/math/Math.sol\":12690:12695  value */\n      dup4\n        /* \"@openzeppelin/contracts/utils/math/Math.sol\":12690:12706  value >= 10 ** 8 */\n      lt\n        /* \"@openzeppelin/contracts/utils/math/Math.sol\":12686:12786  if (value >= 10 ** 8) {... */\n      tag_115\n      jumpi\n        /* \"@openzeppelin/contracts/utils/math/Math.sol\":12735:12742  10 ** 8 */\n      0x05f5e100\n        /* \"@openzeppelin/contracts/utils/math/Math.sol\":12726:12742  value /= 10 ** 8 */\n      dup4\n      dup2\n      tag_116\n      jumpi\n      tag_117\n      tag_103\n      jump\t// in\n    tag_117:\n    tag_116:\n      div\n      swap3\n      pop\n        /* \"@openzeppelin/contracts/utils/math/Math.sol\":12770:12771  8 */\n      0x08\n        /* \"@openzeppelin/contracts/utils/math/Math.sol\":12760:12771  result += 8 */\n      dup2\n      add\n      swap1\n      pop\n        /* \"@openzeppelin/contracts/utils/math/Math.sol\":12686:12786  if (value >= 10 ** 8) {... */\n    tag_115:\n        /* \"@openzeppelin/contracts/utils/math/Math.sol\":12812:12819  10 ** 4 */\n      0x2710\n        /* \"@openzeppelin/contracts/utils/math/Math.sol\":12803:12808  value */\n      dup4\n        /* \"@openzeppelin/contracts/utils/math/Math.sol\":12803:12819  value >= 10 ** 4 */\n      lt\n        /* \"@openzeppelin/contracts/utils/math/Math.sol\":12799:12899  if (value >= 10 ** 4) {... */\n      tag_118\n      jumpi\n        /* \"@openzeppelin/contracts/utils/math/Math.sol\":12848:12855  10 ** 4 */\n      0x2710\n        /* \"@openzeppelin/contracts/utils/math/Math.sol\":12839:12855  value /= 10 ** 4 */\n      dup4\n      dup2\n      tag_119\n      jumpi\n      tag_120\n      tag_103\n      jump\t// in\n    tag_120:\n    tag_119:\n      div\n      swap3\n      pop\n        /* \"@openzeppelin/contracts/utils/math/Math.sol\":12883:12884  4 */\n      0x04\n        /* \"@openzeppelin/contracts/utils/math/Math.sol\":12873:12884  result += 4 */\n      dup2\n      add\n      swap1\n      pop\n        /* \"@openzeppelin/contracts/utils/math/Math.sol\":12799:12899  if (value >= 10 ** 4) {... */\n    tag_118:\n        /* \"@openzeppelin/contracts/utils/math/Math.sol\":12925:12932  10 ** 2 */\n      0x64\n        /* \"@openzeppelin/contracts/utils/math/Math.sol\":12916:12921  value */\n      dup4\n        /* \"@openzeppelin/contracts/utils/math/Math.sol\":12916:12932  value >= 10 ** 2 */\n      lt\n        /* \"@openzeppelin/contracts/utils/math/Math.sol\":12912:13012  if (value >= 10 ** 2) {... */\n      tag_121\n      jumpi\n        /* \"@openzeppelin/contracts/utils/math/Math.sol\":12961:12968  10 ** 2 */\n      0x64\n        /* \"@openzeppelin/contracts/utils/math/Math.sol\":12952:12968  value /= 10 ** 2 */\n      dup4\n      dup2\n      tag_122\n      jumpi\n      tag_123\n      tag_103\n      jump\t// in\n    tag_123:\n    tag_122:\n      div\n      swap3\n      pop\n        /* \"@openzeppelin/contracts/utils/math/Math.sol\":12996:12997  2 */\n      0x02\n        /* \"@openzeppelin/contracts/utils/math/Math.sol\":12986:12997  result += 2 */\n      dup2\n      add\n      swap1\n      pop\n        /* \"@openzeppelin/contracts/utils/math/Math.sol\":12912:13012  if (value >= 10 ** 2) {... */\n    tag_121:\n        /* \"@openzeppelin/contracts/utils/math/Math.sol\":13038:13045  10 ** 1 */\n      0x0a\n        /* \"@openzeppelin/contracts/utils/math/Math.sol\":13029:13034  value */\n      dup4\n        /* \"@openzeppelin/contracts/utils/math/Math.sol\":13029:13045  value >= 10 ** 1 */\n      lt\n        /* \"@openzeppelin/contracts/utils/math/Math.sol\":13025:13091  if (value >= 10 ** 1) {... */\n      tag_124\n      jumpi\n        /* \"@openzeppelin/contracts/utils/math/Math.sol\":13075:13076  1 */\n      0x01\n        /* \"@openzeppelin/contracts/utils/math/Math.sol\":13065:13076  result += 1 */\n      dup2\n      add\n      swap1\n      pop\n        /* \"@openzeppelin/contracts/utils/math/Math.sol\":13025:13091  if (value >= 10 ** 1) {... */\n    tag_124:\n        /* \"@openzeppelin/contracts/utils/math/Math.sol\":13117:13123  result */\n      dup1\n        /* \"@openzeppelin/contracts/utils/math/Math.sol\":13110:13123  return result */\n      swap2\n      pop\n      pop\n        /* \"@openzeppelin/contracts/utils/math/Math.sol\":12214:13130  function log10(uint256 value) internal pure returns (uint256) {... */\n      swap2\n      swap1\n      pop\n      jump\t// out\n        /* \"#utility.yul\":7:82   */\n    tag_125:\n        /* \"#utility.yul\":40:46   */\n      0x00\n        /* \"#utility.yul\":73:75   */\n      0x40\n        /* \"#utility.yul\":67:76   */\n      mload\n        /* \"#utility.yul\":57:76   */\n      swap1\n      pop\n        /* \"#utility.yul\":7:82   */\n      swap1\n      jump\t// out\n        /* \"#utility.yul\":88:205   */\n    tag_126:\n        /* \"#utility.yul\":197:198   */\n      0x00\n        /* \"#utility.yul\":194:195   */\n      dup1\n        /* \"#utility.yul\":187:199   */\n      revert\n        /* \"#utility.yul\":211:328   */\n    tag_127:\n        /* \"#utility.yul\":320:321   */\n      0x00\n        /* \"#utility.yul\":317:318   */\n      dup1\n        /* \"#utility.yul\":310:322   */\n      revert\n        /* \"#utility.yul\":334:451   */\n    tag_128:\n        /* \"#utility.yul\":443:444   */\n      0x00\n        /* \"#utility.yul\":440:441   */\n      dup1\n        /* \"#utility.yul\":433:445   */\n      revert\n        /* \"#utility.yul\":457:559   */\n    tag_129:\n        /* \"#utility.yul\":498:504   */\n      0x00\n        /* \"#utility.yul\":549:551   */\n      0x1f\n        /* \"#utility.yul\":545:552   */\n      not\n        /* \"#utility.yul\":540:542   */\n      0x1f\n        /* \"#utility.yul\":533:538   */\n      dup4\n        /* \"#utility.yul\":529:543   */\n      add\n        /* \"#utility.yul\":525:553   */\n      and\n        /* \"#utility.yul\":515:553   */\n      swap1\n      pop\n        /* \"#utility.yul\":457:559   */\n      swap2\n      swap1\n      pop\n      jump\t// out\n        /* \"#utility.yul\":565:745   */\n    tag_54:\n        /* \"#utility.yul\":613:690   */\n      0x4e487b7100000000000000000000000000000000000000000000000000000000\n        /* \"#utility.yul\":610:611   */\n      0x00\n        /* \"#utility.yul\":603:691   */\n      mstore\n        /* \"#utility.yul\":710:714   */\n      0x41\n        /* \"#utility.yul\":707:708   */\n      0x04\n        /* \"#utility.yul\":700:715   */\n      mstore\n        /* \"#utility.yul\":734:738   */\n      0x24\n        /* \"#utility.yul\":731:732   */\n      0x00\n        /* \"#utility.yul\":724:739   */\n      revert\n        /* \"#utility.yul\":751:1032   */\n    tag_130:\n        /* \"#utility.yul\":834:861   */\n      tag_163\n        /* \"#utility.yul\":856:860   */\n      dup3\n        /* \"#utility.yul\":834:861   */\n      tag_129\n      jump\t// in\n    tag_163:\n        /* \"#utility.yul\":826:832   */\n      dup2\n        /* \"#utility.yul\":822:862   */\n      add\n        /* \"#utility.yul\":964:970   */\n      dup2\n        /* \"#utility.yul\":952:962   */\n      dup2\n        /* \"#utility.yul\":949:971   */\n      lt\n        /* \"#utility.yul\":928:946   */\n      0xffffffffffffffff\n        /* \"#utility.yul\":916:926   */\n      dup3\n        /* \"#utility.yul\":913:947   */\n      gt\n        /* \"#utility.yul\":910:972   */\n      or\n        /* \"#utility.yul\":907:995   */\n      iszero\n      tag_164\n      jumpi\n        /* \"#utility.yul\":975:993   */\n      tag_165\n      tag_54\n      jump\t// in\n    tag_165:\n        /* \"#utility.yul\":907:995   */\n    tag_164:\n        /* \"#utility.yul\":1015:1025   */\n      dup1\n        /* \"#utility.yul\":1011:1013   */\n      0x40\n        /* \"#utility.yul\":1004:1026   */\n      mstore\n        /* \"#utility.yul\":794:1032   */\n      pop\n        /* \"#utility.yul\":751:1032   */\n      pop\n      pop\n      jump\t// out\n        /* \"#utility.yul\":1038:1167   */\n    tag_131:\n        /* \"#utility.yul\":1072:1078   */\n      0x00\n        /* \"#utility.yul\":1099:1119   */\n      tag_167\n      tag_125\n      jump\t// in\n    tag_167:\n        /* \"#utility.yul\":1089:1119   */\n      swap1\n      pop\n        /* \"#utility.yul\":1128:1161   */\n      tag_168\n        /* \"#utility.yul\":1156:1160   */\n      dup3\n        /* \"#utility.yul\":1148:1154   */\n      dup3\n        /* \"#utility.yul\":1128:1161   */\n      tag_130\n      jump\t// in\n    tag_168:\n        /* \"#utility.yul\":1038:1167   */\n      swap2\n      swap1\n      pop\n      jump\t// out\n        /* \"#utility.yul\":1173:1484   */\n    tag_132:\n        /* \"#utility.yul\":1250:1254   */\n      0x00\n        /* \"#utility.yul\":1340:1358   */\n      0xffffffffffffffff\n        /* \"#utility.yul\":1332:1338   */\n      dup3\n        /* \"#utility.yul\":1329:1359   */\n      gt\n        /* \"#utility.yul\":1326:1382   */\n      iszero\n      tag_170\n      jumpi\n        /* \"#utility.yul\":1362:1380   */\n      tag_171\n      tag_54\n      jump\t// in\n    tag_171:\n        /* \"#utility.yul\":1326:1382   */\n    tag_170:\n        /* \"#utility.yul\":1412:1416   */\n      0x20\n        /* \"#utility.yul\":1404:1410   */\n      dup3\n        /* \"#utility.yul\":1400:1417   */\n      mul\n        /* \"#utility.yul\":1392:1417   */\n      swap1\n      pop\n        /* \"#utility.yul\":1472:1476   */\n      0x20\n        /* \"#utility.yul\":1466:1470   */\n      dup2\n        /* \"#utility.yul\":1462:1477   */\n      add\n        /* \"#utility.yul\":1454:1477   */\n      swap1\n      pop\n        /* \"#utility.yul\":1173:1484   */\n      swap2\n      swap1\n      pop\n      jump\t// out\n        /* \"#utility.yul\":1490:1607   */\n    tag_133:\n        /* \"#utility.yul\":1599:1600   */\n      0x00\n        /* \"#utility.yul\":1596:1597   */\n      dup1\n        /* \"#utility.yul\":1589:1601   */\n      revert\n        /* \"#utility.yul\":1613:1690   */\n    tag_134:\n        /* \"#utility.yul\":1650:1657   */\n      0x00\n        /* \"#utility.yul\":1679:1684   */\n      dup2\n        /* \"#utility.yul\":1668:1684   */\n      swap1\n      pop\n        /* \"#utility.yul\":1613:1690   */\n      swap2\n      swap1\n      pop\n      jump\t// out\n        /* \"#utility.yul\":1696:1818   */\n    tag_135:\n        /* \"#utility.yul\":1769:1793   */\n      tag_175\n        /* \"#utility.yul\":1787:1792   */\n      dup2\n        /* \"#utility.yul\":1769:1793   */\n      tag_134\n      jump\t// in\n    tag_175:\n        /* \"#utility.yul\":1762:1767   */\n      dup2\n        /* \"#utility.yul\":1759:1794   */\n      eq\n        /* \"#utility.yul\":1749:1812   */\n      tag_176\n      jumpi\n        /* \"#utility.yul\":1808:1809   */\n      0x00\n        /* \"#utility.yul\":1805:1806   */\n      dup1\n        /* \"#utility.yul\":1798:1810   */\n      revert\n        /* \"#utility.yul\":1749:1812   */\n    tag_176:\n        /* \"#utility.yul\":1696:1818   */\n      pop\n      jump\t// out\n        /* \"#utility.yul\":1824:1963   */\n    tag_136:\n        /* \"#utility.yul\":1870:1875   */\n      0x00\n        /* \"#utility.yul\":1908:1914   */\n      dup2\n        /* \"#utility.yul\":1895:1915   */\n      calldataload\n        /* \"#utility.yul\":1886:1915   */\n      swap1\n      pop\n        /* \"#utility.yul\":1924:1957   */\n      tag_178\n        /* \"#utility.yul\":1951:1956   */\n      dup2\n        /* \"#utility.yul\":1924:1957   */\n      tag_135\n      jump\t// in\n    tag_178:\n        /* \"#utility.yul\":1824:1963   */\n      swap3\n      swap2\n      pop\n      pop\n      jump\t// out\n        /* \"#utility.yul\":1986:2696   */\n    tag_137:\n        /* \"#utility.yul\":2082:2087   */\n      0x00\n        /* \"#utility.yul\":2107:2188   */\n      tag_180\n        /* \"#utility.yul\":2123:2187   */\n      tag_181\n        /* \"#utility.yul\":2180:2186   */\n      dup5\n        /* \"#utility.yul\":2123:2187   */\n      tag_132\n      jump\t// in\n    tag_181:\n        /* \"#utility.yul\":2107:2188   */\n      tag_131\n      jump\t// in\n    tag_180:\n        /* \"#utility.yul\":2098:2188   */\n      swap1\n      pop\n        /* \"#utility.yul\":2208:2213   */\n      dup1\n        /* \"#utility.yul\":2237:2243   */\n      dup4\n        /* \"#utility.yul\":2230:2235   */\n      dup3\n        /* \"#utility.yul\":2223:2244   */\n      mstore\n        /* \"#utility.yul\":2271:2275   */\n      0x20\n        /* \"#utility.yul\":2264:2269   */\n      dup3\n        /* \"#utility.yul\":2260:2276   */\n      add\n        /* \"#utility.yul\":2253:2276   */\n      swap1\n      pop\n        /* \"#utility.yul\":2324:2328   */\n      0x20\n        /* \"#utility.yul\":2316:2322   */\n      dup5\n        /* \"#utility.yul\":2312:2329   */\n      mul\n        /* \"#utility.yul\":2304:2310   */\n      dup4\n        /* \"#utility.yul\":2300:2330   */\n      add\n        /* \"#utility.yul\":2353:2356   */\n      dup6\n        /* \"#utility.yul\":2345:2351   */\n      dup2\n        /* \"#utility.yul\":2342:2357   */\n      gt\n        /* \"#utility.yul\":2339:2461   */\n      iszero\n      tag_182\n      jumpi\n        /* \"#utility.yul\":2372:2451   */\n      tag_183\n      tag_133\n      jump\t// in\n    tag_183:\n        /* \"#utility.yul\":2339:2461   */\n    tag_182:\n        /* \"#utility.yul\":2487:2493   */\n      dup4\n        /* \"#utility.yul\":2470:2690   */\n    tag_184:\n        /* \"#utility.yul\":2504:2510   */\n      dup2\n        /* \"#utility.yul\":2499:2502   */\n      dup2\n        /* \"#utility.yul\":2496:2511   */\n      lt\n        /* \"#utility.yul\":2470:2690   */\n      iszero\n      tag_186\n      jumpi\n        /* \"#utility.yul\":2579:2582   */\n      dup1\n        /* \"#utility.yul\":2608:2645   */\n      tag_187\n        /* \"#utility.yul\":2641:2644   */\n      dup9\n        /* \"#utility.yul\":2629:2639   */\n      dup3\n        /* \"#utility.yul\":2608:2645   */\n      tag_136\n      jump\t// in\n    tag_187:\n        /* \"#utility.yul\":2603:2606   */\n      dup5\n        /* \"#utility.yul\":2596:2646   */\n      mstore\n        /* \"#utility.yul\":2675:2679   */\n      0x20\n        /* \"#utility.yul\":2670:2673   */\n      dup5\n        /* \"#utility.yul\":2666:2680   */\n      add\n        /* \"#utility.yul\":2659:2680   */\n      swap4\n      pop\n        /* \"#utility.yul\":2546:2690   */\n      pop\n        /* \"#utility.yul\":2530:2534   */\n      0x20\n        /* \"#utility.yul\":2525:2528   */\n      dup2\n        /* \"#utility.yul\":2521:2535   */\n      add\n        /* \"#utility.yul\":2514:2535   */\n      swap1\n      pop\n        /* \"#utility.yul\":2470:2690   */\n      jump(tag_184)\n    tag_186:\n        /* \"#utility.yul\":2474:2495   */\n      pop\n        /* \"#utility.yul\":2088:2696   */\n      pop\n      pop\n        /* \"#utility.yul\":1986:2696   */\n      swap4\n      swap3\n      pop\n      pop\n      pop\n      jump\t// out\n        /* \"#utility.yul\":2719:3089   */\n    tag_138:\n        /* \"#utility.yul\":2790:2795   */\n      0x00\n        /* \"#utility.yul\":2839:2842   */\n      dup3\n        /* \"#utility.yul\":2832:2836   */\n      0x1f\n        /* \"#utility.yul\":2824:2830   */\n      dup4\n        /* \"#utility.yul\":2820:2837   */\n      add\n        /* \"#utility.yul\":2816:2843   */\n      slt\n        /* \"#utility.yul\":2806:2928   */\n      tag_189\n      jumpi\n        /* \"#utility.yul\":2847:2926   */\n      tag_190\n      tag_128\n      jump\t// in\n    tag_190:\n        /* \"#utility.yul\":2806:2928   */\n    tag_189:\n        /* \"#utility.yul\":2964:2970   */\n      dup2\n        /* \"#utility.yul\":2951:2971   */\n      calldataload\n        /* \"#utility.yul\":2989:3083   */\n      tag_191\n        /* \"#utility.yul\":3079:3082   */\n      dup5\n        /* \"#utility.yul\":3071:3077   */\n      dup3\n        /* \"#utility.yul\":3064:3068   */\n      0x20\n        /* \"#utility.yul\":3056:3062   */\n      dup7\n        /* \"#utility.yul\":3052:3069   */\n      add\n        /* \"#utility.yul\":2989:3083   */\n      tag_137\n      jump\t// in\n    tag_191:\n        /* \"#utility.yul\":2980:3083   */\n      swap2\n      pop\n        /* \"#utility.yul\":2796:3089   */\n      pop\n        /* \"#utility.yul\":2719:3089   */\n      swap3\n      swap2\n      pop\n      pop\n      jump\t// out\n        /* \"#utility.yul\":3095:3634   */\n    tag_11:\n        /* \"#utility.yul\":3179:3185   */\n      0x00\n        /* \"#utility.yul\":3228:3230   */\n      0x20\n        /* \"#utility.yul\":3216:3225   */\n      dup3\n        /* \"#utility.yul\":3207:3214   */\n      dup5\n        /* \"#utility.yul\":3203:3226   */\n      sub\n        /* \"#utility.yul\":3199:3231   */\n      slt\n        /* \"#utility.yul\":3196:3315   */\n      iszero\n      tag_193\n      jumpi\n        /* \"#utility.yul\":3234:3313   */\n      tag_194\n      tag_126\n      jump\t// in\n    tag_194:\n        /* \"#utility.yul\":3196:3315   */\n    tag_193:\n        /* \"#utility.yul\":3382:3383   */\n      0x00\n        /* \"#utility.yul\":3371:3380   */\n      dup3\n        /* \"#utility.yul\":3367:3384   */\n      add\n        /* \"#utility.yul\":3354:3385   */\n      calldataload\n        /* \"#utility.yul\":3412:3430   */\n      0xffffffffffffffff\n        /* \"#utility.yul\":3404:3410   */\n      dup2\n        /* \"#utility.yul\":3401:3431   */\n      gt\n        /* \"#utility.yul\":3398:3515   */\n      iszero\n      tag_195\n      jumpi\n        /* \"#utility.yul\":3434:3513   */\n      tag_196\n      tag_127\n      jump\t// in\n    tag_196:\n        /* \"#utility.yul\":3398:3515   */\n    tag_195:\n        /* \"#utility.yul\":3539:3617   */\n      tag_197\n        /* \"#utility.yul\":3609:3616   */\n      dup5\n        /* \"#utility.yul\":3600:3606   */\n      dup3\n        /* \"#utility.yul\":3589:3598   */\n      dup6\n        /* \"#utility.yul\":3585:3607   */\n      add\n        /* \"#utility.yul\":3539:3617   */\n      tag_138\n      jump\t// in\n    tag_197:\n        /* \"#utility.yul\":3529:3617   */\n      swap2\n      pop\n        /* \"#utility.yul\":3325:3627   */\n      pop\n        /* \"#utility.yul\":3095:3634   */\n      swap3\n      swap2\n      pop\n      pop\n      jump\t// out\n        /* \"#utility.yul\":3640:3739   */\n    tag_139:\n        /* \"#utility.yul\":3692:3698   */\n      0x00\n        /* \"#utility.yul\":3726:3731   */\n      dup2\n        /* \"#utility.yul\":3720:3732   */\n      mload\n        /* \"#utility.yul\":3710:3732   */\n      swap1\n      pop\n        /* \"#utility.yul\":3640:3739   */\n      swap2\n      swap1\n      pop\n      jump\t// out\n        /* \"#utility.yul\":3745:3914   */\n    tag_140:\n        /* \"#utility.yul\":3829:3840   */\n      0x00\n        /* \"#utility.yul\":3863:3869   */\n      dup3\n        /* \"#utility.yul\":3858:3861   */\n      dup3\n        /* \"#utility.yul\":3851:3870   */\n      mstore\n        /* \"#utility.yul\":3903:3907   */\n      0x20\n        /* \"#utility.yul\":3898:3901   */\n      dup3\n        /* \"#utility.yul\":3894:3908   */\n      add\n        /* \"#utility.yul\":3879:3908   */\n      swap1\n      pop\n        /* \"#utility.yul\":3745:3914   */\n      swap3\n      swap2\n      pop\n      pop\n      jump\t// out\n        /* \"#utility.yul\":3920:4059   */\n    tag_141:\n        /* \"#utility.yul\":4009:4015   */\n      dup3\n        /* \"#utility.yul\":4004:4007   */\n      dup2\n        /* \"#utility.yul\":3999:4002   */\n      dup4\n        /* \"#utility.yul\":3993:4016   */\n      mcopy\n        /* \"#utility.yul\":4050:4051   */\n      0x00\n        /* \"#utility.yul\":4041:4047   */\n      dup4\n        /* \"#utility.yul\":4036:4039   */\n      dup4\n        /* \"#utility.yul\":4032:4048   */\n      add\n        /* \"#utility.yul\":4025:4052   */\n      mstore\n        /* \"#utility.yul\":3920:4059   */\n      pop\n      pop\n      pop\n      jump\t// out\n        /* \"#utility.yul\":4065:4442   */\n    tag_142:\n        /* \"#utility.yul\":4153:4156   */\n      0x00\n        /* \"#utility.yul\":4181:4220   */\n      tag_202\n        /* \"#utility.yul\":4214:4219   */\n      dup3\n        /* \"#utility.yul\":4181:4220   */\n      tag_139\n      jump\t// in\n    tag_202:\n        /* \"#utility.yul\":4236:4307   */\n      tag_203\n        /* \"#utility.yul\":4300:4306   */\n      dup2\n        /* \"#utility.yul\":4295:4298   */\n      dup6\n        /* \"#utility.yul\":4236:4307   */\n      tag_140\n      jump\t// in\n    tag_203:\n        /* \"#utility.yul\":4229:4307   */\n      swap4\n      pop\n        /* \"#utility.yul\":4316:4381   */\n      tag_204\n        /* \"#utility.yul\":4374:4380   */\n      dup2\n        /* \"#utility.yul\":4369:4372   */\n      dup6\n        /* \"#utility.yul\":4362:4366   */\n      0x20\n        /* \"#utility.yul\":4355:4360   */\n      dup7\n        /* \"#utility.yul\":4351:4367   */\n      add\n        /* \"#utility.yul\":4316:4381   */\n      tag_141\n      jump\t// in\n    tag_204:\n        /* \"#utility.yul\":4406:4435   */\n      tag_205\n        /* \"#utility.yul\":4428:4434   */\n      dup2\n        /* \"#utility.yul\":4406:4435   */\n      tag_129\n      jump\t// in\n    tag_205:\n        /* \"#utility.yul\":4401:4404   */\n      dup5\n        /* \"#utility.yul\":4397:4436   */\n      add\n        /* \"#utility.yul\":4390:4436   */\n      swap2\n      pop\n        /* \"#utility.yul\":4157:4442   */\n      pop\n        /* \"#utility.yul\":4065:4442   */\n      swap3\n      swap2\n      pop\n      pop\n      jump\t// out\n        /* \"#utility.yul\":4448:4761   */\n    tag_14:\n        /* \"#utility.yul\":4561:4565   */\n      0x00\n        /* \"#utility.yul\":4599:4601   */\n      0x20\n        /* \"#utility.yul\":4588:4597   */\n      dup3\n        /* \"#utility.yul\":4584:4602   */\n      add\n        /* \"#utility.yul\":4576:4602   */\n      swap1\n      pop\n        /* \"#utility.yul\":4648:4657   */\n      dup2\n        /* \"#utility.yul\":4642:4646   */\n      dup2\n        /* \"#utility.yul\":4638:4658   */\n      sub\n        /* \"#utility.yul\":4634:4635   */\n      0x00\n        /* \"#utility.yul\":4623:4632   */\n      dup4\n        /* \"#utility.yul\":4619:4636   */\n      add\n        /* \"#utility.yul\":4612:4659   */\n      mstore\n        /* \"#utility.yul\":4676:4754   */\n      tag_207\n        /* \"#utility.yul\":4749:4753   */\n      dup2\n        /* \"#utility.yul\":4740:4746   */\n      dup5\n        /* \"#utility.yul\":4676:4754   */\n      tag_142\n      jump\t// in\n    tag_207:\n        /* \"#utility.yul\":4668:4754   */\n      swap1\n      pop\n        /* \"#utility.yul\":4448:4761   */\n      swap3\n      swap2\n      pop\n      pop\n      jump\t// out\n        /* \"#utility.yul\":4767:4853   */\n    tag_143:\n        /* \"#utility.yul\":4802:4809   */\n      0x00\n        /* \"#utility.yul\":4842:4846   */\n      0xff\n        /* \"#utility.yul\":4835:4840   */\n      dup3\n        /* \"#utility.yul\":4831:4847   */\n      and\n        /* \"#utility.yul\":4820:4847   */\n      swap1\n      pop\n        /* \"#utility.yul\":4767:4853   */\n      swap2\n      swap1\n      pop\n      jump\t// out\n        /* \"#utility.yul\":4859:4977   */\n    tag_144:\n        /* \"#utility.yul\":4930:4952   */\n      tag_210\n        /* \"#utility.yul\":4946:4951   */\n      dup2\n        /* \"#utility.yul\":4930:4952   */\n      tag_143\n      jump\t// in\n    tag_210:\n        /* \"#utility.yul\":4923:4928   */\n      dup2\n        /* \"#utility.yul\":4920:4953   */\n      eq\n        /* \"#utility.yul\":4910:4971   */\n      tag_211\n      jumpi\n        /* \"#utility.yul\":4967:4968   */\n      0x00\n        /* \"#utility.yul\":4964:4965   */\n      dup1\n        /* \"#utility.yul\":4957:4969   */\n      revert\n        /* \"#utility.yul\":4910:4971   */\n    tag_211:\n        /* \"#utility.yul\":4859:4977   */\n      pop\n      jump\t// out\n        /* \"#utility.yul\":4983:5118   */\n    tag_145:\n        /* \"#utility.yul\":5027:5032   */\n      0x00\n        /* \"#utility.yul\":5065:5071   */\n      dup2\n        /* \"#utility.yul\":5052:5072   */\n      calldataload\n        /* \"#utility.yul\":5043:5072   */\n      swap1\n      pop\n        /* \"#utility.yul\":5081:5112   */\n      tag_213\n        /* \"#utility.yul\":5106:5111   */\n      dup2\n        /* \"#utility.yul\":5081:5112   */\n      tag_144\n      jump\t// in\n    tag_213:\n        /* \"#utility.yul\":4983:5118   */\n      swap3\n      swap2\n      pop\n      pop\n      jump\t// out\n        /* \"#utility.yul\":5124:5449   */\n    tag_17:\n        /* \"#utility.yul\":5181:5187   */\n      0x00\n        /* \"#utility.yul\":5230:5232   */\n      0x20\n        /* \"#utility.yul\":5218:5227   */\n      dup3\n        /* \"#utility.yul\":5209:5216   */\n      dup5\n        /* \"#utility.yul\":5205:5228   */\n      sub\n        /* \"#utility.yul\":5201:5233   */\n      slt\n        /* \"#utility.yul\":5198:5317   */\n      iszero\n      tag_215\n      jumpi\n        /* \"#utility.yul\":5236:5315   */\n      tag_216\n      tag_126\n      jump\t// in\n    tag_216:\n        /* \"#utility.yul\":5198:5317   */\n    tag_215:\n        /* \"#utility.yul\":5356:5357   */\n      0x00\n        /* \"#utility.yul\":5381:5432   */\n      tag_217\n        /* \"#utility.yul\":5424:5431   */\n      dup5\n        /* \"#utility.yul\":5415:5421   */\n      dup3\n        /* \"#utility.yul\":5404:5413   */\n      dup6\n        /* \"#utility.yul\":5400:5422   */\n      add\n        /* \"#utility.yul\":5381:5432   */\n      tag_145\n      jump\t// in\n    tag_217:\n        /* \"#utility.yul\":5371:5432   */\n      swap2\n      pop\n        /* \"#utility.yul\":5327:5442   */\n      pop\n        /* \"#utility.yul\":5124:5449   */\n      swap3\n      swap2\n      pop\n      pop\n      jump\t// out\n        /* \"#utility.yul\":5455:5604   */\n    tag_146:\n        /* \"#utility.yul\":5491:5498   */\n      0x00\n        /* \"#utility.yul\":5531:5597   */\n      0xff00000000000000000000000000000000000000000000000000000000000000\n        /* \"#utility.yul\":5524:5529   */\n      dup3\n        /* \"#utility.yul\":5520:5598   */\n      and\n        /* \"#utility.yul\":5509:5598   */\n      swap1\n      pop\n        /* \"#utility.yul\":5455:5604   */\n      swap2\n      swap1\n      pop\n      jump\t// out\n        /* \"#utility.yul\":5610:5725   */\n    tag_147:\n        /* \"#utility.yul\":5695:5718   */\n      tag_220\n        /* \"#utility.yul\":5712:5717   */\n      dup2\n        /* \"#utility.yul\":5695:5718   */\n      tag_146\n      jump\t// in\n    tag_220:\n        /* \"#utility.yul\":5690:5693   */\n      dup3\n        /* \"#utility.yul\":5683:5719   */\n      mstore\n        /* \"#utility.yul\":5610:5725   */\n      pop\n      pop\n      jump\t// out\n        /* \"#utility.yul\":5731:5949   */\n    tag_20:\n        /* \"#utility.yul\":5822:5826   */\n      0x00\n        /* \"#utility.yul\":5860:5862   */\n      0x20\n        /* \"#utility.yul\":5849:5858   */\n      dup3\n        /* \"#utility.yul\":5845:5863   */\n      add\n        /* \"#utility.yul\":5837:5863   */\n      swap1\n      pop\n        /* \"#utility.yul\":5873:5942   */\n      tag_222\n        /* \"#utility.yul\":5939:5940   */\n      0x00\n        /* \"#utility.yul\":5928:5937   */\n      dup4\n        /* \"#utility.yul\":5924:5941   */\n      add\n        /* \"#utility.yul\":5915:5921   */\n      dup5\n        /* \"#utility.yul\":5873:5942   */\n      tag_147\n      jump\t// in\n    tag_222:\n        /* \"#utility.yul\":5731:5949   */\n      swap3\n      swap2\n      pop\n      pop\n      jump\t// out\n        /* \"#utility.yul\":5955:6284   */\n    tag_27:\n        /* \"#utility.yul\":6014:6020   */\n      0x00\n        /* \"#utility.yul\":6063:6065   */\n      0x20\n        /* \"#utility.yul\":6051:6060   */\n      dup3\n        /* \"#utility.yul\":6042:6049   */\n      dup5\n        /* \"#utility.yul\":6038:6061   */\n      sub\n        /* \"#utility.yul\":6034:6066   */\n      slt\n        /* \"#utility.yul\":6031:6150   */\n      iszero\n      tag_224\n      jumpi\n        /* \"#utility.yul\":6069:6148   */\n      tag_225\n      tag_126\n      jump\t// in\n    tag_225:\n        /* \"#utility.yul\":6031:6150   */\n    tag_224:\n        /* \"#utility.yul\":6189:6190   */\n      0x00\n        /* \"#utility.yul\":6214:6267   */\n      tag_226\n        /* \"#utility.yul\":6259:6266   */\n      dup5\n        /* \"#utility.yul\":6250:6256   */\n      dup3\n        /* \"#utility.yul\":6239:6248   */\n      dup6\n        /* \"#utility.yul\":6235:6257   */\n      add\n        /* \"#utility.yul\":6214:6267   */\n      tag_136\n      jump\t// in\n    tag_226:\n        /* \"#utility.yul\":6204:6267   */\n      swap2\n      pop\n        /* \"#utility.yul\":6160:6277   */\n      pop\n        /* \"#utility.yul\":5955:6284   */\n      swap3\n      swap2\n      pop\n      pop\n      jump\t// out\n        /* \"#utility.yul\":6290:6408   */\n    tag_148:\n        /* \"#utility.yul\":6377:6401   */\n      tag_228\n        /* \"#utility.yul\":6395:6400   */\n      dup2\n        /* \"#utility.yul\":6377:6401   */\n      tag_134\n      jump\t// in\n    tag_228:\n        /* \"#utility.yul\":6372:6375   */\n      dup3\n        /* \"#utility.yul\":6365:6402   */\n      mstore\n        /* \"#utility.yul\":6290:6408   */\n      pop\n      pop\n      jump\t// out\n        /* \"#utility.yul\":6414:6636   */\n    tag_34:\n        /* \"#utility.yul\":6507:6511   */\n      0x00\n        /* \"#utility.yul\":6545:6547   */\n      0x20\n        /* \"#utility.yul\":6534:6543   */\n      dup3\n        /* \"#utility.yul\":6530:6548   */\n      add\n        /* \"#utility.yul\":6522:6548   */\n      swap1\n      pop\n        /* \"#utility.yul\":6558:6629   */\n      tag_230\n        /* \"#utility.yul\":6626:6627   */\n      0x00\n        /* \"#utility.yul\":6615:6624   */\n      dup4\n        /* \"#utility.yul\":6611:6628   */\n      add\n        /* \"#utility.yul\":6602:6608   */\n      dup5\n        /* \"#utility.yul\":6558:6629   */\n      tag_148\n      jump\t// in\n    tag_230:\n        /* \"#utility.yul\":6414:6636   */\n      swap3\n      swap2\n      pop\n      pop\n      jump\t// out\n        /* \"#utility.yul\":6642:6822   */\n    tag_46:\n        /* \"#utility.yul\":6690:6767   */\n      0x4e487b7100000000000000000000000000000000000000000000000000000000\n        /* \"#utility.yul\":6687:6688   */\n      0x00\n        /* \"#utility.yul\":6680:6768   */\n      mstore\n        /* \"#utility.yul\":6787:6791   */\n      0x32\n        /* \"#utility.yul\":6784:6785   */\n      0x04\n        /* \"#utility.yul\":6777:6792   */\n      mstore\n        /* \"#utility.yul\":6811:6815   */\n      0x24\n        /* \"#utility.yul\":6808:6809   */\n      0x00\n        /* \"#utility.yul\":6801:6816   */\n      revert\n        /* \"#utility.yul\":6828:6976   */\n    tag_149:\n        /* \"#utility.yul\":6930:6941   */\n      0x00\n        /* \"#utility.yul\":6967:6970   */\n      dup2\n        /* \"#utility.yul\":6952:6970   */\n      swap1\n      pop\n        /* \"#utility.yul\":6828:6976   */\n      swap3\n      swap2\n      pop\n      pop\n      jump\t// out\n        /* \"#utility.yul\":6982:7372   */\n    tag_150:\n        /* \"#utility.yul\":7088:7091   */\n      0x00\n        /* \"#utility.yul\":7116:7155   */\n      tag_234\n        /* \"#utility.yul\":7149:7154   */\n      dup3\n        /* \"#utility.yul\":7116:7155   */\n      tag_139\n      jump\t// in\n    tag_234:\n        /* \"#utility.yul\":7171:7260   */\n      tag_235\n        /* \"#utility.yul\":7253:7259   */\n      dup2\n        /* \"#utility.yul\":7248:7251   */\n      dup6\n        /* \"#utility.yul\":7171:7260   */\n      tag_149\n      jump\t// in\n    tag_235:\n        /* \"#utility.yul\":7164:7260   */\n      swap4\n      pop\n        /* \"#utility.yul\":7269:7334   */\n      tag_236\n        /* \"#utility.yul\":7327:7333   */\n      dup2\n        /* \"#utility.yul\":7322:7325   */\n      dup6\n        /* \"#utility.yul\":7315:7319   */\n      0x20\n        /* \"#utility.yul\":7308:7313   */\n      dup7\n        /* \"#utility.yul\":7304:7320   */\n      add\n        /* \"#utility.yul\":7269:7334   */\n      tag_141\n      jump\t// in\n    tag_236:\n        /* \"#utility.yul\":7359:7365   */\n      dup1\n        /* \"#utility.yul\":7354:7357   */\n      dup5\n        /* \"#utility.yul\":7350:7366   */\n      add\n        /* \"#utility.yul\":7343:7366   */\n      swap2\n      pop\n        /* \"#utility.yul\":7092:7372   */\n      pop\n        /* \"#utility.yul\":6982:7372   */\n      swap3\n      swap2\n      pop\n      pop\n      jump\t// out\n        /* \"#utility.yul\":7378:7813   */\n    tag_49:\n        /* \"#utility.yul\":7558:7561   */\n      0x00\n        /* \"#utility.yul\":7580:7675   */\n      tag_238\n        /* \"#utility.yul\":7671:7674   */\n      dup3\n        /* \"#utility.yul\":7662:7668   */\n      dup6\n        /* \"#utility.yul\":7580:7675   */\n      tag_150\n      jump\t// in\n    tag_238:\n        /* \"#utility.yul\":7573:7675   */\n      swap2\n      pop\n        /* \"#utility.yul\":7692:7787   */\n      tag_239\n        /* \"#utility.yul\":7783:7786   */\n      dup3\n        /* \"#utility.yul\":7774:7780   */\n      dup5\n        /* \"#utility.yul\":7692:7787   */\n      tag_150\n      jump\t// in\n    tag_239:\n        /* \"#utility.yul\":7685:7787   */\n      swap2\n      pop\n        /* \"#utility.yul\":7804:7807   */\n      dup2\n        /* \"#utility.yul\":7797:7807   */\n      swap1\n      pop\n        /* \"#utility.yul\":7378:7813   */\n      swap4\n      swap3\n      pop\n      pop\n      pop\n      jump\t// out\n        /* \"#utility.yul\":7819:7917   */\n    tag_151:\n        /* \"#utility.yul\":7870:7876   */\n      0x00\n        /* \"#utility.yul\":7904:7909   */\n      dup2\n        /* \"#utility.yul\":7898:7910   */\n      mload\n        /* \"#utility.yul\":7888:7910   */\n      swap1\n      pop\n        /* \"#utility.yul\":7819:7917   */\n      swap2\n      swap1\n      pop\n      jump\t// out\n        /* \"#utility.yul\":7923:8070   */\n    tag_152:\n        /* \"#utility.yul\":8024:8035   */\n      0x00\n        /* \"#utility.yul\":8061:8064   */\n      dup2\n        /* \"#utility.yul\":8046:8064   */\n      swap1\n      pop\n        /* \"#utility.yul\":7923:8070   */\n      swap3\n      swap2\n      pop\n      pop\n      jump\t// out\n        /* \"#utility.yul\":8076:8462   */\n    tag_153:\n        /* \"#utility.yul\":8180:8183   */\n      0x00\n        /* \"#utility.yul\":8208:8246   */\n      tag_243\n        /* \"#utility.yul\":8240:8245   */\n      dup3\n        /* \"#utility.yul\":8208:8246   */\n      tag_151\n      jump\t// in\n    tag_243:\n        /* \"#utility.yul\":8262:8350   */\n      tag_244\n        /* \"#utility.yul\":8343:8349   */\n      dup2\n        /* \"#utility.yul\":8338:8341   */\n      dup6\n        /* \"#utility.yul\":8262:8350   */\n      tag_152\n      jump\t// in\n    tag_244:\n        /* \"#utility.yul\":8255:8350   */\n      swap4\n      pop\n        /* \"#utility.yul\":8359:8424   */\n      tag_245\n        /* \"#utility.yul\":8417:8423   */\n      dup2\n        /* \"#utility.yul\":8412:8415   */\n      dup6\n        /* \"#utility.yul\":8405:8409   */\n      0x20\n        /* \"#utility.yul\":8398:8403   */\n      dup7\n        /* \"#utility.yul\":8394:8410   */\n      add\n        /* \"#utility.yul\":8359:8424   */\n      tag_141\n      jump\t// in\n    tag_245:\n        /* \"#utility.yul\":8449:8455   */\n      dup1\n        /* \"#utility.yul\":8444:8447   */\n      dup5\n        /* \"#utility.yul\":8440:8456   */\n      add\n        /* \"#utility.yul\":8433:8456   */\n      swap2\n      pop\n        /* \"#utility.yul\":8184:8462   */\n      pop\n        /* \"#utility.yul\":8076:8462   */\n      swap3\n      swap2\n      pop\n      pop\n      jump\t// out\n        /* \"#utility.yul\":8468:8899   */\n    tag_63:\n        /* \"#utility.yul\":8646:8649   */\n      0x00\n        /* \"#utility.yul\":8668:8761   */\n      tag_247\n        /* \"#utility.yul\":8757:8760   */\n      dup3\n        /* \"#utility.yul\":8748:8754   */\n      dup6\n        /* \"#utility.yul\":8668:8761   */\n      tag_153\n      jump\t// in\n    tag_247:\n        /* \"#utility.yul\":8661:8761   */\n      swap2\n      pop\n        /* \"#utility.yul\":8778:8873   */\n      tag_248\n        /* \"#utility.yul\":8869:8872   */\n      dup3\n        /* \"#utility.yul\":8860:8866   */\n      dup5\n        /* \"#utility.yul\":8778:8873   */\n      tag_150\n      jump\t// in\n    tag_248:\n        /* \"#utility.yul\":8771:8873   */\n      swap2\n      pop\n        /* \"#utility.yul\":8890:8893   */\n      dup2\n        /* \"#utility.yul\":8883:8893   */\n      swap1\n      pop\n        /* \"#utility.yul\":8468:8899   */\n      swap4\n      swap3\n      pop\n      pop\n      pop\n      jump\t// out\n        /* \"#utility.yul\":8905:9176   */\n    tag_65:\n        /* \"#utility.yul\":9035:9038   */\n      0x00\n        /* \"#utility.yul\":9057:9150   */\n      tag_250\n        /* \"#utility.yul\":9146:9149   */\n      dup3\n        /* \"#utility.yul\":9137:9143   */\n      dup5\n        /* \"#utility.yul\":9057:9150   */\n      tag_153\n      jump\t// in\n    tag_250:\n        /* \"#utility.yul\":9050:9150   */\n      swap2\n      pop\n        /* \"#utility.yul\":9167:9170   */\n      dup2\n        /* \"#utility.yul\":9160:9170   */\n      swap1\n      pop\n        /* \"#utility.yul\":8905:9176   */\n      swap3\n      swap2\n      pop\n      pop\n      jump\t// out\n        /* \"#utility.yul\":9182:9362   */\n    tag_103:\n        /* \"#utility.yul\":9230:9307   */\n      0x4e487b7100000000000000000000000000000000000000000000000000000000\n        /* \"#utility.yul\":9227:9228   */\n      0x00\n        /* \"#utility.yul\":9220:9308   */\n      mstore\n        /* \"#utility.yul\":9327:9331   */\n      0x12\n        /* \"#utility.yul\":9324:9325   */\n      0x04\n        /* \"#utility.yul\":9317:9332   */\n      mstore\n        /* \"#utility.yul\":9351:9355   */\n      0x24\n        /* \"#utility.yul\":9348:9349   */\n      0x00\n        /* \"#utility.yul\":9341:9356   */\n      revert\n        /* \"#utility.yul\":9368:9548   */\n    tag_154:\n        /* \"#utility.yul\":9416:9493   */\n      0x4e487b7100000000000000000000000000000000000000000000000000000000\n        /* \"#utility.yul\":9413:9414   */\n      0x00\n        /* \"#utility.yul\":9406:9494   */\n      mstore\n        /* \"#utility.yul\":9513:9517   */\n      0x11\n        /* \"#utility.yul\":9510:9511   */\n      0x04\n        /* \"#utility.yul\":9503:9518   */\n      mstore\n        /* \"#utility.yul\":9537:9541   */\n      0x24\n        /* \"#utility.yul\":9534:9535   */\n      0x00\n        /* \"#utility.yul\":9527:9542   */\n      revert\n        /* \"#utility.yul\":9554:9739   */\n    tag_72:\n        /* \"#utility.yul\":9594:9595   */\n      0x00\n        /* \"#utility.yul\":9611:9631   */\n      tag_254\n        /* \"#utility.yul\":9629:9630   */\n      dup3\n        /* \"#utility.yul\":9611:9631   */\n      tag_134\n      jump\t// in\n    tag_254:\n        /* \"#utility.yul\":9606:9631   */\n      swap2\n      pop\n        /* \"#utility.yul\":9645:9665   */\n      tag_255\n        /* \"#utility.yul\":9663:9664   */\n      dup4\n        /* \"#utility.yul\":9645:9665   */\n      tag_134\n      jump\t// in\n    tag_255:\n        /* \"#utility.yul\":9640:9665   */\n      swap3\n      pop\n        /* \"#utility.yul\":9684:9685   */\n      dup3\n        /* \"#utility.yul\":9674:9709   */\n      tag_256\n      jumpi\n        /* \"#utility.yul\":9689:9707   */\n      tag_257\n      tag_103\n      jump\t// in\n    tag_257:\n        /* \"#utility.yul\":9674:9709   */\n    tag_256:\n        /* \"#utility.yul\":9731:9732   */\n      dup3\n        /* \"#utility.yul\":9728:9729   */\n      dup3\n        /* \"#utility.yul\":9724:9733   */\n      div\n        /* \"#utility.yul\":9719:9733   */\n      swap1\n      pop\n        /* \"#utility.yul\":9554:9739   */\n      swap3\n      swap2\n      pop\n      pop\n      jump\t// out\n        /* \"#utility.yul\":9745:9978   */\n    tag_74:\n        /* \"#utility.yul\":9784:9787   */\n      0x00\n        /* \"#utility.yul\":9807:9831   */\n      tag_259\n        /* \"#utility.yul\":9825:9830   */\n      dup3\n        /* \"#utility.yul\":9807:9831   */\n      tag_134\n      jump\t// in\n    tag_259:\n        /* \"#utility.yul\":9798:9831   */\n      swap2\n      pop\n        /* \"#utility.yul\":9853:9919   */\n      0xffffffffffffffffffffffffffffffffffffffffffffffffffffffffffffffff\n        /* \"#utility.yul\":9846:9851   */\n      dup3\n        /* \"#utility.yul\":9843:9920   */\n      sub\n        /* \"#utility.yul\":9840:9943   */\n      tag_260\n      jumpi\n        /* \"#utility.yul\":9923:9941   */\n      tag_261\n      tag_154\n      jump\t// in\n    tag_261:\n        /* \"#utility.yul\":9840:9943   */\n    tag_260:\n        /* \"#utility.yul\":9970:9971   */\n      0x01\n        /* \"#utility.yul\":9963:9968   */\n      dup3\n        /* \"#utility.yul\":9959:9972   */\n      add\n        /* \"#utility.yul\":9952:9972   */\n      swap1\n      pop\n        /* \"#utility.yul\":9745:9978   */\n      swap2\n      swap1\n      pop\n      jump\t// out\n        /* \"#utility.yul\":9984:10155   */\n    tag_85:\n        /* \"#utility.yul\":10023:10026   */\n      0x00\n        /* \"#utility.yul\":10046:10070   */\n      tag_263\n        /* \"#utility.yul\":10064:10069   */\n      dup3\n        /* \"#utility.yul\":10046:10070   */\n      tag_134\n      jump\t// in\n    tag_263:\n        /* \"#utility.yul\":10037:10070   */\n      swap2\n      pop\n        /* \"#utility.yul\":10092:10096   */\n      0x00\n        /* \"#utility.yul\":10085:10090   */\n      dup3\n        /* \"#utility.yul\":10082:10097   */\n      sub\n        /* \"#utility.yul\":10079:10120   */\n      tag_264\n      jumpi\n        /* \"#utility.yul\":10100:10118   */\n      tag_265\n      tag_154\n      jump\t// in\n    tag_265:\n        /* \"#utility.yul\":10079:10120   */\n    tag_264:\n        /* \"#utility.yul\":10147:10148   */\n      0x01\n        /* \"#utility.yul\":10140:10145   */\n      dup3\n        /* \"#utility.yul\":10136:10149   */\n      sub\n        /* \"#utility.yul\":10129:10149   */\n      swap1\n      pop\n        /* \"#utility.yul\":9984:10155   */\n      swap2\n      swap1\n      pop\n      jump\t// out\n        /* \"#utility.yul\":10161:10337   */\n    tag_87:\n        /* \"#utility.yul\":10193:10194   */\n      0x00\n        /* \"#utility.yul\":10210:10230   */\n      tag_267\n        /* \"#utility.yul\":10228:10229   */\n      dup3\n        /* \"#utility.yul\":10210:10230   */\n      tag_134\n      jump\t// in\n    tag_267:\n        /* \"#utility.yul\":10205:10230   */\n      swap2\n      pop\n        /* \"#utility.yul\":10244:10264   */\n      tag_268\n        /* \"#utility.yul\":10262:10263   */\n      dup4\n        /* \"#utility.yul\":10244:10264   */\n      tag_134\n      jump\t// in\n    tag_268:\n        /* \"#utility.yul\":10239:10264   */\n      swap3\n      pop\n        /* \"#utility.yul\":10283:10284   */\n      dup3\n        /* \"#utility.yul\":10273:10308   */\n      tag_269\n      jumpi\n        /* \"#utility.yul\":10288:10306   */\n      tag_270\n      tag_103\n      jump\t// in\n    tag_270:\n        /* \"#utility.yul\":10273:10308   */\n    tag_269:\n        /* \"#utility.yul\":10329:10330   */\n      dup3\n        /* \"#utility.yul\":10326:10327   */\n      dup3\n        /* \"#utility.yul\":10322:10331   */\n      mod\n        /* \"#utility.yul\":10317:10331   */\n      swap1\n      pop\n        /* \"#utility.yul\":10161:10337   */\n      swap3\n      swap2\n      pop\n      pop\n      jump\t// out\n        /* \"#utility.yul\":10343:10534   */\n    tag_89:\n        /* \"#utility.yul\":10383:10386   */\n      0x00\n        /* \"#utility.yul\":10402:10422   */\n      tag_272\n        /* \"#utility.yul\":10420:10421   */\n      dup3\n        /* \"#utility.yul\":10402:10422   */\n      tag_134\n      jump\t// in\n    tag_272:\n        /* \"#utility.yul\":10397:10422   */\n      swap2\n      pop\n        /* \"#utility.yul\":10436:10456   */\n      tag_273\n        /* \"#utility.yul\":10454:10455   */\n      dup4\n        /* \"#utility.yul\":10436:10456   */\n      tag_134\n      jump\t// in\n    tag_273:\n        /* \"#utility.yul\":10431:10456   */\n      swap3\n      pop\n        /* \"#utility.yul\":10479:10480   */\n      dup3\n        /* \"#utility.yul\":10476:10477   */\n      dup3\n        /* \"#utility.yul\":10472:10481   */\n      add\n        /* \"#utility.yul\":10465:10481   */\n      swap1\n      pop\n        /* \"#utility.yul\":10500:10503   */\n      dup1\n        /* \"#utility.yul\":10497:10498   */\n      dup3\n        /* \"#utility.yul\":10494:10504   */\n      gt\n        /* \"#utility.yul\":10491:10527   */\n      iszero\n      tag_274\n      jumpi\n        /* \"#utility.yul\":10507:10525   */\n      tag_275\n      tag_154\n      jump\t// in\n    tag_275:\n        /* \"#utility.yul\":10491:10527   */\n    tag_274:\n        /* \"#utility.yul\":10343:10534   */\n      swap3\n      swap2\n      pop\n      pop\n      jump\t// out\n\n    auxdata: 0xa264697066735822122046975fded6d8d4a4612b85dcdc73d5bdc61f42ad70aed272949f2b5e27533b1f64736f6c634300081a0033\n}\n",
				"bytecode": {
					"linkReferences": {},
					"object": "6080604052348015600e575f80fd5b50610c6a8061001c5f395ff3fe608060405234801561000f575f80fd5b5060043610610060575f3560e01c806317ea209014610064578063589d60901461009457806382326726146100c4578063a17a9e66146100f4578063ce8bb06514610124578063e939567914610154575b5f80fd5b61007e60048036038101906100799190610804565b610184565b60405161008b91906108ab565b60405180910390f35b6100ae60048036038101906100a99190610901565b6101ef565b6040516100bb9190610966565b60405180910390f35b6100de60048036038101906100d99190610804565b6101fb565b6040516100eb91906108ab565b60405180910390f35b61010e6004803603810190610109919061097f565b6102d5565b60405161011b91906108ab565b60405180910390f35b61013e6004803603810190610139919061097f565b6102e7565b60405161014b91906109b9565b60405180910390f35b61016e6004803603810190610169919061097f565b610321565b60405161017b91906108ab565b60405180910390f35b6060805f5b83518110156101e557816101b68583815181106101a9576101a86109d2565b5b6020026020010151610455565b6040516020016101c7929190610a39565b60405160208183030381529060405291508080600101915050610189565b5080915050919050565b5f8160f81b9050919050565b60605f825167ffffffffffffffff81111561021957610218610695565b5b6040519080825280601f01601f19166020018201604052801561024b5781602001600182028036833780820191505090505b5090505f5b83518110156102ac578161027d8583815181106102705761026f6109d2565b5b6020026020010151610321565b60405160200161028e929190610aa0565b60405160208183030381529060405291508080600101915050610250565b50806040516020016102be9190610ac3565b604051602081830303815290604052915050919050565b60606102e082610455565b9050919050565b5f80600190505b600a831061031857600a836103039190610b33565b9250808061031090610b63565b9150506102ee565b80915050919050565b60605f8203610367576040518060400160405280600181526020017f30000000000000000000000000000000000000000000000000000000000000008152509050610450565b5f610371836102e7565b90505f8167ffffffffffffffff81111561038e5761038d610695565b5b6040519080825280601f01601f1916602001820160405280156103c05781602001600182028036833780820191505090505b5090505b5f841461044a5781806103d690610baa565b925050600a846103e69190610bd1565b60306103f29190610c01565b60f81b818381518110610408576104076109d2565b5b60200101907effffffffffffffffffffffffffffffffffffffffffffffffffffffffffffff191690815f1a905350600a846104439190610b33565b93506103c4565b80925050505b919050565b60605f60016104638461051f565b0190505f8167ffffffffffffffff81111561048157610480610695565b5b6040519080825280601f01601f1916602001820160405280156104b35781602001600182028036833780820191505090505b5090505f82602001820190505b600115610514578080600190039150507f3031323334353637383961626364656600000000000000000000000000000000600a86061a8153600a858161050957610508610ad9565b5b0494505f85036104c0575b819350505050919050565b5f805f90507a184f03e93ff9f4daa797ed6e38ed64bf6a1f010000000000000000831061057b577a184f03e93ff9f4daa797ed6e38ed64bf6a1f010000000000000000838161057157610570610ad9565b5b0492506040810190505b6d04ee2d6d415b85acef810000000083106105b8576d04ee2d6d415b85acef810000000083816105ae576105ad610ad9565b5b0492506020810190505b662386f26fc1000083106105e757662386f26fc1000083816105dd576105dc610ad9565b5b0492506010810190505b6305f5e1008310610610576305f5e100838161060657610605610ad9565b5b0492506008810190505b612710831061063557612710838161062b5761062a610ad9565b5b0492506004810190505b60648310610658576064838161064e5761064d610ad9565b5b0492506002810190505b600a8310610667576001810190505b80915050919050565b5f604051905090565b5f80fd5b5f80fd5b5f80fd5b5f601f19601f8301169050919050565b7f4e487b71000000000000000000000000000000000000000000000000000000005f52604160045260245ffd5b6106cb82610685565b810181811067ffffffffffffffff821117156106ea576106e9610695565b5b80604052505050565b5f6106fc610670565b905061070882826106c2565b919050565b5f67ffffffffffffffff82111561072757610726610695565b5b602082029050602081019050919050565b5f80fd5b5f819050919050565b61074e8161073c565b8114610758575f80fd5b50565b5f8135905061076981610745565b92915050565b5f61078161077c8461070d565b6106f3565b905080838252602082019050602084028301858111156107a4576107a3610738565b5b835b818110156107cd57806107b9888261075b565b8452602084019350506020810190506107a6565b5050509392505050565b5f82601f8301126107eb576107ea610681565b5b81356107fb84826020860161076f565b91505092915050565b5f6020828403121561081957610818610679565b5b5f82013567ffffffffffffffff8111156108365761083561067d565b5b610842848285016107d7565b91505092915050565b5f81519050919050565b5f82825260208201905092915050565b8281835e5f83830152505050565b5f61087d8261084b565b6108878185610855565b9350610897818560208601610865565b6108a081610685565b840191505092915050565b5f6020820190508181035f8301526108c38184610873565b905092915050565b5f60ff82169050919050565b6108e0816108cb565b81146108ea575f80fd5b50565b5f813590506108fb816108d7565b92915050565b5f6020828403121561091657610915610679565b5b5f610923848285016108ed565b91505092915050565b5f7fff0000000000000000000000000000000000000000000000000000000000000082169050919050565b6109608161092c565b82525050565b5f6020820190506109795f830184610957565b92915050565b5f6020828403121561099457610993610679565b5b5f6109a18482850161075b565b91505092915050565b6109b38161073c565b82525050565b5f6020820190506109cc5f8301846109aa565b92915050565b7f4e487b71000000000000000000000000000000000000000000000000000000005f52603260045260245ffd5b5f81905092915050565b5f610a138261084b565b610a1d81856109ff565b9350610a2d818560208601610865565b80840191505092915050565b5f610a448285610a09565b9150610a508284610a09565b91508190509392505050565b5f81519050919050565b5f81905092915050565b5f610a7a82610a5c565b610a848185610a66565b9350610a94818560208601610865565b80840191505092915050565b5f610aab8285610a70565b9150610ab78284610a09565b91508190509392505050565b5f610ace8284610a70565b915081905092915050565b7f4e487b71000000000000000000000000000000000000000000000000000000005f52601260045260245ffd5b7f4e487b71000000000000000000000000000000000000000000000000000000005f52601160045260245ffd5b5f610b3d8261073c565b9150610b488361073c565b925082610b5857610b57610ad9565b5b828204905092915050565b5f610b6d8261073c565b91507fffffffffffffffffffffffffffffffffffffffffffffffffffffffffffffffff8203610b9f57610b9e610b06565b5b600182019050919050565b5f610bb48261073c565b91505f8203610bc657610bc5610b06565b5b600182039050919050565b5f610bdb8261073c565b9150610be68361073c565b925082610bf657610bf5610ad9565b5b828206905092915050565b5f610c0b8261073c565b9150610c168361073c565b9250828201905080821115610c2e57610c2d610b06565b5b9291505056fea264697066735822122046975fded6d8d4a4612b85dcdc73d5bdc61f42ad70aed272949f2b5e27533b1f64736f6c634300081a0033",
					"opcodes": "PUSH1 0x80 PUSH1 0x40 MSTORE CALLVALUE DUP1 ISZERO PUSH1 0xE JUMPI PUSH0 DUP1 REVERT JUMPDEST POP PUSH2 0xC6A DUP1 PUSH2 0x1C PUSH0 CODECOPY PUSH0 RETURN INVALID PUSH1 0x80 PUSH1 0x40 MSTORE CALLVALUE DUP1 ISZERO PUSH2 0xF JUMPI PUSH0 DUP1 REVERT JUMPDEST POP PUSH1 0x4 CALLDATASIZE LT PUSH2 0x60 JUMPI PUSH0 CALLDATALOAD PUSH1 0xE0 SHR DUP1 PUSH4 0x17EA2090 EQ PUSH2 0x64 JUMPI DUP1 PUSH4 0x589D6090 EQ PUSH2 0x94 JUMPI DUP1 PUSH4 0x82326726 EQ PUSH2 0xC4 JUMPI DUP1 PUSH4 0xA17A9E66 EQ PUSH2 0xF4 JUMPI DUP1 PUSH4 0xCE8BB065 EQ PUSH2 0x124 JUMPI DUP1 PUSH4 0xE9395679 EQ PUSH2 0x154 JUMPI JUMPDEST PUSH0 DUP1 REVERT JUMPDEST PUSH2 0x7E PUSH1 0x4 DUP1 CALLDATASIZE SUB DUP2 ADD SWAP1 PUSH2 0x79 SWAP2 SWAP1 PUSH2 0x804 JUMP JUMPDEST PUSH2 0x184 JUMP JUMPDEST PUSH1 0x40 MLOAD PUSH2 0x8B SWAP2 SWAP1 PUSH2 0x8AB JUMP JUMPDEST PUSH1 0x40 MLOAD DUP1 SWAP2 SUB SWAP1 RETURN JUMPDEST PUSH2 0xAE PUSH1 0x4 DUP1 CALLDATASIZE SUB DUP2 ADD SWAP1 PUSH2 0xA9 SWAP2 SWAP1 PUSH2 0x901 JUMP JUMPDEST PUSH2 0x1EF JUMP JUMPDEST PUSH1 0x40 MLOAD PUSH2 0xBB SWAP2 SWAP1 PUSH2 0x966 JUMP JUMPDEST PUSH1 0x40 MLOAD DUP1 SWAP2 SUB SWAP1 RETURN JUMPDEST PUSH2 0xDE PUSH1 0x4 DUP1 CALLDATASIZE SUB DUP2 ADD SWAP1 PUSH2 0xD9 SWAP2 SWAP1 PUSH2 0x804 JUMP JUMPDEST PUSH2 0x1FB JUMP JUMPDEST PUSH1 0x40 MLOAD PUSH2 0xEB SWAP2 SWAP1 PUSH2 0x8AB JUMP JUMPDEST PUSH1 0x40 MLOAD DUP1 SWAP2 SUB SWAP1 RETURN JUMPDEST PUSH2 0x10E PUSH1 0x4 DUP1 CALLDATASIZE SUB DUP2 ADD SWAP1 PUSH2 0x109 SWAP2 SWAP1 PUSH2 0x97F JUMP JUMPDEST PUSH2 0x2D5 JUMP JUMPDEST PUSH1 0x40 MLOAD PUSH2 0x11B SWAP2 SWAP1 PUSH2 0x8AB JUMP JUMPDEST PUSH1 0x40 MLOAD DUP1 SWAP2 SUB SWAP1 RETURN JUMPDEST PUSH2 0x13E PUSH1 0x4 DUP1 CALLDATASIZE SUB DUP2 ADD SWAP1 PUSH2 0x139 SWAP2 SWAP1 PUSH2 0x97F JUMP JUMPDEST PUSH2 0x2E7 JUMP JUMPDEST PUSH1 0x40 MLOAD PUSH2 0x14B SWAP2 SWAP1 PUSH2 0x9B9 JUMP JUMPDEST PUSH1 0x40 MLOAD DUP1 SWAP2 SUB SWAP1 RETURN JUMPDEST PUSH2 0x16E PUSH1 0x4 DUP1 CALLDATASIZE SUB DUP2 ADD SWAP1 PUSH2 0x169 SWAP2 SWAP1 PUSH2 0x97F JUMP JUMPDEST PUSH2 0x321 JUMP JUMPDEST PUSH1 0x40 MLOAD PUSH2 0x17B SWAP2 SWAP1 PUSH2 0x8AB JUMP JUMPDEST PUSH1 0x40 MLOAD DUP1 SWAP2 SUB SWAP1 RETURN JUMPDEST PUSH1 0x60 DUP1 PUSH0 JUMPDEST DUP4 MLOAD DUP2 LT ISZERO PUSH2 0x1E5 JUMPI DUP2 PUSH2 0x1B6 DUP6 DUP4 DUP2 MLOAD DUP2 LT PUSH2 0x1A9 JUMPI PUSH2 0x1A8 PUSH2 0x9D2 JUMP JUMPDEST JUMPDEST PUSH1 0x20 MUL PUSH1 0x20 ADD ADD MLOAD PUSH2 0x455 JUMP JUMPDEST PUSH1 0x40 MLOAD PUSH1 0x20 ADD PUSH2 0x1C7 SWAP3 SWAP2 SWAP1 PUSH2 0xA39 JUMP JUMPDEST PUSH1 0x40 MLOAD PUSH1 0x20 DUP2 DUP4 SUB SUB DUP2 MSTORE SWAP1 PUSH1 0x40 MSTORE SWAP2 POP DUP1 DUP1 PUSH1 0x1 ADD SWAP2 POP POP PUSH2 0x189 JUMP JUMPDEST POP DUP1 SWAP2 POP POP SWAP2 SWAP1 POP JUMP JUMPDEST PUSH0 DUP2 PUSH1 0xF8 SHL SWAP1 POP SWAP2 SWAP1 POP JUMP JUMPDEST PUSH1 0x60 PUSH0 DUP3 MLOAD PUSH8 0xFFFFFFFFFFFFFFFF DUP2 GT ISZERO PUSH2 0x219 JUMPI PUSH2 0x218 PUSH2 0x695 JUMP JUMPDEST JUMPDEST PUSH1 0x40 MLOAD SWAP1 DUP1 DUP3 MSTORE DUP1 PUSH1 0x1F ADD PUSH1 0x1F NOT AND PUSH1 0x20 ADD DUP3 ADD PUSH1 0x40 MSTORE DUP1 ISZERO PUSH2 0x24B JUMPI DUP2 PUSH1 0x20 ADD PUSH1 0x1 DUP3 MUL DUP1 CALLDATASIZE DUP4 CALLDATACOPY DUP1 DUP3 ADD SWAP2 POP POP SWAP1 POP JUMPDEST POP SWAP1 POP PUSH0 JUMPDEST DUP4 MLOAD DUP2 LT ISZERO PUSH2 0x2AC JUMPI DUP2 PUSH2 0x27D DUP6 DUP4 DUP2 MLOAD DUP2 LT PUSH2 0x270 JUMPI PUSH2 0x26F PUSH2 0x9D2 JUMP JUMPDEST JUMPDEST PUSH1 0x20 MUL PUSH1 0x20 ADD ADD MLOAD PUSH2 0x321 JUMP JUMPDEST PUSH1 0x40 MLOAD PUSH1 0x20 ADD PUSH2 0x28E SWAP3 SWAP2 SWAP1 PUSH2 0xAA0 JUMP JUMPDEST PUSH1 0x40 MLOAD PUSH1 0x20 DUP2 DUP4 SUB SUB DUP2 MSTORE SWAP1 PUSH1 0x40 MSTORE SWAP2 POP DUP1 DUP1 PUSH1 0x1 ADD SWAP2 POP POP PUSH2 0x250 JUMP JUMPDEST POP DUP1 PUSH1 0x40 MLOAD PUSH1 0x20 ADD PUSH2 0x2BE SWAP2 SWAP1 PUSH2 0xAC3 JUMP JUMPDEST PUSH1 0x40 MLOAD PUSH1 0x20 DUP2 DUP4 SUB SUB DUP2 MSTORE SWAP1 PUSH1 0x40 MSTORE SWAP2 POP POP SWAP2 SWAP1 POP JUMP JUMPDEST PUSH1 0x60 PUSH2 0x2E0 DUP3 PUSH2 0x455 JUMP JUMPDEST SWAP1 POP SWAP2 SWAP1 POP JUMP JUMPDEST PUSH0 DUP1 PUSH1 0x1 SWAP1 POP JUMPDEST PUSH1 0xA DUP4 LT PUSH2 0x318 JUMPI PUSH1 0xA DUP4 PUSH2 0x303 SWAP2 SWAP1 PUSH2 0xB33 JUMP JUMPDEST SWAP3 POP DUP1 DUP1 PUSH2 0x310 SWAP1 PUSH2 0xB63 JUMP JUMPDEST SWAP2 POP POP PUSH2 0x2EE JUMP JUMPDEST DUP1 SWAP2 POP POP SWAP2 SWAP1 POP JUMP JUMPDEST PUSH1 0x60 PUSH0 DUP3 SUB PUSH2 0x367 JUMPI PUSH1 0x40 MLOAD DUP1 PUSH1 0x40 ADD PUSH1 0x40 MSTORE DUP1 PUSH1 0x1 DUP2 MSTORE PUSH1 0x20 ADD PUSH32 0x3000000000000000000000000000000000000000000000000000000000000000 DUP2 MSTORE POP SWAP1 POP PUSH2 0x450 JUMP JUMPDEST PUSH0 PUSH2 0x371 DUP4 PUSH2 0x2E7 JUMP JUMPDEST SWAP1 POP PUSH0 DUP2 PUSH8 0xFFFFFFFFFFFFFFFF DUP2 GT ISZERO PUSH2 0x38E JUMPI PUSH2 0x38D PUSH2 0x695 JUMP JUMPDEST JUMPDEST PUSH1 0x40 MLOAD SWAP1 DUP1 DUP3 MSTORE DUP1 PUSH1 0x1F ADD PUSH1 0x1F NOT AND PUSH1 0x20 ADD DUP3 ADD PUSH1 0x40 MSTORE DUP1 ISZERO PUSH2 0x3C0 JUMPI DUP2 PUSH1 0x20 ADD PUSH1 0x1 DUP3 MUL DUP1 CALLDATASIZE DUP4 CALLDATACOPY DUP1 DUP3 ADD SWAP2 POP POP SWAP1 POP JUMPDEST POP SWAP1 POP JUMPDEST PUSH0 DUP5 EQ PUSH2 0x44A JUMPI DUP2 DUP1 PUSH2 0x3D6 SWAP1 PUSH2 0xBAA JUMP JUMPDEST SWAP3 POP POP PUSH1 0xA DUP5 PUSH2 0x3E6 SWAP2 SWAP1 PUSH2 0xBD1 JUMP JUMPDEST PUSH1 0x30 PUSH2 0x3F2 SWAP2 SWAP1 PUSH2 0xC01 JUMP JUMPDEST PUSH1 0xF8 SHL DUP2 DUP4 DUP2 MLOAD DUP2 LT PUSH2 0x408 JUMPI PUSH2 0x407 PUSH2 0x9D2 JUMP JUMPDEST JUMPDEST PUSH1 0x20 ADD ADD SWAP1 PUSH31 0xFFFFFFFFFFFFFFFFFFFFFFFFFFFFFFFFFFFFFFFFFFFFFFFFFFFFFFFFFFFFFF NOT AND SWAP1 DUP2 PUSH0 BYTE SWAP1 MSTORE8 POP PUSH1 0xA DUP5 PUSH2 0x443 SWAP2 SWAP1 PUSH2 0xB33 JUMP JUMPDEST SWAP4 POP PUSH2 0x3C4 JUMP JUMPDEST DUP1 SWAP3 POP POP POP JUMPDEST SWAP2 SWAP1 POP JUMP JUMPDEST PUSH1 0x60 PUSH0 PUSH1 0x1 PUSH2 0x463 DUP5 PUSH2 0x51F JUMP JUMPDEST ADD SWAP1 POP PUSH0 DUP2 PUSH8 0xFFFFFFFFFFFFFFFF DUP2 GT ISZERO PUSH2 0x481 JUMPI PUSH2 0x480 PUSH2 0x695 JUMP JUMPDEST JUMPDEST PUSH1 0x40 MLOAD SWAP1 DUP1 DUP3 MSTORE DUP1 PUSH1 0x1F ADD PUSH1 0x1F NOT AND PUSH1 0x20 ADD DUP3 ADD PUSH1 0x40 MSTORE DUP1 ISZERO PUSH2 0x4B3 JUMPI DUP2 PUSH1 0x20 ADD PUSH1 0x1 DUP3 MUL DUP1 CALLDATASIZE DUP4 CALLDATACOPY DUP1 DUP3 ADD SWAP2 POP POP SWAP1 POP JUMPDEST POP SWAP1 POP PUSH0 DUP3 PUSH1 0x20 ADD DUP3 ADD SWAP1 POP JUMPDEST PUSH1 0x1 ISZERO PUSH2 0x514 JUMPI DUP1 DUP1 PUSH1 0x1 SWAP1 SUB SWAP2 POP POP PUSH32 0x3031323334353637383961626364656600000000000000000000000000000000 PUSH1 0xA DUP7 MOD BYTE DUP2 MSTORE8 PUSH1 0xA DUP6 DUP2 PUSH2 0x509 JUMPI PUSH2 0x508 PUSH2 0xAD9 JUMP JUMPDEST JUMPDEST DIV SWAP5 POP PUSH0 DUP6 SUB PUSH2 0x4C0 JUMPI JUMPDEST DUP2 SWAP4 POP POP POP POP SWAP2 SWAP1 POP JUMP JUMPDEST PUSH0 DUP1 PUSH0 SWAP1 POP PUSH27 0x184F03E93FF9F4DAA797ED6E38ED64BF6A1F010000000000000000 DUP4 LT PUSH2 0x57B JUMPI PUSH27 0x184F03E93FF9F4DAA797ED6E38ED64BF6A1F010000000000000000 DUP4 DUP2 PUSH2 0x571 JUMPI PUSH2 0x570 PUSH2 0xAD9 JUMP JUMPDEST JUMPDEST DIV SWAP3 POP PUSH1 0x40 DUP2 ADD SWAP1 POP JUMPDEST PUSH14 0x4EE2D6D415B85ACEF8100000000 DUP4 LT PUSH2 0x5B8 JUMPI PUSH14 0x4EE2D6D415B85ACEF8100000000 DUP4 DUP2 PUSH2 0x5AE JUMPI PUSH2 0x5AD PUSH2 0xAD9 JUMP JUMPDEST JUMPDEST DIV SWAP3 POP PUSH1 0x20 DUP2 ADD SWAP1 POP JUMPDEST PUSH7 0x2386F26FC10000 DUP4 LT PUSH2 0x5E7 JUMPI PUSH7 0x2386F26FC10000 DUP4 DUP2 PUSH2 0x5DD JUMPI PUSH2 0x5DC PUSH2 0xAD9 JUMP JUMPDEST JUMPDEST DIV SWAP3 POP PUSH1 0x10 DUP2 ADD SWAP1 POP JUMPDEST PUSH4 0x5F5E100 DUP4 LT PUSH2 0x610 JUMPI PUSH4 0x5F5E100 DUP4 DUP2 PUSH2 0x606 JUMPI PUSH2 0x605 PUSH2 0xAD9 JUMP JUMPDEST JUMPDEST DIV SWAP3 POP PUSH1 0x8 DUP2 ADD SWAP1 POP JUMPDEST PUSH2 0x2710 DUP4 LT PUSH2 0x635 JUMPI PUSH2 0x2710 DUP4 DUP2 PUSH2 0x62B JUMPI PUSH2 0x62A PUSH2 0xAD9 JUMP JUMPDEST JUMPDEST DIV SWAP3 POP PUSH1 0x4 DUP2 ADD SWAP1 POP JUMPDEST PUSH1 0x64 DUP4 LT PUSH2 0x658 JUMPI PUSH1 0x64 DUP4 DUP2 PUSH2 0x64E JUMPI PUSH2 0x64D PUSH2 0xAD9 JUMP JUMPDEST JUMPDEST DIV SWAP3 POP PUSH1 0x2 DUP2 ADD SWAP1 POP JUMPDEST PUSH1 0xA DUP4 LT PUSH2 0x667 JUMPI PUSH1 0x1 DUP2 ADD SWAP1 POP JUMPDEST DUP1 SWAP2 POP POP SWAP2 SWAP1 POP JUMP JUMPDEST PUSH0 PUSH1 0x40 MLOAD SWAP1 POP SWAP1 JUMP JUMPDEST PUSH0 DUP1 REVERT JUMPDEST PUSH0 DUP1 REVERT JUMPDEST PUSH0 DUP1 REVERT JUMPDEST PUSH0 PUSH1 0x1F NOT PUSH1 0x1F DUP4 ADD AND SWAP1 POP SWAP2 SWAP1 POP JUMP JUMPDEST PUSH32 0x4E487B7100000000000000000000000000000000000000000000000000000000 PUSH0 MSTORE PUSH1 0x41 PUSH1 0x4 MSTORE PUSH1 0x24 PUSH0 REVERT JUMPDEST PUSH2 0x6CB DUP3 PUSH2 0x685 JUMP JUMPDEST DUP2 ADD DUP2 DUP2 LT PUSH8 0xFFFFFFFFFFFFFFFF DUP3 GT OR ISZERO PUSH2 0x6EA JUMPI PUSH2 0x6E9 PUSH2 0x695 JUMP JUMPDEST JUMPDEST DUP1 PUSH1 0x40 MSTORE POP POP POP JUMP JUMPDEST PUSH0 PUSH2 0x6FC PUSH2 0x670 JUMP JUMPDEST SWAP1 POP PUSH2 0x708 DUP3 DUP3 PUSH2 0x6C2 JUMP JUMPDEST SWAP2 SWAP1 POP JUMP JUMPDEST PUSH0 PUSH8 0xFFFFFFFFFFFFFFFF DUP3 GT ISZERO PUSH2 0x727 JUMPI PUSH2 0x726 PUSH2 0x695 JUMP JUMPDEST JUMPDEST PUSH1 0x20 DUP3 MUL SWAP1 POP PUSH1 0x20 DUP2 ADD SWAP1 POP SWAP2 SWAP1 POP JUMP JUMPDEST PUSH0 DUP1 REVERT JUMPDEST PUSH0 DUP2 SWAP1 POP SWAP2 SWAP1 POP JUMP JUMPDEST PUSH2 0x74E DUP2 PUSH2 0x73C JUMP JUMPDEST DUP2 EQ PUSH2 0x758 JUMPI PUSH0 DUP1 REVERT JUMPDEST POP JUMP JUMPDEST PUSH0 DUP2 CALLDATALOAD SWAP1 POP PUSH2 0x769 DUP2 PUSH2 0x745 JUMP JUMPDEST SWAP3 SWAP2 POP POP JUMP JUMPDEST PUSH0 PUSH2 0x781 PUSH2 0x77C DUP5 PUSH2 0x70D JUMP JUMPDEST PUSH2 0x6F3 JUMP JUMPDEST SWAP1 POP DUP1 DUP4 DUP3 MSTORE PUSH1 0x20 DUP3 ADD SWAP1 POP PUSH1 0x20 DUP5 MUL DUP4 ADD DUP6 DUP2 GT ISZERO PUSH2 0x7A4 JUMPI PUSH2 0x7A3 PUSH2 0x738 JUMP JUMPDEST JUMPDEST DUP4 JUMPDEST DUP2 DUP2 LT ISZERO PUSH2 0x7CD JUMPI DUP1 PUSH2 0x7B9 DUP9 DUP3 PUSH2 0x75B JUMP JUMPDEST DUP5 MSTORE PUSH1 0x20 DUP5 ADD SWAP4 POP POP PUSH1 0x20 DUP2 ADD SWAP1 POP PUSH2 0x7A6 JUMP JUMPDEST POP POP POP SWAP4 SWAP3 POP POP POP JUMP JUMPDEST PUSH0 DUP3 PUSH1 0x1F DUP4 ADD SLT PUSH2 0x7EB JUMPI PUSH2 0x7EA PUSH2 0x681 JUMP JUMPDEST JUMPDEST DUP2 CALLDATALOAD PUSH2 0x7FB DUP5 DUP3 PUSH1 0x20 DUP7 ADD PUSH2 0x76F JUMP JUMPDEST SWAP2 POP POP SWAP3 SWAP2 POP POP JUMP JUMPDEST PUSH0 PUSH1 0x20 DUP3 DUP5 SUB SLT ISZERO PUSH2 0x819 JUMPI PUSH2 0x818 PUSH2 0x679 JUMP JUMPDEST JUMPDEST PUSH0 DUP3 ADD CALLDATALOAD PUSH8 0xFFFFFFFFFFFFFFFF DUP2 GT ISZERO PUSH2 0x836 JUMPI PUSH2 0x835 PUSH2 0x67D JUMP JUMPDEST JUMPDEST PUSH2 0x842 DUP5 DUP3 DUP6 ADD PUSH2 0x7D7 JUMP JUMPDEST SWAP2 POP POP SWAP3 SWAP2 POP POP JUMP JUMPDEST PUSH0 DUP2 MLOAD SWAP1 POP SWAP2 SWAP1 POP JUMP JUMPDEST PUSH0 DUP3 DUP3 MSTORE PUSH1 0x20 DUP3 ADD SWAP1 POP SWAP3 SWAP2 POP POP JUMP JUMPDEST DUP3 DUP2 DUP4 MCOPY PUSH0 DUP4 DUP4 ADD MSTORE POP POP POP JUMP JUMPDEST PUSH0 PUSH2 0x87D DUP3 PUSH2 0x84B JUMP JUMPDEST PUSH2 0x887 DUP2 DUP6 PUSH2 0x855 JUMP JUMPDEST SWAP4 POP PUSH2 0x897 DUP2 DUP6 PUSH1 0x20 DUP7 ADD PUSH2 0x865 JUMP JUMPDEST PUSH2 0x8A0 DUP2 PUSH2 0x685 JUMP JUMPDEST DUP5 ADD SWAP2 POP POP SWAP3 SWAP2 POP POP JUMP JUMPDEST PUSH0 PUSH1 0x20 DUP3 ADD SWAP1 POP DUP2 DUP2 SUB PUSH0 DUP4 ADD MSTORE PUSH2 0x8C3 DUP2 DUP5 PUSH2 0x873 JUMP JUMPDEST SWAP1 POP SWAP3 SWAP2 POP POP JUMP JUMPDEST PUSH0 PUSH1 0xFF DUP3 AND SWAP1 POP SWAP2 SWAP1 POP JUMP JUMPDEST PUSH2 0x8E0 DUP2 PUSH2 0x8CB JUMP JUMPDEST DUP2 EQ PUSH2 0x8EA JUMPI PUSH0 DUP1 REVERT JUMPDEST POP JUMP JUMPDEST PUSH0 DUP2 CALLDATALOAD SWAP1 POP PUSH2 0x8FB DUP2 PUSH2 0x8D7 JUMP JUMPDEST SWAP3 SWAP2 POP POP JUMP JUMPDEST PUSH0 PUSH1 0x20 DUP3 DUP5 SUB SLT ISZERO PUSH2 0x916 JUMPI PUSH2 0x915 PUSH2 0x679 JUMP JUMPDEST JUMPDEST PUSH0 PUSH2 0x923 DUP5 DUP3 DUP6 ADD PUSH2 0x8ED JUMP JUMPDEST SWAP2 POP POP SWAP3 SWAP2 POP POP JUMP JUMPDEST PUSH0 PUSH32 0xFF00000000000000000000000000000000000000000000000000000000000000 DUP3 AND SWAP1 POP SWAP2 SWAP1 POP JUMP JUMPDEST PUSH2 0x960 DUP2 PUSH2 0x92C JUMP JUMPDEST DUP3 MSTORE POP POP JUMP JUMPDEST PUSH0 PUSH1 0x20 DUP3 ADD SWAP1 POP PUSH2 0x979 PUSH0 DUP4 ADD DUP5 PUSH2 0x957 JUMP JUMPDEST SWAP3 SWAP2 POP POP JUMP JUMPDEST PUSH0 PUSH1 0x20 DUP3 DUP5 SUB SLT ISZERO PUSH2 0x994 JUMPI PUSH2 0x993 PUSH2 0x679 JUMP JUMPDEST JUMPDEST PUSH0 PUSH2 0x9A1 DUP5 DUP3 DUP6 ADD PUSH2 0x75B JUMP JUMPDEST SWAP2 POP POP SWAP3 SWAP2 POP POP JUMP JUMPDEST PUSH2 0x9B3 DUP2 PUSH2 0x73C JUMP JUMPDEST DUP3 MSTORE POP POP JUMP JUMPDEST PUSH0 PUSH1 0x20 DUP3 ADD SWAP1 POP PUSH2 0x9CC PUSH0 DUP4 ADD DUP5 PUSH2 0x9AA JUMP JUMPDEST SWAP3 SWAP2 POP POP JUMP JUMPDEST PUSH32 0x4E487B7100000000000000000000000000000000000000000000000000000000 PUSH0 MSTORE PUSH1 0x32 PUSH1 0x4 MSTORE PUSH1 0x24 PUSH0 REVERT JUMPDEST PUSH0 DUP2 SWAP1 POP SWAP3 SWAP2 POP POP JUMP JUMPDEST PUSH0 PUSH2 0xA13 DUP3 PUSH2 0x84B JUMP JUMPDEST PUSH2 0xA1D DUP2 DUP6 PUSH2 0x9FF JUMP JUMPDEST SWAP4 POP PUSH2 0xA2D DUP2 DUP6 PUSH1 0x20 DUP7 ADD PUSH2 0x865 JUMP JUMPDEST DUP1 DUP5 ADD SWAP2 POP POP SWAP3 SWAP2 POP POP JUMP JUMPDEST PUSH0 PUSH2 0xA44 DUP3 DUP6 PUSH2 0xA09 JUMP JUMPDEST SWAP2 POP PUSH2 0xA50 DUP3 DUP5 PUSH2 0xA09 JUMP JUMPDEST SWAP2 POP DUP2 SWAP1 POP SWAP4 SWAP3 POP POP POP JUMP JUMPDEST PUSH0 DUP2 MLOAD SWAP1 POP SWAP2 SWAP1 POP JUMP JUMPDEST PUSH0 DUP2 SWAP1 POP SWAP3 SWAP2 POP POP JUMP JUMPDEST PUSH0 PUSH2 0xA7A DUP3 PUSH2 0xA5C JUMP JUMPDEST PUSH2 0xA84 DUP2 DUP6 PUSH2 0xA66 JUMP JUMPDEST SWAP4 POP PUSH2 0xA94 DUP2 DUP6 PUSH1 0x20 DUP7 ADD PUSH2 0x865 JUMP JUMPDEST DUP1 DUP5 ADD SWAP2 POP POP SWAP3 SWAP2 POP POP JUMP JUMPDEST PUSH0 PUSH2 0xAAB DUP3 DUP6 PUSH2 0xA70 JUMP JUMPDEST SWAP2 POP PUSH2 0xAB7 DUP3 DUP5 PUSH2 0xA09 JUMP JUMPDEST SWAP2 POP DUP2 SWAP1 POP SWAP4 SWAP3 POP POP POP JUMP JUMPDEST PUSH0 PUSH2 0xACE DUP3 DUP5 PUSH2 0xA70 JUMP JUMPDEST SWAP2 POP DUP2 SWAP1 POP SWAP3 SWAP2 POP POP JUMP JUMPDEST PUSH32 0x4E487B7100000000000000000000000000000000000000000000000000000000 PUSH0 MSTORE PUSH1 0x12 PUSH1 0x4 MSTORE PUSH1 0x24 PUSH0 REVERT JUMPDEST PUSH32 0x4E487B7100000000000000000000000000000000000000000000000000000000 PUSH0 MSTORE PUSH1 0x11 PUSH1 0x4 MSTORE PUSH1 0x24 PUSH0 REVERT JUMPDEST PUSH0 PUSH2 0xB3D DUP3 PUSH2 0x73C JUMP JUMPDEST SWAP2 POP PUSH2 0xB48 DUP4 PUSH2 0x73C JUMP JUMPDEST SWAP3 POP DUP3 PUSH2 0xB58 JUMPI PUSH2 0xB57 PUSH2 0xAD9 JUMP JUMPDEST JUMPDEST DUP3 DUP3 DIV SWAP1 POP SWAP3 SWAP2 POP POP JUMP JUMPDEST PUSH0 PUSH2 0xB6D DUP3 PUSH2 0x73C JUMP JUMPDEST SWAP2 POP PUSH32 0xFFFFFFFFFFFFFFFFFFFFFFFFFFFFFFFFFFFFFFFFFFFFFFFFFFFFFFFFFFFFFFFF DUP3 SUB PUSH2 0xB9F JUMPI PUSH2 0xB9E PUSH2 0xB06 JUMP JUMPDEST JUMPDEST PUSH1 0x1 DUP3 ADD SWAP1 POP SWAP2 SWAP1 POP JUMP JUMPDEST PUSH0 PUSH2 0xBB4 DUP3 PUSH2 0x73C JUMP JUMPDEST SWAP2 POP PUSH0 DUP3 SUB PUSH2 0xBC6 JUMPI PUSH2 0xBC5 PUSH2 0xB06 JUMP JUMPDEST JUMPDEST PUSH1 0x1 DUP3 SUB SWAP1 POP SWAP2 SWAP1 POP JUMP JUMPDEST PUSH0 PUSH2 0xBDB DUP3 PUSH2 0x73C JUMP JUMPDEST SWAP2 POP PUSH2 0xBE6 DUP4 PUSH2 0x73C JUMP JUMPDEST SWAP3 POP DUP3 PUSH2 0xBF6 JUMPI PUSH2 0xBF5 PUSH2 0xAD9 JUMP JUMPDEST JUMPDEST DUP3 DUP3 MOD SWAP1 POP SWAP3 SWAP2 POP POP JUMP JUMPDEST PUSH0 PUSH2 0xC0B DUP3 PUSH2 0x73C JUMP JUMPDEST SWAP2 POP PUSH2 0xC16 DUP4 PUSH2 0x73C JUMP JUMPDEST SWAP3 POP DUP3 DUP3 ADD SWAP1 POP DUP1 DUP3 GT ISZERO PUSH2 0xC2E JUMPI PUSH2 0xC2D PUSH2 0xB06 JUMP JUMPDEST JUMPDEST SWAP3 SWAP2 POP POP JUMP INVALID LOG2 PUSH5 0x6970667358 0x22 SLT KECCAK256 CHAINID SWAP8 PUSH0 0xDE 0xD6 0xD8 0xD4 LOG4 PUSH2 0x2B85 0xDC 0xDC PUSH20 0xD5BDC61F42AD70AED272949F2B5E27533B1F6473 PUSH16 0x6C634300081A00330000000000000000 "
				},
				"gasEstimates": {
					"creation": {
						"codeDepositCost": "635600",
						"executionCost": "668",
						"totalCost": "636268"
					},
					"external": {
						"A(uint256)": "infinite",
						"FINAL(uint256[])": "infinite",
						"getDigits(uint256)": "infinite",
						"getNumbers(uint256[])": "infinite",
						"uintToBytes(uint8)": "611",
						"uintToString(uint256)": "infinite"
					}
				},
				"methodIdentifiers": {
					"A(uint256)": "a17a9e66",
					"FINAL(uint256[])": "82326726",
					"getDigits(uint256)": "ce8bb065",
					"getNumbers(uint256[])": "17ea2090",
					"uintToBytes(uint8)": "589d6090",
					"uintToString(uint256)": "e9395679"
				}
			},
			"storageLayout": {
				"storage": [],
				"types": null
			},
			"userdoc": {
				"kind": "user",
				"methods": {},
				"version": 1
			}
		}
	}
}