{
	"Solidity100/sole100(41~50).sol": {
		"Q41": {
			"abi": [
				{
					"inputs": [],
					"name": "getNum",
					"outputs": [
						{
							"internalType": "uint256[4]",
							"name": "",
							"type": "uint256[4]"
						}
					],
					"stateMutability": "view",
					"type": "function"
				},
				{
					"inputs": [
						{
							"internalType": "uint256",
							"name": "",
							"type": "uint256"
						}
					],
					"name": "num",
					"outputs": [
						{
							"internalType": "uint256",
							"name": "",
							"type": "uint256"
						}
					],
					"stateMutability": "view",
					"type": "function"
				},
				{
					"inputs": [],
					"name": "reset",
					"outputs": [],
					"stateMutability": "nonpayable",
					"type": "function"
				},
				{
					"inputs": [
						{
							"internalType": "uint256",
							"name": "_n",
							"type": "uint256"
						},
						{
							"internalType": "uint256",
							"name": "_m",
							"type": "uint256"
						}
					],
					"name": "setNum",
					"outputs": [],
					"stateMutability": "nonpayable",
					"type": "function"
				}
			],
			"devdoc": {
				"kind": "dev",
				"methods": {},
				"version": 1
			},
			"evm": {
				"assembly": "    /* \"Solidity100/sole100(41~50).sol\":76:691  contract Q41 {... */\n  mstore(0x40, 0x80)\n  callvalue\n  dup1\n  iszero\n  tag_1\n  jumpi\n  0x00\n  dup1\n  revert\ntag_1:\n  pop\n  dataSize(sub_0)\n  dup1\n  dataOffset(sub_0)\n  0x00\n  codecopy\n  0x00\n  return\nstop\n\nsub_0: assembly {\n        /* \"Solidity100/sole100(41~50).sol\":76:691  contract Q41 {... */\n      mstore(0x40, 0x80)\n      callvalue\n      dup1\n      iszero\n      tag_1\n      jumpi\n      0x00\n      dup1\n      revert\n    tag_1:\n      pop\n      jumpi(tag_2, lt(calldatasize, 0x04))\n      shr(0xe0, calldataload(0x00))\n      dup1\n      0x67e0badb\n      eq\n      tag_3\n      jumpi\n      dup1\n      0x782c523b\n      eq\n      tag_4\n      jumpi\n      dup1\n      0xaa228b75\n      eq\n      tag_5\n      jumpi\n      dup1\n      0xd826f88f\n      eq\n      tag_6\n      jumpi\n    tag_2:\n      0x00\n      dup1\n      revert\n        /* \"Solidity100/sole100(41~50).sol\":534:617  function getNum() public view returns(uint[4] memory) {... */\n    tag_3:\n      tag_7\n      tag_8\n      jump\t// in\n    tag_7:\n      mload(0x40)\n      tag_9\n      swap2\n      swap1\n      tag_10\n      jump\t// in\n    tag_9:\n      mload(0x40)\n      dup1\n      swap2\n      sub\n      swap1\n      return\n        /* \"Solidity100/sole100(41~50).sol\":454:526  function setNum(uint _n, uint _m) public {... */\n    tag_4:\n      tag_11\n      0x04\n      dup1\n      calldatasize\n      sub\n      dup2\n      add\n      swap1\n      tag_12\n      swap2\n      swap1\n      tag_13\n      jump\t// in\n    tag_12:\n      tag_14\n      jump\t// in\n    tag_11:\n      stop\n        /* \"Solidity100/sole100(41~50).sol\":427:445  uint[4] public num */\n    tag_5:\n      tag_15\n      0x04\n      dup1\n      calldatasize\n      sub\n      dup2\n      add\n      swap1\n      tag_16\n      swap2\n      swap1\n      tag_17\n      jump\t// in\n    tag_16:\n      tag_18\n      jump\t// in\n    tag_15:\n      mload(0x40)\n      tag_19\n      swap2\n      swap1\n      tag_20\n      jump\t// in\n    tag_19:\n      mload(0x40)\n      dup1\n      swap2\n      sub\n      swap1\n      return\n        /* \"Solidity100/sole100(41~50).sol\":625:688  function reset() public {... */\n    tag_6:\n      tag_21\n      tag_22\n      jump\t// in\n    tag_21:\n      stop\n        /* \"Solidity100/sole100(41~50).sol\":534:617  function getNum() public view returns(uint[4] memory) {... */\n    tag_8:\n        /* \"Solidity100/sole100(41~50).sol\":572:586  uint[4] memory */\n      tag_23\n      tag_24\n      jump\t// in\n    tag_23:\n        /* \"Solidity100/sole100(41~50).sol\":606:609  num */\n      0x00\n        /* \"Solidity100/sole100(41~50).sol\":599:609  return num */\n      0x04\n      dup1\n      0x20\n      mul\n      mload(0x40)\n      swap1\n      dup2\n      add\n      0x40\n      mstore\n      dup1\n      swap3\n      swap2\n      swap1\n      dup3\n      0x04\n      dup1\n      iszero\n      tag_26\n      jumpi\n      0x20\n      mul\n      dup3\n      add\n      swap2\n    tag_27:\n      dup2\n      sload\n      dup2\n      mstore\n      0x20\n      add\n      swap1\n      0x01\n      add\n      swap1\n      dup1\n      dup4\n      gt\n      tag_27\n      jumpi\n    tag_26:\n      pop\n      pop\n      pop\n      pop\n      pop\n      swap1\n      pop\n        /* \"Solidity100/sole100(41~50).sol\":534:617  function getNum() public view returns(uint[4] memory) {... */\n      swap1\n      jump\t// out\n        /* \"Solidity100/sole100(41~50).sol\":454:526  function setNum(uint _n, uint _m) public {... */\n    tag_14:\n        /* \"Solidity100/sole100(41~50).sol\":516:518  _m */\n      dup1\n        /* \"Solidity100/sole100(41~50).sol\":506:509  num */\n      0x00\n        /* \"Solidity100/sole100(41~50).sol\":510:512  _n */\n      dup4\n        /* \"Solidity100/sole100(41~50).sol\":506:513  num[_n] */\n      0x04\n      dup2\n      lt\n      tag_29\n      jumpi\n      tag_30\n      tag_31\n      jump\t// in\n    tag_30:\n    tag_29:\n      add\n        /* \"Solidity100/sole100(41~50).sol\":506:518  num[_n] = _m */\n      dup2\n      swap1\n      sstore\n      pop\n        /* \"Solidity100/sole100(41~50).sol\":454:526  function setNum(uint _n, uint _m) public {... */\n      pop\n      pop\n      jump\t// out\n        /* \"Solidity100/sole100(41~50).sol\":427:445  uint[4] public num */\n    tag_18:\n      0x00\n      dup2\n      0x04\n      dup2\n      lt\n      tag_33\n      jumpi\n      0x00\n      dup1\n      revert\n    tag_33:\n      add\n      0x00\n      swap2\n      pop\n      swap1\n      pop\n      sload\n      dup2\n      jump\t// out\n        /* \"Solidity100/sole100(41~50).sol\":625:688  function reset() public {... */\n    tag_22:\n        /* \"Solidity100/sole100(41~50).sol\":675:678  num */\n      0x00\n      dup1\n        /* \"Solidity100/sole100(41~50).sol\":668:678  delete num */\n      tag_36\n      swap2\n      swap1\n      tag_37\n      jump\t// in\n    tag_36:\n        /* \"Solidity100/sole100(41~50).sol\":625:688  function reset() public {... */\n      jump\t// out\n    tag_24:\n      mload(0x40)\n      dup1\n      0x80\n      add\n      0x40\n      mstore\n      dup1\n      0x04\n      swap1\n      0x20\n      dup3\n      mul\n      dup1\n      calldatasize\n      dup4\n      calldatacopy\n      dup1\n      dup3\n      add\n      swap2\n      pop\n      pop\n      swap1\n      pop\n      pop\n      swap1\n      jump\t// out\n    tag_37:\n      pop\n      0x00\n      dup2\n      sstore\n      0x01\n      add\n      0x00\n      dup2\n      sstore\n      0x01\n      add\n      0x00\n      dup2\n      sstore\n      0x01\n      add\n      0x00\n      swap1\n      sstore\n      jump\t// out\n        /* \"#utility.yul\":7:111   */\n    tag_38:\n        /* \"#utility.yul\":72:78   */\n      0x00\n        /* \"#utility.yul\":100:104   */\n      0x04\n        /* \"#utility.yul\":90:104   */\n      swap1\n      pop\n        /* \"#utility.yul\":7:111   */\n      swap2\n      swap1\n      pop\n      jump\t// out\n        /* \"#utility.yul\":117:260   */\n    tag_39:\n        /* \"#utility.yul\":214:225   */\n      0x00\n        /* \"#utility.yul\":251:254   */\n      dup2\n        /* \"#utility.yul\":236:254   */\n      swap1\n      pop\n        /* \"#utility.yul\":117:260   */\n      swap3\n      swap2\n      pop\n      pop\n      jump\t// out\n        /* \"#utility.yul\":266:364   */\n    tag_40:\n        /* \"#utility.yul\":331:335   */\n      0x00\n        /* \"#utility.yul\":354:357   */\n      dup2\n        /* \"#utility.yul\":346:357   */\n      swap1\n      pop\n        /* \"#utility.yul\":266:364   */\n      swap2\n      swap1\n      pop\n      jump\t// out\n        /* \"#utility.yul\":370:447   */\n    tag_41:\n        /* \"#utility.yul\":407:414   */\n      0x00\n        /* \"#utility.yul\":436:441   */\n      dup2\n        /* \"#utility.yul\":425:441   */\n      swap1\n      pop\n        /* \"#utility.yul\":370:447   */\n      swap2\n      swap1\n      pop\n      jump\t// out\n        /* \"#utility.yul\":453:561   */\n    tag_42:\n        /* \"#utility.yul\":530:554   */\n      tag_58\n        /* \"#utility.yul\":548:553   */\n      dup2\n        /* \"#utility.yul\":530:554   */\n      tag_41\n      jump\t// in\n    tag_58:\n        /* \"#utility.yul\":525:528   */\n      dup3\n        /* \"#utility.yul\":518:555   */\n      mstore\n        /* \"#utility.yul\":453:561   */\n      pop\n      pop\n      jump\t// out\n        /* \"#utility.yul\":567:746   */\n    tag_43:\n        /* \"#utility.yul\":636:646   */\n      0x00\n        /* \"#utility.yul\":657:703   */\n      tag_60\n        /* \"#utility.yul\":699:702   */\n      dup4\n        /* \"#utility.yul\":691:697   */\n      dup4\n        /* \"#utility.yul\":657:703   */\n      tag_42\n      jump\t// in\n    tag_60:\n        /* \"#utility.yul\":735:739   */\n      0x20\n        /* \"#utility.yul\":730:733   */\n      dup4\n        /* \"#utility.yul\":726:740   */\n      add\n        /* \"#utility.yul\":712:740   */\n      swap1\n      pop\n        /* \"#utility.yul\":567:746   */\n      swap3\n      swap2\n      pop\n      pop\n      jump\t// out\n        /* \"#utility.yul\":752:863   */\n    tag_44:\n        /* \"#utility.yul\":820:824   */\n      0x00\n        /* \"#utility.yul\":852:856   */\n      0x20\n        /* \"#utility.yul\":847:850   */\n      dup3\n        /* \"#utility.yul\":843:857   */\n      add\n        /* \"#utility.yul\":835:857   */\n      swap1\n      pop\n        /* \"#utility.yul\":752:863   */\n      swap2\n      swap1\n      pop\n      jump\t// out\n        /* \"#utility.yul\":901:1595   */\n    tag_45:\n        /* \"#utility.yul\":1037:1089   */\n      tag_63\n        /* \"#utility.yul\":1083:1088   */\n      dup2\n        /* \"#utility.yul\":1037:1089   */\n      tag_38\n      jump\t// in\n    tag_63:\n        /* \"#utility.yul\":1105:1189   */\n      tag_64\n        /* \"#utility.yul\":1182:1188   */\n      dup2\n        /* \"#utility.yul\":1177:1180   */\n      dup5\n        /* \"#utility.yul\":1105:1189   */\n      tag_39\n      jump\t// in\n    tag_64:\n        /* \"#utility.yul\":1098:1189   */\n      swap3\n      pop\n        /* \"#utility.yul\":1213:1267   */\n      tag_65\n        /* \"#utility.yul\":1261:1266   */\n      dup3\n        /* \"#utility.yul\":1213:1267   */\n      tag_40\n      jump\t// in\n    tag_65:\n        /* \"#utility.yul\":1290:1297   */\n      dup1\n        /* \"#utility.yul\":1321:1322   */\n      0x00\n        /* \"#utility.yul\":1306:1588   */\n    tag_66:\n        /* \"#utility.yul\":1331:1337   */\n      dup4\n        /* \"#utility.yul\":1328:1329   */\n      dup2\n        /* \"#utility.yul\":1325:1338   */\n      lt\n        /* \"#utility.yul\":1306:1588   */\n      iszero\n      tag_68\n      jumpi\n        /* \"#utility.yul\":1407:1413   */\n      dup2\n        /* \"#utility.yul\":1401:1414   */\n      mload\n        /* \"#utility.yul\":1434:1497   */\n      tag_69\n        /* \"#utility.yul\":1493:1496   */\n      dup8\n        /* \"#utility.yul\":1478:1491   */\n      dup3\n        /* \"#utility.yul\":1434:1497   */\n      tag_43\n      jump\t// in\n    tag_69:\n        /* \"#utility.yul\":1427:1497   */\n      swap7\n      pop\n        /* \"#utility.yul\":1520:1578   */\n      tag_70\n        /* \"#utility.yul\":1571:1577   */\n      dup4\n        /* \"#utility.yul\":1520:1578   */\n      tag_44\n      jump\t// in\n    tag_70:\n        /* \"#utility.yul\":1510:1578   */\n      swap3\n      pop\n        /* \"#utility.yul\":1366:1588   */\n      pop\n        /* \"#utility.yul\":1353:1354   */\n      0x01\n        /* \"#utility.yul\":1350:1351   */\n      dup2\n        /* \"#utility.yul\":1346:1355   */\n      add\n        /* \"#utility.yul\":1341:1355   */\n      swap1\n      pop\n        /* \"#utility.yul\":1306:1588   */\n      jump(tag_66)\n    tag_68:\n        /* \"#utility.yul\":1310:1324   */\n      pop\n        /* \"#utility.yul\":1013:1595   */\n      pop\n      pop\n      pop\n        /* \"#utility.yul\":901:1595   */\n      pop\n      pop\n      jump\t// out\n        /* \"#utility.yul\":1601:1916   */\n    tag_10:\n        /* \"#utility.yul\":1740:1744   */\n      0x00\n        /* \"#utility.yul\":1778:1781   */\n      0x80\n        /* \"#utility.yul\":1767:1776   */\n      dup3\n        /* \"#utility.yul\":1763:1782   */\n      add\n        /* \"#utility.yul\":1755:1782   */\n      swap1\n      pop\n        /* \"#utility.yul\":1792:1909   */\n      tag_72\n        /* \"#utility.yul\":1906:1907   */\n      0x00\n        /* \"#utility.yul\":1895:1904   */\n      dup4\n        /* \"#utility.yul\":1891:1908   */\n      add\n        /* \"#utility.yul\":1882:1888   */\n      dup5\n        /* \"#utility.yul\":1792:1909   */\n      tag_45\n      jump\t// in\n    tag_72:\n        /* \"#utility.yul\":1601:1916   */\n      swap3\n      swap2\n      pop\n      pop\n      jump\t// out\n        /* \"#utility.yul\":2003:2120   */\n    tag_47:\n        /* \"#utility.yul\":2112:2113   */\n      0x00\n        /* \"#utility.yul\":2109:2110   */\n      dup1\n        /* \"#utility.yul\":2102:2114   */\n      revert\n        /* \"#utility.yul\":2249:2371   */\n    tag_49:\n        /* \"#utility.yul\":2322:2346   */\n      tag_77\n        /* \"#utility.yul\":2340:2345   */\n      dup2\n        /* \"#utility.yul\":2322:2346   */\n      tag_41\n      jump\t// in\n    tag_77:\n        /* \"#utility.yul\":2315:2320   */\n      dup2\n        /* \"#utility.yul\":2312:2347   */\n      eq\n        /* \"#utility.yul\":2302:2365   */\n      tag_78\n      jumpi\n        /* \"#utility.yul\":2361:2362   */\n      0x00\n        /* \"#utility.yul\":2358:2359   */\n      dup1\n        /* \"#utility.yul\":2351:2363   */\n      revert\n        /* \"#utility.yul\":2302:2365   */\n    tag_78:\n        /* \"#utility.yul\":2249:2371   */\n      pop\n      jump\t// out\n        /* \"#utility.yul\":2377:2516   */\n    tag_50:\n        /* \"#utility.yul\":2423:2428   */\n      0x00\n        /* \"#utility.yul\":2461:2467   */\n      dup2\n        /* \"#utility.yul\":2448:2468   */\n      calldataload\n        /* \"#utility.yul\":2439:2468   */\n      swap1\n      pop\n        /* \"#utility.yul\":2477:2510   */\n      tag_80\n        /* \"#utility.yul\":2504:2509   */\n      dup2\n        /* \"#utility.yul\":2477:2510   */\n      tag_49\n      jump\t// in\n    tag_80:\n        /* \"#utility.yul\":2377:2516   */\n      swap3\n      swap2\n      pop\n      pop\n      jump\t// out\n        /* \"#utility.yul\":2522:2996   */\n    tag_13:\n        /* \"#utility.yul\":2590:2596   */\n      0x00\n        /* \"#utility.yul\":2598:2604   */\n      dup1\n        /* \"#utility.yul\":2647:2649   */\n      0x40\n        /* \"#utility.yul\":2635:2644   */\n      dup4\n        /* \"#utility.yul\":2626:2633   */\n      dup6\n        /* \"#utility.yul\":2622:2645   */\n      sub\n        /* \"#utility.yul\":2618:2650   */\n      slt\n        /* \"#utility.yul\":2615:2734   */\n      iszero\n      tag_82\n      jumpi\n        /* \"#utility.yul\":2653:2732   */\n      tag_83\n      tag_47\n      jump\t// in\n    tag_83:\n        /* \"#utility.yul\":2615:2734   */\n    tag_82:\n        /* \"#utility.yul\":2773:2774   */\n      0x00\n        /* \"#utility.yul\":2798:2851   */\n      tag_84\n        /* \"#utility.yul\":2843:2850   */\n      dup6\n        /* \"#utility.yul\":2834:2840   */\n      dup3\n        /* \"#utility.yul\":2823:2832   */\n      dup7\n        /* \"#utility.yul\":2819:2841   */\n      add\n        /* \"#utility.yul\":2798:2851   */\n      tag_50\n      jump\t// in\n    tag_84:\n        /* \"#utility.yul\":2788:2851   */\n      swap3\n      pop\n        /* \"#utility.yul\":2744:2861   */\n      pop\n        /* \"#utility.yul\":2900:2902   */\n      0x20\n        /* \"#utility.yul\":2926:2979   */\n      tag_85\n        /* \"#utility.yul\":2971:2978   */\n      dup6\n        /* \"#utility.yul\":2962:2968   */\n      dup3\n        /* \"#utility.yul\":2951:2960   */\n      dup7\n        /* \"#utility.yul\":2947:2969   */\n      add\n        /* \"#utility.yul\":2926:2979   */\n      tag_50\n      jump\t// in\n    tag_85:\n        /* \"#utility.yul\":2916:2979   */\n      swap2\n      pop\n        /* \"#utility.yul\":2871:2989   */\n      pop\n        /* \"#utility.yul\":2522:2996   */\n      swap3\n      pop\n      swap3\n      swap1\n      pop\n      jump\t// out\n        /* \"#utility.yul\":3002:3331   */\n    tag_17:\n        /* \"#utility.yul\":3061:3067   */\n      0x00\n        /* \"#utility.yul\":3110:3112   */\n      0x20\n        /* \"#utility.yul\":3098:3107   */\n      dup3\n        /* \"#utility.yul\":3089:3096   */\n      dup5\n        /* \"#utility.yul\":3085:3108   */\n      sub\n        /* \"#utility.yul\":3081:3113   */\n      slt\n        /* \"#utility.yul\":3078:3197   */\n      iszero\n      tag_87\n      jumpi\n        /* \"#utility.yul\":3116:3195   */\n      tag_88\n      tag_47\n      jump\t// in\n    tag_88:\n        /* \"#utility.yul\":3078:3197   */\n    tag_87:\n        /* \"#utility.yul\":3236:3237   */\n      0x00\n        /* \"#utility.yul\":3261:3314   */\n      tag_89\n        /* \"#utility.yul\":3306:3313   */\n      dup5\n        /* \"#utility.yul\":3297:3303   */\n      dup3\n        /* \"#utility.yul\":3286:3295   */\n      dup6\n        /* \"#utility.yul\":3282:3304   */\n      add\n        /* \"#utility.yul\":3261:3314   */\n      tag_50\n      jump\t// in\n    tag_89:\n        /* \"#utility.yul\":3251:3314   */\n      swap2\n      pop\n        /* \"#utility.yul\":3207:3324   */\n      pop\n        /* \"#utility.yul\":3002:3331   */\n      swap3\n      swap2\n      pop\n      pop\n      jump\t// out\n        /* \"#utility.yul\":3337:3455   */\n    tag_51:\n        /* \"#utility.yul\":3424:3448   */\n      tag_91\n        /* \"#utility.yul\":3442:3447   */\n      dup2\n        /* \"#utility.yul\":3424:3448   */\n      tag_41\n      jump\t// in\n    tag_91:\n        /* \"#utility.yul\":3419:3422   */\n      dup3\n        /* \"#utility.yul\":3412:3449   */\n      mstore\n        /* \"#utility.yul\":3337:3455   */\n      pop\n      pop\n      jump\t// out\n        /* \"#utility.yul\":3461:3683   */\n    tag_20:\n        /* \"#utility.yul\":3554:3558   */\n      0x00\n        /* \"#utility.yul\":3592:3594   */\n      0x20\n        /* \"#utility.yul\":3581:3590   */\n      dup3\n        /* \"#utility.yul\":3577:3595   */\n      add\n        /* \"#utility.yul\":3569:3595   */\n      swap1\n      pop\n        /* \"#utility.yul\":3605:3676   */\n      tag_93\n        /* \"#utility.yul\":3673:3674   */\n      0x00\n        /* \"#utility.yul\":3662:3671   */\n      dup4\n        /* \"#utility.yul\":3658:3675   */\n      add\n        /* \"#utility.yul\":3649:3655   */\n      dup5\n        /* \"#utility.yul\":3605:3676   */\n      tag_51\n      jump\t// in\n    tag_93:\n        /* \"#utility.yul\":3461:3683   */\n      swap3\n      swap2\n      pop\n      pop\n      jump\t// out\n        /* \"#utility.yul\":3689:3869   */\n    tag_31:\n        /* \"#utility.yul\":3737:3814   */\n      0x4e487b7100000000000000000000000000000000000000000000000000000000\n        /* \"#utility.yul\":3734:3735   */\n      0x00\n        /* \"#utility.yul\":3727:3815   */\n      mstore\n        /* \"#utility.yul\":3834:3838   */\n      0x32\n        /* \"#utility.yul\":3831:3832   */\n      0x04\n        /* \"#utility.yul\":3824:3839   */\n      mstore\n        /* \"#utility.yul\":3858:3862   */\n      0x24\n        /* \"#utility.yul\":3855:3856   */\n      0x00\n        /* \"#utility.yul\":3848:3863   */\n      revert\n\n    auxdata: 0xa264697066735822122021834031f19701193e00173dd58323b1b7eca37fe65732ea064facc0b8d340dd64736f6c634300081a0033\n}\n",
				"bytecode": {
					"linkReferences": {},
					"object": "6080604052348015600e575f80fd5b506103728061001c5f395ff3fe608060405234801561000f575f80fd5b506004361061004a575f3560e01c806367e0badb1461004e578063782c523b1461006c578063aa228b7514610088578063d826f88f146100b8575b5f80fd5b6100566100c2565b6040516100639190610237565b60405180910390f35b6100866004803603810190610081919061027e565b61010c565b005b6100a2600480360381019061009d91906102bc565b610129565b6040516100af91906102f6565b60405180910390f35b6100c0610141565b005b6100ca61014f565b5f600480602002604051908101604052809291908260048015610102576020028201915b8154815260200190600101908083116100ee575b5050505050905090565b805f83600481106101205761011f61030f565b5b01819055505050565b5f8160048110610137575f80fd5b015f915090505481565b5f8061014d9190610171565b565b6040518060800160405280600490602082028036833780820191505090505090565b505f81556001015f81556001015f81556001015f9055565b5f60049050919050565b5f81905092915050565b5f819050919050565b5f819050919050565b6101b8816101a6565b82525050565b5f6101c983836101af565b60208301905092915050565b5f602082019050919050565b6101ea81610189565b6101f48184610193565b92506101ff8261019d565b805f5b8381101561022f57815161021687826101be565b9650610221836101d5565b925050600181019050610202565b505050505050565b5f60808201905061024a5f8301846101e1565b92915050565b5f80fd5b61025d816101a6565b8114610267575f80fd5b50565b5f8135905061027881610254565b92915050565b5f806040838503121561029457610293610250565b5b5f6102a18582860161026a565b92505060206102b28582860161026a565b9150509250929050565b5f602082840312156102d1576102d0610250565b5b5f6102de8482850161026a565b91505092915050565b6102f0816101a6565b82525050565b5f6020820190506103095f8301846102e7565b92915050565b7f4e487b71000000000000000000000000000000000000000000000000000000005f52603260045260245ffdfea264697066735822122021834031f19701193e00173dd58323b1b7eca37fe65732ea064facc0b8d340dd64736f6c634300081a0033",
					"opcodes": "PUSH1 0x80 PUSH1 0x40 MSTORE CALLVALUE DUP1 ISZERO PUSH1 0xE JUMPI PUSH0 DUP1 REVERT JUMPDEST POP PUSH2 0x372 DUP1 PUSH2 0x1C PUSH0 CODECOPY PUSH0 RETURN INVALID PUSH1 0x80 PUSH1 0x40 MSTORE CALLVALUE DUP1 ISZERO PUSH2 0xF JUMPI PUSH0 DUP1 REVERT JUMPDEST POP PUSH1 0x4 CALLDATASIZE LT PUSH2 0x4A JUMPI PUSH0 CALLDATALOAD PUSH1 0xE0 SHR DUP1 PUSH4 0x67E0BADB EQ PUSH2 0x4E JUMPI DUP1 PUSH4 0x782C523B EQ PUSH2 0x6C JUMPI DUP1 PUSH4 0xAA228B75 EQ PUSH2 0x88 JUMPI DUP1 PUSH4 0xD826F88F EQ PUSH2 0xB8 JUMPI JUMPDEST PUSH0 DUP1 REVERT JUMPDEST PUSH2 0x56 PUSH2 0xC2 JUMP JUMPDEST PUSH1 0x40 MLOAD PUSH2 0x63 SWAP2 SWAP1 PUSH2 0x237 JUMP JUMPDEST PUSH1 0x40 MLOAD DUP1 SWAP2 SUB SWAP1 RETURN JUMPDEST PUSH2 0x86 PUSH1 0x4 DUP1 CALLDATASIZE SUB DUP2 ADD SWAP1 PUSH2 0x81 SWAP2 SWAP1 PUSH2 0x27E JUMP JUMPDEST PUSH2 0x10C JUMP JUMPDEST STOP JUMPDEST PUSH2 0xA2 PUSH1 0x4 DUP1 CALLDATASIZE SUB DUP2 ADD SWAP1 PUSH2 0x9D SWAP2 SWAP1 PUSH2 0x2BC JUMP JUMPDEST PUSH2 0x129 JUMP JUMPDEST PUSH1 0x40 MLOAD PUSH2 0xAF SWAP2 SWAP1 PUSH2 0x2F6 JUMP JUMPDEST PUSH1 0x40 MLOAD DUP1 SWAP2 SUB SWAP1 RETURN JUMPDEST PUSH2 0xC0 PUSH2 0x141 JUMP JUMPDEST STOP JUMPDEST PUSH2 0xCA PUSH2 0x14F JUMP JUMPDEST PUSH0 PUSH1 0x4 DUP1 PUSH1 0x20 MUL PUSH1 0x40 MLOAD SWAP1 DUP2 ADD PUSH1 0x40 MSTORE DUP1 SWAP3 SWAP2 SWAP1 DUP3 PUSH1 0x4 DUP1 ISZERO PUSH2 0x102 JUMPI PUSH1 0x20 MUL DUP3 ADD SWAP2 JUMPDEST DUP2 SLOAD DUP2 MSTORE PUSH1 0x20 ADD SWAP1 PUSH1 0x1 ADD SWAP1 DUP1 DUP4 GT PUSH2 0xEE JUMPI JUMPDEST POP POP POP POP POP SWAP1 POP SWAP1 JUMP JUMPDEST DUP1 PUSH0 DUP4 PUSH1 0x4 DUP2 LT PUSH2 0x120 JUMPI PUSH2 0x11F PUSH2 0x30F JUMP JUMPDEST JUMPDEST ADD DUP2 SWAP1 SSTORE POP POP POP JUMP JUMPDEST PUSH0 DUP2 PUSH1 0x4 DUP2 LT PUSH2 0x137 JUMPI PUSH0 DUP1 REVERT JUMPDEST ADD PUSH0 SWAP2 POP SWAP1 POP SLOAD DUP2 JUMP JUMPDEST PUSH0 DUP1 PUSH2 0x14D SWAP2 SWAP1 PUSH2 0x171 JUMP JUMPDEST JUMP JUMPDEST PUSH1 0x40 MLOAD DUP1 PUSH1 0x80 ADD PUSH1 0x40 MSTORE DUP1 PUSH1 0x4 SWAP1 PUSH1 0x20 DUP3 MUL DUP1 CALLDATASIZE DUP4 CALLDATACOPY DUP1 DUP3 ADD SWAP2 POP POP SWAP1 POP POP SWAP1 JUMP JUMPDEST POP PUSH0 DUP2 SSTORE PUSH1 0x1 ADD PUSH0 DUP2 SSTORE PUSH1 0x1 ADD PUSH0 DUP2 SSTORE PUSH1 0x1 ADD PUSH0 SWAP1 SSTORE JUMP JUMPDEST PUSH0 PUSH1 0x4 SWAP1 POP SWAP2 SWAP1 POP JUMP JUMPDEST PUSH0 DUP2 SWAP1 POP SWAP3 SWAP2 POP POP JUMP JUMPDEST PUSH0 DUP2 SWAP1 POP SWAP2 SWAP1 POP JUMP JUMPDEST PUSH0 DUP2 SWAP1 POP SWAP2 SWAP1 POP JUMP JUMPDEST PUSH2 0x1B8 DUP2 PUSH2 0x1A6 JUMP JUMPDEST DUP3 MSTORE POP POP JUMP JUMPDEST PUSH0 PUSH2 0x1C9 DUP4 DUP4 PUSH2 0x1AF JUMP JUMPDEST PUSH1 0x20 DUP4 ADD SWAP1 POP SWAP3 SWAP2 POP POP JUMP JUMPDEST PUSH0 PUSH1 0x20 DUP3 ADD SWAP1 POP SWAP2 SWAP1 POP JUMP JUMPDEST PUSH2 0x1EA DUP2 PUSH2 0x189 JUMP JUMPDEST PUSH2 0x1F4 DUP2 DUP5 PUSH2 0x193 JUMP JUMPDEST SWAP3 POP PUSH2 0x1FF DUP3 PUSH2 0x19D JUMP JUMPDEST DUP1 PUSH0 JUMPDEST DUP4 DUP2 LT ISZERO PUSH2 0x22F JUMPI DUP2 MLOAD PUSH2 0x216 DUP8 DUP3 PUSH2 0x1BE JUMP JUMPDEST SWAP7 POP PUSH2 0x221 DUP4 PUSH2 0x1D5 JUMP JUMPDEST SWAP3 POP POP PUSH1 0x1 DUP2 ADD SWAP1 POP PUSH2 0x202 JUMP JUMPDEST POP POP POP POP POP POP JUMP JUMPDEST PUSH0 PUSH1 0x80 DUP3 ADD SWAP1 POP PUSH2 0x24A PUSH0 DUP4 ADD DUP5 PUSH2 0x1E1 JUMP JUMPDEST SWAP3 SWAP2 POP POP JUMP JUMPDEST PUSH0 DUP1 REVERT JUMPDEST PUSH2 0x25D DUP2 PUSH2 0x1A6 JUMP JUMPDEST DUP2 EQ PUSH2 0x267 JUMPI PUSH0 DUP1 REVERT JUMPDEST POP JUMP JUMPDEST PUSH0 DUP2 CALLDATALOAD SWAP1 POP PUSH2 0x278 DUP2 PUSH2 0x254 JUMP JUMPDEST SWAP3 SWAP2 POP POP JUMP JUMPDEST PUSH0 DUP1 PUSH1 0x40 DUP4 DUP6 SUB SLT ISZERO PUSH2 0x294 JUMPI PUSH2 0x293 PUSH2 0x250 JUMP JUMPDEST JUMPDEST PUSH0 PUSH2 0x2A1 DUP6 DUP3 DUP7 ADD PUSH2 0x26A JUMP JUMPDEST SWAP3 POP POP PUSH1 0x20 PUSH2 0x2B2 DUP6 DUP3 DUP7 ADD PUSH2 0x26A JUMP JUMPDEST SWAP2 POP POP SWAP3 POP SWAP3 SWAP1 POP JUMP JUMPDEST PUSH0 PUSH1 0x20 DUP3 DUP5 SUB SLT ISZERO PUSH2 0x2D1 JUMPI PUSH2 0x2D0 PUSH2 0x250 JUMP JUMPDEST JUMPDEST PUSH0 PUSH2 0x2DE DUP5 DUP3 DUP6 ADD PUSH2 0x26A JUMP JUMPDEST SWAP2 POP POP SWAP3 SWAP2 POP POP JUMP JUMPDEST PUSH2 0x2F0 DUP2 PUSH2 0x1A6 JUMP JUMPDEST DUP3 MSTORE POP POP JUMP JUMPDEST PUSH0 PUSH1 0x20 DUP3 ADD SWAP1 POP PUSH2 0x309 PUSH0 DUP4 ADD DUP5 PUSH2 0x2E7 JUMP JUMPDEST SWAP3 SWAP2 POP POP JUMP JUMPDEST PUSH32 0x4E487B7100000000000000000000000000000000000000000000000000000000 PUSH0 MSTORE PUSH1 0x32 PUSH1 0x4 MSTORE PUSH1 0x24 PUSH0 REVERT INVALID LOG2 PUSH5 0x6970667358 0x22 SLT KECCAK256 0x21 DUP4 BLOCKHASH BALANCE CALL SWAP8 ADD NOT RETURNDATACOPY STOP OR RETURNDATASIZE 0xD5 DUP4 0x23 0xB1 0xB7 0xEC LOG3 PUSH32 0xE65732EA064FACC0B8D340DD64736F6C634300081A0033000000000000000000 "
				},
				"gasEstimates": {
					"creation": {
						"codeDepositCost": "176400",
						"executionCost": "218",
						"totalCost": "176618"
					},
					"external": {
						"getNum()": "infinite",
						"num(uint256)": "infinite",
						"reset()": "20262",
						"setNum(uint256,uint256)": "infinite"
					}
				},
				"methodIdentifiers": {
					"getNum()": "67e0badb",
					"num(uint256)": "aa228b75",
					"reset()": "d826f88f",
					"setNum(uint256,uint256)": "782c523b"
				}
			},
			"storageLayout": {
				"storage": [
					{
						"astId": 1419,
						"contract": "Solidity100/sole100(41~50).sol:Q41",
						"label": "num",
						"offset": 0,
						"slot": "0",
						"type": "t_array(t_uint256)4_storage"
					}
				],
				"types": {
					"t_array(t_uint256)4_storage": {
						"base": "t_uint256",
						"encoding": "inplace",
						"label": "uint256[4]",
						"numberOfBytes": "128"
					},
					"t_uint256": {
						"encoding": "inplace",
						"label": "uint256",
						"numberOfBytes": "32"
					}
				}
			},
			"userdoc": {
				"kind": "user",
				"methods": {},
				"version": 1
			}
		}
	}
}