{
	"Solidity100/sol100(81~90).sol": {
		"Q85": {
			"abi": [
				{
					"inputs": [
						{
							"internalType": "string",
							"name": "_IsAgree",
							"type": "string"
						}
					],
					"name": "vote",
					"outputs": [],
					"stateMutability": "nonpayable",
					"type": "function"
				}
			],
			"devdoc": {
				"kind": "dev",
				"methods": {},
				"version": 1
			},
			"evm": {
				"assembly": "    /* \"Solidity100/sol100(81~90).sol\":1709:2350  contract Q85 {... */\n  mstore(0x40, 0x80)\n  callvalue\n  dup1\n  iszero\n  tag_1\n  jumpi\n  0x00\n  dup1\n  revert\ntag_1:\n  pop\n  dataSize(sub_0)\n  dup1\n  dataOffset(sub_0)\n  0x00\n  codecopy\n  0x00\n  return\nstop\n\nsub_0: assembly {\n        /* \"Solidity100/sol100(81~90).sol\":1709:2350  contract Q85 {... */\n      mstore(0x40, 0x80)\n      callvalue\n      dup1\n      iszero\n      tag_1\n      jumpi\n      0x00\n      dup1\n      revert\n    tag_1:\n      pop\n      jumpi(tag_2, lt(calldatasize, 0x04))\n      shr(0xe0, calldataload(0x00))\n      dup1\n      0xfc36e15b\n      eq\n      tag_3\n      jumpi\n    tag_2:\n      0x00\n      dup1\n      revert\n        /* \"Solidity100/sol100(81~90).sol\":1998:2345  function vote(string memory _IsAgree) public {... */\n    tag_3:\n      tag_4\n      0x04\n      dup1\n      calldatasize\n      sub\n      dup2\n      add\n      swap1\n      tag_5\n      swap2\n      swap1\n      tag_6\n      jump\t// in\n    tag_5:\n      tag_7\n      jump\t// in\n    tag_4:\n      stop\n    tag_7:\n        /* \"Solidity100/sol100(81~90).sol\":2081:2093  block.number */\n      number\n        /* \"Solidity100/sol100(81~90).sol\":2076:2078  20 */\n      0x14\n        /* \"Solidity100/sol100(81~90).sol\":2062:2074  block.number */\n      number\n        /* \"Solidity100/sol100(81~90).sol\":2062:2078  block.number +20 */\n      tag_9\n      swap2\n      swap1\n      tag_10\n      jump\t// in\n    tag_9:\n        /* \"Solidity100/sol100(81~90).sol\":2062:2093  block.number +20 > block.number */\n      gt\n        /* \"Solidity100/sol100(81~90).sol\":2054:2094  require(block.number +20 > block.number) */\n      tag_11\n      jumpi\n      0x00\n      dup1\n      revert\n    tag_11:\n        /* \"Solidity100/sol100(81~90).sol\":2162:2185  abi.encodePacked(\"yes\") */\n      add(0x20, mload(0x40))\n      tag_12\n      swap1\n      tag_13\n      jump\t// in\n    tag_12:\n      mload(0x40)\n      0x20\n      dup2\n      dup4\n      sub\n      sub\n      dup2\n      mstore\n      swap1\n      0x40\n      mstore\n        /* \"Solidity100/sol100(81~90).sol\":2152:2186  keccak256(abi.encodePacked(\"yes\")) */\n      dup1\n      mload\n      swap1\n      0x20\n      add\n      keccak256\n        /* \"Solidity100/sol100(81~90).sol\":2138:2146  _IsAgree */\n      dup2\n        /* \"Solidity100/sol100(81~90).sol\":2121:2147  abi.encodePacked(_IsAgree) */\n      add(0x20, mload(0x40))\n      tag_14\n      swap2\n      swap1\n      tag_15\n      jump\t// in\n    tag_14:\n      mload(0x40)\n      0x20\n      dup2\n      dup4\n      sub\n      sub\n      dup2\n      mstore\n      swap1\n      0x40\n      mstore\n        /* \"Solidity100/sol100(81~90).sol\":2111:2148  keccak256(abi.encodePacked(_IsAgree)) */\n      dup1\n      mload\n      swap1\n      0x20\n      add\n      keccak256\n        /* \"Solidity100/sol100(81~90).sol\":2111:2186  keccak256(abi.encodePacked(_IsAgree)) == keccak256(abi.encodePacked(\"yes\")) */\n      sub\n        /* \"Solidity100/sol100(81~90).sol\":2107:2336  if (keccak256(abi.encodePacked(_IsAgree)) == keccak256(abi.encodePacked(\"yes\"))) {... */\n      tag_16\n      jumpi\n        /* \"Solidity100/sol100(81~90).sol\":2203:2204  a */\n      0x00\n      dup1\n        /* \"Solidity100/sol100(81~90).sol\":2203:2206  a++ */\n      dup2\n      sload\n      dup1\n      swap3\n      swap2\n      swap1\n      tag_17\n      swap1\n      tag_18\n      jump\t// in\n    tag_17:\n      swap2\n      swap1\n      pop\n      sstore\n      pop\n        /* \"Solidity100/sol100(81~90).sol\":2107:2336  if (keccak256(abi.encodePacked(_IsAgree)) == keccak256(abi.encodePacked(\"yes\"))) {... */\n      jump(tag_19)\n    tag_16:\n        /* \"Solidity100/sol100(81~90).sol\":2280:2302  abi.encodePacked(\"no\") */\n      add(0x20, mload(0x40))\n      tag_20\n      swap1\n      tag_21\n      jump\t// in\n    tag_20:\n      mload(0x40)\n      0x20\n      dup2\n      dup4\n      sub\n      sub\n      dup2\n      mstore\n      swap1\n      0x40\n      mstore\n        /* \"Solidity100/sol100(81~90).sol\":2270:2303  keccak256(abi.encodePacked(\"no\")) */\n      dup1\n      mload\n      swap1\n      0x20\n      add\n      keccak256\n        /* \"Solidity100/sol100(81~90).sol\":2256:2264  _IsAgree */\n      dup2\n        /* \"Solidity100/sol100(81~90).sol\":2239:2265  abi.encodePacked(_IsAgree) */\n      add(0x20, mload(0x40))\n      tag_22\n      swap2\n      swap1\n      tag_15\n      jump\t// in\n    tag_22:\n      mload(0x40)\n      0x20\n      dup2\n      dup4\n      sub\n      sub\n      dup2\n      mstore\n      swap1\n      0x40\n      mstore\n        /* \"Solidity100/sol100(81~90).sol\":2229:2266  keccak256(abi.encodePacked(_IsAgree)) */\n      dup1\n      mload\n      swap1\n      0x20\n      add\n      keccak256\n        /* \"Solidity100/sol100(81~90).sol\":2229:2303  keccak256(abi.encodePacked(_IsAgree)) == keccak256(abi.encodePacked(\"no\")) */\n      sub\n        /* \"Solidity100/sol100(81~90).sol\":2224:2336  if ((keccak256(abi.encodePacked(_IsAgree)) == keccak256(abi.encodePacked(\"no\")))) {... */\n      tag_23\n      jumpi\n        /* \"Solidity100/sol100(81~90).sol\":2321:2322  b */\n      0x01\n      0x00\n        /* \"Solidity100/sol100(81~90).sol\":2321:2324  b++ */\n      dup2\n      sload\n      dup1\n      swap3\n      swap2\n      swap1\n      tag_24\n      swap1\n      tag_18\n      jump\t// in\n    tag_24:\n      swap2\n      swap1\n      pop\n      sstore\n      pop\n        /* \"Solidity100/sol100(81~90).sol\":2224:2336  if ((keccak256(abi.encodePacked(_IsAgree)) == keccak256(abi.encodePacked(\"no\")))) {... */\n    tag_23:\n        /* \"Solidity100/sol100(81~90).sol\":2107:2336  if (keccak256(abi.encodePacked(_IsAgree)) == keccak256(abi.encodePacked(\"yes\"))) {... */\n    tag_19:\n        /* \"Solidity100/sol100(81~90).sol\":1998:2345  function vote(string memory _IsAgree) public {... */\n      pop\n      jump\t// out\n        /* \"#utility.yul\":7:82   */\n    tag_25:\n        /* \"#utility.yul\":40:46   */\n      0x00\n        /* \"#utility.yul\":73:75   */\n      0x40\n        /* \"#utility.yul\":67:76   */\n      mload\n        /* \"#utility.yul\":57:76   */\n      swap1\n      pop\n        /* \"#utility.yul\":7:82   */\n      swap1\n      jump\t// out\n        /* \"#utility.yul\":88:205   */\n    tag_26:\n        /* \"#utility.yul\":197:198   */\n      0x00\n        /* \"#utility.yul\":194:195   */\n      dup1\n        /* \"#utility.yul\":187:199   */\n      revert\n        /* \"#utility.yul\":211:328   */\n    tag_27:\n        /* \"#utility.yul\":320:321   */\n      0x00\n        /* \"#utility.yul\":317:318   */\n      dup1\n        /* \"#utility.yul\":310:322   */\n      revert\n        /* \"#utility.yul\":334:451   */\n    tag_28:\n        /* \"#utility.yul\":443:444   */\n      0x00\n        /* \"#utility.yul\":440:441   */\n      dup1\n        /* \"#utility.yul\":433:445   */\n      revert\n        /* \"#utility.yul\":457:574   */\n    tag_29:\n        /* \"#utility.yul\":566:567   */\n      0x00\n        /* \"#utility.yul\":563:564   */\n      dup1\n        /* \"#utility.yul\":556:568   */\n      revert\n        /* \"#utility.yul\":580:682   */\n    tag_30:\n        /* \"#utility.yul\":621:627   */\n      0x00\n        /* \"#utility.yul\":672:674   */\n      0x1f\n        /* \"#utility.yul\":668:675   */\n      not\n        /* \"#utility.yul\":663:665   */\n      0x1f\n        /* \"#utility.yul\":656:661   */\n      dup4\n        /* \"#utility.yul\":652:666   */\n      add\n        /* \"#utility.yul\":648:676   */\n      and\n        /* \"#utility.yul\":638:676   */\n      swap1\n      pop\n        /* \"#utility.yul\":580:682   */\n      swap2\n      swap1\n      pop\n      jump\t// out\n        /* \"#utility.yul\":688:868   */\n    tag_31:\n        /* \"#utility.yul\":736:813   */\n      0x4e487b7100000000000000000000000000000000000000000000000000000000\n        /* \"#utility.yul\":733:734   */\n      0x00\n        /* \"#utility.yul\":726:814   */\n      mstore\n        /* \"#utility.yul\":833:837   */\n      0x41\n        /* \"#utility.yul\":830:831   */\n      0x04\n        /* \"#utility.yul\":823:838   */\n      mstore\n        /* \"#utility.yul\":857:861   */\n      0x24\n        /* \"#utility.yul\":854:855   */\n      0x00\n        /* \"#utility.yul\":847:862   */\n      revert\n        /* \"#utility.yul\":874:1155   */\n    tag_32:\n        /* \"#utility.yul\":957:984   */\n      tag_57\n        /* \"#utility.yul\":979:983   */\n      dup3\n        /* \"#utility.yul\":957:984   */\n      tag_30\n      jump\t// in\n    tag_57:\n        /* \"#utility.yul\":949:955   */\n      dup2\n        /* \"#utility.yul\":945:985   */\n      add\n        /* \"#utility.yul\":1087:1093   */\n      dup2\n        /* \"#utility.yul\":1075:1085   */\n      dup2\n        /* \"#utility.yul\":1072:1094   */\n      lt\n        /* \"#utility.yul\":1051:1069   */\n      0xffffffffffffffff\n        /* \"#utility.yul\":1039:1049   */\n      dup3\n        /* \"#utility.yul\":1036:1070   */\n      gt\n        /* \"#utility.yul\":1033:1095   */\n      or\n        /* \"#utility.yul\":1030:1118   */\n      iszero\n      tag_58\n      jumpi\n        /* \"#utility.yul\":1098:1116   */\n      tag_59\n      tag_31\n      jump\t// in\n    tag_59:\n        /* \"#utility.yul\":1030:1118   */\n    tag_58:\n        /* \"#utility.yul\":1138:1148   */\n      dup1\n        /* \"#utility.yul\":1134:1136   */\n      0x40\n        /* \"#utility.yul\":1127:1149   */\n      mstore\n        /* \"#utility.yul\":917:1155   */\n      pop\n        /* \"#utility.yul\":874:1155   */\n      pop\n      pop\n      jump\t// out\n        /* \"#utility.yul\":1161:1290   */\n    tag_33:\n        /* \"#utility.yul\":1195:1201   */\n      0x00\n        /* \"#utility.yul\":1222:1242   */\n      tag_61\n      tag_25\n      jump\t// in\n    tag_61:\n        /* \"#utility.yul\":1212:1242   */\n      swap1\n      pop\n        /* \"#utility.yul\":1251:1284   */\n      tag_62\n        /* \"#utility.yul\":1279:1283   */\n      dup3\n        /* \"#utility.yul\":1271:1277   */\n      dup3\n        /* \"#utility.yul\":1251:1284   */\n      tag_32\n      jump\t// in\n    tag_62:\n        /* \"#utility.yul\":1161:1290   */\n      swap2\n      swap1\n      pop\n      jump\t// out\n        /* \"#utility.yul\":1296:1604   */\n    tag_34:\n        /* \"#utility.yul\":1358:1362   */\n      0x00\n        /* \"#utility.yul\":1448:1466   */\n      0xffffffffffffffff\n        /* \"#utility.yul\":1440:1446   */\n      dup3\n        /* \"#utility.yul\":1437:1467   */\n      gt\n        /* \"#utility.yul\":1434:1490   */\n      iszero\n      tag_64\n      jumpi\n        /* \"#utility.yul\":1470:1488   */\n      tag_65\n      tag_31\n      jump\t// in\n    tag_65:\n        /* \"#utility.yul\":1434:1490   */\n    tag_64:\n        /* \"#utility.yul\":1508:1537   */\n      tag_66\n        /* \"#utility.yul\":1530:1536   */\n      dup3\n        /* \"#utility.yul\":1508:1537   */\n      tag_30\n      jump\t// in\n    tag_66:\n        /* \"#utility.yul\":1500:1537   */\n      swap1\n      pop\n        /* \"#utility.yul\":1592:1596   */\n      0x20\n        /* \"#utility.yul\":1586:1590   */\n      dup2\n        /* \"#utility.yul\":1582:1597   */\n      add\n        /* \"#utility.yul\":1574:1597   */\n      swap1\n      pop\n        /* \"#utility.yul\":1296:1604   */\n      swap2\n      swap1\n      pop\n      jump\t// out\n        /* \"#utility.yul\":1610:1758   */\n    tag_35:\n        /* \"#utility.yul\":1708:1714   */\n      dup3\n        /* \"#utility.yul\":1703:1706   */\n      dup2\n        /* \"#utility.yul\":1698:1701   */\n      dup4\n        /* \"#utility.yul\":1685:1715   */\n      calldatacopy\n        /* \"#utility.yul\":1749:1750   */\n      0x00\n        /* \"#utility.yul\":1740:1746   */\n      dup4\n        /* \"#utility.yul\":1735:1738   */\n      dup4\n        /* \"#utility.yul\":1731:1747   */\n      add\n        /* \"#utility.yul\":1724:1751   */\n      mstore\n        /* \"#utility.yul\":1610:1758   */\n      pop\n      pop\n      pop\n      jump\t// out\n        /* \"#utility.yul\":1764:2189   */\n    tag_36:\n        /* \"#utility.yul\":1842:1847   */\n      0x00\n        /* \"#utility.yul\":1867:1933   */\n      tag_69\n        /* \"#utility.yul\":1883:1932   */\n      tag_70\n        /* \"#utility.yul\":1925:1931   */\n      dup5\n        /* \"#utility.yul\":1883:1932   */\n      tag_34\n      jump\t// in\n    tag_70:\n        /* \"#utility.yul\":1867:1933   */\n      tag_33\n      jump\t// in\n    tag_69:\n        /* \"#utility.yul\":1858:1933   */\n      swap1\n      pop\n        /* \"#utility.yul\":1956:1962   */\n      dup3\n        /* \"#utility.yul\":1949:1954   */\n      dup2\n        /* \"#utility.yul\":1942:1963   */\n      mstore\n        /* \"#utility.yul\":1994:1998   */\n      0x20\n        /* \"#utility.yul\":1987:1992   */\n      dup2\n        /* \"#utility.yul\":1983:1999   */\n      add\n        /* \"#utility.yul\":2032:2035   */\n      dup5\n        /* \"#utility.yul\":2023:2029   */\n      dup5\n        /* \"#utility.yul\":2018:2021   */\n      dup5\n        /* \"#utility.yul\":2014:2030   */\n      add\n        /* \"#utility.yul\":2011:2036   */\n      gt\n        /* \"#utility.yul\":2008:2120   */\n      iszero\n      tag_71\n      jumpi\n        /* \"#utility.yul\":2039:2118   */\n      tag_72\n      tag_29\n      jump\t// in\n    tag_72:\n        /* \"#utility.yul\":2008:2120   */\n    tag_71:\n        /* \"#utility.yul\":2129:2183   */\n      tag_73\n        /* \"#utility.yul\":2176:2182   */\n      dup5\n        /* \"#utility.yul\":2171:2174   */\n      dup3\n        /* \"#utility.yul\":2166:2169   */\n      dup6\n        /* \"#utility.yul\":2129:2183   */\n      tag_35\n      jump\t// in\n    tag_73:\n        /* \"#utility.yul\":1848:2189   */\n      pop\n        /* \"#utility.yul\":1764:2189   */\n      swap4\n      swap3\n      pop\n      pop\n      pop\n      jump\t// out\n        /* \"#utility.yul\":2209:2549   */\n    tag_37:\n        /* \"#utility.yul\":2265:2270   */\n      0x00\n        /* \"#utility.yul\":2314:2317   */\n      dup3\n        /* \"#utility.yul\":2307:2311   */\n      0x1f\n        /* \"#utility.yul\":2299:2305   */\n      dup4\n        /* \"#utility.yul\":2295:2312   */\n      add\n        /* \"#utility.yul\":2291:2318   */\n      slt\n        /* \"#utility.yul\":2281:2403   */\n      tag_75\n      jumpi\n        /* \"#utility.yul\":2322:2401   */\n      tag_76\n      tag_28\n      jump\t// in\n    tag_76:\n        /* \"#utility.yul\":2281:2403   */\n    tag_75:\n        /* \"#utility.yul\":2439:2445   */\n      dup2\n        /* \"#utility.yul\":2426:2446   */\n      calldataload\n        /* \"#utility.yul\":2464:2543   */\n      tag_77\n        /* \"#utility.yul\":2539:2542   */\n      dup5\n        /* \"#utility.yul\":2531:2537   */\n      dup3\n        /* \"#utility.yul\":2524:2528   */\n      0x20\n        /* \"#utility.yul\":2516:2522   */\n      dup7\n        /* \"#utility.yul\":2512:2529   */\n      add\n        /* \"#utility.yul\":2464:2543   */\n      tag_36\n      jump\t// in\n    tag_77:\n        /* \"#utility.yul\":2455:2543   */\n      swap2\n      pop\n        /* \"#utility.yul\":2271:2549   */\n      pop\n        /* \"#utility.yul\":2209:2549   */\n      swap3\n      swap2\n      pop\n      pop\n      jump\t// out\n        /* \"#utility.yul\":2555:3064   */\n    tag_6:\n        /* \"#utility.yul\":2624:2630   */\n      0x00\n        /* \"#utility.yul\":2673:2675   */\n      0x20\n        /* \"#utility.yul\":2661:2670   */\n      dup3\n        /* \"#utility.yul\":2652:2659   */\n      dup5\n        /* \"#utility.yul\":2648:2671   */\n      sub\n        /* \"#utility.yul\":2644:2676   */\n      slt\n        /* \"#utility.yul\":2641:2760   */\n      iszero\n      tag_79\n      jumpi\n        /* \"#utility.yul\":2679:2758   */\n      tag_80\n      tag_26\n      jump\t// in\n    tag_80:\n        /* \"#utility.yul\":2641:2760   */\n    tag_79:\n        /* \"#utility.yul\":2827:2828   */\n      0x00\n        /* \"#utility.yul\":2816:2825   */\n      dup3\n        /* \"#utility.yul\":2812:2829   */\n      add\n        /* \"#utility.yul\":2799:2830   */\n      calldataload\n        /* \"#utility.yul\":2857:2875   */\n      0xffffffffffffffff\n        /* \"#utility.yul\":2849:2855   */\n      dup2\n        /* \"#utility.yul\":2846:2876   */\n      gt\n        /* \"#utility.yul\":2843:2960   */\n      iszero\n      tag_81\n      jumpi\n        /* \"#utility.yul\":2879:2958   */\n      tag_82\n      tag_27\n      jump\t// in\n    tag_82:\n        /* \"#utility.yul\":2843:2960   */\n    tag_81:\n        /* \"#utility.yul\":2984:3047   */\n      tag_83\n        /* \"#utility.yul\":3039:3046   */\n      dup5\n        /* \"#utility.yul\":3030:3036   */\n      dup3\n        /* \"#utility.yul\":3019:3028   */\n      dup6\n        /* \"#utility.yul\":3015:3037   */\n      add\n        /* \"#utility.yul\":2984:3047   */\n      tag_37\n      jump\t// in\n    tag_83:\n        /* \"#utility.yul\":2974:3047   */\n      swap2\n      pop\n        /* \"#utility.yul\":2770:3057   */\n      pop\n        /* \"#utility.yul\":2555:3064   */\n      swap3\n      swap2\n      pop\n      pop\n      jump\t// out\n        /* \"#utility.yul\":3070:3147   */\n    tag_38:\n        /* \"#utility.yul\":3107:3114   */\n      0x00\n        /* \"#utility.yul\":3136:3141   */\n      dup2\n        /* \"#utility.yul\":3125:3141   */\n      swap1\n      pop\n        /* \"#utility.yul\":3070:3147   */\n      swap2\n      swap1\n      pop\n      jump\t// out\n        /* \"#utility.yul\":3153:3333   */\n    tag_39:\n        /* \"#utility.yul\":3201:3278   */\n      0x4e487b7100000000000000000000000000000000000000000000000000000000\n        /* \"#utility.yul\":3198:3199   */\n      0x00\n        /* \"#utility.yul\":3191:3279   */\n      mstore\n        /* \"#utility.yul\":3298:3302   */\n      0x11\n        /* \"#utility.yul\":3295:3296   */\n      0x04\n        /* \"#utility.yul\":3288:3303   */\n      mstore\n        /* \"#utility.yul\":3322:3326   */\n      0x24\n        /* \"#utility.yul\":3319:3320   */\n      0x00\n        /* \"#utility.yul\":3312:3327   */\n      revert\n        /* \"#utility.yul\":3339:3530   */\n    tag_10:\n        /* \"#utility.yul\":3379:3382   */\n      0x00\n        /* \"#utility.yul\":3398:3418   */\n      tag_87\n        /* \"#utility.yul\":3416:3417   */\n      dup3\n        /* \"#utility.yul\":3398:3418   */\n      tag_38\n      jump\t// in\n    tag_87:\n        /* \"#utility.yul\":3393:3418   */\n      swap2\n      pop\n        /* \"#utility.yul\":3432:3452   */\n      tag_88\n        /* \"#utility.yul\":3450:3451   */\n      dup4\n        /* \"#utility.yul\":3432:3452   */\n      tag_38\n      jump\t// in\n    tag_88:\n        /* \"#utility.yul\":3427:3452   */\n      swap3\n      pop\n        /* \"#utility.yul\":3475:3476   */\n      dup3\n        /* \"#utility.yul\":3472:3473   */\n      dup3\n        /* \"#utility.yul\":3468:3477   */\n      add\n        /* \"#utility.yul\":3461:3477   */\n      swap1\n      pop\n        /* \"#utility.yul\":3496:3499   */\n      dup1\n        /* \"#utility.yul\":3493:3494   */\n      dup3\n        /* \"#utility.yul\":3490:3500   */\n      gt\n        /* \"#utility.yul\":3487:3523   */\n      iszero\n      tag_89\n      jumpi\n        /* \"#utility.yul\":3503:3521   */\n      tag_90\n      tag_39\n      jump\t// in\n    tag_90:\n        /* \"#utility.yul\":3487:3523   */\n    tag_89:\n        /* \"#utility.yul\":3339:3530   */\n      swap3\n      swap2\n      pop\n      pop\n      jump\t// out\n        /* \"#utility.yul\":3536:3684   */\n    tag_40:\n        /* \"#utility.yul\":3638:3649   */\n      0x00\n        /* \"#utility.yul\":3675:3678   */\n      dup2\n        /* \"#utility.yul\":3660:3678   */\n      swap1\n      pop\n        /* \"#utility.yul\":3536:3684   */\n      swap3\n      swap2\n      pop\n      pop\n      jump\t// out\n        /* \"#utility.yul\":3690:3843   */\n    tag_41:\n        /* \"#utility.yul\":3830:3835   */\n      0x7965730000000000000000000000000000000000000000000000000000000000\n        /* \"#utility.yul\":3826:3827   */\n      0x00\n        /* \"#utility.yul\":3818:3824   */\n      dup3\n        /* \"#utility.yul\":3814:3828   */\n      add\n        /* \"#utility.yul\":3807:3836   */\n      mstore\n        /* \"#utility.yul\":3690:3843   */\n      pop\n      jump\t// out\n        /* \"#utility.yul\":3849:4249   */\n    tag_42:\n        /* \"#utility.yul\":4009:4012   */\n      0x00\n        /* \"#utility.yul\":4030:4114   */\n      tag_94\n        /* \"#utility.yul\":4112:4113   */\n      0x03\n        /* \"#utility.yul\":4107:4110   */\n      dup4\n        /* \"#utility.yul\":4030:4114   */\n      tag_40\n      jump\t// in\n    tag_94:\n        /* \"#utility.yul\":4023:4114   */\n      swap2\n      pop\n        /* \"#utility.yul\":4123:4216   */\n      tag_95\n        /* \"#utility.yul\":4212:4215   */\n      dup3\n        /* \"#utility.yul\":4123:4216   */\n      tag_41\n      jump\t// in\n    tag_95:\n        /* \"#utility.yul\":4241:4242   */\n      0x03\n        /* \"#utility.yul\":4236:4239   */\n      dup3\n        /* \"#utility.yul\":4232:4243   */\n      add\n        /* \"#utility.yul\":4225:4243   */\n      swap1\n      pop\n        /* \"#utility.yul\":3849:4249   */\n      swap2\n      swap1\n      pop\n      jump\t// out\n        /* \"#utility.yul\":4255:4636   */\n    tag_13:\n        /* \"#utility.yul\":4440:4443   */\n      0x00\n        /* \"#utility.yul\":4462:4610   */\n      tag_97\n        /* \"#utility.yul\":4606:4609   */\n      dup3\n        /* \"#utility.yul\":4462:4610   */\n      tag_42\n      jump\t// in\n    tag_97:\n        /* \"#utility.yul\":4455:4610   */\n      swap2\n      pop\n        /* \"#utility.yul\":4627:4630   */\n      dup2\n        /* \"#utility.yul\":4620:4630   */\n      swap1\n      pop\n        /* \"#utility.yul\":4255:4636   */\n      swap2\n      swap1\n      pop\n      jump\t// out\n        /* \"#utility.yul\":4642:4741   */\n    tag_43:\n        /* \"#utility.yul\":4694:4700   */\n      0x00\n        /* \"#utility.yul\":4728:4733   */\n      dup2\n        /* \"#utility.yul\":4722:4734   */\n      mload\n        /* \"#utility.yul\":4712:4734   */\n      swap1\n      pop\n        /* \"#utility.yul\":4642:4741   */\n      swap2\n      swap1\n      pop\n      jump\t// out\n        /* \"#utility.yul\":4747:4886   */\n    tag_44:\n        /* \"#utility.yul\":4836:4842   */\n      dup3\n        /* \"#utility.yul\":4831:4834   */\n      dup2\n        /* \"#utility.yul\":4826:4829   */\n      dup4\n        /* \"#utility.yul\":4820:4843   */\n      mcopy\n        /* \"#utility.yul\":4877:4878   */\n      0x00\n        /* \"#utility.yul\":4868:4874   */\n      dup4\n        /* \"#utility.yul\":4863:4866   */\n      dup4\n        /* \"#utility.yul\":4859:4875   */\n      add\n        /* \"#utility.yul\":4852:4879   */\n      mstore\n        /* \"#utility.yul\":4747:4886   */\n      pop\n      pop\n      pop\n      jump\t// out\n        /* \"#utility.yul\":4892:5282   */\n    tag_45:\n        /* \"#utility.yul\":4998:5001   */\n      0x00\n        /* \"#utility.yul\":5026:5065   */\n      tag_101\n        /* \"#utility.yul\":5059:5064   */\n      dup3\n        /* \"#utility.yul\":5026:5065   */\n      tag_43\n      jump\t// in\n    tag_101:\n        /* \"#utility.yul\":5081:5170   */\n      tag_102\n        /* \"#utility.yul\":5163:5169   */\n      dup2\n        /* \"#utility.yul\":5158:5161   */\n      dup6\n        /* \"#utility.yul\":5081:5170   */\n      tag_40\n      jump\t// in\n    tag_102:\n        /* \"#utility.yul\":5074:5170   */\n      swap4\n      pop\n        /* \"#utility.yul\":5179:5244   */\n      tag_103\n        /* \"#utility.yul\":5237:5243   */\n      dup2\n        /* \"#utility.yul\":5232:5235   */\n      dup6\n        /* \"#utility.yul\":5225:5229   */\n      0x20\n        /* \"#utility.yul\":5218:5223   */\n      dup7\n        /* \"#utility.yul\":5214:5230   */\n      add\n        /* \"#utility.yul\":5179:5244   */\n      tag_44\n      jump\t// in\n    tag_103:\n        /* \"#utility.yul\":5269:5275   */\n      dup1\n        /* \"#utility.yul\":5264:5267   */\n      dup5\n        /* \"#utility.yul\":5260:5276   */\n      add\n        /* \"#utility.yul\":5253:5276   */\n      swap2\n      pop\n        /* \"#utility.yul\":5002:5282   */\n      pop\n        /* \"#utility.yul\":4892:5282   */\n      swap3\n      swap2\n      pop\n      pop\n      jump\t// out\n        /* \"#utility.yul\":5288:5563   */\n    tag_15:\n        /* \"#utility.yul\":5420:5423   */\n      0x00\n        /* \"#utility.yul\":5442:5537   */\n      tag_105\n        /* \"#utility.yul\":5533:5536   */\n      dup3\n        /* \"#utility.yul\":5524:5530   */\n      dup5\n        /* \"#utility.yul\":5442:5537   */\n      tag_45\n      jump\t// in\n    tag_105:\n        /* \"#utility.yul\":5435:5537   */\n      swap2\n      pop\n        /* \"#utility.yul\":5554:5557   */\n      dup2\n        /* \"#utility.yul\":5547:5557   */\n      swap1\n      pop\n        /* \"#utility.yul\":5288:5563   */\n      swap3\n      swap2\n      pop\n      pop\n      jump\t// out\n        /* \"#utility.yul\":5569:5802   */\n    tag_18:\n        /* \"#utility.yul\":5608:5611   */\n      0x00\n        /* \"#utility.yul\":5631:5655   */\n      tag_107\n        /* \"#utility.yul\":5649:5654   */\n      dup3\n        /* \"#utility.yul\":5631:5655   */\n      tag_38\n      jump\t// in\n    tag_107:\n        /* \"#utility.yul\":5622:5655   */\n      swap2\n      pop\n        /* \"#utility.yul\":5677:5743   */\n      0xffffffffffffffffffffffffffffffffffffffffffffffffffffffffffffffff\n        /* \"#utility.yul\":5670:5675   */\n      dup3\n        /* \"#utility.yul\":5667:5744   */\n      sub\n        /* \"#utility.yul\":5664:5767   */\n      tag_108\n      jumpi\n        /* \"#utility.yul\":5747:5765   */\n      tag_109\n      tag_39\n      jump\t// in\n    tag_109:\n        /* \"#utility.yul\":5664:5767   */\n    tag_108:\n        /* \"#utility.yul\":5794:5795   */\n      0x01\n        /* \"#utility.yul\":5787:5792   */\n      dup3\n        /* \"#utility.yul\":5783:5796   */\n      add\n        /* \"#utility.yul\":5776:5796   */\n      swap1\n      pop\n        /* \"#utility.yul\":5569:5802   */\n      swap2\n      swap1\n      pop\n      jump\t// out\n        /* \"#utility.yul\":5808:5960   */\n    tag_46:\n        /* \"#utility.yul\":5948:5952   */\n      0x6e6f000000000000000000000000000000000000000000000000000000000000\n        /* \"#utility.yul\":5944:5945   */\n      0x00\n        /* \"#utility.yul\":5936:5942   */\n      dup3\n        /* \"#utility.yul\":5932:5946   */\n      add\n        /* \"#utility.yul\":5925:5953   */\n      mstore\n        /* \"#utility.yul\":5808:5960   */\n      pop\n      jump\t// out\n        /* \"#utility.yul\":5966:6366   */\n    tag_47:\n        /* \"#utility.yul\":6126:6129   */\n      0x00\n        /* \"#utility.yul\":6147:6231   */\n      tag_112\n        /* \"#utility.yul\":6229:6230   */\n      0x02\n        /* \"#utility.yul\":6224:6227   */\n      dup4\n        /* \"#utility.yul\":6147:6231   */\n      tag_40\n      jump\t// in\n    tag_112:\n        /* \"#utility.yul\":6140:6231   */\n      swap2\n      pop\n        /* \"#utility.yul\":6240:6333   */\n      tag_113\n        /* \"#utility.yul\":6329:6332   */\n      dup3\n        /* \"#utility.yul\":6240:6333   */\n      tag_46\n      jump\t// in\n    tag_113:\n        /* \"#utility.yul\":6358:6359   */\n      0x02\n        /* \"#utility.yul\":6353:6356   */\n      dup3\n        /* \"#utility.yul\":6349:6360   */\n      add\n        /* \"#utility.yul\":6342:6360   */\n      swap1\n      pop\n        /* \"#utility.yul\":5966:6366   */\n      swap2\n      swap1\n      pop\n      jump\t// out\n        /* \"#utility.yul\":6372:6753   */\n    tag_21:\n        /* \"#utility.yul\":6557:6560   */\n      0x00\n        /* \"#utility.yul\":6579:6727   */\n      tag_115\n        /* \"#utility.yul\":6723:6726   */\n      dup3\n        /* \"#utility.yul\":6579:6727   */\n      tag_47\n      jump\t// in\n    tag_115:\n        /* \"#utility.yul\":6572:6727   */\n      swap2\n      pop\n        /* \"#utility.yul\":6744:6747   */\n      dup2\n        /* \"#utility.yul\":6737:6747   */\n      swap1\n      pop\n        /* \"#utility.yul\":6372:6753   */\n      swap2\n      swap1\n      pop\n      jump\t// out\n\n    auxdata: 0xa2646970667358221220d5a65742543e5aebf7e8d72e5471c7fda6f95e415e8f22b926adcfb43e13480464736f6c634300081a0033\n}\n",
				"bytecode": {
					"linkReferences": {},
					"object": "6080604052348015600e575f80fd5b506104d78061001c5f395ff3fe608060405234801561000f575f80fd5b5060043610610029575f3560e01c8063fc36e15b1461002d575b5f80fd5b61004760048036038101906100429190610286565b610049565b005b436014436100579190610303565b11610060575f80fd5b60405160200161006f9061038a565b604051602081830303815290604052805190602001208160405160200161009691906103e6565b60405160208183030381529060405280519060200120036100cc575f808154809291906100c2906103fc565b9190505550610136565b6040516020016100db9061048d565b604051602081830303815290604052805190602001208160405160200161010291906103e6565b60405160208183030381529060405280519060200120036101355760015f81548092919061012f906103fc565b91905055505b5b50565b5f604051905090565b5f80fd5b5f80fd5b5f80fd5b5f80fd5b5f601f19601f8301169050919050565b7f4e487b71000000000000000000000000000000000000000000000000000000005f52604160045260245ffd5b61019882610152565b810181811067ffffffffffffffff821117156101b7576101b6610162565b5b80604052505050565b5f6101c9610139565b90506101d5828261018f565b919050565b5f67ffffffffffffffff8211156101f4576101f3610162565b5b6101fd82610152565b9050602081019050919050565b828183375f83830152505050565b5f61022a610225846101da565b6101c0565b9050828152602081018484840111156102465761024561014e565b5b61025184828561020a565b509392505050565b5f82601f83011261026d5761026c61014a565b5b813561027d848260208601610218565b91505092915050565b5f6020828403121561029b5761029a610142565b5b5f82013567ffffffffffffffff8111156102b8576102b7610146565b5b6102c484828501610259565b91505092915050565b5f819050919050565b7f4e487b71000000000000000000000000000000000000000000000000000000005f52601160045260245ffd5b5f61030d826102cd565b9150610318836102cd565b92508282019050808211156103305761032f6102d6565b5b92915050565b5f81905092915050565b7f79657300000000000000000000000000000000000000000000000000000000005f82015250565b5f610374600383610336565b915061037f82610340565b600382019050919050565b5f61039482610368565b9150819050919050565b5f81519050919050565b8281835e5f83830152505050565b5f6103c08261039e565b6103ca8185610336565b93506103da8185602086016103a8565b80840191505092915050565b5f6103f182846103b6565b915081905092915050565b5f610406826102cd565b91507fffffffffffffffffffffffffffffffffffffffffffffffffffffffffffffffff8203610438576104376102d6565b5b600182019050919050565b7f6e6f0000000000000000000000000000000000000000000000000000000000005f82015250565b5f610477600283610336565b915061048282610443565b600282019050919050565b5f6104978261046b565b915081905091905056fea2646970667358221220d5a65742543e5aebf7e8d72e5471c7fda6f95e415e8f22b926adcfb43e13480464736f6c634300081a0033",
					"opcodes": "PUSH1 0x80 PUSH1 0x40 MSTORE CALLVALUE DUP1 ISZERO PUSH1 0xE JUMPI PUSH0 DUP1 REVERT JUMPDEST POP PUSH2 0x4D7 DUP1 PUSH2 0x1C PUSH0 CODECOPY PUSH0 RETURN INVALID PUSH1 0x80 PUSH1 0x40 MSTORE CALLVALUE DUP1 ISZERO PUSH2 0xF JUMPI PUSH0 DUP1 REVERT JUMPDEST POP PUSH1 0x4 CALLDATASIZE LT PUSH2 0x29 JUMPI PUSH0 CALLDATALOAD PUSH1 0xE0 SHR DUP1 PUSH4 0xFC36E15B EQ PUSH2 0x2D JUMPI JUMPDEST PUSH0 DUP1 REVERT JUMPDEST PUSH2 0x47 PUSH1 0x4 DUP1 CALLDATASIZE SUB DUP2 ADD SWAP1 PUSH2 0x42 SWAP2 SWAP1 PUSH2 0x286 JUMP JUMPDEST PUSH2 0x49 JUMP JUMPDEST STOP JUMPDEST NUMBER PUSH1 0x14 NUMBER PUSH2 0x57 SWAP2 SWAP1 PUSH2 0x303 JUMP JUMPDEST GT PUSH2 0x60 JUMPI PUSH0 DUP1 REVERT JUMPDEST PUSH1 0x40 MLOAD PUSH1 0x20 ADD PUSH2 0x6F SWAP1 PUSH2 0x38A JUMP JUMPDEST PUSH1 0x40 MLOAD PUSH1 0x20 DUP2 DUP4 SUB SUB DUP2 MSTORE SWAP1 PUSH1 0x40 MSTORE DUP1 MLOAD SWAP1 PUSH1 0x20 ADD KECCAK256 DUP2 PUSH1 0x40 MLOAD PUSH1 0x20 ADD PUSH2 0x96 SWAP2 SWAP1 PUSH2 0x3E6 JUMP JUMPDEST PUSH1 0x40 MLOAD PUSH1 0x20 DUP2 DUP4 SUB SUB DUP2 MSTORE SWAP1 PUSH1 0x40 MSTORE DUP1 MLOAD SWAP1 PUSH1 0x20 ADD KECCAK256 SUB PUSH2 0xCC JUMPI PUSH0 DUP1 DUP2 SLOAD DUP1 SWAP3 SWAP2 SWAP1 PUSH2 0xC2 SWAP1 PUSH2 0x3FC JUMP JUMPDEST SWAP2 SWAP1 POP SSTORE POP PUSH2 0x136 JUMP JUMPDEST PUSH1 0x40 MLOAD PUSH1 0x20 ADD PUSH2 0xDB SWAP1 PUSH2 0x48D JUMP JUMPDEST PUSH1 0x40 MLOAD PUSH1 0x20 DUP2 DUP4 SUB SUB DUP2 MSTORE SWAP1 PUSH1 0x40 MSTORE DUP1 MLOAD SWAP1 PUSH1 0x20 ADD KECCAK256 DUP2 PUSH1 0x40 MLOAD PUSH1 0x20 ADD PUSH2 0x102 SWAP2 SWAP1 PUSH2 0x3E6 JUMP JUMPDEST PUSH1 0x40 MLOAD PUSH1 0x20 DUP2 DUP4 SUB SUB DUP2 MSTORE SWAP1 PUSH1 0x40 MSTORE DUP1 MLOAD SWAP1 PUSH1 0x20 ADD KECCAK256 SUB PUSH2 0x135 JUMPI PUSH1 0x1 PUSH0 DUP2 SLOAD DUP1 SWAP3 SWAP2 SWAP1 PUSH2 0x12F SWAP1 PUSH2 0x3FC JUMP JUMPDEST SWAP2 SWAP1 POP SSTORE POP JUMPDEST JUMPDEST POP JUMP JUMPDEST PUSH0 PUSH1 0x40 MLOAD SWAP1 POP SWAP1 JUMP JUMPDEST PUSH0 DUP1 REVERT JUMPDEST PUSH0 DUP1 REVERT JUMPDEST PUSH0 DUP1 REVERT JUMPDEST PUSH0 DUP1 REVERT JUMPDEST PUSH0 PUSH1 0x1F NOT PUSH1 0x1F DUP4 ADD AND SWAP1 POP SWAP2 SWAP1 POP JUMP JUMPDEST PUSH32 0x4E487B7100000000000000000000000000000000000000000000000000000000 PUSH0 MSTORE PUSH1 0x41 PUSH1 0x4 MSTORE PUSH1 0x24 PUSH0 REVERT JUMPDEST PUSH2 0x198 DUP3 PUSH2 0x152 JUMP JUMPDEST DUP2 ADD DUP2 DUP2 LT PUSH8 0xFFFFFFFFFFFFFFFF DUP3 GT OR ISZERO PUSH2 0x1B7 JUMPI PUSH2 0x1B6 PUSH2 0x162 JUMP JUMPDEST JUMPDEST DUP1 PUSH1 0x40 MSTORE POP POP POP JUMP JUMPDEST PUSH0 PUSH2 0x1C9 PUSH2 0x139 JUMP JUMPDEST SWAP1 POP PUSH2 0x1D5 DUP3 DUP3 PUSH2 0x18F JUMP JUMPDEST SWAP2 SWAP1 POP JUMP JUMPDEST PUSH0 PUSH8 0xFFFFFFFFFFFFFFFF DUP3 GT ISZERO PUSH2 0x1F4 JUMPI PUSH2 0x1F3 PUSH2 0x162 JUMP JUMPDEST JUMPDEST PUSH2 0x1FD DUP3 PUSH2 0x152 JUMP JUMPDEST SWAP1 POP PUSH1 0x20 DUP2 ADD SWAP1 POP SWAP2 SWAP1 POP JUMP JUMPDEST DUP3 DUP2 DUP4 CALLDATACOPY PUSH0 DUP4 DUP4 ADD MSTORE POP POP POP JUMP JUMPDEST PUSH0 PUSH2 0x22A PUSH2 0x225 DUP5 PUSH2 0x1DA JUMP JUMPDEST PUSH2 0x1C0 JUMP JUMPDEST SWAP1 POP DUP3 DUP2 MSTORE PUSH1 0x20 DUP2 ADD DUP5 DUP5 DUP5 ADD GT ISZERO PUSH2 0x246 JUMPI PUSH2 0x245 PUSH2 0x14E JUMP JUMPDEST JUMPDEST PUSH2 0x251 DUP5 DUP3 DUP6 PUSH2 0x20A JUMP JUMPDEST POP SWAP4 SWAP3 POP POP POP JUMP JUMPDEST PUSH0 DUP3 PUSH1 0x1F DUP4 ADD SLT PUSH2 0x26D JUMPI PUSH2 0x26C PUSH2 0x14A JUMP JUMPDEST JUMPDEST DUP2 CALLDATALOAD PUSH2 0x27D DUP5 DUP3 PUSH1 0x20 DUP7 ADD PUSH2 0x218 JUMP JUMPDEST SWAP2 POP POP SWAP3 SWAP2 POP POP JUMP JUMPDEST PUSH0 PUSH1 0x20 DUP3 DUP5 SUB SLT ISZERO PUSH2 0x29B JUMPI PUSH2 0x29A PUSH2 0x142 JUMP JUMPDEST JUMPDEST PUSH0 DUP3 ADD CALLDATALOAD PUSH8 0xFFFFFFFFFFFFFFFF DUP2 GT ISZERO PUSH2 0x2B8 JUMPI PUSH2 0x2B7 PUSH2 0x146 JUMP JUMPDEST JUMPDEST PUSH2 0x2C4 DUP5 DUP3 DUP6 ADD PUSH2 0x259 JUMP JUMPDEST SWAP2 POP POP SWAP3 SWAP2 POP POP JUMP JUMPDEST PUSH0 DUP2 SWAP1 POP SWAP2 SWAP1 POP JUMP JUMPDEST PUSH32 0x4E487B7100000000000000000000000000000000000000000000000000000000 PUSH0 MSTORE PUSH1 0x11 PUSH1 0x4 MSTORE PUSH1 0x24 PUSH0 REVERT JUMPDEST PUSH0 PUSH2 0x30D DUP3 PUSH2 0x2CD JUMP JUMPDEST SWAP2 POP PUSH2 0x318 DUP4 PUSH2 0x2CD JUMP JUMPDEST SWAP3 POP DUP3 DUP3 ADD SWAP1 POP DUP1 DUP3 GT ISZERO PUSH2 0x330 JUMPI PUSH2 0x32F PUSH2 0x2D6 JUMP JUMPDEST JUMPDEST SWAP3 SWAP2 POP POP JUMP JUMPDEST PUSH0 DUP2 SWAP1 POP SWAP3 SWAP2 POP POP JUMP JUMPDEST PUSH32 0x7965730000000000000000000000000000000000000000000000000000000000 PUSH0 DUP3 ADD MSTORE POP JUMP JUMPDEST PUSH0 PUSH2 0x374 PUSH1 0x3 DUP4 PUSH2 0x336 JUMP JUMPDEST SWAP2 POP PUSH2 0x37F DUP3 PUSH2 0x340 JUMP JUMPDEST PUSH1 0x3 DUP3 ADD SWAP1 POP SWAP2 SWAP1 POP JUMP JUMPDEST PUSH0 PUSH2 0x394 DUP3 PUSH2 0x368 JUMP JUMPDEST SWAP2 POP DUP2 SWAP1 POP SWAP2 SWAP1 POP JUMP JUMPDEST PUSH0 DUP2 MLOAD SWAP1 POP SWAP2 SWAP1 POP JUMP JUMPDEST DUP3 DUP2 DUP4 MCOPY PUSH0 DUP4 DUP4 ADD MSTORE POP POP POP JUMP JUMPDEST PUSH0 PUSH2 0x3C0 DUP3 PUSH2 0x39E JUMP JUMPDEST PUSH2 0x3CA DUP2 DUP6 PUSH2 0x336 JUMP JUMPDEST SWAP4 POP PUSH2 0x3DA DUP2 DUP6 PUSH1 0x20 DUP7 ADD PUSH2 0x3A8 JUMP JUMPDEST DUP1 DUP5 ADD SWAP2 POP POP SWAP3 SWAP2 POP POP JUMP JUMPDEST PUSH0 PUSH2 0x3F1 DUP3 DUP5 PUSH2 0x3B6 JUMP JUMPDEST SWAP2 POP DUP2 SWAP1 POP SWAP3 SWAP2 POP POP JUMP JUMPDEST PUSH0 PUSH2 0x406 DUP3 PUSH2 0x2CD JUMP JUMPDEST SWAP2 POP PUSH32 0xFFFFFFFFFFFFFFFFFFFFFFFFFFFFFFFFFFFFFFFFFFFFFFFFFFFFFFFFFFFFFFFF DUP3 SUB PUSH2 0x438 JUMPI PUSH2 0x437 PUSH2 0x2D6 JUMP JUMPDEST JUMPDEST PUSH1 0x1 DUP3 ADD SWAP1 POP SWAP2 SWAP1 POP JUMP JUMPDEST PUSH32 0x6E6F000000000000000000000000000000000000000000000000000000000000 PUSH0 DUP3 ADD MSTORE POP JUMP JUMPDEST PUSH0 PUSH2 0x477 PUSH1 0x2 DUP4 PUSH2 0x336 JUMP JUMPDEST SWAP2 POP PUSH2 0x482 DUP3 PUSH2 0x443 JUMP JUMPDEST PUSH1 0x2 DUP3 ADD SWAP1 POP SWAP2 SWAP1 POP JUMP JUMPDEST PUSH0 PUSH2 0x497 DUP3 PUSH2 0x46B JUMP JUMPDEST SWAP2 POP DUP2 SWAP1 POP SWAP2 SWAP1 POP JUMP INVALID LOG2 PUSH5 0x6970667358 0x22 SLT KECCAK256 0xD5 0xA6 JUMPI TIMESTAMP SLOAD RETURNDATACOPY GAS 0xEB 0xF7 0xE8 0xD7 0x2E SLOAD PUSH18 0xC7FDA6F95E415E8F22B926ADCFB43E134804 PUSH5 0x736F6C6343 STOP ADDMOD BYTE STOP CALLER "
				},
				"gasEstimates": {
					"creation": {
						"codeDepositCost": "247800",
						"executionCost": "285",
						"totalCost": "248085"
					},
					"external": {
						"vote(string)": "infinite"
					}
				},
				"methodIdentifiers": {
					"vote(string)": "fc36e15b"
				}
			},
			"storageLayout": {
				"storage": [
					{
						"astId": 116,
						"contract": "Solidity100/sol100(81~90).sol:Q85",
						"label": "a",
						"offset": 0,
						"slot": "0",
						"type": "t_uint256"
					},
					{
						"astId": 118,
						"contract": "Solidity100/sol100(81~90).sol:Q85",
						"label": "b",
						"offset": 0,
						"slot": "1",
						"type": "t_uint256"
					}
				],
				"types": {
					"t_uint256": {
						"encoding": "inplace",
						"label": "uint256",
						"numberOfBytes": "32"
					}
				}
			},
			"userdoc": {
				"kind": "user",
				"methods": {},
				"version": 1
			}
		}
	}
}