{
	"Solidity100/sol100(81~90).sol": {
		"Q89": {
			"abi": [
				{
					"inputs": [
						{
							"internalType": "string",
							"name": "_name",
							"type": "string"
						},
						{
							"internalType": "string",
							"name": "_introduce",
							"type": "string"
						}
					],
					"name": "setUser",
					"outputs": [],
					"stateMutability": "nonpayable",
					"type": "function"
				}
			],
			"devdoc": {
				"kind": "dev",
				"methods": {},
				"version": 1
			},
			"evm": {
				"assembly": "    /* \"Solidity100/sol100(81~90).sol\":4357:5041  contract Q89 {... */\n  mstore(0x40, 0x80)\n  callvalue\n  dup1\n  iszero\n  tag_1\n  jumpi\n  0x00\n  dup1\n  revert\ntag_1:\n  pop\n  dataSize(sub_0)\n  dup1\n  dataOffset(sub_0)\n  0x00\n  codecopy\n  0x00\n  return\nstop\n\nsub_0: assembly {\n        /* \"Solidity100/sol100(81~90).sol\":4357:5041  contract Q89 {... */\n      mstore(0x40, 0x80)\n      callvalue\n      dup1\n      iszero\n      tag_1\n      jumpi\n      0x00\n      dup1\n      revert\n    tag_1:\n      pop\n      jumpi(tag_2, lt(calldatasize, 0x04))\n      shr(0xe0, calldataload(0x00))\n      dup1\n      0x5728b973\n      eq\n      tag_3\n      jumpi\n    tag_2:\n      0x00\n      dup1\n      revert\n        /* \"Solidity100/sol100(81~90).sol\":4759:5036  function setUser(string memory _name, string memory _introduce) public {... */\n    tag_3:\n      tag_4\n      0x04\n      dup1\n      calldatasize\n      sub\n      dup2\n      add\n      swap1\n      tag_5\n      swap2\n      swap1\n      tag_6\n      jump\t// in\n    tag_5:\n      tag_7\n      jump\t// in\n    tag_4:\n      stop\n    tag_7:\n        /* \"Solidity100/sol100(81~90).sol\":4871:4873  10 */\n      0x0a\n        /* \"Solidity100/sol100(81~90).sol\":4855:4860  _name */\n      dup3\n        /* \"Solidity100/sol100(81~90).sol\":4849:4868  bytes(_name).length */\n      mload\n        /* \"Solidity100/sol100(81~90).sol\":4849:4873  bytes(_name).length <=10 */\n      gt\n      iszero\n        /* \"Solidity100/sol100(81~90).sol\":4849:4901  bytes(_name).length <=10 && bytes(_name).length >= 5 */\n      dup1\n      iszero\n      tag_9\n      jumpi\n      pop\n        /* \"Solidity100/sol100(81~90).sol\":4900:4901  5 */\n      0x05\n        /* \"Solidity100/sol100(81~90).sol\":4883:4888  _name */\n      dup3\n        /* \"Solidity100/sol100(81~90).sol\":4877:4896  bytes(_name).length */\n      mload\n        /* \"Solidity100/sol100(81~90).sol\":4877:4901  bytes(_name).length >= 5 */\n      lt\n      iszero\n        /* \"Solidity100/sol100(81~90).sol\":4849:4901  bytes(_name).length <=10 && bytes(_name).length >= 5 */\n    tag_9:\n        /* \"Solidity100/sol100(81~90).sol\":4841:4902  require(bytes(_name).length <=10 && bytes(_name).length >= 5) */\n      tag_10\n      jumpi\n      0x00\n      dup1\n      revert\n    tag_10:\n        /* \"Solidity100/sol100(81~90).sol\":4949:4951  50 */\n      0x32\n        /* \"Solidity100/sol100(81~90).sol\":4927:4937  _introduce */\n      dup2\n        /* \"Solidity100/sol100(81~90).sol\":4921:4945  bytes(_introduce).length */\n      mload\n        /* \"Solidity100/sol100(81~90).sol\":4921:4951  bytes(_introduce).length <= 50 */\n      gt\n      iszero\n        /* \"Solidity100/sol100(81~90).sol\":4921:4985  bytes(_introduce).length <= 50 && bytes(_introduce).length >= 20 */\n      dup1\n      iszero\n      tag_11\n      jumpi\n      pop\n        /* \"Solidity100/sol100(81~90).sol\":4983:4985  20 */\n      0x14\n        /* \"Solidity100/sol100(81~90).sol\":4961:4971  _introduce */\n      dup2\n        /* \"Solidity100/sol100(81~90).sol\":4955:4979  bytes(_introduce).length */\n      mload\n        /* \"Solidity100/sol100(81~90).sol\":4955:4985  bytes(_introduce).length >= 20 */\n      lt\n      iszero\n        /* \"Solidity100/sol100(81~90).sol\":4921:4985  bytes(_introduce).length <= 50 && bytes(_introduce).length >= 20 */\n    tag_11:\n        /* \"Solidity100/sol100(81~90).sol\":4913:4987  require(bytes(_introduce).length <= 50 && bytes(_introduce).length >= 20 ) */\n      tag_12\n      jumpi\n      0x00\n      dup1\n      revert\n    tag_12:\n        /* \"Solidity100/sol100(81~90).sol\":5005:5028  User(_name, _introduce) */\n      mload(0x40)\n      dup1\n      0x40\n      add\n      0x40\n      mstore\n      dup1\n        /* \"Solidity100/sol100(81~90).sol\":5010:5015  _name */\n      dup4\n        /* \"Solidity100/sol100(81~90).sol\":5005:5028  User(_name, _introduce) */\n      dup2\n      mstore\n      0x20\n      add\n        /* \"Solidity100/sol100(81~90).sol\":5017:5027  _introduce */\n      dup3\n        /* \"Solidity100/sol100(81~90).sol\":5005:5028  User(_name, _introduce) */\n      dup2\n      mstore\n      pop\n        /* \"Solidity100/sol100(81~90).sol\":5000:5002  s1 */\n      0x00\n        /* \"Solidity100/sol100(81~90).sol\":5000:5028  s1 = User(_name, _introduce) */\n      dup1\n      dup3\n      add\n      mload\n      dup2\n      0x00\n      add\n      swap1\n      dup2\n      tag_13\n      swap2\n      swap1\n      tag_14\n      jump\t// in\n    tag_13:\n      pop\n      0x20\n      dup3\n      add\n      mload\n      dup2\n      0x01\n      add\n      swap1\n      dup2\n      tag_15\n      swap2\n      swap1\n      tag_14\n      jump\t// in\n    tag_15:\n      pop\n      swap1\n      pop\n      pop\n        /* \"Solidity100/sol100(81~90).sol\":4759:5036  function setUser(string memory _name, string memory _introduce) public {... */\n      pop\n      pop\n      jump\t// out\n        /* \"#utility.yul\":7:82   */\n    tag_16:\n        /* \"#utility.yul\":40:46   */\n      0x00\n        /* \"#utility.yul\":73:75   */\n      0x40\n        /* \"#utility.yul\":67:76   */\n      mload\n        /* \"#utility.yul\":57:76   */\n      swap1\n      pop\n        /* \"#utility.yul\":7:82   */\n      swap1\n      jump\t// out\n        /* \"#utility.yul\":88:205   */\n    tag_17:\n        /* \"#utility.yul\":197:198   */\n      0x00\n        /* \"#utility.yul\":194:195   */\n      dup1\n        /* \"#utility.yul\":187:199   */\n      revert\n        /* \"#utility.yul\":211:328   */\n    tag_18:\n        /* \"#utility.yul\":320:321   */\n      0x00\n        /* \"#utility.yul\":317:318   */\n      dup1\n        /* \"#utility.yul\":310:322   */\n      revert\n        /* \"#utility.yul\":334:451   */\n    tag_19:\n        /* \"#utility.yul\":443:444   */\n      0x00\n        /* \"#utility.yul\":440:441   */\n      dup1\n        /* \"#utility.yul\":433:445   */\n      revert\n        /* \"#utility.yul\":457:574   */\n    tag_20:\n        /* \"#utility.yul\":566:567   */\n      0x00\n        /* \"#utility.yul\":563:564   */\n      dup1\n        /* \"#utility.yul\":556:568   */\n      revert\n        /* \"#utility.yul\":580:682   */\n    tag_21:\n        /* \"#utility.yul\":621:627   */\n      0x00\n        /* \"#utility.yul\":672:674   */\n      0x1f\n        /* \"#utility.yul\":668:675   */\n      not\n        /* \"#utility.yul\":663:665   */\n      0x1f\n        /* \"#utility.yul\":656:661   */\n      dup4\n        /* \"#utility.yul\":652:666   */\n      add\n        /* \"#utility.yul\":648:676   */\n      and\n        /* \"#utility.yul\":638:676   */\n      swap1\n      pop\n        /* \"#utility.yul\":580:682   */\n      swap2\n      swap1\n      pop\n      jump\t// out\n        /* \"#utility.yul\":688:868   */\n    tag_22:\n        /* \"#utility.yul\":736:813   */\n      0x4e487b7100000000000000000000000000000000000000000000000000000000\n        /* \"#utility.yul\":733:734   */\n      0x00\n        /* \"#utility.yul\":726:814   */\n      mstore\n        /* \"#utility.yul\":833:837   */\n      0x41\n        /* \"#utility.yul\":830:831   */\n      0x04\n        /* \"#utility.yul\":823:838   */\n      mstore\n        /* \"#utility.yul\":857:861   */\n      0x24\n        /* \"#utility.yul\":854:855   */\n      0x00\n        /* \"#utility.yul\":847:862   */\n      revert\n        /* \"#utility.yul\":874:1155   */\n    tag_23:\n        /* \"#utility.yul\":957:984   */\n      tag_57\n        /* \"#utility.yul\":979:983   */\n      dup3\n        /* \"#utility.yul\":957:984   */\n      tag_21\n      jump\t// in\n    tag_57:\n        /* \"#utility.yul\":949:955   */\n      dup2\n        /* \"#utility.yul\":945:985   */\n      add\n        /* \"#utility.yul\":1087:1093   */\n      dup2\n        /* \"#utility.yul\":1075:1085   */\n      dup2\n        /* \"#utility.yul\":1072:1094   */\n      lt\n        /* \"#utility.yul\":1051:1069   */\n      0xffffffffffffffff\n        /* \"#utility.yul\":1039:1049   */\n      dup3\n        /* \"#utility.yul\":1036:1070   */\n      gt\n        /* \"#utility.yul\":1033:1095   */\n      or\n        /* \"#utility.yul\":1030:1118   */\n      iszero\n      tag_58\n      jumpi\n        /* \"#utility.yul\":1098:1116   */\n      tag_59\n      tag_22\n      jump\t// in\n    tag_59:\n        /* \"#utility.yul\":1030:1118   */\n    tag_58:\n        /* \"#utility.yul\":1138:1148   */\n      dup1\n        /* \"#utility.yul\":1134:1136   */\n      0x40\n        /* \"#utility.yul\":1127:1149   */\n      mstore\n        /* \"#utility.yul\":917:1155   */\n      pop\n        /* \"#utility.yul\":874:1155   */\n      pop\n      pop\n      jump\t// out\n        /* \"#utility.yul\":1161:1290   */\n    tag_24:\n        /* \"#utility.yul\":1195:1201   */\n      0x00\n        /* \"#utility.yul\":1222:1242   */\n      tag_61\n      tag_16\n      jump\t// in\n    tag_61:\n        /* \"#utility.yul\":1212:1242   */\n      swap1\n      pop\n        /* \"#utility.yul\":1251:1284   */\n      tag_62\n        /* \"#utility.yul\":1279:1283   */\n      dup3\n        /* \"#utility.yul\":1271:1277   */\n      dup3\n        /* \"#utility.yul\":1251:1284   */\n      tag_23\n      jump\t// in\n    tag_62:\n        /* \"#utility.yul\":1161:1290   */\n      swap2\n      swap1\n      pop\n      jump\t// out\n        /* \"#utility.yul\":1296:1604   */\n    tag_25:\n        /* \"#utility.yul\":1358:1362   */\n      0x00\n        /* \"#utility.yul\":1448:1466   */\n      0xffffffffffffffff\n        /* \"#utility.yul\":1440:1446   */\n      dup3\n        /* \"#utility.yul\":1437:1467   */\n      gt\n        /* \"#utility.yul\":1434:1490   */\n      iszero\n      tag_64\n      jumpi\n        /* \"#utility.yul\":1470:1488   */\n      tag_65\n      tag_22\n      jump\t// in\n    tag_65:\n        /* \"#utility.yul\":1434:1490   */\n    tag_64:\n        /* \"#utility.yul\":1508:1537   */\n      tag_66\n        /* \"#utility.yul\":1530:1536   */\n      dup3\n        /* \"#utility.yul\":1508:1537   */\n      tag_21\n      jump\t// in\n    tag_66:\n        /* \"#utility.yul\":1500:1537   */\n      swap1\n      pop\n        /* \"#utility.yul\":1592:1596   */\n      0x20\n        /* \"#utility.yul\":1586:1590   */\n      dup2\n        /* \"#utility.yul\":1582:1597   */\n      add\n        /* \"#utility.yul\":1574:1597   */\n      swap1\n      pop\n        /* \"#utility.yul\":1296:1604   */\n      swap2\n      swap1\n      pop\n      jump\t// out\n        /* \"#utility.yul\":1610:1758   */\n    tag_26:\n        /* \"#utility.yul\":1708:1714   */\n      dup3\n        /* \"#utility.yul\":1703:1706   */\n      dup2\n        /* \"#utility.yul\":1698:1701   */\n      dup4\n        /* \"#utility.yul\":1685:1715   */\n      calldatacopy\n        /* \"#utility.yul\":1749:1750   */\n      0x00\n        /* \"#utility.yul\":1740:1746   */\n      dup4\n        /* \"#utility.yul\":1735:1738   */\n      dup4\n        /* \"#utility.yul\":1731:1747   */\n      add\n        /* \"#utility.yul\":1724:1751   */\n      mstore\n        /* \"#utility.yul\":1610:1758   */\n      pop\n      pop\n      pop\n      jump\t// out\n        /* \"#utility.yul\":1764:2189   */\n    tag_27:\n        /* \"#utility.yul\":1842:1847   */\n      0x00\n        /* \"#utility.yul\":1867:1933   */\n      tag_69\n        /* \"#utility.yul\":1883:1932   */\n      tag_70\n        /* \"#utility.yul\":1925:1931   */\n      dup5\n        /* \"#utility.yul\":1883:1932   */\n      tag_25\n      jump\t// in\n    tag_70:\n        /* \"#utility.yul\":1867:1933   */\n      tag_24\n      jump\t// in\n    tag_69:\n        /* \"#utility.yul\":1858:1933   */\n      swap1\n      pop\n        /* \"#utility.yul\":1956:1962   */\n      dup3\n        /* \"#utility.yul\":1949:1954   */\n      dup2\n        /* \"#utility.yul\":1942:1963   */\n      mstore\n        /* \"#utility.yul\":1994:1998   */\n      0x20\n        /* \"#utility.yul\":1987:1992   */\n      dup2\n        /* \"#utility.yul\":1983:1999   */\n      add\n        /* \"#utility.yul\":2032:2035   */\n      dup5\n        /* \"#utility.yul\":2023:2029   */\n      dup5\n        /* \"#utility.yul\":2018:2021   */\n      dup5\n        /* \"#utility.yul\":2014:2030   */\n      add\n        /* \"#utility.yul\":2011:2036   */\n      gt\n        /* \"#utility.yul\":2008:2120   */\n      iszero\n      tag_71\n      jumpi\n        /* \"#utility.yul\":2039:2118   */\n      tag_72\n      tag_20\n      jump\t// in\n    tag_72:\n        /* \"#utility.yul\":2008:2120   */\n    tag_71:\n        /* \"#utility.yul\":2129:2183   */\n      tag_73\n        /* \"#utility.yul\":2176:2182   */\n      dup5\n        /* \"#utility.yul\":2171:2174   */\n      dup3\n        /* \"#utility.yul\":2166:2169   */\n      dup6\n        /* \"#utility.yul\":2129:2183   */\n      tag_26\n      jump\t// in\n    tag_73:\n        /* \"#utility.yul\":1848:2189   */\n      pop\n        /* \"#utility.yul\":1764:2189   */\n      swap4\n      swap3\n      pop\n      pop\n      pop\n      jump\t// out\n        /* \"#utility.yul\":2209:2549   */\n    tag_28:\n        /* \"#utility.yul\":2265:2270   */\n      0x00\n        /* \"#utility.yul\":2314:2317   */\n      dup3\n        /* \"#utility.yul\":2307:2311   */\n      0x1f\n        /* \"#utility.yul\":2299:2305   */\n      dup4\n        /* \"#utility.yul\":2295:2312   */\n      add\n        /* \"#utility.yul\":2291:2318   */\n      slt\n        /* \"#utility.yul\":2281:2403   */\n      tag_75\n      jumpi\n        /* \"#utility.yul\":2322:2401   */\n      tag_76\n      tag_19\n      jump\t// in\n    tag_76:\n        /* \"#utility.yul\":2281:2403   */\n    tag_75:\n        /* \"#utility.yul\":2439:2445   */\n      dup2\n        /* \"#utility.yul\":2426:2446   */\n      calldataload\n        /* \"#utility.yul\":2464:2543   */\n      tag_77\n        /* \"#utility.yul\":2539:2542   */\n      dup5\n        /* \"#utility.yul\":2531:2537   */\n      dup3\n        /* \"#utility.yul\":2524:2528   */\n      0x20\n        /* \"#utility.yul\":2516:2522   */\n      dup7\n        /* \"#utility.yul\":2512:2529   */\n      add\n        /* \"#utility.yul\":2464:2543   */\n      tag_27\n      jump\t// in\n    tag_77:\n        /* \"#utility.yul\":2455:2543   */\n      swap2\n      pop\n        /* \"#utility.yul\":2271:2549   */\n      pop\n        /* \"#utility.yul\":2209:2549   */\n      swap3\n      swap2\n      pop\n      pop\n      jump\t// out\n        /* \"#utility.yul\":2555:3389   */\n    tag_6:\n        /* \"#utility.yul\":2643:2649   */\n      0x00\n        /* \"#utility.yul\":2651:2657   */\n      dup1\n        /* \"#utility.yul\":2700:2702   */\n      0x40\n        /* \"#utility.yul\":2688:2697   */\n      dup4\n        /* \"#utility.yul\":2679:2686   */\n      dup6\n        /* \"#utility.yul\":2675:2698   */\n      sub\n        /* \"#utility.yul\":2671:2703   */\n      slt\n        /* \"#utility.yul\":2668:2787   */\n      iszero\n      tag_79\n      jumpi\n        /* \"#utility.yul\":2706:2785   */\n      tag_80\n      tag_17\n      jump\t// in\n    tag_80:\n        /* \"#utility.yul\":2668:2787   */\n    tag_79:\n        /* \"#utility.yul\":2854:2855   */\n      0x00\n        /* \"#utility.yul\":2843:2852   */\n      dup4\n        /* \"#utility.yul\":2839:2856   */\n      add\n        /* \"#utility.yul\":2826:2857   */\n      calldataload\n        /* \"#utility.yul\":2884:2902   */\n      0xffffffffffffffff\n        /* \"#utility.yul\":2876:2882   */\n      dup2\n        /* \"#utility.yul\":2873:2903   */\n      gt\n        /* \"#utility.yul\":2870:2987   */\n      iszero\n      tag_81\n      jumpi\n        /* \"#utility.yul\":2906:2985   */\n      tag_82\n      tag_18\n      jump\t// in\n    tag_82:\n        /* \"#utility.yul\":2870:2987   */\n    tag_81:\n        /* \"#utility.yul\":3011:3074   */\n      tag_83\n        /* \"#utility.yul\":3066:3073   */\n      dup6\n        /* \"#utility.yul\":3057:3063   */\n      dup3\n        /* \"#utility.yul\":3046:3055   */\n      dup7\n        /* \"#utility.yul\":3042:3064   */\n      add\n        /* \"#utility.yul\":3011:3074   */\n      tag_28\n      jump\t// in\n    tag_83:\n        /* \"#utility.yul\":3001:3074   */\n      swap3\n      pop\n        /* \"#utility.yul\":2797:3084   */\n      pop\n        /* \"#utility.yul\":3151:3153   */\n      0x20\n        /* \"#utility.yul\":3140:3149   */\n      dup4\n        /* \"#utility.yul\":3136:3154   */\n      add\n        /* \"#utility.yul\":3123:3155   */\n      calldataload\n        /* \"#utility.yul\":3182:3200   */\n      0xffffffffffffffff\n        /* \"#utility.yul\":3174:3180   */\n      dup2\n        /* \"#utility.yul\":3171:3201   */\n      gt\n        /* \"#utility.yul\":3168:3285   */\n      iszero\n      tag_84\n      jumpi\n        /* \"#utility.yul\":3204:3283   */\n      tag_85\n      tag_18\n      jump\t// in\n    tag_85:\n        /* \"#utility.yul\":3168:3285   */\n    tag_84:\n        /* \"#utility.yul\":3309:3372   */\n      tag_86\n        /* \"#utility.yul\":3364:3371   */\n      dup6\n        /* \"#utility.yul\":3355:3361   */\n      dup3\n        /* \"#utility.yul\":3344:3353   */\n      dup7\n        /* \"#utility.yul\":3340:3362   */\n      add\n        /* \"#utility.yul\":3309:3372   */\n      tag_28\n      jump\t// in\n    tag_86:\n        /* \"#utility.yul\":3299:3372   */\n      swap2\n      pop\n        /* \"#utility.yul\":3094:3382   */\n      pop\n        /* \"#utility.yul\":2555:3389   */\n      swap3\n      pop\n      swap3\n      swap1\n      pop\n      jump\t// out\n        /* \"#utility.yul\":3395:3494   */\n    tag_29:\n        /* \"#utility.yul\":3447:3453   */\n      0x00\n        /* \"#utility.yul\":3481:3486   */\n      dup2\n        /* \"#utility.yul\":3475:3487   */\n      mload\n        /* \"#utility.yul\":3465:3487   */\n      swap1\n      pop\n        /* \"#utility.yul\":3395:3494   */\n      swap2\n      swap1\n      pop\n      jump\t// out\n        /* \"#utility.yul\":3500:3680   */\n    tag_30:\n        /* \"#utility.yul\":3548:3625   */\n      0x4e487b7100000000000000000000000000000000000000000000000000000000\n        /* \"#utility.yul\":3545:3546   */\n      0x00\n        /* \"#utility.yul\":3538:3626   */\n      mstore\n        /* \"#utility.yul\":3645:3649   */\n      0x22\n        /* \"#utility.yul\":3642:3643   */\n      0x04\n        /* \"#utility.yul\":3635:3650   */\n      mstore\n        /* \"#utility.yul\":3669:3673   */\n      0x24\n        /* \"#utility.yul\":3666:3667   */\n      0x00\n        /* \"#utility.yul\":3659:3674   */\n      revert\n        /* \"#utility.yul\":3686:4006   */\n    tag_31:\n        /* \"#utility.yul\":3730:3736   */\n      0x00\n        /* \"#utility.yul\":3767:3768   */\n      0x02\n        /* \"#utility.yul\":3761:3765   */\n      dup3\n        /* \"#utility.yul\":3757:3769   */\n      div\n        /* \"#utility.yul\":3747:3769   */\n      swap1\n      pop\n        /* \"#utility.yul\":3814:3815   */\n      0x01\n        /* \"#utility.yul\":3808:3812   */\n      dup3\n        /* \"#utility.yul\":3804:3816   */\n      and\n        /* \"#utility.yul\":3835:3853   */\n      dup1\n        /* \"#utility.yul\":3825:3906   */\n      tag_90\n      jumpi\n        /* \"#utility.yul\":3891:3895   */\n      0x7f\n        /* \"#utility.yul\":3883:3889   */\n      dup3\n        /* \"#utility.yul\":3879:3896   */\n      and\n        /* \"#utility.yul\":3869:3896   */\n      swap2\n      pop\n        /* \"#utility.yul\":3825:3906   */\n    tag_90:\n        /* \"#utility.yul\":3953:3955   */\n      0x20\n        /* \"#utility.yul\":3945:3951   */\n      dup3\n        /* \"#utility.yul\":3942:3956   */\n      lt\n        /* \"#utility.yul\":3922:3940   */\n      dup2\n        /* \"#utility.yul\":3919:3957   */\n      sub\n        /* \"#utility.yul\":3916:4000   */\n      tag_91\n      jumpi\n        /* \"#utility.yul\":3972:3990   */\n      tag_92\n      tag_30\n      jump\t// in\n    tag_92:\n        /* \"#utility.yul\":3916:4000   */\n    tag_91:\n        /* \"#utility.yul\":3737:4006   */\n      pop\n        /* \"#utility.yul\":3686:4006   */\n      swap2\n      swap1\n      pop\n      jump\t// out\n        /* \"#utility.yul\":4012:4153   */\n    tag_32:\n        /* \"#utility.yul\":4061:4065   */\n      0x00\n        /* \"#utility.yul\":4084:4087   */\n      dup2\n        /* \"#utility.yul\":4076:4087   */\n      swap1\n      pop\n        /* \"#utility.yul\":4107:4110   */\n      dup2\n        /* \"#utility.yul\":4104:4105   */\n      0x00\n        /* \"#utility.yul\":4097:4111   */\n      mstore\n        /* \"#utility.yul\":4141:4145   */\n      0x20\n        /* \"#utility.yul\":4138:4139   */\n      0x00\n        /* \"#utility.yul\":4128:4146   */\n      keccak256\n        /* \"#utility.yul\":4120:4146   */\n      swap1\n      pop\n        /* \"#utility.yul\":4012:4153   */\n      swap2\n      swap1\n      pop\n      jump\t// out\n        /* \"#utility.yul\":4159:4252   */\n    tag_33:\n        /* \"#utility.yul\":4196:4202   */\n      0x00\n        /* \"#utility.yul\":4243:4245   */\n      0x20\n        /* \"#utility.yul\":4238:4240   */\n      0x1f\n        /* \"#utility.yul\":4231:4236   */\n      dup4\n        /* \"#utility.yul\":4227:4241   */\n      add\n        /* \"#utility.yul\":4223:4246   */\n      div\n        /* \"#utility.yul\":4213:4246   */\n      swap1\n      pop\n        /* \"#utility.yul\":4159:4252   */\n      swap2\n      swap1\n      pop\n      jump\t// out\n        /* \"#utility.yul\":4258:4365   */\n    tag_34:\n        /* \"#utility.yul\":4302:4310   */\n      0x00\n        /* \"#utility.yul\":4352:4357   */\n      dup3\n        /* \"#utility.yul\":4346:4350   */\n      dup3\n        /* \"#utility.yul\":4342:4358   */\n      shl\n        /* \"#utility.yul\":4321:4358   */\n      swap1\n      pop\n        /* \"#utility.yul\":4258:4365   */\n      swap3\n      swap2\n      pop\n      pop\n      jump\t// out\n        /* \"#utility.yul\":4371:4764   */\n    tag_35:\n        /* \"#utility.yul\":4440:4446   */\n      0x00\n        /* \"#utility.yul\":4490:4491   */\n      0x08\n        /* \"#utility.yul\":4478:4488   */\n      dup4\n        /* \"#utility.yul\":4474:4492   */\n      mul\n        /* \"#utility.yul\":4513:4610   */\n      tag_97\n        /* \"#utility.yul\":4543:4609   */\n      0xffffffffffffffffffffffffffffffffffffffffffffffffffffffffffffffff\n        /* \"#utility.yul\":4532:4541   */\n      dup3\n        /* \"#utility.yul\":4513:4610   */\n      tag_34\n      jump\t// in\n    tag_97:\n        /* \"#utility.yul\":4631:4670   */\n      tag_98\n        /* \"#utility.yul\":4661:4669   */\n      dup7\n        /* \"#utility.yul\":4650:4659   */\n      dup4\n        /* \"#utility.yul\":4631:4670   */\n      tag_34\n      jump\t// in\n    tag_98:\n        /* \"#utility.yul\":4619:4670   */\n      swap6\n      pop\n        /* \"#utility.yul\":4703:4707   */\n      dup1\n        /* \"#utility.yul\":4699:4708   */\n      not\n        /* \"#utility.yul\":4692:4697   */\n      dup5\n        /* \"#utility.yul\":4688:4709   */\n      and\n        /* \"#utility.yul\":4679:4709   */\n      swap4\n      pop\n        /* \"#utility.yul\":4752:4756   */\n      dup1\n        /* \"#utility.yul\":4742:4750   */\n      dup7\n        /* \"#utility.yul\":4738:4757   */\n      and\n        /* \"#utility.yul\":4731:4736   */\n      dup5\n        /* \"#utility.yul\":4728:4758   */\n      or\n        /* \"#utility.yul\":4718:4758   */\n      swap3\n      pop\n        /* \"#utility.yul\":4447:4764   */\n      pop\n      pop\n        /* \"#utility.yul\":4371:4764   */\n      swap4\n      swap3\n      pop\n      pop\n      pop\n      jump\t// out\n        /* \"#utility.yul\":4770:4847   */\n    tag_36:\n        /* \"#utility.yul\":4807:4814   */\n      0x00\n        /* \"#utility.yul\":4836:4841   */\n      dup2\n        /* \"#utility.yul\":4825:4841   */\n      swap1\n      pop\n        /* \"#utility.yul\":4770:4847   */\n      swap2\n      swap1\n      pop\n      jump\t// out\n        /* \"#utility.yul\":4853:4913   */\n    tag_37:\n        /* \"#utility.yul\":4881:4884   */\n      0x00\n        /* \"#utility.yul\":4902:4907   */\n      dup2\n        /* \"#utility.yul\":4895:4907   */\n      swap1\n      pop\n        /* \"#utility.yul\":4853:4913   */\n      swap2\n      swap1\n      pop\n      jump\t// out\n        /* \"#utility.yul\":4919:5061   */\n    tag_38:\n        /* \"#utility.yul\":4969:4978   */\n      0x00\n        /* \"#utility.yul\":5002:5055   */\n      tag_102\n        /* \"#utility.yul\":5020:5054   */\n      tag_103\n        /* \"#utility.yul\":5029:5053   */\n      tag_104\n        /* \"#utility.yul\":5047:5052   */\n      dup5\n        /* \"#utility.yul\":5029:5053   */\n      tag_36\n      jump\t// in\n    tag_104:\n        /* \"#utility.yul\":5020:5054   */\n      tag_37\n      jump\t// in\n    tag_103:\n        /* \"#utility.yul\":5002:5055   */\n      tag_36\n      jump\t// in\n    tag_102:\n        /* \"#utility.yul\":4989:5055   */\n      swap1\n      pop\n        /* \"#utility.yul\":4919:5061   */\n      swap2\n      swap1\n      pop\n      jump\t// out\n        /* \"#utility.yul\":5067:5142   */\n    tag_39:\n        /* \"#utility.yul\":5110:5113   */\n      0x00\n        /* \"#utility.yul\":5131:5136   */\n      dup2\n        /* \"#utility.yul\":5124:5136   */\n      swap1\n      pop\n        /* \"#utility.yul\":5067:5142   */\n      swap2\n      swap1\n      pop\n      jump\t// out\n        /* \"#utility.yul\":5148:5417   */\n    tag_40:\n        /* \"#utility.yul\":5258:5297   */\n      tag_107\n        /* \"#utility.yul\":5289:5296   */\n      dup4\n        /* \"#utility.yul\":5258:5297   */\n      tag_38\n      jump\t// in\n    tag_107:\n        /* \"#utility.yul\":5319:5410   */\n      tag_108\n        /* \"#utility.yul\":5368:5409   */\n      tag_109\n        /* \"#utility.yul\":5392:5408   */\n      dup3\n        /* \"#utility.yul\":5368:5409   */\n      tag_39\n      jump\t// in\n    tag_109:\n        /* \"#utility.yul\":5360:5366   */\n      dup5\n        /* \"#utility.yul\":5353:5357   */\n      dup5\n        /* \"#utility.yul\":5347:5358   */\n      sload\n        /* \"#utility.yul\":5319:5410   */\n      tag_35\n      jump\t// in\n    tag_108:\n        /* \"#utility.yul\":5313:5317   */\n      dup3\n        /* \"#utility.yul\":5306:5411   */\n      sstore\n        /* \"#utility.yul\":5224:5417   */\n      pop\n        /* \"#utility.yul\":5148:5417   */\n      pop\n      pop\n      pop\n      jump\t// out\n        /* \"#utility.yul\":5423:5496   */\n    tag_41:\n        /* \"#utility.yul\":5468:5471   */\n      0x00\n        /* \"#utility.yul\":5423:5496   */\n      swap1\n      jump\t// out\n        /* \"#utility.yul\":5502:5691   */\n    tag_42:\n        /* \"#utility.yul\":5579:5611   */\n      tag_112\n      tag_41\n      jump\t// in\n    tag_112:\n        /* \"#utility.yul\":5620:5685   */\n      tag_113\n        /* \"#utility.yul\":5678:5684   */\n      dup2\n        /* \"#utility.yul\":5670:5676   */\n      dup5\n        /* \"#utility.yul\":5664:5668   */\n      dup5\n        /* \"#utility.yul\":5620:5685   */\n      tag_40\n      jump\t// in\n    tag_113:\n        /* \"#utility.yul\":5555:5691   */\n      pop\n        /* \"#utility.yul\":5502:5691   */\n      pop\n      pop\n      jump\t// out\n        /* \"#utility.yul\":5697:5883   */\n    tag_43:\n        /* \"#utility.yul\":5757:5877   */\n    tag_115:\n        /* \"#utility.yul\":5774:5777   */\n      dup2\n        /* \"#utility.yul\":5767:5772   */\n      dup2\n        /* \"#utility.yul\":5764:5778   */\n      lt\n        /* \"#utility.yul\":5757:5877   */\n      iszero\n      tag_117\n      jumpi\n        /* \"#utility.yul\":5828:5867   */\n      tag_118\n        /* \"#utility.yul\":5865:5866   */\n      0x00\n        /* \"#utility.yul\":5858:5863   */\n      dup3\n        /* \"#utility.yul\":5828:5867   */\n      tag_42\n      jump\t// in\n    tag_118:\n        /* \"#utility.yul\":5801:5802   */\n      0x01\n        /* \"#utility.yul\":5794:5799   */\n      dup2\n        /* \"#utility.yul\":5790:5803   */\n      add\n        /* \"#utility.yul\":5781:5803   */\n      swap1\n      pop\n        /* \"#utility.yul\":5757:5877   */\n      jump(tag_115)\n    tag_117:\n        /* \"#utility.yul\":5697:5883   */\n      pop\n      pop\n      jump\t// out\n        /* \"#utility.yul\":5889:6432   */\n    tag_44:\n        /* \"#utility.yul\":5990:5992   */\n      0x1f\n        /* \"#utility.yul\":5985:5988   */\n      dup3\n        /* \"#utility.yul\":5982:5993   */\n      gt\n        /* \"#utility.yul\":5979:6425   */\n      iszero\n      tag_120\n      jumpi\n        /* \"#utility.yul\":6024:6062   */\n      tag_121\n        /* \"#utility.yul\":6056:6061   */\n      dup2\n        /* \"#utility.yul\":6024:6062   */\n      tag_32\n      jump\t// in\n    tag_121:\n        /* \"#utility.yul\":6108:6137   */\n      tag_122\n        /* \"#utility.yul\":6126:6136   */\n      dup5\n        /* \"#utility.yul\":6108:6137   */\n      tag_33\n      jump\t// in\n    tag_122:\n        /* \"#utility.yul\":6098:6106   */\n      dup2\n        /* \"#utility.yul\":6094:6138   */\n      add\n        /* \"#utility.yul\":6291:6293   */\n      0x20\n        /* \"#utility.yul\":6279:6289   */\n      dup6\n        /* \"#utility.yul\":6276:6294   */\n      lt\n        /* \"#utility.yul\":6273:6322   */\n      iszero\n      tag_123\n      jumpi\n        /* \"#utility.yul\":6312:6320   */\n      dup2\n        /* \"#utility.yul\":6297:6320   */\n      swap1\n      pop\n        /* \"#utility.yul\":6273:6322   */\n    tag_123:\n        /* \"#utility.yul\":6335:6415   */\n      tag_124\n        /* \"#utility.yul\":6391:6413   */\n      tag_125\n        /* \"#utility.yul\":6409:6412   */\n      dup6\n        /* \"#utility.yul\":6391:6413   */\n      tag_33\n      jump\t// in\n    tag_125:\n        /* \"#utility.yul\":6381:6389   */\n      dup4\n        /* \"#utility.yul\":6377:6414   */\n      add\n        /* \"#utility.yul\":6364:6375   */\n      dup3\n        /* \"#utility.yul\":6335:6415   */\n      tag_43\n      jump\t// in\n    tag_124:\n        /* \"#utility.yul\":5994:6425   */\n      pop\n      pop\n        /* \"#utility.yul\":5979:6425   */\n    tag_120:\n        /* \"#utility.yul\":5889:6432   */\n      pop\n      pop\n      pop\n      jump\t// out\n        /* \"#utility.yul\":6438:6555   */\n    tag_45:\n        /* \"#utility.yul\":6492:6500   */\n      0x00\n        /* \"#utility.yul\":6542:6547   */\n      dup3\n        /* \"#utility.yul\":6536:6540   */\n      dup3\n        /* \"#utility.yul\":6532:6548   */\n      shr\n        /* \"#utility.yul\":6511:6548   */\n      swap1\n      pop\n        /* \"#utility.yul\":6438:6555   */\n      swap3\n      swap2\n      pop\n      pop\n      jump\t// out\n        /* \"#utility.yul\":6561:6730   */\n    tag_46:\n        /* \"#utility.yul\":6605:6611   */\n      0x00\n        /* \"#utility.yul\":6638:6689   */\n      tag_128\n        /* \"#utility.yul\":6686:6687   */\n      0x00\n        /* \"#utility.yul\":6682:6688   */\n      not\n        /* \"#utility.yul\":6674:6679   */\n      dup5\n        /* \"#utility.yul\":6671:6672   */\n      0x08\n        /* \"#utility.yul\":6667:6680   */\n      mul\n        /* \"#utility.yul\":6638:6689   */\n      tag_45\n      jump\t// in\n    tag_128:\n        /* \"#utility.yul\":6634:6690   */\n      not\n        /* \"#utility.yul\":6719:6723   */\n      dup1\n        /* \"#utility.yul\":6713:6717   */\n      dup4\n        /* \"#utility.yul\":6709:6724   */\n      and\n        /* \"#utility.yul\":6699:6724   */\n      swap2\n      pop\n        /* \"#utility.yul\":6612:6730   */\n      pop\n        /* \"#utility.yul\":6561:6730   */\n      swap3\n      swap2\n      pop\n      pop\n      jump\t// out\n        /* \"#utility.yul\":6735:7030   */\n    tag_47:\n        /* \"#utility.yul\":6811:6815   */\n      0x00\n        /* \"#utility.yul\":6957:6986   */\n      tag_130\n        /* \"#utility.yul\":6982:6985   */\n      dup4\n        /* \"#utility.yul\":6976:6980   */\n      dup4\n        /* \"#utility.yul\":6957:6986   */\n      tag_46\n      jump\t// in\n    tag_130:\n        /* \"#utility.yul\":6949:6986   */\n      swap2\n      pop\n        /* \"#utility.yul\":7019:7022   */\n      dup3\n        /* \"#utility.yul\":7016:7017   */\n      0x02\n        /* \"#utility.yul\":7012:7023   */\n      mul\n        /* \"#utility.yul\":7006:7010   */\n      dup3\n        /* \"#utility.yul\":7003:7024   */\n      or\n        /* \"#utility.yul\":6995:7024   */\n      swap1\n      pop\n        /* \"#utility.yul\":6735:7030   */\n      swap3\n      swap2\n      pop\n      pop\n      jump\t// out\n        /* \"#utility.yul\":7035:8430   */\n    tag_14:\n        /* \"#utility.yul\":7152:7189   */\n      tag_132\n        /* \"#utility.yul\":7185:7188   */\n      dup3\n        /* \"#utility.yul\":7152:7189   */\n      tag_29\n      jump\t// in\n    tag_132:\n        /* \"#utility.yul\":7254:7272   */\n      0xffffffffffffffff\n        /* \"#utility.yul\":7246:7252   */\n      dup2\n        /* \"#utility.yul\":7243:7273   */\n      gt\n        /* \"#utility.yul\":7240:7296   */\n      iszero\n      tag_133\n      jumpi\n        /* \"#utility.yul\":7276:7294   */\n      tag_134\n      tag_22\n      jump\t// in\n    tag_134:\n        /* \"#utility.yul\":7240:7296   */\n    tag_133:\n        /* \"#utility.yul\":7320:7358   */\n      tag_135\n        /* \"#utility.yul\":7352:7356   */\n      dup3\n        /* \"#utility.yul\":7346:7357   */\n      sload\n        /* \"#utility.yul\":7320:7358   */\n      tag_31\n      jump\t// in\n    tag_135:\n        /* \"#utility.yul\":7405:7472   */\n      tag_136\n        /* \"#utility.yul\":7465:7471   */\n      dup3\n        /* \"#utility.yul\":7457:7463   */\n      dup3\n        /* \"#utility.yul\":7451:7455   */\n      dup6\n        /* \"#utility.yul\":7405:7472   */\n      tag_44\n      jump\t// in\n    tag_136:\n        /* \"#utility.yul\":7499:7500   */\n      0x00\n        /* \"#utility.yul\":7523:7527   */\n      0x20\n        /* \"#utility.yul\":7510:7527   */\n      swap1\n      pop\n        /* \"#utility.yul\":7555:7557   */\n      0x1f\n        /* \"#utility.yul\":7547:7553   */\n      dup4\n        /* \"#utility.yul\":7544:7558   */\n      gt\n        /* \"#utility.yul\":7572:7573   */\n      0x01\n        /* \"#utility.yul\":7567:8185   */\n      dup2\n      eq\n      tag_138\n      jumpi\n        /* \"#utility.yul\":8229:8230   */\n      0x00\n        /* \"#utility.yul\":8246:8252   */\n      dup5\n        /* \"#utility.yul\":8243:8320   */\n      iszero\n      tag_139\n      jumpi\n        /* \"#utility.yul\":8295:8304   */\n      dup3\n        /* \"#utility.yul\":8290:8293   */\n      dup8\n        /* \"#utility.yul\":8286:8305   */\n      add\n        /* \"#utility.yul\":8280:8306   */\n      mload\n        /* \"#utility.yul\":8271:8306   */\n      swap1\n      pop\n        /* \"#utility.yul\":8243:8320   */\n    tag_139:\n        /* \"#utility.yul\":8346:8413   */\n      tag_140\n        /* \"#utility.yul\":8406:8412   */\n      dup6\n        /* \"#utility.yul\":8399:8404   */\n      dup3\n        /* \"#utility.yul\":8346:8413   */\n      tag_47\n      jump\t// in\n    tag_140:\n        /* \"#utility.yul\":8340:8344   */\n      dup7\n        /* \"#utility.yul\":8333:8414   */\n      sstore\n        /* \"#utility.yul\":8202:8424   */\n      pop\n        /* \"#utility.yul\":7537:8424   */\n      jump(tag_137)\n        /* \"#utility.yul\":7567:8185   */\n    tag_138:\n        /* \"#utility.yul\":7619:7623   */\n      0x1f\n        /* \"#utility.yul\":7615:7624   */\n      not\n        /* \"#utility.yul\":7607:7613   */\n      dup5\n        /* \"#utility.yul\":7603:7625   */\n      and\n        /* \"#utility.yul\":7653:7690   */\n      tag_141\n        /* \"#utility.yul\":7685:7689   */\n      dup7\n        /* \"#utility.yul\":7653:7690   */\n      tag_32\n      jump\t// in\n    tag_141:\n        /* \"#utility.yul\":7712:7713   */\n      0x00\n        /* \"#utility.yul\":7726:7934   */\n    tag_142:\n        /* \"#utility.yul\":7740:7747   */\n      dup3\n        /* \"#utility.yul\":7737:7738   */\n      dup2\n        /* \"#utility.yul\":7734:7748   */\n      lt\n        /* \"#utility.yul\":7726:7934   */\n      iszero\n      tag_144\n      jumpi\n        /* \"#utility.yul\":7819:7828   */\n      dup5\n        /* \"#utility.yul\":7814:7817   */\n      dup10\n        /* \"#utility.yul\":7810:7829   */\n      add\n        /* \"#utility.yul\":7804:7830   */\n      mload\n        /* \"#utility.yul\":7796:7802   */\n      dup3\n        /* \"#utility.yul\":7789:7831   */\n      sstore\n        /* \"#utility.yul\":7870:7871   */\n      0x01\n        /* \"#utility.yul\":7862:7868   */\n      dup3\n        /* \"#utility.yul\":7858:7872   */\n      add\n        /* \"#utility.yul\":7848:7872   */\n      swap2\n      pop\n        /* \"#utility.yul\":7917:7919   */\n      0x20\n        /* \"#utility.yul\":7906:7915   */\n      dup6\n        /* \"#utility.yul\":7902:7920   */\n      add\n        /* \"#utility.yul\":7889:7920   */\n      swap5\n      pop\n        /* \"#utility.yul\":7763:7767   */\n      0x20\n        /* \"#utility.yul\":7760:7761   */\n      dup2\n        /* \"#utility.yul\":7756:7768   */\n      add\n        /* \"#utility.yul\":7751:7768   */\n      swap1\n      pop\n        /* \"#utility.yul\":7726:7934   */\n      jump(tag_142)\n    tag_144:\n        /* \"#utility.yul\":7962:7968   */\n      dup7\n        /* \"#utility.yul\":7953:7960   */\n      dup4\n        /* \"#utility.yul\":7950:7969   */\n      lt\n        /* \"#utility.yul\":7947:8126   */\n      iszero\n      tag_145\n      jumpi\n        /* \"#utility.yul\":8020:8029   */\n      dup5\n        /* \"#utility.yul\":8015:8018   */\n      dup10\n        /* \"#utility.yul\":8011:8030   */\n      add\n        /* \"#utility.yul\":8005:8031   */\n      mload\n        /* \"#utility.yul\":8063:8111   */\n      tag_146\n        /* \"#utility.yul\":8105:8109   */\n      0x1f\n        /* \"#utility.yul\":8097:8103   */\n      dup10\n        /* \"#utility.yul\":8093:8110   */\n      and\n        /* \"#utility.yul\":8082:8091   */\n      dup3\n        /* \"#utility.yul\":8063:8111   */\n      tag_46\n      jump\t// in\n    tag_146:\n        /* \"#utility.yul\":8055:8061   */\n      dup4\n        /* \"#utility.yul\":8048:8112   */\n      sstore\n        /* \"#utility.yul\":7970:8126   */\n      pop\n        /* \"#utility.yul\":7947:8126   */\n    tag_145:\n        /* \"#utility.yul\":8172:8173   */\n      0x01\n        /* \"#utility.yul\":8168:8169   */\n      0x02\n        /* \"#utility.yul\":8160:8166   */\n      dup9\n        /* \"#utility.yul\":8156:8170   */\n      mul\n        /* \"#utility.yul\":8152:8174   */\n      add\n        /* \"#utility.yul\":8146:8150   */\n      dup9\n        /* \"#utility.yul\":8139:8175   */\n      sstore\n        /* \"#utility.yul\":7574:8185   */\n      pop\n      pop\n      pop\n        /* \"#utility.yul\":7537:8424   */\n    tag_137:\n      pop\n        /* \"#utility.yul\":7127:8430   */\n      pop\n      pop\n      pop\n        /* \"#utility.yul\":7035:8430   */\n      pop\n      pop\n      jump\t// out\n\n    auxdata: 0xa264697066735822122018ab86b3747cd72ca2d2fa24522200d16b87f9fa08fb5fa9e901ce909984c9bd64736f6c634300081a0033\n}\n",
				"bytecode": {
					"linkReferences": {},
					"object": "6080604052348015600e575f80fd5b5061059d8061001c5f395ff3fe608060405234801561000f575f80fd5b5060043610610029575f3560e01c80635728b9731461002d575b5f80fd5b61004760048036038101906100429190610215565b610049565b005b600a82511115801561005d57506005825110155b610065575f80fd5b603281511115801561007957506014815110155b610081575f80fd5b6040518060400160405280838152602001828152505f80820151815f0190816100aa9190610498565b5060208201518160010190816100c09190610498565b509050505050565b5f604051905090565b5f80fd5b5f80fd5b5f80fd5b5f80fd5b5f601f19601f8301169050919050565b7f4e487b71000000000000000000000000000000000000000000000000000000005f52604160045260245ffd5b610127826100e1565b810181811067ffffffffffffffff82111715610146576101456100f1565b5b80604052505050565b5f6101586100c8565b9050610164828261011e565b919050565b5f67ffffffffffffffff821115610183576101826100f1565b5b61018c826100e1565b9050602081019050919050565b828183375f83830152505050565b5f6101b96101b484610169565b61014f565b9050828152602081018484840111156101d5576101d46100dd565b5b6101e0848285610199565b509392505050565b5f82601f8301126101fc576101fb6100d9565b5b813561020c8482602086016101a7565b91505092915050565b5f806040838503121561022b5761022a6100d1565b5b5f83013567ffffffffffffffff811115610248576102476100d5565b5b610254858286016101e8565b925050602083013567ffffffffffffffff811115610275576102746100d5565b5b610281858286016101e8565b9150509250929050565b5f81519050919050565b7f4e487b71000000000000000000000000000000000000000000000000000000005f52602260045260245ffd5b5f60028204905060018216806102d957607f821691505b6020821081036102ec576102eb610295565b5b50919050565b5f819050815f5260205f209050919050565b5f6020601f8301049050919050565b5f82821b905092915050565b5f6008830261034e7fffffffffffffffffffffffffffffffffffffffffffffffffffffffffffffffff82610313565b6103588683610313565b95508019841693508086168417925050509392505050565b5f819050919050565b5f819050919050565b5f61039c61039761039284610370565b610379565b610370565b9050919050565b5f819050919050565b6103b583610382565b6103c96103c1826103a3565b84845461031f565b825550505050565b5f90565b6103dd6103d1565b6103e88184846103ac565b505050565b5b8181101561040b576104005f826103d5565b6001810190506103ee565b5050565b601f82111561045057610421816102f2565b61042a84610304565b81016020851015610439578190505b61044d61044585610304565b8301826103ed565b50505b505050565b5f82821c905092915050565b5f6104705f1984600802610455565b1980831691505092915050565b5f6104888383610461565b9150826002028217905092915050565b6104a18261028b565b67ffffffffffffffff8111156104ba576104b96100f1565b5b6104c482546102c2565b6104cf82828561040f565b5f60209050601f831160018114610500575f84156104ee578287015190505b6104f8858261047d565b86555061055f565b601f19841661050e866102f2565b5f5b8281101561053557848901518255600182019150602085019450602081019050610510565b86831015610552578489015161054e601f891682610461565b8355505b6001600288020188555050505b50505050505056fea264697066735822122018ab86b3747cd72ca2d2fa24522200d16b87f9fa08fb5fa9e901ce909984c9bd64736f6c634300081a0033",
					"opcodes": "PUSH1 0x80 PUSH1 0x40 MSTORE CALLVALUE DUP1 ISZERO PUSH1 0xE JUMPI PUSH0 DUP1 REVERT JUMPDEST POP PUSH2 0x59D DUP1 PUSH2 0x1C PUSH0 CODECOPY PUSH0 RETURN INVALID PUSH1 0x80 PUSH1 0x40 MSTORE CALLVALUE DUP1 ISZERO PUSH2 0xF JUMPI PUSH0 DUP1 REVERT JUMPDEST POP PUSH1 0x4 CALLDATASIZE LT PUSH2 0x29 JUMPI PUSH0 CALLDATALOAD PUSH1 0xE0 SHR DUP1 PUSH4 0x5728B973 EQ PUSH2 0x2D JUMPI JUMPDEST PUSH0 DUP1 REVERT JUMPDEST PUSH2 0x47 PUSH1 0x4 DUP1 CALLDATASIZE SUB DUP2 ADD SWAP1 PUSH2 0x42 SWAP2 SWAP1 PUSH2 0x215 JUMP JUMPDEST PUSH2 0x49 JUMP JUMPDEST STOP JUMPDEST PUSH1 0xA DUP3 MLOAD GT ISZERO DUP1 ISZERO PUSH2 0x5D JUMPI POP PUSH1 0x5 DUP3 MLOAD LT ISZERO JUMPDEST PUSH2 0x65 JUMPI PUSH0 DUP1 REVERT JUMPDEST PUSH1 0x32 DUP2 MLOAD GT ISZERO DUP1 ISZERO PUSH2 0x79 JUMPI POP PUSH1 0x14 DUP2 MLOAD LT ISZERO JUMPDEST PUSH2 0x81 JUMPI PUSH0 DUP1 REVERT JUMPDEST PUSH1 0x40 MLOAD DUP1 PUSH1 0x40 ADD PUSH1 0x40 MSTORE DUP1 DUP4 DUP2 MSTORE PUSH1 0x20 ADD DUP3 DUP2 MSTORE POP PUSH0 DUP1 DUP3 ADD MLOAD DUP2 PUSH0 ADD SWAP1 DUP2 PUSH2 0xAA SWAP2 SWAP1 PUSH2 0x498 JUMP JUMPDEST POP PUSH1 0x20 DUP3 ADD MLOAD DUP2 PUSH1 0x1 ADD SWAP1 DUP2 PUSH2 0xC0 SWAP2 SWAP1 PUSH2 0x498 JUMP JUMPDEST POP SWAP1 POP POP POP POP JUMP JUMPDEST PUSH0 PUSH1 0x40 MLOAD SWAP1 POP SWAP1 JUMP JUMPDEST PUSH0 DUP1 REVERT JUMPDEST PUSH0 DUP1 REVERT JUMPDEST PUSH0 DUP1 REVERT JUMPDEST PUSH0 DUP1 REVERT JUMPDEST PUSH0 PUSH1 0x1F NOT PUSH1 0x1F DUP4 ADD AND SWAP1 POP SWAP2 SWAP1 POP JUMP JUMPDEST PUSH32 0x4E487B7100000000000000000000000000000000000000000000000000000000 PUSH0 MSTORE PUSH1 0x41 PUSH1 0x4 MSTORE PUSH1 0x24 PUSH0 REVERT JUMPDEST PUSH2 0x127 DUP3 PUSH2 0xE1 JUMP JUMPDEST DUP2 ADD DUP2 DUP2 LT PUSH8 0xFFFFFFFFFFFFFFFF DUP3 GT OR ISZERO PUSH2 0x146 JUMPI PUSH2 0x145 PUSH2 0xF1 JUMP JUMPDEST JUMPDEST DUP1 PUSH1 0x40 MSTORE POP POP POP JUMP JUMPDEST PUSH0 PUSH2 0x158 PUSH2 0xC8 JUMP JUMPDEST SWAP1 POP PUSH2 0x164 DUP3 DUP3 PUSH2 0x11E JUMP JUMPDEST SWAP2 SWAP1 POP JUMP JUMPDEST PUSH0 PUSH8 0xFFFFFFFFFFFFFFFF DUP3 GT ISZERO PUSH2 0x183 JUMPI PUSH2 0x182 PUSH2 0xF1 JUMP JUMPDEST JUMPDEST PUSH2 0x18C DUP3 PUSH2 0xE1 JUMP JUMPDEST SWAP1 POP PUSH1 0x20 DUP2 ADD SWAP1 POP SWAP2 SWAP1 POP JUMP JUMPDEST DUP3 DUP2 DUP4 CALLDATACOPY PUSH0 DUP4 DUP4 ADD MSTORE POP POP POP JUMP JUMPDEST PUSH0 PUSH2 0x1B9 PUSH2 0x1B4 DUP5 PUSH2 0x169 JUMP JUMPDEST PUSH2 0x14F JUMP JUMPDEST SWAP1 POP DUP3 DUP2 MSTORE PUSH1 0x20 DUP2 ADD DUP5 DUP5 DUP5 ADD GT ISZERO PUSH2 0x1D5 JUMPI PUSH2 0x1D4 PUSH2 0xDD JUMP JUMPDEST JUMPDEST PUSH2 0x1E0 DUP5 DUP3 DUP6 PUSH2 0x199 JUMP JUMPDEST POP SWAP4 SWAP3 POP POP POP JUMP JUMPDEST PUSH0 DUP3 PUSH1 0x1F DUP4 ADD SLT PUSH2 0x1FC JUMPI PUSH2 0x1FB PUSH2 0xD9 JUMP JUMPDEST JUMPDEST DUP2 CALLDATALOAD PUSH2 0x20C DUP5 DUP3 PUSH1 0x20 DUP7 ADD PUSH2 0x1A7 JUMP JUMPDEST SWAP2 POP POP SWAP3 SWAP2 POP POP JUMP JUMPDEST PUSH0 DUP1 PUSH1 0x40 DUP4 DUP6 SUB SLT ISZERO PUSH2 0x22B JUMPI PUSH2 0x22A PUSH2 0xD1 JUMP JUMPDEST JUMPDEST PUSH0 DUP4 ADD CALLDATALOAD PUSH8 0xFFFFFFFFFFFFFFFF DUP2 GT ISZERO PUSH2 0x248 JUMPI PUSH2 0x247 PUSH2 0xD5 JUMP JUMPDEST JUMPDEST PUSH2 0x254 DUP6 DUP3 DUP7 ADD PUSH2 0x1E8 JUMP JUMPDEST SWAP3 POP POP PUSH1 0x20 DUP4 ADD CALLDATALOAD PUSH8 0xFFFFFFFFFFFFFFFF DUP2 GT ISZERO PUSH2 0x275 JUMPI PUSH2 0x274 PUSH2 0xD5 JUMP JUMPDEST JUMPDEST PUSH2 0x281 DUP6 DUP3 DUP7 ADD PUSH2 0x1E8 JUMP JUMPDEST SWAP2 POP POP SWAP3 POP SWAP3 SWAP1 POP JUMP JUMPDEST PUSH0 DUP2 MLOAD SWAP1 POP SWAP2 SWAP1 POP JUMP JUMPDEST PUSH32 0x4E487B7100000000000000000000000000000000000000000000000000000000 PUSH0 MSTORE PUSH1 0x22 PUSH1 0x4 MSTORE PUSH1 0x24 PUSH0 REVERT JUMPDEST PUSH0 PUSH1 0x2 DUP3 DIV SWAP1 POP PUSH1 0x1 DUP3 AND DUP1 PUSH2 0x2D9 JUMPI PUSH1 0x7F DUP3 AND SWAP2 POP JUMPDEST PUSH1 0x20 DUP3 LT DUP2 SUB PUSH2 0x2EC JUMPI PUSH2 0x2EB PUSH2 0x295 JUMP JUMPDEST JUMPDEST POP SWAP2 SWAP1 POP JUMP JUMPDEST PUSH0 DUP2 SWAP1 POP DUP2 PUSH0 MSTORE PUSH1 0x20 PUSH0 KECCAK256 SWAP1 POP SWAP2 SWAP1 POP JUMP JUMPDEST PUSH0 PUSH1 0x20 PUSH1 0x1F DUP4 ADD DIV SWAP1 POP SWAP2 SWAP1 POP JUMP JUMPDEST PUSH0 DUP3 DUP3 SHL SWAP1 POP SWAP3 SWAP2 POP POP JUMP JUMPDEST PUSH0 PUSH1 0x8 DUP4 MUL PUSH2 0x34E PUSH32 0xFFFFFFFFFFFFFFFFFFFFFFFFFFFFFFFFFFFFFFFFFFFFFFFFFFFFFFFFFFFFFFFF DUP3 PUSH2 0x313 JUMP JUMPDEST PUSH2 0x358 DUP7 DUP4 PUSH2 0x313 JUMP JUMPDEST SWAP6 POP DUP1 NOT DUP5 AND SWAP4 POP DUP1 DUP7 AND DUP5 OR SWAP3 POP POP POP SWAP4 SWAP3 POP POP POP JUMP JUMPDEST PUSH0 DUP2 SWAP1 POP SWAP2 SWAP1 POP JUMP JUMPDEST PUSH0 DUP2 SWAP1 POP SWAP2 SWAP1 POP JUMP JUMPDEST PUSH0 PUSH2 0x39C PUSH2 0x397 PUSH2 0x392 DUP5 PUSH2 0x370 JUMP JUMPDEST PUSH2 0x379 JUMP JUMPDEST PUSH2 0x370 JUMP JUMPDEST SWAP1 POP SWAP2 SWAP1 POP JUMP JUMPDEST PUSH0 DUP2 SWAP1 POP SWAP2 SWAP1 POP JUMP JUMPDEST PUSH2 0x3B5 DUP4 PUSH2 0x382 JUMP JUMPDEST PUSH2 0x3C9 PUSH2 0x3C1 DUP3 PUSH2 0x3A3 JUMP JUMPDEST DUP5 DUP5 SLOAD PUSH2 0x31F JUMP JUMPDEST DUP3 SSTORE POP POP POP POP JUMP JUMPDEST PUSH0 SWAP1 JUMP JUMPDEST PUSH2 0x3DD PUSH2 0x3D1 JUMP JUMPDEST PUSH2 0x3E8 DUP2 DUP5 DUP5 PUSH2 0x3AC JUMP JUMPDEST POP POP POP JUMP JUMPDEST JUMPDEST DUP2 DUP2 LT ISZERO PUSH2 0x40B JUMPI PUSH2 0x400 PUSH0 DUP3 PUSH2 0x3D5 JUMP JUMPDEST PUSH1 0x1 DUP2 ADD SWAP1 POP PUSH2 0x3EE JUMP JUMPDEST POP POP JUMP JUMPDEST PUSH1 0x1F DUP3 GT ISZERO PUSH2 0x450 JUMPI PUSH2 0x421 DUP2 PUSH2 0x2F2 JUMP JUMPDEST PUSH2 0x42A DUP5 PUSH2 0x304 JUMP JUMPDEST DUP2 ADD PUSH1 0x20 DUP6 LT ISZERO PUSH2 0x439 JUMPI DUP2 SWAP1 POP JUMPDEST PUSH2 0x44D PUSH2 0x445 DUP6 PUSH2 0x304 JUMP JUMPDEST DUP4 ADD DUP3 PUSH2 0x3ED JUMP JUMPDEST POP POP JUMPDEST POP POP POP JUMP JUMPDEST PUSH0 DUP3 DUP3 SHR SWAP1 POP SWAP3 SWAP2 POP POP JUMP JUMPDEST PUSH0 PUSH2 0x470 PUSH0 NOT DUP5 PUSH1 0x8 MUL PUSH2 0x455 JUMP JUMPDEST NOT DUP1 DUP4 AND SWAP2 POP POP SWAP3 SWAP2 POP POP JUMP JUMPDEST PUSH0 PUSH2 0x488 DUP4 DUP4 PUSH2 0x461 JUMP JUMPDEST SWAP2 POP DUP3 PUSH1 0x2 MUL DUP3 OR SWAP1 POP SWAP3 SWAP2 POP POP JUMP JUMPDEST PUSH2 0x4A1 DUP3 PUSH2 0x28B JUMP JUMPDEST PUSH8 0xFFFFFFFFFFFFFFFF DUP2 GT ISZERO PUSH2 0x4BA JUMPI PUSH2 0x4B9 PUSH2 0xF1 JUMP JUMPDEST JUMPDEST PUSH2 0x4C4 DUP3 SLOAD PUSH2 0x2C2 JUMP JUMPDEST PUSH2 0x4CF DUP3 DUP3 DUP6 PUSH2 0x40F JUMP JUMPDEST PUSH0 PUSH1 0x20 SWAP1 POP PUSH1 0x1F DUP4 GT PUSH1 0x1 DUP2 EQ PUSH2 0x500 JUMPI PUSH0 DUP5 ISZERO PUSH2 0x4EE JUMPI DUP3 DUP8 ADD MLOAD SWAP1 POP JUMPDEST PUSH2 0x4F8 DUP6 DUP3 PUSH2 0x47D JUMP JUMPDEST DUP7 SSTORE POP PUSH2 0x55F JUMP JUMPDEST PUSH1 0x1F NOT DUP5 AND PUSH2 0x50E DUP7 PUSH2 0x2F2 JUMP JUMPDEST PUSH0 JUMPDEST DUP3 DUP2 LT ISZERO PUSH2 0x535 JUMPI DUP5 DUP10 ADD MLOAD DUP3 SSTORE PUSH1 0x1 DUP3 ADD SWAP2 POP PUSH1 0x20 DUP6 ADD SWAP5 POP PUSH1 0x20 DUP2 ADD SWAP1 POP PUSH2 0x510 JUMP JUMPDEST DUP7 DUP4 LT ISZERO PUSH2 0x552 JUMPI DUP5 DUP10 ADD MLOAD PUSH2 0x54E PUSH1 0x1F DUP10 AND DUP3 PUSH2 0x461 JUMP JUMPDEST DUP4 SSTORE POP JUMPDEST PUSH1 0x1 PUSH1 0x2 DUP9 MUL ADD DUP9 SSTORE POP POP POP JUMPDEST POP POP POP POP POP POP JUMP INVALID LOG2 PUSH5 0x6970667358 0x22 SLT KECCAK256 XOR 0xAB DUP7 0xB3 PUSH21 0x7CD72CA2D2FA24522200D16B87F9FA08FB5FA9E901 0xCE SWAP1 SWAP10 DUP5 0xC9 0xBD PUSH5 0x736F6C6343 STOP ADDMOD BYTE STOP CALLER "
				},
				"gasEstimates": {
					"creation": {
						"codeDepositCost": "287400",
						"executionCost": "322",
						"totalCost": "287722"
					},
					"external": {
						"setUser(string,string)": "infinite"
					}
				},
				"methodIdentifiers": {
					"setUser(string,string)": "5728b973"
				}
			},
			"storageLayout": {
				"storage": [
					{
						"astId": 321,
						"contract": "Solidity100/sol100(81~90).sol:Q89",
						"label": "s1",
						"offset": 0,
						"slot": "0",
						"type": "t_struct(User)318_storage"
					}
				],
				"types": {
					"t_string_storage": {
						"encoding": "bytes",
						"label": "string",
						"numberOfBytes": "32"
					},
					"t_struct(User)318_storage": {
						"encoding": "inplace",
						"label": "struct Q89.User",
						"members": [
							{
								"astId": 315,
								"contract": "Solidity100/sol100(81~90).sol:Q89",
								"label": "name",
								"offset": 0,
								"slot": "0",
								"type": "t_string_storage"
							},
							{
								"astId": 317,
								"contract": "Solidity100/sol100(81~90).sol:Q89",
								"label": "introduce",
								"offset": 0,
								"slot": "1",
								"type": "t_string_storage"
							}
						],
						"numberOfBytes": "64"
					}
				}
			},
			"userdoc": {
				"kind": "user",
				"methods": {},
				"version": 1
			}
		}
	}
}