{
	"Solidity100/sol100(81~90).sol": {
		"Q83": {
			"abi": [
				{
					"inputs": [],
					"name": "pushA",
					"outputs": [],
					"stateMutability": "nonpayable",
					"type": "function"
				}
			],
			"devdoc": {
				"kind": "dev",
				"methods": {},
				"version": 1
			},
			"evm": {
				"assembly": "    /* \"Solidity100/sol100(81~90).sol\":918:1370  contract Q83 {... */\n  mstore(0x40, 0x80)\n  callvalue\n  dup1\n  iszero\n  tag_1\n  jumpi\n  0x00\n  dup1\n  revert\ntag_1:\n  pop\n  dataSize(sub_0)\n  dup1\n  dataOffset(sub_0)\n  0x00\n  codecopy\n  0x00\n  return\nstop\n\nsub_0: assembly {\n        /* \"Solidity100/sol100(81~90).sol\":918:1370  contract Q83 {... */\n      mstore(0x40, 0x80)\n      callvalue\n      dup1\n      iszero\n      tag_1\n      jumpi\n      0x00\n      dup1\n      revert\n    tag_1:\n      pop\n      jumpi(tag_2, lt(calldatasize, 0x04))\n      shr(0xe0, calldataload(0x00))\n      dup1\n      0x6aea0267\n      eq\n      tag_3\n      jumpi\n    tag_2:\n      0x00\n      dup1\n      revert\n        /* \"Solidity100/sol100(81~90).sol\":1315:1367  function pushA() public {... */\n    tag_3:\n      tag_4\n      tag_5\n      jump\t// in\n    tag_4:\n      stop\n    tag_5:\n        /* \"Solidity100/sol100(81~90).sol\":1350:1352  As */\n      0x00\n        /* \"Solidity100/sol100(81~90).sol\":1350:1359  As.push() */\n      0x01\n      dup2\n      0x01\n      dup2\n      sload\n      add\n      dup1\n      dup3\n      sstore\n      dup1\n      swap2\n      pop\n      pop\n      sub\n      swap1\n      0x00\n      mstore\n      keccak256(0x00, 0x20)\n      swap1\n      pop\n      pop\n        /* \"Solidity100/sol100(81~90).sol\":1315:1367  function pushA() public {... */\n      jump\t// out\n\n    auxdata: 0xa2646970667358221220540f5f6c9b980b4b7b75ab3d9ffc209c236da2ca52c113368aa85cd3299ad24364736f6c634300081a0033\n}\n",
				"bytecode": {
					"linkReferences": {},
					"object": "6080604052348015600e575f80fd5b50608580601a5f395ff3fe6080604052348015600e575f80fd5b50600436106026575f3560e01c80636aea026714602a575b5f80fd5b60306032565b005b5f60018160018154018082558091505003905f5260205f2090505056fea2646970667358221220540f5f6c9b980b4b7b75ab3d9ffc209c236da2ca52c113368aa85cd3299ad24364736f6c634300081a0033",
					"opcodes": "PUSH1 0x80 PUSH1 0x40 MSTORE CALLVALUE DUP1 ISZERO PUSH1 0xE JUMPI PUSH0 DUP1 REVERT JUMPDEST POP PUSH1 0x85 DUP1 PUSH1 0x1A PUSH0 CODECOPY PUSH0 RETURN INVALID PUSH1 0x80 PUSH1 0x40 MSTORE CALLVALUE DUP1 ISZERO PUSH1 0xE JUMPI PUSH0 DUP1 REVERT JUMPDEST POP PUSH1 0x4 CALLDATASIZE LT PUSH1 0x26 JUMPI PUSH0 CALLDATALOAD PUSH1 0xE0 SHR DUP1 PUSH4 0x6AEA0267 EQ PUSH1 0x2A JUMPI JUMPDEST PUSH0 DUP1 REVERT JUMPDEST PUSH1 0x30 PUSH1 0x32 JUMP JUMPDEST STOP JUMPDEST PUSH0 PUSH1 0x1 DUP2 PUSH1 0x1 DUP2 SLOAD ADD DUP1 DUP3 SSTORE DUP1 SWAP2 POP POP SUB SWAP1 PUSH0 MSTORE PUSH1 0x20 PUSH0 KECCAK256 SWAP1 POP POP JUMP INVALID LOG2 PUSH5 0x6970667358 0x22 SLT KECCAK256 SLOAD 0xF PUSH0 PUSH13 0x9B980B4B7B75AB3D9FFC209C23 PUSH14 0xA2CA52C113368AA85CD3299AD243 PUSH5 0x736F6C6343 STOP ADDMOD BYTE STOP CALLER "
				},
				"gasEstimates": {
					"creation": {
						"codeDepositCost": "26600",
						"executionCost": "79",
						"totalCost": "26679"
					},
					"external": {
						"pushA()": "24413"
					}
				},
				"methodIdentifiers": {
					"pushA()": "6aea0267"
				}
			},
			"storageLayout": {
				"storage": [
					{
						"astId": 90,
						"contract": "Solidity100/sol100(81~90).sol:Q83",
						"label": "As",
						"offset": 0,
						"slot": "0",
						"type": "t_array(t_struct(A)86_storage)dyn_storage"
					}
				],
				"types": {
					"t_address": {
						"encoding": "inplace",
						"label": "address",
						"numberOfBytes": "20"
					},
					"t_array(t_struct(A)86_storage)dyn_storage": {
						"base": "t_struct(A)86_storage",
						"encoding": "dynamic_array",
						"label": "struct Q83.A[]",
						"numberOfBytes": "32"
					},
					"t_mapping(t_uint256,t_string_storage)": {
						"encoding": "mapping",
						"key": "t_uint256",
						"label": "mapping(uint256 => string)",
						"numberOfBytes": "32",
						"value": "t_string_storage"
					},
					"t_string_storage": {
						"encoding": "bytes",
						"label": "string",
						"numberOfBytes": "32"
					},
					"t_struct(A)86_storage": {
						"encoding": "inplace",
						"label": "struct Q83.A",
						"members": [
							{
								"astId": 77,
								"contract": "Solidity100/sol100(81~90).sol:Q83",
								"label": "name",
								"offset": 0,
								"slot": "0",
								"type": "t_string_storage"
							},
							{
								"astId": 79,
								"contract": "Solidity100/sol100(81~90).sol:Q83",
								"label": "number",
								"offset": 0,
								"slot": "1",
								"type": "t_uint256"
							},
							{
								"astId": 81,
								"contract": "Solidity100/sol100(81~90).sol:Q83",
								"label": "addr",
								"offset": 0,
								"slot": "2",
								"type": "t_address"
							},
							{
								"astId": 85,
								"contract": "Solidity100/sol100(81~90).sol:Q83",
								"label": "b",
								"offset": 0,
								"slot": "3",
								"type": "t_mapping(t_uint256,t_string_storage)"
							}
						],
						"numberOfBytes": "128"
					},
					"t_uint256": {
						"encoding": "inplace",
						"label": "uint256",
						"numberOfBytes": "32"
					}
				}
			},
			"userdoc": {
				"kind": "user",
				"methods": {},
				"version": 1
			}
		}
	}
}