{
	"Solidity100/sol100(61~70).sol": {
		"Q70": {
			"abi": [
				{
					"inputs": [
						{
							"internalType": "uint256",
							"name": "n",
							"type": "uint256"
						},
						{
							"internalType": "string",
							"name": "_name",
							"type": "string"
						}
					],
					"name": "setUser",
					"outputs": [],
					"stateMutability": "nonpayable",
					"type": "function"
				}
			],
			"devdoc": {
				"kind": "dev",
				"methods": {},
				"version": 1
			},
			"evm": {
				"assembly": "    /* \"Solidity100/sol100(61~70).sol\":4642:5230  contract Q70 {... */\n  mstore(0x40, 0x80)\n  callvalue\n  dup1\n  iszero\n  tag_1\n  jumpi\n  0x00\n  dup1\n  revert\ntag_1:\n  pop\n  dataSize(sub_0)\n  dup1\n  dataOffset(sub_0)\n  0x00\n  codecopy\n  0x00\n  return\nstop\n\nsub_0: assembly {\n        /* \"Solidity100/sol100(61~70).sol\":4642:5230  contract Q70 {... */\n      mstore(0x40, 0x80)\n      callvalue\n      dup1\n      iszero\n      tag_1\n      jumpi\n      0x00\n      dup1\n      revert\n    tag_1:\n      pop\n      jumpi(tag_2, lt(calldatasize, 0x04))\n      shr(0xe0, calldataload(0x00))\n      dup1\n      0x94b670b6\n      eq\n      tag_3\n      jumpi\n    tag_2:\n      0x00\n      dup1\n      revert\n        /* \"Solidity100/sol100(61~70).sol\":5042:5227  function setUser(uint n, string memory _name) public {... */\n    tag_3:\n      tag_4\n      0x04\n      dup1\n      calldatasize\n      sub\n      dup2\n      add\n      swap1\n      tag_5\n      swap2\n      swap1\n      tag_6\n      jump\t// in\n    tag_5:\n      tag_7\n      jump\t// in\n    tag_4:\n      stop\n    tag_7:\n        /* \"Solidity100/sol100(61~70).sol\":5104:5118  bytes32 _bytes */\n      0x00\n        /* \"Solidity100/sol100(61~70).sol\":5164:5165  n */\n      dup3\n        /* \"Solidity100/sol100(61~70).sol\":5166:5171  _name */\n      dup3\n        /* \"Solidity100/sol100(61~70).sol\":5147:5172  abi.encodePacked(n,_name) */\n      add(0x20, mload(0x40))\n      tag_9\n      swap3\n      swap2\n      swap1\n      tag_10\n      jump\t// in\n    tag_9:\n      mload(0x40)\n      0x20\n      dup2\n      dup4\n      sub\n      sub\n      dup2\n      mstore\n      swap1\n      0x40\n      mstore\n        /* \"Solidity100/sol100(61~70).sol\":5137:5173  keccak256(abi.encodePacked(n,_name)) */\n      dup1\n      mload\n      swap1\n      0x20\n      add\n      keccak256\n        /* \"Solidity100/sol100(61~70).sol\":5128:5173  _bytes = keccak256(abi.encodePacked(n,_name)) */\n      swap1\n      pop\n        /* \"Solidity100/sol100(61~70).sol\":5185:5190  users */\n      0x00\n        /* \"Solidity100/sol100(61~70).sol\":5196:5216  user(n,_name,_bytes) */\n      mload(0x40)\n      dup1\n      0x60\n      add\n      0x40\n      mstore\n      dup1\n        /* \"Solidity100/sol100(61~70).sol\":5201:5202  n */\n      dup6\n        /* \"Solidity100/sol100(61~70).sol\":5196:5216  user(n,_name,_bytes) */\n      dup2\n      mstore\n      0x20\n      add\n        /* \"Solidity100/sol100(61~70).sol\":5203:5208  _name */\n      dup5\n        /* \"Solidity100/sol100(61~70).sol\":5196:5216  user(n,_name,_bytes) */\n      dup2\n      mstore\n      0x20\n      add\n        /* \"Solidity100/sol100(61~70).sol\":5209:5215  _bytes */\n      dup4\n        /* \"Solidity100/sol100(61~70).sol\":5196:5216  user(n,_name,_bytes) */\n      dup2\n      mstore\n      pop\n        /* \"Solidity100/sol100(61~70).sol\":5185:5217  users.push(user(n,_name,_bytes)) */\n      swap1\n      dup1\n      0x01\n      dup2\n      sload\n      add\n      dup1\n      dup3\n      sstore\n      dup1\n      swap2\n      pop\n      pop\n      0x01\n      swap1\n      sub\n      swap1\n      0x00\n      mstore\n      keccak256(0x00, 0x20)\n      swap1\n      0x03\n      mul\n      add\n      0x00\n      swap1\n      swap2\n      swap1\n      swap2\n      swap1\n      swap2\n      pop\n      0x00\n      dup3\n      add\n      mload\n      dup2\n      0x00\n      add\n      sstore\n      0x20\n      dup3\n      add\n      mload\n      dup2\n      0x01\n      add\n      swap1\n      dup2\n      tag_12\n      swap2\n      swap1\n      tag_13\n      jump\t// in\n    tag_12:\n      pop\n      0x40\n      dup3\n      add\n      mload\n      dup2\n      0x02\n      add\n      sstore\n      pop\n      pop\n        /* \"Solidity100/sol100(61~70).sol\":5095:5227  {... */\n      pop\n        /* \"Solidity100/sol100(61~70).sol\":5042:5227  function setUser(uint n, string memory _name) public {... */\n      pop\n      pop\n      jump\t// out\n        /* \"#utility.yul\":7:82   */\n    tag_14:\n        /* \"#utility.yul\":40:46   */\n      0x00\n        /* \"#utility.yul\":73:75   */\n      0x40\n        /* \"#utility.yul\":67:76   */\n      mload\n        /* \"#utility.yul\":57:76   */\n      swap1\n      pop\n        /* \"#utility.yul\":7:82   */\n      swap1\n      jump\t// out\n        /* \"#utility.yul\":88:205   */\n    tag_15:\n        /* \"#utility.yul\":197:198   */\n      0x00\n        /* \"#utility.yul\":194:195   */\n      dup1\n        /* \"#utility.yul\":187:199   */\n      revert\n        /* \"#utility.yul\":211:328   */\n    tag_16:\n        /* \"#utility.yul\":320:321   */\n      0x00\n        /* \"#utility.yul\":317:318   */\n      dup1\n        /* \"#utility.yul\":310:322   */\n      revert\n        /* \"#utility.yul\":334:411   */\n    tag_17:\n        /* \"#utility.yul\":371:378   */\n      0x00\n        /* \"#utility.yul\":400:405   */\n      dup2\n        /* \"#utility.yul\":389:405   */\n      swap1\n      pop\n        /* \"#utility.yul\":334:411   */\n      swap2\n      swap1\n      pop\n      jump\t// out\n        /* \"#utility.yul\":417:539   */\n    tag_18:\n        /* \"#utility.yul\":490:514   */\n      tag_59\n        /* \"#utility.yul\":508:513   */\n      dup2\n        /* \"#utility.yul\":490:514   */\n      tag_17\n      jump\t// in\n    tag_59:\n        /* \"#utility.yul\":483:488   */\n      dup2\n        /* \"#utility.yul\":480:515   */\n      eq\n        /* \"#utility.yul\":470:533   */\n      tag_60\n      jumpi\n        /* \"#utility.yul\":529:530   */\n      0x00\n        /* \"#utility.yul\":526:527   */\n      dup1\n        /* \"#utility.yul\":519:531   */\n      revert\n        /* \"#utility.yul\":470:533   */\n    tag_60:\n        /* \"#utility.yul\":417:539   */\n      pop\n      jump\t// out\n        /* \"#utility.yul\":545:684   */\n    tag_19:\n        /* \"#utility.yul\":591:596   */\n      0x00\n        /* \"#utility.yul\":629:635   */\n      dup2\n        /* \"#utility.yul\":616:636   */\n      calldataload\n        /* \"#utility.yul\":607:636   */\n      swap1\n      pop\n        /* \"#utility.yul\":645:678   */\n      tag_62\n        /* \"#utility.yul\":672:677   */\n      dup2\n        /* \"#utility.yul\":645:678   */\n      tag_18\n      jump\t// in\n    tag_62:\n        /* \"#utility.yul\":545:684   */\n      swap3\n      swap2\n      pop\n      pop\n      jump\t// out\n        /* \"#utility.yul\":690:807   */\n    tag_20:\n        /* \"#utility.yul\":799:800   */\n      0x00\n        /* \"#utility.yul\":796:797   */\n      dup1\n        /* \"#utility.yul\":789:801   */\n      revert\n        /* \"#utility.yul\":813:930   */\n    tag_21:\n        /* \"#utility.yul\":922:923   */\n      0x00\n        /* \"#utility.yul\":919:920   */\n      dup1\n        /* \"#utility.yul\":912:924   */\n      revert\n        /* \"#utility.yul\":936:1038   */\n    tag_22:\n        /* \"#utility.yul\":977:983   */\n      0x00\n        /* \"#utility.yul\":1028:1030   */\n      0x1f\n        /* \"#utility.yul\":1024:1031   */\n      not\n        /* \"#utility.yul\":1019:1021   */\n      0x1f\n        /* \"#utility.yul\":1012:1017   */\n      dup4\n        /* \"#utility.yul\":1008:1022   */\n      add\n        /* \"#utility.yul\":1004:1032   */\n      and\n        /* \"#utility.yul\":994:1032   */\n      swap1\n      pop\n        /* \"#utility.yul\":936:1038   */\n      swap2\n      swap1\n      pop\n      jump\t// out\n        /* \"#utility.yul\":1044:1224   */\n    tag_23:\n        /* \"#utility.yul\":1092:1169   */\n      0x4e487b7100000000000000000000000000000000000000000000000000000000\n        /* \"#utility.yul\":1089:1090   */\n      0x00\n        /* \"#utility.yul\":1082:1170   */\n      mstore\n        /* \"#utility.yul\":1189:1193   */\n      0x41\n        /* \"#utility.yul\":1186:1187   */\n      0x04\n        /* \"#utility.yul\":1179:1194   */\n      mstore\n        /* \"#utility.yul\":1213:1217   */\n      0x24\n        /* \"#utility.yul\":1210:1211   */\n      0x00\n        /* \"#utility.yul\":1203:1218   */\n      revert\n        /* \"#utility.yul\":1230:1511   */\n    tag_24:\n        /* \"#utility.yul\":1313:1340   */\n      tag_68\n        /* \"#utility.yul\":1335:1339   */\n      dup3\n        /* \"#utility.yul\":1313:1340   */\n      tag_22\n      jump\t// in\n    tag_68:\n        /* \"#utility.yul\":1305:1311   */\n      dup2\n        /* \"#utility.yul\":1301:1341   */\n      add\n        /* \"#utility.yul\":1443:1449   */\n      dup2\n        /* \"#utility.yul\":1431:1441   */\n      dup2\n        /* \"#utility.yul\":1428:1450   */\n      lt\n        /* \"#utility.yul\":1407:1425   */\n      0xffffffffffffffff\n        /* \"#utility.yul\":1395:1405   */\n      dup3\n        /* \"#utility.yul\":1392:1426   */\n      gt\n        /* \"#utility.yul\":1389:1451   */\n      or\n        /* \"#utility.yul\":1386:1474   */\n      iszero\n      tag_69\n      jumpi\n        /* \"#utility.yul\":1454:1472   */\n      tag_70\n      tag_23\n      jump\t// in\n    tag_70:\n        /* \"#utility.yul\":1386:1474   */\n    tag_69:\n        /* \"#utility.yul\":1494:1504   */\n      dup1\n        /* \"#utility.yul\":1490:1492   */\n      0x40\n        /* \"#utility.yul\":1483:1505   */\n      mstore\n        /* \"#utility.yul\":1273:1511   */\n      pop\n        /* \"#utility.yul\":1230:1511   */\n      pop\n      pop\n      jump\t// out\n        /* \"#utility.yul\":1517:1646   */\n    tag_25:\n        /* \"#utility.yul\":1551:1557   */\n      0x00\n        /* \"#utility.yul\":1578:1598   */\n      tag_72\n      tag_14\n      jump\t// in\n    tag_72:\n        /* \"#utility.yul\":1568:1598   */\n      swap1\n      pop\n        /* \"#utility.yul\":1607:1640   */\n      tag_73\n        /* \"#utility.yul\":1635:1639   */\n      dup3\n        /* \"#utility.yul\":1627:1633   */\n      dup3\n        /* \"#utility.yul\":1607:1640   */\n      tag_24\n      jump\t// in\n    tag_73:\n        /* \"#utility.yul\":1517:1646   */\n      swap2\n      swap1\n      pop\n      jump\t// out\n        /* \"#utility.yul\":1652:1960   */\n    tag_26:\n        /* \"#utility.yul\":1714:1718   */\n      0x00\n        /* \"#utility.yul\":1804:1822   */\n      0xffffffffffffffff\n        /* \"#utility.yul\":1796:1802   */\n      dup3\n        /* \"#utility.yul\":1793:1823   */\n      gt\n        /* \"#utility.yul\":1790:1846   */\n      iszero\n      tag_75\n      jumpi\n        /* \"#utility.yul\":1826:1844   */\n      tag_76\n      tag_23\n      jump\t// in\n    tag_76:\n        /* \"#utility.yul\":1790:1846   */\n    tag_75:\n        /* \"#utility.yul\":1864:1893   */\n      tag_77\n        /* \"#utility.yul\":1886:1892   */\n      dup3\n        /* \"#utility.yul\":1864:1893   */\n      tag_22\n      jump\t// in\n    tag_77:\n        /* \"#utility.yul\":1856:1893   */\n      swap1\n      pop\n        /* \"#utility.yul\":1948:1952   */\n      0x20\n        /* \"#utility.yul\":1942:1946   */\n      dup2\n        /* \"#utility.yul\":1938:1953   */\n      add\n        /* \"#utility.yul\":1930:1953   */\n      swap1\n      pop\n        /* \"#utility.yul\":1652:1960   */\n      swap2\n      swap1\n      pop\n      jump\t// out\n        /* \"#utility.yul\":1966:2114   */\n    tag_27:\n        /* \"#utility.yul\":2064:2070   */\n      dup3\n        /* \"#utility.yul\":2059:2062   */\n      dup2\n        /* \"#utility.yul\":2054:2057   */\n      dup4\n        /* \"#utility.yul\":2041:2071   */\n      calldatacopy\n        /* \"#utility.yul\":2105:2106   */\n      0x00\n        /* \"#utility.yul\":2096:2102   */\n      dup4\n        /* \"#utility.yul\":2091:2094   */\n      dup4\n        /* \"#utility.yul\":2087:2103   */\n      add\n        /* \"#utility.yul\":2080:2107   */\n      mstore\n        /* \"#utility.yul\":1966:2114   */\n      pop\n      pop\n      pop\n      jump\t// out\n        /* \"#utility.yul\":2120:2545   */\n    tag_28:\n        /* \"#utility.yul\":2198:2203   */\n      0x00\n        /* \"#utility.yul\":2223:2289   */\n      tag_80\n        /* \"#utility.yul\":2239:2288   */\n      tag_81\n        /* \"#utility.yul\":2281:2287   */\n      dup5\n        /* \"#utility.yul\":2239:2288   */\n      tag_26\n      jump\t// in\n    tag_81:\n        /* \"#utility.yul\":2223:2289   */\n      tag_25\n      jump\t// in\n    tag_80:\n        /* \"#utility.yul\":2214:2289   */\n      swap1\n      pop\n        /* \"#utility.yul\":2312:2318   */\n      dup3\n        /* \"#utility.yul\":2305:2310   */\n      dup2\n        /* \"#utility.yul\":2298:2319   */\n      mstore\n        /* \"#utility.yul\":2350:2354   */\n      0x20\n        /* \"#utility.yul\":2343:2348   */\n      dup2\n        /* \"#utility.yul\":2339:2355   */\n      add\n        /* \"#utility.yul\":2388:2391   */\n      dup5\n        /* \"#utility.yul\":2379:2385   */\n      dup5\n        /* \"#utility.yul\":2374:2377   */\n      dup5\n        /* \"#utility.yul\":2370:2386   */\n      add\n        /* \"#utility.yul\":2367:2392   */\n      gt\n        /* \"#utility.yul\":2364:2476   */\n      iszero\n      tag_82\n      jumpi\n        /* \"#utility.yul\":2395:2474   */\n      tag_83\n      tag_21\n      jump\t// in\n    tag_83:\n        /* \"#utility.yul\":2364:2476   */\n    tag_82:\n        /* \"#utility.yul\":2485:2539   */\n      tag_84\n        /* \"#utility.yul\":2532:2538   */\n      dup5\n        /* \"#utility.yul\":2527:2530   */\n      dup3\n        /* \"#utility.yul\":2522:2525   */\n      dup6\n        /* \"#utility.yul\":2485:2539   */\n      tag_27\n      jump\t// in\n    tag_84:\n        /* \"#utility.yul\":2204:2545   */\n      pop\n        /* \"#utility.yul\":2120:2545   */\n      swap4\n      swap3\n      pop\n      pop\n      pop\n      jump\t// out\n        /* \"#utility.yul\":2565:2905   */\n    tag_29:\n        /* \"#utility.yul\":2621:2626   */\n      0x00\n        /* \"#utility.yul\":2670:2673   */\n      dup3\n        /* \"#utility.yul\":2663:2667   */\n      0x1f\n        /* \"#utility.yul\":2655:2661   */\n      dup4\n        /* \"#utility.yul\":2651:2668   */\n      add\n        /* \"#utility.yul\":2647:2674   */\n      slt\n        /* \"#utility.yul\":2637:2759   */\n      tag_86\n      jumpi\n        /* \"#utility.yul\":2678:2757   */\n      tag_87\n      tag_20\n      jump\t// in\n    tag_87:\n        /* \"#utility.yul\":2637:2759   */\n    tag_86:\n        /* \"#utility.yul\":2795:2801   */\n      dup2\n        /* \"#utility.yul\":2782:2802   */\n      calldataload\n        /* \"#utility.yul\":2820:2899   */\n      tag_88\n        /* \"#utility.yul\":2895:2898   */\n      dup5\n        /* \"#utility.yul\":2887:2893   */\n      dup3\n        /* \"#utility.yul\":2880:2884   */\n      0x20\n        /* \"#utility.yul\":2872:2878   */\n      dup7\n        /* \"#utility.yul\":2868:2885   */\n      add\n        /* \"#utility.yul\":2820:2899   */\n      tag_28\n      jump\t// in\n    tag_88:\n        /* \"#utility.yul\":2811:2899   */\n      swap2\n      pop\n        /* \"#utility.yul\":2627:2905   */\n      pop\n        /* \"#utility.yul\":2565:2905   */\n      swap3\n      swap2\n      pop\n      pop\n      jump\t// out\n        /* \"#utility.yul\":2911:3565   */\n    tag_6:\n        /* \"#utility.yul\":2989:2995   */\n      0x00\n        /* \"#utility.yul\":2997:3003   */\n      dup1\n        /* \"#utility.yul\":3046:3048   */\n      0x40\n        /* \"#utility.yul\":3034:3043   */\n      dup4\n        /* \"#utility.yul\":3025:3032   */\n      dup6\n        /* \"#utility.yul\":3021:3044   */\n      sub\n        /* \"#utility.yul\":3017:3049   */\n      slt\n        /* \"#utility.yul\":3014:3133   */\n      iszero\n      tag_90\n      jumpi\n        /* \"#utility.yul\":3052:3131   */\n      tag_91\n      tag_15\n      jump\t// in\n    tag_91:\n        /* \"#utility.yul\":3014:3133   */\n    tag_90:\n        /* \"#utility.yul\":3172:3173   */\n      0x00\n        /* \"#utility.yul\":3197:3250   */\n      tag_92\n        /* \"#utility.yul\":3242:3249   */\n      dup6\n        /* \"#utility.yul\":3233:3239   */\n      dup3\n        /* \"#utility.yul\":3222:3231   */\n      dup7\n        /* \"#utility.yul\":3218:3240   */\n      add\n        /* \"#utility.yul\":3197:3250   */\n      tag_19\n      jump\t// in\n    tag_92:\n        /* \"#utility.yul\":3187:3250   */\n      swap3\n      pop\n        /* \"#utility.yul\":3143:3260   */\n      pop\n        /* \"#utility.yul\":3327:3329   */\n      0x20\n        /* \"#utility.yul\":3316:3325   */\n      dup4\n        /* \"#utility.yul\":3312:3330   */\n      add\n        /* \"#utility.yul\":3299:3331   */\n      calldataload\n        /* \"#utility.yul\":3358:3376   */\n      0xffffffffffffffff\n        /* \"#utility.yul\":3350:3356   */\n      dup2\n        /* \"#utility.yul\":3347:3377   */\n      gt\n        /* \"#utility.yul\":3344:3461   */\n      iszero\n      tag_93\n      jumpi\n        /* \"#utility.yul\":3380:3459   */\n      tag_94\n      tag_16\n      jump\t// in\n    tag_94:\n        /* \"#utility.yul\":3344:3461   */\n    tag_93:\n        /* \"#utility.yul\":3485:3548   */\n      tag_95\n        /* \"#utility.yul\":3540:3547   */\n      dup6\n        /* \"#utility.yul\":3531:3537   */\n      dup3\n        /* \"#utility.yul\":3520:3529   */\n      dup7\n        /* \"#utility.yul\":3516:3538   */\n      add\n        /* \"#utility.yul\":3485:3548   */\n      tag_29\n      jump\t// in\n    tag_95:\n        /* \"#utility.yul\":3475:3548   */\n      swap2\n      pop\n        /* \"#utility.yul\":3270:3558   */\n      pop\n        /* \"#utility.yul\":2911:3565   */\n      swap3\n      pop\n      swap3\n      swap1\n      pop\n      jump\t// out\n        /* \"#utility.yul\":3571:3650   */\n    tag_30:\n        /* \"#utility.yul\":3610:3617   */\n      0x00\n        /* \"#utility.yul\":3639:3644   */\n      dup2\n        /* \"#utility.yul\":3628:3644   */\n      swap1\n      pop\n        /* \"#utility.yul\":3571:3650   */\n      swap2\n      swap1\n      pop\n      jump\t// out\n        /* \"#utility.yul\":3656:3813   */\n    tag_31:\n        /* \"#utility.yul\":3761:3806   */\n      tag_98\n        /* \"#utility.yul\":3781:3805   */\n      tag_99\n        /* \"#utility.yul\":3799:3804   */\n      dup3\n        /* \"#utility.yul\":3781:3805   */\n      tag_17\n      jump\t// in\n    tag_99:\n        /* \"#utility.yul\":3761:3806   */\n      tag_30\n      jump\t// in\n    tag_98:\n        /* \"#utility.yul\":3756:3759   */\n      dup3\n        /* \"#utility.yul\":3749:3807   */\n      mstore\n        /* \"#utility.yul\":3656:3813   */\n      pop\n      pop\n      jump\t// out\n        /* \"#utility.yul\":3819:3918   */\n    tag_32:\n        /* \"#utility.yul\":3871:3877   */\n      0x00\n        /* \"#utility.yul\":3905:3910   */\n      dup2\n        /* \"#utility.yul\":3899:3911   */\n      mload\n        /* \"#utility.yul\":3889:3911   */\n      swap1\n      pop\n        /* \"#utility.yul\":3819:3918   */\n      swap2\n      swap1\n      pop\n      jump\t// out\n        /* \"#utility.yul\":3924:4072   */\n    tag_33:\n        /* \"#utility.yul\":4026:4037   */\n      0x00\n        /* \"#utility.yul\":4063:4066   */\n      dup2\n        /* \"#utility.yul\":4048:4066   */\n      swap1\n      pop\n        /* \"#utility.yul\":3924:4072   */\n      swap3\n      swap2\n      pop\n      pop\n      jump\t// out\n        /* \"#utility.yul\":4078:4217   */\n    tag_34:\n        /* \"#utility.yul\":4167:4173   */\n      dup3\n        /* \"#utility.yul\":4162:4165   */\n      dup2\n        /* \"#utility.yul\":4157:4160   */\n      dup4\n        /* \"#utility.yul\":4151:4174   */\n      mcopy\n        /* \"#utility.yul\":4208:4209   */\n      0x00\n        /* \"#utility.yul\":4199:4205   */\n      dup4\n        /* \"#utility.yul\":4194:4197   */\n      dup4\n        /* \"#utility.yul\":4190:4206   */\n      add\n        /* \"#utility.yul\":4183:4210   */\n      mstore\n        /* \"#utility.yul\":4078:4217   */\n      pop\n      pop\n      pop\n      jump\t// out\n        /* \"#utility.yul\":4223:4613   */\n    tag_35:\n        /* \"#utility.yul\":4329:4332   */\n      0x00\n        /* \"#utility.yul\":4357:4396   */\n      tag_104\n        /* \"#utility.yul\":4390:4395   */\n      dup3\n        /* \"#utility.yul\":4357:4396   */\n      tag_32\n      jump\t// in\n    tag_104:\n        /* \"#utility.yul\":4412:4501   */\n      tag_105\n        /* \"#utility.yul\":4494:4500   */\n      dup2\n        /* \"#utility.yul\":4489:4492   */\n      dup6\n        /* \"#utility.yul\":4412:4501   */\n      tag_33\n      jump\t// in\n    tag_105:\n        /* \"#utility.yul\":4405:4501   */\n      swap4\n      pop\n        /* \"#utility.yul\":4510:4575   */\n      tag_106\n        /* \"#utility.yul\":4568:4574   */\n      dup2\n        /* \"#utility.yul\":4563:4566   */\n      dup6\n        /* \"#utility.yul\":4556:4560   */\n      0x20\n        /* \"#utility.yul\":4549:4554   */\n      dup7\n        /* \"#utility.yul\":4545:4561   */\n      add\n        /* \"#utility.yul\":4510:4575   */\n      tag_34\n      jump\t// in\n    tag_106:\n        /* \"#utility.yul\":4600:4606   */\n      dup1\n        /* \"#utility.yul\":4595:4598   */\n      dup5\n        /* \"#utility.yul\":4591:4607   */\n      add\n        /* \"#utility.yul\":4584:4607   */\n      swap2\n      pop\n        /* \"#utility.yul\":4333:4613   */\n      pop\n        /* \"#utility.yul\":4223:4613   */\n      swap3\n      swap2\n      pop\n      pop\n      jump\t// out\n        /* \"#utility.yul\":4619:5035   */\n    tag_10:\n        /* \"#utility.yul\":4779:4782   */\n      0x00\n        /* \"#utility.yul\":4794:4869   */\n      tag_108\n        /* \"#utility.yul\":4865:4868   */\n      dup3\n        /* \"#utility.yul\":4856:4862   */\n      dup6\n        /* \"#utility.yul\":4794:4869   */\n      tag_31\n      jump\t// in\n    tag_108:\n        /* \"#utility.yul\":4894:4896   */\n      0x20\n        /* \"#utility.yul\":4889:4892   */\n      dup3\n        /* \"#utility.yul\":4885:4897   */\n      add\n        /* \"#utility.yul\":4878:4897   */\n      swap2\n      pop\n        /* \"#utility.yul\":4914:5009   */\n      tag_109\n        /* \"#utility.yul\":5005:5008   */\n      dup3\n        /* \"#utility.yul\":4996:5002   */\n      dup5\n        /* \"#utility.yul\":4914:5009   */\n      tag_35\n      jump\t// in\n    tag_109:\n        /* \"#utility.yul\":4907:5009   */\n      swap2\n      pop\n        /* \"#utility.yul\":5026:5029   */\n      dup2\n        /* \"#utility.yul\":5019:5029   */\n      swap1\n      pop\n        /* \"#utility.yul\":4619:5035   */\n      swap4\n      swap3\n      pop\n      pop\n      pop\n      jump\t// out\n        /* \"#utility.yul\":5041:5221   */\n    tag_36:\n        /* \"#utility.yul\":5089:5166   */\n      0x4e487b7100000000000000000000000000000000000000000000000000000000\n        /* \"#utility.yul\":5086:5087   */\n      0x00\n        /* \"#utility.yul\":5079:5167   */\n      mstore\n        /* \"#utility.yul\":5186:5190   */\n      0x22\n        /* \"#utility.yul\":5183:5184   */\n      0x04\n        /* \"#utility.yul\":5176:5191   */\n      mstore\n        /* \"#utility.yul\":5210:5214   */\n      0x24\n        /* \"#utility.yul\":5207:5208   */\n      0x00\n        /* \"#utility.yul\":5200:5215   */\n      revert\n        /* \"#utility.yul\":5227:5547   */\n    tag_37:\n        /* \"#utility.yul\":5271:5277   */\n      0x00\n        /* \"#utility.yul\":5308:5309   */\n      0x02\n        /* \"#utility.yul\":5302:5306   */\n      dup3\n        /* \"#utility.yul\":5298:5310   */\n      div\n        /* \"#utility.yul\":5288:5310   */\n      swap1\n      pop\n        /* \"#utility.yul\":5355:5356   */\n      0x01\n        /* \"#utility.yul\":5349:5353   */\n      dup3\n        /* \"#utility.yul\":5345:5357   */\n      and\n        /* \"#utility.yul\":5376:5394   */\n      dup1\n        /* \"#utility.yul\":5366:5447   */\n      tag_112\n      jumpi\n        /* \"#utility.yul\":5432:5436   */\n      0x7f\n        /* \"#utility.yul\":5424:5430   */\n      dup3\n        /* \"#utility.yul\":5420:5437   */\n      and\n        /* \"#utility.yul\":5410:5437   */\n      swap2\n      pop\n        /* \"#utility.yul\":5366:5447   */\n    tag_112:\n        /* \"#utility.yul\":5494:5496   */\n      0x20\n        /* \"#utility.yul\":5486:5492   */\n      dup3\n        /* \"#utility.yul\":5483:5497   */\n      lt\n        /* \"#utility.yul\":5463:5481   */\n      dup2\n        /* \"#utility.yul\":5460:5498   */\n      sub\n        /* \"#utility.yul\":5457:5541   */\n      tag_113\n      jumpi\n        /* \"#utility.yul\":5513:5531   */\n      tag_114\n      tag_36\n      jump\t// in\n    tag_114:\n        /* \"#utility.yul\":5457:5541   */\n    tag_113:\n        /* \"#utility.yul\":5278:5547   */\n      pop\n        /* \"#utility.yul\":5227:5547   */\n      swap2\n      swap1\n      pop\n      jump\t// out\n        /* \"#utility.yul\":5553:5694   */\n    tag_38:\n        /* \"#utility.yul\":5602:5606   */\n      0x00\n        /* \"#utility.yul\":5625:5628   */\n      dup2\n        /* \"#utility.yul\":5617:5628   */\n      swap1\n      pop\n        /* \"#utility.yul\":5648:5651   */\n      dup2\n        /* \"#utility.yul\":5645:5646   */\n      0x00\n        /* \"#utility.yul\":5638:5652   */\n      mstore\n        /* \"#utility.yul\":5682:5686   */\n      0x20\n        /* \"#utility.yul\":5679:5680   */\n      0x00\n        /* \"#utility.yul\":5669:5687   */\n      keccak256\n        /* \"#utility.yul\":5661:5687   */\n      swap1\n      pop\n        /* \"#utility.yul\":5553:5694   */\n      swap2\n      swap1\n      pop\n      jump\t// out\n        /* \"#utility.yul\":5700:5793   */\n    tag_39:\n        /* \"#utility.yul\":5737:5743   */\n      0x00\n        /* \"#utility.yul\":5784:5786   */\n      0x20\n        /* \"#utility.yul\":5779:5781   */\n      0x1f\n        /* \"#utility.yul\":5772:5777   */\n      dup4\n        /* \"#utility.yul\":5768:5782   */\n      add\n        /* \"#utility.yul\":5764:5787   */\n      div\n        /* \"#utility.yul\":5754:5787   */\n      swap1\n      pop\n        /* \"#utility.yul\":5700:5793   */\n      swap2\n      swap1\n      pop\n      jump\t// out\n        /* \"#utility.yul\":5799:5906   */\n    tag_40:\n        /* \"#utility.yul\":5843:5851   */\n      0x00\n        /* \"#utility.yul\":5893:5898   */\n      dup3\n        /* \"#utility.yul\":5887:5891   */\n      dup3\n        /* \"#utility.yul\":5883:5899   */\n      shl\n        /* \"#utility.yul\":5862:5899   */\n      swap1\n      pop\n        /* \"#utility.yul\":5799:5906   */\n      swap3\n      swap2\n      pop\n      pop\n      jump\t// out\n        /* \"#utility.yul\":5912:6305   */\n    tag_41:\n        /* \"#utility.yul\":5981:5987   */\n      0x00\n        /* \"#utility.yul\":6031:6032   */\n      0x08\n        /* \"#utility.yul\":6019:6029   */\n      dup4\n        /* \"#utility.yul\":6015:6033   */\n      mul\n        /* \"#utility.yul\":6054:6151   */\n      tag_119\n        /* \"#utility.yul\":6084:6150   */\n      0xffffffffffffffffffffffffffffffffffffffffffffffffffffffffffffffff\n        /* \"#utility.yul\":6073:6082   */\n      dup3\n        /* \"#utility.yul\":6054:6151   */\n      tag_40\n      jump\t// in\n    tag_119:\n        /* \"#utility.yul\":6172:6211   */\n      tag_120\n        /* \"#utility.yul\":6202:6210   */\n      dup7\n        /* \"#utility.yul\":6191:6200   */\n      dup4\n        /* \"#utility.yul\":6172:6211   */\n      tag_40\n      jump\t// in\n    tag_120:\n        /* \"#utility.yul\":6160:6211   */\n      swap6\n      pop\n        /* \"#utility.yul\":6244:6248   */\n      dup1\n        /* \"#utility.yul\":6240:6249   */\n      not\n        /* \"#utility.yul\":6233:6238   */\n      dup5\n        /* \"#utility.yul\":6229:6250   */\n      and\n        /* \"#utility.yul\":6220:6250   */\n      swap4\n      pop\n        /* \"#utility.yul\":6293:6297   */\n      dup1\n        /* \"#utility.yul\":6283:6291   */\n      dup7\n        /* \"#utility.yul\":6279:6298   */\n      and\n        /* \"#utility.yul\":6272:6277   */\n      dup5\n        /* \"#utility.yul\":6269:6299   */\n      or\n        /* \"#utility.yul\":6259:6299   */\n      swap3\n      pop\n        /* \"#utility.yul\":5988:6305   */\n      pop\n      pop\n        /* \"#utility.yul\":5912:6305   */\n      swap4\n      swap3\n      pop\n      pop\n      pop\n      jump\t// out\n        /* \"#utility.yul\":6311:6371   */\n    tag_42:\n        /* \"#utility.yul\":6339:6342   */\n      0x00\n        /* \"#utility.yul\":6360:6365   */\n      dup2\n        /* \"#utility.yul\":6353:6365   */\n      swap1\n      pop\n        /* \"#utility.yul\":6311:6371   */\n      swap2\n      swap1\n      pop\n      jump\t// out\n        /* \"#utility.yul\":6377:6519   */\n    tag_43:\n        /* \"#utility.yul\":6427:6436   */\n      0x00\n        /* \"#utility.yul\":6460:6513   */\n      tag_123\n        /* \"#utility.yul\":6478:6512   */\n      tag_124\n        /* \"#utility.yul\":6487:6511   */\n      tag_125\n        /* \"#utility.yul\":6505:6510   */\n      dup5\n        /* \"#utility.yul\":6487:6511   */\n      tag_17\n      jump\t// in\n    tag_125:\n        /* \"#utility.yul\":6478:6512   */\n      tag_42\n      jump\t// in\n    tag_124:\n        /* \"#utility.yul\":6460:6513   */\n      tag_17\n      jump\t// in\n    tag_123:\n        /* \"#utility.yul\":6447:6513   */\n      swap1\n      pop\n        /* \"#utility.yul\":6377:6519   */\n      swap2\n      swap1\n      pop\n      jump\t// out\n        /* \"#utility.yul\":6525:6600   */\n    tag_44:\n        /* \"#utility.yul\":6568:6571   */\n      0x00\n        /* \"#utility.yul\":6589:6594   */\n      dup2\n        /* \"#utility.yul\":6582:6594   */\n      swap1\n      pop\n        /* \"#utility.yul\":6525:6600   */\n      swap2\n      swap1\n      pop\n      jump\t// out\n        /* \"#utility.yul\":6606:6875   */\n    tag_45:\n        /* \"#utility.yul\":6716:6755   */\n      tag_128\n        /* \"#utility.yul\":6747:6754   */\n      dup4\n        /* \"#utility.yul\":6716:6755   */\n      tag_43\n      jump\t// in\n    tag_128:\n        /* \"#utility.yul\":6777:6868   */\n      tag_129\n        /* \"#utility.yul\":6826:6867   */\n      tag_130\n        /* \"#utility.yul\":6850:6866   */\n      dup3\n        /* \"#utility.yul\":6826:6867   */\n      tag_44\n      jump\t// in\n    tag_130:\n        /* \"#utility.yul\":6818:6824   */\n      dup5\n        /* \"#utility.yul\":6811:6815   */\n      dup5\n        /* \"#utility.yul\":6805:6816   */\n      sload\n        /* \"#utility.yul\":6777:6868   */\n      tag_41\n      jump\t// in\n    tag_129:\n        /* \"#utility.yul\":6771:6775   */\n      dup3\n        /* \"#utility.yul\":6764:6869   */\n      sstore\n        /* \"#utility.yul\":6682:6875   */\n      pop\n        /* \"#utility.yul\":6606:6875   */\n      pop\n      pop\n      pop\n      jump\t// out\n        /* \"#utility.yul\":6881:6954   */\n    tag_46:\n        /* \"#utility.yul\":6926:6929   */\n      0x00\n        /* \"#utility.yul\":6881:6954   */\n      swap1\n      jump\t// out\n        /* \"#utility.yul\":6960:7149   */\n    tag_47:\n        /* \"#utility.yul\":7037:7069   */\n      tag_133\n      tag_46\n      jump\t// in\n    tag_133:\n        /* \"#utility.yul\":7078:7143   */\n      tag_134\n        /* \"#utility.yul\":7136:7142   */\n      dup2\n        /* \"#utility.yul\":7128:7134   */\n      dup5\n        /* \"#utility.yul\":7122:7126   */\n      dup5\n        /* \"#utility.yul\":7078:7143   */\n      tag_45\n      jump\t// in\n    tag_134:\n        /* \"#utility.yul\":7013:7149   */\n      pop\n        /* \"#utility.yul\":6960:7149   */\n      pop\n      pop\n      jump\t// out\n        /* \"#utility.yul\":7155:7341   */\n    tag_48:\n        /* \"#utility.yul\":7215:7335   */\n    tag_136:\n        /* \"#utility.yul\":7232:7235   */\n      dup2\n        /* \"#utility.yul\":7225:7230   */\n      dup2\n        /* \"#utility.yul\":7222:7236   */\n      lt\n        /* \"#utility.yul\":7215:7335   */\n      iszero\n      tag_138\n      jumpi\n        /* \"#utility.yul\":7286:7325   */\n      tag_139\n        /* \"#utility.yul\":7323:7324   */\n      0x00\n        /* \"#utility.yul\":7316:7321   */\n      dup3\n        /* \"#utility.yul\":7286:7325   */\n      tag_47\n      jump\t// in\n    tag_139:\n        /* \"#utility.yul\":7259:7260   */\n      0x01\n        /* \"#utility.yul\":7252:7257   */\n      dup2\n        /* \"#utility.yul\":7248:7261   */\n      add\n        /* \"#utility.yul\":7239:7261   */\n      swap1\n      pop\n        /* \"#utility.yul\":7215:7335   */\n      jump(tag_136)\n    tag_138:\n        /* \"#utility.yul\":7155:7341   */\n      pop\n      pop\n      jump\t// out\n        /* \"#utility.yul\":7347:7890   */\n    tag_49:\n        /* \"#utility.yul\":7448:7450   */\n      0x1f\n        /* \"#utility.yul\":7443:7446   */\n      dup3\n        /* \"#utility.yul\":7440:7451   */\n      gt\n        /* \"#utility.yul\":7437:7883   */\n      iszero\n      tag_141\n      jumpi\n        /* \"#utility.yul\":7482:7520   */\n      tag_142\n        /* \"#utility.yul\":7514:7519   */\n      dup2\n        /* \"#utility.yul\":7482:7520   */\n      tag_38\n      jump\t// in\n    tag_142:\n        /* \"#utility.yul\":7566:7595   */\n      tag_143\n        /* \"#utility.yul\":7584:7594   */\n      dup5\n        /* \"#utility.yul\":7566:7595   */\n      tag_39\n      jump\t// in\n    tag_143:\n        /* \"#utility.yul\":7556:7564   */\n      dup2\n        /* \"#utility.yul\":7552:7596   */\n      add\n        /* \"#utility.yul\":7749:7751   */\n      0x20\n        /* \"#utility.yul\":7737:7747   */\n      dup6\n        /* \"#utility.yul\":7734:7752   */\n      lt\n        /* \"#utility.yul\":7731:7780   */\n      iszero\n      tag_144\n      jumpi\n        /* \"#utility.yul\":7770:7778   */\n      dup2\n        /* \"#utility.yul\":7755:7778   */\n      swap1\n      pop\n        /* \"#utility.yul\":7731:7780   */\n    tag_144:\n        /* \"#utility.yul\":7793:7873   */\n      tag_145\n        /* \"#utility.yul\":7849:7871   */\n      tag_146\n        /* \"#utility.yul\":7867:7870   */\n      dup6\n        /* \"#utility.yul\":7849:7871   */\n      tag_39\n      jump\t// in\n    tag_146:\n        /* \"#utility.yul\":7839:7847   */\n      dup4\n        /* \"#utility.yul\":7835:7872   */\n      add\n        /* \"#utility.yul\":7822:7833   */\n      dup3\n        /* \"#utility.yul\":7793:7873   */\n      tag_48\n      jump\t// in\n    tag_145:\n        /* \"#utility.yul\":7452:7883   */\n      pop\n      pop\n        /* \"#utility.yul\":7437:7883   */\n    tag_141:\n        /* \"#utility.yul\":7347:7890   */\n      pop\n      pop\n      pop\n      jump\t// out\n        /* \"#utility.yul\":7896:8013   */\n    tag_50:\n        /* \"#utility.yul\":7950:7958   */\n      0x00\n        /* \"#utility.yul\":8000:8005   */\n      dup3\n        /* \"#utility.yul\":7994:7998   */\n      dup3\n        /* \"#utility.yul\":7990:8006   */\n      shr\n        /* \"#utility.yul\":7969:8006   */\n      swap1\n      pop\n        /* \"#utility.yul\":7896:8013   */\n      swap3\n      swap2\n      pop\n      pop\n      jump\t// out\n        /* \"#utility.yul\":8019:8188   */\n    tag_51:\n        /* \"#utility.yul\":8063:8069   */\n      0x00\n        /* \"#utility.yul\":8096:8147   */\n      tag_149\n        /* \"#utility.yul\":8144:8145   */\n      0x00\n        /* \"#utility.yul\":8140:8146   */\n      not\n        /* \"#utility.yul\":8132:8137   */\n      dup5\n        /* \"#utility.yul\":8129:8130   */\n      0x08\n        /* \"#utility.yul\":8125:8138   */\n      mul\n        /* \"#utility.yul\":8096:8147   */\n      tag_50\n      jump\t// in\n    tag_149:\n        /* \"#utility.yul\":8092:8148   */\n      not\n        /* \"#utility.yul\":8177:8181   */\n      dup1\n        /* \"#utility.yul\":8171:8175   */\n      dup4\n        /* \"#utility.yul\":8167:8182   */\n      and\n        /* \"#utility.yul\":8157:8182   */\n      swap2\n      pop\n        /* \"#utility.yul\":8070:8188   */\n      pop\n        /* \"#utility.yul\":8019:8188   */\n      swap3\n      swap2\n      pop\n      pop\n      jump\t// out\n        /* \"#utility.yul\":8193:8488   */\n    tag_52:\n        /* \"#utility.yul\":8269:8273   */\n      0x00\n        /* \"#utility.yul\":8415:8444   */\n      tag_151\n        /* \"#utility.yul\":8440:8443   */\n      dup4\n        /* \"#utility.yul\":8434:8438   */\n      dup4\n        /* \"#utility.yul\":8415:8444   */\n      tag_51\n      jump\t// in\n    tag_151:\n        /* \"#utility.yul\":8407:8444   */\n      swap2\n      pop\n        /* \"#utility.yul\":8477:8480   */\n      dup3\n        /* \"#utility.yul\":8474:8475   */\n      0x02\n        /* \"#utility.yul\":8470:8481   */\n      mul\n        /* \"#utility.yul\":8464:8468   */\n      dup3\n        /* \"#utility.yul\":8461:8482   */\n      or\n        /* \"#utility.yul\":8453:8482   */\n      swap1\n      pop\n        /* \"#utility.yul\":8193:8488   */\n      swap3\n      swap2\n      pop\n      pop\n      jump\t// out\n        /* \"#utility.yul\":8493:9888   */\n    tag_13:\n        /* \"#utility.yul\":8610:8647   */\n      tag_153\n        /* \"#utility.yul\":8643:8646   */\n      dup3\n        /* \"#utility.yul\":8610:8647   */\n      tag_32\n      jump\t// in\n    tag_153:\n        /* \"#utility.yul\":8712:8730   */\n      0xffffffffffffffff\n        /* \"#utility.yul\":8704:8710   */\n      dup2\n        /* \"#utility.yul\":8701:8731   */\n      gt\n        /* \"#utility.yul\":8698:8754   */\n      iszero\n      tag_154\n      jumpi\n        /* \"#utility.yul\":8734:8752   */\n      tag_155\n      tag_23\n      jump\t// in\n    tag_155:\n        /* \"#utility.yul\":8698:8754   */\n    tag_154:\n        /* \"#utility.yul\":8778:8816   */\n      tag_156\n        /* \"#utility.yul\":8810:8814   */\n      dup3\n        /* \"#utility.yul\":8804:8815   */\n      sload\n        /* \"#utility.yul\":8778:8816   */\n      tag_37\n      jump\t// in\n    tag_156:\n        /* \"#utility.yul\":8863:8930   */\n      tag_157\n        /* \"#utility.yul\":8923:8929   */\n      dup3\n        /* \"#utility.yul\":8915:8921   */\n      dup3\n        /* \"#utility.yul\":8909:8913   */\n      dup6\n        /* \"#utility.yul\":8863:8930   */\n      tag_49\n      jump\t// in\n    tag_157:\n        /* \"#utility.yul\":8957:8958   */\n      0x00\n        /* \"#utility.yul\":8981:8985   */\n      0x20\n        /* \"#utility.yul\":8968:8985   */\n      swap1\n      pop\n        /* \"#utility.yul\":9013:9015   */\n      0x1f\n        /* \"#utility.yul\":9005:9011   */\n      dup4\n        /* \"#utility.yul\":9002:9016   */\n      gt\n        /* \"#utility.yul\":9030:9031   */\n      0x01\n        /* \"#utility.yul\":9025:9643   */\n      dup2\n      eq\n      tag_159\n      jumpi\n        /* \"#utility.yul\":9687:9688   */\n      0x00\n        /* \"#utility.yul\":9704:9710   */\n      dup5\n        /* \"#utility.yul\":9701:9778   */\n      iszero\n      tag_160\n      jumpi\n        /* \"#utility.yul\":9753:9762   */\n      dup3\n        /* \"#utility.yul\":9748:9751   */\n      dup8\n        /* \"#utility.yul\":9744:9763   */\n      add\n        /* \"#utility.yul\":9738:9764   */\n      mload\n        /* \"#utility.yul\":9729:9764   */\n      swap1\n      pop\n        /* \"#utility.yul\":9701:9778   */\n    tag_160:\n        /* \"#utility.yul\":9804:9871   */\n      tag_161\n        /* \"#utility.yul\":9864:9870   */\n      dup6\n        /* \"#utility.yul\":9857:9862   */\n      dup3\n        /* \"#utility.yul\":9804:9871   */\n      tag_52\n      jump\t// in\n    tag_161:\n        /* \"#utility.yul\":9798:9802   */\n      dup7\n        /* \"#utility.yul\":9791:9872   */\n      sstore\n        /* \"#utility.yul\":9660:9882   */\n      pop\n        /* \"#utility.yul\":8995:9882   */\n      jump(tag_158)\n        /* \"#utility.yul\":9025:9643   */\n    tag_159:\n        /* \"#utility.yul\":9077:9081   */\n      0x1f\n        /* \"#utility.yul\":9073:9082   */\n      not\n        /* \"#utility.yul\":9065:9071   */\n      dup5\n        /* \"#utility.yul\":9061:9083   */\n      and\n        /* \"#utility.yul\":9111:9148   */\n      tag_162\n        /* \"#utility.yul\":9143:9147   */\n      dup7\n        /* \"#utility.yul\":9111:9148   */\n      tag_38\n      jump\t// in\n    tag_162:\n        /* \"#utility.yul\":9170:9171   */\n      0x00\n        /* \"#utility.yul\":9184:9392   */\n    tag_163:\n        /* \"#utility.yul\":9198:9205   */\n      dup3\n        /* \"#utility.yul\":9195:9196   */\n      dup2\n        /* \"#utility.yul\":9192:9206   */\n      lt\n        /* \"#utility.yul\":9184:9392   */\n      iszero\n      tag_165\n      jumpi\n        /* \"#utility.yul\":9277:9286   */\n      dup5\n        /* \"#utility.yul\":9272:9275   */\n      dup10\n        /* \"#utility.yul\":9268:9287   */\n      add\n        /* \"#utility.yul\":9262:9288   */\n      mload\n        /* \"#utility.yul\":9254:9260   */\n      dup3\n        /* \"#utility.yul\":9247:9289   */\n      sstore\n        /* \"#utility.yul\":9328:9329   */\n      0x01\n        /* \"#utility.yul\":9320:9326   */\n      dup3\n        /* \"#utility.yul\":9316:9330   */\n      add\n        /* \"#utility.yul\":9306:9330   */\n      swap2\n      pop\n        /* \"#utility.yul\":9375:9377   */\n      0x20\n        /* \"#utility.yul\":9364:9373   */\n      dup6\n        /* \"#utility.yul\":9360:9378   */\n      add\n        /* \"#utility.yul\":9347:9378   */\n      swap5\n      pop\n        /* \"#utility.yul\":9221:9225   */\n      0x20\n        /* \"#utility.yul\":9218:9219   */\n      dup2\n        /* \"#utility.yul\":9214:9226   */\n      add\n        /* \"#utility.yul\":9209:9226   */\n      swap1\n      pop\n        /* \"#utility.yul\":9184:9392   */\n      jump(tag_163)\n    tag_165:\n        /* \"#utility.yul\":9420:9426   */\n      dup7\n        /* \"#utility.yul\":9411:9418   */\n      dup4\n        /* \"#utility.yul\":9408:9427   */\n      lt\n        /* \"#utility.yul\":9405:9584   */\n      iszero\n      tag_166\n      jumpi\n        /* \"#utility.yul\":9478:9487   */\n      dup5\n        /* \"#utility.yul\":9473:9476   */\n      dup10\n        /* \"#utility.yul\":9469:9488   */\n      add\n        /* \"#utility.yul\":9463:9489   */\n      mload\n        /* \"#utility.yul\":9521:9569   */\n      tag_167\n        /* \"#utility.yul\":9563:9567   */\n      0x1f\n        /* \"#utility.yul\":9555:9561   */\n      dup10\n        /* \"#utility.yul\":9551:9568   */\n      and\n        /* \"#utility.yul\":9540:9549   */\n      dup3\n        /* \"#utility.yul\":9521:9569   */\n      tag_51\n      jump\t// in\n    tag_167:\n        /* \"#utility.yul\":9513:9519   */\n      dup4\n        /* \"#utility.yul\":9506:9570   */\n      sstore\n        /* \"#utility.yul\":9428:9584   */\n      pop\n        /* \"#utility.yul\":9405:9584   */\n    tag_166:\n        /* \"#utility.yul\":9630:9631   */\n      0x01\n        /* \"#utility.yul\":9626:9627   */\n      0x02\n        /* \"#utility.yul\":9618:9624   */\n      dup9\n        /* \"#utility.yul\":9614:9628   */\n      mul\n        /* \"#utility.yul\":9610:9632   */\n      add\n        /* \"#utility.yul\":9604:9608   */\n      dup9\n        /* \"#utility.yul\":9597:9633   */\n      sstore\n        /* \"#utility.yul\":9032:9643   */\n      pop\n      pop\n      pop\n        /* \"#utility.yul\":8995:9882   */\n    tag_158:\n      pop\n        /* \"#utility.yul\":8585:9888   */\n      pop\n      pop\n      pop\n        /* \"#utility.yul\":8493:9888   */\n      pop\n      pop\n      jump\t// out\n\n    auxdata: 0xa2646970667358221220cd7bcd77ce8b5af2462471318894a3c127dec71e692135010f20cfad79917c0864736f6c634300081a0033\n}\n",
				"bytecode": {
					"linkReferences": {},
					"object": "6080604052348015600e575f80fd5b506106588061001c5f395ff3fe608060405234801561000f575f80fd5b5060043610610029575f3560e01c806394b670b61461002d575b5f80fd5b61004760048036038101906100429190610266565b610049565b005b5f828260405160200161005d929190610332565b6040516020818303038152906040528051906020012090505f604051806060016040528085815260200184815260200183815250908060018154018082558091505060019003905f5260205f2090600302015f909190919091505f820151815f015560208201518160010190816100d49190610553565b50604082015181600201555050505050565b5f604051905090565b5f80fd5b5f80fd5b5f819050919050565b610109816100f7565b8114610113575f80fd5b50565b5f8135905061012481610100565b92915050565b5f80fd5b5f80fd5b5f601f19601f8301169050919050565b7f4e487b71000000000000000000000000000000000000000000000000000000005f52604160045260245ffd5b61017882610132565b810181811067ffffffffffffffff8211171561019757610196610142565b5b80604052505050565b5f6101a96100e6565b90506101b5828261016f565b919050565b5f67ffffffffffffffff8211156101d4576101d3610142565b5b6101dd82610132565b9050602081019050919050565b828183375f83830152505050565b5f61020a610205846101ba565b6101a0565b9050828152602081018484840111156102265761022561012e565b5b6102318482856101ea565b509392505050565b5f82601f83011261024d5761024c61012a565b5b813561025d8482602086016101f8565b91505092915050565b5f806040838503121561027c5761027b6100ef565b5b5f61028985828601610116565b925050602083013567ffffffffffffffff8111156102aa576102a96100f3565b5b6102b685828601610239565b9150509250929050565b5f819050919050565b6102da6102d5826100f7565b6102c0565b82525050565b5f81519050919050565b5f81905092915050565b8281835e5f83830152505050565b5f61030c826102e0565b61031681856102ea565b93506103268185602086016102f4565b80840191505092915050565b5f61033d82856102c9565b60208201915061034d8284610302565b91508190509392505050565b7f4e487b71000000000000000000000000000000000000000000000000000000005f52602260045260245ffd5b5f600282049050600182168061039d57607f821691505b6020821081036103b0576103af610359565b5b50919050565b5f819050815f5260205f209050919050565b5f6020601f8301049050919050565b5f82821b905092915050565b5f600883026104127fffffffffffffffffffffffffffffffffffffffffffffffffffffffffffffffff826103d7565b61041c86836103d7565b95508019841693508086168417925050509392505050565b5f819050919050565b5f61045761045261044d846100f7565b610434565b6100f7565b9050919050565b5f819050919050565b6104708361043d565b61048461047c8261045e565b8484546103e3565b825550505050565b5f90565b61049861048c565b6104a3818484610467565b505050565b5b818110156104c6576104bb5f82610490565b6001810190506104a9565b5050565b601f82111561050b576104dc816103b6565b6104e5846103c8565b810160208510156104f4578190505b610508610500856103c8565b8301826104a8565b50505b505050565b5f82821c905092915050565b5f61052b5f1984600802610510565b1980831691505092915050565b5f610543838361051c565b9150826002028217905092915050565b61055c826102e0565b67ffffffffffffffff81111561057557610574610142565b5b61057f8254610386565b61058a8282856104ca565b5f60209050601f8311600181146105bb575f84156105a9578287015190505b6105b38582610538565b86555061061a565b601f1984166105c9866103b6565b5f5b828110156105f0578489015182556001820191506020850194506020810190506105cb565b8683101561060d5784890151610609601f89168261051c565b8355505b6001600288020188555050505b50505050505056fea2646970667358221220cd7bcd77ce8b5af2462471318894a3c127dec71e692135010f20cfad79917c0864736f6c634300081a0033",
					"opcodes": "PUSH1 0x80 PUSH1 0x40 MSTORE CALLVALUE DUP1 ISZERO PUSH1 0xE JUMPI PUSH0 DUP1 REVERT JUMPDEST POP PUSH2 0x658 DUP1 PUSH2 0x1C PUSH0 CODECOPY PUSH0 RETURN INVALID PUSH1 0x80 PUSH1 0x40 MSTORE CALLVALUE DUP1 ISZERO PUSH2 0xF JUMPI PUSH0 DUP1 REVERT JUMPDEST POP PUSH1 0x4 CALLDATASIZE LT PUSH2 0x29 JUMPI PUSH0 CALLDATALOAD PUSH1 0xE0 SHR DUP1 PUSH4 0x94B670B6 EQ PUSH2 0x2D JUMPI JUMPDEST PUSH0 DUP1 REVERT JUMPDEST PUSH2 0x47 PUSH1 0x4 DUP1 CALLDATASIZE SUB DUP2 ADD SWAP1 PUSH2 0x42 SWAP2 SWAP1 PUSH2 0x266 JUMP JUMPDEST PUSH2 0x49 JUMP JUMPDEST STOP JUMPDEST PUSH0 DUP3 DUP3 PUSH1 0x40 MLOAD PUSH1 0x20 ADD PUSH2 0x5D SWAP3 SWAP2 SWAP1 PUSH2 0x332 JUMP JUMPDEST PUSH1 0x40 MLOAD PUSH1 0x20 DUP2 DUP4 SUB SUB DUP2 MSTORE SWAP1 PUSH1 0x40 MSTORE DUP1 MLOAD SWAP1 PUSH1 0x20 ADD KECCAK256 SWAP1 POP PUSH0 PUSH1 0x40 MLOAD DUP1 PUSH1 0x60 ADD PUSH1 0x40 MSTORE DUP1 DUP6 DUP2 MSTORE PUSH1 0x20 ADD DUP5 DUP2 MSTORE PUSH1 0x20 ADD DUP4 DUP2 MSTORE POP SWAP1 DUP1 PUSH1 0x1 DUP2 SLOAD ADD DUP1 DUP3 SSTORE DUP1 SWAP2 POP POP PUSH1 0x1 SWAP1 SUB SWAP1 PUSH0 MSTORE PUSH1 0x20 PUSH0 KECCAK256 SWAP1 PUSH1 0x3 MUL ADD PUSH0 SWAP1 SWAP2 SWAP1 SWAP2 SWAP1 SWAP2 POP PUSH0 DUP3 ADD MLOAD DUP2 PUSH0 ADD SSTORE PUSH1 0x20 DUP3 ADD MLOAD DUP2 PUSH1 0x1 ADD SWAP1 DUP2 PUSH2 0xD4 SWAP2 SWAP1 PUSH2 0x553 JUMP JUMPDEST POP PUSH1 0x40 DUP3 ADD MLOAD DUP2 PUSH1 0x2 ADD SSTORE POP POP POP POP POP JUMP JUMPDEST PUSH0 PUSH1 0x40 MLOAD SWAP1 POP SWAP1 JUMP JUMPDEST PUSH0 DUP1 REVERT JUMPDEST PUSH0 DUP1 REVERT JUMPDEST PUSH0 DUP2 SWAP1 POP SWAP2 SWAP1 POP JUMP JUMPDEST PUSH2 0x109 DUP2 PUSH2 0xF7 JUMP JUMPDEST DUP2 EQ PUSH2 0x113 JUMPI PUSH0 DUP1 REVERT JUMPDEST POP JUMP JUMPDEST PUSH0 DUP2 CALLDATALOAD SWAP1 POP PUSH2 0x124 DUP2 PUSH2 0x100 JUMP JUMPDEST SWAP3 SWAP2 POP POP JUMP JUMPDEST PUSH0 DUP1 REVERT JUMPDEST PUSH0 DUP1 REVERT JUMPDEST PUSH0 PUSH1 0x1F NOT PUSH1 0x1F DUP4 ADD AND SWAP1 POP SWAP2 SWAP1 POP JUMP JUMPDEST PUSH32 0x4E487B7100000000000000000000000000000000000000000000000000000000 PUSH0 MSTORE PUSH1 0x41 PUSH1 0x4 MSTORE PUSH1 0x24 PUSH0 REVERT JUMPDEST PUSH2 0x178 DUP3 PUSH2 0x132 JUMP JUMPDEST DUP2 ADD DUP2 DUP2 LT PUSH8 0xFFFFFFFFFFFFFFFF DUP3 GT OR ISZERO PUSH2 0x197 JUMPI PUSH2 0x196 PUSH2 0x142 JUMP JUMPDEST JUMPDEST DUP1 PUSH1 0x40 MSTORE POP POP POP JUMP JUMPDEST PUSH0 PUSH2 0x1A9 PUSH2 0xE6 JUMP JUMPDEST SWAP1 POP PUSH2 0x1B5 DUP3 DUP3 PUSH2 0x16F JUMP JUMPDEST SWAP2 SWAP1 POP JUMP JUMPDEST PUSH0 PUSH8 0xFFFFFFFFFFFFFFFF DUP3 GT ISZERO PUSH2 0x1D4 JUMPI PUSH2 0x1D3 PUSH2 0x142 JUMP JUMPDEST JUMPDEST PUSH2 0x1DD DUP3 PUSH2 0x132 JUMP JUMPDEST SWAP1 POP PUSH1 0x20 DUP2 ADD SWAP1 POP SWAP2 SWAP1 POP JUMP JUMPDEST DUP3 DUP2 DUP4 CALLDATACOPY PUSH0 DUP4 DUP4 ADD MSTORE POP POP POP JUMP JUMPDEST PUSH0 PUSH2 0x20A PUSH2 0x205 DUP5 PUSH2 0x1BA JUMP JUMPDEST PUSH2 0x1A0 JUMP JUMPDEST SWAP1 POP DUP3 DUP2 MSTORE PUSH1 0x20 DUP2 ADD DUP5 DUP5 DUP5 ADD GT ISZERO PUSH2 0x226 JUMPI PUSH2 0x225 PUSH2 0x12E JUMP JUMPDEST JUMPDEST PUSH2 0x231 DUP5 DUP3 DUP6 PUSH2 0x1EA JUMP JUMPDEST POP SWAP4 SWAP3 POP POP POP JUMP JUMPDEST PUSH0 DUP3 PUSH1 0x1F DUP4 ADD SLT PUSH2 0x24D JUMPI PUSH2 0x24C PUSH2 0x12A JUMP JUMPDEST JUMPDEST DUP2 CALLDATALOAD PUSH2 0x25D DUP5 DUP3 PUSH1 0x20 DUP7 ADD PUSH2 0x1F8 JUMP JUMPDEST SWAP2 POP POP SWAP3 SWAP2 POP POP JUMP JUMPDEST PUSH0 DUP1 PUSH1 0x40 DUP4 DUP6 SUB SLT ISZERO PUSH2 0x27C JUMPI PUSH2 0x27B PUSH2 0xEF JUMP JUMPDEST JUMPDEST PUSH0 PUSH2 0x289 DUP6 DUP3 DUP7 ADD PUSH2 0x116 JUMP JUMPDEST SWAP3 POP POP PUSH1 0x20 DUP4 ADD CALLDATALOAD PUSH8 0xFFFFFFFFFFFFFFFF DUP2 GT ISZERO PUSH2 0x2AA JUMPI PUSH2 0x2A9 PUSH2 0xF3 JUMP JUMPDEST JUMPDEST PUSH2 0x2B6 DUP6 DUP3 DUP7 ADD PUSH2 0x239 JUMP JUMPDEST SWAP2 POP POP SWAP3 POP SWAP3 SWAP1 POP JUMP JUMPDEST PUSH0 DUP2 SWAP1 POP SWAP2 SWAP1 POP JUMP JUMPDEST PUSH2 0x2DA PUSH2 0x2D5 DUP3 PUSH2 0xF7 JUMP JUMPDEST PUSH2 0x2C0 JUMP JUMPDEST DUP3 MSTORE POP POP JUMP JUMPDEST PUSH0 DUP2 MLOAD SWAP1 POP SWAP2 SWAP1 POP JUMP JUMPDEST PUSH0 DUP2 SWAP1 POP SWAP3 SWAP2 POP POP JUMP JUMPDEST DUP3 DUP2 DUP4 MCOPY PUSH0 DUP4 DUP4 ADD MSTORE POP POP POP JUMP JUMPDEST PUSH0 PUSH2 0x30C DUP3 PUSH2 0x2E0 JUMP JUMPDEST PUSH2 0x316 DUP2 DUP6 PUSH2 0x2EA JUMP JUMPDEST SWAP4 POP PUSH2 0x326 DUP2 DUP6 PUSH1 0x20 DUP7 ADD PUSH2 0x2F4 JUMP JUMPDEST DUP1 DUP5 ADD SWAP2 POP POP SWAP3 SWAP2 POP POP JUMP JUMPDEST PUSH0 PUSH2 0x33D DUP3 DUP6 PUSH2 0x2C9 JUMP JUMPDEST PUSH1 0x20 DUP3 ADD SWAP2 POP PUSH2 0x34D DUP3 DUP5 PUSH2 0x302 JUMP JUMPDEST SWAP2 POP DUP2 SWAP1 POP SWAP4 SWAP3 POP POP POP JUMP JUMPDEST PUSH32 0x4E487B7100000000000000000000000000000000000000000000000000000000 PUSH0 MSTORE PUSH1 0x22 PUSH1 0x4 MSTORE PUSH1 0x24 PUSH0 REVERT JUMPDEST PUSH0 PUSH1 0x2 DUP3 DIV SWAP1 POP PUSH1 0x1 DUP3 AND DUP1 PUSH2 0x39D JUMPI PUSH1 0x7F DUP3 AND SWAP2 POP JUMPDEST PUSH1 0x20 DUP3 LT DUP2 SUB PUSH2 0x3B0 JUMPI PUSH2 0x3AF PUSH2 0x359 JUMP JUMPDEST JUMPDEST POP SWAP2 SWAP1 POP JUMP JUMPDEST PUSH0 DUP2 SWAP1 POP DUP2 PUSH0 MSTORE PUSH1 0x20 PUSH0 KECCAK256 SWAP1 POP SWAP2 SWAP1 POP JUMP JUMPDEST PUSH0 PUSH1 0x20 PUSH1 0x1F DUP4 ADD DIV SWAP1 POP SWAP2 SWAP1 POP JUMP JUMPDEST PUSH0 DUP3 DUP3 SHL SWAP1 POP SWAP3 SWAP2 POP POP JUMP JUMPDEST PUSH0 PUSH1 0x8 DUP4 MUL PUSH2 0x412 PUSH32 0xFFFFFFFFFFFFFFFFFFFFFFFFFFFFFFFFFFFFFFFFFFFFFFFFFFFFFFFFFFFFFFFF DUP3 PUSH2 0x3D7 JUMP JUMPDEST PUSH2 0x41C DUP7 DUP4 PUSH2 0x3D7 JUMP JUMPDEST SWAP6 POP DUP1 NOT DUP5 AND SWAP4 POP DUP1 DUP7 AND DUP5 OR SWAP3 POP POP POP SWAP4 SWAP3 POP POP POP JUMP JUMPDEST PUSH0 DUP2 SWAP1 POP SWAP2 SWAP1 POP JUMP JUMPDEST PUSH0 PUSH2 0x457 PUSH2 0x452 PUSH2 0x44D DUP5 PUSH2 0xF7 JUMP JUMPDEST PUSH2 0x434 JUMP JUMPDEST PUSH2 0xF7 JUMP JUMPDEST SWAP1 POP SWAP2 SWAP1 POP JUMP JUMPDEST PUSH0 DUP2 SWAP1 POP SWAP2 SWAP1 POP JUMP JUMPDEST PUSH2 0x470 DUP4 PUSH2 0x43D JUMP JUMPDEST PUSH2 0x484 PUSH2 0x47C DUP3 PUSH2 0x45E JUMP JUMPDEST DUP5 DUP5 SLOAD PUSH2 0x3E3 JUMP JUMPDEST DUP3 SSTORE POP POP POP POP JUMP JUMPDEST PUSH0 SWAP1 JUMP JUMPDEST PUSH2 0x498 PUSH2 0x48C JUMP JUMPDEST PUSH2 0x4A3 DUP2 DUP5 DUP5 PUSH2 0x467 JUMP JUMPDEST POP POP POP JUMP JUMPDEST JUMPDEST DUP2 DUP2 LT ISZERO PUSH2 0x4C6 JUMPI PUSH2 0x4BB PUSH0 DUP3 PUSH2 0x490 JUMP JUMPDEST PUSH1 0x1 DUP2 ADD SWAP1 POP PUSH2 0x4A9 JUMP JUMPDEST POP POP JUMP JUMPDEST PUSH1 0x1F DUP3 GT ISZERO PUSH2 0x50B JUMPI PUSH2 0x4DC DUP2 PUSH2 0x3B6 JUMP JUMPDEST PUSH2 0x4E5 DUP5 PUSH2 0x3C8 JUMP JUMPDEST DUP2 ADD PUSH1 0x20 DUP6 LT ISZERO PUSH2 0x4F4 JUMPI DUP2 SWAP1 POP JUMPDEST PUSH2 0x508 PUSH2 0x500 DUP6 PUSH2 0x3C8 JUMP JUMPDEST DUP4 ADD DUP3 PUSH2 0x4A8 JUMP JUMPDEST POP POP JUMPDEST POP POP POP JUMP JUMPDEST PUSH0 DUP3 DUP3 SHR SWAP1 POP SWAP3 SWAP2 POP POP JUMP JUMPDEST PUSH0 PUSH2 0x52B PUSH0 NOT DUP5 PUSH1 0x8 MUL PUSH2 0x510 JUMP JUMPDEST NOT DUP1 DUP4 AND SWAP2 POP POP SWAP3 SWAP2 POP POP JUMP JUMPDEST PUSH0 PUSH2 0x543 DUP4 DUP4 PUSH2 0x51C JUMP JUMPDEST SWAP2 POP DUP3 PUSH1 0x2 MUL DUP3 OR SWAP1 POP SWAP3 SWAP2 POP POP JUMP JUMPDEST PUSH2 0x55C DUP3 PUSH2 0x2E0 JUMP JUMPDEST PUSH8 0xFFFFFFFFFFFFFFFF DUP2 GT ISZERO PUSH2 0x575 JUMPI PUSH2 0x574 PUSH2 0x142 JUMP JUMPDEST JUMPDEST PUSH2 0x57F DUP3 SLOAD PUSH2 0x386 JUMP JUMPDEST PUSH2 0x58A DUP3 DUP3 DUP6 PUSH2 0x4CA JUMP JUMPDEST PUSH0 PUSH1 0x20 SWAP1 POP PUSH1 0x1F DUP4 GT PUSH1 0x1 DUP2 EQ PUSH2 0x5BB JUMPI PUSH0 DUP5 ISZERO PUSH2 0x5A9 JUMPI DUP3 DUP8 ADD MLOAD SWAP1 POP JUMPDEST PUSH2 0x5B3 DUP6 DUP3 PUSH2 0x538 JUMP JUMPDEST DUP7 SSTORE POP PUSH2 0x61A JUMP JUMPDEST PUSH1 0x1F NOT DUP5 AND PUSH2 0x5C9 DUP7 PUSH2 0x3B6 JUMP JUMPDEST PUSH0 JUMPDEST DUP3 DUP2 LT ISZERO PUSH2 0x5F0 JUMPI DUP5 DUP10 ADD MLOAD DUP3 SSTORE PUSH1 0x1 DUP3 ADD SWAP2 POP PUSH1 0x20 DUP6 ADD SWAP5 POP PUSH1 0x20 DUP2 ADD SWAP1 POP PUSH2 0x5CB JUMP JUMPDEST DUP7 DUP4 LT ISZERO PUSH2 0x60D JUMPI DUP5 DUP10 ADD MLOAD PUSH2 0x609 PUSH1 0x1F DUP10 AND DUP3 PUSH2 0x51C JUMP JUMPDEST DUP4 SSTORE POP JUMPDEST PUSH1 0x1 PUSH1 0x2 DUP9 MUL ADD DUP9 SSTORE POP POP POP JUMPDEST POP POP POP POP POP POP JUMP INVALID LOG2 PUSH5 0x6970667358 0x22 SLT KECCAK256 0xCD PUSH28 0xCD77CE8B5AF2462471318894A3C127DEC71E692135010F20CFAD7991 PUSH29 0x864736F6C634300081A00330000000000000000000000000000000000 "
				},
				"gasEstimates": {
					"creation": {
						"codeDepositCost": "324800",
						"executionCost": "360",
						"totalCost": "325160"
					},
					"external": {
						"setUser(uint256,string)": "infinite"
					}
				},
				"methodIdentifiers": {
					"setUser(uint256,string)": "94b670b6"
				}
			},
			"storageLayout": {
				"storage": [
					{
						"astId": 1880,
						"contract": "Solidity100/sol100(61~70).sol:Q70",
						"label": "users",
						"offset": 0,
						"slot": "0",
						"type": "t_array(t_struct(user)1876_storage)dyn_storage"
					}
				],
				"types": {
					"t_array(t_struct(user)1876_storage)dyn_storage": {
						"base": "t_struct(user)1876_storage",
						"encoding": "dynamic_array",
						"label": "struct Q70.user[]",
						"numberOfBytes": "32"
					},
					"t_bytes32": {
						"encoding": "inplace",
						"label": "bytes32",
						"numberOfBytes": "32"
					},
					"t_string_storage": {
						"encoding": "bytes",
						"label": "string",
						"numberOfBytes": "32"
					},
					"t_struct(user)1876_storage": {
						"encoding": "inplace",
						"label": "struct Q70.user",
						"members": [
							{
								"astId": 1871,
								"contract": "Solidity100/sol100(61~70).sol:Q70",
								"label": "num",
								"offset": 0,
								"slot": "0",
								"type": "t_uint256"
							},
							{
								"astId": 1873,
								"contract": "Solidity100/sol100(61~70).sol:Q70",
								"label": "name",
								"offset": 0,
								"slot": "1",
								"type": "t_string_storage"
							},
							{
								"astId": 1875,
								"contract": "Solidity100/sol100(61~70).sol:Q70",
								"label": "Bytes",
								"offset": 0,
								"slot": "2",
								"type": "t_bytes32"
							}
						],
						"numberOfBytes": "96"
					},
					"t_uint256": {
						"encoding": "inplace",
						"label": "uint256",
						"numberOfBytes": "32"
					}
				}
			},
			"userdoc": {
				"kind": "user",
				"methods": {},
				"version": 1
			}
		}
	}
}