{
	"Solidity100/sol100(61~70).sol": {
		"Q64": {
			"abi": [
				{
					"inputs": [
						{
							"internalType": "string",
							"name": "addr",
							"type": "string"
						}
					],
					"name": "separate",
					"outputs": [
						{
							"internalType": "string[]",
							"name": "",
							"type": "string[]"
						}
					],
					"stateMutability": "pure",
					"type": "function"
				}
			],
			"devdoc": {
				"kind": "dev",
				"methods": {},
				"version": 1
			},
			"evm": {
				"assembly": "    /* \"Solidity100/sol100(61~70).sol\":950:1516  contract Q64 {... */\n  mstore(0x40, 0x80)\n  callvalue\n  dup1\n  iszero\n  tag_1\n  jumpi\n  0x00\n  dup1\n  revert\ntag_1:\n  pop\n  dataSize(sub_0)\n  dup1\n  dataOffset(sub_0)\n  0x00\n  codecopy\n  0x00\n  return\nstop\n\nsub_0: assembly {\n        /* \"Solidity100/sol100(61~70).sol\":950:1516  contract Q64 {... */\n      mstore(0x40, 0x80)\n      callvalue\n      dup1\n      iszero\n      tag_1\n      jumpi\n      0x00\n      dup1\n      revert\n    tag_1:\n      pop\n      jumpi(tag_2, lt(calldatasize, 0x04))\n      shr(0xe0, calldataload(0x00))\n      dup1\n      0x20d7b6fa\n      eq\n      tag_3\n      jumpi\n    tag_2:\n      0x00\n      dup1\n      revert\n        /* \"Solidity100/sol100(61~70).sol\":1080:1509  function separate(string memory addr) public pure returns(string[] memory) {... */\n    tag_3:\n      tag_4\n      0x04\n      dup1\n      calldatasize\n      sub\n      dup2\n      add\n      swap1\n      tag_5\n      swap2\n      swap1\n      tag_6\n      jump\t// in\n    tag_5:\n      tag_7\n      jump\t// in\n    tag_4:\n      mload(0x40)\n      tag_8\n      swap2\n      swap1\n      tag_9\n      jump\t// in\n    tag_8:\n      mload(0x40)\n      dup1\n      swap2\n      sub\n      swap1\n      return\n    tag_7:\n        /* \"Solidity100/sol100(61~70).sol\":1138:1153  string[] memory */\n      0x60\n        /* \"Solidity100/sol100(61~70).sol\":1166:1178  uint _length */\n      0x00\n        /* \"Solidity100/sol100(61~70).sol\":1187:1191  addr */\n      dup3\n        /* \"Solidity100/sol100(61~70).sol\":1181:1199  bytes(addr).length */\n      mload\n        /* \"Solidity100/sol100(61~70).sol\":1166:1199  uint _length = bytes(addr).length */\n      swap1\n      pop\n        /* \"Solidity100/sol100(61~70).sol\":1210:1234  string[] memory _letters */\n      0x00\n        /* \"Solidity100/sol100(61~70).sol\":1250:1257  _length */\n      dup2\n        /* \"Solidity100/sol100(61~70).sol\":1237:1258  new string[](_length) */\n      0xffffffffffffffff\n      dup2\n      gt\n      iszero\n      tag_11\n      jumpi\n      tag_12\n      tag_13\n      jump\t// in\n    tag_12:\n    tag_11:\n      mload(0x40)\n      swap1\n      dup1\n      dup3\n      mstore\n      dup1\n      0x20\n      mul\n      0x20\n      add\n      dup3\n      add\n      0x40\n      mstore\n      dup1\n      iszero\n      tag_14\n      jumpi\n      dup2\n      0x20\n      add\n    tag_15:\n      0x60\n      dup2\n      mstore\n      0x20\n      add\n      swap1\n      0x01\n      swap1\n      sub\n      swap1\n      dup2\n      tag_15\n      jumpi\n      swap1\n      pop\n    tag_14:\n      pop\n        /* \"Solidity100/sol100(61~70).sol\":1210:1258  string[] memory _letters = new string[](_length) */\n      swap1\n      pop\n        /* \"Solidity100/sol100(61~70).sol\":1271:1289  bytes4[] memory _b */\n      0x00\n        /* \"Solidity100/sol100(61~70).sol\":1305:1312  _length */\n      dup3\n        /* \"Solidity100/sol100(61~70).sol\":1292:1313  new bytes4[](_length) */\n      0xffffffffffffffff\n      dup2\n      gt\n      iszero\n      tag_16\n      jumpi\n      tag_17\n      tag_13\n      jump\t// in\n    tag_17:\n    tag_16:\n      mload(0x40)\n      swap1\n      dup1\n      dup3\n      mstore\n      dup1\n      0x20\n      mul\n      0x20\n      add\n      dup3\n      add\n      0x40\n      mstore\n      dup1\n      iszero\n      tag_18\n      jumpi\n      dup2\n      0x20\n      add\n      0x20\n      dup3\n      mul\n      dup1\n      calldatasize\n      dup4\n      calldatacopy\n      dup1\n      dup3\n      add\n      swap2\n      pop\n      pop\n      swap1\n      pop\n    tag_18:\n      pop\n        /* \"Solidity100/sol100(61~70).sol\":1271:1313  bytes4[] memory _b = new bytes4[](_length) */\n      swap1\n      pop\n        /* \"Solidity100/sol100(61~70).sol\":1330:1336  uint i */\n      0x00\n        /* \"Solidity100/sol100(61~70).sol\":1337:1338  2 */\n      0x02\n        /* \"Solidity100/sol100(61~70).sol\":1330:1338  uint i=2 */\n      swap1\n      pop\n        /* \"Solidity100/sol100(61~70).sol\":1326:1469  for(uint i=2; i<_length; i++) {... */\n    tag_19:\n        /* \"Solidity100/sol100(61~70).sol\":1342:1349  _length */\n      dup4\n        /* \"Solidity100/sol100(61~70).sol\":1340:1341  i */\n      dup2\n        /* \"Solidity100/sol100(61~70).sol\":1340:1349  i<_length */\n      lt\n        /* \"Solidity100/sol100(61~70).sol\":1326:1469  for(uint i=2; i<_length; i++) {... */\n      iszero\n      tag_20\n      jumpi\n        /* \"Solidity100/sol100(61~70).sol\":1385:1389  addr */\n      dup6\n        /* \"Solidity100/sol100(61~70).sol\":1391:1392  i */\n      dup2\n        /* \"Solidity100/sol100(61~70).sol\":1379:1393  bytes(addr)[i] */\n      dup2\n      mload\n      dup2\n      lt\n      tag_22\n      jumpi\n      tag_23\n      tag_24\n      jump\t// in\n    tag_23:\n    tag_22:\n      0x20\n      add\n      add\n      mload\n      0xf8\n      shr\n      0xf8\n      shl\n        /* \"Solidity100/sol100(61~70).sol\":1371:1393  _b[i] = bytes(addr)[i] */\n      not(0xffffffffffffffffffffffffffffffffffffffffffffffffffffffffffffff)\n      and\n        /* \"Solidity100/sol100(61~70).sol\":1371:1373  _b */\n      dup3\n        /* \"Solidity100/sol100(61~70).sol\":1374:1375  i */\n      dup3\n        /* \"Solidity100/sol100(61~70).sol\":1371:1376  _b[i] */\n      dup2\n      mload\n      dup2\n      lt\n      tag_25\n      jumpi\n      tag_26\n      tag_24\n      jump\t// in\n    tag_26:\n    tag_25:\n      0x20\n      mul\n      0x20\n      add\n      add\n        /* \"Solidity100/sol100(61~70).sol\":1371:1393  _b[i] = bytes(addr)[i] */\n      swap1\n      not(0xffffffffffffffffffffffffffffffffffffffffffffffffffffffff)\n      and\n      swap1\n      dup2\n      not(0xffffffffffffffffffffffffffffffffffffffffffffffffffffffff)\n      and\n      dup2\n      mstore\n      pop\n      pop\n        /* \"Solidity100/sol100(61~70).sol\":1446:1448  _b */\n      dup2\n        /* \"Solidity100/sol100(61~70).sol\":1449:1450  i */\n      dup2\n        /* \"Solidity100/sol100(61~70).sol\":1446:1451  _b[i] */\n      dup2\n      mload\n      dup2\n      lt\n      tag_27\n      jumpi\n      tag_28\n      tag_24\n      jump\t// in\n    tag_28:\n    tag_27:\n      0x20\n      mul\n      0x20\n      add\n      add\n      mload\n        /* \"Solidity100/sol100(61~70).sol\":1429:1452  abi.encodePacked(_b[i]) */\n      add(0x20, mload(0x40))\n      tag_29\n      swap2\n      swap1\n      tag_30\n      jump\t// in\n    tag_29:\n      mload(0x40)\n      0x20\n      dup2\n      dup4\n      sub\n      sub\n      dup2\n      mstore\n      swap1\n      0x40\n      mstore\n        /* \"Solidity100/sol100(61~70).sol\":1408:1416  _letters */\n      dup4\n        /* \"Solidity100/sol100(61~70).sol\":1417:1418  i */\n      dup3\n        /* \"Solidity100/sol100(61~70).sol\":1408:1419  _letters[i] */\n      dup2\n      mload\n      dup2\n      lt\n      tag_31\n      jumpi\n      tag_32\n      tag_24\n      jump\t// in\n    tag_32:\n    tag_31:\n      0x20\n      mul\n      0x20\n      add\n      add\n        /* \"Solidity100/sol100(61~70).sol\":1408:1453  _letters[i] = string(abi.encodePacked(_b[i])) */\n      dup2\n      swap1\n      mstore\n      pop\n        /* \"Solidity100/sol100(61~70).sol\":1351:1354  i++ */\n      dup1\n      dup1\n      0x01\n      add\n      swap2\n      pop\n      pop\n        /* \"Solidity100/sol100(61~70).sol\":1326:1469  for(uint i=2; i<_length; i++) {... */\n      jump(tag_19)\n    tag_20:\n      pop\n        /* \"Solidity100/sol100(61~70).sol\":1493:1501  _letters */\n      dup2\n        /* \"Solidity100/sol100(61~70).sol\":1485:1501  return  _letters */\n      swap4\n      pop\n      pop\n      pop\n      pop\n        /* \"Solidity100/sol100(61~70).sol\":1080:1509  function separate(string memory addr) public pure returns(string[] memory) {... */\n      swap2\n      swap1\n      pop\n      jump\t// out\n        /* \"#utility.yul\":7:82   */\n    tag_33:\n        /* \"#utility.yul\":40:46   */\n      0x00\n        /* \"#utility.yul\":73:75   */\n      0x40\n        /* \"#utility.yul\":67:76   */\n      mload\n        /* \"#utility.yul\":57:76   */\n      swap1\n      pop\n        /* \"#utility.yul\":7:82   */\n      swap1\n      jump\t// out\n        /* \"#utility.yul\":88:205   */\n    tag_34:\n        /* \"#utility.yul\":197:198   */\n      0x00\n        /* \"#utility.yul\":194:195   */\n      dup1\n        /* \"#utility.yul\":187:199   */\n      revert\n        /* \"#utility.yul\":211:328   */\n    tag_35:\n        /* \"#utility.yul\":320:321   */\n      0x00\n        /* \"#utility.yul\":317:318   */\n      dup1\n        /* \"#utility.yul\":310:322   */\n      revert\n        /* \"#utility.yul\":334:451   */\n    tag_36:\n        /* \"#utility.yul\":443:444   */\n      0x00\n        /* \"#utility.yul\":440:441   */\n      dup1\n        /* \"#utility.yul\":433:445   */\n      revert\n        /* \"#utility.yul\":457:574   */\n    tag_37:\n        /* \"#utility.yul\":566:567   */\n      0x00\n        /* \"#utility.yul\":563:564   */\n      dup1\n        /* \"#utility.yul\":556:568   */\n      revert\n        /* \"#utility.yul\":580:682   */\n    tag_38:\n        /* \"#utility.yul\":621:627   */\n      0x00\n        /* \"#utility.yul\":672:674   */\n      0x1f\n        /* \"#utility.yul\":668:675   */\n      not\n        /* \"#utility.yul\":663:665   */\n      0x1f\n        /* \"#utility.yul\":656:661   */\n      dup4\n        /* \"#utility.yul\":652:666   */\n      add\n        /* \"#utility.yul\":648:676   */\n      and\n        /* \"#utility.yul\":638:676   */\n      swap1\n      pop\n        /* \"#utility.yul\":580:682   */\n      swap2\n      swap1\n      pop\n      jump\t// out\n        /* \"#utility.yul\":688:868   */\n    tag_13:\n        /* \"#utility.yul\":736:813   */\n      0x4e487b7100000000000000000000000000000000000000000000000000000000\n        /* \"#utility.yul\":733:734   */\n      0x00\n        /* \"#utility.yul\":726:814   */\n      mstore\n        /* \"#utility.yul\":833:837   */\n      0x41\n        /* \"#utility.yul\":830:831   */\n      0x04\n        /* \"#utility.yul\":823:838   */\n      mstore\n        /* \"#utility.yul\":857:861   */\n      0x24\n        /* \"#utility.yul\":854:855   */\n      0x00\n        /* \"#utility.yul\":847:862   */\n      revert\n        /* \"#utility.yul\":874:1155   */\n    tag_39:\n        /* \"#utility.yul\":957:984   */\n      tag_67\n        /* \"#utility.yul\":979:983   */\n      dup3\n        /* \"#utility.yul\":957:984   */\n      tag_38\n      jump\t// in\n    tag_67:\n        /* \"#utility.yul\":949:955   */\n      dup2\n        /* \"#utility.yul\":945:985   */\n      add\n        /* \"#utility.yul\":1087:1093   */\n      dup2\n        /* \"#utility.yul\":1075:1085   */\n      dup2\n        /* \"#utility.yul\":1072:1094   */\n      lt\n        /* \"#utility.yul\":1051:1069   */\n      0xffffffffffffffff\n        /* \"#utility.yul\":1039:1049   */\n      dup3\n        /* \"#utility.yul\":1036:1070   */\n      gt\n        /* \"#utility.yul\":1033:1095   */\n      or\n        /* \"#utility.yul\":1030:1118   */\n      iszero\n      tag_68\n      jumpi\n        /* \"#utility.yul\":1098:1116   */\n      tag_69\n      tag_13\n      jump\t// in\n    tag_69:\n        /* \"#utility.yul\":1030:1118   */\n    tag_68:\n        /* \"#utility.yul\":1138:1148   */\n      dup1\n        /* \"#utility.yul\":1134:1136   */\n      0x40\n        /* \"#utility.yul\":1127:1149   */\n      mstore\n        /* \"#utility.yul\":917:1155   */\n      pop\n        /* \"#utility.yul\":874:1155   */\n      pop\n      pop\n      jump\t// out\n        /* \"#utility.yul\":1161:1290   */\n    tag_40:\n        /* \"#utility.yul\":1195:1201   */\n      0x00\n        /* \"#utility.yul\":1222:1242   */\n      tag_71\n      tag_33\n      jump\t// in\n    tag_71:\n        /* \"#utility.yul\":1212:1242   */\n      swap1\n      pop\n        /* \"#utility.yul\":1251:1284   */\n      tag_72\n        /* \"#utility.yul\":1279:1283   */\n      dup3\n        /* \"#utility.yul\":1271:1277   */\n      dup3\n        /* \"#utility.yul\":1251:1284   */\n      tag_39\n      jump\t// in\n    tag_72:\n        /* \"#utility.yul\":1161:1290   */\n      swap2\n      swap1\n      pop\n      jump\t// out\n        /* \"#utility.yul\":1296:1604   */\n    tag_41:\n        /* \"#utility.yul\":1358:1362   */\n      0x00\n        /* \"#utility.yul\":1448:1466   */\n      0xffffffffffffffff\n        /* \"#utility.yul\":1440:1446   */\n      dup3\n        /* \"#utility.yul\":1437:1467   */\n      gt\n        /* \"#utility.yul\":1434:1490   */\n      iszero\n      tag_74\n      jumpi\n        /* \"#utility.yul\":1470:1488   */\n      tag_75\n      tag_13\n      jump\t// in\n    tag_75:\n        /* \"#utility.yul\":1434:1490   */\n    tag_74:\n        /* \"#utility.yul\":1508:1537   */\n      tag_76\n        /* \"#utility.yul\":1530:1536   */\n      dup3\n        /* \"#utility.yul\":1508:1537   */\n      tag_38\n      jump\t// in\n    tag_76:\n        /* \"#utility.yul\":1500:1537   */\n      swap1\n      pop\n        /* \"#utility.yul\":1592:1596   */\n      0x20\n        /* \"#utility.yul\":1586:1590   */\n      dup2\n        /* \"#utility.yul\":1582:1597   */\n      add\n        /* \"#utility.yul\":1574:1597   */\n      swap1\n      pop\n        /* \"#utility.yul\":1296:1604   */\n      swap2\n      swap1\n      pop\n      jump\t// out\n        /* \"#utility.yul\":1610:1758   */\n    tag_42:\n        /* \"#utility.yul\":1708:1714   */\n      dup3\n        /* \"#utility.yul\":1703:1706   */\n      dup2\n        /* \"#utility.yul\":1698:1701   */\n      dup4\n        /* \"#utility.yul\":1685:1715   */\n      calldatacopy\n        /* \"#utility.yul\":1749:1750   */\n      0x00\n        /* \"#utility.yul\":1740:1746   */\n      dup4\n        /* \"#utility.yul\":1735:1738   */\n      dup4\n        /* \"#utility.yul\":1731:1747   */\n      add\n        /* \"#utility.yul\":1724:1751   */\n      mstore\n        /* \"#utility.yul\":1610:1758   */\n      pop\n      pop\n      pop\n      jump\t// out\n        /* \"#utility.yul\":1764:2189   */\n    tag_43:\n        /* \"#utility.yul\":1842:1847   */\n      0x00\n        /* \"#utility.yul\":1867:1933   */\n      tag_79\n        /* \"#utility.yul\":1883:1932   */\n      tag_80\n        /* \"#utility.yul\":1925:1931   */\n      dup5\n        /* \"#utility.yul\":1883:1932   */\n      tag_41\n      jump\t// in\n    tag_80:\n        /* \"#utility.yul\":1867:1933   */\n      tag_40\n      jump\t// in\n    tag_79:\n        /* \"#utility.yul\":1858:1933   */\n      swap1\n      pop\n        /* \"#utility.yul\":1956:1962   */\n      dup3\n        /* \"#utility.yul\":1949:1954   */\n      dup2\n        /* \"#utility.yul\":1942:1963   */\n      mstore\n        /* \"#utility.yul\":1994:1998   */\n      0x20\n        /* \"#utility.yul\":1987:1992   */\n      dup2\n        /* \"#utility.yul\":1983:1999   */\n      add\n        /* \"#utility.yul\":2032:2035   */\n      dup5\n        /* \"#utility.yul\":2023:2029   */\n      dup5\n        /* \"#utility.yul\":2018:2021   */\n      dup5\n        /* \"#utility.yul\":2014:2030   */\n      add\n        /* \"#utility.yul\":2011:2036   */\n      gt\n        /* \"#utility.yul\":2008:2120   */\n      iszero\n      tag_81\n      jumpi\n        /* \"#utility.yul\":2039:2118   */\n      tag_82\n      tag_37\n      jump\t// in\n    tag_82:\n        /* \"#utility.yul\":2008:2120   */\n    tag_81:\n        /* \"#utility.yul\":2129:2183   */\n      tag_83\n        /* \"#utility.yul\":2176:2182   */\n      dup5\n        /* \"#utility.yul\":2171:2174   */\n      dup3\n        /* \"#utility.yul\":2166:2169   */\n      dup6\n        /* \"#utility.yul\":2129:2183   */\n      tag_42\n      jump\t// in\n    tag_83:\n        /* \"#utility.yul\":1848:2189   */\n      pop\n        /* \"#utility.yul\":1764:2189   */\n      swap4\n      swap3\n      pop\n      pop\n      pop\n      jump\t// out\n        /* \"#utility.yul\":2209:2549   */\n    tag_44:\n        /* \"#utility.yul\":2265:2270   */\n      0x00\n        /* \"#utility.yul\":2314:2317   */\n      dup3\n        /* \"#utility.yul\":2307:2311   */\n      0x1f\n        /* \"#utility.yul\":2299:2305   */\n      dup4\n        /* \"#utility.yul\":2295:2312   */\n      add\n        /* \"#utility.yul\":2291:2318   */\n      slt\n        /* \"#utility.yul\":2281:2403   */\n      tag_85\n      jumpi\n        /* \"#utility.yul\":2322:2401   */\n      tag_86\n      tag_36\n      jump\t// in\n    tag_86:\n        /* \"#utility.yul\":2281:2403   */\n    tag_85:\n        /* \"#utility.yul\":2439:2445   */\n      dup2\n        /* \"#utility.yul\":2426:2446   */\n      calldataload\n        /* \"#utility.yul\":2464:2543   */\n      tag_87\n        /* \"#utility.yul\":2539:2542   */\n      dup5\n        /* \"#utility.yul\":2531:2537   */\n      dup3\n        /* \"#utility.yul\":2524:2528   */\n      0x20\n        /* \"#utility.yul\":2516:2522   */\n      dup7\n        /* \"#utility.yul\":2512:2529   */\n      add\n        /* \"#utility.yul\":2464:2543   */\n      tag_43\n      jump\t// in\n    tag_87:\n        /* \"#utility.yul\":2455:2543   */\n      swap2\n      pop\n        /* \"#utility.yul\":2271:2549   */\n      pop\n        /* \"#utility.yul\":2209:2549   */\n      swap3\n      swap2\n      pop\n      pop\n      jump\t// out\n        /* \"#utility.yul\":2555:3064   */\n    tag_6:\n        /* \"#utility.yul\":2624:2630   */\n      0x00\n        /* \"#utility.yul\":2673:2675   */\n      0x20\n        /* \"#utility.yul\":2661:2670   */\n      dup3\n        /* \"#utility.yul\":2652:2659   */\n      dup5\n        /* \"#utility.yul\":2648:2671   */\n      sub\n        /* \"#utility.yul\":2644:2676   */\n      slt\n        /* \"#utility.yul\":2641:2760   */\n      iszero\n      tag_89\n      jumpi\n        /* \"#utility.yul\":2679:2758   */\n      tag_90\n      tag_34\n      jump\t// in\n    tag_90:\n        /* \"#utility.yul\":2641:2760   */\n    tag_89:\n        /* \"#utility.yul\":2827:2828   */\n      0x00\n        /* \"#utility.yul\":2816:2825   */\n      dup3\n        /* \"#utility.yul\":2812:2829   */\n      add\n        /* \"#utility.yul\":2799:2830   */\n      calldataload\n        /* \"#utility.yul\":2857:2875   */\n      0xffffffffffffffff\n        /* \"#utility.yul\":2849:2855   */\n      dup2\n        /* \"#utility.yul\":2846:2876   */\n      gt\n        /* \"#utility.yul\":2843:2960   */\n      iszero\n      tag_91\n      jumpi\n        /* \"#utility.yul\":2879:2958   */\n      tag_92\n      tag_35\n      jump\t// in\n    tag_92:\n        /* \"#utility.yul\":2843:2960   */\n    tag_91:\n        /* \"#utility.yul\":2984:3047   */\n      tag_93\n        /* \"#utility.yul\":3039:3046   */\n      dup5\n        /* \"#utility.yul\":3030:3036   */\n      dup3\n        /* \"#utility.yul\":3019:3028   */\n      dup6\n        /* \"#utility.yul\":3015:3037   */\n      add\n        /* \"#utility.yul\":2984:3047   */\n      tag_44\n      jump\t// in\n    tag_93:\n        /* \"#utility.yul\":2974:3047   */\n      swap2\n      pop\n        /* \"#utility.yul\":2770:3057   */\n      pop\n        /* \"#utility.yul\":2555:3064   */\n      swap3\n      swap2\n      pop\n      pop\n      jump\t// out\n        /* \"#utility.yul\":3070:3194   */\n    tag_45:\n        /* \"#utility.yul\":3147:3153   */\n      0x00\n        /* \"#utility.yul\":3181:3186   */\n      dup2\n        /* \"#utility.yul\":3175:3187   */\n      mload\n        /* \"#utility.yul\":3165:3187   */\n      swap1\n      pop\n        /* \"#utility.yul\":3070:3194   */\n      swap2\n      swap1\n      pop\n      jump\t// out\n        /* \"#utility.yul\":3200:3394   */\n    tag_46:\n        /* \"#utility.yul\":3309:3320   */\n      0x00\n        /* \"#utility.yul\":3343:3349   */\n      dup3\n        /* \"#utility.yul\":3338:3341   */\n      dup3\n        /* \"#utility.yul\":3331:3350   */\n      mstore\n        /* \"#utility.yul\":3383:3387   */\n      0x20\n        /* \"#utility.yul\":3378:3381   */\n      dup3\n        /* \"#utility.yul\":3374:3388   */\n      add\n        /* \"#utility.yul\":3359:3388   */\n      swap1\n      pop\n        /* \"#utility.yul\":3200:3394   */\n      swap3\n      swap2\n      pop\n      pop\n      jump\t// out\n        /* \"#utility.yul\":3400:3542   */\n    tag_47:\n        /* \"#utility.yul\":3477:3481   */\n      0x00\n        /* \"#utility.yul\":3500:3503   */\n      dup2\n        /* \"#utility.yul\":3492:3503   */\n      swap1\n      pop\n        /* \"#utility.yul\":3530:3534   */\n      0x20\n        /* \"#utility.yul\":3525:3528   */\n      dup3\n        /* \"#utility.yul\":3521:3535   */\n      add\n        /* \"#utility.yul\":3513:3535   */\n      swap1\n      pop\n        /* \"#utility.yul\":3400:3542   */\n      swap2\n      swap1\n      pop\n      jump\t// out\n        /* \"#utility.yul\":3548:3647   */\n    tag_48:\n        /* \"#utility.yul\":3600:3606   */\n      0x00\n        /* \"#utility.yul\":3634:3639   */\n      dup2\n        /* \"#utility.yul\":3628:3640   */\n      mload\n        /* \"#utility.yul\":3618:3640   */\n      swap1\n      pop\n        /* \"#utility.yul\":3548:3647   */\n      swap2\n      swap1\n      pop\n      jump\t// out\n        /* \"#utility.yul\":3653:3812   */\n    tag_49:\n        /* \"#utility.yul\":3727:3738   */\n      0x00\n        /* \"#utility.yul\":3761:3767   */\n      dup3\n        /* \"#utility.yul\":3756:3759   */\n      dup3\n        /* \"#utility.yul\":3749:3768   */\n      mstore\n        /* \"#utility.yul\":3801:3805   */\n      0x20\n        /* \"#utility.yul\":3796:3799   */\n      dup3\n        /* \"#utility.yul\":3792:3806   */\n      add\n        /* \"#utility.yul\":3777:3806   */\n      swap1\n      pop\n        /* \"#utility.yul\":3653:3812   */\n      swap3\n      swap2\n      pop\n      pop\n      jump\t// out\n        /* \"#utility.yul\":3818:3957   */\n    tag_50:\n        /* \"#utility.yul\":3907:3913   */\n      dup3\n        /* \"#utility.yul\":3902:3905   */\n      dup2\n        /* \"#utility.yul\":3897:3900   */\n      dup4\n        /* \"#utility.yul\":3891:3914   */\n      mcopy\n        /* \"#utility.yul\":3948:3949   */\n      0x00\n        /* \"#utility.yul\":3939:3945   */\n      dup4\n        /* \"#utility.yul\":3934:3937   */\n      dup4\n        /* \"#utility.yul\":3930:3946   */\n      add\n        /* \"#utility.yul\":3923:3950   */\n      mstore\n        /* \"#utility.yul\":3818:3957   */\n      pop\n      pop\n      pop\n      jump\t// out\n        /* \"#utility.yul\":3963:4320   */\n    tag_51:\n        /* \"#utility.yul\":4041:4044   */\n      0x00\n        /* \"#utility.yul\":4069:4108   */\n      tag_101\n        /* \"#utility.yul\":4102:4107   */\n      dup3\n        /* \"#utility.yul\":4069:4108   */\n      tag_48\n      jump\t// in\n    tag_101:\n        /* \"#utility.yul\":4124:4185   */\n      tag_102\n        /* \"#utility.yul\":4178:4184   */\n      dup2\n        /* \"#utility.yul\":4173:4176   */\n      dup6\n        /* \"#utility.yul\":4124:4185   */\n      tag_49\n      jump\t// in\n    tag_102:\n        /* \"#utility.yul\":4117:4185   */\n      swap4\n      pop\n        /* \"#utility.yul\":4194:4259   */\n      tag_103\n        /* \"#utility.yul\":4252:4258   */\n      dup2\n        /* \"#utility.yul\":4247:4250   */\n      dup6\n        /* \"#utility.yul\":4240:4244   */\n      0x20\n        /* \"#utility.yul\":4233:4238   */\n      dup7\n        /* \"#utility.yul\":4229:4245   */\n      add\n        /* \"#utility.yul\":4194:4259   */\n      tag_50\n      jump\t// in\n    tag_103:\n        /* \"#utility.yul\":4284:4313   */\n      tag_104\n        /* \"#utility.yul\":4306:4312   */\n      dup2\n        /* \"#utility.yul\":4284:4313   */\n      tag_38\n      jump\t// in\n    tag_104:\n        /* \"#utility.yul\":4279:4282   */\n      dup5\n        /* \"#utility.yul\":4275:4314   */\n      add\n        /* \"#utility.yul\":4268:4314   */\n      swap2\n      pop\n        /* \"#utility.yul\":4045:4320   */\n      pop\n        /* \"#utility.yul\":3963:4320   */\n      swap3\n      swap2\n      pop\n      pop\n      jump\t// out\n        /* \"#utility.yul\":4326:4522   */\n    tag_52:\n        /* \"#utility.yul\":4415:4425   */\n      0x00\n        /* \"#utility.yul\":4450:4516   */\n      tag_106\n        /* \"#utility.yul\":4512:4515   */\n      dup4\n        /* \"#utility.yul\":4504:4510   */\n      dup4\n        /* \"#utility.yul\":4450:4516   */\n      tag_51\n      jump\t// in\n    tag_106:\n        /* \"#utility.yul\":4436:4516   */\n      swap1\n      pop\n        /* \"#utility.yul\":4326:4522   */\n      swap3\n      swap2\n      pop\n      pop\n      jump\t// out\n        /* \"#utility.yul\":4528:4651   */\n    tag_53:\n        /* \"#utility.yul\":4608:4612   */\n      0x00\n        /* \"#utility.yul\":4640:4644   */\n      0x20\n        /* \"#utility.yul\":4635:4638   */\n      dup3\n        /* \"#utility.yul\":4631:4645   */\n      add\n        /* \"#utility.yul\":4623:4645   */\n      swap1\n      pop\n        /* \"#utility.yul\":4528:4651   */\n      swap2\n      swap1\n      pop\n      jump\t// out\n        /* \"#utility.yul\":4685:5676   */\n    tag_54:\n        /* \"#utility.yul\":4824:4827   */\n      0x00\n        /* \"#utility.yul\":4853:4917   */\n      tag_109\n        /* \"#utility.yul\":4911:4916   */\n      dup3\n        /* \"#utility.yul\":4853:4917   */\n      tag_45\n      jump\t// in\n    tag_109:\n        /* \"#utility.yul\":4933:5029   */\n      tag_110\n        /* \"#utility.yul\":5022:5028   */\n      dup2\n        /* \"#utility.yul\":5017:5020   */\n      dup6\n        /* \"#utility.yul\":4933:5029   */\n      tag_46\n      jump\t// in\n    tag_110:\n        /* \"#utility.yul\":4926:5029   */\n      swap4\n      pop\n        /* \"#utility.yul\":5055:5058   */\n      dup4\n        /* \"#utility.yul\":5100:5104   */\n      0x20\n        /* \"#utility.yul\":5092:5098   */\n      dup3\n        /* \"#utility.yul\":5088:5105   */\n      mul\n        /* \"#utility.yul\":5083:5086   */\n      dup6\n        /* \"#utility.yul\":5079:5106   */\n      add\n        /* \"#utility.yul\":5130:5196   */\n      tag_111\n        /* \"#utility.yul\":5190:5195   */\n      dup6\n        /* \"#utility.yul\":5130:5196   */\n      tag_47\n      jump\t// in\n    tag_111:\n        /* \"#utility.yul\":5219:5226   */\n      dup1\n        /* \"#utility.yul\":5250:5251   */\n      0x00\n        /* \"#utility.yul\":5235:5631   */\n    tag_112:\n        /* \"#utility.yul\":5260:5266   */\n      dup6\n        /* \"#utility.yul\":5257:5258   */\n      dup2\n        /* \"#utility.yul\":5254:5267   */\n      lt\n        /* \"#utility.yul\":5235:5631   */\n      iszero\n      tag_114\n      jumpi\n        /* \"#utility.yul\":5331:5340   */\n      dup5\n        /* \"#utility.yul\":5325:5329   */\n      dup5\n        /* \"#utility.yul\":5321:5341   */\n      sub\n        /* \"#utility.yul\":5316:5319   */\n      dup10\n        /* \"#utility.yul\":5309:5342   */\n      mstore\n        /* \"#utility.yul\":5382:5388   */\n      dup2\n        /* \"#utility.yul\":5376:5389   */\n      mload\n        /* \"#utility.yul\":5410:5494   */\n      tag_115\n        /* \"#utility.yul\":5489:5493   */\n      dup6\n        /* \"#utility.yul\":5474:5487   */\n      dup3\n        /* \"#utility.yul\":5410:5494   */\n      tag_52\n      jump\t// in\n    tag_115:\n        /* \"#utility.yul\":5402:5494   */\n      swap5\n      pop\n        /* \"#utility.yul\":5517:5587   */\n      tag_116\n        /* \"#utility.yul\":5580:5586   */\n      dup4\n        /* \"#utility.yul\":5517:5587   */\n      tag_53\n      jump\t// in\n    tag_116:\n        /* \"#utility.yul\":5507:5587   */\n      swap3\n      pop\n        /* \"#utility.yul\":5616:5620   */\n      0x20\n        /* \"#utility.yul\":5611:5614   */\n      dup11\n        /* \"#utility.yul\":5607:5621   */\n      add\n        /* \"#utility.yul\":5600:5621   */\n      swap10\n      pop\n        /* \"#utility.yul\":5295:5631   */\n      pop\n        /* \"#utility.yul\":5282:5283   */\n      0x01\n        /* \"#utility.yul\":5279:5280   */\n      dup2\n        /* \"#utility.yul\":5275:5284   */\n      add\n        /* \"#utility.yul\":5270:5284   */\n      swap1\n      pop\n        /* \"#utility.yul\":5235:5631   */\n      jump(tag_112)\n    tag_114:\n        /* \"#utility.yul\":5239:5253   */\n      pop\n        /* \"#utility.yul\":5647:5651   */\n      dup3\n        /* \"#utility.yul\":5640:5651   */\n      swap8\n      pop\n        /* \"#utility.yul\":5667:5670   */\n      dup8\n        /* \"#utility.yul\":5660:5670   */\n      swap6\n      pop\n        /* \"#utility.yul\":4829:5676   */\n      pop\n      pop\n      pop\n      pop\n      pop\n        /* \"#utility.yul\":4685:5676   */\n      swap3\n      swap2\n      pop\n      pop\n      jump\t// out\n        /* \"#utility.yul\":5682:6095   */\n    tag_9:\n        /* \"#utility.yul\":5845:5849   */\n      0x00\n        /* \"#utility.yul\":5883:5885   */\n      0x20\n        /* \"#utility.yul\":5872:5881   */\n      dup3\n        /* \"#utility.yul\":5868:5886   */\n      add\n        /* \"#utility.yul\":5860:5886   */\n      swap1\n      pop\n        /* \"#utility.yul\":5932:5941   */\n      dup2\n        /* \"#utility.yul\":5926:5930   */\n      dup2\n        /* \"#utility.yul\":5922:5942   */\n      sub\n        /* \"#utility.yul\":5918:5919   */\n      0x00\n        /* \"#utility.yul\":5907:5916   */\n      dup4\n        /* \"#utility.yul\":5903:5920   */\n      add\n        /* \"#utility.yul\":5896:5943   */\n      mstore\n        /* \"#utility.yul\":5960:6088   */\n      tag_118\n        /* \"#utility.yul\":6083:6087   */\n      dup2\n        /* \"#utility.yul\":6074:6080   */\n      dup5\n        /* \"#utility.yul\":5960:6088   */\n      tag_54\n      jump\t// in\n    tag_118:\n        /* \"#utility.yul\":5952:6088   */\n      swap1\n      pop\n        /* \"#utility.yul\":5682:6095   */\n      swap3\n      swap2\n      pop\n      pop\n      jump\t// out\n        /* \"#utility.yul\":6101:6281   */\n    tag_24:\n        /* \"#utility.yul\":6149:6226   */\n      0x4e487b7100000000000000000000000000000000000000000000000000000000\n        /* \"#utility.yul\":6146:6147   */\n      0x00\n        /* \"#utility.yul\":6139:6227   */\n      mstore\n        /* \"#utility.yul\":6246:6250   */\n      0x32\n        /* \"#utility.yul\":6243:6244   */\n      0x04\n        /* \"#utility.yul\":6236:6251   */\n      mstore\n        /* \"#utility.yul\":6270:6274   */\n      0x24\n        /* \"#utility.yul\":6267:6268   */\n      0x00\n        /* \"#utility.yul\":6260:6275   */\n      revert\n        /* \"#utility.yul\":6287:6436   */\n    tag_55:\n        /* \"#utility.yul\":6323:6330   */\n      0x00\n        /* \"#utility.yul\":6363:6429   */\n      0xffffffff00000000000000000000000000000000000000000000000000000000\n        /* \"#utility.yul\":6356:6361   */\n      dup3\n        /* \"#utility.yul\":6352:6430   */\n      and\n        /* \"#utility.yul\":6341:6430   */\n      swap1\n      pop\n        /* \"#utility.yul\":6287:6436   */\n      swap2\n      swap1\n      pop\n      jump\t// out\n        /* \"#utility.yul\":6442:6520   */\n    tag_56:\n        /* \"#utility.yul\":6480:6487   */\n      0x00\n        /* \"#utility.yul\":6509:6514   */\n      dup2\n        /* \"#utility.yul\":6498:6514   */\n      swap1\n      pop\n        /* \"#utility.yul\":6442:6520   */\n      swap2\n      swap1\n      pop\n      jump\t// out\n        /* \"#utility.yul\":6526:6679   */\n    tag_57:\n        /* \"#utility.yul\":6629:6672   */\n      tag_123\n        /* \"#utility.yul\":6648:6671   */\n      tag_124\n        /* \"#utility.yul\":6665:6670   */\n      dup3\n        /* \"#utility.yul\":6648:6671   */\n      tag_55\n      jump\t// in\n    tag_124:\n        /* \"#utility.yul\":6629:6672   */\n      tag_56\n      jump\t// in\n    tag_123:\n        /* \"#utility.yul\":6624:6627   */\n      dup3\n        /* \"#utility.yul\":6617:6673   */\n      mstore\n        /* \"#utility.yul\":6526:6679   */\n      pop\n      pop\n      jump\t// out\n        /* \"#utility.yul\":6685:6936   */\n    tag_30:\n        /* \"#utility.yul\":6795:6798   */\n      0x00\n        /* \"#utility.yul\":6810:6883   */\n      tag_126\n        /* \"#utility.yul\":6879:6882   */\n      dup3\n        /* \"#utility.yul\":6870:6876   */\n      dup5\n        /* \"#utility.yul\":6810:6883   */\n      tag_57\n      jump\t// in\n    tag_126:\n        /* \"#utility.yul\":6908:6909   */\n      0x04\n        /* \"#utility.yul\":6903:6906   */\n      dup3\n        /* \"#utility.yul\":6899:6910   */\n      add\n        /* \"#utility.yul\":6892:6910   */\n      swap2\n      pop\n        /* \"#utility.yul\":6927:6930   */\n      dup2\n        /* \"#utility.yul\":6920:6930   */\n      swap1\n      pop\n        /* \"#utility.yul\":6685:6936   */\n      swap3\n      swap2\n      pop\n      pop\n      jump\t// out\n\n    auxdata: 0xa2646970667358221220343c1e1668149926589503fee700143ee3b6934297d954b1e526fc043b391a5b64736f6c634300081a0033\n}\n",
				"bytecode": {
					"linkReferences": {},
					"object": "6080604052348015600e575f80fd5b506105b68061001c5f395ff3fe608060405234801561000f575f80fd5b5060043610610029575f3560e01c806320d7b6fa1461002d575b5f80fd5b6100476004803603810190610042919061036c565b61005d565b60405161005491906104ce565b60405180910390f35b60605f825190505f8167ffffffffffffffff81111561007f5761007e610248565b5b6040519080825280602002602001820160405280156100b257816020015b606081526020019060019003908161009d5790505b5090505f8267ffffffffffffffff8111156100d0576100cf610248565b5b6040519080825280602002602001820160405280156100fe5781602001602082028036833780820191505090505b5090505f600290505b8381101561021357858181518110610122576101216104ee565b5b602001015160f81c60f81b7effffffffffffffffffffffffffffffffffffffffffffffffffffffffffffff1916828281518110610162576101616104ee565b5b60200260200101907bffffffffffffffffffffffffffffffffffffffffffffffffffffffff191690817bffffffffffffffffffffffffffffffffffffffffffffffffffffffff1916815250508181815181106101c1576101c06104ee565b5b60200260200101516040516020016101d99190610566565b6040516020818303038152906040528382815181106101fb576101fa6104ee565b5b60200260200101819052508080600101915050610107565b50819350505050919050565b5f604051905090565b5f80fd5b5f80fd5b5f80fd5b5f80fd5b5f601f19601f8301169050919050565b7f4e487b71000000000000000000000000000000000000000000000000000000005f52604160045260245ffd5b61027e82610238565b810181811067ffffffffffffffff8211171561029d5761029c610248565b5b80604052505050565b5f6102af61021f565b90506102bb8282610275565b919050565b5f67ffffffffffffffff8211156102da576102d9610248565b5b6102e382610238565b9050602081019050919050565b828183375f83830152505050565b5f61031061030b846102c0565b6102a6565b90508281526020810184848401111561032c5761032b610234565b5b6103378482856102f0565b509392505050565b5f82601f83011261035357610352610230565b5b81356103638482602086016102fe565b91505092915050565b5f6020828403121561038157610380610228565b5b5f82013567ffffffffffffffff81111561039e5761039d61022c565b5b6103aa8482850161033f565b91505092915050565b5f81519050919050565b5f82825260208201905092915050565b5f819050602082019050919050565b5f81519050919050565b5f82825260208201905092915050565b8281835e5f83830152505050565b5f61040e826103dc565b61041881856103e6565b93506104288185602086016103f6565b61043181610238565b840191505092915050565b5f6104478383610404565b905092915050565b5f602082019050919050565b5f610465826103b3565b61046f81856103bd565b935083602082028501610481856103cd565b805f5b858110156104bc578484038952815161049d858261043c565b94506104a88361044f565b925060208a01995050600181019050610484565b50829750879550505050505092915050565b5f6020820190508181035f8301526104e6818461045b565b905092915050565b7f4e487b71000000000000000000000000000000000000000000000000000000005f52603260045260245ffd5b5f7fffffffff0000000000000000000000000000000000000000000000000000000082169050919050565b5f819050919050565b61056061055b8261051b565b610546565b82525050565b5f610571828461054f565b6004820191508190509291505056fea2646970667358221220343c1e1668149926589503fee700143ee3b6934297d954b1e526fc043b391a5b64736f6c634300081a0033",
					"opcodes": "PUSH1 0x80 PUSH1 0x40 MSTORE CALLVALUE DUP1 ISZERO PUSH1 0xE JUMPI PUSH0 DUP1 REVERT JUMPDEST POP PUSH2 0x5B6 DUP1 PUSH2 0x1C PUSH0 CODECOPY PUSH0 RETURN INVALID PUSH1 0x80 PUSH1 0x40 MSTORE CALLVALUE DUP1 ISZERO PUSH2 0xF JUMPI PUSH0 DUP1 REVERT JUMPDEST POP PUSH1 0x4 CALLDATASIZE LT PUSH2 0x29 JUMPI PUSH0 CALLDATALOAD PUSH1 0xE0 SHR DUP1 PUSH4 0x20D7B6FA EQ PUSH2 0x2D JUMPI JUMPDEST PUSH0 DUP1 REVERT JUMPDEST PUSH2 0x47 PUSH1 0x4 DUP1 CALLDATASIZE SUB DUP2 ADD SWAP1 PUSH2 0x42 SWAP2 SWAP1 PUSH2 0x36C JUMP JUMPDEST PUSH2 0x5D JUMP JUMPDEST PUSH1 0x40 MLOAD PUSH2 0x54 SWAP2 SWAP1 PUSH2 0x4CE JUMP JUMPDEST PUSH1 0x40 MLOAD DUP1 SWAP2 SUB SWAP1 RETURN JUMPDEST PUSH1 0x60 PUSH0 DUP3 MLOAD SWAP1 POP PUSH0 DUP2 PUSH8 0xFFFFFFFFFFFFFFFF DUP2 GT ISZERO PUSH2 0x7F JUMPI PUSH2 0x7E PUSH2 0x248 JUMP JUMPDEST JUMPDEST PUSH1 0x40 MLOAD SWAP1 DUP1 DUP3 MSTORE DUP1 PUSH1 0x20 MUL PUSH1 0x20 ADD DUP3 ADD PUSH1 0x40 MSTORE DUP1 ISZERO PUSH2 0xB2 JUMPI DUP2 PUSH1 0x20 ADD JUMPDEST PUSH1 0x60 DUP2 MSTORE PUSH1 0x20 ADD SWAP1 PUSH1 0x1 SWAP1 SUB SWAP1 DUP2 PUSH2 0x9D JUMPI SWAP1 POP JUMPDEST POP SWAP1 POP PUSH0 DUP3 PUSH8 0xFFFFFFFFFFFFFFFF DUP2 GT ISZERO PUSH2 0xD0 JUMPI PUSH2 0xCF PUSH2 0x248 JUMP JUMPDEST JUMPDEST PUSH1 0x40 MLOAD SWAP1 DUP1 DUP3 MSTORE DUP1 PUSH1 0x20 MUL PUSH1 0x20 ADD DUP3 ADD PUSH1 0x40 MSTORE DUP1 ISZERO PUSH2 0xFE JUMPI DUP2 PUSH1 0x20 ADD PUSH1 0x20 DUP3 MUL DUP1 CALLDATASIZE DUP4 CALLDATACOPY DUP1 DUP3 ADD SWAP2 POP POP SWAP1 POP JUMPDEST POP SWAP1 POP PUSH0 PUSH1 0x2 SWAP1 POP JUMPDEST DUP4 DUP2 LT ISZERO PUSH2 0x213 JUMPI DUP6 DUP2 DUP2 MLOAD DUP2 LT PUSH2 0x122 JUMPI PUSH2 0x121 PUSH2 0x4EE JUMP JUMPDEST JUMPDEST PUSH1 0x20 ADD ADD MLOAD PUSH1 0xF8 SHR PUSH1 0xF8 SHL PUSH31 0xFFFFFFFFFFFFFFFFFFFFFFFFFFFFFFFFFFFFFFFFFFFFFFFFFFFFFFFFFFFFFF NOT AND DUP3 DUP3 DUP2 MLOAD DUP2 LT PUSH2 0x162 JUMPI PUSH2 0x161 PUSH2 0x4EE JUMP JUMPDEST JUMPDEST PUSH1 0x20 MUL PUSH1 0x20 ADD ADD SWAP1 PUSH28 0xFFFFFFFFFFFFFFFFFFFFFFFFFFFFFFFFFFFFFFFFFFFFFFFFFFFFFFFF NOT AND SWAP1 DUP2 PUSH28 0xFFFFFFFFFFFFFFFFFFFFFFFFFFFFFFFFFFFFFFFFFFFFFFFFFFFFFFFF NOT AND DUP2 MSTORE POP POP DUP2 DUP2 DUP2 MLOAD DUP2 LT PUSH2 0x1C1 JUMPI PUSH2 0x1C0 PUSH2 0x4EE JUMP JUMPDEST JUMPDEST PUSH1 0x20 MUL PUSH1 0x20 ADD ADD MLOAD PUSH1 0x40 MLOAD PUSH1 0x20 ADD PUSH2 0x1D9 SWAP2 SWAP1 PUSH2 0x566 JUMP JUMPDEST PUSH1 0x40 MLOAD PUSH1 0x20 DUP2 DUP4 SUB SUB DUP2 MSTORE SWAP1 PUSH1 0x40 MSTORE DUP4 DUP3 DUP2 MLOAD DUP2 LT PUSH2 0x1FB JUMPI PUSH2 0x1FA PUSH2 0x4EE JUMP JUMPDEST JUMPDEST PUSH1 0x20 MUL PUSH1 0x20 ADD ADD DUP2 SWAP1 MSTORE POP DUP1 DUP1 PUSH1 0x1 ADD SWAP2 POP POP PUSH2 0x107 JUMP JUMPDEST POP DUP2 SWAP4 POP POP POP POP SWAP2 SWAP1 POP JUMP JUMPDEST PUSH0 PUSH1 0x40 MLOAD SWAP1 POP SWAP1 JUMP JUMPDEST PUSH0 DUP1 REVERT JUMPDEST PUSH0 DUP1 REVERT JUMPDEST PUSH0 DUP1 REVERT JUMPDEST PUSH0 DUP1 REVERT JUMPDEST PUSH0 PUSH1 0x1F NOT PUSH1 0x1F DUP4 ADD AND SWAP1 POP SWAP2 SWAP1 POP JUMP JUMPDEST PUSH32 0x4E487B7100000000000000000000000000000000000000000000000000000000 PUSH0 MSTORE PUSH1 0x41 PUSH1 0x4 MSTORE PUSH1 0x24 PUSH0 REVERT JUMPDEST PUSH2 0x27E DUP3 PUSH2 0x238 JUMP JUMPDEST DUP2 ADD DUP2 DUP2 LT PUSH8 0xFFFFFFFFFFFFFFFF DUP3 GT OR ISZERO PUSH2 0x29D JUMPI PUSH2 0x29C PUSH2 0x248 JUMP JUMPDEST JUMPDEST DUP1 PUSH1 0x40 MSTORE POP POP POP JUMP JUMPDEST PUSH0 PUSH2 0x2AF PUSH2 0x21F JUMP JUMPDEST SWAP1 POP PUSH2 0x2BB DUP3 DUP3 PUSH2 0x275 JUMP JUMPDEST SWAP2 SWAP1 POP JUMP JUMPDEST PUSH0 PUSH8 0xFFFFFFFFFFFFFFFF DUP3 GT ISZERO PUSH2 0x2DA JUMPI PUSH2 0x2D9 PUSH2 0x248 JUMP JUMPDEST JUMPDEST PUSH2 0x2E3 DUP3 PUSH2 0x238 JUMP JUMPDEST SWAP1 POP PUSH1 0x20 DUP2 ADD SWAP1 POP SWAP2 SWAP1 POP JUMP JUMPDEST DUP3 DUP2 DUP4 CALLDATACOPY PUSH0 DUP4 DUP4 ADD MSTORE POP POP POP JUMP JUMPDEST PUSH0 PUSH2 0x310 PUSH2 0x30B DUP5 PUSH2 0x2C0 JUMP JUMPDEST PUSH2 0x2A6 JUMP JUMPDEST SWAP1 POP DUP3 DUP2 MSTORE PUSH1 0x20 DUP2 ADD DUP5 DUP5 DUP5 ADD GT ISZERO PUSH2 0x32C JUMPI PUSH2 0x32B PUSH2 0x234 JUMP JUMPDEST JUMPDEST PUSH2 0x337 DUP5 DUP3 DUP6 PUSH2 0x2F0 JUMP JUMPDEST POP SWAP4 SWAP3 POP POP POP JUMP JUMPDEST PUSH0 DUP3 PUSH1 0x1F DUP4 ADD SLT PUSH2 0x353 JUMPI PUSH2 0x352 PUSH2 0x230 JUMP JUMPDEST JUMPDEST DUP2 CALLDATALOAD PUSH2 0x363 DUP5 DUP3 PUSH1 0x20 DUP7 ADD PUSH2 0x2FE JUMP JUMPDEST SWAP2 POP POP SWAP3 SWAP2 POP POP JUMP JUMPDEST PUSH0 PUSH1 0x20 DUP3 DUP5 SUB SLT ISZERO PUSH2 0x381 JUMPI PUSH2 0x380 PUSH2 0x228 JUMP JUMPDEST JUMPDEST PUSH0 DUP3 ADD CALLDATALOAD PUSH8 0xFFFFFFFFFFFFFFFF DUP2 GT ISZERO PUSH2 0x39E JUMPI PUSH2 0x39D PUSH2 0x22C JUMP JUMPDEST JUMPDEST PUSH2 0x3AA DUP5 DUP3 DUP6 ADD PUSH2 0x33F JUMP JUMPDEST SWAP2 POP POP SWAP3 SWAP2 POP POP JUMP JUMPDEST PUSH0 DUP2 MLOAD SWAP1 POP SWAP2 SWAP1 POP JUMP JUMPDEST PUSH0 DUP3 DUP3 MSTORE PUSH1 0x20 DUP3 ADD SWAP1 POP SWAP3 SWAP2 POP POP JUMP JUMPDEST PUSH0 DUP2 SWAP1 POP PUSH1 0x20 DUP3 ADD SWAP1 POP SWAP2 SWAP1 POP JUMP JUMPDEST PUSH0 DUP2 MLOAD SWAP1 POP SWAP2 SWAP1 POP JUMP JUMPDEST PUSH0 DUP3 DUP3 MSTORE PUSH1 0x20 DUP3 ADD SWAP1 POP SWAP3 SWAP2 POP POP JUMP JUMPDEST DUP3 DUP2 DUP4 MCOPY PUSH0 DUP4 DUP4 ADD MSTORE POP POP POP JUMP JUMPDEST PUSH0 PUSH2 0x40E DUP3 PUSH2 0x3DC JUMP JUMPDEST PUSH2 0x418 DUP2 DUP6 PUSH2 0x3E6 JUMP JUMPDEST SWAP4 POP PUSH2 0x428 DUP2 DUP6 PUSH1 0x20 DUP7 ADD PUSH2 0x3F6 JUMP JUMPDEST PUSH2 0x431 DUP2 PUSH2 0x238 JUMP JUMPDEST DUP5 ADD SWAP2 POP POP SWAP3 SWAP2 POP POP JUMP JUMPDEST PUSH0 PUSH2 0x447 DUP4 DUP4 PUSH2 0x404 JUMP JUMPDEST SWAP1 POP SWAP3 SWAP2 POP POP JUMP JUMPDEST PUSH0 PUSH1 0x20 DUP3 ADD SWAP1 POP SWAP2 SWAP1 POP JUMP JUMPDEST PUSH0 PUSH2 0x465 DUP3 PUSH2 0x3B3 JUMP JUMPDEST PUSH2 0x46F DUP2 DUP6 PUSH2 0x3BD JUMP JUMPDEST SWAP4 POP DUP4 PUSH1 0x20 DUP3 MUL DUP6 ADD PUSH2 0x481 DUP6 PUSH2 0x3CD JUMP JUMPDEST DUP1 PUSH0 JUMPDEST DUP6 DUP2 LT ISZERO PUSH2 0x4BC JUMPI DUP5 DUP5 SUB DUP10 MSTORE DUP2 MLOAD PUSH2 0x49D DUP6 DUP3 PUSH2 0x43C JUMP JUMPDEST SWAP5 POP PUSH2 0x4A8 DUP4 PUSH2 0x44F JUMP JUMPDEST SWAP3 POP PUSH1 0x20 DUP11 ADD SWAP10 POP POP PUSH1 0x1 DUP2 ADD SWAP1 POP PUSH2 0x484 JUMP JUMPDEST POP DUP3 SWAP8 POP DUP8 SWAP6 POP POP POP POP POP POP SWAP3 SWAP2 POP POP JUMP JUMPDEST PUSH0 PUSH1 0x20 DUP3 ADD SWAP1 POP DUP2 DUP2 SUB PUSH0 DUP4 ADD MSTORE PUSH2 0x4E6 DUP2 DUP5 PUSH2 0x45B JUMP JUMPDEST SWAP1 POP SWAP3 SWAP2 POP POP JUMP JUMPDEST PUSH32 0x4E487B7100000000000000000000000000000000000000000000000000000000 PUSH0 MSTORE PUSH1 0x32 PUSH1 0x4 MSTORE PUSH1 0x24 PUSH0 REVERT JUMPDEST PUSH0 PUSH32 0xFFFFFFFF00000000000000000000000000000000000000000000000000000000 DUP3 AND SWAP1 POP SWAP2 SWAP1 POP JUMP JUMPDEST PUSH0 DUP2 SWAP1 POP SWAP2 SWAP1 POP JUMP JUMPDEST PUSH2 0x560 PUSH2 0x55B DUP3 PUSH2 0x51B JUMP JUMPDEST PUSH2 0x546 JUMP JUMPDEST DUP3 MSTORE POP POP JUMP JUMPDEST PUSH0 PUSH2 0x571 DUP3 DUP5 PUSH2 0x54F JUMP JUMPDEST PUSH1 0x4 DUP3 ADD SWAP2 POP DUP2 SWAP1 POP SWAP3 SWAP2 POP POP JUMP INVALID LOG2 PUSH5 0x6970667358 0x22 SLT KECCAK256 CALLVALUE EXTCODECOPY 0x1E AND PUSH9 0x149926589503FEE700 EQ RETURNDATACOPY 0xE3 0xB6 SWAP4 TIMESTAMP SWAP8 0xD9 SLOAD 0xB1 0xE5 0x26 0xFC DIV EXTCODESIZE CODECOPY BYTE JUMPDEST PUSH5 0x736F6C6343 STOP ADDMOD BYTE STOP CALLER "
				},
				"gasEstimates": {
					"creation": {
						"codeDepositCost": "292400",
						"executionCost": "329",
						"totalCost": "292729"
					},
					"external": {
						"separate(string)": "infinite"
					}
				},
				"methodIdentifiers": {
					"separate(string)": "20d7b6fa"
				}
			},
			"storageLayout": {
				"storage": [],
				"types": null
			},
			"userdoc": {
				"kind": "user",
				"methods": {},
				"version": 1
			}
		}
	}
}