{
	"Solidity100/sol100(61~70).sol": {
		"Q65": {
			"abi": [
				{
					"inputs": [
						{
							"internalType": "uint256",
							"name": "a",
							"type": "uint256"
						},
						{
							"internalType": "uint256",
							"name": "b",
							"type": "uint256"
						},
						{
							"internalType": "uint256",
							"name": "c",
							"type": "uint256"
						}
					],
					"name": "sq",
					"outputs": [
						{
							"internalType": "uint256",
							"name": "",
							"type": "uint256"
						}
					],
					"stateMutability": "pure",
					"type": "function"
				}
			],
			"devdoc": {
				"kind": "dev",
				"methods": {},
				"version": 1
			},
			"evm": {
				"assembly": "    /* \"Solidity100/sol100(61~70).sol\":1520:2253  contract Q65 {... */\n  mstore(0x40, 0x80)\n  callvalue\n  dup1\n  iszero\n  tag_1\n  jumpi\n  0x00\n  dup1\n  revert\ntag_1:\n  pop\n  dataSize(sub_0)\n  dup1\n  dataOffset(sub_0)\n  0x00\n  codecopy\n  0x00\n  return\nstop\n\nsub_0: assembly {\n        /* \"Solidity100/sol100(61~70).sol\":1520:2253  contract Q65 {... */\n      mstore(0x40, 0x80)\n      callvalue\n      dup1\n      iszero\n      tag_1\n      jumpi\n      0x00\n      dup1\n      revert\n    tag_1:\n      pop\n      jumpi(tag_2, lt(calldatasize, 0x04))\n      shr(0xe0, calldataload(0x00))\n      dup1\n      0x18ba770b\n      eq\n      tag_3\n      jumpi\n    tag_2:\n      0x00\n      dup1\n      revert\n        /* \"Solidity100/sol100(61~70).sol\":1810:2244  function sq(uint a, uint b, uint c) public pure returns(uint) {... */\n    tag_3:\n      tag_4\n      0x04\n      dup1\n      calldatasize\n      sub\n      dup2\n      add\n      swap1\n      tag_5\n      swap2\n      swap1\n      tag_6\n      jump\t// in\n    tag_5:\n      tag_7\n      jump\t// in\n    tag_4:\n      mload(0x40)\n      tag_8\n      swap2\n      swap1\n      tag_9\n      jump\t// in\n    tag_8:\n      mload(0x40)\n      dup1\n      swap2\n      sub\n      swap1\n      return\n    tag_7:\n        /* \"Solidity100/sol100(61~70).sol\":1866:1870  uint */\n      0x00\n        /* \"Solidity100/sol100(61~70).sol\":1879:1886  uint _a */\n      dup1\n        /* \"Solidity100/sol100(61~70).sol\":1892:1893  2 */\n      0x02\n        /* \"Solidity100/sol100(61~70).sol\":1889:1890  a */\n      dup6\n        /* \"Solidity100/sol100(61~70).sol\":1889:1893  a**2 */\n      tag_11\n      swap2\n      swap1\n      tag_12\n      jump\t// in\n    tag_11:\n        /* \"Solidity100/sol100(61~70).sol\":1879:1893  uint _a = a**2 */\n      swap1\n      pop\n        /* \"Solidity100/sol100(61~70).sol\":1900:1907  uint _b */\n      0x00\n        /* \"Solidity100/sol100(61~70).sol\":1913:1914  2 */\n      0x02\n        /* \"Solidity100/sol100(61~70).sol\":1910:1911  b */\n      dup6\n        /* \"Solidity100/sol100(61~70).sol\":1910:1914  b**2 */\n      tag_13\n      swap2\n      swap1\n      tag_12\n      jump\t// in\n    tag_13:\n        /* \"Solidity100/sol100(61~70).sol\":1900:1914  uint _b = b**2 */\n      swap1\n      pop\n        /* \"Solidity100/sol100(61~70).sol\":1921:1928  uint _c */\n      0x00\n        /* \"Solidity100/sol100(61~70).sol\":1934:1935  2 */\n      0x02\n        /* \"Solidity100/sol100(61~70).sol\":1931:1932  c */\n      dup6\n        /* \"Solidity100/sol100(61~70).sol\":1931:1935  c**2 */\n      tag_14\n      swap2\n      swap1\n      tag_12\n      jump\t// in\n    tag_14:\n        /* \"Solidity100/sol100(61~70).sol\":1921:1935  uint _c = c**2 */\n      swap1\n      pop\n        /* \"Solidity100/sol100(61~70).sol\":1942:1960  uint[3] memory num */\n      0x00\n        /* \"Solidity100/sol100(61~70).sol\":1942:1973  uint[3] memory num = [_a,_b,_c] */\n      mload(0x40)\n      dup1\n      0x60\n      add\n      0x40\n      mstore\n      dup1\n        /* \"Solidity100/sol100(61~70).sol\":1964:1966  _a */\n      dup6\n        /* \"Solidity100/sol100(61~70).sol\":1942:1973  uint[3] memory num = [_a,_b,_c] */\n      dup2\n      mstore\n      0x20\n      add\n        /* \"Solidity100/sol100(61~70).sol\":1967:1969  _b */\n      dup5\n        /* \"Solidity100/sol100(61~70).sol\":1942:1973  uint[3] memory num = [_a,_b,_c] */\n      dup2\n      mstore\n      0x20\n      add\n        /* \"Solidity100/sol100(61~70).sol\":1970:1972  _c */\n      dup4\n        /* \"Solidity100/sol100(61~70).sol\":1942:1973  uint[3] memory num = [_a,_b,_c] */\n      dup2\n      mstore\n      pop\n      swap1\n      pop\n        /* \"Solidity100/sol100(61~70).sol\":1985:1991  uint i */\n      0x00\n        /* \"Solidity100/sol100(61~70).sol\":1981:2211  for(uint i=0; i < num.length; i++) {... */\n    tag_15:\n        /* \"Solidity100/sol100(61~70).sol\":1999:2009  num.length */\n      0x03\n        /* \"Solidity100/sol100(61~70).sol\":1995:1996  i */\n      dup2\n        /* \"Solidity100/sol100(61~70).sol\":1995:2009  i < num.length */\n      lt\n        /* \"Solidity100/sol100(61~70).sol\":1981:2211  for(uint i=0; i < num.length; i++) {... */\n      iszero\n      tag_16\n      jumpi\n        /* \"Solidity100/sol100(61~70).sol\":2035:2041  uint j */\n      0x00\n        /* \"Solidity100/sol100(61~70).sol\":2044:2045  1 */\n      0x01\n        /* \"Solidity100/sol100(61~70).sol\":2042:2043  i */\n      dup3\n        /* \"Solidity100/sol100(61~70).sol\":2042:2045  i+1 */\n      tag_21\n      swap2\n      swap1\n      tag_22\n      jump\t// in\n    tag_21:\n        /* \"Solidity100/sol100(61~70).sol\":2035:2045  uint j=i+1 */\n      swap1\n      pop\n        /* \"Solidity100/sol100(61~70).sol\":2031:2200  for(uint j=i+1; j < num.length; j++) {... */\n    tag_18:\n        /* \"Solidity100/sol100(61~70).sol\":2051:2061  num.length */\n      0x03\n        /* \"Solidity100/sol100(61~70).sol\":2047:2048  j */\n      dup2\n        /* \"Solidity100/sol100(61~70).sol\":2047:2061  j < num.length */\n      lt\n        /* \"Solidity100/sol100(61~70).sol\":2031:2200  for(uint j=i+1; j < num.length; j++) {... */\n      iszero\n      tag_19\n      jumpi\n        /* \"Solidity100/sol100(61~70).sol\":2099:2102  num */\n      dup3\n        /* \"Solidity100/sol100(61~70).sol\":2103:2104  j */\n      dup2\n        /* \"Solidity100/sol100(61~70).sol\":2099:2105  num[j] */\n      0x03\n      dup2\n      lt\n      tag_23\n      jumpi\n      tag_24\n      tag_25\n      jump\t// in\n    tag_24:\n    tag_23:\n      0x20\n      mul\n      add\n      mload\n        /* \"Solidity100/sol100(61~70).sol\":2090:2093  num */\n      dup4\n        /* \"Solidity100/sol100(61~70).sol\":2094:2095  i */\n      dup4\n        /* \"Solidity100/sol100(61~70).sol\":2090:2096  num[i] */\n      0x03\n      dup2\n      lt\n      tag_26\n      jumpi\n      tag_27\n      tag_25\n      jump\t// in\n    tag_27:\n    tag_26:\n      0x20\n      mul\n      add\n      mload\n        /* \"Solidity100/sol100(61~70).sol\":2090:2105  num[i] < num[j] */\n      lt\n        /* \"Solidity100/sol100(61~70).sol\":2087:2185  if(num[i] < num[j]) {... */\n      iszero\n      tag_28\n      jumpi\n        /* \"Solidity100/sol100(61~70).sol\":2150:2153  num */\n      dup3\n        /* \"Solidity100/sol100(61~70).sol\":2154:2155  j */\n      dup2\n        /* \"Solidity100/sol100(61~70).sol\":2150:2156  num[j] */\n      0x03\n      dup2\n      lt\n      tag_29\n      jumpi\n      tag_30\n      tag_25\n      jump\t// in\n    tag_30:\n    tag_29:\n      0x20\n      mul\n      add\n      mload\n        /* \"Solidity100/sol100(61~70).sol\":2158:2161  num */\n      dup4\n        /* \"Solidity100/sol100(61~70).sol\":2162:2163  i */\n      dup4\n        /* \"Solidity100/sol100(61~70).sol\":2158:2164  num[i] */\n      0x03\n      dup2\n      lt\n      tag_31\n      jumpi\n      tag_32\n      tag_25\n      jump\t// in\n    tag_32:\n    tag_31:\n      0x20\n      mul\n      add\n      mload\n        /* \"Solidity100/sol100(61~70).sol\":2131:2134  num */\n      dup5\n        /* \"Solidity100/sol100(61~70).sol\":2135:2136  i */\n      dup5\n        /* \"Solidity100/sol100(61~70).sol\":2131:2137  num[i] */\n      0x03\n      dup2\n      lt\n      tag_33\n      jumpi\n      tag_34\n      tag_25\n      jump\t// in\n    tag_34:\n    tag_33:\n      0x20\n      mul\n      add\n        /* \"Solidity100/sol100(61~70).sol\":2139:2142  num */\n      dup6\n        /* \"Solidity100/sol100(61~70).sol\":2143:2144  j */\n      dup5\n        /* \"Solidity100/sol100(61~70).sol\":2139:2145  num[j] */\n      0x03\n      dup2\n      lt\n      tag_35\n      jumpi\n      tag_36\n      tag_25\n      jump\t// in\n    tag_36:\n    tag_35:\n      0x20\n      mul\n      add\n        /* \"Solidity100/sol100(61~70).sol\":2130:2165  (num[i], num[j]) = (num[j], num[i]) */\n      dup3\n      dup2\n      mstore\n      pop\n      dup3\n      dup2\n      mstore\n      pop\n      pop\n      pop\n        /* \"Solidity100/sol100(61~70).sol\":2087:2185  if(num[i] < num[j]) {... */\n    tag_28:\n        /* \"Solidity100/sol100(61~70).sol\":2063:2066  j++ */\n      dup1\n      dup1\n      0x01\n      add\n      swap2\n      pop\n      pop\n        /* \"Solidity100/sol100(61~70).sol\":2031:2200  for(uint j=i+1; j < num.length; j++) {... */\n      jump(tag_18)\n    tag_19:\n      pop\n        /* \"Solidity100/sol100(61~70).sol\":2011:2014  i++ */\n      dup1\n      dup1\n      0x01\n      add\n      swap2\n      pop\n      pop\n        /* \"Solidity100/sol100(61~70).sol\":1981:2211  for(uint i=0; i < num.length; i++) {... */\n      jump(tag_15)\n    tag_16:\n      pop\n        /* \"Solidity100/sol100(61~70).sol\":2230:2233  num */\n      dup1\n        /* \"Solidity100/sol100(61~70).sol\":2234:2235  1 */\n      0x01\n        /* \"Solidity100/sol100(61~70).sol\":2230:2236  num[1] */\n      0x03\n      dup2\n      lt\n      tag_37\n      jumpi\n      tag_38\n      tag_25\n      jump\t// in\n    tag_38:\n    tag_37:\n      0x20\n      mul\n      add\n      mload\n        /* \"Solidity100/sol100(61~70).sol\":2223:2236  return num[1] */\n      swap5\n      pop\n      pop\n      pop\n      pop\n      pop\n        /* \"Solidity100/sol100(61~70).sol\":1810:2244  function sq(uint a, uint b, uint c) public pure returns(uint) {... */\n      swap4\n      swap3\n      pop\n      pop\n      pop\n      jump\t// out\n        /* \"#utility.yul\":88:205   */\n    tag_40:\n        /* \"#utility.yul\":197:198   */\n      0x00\n        /* \"#utility.yul\":194:195   */\n      dup1\n        /* \"#utility.yul\":187:199   */\n      revert\n        /* \"#utility.yul\":334:411   */\n    tag_42:\n        /* \"#utility.yul\":371:378   */\n      0x00\n        /* \"#utility.yul\":400:405   */\n      dup2\n        /* \"#utility.yul\":389:405   */\n      swap1\n      pop\n        /* \"#utility.yul\":334:411   */\n      swap2\n      swap1\n      pop\n      jump\t// out\n        /* \"#utility.yul\":417:539   */\n    tag_43:\n        /* \"#utility.yul\":490:514   */\n      tag_57\n        /* \"#utility.yul\":508:513   */\n      dup2\n        /* \"#utility.yul\":490:514   */\n      tag_42\n      jump\t// in\n    tag_57:\n        /* \"#utility.yul\":483:488   */\n      dup2\n        /* \"#utility.yul\":480:515   */\n      eq\n        /* \"#utility.yul\":470:533   */\n      tag_58\n      jumpi\n        /* \"#utility.yul\":529:530   */\n      0x00\n        /* \"#utility.yul\":526:527   */\n      dup1\n        /* \"#utility.yul\":519:531   */\n      revert\n        /* \"#utility.yul\":470:533   */\n    tag_58:\n        /* \"#utility.yul\":417:539   */\n      pop\n      jump\t// out\n        /* \"#utility.yul\":545:684   */\n    tag_44:\n        /* \"#utility.yul\":591:596   */\n      0x00\n        /* \"#utility.yul\":629:635   */\n      dup2\n        /* \"#utility.yul\":616:636   */\n      calldataload\n        /* \"#utility.yul\":607:636   */\n      swap1\n      pop\n        /* \"#utility.yul\":645:678   */\n      tag_60\n        /* \"#utility.yul\":672:677   */\n      dup2\n        /* \"#utility.yul\":645:678   */\n      tag_43\n      jump\t// in\n    tag_60:\n        /* \"#utility.yul\":545:684   */\n      swap3\n      swap2\n      pop\n      pop\n      jump\t// out\n        /* \"#utility.yul\":690:1309   */\n    tag_6:\n        /* \"#utility.yul\":767:773   */\n      0x00\n        /* \"#utility.yul\":775:781   */\n      dup1\n        /* \"#utility.yul\":783:789   */\n      0x00\n        /* \"#utility.yul\":832:834   */\n      0x60\n        /* \"#utility.yul\":820:829   */\n      dup5\n        /* \"#utility.yul\":811:818   */\n      dup7\n        /* \"#utility.yul\":807:830   */\n      sub\n        /* \"#utility.yul\":803:835   */\n      slt\n        /* \"#utility.yul\":800:919   */\n      iszero\n      tag_62\n      jumpi\n        /* \"#utility.yul\":838:917   */\n      tag_63\n      tag_40\n      jump\t// in\n    tag_63:\n        /* \"#utility.yul\":800:919   */\n    tag_62:\n        /* \"#utility.yul\":958:959   */\n      0x00\n        /* \"#utility.yul\":983:1036   */\n      tag_64\n        /* \"#utility.yul\":1028:1035   */\n      dup7\n        /* \"#utility.yul\":1019:1025   */\n      dup3\n        /* \"#utility.yul\":1008:1017   */\n      dup8\n        /* \"#utility.yul\":1004:1026   */\n      add\n        /* \"#utility.yul\":983:1036   */\n      tag_44\n      jump\t// in\n    tag_64:\n        /* \"#utility.yul\":973:1036   */\n      swap4\n      pop\n        /* \"#utility.yul\":929:1046   */\n      pop\n        /* \"#utility.yul\":1085:1087   */\n      0x20\n        /* \"#utility.yul\":1111:1164   */\n      tag_65\n        /* \"#utility.yul\":1156:1163   */\n      dup7\n        /* \"#utility.yul\":1147:1153   */\n      dup3\n        /* \"#utility.yul\":1136:1145   */\n      dup8\n        /* \"#utility.yul\":1132:1154   */\n      add\n        /* \"#utility.yul\":1111:1164   */\n      tag_44\n      jump\t// in\n    tag_65:\n        /* \"#utility.yul\":1101:1164   */\n      swap3\n      pop\n        /* \"#utility.yul\":1056:1174   */\n      pop\n        /* \"#utility.yul\":1213:1215   */\n      0x40\n        /* \"#utility.yul\":1239:1292   */\n      tag_66\n        /* \"#utility.yul\":1284:1291   */\n      dup7\n        /* \"#utility.yul\":1275:1281   */\n      dup3\n        /* \"#utility.yul\":1264:1273   */\n      dup8\n        /* \"#utility.yul\":1260:1282   */\n      add\n        /* \"#utility.yul\":1239:1292   */\n      tag_44\n      jump\t// in\n    tag_66:\n        /* \"#utility.yul\":1229:1292   */\n      swap2\n      pop\n        /* \"#utility.yul\":1184:1302   */\n      pop\n        /* \"#utility.yul\":690:1309   */\n      swap3\n      pop\n      swap3\n      pop\n      swap3\n      jump\t// out\n        /* \"#utility.yul\":1315:1433   */\n    tag_45:\n        /* \"#utility.yul\":1402:1426   */\n      tag_68\n        /* \"#utility.yul\":1420:1425   */\n      dup2\n        /* \"#utility.yul\":1402:1426   */\n      tag_42\n      jump\t// in\n    tag_68:\n        /* \"#utility.yul\":1397:1400   */\n      dup3\n        /* \"#utility.yul\":1390:1427   */\n      mstore\n        /* \"#utility.yul\":1315:1433   */\n      pop\n      pop\n      jump\t// out\n        /* \"#utility.yul\":1439:1661   */\n    tag_9:\n        /* \"#utility.yul\":1532:1536   */\n      0x00\n        /* \"#utility.yul\":1570:1572   */\n      0x20\n        /* \"#utility.yul\":1559:1568   */\n      dup3\n        /* \"#utility.yul\":1555:1573   */\n      add\n        /* \"#utility.yul\":1547:1573   */\n      swap1\n      pop\n        /* \"#utility.yul\":1583:1654   */\n      tag_70\n        /* \"#utility.yul\":1651:1652   */\n      0x00\n        /* \"#utility.yul\":1640:1649   */\n      dup4\n        /* \"#utility.yul\":1636:1653   */\n      add\n        /* \"#utility.yul\":1627:1633   */\n      dup5\n        /* \"#utility.yul\":1583:1654   */\n      tag_45\n      jump\t// in\n    tag_70:\n        /* \"#utility.yul\":1439:1661   */\n      swap3\n      swap2\n      pop\n      pop\n      jump\t// out\n        /* \"#utility.yul\":1667:1847   */\n    tag_46:\n        /* \"#utility.yul\":1715:1792   */\n      0x4e487b7100000000000000000000000000000000000000000000000000000000\n        /* \"#utility.yul\":1712:1713   */\n      0x00\n        /* \"#utility.yul\":1705:1793   */\n      mstore\n        /* \"#utility.yul\":1812:1816   */\n      0x11\n        /* \"#utility.yul\":1809:1810   */\n      0x04\n        /* \"#utility.yul\":1802:1817   */\n      mstore\n        /* \"#utility.yul\":1836:1840   */\n      0x24\n        /* \"#utility.yul\":1833:1834   */\n      0x00\n        /* \"#utility.yul\":1826:1841   */\n      revert\n        /* \"#utility.yul\":1853:1955   */\n    tag_47:\n        /* \"#utility.yul\":1895:1903   */\n      0x00\n        /* \"#utility.yul\":1942:1947   */\n      dup2\n        /* \"#utility.yul\":1939:1940   */\n      0x01\n        /* \"#utility.yul\":1935:1948   */\n      shr\n        /* \"#utility.yul\":1914:1948   */\n      swap1\n      pop\n        /* \"#utility.yul\":1853:1955   */\n      swap2\n      swap1\n      pop\n      jump\t// out\n        /* \"#utility.yul\":1961:2809   */\n    tag_48:\n        /* \"#utility.yul\":2022:2027   */\n      0x00\n        /* \"#utility.yul\":2029:2033   */\n      dup1\n        /* \"#utility.yul\":2053:2059   */\n      dup3\n        /* \"#utility.yul\":2044:2059   */\n      swap2\n      pop\n        /* \"#utility.yul\":2077:2082   */\n      dup4\n        /* \"#utility.yul\":2068:2082   */\n      swap1\n      pop\n        /* \"#utility.yul\":2091:2803   */\n    tag_74:\n        /* \"#utility.yul\":2112:2113   */\n      0x01\n        /* \"#utility.yul\":2102:2110   */\n      dup6\n        /* \"#utility.yul\":2099:2114   */\n      gt\n        /* \"#utility.yul\":2091:2803   */\n      iszero\n      tag_76\n      jumpi\n        /* \"#utility.yul\":2207:2211   */\n      dup1\n        /* \"#utility.yul\":2202:2205   */\n      dup7\n        /* \"#utility.yul\":2198:2212   */\n      div\n        /* \"#utility.yul\":2192:2196   */\n      dup2\n        /* \"#utility.yul\":2189:2213   */\n      gt\n        /* \"#utility.yul\":2186:2236   */\n      iszero\n      tag_77\n      jumpi\n        /* \"#utility.yul\":2216:2234   */\n      tag_78\n      tag_46\n      jump\t// in\n    tag_78:\n        /* \"#utility.yul\":2186:2236   */\n    tag_77:\n        /* \"#utility.yul\":2266:2267   */\n      0x01\n        /* \"#utility.yul\":2256:2264   */\n      dup6\n        /* \"#utility.yul\":2252:2268   */\n      and\n        /* \"#utility.yul\":2249:2700   */\n      iszero\n      tag_79\n      jumpi\n        /* \"#utility.yul\":2681:2685   */\n      dup1\n        /* \"#utility.yul\":2674:2679   */\n      dup3\n        /* \"#utility.yul\":2670:2686   */\n      mul\n        /* \"#utility.yul\":2661:2686   */\n      swap2\n      pop\n        /* \"#utility.yul\":2249:2700   */\n    tag_79:\n        /* \"#utility.yul\":2731:2735   */\n      dup1\n        /* \"#utility.yul\":2725:2729   */\n      dup2\n        /* \"#utility.yul\":2721:2736   */\n      mul\n        /* \"#utility.yul\":2713:2736   */\n      swap1\n      pop\n        /* \"#utility.yul\":2761:2793   */\n      tag_80\n        /* \"#utility.yul\":2784:2792   */\n      dup6\n        /* \"#utility.yul\":2761:2793   */\n      tag_47\n      jump\t// in\n    tag_80:\n        /* \"#utility.yul\":2749:2793   */\n      swap5\n      pop\n        /* \"#utility.yul\":2091:2803   */\n      jump(tag_74)\n    tag_76:\n        /* \"#utility.yul\":1961:2809   */\n      swap5\n      pop\n      swap5\n      swap3\n      pop\n      pop\n      pop\n      jump\t// out\n        /* \"#utility.yul\":2815:3888   */\n    tag_49:\n        /* \"#utility.yul\":2869:2874   */\n      0x00\n        /* \"#utility.yul\":3060:3068   */\n      dup3\n        /* \"#utility.yul\":3050:3090   */\n      tag_82\n      jumpi\n        /* \"#utility.yul\":3081:3082   */\n      0x01\n        /* \"#utility.yul\":3072:3082   */\n      swap1\n      pop\n        /* \"#utility.yul\":3083:3088   */\n      jump(tag_81)\n        /* \"#utility.yul\":3050:3090   */\n    tag_82:\n        /* \"#utility.yul\":3109:3113   */\n      dup2\n        /* \"#utility.yul\":3099:3135   */\n      tag_83\n      jumpi\n        /* \"#utility.yul\":3126:3127   */\n      0x00\n        /* \"#utility.yul\":3117:3127   */\n      swap1\n      pop\n        /* \"#utility.yul\":3128:3133   */\n      jump(tag_81)\n        /* \"#utility.yul\":3099:3135   */\n    tag_83:\n        /* \"#utility.yul\":3195:3199   */\n      dup2\n        /* \"#utility.yul\":3243:3244   */\n      0x01\n        /* \"#utility.yul\":3238:3265   */\n      dup2\n      eq\n      tag_85\n      jumpi\n        /* \"#utility.yul\":3279:3280   */\n      0x02\n        /* \"#utility.yul\":3274:3465   */\n      dup2\n      eq\n      tag_86\n      jumpi\n        /* \"#utility.yul\":3188:3465   */\n      jump(tag_84)\n        /* \"#utility.yul\":3238:3265   */\n    tag_85:\n        /* \"#utility.yul\":3256:3257   */\n      0x01\n        /* \"#utility.yul\":3247:3257   */\n      swap2\n      pop\n        /* \"#utility.yul\":3258:3263   */\n      pop\n      jump(tag_81)\n        /* \"#utility.yul\":3274:3465   */\n    tag_86:\n        /* \"#utility.yul\":3319:3322   */\n      0xff\n        /* \"#utility.yul\":3309:3317   */\n      dup5\n        /* \"#utility.yul\":3306:3323   */\n      gt\n        /* \"#utility.yul\":3303:3346   */\n      iszero\n      tag_87\n      jumpi\n        /* \"#utility.yul\":3326:3344   */\n      tag_88\n      tag_46\n      jump\t// in\n    tag_88:\n        /* \"#utility.yul\":3303:3346   */\n    tag_87:\n        /* \"#utility.yul\":3375:3383   */\n      dup4\n        /* \"#utility.yul\":3372:3373   */\n      0x02\n        /* \"#utility.yul\":3368:3384   */\n      exp\n        /* \"#utility.yul\":3359:3384   */\n      swap2\n      pop\n        /* \"#utility.yul\":3410:3413   */\n      dup5\n        /* \"#utility.yul\":3403:3408   */\n      dup3\n        /* \"#utility.yul\":3400:3414   */\n      gt\n        /* \"#utility.yul\":3397:3437   */\n      iszero\n      tag_89\n      jumpi\n        /* \"#utility.yul\":3417:3435   */\n      tag_90\n      tag_46\n      jump\t// in\n    tag_90:\n        /* \"#utility.yul\":3397:3437   */\n    tag_89:\n        /* \"#utility.yul\":3450:3455   */\n      pop\n      jump(tag_81)\n        /* \"#utility.yul\":3188:3465   */\n    tag_84:\n      pop\n        /* \"#utility.yul\":3574:3576   */\n      0x20\n        /* \"#utility.yul\":3564:3572   */\n      dup4\n        /* \"#utility.yul\":3561:3577   */\n      lt\n        /* \"#utility.yul\":3555:3558   */\n      0x0133\n        /* \"#utility.yul\":3549:3553   */\n      dup4\n        /* \"#utility.yul\":3546:3559   */\n      lt\n        /* \"#utility.yul\":3542:3578   */\n      and\n        /* \"#utility.yul\":3524:3526   */\n      0x4e\n        /* \"#utility.yul\":3514:3522   */\n      dup5\n        /* \"#utility.yul\":3511:3527   */\n      lt\n        /* \"#utility.yul\":3506:3508   */\n      0x0b\n        /* \"#utility.yul\":3500:3504   */\n      dup5\n        /* \"#utility.yul\":3497:3509   */\n      lt\n        /* \"#utility.yul\":3493:3528   */\n      and\n        /* \"#utility.yul\":3477:3588   */\n      or\n        /* \"#utility.yul\":3474:3720   */\n      iszero\n      tag_91\n      jumpi\n        /* \"#utility.yul\":3630:3638   */\n      dup3\n        /* \"#utility.yul\":3624:3628   */\n      dup3\n        /* \"#utility.yul\":3620:3639   */\n      exp\n        /* \"#utility.yul\":3611:3639   */\n      swap1\n      pop\n        /* \"#utility.yul\":3665:3668   */\n      dup4\n        /* \"#utility.yul\":3658:3663   */\n      dup2\n        /* \"#utility.yul\":3655:3669   */\n      gt\n        /* \"#utility.yul\":3652:3692   */\n      iszero\n      tag_92\n      jumpi\n        /* \"#utility.yul\":3672:3690   */\n      tag_93\n      tag_46\n      jump\t// in\n    tag_93:\n        /* \"#utility.yul\":3652:3692   */\n    tag_92:\n        /* \"#utility.yul\":3705:3710   */\n      jump(tag_81)\n        /* \"#utility.yul\":3474:3720   */\n    tag_91:\n        /* \"#utility.yul\":3745:3787   */\n      tag_94\n        /* \"#utility.yul\":3783:3786   */\n      dup5\n        /* \"#utility.yul\":3773:3781   */\n      dup5\n        /* \"#utility.yul\":3767:3771   */\n      dup5\n        /* \"#utility.yul\":3764:3765   */\n      0x01\n        /* \"#utility.yul\":3745:3787   */\n      tag_48\n      jump\t// in\n    tag_94:\n        /* \"#utility.yul\":3730:3787   */\n      swap3\n      pop\n      swap1\n      pop\n        /* \"#utility.yul\":3819:3823   */\n      dup2\n        /* \"#utility.yul\":3814:3817   */\n      dup5\n        /* \"#utility.yul\":3810:3824   */\n      div\n        /* \"#utility.yul\":3803:3808   */\n      dup2\n        /* \"#utility.yul\":3800:3825   */\n      gt\n        /* \"#utility.yul\":3797:3848   */\n      iszero\n      tag_95\n      jumpi\n        /* \"#utility.yul\":3828:3846   */\n      tag_96\n      tag_46\n      jump\t// in\n    tag_96:\n        /* \"#utility.yul\":3797:3848   */\n    tag_95:\n        /* \"#utility.yul\":3877:3881   */\n      dup2\n        /* \"#utility.yul\":3870:3875   */\n      dup2\n        /* \"#utility.yul\":3866:3882   */\n      mul\n        /* \"#utility.yul\":3857:3882   */\n      swap1\n      pop\n        /* \"#utility.yul\":2815:3888   */\n    tag_81:\n      swap4\n      swap3\n      pop\n      pop\n      pop\n      jump\t// out\n        /* \"#utility.yul\":3894:3980   */\n    tag_50:\n        /* \"#utility.yul\":3929:3936   */\n      0x00\n        /* \"#utility.yul\":3969:3973   */\n      0xff\n        /* \"#utility.yul\":3962:3967   */\n      dup3\n        /* \"#utility.yul\":3958:3974   */\n      and\n        /* \"#utility.yul\":3947:3974   */\n      swap1\n      pop\n        /* \"#utility.yul\":3894:3980   */\n      swap2\n      swap1\n      pop\n      jump\t// out\n        /* \"#utility.yul\":3986:4267   */\n    tag_12:\n        /* \"#utility.yul\":4044:4049   */\n      0x00\n        /* \"#utility.yul\":4068:4091   */\n      tag_99\n        /* \"#utility.yul\":4086:4090   */\n      dup3\n        /* \"#utility.yul\":4068:4091   */\n      tag_42\n      jump\t// in\n    tag_99:\n        /* \"#utility.yul\":4060:4091   */\n      swap2\n      pop\n        /* \"#utility.yul\":4112:4137   */\n      tag_100\n        /* \"#utility.yul\":4128:4136   */\n      dup4\n        /* \"#utility.yul\":4112:4137   */\n      tag_50\n      jump\t// in\n    tag_100:\n        /* \"#utility.yul\":4100:4137   */\n      swap3\n      pop\n        /* \"#utility.yul\":4156:4260   */\n      tag_101\n        /* \"#utility.yul\":4193:4259   */\n      0xffffffffffffffffffffffffffffffffffffffffffffffffffffffffffffffff\n        /* \"#utility.yul\":4183:4191   */\n      dup5\n        /* \"#utility.yul\":4177:4181   */\n      dup5\n        /* \"#utility.yul\":4156:4260   */\n      tag_49\n      jump\t// in\n    tag_101:\n        /* \"#utility.yul\":4147:4260   */\n      swap1\n      pop\n        /* \"#utility.yul\":3986:4267   */\n      swap3\n      swap2\n      pop\n      pop\n      jump\t// out\n        /* \"#utility.yul\":4273:4464   */\n    tag_22:\n        /* \"#utility.yul\":4313:4316   */\n      0x00\n        /* \"#utility.yul\":4332:4352   */\n      tag_103\n        /* \"#utility.yul\":4350:4351   */\n      dup3\n        /* \"#utility.yul\":4332:4352   */\n      tag_42\n      jump\t// in\n    tag_103:\n        /* \"#utility.yul\":4327:4352   */\n      swap2\n      pop\n        /* \"#utility.yul\":4366:4386   */\n      tag_104\n        /* \"#utility.yul\":4384:4385   */\n      dup4\n        /* \"#utility.yul\":4366:4386   */\n      tag_42\n      jump\t// in\n    tag_104:\n        /* \"#utility.yul\":4361:4386   */\n      swap3\n      pop\n        /* \"#utility.yul\":4409:4410   */\n      dup3\n        /* \"#utility.yul\":4406:4407   */\n      dup3\n        /* \"#utility.yul\":4402:4411   */\n      add\n        /* \"#utility.yul\":4395:4411   */\n      swap1\n      pop\n        /* \"#utility.yul\":4430:4433   */\n      dup1\n        /* \"#utility.yul\":4427:4428   */\n      dup3\n        /* \"#utility.yul\":4424:4434   */\n      gt\n        /* \"#utility.yul\":4421:4457   */\n      iszero\n      tag_105\n      jumpi\n        /* \"#utility.yul\":4437:4455   */\n      tag_106\n      tag_46\n      jump\t// in\n    tag_106:\n        /* \"#utility.yul\":4421:4457   */\n    tag_105:\n        /* \"#utility.yul\":4273:4464   */\n      swap3\n      swap2\n      pop\n      pop\n      jump\t// out\n        /* \"#utility.yul\":4470:4650   */\n    tag_25:\n        /* \"#utility.yul\":4518:4595   */\n      0x4e487b7100000000000000000000000000000000000000000000000000000000\n        /* \"#utility.yul\":4515:4516   */\n      0x00\n        /* \"#utility.yul\":4508:4596   */\n      mstore\n        /* \"#utility.yul\":4615:4619   */\n      0x32\n        /* \"#utility.yul\":4612:4613   */\n      0x04\n        /* \"#utility.yul\":4605:4620   */\n      mstore\n        /* \"#utility.yul\":4639:4643   */\n      0x24\n        /* \"#utility.yul\":4636:4637   */\n      0x00\n        /* \"#utility.yul\":4629:4644   */\n      revert\n\n    auxdata: 0xa264697066735822122001fef7266f8874ff7a49651b60f0aba08bf0385f9a3000100b06b0d545e95ecc64736f6c634300081a0033\n}\n",
				"bytecode": {
					"linkReferences": {},
					"object": "6080604052348015600e575f80fd5b506104a98061001c5f395ff3fe608060405234801561000f575f80fd5b5060043610610029575f3560e01c806318ba770b1461002d575b5f80fd5b610047600480360381019061004291906101e9565b61005d565b6040516100549190610248565b60405180910390f35b5f8060028561006c91906103c9565b90505f60028561007c91906103c9565b90505f60028561008c91906103c9565b90505f60405180606001604052808581526020018481526020018381525090505f5b600381101561018b575f6001826100c59190610413565b90505b600381101561017d578281600381106100e4576100e3610446565b5b60200201518383600381106100fc576100fb610446565b5b602002015110156101705782816003811061011a57610119610446565b5b602002015183836003811061013257610131610446565b5b602002015184846003811061014a57610149610446565b5b6020020185846003811061016157610160610446565b5b60200201828152508281525050505b80806001019150506100c8565b5080806001019150506100ae565b50806001600381106101a05761019f610446565b5b60200201519450505050509392505050565b5f80fd5b5f819050919050565b6101c8816101b6565b81146101d2575f80fd5b50565b5f813590506101e3816101bf565b92915050565b5f805f60608486031215610200576101ff6101b2565b5b5f61020d868287016101d5565b935050602061021e868287016101d5565b925050604061022f868287016101d5565b9150509250925092565b610242816101b6565b82525050565b5f60208201905061025b5f830184610239565b92915050565b7f4e487b71000000000000000000000000000000000000000000000000000000005f52601160045260245ffd5b5f8160011c9050919050565b5f808291508390505b60018511156102e3578086048111156102bf576102be610261565b5b60018516156102ce5780820291505b80810290506102dc8561028e565b94506102a3565b94509492505050565b5f826102fb57600190506103b6565b81610308575f90506103b6565b816001811461031e576002811461032857610357565b60019150506103b6565b60ff84111561033a57610339610261565b5b8360020a91508482111561035157610350610261565b5b506103b6565b5060208310610133831016604e8410600b841016171561038c5782820a90508381111561038757610386610261565b5b6103b6565b610399848484600161029a565b925090508184048111156103b0576103af610261565b5b81810290505b9392505050565b5f60ff82169050919050565b5f6103d3826101b6565b91506103de836103bd565b925061040b7fffffffffffffffffffffffffffffffffffffffffffffffffffffffffffffffff84846102ec565b905092915050565b5f61041d826101b6565b9150610428836101b6565b92508282019050808211156104405761043f610261565b5b92915050565b7f4e487b71000000000000000000000000000000000000000000000000000000005f52603260045260245ffdfea264697066735822122001fef7266f8874ff7a49651b60f0aba08bf0385f9a3000100b06b0d545e95ecc64736f6c634300081a0033",
					"opcodes": "PUSH1 0x80 PUSH1 0x40 MSTORE CALLVALUE DUP1 ISZERO PUSH1 0xE JUMPI PUSH0 DUP1 REVERT JUMPDEST POP PUSH2 0x4A9 DUP1 PUSH2 0x1C PUSH0 CODECOPY PUSH0 RETURN INVALID PUSH1 0x80 PUSH1 0x40 MSTORE CALLVALUE DUP1 ISZERO PUSH2 0xF JUMPI PUSH0 DUP1 REVERT JUMPDEST POP PUSH1 0x4 CALLDATASIZE LT PUSH2 0x29 JUMPI PUSH0 CALLDATALOAD PUSH1 0xE0 SHR DUP1 PUSH4 0x18BA770B EQ PUSH2 0x2D JUMPI JUMPDEST PUSH0 DUP1 REVERT JUMPDEST PUSH2 0x47 PUSH1 0x4 DUP1 CALLDATASIZE SUB DUP2 ADD SWAP1 PUSH2 0x42 SWAP2 SWAP1 PUSH2 0x1E9 JUMP JUMPDEST PUSH2 0x5D JUMP JUMPDEST PUSH1 0x40 MLOAD PUSH2 0x54 SWAP2 SWAP1 PUSH2 0x248 JUMP JUMPDEST PUSH1 0x40 MLOAD DUP1 SWAP2 SUB SWAP1 RETURN JUMPDEST PUSH0 DUP1 PUSH1 0x2 DUP6 PUSH2 0x6C SWAP2 SWAP1 PUSH2 0x3C9 JUMP JUMPDEST SWAP1 POP PUSH0 PUSH1 0x2 DUP6 PUSH2 0x7C SWAP2 SWAP1 PUSH2 0x3C9 JUMP JUMPDEST SWAP1 POP PUSH0 PUSH1 0x2 DUP6 PUSH2 0x8C SWAP2 SWAP1 PUSH2 0x3C9 JUMP JUMPDEST SWAP1 POP PUSH0 PUSH1 0x40 MLOAD DUP1 PUSH1 0x60 ADD PUSH1 0x40 MSTORE DUP1 DUP6 DUP2 MSTORE PUSH1 0x20 ADD DUP5 DUP2 MSTORE PUSH1 0x20 ADD DUP4 DUP2 MSTORE POP SWAP1 POP PUSH0 JUMPDEST PUSH1 0x3 DUP2 LT ISZERO PUSH2 0x18B JUMPI PUSH0 PUSH1 0x1 DUP3 PUSH2 0xC5 SWAP2 SWAP1 PUSH2 0x413 JUMP JUMPDEST SWAP1 POP JUMPDEST PUSH1 0x3 DUP2 LT ISZERO PUSH2 0x17D JUMPI DUP3 DUP2 PUSH1 0x3 DUP2 LT PUSH2 0xE4 JUMPI PUSH2 0xE3 PUSH2 0x446 JUMP JUMPDEST JUMPDEST PUSH1 0x20 MUL ADD MLOAD DUP4 DUP4 PUSH1 0x3 DUP2 LT PUSH2 0xFC JUMPI PUSH2 0xFB PUSH2 0x446 JUMP JUMPDEST JUMPDEST PUSH1 0x20 MUL ADD MLOAD LT ISZERO PUSH2 0x170 JUMPI DUP3 DUP2 PUSH1 0x3 DUP2 LT PUSH2 0x11A JUMPI PUSH2 0x119 PUSH2 0x446 JUMP JUMPDEST JUMPDEST PUSH1 0x20 MUL ADD MLOAD DUP4 DUP4 PUSH1 0x3 DUP2 LT PUSH2 0x132 JUMPI PUSH2 0x131 PUSH2 0x446 JUMP JUMPDEST JUMPDEST PUSH1 0x20 MUL ADD MLOAD DUP5 DUP5 PUSH1 0x3 DUP2 LT PUSH2 0x14A JUMPI PUSH2 0x149 PUSH2 0x446 JUMP JUMPDEST JUMPDEST PUSH1 0x20 MUL ADD DUP6 DUP5 PUSH1 0x3 DUP2 LT PUSH2 0x161 JUMPI PUSH2 0x160 PUSH2 0x446 JUMP JUMPDEST JUMPDEST PUSH1 0x20 MUL ADD DUP3 DUP2 MSTORE POP DUP3 DUP2 MSTORE POP POP POP JUMPDEST DUP1 DUP1 PUSH1 0x1 ADD SWAP2 POP POP PUSH2 0xC8 JUMP JUMPDEST POP DUP1 DUP1 PUSH1 0x1 ADD SWAP2 POP POP PUSH2 0xAE JUMP JUMPDEST POP DUP1 PUSH1 0x1 PUSH1 0x3 DUP2 LT PUSH2 0x1A0 JUMPI PUSH2 0x19F PUSH2 0x446 JUMP JUMPDEST JUMPDEST PUSH1 0x20 MUL ADD MLOAD SWAP5 POP POP POP POP POP SWAP4 SWAP3 POP POP POP JUMP JUMPDEST PUSH0 DUP1 REVERT JUMPDEST PUSH0 DUP2 SWAP1 POP SWAP2 SWAP1 POP JUMP JUMPDEST PUSH2 0x1C8 DUP2 PUSH2 0x1B6 JUMP JUMPDEST DUP2 EQ PUSH2 0x1D2 JUMPI PUSH0 DUP1 REVERT JUMPDEST POP JUMP JUMPDEST PUSH0 DUP2 CALLDATALOAD SWAP1 POP PUSH2 0x1E3 DUP2 PUSH2 0x1BF JUMP JUMPDEST SWAP3 SWAP2 POP POP JUMP JUMPDEST PUSH0 DUP1 PUSH0 PUSH1 0x60 DUP5 DUP7 SUB SLT ISZERO PUSH2 0x200 JUMPI PUSH2 0x1FF PUSH2 0x1B2 JUMP JUMPDEST JUMPDEST PUSH0 PUSH2 0x20D DUP7 DUP3 DUP8 ADD PUSH2 0x1D5 JUMP JUMPDEST SWAP4 POP POP PUSH1 0x20 PUSH2 0x21E DUP7 DUP3 DUP8 ADD PUSH2 0x1D5 JUMP JUMPDEST SWAP3 POP POP PUSH1 0x40 PUSH2 0x22F DUP7 DUP3 DUP8 ADD PUSH2 0x1D5 JUMP JUMPDEST SWAP2 POP POP SWAP3 POP SWAP3 POP SWAP3 JUMP JUMPDEST PUSH2 0x242 DUP2 PUSH2 0x1B6 JUMP JUMPDEST DUP3 MSTORE POP POP JUMP JUMPDEST PUSH0 PUSH1 0x20 DUP3 ADD SWAP1 POP PUSH2 0x25B PUSH0 DUP4 ADD DUP5 PUSH2 0x239 JUMP JUMPDEST SWAP3 SWAP2 POP POP JUMP JUMPDEST PUSH32 0x4E487B7100000000000000000000000000000000000000000000000000000000 PUSH0 MSTORE PUSH1 0x11 PUSH1 0x4 MSTORE PUSH1 0x24 PUSH0 REVERT JUMPDEST PUSH0 DUP2 PUSH1 0x1 SHR SWAP1 POP SWAP2 SWAP1 POP JUMP JUMPDEST PUSH0 DUP1 DUP3 SWAP2 POP DUP4 SWAP1 POP JUMPDEST PUSH1 0x1 DUP6 GT ISZERO PUSH2 0x2E3 JUMPI DUP1 DUP7 DIV DUP2 GT ISZERO PUSH2 0x2BF JUMPI PUSH2 0x2BE PUSH2 0x261 JUMP JUMPDEST JUMPDEST PUSH1 0x1 DUP6 AND ISZERO PUSH2 0x2CE JUMPI DUP1 DUP3 MUL SWAP2 POP JUMPDEST DUP1 DUP2 MUL SWAP1 POP PUSH2 0x2DC DUP6 PUSH2 0x28E JUMP JUMPDEST SWAP5 POP PUSH2 0x2A3 JUMP JUMPDEST SWAP5 POP SWAP5 SWAP3 POP POP POP JUMP JUMPDEST PUSH0 DUP3 PUSH2 0x2FB JUMPI PUSH1 0x1 SWAP1 POP PUSH2 0x3B6 JUMP JUMPDEST DUP2 PUSH2 0x308 JUMPI PUSH0 SWAP1 POP PUSH2 0x3B6 JUMP JUMPDEST DUP2 PUSH1 0x1 DUP2 EQ PUSH2 0x31E JUMPI PUSH1 0x2 DUP2 EQ PUSH2 0x328 JUMPI PUSH2 0x357 JUMP JUMPDEST PUSH1 0x1 SWAP2 POP POP PUSH2 0x3B6 JUMP JUMPDEST PUSH1 0xFF DUP5 GT ISZERO PUSH2 0x33A JUMPI PUSH2 0x339 PUSH2 0x261 JUMP JUMPDEST JUMPDEST DUP4 PUSH1 0x2 EXP SWAP2 POP DUP5 DUP3 GT ISZERO PUSH2 0x351 JUMPI PUSH2 0x350 PUSH2 0x261 JUMP JUMPDEST JUMPDEST POP PUSH2 0x3B6 JUMP JUMPDEST POP PUSH1 0x20 DUP4 LT PUSH2 0x133 DUP4 LT AND PUSH1 0x4E DUP5 LT PUSH1 0xB DUP5 LT AND OR ISZERO PUSH2 0x38C JUMPI DUP3 DUP3 EXP SWAP1 POP DUP4 DUP2 GT ISZERO PUSH2 0x387 JUMPI PUSH2 0x386 PUSH2 0x261 JUMP JUMPDEST JUMPDEST PUSH2 0x3B6 JUMP JUMPDEST PUSH2 0x399 DUP5 DUP5 DUP5 PUSH1 0x1 PUSH2 0x29A JUMP JUMPDEST SWAP3 POP SWAP1 POP DUP2 DUP5 DIV DUP2 GT ISZERO PUSH2 0x3B0 JUMPI PUSH2 0x3AF PUSH2 0x261 JUMP JUMPDEST JUMPDEST DUP2 DUP2 MUL SWAP1 POP JUMPDEST SWAP4 SWAP3 POP POP POP JUMP JUMPDEST PUSH0 PUSH1 0xFF DUP3 AND SWAP1 POP SWAP2 SWAP1 POP JUMP JUMPDEST PUSH0 PUSH2 0x3D3 DUP3 PUSH2 0x1B6 JUMP JUMPDEST SWAP2 POP PUSH2 0x3DE DUP4 PUSH2 0x3BD JUMP JUMPDEST SWAP3 POP PUSH2 0x40B PUSH32 0xFFFFFFFFFFFFFFFFFFFFFFFFFFFFFFFFFFFFFFFFFFFFFFFFFFFFFFFFFFFFFFFF DUP5 DUP5 PUSH2 0x2EC JUMP JUMPDEST SWAP1 POP SWAP3 SWAP2 POP POP JUMP JUMPDEST PUSH0 PUSH2 0x41D DUP3 PUSH2 0x1B6 JUMP JUMPDEST SWAP2 POP PUSH2 0x428 DUP4 PUSH2 0x1B6 JUMP JUMPDEST SWAP3 POP DUP3 DUP3 ADD SWAP1 POP DUP1 DUP3 GT ISZERO PUSH2 0x440 JUMPI PUSH2 0x43F PUSH2 0x261 JUMP JUMPDEST JUMPDEST SWAP3 SWAP2 POP POP JUMP JUMPDEST PUSH32 0x4E487B7100000000000000000000000000000000000000000000000000000000 PUSH0 MSTORE PUSH1 0x32 PUSH1 0x4 MSTORE PUSH1 0x24 PUSH0 REVERT INVALID LOG2 PUSH5 0x6970667358 0x22 SLT KECCAK256 ADD INVALID 0xF7 0x26 PUSH16 0x8874FF7A49651B60F0ABA08BF0385F9A ADDRESS STOP LT SIGNEXTEND MOD 0xB0 0xD5 GASLIMIT 0xE9 MCOPY 0xCC PUSH5 0x736F6C6343 STOP ADDMOD BYTE STOP CALLER "
				},
				"gasEstimates": {
					"creation": {
						"codeDepositCost": "238600",
						"executionCost": "279",
						"totalCost": "238879"
					},
					"external": {
						"sq(uint256,uint256,uint256)": "infinite"
					}
				},
				"methodIdentifiers": {
					"sq(uint256,uint256,uint256)": "18ba770b"
				}
			},
			"storageLayout": {
				"storage": [],
				"types": null
			},
			"userdoc": {
				"kind": "user",
				"methods": {},
				"version": 1
			}
		}
	}
}