{
	"Solidity100/sol100(91~100).sol": {
		"Q95": {
			"abi": [
				{
					"inputs": [
						{
							"internalType": "uint256",
							"name": "a",
							"type": "uint256"
						},
						{
							"internalType": "uint256",
							"name": "b",
							"type": "uint256"
						},
						{
							"internalType": "uint256",
							"name": "c",
							"type": "uint256"
						}
					],
					"name": "Add",
					"outputs": [
						{
							"internalType": "uint256",
							"name": "",
							"type": "uint256"
						}
					],
					"stateMutability": "pure",
					"type": "function"
				},
				{
					"inputs": [
						{
							"internalType": "uint256",
							"name": "a",
							"type": "uint256"
						},
						{
							"internalType": "uint256",
							"name": "b",
							"type": "uint256"
						},
						{
							"internalType": "uint256",
							"name": "c",
							"type": "uint256"
						}
					],
					"name": "Div",
					"outputs": [
						{
							"internalType": "uint256",
							"name": "",
							"type": "uint256"
						}
					],
					"stateMutability": "pure",
					"type": "function"
				},
				{
					"inputs": [
						{
							"internalType": "uint256",
							"name": "a",
							"type": "uint256"
						},
						{
							"internalType": "uint256",
							"name": "b",
							"type": "uint256"
						},
						{
							"internalType": "uint256",
							"name": "c",
							"type": "uint256"
						}
					],
					"name": "Mul",
					"outputs": [
						{
							"internalType": "uint256",
							"name": "",
							"type": "uint256"
						}
					],
					"stateMutability": "pure",
					"type": "function"
				},
				{
					"inputs": [
						{
							"internalType": "uint256",
							"name": "a",
							"type": "uint256"
						},
						{
							"internalType": "uint256",
							"name": "b",
							"type": "uint256"
						},
						{
							"internalType": "uint256",
							"name": "c",
							"type": "uint256"
						}
					],
					"name": "Sub",
					"outputs": [
						{
							"internalType": "uint256",
							"name": "",
							"type": "uint256"
						}
					],
					"stateMutability": "pure",
					"type": "function"
				}
			],
			"devdoc": {
				"kind": "dev",
				"methods": {},
				"version": 1
			},
			"evm": {
				"assembly": "    /* \"Solidity100/sol100(91~100).sol\":1936:3128  contract Q95 {... */\n  mstore(0x40, 0x80)\n  callvalue\n  dup1\n  iszero\n  tag_1\n  jumpi\n  0x00\n  dup1\n  revert\ntag_1:\n  pop\n  dataSize(sub_0)\n  dup1\n  dataOffset(sub_0)\n  0x00\n  codecopy\n  0x00\n  return\nstop\n\nsub_0: assembly {\n        /* \"Solidity100/sol100(91~100).sol\":1936:3128  contract Q95 {... */\n      mstore(0x40, 0x80)\n      callvalue\n      dup1\n      iszero\n      tag_1\n      jumpi\n      0x00\n      dup1\n      revert\n    tag_1:\n      pop\n      jumpi(tag_2, lt(calldatasize, 0x04))\n      shr(0xe0, calldataload(0x00))\n      dup1\n      0x2a31efc7\n      eq\n      tag_3\n      jumpi\n      dup1\n      0x655a7210\n      eq\n      tag_4\n      jumpi\n      dup1\n      0xdf380dd3\n      eq\n      tag_5\n      jumpi\n      dup1\n      0xe6e6dee3\n      eq\n      tag_6\n      jumpi\n    tag_2:\n      0x00\n      dup1\n      revert\n        /* \"Solidity100/sol100(91~100).sol\":2076:2331  function Add(uint a, uint b, uint c) public pure returns(uint) {... */\n    tag_3:\n      tag_7\n      0x04\n      dup1\n      calldatasize\n      sub\n      dup2\n      add\n      swap1\n      tag_8\n      swap2\n      swap1\n      tag_9\n      jump\t// in\n    tag_8:\n      tag_10\n      jump\t// in\n    tag_7:\n      mload(0x40)\n      tag_11\n      swap2\n      swap1\n      tag_12\n      jump\t// in\n    tag_11:\n      mload(0x40)\n      dup1\n      swap2\n      sub\n      swap1\n      return\n        /* \"Solidity100/sol100(91~100).sol\":2340:2595  function Sub(uint a, uint b, uint c) public pure returns(uint) {... */\n    tag_4:\n      tag_13\n      0x04\n      dup1\n      calldatasize\n      sub\n      dup2\n      add\n      swap1\n      tag_14\n      swap2\n      swap1\n      tag_9\n      jump\t// in\n    tag_14:\n      tag_15\n      jump\t// in\n    tag_13:\n      mload(0x40)\n      tag_16\n      swap2\n      swap1\n      tag_12\n      jump\t// in\n    tag_16:\n      mload(0x40)\n      dup1\n      swap2\n      sub\n      swap1\n      return\n        /* \"Solidity100/sol100(91~100).sol\":2604:2859  function Mul(uint a, uint b, uint c) public pure returns(uint) {... */\n    tag_5:\n      tag_17\n      0x04\n      dup1\n      calldatasize\n      sub\n      dup2\n      add\n      swap1\n      tag_18\n      swap2\n      swap1\n      tag_9\n      jump\t// in\n    tag_18:\n      tag_19\n      jump\t// in\n    tag_17:\n      mload(0x40)\n      tag_20\n      swap2\n      swap1\n      tag_12\n      jump\t// in\n    tag_20:\n      mload(0x40)\n      dup1\n      swap2\n      sub\n      swap1\n      return\n        /* \"Solidity100/sol100(91~100).sol\":2868:3123  function Div(uint a, uint b, uint c) public pure returns(uint) {... */\n    tag_6:\n      tag_21\n      0x04\n      dup1\n      calldatasize\n      sub\n      dup2\n      add\n      swap1\n      tag_22\n      swap2\n      swap1\n      tag_9\n      jump\t// in\n    tag_22:\n      tag_23\n      jump\t// in\n    tag_21:\n      mload(0x40)\n      tag_24\n      swap2\n      swap1\n      tag_12\n      jump\t// in\n    tag_24:\n      mload(0x40)\n      dup1\n      swap2\n      sub\n      swap1\n      return\n        /* \"Solidity100/sol100(91~100).sol\":2076:2331  function Add(uint a, uint b, uint c) public pure returns(uint) {... */\n    tag_10:\n        /* \"Solidity100/sol100(91~100).sol\":2133:2137  uint */\n      0x00\n        /* \"Solidity100/sol100(91~100).sol\":2193:2194  b */\n      dup3\n        /* \"Solidity100/sol100(91~100).sol\":2191:2192  a */\n      dup5\n        /* \"Solidity100/sol100(91~100).sol\":2187:2195  add(a,b) */\n      add\n        /* \"Solidity100/sol100(91~100).sol\":2181:2185  0x80 */\n      0x80\n        /* \"Solidity100/sol100(91~100).sol\":2174:2196  mstore(0x80, add(a,b)) */\n      mstore\n        /* \"Solidity100/sol100(91~100).sol\":2227:2231  0x80 */\n      0x80\n        /* \"Solidity100/sol100(91~100).sol\":2221:2232  mload(0x80) */\n      mload\n        /* \"Solidity100/sol100(91~100).sol\":2268:2269  c */\n      dup3\n        /* \"Solidity100/sol100(91~100).sol\":2263:2266  sum */\n      dup2\n        /* \"Solidity100/sol100(91~100).sol\":2259:2270  add(sum, c) */\n      add\n        /* \"Solidity100/sol100(91~100).sol\":2253:2257  0xa0 */\n      0xa0\n        /* \"Solidity100/sol100(91~100).sol\":2246:2271  mstore(0xa0, add(sum, c)) */\n      mstore\n        /* \"Solidity100/sol100(91~100).sol\":2310:2312  32 */\n      0x20\n        /* \"Solidity100/sol100(91~100).sol\":2304:2308  0xa0 */\n      0xa0\n        /* \"Solidity100/sol100(91~100).sol\":2297:2313  return(0xa0, 32) */\n      return\n        /* \"Solidity100/sol100(91~100).sol\":2340:2595  function Sub(uint a, uint b, uint c) public pure returns(uint) {... */\n    tag_15:\n        /* \"Solidity100/sol100(91~100).sol\":2397:2401  uint */\n      0x00\n        /* \"Solidity100/sol100(91~100).sol\":2457:2458  b */\n      dup3\n        /* \"Solidity100/sol100(91~100).sol\":2455:2456  a */\n      dup5\n        /* \"Solidity100/sol100(91~100).sol\":2451:2459  add(a,b) */\n      add\n        /* \"Solidity100/sol100(91~100).sol\":2445:2449  0x80 */\n      0x80\n        /* \"Solidity100/sol100(91~100).sol\":2438:2460  mstore(0x80, add(a,b)) */\n      mstore\n        /* \"Solidity100/sol100(91~100).sol\":2491:2495  0x80 */\n      0x80\n        /* \"Solidity100/sol100(91~100).sol\":2485:2496  mload(0x80) */\n      mload\n        /* \"Solidity100/sol100(91~100).sol\":2532:2533  c */\n      dup3\n        /* \"Solidity100/sol100(91~100).sol\":2527:2530  sum */\n      dup2\n        /* \"Solidity100/sol100(91~100).sol\":2523:2534  sub(sum, c) */\n      sub\n        /* \"Solidity100/sol100(91~100).sol\":2517:2521  0xa0 */\n      0xa0\n        /* \"Solidity100/sol100(91~100).sol\":2510:2535  mstore(0xa0, sub(sum, c)) */\n      mstore\n        /* \"Solidity100/sol100(91~100).sol\":2574:2576  32 */\n      0x20\n        /* \"Solidity100/sol100(91~100).sol\":2568:2572  0xa0 */\n      0xa0\n        /* \"Solidity100/sol100(91~100).sol\":2561:2577  return(0xa0, 32) */\n      return\n        /* \"Solidity100/sol100(91~100).sol\":2604:2859  function Mul(uint a, uint b, uint c) public pure returns(uint) {... */\n    tag_19:\n        /* \"Solidity100/sol100(91~100).sol\":2661:2665  uint */\n      0x00\n        /* \"Solidity100/sol100(91~100).sol\":2721:2722  b */\n      dup3\n        /* \"Solidity100/sol100(91~100).sol\":2719:2720  a */\n      dup5\n        /* \"Solidity100/sol100(91~100).sol\":2715:2723  add(a,b) */\n      add\n        /* \"Solidity100/sol100(91~100).sol\":2709:2713  0x80 */\n      0x80\n        /* \"Solidity100/sol100(91~100).sol\":2702:2724  mstore(0x80, add(a,b)) */\n      mstore\n        /* \"Solidity100/sol100(91~100).sol\":2755:2759  0x80 */\n      0x80\n        /* \"Solidity100/sol100(91~100).sol\":2749:2760  mload(0x80) */\n      mload\n        /* \"Solidity100/sol100(91~100).sol\":2796:2797  c */\n      dup3\n        /* \"Solidity100/sol100(91~100).sol\":2791:2794  sum */\n      dup2\n        /* \"Solidity100/sol100(91~100).sol\":2787:2798  mul(sum, c) */\n      mul\n        /* \"Solidity100/sol100(91~100).sol\":2781:2785  0xa0 */\n      0xa0\n        /* \"Solidity100/sol100(91~100).sol\":2774:2799  mstore(0xa0, mul(sum, c)) */\n      mstore\n        /* \"Solidity100/sol100(91~100).sol\":2838:2840  32 */\n      0x20\n        /* \"Solidity100/sol100(91~100).sol\":2832:2836  0xa0 */\n      0xa0\n        /* \"Solidity100/sol100(91~100).sol\":2825:2841  return(0xa0, 32) */\n      return\n        /* \"Solidity100/sol100(91~100).sol\":2868:3123  function Div(uint a, uint b, uint c) public pure returns(uint) {... */\n    tag_23:\n        /* \"Solidity100/sol100(91~100).sol\":2925:2929  uint */\n      0x00\n        /* \"Solidity100/sol100(91~100).sol\":2985:2986  b */\n      dup3\n        /* \"Solidity100/sol100(91~100).sol\":2983:2984  a */\n      dup5\n        /* \"Solidity100/sol100(91~100).sol\":2979:2987  add(a,b) */\n      add\n        /* \"Solidity100/sol100(91~100).sol\":2973:2977  0x80 */\n      0x80\n        /* \"Solidity100/sol100(91~100).sol\":2966:2988  mstore(0x80, add(a,b)) */\n      mstore\n        /* \"Solidity100/sol100(91~100).sol\":3019:3023  0x80 */\n      0x80\n        /* \"Solidity100/sol100(91~100).sol\":3013:3024  mload(0x80) */\n      mload\n        /* \"Solidity100/sol100(91~100).sol\":3060:3061  c */\n      dup3\n        /* \"Solidity100/sol100(91~100).sol\":3055:3058  sum */\n      dup2\n        /* \"Solidity100/sol100(91~100).sol\":3051:3062  div(sum, c) */\n      div\n        /* \"Solidity100/sol100(91~100).sol\":3045:3049  0xa0 */\n      0xa0\n        /* \"Solidity100/sol100(91~100).sol\":3038:3063  mstore(0xa0, div(sum, c)) */\n      mstore\n        /* \"Solidity100/sol100(91~100).sol\":3102:3104  32 */\n      0x20\n        /* \"Solidity100/sol100(91~100).sol\":3096:3100  0xa0 */\n      0xa0\n        /* \"Solidity100/sol100(91~100).sol\":3089:3105  return(0xa0, 32) */\n      return\n        /* \"#utility.yul\":88:205   */\n    tag_30:\n        /* \"#utility.yul\":197:198   */\n      0x00\n        /* \"#utility.yul\":194:195   */\n      dup1\n        /* \"#utility.yul\":187:199   */\n      revert\n        /* \"#utility.yul\":334:411   */\n    tag_32:\n        /* \"#utility.yul\":371:378   */\n      0x00\n        /* \"#utility.yul\":400:405   */\n      dup2\n        /* \"#utility.yul\":389:405   */\n      swap1\n      pop\n        /* \"#utility.yul\":334:411   */\n      swap2\n      swap1\n      pop\n      jump\t// out\n        /* \"#utility.yul\":417:539   */\n    tag_33:\n        /* \"#utility.yul\":490:514   */\n      tag_42\n        /* \"#utility.yul\":508:513   */\n      dup2\n        /* \"#utility.yul\":490:514   */\n      tag_32\n      jump\t// in\n    tag_42:\n        /* \"#utility.yul\":483:488   */\n      dup2\n        /* \"#utility.yul\":480:515   */\n      eq\n        /* \"#utility.yul\":470:533   */\n      tag_43\n      jumpi\n        /* \"#utility.yul\":529:530   */\n      0x00\n        /* \"#utility.yul\":526:527   */\n      dup1\n        /* \"#utility.yul\":519:531   */\n      revert\n        /* \"#utility.yul\":470:533   */\n    tag_43:\n        /* \"#utility.yul\":417:539   */\n      pop\n      jump\t// out\n        /* \"#utility.yul\":545:684   */\n    tag_34:\n        /* \"#utility.yul\":591:596   */\n      0x00\n        /* \"#utility.yul\":629:635   */\n      dup2\n        /* \"#utility.yul\":616:636   */\n      calldataload\n        /* \"#utility.yul\":607:636   */\n      swap1\n      pop\n        /* \"#utility.yul\":645:678   */\n      tag_45\n        /* \"#utility.yul\":672:677   */\n      dup2\n        /* \"#utility.yul\":645:678   */\n      tag_33\n      jump\t// in\n    tag_45:\n        /* \"#utility.yul\":545:684   */\n      swap3\n      swap2\n      pop\n      pop\n      jump\t// out\n        /* \"#utility.yul\":690:1309   */\n    tag_9:\n        /* \"#utility.yul\":767:773   */\n      0x00\n        /* \"#utility.yul\":775:781   */\n      dup1\n        /* \"#utility.yul\":783:789   */\n      0x00\n        /* \"#utility.yul\":832:834   */\n      0x60\n        /* \"#utility.yul\":820:829   */\n      dup5\n        /* \"#utility.yul\":811:818   */\n      dup7\n        /* \"#utility.yul\":807:830   */\n      sub\n        /* \"#utility.yul\":803:835   */\n      slt\n        /* \"#utility.yul\":800:919   */\n      iszero\n      tag_47\n      jumpi\n        /* \"#utility.yul\":838:917   */\n      tag_48\n      tag_30\n      jump\t// in\n    tag_48:\n        /* \"#utility.yul\":800:919   */\n    tag_47:\n        /* \"#utility.yul\":958:959   */\n      0x00\n        /* \"#utility.yul\":983:1036   */\n      tag_49\n        /* \"#utility.yul\":1028:1035   */\n      dup7\n        /* \"#utility.yul\":1019:1025   */\n      dup3\n        /* \"#utility.yul\":1008:1017   */\n      dup8\n        /* \"#utility.yul\":1004:1026   */\n      add\n        /* \"#utility.yul\":983:1036   */\n      tag_34\n      jump\t// in\n    tag_49:\n        /* \"#utility.yul\":973:1036   */\n      swap4\n      pop\n        /* \"#utility.yul\":929:1046   */\n      pop\n        /* \"#utility.yul\":1085:1087   */\n      0x20\n        /* \"#utility.yul\":1111:1164   */\n      tag_50\n        /* \"#utility.yul\":1156:1163   */\n      dup7\n        /* \"#utility.yul\":1147:1153   */\n      dup3\n        /* \"#utility.yul\":1136:1145   */\n      dup8\n        /* \"#utility.yul\":1132:1154   */\n      add\n        /* \"#utility.yul\":1111:1164   */\n      tag_34\n      jump\t// in\n    tag_50:\n        /* \"#utility.yul\":1101:1164   */\n      swap3\n      pop\n        /* \"#utility.yul\":1056:1174   */\n      pop\n        /* \"#utility.yul\":1213:1215   */\n      0x40\n        /* \"#utility.yul\":1239:1292   */\n      tag_51\n        /* \"#utility.yul\":1284:1291   */\n      dup7\n        /* \"#utility.yul\":1275:1281   */\n      dup3\n        /* \"#utility.yul\":1264:1273   */\n      dup8\n        /* \"#utility.yul\":1260:1282   */\n      add\n        /* \"#utility.yul\":1239:1292   */\n      tag_34\n      jump\t// in\n    tag_51:\n        /* \"#utility.yul\":1229:1292   */\n      swap2\n      pop\n        /* \"#utility.yul\":1184:1302   */\n      pop\n        /* \"#utility.yul\":690:1309   */\n      swap3\n      pop\n      swap3\n      pop\n      swap3\n      jump\t// out\n        /* \"#utility.yul\":1315:1433   */\n    tag_35:\n        /* \"#utility.yul\":1402:1426   */\n      tag_53\n        /* \"#utility.yul\":1420:1425   */\n      dup2\n        /* \"#utility.yul\":1402:1426   */\n      tag_32\n      jump\t// in\n    tag_53:\n        /* \"#utility.yul\":1397:1400   */\n      dup3\n        /* \"#utility.yul\":1390:1427   */\n      mstore\n        /* \"#utility.yul\":1315:1433   */\n      pop\n      pop\n      jump\t// out\n        /* \"#utility.yul\":1439:1661   */\n    tag_12:\n        /* \"#utility.yul\":1532:1536   */\n      0x00\n        /* \"#utility.yul\":1570:1572   */\n      0x20\n        /* \"#utility.yul\":1559:1568   */\n      dup3\n        /* \"#utility.yul\":1555:1573   */\n      add\n        /* \"#utility.yul\":1547:1573   */\n      swap1\n      pop\n        /* \"#utility.yul\":1583:1654   */\n      tag_55\n        /* \"#utility.yul\":1651:1652   */\n      0x00\n        /* \"#utility.yul\":1640:1649   */\n      dup4\n        /* \"#utility.yul\":1636:1653   */\n      add\n        /* \"#utility.yul\":1627:1633   */\n      dup5\n        /* \"#utility.yul\":1583:1654   */\n      tag_35\n      jump\t// in\n    tag_55:\n        /* \"#utility.yul\":1439:1661   */\n      swap3\n      swap2\n      pop\n      pop\n      jump\t// out\n\n    auxdata: 0xa2646970667358221220911e08db499398195eed408fbc99913226562212de21b168d4c9f3ba814baafc64736f6c634300081a0033\n}\n",
				"bytecode": {
					"linkReferences": {},
					"object": "6080604052348015600e575f80fd5b5061024b8061001c5f395ff3fe608060405234801561000f575f80fd5b506004361061004a575f3560e01c80632a31efc71461004e578063655a72101461007e578063df380dd3146100ae578063e6e6dee3146100de575b5f80fd5b6100686004803603810190610063919061019d565b61010e565b60405161007591906101fc565b60405180910390f35b6100986004803603810190610093919061019d565b610124565b6040516100a591906101fc565b60405180910390f35b6100c860048036038101906100c3919061019d565b61013a565b6040516100d591906101fc565b60405180910390f35b6100f860048036038101906100f3919061019d565b610150565b60405161010591906101fc565b60405180910390f35b5f82840160805260805182810160a052602060a0f35b5f82840160805260805182810360a052602060a0f35b5f82840160805260805182810260a052602060a0f35b5f82840160805260805182810460a052602060a0f35b5f80fd5b5f819050919050565b61017c8161016a565b8114610186575f80fd5b50565b5f8135905061019781610173565b92915050565b5f805f606084860312156101b4576101b3610166565b5b5f6101c186828701610189565b93505060206101d286828701610189565b92505060406101e386828701610189565b9150509250925092565b6101f68161016a565b82525050565b5f60208201905061020f5f8301846101ed565b9291505056fea2646970667358221220911e08db499398195eed408fbc99913226562212de21b168d4c9f3ba814baafc64736f6c634300081a0033",
					"opcodes": "PUSH1 0x80 PUSH1 0x40 MSTORE CALLVALUE DUP1 ISZERO PUSH1 0xE JUMPI PUSH0 DUP1 REVERT JUMPDEST POP PUSH2 0x24B DUP1 PUSH2 0x1C PUSH0 CODECOPY PUSH0 RETURN INVALID PUSH1 0x80 PUSH1 0x40 MSTORE CALLVALUE DUP1 ISZERO PUSH2 0xF JUMPI PUSH0 DUP1 REVERT JUMPDEST POP PUSH1 0x4 CALLDATASIZE LT PUSH2 0x4A JUMPI PUSH0 CALLDATALOAD PUSH1 0xE0 SHR DUP1 PUSH4 0x2A31EFC7 EQ PUSH2 0x4E JUMPI DUP1 PUSH4 0x655A7210 EQ PUSH2 0x7E JUMPI DUP1 PUSH4 0xDF380DD3 EQ PUSH2 0xAE JUMPI DUP1 PUSH4 0xE6E6DEE3 EQ PUSH2 0xDE JUMPI JUMPDEST PUSH0 DUP1 REVERT JUMPDEST PUSH2 0x68 PUSH1 0x4 DUP1 CALLDATASIZE SUB DUP2 ADD SWAP1 PUSH2 0x63 SWAP2 SWAP1 PUSH2 0x19D JUMP JUMPDEST PUSH2 0x10E JUMP JUMPDEST PUSH1 0x40 MLOAD PUSH2 0x75 SWAP2 SWAP1 PUSH2 0x1FC JUMP JUMPDEST PUSH1 0x40 MLOAD DUP1 SWAP2 SUB SWAP1 RETURN JUMPDEST PUSH2 0x98 PUSH1 0x4 DUP1 CALLDATASIZE SUB DUP2 ADD SWAP1 PUSH2 0x93 SWAP2 SWAP1 PUSH2 0x19D JUMP JUMPDEST PUSH2 0x124 JUMP JUMPDEST PUSH1 0x40 MLOAD PUSH2 0xA5 SWAP2 SWAP1 PUSH2 0x1FC JUMP JUMPDEST PUSH1 0x40 MLOAD DUP1 SWAP2 SUB SWAP1 RETURN JUMPDEST PUSH2 0xC8 PUSH1 0x4 DUP1 CALLDATASIZE SUB DUP2 ADD SWAP1 PUSH2 0xC3 SWAP2 SWAP1 PUSH2 0x19D JUMP JUMPDEST PUSH2 0x13A JUMP JUMPDEST PUSH1 0x40 MLOAD PUSH2 0xD5 SWAP2 SWAP1 PUSH2 0x1FC JUMP JUMPDEST PUSH1 0x40 MLOAD DUP1 SWAP2 SUB SWAP1 RETURN JUMPDEST PUSH2 0xF8 PUSH1 0x4 DUP1 CALLDATASIZE SUB DUP2 ADD SWAP1 PUSH2 0xF3 SWAP2 SWAP1 PUSH2 0x19D JUMP JUMPDEST PUSH2 0x150 JUMP JUMPDEST PUSH1 0x40 MLOAD PUSH2 0x105 SWAP2 SWAP1 PUSH2 0x1FC JUMP JUMPDEST PUSH1 0x40 MLOAD DUP1 SWAP2 SUB SWAP1 RETURN JUMPDEST PUSH0 DUP3 DUP5 ADD PUSH1 0x80 MSTORE PUSH1 0x80 MLOAD DUP3 DUP2 ADD PUSH1 0xA0 MSTORE PUSH1 0x20 PUSH1 0xA0 RETURN JUMPDEST PUSH0 DUP3 DUP5 ADD PUSH1 0x80 MSTORE PUSH1 0x80 MLOAD DUP3 DUP2 SUB PUSH1 0xA0 MSTORE PUSH1 0x20 PUSH1 0xA0 RETURN JUMPDEST PUSH0 DUP3 DUP5 ADD PUSH1 0x80 MSTORE PUSH1 0x80 MLOAD DUP3 DUP2 MUL PUSH1 0xA0 MSTORE PUSH1 0x20 PUSH1 0xA0 RETURN JUMPDEST PUSH0 DUP3 DUP5 ADD PUSH1 0x80 MSTORE PUSH1 0x80 MLOAD DUP3 DUP2 DIV PUSH1 0xA0 MSTORE PUSH1 0x20 PUSH1 0xA0 RETURN JUMPDEST PUSH0 DUP1 REVERT JUMPDEST PUSH0 DUP2 SWAP1 POP SWAP2 SWAP1 POP JUMP JUMPDEST PUSH2 0x17C DUP2 PUSH2 0x16A JUMP JUMPDEST DUP2 EQ PUSH2 0x186 JUMPI PUSH0 DUP1 REVERT JUMPDEST POP JUMP JUMPDEST PUSH0 DUP2 CALLDATALOAD SWAP1 POP PUSH2 0x197 DUP2 PUSH2 0x173 JUMP JUMPDEST SWAP3 SWAP2 POP POP JUMP JUMPDEST PUSH0 DUP1 PUSH0 PUSH1 0x60 DUP5 DUP7 SUB SLT ISZERO PUSH2 0x1B4 JUMPI PUSH2 0x1B3 PUSH2 0x166 JUMP JUMPDEST JUMPDEST PUSH0 PUSH2 0x1C1 DUP7 DUP3 DUP8 ADD PUSH2 0x189 JUMP JUMPDEST SWAP4 POP POP PUSH1 0x20 PUSH2 0x1D2 DUP7 DUP3 DUP8 ADD PUSH2 0x189 JUMP JUMPDEST SWAP3 POP POP PUSH1 0x40 PUSH2 0x1E3 DUP7 DUP3 DUP8 ADD PUSH2 0x189 JUMP JUMPDEST SWAP2 POP POP SWAP3 POP SWAP3 POP SWAP3 JUMP JUMPDEST PUSH2 0x1F6 DUP2 PUSH2 0x16A JUMP JUMPDEST DUP3 MSTORE POP POP JUMP JUMPDEST PUSH0 PUSH1 0x20 DUP3 ADD SWAP1 POP PUSH2 0x20F PUSH0 DUP4 ADD DUP5 PUSH2 0x1ED JUMP JUMPDEST SWAP3 SWAP2 POP POP JUMP INVALID LOG2 PUSH5 0x6970667358 0x22 SLT KECCAK256 SWAP2 0x1E ADDMOD 0xDB BLOBHASH SWAP4 SWAP9 NOT MCOPY 0xED BLOCKHASH DUP16 0xBC SWAP10 SWAP2 ORIGIN 0x26 JUMP 0x22 SLT 0xDE 0x21 0xB1 PUSH9 0xD4C9F3BA814BAAFC64 PUSH20 0x6F6C634300081A00330000000000000000000000 "
				},
				"gasEstimates": {
					"creation": {
						"codeDepositCost": "117400",
						"executionCost": "163",
						"totalCost": "117563"
					},
					"external": {
						"Add(uint256,uint256,uint256)": "infinite",
						"Div(uint256,uint256,uint256)": "infinite",
						"Mul(uint256,uint256,uint256)": "infinite",
						"Sub(uint256,uint256,uint256)": "infinite"
					}
				},
				"methodIdentifiers": {
					"Add(uint256,uint256,uint256)": "2a31efc7",
					"Div(uint256,uint256,uint256)": "e6e6dee3",
					"Mul(uint256,uint256,uint256)": "df380dd3",
					"Sub(uint256,uint256,uint256)": "655a7210"
				}
			},
			"storageLayout": {
				"storage": [],
				"types": null
			},
			"userdoc": {
				"kind": "user",
				"methods": {},
				"version": 1
			}
		}
	}
}