{
	"Solidity100/sol100(91~100).sol": {
		"Q94": {
			"abi": [
				{
					"inputs": [
						{
							"internalType": "uint256",
							"name": "_a",
							"type": "uint256"
						},
						{
							"internalType": "uint256",
							"name": "_b",
							"type": "uint256"
						}
					],
					"name": "Add",
					"outputs": [
						{
							"internalType": "uint256",
							"name": "",
							"type": "uint256"
						}
					],
					"stateMutability": "pure",
					"type": "function"
				},
				{
					"inputs": [
						{
							"internalType": "uint256",
							"name": "_a",
							"type": "uint256"
						},
						{
							"internalType": "uint256",
							"name": "_b",
							"type": "uint256"
						}
					],
					"name": "Div",
					"outputs": [
						{
							"internalType": "uint256",
							"name": "",
							"type": "uint256"
						}
					],
					"stateMutability": "pure",
					"type": "function"
				},
				{
					"inputs": [
						{
							"internalType": "uint256",
							"name": "_a",
							"type": "uint256"
						},
						{
							"internalType": "uint256",
							"name": "_b",
							"type": "uint256"
						}
					],
					"name": "Mul",
					"outputs": [
						{
							"internalType": "uint256",
							"name": "",
							"type": "uint256"
						}
					],
					"stateMutability": "pure",
					"type": "function"
				},
				{
					"inputs": [
						{
							"internalType": "uint256",
							"name": "_a",
							"type": "uint256"
						},
						{
							"internalType": "uint256",
							"name": "_b",
							"type": "uint256"
						}
					],
					"name": "Sub",
					"outputs": [
						{
							"internalType": "uint256",
							"name": "",
							"type": "uint256"
						}
					],
					"stateMutability": "pure",
					"type": "function"
				}
			],
			"devdoc": {
				"kind": "dev",
				"methods": {},
				"version": 1
			},
			"evm": {
				"assembly": "    /* \"Solidity100/sol100(91~100).sol\":1138:1932  contract Q94 {... */\n  mstore(0x40, 0x80)\n  callvalue\n  dup1\n  iszero\n  tag_1\n  jumpi\n  0x00\n  dup1\n  revert\ntag_1:\n  pop\n  dataSize(sub_0)\n  dup1\n  dataOffset(sub_0)\n  0x00\n  codecopy\n  0x00\n  return\nstop\n\nsub_0: assembly {\n        /* \"Solidity100/sol100(91~100).sol\":1138:1932  contract Q94 {... */\n      mstore(0x40, 0x80)\n      callvalue\n      dup1\n      iszero\n      tag_1\n      jumpi\n      0x00\n      dup1\n      revert\n    tag_1:\n      pop\n      jumpi(tag_2, lt(calldatasize, 0x04))\n      shr(0xe0, calldataload(0x00))\n      dup1\n      0x1ec9c2c0\n      eq\n      tag_3\n      jumpi\n      dup1\n      0x60953744\n      eq\n      tag_4\n      jumpi\n      dup1\n      0x7afbe4f1\n      eq\n      tag_5\n      jumpi\n      dup1\n      0x9a03fe1d\n      eq\n      tag_6\n      jumpi\n    tag_2:\n      0x00\n      dup1\n      revert\n        /* \"Solidity100/sol100(91~100).sol\":1423:1587  function Sub(uint _a, uint _b) public pure returns(uint) {... */\n    tag_3:\n      tag_7\n      0x04\n      dup1\n      calldatasize\n      sub\n      dup2\n      add\n      swap1\n      tag_8\n      swap2\n      swap1\n      tag_9\n      jump\t// in\n    tag_8:\n      tag_10\n      jump\t// in\n    tag_7:\n      mload(0x40)\n      tag_11\n      swap2\n      swap1\n      tag_12\n      jump\t// in\n    tag_11:\n      mload(0x40)\n      dup1\n      swap2\n      sub\n      swap1\n      return\n        /* \"Solidity100/sol100(91~100).sol\":1593:1757  function Mul(uint _a, uint _b) public pure returns(uint) {... */\n    tag_4:\n      tag_13\n      0x04\n      dup1\n      calldatasize\n      sub\n      dup2\n      add\n      swap1\n      tag_14\n      swap2\n      swap1\n      tag_9\n      jump\t// in\n    tag_14:\n      tag_15\n      jump\t// in\n    tag_13:\n      mload(0x40)\n      tag_16\n      swap2\n      swap1\n      tag_12\n      jump\t// in\n    tag_16:\n      mload(0x40)\n      dup1\n      swap2\n      sub\n      swap1\n      return\n        /* \"Solidity100/sol100(91~100).sol\":1251:1415  function Add(uint _a, uint _b) public pure returns(uint) {... */\n    tag_5:\n      tag_17\n      0x04\n      dup1\n      calldatasize\n      sub\n      dup2\n      add\n      swap1\n      tag_18\n      swap2\n      swap1\n      tag_9\n      jump\t// in\n    tag_18:\n      tag_19\n      jump\t// in\n    tag_17:\n      mload(0x40)\n      tag_20\n      swap2\n      swap1\n      tag_12\n      jump\t// in\n    tag_20:\n      mload(0x40)\n      dup1\n      swap2\n      sub\n      swap1\n      return\n        /* \"Solidity100/sol100(91~100).sol\":1765:1929  function Div(uint _a, uint _b) public pure returns(uint) {... */\n    tag_6:\n      tag_21\n      0x04\n      dup1\n      calldatasize\n      sub\n      dup2\n      add\n      swap1\n      tag_22\n      swap2\n      swap1\n      tag_9\n      jump\t// in\n    tag_22:\n      tag_23\n      jump\t// in\n    tag_21:\n      mload(0x40)\n      tag_24\n      swap2\n      swap1\n      tag_12\n      jump\t// in\n    tag_24:\n      mload(0x40)\n      dup1\n      swap2\n      sub\n      swap1\n      return\n        /* \"Solidity100/sol100(91~100).sol\":1423:1587  function Sub(uint _a, uint _b) public pure returns(uint) {... */\n    tag_10:\n        /* \"Solidity100/sol100(91~100).sol\":1474:1478  uint */\n      0x00\n        /* \"Solidity100/sol100(91~100).sol\":1535:1537  _b */\n      dup2\n        /* \"Solidity100/sol100(91~100).sol\":1532:1534  _a */\n      dup4\n        /* \"Solidity100/sol100(91~100).sol\":1528:1538  sub(_a,_b) */\n      sub\n        /* \"Solidity100/sol100(91~100).sol\":1522:1526  0x80 */\n      0x80\n        /* \"Solidity100/sol100(91~100).sol\":1515:1539  mstore(0x80, sub(_a,_b)) */\n      mstore\n        /* \"Solidity100/sol100(91~100).sol\":1566:1568  32 */\n      0x20\n        /* \"Solidity100/sol100(91~100).sol\":1560:1564  0x80 */\n      0x80\n        /* \"Solidity100/sol100(91~100).sol\":1553:1569  return(0x80, 32) */\n      return\n        /* \"Solidity100/sol100(91~100).sol\":1593:1757  function Mul(uint _a, uint _b) public pure returns(uint) {... */\n    tag_15:\n        /* \"Solidity100/sol100(91~100).sol\":1644:1648  uint */\n      0x00\n        /* \"Solidity100/sol100(91~100).sol\":1705:1707  _b */\n      dup2\n        /* \"Solidity100/sol100(91~100).sol\":1702:1704  _a */\n      dup4\n        /* \"Solidity100/sol100(91~100).sol\":1698:1708  mul(_a,_b) */\n      mul\n        /* \"Solidity100/sol100(91~100).sol\":1692:1696  0x80 */\n      0x80\n        /* \"Solidity100/sol100(91~100).sol\":1685:1709  mstore(0x80, mul(_a,_b)) */\n      mstore\n        /* \"Solidity100/sol100(91~100).sol\":1736:1738  32 */\n      0x20\n        /* \"Solidity100/sol100(91~100).sol\":1730:1734  0x80 */\n      0x80\n        /* \"Solidity100/sol100(91~100).sol\":1723:1739  return(0x80, 32) */\n      return\n        /* \"Solidity100/sol100(91~100).sol\":1251:1415  function Add(uint _a, uint _b) public pure returns(uint) {... */\n    tag_19:\n        /* \"Solidity100/sol100(91~100).sol\":1302:1306  uint */\n      0x00\n        /* \"Solidity100/sol100(91~100).sol\":1363:1365  _b */\n      dup2\n        /* \"Solidity100/sol100(91~100).sol\":1360:1362  _a */\n      dup4\n        /* \"Solidity100/sol100(91~100).sol\":1356:1366  add(_a,_b) */\n      add\n        /* \"Solidity100/sol100(91~100).sol\":1350:1354  0x80 */\n      0x80\n        /* \"Solidity100/sol100(91~100).sol\":1343:1367  mstore(0x80, add(_a,_b)) */\n      mstore\n        /* \"Solidity100/sol100(91~100).sol\":1394:1396  32 */\n      0x20\n        /* \"Solidity100/sol100(91~100).sol\":1388:1392  0x80 */\n      0x80\n        /* \"Solidity100/sol100(91~100).sol\":1381:1397  return(0x80, 32) */\n      return\n        /* \"Solidity100/sol100(91~100).sol\":1765:1929  function Div(uint _a, uint _b) public pure returns(uint) {... */\n    tag_23:\n        /* \"Solidity100/sol100(91~100).sol\":1816:1820  uint */\n      0x00\n        /* \"Solidity100/sol100(91~100).sol\":1877:1879  _b */\n      dup2\n        /* \"Solidity100/sol100(91~100).sol\":1874:1876  _a */\n      dup4\n        /* \"Solidity100/sol100(91~100).sol\":1870:1880  div(_a,_b) */\n      div\n        /* \"Solidity100/sol100(91~100).sol\":1864:1868  0x80 */\n      0x80\n        /* \"Solidity100/sol100(91~100).sol\":1857:1881  mstore(0x80, div(_a,_b)) */\n      mstore\n        /* \"Solidity100/sol100(91~100).sol\":1908:1910  32 */\n      0x20\n        /* \"Solidity100/sol100(91~100).sol\":1902:1906  0x80 */\n      0x80\n        /* \"Solidity100/sol100(91~100).sol\":1895:1911  return(0x80, 32) */\n      return\n        /* \"#utility.yul\":88:205   */\n    tag_30:\n        /* \"#utility.yul\":197:198   */\n      0x00\n        /* \"#utility.yul\":194:195   */\n      dup1\n        /* \"#utility.yul\":187:199   */\n      revert\n        /* \"#utility.yul\":334:411   */\n    tag_32:\n        /* \"#utility.yul\":371:378   */\n      0x00\n        /* \"#utility.yul\":400:405   */\n      dup2\n        /* \"#utility.yul\":389:405   */\n      swap1\n      pop\n        /* \"#utility.yul\":334:411   */\n      swap2\n      swap1\n      pop\n      jump\t// out\n        /* \"#utility.yul\":417:539   */\n    tag_33:\n        /* \"#utility.yul\":490:514   */\n      tag_42\n        /* \"#utility.yul\":508:513   */\n      dup2\n        /* \"#utility.yul\":490:514   */\n      tag_32\n      jump\t// in\n    tag_42:\n        /* \"#utility.yul\":483:488   */\n      dup2\n        /* \"#utility.yul\":480:515   */\n      eq\n        /* \"#utility.yul\":470:533   */\n      tag_43\n      jumpi\n        /* \"#utility.yul\":529:530   */\n      0x00\n        /* \"#utility.yul\":526:527   */\n      dup1\n        /* \"#utility.yul\":519:531   */\n      revert\n        /* \"#utility.yul\":470:533   */\n    tag_43:\n        /* \"#utility.yul\":417:539   */\n      pop\n      jump\t// out\n        /* \"#utility.yul\":545:684   */\n    tag_34:\n        /* \"#utility.yul\":591:596   */\n      0x00\n        /* \"#utility.yul\":629:635   */\n      dup2\n        /* \"#utility.yul\":616:636   */\n      calldataload\n        /* \"#utility.yul\":607:636   */\n      swap1\n      pop\n        /* \"#utility.yul\":645:678   */\n      tag_45\n        /* \"#utility.yul\":672:677   */\n      dup2\n        /* \"#utility.yul\":645:678   */\n      tag_33\n      jump\t// in\n    tag_45:\n        /* \"#utility.yul\":545:684   */\n      swap3\n      swap2\n      pop\n      pop\n      jump\t// out\n        /* \"#utility.yul\":690:1164   */\n    tag_9:\n        /* \"#utility.yul\":758:764   */\n      0x00\n        /* \"#utility.yul\":766:772   */\n      dup1\n        /* \"#utility.yul\":815:817   */\n      0x40\n        /* \"#utility.yul\":803:812   */\n      dup4\n        /* \"#utility.yul\":794:801   */\n      dup6\n        /* \"#utility.yul\":790:813   */\n      sub\n        /* \"#utility.yul\":786:818   */\n      slt\n        /* \"#utility.yul\":783:902   */\n      iszero\n      tag_47\n      jumpi\n        /* \"#utility.yul\":821:900   */\n      tag_48\n      tag_30\n      jump\t// in\n    tag_48:\n        /* \"#utility.yul\":783:902   */\n    tag_47:\n        /* \"#utility.yul\":941:942   */\n      0x00\n        /* \"#utility.yul\":966:1019   */\n      tag_49\n        /* \"#utility.yul\":1011:1018   */\n      dup6\n        /* \"#utility.yul\":1002:1008   */\n      dup3\n        /* \"#utility.yul\":991:1000   */\n      dup7\n        /* \"#utility.yul\":987:1009   */\n      add\n        /* \"#utility.yul\":966:1019   */\n      tag_34\n      jump\t// in\n    tag_49:\n        /* \"#utility.yul\":956:1019   */\n      swap3\n      pop\n        /* \"#utility.yul\":912:1029   */\n      pop\n        /* \"#utility.yul\":1068:1070   */\n      0x20\n        /* \"#utility.yul\":1094:1147   */\n      tag_50\n        /* \"#utility.yul\":1139:1146   */\n      dup6\n        /* \"#utility.yul\":1130:1136   */\n      dup3\n        /* \"#utility.yul\":1119:1128   */\n      dup7\n        /* \"#utility.yul\":1115:1137   */\n      add\n        /* \"#utility.yul\":1094:1147   */\n      tag_34\n      jump\t// in\n    tag_50:\n        /* \"#utility.yul\":1084:1147   */\n      swap2\n      pop\n        /* \"#utility.yul\":1039:1157   */\n      pop\n        /* \"#utility.yul\":690:1164   */\n      swap3\n      pop\n      swap3\n      swap1\n      pop\n      jump\t// out\n        /* \"#utility.yul\":1170:1288   */\n    tag_35:\n        /* \"#utility.yul\":1257:1281   */\n      tag_52\n        /* \"#utility.yul\":1275:1280   */\n      dup2\n        /* \"#utility.yul\":1257:1281   */\n      tag_32\n      jump\t// in\n    tag_52:\n        /* \"#utility.yul\":1252:1255   */\n      dup3\n        /* \"#utility.yul\":1245:1282   */\n      mstore\n        /* \"#utility.yul\":1170:1288   */\n      pop\n      pop\n      jump\t// out\n        /* \"#utility.yul\":1294:1516   */\n    tag_12:\n        /* \"#utility.yul\":1387:1391   */\n      0x00\n        /* \"#utility.yul\":1425:1427   */\n      0x20\n        /* \"#utility.yul\":1414:1423   */\n      dup3\n        /* \"#utility.yul\":1410:1428   */\n      add\n        /* \"#utility.yul\":1402:1428   */\n      swap1\n      pop\n        /* \"#utility.yul\":1438:1509   */\n      tag_54\n        /* \"#utility.yul\":1506:1507   */\n      0x00\n        /* \"#utility.yul\":1495:1504   */\n      dup4\n        /* \"#utility.yul\":1491:1508   */\n      add\n        /* \"#utility.yul\":1482:1488   */\n      dup5\n        /* \"#utility.yul\":1438:1509   */\n      tag_35\n      jump\t// in\n    tag_54:\n        /* \"#utility.yul\":1294:1516   */\n      swap3\n      swap2\n      pop\n      pop\n      jump\t// out\n\n    auxdata: 0xa2646970667358221220bfffd9627b48264160a5e7789812b328b2e7616860a38a7e93bd5336aa7320ae64736f6c634300081a0033\n}\n",
				"bytecode": {
					"linkReferences": {},
					"object": "6080604052348015600e575f80fd5b506102158061001c5f395ff3fe608060405234801561000f575f80fd5b506004361061004a575f3560e01c80631ec9c2c01461004e578063609537441461007e5780637afbe4f1146100ae5780639a03fe1d146100de575b5f80fd5b61006860048036038101906100639190610179565b61010e565b60405161007591906101c6565b60405180910390f35b61009860048036038101906100939190610179565b61011b565b6040516100a591906101c6565b60405180910390f35b6100c860048036038101906100c39190610179565b610128565b6040516100d591906101c6565b60405180910390f35b6100f860048036038101906100f39190610179565b610135565b60405161010591906101c6565b60405180910390f35b5f81830360805260206080f35b5f81830260805260206080f35b5f81830160805260206080f35b5f81830460805260206080f35b5f80fd5b5f819050919050565b61015881610146565b8114610162575f80fd5b50565b5f813590506101738161014f565b92915050565b5f806040838503121561018f5761018e610142565b5b5f61019c85828601610165565b92505060206101ad85828601610165565b9150509250929050565b6101c081610146565b82525050565b5f6020820190506101d95f8301846101b7565b9291505056fea2646970667358221220bfffd9627b48264160a5e7789812b328b2e7616860a38a7e93bd5336aa7320ae64736f6c634300081a0033",
					"opcodes": "PUSH1 0x80 PUSH1 0x40 MSTORE CALLVALUE DUP1 ISZERO PUSH1 0xE JUMPI PUSH0 DUP1 REVERT JUMPDEST POP PUSH2 0x215 DUP1 PUSH2 0x1C PUSH0 CODECOPY PUSH0 RETURN INVALID PUSH1 0x80 PUSH1 0x40 MSTORE CALLVALUE DUP1 ISZERO PUSH2 0xF JUMPI PUSH0 DUP1 REVERT JUMPDEST POP PUSH1 0x4 CALLDATASIZE LT PUSH2 0x4A JUMPI PUSH0 CALLDATALOAD PUSH1 0xE0 SHR DUP1 PUSH4 0x1EC9C2C0 EQ PUSH2 0x4E JUMPI DUP1 PUSH4 0x60953744 EQ PUSH2 0x7E JUMPI DUP1 PUSH4 0x7AFBE4F1 EQ PUSH2 0xAE JUMPI DUP1 PUSH4 0x9A03FE1D EQ PUSH2 0xDE JUMPI JUMPDEST PUSH0 DUP1 REVERT JUMPDEST PUSH2 0x68 PUSH1 0x4 DUP1 CALLDATASIZE SUB DUP2 ADD SWAP1 PUSH2 0x63 SWAP2 SWAP1 PUSH2 0x179 JUMP JUMPDEST PUSH2 0x10E JUMP JUMPDEST PUSH1 0x40 MLOAD PUSH2 0x75 SWAP2 SWAP1 PUSH2 0x1C6 JUMP JUMPDEST PUSH1 0x40 MLOAD DUP1 SWAP2 SUB SWAP1 RETURN JUMPDEST PUSH2 0x98 PUSH1 0x4 DUP1 CALLDATASIZE SUB DUP2 ADD SWAP1 PUSH2 0x93 SWAP2 SWAP1 PUSH2 0x179 JUMP JUMPDEST PUSH2 0x11B JUMP JUMPDEST PUSH1 0x40 MLOAD PUSH2 0xA5 SWAP2 SWAP1 PUSH2 0x1C6 JUMP JUMPDEST PUSH1 0x40 MLOAD DUP1 SWAP2 SUB SWAP1 RETURN JUMPDEST PUSH2 0xC8 PUSH1 0x4 DUP1 CALLDATASIZE SUB DUP2 ADD SWAP1 PUSH2 0xC3 SWAP2 SWAP1 PUSH2 0x179 JUMP JUMPDEST PUSH2 0x128 JUMP JUMPDEST PUSH1 0x40 MLOAD PUSH2 0xD5 SWAP2 SWAP1 PUSH2 0x1C6 JUMP JUMPDEST PUSH1 0x40 MLOAD DUP1 SWAP2 SUB SWAP1 RETURN JUMPDEST PUSH2 0xF8 PUSH1 0x4 DUP1 CALLDATASIZE SUB DUP2 ADD SWAP1 PUSH2 0xF3 SWAP2 SWAP1 PUSH2 0x179 JUMP JUMPDEST PUSH2 0x135 JUMP JUMPDEST PUSH1 0x40 MLOAD PUSH2 0x105 SWAP2 SWAP1 PUSH2 0x1C6 JUMP JUMPDEST PUSH1 0x40 MLOAD DUP1 SWAP2 SUB SWAP1 RETURN JUMPDEST PUSH0 DUP2 DUP4 SUB PUSH1 0x80 MSTORE PUSH1 0x20 PUSH1 0x80 RETURN JUMPDEST PUSH0 DUP2 DUP4 MUL PUSH1 0x80 MSTORE PUSH1 0x20 PUSH1 0x80 RETURN JUMPDEST PUSH0 DUP2 DUP4 ADD PUSH1 0x80 MSTORE PUSH1 0x20 PUSH1 0x80 RETURN JUMPDEST PUSH0 DUP2 DUP4 DIV PUSH1 0x80 MSTORE PUSH1 0x20 PUSH1 0x80 RETURN JUMPDEST PUSH0 DUP1 REVERT JUMPDEST PUSH0 DUP2 SWAP1 POP SWAP2 SWAP1 POP JUMP JUMPDEST PUSH2 0x158 DUP2 PUSH2 0x146 JUMP JUMPDEST DUP2 EQ PUSH2 0x162 JUMPI PUSH0 DUP1 REVERT JUMPDEST POP JUMP JUMPDEST PUSH0 DUP2 CALLDATALOAD SWAP1 POP PUSH2 0x173 DUP2 PUSH2 0x14F JUMP JUMPDEST SWAP3 SWAP2 POP POP JUMP JUMPDEST PUSH0 DUP1 PUSH1 0x40 DUP4 DUP6 SUB SLT ISZERO PUSH2 0x18F JUMPI PUSH2 0x18E PUSH2 0x142 JUMP JUMPDEST JUMPDEST PUSH0 PUSH2 0x19C DUP6 DUP3 DUP7 ADD PUSH2 0x165 JUMP JUMPDEST SWAP3 POP POP PUSH1 0x20 PUSH2 0x1AD DUP6 DUP3 DUP7 ADD PUSH2 0x165 JUMP JUMPDEST SWAP2 POP POP SWAP3 POP SWAP3 SWAP1 POP JUMP JUMPDEST PUSH2 0x1C0 DUP2 PUSH2 0x146 JUMP JUMPDEST DUP3 MSTORE POP POP JUMP JUMPDEST PUSH0 PUSH1 0x20 DUP3 ADD SWAP1 POP PUSH2 0x1D9 PUSH0 DUP4 ADD DUP5 PUSH2 0x1B7 JUMP JUMPDEST SWAP3 SWAP2 POP POP JUMP INVALID LOG2 PUSH5 0x6970667358 0x22 SLT KECCAK256 0xBF SELFDESTRUCT 0xD9 PUSH3 0x7B4826 COINBASE PUSH1 0xA5 0xE7 PUSH25 0x9812B328B2E7616860A38A7E93BD5336AA7320AE64736F6C63 NUMBER STOP ADDMOD BYTE STOP CALLER "
				},
				"gasEstimates": {
					"creation": {
						"codeDepositCost": "106600",
						"executionCost": "151",
						"totalCost": "106751"
					},
					"external": {
						"Add(uint256,uint256)": "infinite",
						"Div(uint256,uint256)": "infinite",
						"Mul(uint256,uint256)": "infinite",
						"Sub(uint256,uint256)": "infinite"
					}
				},
				"methodIdentifiers": {
					"Add(uint256,uint256)": "7afbe4f1",
					"Div(uint256,uint256)": "9a03fe1d",
					"Mul(uint256,uint256)": "60953744",
					"Sub(uint256,uint256)": "1ec9c2c0"
				}
			},
			"storageLayout": {
				"storage": [],
				"types": null
			},
			"userdoc": {
				"kind": "user",
				"methods": {},
				"version": 1
			}
		}
	}
}