{
	"Solidity100/sol100(91~100).sol": {
		"Q97": {
			"abi": [
				{
					"inputs": [
						{
							"internalType": "uint256",
							"name": "",
							"type": "uint256"
						}
					],
					"name": "num",
					"outputs": [
						{
							"internalType": "uint256",
							"name": "",
							"type": "uint256"
						}
					],
					"stateMutability": "view",
					"type": "function"
				},
				{
					"inputs": [],
					"name": "pop",
					"outputs": [],
					"stateMutability": "nonpayable",
					"type": "function"
				},
				{
					"inputs": [
						{
							"internalType": "uint256",
							"name": "n",
							"type": "uint256"
						}
					],
					"name": "push",
					"outputs": [],
					"stateMutability": "nonpayable",
					"type": "function"
				}
			],
			"devdoc": {
				"kind": "dev",
				"methods": {},
				"version": 1
			},
			"evm": {
				"assembly": "    /* \"Solidity100/sol100(91~100).sol\":3272:4059  contract Q97 {... */\n  mstore(0x40, 0x80)\n  callvalue\n  dup1\n  iszero\n  tag_1\n  jumpi\n  0x00\n  dup1\n  revert\ntag_1:\n  pop\n  dataSize(sub_0)\n  dup1\n  dataOffset(sub_0)\n  0x00\n  codecopy\n  0x00\n  return\nstop\n\nsub_0: assembly {\n        /* \"Solidity100/sol100(91~100).sol\":3272:4059  contract Q97 {... */\n      mstore(0x40, 0x80)\n      callvalue\n      dup1\n      iszero\n      tag_1\n      jumpi\n      0x00\n      dup1\n      revert\n    tag_1:\n      pop\n      jumpi(tag_2, lt(calldatasize, 0x04))\n      shr(0xe0, calldataload(0x00))\n      dup1\n      0x959ac484\n      eq\n      tag_3\n      jumpi\n      dup1\n      0xa4ece52c\n      eq\n      tag_4\n      jumpi\n      dup1\n      0xaa228b75\n      eq\n      tag_5\n      jumpi\n    tag_2:\n      0x00\n      dup1\n      revert\n        /* \"Solidity100/sol100(91~100).sol\":3476:3762  function push(uint n) public {... */\n    tag_3:\n      tag_6\n      0x04\n      dup1\n      calldatasize\n      sub\n      dup2\n      add\n      swap1\n      tag_7\n      swap2\n      swap1\n      tag_8\n      jump\t// in\n    tag_7:\n      tag_9\n      jump\t// in\n    tag_6:\n      stop\n        /* \"Solidity100/sol100(91~100).sol\":3770:4054  function pop() public {... */\n    tag_4:\n      tag_10\n      tag_11\n      jump\t// in\n    tag_10:\n      stop\n        /* \"Solidity100/sol100(91~100).sol\":3450:3467  uint[] public num */\n    tag_5:\n      tag_12\n      0x04\n      dup1\n      calldatasize\n      sub\n      dup2\n      add\n      swap1\n      tag_13\n      swap2\n      swap1\n      tag_8\n      jump\t// in\n    tag_13:\n      tag_14\n      jump\t// in\n    tag_12:\n      mload(0x40)\n      tag_15\n      swap2\n      swap1\n      tag_16\n      jump\t// in\n    tag_15:\n      mload(0x40)\n      dup1\n      swap2\n      sub\n      swap1\n      return\n        /* \"Solidity100/sol100(91~100).sol\":3476:3762  function push(uint n) public {... */\n    tag_9:\n        /* \"Solidity100/sol100(91~100).sol\":3560:3568  num.slot */\n      0x00\n        /* \"Solidity100/sol100(91~100).sol\":3554:3569  sload(num.slot) */\n      sload\n        /* \"Solidity100/sol100(91~100).sol\":3595:3603  num.slot */\n      0x00\n        /* \"Solidity100/sol100(91~100).sol\":3590:3593  0x0 */\n      dup1\n        /* \"Solidity100/sol100(91~100).sol\":3583:3604  mstore(0x0, num.slot) */\n      mstore\n        /* \"Solidity100/sol100(91~100).sol\":3659:3665  length */\n      dup1\n        /* \"Solidity100/sol100(91~100).sol\":3652:3656  0x20 */\n      0x20\n        /* \"Solidity100/sol100(91~100).sol\":3647:3650  0x0 */\n      0x00\n        /* \"Solidity100/sol100(91~100).sol\":3637:3657  keccak256(0x0, 0x20) */\n      keccak256\n        /* \"Solidity100/sol100(91~100).sol\":3633:3666  add(keccak256(0x0, 0x20), length) */\n      add\n        /* \"Solidity100/sol100(91~100).sol\":3696:3697  n */\n      dup3\n        /* \"Solidity100/sol100(91~100).sol\":3689:3694  nslot */\n      dup2\n        /* \"Solidity100/sol100(91~100).sol\":3682:3698  sstore(nslot, n) */\n      sstore\n        /* \"Solidity100/sol100(91~100).sol\":3741:3742  1 */\n      0x01\n        /* \"Solidity100/sol100(91~100).sol\":3733:3739  length */\n      dup3\n        /* \"Solidity100/sol100(91~100).sol\":3729:3743  add(length, 1) */\n      add\n        /* \"Solidity100/sol100(91~100).sol\":3719:3727  num.slot */\n      0x00\n        /* \"Solidity100/sol100(91~100).sol\":3712:3744  sstore(num.slot, add(length, 1)) */\n      sstore\n        /* \"Solidity100/sol100(91~100).sol\":3525:3755  {... */\n      pop\n      pop\n        /* \"Solidity100/sol100(91~100).sol\":3476:3762  function push(uint n) public {... */\n      pop\n      jump\t// out\n        /* \"Solidity100/sol100(91~100).sol\":3770:4054  function pop() public {... */\n    tag_11:\n        /* \"Solidity100/sol100(91~100).sol\":3847:3855  num.slot */\n      0x00\n        /* \"Solidity100/sol100(91~100).sol\":3841:3856  sload(num.slot) */\n      sload\n        /* \"Solidity100/sol100(91~100).sol\":3882:3890  num.slot */\n      0x00\n        /* \"Solidity100/sol100(91~100).sol\":3877:3880  0x0 */\n      dup1\n        /* \"Solidity100/sol100(91~100).sol\":3870:3891  mstore(0x0, num.slot) */\n      mstore\n        /* \"Solidity100/sol100(91~100).sol\":3956:3957  1 */\n      0x01\n        /* \"Solidity100/sol100(91~100).sol\":3948:3954  length */\n      dup2\n        /* \"Solidity100/sol100(91~100).sol\":3944:3958  sub(length, 1) */\n      sub\n        /* \"Solidity100/sol100(91~100).sol\":3937:3941  0x20 */\n      0x20\n        /* \"Solidity100/sol100(91~100).sol\":3933:3936  0x0 */\n      0x00\n        /* \"Solidity100/sol100(91~100).sol\":3923:3942  keccak256(0x0,0x20) */\n      keccak256\n        /* \"Solidity100/sol100(91~100).sol\":3919:3959  add(keccak256(0x0,0x20), sub(length, 1)) */\n      add\n        /* \"Solidity100/sol100(91~100).sol\":3988:3989  0 */\n      0x00\n        /* \"Solidity100/sol100(91~100).sol\":3982:3986  slot */\n      dup2\n        /* \"Solidity100/sol100(91~100).sol\":3975:3990  sstore(slot, 0) */\n      sstore\n        /* \"Solidity100/sol100(91~100).sol\":4033:4034  1 */\n      0x01\n        /* \"Solidity100/sol100(91~100).sol\":4025:4031  length */\n      dup3\n        /* \"Solidity100/sol100(91~100).sol\":4021:4035  sub(length, 1) */\n      sub\n        /* \"Solidity100/sol100(91~100).sol\":4011:4019  num.slot */\n      0x00\n        /* \"Solidity100/sol100(91~100).sol\":4004:4036  sstore(num.slot, sub(length, 1)) */\n      sstore\n        /* \"Solidity100/sol100(91~100).sol\":3812:4047  {... */\n      pop\n      pop\n        /* \"Solidity100/sol100(91~100).sol\":3770:4054  function pop() public {... */\n      jump\t// out\n        /* \"Solidity100/sol100(91~100).sol\":3450:3467  uint[] public num */\n    tag_14:\n      0x00\n      dup2\n      dup2\n      sload\n      dup2\n      lt\n      tag_19\n      jumpi\n      0x00\n      dup1\n      revert\n    tag_19:\n      swap1\n      0x00\n      mstore\n      keccak256(0x00, 0x20)\n      add\n      0x00\n      swap2\n      pop\n      swap1\n      pop\n      sload\n      dup2\n      jump\t// out\n        /* \"#utility.yul\":88:205   */\n    tag_22:\n        /* \"#utility.yul\":197:198   */\n      0x00\n        /* \"#utility.yul\":194:195   */\n      dup1\n        /* \"#utility.yul\":187:199   */\n      revert\n        /* \"#utility.yul\":334:411   */\n    tag_24:\n        /* \"#utility.yul\":371:378   */\n      0x00\n        /* \"#utility.yul\":400:405   */\n      dup2\n        /* \"#utility.yul\":389:405   */\n      swap1\n      pop\n        /* \"#utility.yul\":334:411   */\n      swap2\n      swap1\n      pop\n      jump\t// out\n        /* \"#utility.yul\":417:539   */\n    tag_25:\n        /* \"#utility.yul\":490:514   */\n      tag_34\n        /* \"#utility.yul\":508:513   */\n      dup2\n        /* \"#utility.yul\":490:514   */\n      tag_24\n      jump\t// in\n    tag_34:\n        /* \"#utility.yul\":483:488   */\n      dup2\n        /* \"#utility.yul\":480:515   */\n      eq\n        /* \"#utility.yul\":470:533   */\n      tag_35\n      jumpi\n        /* \"#utility.yul\":529:530   */\n      0x00\n        /* \"#utility.yul\":526:527   */\n      dup1\n        /* \"#utility.yul\":519:531   */\n      revert\n        /* \"#utility.yul\":470:533   */\n    tag_35:\n        /* \"#utility.yul\":417:539   */\n      pop\n      jump\t// out\n        /* \"#utility.yul\":545:684   */\n    tag_26:\n        /* \"#utility.yul\":591:596   */\n      0x00\n        /* \"#utility.yul\":629:635   */\n      dup2\n        /* \"#utility.yul\":616:636   */\n      calldataload\n        /* \"#utility.yul\":607:636   */\n      swap1\n      pop\n        /* \"#utility.yul\":645:678   */\n      tag_37\n        /* \"#utility.yul\":672:677   */\n      dup2\n        /* \"#utility.yul\":645:678   */\n      tag_25\n      jump\t// in\n    tag_37:\n        /* \"#utility.yul\":545:684   */\n      swap3\n      swap2\n      pop\n      pop\n      jump\t// out\n        /* \"#utility.yul\":690:1019   */\n    tag_8:\n        /* \"#utility.yul\":749:755   */\n      0x00\n        /* \"#utility.yul\":798:800   */\n      0x20\n        /* \"#utility.yul\":786:795   */\n      dup3\n        /* \"#utility.yul\":777:784   */\n      dup5\n        /* \"#utility.yul\":773:796   */\n      sub\n        /* \"#utility.yul\":769:801   */\n      slt\n        /* \"#utility.yul\":766:885   */\n      iszero\n      tag_39\n      jumpi\n        /* \"#utility.yul\":804:883   */\n      tag_40\n      tag_22\n      jump\t// in\n    tag_40:\n        /* \"#utility.yul\":766:885   */\n    tag_39:\n        /* \"#utility.yul\":924:925   */\n      0x00\n        /* \"#utility.yul\":949:1002   */\n      tag_41\n        /* \"#utility.yul\":994:1001   */\n      dup5\n        /* \"#utility.yul\":985:991   */\n      dup3\n        /* \"#utility.yul\":974:983   */\n      dup6\n        /* \"#utility.yul\":970:992   */\n      add\n        /* \"#utility.yul\":949:1002   */\n      tag_26\n      jump\t// in\n    tag_41:\n        /* \"#utility.yul\":939:1002   */\n      swap2\n      pop\n        /* \"#utility.yul\":895:1012   */\n      pop\n        /* \"#utility.yul\":690:1019   */\n      swap3\n      swap2\n      pop\n      pop\n      jump\t// out\n        /* \"#utility.yul\":1025:1143   */\n    tag_27:\n        /* \"#utility.yul\":1112:1136   */\n      tag_43\n        /* \"#utility.yul\":1130:1135   */\n      dup2\n        /* \"#utility.yul\":1112:1136   */\n      tag_24\n      jump\t// in\n    tag_43:\n        /* \"#utility.yul\":1107:1110   */\n      dup3\n        /* \"#utility.yul\":1100:1137   */\n      mstore\n        /* \"#utility.yul\":1025:1143   */\n      pop\n      pop\n      jump\t// out\n        /* \"#utility.yul\":1149:1371   */\n    tag_16:\n        /* \"#utility.yul\":1242:1246   */\n      0x00\n        /* \"#utility.yul\":1280:1282   */\n      0x20\n        /* \"#utility.yul\":1269:1278   */\n      dup3\n        /* \"#utility.yul\":1265:1283   */\n      add\n        /* \"#utility.yul\":1257:1283   */\n      swap1\n      pop\n        /* \"#utility.yul\":1293:1364   */\n      tag_45\n        /* \"#utility.yul\":1361:1362   */\n      0x00\n        /* \"#utility.yul\":1350:1359   */\n      dup4\n        /* \"#utility.yul\":1346:1363   */\n      add\n        /* \"#utility.yul\":1337:1343   */\n      dup5\n        /* \"#utility.yul\":1293:1364   */\n      tag_27\n      jump\t// in\n    tag_45:\n        /* \"#utility.yul\":1149:1371   */\n      swap3\n      swap2\n      pop\n      pop\n      jump\t// out\n\n    auxdata: 0xa2646970667358221220716e5fb7e8a393aa4a87d1876f767fe2909de844df39b0b620ca6d4dd90ba9a264736f6c634300081a0033\n}\n",
				"bytecode": {
					"linkReferences": {},
					"object": "6080604052348015600e575f80fd5b506101ac8061001c5f395ff3fe608060405234801561000f575f80fd5b506004361061003f575f3560e01c8063959ac48414610043578063a4ece52c1461005f578063aa228b7514610069575b5f80fd5b61005d60048036038101906100589190610123565b610099565b005b6100676100b2565b005b610083600480360381019061007e9190610123565b6100cd565b604051610090919061015d565b60405180910390f35b5f545f80528060205f2001828155600182015f55505050565b5f545f80526001810360205f20015f8155600182035f555050565b5f81815481106100db575f80fd5b905f5260205f20015f915090505481565b5f80fd5b5f819050919050565b610102816100f0565b811461010c575f80fd5b50565b5f8135905061011d816100f9565b92915050565b5f60208284031215610138576101376100ec565b5b5f6101458482850161010f565b91505092915050565b610157816100f0565b82525050565b5f6020820190506101705f83018461014e565b9291505056fea2646970667358221220716e5fb7e8a393aa4a87d1876f767fe2909de844df39b0b620ca6d4dd90ba9a264736f6c634300081a0033",
					"opcodes": "PUSH1 0x80 PUSH1 0x40 MSTORE CALLVALUE DUP1 ISZERO PUSH1 0xE JUMPI PUSH0 DUP1 REVERT JUMPDEST POP PUSH2 0x1AC DUP1 PUSH2 0x1C PUSH0 CODECOPY PUSH0 RETURN INVALID PUSH1 0x80 PUSH1 0x40 MSTORE CALLVALUE DUP1 ISZERO PUSH2 0xF JUMPI PUSH0 DUP1 REVERT JUMPDEST POP PUSH1 0x4 CALLDATASIZE LT PUSH2 0x3F JUMPI PUSH0 CALLDATALOAD PUSH1 0xE0 SHR DUP1 PUSH4 0x959AC484 EQ PUSH2 0x43 JUMPI DUP1 PUSH4 0xA4ECE52C EQ PUSH2 0x5F JUMPI DUP1 PUSH4 0xAA228B75 EQ PUSH2 0x69 JUMPI JUMPDEST PUSH0 DUP1 REVERT JUMPDEST PUSH2 0x5D PUSH1 0x4 DUP1 CALLDATASIZE SUB DUP2 ADD SWAP1 PUSH2 0x58 SWAP2 SWAP1 PUSH2 0x123 JUMP JUMPDEST PUSH2 0x99 JUMP JUMPDEST STOP JUMPDEST PUSH2 0x67 PUSH2 0xB2 JUMP JUMPDEST STOP JUMPDEST PUSH2 0x83 PUSH1 0x4 DUP1 CALLDATASIZE SUB DUP2 ADD SWAP1 PUSH2 0x7E SWAP2 SWAP1 PUSH2 0x123 JUMP JUMPDEST PUSH2 0xCD JUMP JUMPDEST PUSH1 0x40 MLOAD PUSH2 0x90 SWAP2 SWAP1 PUSH2 0x15D JUMP JUMPDEST PUSH1 0x40 MLOAD DUP1 SWAP2 SUB SWAP1 RETURN JUMPDEST PUSH0 SLOAD PUSH0 DUP1 MSTORE DUP1 PUSH1 0x20 PUSH0 KECCAK256 ADD DUP3 DUP2 SSTORE PUSH1 0x1 DUP3 ADD PUSH0 SSTORE POP POP POP JUMP JUMPDEST PUSH0 SLOAD PUSH0 DUP1 MSTORE PUSH1 0x1 DUP2 SUB PUSH1 0x20 PUSH0 KECCAK256 ADD PUSH0 DUP2 SSTORE PUSH1 0x1 DUP3 SUB PUSH0 SSTORE POP POP JUMP JUMPDEST PUSH0 DUP2 DUP2 SLOAD DUP2 LT PUSH2 0xDB JUMPI PUSH0 DUP1 REVERT JUMPDEST SWAP1 PUSH0 MSTORE PUSH1 0x20 PUSH0 KECCAK256 ADD PUSH0 SWAP2 POP SWAP1 POP SLOAD DUP2 JUMP JUMPDEST PUSH0 DUP1 REVERT JUMPDEST PUSH0 DUP2 SWAP1 POP SWAP2 SWAP1 POP JUMP JUMPDEST PUSH2 0x102 DUP2 PUSH2 0xF0 JUMP JUMPDEST DUP2 EQ PUSH2 0x10C JUMPI PUSH0 DUP1 REVERT JUMPDEST POP JUMP JUMPDEST PUSH0 DUP2 CALLDATALOAD SWAP1 POP PUSH2 0x11D DUP2 PUSH2 0xF9 JUMP JUMPDEST SWAP3 SWAP2 POP POP JUMP JUMPDEST PUSH0 PUSH1 0x20 DUP3 DUP5 SUB SLT ISZERO PUSH2 0x138 JUMPI PUSH2 0x137 PUSH2 0xEC JUMP JUMPDEST JUMPDEST PUSH0 PUSH2 0x145 DUP5 DUP3 DUP6 ADD PUSH2 0x10F JUMP JUMPDEST SWAP2 POP POP SWAP3 SWAP2 POP POP JUMP JUMPDEST PUSH2 0x157 DUP2 PUSH2 0xF0 JUMP JUMPDEST DUP3 MSTORE POP POP JUMP JUMPDEST PUSH0 PUSH1 0x20 DUP3 ADD SWAP1 POP PUSH2 0x170 PUSH0 DUP4 ADD DUP5 PUSH2 0x14E JUMP JUMPDEST SWAP3 SWAP2 POP POP JUMP INVALID LOG2 PUSH5 0x6970667358 0x22 SLT KECCAK256 PUSH18 0x6E5FB7E8A393AA4A87D1876F767FE2909DE8 PREVRANDAO 0xDF CODECOPY 0xB0 0xB6 KECCAK256 0xCA PUSH14 0x4DD90BA9A264736F6C634300081A STOP CALLER "
				},
				"gasEstimates": {
					"creation": {
						"codeDepositCost": "85600",
						"executionCost": "133",
						"totalCost": "85733"
					},
					"external": {
						"num(uint256)": "infinite",
						"pop()": "29426",
						"push(uint256)": "46757"
					}
				},
				"methodIdentifiers": {
					"num(uint256)": "aa228b75",
					"pop()": "a4ece52c",
					"push(uint256)": "959ac484"
				}
			},
			"storageLayout": {
				"storage": [
					{
						"astId": 188,
						"contract": "Solidity100/sol100(91~100).sol:Q97",
						"label": "num",
						"offset": 0,
						"slot": "0",
						"type": "t_array(t_uint256)dyn_storage"
					}
				],
				"types": {
					"t_array(t_uint256)dyn_storage": {
						"base": "t_uint256",
						"encoding": "dynamic_array",
						"label": "uint256[]",
						"numberOfBytes": "32"
					},
					"t_uint256": {
						"encoding": "inplace",
						"label": "uint256",
						"numberOfBytes": "32"
					}
				}
			},
			"userdoc": {
				"kind": "user",
				"methods": {},
				"version": 1
			}
		}
	}
}