{
	"data": {
		"bytecode": {
			"linkReferences": {},
			"object": "6080604052348015600e575f80fd5b506103768061001c5f395ff3fe608060405234801561000f575f80fd5b5060043610610055575f3560e01c80630dda8efb146100595780635fad14d91461008b5780637d81b30f146100bb578063b76becab146100ed578063cbabd4ee1461011d575b5f80fd5b610073600480360381019061006e91906101f1565b61014d565b60405161008293929190610264565b60405180910390f35b6100a560048036038101906100a09190610299565b610175565b6040516100b291906102d7565b60405180910390f35b6100d560048036038101906100d091906102f0565b610181565b6040516100e493929190610264565b60405180910390f35b61010760048036038101906101029190610299565b6101a2565b60405161011491906102d7565b60405180910390f35b61013760048036038101906101329190610299565b6101ae565b60405161014491906102d7565b60405180910390f35b5f805f838587891616168486888a1717178587898b1818189250925092509450945094915050565b5f818318905092915050565b5f805f83858716168486881717858789181892509250925093509350939050565b5f818316905092915050565b5f818317905092915050565b5f80fd5b5f819050919050565b6101d0816101be565b81146101da575f80fd5b50565b5f813590506101eb816101c7565b92915050565b5f805f8060808587031215610209576102086101ba565b5b5f610216878288016101dd565b9450506020610227878288016101dd565b9350506040610238878288016101dd565b9250506060610249878288016101dd565b91505092959194509250565b61025e816101be565b82525050565b5f6060820190506102775f830186610255565b6102846020830185610255565b6102916040830184610255565b949350505050565b5f80604083850312156102af576102ae6101ba565b5b5f6102bc858286016101dd565b92505060206102cd858286016101dd565b9150509250929050565b5f6020820190506102ea5f830184610255565b92915050565b5f805f60608486031215610307576103066101ba565b5b5f610314868287016101dd565b9350506020610325868287016101dd565b9250506040610336868287016101dd565b915050925092509256fea26469706673582212206539afb8f6dda747d20f46554d3095226c22fafa9ea2d5ff046fe5d41916102164736f6c634300081a0033",
			"opcodes": "PUSH1 0x80 PUSH1 0x40 MSTORE CALLVALUE DUP1 ISZERO PUSH1 0xE JUMPI PUSH0 DUP1 REVERT JUMPDEST POP PUSH2 0x376 DUP1 PUSH2 0x1C PUSH0 CODECOPY PUSH0 RETURN INVALID PUSH1 0x80 PUSH1 0x40 MSTORE CALLVALUE DUP1 ISZERO PUSH2 0xF JUMPI PUSH0 DUP1 REVERT JUMPDEST POP PUSH1 0x4 CALLDATASIZE LT PUSH2 0x55 JUMPI PUSH0 CALLDATALOAD PUSH1 0xE0 SHR DUP1 PUSH4 0xDDA8EFB EQ PUSH2 0x59 JUMPI DUP1 PUSH4 0x5FAD14D9 EQ PUSH2 0x8B JUMPI DUP1 PUSH4 0x7D81B30F EQ PUSH2 0xBB JUMPI DUP1 PUSH4 0xB76BECAB EQ PUSH2 0xED JUMPI DUP1 PUSH4 0xCBABD4EE EQ PUSH2 0x11D JUMPI JUMPDEST PUSH0 DUP1 REVERT JUMPDEST PUSH2 0x73 PUSH1 0x4 DUP1 CALLDATASIZE SUB DUP2 ADD SWAP1 PUSH2 0x6E SWAP2 SWAP1 PUSH2 0x1F1 JUMP JUMPDEST PUSH2 0x14D JUMP JUMPDEST PUSH1 0x40 MLOAD PUSH2 0x82 SWAP4 SWAP3 SWAP2 SWAP1 PUSH2 0x264 JUMP JUMPDEST PUSH1 0x40 MLOAD DUP1 SWAP2 SUB SWAP1 RETURN JUMPDEST PUSH2 0xA5 PUSH1 0x4 DUP1 CALLDATASIZE SUB DUP2 ADD SWAP1 PUSH2 0xA0 SWAP2 SWAP1 PUSH2 0x299 JUMP JUMPDEST PUSH2 0x175 JUMP JUMPDEST PUSH1 0x40 MLOAD PUSH2 0xB2 SWAP2 SWAP1 PUSH2 0x2D7 JUMP JUMPDEST PUSH1 0x40 MLOAD DUP1 SWAP2 SUB SWAP1 RETURN JUMPDEST PUSH2 0xD5 PUSH1 0x4 DUP1 CALLDATASIZE SUB DUP2 ADD SWAP1 PUSH2 0xD0 SWAP2 SWAP1 PUSH2 0x2F0 JUMP JUMPDEST PUSH2 0x181 JUMP JUMPDEST PUSH1 0x40 MLOAD PUSH2 0xE4 SWAP4 SWAP3 SWAP2 SWAP1 PUSH2 0x264 JUMP JUMPDEST PUSH1 0x40 MLOAD DUP1 SWAP2 SUB SWAP1 RETURN JUMPDEST PUSH2 0x107 PUSH1 0x4 DUP1 CALLDATASIZE SUB DUP2 ADD SWAP1 PUSH2 0x102 SWAP2 SWAP1 PUSH2 0x299 JUMP JUMPDEST PUSH2 0x1A2 JUMP JUMPDEST PUSH1 0x40 MLOAD PUSH2 0x114 SWAP2 SWAP1 PUSH2 0x2D7 JUMP JUMPDEST PUSH1 0x40 MLOAD DUP1 SWAP2 SUB SWAP1 RETURN JUMPDEST PUSH2 0x137 PUSH1 0x4 DUP1 CALLDATASIZE SUB DUP2 ADD SWAP1 PUSH2 0x132 SWAP2 SWAP1 PUSH2 0x299 JUMP JUMPDEST PUSH2 0x1AE JUMP JUMPDEST PUSH1 0x40 MLOAD PUSH2 0x144 SWAP2 SWAP1 PUSH2 0x2D7 JUMP JUMPDEST PUSH1 0x40 MLOAD DUP1 SWAP2 SUB SWAP1 RETURN JUMPDEST PUSH0 DUP1 PUSH0 DUP4 DUP6 DUP8 DUP10 AND AND AND DUP5 DUP7 DUP9 DUP11 OR OR OR DUP6 DUP8 DUP10 DUP12 XOR XOR XOR SWAP3 POP SWAP3 POP SWAP3 POP SWAP5 POP SWAP5 POP SWAP5 SWAP2 POP POP JUMP JUMPDEST PUSH0 DUP2 DUP4 XOR SWAP1 POP SWAP3 SWAP2 POP POP JUMP JUMPDEST PUSH0 DUP1 PUSH0 DUP4 DUP6 DUP8 AND AND DUP5 DUP7 DUP9 OR OR DUP6 DUP8 DUP10 XOR XOR SWAP3 POP SWAP3 POP SWAP3 POP SWAP4 POP SWAP4 POP SWAP4 SWAP1 POP JUMP JUMPDEST PUSH0 DUP2 DUP4 AND SWAP1 POP SWAP3 SWAP2 POP POP JUMP JUMPDEST PUSH0 DUP2 DUP4 OR SWAP1 POP SWAP3 SWAP2 POP POP JUMP JUMPDEST PUSH0 DUP1 REVERT JUMPDEST PUSH0 DUP2 SWAP1 POP SWAP2 SWAP1 POP JUMP JUMPDEST PUSH2 0x1D0 DUP2 PUSH2 0x1BE JUMP JUMPDEST DUP2 EQ PUSH2 0x1DA JUMPI PUSH0 DUP1 REVERT JUMPDEST POP JUMP JUMPDEST PUSH0 DUP2 CALLDATALOAD SWAP1 POP PUSH2 0x1EB DUP2 PUSH2 0x1C7 JUMP JUMPDEST SWAP3 SWAP2 POP POP JUMP JUMPDEST PUSH0 DUP1 PUSH0 DUP1 PUSH1 0x80 DUP6 DUP8 SUB SLT ISZERO PUSH2 0x209 JUMPI PUSH2 0x208 PUSH2 0x1BA JUMP JUMPDEST JUMPDEST PUSH0 PUSH2 0x216 DUP8 DUP3 DUP9 ADD PUSH2 0x1DD JUMP JUMPDEST SWAP5 POP POP PUSH1 0x20 PUSH2 0x227 DUP8 DUP3 DUP9 ADD PUSH2 0x1DD JUMP JUMPDEST SWAP4 POP POP PUSH1 0x40 PUSH2 0x238 DUP8 DUP3 DUP9 ADD PUSH2 0x1DD JUMP JUMPDEST SWAP3 POP POP PUSH1 0x60 PUSH2 0x249 DUP8 DUP3 DUP9 ADD PUSH2 0x1DD JUMP JUMPDEST SWAP2 POP POP SWAP3 SWAP6 SWAP2 SWAP5 POP SWAP3 POP JUMP JUMPDEST PUSH2 0x25E DUP2 PUSH2 0x1BE JUMP JUMPDEST DUP3 MSTORE POP POP JUMP JUMPDEST PUSH0 PUSH1 0x60 DUP3 ADD SWAP1 POP PUSH2 0x277 PUSH0 DUP4 ADD DUP7 PUSH2 0x255 JUMP JUMPDEST PUSH2 0x284 PUSH1 0x20 DUP4 ADD DUP6 PUSH2 0x255 JUMP JUMPDEST PUSH2 0x291 PUSH1 0x40 DUP4 ADD DUP5 PUSH2 0x255 JUMP JUMPDEST SWAP5 SWAP4 POP POP POP POP JUMP JUMPDEST PUSH0 DUP1 PUSH1 0x40 DUP4 DUP6 SUB SLT ISZERO PUSH2 0x2AF JUMPI PUSH2 0x2AE PUSH2 0x1BA JUMP JUMPDEST JUMPDEST PUSH0 PUSH2 0x2BC DUP6 DUP3 DUP7 ADD PUSH2 0x1DD JUMP JUMPDEST SWAP3 POP POP PUSH1 0x20 PUSH2 0x2CD DUP6 DUP3 DUP7 ADD PUSH2 0x1DD JUMP JUMPDEST SWAP2 POP POP SWAP3 POP SWAP3 SWAP1 POP JUMP JUMPDEST PUSH0 PUSH1 0x20 DUP3 ADD SWAP1 POP PUSH2 0x2EA PUSH0 DUP4 ADD DUP5 PUSH2 0x255 JUMP JUMPDEST SWAP3 SWAP2 POP POP JUMP JUMPDEST PUSH0 DUP1 PUSH0 PUSH1 0x60 DUP5 DUP7 SUB SLT ISZERO PUSH2 0x307 JUMPI PUSH2 0x306 PUSH2 0x1BA JUMP JUMPDEST JUMPDEST PUSH0 PUSH2 0x314 DUP7 DUP3 DUP8 ADD PUSH2 0x1DD JUMP JUMPDEST SWAP4 POP POP PUSH1 0x20 PUSH2 0x325 DUP7 DUP3 DUP8 ADD PUSH2 0x1DD JUMP JUMPDEST SWAP3 POP POP PUSH1 0x40 PUSH2 0x336 DUP7 DUP3 DUP8 ADD PUSH2 0x1DD JUMP JUMPDEST SWAP2 POP POP SWAP3 POP SWAP3 POP SWAP3 JUMP INVALID LOG2 PUSH5 0x6970667358 0x22 SLT KECCAK256 PUSH6 0x39AFB8F6DDA7 SELFBALANCE 0xD2 0xF CHAINID SSTORE 0x4D ADDRESS SWAP6 0x22 PUSH13 0x22FAFA9EA2D5FF046FE5D41916 LT 0x21 PUSH5 0x736F6C6343 STOP ADDMOD BYTE STOP CALLER "
		},
		"gasEstimates": {
			"creation": {
				"codeDepositCost": "177200",
				"executionCost": "218",
				"totalCost": "177418"
			},
			"external": {
				"op1(uint256,uint256)": "infinite",
				"op2_or(uint256,uint256)": "infinite",
				"op3_xor(uint256,uint256)": "infinite",
				"op4(uint256,uint256,uint256)": "infinite",
				"op5(uint256,uint256,uint256,uint256)": "infinite"
			}
		},
		"methodIdentifiers": {
			"op1(uint256,uint256)": "b76becab",
			"op2_or(uint256,uint256)": "cbabd4ee",
			"op3_xor(uint256,uint256)": "5fad14d9",
			"op4(uint256,uint256,uint256)": "7d81b30f",
			"op5(uint256,uint256,uint256,uint256)": "0dda8efb"
		}
	},
	"abi": [
		{
			"inputs": [
				{
					"internalType": "uint256",
					"name": "a",
					"type": "uint256"
				},
				{
					"internalType": "uint256",
					"name": "b",
					"type": "uint256"
				}
			],
			"name": "op1",
			"outputs": [
				{
					"internalType": "uint256",
					"name": "",
					"type": "uint256"
				}
			],
			"stateMutability": "pure",
			"type": "function"
		},
		{
			"inputs": [
				{
					"internalType": "uint256",
					"name": "a",
					"type": "uint256"
				},
				{
					"internalType": "uint256",
					"name": "b",
					"type": "uint256"
				}
			],
			"name": "op2_or",
			"outputs": [
				{
					"internalType": "uint256",
					"name": "",
					"type": "uint256"
				}
			],
			"stateMutability": "pure",
			"type": "function"
		},
		{
			"inputs": [
				{
					"internalType": "uint256",
					"name": "a",
					"type": "uint256"
				},
				{
					"internalType": "uint256",
					"name": "b",
					"type": "uint256"
				}
			],
			"name": "op3_xor",
			"outputs": [
				{
					"internalType": "uint256",
					"name": "",
					"type": "uint256"
				}
			],
			"stateMutability": "pure",
			"type": "function"
		},
		{
			"inputs": [
				{
					"internalType": "uint256",
					"name": "a",
					"type": "uint256"
				},
				{
					"internalType": "uint256",
					"name": "b",
					"type": "uint256"
				},
				{
					"internalType": "uint256",
					"name": "c",
					"type": "uint256"
				}
			],
			"name": "op4",
			"outputs": [
				{
					"internalType": "uint256",
					"name": "",
					"type": "uint256"
				},
				{
					"internalType": "uint256",
					"name": "",
					"type": "uint256"
				},
				{
					"internalType": "uint256",
					"name": "",
					"type": "uint256"
				}
			],
			"stateMutability": "pure",
			"type": "function"
		},
		{
			"inputs": [
				{
					"internalType": "uint256",
					"name": "a",
					"type": "uint256"
				},
				{
					"internalType": "uint256",
					"name": "b",
					"type": "uint256"
				},
				{
					"internalType": "uint256",
					"name": "c",
					"type": "uint256"
				},
				{
					"internalType": "uint256",
					"name": "d",
					"type": "uint256"
				}
			],
			"name": "op5",
			"outputs": [
				{
					"internalType": "uint256",
					"name": "",
					"type": "uint256"
				},
				{
					"internalType": "uint256",
					"name": "",
					"type": "uint256"
				},
				{
					"internalType": "uint256",
					"name": "",
					"type": "uint256"
				}
			],
			"stateMutability": "pure",
			"type": "function"
		}
	]
}