{
	"data": {
		"bytecode": {
			"linkReferences": {},
			"object": "6080604052348015600e575f80fd5b506119f08061001c5f395ff3fe608060405234801561000f575f80fd5b50600436106100a7575f3560e01c8063674271cd1161006f578063674271cd1461017857806374aa6858146101a8578063a24746d8146101c4578063b30039fc146101f4578063b36a31c614610212578063be1c766b14610230576100a7565b806304527d90146100ab578063133d0460146100db57806316020273146100f95780631acb1542146101295780632eb6045e14610159575b5f80fd5b6100c560048036038101906100c09190610e61565b61024e565b6040516100d29190610e9b565b60405180910390f35b6100e361026b565b6040516100f0919061112a565b60405180910390f35b610113600480360381019061010e9190611276565b6104cd565b6040516101209190610e9b565b60405180910390f35b610143600480360381019061013e9190610e61565b6104f7565b604051610150919061112a565b60405180910390f35b61016161076b565b60405161016f9291906112bd565b60405180910390f35b610192600480360381019061018d9190610e61565b610800565b60405161019f9190611333565b60405180910390f35b6101c260048036038101906101bd9190611435565b61098d565b005b6101de60048036038101906101d99190611276565b610a49565b6040516101eb919061112a565b60405180910390f35b6101fc610cca565b60405161020991906114d7565b60405180910390f35b61021a610cea565b6040516102279190610e9b565b60405180910390f35b610238610d40565b6040516102459190610e9b565b60405180910390f35b5f60045f8381526020019081526020015f20600201549050919050565b60605f805480602002602001604051908101604052809291908181526020015f905b828210156104c4578382905f5260205f2090600502016040518060a00160405290815f820180546102bd9061151d565b80601f01602080910402602001604051908101604052809291908181526020018280546102e99061151d565b80156103345780601f1061030b57610100808354040283529160200191610334565b820191905f5260205f20905b81548152906001019060200180831161031757829003601f168201915b5050505050815260200160018201548152602001600282015481526020016003820180546103619061151d565b80601f016020809104026020016040519081016040528092919081815260200182805461038d9061151d565b80156103d85780601f106103af576101008083540402835291602001916103d8565b820191905f5260205f20905b8154815290600101906020018083116103bb57829003601f168201915b5050505050815260200160048201805480602002602001604051908101604052809291908181526020015f905b828210156104ad578382905f5260205f200180546104229061151d565b80601f016020809104026020016040519081016040528092919081815260200182805461044e9061151d565b80156104995780601f1061047057610100808354040283529160200191610499565b820191905f5260205f20905b81548152906001019060200180831161047c57829003601f168201915b505050505081526020019060010190610405565b50505050815250508152602001906001019061028d565b50505050905090565b5f6003826040516104de9190611587565b9081526020016040518091039020600201549050919050565b606060025f8381526020019081526020015f20805480602002602001604051908101604052809291908181526020015f905b82821015610760578382905f5260205f2090600502016040518060a00160405290815f820180546105599061151d565b80601f01602080910402602001604051908101604052809291908181526020018280546105859061151d565b80156105d05780601f106105a7576101008083540402835291602001916105d0565b820191905f5260205f20905b8154815290600101906020018083116105b357829003601f168201915b5050505050815260200160018201548152602001600282015481526020016003820180546105fd9061151d565b80601f01602080910402602001604051908101604052809291908181526020018280546106299061151d565b80156106745780601f1061064b57610100808354040283529160200191610674565b820191905f5260205f20905b81548152906001019060200180831161065757829003601f168201915b5050505050815260200160048201805480602002602001604051908101604052809291908181526020015f905b82821015610749578382905f5260205f200180546106be9061151d565b80601f01602080910402602001604051908101604052809291908181526020018280546106ea9061151d565b80156107355780601f1061070c57610100808354040283529160200191610735565b820191905f5260205f20905b81548152906001019060200180831161071857829003601f168201915b5050505050815260200190600101906106a1565b505050508152505081526020019060010190610529565b505050509050919050565b5f60605f805f90505b60015f8054905061078591906115ca565b8110156107fa5760405160200161079b90611647565b6040516020818303038152906040528051906020012060045f8381526020019081526020015f206003016040516020016107d591906116ed565b6040516020818303038152906040528051906020012050508080600101915050610774565b50509091565b6060606482111580156108145750605a8210155b15610856576040518060400160405280600181526020017f41000000000000000000000000000000000000000000000000000000000000008152509050610988565b605a82108015610867575060508210155b156108a9576040518060400160405280600181526020017f42000000000000000000000000000000000000000000000000000000000000008152509050610988565b6050821080156108ba575060468210155b156108fc576040518060400160405280600181526020017f43000000000000000000000000000000000000000000000000000000000000008152509050610988565b60468210801561090d5750603c8210155b1561094f576040518060400160405280600181526020017f44000000000000000000000000000000000000000000000000000000000000008152509050610988565b6040518060400160405280600181526020017f460000000000000000000000000000000000000000000000000000000000000081525090505b919050565b5f6040518060a001604052808581526020015f8054905081526020018481526020016109b885610800565b815260200183815250908060018154018082558091505060019003905f5260205f2090600502015f909190919091505f820151815f0190816109fa919061188e565b5060208201518160010155604082015181600201556060820151816003019081610a24919061188e565b506080820151816004019080519060200190610a41929190610d4b565b505050505050565b6060600182604051610a5b9190611587565b9081526020016040518091039020805480602002602001604051908101604052809291908181526020015f905b82821015610cbf578382905f5260205f2090600502016040518060a00160405290815f82018054610ab89061151d565b80601f0160208091040260200160405190810160405280929190818152602001828054610ae49061151d565b8015610b2f5780601f10610b0657610100808354040283529160200191610b2f565b820191905f5260205f20905b815481529060010190602001808311610b1257829003601f168201915b505050505081526020016001820154815260200160028201548152602001600382018054610b5c9061151d565b80601f0160208091040260200160405190810160405280929190818152602001828054610b889061151d565b8015610bd35780601f10610baa57610100808354040283529160200191610bd3565b820191905f5260205f20905b815481529060010190602001808311610bb657829003601f168201915b5050505050815260200160048201805480602002602001604051908101604052809291908181526020015f905b82821015610ca8578382905f5260205f20018054610c1d9061151d565b80601f0160208091040260200160405190810160405280929190818152602001828054610c499061151d565b8015610c945780601f10610c6b57610100808354040283529160200191610c94565b820191905f5260205f20905b815481529060010190602001808311610c7757829003601f168201915b505050505081526020019060010190610c00565b505050508152505081526020019060010190610a88565b505050509050919050565b5f6046610cd5610cea565b10610ce35760019050610ce7565b5f90505b90565b5f805f5b60015f80549050610cff91906115ca565b811015610d2957610d0f8161024e565b82610d1a91906115ca565b91508080600101915050610cee565b5f8054905082610d39919061198a565b9250505090565b5f8080549050905090565b828054828255905f5260205f20908101928215610d91579160200282015b82811115610d90578251829081610d80919061188e565b5091602001919060010190610d69565b5b509050610d9e9190610da2565b5090565b5b80821115610dc1575f8181610db89190610dc5565b50600101610da3565b5090565b508054610dd19061151d565b5f825580601f10610de25750610dff565b601f0160209004905f5260205f2090810190610dfe9190610e02565b5b50565b5b80821115610e19575f815f905550600101610e03565b5090565b5f604051905090565b5f80fd5b5f80fd5b5f819050919050565b610e4081610e2e565b8114610e4a575f80fd5b50565b5f81359050610e5b81610e37565b92915050565b5f60208284031215610e7657610e75610e26565b5b5f610e8384828501610e4d565b91505092915050565b610e9581610e2e565b82525050565b5f602082019050610eae5f830184610e8c565b92915050565b5f81519050919050565b5f82825260208201905092915050565b5f819050602082019050919050565b5f81519050919050565b5f82825260208201905092915050565b8281835e5f83830152505050565b5f601f19601f8301169050919050565b5f610f1f82610edd565b610f298185610ee7565b9350610f39818560208601610ef7565b610f4281610f05565b840191505092915050565b610f5681610e2e565b82525050565b5f81519050919050565b5f82825260208201905092915050565b5f819050602082019050919050565b5f610f908383610f15565b905092915050565b5f602082019050919050565b5f610fae82610f5c565b610fb88185610f66565b935083602082028501610fca85610f76565b805f5b858110156110055784840389528151610fe68582610f85565b9450610ff183610f98565b925060208a01995050600181019050610fcd565b50829750879550505050505092915050565b5f60a083015f8301518482035f8601526110318282610f15565b91505060208301516110466020860182610f4d565b5060408301516110596040860182610f4d565b50606083015184820360608601526110718282610f15565b9150506080830151848203608086015261108b8282610fa4565b9150508091505092915050565b5f6110a38383611017565b905092915050565b5f602082019050919050565b5f6110c182610eb4565b6110cb8185610ebe565b9350836020820285016110dd85610ece565b805f5b8581101561111857848403895281516110f98582611098565b9450611104836110ab565b925060208a019950506001810190506110e0565b50829750879550505050505092915050565b5f6020820190508181035f83015261114281846110b7565b905092915050565b5f80fd5b5f80fd5b7f4e487b71000000000000000000000000000000000000000000000000000000005f52604160045260245ffd5b61118882610f05565b810181811067ffffffffffffffff821117156111a7576111a6611152565b5b80604052505050565b5f6111b9610e1d565b90506111c5828261117f565b919050565b5f67ffffffffffffffff8211156111e4576111e3611152565b5b6111ed82610f05565b9050602081019050919050565b828183375f83830152505050565b5f61121a611215846111ca565b6111b0565b9050828152602081018484840111156112365761123561114e565b5b6112418482856111fa565b509392505050565b5f82601f83011261125d5761125c61114a565b5b813561126d848260208601611208565b91505092915050565b5f6020828403121561128b5761128a610e26565b5b5f82013567ffffffffffffffff8111156112a8576112a7610e2a565b5b6112b484828501611249565b91505092915050565b5f6040820190506112d05f830185610e8c565b81810360208301526112e281846110b7565b90509392505050565b5f82825260208201905092915050565b5f61130582610edd565b61130f81856112eb565b935061131f818560208601610ef7565b61132881610f05565b840191505092915050565b5f6020820190508181035f83015261134b81846112fb565b905092915050565b5f67ffffffffffffffff82111561136d5761136c611152565b5b602082029050602081019050919050565b5f80fd5b5f61139461138f84611353565b6111b0565b905080838252602082019050602084028301858111156113b7576113b661137e565b5b835b818110156113fe57803567ffffffffffffffff8111156113dc576113db61114a565b5b8086016113e98982611249565b855260208501945050506020810190506113b9565b5050509392505050565b5f82601f83011261141c5761141b61114a565b5b813561142c848260208601611382565b91505092915050565b5f805f6060848603121561144c5761144b610e26565b5b5f84013567ffffffffffffffff81111561146957611468610e2a565b5b61147586828701611249565b935050602061148686828701610e4d565b925050604084013567ffffffffffffffff8111156114a7576114a6610e2a565b5b6114b386828701611408565b9150509250925092565b5f8115159050919050565b6114d1816114bd565b82525050565b5f6020820190506114ea5f8301846114c8565b92915050565b7f4e487b71000000000000000000000000000000000000000000000000000000005f52602260045260245ffd5b5f600282049050600182168061153457607f821691505b602082108103611547576115466114f0565b5b50919050565b5f81905092915050565b5f61156182610edd565b61156b818561154d565b935061157b818560208601610ef7565b80840191505092915050565b5f6115928284611557565b915081905092915050565b7f4e487b71000000000000000000000000000000000000000000000000000000005f52601160045260245ffd5b5f6115d482610e2e565b91506115df83610e2e565b92508282019050808211156115f7576115f661159d565b5b92915050565b7f46000000000000000000000000000000000000000000000000000000000000005f82015250565b5f61163160018361154d565b915061163c826115fd565b600182019050919050565b5f61165182611625565b9150819050919050565b5f819050815f5260205f209050919050565b5f81546116798161151d565b611683818661154d565b9450600182165f811461169d57600181146116b2576116e4565b60ff19831686528115158202860193506116e4565b6116bb8561165b565b5f5b838110156116dc578154818901526001820191506020810190506116bd565b838801955050505b50505092915050565b5f6116f8828461166d565b915081905092915050565b5f6020601f8301049050919050565b5f82821b905092915050565b5f6008830261174d7fffffffffffffffffffffffffffffffffffffffffffffffffffffffffffffffff82611712565b6117578683611712565b95508019841693508086168417925050509392505050565b5f819050919050565b5f61179261178d61178884610e2e565b61176f565b610e2e565b9050919050565b5f819050919050565b6117ab83611778565b6117bf6117b782611799565b84845461171e565b825550505050565b5f90565b6117d36117c7565b6117de8184846117a2565b505050565b5b81811015611801576117f65f826117cb565b6001810190506117e4565b5050565b601f821115611846576118178161165b565b61182084611703565b8101602085101561182f578190505b61184361183b85611703565b8301826117e3565b50505b505050565b5f82821c905092915050565b5f6118665f198460080261184b565b1980831691505092915050565b5f61187e8383611857565b9150826002028217905092915050565b61189782610edd565b67ffffffffffffffff8111156118b0576118af611152565b5b6118ba825461151d565b6118c5828285611805565b5f60209050601f8311600181146118f6575f84156118e4578287015190505b6118ee8582611873565b865550611955565b601f1984166119048661165b565b5f5b8281101561192b57848901518255600182019150602085019450602081019050611906565b868310156119485784890151611944601f891682611857565b8355505b6001600288020188555050505b505050505050565b7f4e487b71000000000000000000000000000000000000000000000000000000005f52601260045260245ffd5b5f61199482610e2e565b915061199f83610e2e565b9250826119af576119ae61195d565b5b82820490509291505056fea26469706673582212204a2e288159c44bebea5731a4b7cd6c00517618914475d7ff190bdf40bb914bfe64736f6c634300081a0033",
			"opcodes": "PUSH1 0x80 PUSH1 0x40 MSTORE CALLVALUE DUP1 ISZERO PUSH1 0xE JUMPI PUSH0 DUP1 REVERT JUMPDEST POP PUSH2 0x19F0 DUP1 PUSH2 0x1C PUSH0 CODECOPY PUSH0 RETURN INVALID PUSH1 0x80 PUSH1 0x40 MSTORE CALLVALUE DUP1 ISZERO PUSH2 0xF JUMPI PUSH0 DUP1 REVERT JUMPDEST POP PUSH1 0x4 CALLDATASIZE LT PUSH2 0xA7 JUMPI PUSH0 CALLDATALOAD PUSH1 0xE0 SHR DUP1 PUSH4 0x674271CD GT PUSH2 0x6F JUMPI DUP1 PUSH4 0x674271CD EQ PUSH2 0x178 JUMPI DUP1 PUSH4 0x74AA6858 EQ PUSH2 0x1A8 JUMPI DUP1 PUSH4 0xA24746D8 EQ PUSH2 0x1C4 JUMPI DUP1 PUSH4 0xB30039FC EQ PUSH2 0x1F4 JUMPI DUP1 PUSH4 0xB36A31C6 EQ PUSH2 0x212 JUMPI DUP1 PUSH4 0xBE1C766B EQ PUSH2 0x230 JUMPI PUSH2 0xA7 JUMP JUMPDEST DUP1 PUSH4 0x4527D90 EQ PUSH2 0xAB JUMPI DUP1 PUSH4 0x133D0460 EQ PUSH2 0xDB JUMPI DUP1 PUSH4 0x16020273 EQ PUSH2 0xF9 JUMPI DUP1 PUSH4 0x1ACB1542 EQ PUSH2 0x129 JUMPI DUP1 PUSH4 0x2EB6045E EQ PUSH2 0x159 JUMPI JUMPDEST PUSH0 DUP1 REVERT JUMPDEST PUSH2 0xC5 PUSH1 0x4 DUP1 CALLDATASIZE SUB DUP2 ADD SWAP1 PUSH2 0xC0 SWAP2 SWAP1 PUSH2 0xE61 JUMP JUMPDEST PUSH2 0x24E JUMP JUMPDEST PUSH1 0x40 MLOAD PUSH2 0xD2 SWAP2 SWAP1 PUSH2 0xE9B JUMP JUMPDEST PUSH1 0x40 MLOAD DUP1 SWAP2 SUB SWAP1 RETURN JUMPDEST PUSH2 0xE3 PUSH2 0x26B JUMP JUMPDEST PUSH1 0x40 MLOAD PUSH2 0xF0 SWAP2 SWAP1 PUSH2 0x112A JUMP JUMPDEST PUSH1 0x40 MLOAD DUP1 SWAP2 SUB SWAP1 RETURN JUMPDEST PUSH2 0x113 PUSH1 0x4 DUP1 CALLDATASIZE SUB DUP2 ADD SWAP1 PUSH2 0x10E SWAP2 SWAP1 PUSH2 0x1276 JUMP JUMPDEST PUSH2 0x4CD JUMP JUMPDEST PUSH1 0x40 MLOAD PUSH2 0x120 SWAP2 SWAP1 PUSH2 0xE9B JUMP JUMPDEST PUSH1 0x40 MLOAD DUP1 SWAP2 SUB SWAP1 RETURN JUMPDEST PUSH2 0x143 PUSH1 0x4 DUP1 CALLDATASIZE SUB DUP2 ADD SWAP1 PUSH2 0x13E SWAP2 SWAP1 PUSH2 0xE61 JUMP JUMPDEST PUSH2 0x4F7 JUMP JUMPDEST PUSH1 0x40 MLOAD PUSH2 0x150 SWAP2 SWAP1 PUSH2 0x112A JUMP JUMPDEST PUSH1 0x40 MLOAD DUP1 SWAP2 SUB SWAP1 RETURN JUMPDEST PUSH2 0x161 PUSH2 0x76B JUMP JUMPDEST PUSH1 0x40 MLOAD PUSH2 0x16F SWAP3 SWAP2 SWAP1 PUSH2 0x12BD JUMP JUMPDEST PUSH1 0x40 MLOAD DUP1 SWAP2 SUB SWAP1 RETURN JUMPDEST PUSH2 0x192 PUSH1 0x4 DUP1 CALLDATASIZE SUB DUP2 ADD SWAP1 PUSH2 0x18D SWAP2 SWAP1 PUSH2 0xE61 JUMP JUMPDEST PUSH2 0x800 JUMP JUMPDEST PUSH1 0x40 MLOAD PUSH2 0x19F SWAP2 SWAP1 PUSH2 0x1333 JUMP JUMPDEST PUSH1 0x40 MLOAD DUP1 SWAP2 SUB SWAP1 RETURN JUMPDEST PUSH2 0x1C2 PUSH1 0x4 DUP1 CALLDATASIZE SUB DUP2 ADD SWAP1 PUSH2 0x1BD SWAP2 SWAP1 PUSH2 0x1435 JUMP JUMPDEST PUSH2 0x98D JUMP JUMPDEST STOP JUMPDEST PUSH2 0x1DE PUSH1 0x4 DUP1 CALLDATASIZE SUB DUP2 ADD SWAP1 PUSH2 0x1D9 SWAP2 SWAP1 PUSH2 0x1276 JUMP JUMPDEST PUSH2 0xA49 JUMP JUMPDEST PUSH1 0x40 MLOAD PUSH2 0x1EB SWAP2 SWAP1 PUSH2 0x112A JUMP JUMPDEST PUSH1 0x40 MLOAD DUP1 SWAP2 SUB SWAP1 RETURN JUMPDEST PUSH2 0x1FC PUSH2 0xCCA JUMP JUMPDEST PUSH1 0x40 MLOAD PUSH2 0x209 SWAP2 SWAP1 PUSH2 0x14D7 JUMP JUMPDEST PUSH1 0x40 MLOAD DUP1 SWAP2 SUB SWAP1 RETURN JUMPDEST PUSH2 0x21A PUSH2 0xCEA JUMP JUMPDEST PUSH1 0x40 MLOAD PUSH2 0x227 SWAP2 SWAP1 PUSH2 0xE9B JUMP JUMPDEST PUSH1 0x40 MLOAD DUP1 SWAP2 SUB SWAP1 RETURN JUMPDEST PUSH2 0x238 PUSH2 0xD40 JUMP JUMPDEST PUSH1 0x40 MLOAD PUSH2 0x245 SWAP2 SWAP1 PUSH2 0xE9B JUMP JUMPDEST PUSH1 0x40 MLOAD DUP1 SWAP2 SUB SWAP1 RETURN JUMPDEST PUSH0 PUSH1 0x4 PUSH0 DUP4 DUP2 MSTORE PUSH1 0x20 ADD SWAP1 DUP2 MSTORE PUSH1 0x20 ADD PUSH0 KECCAK256 PUSH1 0x2 ADD SLOAD SWAP1 POP SWAP2 SWAP1 POP JUMP JUMPDEST PUSH1 0x60 PUSH0 DUP1 SLOAD DUP1 PUSH1 0x20 MUL PUSH1 0x20 ADD PUSH1 0x40 MLOAD SWAP1 DUP2 ADD PUSH1 0x40 MSTORE DUP1 SWAP3 SWAP2 SWAP1 DUP2 DUP2 MSTORE PUSH1 0x20 ADD PUSH0 SWAP1 JUMPDEST DUP3 DUP3 LT ISZERO PUSH2 0x4C4 JUMPI DUP4 DUP3 SWAP1 PUSH0 MSTORE PUSH1 0x20 PUSH0 KECCAK256 SWAP1 PUSH1 0x5 MUL ADD PUSH1 0x40 MLOAD DUP1 PUSH1 0xA0 ADD PUSH1 0x40 MSTORE SWAP1 DUP2 PUSH0 DUP3 ADD DUP1 SLOAD PUSH2 0x2BD SWAP1 PUSH2 0x151D JUMP JUMPDEST DUP1 PUSH1 0x1F ADD PUSH1 0x20 DUP1 SWAP2 DIV MUL PUSH1 0x20 ADD PUSH1 0x40 MLOAD SWAP1 DUP2 ADD PUSH1 0x40 MSTORE DUP1 SWAP3 SWAP2 SWAP1 DUP2 DUP2 MSTORE PUSH1 0x20 ADD DUP3 DUP1 SLOAD PUSH2 0x2E9 SWAP1 PUSH2 0x151D JUMP JUMPDEST DUP1 ISZERO PUSH2 0x334 JUMPI DUP1 PUSH1 0x1F LT PUSH2 0x30B JUMPI PUSH2 0x100 DUP1 DUP4 SLOAD DIV MUL DUP4 MSTORE SWAP2 PUSH1 0x20 ADD SWAP2 PUSH2 0x334 JUMP JUMPDEST DUP3 ADD SWAP2 SWAP1 PUSH0 MSTORE PUSH1 0x20 PUSH0 KECCAK256 SWAP1 JUMPDEST DUP2 SLOAD DUP2 MSTORE SWAP1 PUSH1 0x1 ADD SWAP1 PUSH1 0x20 ADD DUP1 DUP4 GT PUSH2 0x317 JUMPI DUP3 SWAP1 SUB PUSH1 0x1F AND DUP3 ADD SWAP2 JUMPDEST POP POP POP POP POP DUP2 MSTORE PUSH1 0x20 ADD PUSH1 0x1 DUP3 ADD SLOAD DUP2 MSTORE PUSH1 0x20 ADD PUSH1 0x2 DUP3 ADD SLOAD DUP2 MSTORE PUSH1 0x20 ADD PUSH1 0x3 DUP3 ADD DUP1 SLOAD PUSH2 0x361 SWAP1 PUSH2 0x151D JUMP JUMPDEST DUP1 PUSH1 0x1F ADD PUSH1 0x20 DUP1 SWAP2 DIV MUL PUSH1 0x20 ADD PUSH1 0x40 MLOAD SWAP1 DUP2 ADD PUSH1 0x40 MSTORE DUP1 SWAP3 SWAP2 SWAP1 DUP2 DUP2 MSTORE PUSH1 0x20 ADD DUP3 DUP1 SLOAD PUSH2 0x38D SWAP1 PUSH2 0x151D JUMP JUMPDEST DUP1 ISZERO PUSH2 0x3D8 JUMPI DUP1 PUSH1 0x1F LT PUSH2 0x3AF JUMPI PUSH2 0x100 DUP1 DUP4 SLOAD DIV MUL DUP4 MSTORE SWAP2 PUSH1 0x20 ADD SWAP2 PUSH2 0x3D8 JUMP JUMPDEST DUP3 ADD SWAP2 SWAP1 PUSH0 MSTORE PUSH1 0x20 PUSH0 KECCAK256 SWAP1 JUMPDEST DUP2 SLOAD DUP2 MSTORE SWAP1 PUSH1 0x1 ADD SWAP1 PUSH1 0x20 ADD DUP1 DUP4 GT PUSH2 0x3BB JUMPI DUP3 SWAP1 SUB PUSH1 0x1F AND DUP3 ADD SWAP2 JUMPDEST POP POP POP POP POP DUP2 MSTORE PUSH1 0x20 ADD PUSH1 0x4 DUP3 ADD DUP1 SLOAD DUP1 PUSH1 0x20 MUL PUSH1 0x20 ADD PUSH1 0x40 MLOAD SWAP1 DUP2 ADD PUSH1 0x40 MSTORE DUP1 SWAP3 SWAP2 SWAP1 DUP2 DUP2 MSTORE PUSH1 0x20 ADD PUSH0 SWAP1 JUMPDEST DUP3 DUP3 LT ISZERO PUSH2 0x4AD JUMPI DUP4 DUP3 SWAP1 PUSH0 MSTORE PUSH1 0x20 PUSH0 KECCAK256 ADD DUP1 SLOAD PUSH2 0x422 SWAP1 PUSH2 0x151D JUMP JUMPDEST DUP1 PUSH1 0x1F ADD PUSH1 0x20 DUP1 SWAP2 DIV MUL PUSH1 0x20 ADD PUSH1 0x40 MLOAD SWAP1 DUP2 ADD PUSH1 0x40 MSTORE DUP1 SWAP3 SWAP2 SWAP1 DUP2 DUP2 MSTORE PUSH1 0x20 ADD DUP3 DUP1 SLOAD PUSH2 0x44E SWAP1 PUSH2 0x151D JUMP JUMPDEST DUP1 ISZERO PUSH2 0x499 JUMPI DUP1 PUSH1 0x1F LT PUSH2 0x470 JUMPI PUSH2 0x100 DUP1 DUP4 SLOAD DIV MUL DUP4 MSTORE SWAP2 PUSH1 0x20 ADD SWAP2 PUSH2 0x499 JUMP JUMPDEST DUP3 ADD SWAP2 SWAP1 PUSH0 MSTORE PUSH1 0x20 PUSH0 KECCAK256 SWAP1 JUMPDEST DUP2 SLOAD DUP2 MSTORE SWAP1 PUSH1 0x1 ADD SWAP1 PUSH1 0x20 ADD DUP1 DUP4 GT PUSH2 0x47C JUMPI DUP3 SWAP1 SUB PUSH1 0x1F AND DUP3 ADD SWAP2 JUMPDEST POP POP POP POP POP DUP2 MSTORE PUSH1 0x20 ADD SWAP1 PUSH1 0x1 ADD SWAP1 PUSH2 0x405 JUMP JUMPDEST POP POP POP POP DUP2 MSTORE POP POP DUP2 MSTORE PUSH1 0x20 ADD SWAP1 PUSH1 0x1 ADD SWAP1 PUSH2 0x28D JUMP JUMPDEST POP POP POP POP SWAP1 POP SWAP1 JUMP JUMPDEST PUSH0 PUSH1 0x3 DUP3 PUSH1 0x40 MLOAD PUSH2 0x4DE SWAP2 SWAP1 PUSH2 0x1587 JUMP JUMPDEST SWAP1 DUP2 MSTORE PUSH1 0x20 ADD PUSH1 0x40 MLOAD DUP1 SWAP2 SUB SWAP1 KECCAK256 PUSH1 0x2 ADD SLOAD SWAP1 POP SWAP2 SWAP1 POP JUMP JUMPDEST PUSH1 0x60 PUSH1 0x2 PUSH0 DUP4 DUP2 MSTORE PUSH1 0x20 ADD SWAP1 DUP2 MSTORE PUSH1 0x20 ADD PUSH0 KECCAK256 DUP1 SLOAD DUP1 PUSH1 0x20 MUL PUSH1 0x20 ADD PUSH1 0x40 MLOAD SWAP1 DUP2 ADD PUSH1 0x40 MSTORE DUP1 SWAP3 SWAP2 SWAP1 DUP2 DUP2 MSTORE PUSH1 0x20 ADD PUSH0 SWAP1 JUMPDEST DUP3 DUP3 LT ISZERO PUSH2 0x760 JUMPI DUP4 DUP3 SWAP1 PUSH0 MSTORE PUSH1 0x20 PUSH0 KECCAK256 SWAP1 PUSH1 0x5 MUL ADD PUSH1 0x40 MLOAD DUP1 PUSH1 0xA0 ADD PUSH1 0x40 MSTORE SWAP1 DUP2 PUSH0 DUP3 ADD DUP1 SLOAD PUSH2 0x559 SWAP1 PUSH2 0x151D JUMP JUMPDEST DUP1 PUSH1 0x1F ADD PUSH1 0x20 DUP1 SWAP2 DIV MUL PUSH1 0x20 ADD PUSH1 0x40 MLOAD SWAP1 DUP2 ADD PUSH1 0x40 MSTORE DUP1 SWAP3 SWAP2 SWAP1 DUP2 DUP2 MSTORE PUSH1 0x20 ADD DUP3 DUP1 SLOAD PUSH2 0x585 SWAP1 PUSH2 0x151D JUMP JUMPDEST DUP1 ISZERO PUSH2 0x5D0 JUMPI DUP1 PUSH1 0x1F LT PUSH2 0x5A7 JUMPI PUSH2 0x100 DUP1 DUP4 SLOAD DIV MUL DUP4 MSTORE SWAP2 PUSH1 0x20 ADD SWAP2 PUSH2 0x5D0 JUMP JUMPDEST DUP3 ADD SWAP2 SWAP1 PUSH0 MSTORE PUSH1 0x20 PUSH0 KECCAK256 SWAP1 JUMPDEST DUP2 SLOAD DUP2 MSTORE SWAP1 PUSH1 0x1 ADD SWAP1 PUSH1 0x20 ADD DUP1 DUP4 GT PUSH2 0x5B3 JUMPI DUP3 SWAP1 SUB PUSH1 0x1F AND DUP3 ADD SWAP2 JUMPDEST POP POP POP POP POP DUP2 MSTORE PUSH1 0x20 ADD PUSH1 0x1 DUP3 ADD SLOAD DUP2 MSTORE PUSH1 0x20 ADD PUSH1 0x2 DUP3 ADD SLOAD DUP2 MSTORE PUSH1 0x20 ADD PUSH1 0x3 DUP3 ADD DUP1 SLOAD PUSH2 0x5FD SWAP1 PUSH2 0x151D JUMP JUMPDEST DUP1 PUSH1 0x1F ADD PUSH1 0x20 DUP1 SWAP2 DIV MUL PUSH1 0x20 ADD PUSH1 0x40 MLOAD SWAP1 DUP2 ADD PUSH1 0x40 MSTORE DUP1 SWAP3 SWAP2 SWAP1 DUP2 DUP2 MSTORE PUSH1 0x20 ADD DUP3 DUP1 SLOAD PUSH2 0x629 SWAP1 PUSH2 0x151D JUMP JUMPDEST DUP1 ISZERO PUSH2 0x674 JUMPI DUP1 PUSH1 0x1F LT PUSH2 0x64B JUMPI PUSH2 0x100 DUP1 DUP4 SLOAD DIV MUL DUP4 MSTORE SWAP2 PUSH1 0x20 ADD SWAP2 PUSH2 0x674 JUMP JUMPDEST DUP3 ADD SWAP2 SWAP1 PUSH0 MSTORE PUSH1 0x20 PUSH0 KECCAK256 SWAP1 JUMPDEST DUP2 SLOAD DUP2 MSTORE SWAP1 PUSH1 0x1 ADD SWAP1 PUSH1 0x20 ADD DUP1 DUP4 GT PUSH2 0x657 JUMPI DUP3 SWAP1 SUB PUSH1 0x1F AND DUP3 ADD SWAP2 JUMPDEST POP POP POP POP POP DUP2 MSTORE PUSH1 0x20 ADD PUSH1 0x4 DUP3 ADD DUP1 SLOAD DUP1 PUSH1 0x20 MUL PUSH1 0x20 ADD PUSH1 0x40 MLOAD SWAP1 DUP2 ADD PUSH1 0x40 MSTORE DUP1 SWAP3 SWAP2 SWAP1 DUP2 DUP2 MSTORE PUSH1 0x20 ADD PUSH0 SWAP1 JUMPDEST DUP3 DUP3 LT ISZERO PUSH2 0x749 JUMPI DUP4 DUP3 SWAP1 PUSH0 MSTORE PUSH1 0x20 PUSH0 KECCAK256 ADD DUP1 SLOAD PUSH2 0x6BE SWAP1 PUSH2 0x151D JUMP JUMPDEST DUP1 PUSH1 0x1F ADD PUSH1 0x20 DUP1 SWAP2 DIV MUL PUSH1 0x20 ADD PUSH1 0x40 MLOAD SWAP1 DUP2 ADD PUSH1 0x40 MSTORE DUP1 SWAP3 SWAP2 SWAP1 DUP2 DUP2 MSTORE PUSH1 0x20 ADD DUP3 DUP1 SLOAD PUSH2 0x6EA SWAP1 PUSH2 0x151D JUMP JUMPDEST DUP1 ISZERO PUSH2 0x735 JUMPI DUP1 PUSH1 0x1F LT PUSH2 0x70C JUMPI PUSH2 0x100 DUP1 DUP4 SLOAD DIV MUL DUP4 MSTORE SWAP2 PUSH1 0x20 ADD SWAP2 PUSH2 0x735 JUMP JUMPDEST DUP3 ADD SWAP2 SWAP1 PUSH0 MSTORE PUSH1 0x20 PUSH0 KECCAK256 SWAP1 JUMPDEST DUP2 SLOAD DUP2 MSTORE SWAP1 PUSH1 0x1 ADD SWAP1 PUSH1 0x20 ADD DUP1 DUP4 GT PUSH2 0x718 JUMPI DUP3 SWAP1 SUB PUSH1 0x1F AND DUP3 ADD SWAP2 JUMPDEST POP POP POP POP POP DUP2 MSTORE PUSH1 0x20 ADD SWAP1 PUSH1 0x1 ADD SWAP1 PUSH2 0x6A1 JUMP JUMPDEST POP POP POP POP DUP2 MSTORE POP POP DUP2 MSTORE PUSH1 0x20 ADD SWAP1 PUSH1 0x1 ADD SWAP1 PUSH2 0x529 JUMP JUMPDEST POP POP POP POP SWAP1 POP SWAP2 SWAP1 POP JUMP JUMPDEST PUSH0 PUSH1 0x60 PUSH0 DUP1 PUSH0 SWAP1 POP JUMPDEST PUSH1 0x1 PUSH0 DUP1 SLOAD SWAP1 POP PUSH2 0x785 SWAP2 SWAP1 PUSH2 0x15CA JUMP JUMPDEST DUP2 LT ISZERO PUSH2 0x7FA JUMPI PUSH1 0x40 MLOAD PUSH1 0x20 ADD PUSH2 0x79B SWAP1 PUSH2 0x1647 JUMP JUMPDEST PUSH1 0x40 MLOAD PUSH1 0x20 DUP2 DUP4 SUB SUB DUP2 MSTORE SWAP1 PUSH1 0x40 MSTORE DUP1 MLOAD SWAP1 PUSH1 0x20 ADD KECCAK256 PUSH1 0x4 PUSH0 DUP4 DUP2 MSTORE PUSH1 0x20 ADD SWAP1 DUP2 MSTORE PUSH1 0x20 ADD PUSH0 KECCAK256 PUSH1 0x3 ADD PUSH1 0x40 MLOAD PUSH1 0x20 ADD PUSH2 0x7D5 SWAP2 SWAP1 PUSH2 0x16ED JUMP JUMPDEST PUSH1 0x40 MLOAD PUSH1 0x20 DUP2 DUP4 SUB SUB DUP2 MSTORE SWAP1 PUSH1 0x40 MSTORE DUP1 MLOAD SWAP1 PUSH1 0x20 ADD KECCAK256 POP POP DUP1 DUP1 PUSH1 0x1 ADD SWAP2 POP POP PUSH2 0x774 JUMP JUMPDEST POP POP SWAP1 SWAP2 JUMP JUMPDEST PUSH1 0x60 PUSH1 0x64 DUP3 GT ISZERO DUP1 ISZERO PUSH2 0x814 JUMPI POP PUSH1 0x5A DUP3 LT ISZERO JUMPDEST ISZERO PUSH2 0x856 JUMPI PUSH1 0x40 MLOAD DUP1 PUSH1 0x40 ADD PUSH1 0x40 MSTORE DUP1 PUSH1 0x1 DUP2 MSTORE PUSH1 0x20 ADD PUSH32 0x4100000000000000000000000000000000000000000000000000000000000000 DUP2 MSTORE POP SWAP1 POP PUSH2 0x988 JUMP JUMPDEST PUSH1 0x5A DUP3 LT DUP1 ISZERO PUSH2 0x867 JUMPI POP PUSH1 0x50 DUP3 LT ISZERO JUMPDEST ISZERO PUSH2 0x8A9 JUMPI PUSH1 0x40 MLOAD DUP1 PUSH1 0x40 ADD PUSH1 0x40 MSTORE DUP1 PUSH1 0x1 DUP2 MSTORE PUSH1 0x20 ADD PUSH32 0x4200000000000000000000000000000000000000000000000000000000000000 DUP2 MSTORE POP SWAP1 POP PUSH2 0x988 JUMP JUMPDEST PUSH1 0x50 DUP3 LT DUP1 ISZERO PUSH2 0x8BA JUMPI POP PUSH1 0x46 DUP3 LT ISZERO JUMPDEST ISZERO PUSH2 0x8FC JUMPI PUSH1 0x40 MLOAD DUP1 PUSH1 0x40 ADD PUSH1 0x40 MSTORE DUP1 PUSH1 0x1 DUP2 MSTORE PUSH1 0x20 ADD PUSH32 0x4300000000000000000000000000000000000000000000000000000000000000 DUP2 MSTORE POP SWAP1 POP PUSH2 0x988 JUMP JUMPDEST PUSH1 0x46 DUP3 LT DUP1 ISZERO PUSH2 0x90D JUMPI POP PUSH1 0x3C DUP3 LT ISZERO JUMPDEST ISZERO PUSH2 0x94F JUMPI PUSH1 0x40 MLOAD DUP1 PUSH1 0x40 ADD PUSH1 0x40 MSTORE DUP1 PUSH1 0x1 DUP2 MSTORE PUSH1 0x20 ADD PUSH32 0x4400000000000000000000000000000000000000000000000000000000000000 DUP2 MSTORE POP SWAP1 POP PUSH2 0x988 JUMP JUMPDEST PUSH1 0x40 MLOAD DUP1 PUSH1 0x40 ADD PUSH1 0x40 MSTORE DUP1 PUSH1 0x1 DUP2 MSTORE PUSH1 0x20 ADD PUSH32 0x4600000000000000000000000000000000000000000000000000000000000000 DUP2 MSTORE POP SWAP1 POP JUMPDEST SWAP2 SWAP1 POP JUMP JUMPDEST PUSH0 PUSH1 0x40 MLOAD DUP1 PUSH1 0xA0 ADD PUSH1 0x40 MSTORE DUP1 DUP6 DUP2 MSTORE PUSH1 0x20 ADD PUSH0 DUP1 SLOAD SWAP1 POP DUP2 MSTORE PUSH1 0x20 ADD DUP5 DUP2 MSTORE PUSH1 0x20 ADD PUSH2 0x9B8 DUP6 PUSH2 0x800 JUMP JUMPDEST DUP2 MSTORE PUSH1 0x20 ADD DUP4 DUP2 MSTORE POP SWAP1 DUP1 PUSH1 0x1 DUP2 SLOAD ADD DUP1 DUP3 SSTORE DUP1 SWAP2 POP POP PUSH1 0x1 SWAP1 SUB SWAP1 PUSH0 MSTORE PUSH1 0x20 PUSH0 KECCAK256 SWAP1 PUSH1 0x5 MUL ADD PUSH0 SWAP1 SWAP2 SWAP1 SWAP2 SWAP1 SWAP2 POP PUSH0 DUP3 ADD MLOAD DUP2 PUSH0 ADD SWAP1 DUP2 PUSH2 0x9FA SWAP2 SWAP1 PUSH2 0x188E JUMP JUMPDEST POP PUSH1 0x20 DUP3 ADD MLOAD DUP2 PUSH1 0x1 ADD SSTORE PUSH1 0x40 DUP3 ADD MLOAD DUP2 PUSH1 0x2 ADD SSTORE PUSH1 0x60 DUP3 ADD MLOAD DUP2 PUSH1 0x3 ADD SWAP1 DUP2 PUSH2 0xA24 SWAP2 SWAP1 PUSH2 0x188E JUMP JUMPDEST POP PUSH1 0x80 DUP3 ADD MLOAD DUP2 PUSH1 0x4 ADD SWAP1 DUP1 MLOAD SWAP1 PUSH1 0x20 ADD SWAP1 PUSH2 0xA41 SWAP3 SWAP2 SWAP1 PUSH2 0xD4B JUMP JUMPDEST POP POP POP POP POP POP JUMP JUMPDEST PUSH1 0x60 PUSH1 0x1 DUP3 PUSH1 0x40 MLOAD PUSH2 0xA5B SWAP2 SWAP1 PUSH2 0x1587 JUMP JUMPDEST SWAP1 DUP2 MSTORE PUSH1 0x20 ADD PUSH1 0x40 MLOAD DUP1 SWAP2 SUB SWAP1 KECCAK256 DUP1 SLOAD DUP1 PUSH1 0x20 MUL PUSH1 0x20 ADD PUSH1 0x40 MLOAD SWAP1 DUP2 ADD PUSH1 0x40 MSTORE DUP1 SWAP3 SWAP2 SWAP1 DUP2 DUP2 MSTORE PUSH1 0x20 ADD PUSH0 SWAP1 JUMPDEST DUP3 DUP3 LT ISZERO PUSH2 0xCBF JUMPI DUP4 DUP3 SWAP1 PUSH0 MSTORE PUSH1 0x20 PUSH0 KECCAK256 SWAP1 PUSH1 0x5 MUL ADD PUSH1 0x40 MLOAD DUP1 PUSH1 0xA0 ADD PUSH1 0x40 MSTORE SWAP1 DUP2 PUSH0 DUP3 ADD DUP1 SLOAD PUSH2 0xAB8 SWAP1 PUSH2 0x151D JUMP JUMPDEST DUP1 PUSH1 0x1F ADD PUSH1 0x20 DUP1 SWAP2 DIV MUL PUSH1 0x20 ADD PUSH1 0x40 MLOAD SWAP1 DUP2 ADD PUSH1 0x40 MSTORE DUP1 SWAP3 SWAP2 SWAP1 DUP2 DUP2 MSTORE PUSH1 0x20 ADD DUP3 DUP1 SLOAD PUSH2 0xAE4 SWAP1 PUSH2 0x151D JUMP JUMPDEST DUP1 ISZERO PUSH2 0xB2F JUMPI DUP1 PUSH1 0x1F LT PUSH2 0xB06 JUMPI PUSH2 0x100 DUP1 DUP4 SLOAD DIV MUL DUP4 MSTORE SWAP2 PUSH1 0x20 ADD SWAP2 PUSH2 0xB2F JUMP JUMPDEST DUP3 ADD SWAP2 SWAP1 PUSH0 MSTORE PUSH1 0x20 PUSH0 KECCAK256 SWAP1 JUMPDEST DUP2 SLOAD DUP2 MSTORE SWAP1 PUSH1 0x1 ADD SWAP1 PUSH1 0x20 ADD DUP1 DUP4 GT PUSH2 0xB12 JUMPI DUP3 SWAP1 SUB PUSH1 0x1F AND DUP3 ADD SWAP2 JUMPDEST POP POP POP POP POP DUP2 MSTORE PUSH1 0x20 ADD PUSH1 0x1 DUP3 ADD SLOAD DUP2 MSTORE PUSH1 0x20 ADD PUSH1 0x2 DUP3 ADD SLOAD DUP2 MSTORE PUSH1 0x20 ADD PUSH1 0x3 DUP3 ADD DUP1 SLOAD PUSH2 0xB5C SWAP1 PUSH2 0x151D JUMP JUMPDEST DUP1 PUSH1 0x1F ADD PUSH1 0x20 DUP1 SWAP2 DIV MUL PUSH1 0x20 ADD PUSH1 0x40 MLOAD SWAP1 DUP2 ADD PUSH1 0x40 MSTORE DUP1 SWAP3 SWAP2 SWAP1 DUP2 DUP2 MSTORE PUSH1 0x20 ADD DUP3 DUP1 SLOAD PUSH2 0xB88 SWAP1 PUSH2 0x151D JUMP JUMPDEST DUP1 ISZERO PUSH2 0xBD3 JUMPI DUP1 PUSH1 0x1F LT PUSH2 0xBAA JUMPI PUSH2 0x100 DUP1 DUP4 SLOAD DIV MUL DUP4 MSTORE SWAP2 PUSH1 0x20 ADD SWAP2 PUSH2 0xBD3 JUMP JUMPDEST DUP3 ADD SWAP2 SWAP1 PUSH0 MSTORE PUSH1 0x20 PUSH0 KECCAK256 SWAP1 JUMPDEST DUP2 SLOAD DUP2 MSTORE SWAP1 PUSH1 0x1 ADD SWAP1 PUSH1 0x20 ADD DUP1 DUP4 GT PUSH2 0xBB6 JUMPI DUP3 SWAP1 SUB PUSH1 0x1F AND DUP3 ADD SWAP2 JUMPDEST POP POP POP POP POP DUP2 MSTORE PUSH1 0x20 ADD PUSH1 0x4 DUP3 ADD DUP1 SLOAD DUP1 PUSH1 0x20 MUL PUSH1 0x20 ADD PUSH1 0x40 MLOAD SWAP1 DUP2 ADD PUSH1 0x40 MSTORE DUP1 SWAP3 SWAP2 SWAP1 DUP2 DUP2 MSTORE PUSH1 0x20 ADD PUSH0 SWAP1 JUMPDEST DUP3 DUP3 LT ISZERO PUSH2 0xCA8 JUMPI DUP4 DUP3 SWAP1 PUSH0 MSTORE PUSH1 0x20 PUSH0 KECCAK256 ADD DUP1 SLOAD PUSH2 0xC1D SWAP1 PUSH2 0x151D JUMP JUMPDEST DUP1 PUSH1 0x1F ADD PUSH1 0x20 DUP1 SWAP2 DIV MUL PUSH1 0x20 ADD PUSH1 0x40 MLOAD SWAP1 DUP2 ADD PUSH1 0x40 MSTORE DUP1 SWAP3 SWAP2 SWAP1 DUP2 DUP2 MSTORE PUSH1 0x20 ADD DUP3 DUP1 SLOAD PUSH2 0xC49 SWAP1 PUSH2 0x151D JUMP JUMPDEST DUP1 ISZERO PUSH2 0xC94 JUMPI DUP1 PUSH1 0x1F LT PUSH2 0xC6B JUMPI PUSH2 0x100 DUP1 DUP4 SLOAD DIV MUL DUP4 MSTORE SWAP2 PUSH1 0x20 ADD SWAP2 PUSH2 0xC94 JUMP JUMPDEST DUP3 ADD SWAP2 SWAP1 PUSH0 MSTORE PUSH1 0x20 PUSH0 KECCAK256 SWAP1 JUMPDEST DUP2 SLOAD DUP2 MSTORE SWAP1 PUSH1 0x1 ADD SWAP1 PUSH1 0x20 ADD DUP1 DUP4 GT PUSH2 0xC77 JUMPI DUP3 SWAP1 SUB PUSH1 0x1F AND DUP3 ADD SWAP2 JUMPDEST POP POP POP POP POP DUP2 MSTORE PUSH1 0x20 ADD SWAP1 PUSH1 0x1 ADD SWAP1 PUSH2 0xC00 JUMP JUMPDEST POP POP POP POP DUP2 MSTORE POP POP DUP2 MSTORE PUSH1 0x20 ADD SWAP1 PUSH1 0x1 ADD SWAP1 PUSH2 0xA88 JUMP JUMPDEST POP POP POP POP SWAP1 POP SWAP2 SWAP1 POP JUMP JUMPDEST PUSH0 PUSH1 0x46 PUSH2 0xCD5 PUSH2 0xCEA JUMP JUMPDEST LT PUSH2 0xCE3 JUMPI PUSH1 0x1 SWAP1 POP PUSH2 0xCE7 JUMP JUMPDEST PUSH0 SWAP1 POP JUMPDEST SWAP1 JUMP JUMPDEST PUSH0 DUP1 PUSH0 JUMPDEST PUSH1 0x1 PUSH0 DUP1 SLOAD SWAP1 POP PUSH2 0xCFF SWAP2 SWAP1 PUSH2 0x15CA JUMP JUMPDEST DUP2 LT ISZERO PUSH2 0xD29 JUMPI PUSH2 0xD0F DUP2 PUSH2 0x24E JUMP JUMPDEST DUP3 PUSH2 0xD1A SWAP2 SWAP1 PUSH2 0x15CA JUMP JUMPDEST SWAP2 POP DUP1 DUP1 PUSH1 0x1 ADD SWAP2 POP POP PUSH2 0xCEE JUMP JUMPDEST PUSH0 DUP1 SLOAD SWAP1 POP DUP3 PUSH2 0xD39 SWAP2 SWAP1 PUSH2 0x198A JUMP JUMPDEST SWAP3 POP POP POP SWAP1 JUMP JUMPDEST PUSH0 DUP1 DUP1 SLOAD SWAP1 POP SWAP1 POP SWAP1 JUMP JUMPDEST DUP3 DUP1 SLOAD DUP3 DUP3 SSTORE SWAP1 PUSH0 MSTORE PUSH1 0x20 PUSH0 KECCAK256 SWAP1 DUP2 ADD SWAP3 DUP3 ISZERO PUSH2 0xD91 JUMPI SWAP2 PUSH1 0x20 MUL DUP3 ADD JUMPDEST DUP3 DUP2 GT ISZERO PUSH2 0xD90 JUMPI DUP3 MLOAD DUP3 SWAP1 DUP2 PUSH2 0xD80 SWAP2 SWAP1 PUSH2 0x188E JUMP JUMPDEST POP SWAP2 PUSH1 0x20 ADD SWAP2 SWAP1 PUSH1 0x1 ADD SWAP1 PUSH2 0xD69 JUMP JUMPDEST JUMPDEST POP SWAP1 POP PUSH2 0xD9E SWAP2 SWAP1 PUSH2 0xDA2 JUMP JUMPDEST POP SWAP1 JUMP JUMPDEST JUMPDEST DUP1 DUP3 GT ISZERO PUSH2 0xDC1 JUMPI PUSH0 DUP2 DUP2 PUSH2 0xDB8 SWAP2 SWAP1 PUSH2 0xDC5 JUMP JUMPDEST POP PUSH1 0x1 ADD PUSH2 0xDA3 JUMP JUMPDEST POP SWAP1 JUMP JUMPDEST POP DUP1 SLOAD PUSH2 0xDD1 SWAP1 PUSH2 0x151D JUMP JUMPDEST PUSH0 DUP3 SSTORE DUP1 PUSH1 0x1F LT PUSH2 0xDE2 JUMPI POP PUSH2 0xDFF JUMP JUMPDEST PUSH1 0x1F ADD PUSH1 0x20 SWAP1 DIV SWAP1 PUSH0 MSTORE PUSH1 0x20 PUSH0 KECCAK256 SWAP1 DUP2 ADD SWAP1 PUSH2 0xDFE SWAP2 SWAP1 PUSH2 0xE02 JUMP JUMPDEST JUMPDEST POP JUMP JUMPDEST JUMPDEST DUP1 DUP3 GT ISZERO PUSH2 0xE19 JUMPI PUSH0 DUP2 PUSH0 SWAP1 SSTORE POP PUSH1 0x1 ADD PUSH2 0xE03 JUMP JUMPDEST POP SWAP1 JUMP JUMPDEST PUSH0 PUSH1 0x40 MLOAD SWAP1 POP SWAP1 JUMP JUMPDEST PUSH0 DUP1 REVERT JUMPDEST PUSH0 DUP1 REVERT JUMPDEST PUSH0 DUP2 SWAP1 POP SWAP2 SWAP1 POP JUMP JUMPDEST PUSH2 0xE40 DUP2 PUSH2 0xE2E JUMP JUMPDEST DUP2 EQ PUSH2 0xE4A JUMPI PUSH0 DUP1 REVERT JUMPDEST POP JUMP JUMPDEST PUSH0 DUP2 CALLDATALOAD SWAP1 POP PUSH2 0xE5B DUP2 PUSH2 0xE37 JUMP JUMPDEST SWAP3 SWAP2 POP POP JUMP JUMPDEST PUSH0 PUSH1 0x20 DUP3 DUP5 SUB SLT ISZERO PUSH2 0xE76 JUMPI PUSH2 0xE75 PUSH2 0xE26 JUMP JUMPDEST JUMPDEST PUSH0 PUSH2 0xE83 DUP5 DUP3 DUP6 ADD PUSH2 0xE4D JUMP JUMPDEST SWAP2 POP POP SWAP3 SWAP2 POP POP JUMP JUMPDEST PUSH2 0xE95 DUP2 PUSH2 0xE2E JUMP JUMPDEST DUP3 MSTORE POP POP JUMP JUMPDEST PUSH0 PUSH1 0x20 DUP3 ADD SWAP1 POP PUSH2 0xEAE PUSH0 DUP4 ADD DUP5 PUSH2 0xE8C JUMP JUMPDEST SWAP3 SWAP2 POP POP JUMP JUMPDEST PUSH0 DUP2 MLOAD SWAP1 POP SWAP2 SWAP1 POP JUMP JUMPDEST PUSH0 DUP3 DUP3 MSTORE PUSH1 0x20 DUP3 ADD SWAP1 POP SWAP3 SWAP2 POP POP JUMP JUMPDEST PUSH0 DUP2 SWAP1 POP PUSH1 0x20 DUP3 ADD SWAP1 POP SWAP2 SWAP1 POP JUMP JUMPDEST PUSH0 DUP2 MLOAD SWAP1 POP SWAP2 SWAP1 POP JUMP JUMPDEST PUSH0 DUP3 DUP3 MSTORE PUSH1 0x20 DUP3 ADD SWAP1 POP SWAP3 SWAP2 POP POP JUMP JUMPDEST DUP3 DUP2 DUP4 MCOPY PUSH0 DUP4 DUP4 ADD MSTORE POP POP POP JUMP JUMPDEST PUSH0 PUSH1 0x1F NOT PUSH1 0x1F DUP4 ADD AND SWAP1 POP SWAP2 SWAP1 POP JUMP JUMPDEST PUSH0 PUSH2 0xF1F DUP3 PUSH2 0xEDD JUMP JUMPDEST PUSH2 0xF29 DUP2 DUP6 PUSH2 0xEE7 JUMP JUMPDEST SWAP4 POP PUSH2 0xF39 DUP2 DUP6 PUSH1 0x20 DUP7 ADD PUSH2 0xEF7 JUMP JUMPDEST PUSH2 0xF42 DUP2 PUSH2 0xF05 JUMP JUMPDEST DUP5 ADD SWAP2 POP POP SWAP3 SWAP2 POP POP JUMP JUMPDEST PUSH2 0xF56 DUP2 PUSH2 0xE2E JUMP JUMPDEST DUP3 MSTORE POP POP JUMP JUMPDEST PUSH0 DUP2 MLOAD SWAP1 POP SWAP2 SWAP1 POP JUMP JUMPDEST PUSH0 DUP3 DUP3 MSTORE PUSH1 0x20 DUP3 ADD SWAP1 POP SWAP3 SWAP2 POP POP JUMP JUMPDEST PUSH0 DUP2 SWAP1 POP PUSH1 0x20 DUP3 ADD SWAP1 POP SWAP2 SWAP1 POP JUMP JUMPDEST PUSH0 PUSH2 0xF90 DUP4 DUP4 PUSH2 0xF15 JUMP JUMPDEST SWAP1 POP SWAP3 SWAP2 POP POP JUMP JUMPDEST PUSH0 PUSH1 0x20 DUP3 ADD SWAP1 POP SWAP2 SWAP1 POP JUMP JUMPDEST PUSH0 PUSH2 0xFAE DUP3 PUSH2 0xF5C JUMP JUMPDEST PUSH2 0xFB8 DUP2 DUP6 PUSH2 0xF66 JUMP JUMPDEST SWAP4 POP DUP4 PUSH1 0x20 DUP3 MUL DUP6 ADD PUSH2 0xFCA DUP6 PUSH2 0xF76 JUMP JUMPDEST DUP1 PUSH0 JUMPDEST DUP6 DUP2 LT ISZERO PUSH2 0x1005 JUMPI DUP5 DUP5 SUB DUP10 MSTORE DUP2 MLOAD PUSH2 0xFE6 DUP6 DUP3 PUSH2 0xF85 JUMP JUMPDEST SWAP5 POP PUSH2 0xFF1 DUP4 PUSH2 0xF98 JUMP JUMPDEST SWAP3 POP PUSH1 0x20 DUP11 ADD SWAP10 POP POP PUSH1 0x1 DUP2 ADD SWAP1 POP PUSH2 0xFCD JUMP JUMPDEST POP DUP3 SWAP8 POP DUP8 SWAP6 POP POP POP POP POP POP SWAP3 SWAP2 POP POP JUMP JUMPDEST PUSH0 PUSH1 0xA0 DUP4 ADD PUSH0 DUP4 ADD MLOAD DUP5 DUP3 SUB PUSH0 DUP7 ADD MSTORE PUSH2 0x1031 DUP3 DUP3 PUSH2 0xF15 JUMP JUMPDEST SWAP2 POP POP PUSH1 0x20 DUP4 ADD MLOAD PUSH2 0x1046 PUSH1 0x20 DUP7 ADD DUP3 PUSH2 0xF4D JUMP JUMPDEST POP PUSH1 0x40 DUP4 ADD MLOAD PUSH2 0x1059 PUSH1 0x40 DUP7 ADD DUP3 PUSH2 0xF4D JUMP JUMPDEST POP PUSH1 0x60 DUP4 ADD MLOAD DUP5 DUP3 SUB PUSH1 0x60 DUP7 ADD MSTORE PUSH2 0x1071 DUP3 DUP3 PUSH2 0xF15 JUMP JUMPDEST SWAP2 POP POP PUSH1 0x80 DUP4 ADD MLOAD DUP5 DUP3 SUB PUSH1 0x80 DUP7 ADD MSTORE PUSH2 0x108B DUP3 DUP3 PUSH2 0xFA4 JUMP JUMPDEST SWAP2 POP POP DUP1 SWAP2 POP POP SWAP3 SWAP2 POP POP JUMP JUMPDEST PUSH0 PUSH2 0x10A3 DUP4 DUP4 PUSH2 0x1017 JUMP JUMPDEST SWAP1 POP SWAP3 SWAP2 POP POP JUMP JUMPDEST PUSH0 PUSH1 0x20 DUP3 ADD SWAP1 POP SWAP2 SWAP1 POP JUMP JUMPDEST PUSH0 PUSH2 0x10C1 DUP3 PUSH2 0xEB4 JUMP JUMPDEST PUSH2 0x10CB DUP2 DUP6 PUSH2 0xEBE JUMP JUMPDEST SWAP4 POP DUP4 PUSH1 0x20 DUP3 MUL DUP6 ADD PUSH2 0x10DD DUP6 PUSH2 0xECE JUMP JUMPDEST DUP1 PUSH0 JUMPDEST DUP6 DUP2 LT ISZERO PUSH2 0x1118 JUMPI DUP5 DUP5 SUB DUP10 MSTORE DUP2 MLOAD PUSH2 0x10F9 DUP6 DUP3 PUSH2 0x1098 JUMP JUMPDEST SWAP5 POP PUSH2 0x1104 DUP4 PUSH2 0x10AB JUMP JUMPDEST SWAP3 POP PUSH1 0x20 DUP11 ADD SWAP10 POP POP PUSH1 0x1 DUP2 ADD SWAP1 POP PUSH2 0x10E0 JUMP JUMPDEST POP DUP3 SWAP8 POP DUP8 SWAP6 POP POP POP POP POP POP SWAP3 SWAP2 POP POP JUMP JUMPDEST PUSH0 PUSH1 0x20 DUP3 ADD SWAP1 POP DUP2 DUP2 SUB PUSH0 DUP4 ADD MSTORE PUSH2 0x1142 DUP2 DUP5 PUSH2 0x10B7 JUMP JUMPDEST SWAP1 POP SWAP3 SWAP2 POP POP JUMP JUMPDEST PUSH0 DUP1 REVERT JUMPDEST PUSH0 DUP1 REVERT JUMPDEST PUSH32 0x4E487B7100000000000000000000000000000000000000000000000000000000 PUSH0 MSTORE PUSH1 0x41 PUSH1 0x4 MSTORE PUSH1 0x24 PUSH0 REVERT JUMPDEST PUSH2 0x1188 DUP3 PUSH2 0xF05 JUMP JUMPDEST DUP2 ADD DUP2 DUP2 LT PUSH8 0xFFFFFFFFFFFFFFFF DUP3 GT OR ISZERO PUSH2 0x11A7 JUMPI PUSH2 0x11A6 PUSH2 0x1152 JUMP JUMPDEST JUMPDEST DUP1 PUSH1 0x40 MSTORE POP POP POP JUMP JUMPDEST PUSH0 PUSH2 0x11B9 PUSH2 0xE1D JUMP JUMPDEST SWAP1 POP PUSH2 0x11C5 DUP3 DUP3 PUSH2 0x117F JUMP JUMPDEST SWAP2 SWAP1 POP JUMP JUMPDEST PUSH0 PUSH8 0xFFFFFFFFFFFFFFFF DUP3 GT ISZERO PUSH2 0x11E4 JUMPI PUSH2 0x11E3 PUSH2 0x1152 JUMP JUMPDEST JUMPDEST PUSH2 0x11ED DUP3 PUSH2 0xF05 JUMP JUMPDEST SWAP1 POP PUSH1 0x20 DUP2 ADD SWAP1 POP SWAP2 SWAP1 POP JUMP JUMPDEST DUP3 DUP2 DUP4 CALLDATACOPY PUSH0 DUP4 DUP4 ADD MSTORE POP POP POP JUMP JUMPDEST PUSH0 PUSH2 0x121A PUSH2 0x1215 DUP5 PUSH2 0x11CA JUMP JUMPDEST PUSH2 0x11B0 JUMP JUMPDEST SWAP1 POP DUP3 DUP2 MSTORE PUSH1 0x20 DUP2 ADD DUP5 DUP5 DUP5 ADD GT ISZERO PUSH2 0x1236 JUMPI PUSH2 0x1235 PUSH2 0x114E JUMP JUMPDEST JUMPDEST PUSH2 0x1241 DUP5 DUP3 DUP6 PUSH2 0x11FA JUMP JUMPDEST POP SWAP4 SWAP3 POP POP POP JUMP JUMPDEST PUSH0 DUP3 PUSH1 0x1F DUP4 ADD SLT PUSH2 0x125D JUMPI PUSH2 0x125C PUSH2 0x114A JUMP JUMPDEST JUMPDEST DUP2 CALLDATALOAD PUSH2 0x126D DUP5 DUP3 PUSH1 0x20 DUP7 ADD PUSH2 0x1208 JUMP JUMPDEST SWAP2 POP POP SWAP3 SWAP2 POP POP JUMP JUMPDEST PUSH0 PUSH1 0x20 DUP3 DUP5 SUB SLT ISZERO PUSH2 0x128B JUMPI PUSH2 0x128A PUSH2 0xE26 JUMP JUMPDEST JUMPDEST PUSH0 DUP3 ADD CALLDATALOAD PUSH8 0xFFFFFFFFFFFFFFFF DUP2 GT ISZERO PUSH2 0x12A8 JUMPI PUSH2 0x12A7 PUSH2 0xE2A JUMP JUMPDEST JUMPDEST PUSH2 0x12B4 DUP5 DUP3 DUP6 ADD PUSH2 0x1249 JUMP JUMPDEST SWAP2 POP POP SWAP3 SWAP2 POP POP JUMP JUMPDEST PUSH0 PUSH1 0x40 DUP3 ADD SWAP1 POP PUSH2 0x12D0 PUSH0 DUP4 ADD DUP6 PUSH2 0xE8C JUMP JUMPDEST DUP2 DUP2 SUB PUSH1 0x20 DUP4 ADD MSTORE PUSH2 0x12E2 DUP2 DUP5 PUSH2 0x10B7 JUMP JUMPDEST SWAP1 POP SWAP4 SWAP3 POP POP POP JUMP JUMPDEST PUSH0 DUP3 DUP3 MSTORE PUSH1 0x20 DUP3 ADD SWAP1 POP SWAP3 SWAP2 POP POP JUMP JUMPDEST PUSH0 PUSH2 0x1305 DUP3 PUSH2 0xEDD JUMP JUMPDEST PUSH2 0x130F DUP2 DUP6 PUSH2 0x12EB JUMP JUMPDEST SWAP4 POP PUSH2 0x131F DUP2 DUP6 PUSH1 0x20 DUP7 ADD PUSH2 0xEF7 JUMP JUMPDEST PUSH2 0x1328 DUP2 PUSH2 0xF05 JUMP JUMPDEST DUP5 ADD SWAP2 POP POP SWAP3 SWAP2 POP POP JUMP JUMPDEST PUSH0 PUSH1 0x20 DUP3 ADD SWAP1 POP DUP2 DUP2 SUB PUSH0 DUP4 ADD MSTORE PUSH2 0x134B DUP2 DUP5 PUSH2 0x12FB JUMP JUMPDEST SWAP1 POP SWAP3 SWAP2 POP POP JUMP JUMPDEST PUSH0 PUSH8 0xFFFFFFFFFFFFFFFF DUP3 GT ISZERO PUSH2 0x136D JUMPI PUSH2 0x136C PUSH2 0x1152 JUMP JUMPDEST JUMPDEST PUSH1 0x20 DUP3 MUL SWAP1 POP PUSH1 0x20 DUP2 ADD SWAP1 POP SWAP2 SWAP1 POP JUMP JUMPDEST PUSH0 DUP1 REVERT JUMPDEST PUSH0 PUSH2 0x1394 PUSH2 0x138F DUP5 PUSH2 0x1353 JUMP JUMPDEST PUSH2 0x11B0 JUMP JUMPDEST SWAP1 POP DUP1 DUP4 DUP3 MSTORE PUSH1 0x20 DUP3 ADD SWAP1 POP PUSH1 0x20 DUP5 MUL DUP4 ADD DUP6 DUP2 GT ISZERO PUSH2 0x13B7 JUMPI PUSH2 0x13B6 PUSH2 0x137E JUMP JUMPDEST JUMPDEST DUP4 JUMPDEST DUP2 DUP2 LT ISZERO PUSH2 0x13FE JUMPI DUP1 CALLDATALOAD PUSH8 0xFFFFFFFFFFFFFFFF DUP2 GT ISZERO PUSH2 0x13DC JUMPI PUSH2 0x13DB PUSH2 0x114A JUMP JUMPDEST JUMPDEST DUP1 DUP7 ADD PUSH2 0x13E9 DUP10 DUP3 PUSH2 0x1249 JUMP JUMPDEST DUP6 MSTORE PUSH1 0x20 DUP6 ADD SWAP5 POP POP POP PUSH1 0x20 DUP2 ADD SWAP1 POP PUSH2 0x13B9 JUMP JUMPDEST POP POP POP SWAP4 SWAP3 POP POP POP JUMP JUMPDEST PUSH0 DUP3 PUSH1 0x1F DUP4 ADD SLT PUSH2 0x141C JUMPI PUSH2 0x141B PUSH2 0x114A JUMP JUMPDEST JUMPDEST DUP2 CALLDATALOAD PUSH2 0x142C DUP5 DUP3 PUSH1 0x20 DUP7 ADD PUSH2 0x1382 JUMP JUMPDEST SWAP2 POP POP SWAP3 SWAP2 POP POP JUMP JUMPDEST PUSH0 DUP1 PUSH0 PUSH1 0x60 DUP5 DUP7 SUB SLT ISZERO PUSH2 0x144C JUMPI PUSH2 0x144B PUSH2 0xE26 JUMP JUMPDEST JUMPDEST PUSH0 DUP5 ADD CALLDATALOAD PUSH8 0xFFFFFFFFFFFFFFFF DUP2 GT ISZERO PUSH2 0x1469 JUMPI PUSH2 0x1468 PUSH2 0xE2A JUMP JUMPDEST JUMPDEST PUSH2 0x1475 DUP7 DUP3 DUP8 ADD PUSH2 0x1249 JUMP JUMPDEST SWAP4 POP POP PUSH1 0x20 PUSH2 0x1486 DUP7 DUP3 DUP8 ADD PUSH2 0xE4D JUMP JUMPDEST SWAP3 POP POP PUSH1 0x40 DUP5 ADD CALLDATALOAD PUSH8 0xFFFFFFFFFFFFFFFF DUP2 GT ISZERO PUSH2 0x14A7 JUMPI PUSH2 0x14A6 PUSH2 0xE2A JUMP JUMPDEST JUMPDEST PUSH2 0x14B3 DUP7 DUP3 DUP8 ADD PUSH2 0x1408 JUMP JUMPDEST SWAP2 POP POP SWAP3 POP SWAP3 POP SWAP3 JUMP JUMPDEST PUSH0 DUP2 ISZERO ISZERO SWAP1 POP SWAP2 SWAP1 POP JUMP JUMPDEST PUSH2 0x14D1 DUP2 PUSH2 0x14BD JUMP JUMPDEST DUP3 MSTORE POP POP JUMP JUMPDEST PUSH0 PUSH1 0x20 DUP3 ADD SWAP1 POP PUSH2 0x14EA PUSH0 DUP4 ADD DUP5 PUSH2 0x14C8 JUMP JUMPDEST SWAP3 SWAP2 POP POP JUMP JUMPDEST PUSH32 0x4E487B7100000000000000000000000000000000000000000000000000000000 PUSH0 MSTORE PUSH1 0x22 PUSH1 0x4 MSTORE PUSH1 0x24 PUSH0 REVERT JUMPDEST PUSH0 PUSH1 0x2 DUP3 DIV SWAP1 POP PUSH1 0x1 DUP3 AND DUP1 PUSH2 0x1534 JUMPI PUSH1 0x7F DUP3 AND SWAP2 POP JUMPDEST PUSH1 0x20 DUP3 LT DUP2 SUB PUSH2 0x1547 JUMPI PUSH2 0x1546 PUSH2 0x14F0 JUMP JUMPDEST JUMPDEST POP SWAP2 SWAP1 POP JUMP JUMPDEST PUSH0 DUP2 SWAP1 POP SWAP3 SWAP2 POP POP JUMP JUMPDEST PUSH0 PUSH2 0x1561 DUP3 PUSH2 0xEDD JUMP JUMPDEST PUSH2 0x156B DUP2 DUP6 PUSH2 0x154D JUMP JUMPDEST SWAP4 POP PUSH2 0x157B DUP2 DUP6 PUSH1 0x20 DUP7 ADD PUSH2 0xEF7 JUMP JUMPDEST DUP1 DUP5 ADD SWAP2 POP POP SWAP3 SWAP2 POP POP JUMP JUMPDEST PUSH0 PUSH2 0x1592 DUP3 DUP5 PUSH2 0x1557 JUMP JUMPDEST SWAP2 POP DUP2 SWAP1 POP SWAP3 SWAP2 POP POP JUMP JUMPDEST PUSH32 0x4E487B7100000000000000000000000000000000000000000000000000000000 PUSH0 MSTORE PUSH1 0x11 PUSH1 0x4 MSTORE PUSH1 0x24 PUSH0 REVERT JUMPDEST PUSH0 PUSH2 0x15D4 DUP3 PUSH2 0xE2E JUMP JUMPDEST SWAP2 POP PUSH2 0x15DF DUP4 PUSH2 0xE2E JUMP JUMPDEST SWAP3 POP DUP3 DUP3 ADD SWAP1 POP DUP1 DUP3 GT ISZERO PUSH2 0x15F7 JUMPI PUSH2 0x15F6 PUSH2 0x159D JUMP JUMPDEST JUMPDEST SWAP3 SWAP2 POP POP JUMP JUMPDEST PUSH32 0x4600000000000000000000000000000000000000000000000000000000000000 PUSH0 DUP3 ADD MSTORE POP JUMP JUMPDEST PUSH0 PUSH2 0x1631 PUSH1 0x1 DUP4 PUSH2 0x154D JUMP JUMPDEST SWAP2 POP PUSH2 0x163C DUP3 PUSH2 0x15FD JUMP JUMPDEST PUSH1 0x1 DUP3 ADD SWAP1 POP SWAP2 SWAP1 POP JUMP JUMPDEST PUSH0 PUSH2 0x1651 DUP3 PUSH2 0x1625 JUMP JUMPDEST SWAP2 POP DUP2 SWAP1 POP SWAP2 SWAP1 POP JUMP JUMPDEST PUSH0 DUP2 SWAP1 POP DUP2 PUSH0 MSTORE PUSH1 0x20 PUSH0 KECCAK256 SWAP1 POP SWAP2 SWAP1 POP JUMP JUMPDEST PUSH0 DUP2 SLOAD PUSH2 0x1679 DUP2 PUSH2 0x151D JUMP JUMPDEST PUSH2 0x1683 DUP2 DUP7 PUSH2 0x154D JUMP JUMPDEST SWAP5 POP PUSH1 0x1 DUP3 AND PUSH0 DUP2 EQ PUSH2 0x169D JUMPI PUSH1 0x1 DUP2 EQ PUSH2 0x16B2 JUMPI PUSH2 0x16E4 JUMP JUMPDEST PUSH1 0xFF NOT DUP4 AND DUP7 MSTORE DUP2 ISZERO ISZERO DUP3 MUL DUP7 ADD SWAP4 POP PUSH2 0x16E4 JUMP JUMPDEST PUSH2 0x16BB DUP6 PUSH2 0x165B JUMP JUMPDEST PUSH0 JUMPDEST DUP4 DUP2 LT ISZERO PUSH2 0x16DC JUMPI DUP2 SLOAD DUP2 DUP10 ADD MSTORE PUSH1 0x1 DUP3 ADD SWAP2 POP PUSH1 0x20 DUP2 ADD SWAP1 POP PUSH2 0x16BD JUMP JUMPDEST DUP4 DUP9 ADD SWAP6 POP POP POP JUMPDEST POP POP POP SWAP3 SWAP2 POP POP JUMP JUMPDEST PUSH0 PUSH2 0x16F8 DUP3 DUP5 PUSH2 0x166D JUMP JUMPDEST SWAP2 POP DUP2 SWAP1 POP SWAP3 SWAP2 POP POP JUMP JUMPDEST PUSH0 PUSH1 0x20 PUSH1 0x1F DUP4 ADD DIV SWAP1 POP SWAP2 SWAP1 POP JUMP JUMPDEST PUSH0 DUP3 DUP3 SHL SWAP1 POP SWAP3 SWAP2 POP POP JUMP JUMPDEST PUSH0 PUSH1 0x8 DUP4 MUL PUSH2 0x174D PUSH32 0xFFFFFFFFFFFFFFFFFFFFFFFFFFFFFFFFFFFFFFFFFFFFFFFFFFFFFFFFFFFFFFFF DUP3 PUSH2 0x1712 JUMP JUMPDEST PUSH2 0x1757 DUP7 DUP4 PUSH2 0x1712 JUMP JUMPDEST SWAP6 POP DUP1 NOT DUP5 AND SWAP4 POP DUP1 DUP7 AND DUP5 OR SWAP3 POP POP POP SWAP4 SWAP3 POP POP POP JUMP JUMPDEST PUSH0 DUP2 SWAP1 POP SWAP2 SWAP1 POP JUMP JUMPDEST PUSH0 PUSH2 0x1792 PUSH2 0x178D PUSH2 0x1788 DUP5 PUSH2 0xE2E JUMP JUMPDEST PUSH2 0x176F JUMP JUMPDEST PUSH2 0xE2E JUMP JUMPDEST SWAP1 POP SWAP2 SWAP1 POP JUMP JUMPDEST PUSH0 DUP2 SWAP1 POP SWAP2 SWAP1 POP JUMP JUMPDEST PUSH2 0x17AB DUP4 PUSH2 0x1778 JUMP JUMPDEST PUSH2 0x17BF PUSH2 0x17B7 DUP3 PUSH2 0x1799 JUMP JUMPDEST DUP5 DUP5 SLOAD PUSH2 0x171E JUMP JUMPDEST DUP3 SSTORE POP POP POP POP JUMP JUMPDEST PUSH0 SWAP1 JUMP JUMPDEST PUSH2 0x17D3 PUSH2 0x17C7 JUMP JUMPDEST PUSH2 0x17DE DUP2 DUP5 DUP5 PUSH2 0x17A2 JUMP JUMPDEST POP POP POP JUMP JUMPDEST JUMPDEST DUP2 DUP2 LT ISZERO PUSH2 0x1801 JUMPI PUSH2 0x17F6 PUSH0 DUP3 PUSH2 0x17CB JUMP JUMPDEST PUSH1 0x1 DUP2 ADD SWAP1 POP PUSH2 0x17E4 JUMP JUMPDEST POP POP JUMP JUMPDEST PUSH1 0x1F DUP3 GT ISZERO PUSH2 0x1846 JUMPI PUSH2 0x1817 DUP2 PUSH2 0x165B JUMP JUMPDEST PUSH2 0x1820 DUP5 PUSH2 0x1703 JUMP JUMPDEST DUP2 ADD PUSH1 0x20 DUP6 LT ISZERO PUSH2 0x182F JUMPI DUP2 SWAP1 POP JUMPDEST PUSH2 0x1843 PUSH2 0x183B DUP6 PUSH2 0x1703 JUMP JUMPDEST DUP4 ADD DUP3 PUSH2 0x17E3 JUMP JUMPDEST POP POP JUMPDEST POP POP POP JUMP JUMPDEST PUSH0 DUP3 DUP3 SHR SWAP1 POP SWAP3 SWAP2 POP POP JUMP JUMPDEST PUSH0 PUSH2 0x1866 PUSH0 NOT DUP5 PUSH1 0x8 MUL PUSH2 0x184B JUMP JUMPDEST NOT DUP1 DUP4 AND SWAP2 POP POP SWAP3 SWAP2 POP POP JUMP JUMPDEST PUSH0 PUSH2 0x187E DUP4 DUP4 PUSH2 0x1857 JUMP JUMPDEST SWAP2 POP DUP3 PUSH1 0x2 MUL DUP3 OR SWAP1 POP SWAP3 SWAP2 POP POP JUMP JUMPDEST PUSH2 0x1897 DUP3 PUSH2 0xEDD JUMP JUMPDEST PUSH8 0xFFFFFFFFFFFFFFFF DUP2 GT ISZERO PUSH2 0x18B0 JUMPI PUSH2 0x18AF PUSH2 0x1152 JUMP JUMPDEST JUMPDEST PUSH2 0x18BA DUP3 SLOAD PUSH2 0x151D JUMP JUMPDEST PUSH2 0x18C5 DUP3 DUP3 DUP6 PUSH2 0x1805 JUMP JUMPDEST PUSH0 PUSH1 0x20 SWAP1 POP PUSH1 0x1F DUP4 GT PUSH1 0x1 DUP2 EQ PUSH2 0x18F6 JUMPI PUSH0 DUP5 ISZERO PUSH2 0x18E4 JUMPI DUP3 DUP8 ADD MLOAD SWAP1 POP JUMPDEST PUSH2 0x18EE DUP6 DUP3 PUSH2 0x1873 JUMP JUMPDEST DUP7 SSTORE POP PUSH2 0x1955 JUMP JUMPDEST PUSH1 0x1F NOT DUP5 AND PUSH2 0x1904 DUP7 PUSH2 0x165B JUMP JUMPDEST PUSH0 JUMPDEST DUP3 DUP2 LT ISZERO PUSH2 0x192B JUMPI DUP5 DUP10 ADD MLOAD DUP3 SSTORE PUSH1 0x1 DUP3 ADD SWAP2 POP PUSH1 0x20 DUP6 ADD SWAP5 POP PUSH1 0x20 DUP2 ADD SWAP1 POP PUSH2 0x1906 JUMP JUMPDEST DUP7 DUP4 LT ISZERO PUSH2 0x1948 JUMPI DUP5 DUP10 ADD MLOAD PUSH2 0x1944 PUSH1 0x1F DUP10 AND DUP3 PUSH2 0x1857 JUMP JUMPDEST DUP4 SSTORE POP JUMPDEST PUSH1 0x1 PUSH1 0x2 DUP9 MUL ADD DUP9 SSTORE POP POP POP JUMPDEST POP POP POP POP POP POP JUMP JUMPDEST PUSH32 0x4E487B7100000000000000000000000000000000000000000000000000000000 PUSH0 MSTORE PUSH1 0x12 PUSH1 0x4 MSTORE PUSH1 0x24 PUSH0 REVERT JUMPDEST PUSH0 PUSH2 0x1994 DUP3 PUSH2 0xE2E JUMP JUMPDEST SWAP2 POP PUSH2 0x199F DUP4 PUSH2 0xE2E JUMP JUMPDEST SWAP3 POP DUP3 PUSH2 0x19AF JUMPI PUSH2 0x19AE PUSH2 0x195D JUMP JUMPDEST JUMPDEST DUP3 DUP3 DIV SWAP1 POP SWAP3 SWAP2 POP POP JUMP INVALID LOG2 PUSH5 0x6970667358 0x22 SLT KECCAK256 BLOBBASEFEE 0x2E 0x28 DUP2 MSIZE 0xC4 0x4B 0xEB 0xEA JUMPI BALANCE LOG4 0xB7 0xCD PUSH13 0x517618914475D7FF190BDF40 0xBB SWAP2 0x4B INVALID PUSH5 0x736F6C6343 STOP ADDMOD BYTE STOP CALLER "
		},
		"gasEstimates": {
			"creation": {
				"codeDepositCost": "1328000",
				"executionCost": "1381",
				"totalCost": "1329381"
			},
			"external": {
				"Average()": "infinite",
				"GradeF()": "infinite",
				"getAllStudent()": "infinite",
				"getLength()": "2550",
				"getScore(string)": "infinite",
				"getScores(uint256)": "infinite",
				"getstudentName(string)": "infinite",
				"getstudentNum(uint256)": "infinite",
				"pushStudent(string,uint256,string[])": "infinite",
				"setGrade(uint256)": "infinite",
				"teach()": "infinite"
			}
		},
		"methodIdentifiers": {
			"Average()": "b36a31c6",
			"GradeF()": "2eb6045e",
			"getAllStudent()": "133d0460",
			"getLength()": "be1c766b",
			"getScore(string)": "16020273",
			"getScores(uint256)": "04527d90",
			"getstudentName(string)": "a24746d8",
			"getstudentNum(uint256)": "1acb1542",
			"pushStudent(string,uint256,string[])": "74aa6858",
			"setGrade(uint256)": "674271cd",
			"teach()": "b30039fc"
		}
	},
	"abi": [
		{
			"inputs": [],
			"name": "Average",
			"outputs": [
				{
					"internalType": "uint256",
					"name": "",
					"type": "uint256"
				}
			],
			"stateMutability": "view",
			"type": "function"
		},
		{
			"inputs": [],
			"name": "GradeF",
			"outputs": [
				{
					"internalType": "uint256",
					"name": "",
					"type": "uint256"
				},
				{
					"components": [
						{
							"internalType": "string",
							"name": "name",
							"type": "string"
						},
						{
							"internalType": "uint256",
							"name": "num",
							"type": "uint256"
						},
						{
							"internalType": "uint256",
							"name": "score",
							"type": "uint256"
						},
						{
							"internalType": "string",
							"name": "grade",
							"type": "string"
						},
						{
							"internalType": "string[]",
							"name": "class",
							"type": "string[]"
						}
					],
					"internalType": "struct TEST2.student[]",
					"name": "",
					"type": "tuple[]"
				}
			],
			"stateMutability": "view",
			"type": "function"
		},
		{
			"inputs": [],
			"name": "getAllStudent",
			"outputs": [
				{
					"components": [
						{
							"internalType": "string",
							"name": "name",
							"type": "string"
						},
						{
							"internalType": "uint256",
							"name": "num",
							"type": "uint256"
						},
						{
							"internalType": "uint256",
							"name": "score",
							"type": "uint256"
						},
						{
							"internalType": "string",
							"name": "grade",
							"type": "string"
						},
						{
							"internalType": "string[]",
							"name": "class",
							"type": "string[]"
						}
					],
					"internalType": "struct TEST2.student[]",
					"name": "",
					"type": "tuple[]"
				}
			],
			"stateMutability": "view",
			"type": "function"
		},
		{
			"inputs": [],
			"name": "getLength",
			"outputs": [
				{
					"internalType": "uint256",
					"name": "",
					"type": "uint256"
				}
			],
			"stateMutability": "view",
			"type": "function"
		},
		{
			"inputs": [
				{
					"internalType": "string",
					"name": "_name",
					"type": "string"
				}
			],
			"name": "getScore",
			"outputs": [
				{
					"internalType": "uint256",
					"name": "",
					"type": "uint256"
				}
			],
			"stateMutability": "view",
			"type": "function"
		},
		{
			"inputs": [
				{
					"internalType": "uint256",
					"name": "i",
					"type": "uint256"
				}
			],
			"name": "getScores",
			"outputs": [
				{
					"internalType": "uint256",
					"name": "",
					"type": "uint256"
				}
			],
			"stateMutability": "view",
			"type": "function"
		},
		{
			"inputs": [
				{
					"internalType": "string",
					"name": "_name",
					"type": "string"
				}
			],
			"name": "getstudentName",
			"outputs": [
				{
					"components": [
						{
							"internalType": "string",
							"name": "name",
							"type": "string"
						},
						{
							"internalType": "uint256",
							"name": "num",
							"type": "uint256"
						},
						{
							"internalType": "uint256",
							"name": "score",
							"type": "uint256"
						},
						{
							"internalType": "string",
							"name": "grade",
							"type": "string"
						},
						{
							"internalType": "string[]",
							"name": "class",
							"type": "string[]"
						}
					],
					"internalType": "struct TEST2.student[]",
					"name": "",
					"type": "tuple[]"
				}
			],
			"stateMutability": "view",
			"type": "function"
		},
		{
			"inputs": [
				{
					"internalType": "uint256",
					"name": "_num",
					"type": "uint256"
				}
			],
			"name": "getstudentNum",
			"outputs": [
				{
					"components": [
						{
							"internalType": "string",
							"name": "name",
							"type": "string"
						},
						{
							"internalType": "uint256",
							"name": "num",
							"type": "uint256"
						},
						{
							"internalType": "uint256",
							"name": "score",
							"type": "uint256"
						},
						{
							"internalType": "string",
							"name": "grade",
							"type": "string"
						},
						{
							"internalType": "string[]",
							"name": "class",
							"type": "string[]"
						}
					],
					"internalType": "struct TEST2.student[]",
					"name": "",
					"type": "tuple[]"
				}
			],
			"stateMutability": "view",
			"type": "function"
		},
		{
			"inputs": [
				{
					"internalType": "string",
					"name": "_name",
					"type": "string"
				},
				{
					"internalType": "uint256",
					"name": "_score",
					"type": "uint256"
				},
				{
					"internalType": "string[]",
					"name": "_class",
					"type": "string[]"
				}
			],
			"name": "pushStudent",
			"outputs": [],
			"stateMutability": "nonpayable",
			"type": "function"
		},
		{
			"inputs": [
				{
					"internalType": "uint256",
					"name": "_score",
					"type": "uint256"
				}
			],
			"name": "setGrade",
			"outputs": [
				{
					"internalType": "string",
					"name": "",
					"type": "string"
				}
			],
			"stateMutability": "pure",
			"type": "function"
		},
		{
			"inputs": [],
			"name": "teach",
			"outputs": [
				{
					"internalType": "bool",
					"name": "",
					"type": "bool"
				}
			],
			"stateMutability": "view",
			"type": "function"
		}
	]
}