{
	"data": {
		"bytecode": {
			"linkReferences": {},
			"object": "6080604052348015600e575f80fd5b50606a80601a5f395ff3fe6080604052348015600e575f80fd5b50600436106026575f3560e01c806341e74c0114602a575b5f80fd5b60306032565b005b56fea2646970667358221220016e8bf5497bc83918145f50c8819ae4bea80f44da19ad2384308c3f1cd4785664736f6c634300081a0033",
			"opcodes": "PUSH1 0x80 PUSH1 0x40 MSTORE CALLVALUE DUP1 ISZERO PUSH1 0xE JUMPI PUSH0 DUP1 REVERT JUMPDEST POP PUSH1 0x6A DUP1 PUSH1 0x1A PUSH0 CODECOPY PUSH0 RETURN INVALID PUSH1 0x80 PUSH1 0x40 MSTORE CALLVALUE DUP1 ISZERO PUSH1 0xE JUMPI PUSH0 DUP1 REVERT JUMPDEST POP PUSH1 0x4 CALLDATASIZE LT PUSH1 0x26 JUMPI PUSH0 CALLDATALOAD PUSH1 0xE0 SHR DUP1 PUSH4 0x41E74C01 EQ PUSH1 0x2A JUMPI JUMPDEST PUSH0 DUP1 REVERT JUMPDEST PUSH1 0x30 PUSH1 0x32 JUMP JUMPDEST STOP JUMPDEST JUMP INVALID LOG2 PUSH5 0x6970667358 0x22 SLT KECCAK256 ADD PUSH15 0x8BF5497BC83918145F50C8819AE4BE 0xA8 0xF PREVRANDAO 0xDA NOT 0xAD 0x23 DUP5 ADDRESS DUP13 EXTCODEHASH SHR 0xD4 PUSH25 0x5664736F6C634300081A003300000000000000000000000000 "
		},
		"gasEstimates": {
			"creation": {
				"codeDepositCost": "21200",
				"executionCost": "73",
				"totalCost": "21273"
			},
			"external": {
				"givePoint()": "121"
			}
		},
		"methodIdentifiers": {
			"givePoint()": "41e74c01"
		}
	},
	"abi": [
		{
			"inputs": [],
			"name": "givePoint",
			"outputs": [],
			"stateMutability": "nonpayable",
			"type": "function"
		}
	]
}