{
	"data": {
		"bytecode": {
			"linkReferences": {},
			"object": "6080604052348015600e575f80fd5b5061049c8061001c5f395ff3fe608060405234801561000f575f80fd5b506004361061004a575f3560e01c806331bb2d921461004e578063a1677e6b1461007e578063a69ea94b146100ae578063b9a325a6146100de575b5f80fd5b610068600480360381019061006391906102ba565b6100e8565b6040516100759190610319565b60405180910390f35b61009860048036038101906100939190610332565b610117565b6040516100a59190610319565b60405180910390f35b6100c860048036038101906100c39190610332565b610149565b6040516100d591906103c2565b60405180910390f35b6100e6610150565b005b5f816040516020016100fa919061042d565b604051602081830303815290604052805190602001209050919050565b5f828260405160200161012b929190610443565b60405160208183030381529060405280519060200120905092915050565b5f92915050565b600360018160018154018082558091505003905f5260205f205050565b5f604051905090565b5f80fd5b5f80fd5b5f80fd5b5f80fd5b5f601f19601f8301169050919050565b7f4e487b71000000000000000000000000000000000000000000000000000000005f52604160045260245ffd5b6101cc82610186565b810181811067ffffffffffffffff821117156101eb576101ea610196565b5b80604052505050565b5f6101fd61016d565b905061020982826101c3565b919050565b5f67ffffffffffffffff82111561022857610227610196565b5b61023182610186565b9050602081019050919050565b828183375f83830152505050565b5f61025e6102598461020e565b6101f4565b90508281526020810184848401111561027a57610279610182565b5b61028584828561023e565b509392505050565b5f82601f8301126102a1576102a061017e565b5b81356102b184826020860161024c565b91505092915050565b5f602082840312156102cf576102ce610176565b5b5f82013567ffffffffffffffff8111156102ec576102eb61017a565b5b6102f88482850161028d565b91505092915050565b5f819050919050565b61031381610301565b82525050565b5f60208201905061032c5f83018461030a565b92915050565b5f806040838503121561034857610347610176565b5b5f83013567ffffffffffffffff8111156103655761036461017a565b5b6103718582860161028d565b925050602083013567ffffffffffffffff8111156103925761039161017a565b5b61039e8582860161028d565b9150509250929050565b5f8115159050919050565b6103bc816103a8565b82525050565b5f6020820190506103d55f8301846103b3565b92915050565b5f81519050919050565b5f81905092915050565b8281835e5f83830152505050565b5f610407826103db565b61041181856103e5565b93506104218185602086016103ef565b80840191505092915050565b5f61043882846103fd565b915081905092915050565b5f61044e82856103fd565b915061045a82846103fd565b9150819050939250505056fea264697066735822122015361a36c9e1ab0fede78d17df7b6dd7b3e0dda187bcd7e05e81079e80d89e7164736f6c634300081a0033",
			"opcodes": "PUSH1 0x80 PUSH1 0x40 MSTORE CALLVALUE DUP1 ISZERO PUSH1 0xE JUMPI PUSH0 DUP1 REVERT JUMPDEST POP PUSH2 0x49C DUP1 PUSH2 0x1C PUSH0 CODECOPY PUSH0 RETURN INVALID PUSH1 0x80 PUSH1 0x40 MSTORE CALLVALUE DUP1 ISZERO PUSH2 0xF JUMPI PUSH0 DUP1 REVERT JUMPDEST POP PUSH1 0x4 CALLDATASIZE LT PUSH2 0x4A JUMPI PUSH0 CALLDATALOAD PUSH1 0xE0 SHR DUP1 PUSH4 0x31BB2D92 EQ PUSH2 0x4E JUMPI DUP1 PUSH4 0xA1677E6B EQ PUSH2 0x7E JUMPI DUP1 PUSH4 0xA69EA94B EQ PUSH2 0xAE JUMPI DUP1 PUSH4 0xB9A325A6 EQ PUSH2 0xDE JUMPI JUMPDEST PUSH0 DUP1 REVERT JUMPDEST PUSH2 0x68 PUSH1 0x4 DUP1 CALLDATASIZE SUB DUP2 ADD SWAP1 PUSH2 0x63 SWAP2 SWAP1 PUSH2 0x2BA JUMP JUMPDEST PUSH2 0xE8 JUMP JUMPDEST PUSH1 0x40 MLOAD PUSH2 0x75 SWAP2 SWAP1 PUSH2 0x319 JUMP JUMPDEST PUSH1 0x40 MLOAD DUP1 SWAP2 SUB SWAP1 RETURN JUMPDEST PUSH2 0x98 PUSH1 0x4 DUP1 CALLDATASIZE SUB DUP2 ADD SWAP1 PUSH2 0x93 SWAP2 SWAP1 PUSH2 0x332 JUMP JUMPDEST PUSH2 0x117 JUMP JUMPDEST PUSH1 0x40 MLOAD PUSH2 0xA5 SWAP2 SWAP1 PUSH2 0x319 JUMP JUMPDEST PUSH1 0x40 MLOAD DUP1 SWAP2 SUB SWAP1 RETURN JUMPDEST PUSH2 0xC8 PUSH1 0x4 DUP1 CALLDATASIZE SUB DUP2 ADD SWAP1 PUSH2 0xC3 SWAP2 SWAP1 PUSH2 0x332 JUMP JUMPDEST PUSH2 0x149 JUMP JUMPDEST PUSH1 0x40 MLOAD PUSH2 0xD5 SWAP2 SWAP1 PUSH2 0x3C2 JUMP JUMPDEST PUSH1 0x40 MLOAD DUP1 SWAP2 SUB SWAP1 RETURN JUMPDEST PUSH2 0xE6 PUSH2 0x150 JUMP JUMPDEST STOP JUMPDEST PUSH0 DUP2 PUSH1 0x40 MLOAD PUSH1 0x20 ADD PUSH2 0xFA SWAP2 SWAP1 PUSH2 0x42D JUMP JUMPDEST PUSH1 0x40 MLOAD PUSH1 0x20 DUP2 DUP4 SUB SUB DUP2 MSTORE SWAP1 PUSH1 0x40 MSTORE DUP1 MLOAD SWAP1 PUSH1 0x20 ADD KECCAK256 SWAP1 POP SWAP2 SWAP1 POP JUMP JUMPDEST PUSH0 DUP3 DUP3 PUSH1 0x40 MLOAD PUSH1 0x20 ADD PUSH2 0x12B SWAP3 SWAP2 SWAP1 PUSH2 0x443 JUMP JUMPDEST PUSH1 0x40 MLOAD PUSH1 0x20 DUP2 DUP4 SUB SUB DUP2 MSTORE SWAP1 PUSH1 0x40 MSTORE DUP1 MLOAD SWAP1 PUSH1 0x20 ADD KECCAK256 SWAP1 POP SWAP3 SWAP2 POP POP JUMP JUMPDEST PUSH0 SWAP3 SWAP2 POP POP JUMP JUMPDEST PUSH1 0x3 PUSH1 0x1 DUP2 PUSH1 0x1 DUP2 SLOAD ADD DUP1 DUP3 SSTORE DUP1 SWAP2 POP POP SUB SWAP1 PUSH0 MSTORE PUSH1 0x20 PUSH0 KECCAK256 POP POP JUMP JUMPDEST PUSH0 PUSH1 0x40 MLOAD SWAP1 POP SWAP1 JUMP JUMPDEST PUSH0 DUP1 REVERT JUMPDEST PUSH0 DUP1 REVERT JUMPDEST PUSH0 DUP1 REVERT JUMPDEST PUSH0 DUP1 REVERT JUMPDEST PUSH0 PUSH1 0x1F NOT PUSH1 0x1F DUP4 ADD AND SWAP1 POP SWAP2 SWAP1 POP JUMP JUMPDEST PUSH32 0x4E487B7100000000000000000000000000000000000000000000000000000000 PUSH0 MSTORE PUSH1 0x41 PUSH1 0x4 MSTORE PUSH1 0x24 PUSH0 REVERT JUMPDEST PUSH2 0x1CC DUP3 PUSH2 0x186 JUMP JUMPDEST DUP2 ADD DUP2 DUP2 LT PUSH8 0xFFFFFFFFFFFFFFFF DUP3 GT OR ISZERO PUSH2 0x1EB JUMPI PUSH2 0x1EA PUSH2 0x196 JUMP JUMPDEST JUMPDEST DUP1 PUSH1 0x40 MSTORE POP POP POP JUMP JUMPDEST PUSH0 PUSH2 0x1FD PUSH2 0x16D JUMP JUMPDEST SWAP1 POP PUSH2 0x209 DUP3 DUP3 PUSH2 0x1C3 JUMP JUMPDEST SWAP2 SWAP1 POP JUMP JUMPDEST PUSH0 PUSH8 0xFFFFFFFFFFFFFFFF DUP3 GT ISZERO PUSH2 0x228 JUMPI PUSH2 0x227 PUSH2 0x196 JUMP JUMPDEST JUMPDEST PUSH2 0x231 DUP3 PUSH2 0x186 JUMP JUMPDEST SWAP1 POP PUSH1 0x20 DUP2 ADD SWAP1 POP SWAP2 SWAP1 POP JUMP JUMPDEST DUP3 DUP2 DUP4 CALLDATACOPY PUSH0 DUP4 DUP4 ADD MSTORE POP POP POP JUMP JUMPDEST PUSH0 PUSH2 0x25E PUSH2 0x259 DUP5 PUSH2 0x20E JUMP JUMPDEST PUSH2 0x1F4 JUMP JUMPDEST SWAP1 POP DUP3 DUP2 MSTORE PUSH1 0x20 DUP2 ADD DUP5 DUP5 DUP5 ADD GT ISZERO PUSH2 0x27A JUMPI PUSH2 0x279 PUSH2 0x182 JUMP JUMPDEST JUMPDEST PUSH2 0x285 DUP5 DUP3 DUP6 PUSH2 0x23E JUMP JUMPDEST POP SWAP4 SWAP3 POP POP POP JUMP JUMPDEST PUSH0 DUP3 PUSH1 0x1F DUP4 ADD SLT PUSH2 0x2A1 JUMPI PUSH2 0x2A0 PUSH2 0x17E JUMP JUMPDEST JUMPDEST DUP2 CALLDATALOAD PUSH2 0x2B1 DUP5 DUP3 PUSH1 0x20 DUP7 ADD PUSH2 0x24C JUMP JUMPDEST SWAP2 POP POP SWAP3 SWAP2 POP POP JUMP JUMPDEST PUSH0 PUSH1 0x20 DUP3 DUP5 SUB SLT ISZERO PUSH2 0x2CF JUMPI PUSH2 0x2CE PUSH2 0x176 JUMP JUMPDEST JUMPDEST PUSH0 DUP3 ADD CALLDATALOAD PUSH8 0xFFFFFFFFFFFFFFFF DUP2 GT ISZERO PUSH2 0x2EC JUMPI PUSH2 0x2EB PUSH2 0x17A JUMP JUMPDEST JUMPDEST PUSH2 0x2F8 DUP5 DUP3 DUP6 ADD PUSH2 0x28D JUMP JUMPDEST SWAP2 POP POP SWAP3 SWAP2 POP POP JUMP JUMPDEST PUSH0 DUP2 SWAP1 POP SWAP2 SWAP1 POP JUMP JUMPDEST PUSH2 0x313 DUP2 PUSH2 0x301 JUMP JUMPDEST DUP3 MSTORE POP POP JUMP JUMPDEST PUSH0 PUSH1 0x20 DUP3 ADD SWAP1 POP PUSH2 0x32C PUSH0 DUP4 ADD DUP5 PUSH2 0x30A JUMP JUMPDEST SWAP3 SWAP2 POP POP JUMP JUMPDEST PUSH0 DUP1 PUSH1 0x40 DUP4 DUP6 SUB SLT ISZERO PUSH2 0x348 JUMPI PUSH2 0x347 PUSH2 0x176 JUMP JUMPDEST JUMPDEST PUSH0 DUP4 ADD CALLDATALOAD PUSH8 0xFFFFFFFFFFFFFFFF DUP2 GT ISZERO PUSH2 0x365 JUMPI PUSH2 0x364 PUSH2 0x17A JUMP JUMPDEST JUMPDEST PUSH2 0x371 DUP6 DUP3 DUP7 ADD PUSH2 0x28D JUMP JUMPDEST SWAP3 POP POP PUSH1 0x20 DUP4 ADD CALLDATALOAD PUSH8 0xFFFFFFFFFFFFFFFF DUP2 GT ISZERO PUSH2 0x392 JUMPI PUSH2 0x391 PUSH2 0x17A JUMP JUMPDEST JUMPDEST PUSH2 0x39E DUP6 DUP3 DUP7 ADD PUSH2 0x28D JUMP JUMPDEST SWAP2 POP POP SWAP3 POP SWAP3 SWAP1 POP JUMP JUMPDEST PUSH0 DUP2 ISZERO ISZERO SWAP1 POP SWAP2 SWAP1 POP JUMP JUMPDEST PUSH2 0x3BC DUP2 PUSH2 0x3A8 JUMP JUMPDEST DUP3 MSTORE POP POP JUMP JUMPDEST PUSH0 PUSH1 0x20 DUP3 ADD SWAP1 POP PUSH2 0x3D5 PUSH0 DUP4 ADD DUP5 PUSH2 0x3B3 JUMP JUMPDEST SWAP3 SWAP2 POP POP JUMP JUMPDEST PUSH0 DUP2 MLOAD SWAP1 POP SWAP2 SWAP1 POP JUMP JUMPDEST PUSH0 DUP2 SWAP1 POP SWAP3 SWAP2 POP POP JUMP JUMPDEST DUP3 DUP2 DUP4 MCOPY PUSH0 DUP4 DUP4 ADD MSTORE POP POP POP JUMP JUMPDEST PUSH0 PUSH2 0x407 DUP3 PUSH2 0x3DB JUMP JUMPDEST PUSH2 0x411 DUP2 DUP6 PUSH2 0x3E5 JUMP JUMPDEST SWAP4 POP PUSH2 0x421 DUP2 DUP6 PUSH1 0x20 DUP7 ADD PUSH2 0x3EF JUMP JUMPDEST DUP1 DUP5 ADD SWAP2 POP POP SWAP3 SWAP2 POP POP JUMP JUMPDEST PUSH0 PUSH2 0x438 DUP3 DUP5 PUSH2 0x3FD JUMP JUMPDEST SWAP2 POP DUP2 SWAP1 POP SWAP3 SWAP2 POP POP JUMP JUMPDEST PUSH0 PUSH2 0x44E DUP3 DUP6 PUSH2 0x3FD JUMP JUMPDEST SWAP2 POP PUSH2 0x45A DUP3 DUP5 PUSH2 0x3FD JUMP JUMPDEST SWAP2 POP DUP2 SWAP1 POP SWAP4 SWAP3 POP POP POP JUMP INVALID LOG2 PUSH5 0x6970667358 0x22 SLT KECCAK256 ISZERO CALLDATASIZE BYTE CALLDATASIZE 0xC9 0xE1 0xAB 0xF 0xED 0xE7 DUP14 OR 0xDF PUSH28 0x6DD7B3E0DDA187BCD7E05E81079E80D89E7164736F6C634300081A00 CALLER "
		},
		"gasEstimates": {
			"creation": {
				"codeDepositCost": "236000",
				"executionCost": "273",
				"totalCost": "236273"
			},
			"external": {
				"CheckId(string,string)": "infinite",
				"pushA_IDPW()": "24477",
				"setV_IDPW(string,string)": "infinite",
				"setV_PW(string)": "infinite"
			}
		},
		"methodIdentifiers": {
			"CheckId(string,string)": "a69ea94b",
			"pushA_IDPW()": "b9a325a6",
			"setV_IDPW(string,string)": "a1677e6b",
			"setV_PW(string)": "31bb2d92"
		}
	},
	"abi": [
		{
			"inputs": [
				{
					"internalType": "string",
					"name": "_ID",
					"type": "string"
				},
				{
					"internalType": "string",
					"name": "_PW",
					"type": "string"
				}
			],
			"name": "CheckId",
			"outputs": [
				{
					"internalType": "bool",
					"name": "",
					"type": "bool"
				}
			],
			"stateMutability": "pure",
			"type": "function"
		},
		{
			"inputs": [],
			"name": "pushA_IDPW",
			"outputs": [],
			"stateMutability": "nonpayable",
			"type": "function"
		},
		{
			"inputs": [
				{
					"internalType": "string",
					"name": "_ID",
					"type": "string"
				},
				{
					"internalType": "string",
					"name": "_PW",
					"type": "string"
				}
			],
			"name": "setV_IDPW",
			"outputs": [
				{
					"internalType": "bytes32",
					"name": "",
					"type": "bytes32"
				}
			],
			"stateMutability": "pure",
			"type": "function"
		},
		{
			"inputs": [
				{
					"internalType": "string",
					"name": "_PW",
					"type": "string"
				}
			],
			"name": "setV_PW",
			"outputs": [
				{
					"internalType": "bytes32",
					"name": "",
					"type": "bytes32"
				}
			],
			"stateMutability": "pure",
			"type": "function"
		}
	]
}